{
  "contractName": "AddressResolver",
  "abi": [
    {
      "inputs": [],
      "stateMutability": "nonpayable",
      "type": "constructor"
    },
    {
      "anonymous": false,
      "inputs": [
        {
          "indexed": false,
          "internalType": "address",
          "name": "poolAddress",
          "type": "address"
        },
        {
          "indexed": false,
          "internalType": "uint256",
          "name": "timestamp",
          "type": "uint256"
        }
      ],
      "name": "AddedPoolAddress",
      "type": "event"
    },
    {
      "anonymous": false,
      "inputs": [
        {
          "indexed": false,
          "internalType": "address",
          "name": "strategyAddress",
          "type": "address"
        },
        {
          "indexed": false,
          "internalType": "uint256",
          "name": "timestamp",
          "type": "uint256"
        }
      ],
      "name": "AddedStrategyAddress",
      "type": "event"
    },
    {
      "anonymous": false,
      "inputs": [
        {
          "indexed": false,
          "internalType": "address",
          "name": "tradingBotAddress",
          "type": "address"
        },
        {
          "indexed": false,
          "internalType": "uint256",
          "name": "timestamp",
          "type": "uint256"
        }
      ],
      "name": "AddedTradingBotAddress",
      "type": "event"
    },
    {
      "anonymous": false,
      "inputs": [
        {
          "indexed": true,
          "internalType": "address",
          "name": "previousOwner",
          "type": "address"
        },
        {
          "indexed": true,
          "internalType": "address",
          "name": "newOwner",
          "type": "address"
        }
      ],
      "name": "OwnershipTransferred",
      "type": "event"
    },
    {
      "anonymous": false,
      "inputs": [
        {
          "indexed": false,
          "internalType": "string",
          "name": "contractName",
          "type": "string"
        },
        {
          "indexed": false,
          "internalType": "address",
          "name": "oldAddress",
          "type": "address"
        },
        {
          "indexed": false,
          "internalType": "address",
          "name": "newAddress",
          "type": "address"
        },
        {
          "indexed": false,
          "internalType": "uint256",
          "name": "timestamp",
          "type": "uint256"
        }
      ],
      "name": "UpdatedContractAddress",
      "type": "event"
    },
    {
      "inputs": [
        {
          "internalType": "address",
          "name": "",
          "type": "address"
        }
      ],
      "name": "_poolAddresses",
      "outputs": [
        {
          "internalType": "address",
          "name": "",
          "type": "address"
        }
      ],
      "stateMutability": "view",
      "type": "function"
    },
    {
      "inputs": [
        {
          "internalType": "address",
          "name": "",
          "type": "address"
        }
      ],
      "name": "_strategyAddresses",
      "outputs": [
        {
          "internalType": "address",
          "name": "",
          "type": "address"
        }
      ],
      "stateMutability": "view",
      "type": "function"
    },
    {
      "inputs": [
        {
          "internalType": "address",
          "name": "",
          "type": "address"
        }
      ],
      "name": "_tradingBotAddresses",
      "outputs": [
        {
          "internalType": "address",
          "name": "",
          "type": "address"
        }
      ],
      "stateMutability": "view",
      "type": "function"
    },
    {
      "inputs": [
        {
          "internalType": "string",
          "name": "",
          "type": "string"
        }
      ],
      "name": "contractAddresses",
      "outputs": [
        {
          "internalType": "address",
          "name": "",
          "type": "address"
        }
      ],
      "stateMutability": "view",
      "type": "function"
    },
    {
      "inputs": [],
      "name": "isOwner",
      "outputs": [
        {
          "internalType": "bool",
          "name": "",
          "type": "bool"
        }
      ],
      "stateMutability": "view",
      "type": "function"
    },
    {
      "inputs": [],
      "name": "owner",
      "outputs": [
        {
          "internalType": "address",
          "name": "",
          "type": "address"
        }
      ],
      "stateMutability": "view",
      "type": "function"
    },
    {
      "inputs": [],
      "name": "renounceOwnership",
      "outputs": [],
      "stateMutability": "nonpayable",
      "type": "function"
    },
    {
      "inputs": [
        {
          "internalType": "address",
          "name": "newOwner",
          "type": "address"
        }
      ],
      "name": "transferOwnership",
      "outputs": [],
      "stateMutability": "nonpayable",
      "type": "function"
    },
    {
      "inputs": [
        {
          "internalType": "string",
          "name": "contractName",
          "type": "string"
        }
      ],
      "name": "getContractAddress",
      "outputs": [
        {
          "internalType": "address",
          "name": "",
          "type": "address"
        }
      ],
      "stateMutability": "view",
      "type": "function"
    },
    {
      "inputs": [
        {
          "internalType": "address",
          "name": "tradingBotAddress",
          "type": "address"
        }
      ],
      "name": "checkIfTradingBotAddressIsValid",
      "outputs": [
        {
          "internalType": "bool",
          "name": "",
          "type": "bool"
        }
      ],
      "stateMutability": "view",
      "type": "function"
    },
    {
      "inputs": [
        {
          "internalType": "address",
          "name": "strategyAddress",
          "type": "address"
        }
      ],
      "name": "checkIfStrategyAddressIsValid",
      "outputs": [
        {
          "internalType": "bool",
          "name": "",
          "type": "bool"
        }
      ],
      "stateMutability": "view",
      "type": "function"
    },
    {
      "inputs": [
        {
          "internalType": "address",
          "name": "poolAddress",
          "type": "address"
        }
      ],
      "name": "checkIfPoolAddressIsValid",
      "outputs": [
        {
          "internalType": "bool",
          "name": "",
          "type": "bool"
        }
      ],
      "stateMutability": "view",
      "type": "function"
    },
    {
      "inputs": [
        {
          "internalType": "string",
          "name": "contractName",
          "type": "string"
        },
        {
          "internalType": "address",
          "name": "newAddress",
          "type": "address"
        }
      ],
      "name": "setContractAddress",
      "outputs": [],
      "stateMutability": "nonpayable",
      "type": "function"
    },
    {
      "inputs": [
        {
          "internalType": "address",
          "name": "tradingBotAddress",
          "type": "address"
        }
      ],
      "name": "addTradingBotAddress",
      "outputs": [],
      "stateMutability": "nonpayable",
      "type": "function"
    },
    {
      "inputs": [
        {
          "internalType": "address",
          "name": "strategyAddress",
          "type": "address"
        }
      ],
      "name": "addStrategyAddress",
      "outputs": [],
      "stateMutability": "nonpayable",
      "type": "function"
    },
    {
      "inputs": [
        {
          "internalType": "address",
          "name": "poolAddress",
          "type": "address"
        }
      ],
      "name": "addPoolAddress",
      "outputs": [],
      "stateMutability": "nonpayable",
      "type": "function"
    }
  ],
  "bytecode": "0x608060405234801561001057600080fd5b50336000806101000a81548173ffffffffffffffffffffffffffffffffffffffff021916908373ffffffffffffffffffffffffffffffffffffffff16021790555060008054906101000a900473ffffffffffffffffffffffffffffffffffffffff1673ffffffffffffffffffffffffffffffffffffffff16600073ffffffffffffffffffffffffffffffffffffffff167f8be0079c531659141344cd1fd0a4f28419497f9722a3daafe3b4186f6b6457e060405160405180910390a3611a81806100db6000396000f3fe608060405234801561001057600080fd5b50600436106101005760003560e01c80638da5cb5b11610097578063e51f8aba11610066578063e51f8aba1461057f578063ee67cc2a146105d9578063f2fde38b146106be578063f579fd421461070257610100565b80638da5cb5b146104635780638f32d59b14610497578063913d75bf146104b7578063debd7e8e1461052557610100565b806343499844116100d357806343499844146102e0578063534e785c14610324578063683ad58f146103ff578063715018a61461045957610100565b8063034b08fb1461010557806304433bbc146101495780632af9d1651461022e5780634343d1591461029c575b600080fd5b6101476004803603602081101561011b57600080fd5b81019080803573ffffffffffffffffffffffffffffffffffffffff169060200190929190505050610770565b005b6102026004803603602081101561015f57600080fd5b810190808035906020019064010000000081111561017c57600080fd5b82018360208201111561018e57600080fd5b803590602001918460018302840111640100000000831117156101b057600080fd5b91908080601f016020809104026020016040519081016040528093929190818152602001838380828437600081840152601f19601f820116905080830192505050505050509192919290505050610a79565b604051808273ffffffffffffffffffffffffffffffffffffffff16815260200191505060405180910390f35b6102706004803603602081101561024457600080fd5b81019080803573ffffffffffffffffffffffffffffffffffffffff169060200190929190505050610b0c565b604051808273ffffffffffffffffffffffffffffffffffffffff16815260200191505060405180910390f35b6102de600480360360208110156102b257600080fd5b81019080803573ffffffffffffffffffffffffffffffffffffffff169060200190929190505050610b3f565b005b610322600480360360208110156102f657600080fd5b81019080803573ffffffffffffffffffffffffffffffffffffffff169060200190929190505050610e49565b005b6103fd6004803603604081101561033a57600080fd5b810190808035906020019064010000000081111561035757600080fd5b82018360208201111561036957600080fd5b8035906020019184600183028401116401000000008311171561038b57600080fd5b91908080601f016020809104026020016040519081016040528093929190818152602001838380828437600081840152601f19601f820116905080830192505050505050509192919290803573ffffffffffffffffffffffffffffffffffffffff169060200190929190505050611152565b005b6104416004803603602081101561041557600080fd5b81019080803573ffffffffffffffffffffffffffffffffffffffff169060200190929190505050611423565b60405180821515815260200191505060405180910390f35b6104616114f6565b005b61046b6115c5565b604051808273ffffffffffffffffffffffffffffffffffffffff16815260200191505060405180910390f35b61049f6115ee565b60405180821515815260200191505060405180910390f35b6104f9600480360360208110156104cd57600080fd5b81019080803573ffffffffffffffffffffffffffffffffffffffff169060200190929190505050611645565b604051808273ffffffffffffffffffffffffffffffffffffffff16815260200191505060405180910390f35b6105676004803603602081101561053b57600080fd5b81019080803573ffffffffffffffffffffffffffffffffffffffff169060200190929190505050611678565b60405180821515815260200191505060405180910390f35b6105c16004803603602081101561059557600080fd5b81019080803573ffffffffffffffffffffffffffffffffffffffff16906020019092919050505061174b565b60405180821515815260200191505060405180910390f35b610692600480360360208110156105ef57600080fd5b810190808035906020019064010000000081111561060c57600080fd5b82018360208201111561061e57600080fd5b8035906020019184600183028401116401000000008311171561064057600080fd5b91908080601f016020809104026020016040519081016040528093929190818152602001838380828437600081840152601f19601f82011690508083019250505050505050919291929050505061181e565b604051808273ffffffffffffffffffffffffffffffffffffffff16815260200191505060405180910390f35b610700600480360360208110156106d457600080fd5b81019080803573ffffffffffffffffffffffffffffffffffffffff169060200190929190505050611867565b005b6107446004803603602081101561071857600080fd5b81019080803573ffffffffffffffffffffffffffffffffffffffff169060200190929190505050611884565b604051808273ffffffffffffffffffffffffffffffffffffffff16815260200191505060405180910390f35b600460405180807f53747261746567794d616e616765720000000000000000000000000000000000815250600f019050908152602001604051809103902060009054906101000a900473ffffffffffffffffffffffffffffffffffffffff1673ffffffffffffffffffffffffffffffffffffffff163373ffffffffffffffffffffffffffffffffffffffff1614610852576040517f08c379a00000000000000000000000000000000000000000000000000000000081526004018080602001828103825260388152602001806119af6038913960400191505060405180910390fd5b80600073ffffffffffffffffffffffffffffffffffffffff168173ffffffffffffffffffffffffffffffffffffffff1614156108f6576040517f08c379a00000000000000000000000000000000000000000000000000000000081526004018080602001828103825260148152602001807f41646472657373206973206e6f742076616c696400000000000000000000000081525060200191505060405180910390fd5b8173ffffffffffffffffffffffffffffffffffffffff16600260008473ffffffffffffffffffffffffffffffffffffffff1673ffffffffffffffffffffffffffffffffffffffff16815260200190815260200160002060009054906101000a900473ffffffffffffffffffffffffffffffffffffffff1673ffffffffffffffffffffffffffffffffffffffff1614156109f7576040517f08c379a00000000000000000000000000000000000000000000000000000000081526004018080602001828103825260178152602001807f537472617465677920616c72656164792065786973747300000000000000000081525060200191505060405180910390fd5b81600260008473ffffffffffffffffffffffffffffffffffffffff1673ffffffffffffffffffffffffffffffffffffffff16815260200190815260200160002060006101000a81548173ffffffffffffffffffffffffffffffffffffffff021916908373ffffffffffffffffffffffffffffffffffffffff1602179055505050565b60006004826040518082805190602001908083835b60208310610ab15780518252602082019150602081019050602083039250610a8e565b6001836020036101000a038019825116818451168082178552505050505050905001915050908152602001604051809103902060009054906101000a900473ffffffffffffffffffffffffffffffffffffffff169050919050565b60036020528060005260406000206000915054906101000a900473ffffffffffffffffffffffffffffffffffffffff1681565b600260003373ffffffffffffffffffffffffffffffffffffffff1673ffffffffffffffffffffffffffffffffffffffff16815260200190815260200160002060009054906101000a900473ffffffffffffffffffffffffffffffffffffffff1673ffffffffffffffffffffffffffffffffffffffff163373ffffffffffffffffffffffffffffffffffffffff1614610c22576040517f08c379a0000000000000000000000000000000000000000000000000000000008152600401808060200182810382526031815260200180611a1b6031913960400191505060405180910390fd5b80600073ffffffffffffffffffffffffffffffffffffffff168173ffffffffffffffffffffffffffffffffffffffff161415610cc6576040517f08c379a00000000000000000000000000000000000000000000000000000000081526004018080602001828103825260148152602001807f41646472657373206973206e6f742076616c696400000000000000000000000081525060200191505060405180910390fd5b8173ffffffffffffffffffffffffffffffffffffffff16600160008473ffffffffffffffffffffffffffffffffffffffff1673ffffffffffffffffffffffffffffffffffffffff16815260200190815260200160002060009054906101000a900473ffffffffffffffffffffffffffffffffffffffff1673ffffffffffffffffffffffffffffffffffffffff161415610dc7576040517f08c379a000000000000000000000000000000000000000000000000000000000815260040180806020018281038252601a8152602001807f54726164696e6720626f7420616c72656164792065786973747300000000000081525060200191505060405180910390fd5b81600160008473ffffffffffffffffffffffffffffffffffffffff1673ffffffffffffffffffffffffffffffffffffffff16815260200190815260200160002060006101000a81548173ffffffffffffffffffffffffffffffffffffffff021916908373ffffffffffffffffffffffffffffffffffffffff1602179055505050565b600460405180807f506f6f6c4d616e61676572000000000000000000000000000000000000000000815250600b019050908152602001604051809103902060009054906101000a900473ffffffffffffffffffffffffffffffffffffffff1673ffffffffffffffffffffffffffffffffffffffff163373ffffffffffffffffffffffffffffffffffffffff1614610f2b576040517f08c379a00000000000000000000000000000000000000000000000000000000081526004018080602001828103825260348152602001806119e76034913960400191505060405180910390fd5b80600073ffffffffffffffffffffffffffffffffffffffff168173ffffffffffffffffffffffffffffffffffffffff161415610fcf576040517f08c379a00000000000000000000000000000000000000000000000000000000081526004018080602001828103825260148152602001807f41646472657373206973206e6f742076616c696400000000000000000000000081525060200191505060405180910390fd5b8173ffffffffffffffffffffffffffffffffffffffff16600360008473ffffffffffffffffffffffffffffffffffffffff1673ffffffffffffffffffffffffffffffffffffffff16815260200190815260200160002060009054906101000a900473ffffffffffffffffffffffffffffffffffffffff1673ffffffffffffffffffffffffffffffffffffffff1614156110d0576040517f08c379a00000000000000000000000000000000000000000000000000000000081526004018080602001828103825260138152602001807f506f6f6c20616c7265616479206578697374730000000000000000000000000081525060200191505060405180910390fd5b81600360008473ffffffffffffffffffffffffffffffffffffffff1673ffffffffffffffffffffffffffffffffffffffff16815260200190815260200160002060006101000a81548173ffffffffffffffffffffffffffffffffffffffff021916908373ffffffffffffffffffffffffffffffffffffffff1602179055505050565b61115a6115ee565b61116357600080fd5b80600073ffffffffffffffffffffffffffffffffffffffff168173ffffffffffffffffffffffffffffffffffffffff161415611207576040517f08c379a00000000000000000000000000000000000000000000000000000000081526004018080602001828103825260148152602001807f41646472657373206973206e6f742076616c696400000000000000000000000081525060200191505060405180910390fd5b60006004846040518082805190602001908083835b6020831061123f578051825260208201915060208101905060208303925061121c565b6001836020036101000a038019825116818451168082178552505050505050905001915050908152602001604051809103902060009054906101000a900473ffffffffffffffffffffffffffffffffffffffff169050826004856040518082805190602001908083835b602083106112cc57805182526020820191506020810190506020830392506112a9565b6001836020036101000a038019825116818451168082178552505050505050905001915050908152602001604051809103902060006101000a81548173ffffffffffffffffffffffffffffffffffffffff021916908373ffffffffffffffffffffffffffffffffffffffff1602179055507f8e0725ffce153afab0fff160abeae6d45aeb6f4338bbcc503f97abe5d4890f208482854260405180806020018573ffffffffffffffffffffffffffffffffffffffff1681526020018473ffffffffffffffffffffffffffffffffffffffff168152602001838152602001828103825286818151815260200191508051906020019080838360005b838110156113e05780820151818401526020810190506113c5565b50505050905090810190601f16801561140d5780820380516001836020036101000a031916815260200191505b509550505050505060405180910390a150505050565b60008073ffffffffffffffffffffffffffffffffffffffff168273ffffffffffffffffffffffffffffffffffffffff1614156114605760006114ef565b8173ffffffffffffffffffffffffffffffffffffffff16600160008473ffffffffffffffffffffffffffffffffffffffff1673ffffffffffffffffffffffffffffffffffffffff16815260200190815260200160002060009054906101000a900473ffffffffffffffffffffffffffffffffffffffff1673ffffffffffffffffffffffffffffffffffffffff16145b9050919050565b6114fe6115ee565b61150757600080fd5b600073ffffffffffffffffffffffffffffffffffffffff1660008054906101000a900473ffffffffffffffffffffffffffffffffffffffff1673ffffffffffffffffffffffffffffffffffffffff167f8be0079c531659141344cd1fd0a4f28419497f9722a3daafe3b4186f6b6457e060405160405180910390a360008060006101000a81548173ffffffffffffffffffffffffffffffffffffffff021916908373ffffffffffffffffffffffffffffffffffffffff160217905550565b60008060009054906101000a900473ffffffffffffffffffffffffffffffffffffffff16905090565b60008060009054906101000a900473ffffffffffffffffffffffffffffffffffffffff1673ffffffffffffffffffffffffffffffffffffffff163373ffffffffffffffffffffffffffffffffffffffff1614905090565b60016020528060005260406000206000915054906101000a900473ffffffffffffffffffffffffffffffffffffffff1681565b60008073ffffffffffffffffffffffffffffffffffffffff168273ffffffffffffffffffffffffffffffffffffffff1614156116b5576000611744565b8173ffffffffffffffffffffffffffffffffffffffff16600260008473ffffffffffffffffffffffffffffffffffffffff1673ffffffffffffffffffffffffffffffffffffffff16815260200190815260200160002060009054906101000a900473ffffffffffffffffffffffffffffffffffffffff1673ffffffffffffffffffffffffffffffffffffffff16145b9050919050565b60008073ffffffffffffffffffffffffffffffffffffffff168273ffffffffffffffffffffffffffffffffffffffff161415611788576000611817565b8173ffffffffffffffffffffffffffffffffffffffff16600360008473ffffffffffffffffffffffffffffffffffffffff1673ffffffffffffffffffffffffffffffffffffffff16815260200190815260200160002060009054906101000a900473ffffffffffffffffffffffffffffffffffffffff1673ffffffffffffffffffffffffffffffffffffffff16145b9050919050565b6004818051602081018201805184825260208301602085012081835280955050505050506000915054906101000a900473ffffffffffffffffffffffffffffffffffffffff1681565b61186f6115ee565b61187857600080fd5b611881816118b7565b50565b60026020528060005260406000206000915054906101000a900473ffffffffffffffffffffffffffffffffffffffff1681565b600073ffffffffffffffffffffffffffffffffffffffff168173ffffffffffffffffffffffffffffffffffffffff1614156118f157600080fd5b8073ffffffffffffffffffffffffffffffffffffffff1660008054906101000a900473ffffffffffffffffffffffffffffffffffffffff1673ffffffffffffffffffffffffffffffffffffffff167f8be0079c531659141344cd1fd0a4f28419497f9722a3daafe3b4186f6b6457e060405160405180910390a3806000806101000a81548173ffffffffffffffffffffffffffffffffffffffff021916908373ffffffffffffffffffffffffffffffffffffffff1602179055505056fe4f6e6c79207468652053747261746567794d616e6167657220636f6e74726163742063616e2063616c6c20746869732066756e6374696f6e4f6e6c792074686520506f6f6c4d616e6167657220636f6e74726163742063616e2063616c6c20746869732066756e6374696f6e4f6e6c792074686520537472617465677920636f6e74726163742063616e2063616c6c20746869732066756e6374696f6ea2646970667358221220bda78176c20713a15e0e7989e7e76f9e16202c4f7784c7cb77baabb1e6de78c964736f6c634300060c0033",
  "immutableReferences": {},
  "source": "pragma solidity >=0.5.0;\r\n\r\n//Interfaces\r\nimport './interfaces/IAddressResolver.sol';\r\n\r\n//Inheritance\r\nimport './Ownable.sol';\r\n\r\ncontract AddressResolver is IAddressResolver, Ownable {\r\n\r\n    mapping (address => address) public _tradingBotAddresses;\r\n    mapping (address => address) public _strategyAddresses;\r\n    mapping (address => address) public _poolAddresses;\r\n\r\n    mapping (string => address) public contractAddresses;\r\n\r\n    constructor() public Ownable() {}\r\n\r\n    /* ========== VIEWS ========== */\r\n\r\n    /**\r\n    * @dev Given a contract name, returns the address of the contract\r\n    * @param contractName The name of the contract\r\n    * @return address The address associated with the given contract name\r\n    */\r\n    function getContractAddress(string memory contractName) public view override returns(address) {\r\n        return contractAddresses[contractName];\r\n    }\r\n\r\n    /**\r\n    * @dev Given an address, returns whether the address belongs to a trading bot\r\n    * @param tradingBotAddress The address to validate\r\n    * @return bool Whether the given address is a valid trading bot address\r\n    */\r\n    function checkIfTradingBotAddressIsValid(address tradingBotAddress) public view override returns(bool) {\r\n        return (tradingBotAddress != address(0)) ? (_tradingBotAddresses[tradingBotAddress] == tradingBotAddress) : false;\r\n    }\r\n\r\n    /**\r\n    * @dev Given an address, returns whether the address belongs to a strategy\r\n    * @param strategyAddress The address to validate\r\n    * @return bool Whether the given address is a valid strategy address\r\n    */\r\n    function checkIfStrategyAddressIsValid(address strategyAddress) public view override returns(bool) {\r\n        return (strategyAddress != address(0)) ? (_strategyAddresses[strategyAddress] == strategyAddress) : false;\r\n    }\r\n\r\n    /**\r\n    * @dev Given an address, returns whether the address belongs to a user pool\r\n    * @param poolAddress The address to validate\r\n    * @return bool Whether the given address is a valid user pool address\r\n    */\r\n    function checkIfPoolAddressIsValid(address poolAddress) public view override returns(bool) {\r\n        return (poolAddress != address(0)) ? (_poolAddresses[poolAddress] == poolAddress) : false;\r\n    }\r\n\r\n    /* ========== RESTRICTED FUNCTIONS ========== */\r\n\r\n    /**\r\n    * @dev Updates the address for the given contract; meant to be called by AddressResolver owner\r\n    * @param contractName The name of the contract\r\n    * @param newAddress The new address for the given contract\r\n    */\r\n    function setContractAddress(string memory contractName, address newAddress) external override onlyOwner isValidAddress(newAddress) {\r\n        address oldAddress = contractAddresses[contractName];\r\n        contractAddresses[contractName] = newAddress;\r\n\r\n        emit UpdatedContractAddress(contractName, oldAddress, newAddress, block.timestamp);\r\n    }\r\n\r\n    /**\r\n    * @dev Adds a new trading bot address; meant to be called by the Strategy contract that owns the trading bot\r\n    * @param tradingBotAddress The address of the trading bot\r\n    */\r\n    function addTradingBotAddress(address tradingBotAddress) external override onlyStrategy isValidAddress(tradingBotAddress) {\r\n        require(_tradingBotAddresses[tradingBotAddress] != tradingBotAddress, \"Trading bot already exists\");\r\n\r\n        _tradingBotAddresses[tradingBotAddress] = tradingBotAddress;\r\n    }\r\n\r\n    /**\r\n    * @dev Adds a new strategy address; meant to be called by the StrategyManager contract\r\n    * @param strategyAddress The address of the strategy\r\n    */\r\n    function addStrategyAddress(address strategyAddress) external override onlyStrategyManager isValidAddress(strategyAddress) {\r\n        require(_strategyAddresses[strategyAddress] != strategyAddress, \"Strategy already exists\");\r\n\r\n        _strategyAddresses[strategyAddress] = strategyAddress;\r\n    }\r\n\r\n    /**\r\n    * @dev Adds a new user pool address; meant to be called by the PoolManager contract\r\n    * @param poolAddress The address of the user pool\r\n    */\r\n    function addPoolAddress(address poolAddress) external override onlyPoolManager isValidAddress(poolAddress) {\r\n        require(_poolAddresses[poolAddress] != poolAddress, \"Pool already exists\");\r\n\r\n        _poolAddresses[poolAddress] = poolAddress;\r\n    }\r\n\r\n    /* ========== MODIFIERS ========== */\r\n\r\n    modifier isValidAddress(address addressToCheck) {\r\n        require(addressToCheck != address(0), \"Address is not valid\");\r\n        _;\r\n    }\r\n\r\n    modifier validAddressForTransfer(address addressToCheck) {\r\n        require(addressToCheck == contractAddresses[\"StakingRewards\"] || addressToCheck == contractAddresses[\"StrategyProxy\"] || addressToCheck == contractAddresses[\"StrategyApproval\"] || addressToCheck == contractAddresses[\"Components\"], \"Address is not valid\");\r\n        _;\r\n    }\r\n\r\n    modifier onlyStrategy() {\r\n        require(msg.sender == _strategyAddresses[msg.sender], \"Only the Strategy contract can call this function\");\r\n        _;\r\n    }\r\n\r\n    modifier onlyStrategyManager() {\r\n        require(msg.sender == contractAddresses[\"StrategyManager\"], \"Only the StrategyManager contract can call this function\");\r\n        _;\r\n    }\r\n\r\n    modifier onlyPoolManager() {\r\n        require(msg.sender == contractAddresses[\"PoolManager\"], \"Only the PoolManager contract can call this function\");\r\n        _;\r\n    }\r\n\r\n    /* ========== EVENTS ========== */\r\n\r\n    event UpdatedContractAddress(string contractName, address oldAddress, address newAddress, uint timestamp);\r\n    event AddedTradingBotAddress(address tradingBotAddress, uint timestamp);\r\n    event AddedStrategyAddress(address strategyAddress, uint timestamp);\r\n    event AddedPoolAddress(address poolAddress, uint timestamp);\r\n}",
  "sourcePath": "C:/Users/xavie/OneDrive/Desktop/TradeGen/Github/tradegen/contracts/AddressResolver.sol",
  "compiler": {
    "name": "solc",
    "version": "0.6.12+commit.27d51765.Emscripten.clang"
  },
  "schemaVersion": "3.4.1",
  "updatedAt": "2021-07-07T01:09:06.233Z",
  "devdoc": {
    "kind": "dev",
    "methods": {
      "addPoolAddress(address)": {
        "details": "Adds a new user pool address; meant to be called by the PoolManager contract",
        "params": {
          "poolAddress": "The address of the user pool"
        }
      },
      "addStrategyAddress(address)": {
        "details": "Adds a new strategy address; meant to be called by the StrategyManager contract",
        "params": {
          "strategyAddress": "The address of the strategy"
        }
      },
      "addTradingBotAddress(address)": {
        "details": "Adds a new trading bot address; meant to be called by the Strategy contract that owns the trading bot",
        "params": {
          "tradingBotAddress": "The address of the trading bot"
        }
      },
      "checkIfPoolAddressIsValid(address)": {
        "details": "Given an address, returns whether the address belongs to a user pool",
        "params": {
          "poolAddress": "The address to validate"
        },
        "returns": {
          "_0": "bool Whether the given address is a valid user pool address"
        }
      },
      "checkIfStrategyAddressIsValid(address)": {
        "details": "Given an address, returns whether the address belongs to a strategy",
        "params": {
          "strategyAddress": "The address to validate"
        },
        "returns": {
          "_0": "bool Whether the given address is a valid strategy address"
        }
      },
      "checkIfTradingBotAddressIsValid(address)": {
        "details": "Given an address, returns whether the address belongs to a trading bot",
        "params": {
          "tradingBotAddress": "The address to validate"
        },
        "returns": {
          "_0": "bool Whether the given address is a valid trading bot address"
        }
      },
      "getContractAddress(string)": {
        "details": "Given a contract name, returns the address of the contract",
        "params": {
          "contractName": "The name of the contract"
        },
        "returns": {
          "_0": "address The address associated with the given contract name"
        }
      },
      "isOwner()": {
        "returns": {
          "_0": "true if `msg.sender` is the owner of the contract."
        }
      },
      "owner()": {
        "returns": {
          "_0": "the address of the owner."
        }
      },
      "renounceOwnership()": {
        "details": "Allows the current owner to relinquish control of the contract."
      },
      "setContractAddress(string,address)": {
        "details": "Updates the address for the given contract; meant to be called by AddressResolver owner",
        "params": {
          "contractName": "The name of the contract",
          "newAddress": "The new address for the given contract"
        }
      },
      "transferOwnership(address)": {
        "details": "Allows the current owner to transfer control of the contract to a newOwner.",
        "params": {
          "newOwner": "The address to transfer ownership to."
        }
      }
    },
    "version": 1
  },
  "userdoc": {
    "kind": "user",
    "methods": {
      "renounceOwnership()": {
        "notice": "Renouncing to ownership will leave the contract without an owner. It will not be possible to call the functions with the `onlyOwner` modifier anymore."
      }
    },
    "version": 1
  }
}