{
  "contractName": "AddressResolver",
  "abi": [
    {
      "inputs": [],
      "stateMutability": "nonpayable",
      "type": "constructor"
    },
    {
      "anonymous": false,
      "inputs": [
        {
          "indexed": false,
          "internalType": "address",
          "name": "poolAddress",
          "type": "address"
        },
        {
          "indexed": false,
          "internalType": "uint256",
          "name": "timestamp",
          "type": "uint256"
        }
      ],
      "name": "AddedPoolAddress",
      "type": "event"
    },
    {
      "anonymous": false,
      "inputs": [
        {
          "indexed": true,
          "internalType": "address",
          "name": "previousOwner",
          "type": "address"
        },
        {
          "indexed": true,
          "internalType": "address",
          "name": "newOwner",
          "type": "address"
        }
      ],
      "name": "OwnershipTransferred",
      "type": "event"
    },
    {
      "anonymous": false,
      "inputs": [
        {
          "indexed": false,
          "internalType": "uint256",
          "name": "assetType",
          "type": "uint256"
        },
        {
          "indexed": false,
          "internalType": "address",
          "name": "verifier",
          "type": "address"
        },
        {
          "indexed": false,
          "internalType": "uint256",
          "name": "timestamp",
          "type": "uint256"
        }
      ],
      "name": "UpdatedAssetVerifier",
      "type": "event"
    },
    {
      "anonymous": false,
      "inputs": [
        {
          "indexed": false,
          "internalType": "string",
          "name": "contractName",
          "type": "string"
        },
        {
          "indexed": false,
          "internalType": "address",
          "name": "oldAddress",
          "type": "address"
        },
        {
          "indexed": false,
          "internalType": "address",
          "name": "newAddress",
          "type": "address"
        },
        {
          "indexed": false,
          "internalType": "uint256",
          "name": "timestamp",
          "type": "uint256"
        }
      ],
      "name": "UpdatedContractAddress",
      "type": "event"
    },
    {
      "anonymous": false,
      "inputs": [
        {
          "indexed": false,
          "internalType": "address",
          "name": "externalContract",
          "type": "address"
        },
        {
          "indexed": false,
          "internalType": "address",
          "name": "verifier",
          "type": "address"
        },
        {
          "indexed": false,
          "internalType": "uint256",
          "name": "timestamp",
          "type": "uint256"
        }
      ],
      "name": "UpdatedContractVerifier",
      "type": "event"
    },
    {
      "inputs": [
        {
          "internalType": "address",
          "name": "",
          "type": "address"
        }
      ],
      "name": "_poolAddresses",
      "outputs": [
        {
          "internalType": "address",
          "name": "",
          "type": "address"
        }
      ],
      "stateMutability": "view",
      "type": "function"
    },
    {
      "inputs": [
        {
          "internalType": "uint256",
          "name": "",
          "type": "uint256"
        }
      ],
      "name": "assetVerifiers",
      "outputs": [
        {
          "internalType": "address",
          "name": "",
          "type": "address"
        }
      ],
      "stateMutability": "view",
      "type": "function"
    },
    {
      "inputs": [
        {
          "internalType": "string",
          "name": "",
          "type": "string"
        }
      ],
      "name": "contractAddresses",
      "outputs": [
        {
          "internalType": "address",
          "name": "",
          "type": "address"
        }
      ],
      "stateMutability": "view",
      "type": "function"
    },
    {
      "inputs": [
        {
          "internalType": "address",
          "name": "",
          "type": "address"
        }
      ],
      "name": "contractVerifiers",
      "outputs": [
        {
          "internalType": "address",
          "name": "",
          "type": "address"
        }
      ],
      "stateMutability": "view",
      "type": "function"
    },
    {
      "inputs": [],
      "name": "isOwner",
      "outputs": [
        {
          "internalType": "bool",
          "name": "",
          "type": "bool"
        }
      ],
      "stateMutability": "view",
      "type": "function"
    },
    {
      "inputs": [],
      "name": "owner",
      "outputs": [
        {
          "internalType": "address",
          "name": "",
          "type": "address"
        }
      ],
      "stateMutability": "view",
      "type": "function"
    },
    {
      "inputs": [],
      "name": "renounceOwnership",
      "outputs": [],
      "stateMutability": "nonpayable",
      "type": "function"
    },
    {
      "inputs": [
        {
          "internalType": "address",
          "name": "newOwner",
          "type": "address"
        }
      ],
      "name": "transferOwnership",
      "outputs": [],
      "stateMutability": "nonpayable",
      "type": "function"
    },
    {
      "inputs": [
        {
          "internalType": "string",
          "name": "contractName",
          "type": "string"
        }
      ],
      "name": "getContractAddress",
      "outputs": [
        {
          "internalType": "address",
          "name": "",
          "type": "address"
        }
      ],
      "stateMutability": "view",
      "type": "function"
    },
    {
      "inputs": [
        {
          "internalType": "address",
          "name": "poolAddress",
          "type": "address"
        }
      ],
      "name": "checkIfPoolAddressIsValid",
      "outputs": [
        {
          "internalType": "bool",
          "name": "",
          "type": "bool"
        }
      ],
      "stateMutability": "view",
      "type": "function"
    },
    {
      "inputs": [
        {
          "internalType": "string",
          "name": "contractName",
          "type": "string"
        },
        {
          "internalType": "address",
          "name": "newAddress",
          "type": "address"
        }
      ],
      "name": "setContractAddress",
      "outputs": [],
      "stateMutability": "nonpayable",
      "type": "function"
    },
    {
      "inputs": [
        {
          "internalType": "address",
          "name": "externalContract",
          "type": "address"
        },
        {
          "internalType": "address",
          "name": "verifier",
          "type": "address"
        }
      ],
      "name": "setContractVerifier",
      "outputs": [],
      "stateMutability": "nonpayable",
      "type": "function"
    },
    {
      "inputs": [
        {
          "internalType": "uint256",
          "name": "assetType",
          "type": "uint256"
        },
        {
          "internalType": "address",
          "name": "verifier",
          "type": "address"
        }
      ],
      "name": "setAssetVerifier",
      "outputs": [],
      "stateMutability": "nonpayable",
      "type": "function"
    },
    {
      "inputs": [
        {
          "internalType": "address",
          "name": "poolAddress",
          "type": "address"
        }
      ],
      "name": "addPoolAddress",
      "outputs": [],
      "stateMutability": "nonpayable",
      "type": "function"
    }
  ],
  "bytecode": "0x608060405234801561001057600080fd5b50336000806101000a81548173ffffffffffffffffffffffffffffffffffffffff021916908373ffffffffffffffffffffffffffffffffffffffff16021790555060008054906101000a900473ffffffffffffffffffffffffffffffffffffffff1673ffffffffffffffffffffffffffffffffffffffff16600073ffffffffffffffffffffffffffffffffffffffff167f8be0079c531659141344cd1fd0a4f28419497f9722a3daafe3b4186f6b6457e060405160405180910390a361172f806100db6000396000f3fe608060405234801561001057600080fd5b50600436106100ea5760003560e01c80638da5cb5b1161008c578063d1bd2e3111610066578063d1bd2e31146104d3578063e51f8aba14610537578063ee67cc2a14610591578063f2fde38b14610676576100ea565b80638da5cb5b146104315780638f32d59b14610465578063b2a3ee3714610485576100ea565b806343499844116100c857806343499844146102b0578063534e785c146102f457806358c1c787146103cf578063715018a614610427576100ea565b806304433bbc146100ef5780632af9d165146101d45780632febaebd14610242575b600080fd5b6101a86004803603602081101561010557600080fd5b810190808035906020019064010000000081111561012257600080fd5b82018360208201111561013457600080fd5b8035906020019184600183028401116401000000008311171561015657600080fd5b91908080601f016020809104026020016040519081016040528093929190818152602001838380828437600081840152601f19601f8201169050808301925050505050505091929192905050506106ba565b604051808273ffffffffffffffffffffffffffffffffffffffff16815260200191505060405180910390f35b610216600480360360208110156101ea57600080fd5b81019080803573ffffffffffffffffffffffffffffffffffffffff16906020019092919050505061085b565b604051808273ffffffffffffffffffffffffffffffffffffffff16815260200191505060405180910390f35b6102846004803603602081101561025857600080fd5b81019080803573ffffffffffffffffffffffffffffffffffffffff16906020019092919050505061088e565b604051808273ffffffffffffffffffffffffffffffffffffffff16815260200191505060405180910390f35b6102f2600480360360208110156102c657600080fd5b81019080803573ffffffffffffffffffffffffffffffffffffffff1690602001909291905050506108c1565b005b6103cd6004803603604081101561030a57600080fd5b810190808035906020019064010000000081111561032757600080fd5b82018360208201111561033957600080fd5b8035906020019184600183028401116401000000008311171561035b57600080fd5b91908080601f016020809104026020016040519081016040528093929190818152602001838380828437600081840152601f19601f820116905080830192505050505050509192919290803573ffffffffffffffffffffffffffffffffffffffff169060200190929190505050610bca565b005b6103fb600480360360208110156103e557600080fd5b8101908080359060200190929190505050610e9b565b604051808273ffffffffffffffffffffffffffffffffffffffff16815260200191505060405180910390f35b61042f610ece565b005b610439610f9d565b604051808273ffffffffffffffffffffffffffffffffffffffff16815260200191505060405180910390f35b61046d610fc6565b60405180821515815260200191505060405180910390f35b6104d16004803603604081101561049b57600080fd5b8101908080359060200190929190803573ffffffffffffffffffffffffffffffffffffffff16906020019092919050505061101d565b005b610535600480360360408110156104e957600080fd5b81019080803573ffffffffffffffffffffffffffffffffffffffff169060200190929190803573ffffffffffffffffffffffffffffffffffffffff1690602001909291905050506111df565b005b6105796004803603602081101561054d57600080fd5b81019080803573ffffffffffffffffffffffffffffffffffffffff16906020019092919050505061142f565b60405180821515815260200191505060405180910390f35b61064a600480360360208110156105a757600080fd5b81019080803590602001906401000000008111156105c457600080fd5b8201836020820111156105d657600080fd5b803590602001918460018302840111640100000000831117156105f857600080fd5b91908080601f016020809104026020016040519081016040528093929190818152602001838380828437600081840152601f19601f820116905080830192505050505050509192919290505050611502565b604051808273ffffffffffffffffffffffffffffffffffffffff16815260200191505060405180910390f35b6106b86004803603602081101561068c57600080fd5b81019080803573ffffffffffffffffffffffffffffffffffffffff16906020019092919050505061154b565b005b60008073ffffffffffffffffffffffffffffffffffffffff166004836040518082805190602001908083835b6020831061070957805182526020820191506020810190506020830392506106e6565b6001836020036101000a038019825116818451168082178552505050505050905001915050908152602001604051809103902060009054906101000a900473ffffffffffffffffffffffffffffffffffffffff1673ffffffffffffffffffffffffffffffffffffffff1614156107ca576040517f08c379a00000000000000000000000000000000000000000000000000000000081526004018080602001828103825260238152602001806116d76023913960400191505060405180910390fd5b6004826040518082805190602001908083835b6020831061080057805182526020820191506020810190506020830392506107dd565b6001836020036101000a038019825116818451168082178552505050505050905001915050908152602001604051809103902060009054906101000a900473ffffffffffffffffffffffffffffffffffffffff169050919050565b60016020528060005260406000206000915054906101000a900473ffffffffffffffffffffffffffffffffffffffff1681565b60026020528060005260406000206000915054906101000a900473ffffffffffffffffffffffffffffffffffffffff1681565b600460405180807f506f6f6c466163746f7279000000000000000000000000000000000000000000815250600b019050908152602001604051809103902060009054906101000a900473ffffffffffffffffffffffffffffffffffffffff1673ffffffffffffffffffffffffffffffffffffffff163373ffffffffffffffffffffffffffffffffffffffff16146109a3576040517f08c379a00000000000000000000000000000000000000000000000000000000081526004018080602001828103825260458152602001806116926045913960600191505060405180910390fd5b80600073ffffffffffffffffffffffffffffffffffffffff168173ffffffffffffffffffffffffffffffffffffffff161415610a47576040517f08c379a00000000000000000000000000000000000000000000000000000000081526004018080602001828103825260148152602001807f41646472657373206973206e6f742076616c696400000000000000000000000081525060200191505060405180910390fd5b8173ffffffffffffffffffffffffffffffffffffffff16600160008473ffffffffffffffffffffffffffffffffffffffff1673ffffffffffffffffffffffffffffffffffffffff16815260200190815260200160002060009054906101000a900473ffffffffffffffffffffffffffffffffffffffff1673ffffffffffffffffffffffffffffffffffffffff161415610b48576040517f08c379a00000000000000000000000000000000000000000000000000000000081526004018080602001828103825260138152602001807f506f6f6c20616c7265616479206578697374730000000000000000000000000081525060200191505060405180910390fd5b81600160008473ffffffffffffffffffffffffffffffffffffffff1673ffffffffffffffffffffffffffffffffffffffff16815260200190815260200160002060006101000a81548173ffffffffffffffffffffffffffffffffffffffff021916908373ffffffffffffffffffffffffffffffffffffffff1602179055505050565b610bd2610fc6565b610bdb57600080fd5b80600073ffffffffffffffffffffffffffffffffffffffff168173ffffffffffffffffffffffffffffffffffffffff161415610c7f576040517f08c379a00000000000000000000000000000000000000000000000000000000081526004018080602001828103825260148152602001807f41646472657373206973206e6f742076616c696400000000000000000000000081525060200191505060405180910390fd5b60006004846040518082805190602001908083835b60208310610cb75780518252602082019150602081019050602083039250610c94565b6001836020036101000a038019825116818451168082178552505050505050905001915050908152602001604051809103902060009054906101000a900473ffffffffffffffffffffffffffffffffffffffff169050826004856040518082805190602001908083835b60208310610d445780518252602082019150602081019050602083039250610d21565b6001836020036101000a038019825116818451168082178552505050505050905001915050908152602001604051809103902060006101000a81548173ffffffffffffffffffffffffffffffffffffffff021916908373ffffffffffffffffffffffffffffffffffffffff1602179055507f8e0725ffce153afab0fff160abeae6d45aeb6f4338bbcc503f97abe5d4890f208482854260405180806020018573ffffffffffffffffffffffffffffffffffffffff1681526020018473ffffffffffffffffffffffffffffffffffffffff168152602001838152602001828103825286818151815260200191508051906020019080838360005b83811015610e58578082015181840152602081019050610e3d565b50505050905090810190601f168015610e855780820380516001836020036101000a031916815260200191505b509550505050505060405180910390a150505050565b60036020528060005260406000206000915054906101000a900473ffffffffffffffffffffffffffffffffffffffff1681565b610ed6610fc6565b610edf57600080fd5b600073ffffffffffffffffffffffffffffffffffffffff1660008054906101000a900473ffffffffffffffffffffffffffffffffffffffff1673ffffffffffffffffffffffffffffffffffffffff167f8be0079c531659141344cd1fd0a4f28419497f9722a3daafe3b4186f6b6457e060405160405180910390a360008060006101000a81548173ffffffffffffffffffffffffffffffffffffffff021916908373ffffffffffffffffffffffffffffffffffffffff160217905550565b60008060009054906101000a900473ffffffffffffffffffffffffffffffffffffffff16905090565b60008060009054906101000a900473ffffffffffffffffffffffffffffffffffffffff1673ffffffffffffffffffffffffffffffffffffffff163373ffffffffffffffffffffffffffffffffffffffff1614905090565b611025610fc6565b61102e57600080fd5b80600073ffffffffffffffffffffffffffffffffffffffff168173ffffffffffffffffffffffffffffffffffffffff1614156110d2576040517f08c379a00000000000000000000000000000000000000000000000000000000081526004018080602001828103825260148152602001807f41646472657373206973206e6f742076616c696400000000000000000000000081525060200191505060405180910390fd5b6000831161112b576040517f08c379a00000000000000000000000000000000000000000000000000000000081526004018080602001828103825260328152602001806116606032913960400191505060405180910390fd5b816003600085815260200190815260200160002060006101000a81548173ffffffffffffffffffffffffffffffffffffffff021916908373ffffffffffffffffffffffffffffffffffffffff1602179055507f71f12aac1ce1949973e71d1cb4997fa223f946950e516aad734e811f3948350a838342604051808481526020018373ffffffffffffffffffffffffffffffffffffffff168152602001828152602001935050505060405180910390a1505050565b6111e7610fc6565b6111f057600080fd5b81600073ffffffffffffffffffffffffffffffffffffffff168173ffffffffffffffffffffffffffffffffffffffff161415611294576040517f08c379a00000000000000000000000000000000000000000000000000000000081526004018080602001828103825260148152602001807f41646472657373206973206e6f742076616c696400000000000000000000000081525060200191505060405180910390fd5b81600073ffffffffffffffffffffffffffffffffffffffff168173ffffffffffffffffffffffffffffffffffffffff161415611338576040517f08c379a00000000000000000000000000000000000000000000000000000000081526004018080602001828103825260148152602001807f41646472657373206973206e6f742076616c696400000000000000000000000081525060200191505060405180910390fd5b82600260008673ffffffffffffffffffffffffffffffffffffffff1673ffffffffffffffffffffffffffffffffffffffff16815260200190815260200160002060006101000a81548173ffffffffffffffffffffffffffffffffffffffff021916908373ffffffffffffffffffffffffffffffffffffffff1602179055507fde4f57a36db0d66a655b3b4a6c28968d717210f62de1888c63f39eea1c7f295c848442604051808473ffffffffffffffffffffffffffffffffffffffff1681526020018373ffffffffffffffffffffffffffffffffffffffff168152602001828152602001935050505060405180910390a150505050565b60008073ffffffffffffffffffffffffffffffffffffffff168273ffffffffffffffffffffffffffffffffffffffff16141561146c5760006114fb565b8173ffffffffffffffffffffffffffffffffffffffff16600160008473ffffffffffffffffffffffffffffffffffffffff1673ffffffffffffffffffffffffffffffffffffffff16815260200190815260200160002060009054906101000a900473ffffffffffffffffffffffffffffffffffffffff1673ffffffffffffffffffffffffffffffffffffffff16145b9050919050565b6004818051602081018201805184825260208301602085012081835280955050505050506000915054906101000a900473ffffffffffffffffffffffffffffffffffffffff1681565b611553610fc6565b61155c57600080fd5b61156581611568565b50565b600073ffffffffffffffffffffffffffffffffffffffff168173ffffffffffffffffffffffffffffffffffffffff1614156115a257600080fd5b8073ffffffffffffffffffffffffffffffffffffffff1660008054906101000a900473ffffffffffffffffffffffffffffffffffffffff1673ffffffffffffffffffffffffffffffffffffffff167f8be0079c531659141344cd1fd0a4f28419497f9722a3daafe3b4186f6b6457e060405160405180910390a3806000806101000a81548173ffffffffffffffffffffffffffffffffffffffff021916908373ffffffffffffffffffffffffffffffffffffffff1602179055505056fe416464726573735265736f6c7665723a2061737365742074797065206d7573742062652067726561746572207468616e2030416464726573735265736f6c7665723a204f6e6c792074686520506f6f6c466163746f727920636f6e74726163742063616e2063616c6c20746869732066756e6374696f6e416464726573735265736f6c7665723a20636f6e7472616374206e6f7420666f756e64a2646970667358221220718ff7ad9da4bd7115cc6b93007c37beeab147ae4bc1d314f829a4726c5831bc64736f6c63430007060033",
  "immutableReferences": {},
  "source": "// SPDX-License-Identifier: MIT\r\n\r\npragma solidity >=0.7.6;\r\n\r\n//Interfaces\r\nimport './interfaces/IAddressResolver.sol';\r\n\r\n//Inheritance\r\nimport './Ownable.sol';\r\n\r\ncontract AddressResolver is IAddressResolver, Ownable {\r\n\r\n    mapping (address => address) public _poolAddresses;\r\n\r\n    mapping (address => address) public override contractVerifiers;\r\n    mapping (uint => address) public override assetVerifiers;\r\n\r\n    mapping (string => address) public contractAddresses;\r\n\r\n    constructor() Ownable() {}\r\n\r\n    /* ========== VIEWS ========== */\r\n\r\n    /**\r\n    * @dev Given a contract name, returns the address of the contract\r\n    * @param contractName The name of the contract\r\n    * @return address The address associated with the given contract name\r\n    */\r\n    function getContractAddress(string memory contractName) public view override returns(address) {\r\n        require (contractAddresses[contractName] != address(0), \"AddressResolver: contract not found\");\r\n        \r\n        return contractAddresses[contractName];\r\n    }\r\n\r\n    /**\r\n    * @dev Given an address, returns whether the address belongs to a user pool\r\n    * @param poolAddress The address to validate\r\n    * @return bool Whether the given address is a valid user pool address\r\n    */\r\n    function checkIfPoolAddressIsValid(address poolAddress) public view override returns(bool) {\r\n        return (poolAddress != address(0)) ? (_poolAddresses[poolAddress] == poolAddress) : false;\r\n    }\r\n\r\n    /* ========== RESTRICTED FUNCTIONS ========== */\r\n\r\n    /**\r\n    * @dev Updates the address for the given contract; meant to be called by AddressResolver owner\r\n    * @param contractName The name of the contract\r\n    * @param newAddress The new address for the given contract\r\n    */\r\n    function setContractAddress(string memory contractName, address newAddress) external onlyOwner isValidAddress(newAddress) {\r\n        address oldAddress = contractAddresses[contractName];\r\n        contractAddresses[contractName] = newAddress;\r\n\r\n        emit UpdatedContractAddress(contractName, oldAddress, newAddress, block.timestamp);\r\n    }\r\n\r\n    /**\r\n    * @dev Updates the verifier for the given contract\r\n    * @param externalContract Address of the external contract\r\n    * @param verifier Address of the contract's verifier\r\n    */\r\n    function setContractVerifier(address externalContract, address verifier) external onlyOwner isValidAddress(externalContract) isValidAddress(verifier) {\r\n        contractVerifiers[externalContract] = verifier;\r\n\r\n        emit UpdatedContractVerifier(externalContract, verifier, block.timestamp);\r\n    }\r\n\r\n    /**\r\n    * @dev Updates the verifier for the given asset\r\n    * @param assetType Type of the asset\r\n    * @param verifier Address of the contract's verifier\r\n    */\r\n    function setAssetVerifier(uint assetType, address verifier) external onlyOwner isValidAddress(verifier) {\r\n        require(assetType > 0, \"AddressResolver: asset type must be greater than 0\");\r\n\r\n        assetVerifiers[assetType] = verifier;\r\n\r\n        emit UpdatedAssetVerifier(assetType, verifier, block.timestamp);\r\n    }\r\n\r\n    /**\r\n    * @dev Adds a new user pool address; meant to be called by the PoolManager contract\r\n    * @param poolAddress The address of the user pool\r\n    */\r\n    function addPoolAddress(address poolAddress) external override onlyPoolFactory isValidAddress(poolAddress) {\r\n        require(_poolAddresses[poolAddress] != poolAddress, \"Pool already exists\");\r\n\r\n        _poolAddresses[poolAddress] = poolAddress;\r\n    }\r\n\r\n    /* ========== MODIFIERS ========== */\r\n\r\n    modifier isValidAddress(address addressToCheck) {\r\n        require(addressToCheck != address(0), \"Address is not valid\");\r\n        _;\r\n    }\r\n\r\n    modifier onlyPoolFactory() {\r\n        require(msg.sender == contractAddresses[\"PoolFactory\"], \"AddressResolver: Only the PoolFactory contract can call this function\");\r\n        _;\r\n    }\r\n\r\n    /* ========== EVENTS ========== */\r\n\r\n    event UpdatedContractAddress(string contractName, address oldAddress, address newAddress, uint timestamp);\r\n    event AddedPoolAddress(address poolAddress, uint timestamp);\r\n    event UpdatedContractVerifier(address externalContract, address verifier, uint timestamp);\r\n    event UpdatedAssetVerifier(uint assetType, address verifier, uint timestamp);\r\n}",
  "sourcePath": "C:/Users/xavie/OneDrive/Desktop/TradeGen/Github/tradegen-protocol/contracts/AddressResolver.sol",
  "compiler": {
    "name": "solc",
    "version": "0.7.6+commit.7338295f.Emscripten.clang"
  },
  "schemaVersion": "3.4.1",
  "updatedAt": "2021-08-17T23:05:05.861Z",
  "devdoc": {
    "kind": "dev",
    "methods": {
      "addPoolAddress(address)": {
        "details": "Adds a new user pool address; meant to be called by the PoolManager contract",
        "params": {
          "poolAddress": "The address of the user pool"
        }
      },
      "checkIfPoolAddressIsValid(address)": {
        "details": "Given an address, returns whether the address belongs to a user pool",
        "params": {
          "poolAddress": "The address to validate"
        },
        "returns": {
          "_0": "bool Whether the given address is a valid user pool address"
        }
      },
      "getContractAddress(string)": {
        "details": "Given a contract name, returns the address of the contract",
        "params": {
          "contractName": "The name of the contract"
        },
        "returns": {
          "_0": "address The address associated with the given contract name"
        }
      },
      "isOwner()": {
        "returns": {
          "_0": "true if `msg.sender` is the owner of the contract."
        }
      },
      "owner()": {
        "returns": {
          "_0": "the address of the owner."
        }
      },
      "renounceOwnership()": {
        "details": "Allows the current owner to relinquish control of the contract."
      },
      "setAssetVerifier(uint256,address)": {
        "details": "Updates the verifier for the given asset",
        "params": {
          "assetType": "Type of the asset",
          "verifier": "Address of the contract's verifier"
        }
      },
      "setContractAddress(string,address)": {
        "details": "Updates the address for the given contract; meant to be called by AddressResolver owner",
        "params": {
          "contractName": "The name of the contract",
          "newAddress": "The new address for the given contract"
        }
      },
      "setContractVerifier(address,address)": {
        "details": "Updates the verifier for the given contract",
        "params": {
          "externalContract": "Address of the external contract",
          "verifier": "Address of the contract's verifier"
        }
      },
      "transferOwnership(address)": {
        "details": "Allows the current owner to transfer control of the contract to a newOwner.",
        "params": {
          "newOwner": "The address to transfer ownership to."
        }
      }
    },
    "version": 1
  },
  "userdoc": {
    "kind": "user",
    "methods": {
      "renounceOwnership()": {
        "notice": "Renouncing to ownership will leave the contract without an owner. It will not be possible to call the functions with the `onlyOwner` modifier anymore."
      }
    },
    "version": 1
  }
}