{
  "contractName": "AssetHandler",
  "abi": [
    {
      "inputs": [
        {
          "internalType": "contract IAddressResolver",
          "name": "addressResolver",
          "type": "address"
        }
      ],
      "stateMutability": "nonpayable",
      "type": "constructor"
    },
    {
      "anonymous": false,
      "inputs": [
        {
          "indexed": false,
          "internalType": "uint256",
          "name": "assetType",
          "type": "uint256"
        },
        {
          "indexed": false,
          "internalType": "address",
          "name": "currencyKey",
          "type": "address"
        },
        {
          "indexed": false,
          "internalType": "uint256",
          "name": "timestamp",
          "type": "uint256"
        }
      ],
      "name": "AddedAsset",
      "type": "event"
    },
    {
      "anonymous": false,
      "inputs": [
        {
          "indexed": false,
          "internalType": "uint256",
          "name": "assetType",
          "type": "uint256"
        },
        {
          "indexed": false,
          "internalType": "address",
          "name": "priceAggregator",
          "type": "address"
        },
        {
          "indexed": false,
          "internalType": "uint256",
          "name": "timestamp",
          "type": "uint256"
        }
      ],
      "name": "AddedAssetType",
      "type": "event"
    },
    {
      "anonymous": false,
      "inputs": [
        {
          "indexed": true,
          "internalType": "address",
          "name": "previousOwner",
          "type": "address"
        },
        {
          "indexed": true,
          "internalType": "address",
          "name": "newOwner",
          "type": "address"
        }
      ],
      "name": "OwnershipTransferred",
      "type": "event"
    },
    {
      "anonymous": false,
      "inputs": [
        {
          "indexed": false,
          "internalType": "address",
          "name": "oldAddress",
          "type": "address"
        },
        {
          "indexed": false,
          "internalType": "address",
          "name": "stableCurrencyAddress",
          "type": "address"
        },
        {
          "indexed": false,
          "internalType": "uint256",
          "name": "timestamp",
          "type": "uint256"
        }
      ],
      "name": "UpdatedStableCoinAddress",
      "type": "event"
    },
    {
      "inputs": [],
      "name": "ADDRESS_RESOLVER",
      "outputs": [
        {
          "internalType": "contract IAddressResolver",
          "name": "",
          "type": "address"
        }
      ],
      "stateMutability": "view",
      "type": "function"
    },
    {
      "inputs": [
        {
          "internalType": "uint256",
          "name": "",
          "type": "uint256"
        }
      ],
      "name": "assetTypeToPriceAggregator",
      "outputs": [
        {
          "internalType": "address",
          "name": "",
          "type": "address"
        }
      ],
      "stateMutability": "view",
      "type": "function"
    },
    {
      "inputs": [
        {
          "internalType": "address",
          "name": "",
          "type": "address"
        }
      ],
      "name": "assetTypes",
      "outputs": [
        {
          "internalType": "uint256",
          "name": "",
          "type": "uint256"
        }
      ],
      "stateMutability": "view",
      "type": "function"
    },
    {
      "inputs": [
        {
          "internalType": "uint256",
          "name": "",
          "type": "uint256"
        },
        {
          "internalType": "uint256",
          "name": "",
          "type": "uint256"
        }
      ],
      "name": "availableAssetsForType",
      "outputs": [
        {
          "internalType": "address",
          "name": "",
          "type": "address"
        }
      ],
      "stateMutability": "view",
      "type": "function"
    },
    {
      "inputs": [],
      "name": "cUSDAddress",
      "outputs": [
        {
          "internalType": "address",
          "name": "",
          "type": "address"
        }
      ],
      "stateMutability": "view",
      "type": "function"
    },
    {
      "inputs": [],
      "name": "isOwner",
      "outputs": [
        {
          "internalType": "bool",
          "name": "",
          "type": "bool"
        }
      ],
      "stateMutability": "view",
      "type": "function"
    },
    {
      "inputs": [
        {
          "internalType": "uint256",
          "name": "",
          "type": "uint256"
        }
      ],
      "name": "numberOfAvailableAssetsForType",
      "outputs": [
        {
          "internalType": "uint256",
          "name": "",
          "type": "uint256"
        }
      ],
      "stateMutability": "view",
      "type": "function"
    },
    {
      "inputs": [],
      "name": "owner",
      "outputs": [
        {
          "internalType": "address",
          "name": "",
          "type": "address"
        }
      ],
      "stateMutability": "view",
      "type": "function"
    },
    {
      "inputs": [],
      "name": "renounceOwnership",
      "outputs": [],
      "stateMutability": "nonpayable",
      "type": "function"
    },
    {
      "inputs": [
        {
          "internalType": "address",
          "name": "newOwner",
          "type": "address"
        }
      ],
      "name": "transferOwnership",
      "outputs": [],
      "stateMutability": "nonpayable",
      "type": "function"
    },
    {
      "inputs": [
        {
          "internalType": "address",
          "name": "asset",
          "type": "address"
        }
      ],
      "name": "getUSDPrice",
      "outputs": [
        {
          "internalType": "uint256",
          "name": "",
          "type": "uint256"
        }
      ],
      "stateMutability": "view",
      "type": "function"
    },
    {
      "inputs": [
        {
          "internalType": "address",
          "name": "asset",
          "type": "address"
        }
      ],
      "name": "isValidAsset",
      "outputs": [
        {
          "internalType": "bool",
          "name": "",
          "type": "bool"
        }
      ],
      "stateMutability": "view",
      "type": "function"
    },
    {
      "inputs": [
        {
          "internalType": "uint256",
          "name": "assetType",
          "type": "uint256"
        }
      ],
      "name": "getAvailableAssetsForType",
      "outputs": [
        {
          "internalType": "address[]",
          "name": "",
          "type": "address[]"
        }
      ],
      "stateMutability": "view",
      "type": "function"
    },
    {
      "inputs": [],
      "name": "getStableCoinAddress",
      "outputs": [
        {
          "internalType": "address",
          "name": "",
          "type": "address"
        }
      ],
      "stateMutability": "view",
      "type": "function"
    },
    {
      "inputs": [
        {
          "internalType": "address",
          "name": "addressToCheck",
          "type": "address"
        }
      ],
      "name": "getAssetType",
      "outputs": [
        {
          "internalType": "uint256",
          "name": "",
          "type": "uint256"
        }
      ],
      "stateMutability": "view",
      "type": "function"
    },
    {
      "inputs": [
        {
          "internalType": "address",
          "name": "pool",
          "type": "address"
        },
        {
          "internalType": "address",
          "name": "asset",
          "type": "address"
        }
      ],
      "name": "getBalance",
      "outputs": [
        {
          "internalType": "uint256",
          "name": "",
          "type": "uint256"
        }
      ],
      "stateMutability": "view",
      "type": "function"
    },
    {
      "inputs": [
        {
          "internalType": "address",
          "name": "asset",
          "type": "address"
        }
      ],
      "name": "getDecimals",
      "outputs": [
        {
          "internalType": "uint256",
          "name": "",
          "type": "uint256"
        }
      ],
      "stateMutability": "view",
      "type": "function"
    },
    {
      "inputs": [
        {
          "internalType": "address",
          "name": "asset",
          "type": "address"
        }
      ],
      "name": "getVerifier",
      "outputs": [
        {
          "internalType": "address",
          "name": "",
          "type": "address"
        }
      ],
      "stateMutability": "view",
      "type": "function"
    },
    {
      "inputs": [
        {
          "internalType": "address",
          "name": "stableCoinAddress",
          "type": "address"
        }
      ],
      "name": "setStableCoinAddress",
      "outputs": [],
      "stateMutability": "nonpayable",
      "type": "function"
    },
    {
      "inputs": [
        {
          "internalType": "uint256",
          "name": "assetType",
          "type": "uint256"
        },
        {
          "internalType": "address",
          "name": "currencyKey",
          "type": "address"
        }
      ],
      "name": "addCurrencyKey",
      "outputs": [],
      "stateMutability": "nonpayable",
      "type": "function"
    },
    {
      "inputs": [
        {
          "internalType": "uint256",
          "name": "assetType",
          "type": "uint256"
        },
        {
          "internalType": "address",
          "name": "priceAggregator",
          "type": "address"
        }
      ],
      "name": "addAssetType",
      "outputs": [],
      "stateMutability": "nonpayable",
      "type": "function"
    }
  ],
  "bytecode": "0x608060405234801561001057600080fd5b506040516120633803806120638339818101604052602081101561003357600080fd5b8101908080519060200190929190505050336000806101000a81548173ffffffffffffffffffffffffffffffffffffffff021916908373ffffffffffffffffffffffffffffffffffffffff16021790555060008054906101000a900473ffffffffffffffffffffffffffffffffffffffff1673ffffffffffffffffffffffffffffffffffffffff16600073ffffffffffffffffffffffffffffffffffffffff167f8be0079c531659141344cd1fd0a4f28419497f9722a3daafe3b4186f6b6457e060405160405180910390a380600160006101000a81548173ffffffffffffffffffffffffffffffffffffffff021916908373ffffffffffffffffffffffffffffffffffffffff16021790555050611f13806101506000396000f3fe608060405234801561001057600080fd5b50600436106101375760003560e01c8063981f3b8e116100b8578063cf54aaa01161007c578063cf54aaa014610532578063cfb7add41461058a578063d4fac45d146105d8578063effc012514610650578063f2fde38b146106b2578063fcb63ff4146106f657610137565b8063981f3b8e146103d6578063b02e786f1461040a578063b09ce4a914610462578063be781b1c146104a4578063cc435bf3146104d857610137565b8063715018a6116100ff578063715018a6146102c8578063718deb27146102d25780638b2f0f4f1461032a5780638da5cb5b146103825780638f32d59b146103b657610137565b8063032c49ed1461013c578063059ce95d146101945780633ff574b61461020257806344879b3b14610236578063534d71271461027a575b600080fd5b61017e6004803603602081101561015257600080fd5b81019080803573ffffffffffffffffffffffffffffffffffffffff169060200190929190505050610779565b6040518082815260200191505060405180910390f35b6101d6600480360360208110156101aa57600080fd5b81019080803573ffffffffffffffffffffffffffffffffffffffff16906020019092919050505061084a565b604051808273ffffffffffffffffffffffffffffffffffffffff16815260200191505060405180910390f35b61020a6109ce565b604051808273ffffffffffffffffffffffffffffffffffffffff16815260200191505060405180910390f35b6102786004803603602081101561024c57600080fd5b81019080803573ffffffffffffffffffffffffffffffffffffffff1690602001909291905050506109f4565b005b6102c66004803603604081101561029057600080fd5b8101908080359060200190929190803573ffffffffffffffffffffffffffffffffffffffff169060200190929190505050610bb1565b005b6102d0610e0e565b005b6102fe600480360360208110156102e857600080fd5b8101908080359060200190929190505050610edd565b604051808273ffffffffffffffffffffffffffffffffffffffff16815260200191505060405180910390f35b61036c6004803603602081101561034057600080fd5b81019080803573ffffffffffffffffffffffffffffffffffffffff169060200190929190505050610f10565b6040518082815260200191505060405180910390f35b61038a61114d565b604051808273ffffffffffffffffffffffffffffffffffffffff16815260200191505060405180910390f35b6103be611176565b60405180821515815260200191505060405180910390f35b6103de6111cd565b604051808273ffffffffffffffffffffffffffffffffffffffff16815260200191505060405180910390f35b61044c6004803603602081101561042057600080fd5b81019080803573ffffffffffffffffffffffffffffffffffffffff1690602001909291905050506111f3565b6040518082815260200191505060405180910390f35b61048e6004803603602081101561047857600080fd5b810190808035906020019092919050505061120b565b6040518082815260200191505060405180910390f35b6104ac611223565b604051808273ffffffffffffffffffffffffffffffffffffffff16815260200191505060405180910390f35b61051a600480360360208110156104ee57600080fd5b81019080803573ffffffffffffffffffffffffffffffffffffffff16906020019092919050505061124d565b60405180821515815260200191505060405180910390f35b6105746004803603602081101561054857600080fd5b81019080803573ffffffffffffffffffffffffffffffffffffffff169060200190929190505050611379565b6040518082815260200191505060405180910390f35b6105d6600480360360408110156105a057600080fd5b8101908080359060200190929190803573ffffffffffffffffffffffffffffffffffffffff1690602001909291905050506115a4565b005b61063a600480360360408110156105ee57600080fd5b81019080803573ffffffffffffffffffffffffffffffffffffffff169060200190929190803573ffffffffffffffffffffffffffffffffffffffff16906020019092919050505061192e565b6040518082815260200191505060405180910390f35b6106866004803603604081101561066657600080fd5b810190808035906020019092919080359060200190929190505050611b16565b604051808273ffffffffffffffffffffffffffffffffffffffff16815260200191505060405180910390f35b6106f4600480360360208110156106c857600080fd5b81019080803573ffffffffffffffffffffffffffffffffffffffff169060200190929190505050611b58565b005b6107226004803603602081101561070c57600080fd5b8101908080359060200190929190505050611b75565b6040518080602001828103825283818151815260200191508051906020019060200280838360005b8381101561076557808201518184015260208101905061074a565b505050509050019250505060405180910390f35b600081600073ffffffffffffffffffffffffffffffffffffffff168173ffffffffffffffffffffffffffffffffffffffff161415610802576040517f08c379a0000000000000000000000000000000000000000000000000000000008152600401808060200182810382526022815260200180611e9a6022913960400191505060405180910390fd5b600360008473ffffffffffffffffffffffffffffffffffffffff1673ffffffffffffffffffffffffffffffffffffffff16815260200190815260200160002054915050919050565b600081600073ffffffffffffffffffffffffffffffffffffffff168173ffffffffffffffffffffffffffffffffffffffff1614156108d3576040517f08c379a0000000000000000000000000000000000000000000000000000000008152600401808060200182810382526022815260200180611e9a6022913960400191505060405180910390fd5b6000600360008573ffffffffffffffffffffffffffffffffffffffff1673ffffffffffffffffffffffffffffffffffffffff168152602001908152602001600020549050600160009054906101000a900473ffffffffffffffffffffffffffffffffffffffff1673ffffffffffffffffffffffffffffffffffffffff166358c1c787826040518263ffffffff1660e01b81526004018082815260200191505060206040518083038186803b15801561098a57600080fd5b505afa15801561099e573d6000803e3d6000fd5b505050506040513d60208110156109b457600080fd5b810190808051906020019092919050505092505050919050565b600260009054906101000a900473ffffffffffffffffffffffffffffffffffffffff1681565b6109fc611176565b610a0557600080fd5b80600073ffffffffffffffffffffffffffffffffffffffff168173ffffffffffffffffffffffffffffffffffffffff161415610a8c576040517f08c379a0000000000000000000000000000000000000000000000000000000008152600401808060200182810382526022815260200180611e9a6022913960400191505060405180910390fd5b6000600260009054906101000a900473ffffffffffffffffffffffffffffffffffffffff16905082600260006101000a81548173ffffffffffffffffffffffffffffffffffffffff021916908373ffffffffffffffffffffffffffffffffffffffff1602179055506001600360008573ffffffffffffffffffffffffffffffffffffffff1673ffffffffffffffffffffffffffffffffffffffff168152602001908152602001600020819055507f072a1227dd437d4b25a46e6b33a97e823875ad37911c084a9e5a405d50060762818442604051808473ffffffffffffffffffffffffffffffffffffffff1681526020018373ffffffffffffffffffffffffffffffffffffffff168152602001828152602001935050505060405180910390a1505050565b610bb9611176565b610bc257600080fd5b80600073ffffffffffffffffffffffffffffffffffffffff168173ffffffffffffffffffffffffffffffffffffffff161415610c49576040517f08c379a0000000000000000000000000000000000000000000000000000000008152600401808060200182810382526022815260200180611e9a6022913960400191505060405180910390fd5b60008311610ca2576040517f08c379a000000000000000000000000000000000000000000000000000000000815260040180806020018281038252602e815260200180611e16602e913960400191505060405180910390fd5b600073ffffffffffffffffffffffffffffffffffffffff166004600085815260200190815260200160002060009054906101000a900473ffffffffffffffffffffffffffffffffffffffff1673ffffffffffffffffffffffffffffffffffffffff1614610d5a576040517f08c379a0000000000000000000000000000000000000000000000000000000008152600401808060200182810382526027815260200180611e446027913960400191505060405180910390fd5b816004600085815260200190815260200160002060006101000a81548173ffffffffffffffffffffffffffffffffffffffff021916908373ffffffffffffffffffffffffffffffffffffffff1602179055507f1ef15148ec8503f7cb566e88688cea3ce1dfec588c24e240db1d6518f6008dfe838342604051808481526020018373ffffffffffffffffffffffffffffffffffffffff168152602001828152602001935050505060405180910390a1505050565b610e16611176565b610e1f57600080fd5b600073ffffffffffffffffffffffffffffffffffffffff1660008054906101000a900473ffffffffffffffffffffffffffffffffffffffff1673ffffffffffffffffffffffffffffffffffffffff167f8be0079c531659141344cd1fd0a4f28419497f9722a3daafe3b4186f6b6457e060405160405180910390a360008060006101000a81548173ffffffffffffffffffffffffffffffffffffffff021916908373ffffffffffffffffffffffffffffffffffffffff160217905550565b60046020528060005260406000206000915054906101000a900473ffffffffffffffffffffffffffffffffffffffff1681565b600081600073ffffffffffffffffffffffffffffffffffffffff168173ffffffffffffffffffffffffffffffffffffffff161415610f99576040517f08c379a0000000000000000000000000000000000000000000000000000000008152600401808060200182810382526022815260200180611e9a6022913960400191505060405180910390fd5b6000600360008573ffffffffffffffffffffffffffffffffffffffff1673ffffffffffffffffffffffffffffffffffffffff1681526020019081526020016000205411611031576040517f08c379a0000000000000000000000000000000000000000000000000000000008152600401808060200182810382526021815260200180611df56021913960400191505060405180910390fd5b60046000600360008673ffffffffffffffffffffffffffffffffffffffff1673ffffffffffffffffffffffffffffffffffffffff16815260200190815260200160002054815260200190815260200160002060009054906101000a900473ffffffffffffffffffffffffffffffffffffffff1673ffffffffffffffffffffffffffffffffffffffff16638b2f0f4f846040518263ffffffff1660e01b8152600401808273ffffffffffffffffffffffffffffffffffffffff16815260200191505060206040518083038186803b15801561110a57600080fd5b505afa15801561111e573d6000803e3d6000fd5b505050506040513d602081101561113457600080fd5b8101908080519060200190929190505050915050919050565b60008060009054906101000a900473ffffffffffffffffffffffffffffffffffffffff16905090565b60008060009054906101000a900473ffffffffffffffffffffffffffffffffffffffff1673ffffffffffffffffffffffffffffffffffffffff163373ffffffffffffffffffffffffffffffffffffffff1614905090565b600160009054906101000a900473ffffffffffffffffffffffffffffffffffffffff1681565b60036020528060005260406000206000915090505481565b60056020528060005260406000206000915090505481565b6000600260009054906101000a900473ffffffffffffffffffffffffffffffffffffffff16905090565b600081600073ffffffffffffffffffffffffffffffffffffffff168173ffffffffffffffffffffffffffffffffffffffff1614156112d6576040517f08c379a0000000000000000000000000000000000000000000000000000000008152600401808060200182810382526022815260200180611e9a6022913960400191505060405180910390fd5b6000600360008573ffffffffffffffffffffffffffffffffffffffff1673ffffffffffffffffffffffffffffffffffffffff1681526020019081526020016000205411806113715750600260009054906101000a900473ffffffffffffffffffffffffffffffffffffffff1673ffffffffffffffffffffffffffffffffffffffff168373ffffffffffffffffffffffffffffffffffffffff16145b915050919050565b600081600073ffffffffffffffffffffffffffffffffffffffff168173ffffffffffffffffffffffffffffffffffffffff161415611402576040517f08c379a0000000000000000000000000000000000000000000000000000000008152600401808060200182810382526022815260200180611e9a6022913960400191505060405180910390fd5b6000600360008573ffffffffffffffffffffffffffffffffffffffff1673ffffffffffffffffffffffffffffffffffffffff1681526020019081526020016000205490506000600160009054906101000a900473ffffffffffffffffffffffffffffffffffffffff1673ffffffffffffffffffffffffffffffffffffffff166358c1c787836040518263ffffffff1660e01b81526004018082815260200191505060206040518083038186803b1580156114bb57600080fd5b505afa1580156114cf573d6000803e3d6000fd5b505050506040513d60208110156114e557600080fd5b810190808051906020019092919050505090508073ffffffffffffffffffffffffffffffffffffffff1663cf54aaa0866040518263ffffffff1660e01b8152600401808273ffffffffffffffffffffffffffffffffffffffff16815260200191505060206040518083038186803b15801561155f57600080fd5b505afa158015611573573d6000803e3d6000fd5b505050506040513d602081101561158957600080fd5b81019080805190602001909291905050509350505050919050565b6115ac611176565b6115b557600080fd5b80600073ffffffffffffffffffffffffffffffffffffffff168173ffffffffffffffffffffffffffffffffffffffff16141561163c576040517f08c379a0000000000000000000000000000000000000000000000000000000008152600401808060200182810382526022815260200180611e9a6022913960400191505060405180910390fd5b60008311611695576040517f08c379a000000000000000000000000000000000000000000000000000000000815260040180806020018281038252602e815260200180611e16602e913960400191505060405180910390fd5b600260009054906101000a900473ffffffffffffffffffffffffffffffffffffffff1673ffffffffffffffffffffffffffffffffffffffff168273ffffffffffffffffffffffffffffffffffffffff16141561173c576040517f08c379a000000000000000000000000000000000000000000000000000000000815260040180806020018281038252602f815260200180611e6b602f913960400191505060405180910390fd5b6000600360008473ffffffffffffffffffffffffffffffffffffffff1673ffffffffffffffffffffffffffffffffffffffff16815260200190815260200160002054146117d4576040517f08c379a0000000000000000000000000000000000000000000000000000000008152600401808060200182810382526022815260200180611ebc6022913960400191505060405180910390fd5b82600360008473ffffffffffffffffffffffffffffffffffffffff1673ffffffffffffffffffffffffffffffffffffffff16815260200190815260200160002081905550816006600085815260200190815260200160002060006005600087815260200190815260200160002054815260200190815260200160002060006101000a81548173ffffffffffffffffffffffffffffffffffffffff021916908373ffffffffffffffffffffffffffffffffffffffff1602179055506118b560016005600086815260200190815260200160002054611ce190919063ffffffff16565b60056000858152602001908152602001600020819055507f01c3b3e75a9bd2d9efd99a3e833ded0479ef49f2d66736b42319a2607cad27e6838342604051808481526020018373ffffffffffffffffffffffffffffffffffffffff168152602001828152602001935050505060405180910390a1505050565b600082600073ffffffffffffffffffffffffffffffffffffffff168173ffffffffffffffffffffffffffffffffffffffff1614156119b7576040517f08c379a0000000000000000000000000000000000000000000000000000000008152600401808060200182810382526022815260200180611e9a6022913960400191505060405180910390fd5b82600073ffffffffffffffffffffffffffffffffffffffff168173ffffffffffffffffffffffffffffffffffffffff161415611a3e576040517f08c379a0000000000000000000000000000000000000000000000000000000008152600401808060200182810382526022815260200180611e9a6022913960400191505060405180910390fd5b6000611a498561084a565b90508073ffffffffffffffffffffffffffffffffffffffff1663d4fac45d87876040518363ffffffff1660e01b8152600401808373ffffffffffffffffffffffffffffffffffffffff1681526020018273ffffffffffffffffffffffffffffffffffffffff1681526020019250505060206040518083038186803b158015611ad057600080fd5b505afa158015611ae4573d6000803e3d6000fd5b505050506040513d6020811015611afa57600080fd5b8101908080519060200190929190505050935050505092915050565b60066020528160005260406000206020528060005260406000206000915091509054906101000a900473ffffffffffffffffffffffffffffffffffffffff1681565b611b60611176565b611b6957600080fd5b611b7281611cfd565b50565b606060008211611bd0576040517f08c379a000000000000000000000000000000000000000000000000000000000815260040180806020018281038252602e815260200180611e16602e913960400191505060405180910390fd5b60006005600084815260200190815260200160002054905060008167ffffffffffffffff81118015611c0157600080fd5b50604051908082528060200260200182016040528015611c305781602001602082028036833780820191505090505b50905060005b82811015611cd65760066000868152602001908152602001600020600082815260200190815260200160002060009054906101000a900473ffffffffffffffffffffffffffffffffffffffff16828281518110611c8f57fe5b602002602001019073ffffffffffffffffffffffffffffffffffffffff16908173ffffffffffffffffffffffffffffffffffffffff16815250508080600101915050611c36565b508092505050919050565b600080828401905083811015611cf357fe5b8091505092915050565b600073ffffffffffffffffffffffffffffffffffffffff168173ffffffffffffffffffffffffffffffffffffffff161415611d3757600080fd5b8073ffffffffffffffffffffffffffffffffffffffff1660008054906101000a900473ffffffffffffffffffffffffffffffffffffffff1673ffffffffffffffffffffffffffffffffffffffff167f8be0079c531659141344cd1fd0a4f28419497f9722a3daafe3b4186f6b6457e060405160405180910390a3806000806101000a81548173ffffffffffffffffffffffffffffffffffffffff021916908373ffffffffffffffffffffffffffffffffffffffff1602179055505056fe417373657448616e646c65723a206173736574206e6f7420737570706f72746564417373657448616e646c65723a20617373657454797065206d7573742062652067726561746572207468616e2030417373657448616e646c65723a206173736574207479706520616c726561647920657869737473417373657448616e646c65723a2043616e6e6f7420657175616c20737461626c6520746f6b656e2061646472657373417373657448616e646c65723a2041646472657373206973206e6f742076616c6964417373657448616e646c65723a20417373657420616c726561647920657869737473a26469706673582212201859ef88f6ef26e80c0e55a75e0319ff45e83a8a31e9354d2b4940bf70ce0e1964736f6c63430007060033",
  "immutableReferences": {},
  "source": "// SPDX-License-Identifier: MIT\r\n\r\npragma solidity >=0.7.6;\r\n\r\n//Inheritance\r\nimport \"./interfaces/IAssetHandler.sol\";\r\nimport './Ownable.sol';\r\n\r\n//Interfaces\r\nimport './interfaces/IPriceAggregator.sol';\r\nimport './interfaces/IAddressResolver.sol';\r\nimport './interfaces/IAssetVerifier.sol';\r\n\r\n//Libraries\r\nimport './libraries/SafeMath.sol';\r\n\r\ncontract AssetHandler is IAssetHandler, Ownable {\r\n    using SafeMath for uint;\r\n\r\n    IAddressResolver public ADDRESS_RESOLVER;\r\n\r\n    address public cUSDAddress;\r\n    mapping (address => uint) public assetTypes;\r\n    mapping (uint => address) public assetTypeToPriceAggregator;\r\n    mapping (uint => uint) public numberOfAvailableAssetsForType;\r\n    mapping (uint => mapping (uint => address)) public availableAssetsForType;\r\n\r\n    constructor(IAddressResolver addressResolver) Ownable() {\r\n        ADDRESS_RESOLVER = addressResolver;\r\n    }\r\n\r\n    /* ========== VIEWS ========== */\r\n\r\n    /**\r\n    * @dev Given the address of an asset, returns the asset's price in USD\r\n    * @param asset Address of the asset\r\n    * @return uint Price of the asset in USD\r\n    */\r\n    function getUSDPrice(address asset) public view override isValidAddress(asset) returns (uint) {\r\n        require(assetTypes[asset] > 0, \"AssetHandler: asset not supported\");\r\n        \r\n        return IPriceAggregator(assetTypeToPriceAggregator[assetTypes[asset]]).getUSDPrice(asset);\r\n    }\r\n\r\n    /**\r\n    * @dev Given the address of an asset, returns whether the asset is supported on Tradegen\r\n    * @param asset Address of the asset\r\n    * @return bool Whether the asset is supported\r\n    */\r\n    function isValidAsset(address asset) public view override isValidAddress(asset) returns (bool) {\r\n        return (assetTypes[asset] > 0 || asset == cUSDAddress);\r\n    }\r\n\r\n    /**\r\n    * @dev Given an asset type, returns the address of each supported asset for the type\r\n    * @param assetType Type of asset\r\n    * @return address[] Address of each supported asset for the type\r\n    */\r\n    function getAvailableAssetsForType(uint assetType) public view override returns (address[] memory) {\r\n        require(assetType > 0, \"AssetHandler: assetType must be greater than 0\");\r\n\r\n        uint numberOfAssets = numberOfAvailableAssetsForType[assetType];\r\n        address[] memory assets = new address[](numberOfAssets);\r\n\r\n        for(uint i = 0; i < numberOfAssets; i++)\r\n        {\r\n            assets[i] = availableAssetsForType[assetType][i];\r\n        }\r\n\r\n        return assets;\r\n    }\r\n\r\n    /**\r\n    * @dev Returns the address of the stable coin\r\n    * @return address The stable coin address\r\n    */\r\n    function getStableCoinAddress() public view override returns(address) {\r\n        return cUSDAddress;\r\n    }\r\n\r\n    /**\r\n    * @dev Given the address of an asset, returns the asset's type\r\n    * @param addressToCheck Address of the asset\r\n    * @return uint Type of the asset\r\n    */\r\n    function getAssetType(address addressToCheck) public view override isValidAddress(addressToCheck) returns (uint) {\r\n        return assetTypes[addressToCheck];\r\n    }\r\n\r\n    /**\r\n    * @dev Returns the pool's balance of the given asset\r\n    * @param pool Address of the pool\r\n    * @param asset Address of the asset\r\n    * @return uint Pool's balance of the asset\r\n    */\r\n    function getBalance(address pool, address asset) public view override isValidAddress(pool) isValidAddress(asset) returns (uint) {\r\n        address verifier = getVerifier(asset);\r\n\r\n        return IAssetVerifier(verifier).getBalance(pool, asset);\r\n    }\r\n\r\n    /**\r\n    * @dev Returns the asset's number of decimals\r\n    * @param asset Address of the asset\r\n    * @return uint Number of decimals\r\n    */\r\n    function getDecimals(address asset) public view override isValidAddress(asset) returns (uint) {\r\n        uint assetType = assetTypes[asset];\r\n        address verifier = ADDRESS_RESOLVER.assetVerifiers(assetType);\r\n\r\n        return IAssetVerifier(verifier).getDecimals(asset);\r\n    }\r\n\r\n    /**\r\n    * @dev Given the address of an asset, returns the address of the asset's verifier\r\n    * @param asset Address of the asset\r\n    * @return address Address of the asset's verifier\r\n    */\r\n    function getVerifier(address asset) public view override isValidAddress(asset) returns (address) {\r\n        uint assetType = assetTypes[asset];\r\n\r\n        return ADDRESS_RESOLVER.assetVerifiers(assetType);\r\n    }\r\n\r\n    /* ========== RESTRICTED FUNCTIONS ========== */\r\n\r\n     /**\r\n    * @dev Sets the address of the stable coin\r\n    * @param stableCoinAddress The address of the stable coin\r\n    */\r\n    function setStableCoinAddress(address stableCoinAddress) external onlyOwner isValidAddress(stableCoinAddress) {\r\n        address oldAddress = cUSDAddress;\r\n        cUSDAddress = stableCoinAddress;\r\n        assetTypes[stableCoinAddress] = 1;\r\n\r\n        emit UpdatedStableCoinAddress(oldAddress, stableCoinAddress, block.timestamp);\r\n    }\r\n\r\n    /**\r\n    * @dev Adds a new tradable currency to the platform\r\n    * @param assetType Type of the asset\r\n    * @param currencyKey The address of the asset to add\r\n    */\r\n    function addCurrencyKey(uint assetType, address currencyKey) external onlyOwner isValidAddress(currencyKey) {\r\n        require(assetType > 0, \"AssetHandler: assetType must be greater than 0\");\r\n        require(currencyKey != cUSDAddress, \"AssetHandler: Cannot equal stable token address\");\r\n        require(assetTypes[currencyKey] == 0, \"AssetHandler: Asset already exists\");\r\n\r\n        assetTypes[currencyKey] = assetType;\r\n        availableAssetsForType[assetType][numberOfAvailableAssetsForType[assetType]] = currencyKey;\r\n        numberOfAvailableAssetsForType[assetType] = numberOfAvailableAssetsForType[assetType].add(1);\r\n\r\n        emit AddedAsset(assetType, currencyKey, block.timestamp);\r\n    }\r\n\r\n    /**\r\n    * @dev Adds a new asset type\r\n    * @param assetType Type of the asset\r\n    * @param priceAggregator Address of the asset's price aggregator\r\n    */\r\n    function addAssetType(uint assetType, address priceAggregator) external onlyOwner isValidAddress(priceAggregator) {\r\n        require(assetType > 0, \"AssetHandler: assetType must be greater than 0\");\r\n        require(assetTypeToPriceAggregator[assetType] == address(0), \"AssetHandler: asset type already exists\");\r\n\r\n        assetTypeToPriceAggregator[assetType] = priceAggregator;\r\n\r\n        emit AddedAssetType(assetType, priceAggregator, block.timestamp);\r\n    }\r\n\r\n    /* ========== MODIFIERS ========== */\r\n\r\n    modifier isValidAddress(address addressToCheck) {\r\n        require(addressToCheck != address(0), \"AssetHandler: Address is not valid\");\r\n        _;\r\n    }\r\n\r\n    /* ========== EVENTS ========== */\r\n\r\n    event AddedAsset(uint assetType, address currencyKey, uint timestamp);\r\n    event UpdatedStableCoinAddress(address oldAddress, address stableCurrencyAddress, uint timestamp);\r\n    event AddedAssetType(uint assetType, address priceAggregator, uint timestamp); \r\n}",
  "sourcePath": "C:/Users/xavie/OneDrive/Desktop/TradeGen/Github/tradegen-protocol/contracts/AssetHandler.sol",
  "compiler": {
    "name": "solc",
    "version": "0.7.6+commit.7338295f.Emscripten.clang"
  },
  "schemaVersion": "3.4.1",
  "updatedAt": "2021-09-26T18:16:47.505Z",
  "devdoc": {
    "kind": "dev",
    "methods": {
      "addAssetType(uint256,address)": {
        "details": "Adds a new asset type",
        "params": {
          "assetType": "Type of the asset",
          "priceAggregator": "Address of the asset's price aggregator"
        }
      },
      "addCurrencyKey(uint256,address)": {
        "details": "Adds a new tradable currency to the platform",
        "params": {
          "assetType": "Type of the asset",
          "currencyKey": "The address of the asset to add"
        }
      },
      "getAssetType(address)": {
        "details": "Given the address of an asset, returns the asset's type",
        "params": {
          "addressToCheck": "Address of the asset"
        },
        "returns": {
          "_0": "uint Type of the asset"
        }
      },
      "getAvailableAssetsForType(uint256)": {
        "details": "Given an asset type, returns the address of each supported asset for the type",
        "params": {
          "assetType": "Type of asset"
        },
        "returns": {
          "_0": "address[] Address of each supported asset for the type"
        }
      },
      "getBalance(address,address)": {
        "details": "Returns the pool's balance of the given asset",
        "params": {
          "asset": "Address of the asset",
          "pool": "Address of the pool"
        },
        "returns": {
          "_0": "uint Pool's balance of the asset"
        }
      },
      "getDecimals(address)": {
        "details": "Returns the asset's number of decimals",
        "params": {
          "asset": "Address of the asset"
        },
        "returns": {
          "_0": "uint Number of decimals"
        }
      },
      "getStableCoinAddress()": {
        "details": "Returns the address of the stable coin",
        "returns": {
          "_0": "address The stable coin address"
        }
      },
      "getUSDPrice(address)": {
        "details": "Given the address of an asset, returns the asset's price in USD",
        "params": {
          "asset": "Address of the asset"
        },
        "returns": {
          "_0": "uint Price of the asset in USD"
        }
      },
      "getVerifier(address)": {
        "details": "Given the address of an asset, returns the address of the asset's verifier",
        "params": {
          "asset": "Address of the asset"
        },
        "returns": {
          "_0": "address Address of the asset's verifier"
        }
      },
      "isOwner()": {
        "returns": {
          "_0": "true if `msg.sender` is the owner of the contract."
        }
      },
      "isValidAsset(address)": {
        "details": "Given the address of an asset, returns whether the asset is supported on Tradegen",
        "params": {
          "asset": "Address of the asset"
        },
        "returns": {
          "_0": "bool Whether the asset is supported"
        }
      },
      "owner()": {
        "returns": {
          "_0": "the address of the owner."
        }
      },
      "renounceOwnership()": {
        "details": "Allows the current owner to relinquish control of the contract."
      },
      "setStableCoinAddress(address)": {
        "details": "Sets the address of the stable coin",
        "params": {
          "stableCoinAddress": "The address of the stable coin"
        }
      },
      "transferOwnership(address)": {
        "details": "Allows the current owner to transfer control of the contract to a newOwner.",
        "params": {
          "newOwner": "The address to transfer ownership to."
        }
      }
    },
    "version": 1
  },
  "userdoc": {
    "kind": "user",
    "methods": {
      "renounceOwnership()": {
        "notice": "Renouncing to ownership will leave the contract without an owner. It will not be possible to call the functions with the `onlyOwner` modifier anymore."
      }
    },
    "version": 1
  }
}