{
  "contractName": "BaseUbeswapAdapter",
  "abi": [
    {
      "inputs": [
        {
          "internalType": "contract IAddressResolver",
          "name": "addressResolver",
          "type": "address"
        }
      ],
      "stateMutability": "nonpayable",
      "type": "constructor"
    },
    {
      "anonymous": false,
      "inputs": [
        {
          "indexed": false,
          "internalType": "address",
          "name": "addressAddedFrom",
          "type": "address"
        },
        {
          "indexed": false,
          "internalType": "address",
          "name": "tokenA",
          "type": "address"
        },
        {
          "indexed": false,
          "internalType": "address",
          "name": "tokenB",
          "type": "address"
        },
        {
          "indexed": false,
          "internalType": "uint256",
          "name": "amountA",
          "type": "uint256"
        },
        {
          "indexed": false,
          "internalType": "uint256",
          "name": "amountB",
          "type": "uint256"
        },
        {
          "indexed": false,
          "internalType": "uint256",
          "name": "numberOfLPTokens",
          "type": "uint256"
        },
        {
          "indexed": false,
          "internalType": "uint256",
          "name": "timestamp",
          "type": "uint256"
        }
      ],
      "name": "AddedLiquidity",
      "type": "event"
    },
    {
      "anonymous": false,
      "inputs": [
        {
          "indexed": false,
          "internalType": "address",
          "name": "addressRemovedFrom",
          "type": "address"
        },
        {
          "indexed": false,
          "internalType": "address",
          "name": "tokenA",
          "type": "address"
        },
        {
          "indexed": false,
          "internalType": "address",
          "name": "tokenB",
          "type": "address"
        },
        {
          "indexed": false,
          "internalType": "uint256",
          "name": "amountAReceived",
          "type": "uint256"
        },
        {
          "indexed": false,
          "internalType": "uint256",
          "name": "amountBReceived",
          "type": "uint256"
        },
        {
          "indexed": false,
          "internalType": "uint256",
          "name": "timestamp",
          "type": "uint256"
        }
      ],
      "name": "RemovedLiquidity",
      "type": "event"
    },
    {
      "anonymous": false,
      "inputs": [
        {
          "indexed": false,
          "internalType": "address",
          "name": "addressSwappedFrom",
          "type": "address"
        },
        {
          "indexed": false,
          "internalType": "address",
          "name": "fromAsset",
          "type": "address"
        },
        {
          "indexed": false,
          "internalType": "address",
          "name": "toAsset",
          "type": "address"
        },
        {
          "indexed": false,
          "internalType": "uint256",
          "name": "fromAmount",
          "type": "uint256"
        },
        {
          "indexed": false,
          "internalType": "uint256",
          "name": "receivedAmount",
          "type": "uint256"
        },
        {
          "indexed": false,
          "internalType": "uint256",
          "name": "timestamp",
          "type": "uint256"
        }
      ],
      "name": "Swapped",
      "type": "event"
    },
    {
      "inputs": [],
      "name": "ADDRESS_RESOLVER",
      "outputs": [
        {
          "internalType": "contract IAddressResolver",
          "name": "",
          "type": "address"
        }
      ],
      "stateMutability": "view",
      "type": "function"
    },
    {
      "inputs": [],
      "name": "MAX_SLIPPAGE_PERCENT",
      "outputs": [
        {
          "internalType": "uint256",
          "name": "",
          "type": "uint256"
        }
      ],
      "stateMutability": "view",
      "type": "function"
    },
    {
      "inputs": [
        {
          "internalType": "address",
          "name": "currencyKey",
          "type": "address"
        }
      ],
      "name": "getPrice",
      "outputs": [
        {
          "internalType": "uint256",
          "name": "",
          "type": "uint256"
        }
      ],
      "stateMutability": "view",
      "type": "function"
    },
    {
      "inputs": [
        {
          "internalType": "uint256",
          "name": "numberOfTokens",
          "type": "uint256"
        },
        {
          "internalType": "address",
          "name": "currencyKeyIn",
          "type": "address"
        },
        {
          "internalType": "address",
          "name": "currencyKeyOut",
          "type": "address"
        }
      ],
      "name": "getAmountsOut",
      "outputs": [
        {
          "internalType": "uint256",
          "name": "",
          "type": "uint256"
        }
      ],
      "stateMutability": "view",
      "type": "function"
    },
    {
      "inputs": [
        {
          "internalType": "address",
          "name": "assetToSwapFrom",
          "type": "address"
        },
        {
          "internalType": "address",
          "name": "assetToSwapTo",
          "type": "address"
        },
        {
          "internalType": "uint256",
          "name": "amountToSwap",
          "type": "uint256"
        },
        {
          "internalType": "uint256",
          "name": "minAmountOut",
          "type": "uint256"
        }
      ],
      "name": "swapFromPool",
      "outputs": [
        {
          "internalType": "uint256",
          "name": "",
          "type": "uint256"
        }
      ],
      "stateMutability": "nonpayable",
      "type": "function"
    },
    {
      "inputs": [
        {
          "internalType": "address",
          "name": "assetToSwapFrom",
          "type": "address"
        },
        {
          "internalType": "address",
          "name": "assetToSwapTo",
          "type": "address"
        },
        {
          "internalType": "uint256",
          "name": "amountToSwap",
          "type": "uint256"
        },
        {
          "internalType": "uint256",
          "name": "minAmountOut",
          "type": "uint256"
        }
      ],
      "name": "swapFromBot",
      "outputs": [
        {
          "internalType": "uint256",
          "name": "",
          "type": "uint256"
        }
      ],
      "stateMutability": "nonpayable",
      "type": "function"
    },
    {
      "inputs": [
        {
          "internalType": "address",
          "name": "tokenA",
          "type": "address"
        },
        {
          "internalType": "address",
          "name": "tokenB",
          "type": "address"
        },
        {
          "internalType": "uint256",
          "name": "amountA",
          "type": "uint256"
        },
        {
          "internalType": "uint256",
          "name": "amountB",
          "type": "uint256"
        }
      ],
      "name": "addLiquidity",
      "outputs": [
        {
          "internalType": "uint256",
          "name": "",
          "type": "uint256"
        }
      ],
      "stateMutability": "nonpayable",
      "type": "function"
    },
    {
      "inputs": [
        {
          "internalType": "address",
          "name": "tokenA",
          "type": "address"
        },
        {
          "internalType": "address",
          "name": "tokenB",
          "type": "address"
        },
        {
          "internalType": "uint256",
          "name": "numberOfLPTokens",
          "type": "uint256"
        }
      ],
      "name": "removeLiquidity",
      "outputs": [
        {
          "internalType": "uint256",
          "name": "",
          "type": "uint256"
        },
        {
          "internalType": "uint256",
          "name": "",
          "type": "uint256"
        }
      ],
      "stateMutability": "nonpayable",
      "type": "function"
    }
  ],
  "bytecode": "0x60a060405234801561001057600080fd5b506040516129b43803806129b48339818101604052602081101561003357600080fd5b81019080805190602001909291905050508073ffffffffffffffffffffffffffffffffffffffff1660808173ffffffffffffffffffffffffffffffffffffffff1660601b815250505060805160601c6128e46100d0600039806103ea528061052052806106015280610be25280610c095280610cea52806114f552806116265280611757528061191d5280611f5a52806124e252506128e46000f3fe608060405234801561001057600080fd5b50600436106100885760003560e01c8063baf7fa991161005b578063baf7fa99146101c3578063cf6c62ea14610245578063d752fab2146102d1578063e5414cd01461035a57610088565b80630838fcb31461008d57806332e4b2861461011957806341976e0914610137578063981f3b8e1461018f575b600080fd5b610103600480360360808110156100a357600080fd5b81019080803573ffffffffffffffffffffffffffffffffffffffff169060200190929190803573ffffffffffffffffffffffffffffffffffffffff16906020019092919080359060200190929190803590602001909291905050506103e6565b6040518082815260200191505060405180910390f35b610121610516565b6040518082815260200191505060405180910390f35b6101796004803603602081101561014d57600080fd5b81019080803573ffffffffffffffffffffffffffffffffffffffff16906020019092919050505061051b565b6040518082815260200191505060405180910390f35b610197610be0565b604051808273ffffffffffffffffffffffffffffffffffffffff16815260200191505060405180910390f35b61022f600480360360608110156101d957600080fd5b8101908080359060200190929190803573ffffffffffffffffffffffffffffffffffffffff169060200190929190803573ffffffffffffffffffffffffffffffffffffffff169060200190929190505050610c04565b6040518082815260200191505060405180910390f35b6102bb6004803603608081101561025b57600080fd5b81019080803573ffffffffffffffffffffffffffffffffffffffff169060200190929190803573ffffffffffffffffffffffffffffffffffffffff16906020019092919080359060200190929190803590602001909291905050506114f1565b6040518082815260200191505060405180910390f35b61033d600480360360608110156102e757600080fd5b81019080803573ffffffffffffffffffffffffffffffffffffffff169060200190929190803573ffffffffffffffffffffffffffffffffffffffff16906020019092919080359060200190929190505050611621565b604051808381526020018281526020019250505060405180910390f35b6103d06004803603608081101561037057600080fd5b81019080803573ffffffffffffffffffffffffffffffffffffffff169060200190929190803573ffffffffffffffffffffffffffffffffffffffff1690602001909291908035906020019092919080359060200190929190505050611753565b6040518082815260200191505060405180910390f35b60007f000000000000000000000000000000000000000000000000000000000000000073ffffffffffffffffffffffffffffffffffffffff1663683ad58f336040518263ffffffff1660e01b8152600401808273ffffffffffffffffffffffffffffffffffffffff16815260200191505060206040518083038186803b15801561046f57600080fd5b505afa158015610483573d6000803e3d6000fd5b505050506040513d602081101561049957600080fd5b81019080805190602001909291905050506104ff576040517f08c379a000000000000000000000000000000000000000000000000000000000815260040180806020018281038252602b815260200180612884602b913960400191505060405180910390fd5b61050c3386868686611883565b9050949350505050565b600a81565b6000807f000000000000000000000000000000000000000000000000000000000000000073ffffffffffffffffffffffffffffffffffffffff166304433bbc6040518163ffffffff1660e01b81526004018080602001828103825260088152602001807f53657474696e677300000000000000000000000000000000000000000000000081525060200191505060206040518083038186803b1580156105c057600080fd5b505afa1580156105d4573d6000803e3d6000fd5b505050506040513d60208110156105ea57600080fd5b8101908080519060200190929190505050905060007f000000000000000000000000000000000000000000000000000000000000000073ffffffffffffffffffffffffffffffffffffffff166304433bbc6040518163ffffffff1660e01b815260040180806020018281038252600d8152602001807f55626573776170526f757465720000000000000000000000000000000000000081525060200191505060206040518083038186803b1580156106a157600080fd5b505afa1580156106b5573d6000803e3d6000fd5b505050506040513d60208110156106cb57600080fd5b8101908080519060200190929190505050905060008273ffffffffffffffffffffffffffffffffffffffff1663be781b1c6040518163ffffffff1660e01b815260040160206040518083038186803b15801561072657600080fd5b505afa15801561073a573d6000803e3d6000fd5b505050506040513d602081101561075057600080fd5b810190808051906020019092919050505090508073ffffffffffffffffffffffffffffffffffffffff168573ffffffffffffffffffffffffffffffffffffffff1614156107ad576107a085611ec8565b600a0a9350505050610bdb565b600073ffffffffffffffffffffffffffffffffffffffff168573ffffffffffffffffffffffffffffffffffffffff161415610850576040517f08c379a00000000000000000000000000000000000000000000000000000000081526004018080602001828103825260148152602001807f496e76616c69642063757272656e6379206b657900000000000000000000000081525060200191505060405180910390fd5b8273ffffffffffffffffffffffffffffffffffffffff1663571a0885866040518263ffffffff1660e01b8152600401808273ffffffffffffffffffffffffffffffffffffffff16815260200191505060206040518083038186803b1580156108b757600080fd5b505afa1580156108cb573d6000803e3d6000fd5b505050506040513d60208110156108e157600080fd5b8101908080519060200190929190505050610964576040517f08c379a00000000000000000000000000000000000000000000000000000000081526004018080602001828103825260198152602001807f43757272656e6379206973206e6f7420617661696c61626c650000000000000081525060200191505060405180910390fd5b6060600267ffffffffffffffff8111801561097e57600080fd5b506040519080825280602002602001820160405280156109ad5781602001602082028036833780820191505090505b50905085816000815181106109be57fe5b602002602001019073ffffffffffffffffffffffffffffffffffffffff16908173ffffffffffffffffffffffffffffffffffffffff16815250508181600181518110610a0657fe5b602002602001019073ffffffffffffffffffffffffffffffffffffffff16908173ffffffffffffffffffffffffffffffffffffffff168152505060608373ffffffffffffffffffffffffffffffffffffffff1663d06ca61f610a6789611ec8565b600a0a846040518363ffffffff1660e01b81526004018083815260200180602001828103825283818151815260200191508051906020019060200280838360005b83811015610ac3578082015181840152602081019050610aa8565b50505050905001935050505060006040518083038186803b158015610ae757600080fd5b505afa158015610afb573d6000803e3d6000fd5b505050506040513d6000823e3d601f19601f820116820180604052506020811015610b2557600080fd5b8101908080516040519392919084640100000000821115610b4557600080fd5b83820191506020820185811115610b5b57600080fd5b8251866020820283011164010000000082111715610b7857600080fd5b8083526020830192505050908051906020019060200280838360005b83811015610baf578082015181840152602081019050610b94565b50505050905001604052505050905080600181518110610bcb57fe5b6020026020010151955050505050505b919050565b7f000000000000000000000000000000000000000000000000000000000000000081565b6000807f000000000000000000000000000000000000000000000000000000000000000073ffffffffffffffffffffffffffffffffffffffff166304433bbc6040518163ffffffff1660e01b81526004018080602001828103825260088152602001807f53657474696e677300000000000000000000000000000000000000000000000081525060200191505060206040518083038186803b158015610ca957600080fd5b505afa158015610cbd573d6000803e3d6000fd5b505050506040513d6020811015610cd357600080fd5b8101908080519060200190929190505050905060007f000000000000000000000000000000000000000000000000000000000000000073ffffffffffffffffffffffffffffffffffffffff166304433bbc6040518163ffffffff1660e01b815260040180806020018281038252600d8152602001807f55626573776170526f757465720000000000000000000000000000000000000081525060200191505060206040518083038186803b158015610d8a57600080fd5b505afa158015610d9e573d6000803e3d6000fd5b505050506040513d6020811015610db457600080fd5b8101908080519060200190929190505050905060008273ffffffffffffffffffffffffffffffffffffffff1663be781b1c6040518163ffffffff1660e01b815260040160206040518083038186803b158015610e0f57600080fd5b505afa158015610e23573d6000803e3d6000fd5b505050506040513d6020811015610e3957600080fd5b81019080805190602001909291905050509050600073ffffffffffffffffffffffffffffffffffffffff168673ffffffffffffffffffffffffffffffffffffffff161415610eef576040517f08c379a00000000000000000000000000000000000000000000000000000000081526004018080602001828103825260178152602001807f496e76616c69642063757272656e6379206b657920696e00000000000000000081525060200191505060405180910390fd5b600073ffffffffffffffffffffffffffffffffffffffff168573ffffffffffffffffffffffffffffffffffffffff161415610f92576040517f08c379a00000000000000000000000000000000000000000000000000000000081526004018080602001828103825260188152602001807f496e76616c69642063757272656e6379206b6579206f7574000000000000000081525060200191505060405180910390fd5b8273ffffffffffffffffffffffffffffffffffffffff1663571a0885876040518263ffffffff1660e01b8152600401808273ffffffffffffffffffffffffffffffffffffffff16815260200191505060206040518083038186803b158015610ff957600080fd5b505afa15801561100d573d6000803e3d6000fd5b505050506040513d602081101561102357600080fd5b81019080805190602001909291905050508061106a57508073ffffffffffffffffffffffffffffffffffffffff168673ffffffffffffffffffffffffffffffffffffffff16145b6110dc576040517f08c379a00000000000000000000000000000000000000000000000000000000081526004018080602001828103825260198152602001807f43757272656e6379206973206e6f7420617661696c61626c650000000000000081525060200191505060405180910390fd5b8273ffffffffffffffffffffffffffffffffffffffff1663571a0885866040518263ffffffff1660e01b8152600401808273ffffffffffffffffffffffffffffffffffffffff16815260200191505060206040518083038186803b15801561114357600080fd5b505afa158015611157573d6000803e3d6000fd5b505050506040513d602081101561116d57600080fd5b8101908080519060200190929190505050806111b457508073ffffffffffffffffffffffffffffffffffffffff168573ffffffffffffffffffffffffffffffffffffffff16145b611226576040517f08c379a00000000000000000000000000000000000000000000000000000000081526004018080602001828103825260198152602001807f43757272656e6379206973206e6f7420617661696c61626c650000000000000081525060200191505060405180910390fd5b6000871161127f576040517f08c379a000000000000000000000000000000000000000000000000000000000815260040180806020018281038252602781526020018061285d6027913960400191505060405180910390fd5b6060600267ffffffffffffffff8111801561129957600080fd5b506040519080825280602002602001820160405280156112c85781602001602082028036833780820191505090505b50905086816000815181106112d957fe5b602002602001019073ffffffffffffffffffffffffffffffffffffffff16908173ffffffffffffffffffffffffffffffffffffffff1681525050858160018151811061132157fe5b602002602001019073ffffffffffffffffffffffffffffffffffffffff16908173ffffffffffffffffffffffffffffffffffffffff168152505060608373ffffffffffffffffffffffffffffffffffffffff1663d06ca61f8a846040518363ffffffff1660e01b81526004018083815260200180602001828103825283818151815260200191508051906020019060200280838360005b838110156113d35780820151818401526020810190506113b8565b50505050905001935050505060006040518083038186803b1580156113f757600080fd5b505afa15801561140b573d6000803e3d6000fd5b505050506040513d6000823e3d601f19601f82011682018060405250602081101561143557600080fd5b810190808051604051939291908464010000000082111561145557600080fd5b8382019150602082018581111561146b57600080fd5b825186602082028301116401000000008211171561148857600080fd5b8083526020830192505050908051906020019060200280838360005b838110156114bf5780820151818401526020810190506114a4565b505050509050016040525050509050806001815181106114db57fe5b6020026020010151955050505050509392505050565b60007f000000000000000000000000000000000000000000000000000000000000000073ffffffffffffffffffffffffffffffffffffffff1663e51f8aba336040518263ffffffff1660e01b8152600401808273ffffffffffffffffffffffffffffffffffffffff16815260200191505060206040518083038186803b15801561157a57600080fd5b505afa15801561158e573d6000803e3d6000fd5b505050506040513d60208110156115a457600080fd5b810190808051906020019092919050505061160a576040517f08c379a00000000000000000000000000000000000000000000000000000000081526004018080602001828103825260248152602001806128396024913960400191505060405180910390fd5b6116173386868686611f55565b9050949350505050565b6000807f000000000000000000000000000000000000000000000000000000000000000073ffffffffffffffffffffffffffffffffffffffff1663e51f8aba336040518263ffffffff1660e01b8152600401808273ffffffffffffffffffffffffffffffffffffffff16815260200191505060206040518083038186803b1580156116ab57600080fd5b505afa1580156116bf573d6000803e3d6000fd5b505050506040513d60208110156116d557600080fd5b810190808051906020019092919050505061173b576040517f08c379a00000000000000000000000000000000000000000000000000000000081526004018080602001828103825260248152602001806128396024913960400191505060405180910390fd5b611747338686866124db565b91509150935093915050565b60007f000000000000000000000000000000000000000000000000000000000000000073ffffffffffffffffffffffffffffffffffffffff1663e51f8aba336040518263ffffffff1660e01b8152600401808273ffffffffffffffffffffffffffffffffffffffff16815260200191505060206040518083038186803b1580156117dc57600080fd5b505afa1580156117f0573d6000803e3d6000fd5b505050506040513d602081101561180657600080fd5b810190808051906020019092919050505061186c576040517f08c379a00000000000000000000000000000000000000000000000000000000081526004018080602001828103825260248152602001806128396024913960400191505060405180910390fd5b6118793386868686611883565b9050949350505050565b600080611891848787610c04565b905060006118bf60646118b1600a6064038561279790919063ffffffff16565b6127ce90919063ffffffff16565b9050838110611919576040517f08c379a00000000000000000000000000000000000000000000000000000000081526004018080602001828103825260358152602001806128046035913960400191505060405180910390fd5b60007f000000000000000000000000000000000000000000000000000000000000000073ffffffffffffffffffffffffffffffffffffffff166304433bbc6040518163ffffffff1660e01b815260040180806020018281038252600d8152602001807f55626573776170526f757465720000000000000000000000000000000000000081525060200191505060206040518083038186803b1580156119bd57600080fd5b505afa1580156119d1573d6000803e3d6000fd5b505050506040513d60208110156119e757600080fd5b810190808051906020019092919050505090508773ffffffffffffffffffffffffffffffffffffffff1663095ea7b38260006040518363ffffffff1660e01b8152600401808373ffffffffffffffffffffffffffffffffffffffff16815260200182815260200192505050602060405180830381600087803b158015611a6c57600080fd5b505af1158015611a80573d6000803e3d6000fd5b505050506040513d6020811015611a9657600080fd5b8101908080519060200190929190505050508773ffffffffffffffffffffffffffffffffffffffff1663095ea7b382886040518363ffffffff1660e01b8152600401808373ffffffffffffffffffffffffffffffffffffffff16815260200182815260200192505050602060405180830381600087803b158015611b1957600080fd5b505af1158015611b2d573d6000803e3d6000fd5b505050506040513d6020811015611b4357600080fd5b8101908080519060200190929190505050506060600267ffffffffffffffff81118015611b6f57600080fd5b50604051908082528060200260200182016040528015611b9e5781602001602082028036833780820191505090505b5090508881600081518110611baf57fe5b602002602001019073ffffffffffffffffffffffffffffffffffffffff16908173ffffffffffffffffffffffffffffffffffffffff16815250508781600181518110611bf757fe5b602002602001019073ffffffffffffffffffffffffffffffffffffffff16908173ffffffffffffffffffffffffffffffffffffffff168152505060608273ffffffffffffffffffffffffffffffffffffffff166338ed17398989858f426040518663ffffffff1660e01b815260040180868152602001858152602001806020018473ffffffffffffffffffffffffffffffffffffffff168152602001838152602001828103825285818151815260200191508051906020019060200280838360005b83811015611cd4578082015181840152602081019050611cb9565b505050509050019650505050505050600060405180830381600087803b158015611cfd57600080fd5b505af1158015611d11573d6000803e3d6000fd5b505050506040513d6000823e3d601f19601f820116820180604052506020811015611d3b57600080fd5b8101908080516040519392919084640100000000821115611d5b57600080fd5b83820191506020820185811115611d7157600080fd5b8251866020820283011164010000000082111715611d8e57600080fd5b8083526020830192505050908051906020019060200280838360005b83811015611dc5578082015181840152602081019050611daa565b5050505090500160405250505090507fc9163c3bdf7263acf1bb3d24072cc7da025f7181c31e2edc7e1673edf5e0ca328b8b8b84600081518110611e0557fe5b602002602001015185600187510381518110611e1d57fe5b602002602001015142604051808773ffffffffffffffffffffffffffffffffffffffff1681526020018673ffffffffffffffffffffffffffffffffffffffff1681526020018573ffffffffffffffffffffffffffffffffffffffff168152602001848152602001838152602001828152602001965050505050505060405180910390a180600182510381518110611eb057fe5b60200260200101519550505050505095945050505050565b60008173ffffffffffffffffffffffffffffffffffffffff1663313ce5676040518163ffffffff1660e01b815260040160206040518083038186803b158015611f1057600080fd5b505afa158015611f24573d6000803e3d6000fd5b505050506040513d6020811015611f3a57600080fd5b810190808051906020019092919050505060ff169050919050565b6000807f000000000000000000000000000000000000000000000000000000000000000073ffffffffffffffffffffffffffffffffffffffff166304433bbc6040518163ffffffff1660e01b815260040180806020018281038252600d8152602001807f55626573776170526f757465720000000000000000000000000000000000000081525060200191505060206040518083038186803b158015611ffa57600080fd5b505afa15801561200e573d6000803e3d6000fd5b505050506040513d602081101561202457600080fd5b810190808051906020019092919050505090508573ffffffffffffffffffffffffffffffffffffffff1663095ea7b38260006040518363ffffffff1660e01b8152600401808373ffffffffffffffffffffffffffffffffffffffff16815260200182815260200192505050602060405180830381600087803b1580156120a957600080fd5b505af11580156120bd573d6000803e3d6000fd5b505050506040513d60208110156120d357600080fd5b8101908080519060200190929190505050508573ffffffffffffffffffffffffffffffffffffffff1663095ea7b382866040518363ffffffff1660e01b8152600401808373ffffffffffffffffffffffffffffffffffffffff16815260200182815260200192505050602060405180830381600087803b15801561215657600080fd5b505af115801561216a573d6000803e3d6000fd5b505050506040513d602081101561218057600080fd5b8101908080519060200190929190505050508473ffffffffffffffffffffffffffffffffffffffff1663095ea7b38260006040518363ffffffff1660e01b8152600401808373ffffffffffffffffffffffffffffffffffffffff16815260200182815260200192505050602060405180830381600087803b15801561220457600080fd5b505af1158015612218573d6000803e3d6000fd5b505050506040513d602081101561222e57600080fd5b8101908080519060200190929190505050508473ffffffffffffffffffffffffffffffffffffffff1663095ea7b382856040518363ffffffff1660e01b8152600401808373ffffffffffffffffffffffffffffffffffffffff16815260200182815260200192505050602060405180830381600087803b1580156122b157600080fd5b505af11580156122c5573d6000803e3d6000fd5b505050506040513d60208110156122db57600080fd5b81019080805190602001909291905050505060008173ffffffffffffffffffffffffffffffffffffffff1663e8e33700888888886000808f612328610258426127e790919063ffffffff16565b6040518963ffffffff1660e01b8152600401808973ffffffffffffffffffffffffffffffffffffffff1681526020018873ffffffffffffffffffffffffffffffffffffffff1681526020018781526020018681526020018581526020018481526020018373ffffffffffffffffffffffffffffffffffffffff16815260200182815260200198505050505050505050606060405180830381600087803b1580156123d157600080fd5b505af11580156123e5573d6000803e3d6000fd5b505050506040513d60608110156123fb57600080fd5b81019080805190602001909291908051906020019092919080519060200190929190505050925050507ff9ffff2daaa6b9472b5654f7e769ff05f7b28406632388932f783c6b97f2f58288888888888642604051808873ffffffffffffffffffffffffffffffffffffffff1681526020018773ffffffffffffffffffffffffffffffffffffffff1681526020018673ffffffffffffffffffffffffffffffffffffffff16815260200185815260200184815260200183815260200182815260200197505050505050505060405180910390a1809250505095945050505050565b60008060007f000000000000000000000000000000000000000000000000000000000000000073ffffffffffffffffffffffffffffffffffffffff166304433bbc6040518163ffffffff1660e01b815260040180806020018281038252600d8152602001807f55626573776170526f757465720000000000000000000000000000000000000081525060200191505060206040518083038186803b15801561258257600080fd5b505afa158015612596573d6000803e3d6000fd5b505050506040513d60208110156125ac57600080fd5b810190808051906020019092919050505090506000808273ffffffffffffffffffffffffffffffffffffffff1663baa2abde8989896000808f6125fa610258426127e790919063ffffffff16565b6040518863ffffffff1660e01b8152600401808873ffffffffffffffffffffffffffffffffffffffff1681526020018773ffffffffffffffffffffffffffffffffffffffff1681526020018681526020018581526020018481526020018373ffffffffffffffffffffffffffffffffffffffff1681526020018281526020019750505050505050506040805180830381600087803b15801561269b57600080fd5b505af11580156126af573d6000803e3d6000fd5b505050506040513d60408110156126c557600080fd5b810190808051906020019092919080519060200190929190505050915091507f429032ba83790adfa842a372bffc1d5c12b6166819d7d0c597c3cd972c6ff786898989858542604051808773ffffffffffffffffffffffffffffffffffffffff1681526020018673ffffffffffffffffffffffffffffffffffffffff1681526020018573ffffffffffffffffffffffffffffffffffffffff168152602001848152602001838152602001828152602001965050505050505060405180910390a181819450945050505094509492505050565b6000808314156127aa57600090506127c8565b60008284029050828482816127bb57fe5b04146127c357fe5b809150505b92915050565b6000808284816127da57fe5b0490508091505092915050565b6000808284019050838110156127f957fe5b809150509291505056fe4261736555626573776170416461707465723a206d696e416d6f756e744f75742065786365656473206d617820736c6970706167654f6e6c792074686520706f6f6c2063616e2063616c6c20746869732066756e6374696f6e4e756d626572206f6620746f6b656e73206d7573742062652067726561746572207468616e20304f6e6c79207468652074726164696e6720626f742063616e2063616c6c20746869732066756e6374696f6ea2646970667358221220ac74712a33d4988e7dbe27c684229849411e140beab7cd3edd442dde313de87064736f6c634300060c0033",
  "immutableReferences": {
    "18": [
      {
        "length": 32,
        "start": 1002
      },
      {
        "length": 32,
        "start": 1312
      },
      {
        "length": 32,
        "start": 1537
      },
      {
        "length": 32,
        "start": 3042
      },
      {
        "length": 32,
        "start": 3081
      },
      {
        "length": 32,
        "start": 3306
      },
      {
        "length": 32,
        "start": 5365
      },
      {
        "length": 32,
        "start": 5670
      },
      {
        "length": 32,
        "start": 5975
      },
      {
        "length": 32,
        "start": 6429
      },
      {
        "length": 32,
        "start": 8026
      },
      {
        "length": 32,
        "start": 9442
      }
    ]
  },
  "source": "pragma solidity >=0.5.0;\r\n\r\n//Interfaces\r\nimport './interfaces/IUniswapV2Router02.sol';\r\nimport './interfaces/IERC20.sol';\r\nimport './interfaces/ISettings.sol';\r\nimport './interfaces/IAddressResolver.sol';\r\nimport './interfaces/IBaseUbeswapAdapter.sol';\r\n\r\n//Libraries\r\nimport './libraries/SafeMath.sol';\r\n\r\ncontract BaseUbeswapAdapter is IBaseUbeswapAdapter {\r\n    using SafeMath for uint;\r\n\r\n    // Max slippage percent allowed\r\n    uint public constant override MAX_SLIPPAGE_PERCENT = 10; //10% slippage\r\n\r\n    IAddressResolver public immutable ADDRESS_RESOLVER;\r\n\r\n    constructor(IAddressResolver addressResolver) public {\r\n        ADDRESS_RESOLVER = addressResolver;\r\n    }\r\n\r\n    /* ========== VIEWS ========== */\r\n\r\n    /**\r\n    * @dev Given an input asset address, returns the price of the asset in cUSD\r\n    * @param currencyKey Address of the asset\r\n    * @return uint Price of the asset\r\n    */\r\n    function getPrice(address currencyKey) public view override returns(uint) {\r\n        address settingsAddress = ADDRESS_RESOLVER.getContractAddress(\"Settings\");\r\n        address ubeswapRouterAddress = ADDRESS_RESOLVER.getContractAddress(\"UbeswapRouter\");\r\n        address stableCoinAddress = ISettings(settingsAddress).getStableCoinAddress();\r\n\r\n        //Check if currency key is cUSD\r\n        if (currencyKey == stableCoinAddress)\r\n        {\r\n            return 10 ** _getDecimals(currencyKey);\r\n        }\r\n\r\n        require(currencyKey != address(0), \"Invalid currency key\");\r\n        require(ISettings(settingsAddress).checkIfCurrencyIsAvailable(currencyKey), \"Currency is not available\");\r\n\r\n        address[] memory path = new address[](2);\r\n        path[0] = currencyKey;\r\n        path[1] = stableCoinAddress;\r\n\r\n        uint[] memory amounts = IUniswapV2Router02(ubeswapRouterAddress).getAmountsOut(10 ** _getDecimals(currencyKey), path); // 1 token -> cUSD\r\n\r\n        return amounts[1];\r\n    }\r\n\r\n    /**\r\n    * @dev Given an input asset amount, returns the maximum output amount of the other asset\r\n    * @notice Assumes numberOfTokens is multiplied by currency's decimals before function call\r\n    * @param numberOfTokens Number of tokens\r\n    * @param currencyKeyIn Address of the asset to be swap from\r\n    * @param currencyKeyOut Address of the asset to be swap to\r\n    * @return uint Amount out of the asset\r\n    */\r\n    function getAmountsOut(uint numberOfTokens, address currencyKeyIn, address currencyKeyOut) public view override returns (uint) {\r\n        address settingsAddress = ADDRESS_RESOLVER.getContractAddress(\"Settings\");\r\n        address ubeswapRouterAddress = ADDRESS_RESOLVER.getContractAddress(\"UbeswapRouter\");\r\n        address stableCoinAddress = ISettings(settingsAddress).getStableCoinAddress();\r\n\r\n        require(currencyKeyIn != address(0), \"Invalid currency key in\");\r\n        require(currencyKeyOut != address(0), \"Invalid currency key out\");\r\n        require(ISettings(settingsAddress).checkIfCurrencyIsAvailable(currencyKeyIn) || currencyKeyIn == stableCoinAddress, \"Currency is not available\");\r\n        require(ISettings(settingsAddress).checkIfCurrencyIsAvailable(currencyKeyOut) || currencyKeyOut == stableCoinAddress, \"Currency is not available\");\r\n        require(numberOfTokens > 0, \"Number of tokens must be greater than 0\");\r\n\r\n        address[] memory path = new address[](2);\r\n        path[0] = currencyKeyIn;\r\n        path[1] = currencyKeyOut;\r\n        uint[] memory amounts = IUniswapV2Router02(ubeswapRouterAddress).getAmountsOut(numberOfTokens, path);\r\n\r\n        return amounts[1];\r\n    }\r\n\r\n    /* ========== RESTRICTED FUNCTIONS ========== */\r\n\r\n    /**\r\n    * @dev Swaps an exact `amountToSwap` of an asset to another; meant to be called from a user pool\r\n    * @notice Pool needs to transfer assetToSwapFrom to BaseUbeswapAdapter before calling this function\r\n    * @param assetToSwapFrom Origin asset\r\n    * @param assetToSwapTo Destination asset\r\n    * @param amountToSwap Exact amount of `assetToSwapFrom` to be swapped\r\n    * @param minAmountOut the min amount of `assetToSwapTo` to be received from the swap\r\n    * @return the number of tokens received\r\n    */\r\n    function swapFromPool(address assetToSwapFrom, address assetToSwapTo, uint amountToSwap, uint minAmountOut) public override returns (uint) {\r\n        require(ADDRESS_RESOLVER.checkIfPoolAddressIsValid(msg.sender), \"Only the pool can call this function\");\r\n\r\n        return _swapExactTokensForTokens(msg.sender, assetToSwapFrom, assetToSwapTo, amountToSwap, minAmountOut);\r\n    }\r\n\r\n    /**\r\n    * @dev Swaps an exact `amountToSwap` of an asset to another; meant to be called from a trading bot\r\n    * @notice Bot needs to transfer assetToSwapFrom to BaseUbeswapAdapter before calling this function\r\n    * @param assetToSwapFrom Origin asset\r\n    * @param assetToSwapTo Destination asset\r\n    * @param amountToSwap Exact amount of `assetToSwapFrom` to be swapped\r\n    * @param minAmountOut the min amount of `assetToSwapTo` to be received from the swap\r\n    * @return the number of tokens received\r\n    */\r\n    function swapFromBot(address assetToSwapFrom, address assetToSwapTo, uint amountToSwap, uint minAmountOut) public override returns (uint) {\r\n        require(ADDRESS_RESOLVER.checkIfTradingBotAddressIsValid(msg.sender), \"Only the trading bot can call this function\");\r\n\r\n        return _swapExactTokensForTokens(msg.sender, assetToSwapFrom, assetToSwapTo, amountToSwap, minAmountOut);\r\n    }\r\n\r\n    /**\r\n    * @dev Adds liquidity for the two given tokens; meant to be called from a pool\r\n    * @param tokenA First token in pair\r\n    * @param tokenB Second token in pair\r\n    * @param amountA Amount of first token\r\n    * @param amountB Amount of second token\r\n    * @return uint The number of tokens LP tokens minted\r\n    */\r\n    function addLiquidity(address tokenA, address tokenB, uint amountA, uint amountB) public override returns (uint) {\r\n        require(ADDRESS_RESOLVER.checkIfPoolAddressIsValid(msg.sender), \"Only the pool can call this function\");\r\n\r\n        return _addLiquidity(msg.sender, tokenA, tokenB, amountA, amountB);\r\n    }\r\n\r\n    /**\r\n    * @dev Removes liquidity for the two given tokens; meant to be called from a pool\r\n    * @param tokenA First token in pair\r\n    * @param tokenB Second token in pair\r\n    * @param numberOfLPTokens Number of LP tokens for the given pair\r\n    * @return (uint, uint) Amount of tokenA and tokenB withdrawn\r\n    */\r\n    function removeLiquidity(address tokenA, address tokenB, uint numberOfLPTokens) public override returns (uint, uint) {\r\n        require(ADDRESS_RESOLVER.checkIfPoolAddressIsValid(msg.sender), \"Only the pool can call this function\");\r\n\r\n        return _removeLiquidity(msg.sender, tokenA, tokenB, numberOfLPTokens);\r\n    }\r\n\r\n    /* ========== INTERNAL FUNCTIONS ========== */\r\n\r\n    /**\r\n    * @dev Swaps an exact `amountToSwap` of an asset to another\r\n    * @notice Assumes amountToSwap is multiplied by currency's decimals before function call\r\n    * @param addressToSwapFrom the pool or bot that is making the swap\r\n    * @param assetToSwapFrom Origin asset\r\n    * @param assetToSwapTo Destination asset\r\n    * @param amountToSwap Exact amount of `assetToSwapFrom` to be swapped\r\n    * @param minAmountOut the min amount of `assetToSwapTo` to be received from the swap\r\n    * @return the amount of tokens received\r\n    */\r\n    function _swapExactTokensForTokens(address addressToSwapFrom, address assetToSwapFrom, address assetToSwapTo, uint amountToSwap, uint minAmountOut) internal returns (uint) {\r\n        uint amountOut = getAmountsOut(amountToSwap, assetToSwapFrom, assetToSwapTo);\r\n        uint expectedMinAmountOut = amountOut.mul(100 - MAX_SLIPPAGE_PERCENT).div(100);\r\n\r\n        require(expectedMinAmountOut < minAmountOut, 'BaseUbeswapAdapter: minAmountOut exceeds max slippage');\r\n\r\n        address ubeswapRouterAddress = ADDRESS_RESOLVER.getContractAddress(\"UbeswapRouter\");\r\n\r\n        // Approves the transfer for the swap. Approves for 0 first to comply with tokens that implement the anti frontrunning approval fix.\r\n        IERC20(assetToSwapFrom).approve(ubeswapRouterAddress, 0);\r\n        IERC20(assetToSwapFrom).approve(ubeswapRouterAddress, amountToSwap);\r\n\r\n        address[] memory path;\r\n        path = new address[](2);\r\n        path[0] = assetToSwapFrom;\r\n        path[1] = assetToSwapTo;\r\n\r\n        uint[] memory amounts = IUniswapV2Router02(ubeswapRouterAddress).swapExactTokensForTokens(amountToSwap, minAmountOut, path, addressToSwapFrom, block.timestamp);\r\n\r\n        emit Swapped(addressToSwapFrom, assetToSwapFrom, assetToSwapTo, amounts[0], amounts[amounts.length - 1], block.timestamp);\r\n\r\n        return amounts[amounts.length - 1];\r\n    }\r\n\r\n    /**\r\n    * @dev Adds liquidity for the two given tokens\r\n    * @param addressToAddFrom Address of the pool\r\n    * @param tokenA First token in pair\r\n    * @param tokenB Second token in pair\r\n    * @param amountA Amount of first token\r\n    * @param amountB Amount of second token\r\n    * @return uint The number of tokens LP tokens minted\r\n    */\r\n    function _addLiquidity(address addressToAddFrom, address tokenA, address tokenB, uint amountA, uint amountB) internal returns (uint) {\r\n        address ubeswapRouterAddress = ADDRESS_RESOLVER.getContractAddress(\"UbeswapRouter\");\r\n\r\n        // Approves the transfer for the swap. Approves for 0 first to comply with tokens that implement the anti frontrunning approval fix.\r\n        IERC20(tokenA).approve(ubeswapRouterAddress, 0);\r\n        IERC20(tokenA).approve(ubeswapRouterAddress, amountA);\r\n\r\n        // Approves the transfer for the swap. Approves for 0 first to comply with tokens that implement the anti frontrunning approval fix.\r\n        IERC20(tokenB).approve(ubeswapRouterAddress, 0);\r\n        IERC20(tokenB).approve(ubeswapRouterAddress, amountB);\r\n\r\n        (,, uint numberOfLPTokens) = IUniswapV2Router02(ubeswapRouterAddress).addLiquidity(tokenA, tokenB, amountA, amountB, 0, 0, addressToAddFrom, block.timestamp.add(10 minutes));\r\n\r\n        emit AddedLiquidity(addressToAddFrom, tokenA, tokenB, amountA, amountB, numberOfLPTokens, block.timestamp);\r\n\r\n        return numberOfLPTokens;\r\n    }\r\n\r\n    /**\r\n    * @dev Removes liquidity for the two given tokens\r\n    * @param addressToRemoveFrom Address of the pool\r\n    * @param tokenA First token in pair\r\n    * @param tokenB Second token in pair\r\n    * @param numberOfLPTokens Number of LP tokens for the given pair\r\n    * @return (uint, uint) Amount of tokenA and tokenB withdrawn\r\n    */\r\n    function _removeLiquidity(address addressToRemoveFrom, address tokenA, address tokenB, uint numberOfLPTokens) internal returns (uint, uint) {\r\n        address ubeswapRouterAddress = ADDRESS_RESOLVER.getContractAddress(\"UbeswapRouter\");\r\n\r\n        (uint amountAReceived, uint amountBReceived) = IUniswapV2Router02(ubeswapRouterAddress).removeLiquidity(tokenA, tokenB, numberOfLPTokens, 0, 0, addressToRemoveFrom, block.timestamp.add(10 minutes));\r\n        emit RemovedLiquidity(addressToRemoveFrom, tokenA, tokenB, amountAReceived, amountBReceived, block.timestamp);\r\n\r\n        return (amountAReceived, amountBReceived);\r\n    }\r\n\r\n    /**\r\n    * @dev Get the decimals of an asset\r\n    * @return number of decimals of the asset\r\n    */\r\n    function _getDecimals(address asset) internal view returns (uint) {\r\n        return IERC20(asset).decimals();\r\n    }\r\n\r\n    /* ========== EVENTS ========== */\r\n\r\n    event Swapped(address addressSwappedFrom, address fromAsset, address toAsset, uint fromAmount, uint receivedAmount, uint timestamp);\r\n    event AddedLiquidity(address addressAddedFrom, address tokenA, address tokenB, uint amountA, uint amountB, uint numberOfLPTokens, uint timestamp);\r\n    event RemovedLiquidity(address addressRemovedFrom, address tokenA, address tokenB, uint amountAReceived, uint amountBReceived, uint timestamp);\r\n}",
  "sourcePath": "C:/Users/xavie/OneDrive/Desktop/TradeGen/Github/tradegen/contracts/BaseUbeswapAdapter.sol",
  "compiler": {
    "name": "solc",
    "version": "0.6.12+commit.27d51765.Emscripten.clang"
  },
  "schemaVersion": "3.4.1",
  "updatedAt": "2021-08-08T23:26:39.365Z",
  "devdoc": {
    "kind": "dev",
    "methods": {
      "addLiquidity(address,address,uint256,uint256)": {
        "details": "Adds liquidity for the two given tokens; meant to be called from a pool",
        "params": {
          "amountA": "Amount of first token",
          "amountB": "Amount of second token",
          "tokenA": "First token in pair",
          "tokenB": "Second token in pair"
        },
        "returns": {
          "_0": "uint The number of tokens LP tokens minted"
        }
      },
      "getAmountsOut(uint256,address,address)": {
        "details": "Given an input asset amount, returns the maximum output amount of the other asset",
        "params": {
          "currencyKeyIn": "Address of the asset to be swap from",
          "currencyKeyOut": "Address of the asset to be swap to",
          "numberOfTokens": "Number of tokens"
        },
        "returns": {
          "_0": "uint Amount out of the asset"
        }
      },
      "getPrice(address)": {
        "details": "Given an input asset address, returns the price of the asset in cUSD",
        "params": {
          "currencyKey": "Address of the asset"
        },
        "returns": {
          "_0": "uint Price of the asset"
        }
      },
      "removeLiquidity(address,address,uint256)": {
        "details": "Removes liquidity for the two given tokens; meant to be called from a pool",
        "params": {
          "numberOfLPTokens": "Number of LP tokens for the given pair",
          "tokenA": "First token in pair",
          "tokenB": "Second token in pair"
        },
        "returns": {
          "_0": "(uint, uint) Amount of tokenA and tokenB withdrawn"
        }
      },
      "swapFromBot(address,address,uint256,uint256)": {
        "details": "Swaps an exact `amountToSwap` of an asset to another; meant to be called from a trading bot",
        "params": {
          "amountToSwap": "Exact amount of `assetToSwapFrom` to be swapped",
          "assetToSwapFrom": "Origin asset",
          "assetToSwapTo": "Destination asset",
          "minAmountOut": "the min amount of `assetToSwapTo` to be received from the swap"
        },
        "returns": {
          "_0": "the number of tokens received"
        }
      },
      "swapFromPool(address,address,uint256,uint256)": {
        "details": "Swaps an exact `amountToSwap` of an asset to another; meant to be called from a user pool",
        "params": {
          "amountToSwap": "Exact amount of `assetToSwapFrom` to be swapped",
          "assetToSwapFrom": "Origin asset",
          "assetToSwapTo": "Destination asset",
          "minAmountOut": "the min amount of `assetToSwapTo` to be received from the swap"
        },
        "returns": {
          "_0": "the number of tokens received"
        }
      }
    },
    "version": 1
  },
  "userdoc": {
    "kind": "user",
    "methods": {
      "getAmountsOut(uint256,address,address)": {
        "notice": "Assumes numberOfTokens is multiplied by currency's decimals before function call"
      },
      "swapFromBot(address,address,uint256,uint256)": {
        "notice": "Bot needs to transfer assetToSwapFrom to BaseUbeswapAdapter before calling this function"
      },
      "swapFromPool(address,address,uint256,uint256)": {
        "notice": "Pool needs to transfer assetToSwapFrom to BaseUbeswapAdapter before calling this function"
      }
    },
    "version": 1
  }
}