{
  "contractName": "BaseUbeswapAdapter",
  "abi": [
    {
      "inputs": [
        {
          "internalType": "contract IAddressResolver",
          "name": "addressResolver",
          "type": "address"
        }
      ],
      "stateMutability": "nonpayable",
      "type": "constructor"
    },
    {
      "inputs": [],
      "name": "ADDRESS_RESOLVER",
      "outputs": [
        {
          "internalType": "contract IAddressResolver",
          "name": "",
          "type": "address"
        }
      ],
      "stateMutability": "view",
      "type": "function"
    },
    {
      "inputs": [],
      "name": "MAX_SLIPPAGE_PERCENT",
      "outputs": [
        {
          "internalType": "uint256",
          "name": "",
          "type": "uint256"
        }
      ],
      "stateMutability": "view",
      "type": "function"
    },
    {
      "inputs": [
        {
          "internalType": "address",
          "name": "currencyKey",
          "type": "address"
        }
      ],
      "name": "getPrice",
      "outputs": [
        {
          "internalType": "uint256",
          "name": "",
          "type": "uint256"
        }
      ],
      "stateMutability": "view",
      "type": "function"
    },
    {
      "inputs": [
        {
          "internalType": "uint256",
          "name": "numberOfTokens",
          "type": "uint256"
        },
        {
          "internalType": "address",
          "name": "currencyKeyIn",
          "type": "address"
        },
        {
          "internalType": "address",
          "name": "currencyKeyOut",
          "type": "address"
        }
      ],
      "name": "getAmountsOut",
      "outputs": [
        {
          "internalType": "uint256",
          "name": "",
          "type": "uint256"
        }
      ],
      "stateMutability": "view",
      "type": "function"
    },
    {
      "inputs": [
        {
          "internalType": "uint256",
          "name": "numberOfTokens",
          "type": "uint256"
        },
        {
          "internalType": "address",
          "name": "currencyKeyIn",
          "type": "address"
        },
        {
          "internalType": "address",
          "name": "currencyKeyOut",
          "type": "address"
        }
      ],
      "name": "getAmountsIn",
      "outputs": [
        {
          "internalType": "uint256",
          "name": "",
          "type": "uint256"
        }
      ],
      "stateMutability": "view",
      "type": "function"
    },
    {
      "inputs": [],
      "name": "getAvailableUbeswapFarms",
      "outputs": [
        {
          "internalType": "address[]",
          "name": "",
          "type": "address[]"
        }
      ],
      "stateMutability": "view",
      "type": "function"
    },
    {
      "inputs": [
        {
          "internalType": "address",
          "name": "farmAddress",
          "type": "address"
        }
      ],
      "name": "checkIfFarmExists",
      "outputs": [
        {
          "internalType": "address",
          "name": "",
          "type": "address"
        }
      ],
      "stateMutability": "view",
      "type": "function"
    },
    {
      "inputs": [
        {
          "internalType": "address",
          "name": "tokenA",
          "type": "address"
        },
        {
          "internalType": "address",
          "name": "tokenB",
          "type": "address"
        }
      ],
      "name": "getPair",
      "outputs": [
        {
          "internalType": "address",
          "name": "",
          "type": "address"
        }
      ],
      "stateMutability": "view",
      "type": "function"
    },
    {
      "inputs": [
        {
          "internalType": "address",
          "name": "poolAddress",
          "type": "address"
        },
        {
          "internalType": "address",
          "name": "farmAddress",
          "type": "address"
        }
      ],
      "name": "getAvailableRewards",
      "outputs": [
        {
          "internalType": "uint256",
          "name": "",
          "type": "uint256"
        }
      ],
      "stateMutability": "view",
      "type": "function"
    },
    {
      "inputs": [
        {
          "internalType": "address",
          "name": "tokenA",
          "type": "address"
        },
        {
          "internalType": "address",
          "name": "tokenB",
          "type": "address"
        },
        {
          "internalType": "uint256",
          "name": "numberOfLPTokens",
          "type": "uint256"
        }
      ],
      "name": "getTokenAmountsFromPair",
      "outputs": [
        {
          "internalType": "uint256",
          "name": "",
          "type": "uint256"
        },
        {
          "internalType": "uint256",
          "name": "",
          "type": "uint256"
        }
      ],
      "stateMutability": "view",
      "type": "function"
    }
  ],
  "bytecode": "0x60a060405234801561001057600080fd5b50604051612b5e380380612b5e8339818101604052602081101561003357600080fd5b81019080805190602001909291905050508073ffffffffffffffffffffffffffffffffffffffff1660808173ffffffffffffffffffffffffffffffffffffffff1660601b815250505060805160601c612a9d6100c16000398061067452806107555280610e455280610e6c5280610f4d528061171f528061180052806122a152806126535250612a9d6000f3fe608060405234801561001057600080fd5b506004361061009d5760003560e01c8063baf7fa9911610066578063baf7fa9914610232578063cdf58cd6146102b4578063d87fc14914610336578063e1f6e5bb146103bf578063e6a439051461041e5761009d565b80629e78be146100a257806332e4b2861461011a57806341976e091461013857806381ef421f14610190578063981f3b8e146101fe575b600080fd5b610104600480360360408110156100b857600080fd5b81019080803573ffffffffffffffffffffffffffffffffffffffff169060200190929190803573ffffffffffffffffffffffffffffffffffffffff1690602001909291905050506104ac565b6040518082815260200191505060405180910390f35b61012261066a565b6040518082815260200191505060405180910390f35b61017a6004803603602081101561014e57600080fd5b81019080803573ffffffffffffffffffffffffffffffffffffffff16906020019092919050505061066f565b6040518082815260200191505060405180910390f35b6101d2600480360360208110156101a657600080fd5b81019080803573ffffffffffffffffffffffffffffffffffffffff169060200190929190505050610d17565b604051808273ffffffffffffffffffffffffffffffffffffffff16815260200191505060405180910390f35b610206610e43565b604051808273ffffffffffffffffffffffffffffffffffffffff16815260200191505060405180910390f35b61029e6004803603606081101561024857600080fd5b8101908080359060200190929190803573ffffffffffffffffffffffffffffffffffffffff169060200190929190803573ffffffffffffffffffffffffffffffffffffffff169060200190929190505050610e67565b6040518082815260200191505060405180910390f35b610320600480360360608110156102ca57600080fd5b8101908080359060200190929190803573ffffffffffffffffffffffffffffffffffffffff169060200190929190803573ffffffffffffffffffffffffffffffffffffffff16906020019092919050505061171a565b6040518082815260200191505060405180910390f35b6103a26004803603606081101561034c57600080fd5b81019080803573ffffffffffffffffffffffffffffffffffffffff169060200190929190803573ffffffffffffffffffffffffffffffffffffffff16906020019092919080359060200190929190505050611fcd565b604051808381526020018281526020019250505060405180910390f35b6103c761229b565b6040518080602001828103825283818151815260200191508051906020019060200280838360005b8381101561040a5780820151818401526020810190506103ef565b505050509050019250505060405180910390f35b6104806004803603604081101561043457600080fd5b81019080803573ffffffffffffffffffffffffffffffffffffffff169060200190929190803573ffffffffffffffffffffffffffffffffffffffff169060200190929190505050612542565b604051808273ffffffffffffffffffffffffffffffffffffffff16815260200191505060405180910390f35b60008073ffffffffffffffffffffffffffffffffffffffff168373ffffffffffffffffffffffffffffffffffffffff161415610533576040517f08c379a00000000000000000000000000000000000000000000000000000000081526004018080602001828103825260288152602001806129326028913960400191505060405180910390fd5b600073ffffffffffffffffffffffffffffffffffffffff1661055483610d17565b73ffffffffffffffffffffffffffffffffffffffff1614156105c1576040517f08c379a000000000000000000000000000000000000000000000000000000000815260040180806020018281038252602881526020018061295a6028913960400191505060405180910390fd5b8173ffffffffffffffffffffffffffffffffffffffff16628cc262846040518263ffffffff1660e01b8152600401808273ffffffffffffffffffffffffffffffffffffffff16815260200191505060206040518083038186803b15801561062757600080fd5b505afa15801561063b573d6000803e3d6000fd5b505050506040513d602081101561065157600080fd5b8101908080519060200190929190505050905092915050565b600a81565b6000807f000000000000000000000000000000000000000000000000000000000000000073ffffffffffffffffffffffffffffffffffffffff166304433bbc6040518163ffffffff1660e01b815260040180806020018281038252600c8152602001807f417373657448616e646c6572000000000000000000000000000000000000000081525060200191505060206040518083038186803b15801561071457600080fd5b505afa158015610728573d6000803e3d6000fd5b505050506040513d602081101561073e57600080fd5b8101908080519060200190929190505050905060007f000000000000000000000000000000000000000000000000000000000000000073ffffffffffffffffffffffffffffffffffffffff166304433bbc6040518163ffffffff1660e01b815260040180806020018281038252600d8152602001807f55626573776170526f757465720000000000000000000000000000000000000081525060200191505060206040518083038186803b1580156107f557600080fd5b505afa158015610809573d6000803e3d6000fd5b505050506040513d602081101561081f57600080fd5b8101908080519060200190929190505050905060008273ffffffffffffffffffffffffffffffffffffffff1663be781b1c6040518163ffffffff1660e01b815260040160206040518083038186803b15801561087a57600080fd5b505afa15801561088e573d6000803e3d6000fd5b505050506040513d60208110156108a457600080fd5b810190808051906020019092919050505090508073ffffffffffffffffffffffffffffffffffffffff168573ffffffffffffffffffffffffffffffffffffffff161415610901576108f4856127f9565b600a0a9350505050610d12565b600073ffffffffffffffffffffffffffffffffffffffff168573ffffffffffffffffffffffffffffffffffffffff1614156109a4576040517f08c379a00000000000000000000000000000000000000000000000000000000081526004018080602001828103825260148152602001807f496e76616c69642063757272656e6379206b657900000000000000000000000081525060200191505060405180910390fd5b8273ffffffffffffffffffffffffffffffffffffffff1663cc435bf3866040518263ffffffff1660e01b8152600401808273ffffffffffffffffffffffffffffffffffffffff16815260200191505060206040518083038186803b158015610a0b57600080fd5b505afa158015610a1f573d6000803e3d6000fd5b505050506040513d6020811015610a3557600080fd5b8101908080519060200190929190505050610a9b576040517f08c379a000000000000000000000000000000000000000000000000000000000815260040180806020018281038252602d8152602001806128d7602d913960400191505060405180910390fd5b6000600267ffffffffffffffff81118015610ab557600080fd5b50604051908082528060200260200182016040528015610ae45781602001602082028036833780820191505090505b5090508581600081518110610af557fe5b602002602001019073ffffffffffffffffffffffffffffffffffffffff16908173ffffffffffffffffffffffffffffffffffffffff16815250508181600181518110610b3d57fe5b602002602001019073ffffffffffffffffffffffffffffffffffffffff16908173ffffffffffffffffffffffffffffffffffffffff168152505060008373ffffffffffffffffffffffffffffffffffffffff1663d06ca61f610b9e896127f9565b600a0a846040518363ffffffff1660e01b81526004018083815260200180602001828103825283818151815260200191508051906020019060200280838360005b83811015610bfa578082015181840152602081019050610bdf565b50505050905001935050505060006040518083038186803b158015610c1e57600080fd5b505afa158015610c32573d6000803e3d6000fd5b505050506040513d6000823e3d601f19601f820116820180604052506020811015610c5c57600080fd5b8101908080516040519392919084640100000000821115610c7c57600080fd5b83820191506020820185811115610c9257600080fd5b8251866020820283011164010000000082111715610caf57600080fd5b8083526020830192505050908051906020019060200280838360005b83811015610ce6578082015181840152602081019050610ccb565b50505050905001604052505050905080600181518110610d0257fe5b6020026020010151955050505050505b919050565b60008073ffffffffffffffffffffffffffffffffffffffff168273ffffffffffffffffffffffffffffffffffffffff161415610dbb576040517f08c379a00000000000000000000000000000000000000000000000000000000081526004018080602001828103825260148152602001807f496e76616c6964206661726d206164647265737300000000000000000000000081525060200191505060405180910390fd5b8173ffffffffffffffffffffffffffffffffffffffff166372f702f36040518163ffffffff1660e01b815260040160206040518083038186803b158015610e0157600080fd5b505afa158015610e15573d6000803e3d6000fd5b505050506040513d6020811015610e2b57600080fd5b81019080805190602001909291905050509050919050565b7f000000000000000000000000000000000000000000000000000000000000000081565b6000807f000000000000000000000000000000000000000000000000000000000000000073ffffffffffffffffffffffffffffffffffffffff166304433bbc6040518163ffffffff1660e01b815260040180806020018281038252600c8152602001807f417373657448616e646c6572000000000000000000000000000000000000000081525060200191505060206040518083038186803b158015610f0c57600080fd5b505afa158015610f20573d6000803e3d6000fd5b505050506040513d6020811015610f3657600080fd5b8101908080519060200190929190505050905060007f000000000000000000000000000000000000000000000000000000000000000073ffffffffffffffffffffffffffffffffffffffff166304433bbc6040518163ffffffff1660e01b815260040180806020018281038252600d8152602001807f55626573776170526f757465720000000000000000000000000000000000000081525060200191505060206040518083038186803b158015610fed57600080fd5b505afa158015611001573d6000803e3d6000fd5b505050506040513d602081101561101757600080fd5b8101908080519060200190929190505050905060008273ffffffffffffffffffffffffffffffffffffffff1663be781b1c6040518163ffffffff1660e01b815260040160206040518083038186803b15801561107257600080fd5b505afa158015611086573d6000803e3d6000fd5b505050506040513d602081101561109c57600080fd5b81019080805190602001909291905050509050600073ffffffffffffffffffffffffffffffffffffffff168673ffffffffffffffffffffffffffffffffffffffff161415611152576040517f08c379a00000000000000000000000000000000000000000000000000000000081526004018080602001828103825260178152602001807f496e76616c69642063757272656e6379206b657920696e00000000000000000081525060200191505060405180910390fd5b600073ffffffffffffffffffffffffffffffffffffffff168573ffffffffffffffffffffffffffffffffffffffff1614156111f5576040517f08c379a00000000000000000000000000000000000000000000000000000000081526004018080602001828103825260188152602001807f496e76616c69642063757272656e6379206b6579206f7574000000000000000081525060200191505060405180910390fd5b8273ffffffffffffffffffffffffffffffffffffffff1663cc435bf3876040518263ffffffff1660e01b8152600401808273ffffffffffffffffffffffffffffffffffffffff16815260200191505060206040518083038186803b15801561125c57600080fd5b505afa158015611270573d6000803e3d6000fd5b505050506040513d602081101561128657600080fd5b8101908080519060200190929190505050806112cd57508073ffffffffffffffffffffffffffffffffffffffff168673ffffffffffffffffffffffffffffffffffffffff16145b611322576040517f08c379a0000000000000000000000000000000000000000000000000000000008152600401808060200182810382526032815260200180612a0a6032913960400191505060405180910390fd5b8273ffffffffffffffffffffffffffffffffffffffff1663cc435bf3866040518263ffffffff1660e01b8152600401808273ffffffffffffffffffffffffffffffffffffffff16815260200191505060206040518083038186803b15801561138957600080fd5b505afa15801561139d573d6000803e3d6000fd5b505050506040513d60208110156113b357600080fd5b8101908080519060200190929190505050806113fa57508073ffffffffffffffffffffffffffffffffffffffff168573ffffffffffffffffffffffffffffffffffffffff16145b61144f576040517f08c379a00000000000000000000000000000000000000000000000000000000081526004018080602001828103825260338152602001806129826033913960400191505060405180910390fd5b600087116114a8576040517f08c379a00000000000000000000000000000000000000000000000000000000081526004018080602001828103825260278152602001806129b56027913960400191505060405180910390fd5b6000600267ffffffffffffffff811180156114c257600080fd5b506040519080825280602002602001820160405280156114f15781602001602082028036833780820191505090505b509050868160008151811061150257fe5b602002602001019073ffffffffffffffffffffffffffffffffffffffff16908173ffffffffffffffffffffffffffffffffffffffff1681525050858160018151811061154a57fe5b602002602001019073ffffffffffffffffffffffffffffffffffffffff16908173ffffffffffffffffffffffffffffffffffffffff168152505060008373ffffffffffffffffffffffffffffffffffffffff1663d06ca61f8a846040518363ffffffff1660e01b81526004018083815260200180602001828103825283818151815260200191508051906020019060200280838360005b838110156115fc5780820151818401526020810190506115e1565b50505050905001935050505060006040518083038186803b15801561162057600080fd5b505afa158015611634573d6000803e3d6000fd5b505050506040513d6000823e3d601f19601f82011682018060405250602081101561165e57600080fd5b810190808051604051939291908464010000000082111561167e57600080fd5b8382019150602082018581111561169457600080fd5b82518660208202830111640100000000821117156116b157600080fd5b8083526020830192505050908051906020019060200280838360005b838110156116e85780820151818401526020810190506116cd565b5050505090500160405250505090508060018151811061170457fe5b6020026020010151955050505050509392505050565b6000807f000000000000000000000000000000000000000000000000000000000000000073ffffffffffffffffffffffffffffffffffffffff166304433bbc6040518163ffffffff1660e01b815260040180806020018281038252600c8152602001807f417373657448616e646c6572000000000000000000000000000000000000000081525060200191505060206040518083038186803b1580156117bf57600080fd5b505afa1580156117d3573d6000803e3d6000fd5b505050506040513d60208110156117e957600080fd5b8101908080519060200190929190505050905060007f000000000000000000000000000000000000000000000000000000000000000073ffffffffffffffffffffffffffffffffffffffff166304433bbc6040518163ffffffff1660e01b815260040180806020018281038252600d8152602001807f55626573776170526f757465720000000000000000000000000000000000000081525060200191505060206040518083038186803b1580156118a057600080fd5b505afa1580156118b4573d6000803e3d6000fd5b505050506040513d60208110156118ca57600080fd5b8101908080519060200190929190505050905060008273ffffffffffffffffffffffffffffffffffffffff1663be781b1c6040518163ffffffff1660e01b815260040160206040518083038186803b15801561192557600080fd5b505afa158015611939573d6000803e3d6000fd5b505050506040513d602081101561194f57600080fd5b81019080805190602001909291905050509050600073ffffffffffffffffffffffffffffffffffffffff168673ffffffffffffffffffffffffffffffffffffffff161415611a05576040517f08c379a00000000000000000000000000000000000000000000000000000000081526004018080602001828103825260178152602001807f496e76616c69642063757272656e6379206b657920696e00000000000000000081525060200191505060405180910390fd5b600073ffffffffffffffffffffffffffffffffffffffff168573ffffffffffffffffffffffffffffffffffffffff161415611aa8576040517f08c379a00000000000000000000000000000000000000000000000000000000081526004018080602001828103825260188152602001807f496e76616c69642063757272656e6379206b6579206f7574000000000000000081525060200191505060405180910390fd5b8273ffffffffffffffffffffffffffffffffffffffff1663cc435bf3876040518263ffffffff1660e01b8152600401808273ffffffffffffffffffffffffffffffffffffffff16815260200191505060206040518083038186803b158015611b0f57600080fd5b505afa158015611b23573d6000803e3d6000fd5b505050506040513d6020811015611b3957600080fd5b810190808051906020019092919050505080611b8057508073ffffffffffffffffffffffffffffffffffffffff168673ffffffffffffffffffffffffffffffffffffffff16145b611bd5576040517f08c379a0000000000000000000000000000000000000000000000000000000008152600401808060200182810382526032815260200180612a0a6032913960400191505060405180910390fd5b8273ffffffffffffffffffffffffffffffffffffffff1663cc435bf3866040518263ffffffff1660e01b8152600401808273ffffffffffffffffffffffffffffffffffffffff16815260200191505060206040518083038186803b158015611c3c57600080fd5b505afa158015611c50573d6000803e3d6000fd5b505050506040513d6020811015611c6657600080fd5b810190808051906020019092919050505080611cad57508073ffffffffffffffffffffffffffffffffffffffff168573ffffffffffffffffffffffffffffffffffffffff16145b611d02576040517f08c379a00000000000000000000000000000000000000000000000000000000081526004018080602001828103825260338152602001806129826033913960400191505060405180910390fd5b60008711611d5b576040517f08c379a00000000000000000000000000000000000000000000000000000000081526004018080602001828103825260278152602001806129b56027913960400191505060405180910390fd5b6000600267ffffffffffffffff81118015611d7557600080fd5b50604051908082528060200260200182016040528015611da45781602001602082028036833780820191505090505b5090508681600081518110611db557fe5b602002602001019073ffffffffffffffffffffffffffffffffffffffff16908173ffffffffffffffffffffffffffffffffffffffff16815250508581600181518110611dfd57fe5b602002602001019073ffffffffffffffffffffffffffffffffffffffff16908173ffffffffffffffffffffffffffffffffffffffff168152505060008373ffffffffffffffffffffffffffffffffffffffff16631f00ca748a846040518363ffffffff1660e01b81526004018083815260200180602001828103825283818151815260200191508051906020019060200280838360005b83811015611eaf578082015181840152602081019050611e94565b50505050905001935050505060006040518083038186803b158015611ed357600080fd5b505afa158015611ee7573d6000803e3d6000fd5b505050506040513d6000823e3d601f19601f820116820180604052506020811015611f1157600080fd5b8101908080516040519392919084640100000000821115611f3157600080fd5b83820191506020820185811115611f4757600080fd5b8251866020820283011164010000000082111715611f6457600080fd5b8083526020830192505050908051906020019060200280838360005b83811015611f9b578082015181840152602081019050611f80565b50505050905001604052505050905080600181518110611fb757fe5b6020026020010151955050505050509392505050565b6000806000611fdc8686612542565b9050600073ffffffffffffffffffffffffffffffffffffffff168173ffffffffffffffffffffffffffffffffffffffff161415612064576040517f08c379a000000000000000000000000000000000000000000000000000000000815260040180806020018281038252602c815260200180612a3c602c913960400191505060405180910390fd5b60008673ffffffffffffffffffffffffffffffffffffffff166370a08231836040518263ffffffff1660e01b8152600401808273ffffffffffffffffffffffffffffffffffffffff16815260200191505060206040518083038186803b1580156120cd57600080fd5b505afa1580156120e1573d6000803e3d6000fd5b505050506040513d60208110156120f757600080fd5b8101908080519060200190929190505050905060008673ffffffffffffffffffffffffffffffffffffffff166370a08231846040518263ffffffff1660e01b8152600401808273ffffffffffffffffffffffffffffffffffffffff16815260200191505060206040518083038186803b15801561217357600080fd5b505afa158015612187573d6000803e3d6000fd5b505050506040513d602081101561219d57600080fd5b8101908080519060200190929190505050905060008373ffffffffffffffffffffffffffffffffffffffff166318160ddd6040518163ffffffff1660e01b815260040160206040518083038186803b1580156121f857600080fd5b505afa15801561220c573d6000803e3d6000fd5b505050506040513d602081101561222257600080fd5b81019080805190602001909291905050509050600061225c8261224e8a8761288690919063ffffffff16565b6128bd90919063ffffffff16565b90506000612285836122778b8761288690919063ffffffff16565b6128bd90919063ffffffff16565b9050818197509750505050505050935093915050565b606060007f000000000000000000000000000000000000000000000000000000000000000073ffffffffffffffffffffffffffffffffffffffff166304433bbc6040518163ffffffff1660e01b81526004018080602001828103825260128152602001807f55626573776170506f6f6c4d616e61676572000000000000000000000000000081525060200191505060206040518083038186803b15801561234157600080fd5b505afa158015612355573d6000803e3d6000fd5b505050506040513d602081101561236b57600080fd5b8101908080519060200190929190505050905060008173ffffffffffffffffffffffffffffffffffffffff16638c788de06040518163ffffffff1660e01b815260040160206040518083038186803b1580156123c657600080fd5b505afa1580156123da573d6000803e3d6000fd5b505050506040513d60208110156123f057600080fd5b8101908080519060200190929190505050905060008167ffffffffffffffff8111801561241c57600080fd5b5060405190808252806020026020018201604052801561244b5781602001602082028036833780820191505090505b50905060005b82811015612538578373ffffffffffffffffffffffffffffffffffffffff16634a4ca369826040518263ffffffff1660e01b81526004018082815260200191505060206040518083038186803b1580156124aa57600080fd5b505afa1580156124be573d6000803e3d6000fd5b505050506040513d60208110156124d457600080fd5b81019080805190602001909291905050508282815181106124f157fe5b602002602001019073ffffffffffffffffffffffffffffffffffffffff16908173ffffffffffffffffffffffffffffffffffffffff16815250508080600101915050612451565b5080935050505090565b60008073ffffffffffffffffffffffffffffffffffffffff168373ffffffffffffffffffffffffffffffffffffffff1614156125c9576040517f08c379a000000000000000000000000000000000000000000000000000000000815260040180806020018281038252602e815260200180612904602e913960400191505060405180910390fd5b600073ffffffffffffffffffffffffffffffffffffffff168273ffffffffffffffffffffffffffffffffffffffff16141561264f576040517f08c379a000000000000000000000000000000000000000000000000000000000815260040180806020018281038252602e8152602001806129dc602e913960400191505060405180910390fd5b60007f000000000000000000000000000000000000000000000000000000000000000073ffffffffffffffffffffffffffffffffffffffff166304433bbc6040518163ffffffff1660e01b81526004018080602001828103825260108152602001807f556e69737761705632466163746f72790000000000000000000000000000000081525060200191505060206040518083038186803b1580156126f357600080fd5b505afa158015612707573d6000803e3d6000fd5b505050506040513d602081101561271d57600080fd5b810190808051906020019092919050505090508073ffffffffffffffffffffffffffffffffffffffff1663e6a4390585856040518363ffffffff1660e01b8152600401808373ffffffffffffffffffffffffffffffffffffffff1681526020018273ffffffffffffffffffffffffffffffffffffffff1681526020019250505060206040518083038186803b1580156127b557600080fd5b505afa1580156127c9573d6000803e3d6000fd5b505050506040513d60208110156127df57600080fd5b810190808051906020019092919050505091505092915050565b60008173ffffffffffffffffffffffffffffffffffffffff1663313ce5676040518163ffffffff1660e01b815260040160206040518083038186803b15801561284157600080fd5b505afa158015612855573d6000803e3d6000fd5b505050506040513d602081101561286b57600080fd5b810190808051906020019092919050505060ff169050919050565b60008083141561289957600090506128b7565b60008284029050828482816128aa57fe5b04146128b257fe5b809150505b92915050565b6000808284816128c957fe5b049050809150509291505056fe4261736555626573776170416461707465723a2043757272656e6379206973206e6f7420617661696c61626c654261736555626573776170416461707465723a20696e76616c6964206164647265737320666f7220746f6b656e414261736555626573776170416461707465723a20696e76616c696420706f6f6c20616464726573734261736555626573776170416461707465723a20696e76616c6964206661726d20616464726573734261736555626573776170416461707465723a2043757272656e63794b65794f7574206973206e6f7420617661696c61626c654e756d626572206f6620746f6b656e73206d7573742062652067726561746572207468616e20304261736555626573776170416461707465723a20696e76616c6964206164647265737320666f7220746f6b656e424261736555626573776170416461707465723a2043757272656e63794b6579496e206973206e6f7420617661696c61626c654261736555626573776170416461707465723a20696e76616c6964206164647265737320666f722070616972a2646970667358221220dc59f12d6d48a26fe7e216313cafc04eb2ce75c5b37aff69d09edafe8d9ca53d64736f6c63430007060033",
  "immutableReferences": {
    "756": [
      {
        "length": 32,
        "start": 1652
      },
      {
        "length": 32,
        "start": 1877
      },
      {
        "length": 32,
        "start": 3653
      },
      {
        "length": 32,
        "start": 3692
      },
      {
        "length": 32,
        "start": 3917
      },
      {
        "length": 32,
        "start": 5919
      },
      {
        "length": 32,
        "start": 6144
      },
      {
        "length": 32,
        "start": 8865
      },
      {
        "length": 32,
        "start": 9811
      }
    ]
  },
  "source": "// SPDX-License-Identifier: MIT\r\n\r\npragma solidity >=0.7.6;\r\n\r\n//Interfaces\r\nimport './interfaces/Ubeswap/IUniswapV2Router02.sol';\r\nimport './interfaces/IERC20.sol';\r\nimport './interfaces/IAssetHandler.sol';\r\nimport './interfaces/IAddressResolver.sol';\r\nimport './interfaces/Ubeswap/IUbeswapPoolManager.sol';\r\nimport './interfaces/Ubeswap/IStakingRewards.sol';\r\nimport './interfaces/Ubeswap/IUniswapV2Factory.sol';\r\n\r\n//Inheritance\r\nimport './interfaces/IBaseUbeswapAdapter.sol';\r\n\r\n//Libraries\r\nimport './libraries/SafeMath.sol';\r\n\r\ncontract BaseUbeswapAdapter is IBaseUbeswapAdapter {\r\n    using SafeMath for uint;\r\n\r\n    // Max slippage percent allowed\r\n    uint public constant override MAX_SLIPPAGE_PERCENT = 10; //10% slippage\r\n\r\n    IAddressResolver public immutable ADDRESS_RESOLVER;\r\n\r\n    constructor(IAddressResolver addressResolver) {\r\n        ADDRESS_RESOLVER = addressResolver;\r\n    }\r\n\r\n    /* ========== VIEWS ========== */\r\n\r\n    /**\r\n    * @dev Given an input asset address, returns the price of the asset in cUSD\r\n    * @param currencyKey Address of the asset\r\n    * @return uint Price of the asset\r\n    */\r\n    function getPrice(address currencyKey) public view override returns(uint) {\r\n        address assetHandlerAddress = ADDRESS_RESOLVER.getContractAddress(\"AssetHandler\");\r\n        address ubeswapRouterAddress = ADDRESS_RESOLVER.getContractAddress(\"UbeswapRouter\");\r\n        address stableCoinAddress = IAssetHandler(assetHandlerAddress).getStableCoinAddress();\r\n\r\n        //Check if currency key is cUSD\r\n        if (currencyKey == stableCoinAddress)\r\n        {\r\n            return 10 ** _getDecimals(currencyKey);\r\n        }\r\n\r\n        require(currencyKey != address(0), \"Invalid currency key\");\r\n        require(IAssetHandler(assetHandlerAddress).isValidAsset(currencyKey), \"BaseUbeswapAdapter: Currency is not available\");\r\n\r\n        address[] memory path = new address[](2);\r\n        path[0] = currencyKey;\r\n        path[1] = stableCoinAddress;\r\n\r\n        uint[] memory amounts = IUniswapV2Router02(ubeswapRouterAddress).getAmountsOut(10 ** _getDecimals(currencyKey), path); // 1 token -> cUSD\r\n\r\n        return amounts[1];\r\n    }\r\n\r\n    /**\r\n    * @dev Given an input asset amount, returns the maximum output amount of the other asset\r\n    * @notice Assumes numberOfTokens is multiplied by currency's decimals before function call\r\n    * @param numberOfTokens Number of tokens\r\n    * @param currencyKeyIn Address of the asset to be swap from\r\n    * @param currencyKeyOut Address of the asset to be swap to\r\n    * @return uint Amount out of the asset\r\n    */\r\n    function getAmountsOut(uint numberOfTokens, address currencyKeyIn, address currencyKeyOut) public view override returns (uint) {\r\n        address assetHandlerAddress = ADDRESS_RESOLVER.getContractAddress(\"AssetHandler\");\r\n        address ubeswapRouterAddress = ADDRESS_RESOLVER.getContractAddress(\"UbeswapRouter\");\r\n        address stableCoinAddress = IAssetHandler(assetHandlerAddress).getStableCoinAddress();\r\n\r\n        require(currencyKeyIn != address(0), \"Invalid currency key in\");\r\n        require(currencyKeyOut != address(0), \"Invalid currency key out\");\r\n        require(IAssetHandler(assetHandlerAddress).isValidAsset(currencyKeyIn) || currencyKeyIn == stableCoinAddress, \"BaseUbeswapAdapter: CurrencyKeyIn is not available\");\r\n        require(IAssetHandler(assetHandlerAddress).isValidAsset(currencyKeyOut) || currencyKeyOut == stableCoinAddress, \"BaseUbeswapAdapter: CurrencyKeyOut is not available\");\r\n        require(numberOfTokens > 0, \"Number of tokens must be greater than 0\");\r\n\r\n        address[] memory path = new address[](2);\r\n        path[0] = currencyKeyIn;\r\n        path[1] = currencyKeyOut;\r\n        uint[] memory amounts = IUniswapV2Router02(ubeswapRouterAddress).getAmountsOut(numberOfTokens, path);\r\n\r\n        return amounts[1];\r\n    }\r\n\r\n    /**\r\n    * @dev Given the target output asset amount, returns the amount of input asset needed\r\n    * @param numberOfTokens Target amount of output asset\r\n    * @param currencyKeyIn Address of the asset to be swap from\r\n    * @param currencyKeyOut Address of the asset to be swap to\r\n    * @return uint Amount out input asset needed\r\n    */\r\n    function getAmountsIn(uint numberOfTokens, address currencyKeyIn, address currencyKeyOut) public view override returns (uint) {\r\n        address assetHandlerAddress = ADDRESS_RESOLVER.getContractAddress(\"AssetHandler\");\r\n        address ubeswapRouterAddress = ADDRESS_RESOLVER.getContractAddress(\"UbeswapRouter\");\r\n        address stableCoinAddress = IAssetHandler(assetHandlerAddress).getStableCoinAddress();\r\n\r\n        require(currencyKeyIn != address(0), \"Invalid currency key in\");\r\n        require(currencyKeyOut != address(0), \"Invalid currency key out\");\r\n        require(IAssetHandler(assetHandlerAddress).isValidAsset(currencyKeyIn) || currencyKeyIn == stableCoinAddress, \"BaseUbeswapAdapter: CurrencyKeyIn is not available\");\r\n        require(IAssetHandler(assetHandlerAddress).isValidAsset(currencyKeyOut) || currencyKeyOut == stableCoinAddress, \"BaseUbeswapAdapter: CurrencyKeyOut is not available\");\r\n        require(numberOfTokens > 0, \"Number of tokens must be greater than 0\");\r\n\r\n        address[] memory path = new address[](2);\r\n        path[0] = currencyKeyIn;\r\n        path[1] = currencyKeyOut;\r\n        uint[] memory amounts = IUniswapV2Router02(ubeswapRouterAddress).getAmountsIn(numberOfTokens, path);\r\n\r\n        return amounts[1];\r\n    }\r\n\r\n    /**\r\n    * @dev Returns the farm address and liquidity pool address for each available farm on Ubeswap\r\n    * @return address[] memory The farm address for each available farm\r\n    */\r\n    function getAvailableUbeswapFarms() public view override returns (address[] memory) {\r\n        address ubeswapPoolManagerAddress = ADDRESS_RESOLVER.getContractAddress(\"UbeswapPoolManager\");\r\n\r\n        uint numberOfAvailableFarms = IUbeswapPoolManager(ubeswapPoolManagerAddress).poolsCount();\r\n        address[] memory farmAddresses = new address[](numberOfAvailableFarms);\r\n\r\n        for (uint i = 0; i < numberOfAvailableFarms; i++)\r\n        {\r\n            farmAddresses[i] = IUbeswapPoolManager(ubeswapPoolManagerAddress).poolsByIndex(i);\r\n        }\r\n\r\n        return farmAddresses;\r\n    }\r\n\r\n    /**\r\n    * @dev Given the address of a farm on Ubeswap, returns the farm's staking token address\r\n    * @param farmAddress Address of the farm to check\r\n    * @return address The farm's staking token address\r\n    */\r\n    function checkIfFarmExists(address farmAddress) public view override returns (address) {\r\n        require(farmAddress != address(0), \"Invalid farm address\");\r\n\r\n        return IStakingRewards(farmAddress).stakingToken();\r\n    }\r\n\r\n    /**\r\n    * @dev Returns the address of a token pair\r\n    * @param tokenA First token in pair\r\n    * @param tokenB Second token in pair\r\n    * @return address The pair's address\r\n    */\r\n    function getPair(address tokenA, address tokenB) public view override returns (address) {\r\n        require(tokenA != address(0), \"BaseUbeswapAdapter: invalid address for tokenA\");\r\n        require(tokenB != address(0), \"BaseUbeswapAdapter: invalid address for tokenB\");\r\n\r\n        address uniswapV2FactoryAddress = ADDRESS_RESOLVER.getContractAddress(\"UniswapV2Factory\");\r\n\r\n        return IUniswapV2Factory(uniswapV2FactoryAddress).getPair(tokenA, tokenB);\r\n    }\r\n\r\n    /**\r\n    * @dev Returns the amount of UBE rewards available for the pool in the given farm\r\n    * @param poolAddress Address of the pool\r\n    * @param farmAddress Address of the farm on Ubeswap\r\n    * @return uint Amount of UBE available\r\n    */\r\n    function getAvailableRewards(address poolAddress, address farmAddress) public view override returns (uint) {\r\n        require(poolAddress != address(0), \"BaseUbeswapAdapter: invalid pool address\");\r\n        require(checkIfFarmExists(farmAddress) != address(0), \"BaseUbeswapAdapter: invalid farm address\");\r\n\r\n        return IStakingRewards(farmAddress).earned(poolAddress);\r\n    }\r\n\r\n    /**\r\n    * @dev Calculates the amount of tokens in a pair\r\n    * @param tokenA First token in pair\r\n    * @param tokenB Second token in pair\r\n    * @param numberOfLPTokens Number of LP tokens for the given pair\r\n    * @return (uint, uint) The number of tokens for tokenA and tokenB\r\n    */\r\n    function getTokenAmountsFromPair(address tokenA, address tokenB, uint numberOfLPTokens) public view override returns (uint, uint) {\r\n        address pair = getPair(tokenA, tokenB);\r\n        require(pair != address(0), \"BaseUbeswapAdapter: invalid address for pair\");\r\n\r\n        uint pairBalanceTokenA = IERC20(tokenA).balanceOf(pair);\r\n        uint pairBalanceTokenB = IERC20(tokenB).balanceOf(pair);\r\n        uint totalSupply = IERC20(pair).totalSupply();\r\n\r\n        uint amountA = pairBalanceTokenA.mul(numberOfLPTokens).div(totalSupply);\r\n        uint amountB = pairBalanceTokenB.mul(numberOfLPTokens).div(totalSupply);\r\n\r\n        return (amountA, amountB);\r\n    }\r\n\r\n    /* ========== INTERNAL FUNCTIONS ========== */\r\n\r\n    /**\r\n    * @dev Get the decimals of an asset\r\n    * @return number of decimals of the asset\r\n    */\r\n    function _getDecimals(address asset) internal view returns (uint) {\r\n        return IERC20(asset).decimals();\r\n    }\r\n}",
  "sourcePath": "C:/Users/xavie/OneDrive/Desktop/TradeGen/Github/tradegen-protocol/contracts/BaseUbeswapAdapter.sol",
  "compiler": {
    "name": "solc",
    "version": "0.7.6+commit.7338295f.Emscripten.clang"
  },
  "schemaVersion": "3.4.1",
  "updatedAt": "2021-08-17T23:05:05.877Z",
  "devdoc": {
    "kind": "dev",
    "methods": {
      "checkIfFarmExists(address)": {
        "details": "Given the address of a farm on Ubeswap, returns the farm's staking token address",
        "params": {
          "farmAddress": "Address of the farm to check"
        },
        "returns": {
          "_0": "address The farm's staking token address"
        }
      },
      "getAmountsIn(uint256,address,address)": {
        "details": "Given the target output asset amount, returns the amount of input asset needed",
        "params": {
          "currencyKeyIn": "Address of the asset to be swap from",
          "currencyKeyOut": "Address of the asset to be swap to",
          "numberOfTokens": "Target amount of output asset"
        },
        "returns": {
          "_0": "uint Amount out input asset needed"
        }
      },
      "getAmountsOut(uint256,address,address)": {
        "details": "Given an input asset amount, returns the maximum output amount of the other asset",
        "params": {
          "currencyKeyIn": "Address of the asset to be swap from",
          "currencyKeyOut": "Address of the asset to be swap to",
          "numberOfTokens": "Number of tokens"
        },
        "returns": {
          "_0": "uint Amount out of the asset"
        }
      },
      "getAvailableRewards(address,address)": {
        "details": "Returns the amount of UBE rewards available for the pool in the given farm",
        "params": {
          "farmAddress": "Address of the farm on Ubeswap",
          "poolAddress": "Address of the pool"
        },
        "returns": {
          "_0": "uint Amount of UBE available"
        }
      },
      "getAvailableUbeswapFarms()": {
        "details": "Returns the farm address and liquidity pool address for each available farm on Ubeswap",
        "returns": {
          "_0": "address[] memory The farm address for each available farm"
        }
      },
      "getPair(address,address)": {
        "details": "Returns the address of a token pair",
        "params": {
          "tokenA": "First token in pair",
          "tokenB": "Second token in pair"
        },
        "returns": {
          "_0": "address The pair's address"
        }
      },
      "getPrice(address)": {
        "details": "Given an input asset address, returns the price of the asset in cUSD",
        "params": {
          "currencyKey": "Address of the asset"
        },
        "returns": {
          "_0": "uint Price of the asset"
        }
      },
      "getTokenAmountsFromPair(address,address,uint256)": {
        "details": "Calculates the amount of tokens in a pair",
        "params": {
          "numberOfLPTokens": "Number of LP tokens for the given pair",
          "tokenA": "First token in pair",
          "tokenB": "Second token in pair"
        },
        "returns": {
          "_0": "(uint, uint) The number of tokens for tokenA and tokenB"
        }
      }
    },
    "version": 1
  },
  "userdoc": {
    "kind": "user",
    "methods": {
      "getAmountsOut(uint256,address,address)": {
        "notice": "Assumes numberOfTokens is multiplied by currency's decimals before function call"
      }
    },
    "version": 1
  }
}