{
  "contractName": "BaseUbeswapAdapter",
  "abi": [
    {
      "inputs": [
        {
          "internalType": "contract IAddressResolver",
          "name": "addressResolver",
          "type": "address"
        }
      ],
      "stateMutability": "nonpayable",
      "type": "constructor"
    },
    {
      "inputs": [],
      "name": "ADDRESS_RESOLVER",
      "outputs": [
        {
          "internalType": "contract IAddressResolver",
          "name": "",
          "type": "address"
        }
      ],
      "stateMutability": "view",
      "type": "function"
    },
    {
      "inputs": [],
      "name": "MAX_SLIPPAGE_PERCENT",
      "outputs": [
        {
          "internalType": "uint256",
          "name": "",
          "type": "uint256"
        }
      ],
      "stateMutability": "view",
      "type": "function"
    },
    {
      "inputs": [
        {
          "internalType": "address",
          "name": "currencyKey",
          "type": "address"
        }
      ],
      "name": "getPrice",
      "outputs": [
        {
          "internalType": "uint256",
          "name": "",
          "type": "uint256"
        }
      ],
      "stateMutability": "view",
      "type": "function"
    },
    {
      "inputs": [
        {
          "internalType": "uint256",
          "name": "numberOfTokens",
          "type": "uint256"
        },
        {
          "internalType": "address",
          "name": "currencyKeyIn",
          "type": "address"
        },
        {
          "internalType": "address",
          "name": "currencyKeyOut",
          "type": "address"
        }
      ],
      "name": "getAmountsOut",
      "outputs": [
        {
          "internalType": "uint256",
          "name": "",
          "type": "uint256"
        }
      ],
      "stateMutability": "view",
      "type": "function"
    },
    {
      "inputs": [
        {
          "internalType": "uint256",
          "name": "numberOfTokens",
          "type": "uint256"
        },
        {
          "internalType": "address",
          "name": "currencyKeyIn",
          "type": "address"
        },
        {
          "internalType": "address",
          "name": "currencyKeyOut",
          "type": "address"
        }
      ],
      "name": "getAmountsIn",
      "outputs": [
        {
          "internalType": "uint256",
          "name": "",
          "type": "uint256"
        }
      ],
      "stateMutability": "view",
      "type": "function"
    },
    {
      "inputs": [],
      "name": "getAvailableUbeswapFarms",
      "outputs": [
        {
          "internalType": "address[]",
          "name": "",
          "type": "address[]"
        }
      ],
      "stateMutability": "view",
      "type": "function"
    },
    {
      "inputs": [
        {
          "internalType": "address",
          "name": "pair",
          "type": "address"
        }
      ],
      "name": "checkIfLPTokenHasFarm",
      "outputs": [
        {
          "internalType": "bool",
          "name": "",
          "type": "bool"
        }
      ],
      "stateMutability": "view",
      "type": "function"
    },
    {
      "inputs": [
        {
          "internalType": "address",
          "name": "tokenA",
          "type": "address"
        },
        {
          "internalType": "address",
          "name": "tokenB",
          "type": "address"
        }
      ],
      "name": "getPair",
      "outputs": [
        {
          "internalType": "address",
          "name": "",
          "type": "address"
        }
      ],
      "stateMutability": "view",
      "type": "function"
    },
    {
      "inputs": [
        {
          "internalType": "address",
          "name": "poolAddress",
          "type": "address"
        },
        {
          "internalType": "address",
          "name": "farmAddress",
          "type": "address"
        }
      ],
      "name": "getAvailableRewards",
      "outputs": [
        {
          "internalType": "uint256",
          "name": "",
          "type": "uint256"
        }
      ],
      "stateMutability": "view",
      "type": "function"
    },
    {
      "inputs": [
        {
          "internalType": "address",
          "name": "tokenA",
          "type": "address"
        },
        {
          "internalType": "address",
          "name": "tokenB",
          "type": "address"
        },
        {
          "internalType": "uint256",
          "name": "numberOfLPTokens",
          "type": "uint256"
        }
      ],
      "name": "getTokenAmountsFromPair",
      "outputs": [
        {
          "internalType": "uint256",
          "name": "",
          "type": "uint256"
        },
        {
          "internalType": "uint256",
          "name": "",
          "type": "uint256"
        }
      ],
      "stateMutability": "view",
      "type": "function"
    }
  ],
  "bytecode": "0x60a06040523480156200001157600080fd5b50604051620030923803806200309283398181016040528101906200003791906200008c565b8073ffffffffffffffffffffffffffffffffffffffff1660808173ffffffffffffffffffffffffffffffffffffffff1660601b81525050506200011a565b600081519050620000868162000100565b92915050565b6000602082840312156200009f57600080fd5b6000620000af8482850162000075565b91505092915050565b6000620000c582620000e0565b9050919050565b6000620000d982620000b8565b9050919050565b600073ffffffffffffffffffffffffffffffffffffffff82169050919050565b6200010b81620000cc565b81146200011757600080fd5b50565b60805160601c612f2d62000165600039806103c8528061053f52806105ea5280610a345280610a5b5280610b0652806110e6528061119152806119f55280611e905250612f2d6000f3fe608060405234801561001057600080fd5b506004361061009d5760003560e01c8063baf7fa9911610066578063baf7fa991461016e578063cdf58cd61461019e578063d87fc149146101ce578063e1f6e5bb146101ff578063e6a439051461021d5761009d565b80629e78be146100a257806332e4b286146100d25780633afba4a6146100f057806341976e0914610120578063981f3b8e14610150575b600080fd5b6100bc60048036038101906100b79190612293565b61024d565b6040516100c99190612d05565b60405180910390f35b6100da61034e565b6040516100e79190612d05565b60405180910390f35b61010a60048036038101906101059190612241565b610353565b6040516101179190612acf565b60405180910390f35b61013a60048036038101906101359190612241565b61053a565b6040516101479190612d05565b60405180910390f35b610158610a32565b6040516101659190612aea565b60405180910390f35b610188600480360381019061018391906123da565b610a56565b6040516101959190612d05565b60405180910390f35b6101b860048036038101906101b391906123da565b6110e1565b6040516101c59190612d05565b60405180910390f35b6101e860048036038101906101e391906122cf565b61176c565b6040516101f6929190612d50565b60405180910390f35b6102076119ef565b6040516102149190612aad565b60405180910390f35b61023760048036038101906102329190612293565b611dab565b6040516102449190612a69565b60405180910390f35b60008073ffffffffffffffffffffffffffffffffffffffff168373ffffffffffffffffffffffffffffffffffffffff1614156102be576040517f08c379a00000000000000000000000000000000000000000000000000000000081526004016102b590612b45565b60405180910390fd5b8173ffffffffffffffffffffffffffffffffffffffff16628cc262846040518263ffffffff1660e01b81526004016102f69190612a69565b60206040518083038186803b15801561030e57600080fd5b505afa158015610322573d6000803e3d6000fd5b505050506040513d601f19601f8201168201806040525081019061034691906123b1565b905092915050565b600a81565b60008073ffffffffffffffffffffffffffffffffffffffff168273ffffffffffffffffffffffffffffffffffffffff1614156103c4576040517f08c379a00000000000000000000000000000000000000000000000000000000081526004016103bb90612ce5565b60405180910390fd5b60007f000000000000000000000000000000000000000000000000000000000000000073ffffffffffffffffffffffffffffffffffffffff166304433bbc6040518163ffffffff1660e01b815260040161041d90612c45565b60206040518083038186803b15801561043557600080fd5b505afa158015610449573d6000803e3d6000fd5b505050506040513d601f19601f8201168201806040525081019061046d919061226a565b905060008173ffffffffffffffffffffffffffffffffffffffff1663a4063dbc856040518263ffffffff1660e01b81526004016104aa9190612a69565b60a06040518083038186803b1580156104c257600080fd5b505afa1580156104d6573d6000803e3d6000fd5b505050506040513d601f19601f820116820180604052508101906104fa9190612388565b9050600073ffffffffffffffffffffffffffffffffffffffff16816040015173ffffffffffffffffffffffffffffffffffffffff16141592505050919050565b6000807f000000000000000000000000000000000000000000000000000000000000000073ffffffffffffffffffffffffffffffffffffffff166304433bbc6040518163ffffffff1660e01b815260040161059490612c65565b60206040518083038186803b1580156105ac57600080fd5b505afa1580156105c0573d6000803e3d6000fd5b505050506040513d601f19601f820116820180604052508101906105e4919061226a565b905060007f000000000000000000000000000000000000000000000000000000000000000073ffffffffffffffffffffffffffffffffffffffff166304433bbc6040518163ffffffff1660e01b815260040161063f90612ba5565b60206040518083038186803b15801561065757600080fd5b505afa15801561066b573d6000803e3d6000fd5b505050506040513d601f19601f8201168201806040525081019061068f919061226a565b905060008273ffffffffffffffffffffffffffffffffffffffff1663be781b1c6040518163ffffffff1660e01b815260040160206040518083038186803b1580156106d957600080fd5b505afa1580156106ed573d6000803e3d6000fd5b505050506040513d601f19601f82011682018060405250810190610711919061226a565b90508073ffffffffffffffffffffffffffffffffffffffff168573ffffffffffffffffffffffffffffffffffffffff16141561075d5761075085611fcb565b600a0a9350505050610a2d565b600073ffffffffffffffffffffffffffffffffffffffff168573ffffffffffffffffffffffffffffffffffffffff1614156107cd576040517f08c379a00000000000000000000000000000000000000000000000000000000081526004016107c490612b65565b60405180910390fd5b8273ffffffffffffffffffffffffffffffffffffffff1663cc435bf3866040518263ffffffff1660e01b81526004016108069190612a69565b60206040518083038186803b15801561081e57600080fd5b505afa158015610832573d6000803e3d6000fd5b505050506040513d601f19601f82011682018060405250810190610856919061235f565b610895576040517f08c379a000000000000000000000000000000000000000000000000000000000815260040161088c90612b05565b60405180910390fd5b6000600267ffffffffffffffff811180156108af57600080fd5b506040519080825280602002602001820160405280156108de5781602001602082028036833780820191505090505b50905085816000815181106108ef57fe5b602002602001019073ffffffffffffffffffffffffffffffffffffffff16908173ffffffffffffffffffffffffffffffffffffffff1681525050818160018151811061093757fe5b602002602001019073ffffffffffffffffffffffffffffffffffffffff16908173ffffffffffffffffffffffffffffffffffffffff168152505060008373ffffffffffffffffffffffffffffffffffffffff1663d06ca61f61099889611fcb565b600a0a846040518363ffffffff1660e01b81526004016109b9929190612d20565b60006040518083038186803b1580156109d157600080fd5b505afa1580156109e5573d6000803e3d6000fd5b505050506040513d6000823e3d601f19601f82011682018060405250810190610a0e919061231e565b905080600181518110610a1d57fe5b6020026020010151955050505050505b919050565b7f000000000000000000000000000000000000000000000000000000000000000081565b6000807f000000000000000000000000000000000000000000000000000000000000000073ffffffffffffffffffffffffffffffffffffffff166304433bbc6040518163ffffffff1660e01b8152600401610ab090612c65565b60206040518083038186803b158015610ac857600080fd5b505afa158015610adc573d6000803e3d6000fd5b505050506040513d601f19601f82011682018060405250810190610b00919061226a565b905060007f000000000000000000000000000000000000000000000000000000000000000073ffffffffffffffffffffffffffffffffffffffff166304433bbc6040518163ffffffff1660e01b8152600401610b5b90612ba5565b60206040518083038186803b158015610b7357600080fd5b505afa158015610b87573d6000803e3d6000fd5b505050506040513d601f19601f82011682018060405250810190610bab919061226a565b905060008273ffffffffffffffffffffffffffffffffffffffff1663be781b1c6040518163ffffffff1660e01b815260040160206040518083038186803b158015610bf557600080fd5b505afa158015610c09573d6000803e3d6000fd5b505050506040513d601f19601f82011682018060405250810190610c2d919061226a565b9050600073ffffffffffffffffffffffffffffffffffffffff168673ffffffffffffffffffffffffffffffffffffffff161415610c9f576040517f08c379a0000000000000000000000000000000000000000000000000000000008152600401610c9690612c25565b60405180910390fd5b600073ffffffffffffffffffffffffffffffffffffffff168573ffffffffffffffffffffffffffffffffffffffff161415610d0f576040517f08c379a0000000000000000000000000000000000000000000000000000000008152600401610d0690612cc5565b60405180910390fd5b8273ffffffffffffffffffffffffffffffffffffffff1663cc435bf3876040518263ffffffff1660e01b8152600401610d489190612a69565b60206040518083038186803b158015610d6057600080fd5b505afa158015610d74573d6000803e3d6000fd5b505050506040513d601f19601f82011682018060405250810190610d98919061235f565b80610dce57508073ffffffffffffffffffffffffffffffffffffffff168673ffffffffffffffffffffffffffffffffffffffff16145b610e0d576040517f08c379a0000000000000000000000000000000000000000000000000000000008152600401610e0490612c85565b60405180910390fd5b8273ffffffffffffffffffffffffffffffffffffffff1663cc435bf3866040518263ffffffff1660e01b8152600401610e469190612a69565b60206040518083038186803b158015610e5e57600080fd5b505afa158015610e72573d6000803e3d6000fd5b505050506040513d601f19601f82011682018060405250810190610e96919061235f565b80610ecc57508073ffffffffffffffffffffffffffffffffffffffff168573ffffffffffffffffffffffffffffffffffffffff16145b610f0b576040517f08c379a0000000000000000000000000000000000000000000000000000000008152600401610f0290612b85565b60405180910390fd5b60008711610f4e576040517f08c379a0000000000000000000000000000000000000000000000000000000008152600401610f4590612bc5565b60405180910390fd5b6000600267ffffffffffffffff81118015610f6857600080fd5b50604051908082528060200260200182016040528015610f975781602001602082028036833780820191505090505b5090508681600081518110610fa857fe5b602002602001019073ffffffffffffffffffffffffffffffffffffffff16908173ffffffffffffffffffffffffffffffffffffffff16815250508581600181518110610ff057fe5b602002602001019073ffffffffffffffffffffffffffffffffffffffff16908173ffffffffffffffffffffffffffffffffffffffff168152505060008373ffffffffffffffffffffffffffffffffffffffff1663d06ca61f8a846040518363ffffffff1660e01b8152600401611067929190612d20565b60006040518083038186803b15801561107f57600080fd5b505afa158015611093573d6000803e3d6000fd5b505050506040513d6000823e3d601f19601f820116820180604052508101906110bc919061231e565b9050806001815181106110cb57fe5b6020026020010151955050505050509392505050565b6000807f000000000000000000000000000000000000000000000000000000000000000073ffffffffffffffffffffffffffffffffffffffff166304433bbc6040518163ffffffff1660e01b815260040161113b90612c65565b60206040518083038186803b15801561115357600080fd5b505afa158015611167573d6000803e3d6000fd5b505050506040513d601f19601f8201168201806040525081019061118b919061226a565b905060007f000000000000000000000000000000000000000000000000000000000000000073ffffffffffffffffffffffffffffffffffffffff166304433bbc6040518163ffffffff1660e01b81526004016111e690612ba5565b60206040518083038186803b1580156111fe57600080fd5b505afa158015611212573d6000803e3d6000fd5b505050506040513d601f19601f82011682018060405250810190611236919061226a565b905060008273ffffffffffffffffffffffffffffffffffffffff1663be781b1c6040518163ffffffff1660e01b815260040160206040518083038186803b15801561128057600080fd5b505afa158015611294573d6000803e3d6000fd5b505050506040513d601f19601f820116820180604052508101906112b8919061226a565b9050600073ffffffffffffffffffffffffffffffffffffffff168673ffffffffffffffffffffffffffffffffffffffff16141561132a576040517f08c379a000000000000000000000000000000000000000000000000000000000815260040161132190612c25565b60405180910390fd5b600073ffffffffffffffffffffffffffffffffffffffff168573ffffffffffffffffffffffffffffffffffffffff16141561139a576040517f08c379a000000000000000000000000000000000000000000000000000000000815260040161139190612cc5565b60405180910390fd5b8273ffffffffffffffffffffffffffffffffffffffff1663cc435bf3876040518263ffffffff1660e01b81526004016113d39190612a69565b60206040518083038186803b1580156113eb57600080fd5b505afa1580156113ff573d6000803e3d6000fd5b505050506040513d601f19601f82011682018060405250810190611423919061235f565b8061145957508073ffffffffffffffffffffffffffffffffffffffff168673ffffffffffffffffffffffffffffffffffffffff16145b611498576040517f08c379a000000000000000000000000000000000000000000000000000000000815260040161148f90612c85565b60405180910390fd5b8273ffffffffffffffffffffffffffffffffffffffff1663cc435bf3866040518263ffffffff1660e01b81526004016114d19190612a69565b60206040518083038186803b1580156114e957600080fd5b505afa1580156114fd573d6000803e3d6000fd5b505050506040513d601f19601f82011682018060405250810190611521919061235f565b8061155757508073ffffffffffffffffffffffffffffffffffffffff168573ffffffffffffffffffffffffffffffffffffffff16145b611596576040517f08c379a000000000000000000000000000000000000000000000000000000000815260040161158d90612b85565b60405180910390fd5b600087116115d9576040517f08c379a00000000000000000000000000000000000000000000000000000000081526004016115d090612bc5565b60405180910390fd5b6000600267ffffffffffffffff811180156115f357600080fd5b506040519080825280602002602001820160405280156116225781602001602082028036833780820191505090505b509050868160008151811061163357fe5b602002602001019073ffffffffffffffffffffffffffffffffffffffff16908173ffffffffffffffffffffffffffffffffffffffff1681525050858160018151811061167b57fe5b602002602001019073ffffffffffffffffffffffffffffffffffffffff16908173ffffffffffffffffffffffffffffffffffffffff168152505060008373ffffffffffffffffffffffffffffffffffffffff16631f00ca748a846040518363ffffffff1660e01b81526004016116f2929190612d20565b60006040518083038186803b15801561170a57600080fd5b505afa15801561171e573d6000803e3d6000fd5b505050506040513d6000823e3d601f19601f82011682018060405250810190611747919061231e565b90508060018151811061175657fe5b6020026020010151955050505050509392505050565b600080600061177b8686611dab565b9050600073ffffffffffffffffffffffffffffffffffffffff168173ffffffffffffffffffffffffffffffffffffffff1614156117ed576040517f08c379a00000000000000000000000000000000000000000000000000000000081526004016117e490612ca5565b60405180910390fd5b60008673ffffffffffffffffffffffffffffffffffffffff166370a08231836040518263ffffffff1660e01b81526004016118289190612a69565b60206040518083038186803b15801561184057600080fd5b505afa158015611854573d6000803e3d6000fd5b505050506040513d601f19601f8201168201806040525081019061187891906123b1565b905060008673ffffffffffffffffffffffffffffffffffffffff166370a08231846040518263ffffffff1660e01b81526004016118b59190612a69565b60206040518083038186803b1580156118cd57600080fd5b505afa1580156118e1573d6000803e3d6000fd5b505050506040513d601f19601f8201168201806040525081019061190591906123b1565b905060008373ffffffffffffffffffffffffffffffffffffffff166318160ddd6040518163ffffffff1660e01b815260040160206040518083038186803b15801561194f57600080fd5b505afa158015611963573d6000803e3d6000fd5b505050506040513d601f19601f8201168201806040525081019061198791906123b1565b905060006119b0826119a28a8761205590919063ffffffff16565b61208c90919063ffffffff16565b905060006119d9836119cb8b8761205590919063ffffffff16565b61208c90919063ffffffff16565b9050818197509750505050505050935093915050565b606060007f000000000000000000000000000000000000000000000000000000000000000073ffffffffffffffffffffffffffffffffffffffff166304433bbc6040518163ffffffff1660e01b8152600401611a4a90612c45565b60206040518083038186803b158015611a6257600080fd5b505afa158015611a76573d6000803e3d6000fd5b505050506040513d601f19601f82011682018060405250810190611a9a919061226a565b905060008173ffffffffffffffffffffffffffffffffffffffff16638c788de06040518163ffffffff1660e01b815260040160206040518083038186803b158015611ae457600080fd5b505afa158015611af8573d6000803e3d6000fd5b505050506040513d601f19601f82011682018060405250810190611b1c91906123b1565b905060008167ffffffffffffffff81118015611b3757600080fd5b50604051908082528060200260200182016040528015611b665781602001602082028036833780820191505090505b50905060008267ffffffffffffffff81118015611b8257600080fd5b50604051908082528060200260200182016040528015611bb15781602001602082028036833780820191505090505b50905060005b83811015611c9b578473ffffffffffffffffffffffffffffffffffffffff16634a4ca369826040518263ffffffff1660e01b8152600401611bf89190612d05565b60206040518083038186803b158015611c1057600080fd5b505afa158015611c24573d6000803e3d6000fd5b505050506040513d601f19601f82011682018060405250810190611c48919061226a565b838281518110611c5457fe5b602002602001019073ffffffffffffffffffffffffffffffffffffffff16908173ffffffffffffffffffffffffffffffffffffffff16815250508080600101915050611bb7565b5060005b83811015611da05760008573ffffffffffffffffffffffffffffffffffffffff1663a4063dbc858481518110611cd157fe5b60200260200101516040518263ffffffff1660e01b8152600401611cf59190612a69565b60a06040518083038186803b158015611d0d57600080fd5b505afa158015611d21573d6000803e3d6000fd5b505050506040513d601f19601f82011682018060405250810190611d459190612388565b90508060400151838381518110611d5857fe5b602002602001019073ffffffffffffffffffffffffffffffffffffffff16908173ffffffffffffffffffffffffffffffffffffffff1681525050508080600101915050611c9f565b508094505050505090565b60008073ffffffffffffffffffffffffffffffffffffffff168373ffffffffffffffffffffffffffffffffffffffff161415611e1c576040517f08c379a0000000000000000000000000000000000000000000000000000000008152600401611e1390612b25565b60405180910390fd5b600073ffffffffffffffffffffffffffffffffffffffff168273ffffffffffffffffffffffffffffffffffffffff161415611e8c576040517f08c379a0000000000000000000000000000000000000000000000000000000008152600401611e8390612c05565b60405180910390fd5b60007f000000000000000000000000000000000000000000000000000000000000000073ffffffffffffffffffffffffffffffffffffffff166304433bbc6040518163ffffffff1660e01b8152600401611ee590612be5565b60206040518083038186803b158015611efd57600080fd5b505afa158015611f11573d6000803e3d6000fd5b505050506040513d601f19601f82011682018060405250810190611f35919061226a565b90508073ffffffffffffffffffffffffffffffffffffffff1663e6a4390585856040518363ffffffff1660e01b8152600401611f72929190612a84565b60206040518083038186803b158015611f8a57600080fd5b505afa158015611f9e573d6000803e3d6000fd5b505050506040513d601f19601f82011682018060405250810190611fc2919061226a565b91505092915050565b60008173ffffffffffffffffffffffffffffffffffffffff1663313ce5676040518163ffffffff1660e01b815260040160206040518083038186803b15801561201357600080fd5b505afa158015612027573d6000803e3d6000fd5b505050506040513d601f19601f8201168201806040525081019061204b9190612429565b60ff169050919050565b6000808314156120685760009050612086565b600082840290508284828161207957fe5b041461208157fe5b809150505b92915050565b60008082848161209857fe5b0490508091505092915050565b60006120b86120b384612daa565b612d79565b905080838252602082019050828560208602820111156120d757600080fd5b60005b8581101561210757816120ed8882612217565b8452602084019350602083019250506001810190506120da565b5050509392505050565b60008135905061212081612e9b565b92915050565b60008151905061213581612e9b565b92915050565b600082601f83011261214c57600080fd5b815161215c8482602086016120a5565b91505092915050565b60008151905061217481612eb2565b92915050565b600060a0828403121561218c57600080fd5b61219660a0612d79565b905060006121a684828501612217565b60008301525060206121ba84828501612126565b60208301525060406121ce84828501612126565b60408301525060606121e284828501612217565b60608301525060806121f684828501612217565b60808301525092915050565b60008135905061221181612ec9565b92915050565b60008151905061222681612ec9565b92915050565b60008151905061223b81612ee0565b92915050565b60006020828403121561225357600080fd5b600061226184828501612111565b91505092915050565b60006020828403121561227c57600080fd5b600061228a84828501612126565b91505092915050565b600080604083850312156122a657600080fd5b60006122b485828601612111565b92505060206122c585828601612111565b9150509250929050565b6000806000606084860312156122e457600080fd5b60006122f286828701612111565b935050602061230386828701612111565b925050604061231486828701612202565b9150509250925092565b60006020828403121561233057600080fd5b600082015167ffffffffffffffff81111561234a57600080fd5b6123568482850161213b565b91505092915050565b60006020828403121561237157600080fd5b600061237f84828501612165565b91505092915050565b600060a0828403121561239a57600080fd5b60006123a88482850161217a565b91505092915050565b6000602082840312156123c357600080fd5b60006123d184828501612217565b91505092915050565b6000806000606084860312156123ef57600080fd5b60006123fd86828701612202565b935050602061240e86828701612111565b925050604061241f86828701612111565b9150509250925092565b60006020828403121561243b57600080fd5b60006124498482850161222c565b91505092915050565b600061245e838361246a565b60208301905092915050565b61247381612e20565b82525050565b61248281612e20565b82525050565b600061249382612de6565b61249d8185612dfe565b93506124a883612dd6565b8060005b838110156124d95781516124c08882612452565b97506124cb83612df1565b9250506001810190506124ac565b5085935050505092915050565b6124ef81612e32565b82525050565b6124fe81612e75565b82525050565b6000612511602d83612e0f565b91507f4261736555626573776170416461707465723a2043757272656e63792069732060008301527f6e6f7420617661696c61626c65000000000000000000000000000000000000006020830152604082019050919050565b6000612577602e83612e0f565b91507f4261736555626573776170416461707465723a20696e76616c6964206164647260008301527f65737320666f7220746f6b656e410000000000000000000000000000000000006020830152604082019050919050565b60006125dd602883612e0f565b91507f4261736555626573776170416461707465723a20696e76616c696420706f6f6c60008301527f20616464726573730000000000000000000000000000000000000000000000006020830152604082019050919050565b6000612643601483612e0f565b91507f496e76616c69642063757272656e6379206b65790000000000000000000000006000830152602082019050919050565b6000612683603383612e0f565b91507f4261736555626573776170416461707465723a2043757272656e63794b65794f60008301527f7574206973206e6f7420617661696c61626c65000000000000000000000000006020830152604082019050919050565b60006126e9600d83612e0f565b91507f55626573776170526f75746572000000000000000000000000000000000000006000830152602082019050919050565b6000612729602783612e0f565b91507f4e756d626572206f6620746f6b656e73206d757374206265206772656174657260008301527f207468616e2030000000000000000000000000000000000000000000000000006020830152604082019050919050565b600061278f601083612e0f565b91507f556e69737761705632466163746f7279000000000000000000000000000000006000830152602082019050919050565b60006127cf602e83612e0f565b91507f4261736555626573776170416461707465723a20696e76616c6964206164647260008301527f65737320666f7220746f6b656e420000000000000000000000000000000000006020830152604082019050919050565b6000612835601783612e0f565b91507f496e76616c69642063757272656e6379206b657920696e0000000000000000006000830152602082019050919050565b6000612875601283612e0f565b91507f55626573776170506f6f6c4d616e6167657200000000000000000000000000006000830152602082019050919050565b60006128b5600c83612e0f565b91507f417373657448616e646c657200000000000000000000000000000000000000006000830152602082019050919050565b60006128f5603283612e0f565b91507f4261736555626573776170416461707465723a2043757272656e63794b65794960008301527f6e206973206e6f7420617661696c61626c6500000000000000000000000000006020830152604082019050919050565b600061295b602c83612e0f565b91507f4261736555626573776170416461707465723a20696e76616c6964206164647260008301527f65737320666f72207061697200000000000000000000000000000000000000006020830152604082019050919050565b60006129c1601883612e0f565b91507f496e76616c69642063757272656e6379206b6579206f757400000000000000006000830152602082019050919050565b6000612a01602883612e0f565b91507f4261736555626573776170416461707465723a20696e76616c6964207061697260008301527f20616464726573730000000000000000000000000000000000000000000000006020830152604082019050919050565b612a6381612e5e565b82525050565b6000602082019050612a7e6000830184612479565b92915050565b6000604082019050612a996000830185612479565b612aa66020830184612479565b9392505050565b60006020820190508181036000830152612ac78184612488565b905092915050565b6000602082019050612ae460008301846124e6565b92915050565b6000602082019050612aff60008301846124f5565b92915050565b60006020820190508181036000830152612b1e81612504565b9050919050565b60006020820190508181036000830152612b3e8161256a565b9050919050565b60006020820190508181036000830152612b5e816125d0565b9050919050565b60006020820190508181036000830152612b7e81612636565b9050919050565b60006020820190508181036000830152612b9e81612676565b9050919050565b60006020820190508181036000830152612bbe816126dc565b9050919050565b60006020820190508181036000830152612bde8161271c565b9050919050565b60006020820190508181036000830152612bfe81612782565b9050919050565b60006020820190508181036000830152612c1e816127c2565b9050919050565b60006020820190508181036000830152612c3e81612828565b9050919050565b60006020820190508181036000830152612c5e81612868565b9050919050565b60006020820190508181036000830152612c7e816128a8565b9050919050565b60006020820190508181036000830152612c9e816128e8565b9050919050565b60006020820190508181036000830152612cbe8161294e565b9050919050565b60006020820190508181036000830152612cde816129b4565b9050919050565b60006020820190508181036000830152612cfe816129f4565b9050919050565b6000602082019050612d1a6000830184612a5a565b92915050565b6000604082019050612d356000830185612a5a565b8181036020830152612d478184612488565b90509392505050565b6000604082019050612d656000830185612a5a565b612d726020830184612a5a565b9392505050565b6000604051905081810181811067ffffffffffffffff82111715612da057612d9f612e99565b5b8060405250919050565b600067ffffffffffffffff821115612dc557612dc4612e99565b5b602082029050602081019050919050565b6000819050602082019050919050565b600081519050919050565b6000602082019050919050565b600082825260208201905092915050565b600082825260208201905092915050565b6000612e2b82612e3e565b9050919050565b60008115159050919050565b600073ffffffffffffffffffffffffffffffffffffffff82169050919050565b6000819050919050565b600060ff82169050919050565b6000612e8082612e87565b9050919050565b6000612e9282612e3e565b9050919050565bfe5b612ea481612e20565b8114612eaf57600080fd5b50565b612ebb81612e32565b8114612ec657600080fd5b50565b612ed281612e5e565b8114612edd57600080fd5b50565b612ee981612e68565b8114612ef457600080fd5b5056fea26469706673582212203a838c907073e9ef0cfcae7dcb945d3025189c1f4d22cc5b542818855819aab464736f6c63430007060033",
  "immutableReferences": {
    "768": [
      {
        "length": 32,
        "start": 968
      },
      {
        "length": 32,
        "start": 1343
      },
      {
        "length": 32,
        "start": 1514
      },
      {
        "length": 32,
        "start": 2612
      },
      {
        "length": 32,
        "start": 2651
      },
      {
        "length": 32,
        "start": 2822
      },
      {
        "length": 32,
        "start": 4326
      },
      {
        "length": 32,
        "start": 4497
      },
      {
        "length": 32,
        "start": 6645
      },
      {
        "length": 32,
        "start": 7824
      }
    ]
  },
  "source": "// SPDX-License-Identifier: MIT\r\n\r\npragma solidity >=0.7.6;\r\npragma experimental ABIEncoderV2;\r\n\r\n//Interfaces\r\nimport './interfaces/Ubeswap/IUniswapV2Router02.sol';\r\nimport './interfaces/IERC20.sol';\r\nimport './interfaces/IAssetHandler.sol';\r\nimport './interfaces/IAddressResolver.sol';\r\nimport './interfaces/Ubeswap/IUbeswapPoolManager.sol';\r\nimport './interfaces/Ubeswap/IStakingRewards.sol';\r\nimport './interfaces/Ubeswap/IUniswapV2Factory.sol';\r\nimport './interfaces/Ubeswap/IStakingRewards.sol';\r\n\r\n//Inheritance\r\nimport './interfaces/IBaseUbeswapAdapter.sol';\r\n\r\n//Libraries\r\nimport './libraries/SafeMath.sol';\r\n\r\ncontract BaseUbeswapAdapter is IBaseUbeswapAdapter {\r\n    using SafeMath for uint;\r\n\r\n    // Max slippage percent allowed\r\n    uint public constant override MAX_SLIPPAGE_PERCENT = 10; //10% slippage\r\n\r\n    IAddressResolver public immutable ADDRESS_RESOLVER;\r\n\r\n    constructor(IAddressResolver addressResolver) {\r\n        ADDRESS_RESOLVER = addressResolver;\r\n    }\r\n\r\n    /* ========== VIEWS ========== */\r\n\r\n    /**\r\n    * @dev Given an input asset address, returns the price of the asset in cUSD\r\n    * @param currencyKey Address of the asset\r\n    * @return uint Price of the asset\r\n    */\r\n    function getPrice(address currencyKey) public view override returns(uint) {\r\n        address assetHandlerAddress = ADDRESS_RESOLVER.getContractAddress(\"AssetHandler\");\r\n        address ubeswapRouterAddress = ADDRESS_RESOLVER.getContractAddress(\"UbeswapRouter\");\r\n        address stableCoinAddress = IAssetHandler(assetHandlerAddress).getStableCoinAddress();\r\n\r\n        //Check if currency key is cUSD\r\n        if (currencyKey == stableCoinAddress)\r\n        {\r\n            return 10 ** _getDecimals(currencyKey);\r\n        }\r\n\r\n        require(currencyKey != address(0), \"Invalid currency key\");\r\n        require(IAssetHandler(assetHandlerAddress).isValidAsset(currencyKey), \"BaseUbeswapAdapter: Currency is not available\");\r\n\r\n        address[] memory path = new address[](2);\r\n        path[0] = currencyKey;\r\n        path[1] = stableCoinAddress;\r\n\r\n        uint[] memory amounts = IUniswapV2Router02(ubeswapRouterAddress).getAmountsOut(10 ** _getDecimals(currencyKey), path); // 1 token -> cUSD\r\n\r\n        return amounts[1];\r\n    }\r\n\r\n    /**\r\n    * @dev Given an input asset amount, returns the maximum output amount of the other asset\r\n    * @notice Assumes numberOfTokens is multiplied by currency's decimals before function call\r\n    * @param numberOfTokens Number of tokens\r\n    * @param currencyKeyIn Address of the asset to be swap from\r\n    * @param currencyKeyOut Address of the asset to be swap to\r\n    * @return uint Amount out of the asset\r\n    */\r\n    function getAmountsOut(uint numberOfTokens, address currencyKeyIn, address currencyKeyOut) public view override returns (uint) {\r\n        address assetHandlerAddress = ADDRESS_RESOLVER.getContractAddress(\"AssetHandler\");\r\n        address ubeswapRouterAddress = ADDRESS_RESOLVER.getContractAddress(\"UbeswapRouter\");\r\n        address stableCoinAddress = IAssetHandler(assetHandlerAddress).getStableCoinAddress();\r\n\r\n        require(currencyKeyIn != address(0), \"Invalid currency key in\");\r\n        require(currencyKeyOut != address(0), \"Invalid currency key out\");\r\n        require(IAssetHandler(assetHandlerAddress).isValidAsset(currencyKeyIn) || currencyKeyIn == stableCoinAddress, \"BaseUbeswapAdapter: CurrencyKeyIn is not available\");\r\n        require(IAssetHandler(assetHandlerAddress).isValidAsset(currencyKeyOut) || currencyKeyOut == stableCoinAddress, \"BaseUbeswapAdapter: CurrencyKeyOut is not available\");\r\n        require(numberOfTokens > 0, \"Number of tokens must be greater than 0\");\r\n\r\n        address[] memory path = new address[](2);\r\n        path[0] = currencyKeyIn;\r\n        path[1] = currencyKeyOut;\r\n        uint[] memory amounts = IUniswapV2Router02(ubeswapRouterAddress).getAmountsOut(numberOfTokens, path);\r\n\r\n        return amounts[1];\r\n    }\r\n\r\n    /**\r\n    * @dev Given the target output asset amount, returns the amount of input asset needed\r\n    * @param numberOfTokens Target amount of output asset\r\n    * @param currencyKeyIn Address of the asset to be swap from\r\n    * @param currencyKeyOut Address of the asset to be swap to\r\n    * @return uint Amount out input asset needed\r\n    */\r\n    function getAmountsIn(uint numberOfTokens, address currencyKeyIn, address currencyKeyOut) public view override returns (uint) {\r\n        address assetHandlerAddress = ADDRESS_RESOLVER.getContractAddress(\"AssetHandler\");\r\n        address ubeswapRouterAddress = ADDRESS_RESOLVER.getContractAddress(\"UbeswapRouter\");\r\n        address stableCoinAddress = IAssetHandler(assetHandlerAddress).getStableCoinAddress();\r\n\r\n        require(currencyKeyIn != address(0), \"Invalid currency key in\");\r\n        require(currencyKeyOut != address(0), \"Invalid currency key out\");\r\n        require(IAssetHandler(assetHandlerAddress).isValidAsset(currencyKeyIn) || currencyKeyIn == stableCoinAddress, \"BaseUbeswapAdapter: CurrencyKeyIn is not available\");\r\n        require(IAssetHandler(assetHandlerAddress).isValidAsset(currencyKeyOut) || currencyKeyOut == stableCoinAddress, \"BaseUbeswapAdapter: CurrencyKeyOut is not available\");\r\n        require(numberOfTokens > 0, \"Number of tokens must be greater than 0\");\r\n\r\n        address[] memory path = new address[](2);\r\n        path[0] = currencyKeyIn;\r\n        path[1] = currencyKeyOut;\r\n        uint[] memory amounts = IUniswapV2Router02(ubeswapRouterAddress).getAmountsIn(numberOfTokens, path);\r\n\r\n        return amounts[1];\r\n    }\r\n\r\n    /**\r\n    * @dev Returns the address of each available farm on Ubeswap\r\n    * @return address[] memory The farm address for each available farm\r\n    */\r\n    function getAvailableUbeswapFarms() public view override returns (address[] memory) {\r\n        address ubeswapPoolManagerAddress = ADDRESS_RESOLVER.getContractAddress(\"UbeswapPoolManager\");\r\n\r\n        uint numberOfAvailableFarms = IUbeswapPoolManager(ubeswapPoolManagerAddress).poolsCount();\r\n        address[] memory poolAddresses = new address[](numberOfAvailableFarms);\r\n        address[] memory farmAddresses = new address[](numberOfAvailableFarms);\r\n\r\n        //Get supported LP tokens\r\n        for (uint i = 0; i < numberOfAvailableFarms; i++)\r\n        {\r\n            poolAddresses[i] = IUbeswapPoolManager(ubeswapPoolManagerAddress).poolsByIndex(i);\r\n        }\r\n\r\n        //Get supported farms\r\n        for (uint i = 0; i < numberOfAvailableFarms; i++)\r\n        {\r\n            IUbeswapPoolManager.PoolInfo memory farm = IUbeswapPoolManager(ubeswapPoolManagerAddress).pools(poolAddresses[i]);\r\n            farmAddresses[i] = farm.poolAddress;\r\n        }\r\n\r\n        return farmAddresses;\r\n    }\r\n\r\n    /**\r\n    * @dev Checks whether the given liquidity pair has a farm on Ubeswap\r\n    * @param pair Address of the liquidity pair\r\n    * @return bool Whether the pair has a farm\r\n    */\r\n    function checkIfLPTokenHasFarm(address pair) public view override returns (bool) {\r\n        require(pair != address(0), \"BaseUbeswapAdapter: invalid pair address\");\r\n\r\n        address ubeswapPoolManagerAddress = ADDRESS_RESOLVER.getContractAddress(\"UbeswapPoolManager\");\r\n        IUbeswapPoolManager.PoolInfo memory ubeswapFarm = IUbeswapPoolManager(ubeswapPoolManagerAddress).pools(pair);\r\n\r\n        return (ubeswapFarm.poolAddress != address(0));\r\n    }\r\n\r\n    /**\r\n    * @dev Returns the address of a token pair\r\n    * @param tokenA First token in pair\r\n    * @param tokenB Second token in pair\r\n    * @return address The pair's address\r\n    */\r\n    function getPair(address tokenA, address tokenB) public view override returns (address) {\r\n        require(tokenA != address(0), \"BaseUbeswapAdapter: invalid address for tokenA\");\r\n        require(tokenB != address(0), \"BaseUbeswapAdapter: invalid address for tokenB\");\r\n\r\n        address uniswapV2FactoryAddress = ADDRESS_RESOLVER.getContractAddress(\"UniswapV2Factory\");\r\n\r\n        return IUniswapV2Factory(uniswapV2FactoryAddress).getPair(tokenA, tokenB);\r\n    }\r\n\r\n    /**\r\n    * @dev Returns the amount of UBE rewards available for the pool in the given farm\r\n    * @param poolAddress Address of the pool\r\n    * @param farmAddress Address of the farm on Ubeswap\r\n    * @return uint Amount of UBE available\r\n    */\r\n    function getAvailableRewards(address poolAddress, address farmAddress) public view override returns (uint) {\r\n        require(poolAddress != address(0), \"BaseUbeswapAdapter: invalid pool address\");\r\n\r\n        return IStakingRewards(farmAddress).earned(poolAddress);\r\n    }\r\n\r\n    /**\r\n    * @dev Calculates the amount of tokens in a pair\r\n    * @param tokenA First token in pair\r\n    * @param tokenB Second token in pair\r\n    * @param numberOfLPTokens Number of LP tokens for the given pair\r\n    * @return (uint, uint) The number of tokens for tokenA and tokenB\r\n    */\r\n    function getTokenAmountsFromPair(address tokenA, address tokenB, uint numberOfLPTokens) public view override returns (uint, uint) {\r\n        address pair = getPair(tokenA, tokenB);\r\n        require(pair != address(0), \"BaseUbeswapAdapter: invalid address for pair\");\r\n\r\n        uint pairBalanceTokenA = IERC20(tokenA).balanceOf(pair);\r\n        uint pairBalanceTokenB = IERC20(tokenB).balanceOf(pair);\r\n        uint totalSupply = IERC20(pair).totalSupply();\r\n\r\n        uint amountA = pairBalanceTokenA.mul(numberOfLPTokens).div(totalSupply);\r\n        uint amountB = pairBalanceTokenB.mul(numberOfLPTokens).div(totalSupply);\r\n\r\n        return (amountA, amountB);\r\n    }\r\n\r\n    /* ========== INTERNAL FUNCTIONS ========== */\r\n\r\n    /**\r\n    * @dev Get the decimals of an asset\r\n    * @return number of decimals of the asset\r\n    */\r\n    function _getDecimals(address asset) internal view returns (uint) {\r\n        return IERC20(asset).decimals();\r\n    }\r\n}",
  "sourcePath": "C:/Users/xavie/OneDrive/Desktop/TradeGen/Github/tradegen-protocol/contracts/BaseUbeswapAdapter.sol",
  "compiler": {
    "name": "solc",
    "version": "0.7.6+commit.7338295f.Emscripten.clang"
  },
  "schemaVersion": "3.4.1",
  "updatedAt": "2021-09-26T18:16:47.518Z",
  "devdoc": {
    "kind": "dev",
    "methods": {
      "checkIfLPTokenHasFarm(address)": {
        "details": "Checks whether the given liquidity pair has a farm on Ubeswap",
        "params": {
          "pair": "Address of the liquidity pair"
        },
        "returns": {
          "_0": "bool Whether the pair has a farm"
        }
      },
      "getAmountsIn(uint256,address,address)": {
        "details": "Given the target output asset amount, returns the amount of input asset needed",
        "params": {
          "currencyKeyIn": "Address of the asset to be swap from",
          "currencyKeyOut": "Address of the asset to be swap to",
          "numberOfTokens": "Target amount of output asset"
        },
        "returns": {
          "_0": "uint Amount out input asset needed"
        }
      },
      "getAmountsOut(uint256,address,address)": {
        "details": "Given an input asset amount, returns the maximum output amount of the other asset",
        "params": {
          "currencyKeyIn": "Address of the asset to be swap from",
          "currencyKeyOut": "Address of the asset to be swap to",
          "numberOfTokens": "Number of tokens"
        },
        "returns": {
          "_0": "uint Amount out of the asset"
        }
      },
      "getAvailableRewards(address,address)": {
        "details": "Returns the amount of UBE rewards available for the pool in the given farm",
        "params": {
          "farmAddress": "Address of the farm on Ubeswap",
          "poolAddress": "Address of the pool"
        },
        "returns": {
          "_0": "uint Amount of UBE available"
        }
      },
      "getAvailableUbeswapFarms()": {
        "details": "Returns the address of each available farm on Ubeswap",
        "returns": {
          "_0": "address[] memory The farm address for each available farm"
        }
      },
      "getPair(address,address)": {
        "details": "Returns the address of a token pair",
        "params": {
          "tokenA": "First token in pair",
          "tokenB": "Second token in pair"
        },
        "returns": {
          "_0": "address The pair's address"
        }
      },
      "getPrice(address)": {
        "details": "Given an input asset address, returns the price of the asset in cUSD",
        "params": {
          "currencyKey": "Address of the asset"
        },
        "returns": {
          "_0": "uint Price of the asset"
        }
      },
      "getTokenAmountsFromPair(address,address,uint256)": {
        "details": "Calculates the amount of tokens in a pair",
        "params": {
          "numberOfLPTokens": "Number of LP tokens for the given pair",
          "tokenA": "First token in pair",
          "tokenB": "Second token in pair"
        },
        "returns": {
          "_0": "(uint, uint) The number of tokens for tokenA and tokenB"
        }
      }
    },
    "version": 1
  },
  "userdoc": {
    "kind": "user",
    "methods": {
      "getAmountsOut(uint256,address,address)": {
        "notice": "Assumes numberOfTokens is multiplied by currency's decimals before function call"
      }
    },
    "version": 1
  }
}