{
  "contractName": "BaseUbeswapAdapter",
  "abi": [
    {
      "inputs": [
        {
          "internalType": "contract IAddressResolver",
          "name": "addressResolver",
          "type": "address"
        }
      ],
      "stateMutability": "nonpayable",
      "type": "constructor"
    },
    {
      "anonymous": false,
      "inputs": [
        {
          "indexed": false,
          "internalType": "address",
          "name": "fromAsset",
          "type": "address"
        },
        {
          "indexed": false,
          "internalType": "address",
          "name": "toAsset",
          "type": "address"
        },
        {
          "indexed": false,
          "internalType": "uint256",
          "name": "fromAmount",
          "type": "uint256"
        },
        {
          "indexed": false,
          "internalType": "uint256",
          "name": "receivedAmount",
          "type": "uint256"
        },
        {
          "indexed": false,
          "internalType": "uint256",
          "name": "timestamp",
          "type": "uint256"
        }
      ],
      "name": "Swapped",
      "type": "event"
    },
    {
      "inputs": [],
      "name": "ADDRESS_RESOLVER",
      "outputs": [
        {
          "internalType": "contract IAddressResolver",
          "name": "",
          "type": "address"
        }
      ],
      "stateMutability": "view",
      "type": "function"
    },
    {
      "inputs": [],
      "name": "MAX_SLIPPAGE_PERCENT",
      "outputs": [
        {
          "internalType": "uint256",
          "name": "",
          "type": "uint256"
        }
      ],
      "stateMutability": "view",
      "type": "function"
    },
    {
      "inputs": [
        {
          "internalType": "address",
          "name": "currencyKey",
          "type": "address"
        }
      ],
      "name": "getPrice",
      "outputs": [
        {
          "internalType": "uint256",
          "name": "",
          "type": "uint256"
        }
      ],
      "stateMutability": "view",
      "type": "function"
    },
    {
      "inputs": [
        {
          "internalType": "uint256",
          "name": "numberOfTokens",
          "type": "uint256"
        },
        {
          "internalType": "address",
          "name": "currencyKeyIn",
          "type": "address"
        },
        {
          "internalType": "address",
          "name": "currencyKeyOut",
          "type": "address"
        }
      ],
      "name": "getAmountsOut",
      "outputs": [
        {
          "internalType": "uint256",
          "name": "",
          "type": "uint256"
        }
      ],
      "stateMutability": "view",
      "type": "function"
    },
    {
      "inputs": [
        {
          "internalType": "address",
          "name": "assetToSwapFrom",
          "type": "address"
        },
        {
          "internalType": "address",
          "name": "assetToSwapTo",
          "type": "address"
        },
        {
          "internalType": "uint256",
          "name": "amountToSwap",
          "type": "uint256"
        },
        {
          "internalType": "uint256",
          "name": "minAmountOut",
          "type": "uint256"
        }
      ],
      "name": "swapFromPool",
      "outputs": [
        {
          "internalType": "uint256",
          "name": "",
          "type": "uint256"
        }
      ],
      "stateMutability": "nonpayable",
      "type": "function"
    },
    {
      "inputs": [
        {
          "internalType": "address",
          "name": "assetToSwapFrom",
          "type": "address"
        },
        {
          "internalType": "address",
          "name": "assetToSwapTo",
          "type": "address"
        },
        {
          "internalType": "uint256",
          "name": "amountToSwap",
          "type": "uint256"
        },
        {
          "internalType": "uint256",
          "name": "minAmountOut",
          "type": "uint256"
        }
      ],
      "name": "swapFromBot",
      "outputs": [
        {
          "internalType": "uint256",
          "name": "",
          "type": "uint256"
        }
      ],
      "stateMutability": "nonpayable",
      "type": "function"
    }
  ],
  "bytecode": "0x60a060405234801561001057600080fd5b50604051611d3c380380611d3c8339818101604052602081101561003357600080fd5b81019080805190602001909291905050508073ffffffffffffffffffffffffffffffffffffffff1660808173ffffffffffffffffffffffffffffffffffffffff1660601b815250505060805160601c611c806100bc600039806102af52806103e552806104c65280610a5c5280610a835280610b64528061136f52806115355250611c806000f3fe608060405234801561001057600080fd5b50600436106100625760003560e01c80630838fcb31461006757806332e4b286146100f357806341976e0914610111578063981f3b8e14610169578063baf7fa991461019d578063e5414cd01461021f575b600080fd5b6100dd6004803603608081101561007d57600080fd5b81019080803573ffffffffffffffffffffffffffffffffffffffff169060200190929190803573ffffffffffffffffffffffffffffffffffffffff16906020019092919080359060200190929190803590602001909291905050506102ab565b6040518082815260200191505060405180910390f35b6100fb6103db565b6040518082815260200191505060405180910390f35b6101536004803603602081101561012757600080fd5b81019080803573ffffffffffffffffffffffffffffffffffffffff1690602001909291905050506103e0565b6040518082815260200191505060405180910390f35b610171610a5a565b604051808273ffffffffffffffffffffffffffffffffffffffff16815260200191505060405180910390f35b610209600480360360608110156101b357600080fd5b8101908080359060200190929190803573ffffffffffffffffffffffffffffffffffffffff169060200190929190803573ffffffffffffffffffffffffffffffffffffffff169060200190929190505050610a7e565b6040518082815260200191505060405180910390f35b6102956004803603608081101561023557600080fd5b81019080803573ffffffffffffffffffffffffffffffffffffffff169060200190929190803573ffffffffffffffffffffffffffffffffffffffff169060200190929190803590602001909291908035906020019092919050505061136b565b6040518082815260200191505060405180910390f35b60007f000000000000000000000000000000000000000000000000000000000000000073ffffffffffffffffffffffffffffffffffffffff1663683ad58f336040518263ffffffff1660e01b8152600401808273ffffffffffffffffffffffffffffffffffffffff16815260200191505060206040518083038186803b15801561033457600080fd5b505afa158015610348573d6000803e3d6000fd5b505050506040513d602081101561035e57600080fd5b81019080805190602001909291905050506103c4576040517f08c379a000000000000000000000000000000000000000000000000000000000815260040180806020018281038252602b815260200180611c20602b913960400191505060405180910390fd5b6103d1338686868661149b565b9050949350505050565b600a81565b6000807f000000000000000000000000000000000000000000000000000000000000000073ffffffffffffffffffffffffffffffffffffffff166304433bbc6040518163ffffffff1660e01b81526004018080602001828103825260088152602001807f53657474696e677300000000000000000000000000000000000000000000000081525060200191505060206040518083038186803b15801561048557600080fd5b505afa158015610499573d6000803e3d6000fd5b505050506040513d60208110156104af57600080fd5b8101908080519060200190929190505050905060007f000000000000000000000000000000000000000000000000000000000000000073ffffffffffffffffffffffffffffffffffffffff166304433bbc6040518163ffffffff1660e01b815260040180806020018281038252600d8152602001807f55626573776170526f757465720000000000000000000000000000000000000081525060200191505060206040518083038186803b15801561056657600080fd5b505afa15801561057a573d6000803e3d6000fd5b505050506040513d602081101561059057600080fd5b81019080805190602001909291905050509050600073ffffffffffffffffffffffffffffffffffffffff168473ffffffffffffffffffffffffffffffffffffffff161415610646576040517f08c379a00000000000000000000000000000000000000000000000000000000081526004018080602001828103825260148152602001807f496e76616c69642063757272656e6379206b657900000000000000000000000081525060200191505060405180910390fd5b8173ffffffffffffffffffffffffffffffffffffffff1663571a0885856040518263ffffffff1660e01b8152600401808273ffffffffffffffffffffffffffffffffffffffff16815260200191505060206040518083038186803b1580156106ad57600080fd5b505afa1580156106c1573d6000803e3d6000fd5b505050506040513d60208110156106d757600080fd5b810190808051906020019092919050505061075a576040517f08c379a00000000000000000000000000000000000000000000000000000000081526004018080602001828103825260198152602001807f43757272656e6379206973206e6f7420617661696c61626c650000000000000081525060200191505060405180910390fd5b60008273ffffffffffffffffffffffffffffffffffffffff1663be781b1c6040518163ffffffff1660e01b815260040160206040518083038186803b1580156107a257600080fd5b505afa1580156107b6573d6000803e3d6000fd5b505050506040513d60208110156107cc57600080fd5b810190808051906020019092919050505090506060600267ffffffffffffffff811180156107f957600080fd5b506040519080825280602002602001820160405280156108285781602001602082028036833780820191505090505b509050858160008151811061083957fe5b602002602001019073ffffffffffffffffffffffffffffffffffffffff16908173ffffffffffffffffffffffffffffffffffffffff1681525050818160018151811061088157fe5b602002602001019073ffffffffffffffffffffffffffffffffffffffff16908173ffffffffffffffffffffffffffffffffffffffff168152505060608373ffffffffffffffffffffffffffffffffffffffff1663d06ca61f6108e289611ac2565b600a0a846040518363ffffffff1660e01b81526004018083815260200180602001828103825283818151815260200191508051906020019060200280838360005b8381101561093e578082015181840152602081019050610923565b50505050905001935050505060006040518083038186803b15801561096257600080fd5b505afa158015610976573d6000803e3d6000fd5b505050506040513d6000823e3d601f19601f8201168201806040525060208110156109a057600080fd5b81019080805160405193929190846401000000008211156109c057600080fd5b838201915060208201858111156109d657600080fd5b82518660208202830111640100000000821117156109f357600080fd5b8083526020830192505050908051906020019060200280838360005b83811015610a2a578082015181840152602081019050610a0f565b50505050905001604052505050905080600181518110610a4657fe5b602002602001015195505050505050919050565b7f000000000000000000000000000000000000000000000000000000000000000081565b6000807f000000000000000000000000000000000000000000000000000000000000000073ffffffffffffffffffffffffffffffffffffffff166304433bbc6040518163ffffffff1660e01b81526004018080602001828103825260088152602001807f53657474696e677300000000000000000000000000000000000000000000000081525060200191505060206040518083038186803b158015610b2357600080fd5b505afa158015610b37573d6000803e3d6000fd5b505050506040513d6020811015610b4d57600080fd5b8101908080519060200190929190505050905060007f000000000000000000000000000000000000000000000000000000000000000073ffffffffffffffffffffffffffffffffffffffff166304433bbc6040518163ffffffff1660e01b815260040180806020018281038252600d8152602001807f55626573776170526f757465720000000000000000000000000000000000000081525060200191505060206040518083038186803b158015610c0457600080fd5b505afa158015610c18573d6000803e3d6000fd5b505050506040513d6020811015610c2e57600080fd5b8101908080519060200190929190505050905060008273ffffffffffffffffffffffffffffffffffffffff1663be781b1c6040518163ffffffff1660e01b815260040160206040518083038186803b158015610c8957600080fd5b505afa158015610c9d573d6000803e3d6000fd5b505050506040513d6020811015610cb357600080fd5b81019080805190602001909291905050509050600073ffffffffffffffffffffffffffffffffffffffff168673ffffffffffffffffffffffffffffffffffffffff161415610d69576040517f08c379a00000000000000000000000000000000000000000000000000000000081526004018080602001828103825260178152602001807f496e76616c69642063757272656e6379206b657920696e00000000000000000081525060200191505060405180910390fd5b600073ffffffffffffffffffffffffffffffffffffffff168573ffffffffffffffffffffffffffffffffffffffff161415610e0c576040517f08c379a00000000000000000000000000000000000000000000000000000000081526004018080602001828103825260188152602001807f496e76616c69642063757272656e6379206b6579206f7574000000000000000081525060200191505060405180910390fd5b8273ffffffffffffffffffffffffffffffffffffffff1663571a0885876040518263ffffffff1660e01b8152600401808273ffffffffffffffffffffffffffffffffffffffff16815260200191505060206040518083038186803b158015610e7357600080fd5b505afa158015610e87573d6000803e3d6000fd5b505050506040513d6020811015610e9d57600080fd5b810190808051906020019092919050505080610ee457508073ffffffffffffffffffffffffffffffffffffffff168673ffffffffffffffffffffffffffffffffffffffff16145b610f56576040517f08c379a00000000000000000000000000000000000000000000000000000000081526004018080602001828103825260198152602001807f43757272656e6379206973206e6f7420617661696c61626c650000000000000081525060200191505060405180910390fd5b8273ffffffffffffffffffffffffffffffffffffffff1663571a0885866040518263ffffffff1660e01b8152600401808273ffffffffffffffffffffffffffffffffffffffff16815260200191505060206040518083038186803b158015610fbd57600080fd5b505afa158015610fd1573d6000803e3d6000fd5b505050506040513d6020811015610fe757600080fd5b81019080805190602001909291905050508061102e57508073ffffffffffffffffffffffffffffffffffffffff168573ffffffffffffffffffffffffffffffffffffffff16145b6110a0576040517f08c379a00000000000000000000000000000000000000000000000000000000081526004018080602001828103825260198152602001807f43757272656e6379206973206e6f7420617661696c61626c650000000000000081525060200191505060405180910390fd5b600087116110f9576040517f08c379a0000000000000000000000000000000000000000000000000000000008152600401808060200182810382526027815260200180611bf96027913960400191505060405180910390fd5b6060600267ffffffffffffffff8111801561111357600080fd5b506040519080825280602002602001820160405280156111425781602001602082028036833780820191505090505b509050868160008151811061115357fe5b602002602001019073ffffffffffffffffffffffffffffffffffffffff16908173ffffffffffffffffffffffffffffffffffffffff1681525050858160018151811061119b57fe5b602002602001019073ffffffffffffffffffffffffffffffffffffffff16908173ffffffffffffffffffffffffffffffffffffffff168152505060608373ffffffffffffffffffffffffffffffffffffffff1663d06ca61f8a846040518363ffffffff1660e01b81526004018083815260200180602001828103825283818151815260200191508051906020019060200280838360005b8381101561124d578082015181840152602081019050611232565b50505050905001935050505060006040518083038186803b15801561127157600080fd5b505afa158015611285573d6000803e3d6000fd5b505050506040513d6000823e3d601f19601f8201168201806040525060208110156112af57600080fd5b81019080805160405193929190846401000000008211156112cf57600080fd5b838201915060208201858111156112e557600080fd5b825186602082028301116401000000008211171561130257600080fd5b8083526020830192505050908051906020019060200280838360005b8381101561133957808201518184015260208101905061131e565b5050505090500160405250505090508060018151811061135557fe5b6020026020010151955050505050509392505050565b60007f000000000000000000000000000000000000000000000000000000000000000073ffffffffffffffffffffffffffffffffffffffff1663e51f8aba336040518263ffffffff1660e01b8152600401808273ffffffffffffffffffffffffffffffffffffffff16815260200191505060206040518083038186803b1580156113f457600080fd5b505afa158015611408573d6000803e3d6000fd5b505050506040513d602081101561141e57600080fd5b8101908080519060200190929190505050611484576040517f08c379a0000000000000000000000000000000000000000000000000000000008152600401808060200182810382526024815260200180611bd56024913960400191505060405180910390fd5b611491338686868661149b565b9050949350505050565b6000806114a9848787610a7e565b905060006114d760646114c9600a60640385611b4f90919063ffffffff16565b611b8690919063ffffffff16565b9050838110611531576040517f08c379a0000000000000000000000000000000000000000000000000000000008152600401808060200182810382526035815260200180611ba06035913960400191505060405180910390fd5b60007f000000000000000000000000000000000000000000000000000000000000000073ffffffffffffffffffffffffffffffffffffffff166304433bbc6040518163ffffffff1660e01b815260040180806020018281038252600d8152602001807f55626573776170526f757465720000000000000000000000000000000000000081525060200191505060206040518083038186803b1580156115d557600080fd5b505afa1580156115e9573d6000803e3d6000fd5b505050506040513d60208110156115ff57600080fd5b810190808051906020019092919050505090508773ffffffffffffffffffffffffffffffffffffffff1663095ea7b38260006040518363ffffffff1660e01b8152600401808373ffffffffffffffffffffffffffffffffffffffff16815260200182815260200192505050602060405180830381600087803b15801561168457600080fd5b505af1158015611698573d6000803e3d6000fd5b505050506040513d60208110156116ae57600080fd5b8101908080519060200190929190505050508773ffffffffffffffffffffffffffffffffffffffff1663095ea7b382886040518363ffffffff1660e01b8152600401808373ffffffffffffffffffffffffffffffffffffffff16815260200182815260200192505050602060405180830381600087803b15801561173157600080fd5b505af1158015611745573d6000803e3d6000fd5b505050506040513d602081101561175b57600080fd5b8101908080519060200190929190505050506060600267ffffffffffffffff8111801561178757600080fd5b506040519080825280602002602001820160405280156117b65781602001602082028036833780820191505090505b50905088816000815181106117c757fe5b602002602001019073ffffffffffffffffffffffffffffffffffffffff16908173ffffffffffffffffffffffffffffffffffffffff1681525050878160018151811061180f57fe5b602002602001019073ffffffffffffffffffffffffffffffffffffffff16908173ffffffffffffffffffffffffffffffffffffffff168152505060608273ffffffffffffffffffffffffffffffffffffffff166338ed17398989858f426040518663ffffffff1660e01b815260040180868152602001858152602001806020018473ffffffffffffffffffffffffffffffffffffffff168152602001838152602001828103825285818151815260200191508051906020019060200280838360005b838110156118ec5780820151818401526020810190506118d1565b505050509050019650505050505050600060405180830381600087803b15801561191557600080fd5b505af1158015611929573d6000803e3d6000fd5b505050506040513d6000823e3d601f19601f82011682018060405250602081101561195357600080fd5b810190808051604051939291908464010000000082111561197357600080fd5b8382019150602082018581111561198957600080fd5b82518660208202830111640100000000821117156119a657600080fd5b8083526020830192505050908051906020019060200280838360005b838110156119dd5780820151818401526020810190506119c2565b5050505090500160405250505090507fa54201e99d8e1488291e015a3af88c7a169bcf4932617ecd9536e1f1ad4351108a8a83600081518110611a1c57fe5b602002602001015184600186510381518110611a3457fe5b602002602001015142604051808673ffffffffffffffffffffffffffffffffffffffff1681526020018573ffffffffffffffffffffffffffffffffffffffff1681526020018481526020018381526020018281526020019550505050505060405180910390a180600182510381518110611aaa57fe5b60200260200101519550505050505095945050505050565b60008173ffffffffffffffffffffffffffffffffffffffff1663313ce5676040518163ffffffff1660e01b815260040160206040518083038186803b158015611b0a57600080fd5b505afa158015611b1e573d6000803e3d6000fd5b505050506040513d6020811015611b3457600080fd5b810190808051906020019092919050505060ff169050919050565b600080831415611b625760009050611b80565b6000828402905082848281611b7357fe5b0414611b7b57fe5b809150505b92915050565b600080828481611b9257fe5b049050809150509291505056fe4261736555626573776170416461707465723a206d696e416d6f756e744f75742065786365656473206d617820736c6970706167654f6e6c792074686520706f6f6c2063616e2063616c6c20746869732066756e6374696f6e4e756d626572206f6620746f6b656e73206d7573742062652067726561746572207468616e20304f6e6c79207468652074726164696e6720626f742063616e2063616c6c20746869732066756e6374696f6ea2646970667358221220e183dbc03941f172923811eb4dadf286f39751ef75114099855142aaedff53f364736f6c634300060c0033",
  "immutableReferences": {
    "18": [
      {
        "length": 32,
        "start": 687
      },
      {
        "length": 32,
        "start": 997
      },
      {
        "length": 32,
        "start": 1222
      },
      {
        "length": 32,
        "start": 2652
      },
      {
        "length": 32,
        "start": 2691
      },
      {
        "length": 32,
        "start": 2916
      },
      {
        "length": 32,
        "start": 4975
      },
      {
        "length": 32,
        "start": 5429
      }
    ]
  },
  "source": "pragma solidity >=0.5.0;\r\n\r\n//Interfaces\r\nimport './interfaces/IUniswapV2Router02.sol';\r\nimport './interfaces/IERC20.sol';\r\nimport './interfaces/ISettings.sol';\r\nimport './interfaces/IAddressResolver.sol';\r\nimport './interfaces/IBaseUbeswapAdapter.sol';\r\n\r\n//Libraries\r\nimport './libraries/SafeMath.sol';\r\n\r\ncontract BaseUbeswapAdapter is IBaseUbeswapAdapter {\r\n    using SafeMath for uint;\r\n\r\n    // Max slippage percent allowed\r\n    uint public constant override MAX_SLIPPAGE_PERCENT = 10; //10% slippage\r\n\r\n    IAddressResolver public immutable ADDRESS_RESOLVER;\r\n\r\n    constructor(IAddressResolver addressResolver) public {\r\n        ADDRESS_RESOLVER = addressResolver;\r\n    }\r\n\r\n    /* ========== VIEWS ========== */\r\n\r\n    /**\r\n    * @dev Given an input asset address, returns the price of the asset in cUSD\r\n    * @param currencyKey Address of the asset\r\n    * @return uint Price of the asset\r\n    */\r\n    function getPrice(address currencyKey) public view override returns(uint) {\r\n        address settingsAddress = ADDRESS_RESOLVER.getContractAddress(\"Settings\");\r\n        address ubeswapRouterAddress = ADDRESS_RESOLVER.getContractAddress(\"UbeswapRouter\");\r\n\r\n        require(currencyKey != address(0), \"Invalid currency key\");\r\n        require(ISettings(settingsAddress).checkIfCurrencyIsAvailable(currencyKey), \"Currency is not available\");\r\n\r\n        address stableCoinAddress = ISettings(settingsAddress).getStableCoinAddress();\r\n        address[] memory path = new address[](2);\r\n        path[0] = currencyKey;\r\n        path[1] = stableCoinAddress;\r\n\r\n        uint[] memory amounts = IUniswapV2Router02(ubeswapRouterAddress).getAmountsOut(10 ** _getDecimals(currencyKey), path); // 1 token -> cUSD\r\n\r\n        return amounts[1];\r\n    }\r\n\r\n    /**\r\n    * @dev Given an input asset amount, returns the maximum output amount of the other asset\r\n    * @notice Assumes numberOfTokens is multiplied by currency's decimals before function call\r\n    * @param numberOfTokens Number of tokens\r\n    * @param currencyKeyIn Address of the asset to be swap from\r\n    * @param currencyKeyOut Address of the asset to be swap to\r\n    * @return uint Amount out of the asset\r\n    */\r\n    function getAmountsOut(uint numberOfTokens, address currencyKeyIn, address currencyKeyOut) public view override returns (uint) {\r\n        address settingsAddress = ADDRESS_RESOLVER.getContractAddress(\"Settings\");\r\n        address ubeswapRouterAddress = ADDRESS_RESOLVER.getContractAddress(\"UbeswapRouter\");\r\n        address stableCoinAddress = ISettings(settingsAddress).getStableCoinAddress();\r\n\r\n        require(currencyKeyIn != address(0), \"Invalid currency key in\");\r\n        require(currencyKeyOut != address(0), \"Invalid currency key out\");\r\n        require(ISettings(settingsAddress).checkIfCurrencyIsAvailable(currencyKeyIn) || currencyKeyIn == stableCoinAddress, \"Currency is not available\");\r\n        require(ISettings(settingsAddress).checkIfCurrencyIsAvailable(currencyKeyOut) || currencyKeyOut == stableCoinAddress, \"Currency is not available\");\r\n        require(numberOfTokens > 0, \"Number of tokens must be greater than 0\");\r\n\r\n        address[] memory path = new address[](2);\r\n        path[0] = currencyKeyIn;\r\n        path[1] = currencyKeyOut;\r\n        uint[] memory amounts = IUniswapV2Router02(ubeswapRouterAddress).getAmountsOut(numberOfTokens, path);\r\n\r\n        return amounts[1];\r\n    }\r\n\r\n    /* ========== RESTRICTED FUNCTIONS ========== */\r\n\r\n    /**\r\n    * @dev Swaps an exact `amountToSwap` of an asset to another; meant to be called from a user pool\r\n    * @param assetToSwapFrom Origin asset\r\n    * @param assetToSwapTo Destination asset\r\n    * @param amountToSwap Exact amount of `assetToSwapFrom` to be swapped\r\n    * @param minAmountOut the min amount of `assetToSwapTo` to be received from the swap\r\n    * @return the number of tokens received\r\n    */\r\n    function swapFromPool(address assetToSwapFrom, address assetToSwapTo, uint amountToSwap, uint minAmountOut) public override returns (uint) {\r\n        require(ADDRESS_RESOLVER.checkIfPoolAddressIsValid(msg.sender), \"Only the pool can call this function\");\r\n\r\n        return _swapExactTokensForTokens(msg.sender, assetToSwapFrom, assetToSwapTo, amountToSwap, minAmountOut);\r\n    }\r\n\r\n    /**\r\n    * @dev Swaps an exact `amountToSwap` of an asset to another; meant to be called from a trading bot\r\n    * @param assetToSwapFrom Origin asset\r\n    * @param assetToSwapTo Destination asset\r\n    * @param amountToSwap Exact amount of `assetToSwapFrom` to be swapped\r\n    * @param minAmountOut the min amount of `assetToSwapTo` to be received from the swap\r\n    * @return the number of tokens received\r\n    */\r\n    function swapFromBot(address assetToSwapFrom, address assetToSwapTo, uint amountToSwap, uint minAmountOut) public override returns (uint) {\r\n        require(ADDRESS_RESOLVER.checkIfTradingBotAddressIsValid(msg.sender), \"Only the trading bot can call this function\");\r\n\r\n        return _swapExactTokensForTokens(msg.sender, assetToSwapFrom, assetToSwapTo, amountToSwap, minAmountOut);\r\n    }\r\n\r\n    /* ========== INTERNAL FUNCTIONS ========== */\r\n\r\n    /**\r\n    * @dev Swaps an exact `amountToSwap` of an asset to another\r\n    * @notice Assumes amountToSwap is multiplied by currency's decimals before function call\r\n    * @param addressToSwapFrom the pool or bot that is making the swap\r\n    * @param assetToSwapFrom Origin asset\r\n    * @param assetToSwapTo Destination asset\r\n    * @param amountToSwap Exact amount of `assetToSwapFrom` to be swapped\r\n    * @param minAmountOut the min amount of `assetToSwapTo` to be received from the swap\r\n    * @return the amount of tokens received\r\n    */\r\n    function _swapExactTokensForTokens(address addressToSwapFrom, address assetToSwapFrom, address assetToSwapTo, uint amountToSwap, uint minAmountOut) internal returns (uint) {\r\n        uint amountOut = getAmountsOut(amountToSwap, assetToSwapFrom, assetToSwapTo);\r\n        uint expectedMinAmountOut = amountOut.mul(100 - MAX_SLIPPAGE_PERCENT).div(100);\r\n\r\n        require(expectedMinAmountOut < minAmountOut, 'BaseUbeswapAdapter: minAmountOut exceeds max slippage');\r\n\r\n        address ubeswapRouterAddress = ADDRESS_RESOLVER.getContractAddress(\"UbeswapRouter\");\r\n\r\n        // Approves the transfer for the swap. Approves for 0 first to comply with tokens that implement the anti frontrunning approval fix.\r\n        IERC20(assetToSwapFrom).approve(ubeswapRouterAddress, 0);\r\n        IERC20(assetToSwapFrom).approve(ubeswapRouterAddress, amountToSwap);\r\n\r\n        address[] memory path;\r\n        path = new address[](2);\r\n        path[0] = assetToSwapFrom;\r\n        path[1] = assetToSwapTo;\r\n\r\n        uint[] memory amounts = IUniswapV2Router02(ubeswapRouterAddress).swapExactTokensForTokens(amountToSwap, minAmountOut, path, addressToSwapFrom, block.timestamp);\r\n\r\n        emit Swapped(assetToSwapFrom, assetToSwapTo, amounts[0], amounts[amounts.length - 1], block.timestamp);\r\n\r\n        return amounts[amounts.length - 1];\r\n    }\r\n\r\n    /**\r\n    * @dev Get the decimals of an asset\r\n    * @return number of decimals of the asset\r\n    */\r\n    function _getDecimals(address asset) internal view returns (uint) {\r\n        return IERC20(asset).decimals();\r\n    }\r\n\r\n    /* ========== EVENTS ========== */\r\n\r\n    event Swapped(address fromAsset, address toAsset, uint fromAmount, uint receivedAmount, uint timestamp);\r\n}",
  "sourcePath": "C:/Users/xavie/OneDrive/Desktop/TradeGen/Github/tradegen/contracts/BaseUbeswapAdapter.sol",
  "compiler": {
    "name": "solc",
    "version": "0.6.12+commit.27d51765.Emscripten.clang"
  },
  "schemaVersion": "3.4.1",
  "updatedAt": "2021-07-12T20:56:24.076Z",
  "devdoc": {
    "kind": "dev",
    "methods": {
      "getAmountsOut(uint256,address,address)": {
        "details": "Given an input asset amount, returns the maximum output amount of the other asset",
        "params": {
          "currencyKeyIn": "Address of the asset to be swap from",
          "currencyKeyOut": "Address of the asset to be swap to",
          "numberOfTokens": "Number of tokens"
        },
        "returns": {
          "_0": "uint Amount out of the asset"
        }
      },
      "getPrice(address)": {
        "details": "Given an input asset address, returns the price of the asset in cUSD",
        "params": {
          "currencyKey": "Address of the asset"
        },
        "returns": {
          "_0": "uint Price of the asset"
        }
      },
      "swapFromBot(address,address,uint256,uint256)": {
        "details": "Swaps an exact `amountToSwap` of an asset to another; meant to be called from a trading bot",
        "params": {
          "amountToSwap": "Exact amount of `assetToSwapFrom` to be swapped",
          "assetToSwapFrom": "Origin asset",
          "assetToSwapTo": "Destination asset",
          "minAmountOut": "the min amount of `assetToSwapTo` to be received from the swap"
        },
        "returns": {
          "_0": "the number of tokens received"
        }
      },
      "swapFromPool(address,address,uint256,uint256)": {
        "details": "Swaps an exact `amountToSwap` of an asset to another; meant to be called from a user pool",
        "params": {
          "amountToSwap": "Exact amount of `assetToSwapFrom` to be swapped",
          "assetToSwapFrom": "Origin asset",
          "assetToSwapTo": "Destination asset",
          "minAmountOut": "the min amount of `assetToSwapTo` to be received from the swap"
        },
        "returns": {
          "_0": "the number of tokens received"
        }
      }
    },
    "version": 1
  },
  "userdoc": {
    "kind": "user",
    "methods": {
      "getAmountsOut(uint256,address,address)": {
        "notice": "Assumes numberOfTokens is multiplied by currency's decimals before function call"
      }
    },
    "version": 1
  }
}