{
  "contractName": "BaseUbeswapAdapter",
  "abi": [
    {
      "inputs": [
        {
          "internalType": "contract IAddressResolver",
          "name": "addressResolver",
          "type": "address"
        }
      ],
      "stateMutability": "nonpayable",
      "type": "constructor"
    },
    {
      "inputs": [],
      "name": "ADDRESS_RESOLVER",
      "outputs": [
        {
          "internalType": "contract IAddressResolver",
          "name": "",
          "type": "address"
        }
      ],
      "stateMutability": "view",
      "type": "function"
    },
    {
      "inputs": [],
      "name": "MAX_SLIPPAGE_PERCENT",
      "outputs": [
        {
          "internalType": "uint256",
          "name": "",
          "type": "uint256"
        }
      ],
      "stateMutability": "view",
      "type": "function"
    },
    {
      "inputs": [
        {
          "internalType": "address",
          "name": "currencyKey",
          "type": "address"
        }
      ],
      "name": "getPrice",
      "outputs": [
        {
          "internalType": "uint256",
          "name": "",
          "type": "uint256"
        }
      ],
      "stateMutability": "view",
      "type": "function"
    },
    {
      "inputs": [
        {
          "internalType": "uint256",
          "name": "numberOfTokens",
          "type": "uint256"
        },
        {
          "internalType": "address",
          "name": "currencyKeyIn",
          "type": "address"
        },
        {
          "internalType": "address",
          "name": "currencyKeyOut",
          "type": "address"
        }
      ],
      "name": "getAmountsOut",
      "outputs": [
        {
          "internalType": "uint256",
          "name": "",
          "type": "uint256"
        }
      ],
      "stateMutability": "view",
      "type": "function"
    },
    {
      "inputs": [
        {
          "internalType": "uint256",
          "name": "numberOfTokens",
          "type": "uint256"
        },
        {
          "internalType": "address",
          "name": "currencyKeyIn",
          "type": "address"
        },
        {
          "internalType": "address",
          "name": "currencyKeyOut",
          "type": "address"
        }
      ],
      "name": "getAmountsIn",
      "outputs": [
        {
          "internalType": "uint256",
          "name": "",
          "type": "uint256"
        }
      ],
      "stateMutability": "view",
      "type": "function"
    },
    {
      "inputs": [],
      "name": "getAvailableUbeswapFarms",
      "outputs": [
        {
          "internalType": "address[]",
          "name": "",
          "type": "address[]"
        }
      ],
      "stateMutability": "view",
      "type": "function"
    },
    {
      "inputs": [
        {
          "internalType": "address",
          "name": "pair",
          "type": "address"
        }
      ],
      "name": "checkIfLPTokenHasFarm",
      "outputs": [
        {
          "internalType": "bool",
          "name": "",
          "type": "bool"
        }
      ],
      "stateMutability": "view",
      "type": "function"
    },
    {
      "inputs": [
        {
          "internalType": "address",
          "name": "farm",
          "type": "address"
        }
      ],
      "name": "checkIfFarmExists",
      "outputs": [
        {
          "internalType": "address",
          "name": "",
          "type": "address"
        }
      ],
      "stateMutability": "view",
      "type": "function"
    },
    {
      "inputs": [
        {
          "internalType": "address",
          "name": "tokenA",
          "type": "address"
        },
        {
          "internalType": "address",
          "name": "tokenB",
          "type": "address"
        }
      ],
      "name": "getPair",
      "outputs": [
        {
          "internalType": "address",
          "name": "",
          "type": "address"
        }
      ],
      "stateMutability": "view",
      "type": "function"
    },
    {
      "inputs": [
        {
          "internalType": "address",
          "name": "poolAddress",
          "type": "address"
        },
        {
          "internalType": "address",
          "name": "farmAddress",
          "type": "address"
        }
      ],
      "name": "getAvailableRewards",
      "outputs": [
        {
          "internalType": "uint256",
          "name": "",
          "type": "uint256"
        }
      ],
      "stateMutability": "view",
      "type": "function"
    },
    {
      "inputs": [
        {
          "internalType": "address",
          "name": "tokenA",
          "type": "address"
        },
        {
          "internalType": "address",
          "name": "tokenB",
          "type": "address"
        },
        {
          "internalType": "uint256",
          "name": "numberOfLPTokens",
          "type": "uint256"
        }
      ],
      "name": "getTokenAmountsFromPair",
      "outputs": [
        {
          "internalType": "uint256",
          "name": "",
          "type": "uint256"
        },
        {
          "internalType": "uint256",
          "name": "",
          "type": "uint256"
        }
      ],
      "stateMutability": "view",
      "type": "function"
    }
  ],
  "bytecode": "0x60a06040523480156200001157600080fd5b50604051620032493803806200324983398181016040528101906200003791906200008c565b8073ffffffffffffffffffffffffffffffffffffffff1660808173ffffffffffffffffffffffffffffffffffffffff1660601b81525050506200011a565b600081519050620000868162000100565b92915050565b6000602082840312156200009f57600080fd5b6000620000af8482850162000075565b91505092915050565b6000620000c582620000e0565b9050919050565b6000620000d982620000b8565b9050919050565b600073ffffffffffffffffffffffffffffffffffffffff82169050919050565b6200010b81620000cc565b81146200011757600080fd5b50565b60805160601c6130e46200016560003980610403528061057a52806106255280610b655280610b8c5280610c37528061121752806112c25280611b265280611fc152506130e46000f3fe608060405234801561001057600080fd5b50600436106100a85760003560e01c8063981f3b8e11610071578063981f3b8e1461018b578063baf7fa99146101a9578063cdf58cd6146101d9578063d87fc14914610209578063e1f6e5bb1461023a578063e6a4390514610258576100a8565b80629e78be146100ad57806332e4b286146100dd5780633afba4a6146100fb57806341976e091461012b57806381ef421f1461015b575b600080fd5b6100c760048036038101906100c291906123c4565b610288565b6040516100d49190612ebc565b60405180910390f35b6100e5610389565b6040516100f29190612ebc565b60405180910390f35b61011560048036038101906101109190612372565b61038e565b6040516101229190612c66565b60405180910390f35b61014560048036038101906101409190612372565b610575565b6040516101529190612ebc565b60405180910390f35b61017560048036038101906101709190612372565b610a6d565b6040516101829190612c00565b60405180910390f35b610193610b63565b6040516101a09190612c81565b60405180910390f35b6101c360048036038101906101be919061250b565b610b87565b6040516101d09190612ebc565b60405180910390f35b6101f360048036038101906101ee919061250b565b611212565b6040516102009190612ebc565b60405180910390f35b610223600480360381019061021e9190612400565b61189d565b604051610231929190612f07565b60405180910390f35b610242611b20565b60405161024f9190612c44565b60405180910390f35b610272600480360381019061026d91906123c4565b611edc565b60405161027f9190612c00565b60405180910390f35b60008073ffffffffffffffffffffffffffffffffffffffff168373ffffffffffffffffffffffffffffffffffffffff1614156102f9576040517f08c379a00000000000000000000000000000000000000000000000000000000081526004016102f090612cdc565b60405180910390fd5b8173ffffffffffffffffffffffffffffffffffffffff16628cc262846040518263ffffffff1660e01b81526004016103319190612c00565b60206040518083038186803b15801561034957600080fd5b505afa15801561035d573d6000803e3d6000fd5b505050506040513d601f19601f8201168201806040525081019061038191906124e2565b905092915050565b600a81565b60008073ffffffffffffffffffffffffffffffffffffffff168273ffffffffffffffffffffffffffffffffffffffff1614156103ff576040517f08c379a00000000000000000000000000000000000000000000000000000000081526004016103f690612e9c565b60405180910390fd5b60007f000000000000000000000000000000000000000000000000000000000000000073ffffffffffffffffffffffffffffffffffffffff166304433bbc6040518163ffffffff1660e01b815260040161045890612dfc565b60206040518083038186803b15801561047057600080fd5b505afa158015610484573d6000803e3d6000fd5b505050506040513d601f19601f820116820180604052508101906104a8919061239b565b905060008173ffffffffffffffffffffffffffffffffffffffff1663a4063dbc856040518263ffffffff1660e01b81526004016104e59190612c00565b60a06040518083038186803b1580156104fd57600080fd5b505afa158015610511573d6000803e3d6000fd5b505050506040513d601f19601f8201168201806040525081019061053591906124b9565b9050600073ffffffffffffffffffffffffffffffffffffffff16816040015173ffffffffffffffffffffffffffffffffffffffff16141592505050919050565b6000807f000000000000000000000000000000000000000000000000000000000000000073ffffffffffffffffffffffffffffffffffffffff166304433bbc6040518163ffffffff1660e01b81526004016105cf90612e1c565b60206040518083038186803b1580156105e757600080fd5b505afa1580156105fb573d6000803e3d6000fd5b505050506040513d601f19601f8201168201806040525081019061061f919061239b565b905060007f000000000000000000000000000000000000000000000000000000000000000073ffffffffffffffffffffffffffffffffffffffff166304433bbc6040518163ffffffff1660e01b815260040161067a90612d5c565b60206040518083038186803b15801561069257600080fd5b505afa1580156106a6573d6000803e3d6000fd5b505050506040513d601f19601f820116820180604052508101906106ca919061239b565b905060008273ffffffffffffffffffffffffffffffffffffffff1663be781b1c6040518163ffffffff1660e01b815260040160206040518083038186803b15801561071457600080fd5b505afa158015610728573d6000803e3d6000fd5b505050506040513d601f19601f8201168201806040525081019061074c919061239b565b90508073ffffffffffffffffffffffffffffffffffffffff168573ffffffffffffffffffffffffffffffffffffffff1614156107985761078b856120fc565b600a0a9350505050610a68565b600073ffffffffffffffffffffffffffffffffffffffff168573ffffffffffffffffffffffffffffffffffffffff161415610808576040517f08c379a00000000000000000000000000000000000000000000000000000000081526004016107ff90612d1c565b60405180910390fd5b8273ffffffffffffffffffffffffffffffffffffffff1663cc435bf3866040518263ffffffff1660e01b81526004016108419190612c00565b60206040518083038186803b15801561085957600080fd5b505afa15801561086d573d6000803e3d6000fd5b505050506040513d601f19601f820116820180604052508101906108919190612490565b6108d0576040517f08c379a00000000000000000000000000000000000000000000000000000000081526004016108c790612c9c565b60405180910390fd5b6000600267ffffffffffffffff811180156108ea57600080fd5b506040519080825280602002602001820160405280156109195781602001602082028036833780820191505090505b509050858160008151811061092a57fe5b602002602001019073ffffffffffffffffffffffffffffffffffffffff16908173ffffffffffffffffffffffffffffffffffffffff1681525050818160018151811061097257fe5b602002602001019073ffffffffffffffffffffffffffffffffffffffff16908173ffffffffffffffffffffffffffffffffffffffff168152505060008373ffffffffffffffffffffffffffffffffffffffff1663d06ca61f6109d3896120fc565b600a0a846040518363ffffffff1660e01b81526004016109f4929190612ed7565b60006040518083038186803b158015610a0c57600080fd5b505afa158015610a20573d6000803e3d6000fd5b505050506040513d6000823e3d601f19601f82011682018060405250810190610a49919061244f565b905080600181518110610a5857fe5b6020026020010151955050505050505b919050565b60008073ffffffffffffffffffffffffffffffffffffffff168273ffffffffffffffffffffffffffffffffffffffff161415610ade576040517f08c379a0000000000000000000000000000000000000000000000000000000008152600401610ad590612cfc565b60405180910390fd5b8173ffffffffffffffffffffffffffffffffffffffff166372f702f36040518163ffffffff1660e01b815260040160206040518083038186803b158015610b2457600080fd5b505afa158015610b38573d6000803e3d6000fd5b505050506040513d601f19601f82011682018060405250810190610b5c919061239b565b9050919050565b7f000000000000000000000000000000000000000000000000000000000000000081565b6000807f000000000000000000000000000000000000000000000000000000000000000073ffffffffffffffffffffffffffffffffffffffff166304433bbc6040518163ffffffff1660e01b8152600401610be190612e1c565b60206040518083038186803b158015610bf957600080fd5b505afa158015610c0d573d6000803e3d6000fd5b505050506040513d601f19601f82011682018060405250810190610c31919061239b565b905060007f000000000000000000000000000000000000000000000000000000000000000073ffffffffffffffffffffffffffffffffffffffff166304433bbc6040518163ffffffff1660e01b8152600401610c8c90612d5c565b60206040518083038186803b158015610ca457600080fd5b505afa158015610cb8573d6000803e3d6000fd5b505050506040513d601f19601f82011682018060405250810190610cdc919061239b565b905060008273ffffffffffffffffffffffffffffffffffffffff1663be781b1c6040518163ffffffff1660e01b815260040160206040518083038186803b158015610d2657600080fd5b505afa158015610d3a573d6000803e3d6000fd5b505050506040513d601f19601f82011682018060405250810190610d5e919061239b565b9050600073ffffffffffffffffffffffffffffffffffffffff168673ffffffffffffffffffffffffffffffffffffffff161415610dd0576040517f08c379a0000000000000000000000000000000000000000000000000000000008152600401610dc790612ddc565b60405180910390fd5b600073ffffffffffffffffffffffffffffffffffffffff168573ffffffffffffffffffffffffffffffffffffffff161415610e40576040517f08c379a0000000000000000000000000000000000000000000000000000000008152600401610e3790612e7c565b60405180910390fd5b8273ffffffffffffffffffffffffffffffffffffffff1663cc435bf3876040518263ffffffff1660e01b8152600401610e799190612c00565b60206040518083038186803b158015610e9157600080fd5b505afa158015610ea5573d6000803e3d6000fd5b505050506040513d601f19601f82011682018060405250810190610ec99190612490565b80610eff57508073ffffffffffffffffffffffffffffffffffffffff168673ffffffffffffffffffffffffffffffffffffffff16145b610f3e576040517f08c379a0000000000000000000000000000000000000000000000000000000008152600401610f3590612e3c565b60405180910390fd5b8273ffffffffffffffffffffffffffffffffffffffff1663cc435bf3866040518263ffffffff1660e01b8152600401610f779190612c00565b60206040518083038186803b158015610f8f57600080fd5b505afa158015610fa3573d6000803e3d6000fd5b505050506040513d601f19601f82011682018060405250810190610fc79190612490565b80610ffd57508073ffffffffffffffffffffffffffffffffffffffff168573ffffffffffffffffffffffffffffffffffffffff16145b61103c576040517f08c379a000000000000000000000000000000000000000000000000000000000815260040161103390612d3c565b60405180910390fd5b6000871161107f576040517f08c379a000000000000000000000000000000000000000000000000000000000815260040161107690612d7c565b60405180910390fd5b6000600267ffffffffffffffff8111801561109957600080fd5b506040519080825280602002602001820160405280156110c85781602001602082028036833780820191505090505b50905086816000815181106110d957fe5b602002602001019073ffffffffffffffffffffffffffffffffffffffff16908173ffffffffffffffffffffffffffffffffffffffff1681525050858160018151811061112157fe5b602002602001019073ffffffffffffffffffffffffffffffffffffffff16908173ffffffffffffffffffffffffffffffffffffffff168152505060008373ffffffffffffffffffffffffffffffffffffffff1663d06ca61f8a846040518363ffffffff1660e01b8152600401611198929190612ed7565b60006040518083038186803b1580156111b057600080fd5b505afa1580156111c4573d6000803e3d6000fd5b505050506040513d6000823e3d601f19601f820116820180604052508101906111ed919061244f565b9050806001815181106111fc57fe5b6020026020010151955050505050509392505050565b6000807f000000000000000000000000000000000000000000000000000000000000000073ffffffffffffffffffffffffffffffffffffffff166304433bbc6040518163ffffffff1660e01b815260040161126c90612e1c565b60206040518083038186803b15801561128457600080fd5b505afa158015611298573d6000803e3d6000fd5b505050506040513d601f19601f820116820180604052508101906112bc919061239b565b905060007f000000000000000000000000000000000000000000000000000000000000000073ffffffffffffffffffffffffffffffffffffffff166304433bbc6040518163ffffffff1660e01b815260040161131790612d5c565b60206040518083038186803b15801561132f57600080fd5b505afa158015611343573d6000803e3d6000fd5b505050506040513d601f19601f82011682018060405250810190611367919061239b565b905060008273ffffffffffffffffffffffffffffffffffffffff1663be781b1c6040518163ffffffff1660e01b815260040160206040518083038186803b1580156113b157600080fd5b505afa1580156113c5573d6000803e3d6000fd5b505050506040513d601f19601f820116820180604052508101906113e9919061239b565b9050600073ffffffffffffffffffffffffffffffffffffffff168673ffffffffffffffffffffffffffffffffffffffff16141561145b576040517f08c379a000000000000000000000000000000000000000000000000000000000815260040161145290612ddc565b60405180910390fd5b600073ffffffffffffffffffffffffffffffffffffffff168573ffffffffffffffffffffffffffffffffffffffff1614156114cb576040517f08c379a00000000000000000000000000000000000000000000000000000000081526004016114c290612e7c565b60405180910390fd5b8273ffffffffffffffffffffffffffffffffffffffff1663cc435bf3876040518263ffffffff1660e01b81526004016115049190612c00565b60206040518083038186803b15801561151c57600080fd5b505afa158015611530573d6000803e3d6000fd5b505050506040513d601f19601f820116820180604052508101906115549190612490565b8061158a57508073ffffffffffffffffffffffffffffffffffffffff168673ffffffffffffffffffffffffffffffffffffffff16145b6115c9576040517f08c379a00000000000000000000000000000000000000000000000000000000081526004016115c090612e3c565b60405180910390fd5b8273ffffffffffffffffffffffffffffffffffffffff1663cc435bf3866040518263ffffffff1660e01b81526004016116029190612c00565b60206040518083038186803b15801561161a57600080fd5b505afa15801561162e573d6000803e3d6000fd5b505050506040513d601f19601f820116820180604052508101906116529190612490565b8061168857508073ffffffffffffffffffffffffffffffffffffffff168573ffffffffffffffffffffffffffffffffffffffff16145b6116c7576040517f08c379a00000000000000000000000000000000000000000000000000000000081526004016116be90612d3c565b60405180910390fd5b6000871161170a576040517f08c379a000000000000000000000000000000000000000000000000000000000815260040161170190612d7c565b60405180910390fd5b6000600267ffffffffffffffff8111801561172457600080fd5b506040519080825280602002602001820160405280156117535781602001602082028036833780820191505090505b509050868160008151811061176457fe5b602002602001019073ffffffffffffffffffffffffffffffffffffffff16908173ffffffffffffffffffffffffffffffffffffffff168152505085816001815181106117ac57fe5b602002602001019073ffffffffffffffffffffffffffffffffffffffff16908173ffffffffffffffffffffffffffffffffffffffff168152505060008373ffffffffffffffffffffffffffffffffffffffff16631f00ca748a846040518363ffffffff1660e01b8152600401611823929190612ed7565b60006040518083038186803b15801561183b57600080fd5b505afa15801561184f573d6000803e3d6000fd5b505050506040513d6000823e3d601f19601f82011682018060405250810190611878919061244f565b90508060018151811061188757fe5b6020026020010151955050505050509392505050565b60008060006118ac8686611edc565b9050600073ffffffffffffffffffffffffffffffffffffffff168173ffffffffffffffffffffffffffffffffffffffff16141561191e576040517f08c379a000000000000000000000000000000000000000000000000000000000815260040161191590612e5c565b60405180910390fd5b60008673ffffffffffffffffffffffffffffffffffffffff166370a08231836040518263ffffffff1660e01b81526004016119599190612c00565b60206040518083038186803b15801561197157600080fd5b505afa158015611985573d6000803e3d6000fd5b505050506040513d601f19601f820116820180604052508101906119a991906124e2565b905060008673ffffffffffffffffffffffffffffffffffffffff166370a08231846040518263ffffffff1660e01b81526004016119e69190612c00565b60206040518083038186803b1580156119fe57600080fd5b505afa158015611a12573d6000803e3d6000fd5b505050506040513d601f19601f82011682018060405250810190611a3691906124e2565b905060008373ffffffffffffffffffffffffffffffffffffffff166318160ddd6040518163ffffffff1660e01b815260040160206040518083038186803b158015611a8057600080fd5b505afa158015611a94573d6000803e3d6000fd5b505050506040513d601f19601f82011682018060405250810190611ab891906124e2565b90506000611ae182611ad38a8761218690919063ffffffff16565b6121bd90919063ffffffff16565b90506000611b0a83611afc8b8761218690919063ffffffff16565b6121bd90919063ffffffff16565b9050818197509750505050505050935093915050565b606060007f000000000000000000000000000000000000000000000000000000000000000073ffffffffffffffffffffffffffffffffffffffff166304433bbc6040518163ffffffff1660e01b8152600401611b7b90612dfc565b60206040518083038186803b158015611b9357600080fd5b505afa158015611ba7573d6000803e3d6000fd5b505050506040513d601f19601f82011682018060405250810190611bcb919061239b565b905060008173ffffffffffffffffffffffffffffffffffffffff16638c788de06040518163ffffffff1660e01b815260040160206040518083038186803b158015611c1557600080fd5b505afa158015611c29573d6000803e3d6000fd5b505050506040513d601f19601f82011682018060405250810190611c4d91906124e2565b905060008167ffffffffffffffff81118015611c6857600080fd5b50604051908082528060200260200182016040528015611c975781602001602082028036833780820191505090505b50905060008267ffffffffffffffff81118015611cb357600080fd5b50604051908082528060200260200182016040528015611ce25781602001602082028036833780820191505090505b50905060005b83811015611dcc578473ffffffffffffffffffffffffffffffffffffffff16634a4ca369826040518263ffffffff1660e01b8152600401611d299190612ebc565b60206040518083038186803b158015611d4157600080fd5b505afa158015611d55573d6000803e3d6000fd5b505050506040513d601f19601f82011682018060405250810190611d79919061239b565b838281518110611d8557fe5b602002602001019073ffffffffffffffffffffffffffffffffffffffff16908173ffffffffffffffffffffffffffffffffffffffff16815250508080600101915050611ce8565b5060005b83811015611ed15760008573ffffffffffffffffffffffffffffffffffffffff1663a4063dbc858481518110611e0257fe5b60200260200101516040518263ffffffff1660e01b8152600401611e269190612c00565b60a06040518083038186803b158015611e3e57600080fd5b505afa158015611e52573d6000803e3d6000fd5b505050506040513d601f19601f82011682018060405250810190611e7691906124b9565b90508060400151838381518110611e8957fe5b602002602001019073ffffffffffffffffffffffffffffffffffffffff16908173ffffffffffffffffffffffffffffffffffffffff1681525050508080600101915050611dd0565b508094505050505090565b60008073ffffffffffffffffffffffffffffffffffffffff168373ffffffffffffffffffffffffffffffffffffffff161415611f4d576040517f08c379a0000000000000000000000000000000000000000000000000000000008152600401611f4490612cbc565b60405180910390fd5b600073ffffffffffffffffffffffffffffffffffffffff168273ffffffffffffffffffffffffffffffffffffffff161415611fbd576040517f08c379a0000000000000000000000000000000000000000000000000000000008152600401611fb490612dbc565b60405180910390fd5b60007f000000000000000000000000000000000000000000000000000000000000000073ffffffffffffffffffffffffffffffffffffffff166304433bbc6040518163ffffffff1660e01b815260040161201690612d9c565b60206040518083038186803b15801561202e57600080fd5b505afa158015612042573d6000803e3d6000fd5b505050506040513d601f19601f82011682018060405250810190612066919061239b565b90508073ffffffffffffffffffffffffffffffffffffffff1663e6a4390585856040518363ffffffff1660e01b81526004016120a3929190612c1b565b60206040518083038186803b1580156120bb57600080fd5b505afa1580156120cf573d6000803e3d6000fd5b505050506040513d601f19601f820116820180604052508101906120f3919061239b565b91505092915050565b60008173ffffffffffffffffffffffffffffffffffffffff1663313ce5676040518163ffffffff1660e01b815260040160206040518083038186803b15801561214457600080fd5b505afa158015612158573d6000803e3d6000fd5b505050506040513d601f19601f8201168201806040525081019061217c919061255a565b60ff169050919050565b60008083141561219957600090506121b7565b60008284029050828482816121aa57fe5b04146121b257fe5b809150505b92915050565b6000808284816121c957fe5b0490508091505092915050565b60006121e96121e484612f61565b612f30565b9050808382526020820190508285602086028201111561220857600080fd5b60005b85811015612238578161221e8882612348565b84526020840193506020830192505060018101905061220b565b5050509392505050565b60008135905061225181613052565b92915050565b60008151905061226681613052565b92915050565b600082601f83011261227d57600080fd5b815161228d8482602086016121d6565b91505092915050565b6000815190506122a581613069565b92915050565b600060a082840312156122bd57600080fd5b6122c760a0612f30565b905060006122d784828501612348565b60008301525060206122eb84828501612257565b60208301525060406122ff84828501612257565b604083015250606061231384828501612348565b606083015250608061232784828501612348565b60808301525092915050565b60008135905061234281613080565b92915050565b60008151905061235781613080565b92915050565b60008151905061236c81613097565b92915050565b60006020828403121561238457600080fd5b600061239284828501612242565b91505092915050565b6000602082840312156123ad57600080fd5b60006123bb84828501612257565b91505092915050565b600080604083850312156123d757600080fd5b60006123e585828601612242565b92505060206123f685828601612242565b9150509250929050565b60008060006060848603121561241557600080fd5b600061242386828701612242565b935050602061243486828701612242565b925050604061244586828701612333565b9150509250925092565b60006020828403121561246157600080fd5b600082015167ffffffffffffffff81111561247b57600080fd5b6124878482850161226c565b91505092915050565b6000602082840312156124a257600080fd5b60006124b084828501612296565b91505092915050565b600060a082840312156124cb57600080fd5b60006124d9848285016122ab565b91505092915050565b6000602082840312156124f457600080fd5b600061250284828501612348565b91505092915050565b60008060006060848603121561252057600080fd5b600061252e86828701612333565b935050602061253f86828701612242565b925050604061255086828701612242565b9150509250925092565b60006020828403121561256c57600080fd5b600061257a8482850161235d565b91505092915050565b600061258f838361259b565b60208301905092915050565b6125a481612fd7565b82525050565b6125b381612fd7565b82525050565b60006125c482612f9d565b6125ce8185612fb5565b93506125d983612f8d565b8060005b8381101561260a5781516125f18882612583565b97506125fc83612fa8565b9250506001810190506125dd565b5085935050505092915050565b61262081612fe9565b82525050565b61262f8161302c565b82525050565b6000612642602d83612fc6565b91507f4261736555626573776170416461707465723a2043757272656e63792069732060008301527f6e6f7420617661696c61626c65000000000000000000000000000000000000006020830152604082019050919050565b60006126a8602e83612fc6565b91507f4261736555626573776170416461707465723a20696e76616c6964206164647260008301527f65737320666f7220746f6b656e410000000000000000000000000000000000006020830152604082019050919050565b600061270e602883612fc6565b91507f4261736555626573776170416461707465723a20696e76616c696420706f6f6c60008301527f20616464726573730000000000000000000000000000000000000000000000006020830152604082019050919050565b6000612774602883612fc6565b91507f4261736555626573776170416461707465723a20696e76616c6964206661726d60008301527f20616464726573730000000000000000000000000000000000000000000000006020830152604082019050919050565b60006127da601483612fc6565b91507f496e76616c69642063757272656e6379206b65790000000000000000000000006000830152602082019050919050565b600061281a603383612fc6565b91507f4261736555626573776170416461707465723a2043757272656e63794b65794f60008301527f7574206973206e6f7420617661696c61626c65000000000000000000000000006020830152604082019050919050565b6000612880600d83612fc6565b91507f55626573776170526f75746572000000000000000000000000000000000000006000830152602082019050919050565b60006128c0602783612fc6565b91507f4e756d626572206f6620746f6b656e73206d757374206265206772656174657260008301527f207468616e2030000000000000000000000000000000000000000000000000006020830152604082019050919050565b6000612926601083612fc6565b91507f556e69737761705632466163746f7279000000000000000000000000000000006000830152602082019050919050565b6000612966602e83612fc6565b91507f4261736555626573776170416461707465723a20696e76616c6964206164647260008301527f65737320666f7220746f6b656e420000000000000000000000000000000000006020830152604082019050919050565b60006129cc601783612fc6565b91507f496e76616c69642063757272656e6379206b657920696e0000000000000000006000830152602082019050919050565b6000612a0c601283612fc6565b91507f55626573776170506f6f6c4d616e6167657200000000000000000000000000006000830152602082019050919050565b6000612a4c600c83612fc6565b91507f417373657448616e646c657200000000000000000000000000000000000000006000830152602082019050919050565b6000612a8c603283612fc6565b91507f4261736555626573776170416461707465723a2043757272656e63794b65794960008301527f6e206973206e6f7420617661696c61626c6500000000000000000000000000006020830152604082019050919050565b6000612af2602c83612fc6565b91507f4261736555626573776170416461707465723a20696e76616c6964206164647260008301527f65737320666f72207061697200000000000000000000000000000000000000006020830152604082019050919050565b6000612b58601883612fc6565b91507f496e76616c69642063757272656e6379206b6579206f757400000000000000006000830152602082019050919050565b6000612b98602883612fc6565b91507f4261736555626573776170416461707465723a20696e76616c6964207061697260008301527f20616464726573730000000000000000000000000000000000000000000000006020830152604082019050919050565b612bfa81613015565b82525050565b6000602082019050612c1560008301846125aa565b92915050565b6000604082019050612c3060008301856125aa565b612c3d60208301846125aa565b9392505050565b60006020820190508181036000830152612c5e81846125b9565b905092915050565b6000602082019050612c7b6000830184612617565b92915050565b6000602082019050612c966000830184612626565b92915050565b60006020820190508181036000830152612cb581612635565b9050919050565b60006020820190508181036000830152612cd58161269b565b9050919050565b60006020820190508181036000830152612cf581612701565b9050919050565b60006020820190508181036000830152612d1581612767565b9050919050565b60006020820190508181036000830152612d35816127cd565b9050919050565b60006020820190508181036000830152612d558161280d565b9050919050565b60006020820190508181036000830152612d7581612873565b9050919050565b60006020820190508181036000830152612d95816128b3565b9050919050565b60006020820190508181036000830152612db581612919565b9050919050565b60006020820190508181036000830152612dd581612959565b9050919050565b60006020820190508181036000830152612df5816129bf565b9050919050565b60006020820190508181036000830152612e15816129ff565b9050919050565b60006020820190508181036000830152612e3581612a3f565b9050919050565b60006020820190508181036000830152612e5581612a7f565b9050919050565b60006020820190508181036000830152612e7581612ae5565b9050919050565b60006020820190508181036000830152612e9581612b4b565b9050919050565b60006020820190508181036000830152612eb581612b8b565b9050919050565b6000602082019050612ed16000830184612bf1565b92915050565b6000604082019050612eec6000830185612bf1565b8181036020830152612efe81846125b9565b90509392505050565b6000604082019050612f1c6000830185612bf1565b612f296020830184612bf1565b9392505050565b6000604051905081810181811067ffffffffffffffff82111715612f5757612f56613050565b5b8060405250919050565b600067ffffffffffffffff821115612f7c57612f7b613050565b5b602082029050602081019050919050565b6000819050602082019050919050565b600081519050919050565b6000602082019050919050565b600082825260208201905092915050565b600082825260208201905092915050565b6000612fe282612ff5565b9050919050565b60008115159050919050565b600073ffffffffffffffffffffffffffffffffffffffff82169050919050565b6000819050919050565b600060ff82169050919050565b60006130378261303e565b9050919050565b600061304982612ff5565b9050919050565bfe5b61305b81612fd7565b811461306657600080fd5b50565b61307281612fe9565b811461307d57600080fd5b50565b61308981613015565b811461309457600080fd5b50565b6130a08161301f565b81146130ab57600080fd5b5056fea2646970667358221220d90957052096536df39b366a304397bb5cb845bbecb2a266a3974becf53eafb264736f6c63430007060033",
  "immutableReferences": {
    "23": [
      {
        "length": 32,
        "start": 1027
      },
      {
        "length": 32,
        "start": 1402
      },
      {
        "length": 32,
        "start": 1573
      },
      {
        "length": 32,
        "start": 2917
      },
      {
        "length": 32,
        "start": 2956
      },
      {
        "length": 32,
        "start": 3127
      },
      {
        "length": 32,
        "start": 4631
      },
      {
        "length": 32,
        "start": 4802
      },
      {
        "length": 32,
        "start": 6950
      },
      {
        "length": 32,
        "start": 8129
      }
    ]
  },
  "source": "// SPDX-License-Identifier: MIT\r\n\r\npragma solidity >=0.7.6;\r\npragma experimental ABIEncoderV2;\r\n\r\n//Interfaces\r\nimport './interfaces/Ubeswap/IUniswapV2Router02.sol';\r\nimport './interfaces/IERC20.sol';\r\nimport './interfaces/IAssetHandler.sol';\r\nimport './interfaces/IAddressResolver.sol';\r\nimport './interfaces/Ubeswap/IUbeswapPoolManager.sol';\r\nimport './interfaces/Ubeswap/IStakingRewards.sol';\r\nimport './interfaces/Ubeswap/IUniswapV2Factory.sol';\r\nimport './interfaces/Ubeswap/IStakingRewards.sol';\r\n\r\n//Inheritance\r\nimport './interfaces/IBaseUbeswapAdapter.sol';\r\n\r\n//Libraries\r\nimport './libraries/SafeMath.sol';\r\n\r\ncontract BaseUbeswapAdapter is IBaseUbeswapAdapter {\r\n    using SafeMath for uint;\r\n\r\n    // Max slippage percent allowed\r\n    uint public constant override MAX_SLIPPAGE_PERCENT = 10; //10% slippage\r\n\r\n    IAddressResolver public immutable ADDRESS_RESOLVER;\r\n\r\n    constructor(IAddressResolver addressResolver) {\r\n        ADDRESS_RESOLVER = addressResolver;\r\n    }\r\n\r\n    /* ========== VIEWS ========== */\r\n\r\n    /**\r\n    * @dev Given an input asset address, returns the price of the asset in cUSD\r\n    * @param currencyKey Address of the asset\r\n    * @return uint Price of the asset\r\n    */\r\n    function getPrice(address currencyKey) public view override returns(uint) {\r\n        address assetHandlerAddress = ADDRESS_RESOLVER.getContractAddress(\"AssetHandler\");\r\n        address ubeswapRouterAddress = ADDRESS_RESOLVER.getContractAddress(\"UbeswapRouter\");\r\n        address stableCoinAddress = IAssetHandler(assetHandlerAddress).getStableCoinAddress();\r\n\r\n        //Check if currency key is cUSD\r\n        if (currencyKey == stableCoinAddress)\r\n        {\r\n            return 10 ** _getDecimals(currencyKey);\r\n        }\r\n\r\n        require(currencyKey != address(0), \"Invalid currency key\");\r\n        require(IAssetHandler(assetHandlerAddress).isValidAsset(currencyKey), \"BaseUbeswapAdapter: Currency is not available\");\r\n\r\n        address[] memory path = new address[](2);\r\n        path[0] = currencyKey;\r\n        path[1] = stableCoinAddress;\r\n\r\n        uint[] memory amounts = IUniswapV2Router02(ubeswapRouterAddress).getAmountsOut(10 ** _getDecimals(currencyKey), path); // 1 token -> cUSD\r\n\r\n        return amounts[1];\r\n    }\r\n\r\n    /**\r\n    * @dev Given an input asset amount, returns the maximum output amount of the other asset\r\n    * @notice Assumes numberOfTokens is multiplied by currency's decimals before function call\r\n    * @param numberOfTokens Number of tokens\r\n    * @param currencyKeyIn Address of the asset to be swap from\r\n    * @param currencyKeyOut Address of the asset to be swap to\r\n    * @return uint Amount out of the asset\r\n    */\r\n    function getAmountsOut(uint numberOfTokens, address currencyKeyIn, address currencyKeyOut) public view override returns (uint) {\r\n        address assetHandlerAddress = ADDRESS_RESOLVER.getContractAddress(\"AssetHandler\");\r\n        address ubeswapRouterAddress = ADDRESS_RESOLVER.getContractAddress(\"UbeswapRouter\");\r\n        address stableCoinAddress = IAssetHandler(assetHandlerAddress).getStableCoinAddress();\r\n\r\n        require(currencyKeyIn != address(0), \"Invalid currency key in\");\r\n        require(currencyKeyOut != address(0), \"Invalid currency key out\");\r\n        require(IAssetHandler(assetHandlerAddress).isValidAsset(currencyKeyIn) || currencyKeyIn == stableCoinAddress, \"BaseUbeswapAdapter: CurrencyKeyIn is not available\");\r\n        require(IAssetHandler(assetHandlerAddress).isValidAsset(currencyKeyOut) || currencyKeyOut == stableCoinAddress, \"BaseUbeswapAdapter: CurrencyKeyOut is not available\");\r\n        require(numberOfTokens > 0, \"Number of tokens must be greater than 0\");\r\n\r\n        address[] memory path = new address[](2);\r\n        path[0] = currencyKeyIn;\r\n        path[1] = currencyKeyOut;\r\n        uint[] memory amounts = IUniswapV2Router02(ubeswapRouterAddress).getAmountsOut(numberOfTokens, path);\r\n\r\n        return amounts[1];\r\n    }\r\n\r\n    /**\r\n    * @dev Given the target output asset amount, returns the amount of input asset needed\r\n    * @param numberOfTokens Target amount of output asset\r\n    * @param currencyKeyIn Address of the asset to be swap from\r\n    * @param currencyKeyOut Address of the asset to be swap to\r\n    * @return uint Amount out input asset needed\r\n    */\r\n    function getAmountsIn(uint numberOfTokens, address currencyKeyIn, address currencyKeyOut) public view override returns (uint) {\r\n        address assetHandlerAddress = ADDRESS_RESOLVER.getContractAddress(\"AssetHandler\");\r\n        address ubeswapRouterAddress = ADDRESS_RESOLVER.getContractAddress(\"UbeswapRouter\");\r\n        address stableCoinAddress = IAssetHandler(assetHandlerAddress).getStableCoinAddress();\r\n\r\n        require(currencyKeyIn != address(0), \"Invalid currency key in\");\r\n        require(currencyKeyOut != address(0), \"Invalid currency key out\");\r\n        require(IAssetHandler(assetHandlerAddress).isValidAsset(currencyKeyIn) || currencyKeyIn == stableCoinAddress, \"BaseUbeswapAdapter: CurrencyKeyIn is not available\");\r\n        require(IAssetHandler(assetHandlerAddress).isValidAsset(currencyKeyOut) || currencyKeyOut == stableCoinAddress, \"BaseUbeswapAdapter: CurrencyKeyOut is not available\");\r\n        require(numberOfTokens > 0, \"Number of tokens must be greater than 0\");\r\n\r\n        address[] memory path = new address[](2);\r\n        path[0] = currencyKeyIn;\r\n        path[1] = currencyKeyOut;\r\n        uint[] memory amounts = IUniswapV2Router02(ubeswapRouterAddress).getAmountsIn(numberOfTokens, path);\r\n\r\n        return amounts[1];\r\n    }\r\n\r\n    /**\r\n    * @dev Returns the address of each available farm on Ubeswap\r\n    * @return address[] memory The farm address for each available farm\r\n    */\r\n    function getAvailableUbeswapFarms() public view override returns (address[] memory) {\r\n        address ubeswapPoolManagerAddress = ADDRESS_RESOLVER.getContractAddress(\"UbeswapPoolManager\");\r\n\r\n        uint numberOfAvailableFarms = IUbeswapPoolManager(ubeswapPoolManagerAddress).poolsCount();\r\n        address[] memory poolAddresses = new address[](numberOfAvailableFarms);\r\n        address[] memory farmAddresses = new address[](numberOfAvailableFarms);\r\n\r\n        //Get supported LP tokens\r\n        for (uint i = 0; i < numberOfAvailableFarms; i++)\r\n        {\r\n            poolAddresses[i] = IUbeswapPoolManager(ubeswapPoolManagerAddress).poolsByIndex(i);\r\n        }\r\n\r\n        //Get supported farms\r\n        for (uint i = 0; i < numberOfAvailableFarms; i++)\r\n        {\r\n            IUbeswapPoolManager.PoolInfo memory farm = IUbeswapPoolManager(ubeswapPoolManagerAddress).pools(poolAddresses[i]);\r\n            farmAddresses[i] = farm.poolAddress;\r\n        }\r\n\r\n        return farmAddresses;\r\n    }\r\n\r\n    /**\r\n    * @dev Checks whether the given liquidity pair has a farm on Ubeswap\r\n    * @param pair Address of the liquidity pair\r\n    * @return bool Whether the pair has a farm\r\n    */\r\n    function checkIfLPTokenHasFarm(address pair) public view override returns (bool) {\r\n        require(pair != address(0), \"BaseUbeswapAdapter: invalid pair address\");\r\n\r\n        address ubeswapPoolManagerAddress = ADDRESS_RESOLVER.getContractAddress(\"UbeswapPoolManager\");\r\n        IUbeswapPoolManager.PoolInfo memory ubeswapFarm = IUbeswapPoolManager(ubeswapPoolManagerAddress).pools(pair);\r\n\r\n        return (ubeswapFarm.poolAddress != address(0));\r\n    }\r\n\r\n    /**\r\n    * @dev Checks whether the given farm is supported on Ubeswap\r\n    * @param farm Address of the farm\r\n    * @return address Address of the farm's staking token\r\n    */\r\n    function checkIfFarmExists(address farm) public view override returns (address) {\r\n        require(farm != address(0), \"BaseUbeswapAdapter: invalid farm address\");\r\n\r\n        return IStakingRewards(farm).stakingToken();\r\n    }\r\n\r\n    /**\r\n    * @dev Returns the address of a token pair\r\n    * @param tokenA First token in pair\r\n    * @param tokenB Second token in pair\r\n    * @return address The pair's address\r\n    */\r\n    function getPair(address tokenA, address tokenB) public view override returns (address) {\r\n        require(tokenA != address(0), \"BaseUbeswapAdapter: invalid address for tokenA\");\r\n        require(tokenB != address(0), \"BaseUbeswapAdapter: invalid address for tokenB\");\r\n\r\n        address uniswapV2FactoryAddress = ADDRESS_RESOLVER.getContractAddress(\"UniswapV2Factory\");\r\n\r\n        return IUniswapV2Factory(uniswapV2FactoryAddress).getPair(tokenA, tokenB);\r\n    }\r\n\r\n    /**\r\n    * @dev Returns the amount of UBE rewards available for the pool in the given farm\r\n    * @param poolAddress Address of the pool\r\n    * @param farmAddress Address of the farm on Ubeswap\r\n    * @return uint Amount of UBE available\r\n    */\r\n    function getAvailableRewards(address poolAddress, address farmAddress) public view override returns (uint) {\r\n        require(poolAddress != address(0), \"BaseUbeswapAdapter: invalid pool address\");\r\n\r\n        return IStakingRewards(farmAddress).earned(poolAddress);\r\n    }\r\n\r\n    /**\r\n    * @dev Calculates the amount of tokens in a pair\r\n    * @param tokenA First token in pair\r\n    * @param tokenB Second token in pair\r\n    * @param numberOfLPTokens Number of LP tokens for the given pair\r\n    * @return (uint, uint) The number of tokens for tokenA and tokenB\r\n    */\r\n    function getTokenAmountsFromPair(address tokenA, address tokenB, uint numberOfLPTokens) public view override returns (uint, uint) {\r\n        address pair = getPair(tokenA, tokenB);\r\n        require(pair != address(0), \"BaseUbeswapAdapter: invalid address for pair\");\r\n\r\n        uint pairBalanceTokenA = IERC20(tokenA).balanceOf(pair);\r\n        uint pairBalanceTokenB = IERC20(tokenB).balanceOf(pair);\r\n        uint totalSupply = IERC20(pair).totalSupply();\r\n\r\n        uint amountA = pairBalanceTokenA.mul(numberOfLPTokens).div(totalSupply);\r\n        uint amountB = pairBalanceTokenB.mul(numberOfLPTokens).div(totalSupply);\r\n\r\n        return (amountA, amountB);\r\n    }\r\n\r\n    /* ========== INTERNAL FUNCTIONS ========== */\r\n\r\n    /**\r\n    * @dev Get the decimals of an asset\r\n    * @return number of decimals of the asset\r\n    */\r\n    function _getDecimals(address asset) internal view returns (uint) {\r\n        return IERC20(asset).decimals();\r\n    }\r\n}",
  "sourcePath": "C:/Users/xavie/OneDrive/Desktop/TradeGen/Github/tradegen-protocol/contracts/BaseUbeswapAdapter.sol",
  "compiler": {
    "name": "solc",
    "version": "0.7.6+commit.7338295f.Emscripten.clang"
  },
  "schemaVersion": "3.4.1",
  "updatedAt": "2021-08-19T19:30:15.484Z",
  "devdoc": {
    "kind": "dev",
    "methods": {
      "checkIfFarmExists(address)": {
        "details": "Checks whether the given farm is supported on Ubeswap",
        "params": {
          "farm": "Address of the farm"
        },
        "returns": {
          "_0": "address Address of the farm's staking token"
        }
      },
      "checkIfLPTokenHasFarm(address)": {
        "details": "Checks whether the given liquidity pair has a farm on Ubeswap",
        "params": {
          "pair": "Address of the liquidity pair"
        },
        "returns": {
          "_0": "bool Whether the pair has a farm"
        }
      },
      "getAmountsIn(uint256,address,address)": {
        "details": "Given the target output asset amount, returns the amount of input asset needed",
        "params": {
          "currencyKeyIn": "Address of the asset to be swap from",
          "currencyKeyOut": "Address of the asset to be swap to",
          "numberOfTokens": "Target amount of output asset"
        },
        "returns": {
          "_0": "uint Amount out input asset needed"
        }
      },
      "getAmountsOut(uint256,address,address)": {
        "details": "Given an input asset amount, returns the maximum output amount of the other asset",
        "params": {
          "currencyKeyIn": "Address of the asset to be swap from",
          "currencyKeyOut": "Address of the asset to be swap to",
          "numberOfTokens": "Number of tokens"
        },
        "returns": {
          "_0": "uint Amount out of the asset"
        }
      },
      "getAvailableRewards(address,address)": {
        "details": "Returns the amount of UBE rewards available for the pool in the given farm",
        "params": {
          "farmAddress": "Address of the farm on Ubeswap",
          "poolAddress": "Address of the pool"
        },
        "returns": {
          "_0": "uint Amount of UBE available"
        }
      },
      "getAvailableUbeswapFarms()": {
        "details": "Returns the address of each available farm on Ubeswap",
        "returns": {
          "_0": "address[] memory The farm address for each available farm"
        }
      },
      "getPair(address,address)": {
        "details": "Returns the address of a token pair",
        "params": {
          "tokenA": "First token in pair",
          "tokenB": "Second token in pair"
        },
        "returns": {
          "_0": "address The pair's address"
        }
      },
      "getPrice(address)": {
        "details": "Given an input asset address, returns the price of the asset in cUSD",
        "params": {
          "currencyKey": "Address of the asset"
        },
        "returns": {
          "_0": "uint Price of the asset"
        }
      },
      "getTokenAmountsFromPair(address,address,uint256)": {
        "details": "Calculates the amount of tokens in a pair",
        "params": {
          "numberOfLPTokens": "Number of LP tokens for the given pair",
          "tokenA": "First token in pair",
          "tokenB": "Second token in pair"
        },
        "returns": {
          "_0": "(uint, uint) The number of tokens for tokenA and tokenB"
        }
      }
    },
    "version": 1
  },
  "userdoc": {
    "kind": "user",
    "methods": {
      "getAmountsOut(uint256,address,address)": {
        "notice": "Assumes numberOfTokens is multiplied by currency's decimals before function call"
      }
    },
    "version": 1
  }
}