{
  "contractName": "BaseUbeswapAdapter",
  "abi": [
    {
      "inputs": [
        {
          "internalType": "contract IAddressResolver",
          "name": "addressResolver",
          "type": "address"
        }
      ],
      "stateMutability": "nonpayable",
      "type": "constructor"
    },
    {
      "anonymous": false,
      "inputs": [
        {
          "indexed": false,
          "internalType": "address",
          "name": "addressAddedFrom",
          "type": "address"
        },
        {
          "indexed": false,
          "internalType": "address",
          "name": "tokenA",
          "type": "address"
        },
        {
          "indexed": false,
          "internalType": "address",
          "name": "tokenB",
          "type": "address"
        },
        {
          "indexed": false,
          "internalType": "uint256",
          "name": "amountA",
          "type": "uint256"
        },
        {
          "indexed": false,
          "internalType": "uint256",
          "name": "amountB",
          "type": "uint256"
        },
        {
          "indexed": false,
          "internalType": "uint256",
          "name": "numberOfLPTokens",
          "type": "uint256"
        },
        {
          "indexed": false,
          "internalType": "uint256",
          "name": "timestamp",
          "type": "uint256"
        }
      ],
      "name": "AddedLiquidity",
      "type": "event"
    },
    {
      "anonymous": false,
      "inputs": [
        {
          "indexed": false,
          "internalType": "address",
          "name": "addressRemovedFrom",
          "type": "address"
        },
        {
          "indexed": false,
          "internalType": "address",
          "name": "tokenA",
          "type": "address"
        },
        {
          "indexed": false,
          "internalType": "address",
          "name": "tokenB",
          "type": "address"
        },
        {
          "indexed": false,
          "internalType": "uint256",
          "name": "amountAReceived",
          "type": "uint256"
        },
        {
          "indexed": false,
          "internalType": "uint256",
          "name": "amountBReceived",
          "type": "uint256"
        },
        {
          "indexed": false,
          "internalType": "uint256",
          "name": "timestamp",
          "type": "uint256"
        }
      ],
      "name": "RemovedLiquidity",
      "type": "event"
    },
    {
      "anonymous": false,
      "inputs": [
        {
          "indexed": false,
          "internalType": "address",
          "name": "addressSwappedFrom",
          "type": "address"
        },
        {
          "indexed": false,
          "internalType": "address",
          "name": "fromAsset",
          "type": "address"
        },
        {
          "indexed": false,
          "internalType": "address",
          "name": "toAsset",
          "type": "address"
        },
        {
          "indexed": false,
          "internalType": "uint256",
          "name": "fromAmount",
          "type": "uint256"
        },
        {
          "indexed": false,
          "internalType": "uint256",
          "name": "receivedAmount",
          "type": "uint256"
        },
        {
          "indexed": false,
          "internalType": "uint256",
          "name": "timestamp",
          "type": "uint256"
        }
      ],
      "name": "Swapped",
      "type": "event"
    },
    {
      "inputs": [],
      "name": "ADDRESS_RESOLVER",
      "outputs": [
        {
          "internalType": "contract IAddressResolver",
          "name": "",
          "type": "address"
        }
      ],
      "stateMutability": "view",
      "type": "function"
    },
    {
      "inputs": [],
      "name": "MAX_SLIPPAGE_PERCENT",
      "outputs": [
        {
          "internalType": "uint256",
          "name": "",
          "type": "uint256"
        }
      ],
      "stateMutability": "view",
      "type": "function"
    },
    {
      "inputs": [
        {
          "internalType": "address",
          "name": "currencyKey",
          "type": "address"
        }
      ],
      "name": "getPrice",
      "outputs": [
        {
          "internalType": "uint256",
          "name": "",
          "type": "uint256"
        }
      ],
      "stateMutability": "view",
      "type": "function"
    },
    {
      "inputs": [
        {
          "internalType": "uint256",
          "name": "numberOfTokens",
          "type": "uint256"
        },
        {
          "internalType": "address",
          "name": "currencyKeyIn",
          "type": "address"
        },
        {
          "internalType": "address",
          "name": "currencyKeyOut",
          "type": "address"
        }
      ],
      "name": "getAmountsOut",
      "outputs": [
        {
          "internalType": "uint256",
          "name": "",
          "type": "uint256"
        }
      ],
      "stateMutability": "view",
      "type": "function"
    },
    {
      "inputs": [],
      "name": "getAvailableUbeswapFarms",
      "outputs": [
        {
          "internalType": "address[]",
          "name": "",
          "type": "address[]"
        }
      ],
      "stateMutability": "view",
      "type": "function"
    },
    {
      "inputs": [
        {
          "internalType": "address",
          "name": "farmAddress",
          "type": "address"
        }
      ],
      "name": "checkIfFarmExists",
      "outputs": [
        {
          "internalType": "address",
          "name": "",
          "type": "address"
        }
      ],
      "stateMutability": "view",
      "type": "function"
    },
    {
      "inputs": [
        {
          "internalType": "address",
          "name": "tokenA",
          "type": "address"
        },
        {
          "internalType": "address",
          "name": "tokenB",
          "type": "address"
        }
      ],
      "name": "getPair",
      "outputs": [
        {
          "internalType": "address",
          "name": "",
          "type": "address"
        }
      ],
      "stateMutability": "view",
      "type": "function"
    },
    {
      "inputs": [
        {
          "internalType": "address",
          "name": "poolAddress",
          "type": "address"
        },
        {
          "internalType": "address",
          "name": "farmAddress",
          "type": "address"
        }
      ],
      "name": "getAvailableRewards",
      "outputs": [
        {
          "internalType": "uint256",
          "name": "",
          "type": "uint256"
        }
      ],
      "stateMutability": "view",
      "type": "function"
    },
    {
      "inputs": [
        {
          "internalType": "address",
          "name": "tokenA",
          "type": "address"
        },
        {
          "internalType": "address",
          "name": "tokenB",
          "type": "address"
        },
        {
          "internalType": "uint256",
          "name": "numberOfLPTokens",
          "type": "uint256"
        }
      ],
      "name": "getTokenAmountsFromPair",
      "outputs": [
        {
          "internalType": "uint256",
          "name": "",
          "type": "uint256"
        },
        {
          "internalType": "uint256",
          "name": "",
          "type": "uint256"
        }
      ],
      "stateMutability": "view",
      "type": "function"
    },
    {
      "inputs": [
        {
          "internalType": "address",
          "name": "assetToSwapFrom",
          "type": "address"
        },
        {
          "internalType": "address",
          "name": "assetToSwapTo",
          "type": "address"
        },
        {
          "internalType": "uint256",
          "name": "amountToSwap",
          "type": "uint256"
        },
        {
          "internalType": "uint256",
          "name": "minAmountOut",
          "type": "uint256"
        }
      ],
      "name": "swapFromPool",
      "outputs": [
        {
          "internalType": "uint256",
          "name": "",
          "type": "uint256"
        }
      ],
      "stateMutability": "nonpayable",
      "type": "function"
    },
    {
      "inputs": [
        {
          "internalType": "address",
          "name": "assetToSwapFrom",
          "type": "address"
        },
        {
          "internalType": "address",
          "name": "assetToSwapTo",
          "type": "address"
        },
        {
          "internalType": "uint256",
          "name": "amountToSwap",
          "type": "uint256"
        },
        {
          "internalType": "uint256",
          "name": "minAmountOut",
          "type": "uint256"
        }
      ],
      "name": "swapFromBot",
      "outputs": [
        {
          "internalType": "uint256",
          "name": "",
          "type": "uint256"
        }
      ],
      "stateMutability": "nonpayable",
      "type": "function"
    },
    {
      "inputs": [
        {
          "internalType": "address",
          "name": "tokenA",
          "type": "address"
        },
        {
          "internalType": "address",
          "name": "tokenB",
          "type": "address"
        },
        {
          "internalType": "uint256",
          "name": "amountA",
          "type": "uint256"
        },
        {
          "internalType": "uint256",
          "name": "amountB",
          "type": "uint256"
        }
      ],
      "name": "addLiquidity",
      "outputs": [
        {
          "internalType": "uint256",
          "name": "",
          "type": "uint256"
        }
      ],
      "stateMutability": "nonpayable",
      "type": "function"
    },
    {
      "inputs": [
        {
          "internalType": "address",
          "name": "tokenA",
          "type": "address"
        },
        {
          "internalType": "address",
          "name": "tokenB",
          "type": "address"
        },
        {
          "internalType": "uint256",
          "name": "numberOfLPTokens",
          "type": "uint256"
        }
      ],
      "name": "removeLiquidity",
      "outputs": [
        {
          "internalType": "uint256",
          "name": "",
          "type": "uint256"
        },
        {
          "internalType": "uint256",
          "name": "",
          "type": "uint256"
        }
      ],
      "stateMutability": "nonpayable",
      "type": "function"
    }
  ],
  "bytecode": "0x60a060405234801561001057600080fd5b5060405161384e38038061384e8339818101604052602081101561003357600080fd5b81019080805190602001909291905050508073ffffffffffffffffffffffffffffffffffffffff1660808173ffffffffffffffffffffffffffffffffffffffff1660601b815250505060805160601c6137746100da6000398061084a52806109805280610a61528061116e528061119552806112765280611a815280611bb25280611fb35280612258528061249552806126d55280612d12528061329a52506137746000f3fe608060405234801561001057600080fd5b50600436106100ce5760003560e01c8063baf7fa991161008c578063d87fc14911610066578063d87fc14914610486578063e1f6e5bb1461050f578063e5414cd01461056e578063e6a43905146105fa576100ce565b8063baf7fa99146102ef578063cf6c62ea14610371578063d752fab2146103fd576100ce565b80629e78be146100d35780630838fcb31461014b57806332e4b286146101d757806341976e09146101f557806381ef421f1461024d578063981f3b8e146102bb575b600080fd5b610135600480360360408110156100e957600080fd5b81019080803573ffffffffffffffffffffffffffffffffffffffff169060200190929190803573ffffffffffffffffffffffffffffffffffffffff169060200190929190505050610688565b6040518082815260200191505060405180910390f35b6101c16004803603608081101561016157600080fd5b81019080803573ffffffffffffffffffffffffffffffffffffffff169060200190929190803573ffffffffffffffffffffffffffffffffffffffff1690602001909291908035906020019092919080359060200190929190505050610846565b6040518082815260200191505060405180910390f35b6101df610976565b6040518082815260200191505060405180910390f35b6102376004803603602081101561020b57600080fd5b81019080803573ffffffffffffffffffffffffffffffffffffffff16906020019092919050505061097b565b6040518082815260200191505060405180910390f35b61028f6004803603602081101561026357600080fd5b81019080803573ffffffffffffffffffffffffffffffffffffffff169060200190929190505050611040565b604051808273ffffffffffffffffffffffffffffffffffffffff16815260200191505060405180910390f35b6102c361116c565b604051808273ffffffffffffffffffffffffffffffffffffffff16815260200191505060405180910390f35b61035b6004803603606081101561030557600080fd5b8101908080359060200190929190803573ffffffffffffffffffffffffffffffffffffffff169060200190929190803573ffffffffffffffffffffffffffffffffffffffff169060200190929190505050611190565b6040518082815260200191505060405180910390f35b6103e76004803603608081101561038757600080fd5b81019080803573ffffffffffffffffffffffffffffffffffffffff169060200190929190803573ffffffffffffffffffffffffffffffffffffffff1690602001909291908035906020019092919080359060200190929190505050611a7d565b6040518082815260200191505060405180910390f35b6104696004803603606081101561041357600080fd5b81019080803573ffffffffffffffffffffffffffffffffffffffff169060200190929190803573ffffffffffffffffffffffffffffffffffffffff16906020019092919080359060200190929190505050611bad565b604051808381526020018281526020019250505060405180910390f35b6104f26004803603606081101561049c57600080fd5b81019080803573ffffffffffffffffffffffffffffffffffffffff169060200190929190803573ffffffffffffffffffffffffffffffffffffffff16906020019092919080359060200190929190505050611cdf565b604051808381526020018281526020019250505060405180910390f35b610517611fad565b6040518080602001828103825283818151815260200191508051906020019060200280838360005b8381101561055a57808201518184015260208101905061053f565b505050509050019250505060405180910390f35b6105e46004803603608081101561058457600080fd5b81019080803573ffffffffffffffffffffffffffffffffffffffff169060200190929190803573ffffffffffffffffffffffffffffffffffffffff1690602001909291908035906020019092919080359060200190929190505050612254565b6040518082815260200191505060405180910390f35b61065c6004803603604081101561061057600080fd5b81019080803573ffffffffffffffffffffffffffffffffffffffff169060200190929190803573ffffffffffffffffffffffffffffffffffffffff169060200190929190505050612384565b604051808273ffffffffffffffffffffffffffffffffffffffff16815260200191505060405180910390f35b60008073ffffffffffffffffffffffffffffffffffffffff168373ffffffffffffffffffffffffffffffffffffffff16141561070f576040517f08c379a000000000000000000000000000000000000000000000000000000000815260040180806020018281038252602881526020018061361f6028913960400191505060405180910390fd5b600073ffffffffffffffffffffffffffffffffffffffff1661073083611040565b73ffffffffffffffffffffffffffffffffffffffff16141561079d576040517f08c379a00000000000000000000000000000000000000000000000000000000081526004018080602001828103825260288152602001806136476028913960400191505060405180910390fd5b8173ffffffffffffffffffffffffffffffffffffffff16628cc262846040518263ffffffff1660e01b8152600401808273ffffffffffffffffffffffffffffffffffffffff16815260200191505060206040518083038186803b15801561080357600080fd5b505afa158015610817573d6000803e3d6000fd5b505050506040513d602081101561082d57600080fd5b8101908080519060200190929190505050905092915050565b60007f000000000000000000000000000000000000000000000000000000000000000073ffffffffffffffffffffffffffffffffffffffff1663683ad58f336040518263ffffffff1660e01b8152600401808273ffffffffffffffffffffffffffffffffffffffff16815260200191505060206040518083038186803b1580156108cf57600080fd5b505afa1580156108e3573d6000803e3d6000fd5b505050506040513d60208110156108f957600080fd5b810190808051906020019092919050505061095f576040517f08c379a000000000000000000000000000000000000000000000000000000000815260040180806020018281038252602b8152602001806136e8602b913960400191505060405180910390fd5b61096c338686868661263b565b9050949350505050565b600a81565b6000807f000000000000000000000000000000000000000000000000000000000000000073ffffffffffffffffffffffffffffffffffffffff166304433bbc6040518163ffffffff1660e01b81526004018080602001828103825260088152602001807f53657474696e677300000000000000000000000000000000000000000000000081525060200191505060206040518083038186803b158015610a2057600080fd5b505afa158015610a34573d6000803e3d6000fd5b505050506040513d6020811015610a4a57600080fd5b8101908080519060200190929190505050905060007f000000000000000000000000000000000000000000000000000000000000000073ffffffffffffffffffffffffffffffffffffffff166304433bbc6040518163ffffffff1660e01b815260040180806020018281038252600d8152602001807f55626573776170526f757465720000000000000000000000000000000000000081525060200191505060206040518083038186803b158015610b0157600080fd5b505afa158015610b15573d6000803e3d6000fd5b505050506040513d6020811015610b2b57600080fd5b8101908080519060200190929190505050905060008273ffffffffffffffffffffffffffffffffffffffff1663be781b1c6040518163ffffffff1660e01b815260040160206040518083038186803b158015610b8657600080fd5b505afa158015610b9a573d6000803e3d6000fd5b505050506040513d6020811015610bb057600080fd5b810190808051906020019092919050505090508073ffffffffffffffffffffffffffffffffffffffff168573ffffffffffffffffffffffffffffffffffffffff161415610c0d57610c0085612c80565b600a0a935050505061103b565b600073ffffffffffffffffffffffffffffffffffffffff168573ffffffffffffffffffffffffffffffffffffffff161415610cb0576040517f08c379a00000000000000000000000000000000000000000000000000000000081526004018080602001828103825260148152602001807f496e76616c69642063757272656e6379206b657900000000000000000000000081525060200191505060405180910390fd5b8273ffffffffffffffffffffffffffffffffffffffff1663571a0885866040518263ffffffff1660e01b8152600401808273ffffffffffffffffffffffffffffffffffffffff16815260200191505060206040518083038186803b158015610d1757600080fd5b505afa158015610d2b573d6000803e3d6000fd5b505050506040513d6020811015610d4157600080fd5b8101908080519060200190929190505050610dc4576040517f08c379a00000000000000000000000000000000000000000000000000000000081526004018080602001828103825260198152602001807f43757272656e6379206973206e6f7420617661696c61626c650000000000000081525060200191505060405180910390fd5b6060600267ffffffffffffffff81118015610dde57600080fd5b50604051908082528060200260200182016040528015610e0d5781602001602082028036833780820191505090505b5090508581600081518110610e1e57fe5b602002602001019073ffffffffffffffffffffffffffffffffffffffff16908173ffffffffffffffffffffffffffffffffffffffff16815250508181600181518110610e6657fe5b602002602001019073ffffffffffffffffffffffffffffffffffffffff16908173ffffffffffffffffffffffffffffffffffffffff168152505060608373ffffffffffffffffffffffffffffffffffffffff1663d06ca61f610ec789612c80565b600a0a846040518363ffffffff1660e01b81526004018083815260200180602001828103825283818151815260200191508051906020019060200280838360005b83811015610f23578082015181840152602081019050610f08565b50505050905001935050505060006040518083038186803b158015610f4757600080fd5b505afa158015610f5b573d6000803e3d6000fd5b505050506040513d6000823e3d601f19601f820116820180604052506020811015610f8557600080fd5b8101908080516040519392919084640100000000821115610fa557600080fd5b83820191506020820185811115610fbb57600080fd5b8251866020820283011164010000000082111715610fd857600080fd5b8083526020830192505050908051906020019060200280838360005b8381101561100f578082015181840152602081019050610ff4565b5050505090500160405250505090508060018151811061102b57fe5b6020026020010151955050505050505b919050565b60008073ffffffffffffffffffffffffffffffffffffffff168273ffffffffffffffffffffffffffffffffffffffff1614156110e4576040517f08c379a00000000000000000000000000000000000000000000000000000000081526004018080602001828103825260148152602001807f496e76616c6964206661726d206164647265737300000000000000000000000081525060200191505060405180910390fd5b8173ffffffffffffffffffffffffffffffffffffffff166372f702f36040518163ffffffff1660e01b815260040160206040518083038186803b15801561112a57600080fd5b505afa15801561113e573d6000803e3d6000fd5b505050506040513d602081101561115457600080fd5b81019080805190602001909291905050509050919050565b7f000000000000000000000000000000000000000000000000000000000000000081565b6000807f000000000000000000000000000000000000000000000000000000000000000073ffffffffffffffffffffffffffffffffffffffff166304433bbc6040518163ffffffff1660e01b81526004018080602001828103825260088152602001807f53657474696e677300000000000000000000000000000000000000000000000081525060200191505060206040518083038186803b15801561123557600080fd5b505afa158015611249573d6000803e3d6000fd5b505050506040513d602081101561125f57600080fd5b8101908080519060200190929190505050905060007f000000000000000000000000000000000000000000000000000000000000000073ffffffffffffffffffffffffffffffffffffffff166304433bbc6040518163ffffffff1660e01b815260040180806020018281038252600d8152602001807f55626573776170526f757465720000000000000000000000000000000000000081525060200191505060206040518083038186803b15801561131657600080fd5b505afa15801561132a573d6000803e3d6000fd5b505050506040513d602081101561134057600080fd5b8101908080519060200190929190505050905060008273ffffffffffffffffffffffffffffffffffffffff1663be781b1c6040518163ffffffff1660e01b815260040160206040518083038186803b15801561139b57600080fd5b505afa1580156113af573d6000803e3d6000fd5b505050506040513d60208110156113c557600080fd5b81019080805190602001909291905050509050600073ffffffffffffffffffffffffffffffffffffffff168673ffffffffffffffffffffffffffffffffffffffff16141561147b576040517f08c379a00000000000000000000000000000000000000000000000000000000081526004018080602001828103825260178152602001807f496e76616c69642063757272656e6379206b657920696e00000000000000000081525060200191505060405180910390fd5b600073ffffffffffffffffffffffffffffffffffffffff168573ffffffffffffffffffffffffffffffffffffffff16141561151e576040517f08c379a00000000000000000000000000000000000000000000000000000000081526004018080602001828103825260188152602001807f496e76616c69642063757272656e6379206b6579206f7574000000000000000081525060200191505060405180910390fd5b8273ffffffffffffffffffffffffffffffffffffffff1663571a0885876040518263ffffffff1660e01b8152600401808273ffffffffffffffffffffffffffffffffffffffff16815260200191505060206040518083038186803b15801561158557600080fd5b505afa158015611599573d6000803e3d6000fd5b505050506040513d60208110156115af57600080fd5b8101908080519060200190929190505050806115f657508073ffffffffffffffffffffffffffffffffffffffff168673ffffffffffffffffffffffffffffffffffffffff16145b611668576040517f08c379a00000000000000000000000000000000000000000000000000000000081526004018080602001828103825260198152602001807f43757272656e6379206973206e6f7420617661696c61626c650000000000000081525060200191505060405180910390fd5b8273ffffffffffffffffffffffffffffffffffffffff1663571a0885866040518263ffffffff1660e01b8152600401808273ffffffffffffffffffffffffffffffffffffffff16815260200191505060206040518083038186803b1580156116cf57600080fd5b505afa1580156116e3573d6000803e3d6000fd5b505050506040513d60208110156116f957600080fd5b81019080805190602001909291905050508061174057508073ffffffffffffffffffffffffffffffffffffffff168573ffffffffffffffffffffffffffffffffffffffff16145b6117b2576040517f08c379a00000000000000000000000000000000000000000000000000000000081526004018080602001828103825260198152602001807f43757272656e6379206973206e6f7420617661696c61626c650000000000000081525060200191505060405180910390fd5b6000871161180b576040517f08c379a00000000000000000000000000000000000000000000000000000000081526004018080602001828103825260278152602001806136936027913960400191505060405180910390fd5b6060600267ffffffffffffffff8111801561182557600080fd5b506040519080825280602002602001820160405280156118545781602001602082028036833780820191505090505b509050868160008151811061186557fe5b602002602001019073ffffffffffffffffffffffffffffffffffffffff16908173ffffffffffffffffffffffffffffffffffffffff168152505085816001815181106118ad57fe5b602002602001019073ffffffffffffffffffffffffffffffffffffffff16908173ffffffffffffffffffffffffffffffffffffffff168152505060608373ffffffffffffffffffffffffffffffffffffffff1663d06ca61f8a846040518363ffffffff1660e01b81526004018083815260200180602001828103825283818151815260200191508051906020019060200280838360005b8381101561195f578082015181840152602081019050611944565b50505050905001935050505060006040518083038186803b15801561198357600080fd5b505afa158015611997573d6000803e3d6000fd5b505050506040513d6000823e3d601f19601f8201168201806040525060208110156119c157600080fd5b81019080805160405193929190846401000000008211156119e157600080fd5b838201915060208201858111156119f757600080fd5b8251866020820283011164010000000082111715611a1457600080fd5b8083526020830192505050908051906020019060200280838360005b83811015611a4b578082015181840152602081019050611a30565b50505050905001604052505050905080600181518110611a6757fe5b6020026020010151955050505050509392505050565b60007f000000000000000000000000000000000000000000000000000000000000000073ffffffffffffffffffffffffffffffffffffffff1663e51f8aba336040518263ffffffff1660e01b8152600401808273ffffffffffffffffffffffffffffffffffffffff16815260200191505060206040518083038186803b158015611b0657600080fd5b505afa158015611b1a573d6000803e3d6000fd5b505050506040513d6020811015611b3057600080fd5b8101908080519060200190929190505050611b96576040517f08c379a000000000000000000000000000000000000000000000000000000000815260040180806020018281038252602481526020018061366f6024913960400191505060405180910390fd5b611ba33386868686612d0d565b9050949350505050565b6000807f000000000000000000000000000000000000000000000000000000000000000073ffffffffffffffffffffffffffffffffffffffff1663e51f8aba336040518263ffffffff1660e01b8152600401808273ffffffffffffffffffffffffffffffffffffffff16815260200191505060206040518083038186803b158015611c3757600080fd5b505afa158015611c4b573d6000803e3d6000fd5b505050506040513d6020811015611c6157600080fd5b8101908080519060200190929190505050611cc7576040517f08c379a000000000000000000000000000000000000000000000000000000000815260040180806020018281038252602481526020018061366f6024913960400191505060405180910390fd5b611cd333868686613293565b91509150935093915050565b6000806000611cee8686612384565b9050600073ffffffffffffffffffffffffffffffffffffffff168173ffffffffffffffffffffffffffffffffffffffff161415611d76576040517f08c379a000000000000000000000000000000000000000000000000000000000815260040180806020018281038252602c815260200180613713602c913960400191505060405180910390fd5b60008673ffffffffffffffffffffffffffffffffffffffff166370a08231836040518263ffffffff1660e01b8152600401808273ffffffffffffffffffffffffffffffffffffffff16815260200191505060206040518083038186803b158015611ddf57600080fd5b505afa158015611df3573d6000803e3d6000fd5b505050506040513d6020811015611e0957600080fd5b8101908080519060200190929190505050905060008673ffffffffffffffffffffffffffffffffffffffff166370a08231846040518263ffffffff1660e01b8152600401808273ffffffffffffffffffffffffffffffffffffffff16815260200191505060206040518083038186803b158015611e8557600080fd5b505afa158015611e99573d6000803e3d6000fd5b505050506040513d6020811015611eaf57600080fd5b8101908080519060200190929190505050905060008373ffffffffffffffffffffffffffffffffffffffff166318160ddd6040518163ffffffff1660e01b815260040160206040518083038186803b158015611f0a57600080fd5b505afa158015611f1e573d6000803e3d6000fd5b505050506040513d6020811015611f3457600080fd5b810190808051906020019092919050505090506000611f6e82611f608a8761354f90919063ffffffff16565b61358690919063ffffffff16565b90506000611f9783611f898b8761354f90919063ffffffff16565b61358690919063ffffffff16565b9050818197509750505050505050935093915050565b606060007f000000000000000000000000000000000000000000000000000000000000000073ffffffffffffffffffffffffffffffffffffffff166304433bbc6040518163ffffffff1660e01b81526004018080602001828103825260128152602001807f55626573776170506f6f6c4d616e61676572000000000000000000000000000081525060200191505060206040518083038186803b15801561205357600080fd5b505afa158015612067573d6000803e3d6000fd5b505050506040513d602081101561207d57600080fd5b8101908080519060200190929190505050905060008173ffffffffffffffffffffffffffffffffffffffff16638c788de06040518163ffffffff1660e01b815260040160206040518083038186803b1580156120d857600080fd5b505afa1580156120ec573d6000803e3d6000fd5b505050506040513d602081101561210257600080fd5b8101908080519060200190929190505050905060608167ffffffffffffffff8111801561212e57600080fd5b5060405190808252806020026020018201604052801561215d5781602001602082028036833780820191505090505b50905060005b8281101561224a578373ffffffffffffffffffffffffffffffffffffffff16634a4ca369826040518263ffffffff1660e01b81526004018082815260200191505060206040518083038186803b1580156121bc57600080fd5b505afa1580156121d0573d6000803e3d6000fd5b505050506040513d60208110156121e657600080fd5b810190808051906020019092919050505082828151811061220357fe5b602002602001019073ffffffffffffffffffffffffffffffffffffffff16908173ffffffffffffffffffffffffffffffffffffffff16815250508080600101915050612163565b5080935050505090565b60007f000000000000000000000000000000000000000000000000000000000000000073ffffffffffffffffffffffffffffffffffffffff1663e51f8aba336040518263ffffffff1660e01b8152600401808273ffffffffffffffffffffffffffffffffffffffff16815260200191505060206040518083038186803b1580156122dd57600080fd5b505afa1580156122f1573d6000803e3d6000fd5b505050506040513d602081101561230757600080fd5b810190808051906020019092919050505061236d576040517f08c379a000000000000000000000000000000000000000000000000000000000815260040180806020018281038252602481526020018061366f6024913960400191505060405180910390fd5b61237a338686868661263b565b9050949350505050565b60008073ffffffffffffffffffffffffffffffffffffffff168373ffffffffffffffffffffffffffffffffffffffff16141561240b576040517f08c379a000000000000000000000000000000000000000000000000000000000815260040180806020018281038252602e8152602001806135bc602e913960400191505060405180910390fd5b600073ffffffffffffffffffffffffffffffffffffffff168273ffffffffffffffffffffffffffffffffffffffff161415612491576040517f08c379a000000000000000000000000000000000000000000000000000000000815260040180806020018281038252602e8152602001806136ba602e913960400191505060405180910390fd5b60007f000000000000000000000000000000000000000000000000000000000000000073ffffffffffffffffffffffffffffffffffffffff166304433bbc6040518163ffffffff1660e01b81526004018080602001828103825260108152602001807f556e69737761705632466163746f72790000000000000000000000000000000081525060200191505060206040518083038186803b15801561253557600080fd5b505afa158015612549573d6000803e3d6000fd5b505050506040513d602081101561255f57600080fd5b810190808051906020019092919050505090508073ffffffffffffffffffffffffffffffffffffffff1663e6a4390585856040518363ffffffff1660e01b8152600401808373ffffffffffffffffffffffffffffffffffffffff1681526020018273ffffffffffffffffffffffffffffffffffffffff1681526020019250505060206040518083038186803b1580156125f757600080fd5b505afa15801561260b573d6000803e3d6000fd5b505050506040513d602081101561262157600080fd5b810190808051906020019092919050505091505092915050565b600080612649848787611190565b905060006126776064612669600a6064038561354f90919063ffffffff16565b61358690919063ffffffff16565b90508381106126d1576040517f08c379a00000000000000000000000000000000000000000000000000000000081526004018080602001828103825260358152602001806135ea6035913960400191505060405180910390fd5b60007f000000000000000000000000000000000000000000000000000000000000000073ffffffffffffffffffffffffffffffffffffffff166304433bbc6040518163ffffffff1660e01b815260040180806020018281038252600d8152602001807f55626573776170526f757465720000000000000000000000000000000000000081525060200191505060206040518083038186803b15801561277557600080fd5b505afa158015612789573d6000803e3d6000fd5b505050506040513d602081101561279f57600080fd5b810190808051906020019092919050505090508773ffffffffffffffffffffffffffffffffffffffff1663095ea7b38260006040518363ffffffff1660e01b8152600401808373ffffffffffffffffffffffffffffffffffffffff16815260200182815260200192505050602060405180830381600087803b15801561282457600080fd5b505af1158015612838573d6000803e3d6000fd5b505050506040513d602081101561284e57600080fd5b8101908080519060200190929190505050508773ffffffffffffffffffffffffffffffffffffffff1663095ea7b382886040518363ffffffff1660e01b8152600401808373ffffffffffffffffffffffffffffffffffffffff16815260200182815260200192505050602060405180830381600087803b1580156128d157600080fd5b505af11580156128e5573d6000803e3d6000fd5b505050506040513d60208110156128fb57600080fd5b8101908080519060200190929190505050506060600267ffffffffffffffff8111801561292757600080fd5b506040519080825280602002602001820160405280156129565781602001602082028036833780820191505090505b509050888160008151811061296757fe5b602002602001019073ffffffffffffffffffffffffffffffffffffffff16908173ffffffffffffffffffffffffffffffffffffffff168152505087816001815181106129af57fe5b602002602001019073ffffffffffffffffffffffffffffffffffffffff16908173ffffffffffffffffffffffffffffffffffffffff168152505060608273ffffffffffffffffffffffffffffffffffffffff166338ed17398989858f426040518663ffffffff1660e01b815260040180868152602001858152602001806020018473ffffffffffffffffffffffffffffffffffffffff168152602001838152602001828103825285818151815260200191508051906020019060200280838360005b83811015612a8c578082015181840152602081019050612a71565b505050509050019650505050505050600060405180830381600087803b158015612ab557600080fd5b505af1158015612ac9573d6000803e3d6000fd5b505050506040513d6000823e3d601f19601f820116820180604052506020811015612af357600080fd5b8101908080516040519392919084640100000000821115612b1357600080fd5b83820191506020820185811115612b2957600080fd5b8251866020820283011164010000000082111715612b4657600080fd5b8083526020830192505050908051906020019060200280838360005b83811015612b7d578082015181840152602081019050612b62565b5050505090500160405250505090507fc9163c3bdf7263acf1bb3d24072cc7da025f7181c31e2edc7e1673edf5e0ca328b8b8b84600081518110612bbd57fe5b602002602001015185600187510381518110612bd557fe5b602002602001015142604051808773ffffffffffffffffffffffffffffffffffffffff1681526020018673ffffffffffffffffffffffffffffffffffffffff1681526020018573ffffffffffffffffffffffffffffffffffffffff168152602001848152602001838152602001828152602001965050505050505060405180910390a180600182510381518110612c6857fe5b60200260200101519550505050505095945050505050565b60008173ffffffffffffffffffffffffffffffffffffffff1663313ce5676040518163ffffffff1660e01b815260040160206040518083038186803b158015612cc857600080fd5b505afa158015612cdc573d6000803e3d6000fd5b505050506040513d6020811015612cf257600080fd5b810190808051906020019092919050505060ff169050919050565b6000807f000000000000000000000000000000000000000000000000000000000000000073ffffffffffffffffffffffffffffffffffffffff166304433bbc6040518163ffffffff1660e01b815260040180806020018281038252600d8152602001807f55626573776170526f757465720000000000000000000000000000000000000081525060200191505060206040518083038186803b158015612db257600080fd5b505afa158015612dc6573d6000803e3d6000fd5b505050506040513d6020811015612ddc57600080fd5b810190808051906020019092919050505090508573ffffffffffffffffffffffffffffffffffffffff1663095ea7b38260006040518363ffffffff1660e01b8152600401808373ffffffffffffffffffffffffffffffffffffffff16815260200182815260200192505050602060405180830381600087803b158015612e6157600080fd5b505af1158015612e75573d6000803e3d6000fd5b505050506040513d6020811015612e8b57600080fd5b8101908080519060200190929190505050508573ffffffffffffffffffffffffffffffffffffffff1663095ea7b382866040518363ffffffff1660e01b8152600401808373ffffffffffffffffffffffffffffffffffffffff16815260200182815260200192505050602060405180830381600087803b158015612f0e57600080fd5b505af1158015612f22573d6000803e3d6000fd5b505050506040513d6020811015612f3857600080fd5b8101908080519060200190929190505050508473ffffffffffffffffffffffffffffffffffffffff1663095ea7b38260006040518363ffffffff1660e01b8152600401808373ffffffffffffffffffffffffffffffffffffffff16815260200182815260200192505050602060405180830381600087803b158015612fbc57600080fd5b505af1158015612fd0573d6000803e3d6000fd5b505050506040513d6020811015612fe657600080fd5b8101908080519060200190929190505050508473ffffffffffffffffffffffffffffffffffffffff1663095ea7b382856040518363ffffffff1660e01b8152600401808373ffffffffffffffffffffffffffffffffffffffff16815260200182815260200192505050602060405180830381600087803b15801561306957600080fd5b505af115801561307d573d6000803e3d6000fd5b505050506040513d602081101561309357600080fd5b81019080805190602001909291905050505060008173ffffffffffffffffffffffffffffffffffffffff1663e8e33700888888886000808f6130e06102584261359f90919063ffffffff16565b6040518963ffffffff1660e01b8152600401808973ffffffffffffffffffffffffffffffffffffffff1681526020018873ffffffffffffffffffffffffffffffffffffffff1681526020018781526020018681526020018581526020018481526020018373ffffffffffffffffffffffffffffffffffffffff16815260200182815260200198505050505050505050606060405180830381600087803b15801561318957600080fd5b505af115801561319d573d6000803e3d6000fd5b505050506040513d60608110156131b357600080fd5b81019080805190602001909291908051906020019092919080519060200190929190505050925050507ff9ffff2daaa6b9472b5654f7e769ff05f7b28406632388932f783c6b97f2f58288888888888642604051808873ffffffffffffffffffffffffffffffffffffffff1681526020018773ffffffffffffffffffffffffffffffffffffffff1681526020018673ffffffffffffffffffffffffffffffffffffffff16815260200185815260200184815260200183815260200182815260200197505050505050505060405180910390a1809250505095945050505050565b60008060007f000000000000000000000000000000000000000000000000000000000000000073ffffffffffffffffffffffffffffffffffffffff166304433bbc6040518163ffffffff1660e01b815260040180806020018281038252600d8152602001807f55626573776170526f757465720000000000000000000000000000000000000081525060200191505060206040518083038186803b15801561333a57600080fd5b505afa15801561334e573d6000803e3d6000fd5b505050506040513d602081101561336457600080fd5b810190808051906020019092919050505090506000808273ffffffffffffffffffffffffffffffffffffffff1663baa2abde8989896000808f6133b26102584261359f90919063ffffffff16565b6040518863ffffffff1660e01b8152600401808873ffffffffffffffffffffffffffffffffffffffff1681526020018773ffffffffffffffffffffffffffffffffffffffff1681526020018681526020018581526020018481526020018373ffffffffffffffffffffffffffffffffffffffff1681526020018281526020019750505050505050506040805180830381600087803b15801561345357600080fd5b505af1158015613467573d6000803e3d6000fd5b505050506040513d604081101561347d57600080fd5b810190808051906020019092919080519060200190929190505050915091507f429032ba83790adfa842a372bffc1d5c12b6166819d7d0c597c3cd972c6ff786898989858542604051808773ffffffffffffffffffffffffffffffffffffffff1681526020018673ffffffffffffffffffffffffffffffffffffffff1681526020018573ffffffffffffffffffffffffffffffffffffffff168152602001848152602001838152602001828152602001965050505050505060405180910390a181819450945050505094509492505050565b6000808314156135625760009050613580565b600082840290508284828161357357fe5b041461357b57fe5b809150505b92915050565b60008082848161359257fe5b0490508091505092915050565b6000808284019050838110156135b157fe5b809150509291505056fe4261736555626573776170416461707465723a20696e76616c6964206164647265737320666f7220746f6b656e414261736555626573776170416461707465723a206d696e416d6f756e744f75742065786365656473206d617820736c6970706167654261736555626573776170416461707465723a20696e76616c696420706f6f6c20616464726573734261736555626573776170416461707465723a20696e76616c6964206661726d20616464726573734f6e6c792074686520706f6f6c2063616e2063616c6c20746869732066756e6374696f6e4e756d626572206f6620746f6b656e73206d7573742062652067726561746572207468616e20304261736555626573776170416461707465723a20696e76616c6964206164647265737320666f7220746f6b656e424f6e6c79207468652074726164696e6720626f742063616e2063616c6c20746869732066756e6374696f6e4261736555626573776170416461707465723a20696e76616c6964206164647265737320666f722070616972a2646970667358221220fab3681984beea269212bee430374bf9b9fc58a930ff5e7fc51846499ef9350164736f6c634300060c0033",
  "immutableReferences": {
    "32": [
      {
        "length": 32,
        "start": 2122
      },
      {
        "length": 32,
        "start": 2432
      },
      {
        "length": 32,
        "start": 2657
      },
      {
        "length": 32,
        "start": 4462
      },
      {
        "length": 32,
        "start": 4501
      },
      {
        "length": 32,
        "start": 4726
      },
      {
        "length": 32,
        "start": 6785
      },
      {
        "length": 32,
        "start": 7090
      },
      {
        "length": 32,
        "start": 8115
      },
      {
        "length": 32,
        "start": 8792
      },
      {
        "length": 32,
        "start": 9365
      },
      {
        "length": 32,
        "start": 9941
      },
      {
        "length": 32,
        "start": 11538
      },
      {
        "length": 32,
        "start": 12954
      }
    ]
  },
  "source": "pragma solidity >=0.5.0;\r\n\r\n//Interfaces\r\nimport './interfaces/IUniswapV2Router02.sol';\r\nimport './interfaces/IERC20.sol';\r\nimport './interfaces/ISettings.sol';\r\nimport './interfaces/IAddressResolver.sol';\r\nimport './interfaces/IUbeswapPoolManager.sol';\r\nimport './interfaces/IStakingRewards.sol';\r\nimport './interfaces/IUniswapV2Factory.sol';\r\n\r\n//Inheritance\r\nimport './interfaces/IBaseUbeswapAdapter.sol';\r\n\r\n//Libraries\r\nimport './libraries/SafeMath.sol';\r\n\r\ncontract BaseUbeswapAdapter is IBaseUbeswapAdapter {\r\n    using SafeMath for uint;\r\n\r\n    struct PoolInfo {\r\n        uint256 index;\r\n        address stakingToken;\r\n        address poolAddress;\r\n        uint256 weight;\r\n        // The next period in which the pool needs to be filled\r\n        uint256 nextPeriod;\r\n    }\r\n\r\n    // Max slippage percent allowed\r\n    uint public constant override MAX_SLIPPAGE_PERCENT = 10; //10% slippage\r\n\r\n    IAddressResolver public immutable ADDRESS_RESOLVER;\r\n\r\n    constructor(IAddressResolver addressResolver) public {\r\n        ADDRESS_RESOLVER = addressResolver;\r\n    }\r\n\r\n    /* ========== VIEWS ========== */\r\n\r\n    /**\r\n    * @dev Given an input asset address, returns the price of the asset in cUSD\r\n    * @param currencyKey Address of the asset\r\n    * @return uint Price of the asset\r\n    */\r\n    function getPrice(address currencyKey) public view override returns(uint) {\r\n        address settingsAddress = ADDRESS_RESOLVER.getContractAddress(\"Settings\");\r\n        address ubeswapRouterAddress = ADDRESS_RESOLVER.getContractAddress(\"UbeswapRouter\");\r\n        address stableCoinAddress = ISettings(settingsAddress).getStableCoinAddress();\r\n\r\n        //Check if currency key is cUSD\r\n        if (currencyKey == stableCoinAddress)\r\n        {\r\n            return 10 ** _getDecimals(currencyKey);\r\n        }\r\n\r\n        require(currencyKey != address(0), \"Invalid currency key\");\r\n        require(ISettings(settingsAddress).checkIfCurrencyIsAvailable(currencyKey), \"Currency is not available\");\r\n\r\n        address[] memory path = new address[](2);\r\n        path[0] = currencyKey;\r\n        path[1] = stableCoinAddress;\r\n\r\n        uint[] memory amounts = IUniswapV2Router02(ubeswapRouterAddress).getAmountsOut(10 ** _getDecimals(currencyKey), path); // 1 token -> cUSD\r\n\r\n        return amounts[1];\r\n    }\r\n\r\n    /**\r\n    * @dev Given an input asset amount, returns the maximum output amount of the other asset\r\n    * @notice Assumes numberOfTokens is multiplied by currency's decimals before function call\r\n    * @param numberOfTokens Number of tokens\r\n    * @param currencyKeyIn Address of the asset to be swap from\r\n    * @param currencyKeyOut Address of the asset to be swap to\r\n    * @return uint Amount out of the asset\r\n    */\r\n    function getAmountsOut(uint numberOfTokens, address currencyKeyIn, address currencyKeyOut) public view override returns (uint) {\r\n        address settingsAddress = ADDRESS_RESOLVER.getContractAddress(\"Settings\");\r\n        address ubeswapRouterAddress = ADDRESS_RESOLVER.getContractAddress(\"UbeswapRouter\");\r\n        address stableCoinAddress = ISettings(settingsAddress).getStableCoinAddress();\r\n\r\n        require(currencyKeyIn != address(0), \"Invalid currency key in\");\r\n        require(currencyKeyOut != address(0), \"Invalid currency key out\");\r\n        require(ISettings(settingsAddress).checkIfCurrencyIsAvailable(currencyKeyIn) || currencyKeyIn == stableCoinAddress, \"Currency is not available\");\r\n        require(ISettings(settingsAddress).checkIfCurrencyIsAvailable(currencyKeyOut) || currencyKeyOut == stableCoinAddress, \"Currency is not available\");\r\n        require(numberOfTokens > 0, \"Number of tokens must be greater than 0\");\r\n\r\n        address[] memory path = new address[](2);\r\n        path[0] = currencyKeyIn;\r\n        path[1] = currencyKeyOut;\r\n        uint[] memory amounts = IUniswapV2Router02(ubeswapRouterAddress).getAmountsOut(numberOfTokens, path);\r\n\r\n        return amounts[1];\r\n    }\r\n\r\n    /**\r\n    * @dev Returns the farm address and liquidity pool address for each available farm on Ubeswap\r\n    * @return address[] memory The farm address for each available farm\r\n    */\r\n    function getAvailableUbeswapFarms() public view override returns (address[] memory) {\r\n        address ubeswapPoolManagerAddress = ADDRESS_RESOLVER.getContractAddress(\"UbeswapPoolManager\");\r\n\r\n        uint numberOfAvailableFarms = IUbeswapPoolManager(ubeswapPoolManagerAddress).poolsCount();\r\n        address[] memory farmAddresses = new address[](numberOfAvailableFarms);\r\n\r\n        for (uint i = 0; i < numberOfAvailableFarms; i++)\r\n        {\r\n            farmAddresses[i] = IUbeswapPoolManager(ubeswapPoolManagerAddress).poolsByIndex(i);\r\n        }\r\n\r\n        return farmAddresses;\r\n    }\r\n\r\n    /**\r\n    * @dev Given the address of a farm on Ubeswap, returns the farm's staking token address\r\n    * @param farmAddress Address of the farm to check\r\n    * @return address The farm's staking token address\r\n    */\r\n    function checkIfFarmExists(address farmAddress) public view override returns (address) {\r\n        require(farmAddress != address(0), \"Invalid farm address\");\r\n\r\n        return IStakingRewards(farmAddress).stakingToken();\r\n    }\r\n\r\n    /**\r\n    * @dev Returns the address of a token pair\r\n    * @param tokenA First token in pair\r\n    * @param tokenB Second token in pair\r\n    * @return address The pair's address\r\n    */\r\n    function getPair(address tokenA, address tokenB) public view override returns (address) {\r\n        require(tokenA != address(0), \"BaseUbeswapAdapter: invalid address for tokenA\");\r\n        require(tokenB != address(0), \"BaseUbeswapAdapter: invalid address for tokenB\");\r\n\r\n        address uniswapV2FactoryAddress = ADDRESS_RESOLVER.getContractAddress(\"UniswapV2Factory\");\r\n\r\n        return IUniswapV2Factory(uniswapV2FactoryAddress).getPair(tokenA, tokenB);\r\n    }\r\n\r\n    /**\r\n    * @dev Returns the amount of UBE rewards available for the pool in the given farm\r\n    * @param poolAddress Address of the pool\r\n    * @param farmAddress Address of the farm on Ubeswap\r\n    * @return uint Amount of UBE available\r\n    */\r\n    function getAvailableRewards(address poolAddress, address farmAddress) public view override returns (uint) {\r\n        require(poolAddress != address(0), \"BaseUbeswapAdapter: invalid pool address\");\r\n        require(checkIfFarmExists(farmAddress) != address(0), \"BaseUbeswapAdapter: invalid farm address\");\r\n\r\n        return IStakingRewards(farmAddress).earned(poolAddress);\r\n    }\r\n\r\n    /**\r\n    * @dev Calculates the amount of tokens in a pair\r\n    * @param tokenA First token in pair\r\n    * @param tokenB Second token in pair\r\n    * @param numberOfLPTokens Number of LP tokens for the given pair\r\n    * @return (uint, uint) The number of tokens for tokenA and tokenB\r\n    */\r\n    function getTokenAmountsFromPair(address tokenA, address tokenB, uint numberOfLPTokens) public view override returns (uint, uint) {\r\n        address pair = getPair(tokenA, tokenB);\r\n        require(pair != address(0), \"BaseUbeswapAdapter: invalid address for pair\");\r\n\r\n        uint pairBalanceTokenA = IERC20(tokenA).balanceOf(pair);\r\n        uint pairBalanceTokenB = IERC20(tokenB).balanceOf(pair);\r\n        uint totalSupply = IERC20(pair).totalSupply();\r\n\r\n        uint amountA = pairBalanceTokenA.mul(numberOfLPTokens).div(totalSupply);\r\n        uint amountB = pairBalanceTokenB.mul(numberOfLPTokens).div(totalSupply);\r\n\r\n        return (amountA, amountB);\r\n    }\r\n\r\n    /* ========== RESTRICTED FUNCTIONS ========== */\r\n\r\n    /**\r\n    * @dev Swaps an exact `amountToSwap` of an asset to another; meant to be called from a user pool\r\n    * @notice Pool needs to transfer assetToSwapFrom to BaseUbeswapAdapter before calling this function\r\n    * @param assetToSwapFrom Origin asset\r\n    * @param assetToSwapTo Destination asset\r\n    * @param amountToSwap Exact amount of `assetToSwapFrom` to be swapped\r\n    * @param minAmountOut the min amount of `assetToSwapTo` to be received from the swap\r\n    * @return the number of tokens received\r\n    */\r\n    function swapFromPool(address assetToSwapFrom, address assetToSwapTo, uint amountToSwap, uint minAmountOut) public override returns (uint) {\r\n        require(ADDRESS_RESOLVER.checkIfPoolAddressIsValid(msg.sender), \"Only the pool can call this function\");\r\n\r\n        return _swapExactTokensForTokens(msg.sender, assetToSwapFrom, assetToSwapTo, amountToSwap, minAmountOut);\r\n    }\r\n\r\n    /**\r\n    * @dev Swaps an exact `amountToSwap` of an asset to another; meant to be called from a trading bot\r\n    * @notice Bot needs to transfer assetToSwapFrom to BaseUbeswapAdapter before calling this function\r\n    * @param assetToSwapFrom Origin asset\r\n    * @param assetToSwapTo Destination asset\r\n    * @param amountToSwap Exact amount of `assetToSwapFrom` to be swapped\r\n    * @param minAmountOut the min amount of `assetToSwapTo` to be received from the swap\r\n    * @return the number of tokens received\r\n    */\r\n    function swapFromBot(address assetToSwapFrom, address assetToSwapTo, uint amountToSwap, uint minAmountOut) public override returns (uint) {\r\n        require(ADDRESS_RESOLVER.checkIfTradingBotAddressIsValid(msg.sender), \"Only the trading bot can call this function\");\r\n\r\n        return _swapExactTokensForTokens(msg.sender, assetToSwapFrom, assetToSwapTo, amountToSwap, minAmountOut);\r\n    }\r\n\r\n    /**\r\n    * @dev Adds liquidity for the two given tokens; meant to be called from a pool\r\n    * @param tokenA First token in pair\r\n    * @param tokenB Second token in pair\r\n    * @param amountA Amount of first token\r\n    * @param amountB Amount of second token\r\n    * @return uint The number of tokens LP tokens minted\r\n    */\r\n    function addLiquidity(address tokenA, address tokenB, uint amountA, uint amountB) public override returns (uint) {\r\n        require(ADDRESS_RESOLVER.checkIfPoolAddressIsValid(msg.sender), \"Only the pool can call this function\");\r\n\r\n        return _addLiquidity(msg.sender, tokenA, tokenB, amountA, amountB);\r\n    }\r\n\r\n    /**\r\n    * @dev Removes liquidity for the two given tokens; meant to be called from a pool\r\n    * @param tokenA First token in pair\r\n    * @param tokenB Second token in pair\r\n    * @param numberOfLPTokens Number of LP tokens for the given pair\r\n    * @return (uint, uint) Amount of tokenA and tokenB withdrawn\r\n    */\r\n    function removeLiquidity(address tokenA, address tokenB, uint numberOfLPTokens) public override returns (uint, uint) {\r\n        require(ADDRESS_RESOLVER.checkIfPoolAddressIsValid(msg.sender), \"Only the pool can call this function\");\r\n\r\n        return _removeLiquidity(msg.sender, tokenA, tokenB, numberOfLPTokens);\r\n    }\r\n\r\n    /* ========== INTERNAL FUNCTIONS ========== */\r\n\r\n    /**\r\n    * @dev Swaps an exact `amountToSwap` of an asset to another\r\n    * @notice Assumes amountToSwap is multiplied by currency's decimals before function call\r\n    * @param addressToSwapFrom the pool or bot that is making the swap\r\n    * @param assetToSwapFrom Origin asset\r\n    * @param assetToSwapTo Destination asset\r\n    * @param amountToSwap Exact amount of `assetToSwapFrom` to be swapped\r\n    * @param minAmountOut the min amount of `assetToSwapTo` to be received from the swap\r\n    * @return the amount of tokens received\r\n    */\r\n    function _swapExactTokensForTokens(address addressToSwapFrom, address assetToSwapFrom, address assetToSwapTo, uint amountToSwap, uint minAmountOut) internal returns (uint) {\r\n        uint amountOut = getAmountsOut(amountToSwap, assetToSwapFrom, assetToSwapTo);\r\n        uint expectedMinAmountOut = amountOut.mul(100 - MAX_SLIPPAGE_PERCENT).div(100);\r\n\r\n        require(expectedMinAmountOut < minAmountOut, 'BaseUbeswapAdapter: minAmountOut exceeds max slippage');\r\n\r\n        address ubeswapRouterAddress = ADDRESS_RESOLVER.getContractAddress(\"UbeswapRouter\");\r\n\r\n        // Approves the transfer for the swap. Approves for 0 first to comply with tokens that implement the anti frontrunning approval fix.\r\n        IERC20(assetToSwapFrom).approve(ubeswapRouterAddress, 0);\r\n        IERC20(assetToSwapFrom).approve(ubeswapRouterAddress, amountToSwap);\r\n\r\n        address[] memory path;\r\n        path = new address[](2);\r\n        path[0] = assetToSwapFrom;\r\n        path[1] = assetToSwapTo;\r\n\r\n        uint[] memory amounts = IUniswapV2Router02(ubeswapRouterAddress).swapExactTokensForTokens(amountToSwap, minAmountOut, path, addressToSwapFrom, block.timestamp);\r\n\r\n        emit Swapped(addressToSwapFrom, assetToSwapFrom, assetToSwapTo, amounts[0], amounts[amounts.length - 1], block.timestamp);\r\n\r\n        return amounts[amounts.length - 1];\r\n    }\r\n\r\n    /**\r\n    * @dev Adds liquidity for the two given tokens\r\n    * @param addressToAddFrom Address of the pool\r\n    * @param tokenA First token in pair\r\n    * @param tokenB Second token in pair\r\n    * @param amountA Amount of first token\r\n    * @param amountB Amount of second token\r\n    * @return uint The number of tokens LP tokens minted\r\n    */\r\n    function _addLiquidity(address addressToAddFrom, address tokenA, address tokenB, uint amountA, uint amountB) internal returns (uint) {\r\n        address ubeswapRouterAddress = ADDRESS_RESOLVER.getContractAddress(\"UbeswapRouter\");\r\n\r\n        // Approves the transfer for the swap. Approves for 0 first to comply with tokens that implement the anti frontrunning approval fix.\r\n        IERC20(tokenA).approve(ubeswapRouterAddress, 0);\r\n        IERC20(tokenA).approve(ubeswapRouterAddress, amountA);\r\n\r\n        // Approves the transfer for the swap. Approves for 0 first to comply with tokens that implement the anti frontrunning approval fix.\r\n        IERC20(tokenB).approve(ubeswapRouterAddress, 0);\r\n        IERC20(tokenB).approve(ubeswapRouterAddress, amountB);\r\n\r\n        (,, uint numberOfLPTokens) = IUniswapV2Router02(ubeswapRouterAddress).addLiquidity(tokenA, tokenB, amountA, amountB, 0, 0, addressToAddFrom, block.timestamp.add(10 minutes));\r\n\r\n        emit AddedLiquidity(addressToAddFrom, tokenA, tokenB, amountA, amountB, numberOfLPTokens, block.timestamp);\r\n\r\n        return numberOfLPTokens;\r\n    }\r\n\r\n    /**\r\n    * @dev Removes liquidity for the two given tokens\r\n    * @param addressToRemoveFrom Address of the pool\r\n    * @param tokenA First token in pair\r\n    * @param tokenB Second token in pair\r\n    * @param numberOfLPTokens Number of LP tokens for the given pair\r\n    * @return (uint, uint) Amount of tokenA and tokenB withdrawn\r\n    */\r\n    function _removeLiquidity(address addressToRemoveFrom, address tokenA, address tokenB, uint numberOfLPTokens) internal returns (uint, uint) {\r\n        address ubeswapRouterAddress = ADDRESS_RESOLVER.getContractAddress(\"UbeswapRouter\");\r\n\r\n        (uint amountAReceived, uint amountBReceived) = IUniswapV2Router02(ubeswapRouterAddress).removeLiquidity(tokenA, tokenB, numberOfLPTokens, 0, 0, addressToRemoveFrom, block.timestamp.add(10 minutes));\r\n        emit RemovedLiquidity(addressToRemoveFrom, tokenA, tokenB, amountAReceived, amountBReceived, block.timestamp);\r\n\r\n        return (amountAReceived, amountBReceived);\r\n    }\r\n\r\n    /**\r\n    * @dev Get the decimals of an asset\r\n    * @return number of decimals of the asset\r\n    */\r\n    function _getDecimals(address asset) internal view returns (uint) {\r\n        return IERC20(asset).decimals();\r\n    }\r\n\r\n    /* ========== EVENTS ========== */\r\n\r\n    event Swapped(address addressSwappedFrom, address fromAsset, address toAsset, uint fromAmount, uint receivedAmount, uint timestamp);\r\n    event AddedLiquidity(address addressAddedFrom, address tokenA, address tokenB, uint amountA, uint amountB, uint numberOfLPTokens, uint timestamp);\r\n    event RemovedLiquidity(address addressRemovedFrom, address tokenA, address tokenB, uint amountAReceived, uint amountBReceived, uint timestamp);\r\n}",
  "sourcePath": "C:/Users/xavie/OneDrive/Desktop/TradeGen/Github/tradegen/contracts/BaseUbeswapAdapter.sol",
  "compiler": {
    "name": "solc",
    "version": "0.6.12+commit.27d51765.Emscripten.clang"
  },
  "schemaVersion": "3.4.1",
  "updatedAt": "2021-08-09T16:04:44.361Z",
  "devdoc": {
    "kind": "dev",
    "methods": {
      "addLiquidity(address,address,uint256,uint256)": {
        "details": "Adds liquidity for the two given tokens; meant to be called from a pool",
        "params": {
          "amountA": "Amount of first token",
          "amountB": "Amount of second token",
          "tokenA": "First token in pair",
          "tokenB": "Second token in pair"
        },
        "returns": {
          "_0": "uint The number of tokens LP tokens minted"
        }
      },
      "checkIfFarmExists(address)": {
        "details": "Given the address of a farm on Ubeswap, returns the farm's staking token address",
        "params": {
          "farmAddress": "Address of the farm to check"
        },
        "returns": {
          "_0": "address The farm's staking token address"
        }
      },
      "getAmountsOut(uint256,address,address)": {
        "details": "Given an input asset amount, returns the maximum output amount of the other asset",
        "params": {
          "currencyKeyIn": "Address of the asset to be swap from",
          "currencyKeyOut": "Address of the asset to be swap to",
          "numberOfTokens": "Number of tokens"
        },
        "returns": {
          "_0": "uint Amount out of the asset"
        }
      },
      "getAvailableRewards(address,address)": {
        "details": "Returns the amount of UBE rewards available for the pool in the given farm",
        "params": {
          "farmAddress": "Address of the farm on Ubeswap",
          "poolAddress": "Address of the pool"
        },
        "returns": {
          "_0": "uint Amount of UBE available"
        }
      },
      "getAvailableUbeswapFarms()": {
        "details": "Returns the farm address and liquidity pool address for each available farm on Ubeswap",
        "returns": {
          "_0": "address[] memory The farm address for each available farm"
        }
      },
      "getPair(address,address)": {
        "details": "Returns the address of a token pair",
        "params": {
          "tokenA": "First token in pair",
          "tokenB": "Second token in pair"
        },
        "returns": {
          "_0": "address The pair's address"
        }
      },
      "getPrice(address)": {
        "details": "Given an input asset address, returns the price of the asset in cUSD",
        "params": {
          "currencyKey": "Address of the asset"
        },
        "returns": {
          "_0": "uint Price of the asset"
        }
      },
      "getTokenAmountsFromPair(address,address,uint256)": {
        "details": "Calculates the amount of tokens in a pair",
        "params": {
          "numberOfLPTokens": "Number of LP tokens for the given pair",
          "tokenA": "First token in pair",
          "tokenB": "Second token in pair"
        },
        "returns": {
          "_0": "(uint, uint) The number of tokens for tokenA and tokenB"
        }
      },
      "removeLiquidity(address,address,uint256)": {
        "details": "Removes liquidity for the two given tokens; meant to be called from a pool",
        "params": {
          "numberOfLPTokens": "Number of LP tokens for the given pair",
          "tokenA": "First token in pair",
          "tokenB": "Second token in pair"
        },
        "returns": {
          "_0": "(uint, uint) Amount of tokenA and tokenB withdrawn"
        }
      },
      "swapFromBot(address,address,uint256,uint256)": {
        "details": "Swaps an exact `amountToSwap` of an asset to another; meant to be called from a trading bot",
        "params": {
          "amountToSwap": "Exact amount of `assetToSwapFrom` to be swapped",
          "assetToSwapFrom": "Origin asset",
          "assetToSwapTo": "Destination asset",
          "minAmountOut": "the min amount of `assetToSwapTo` to be received from the swap"
        },
        "returns": {
          "_0": "the number of tokens received"
        }
      },
      "swapFromPool(address,address,uint256,uint256)": {
        "details": "Swaps an exact `amountToSwap` of an asset to another; meant to be called from a user pool",
        "params": {
          "amountToSwap": "Exact amount of `assetToSwapFrom` to be swapped",
          "assetToSwapFrom": "Origin asset",
          "assetToSwapTo": "Destination asset",
          "minAmountOut": "the min amount of `assetToSwapTo` to be received from the swap"
        },
        "returns": {
          "_0": "the number of tokens received"
        }
      }
    },
    "version": 1
  },
  "userdoc": {
    "kind": "user",
    "methods": {
      "getAmountsOut(uint256,address,address)": {
        "notice": "Assumes numberOfTokens is multiplied by currency's decimals before function call"
      },
      "swapFromBot(address,address,uint256,uint256)": {
        "notice": "Bot needs to transfer assetToSwapFrom to BaseUbeswapAdapter before calling this function"
      },
      "swapFromPool(address,address,uint256,uint256)": {
        "notice": "Pool needs to transfer assetToSwapFrom to BaseUbeswapAdapter before calling this function"
      }
    },
    "version": 1
  }
}