{
  "contractName": "Closes",
  "abi": [
    {
      "inputs": [
        {
          "internalType": "uint256",
          "name": "price",
          "type": "uint256"
        }
      ],
      "stateMutability": "nonpayable",
      "type": "constructor"
    },
    {
      "anonymous": false,
      "inputs": [
        {
          "indexed": true,
          "internalType": "address",
          "name": "comparatorAddress",
          "type": "address"
        },
        {
          "indexed": false,
          "internalType": "uint256",
          "name": "newPrice",
          "type": "uint256"
        },
        {
          "indexed": false,
          "internalType": "uint256",
          "name": "timestamp",
          "type": "uint256"
        }
      ],
      "name": "UpdatedPrice",
      "type": "event"
    },
    {
      "inputs": [],
      "name": "_developer",
      "outputs": [
        {
          "internalType": "address",
          "name": "",
          "type": "address"
        }
      ],
      "stateMutability": "view",
      "type": "function"
    },
    {
      "inputs": [],
      "name": "_price",
      "outputs": [
        {
          "internalType": "uint256",
          "name": "",
          "type": "uint256"
        }
      ],
      "stateMutability": "view",
      "type": "function"
    },
    {
      "inputs": [],
      "name": "getPriceAndDeveloper",
      "outputs": [
        {
          "internalType": "uint256",
          "name": "",
          "type": "uint256"
        },
        {
          "internalType": "address",
          "name": "",
          "type": "address"
        }
      ],
      "stateMutability": "view",
      "type": "function"
    },
    {
      "inputs": [
        {
          "internalType": "uint256",
          "name": "newPrice",
          "type": "uint256"
        }
      ],
      "name": "editPrice",
      "outputs": [],
      "stateMutability": "nonpayable",
      "type": "function"
    },
    {
      "inputs": [
        {
          "internalType": "address",
          "name": "firstIndicatorAddress",
          "type": "address"
        },
        {
          "internalType": "address",
          "name": "secondIndicatorAddress",
          "type": "address"
        }
      ],
      "name": "addTradingBot",
      "outputs": [],
      "stateMutability": "nonpayable",
      "type": "function"
    },
    {
      "inputs": [],
      "name": "checkConditions",
      "outputs": [
        {
          "internalType": "bool",
          "name": "",
          "type": "bool"
        }
      ],
      "stateMutability": "nonpayable",
      "type": "function"
    }
  ],
  "bytecode": "0x608060405234801561001057600080fd5b50604051610eb4380380610eb48339818101604052602081101561003357600080fd5b810190808051906020019092919050505060008110156100bb576040517f08c379a000000000000000000000000000000000000000000000000000000000815260040180806020018281038252601c8152602001807f5072696365206d7573742062652067726561746572207468616e20300000000081525060200191505060405180910390fd5b8060008190555033600160006101000a81548173ffffffffffffffffffffffffffffffffffffffff021916908373ffffffffffffffffffffffffffffffffffffffff16021790555050610da1806101136000396000f3fe608060405234801561001057600080fd5b50600436106100625760003560e01c8063174862f814610067578063235b6ea1146100cb5780637a9d0758146100e95780637d6760bf1461011d578063a22a8b2914610158578063dfd09fa514610186575b600080fd5b6100c96004803603604081101561007d57600080fd5b81019080803573ffffffffffffffffffffffffffffffffffffffff169060200190929190803573ffffffffffffffffffffffffffffffffffffffff1690602001909291905050506101a6565b005b6100d36104ca565b6040518082815260200191505060405180910390f35b6100f16104d0565b604051808273ffffffffffffffffffffffffffffffffffffffff16815260200191505060405180910390f35b6101256104f6565b604051808381526020018273ffffffffffffffffffffffffffffffffffffffff1681526020019250505060405180910390f35b6101846004803603602081101561016e57600080fd5b8101908080359060200190929190505050610527565b005b61018e6106a4565b60405180821515815260200191505060405180910390f35b600073ffffffffffffffffffffffffffffffffffffffff168273ffffffffffffffffffffffffffffffffffffffff161415610249576040517f08c379a000000000000000000000000000000000000000000000000000000000815260040180806020018281038252601f8152602001807f496e76616c696420666972737420696e64696361746f7220616464726573730081525060200191505060405180910390fd5b600073ffffffffffffffffffffffffffffffffffffffff168173ffffffffffffffffffffffffffffffffffffffff1614156102ec576040517f08c379a00000000000000000000000000000000000000000000000000000000081526004018080602001828103825260208152602001807f496e76616c6964207365636f6e6420696e64696361746f72206164647265737381525060200191505060405180910390fd5b6000600260003373ffffffffffffffffffffffffffffffffffffffff1673ffffffffffffffffffffffffffffffffffffffff16815260200190815260200160002060020154146103a4576040517f08c379a000000000000000000000000000000000000000000000000000000000815260040180806020018281038252601a8152602001807f54726164696e6720626f7420616c72656164792065786973747300000000000081525060200191505060405180910390fd5b60405180606001604052808373ffffffffffffffffffffffffffffffffffffffff1681526020018273ffffffffffffffffffffffffffffffffffffffff1681526020016000815250600260003373ffffffffffffffffffffffffffffffffffffffff1673ffffffffffffffffffffffffffffffffffffffff16815260200190815260200160002060008201518160000160006101000a81548173ffffffffffffffffffffffffffffffffffffffff021916908373ffffffffffffffffffffffffffffffffffffffff16021790555060208201518160010160006101000a81548173ffffffffffffffffffffffffffffffffffffffff021916908373ffffffffffffffffffffffffffffffffffffffff160217905550604082015181600201559050505050565b60005481565b600160009054906101000a900473ffffffffffffffffffffffffffffffffffffffff1681565b600080600054600160009054906101000a900473ffffffffffffffffffffffffffffffffffffffff16915091509091565b600160009054906101000a900473ffffffffffffffffffffffffffffffffffffffff1673ffffffffffffffffffffffffffffffffffffffff163373ffffffffffffffffffffffffffffffffffffffff16146105cd576040517f08c379a0000000000000000000000000000000000000000000000000000000008152600401808060200182810382526025815260200180610d476025913960400191505060405180910390fd5b6000811015610644576040517f08c379a000000000000000000000000000000000000000000000000000000000815260040180806020018281038252601f8152602001807f5072696365206d757374206265206120706f736974697665206e756d6265720081525060200191505060405180910390fd5b806000819055503073ffffffffffffffffffffffffffffffffffffffff167ff55d9f2dbb0ce58a822e950a56c6b24b103fae2b7633f87087fc24beba1754548242604051808381526020018281526020019250505060405180910390a250565b600080600260003373ffffffffffffffffffffffffffffffffffffffff1673ffffffffffffffffffffffffffffffffffffffff168152602001908152602001600020905060608160000160009054906101000a900473ffffffffffffffffffffffffffffffffffffffff1673ffffffffffffffffffffffffffffffffffffffff16633ccc0522336040518263ffffffff1660e01b8152600401808273ffffffffffffffffffffffffffffffffffffffff16815260200191505060006040518083038186803b15801561077557600080fd5b505afa158015610789573d6000803e3d6000fd5b505050506040513d6000823e3d601f19601f8201168201806040525060208110156107b357600080fd5b81019080805160405193929190846401000000008211156107d357600080fd5b838201915060208201858111156107e957600080fd5b825186602082028301116401000000008211171561080657600080fd5b8083526020830192505050908051906020019060200280838360005b8381101561083d578082015181840152602081019050610822565b5050505090500160405250505090506040518060400160405280600281526020017f5570000000000000000000000000000000000000000000000000000000000000815250805190602001208260010160009054906101000a900473ffffffffffffffffffffffffffffffffffffffff1673ffffffffffffffffffffffffffffffffffffffff166317d7de7c6040518163ffffffff1660e01b815260040160006040518083038186803b1580156108f357600080fd5b505afa158015610907573d6000803e3d6000fd5b505050506040513d6000823e3d601f19601f82011682018060405250602081101561093157600080fd5b810190808051604051939291908464010000000082111561095157600080fd5b8382019150602082018581111561096757600080fd5b825186600182028301116401000000008211171561098457600080fd5b8083526020830192505050908051906020019080838360005b838110156109b857808201518184015260208101905061099d565b50505050905090810190601f1680156109e55780820380516001836020036101000a031916815260200191505b50604052505050805190602001201415610ac457600081511415610a0e57600092505050610d43565b600181511115610a7d576000600190505b8151811015610a7157816001820381518110610a3757fe5b6020026020010151828281518110610a4b57fe5b602002602001015111610a645760009350505050610d43565b8080600101915050610a1f565b50600192505050610d43565b6000826002015482600081518110610a9157fe5b602002602001015111905081600081518110610aa957fe5b60200260200101518360020181905550809350505050610d43565b6040518060400160405280600481526020017f446f776e00000000000000000000000000000000000000000000000000000000815250805190602001208260010160009054906101000a900473ffffffffffffffffffffffffffffffffffffffff1673ffffffffffffffffffffffffffffffffffffffff166317d7de7c6040518163ffffffff1660e01b815260040160006040518083038186803b158015610b6b57600080fd5b505afa158015610b7f573d6000803e3d6000fd5b505050506040513d6000823e3d601f19601f820116820180604052506020811015610ba957600080fd5b8101908080516040519392919084640100000000821115610bc957600080fd5b83820191506020820185811115610bdf57600080fd5b8251866001820283011164010000000082111715610bfc57600080fd5b8083526020830192505050908051906020019080838360005b83811015610c30578082015181840152602081019050610c15565b50505050905090810190601f168015610c5d5780820380516001836020036101000a031916815260200191505b50604052505050805190602001201415610d3c57600081511415610c8657600092505050610d43565b600181511115610cf5576000600190505b8151811015610ce957816001820381518110610caf57fe5b6020026020010151828281518110610cc357fe5b602002602001015110610cdc5760009350505050610d43565b8080600101915050610c97565b50600192505050610d43565b6000826002015482600081518110610d0957fe5b602002602001015110905081600081518110610d2157fe5b60200260200101518360020181905550809350505050610d43565b6000925050505b9056fe4f6e6c792074686520646576656c6f7065722063616e206564697420746865207072696365a2646970667358221220021510bc4820a95913653dbeaf4f6ad345114101322e363e7eca3c65d50b49b364736f6c634300060c0033",
  "immutableReferences": {},
  "source": "pragma solidity >=0.5.0;\r\n\r\nimport './interfaces/IIndicator.sol';\r\nimport './interfaces/IComparator.sol';\r\n\r\ncontract Closes is IComparator {\r\n\r\n    struct State {\r\n        address firstIndicatorAddress;\r\n        address secondIndicatorAddress;\r\n        uint previousPrice;\r\n    }\r\n\r\n    uint public _price;\r\n    address public _developer;\r\n\r\n    mapping (address => State) private _tradingBotStates;\r\n\r\n    constructor(uint price) public {\r\n        require(price >= 0, \"Price must be greater than 0\");\r\n\r\n        _price = price;\r\n        _developer = msg.sender;\r\n    }\r\n\r\n    /**\r\n    * @dev Returns the sale price and the developer of the comparator\r\n    * @return (uint, address) Sale price of the comparator and the comparator's developer\r\n    */\r\n    function getPriceAndDeveloper() public view override returns (uint, address) {\r\n        return (_price, _developer);\r\n    }\r\n\r\n    /**\r\n    * @dev Updates the sale price of the comparator; meant to be called by the comparator developer\r\n    * @param newPrice The new sale price of the comparator\r\n    */\r\n    function editPrice(uint newPrice) external override {\r\n        require(msg.sender == _developer, \"Only the developer can edit the price\");\r\n        require(newPrice >= 0, \"Price must be a positive number\");\r\n\r\n        _price = newPrice;\r\n\r\n        emit UpdatedPrice(address(this), newPrice, block.timestamp);\r\n    }\r\n\r\n    /**\r\n    * @dev Initializes the state of the trading bot; meant to be called by a trading bot\r\n    * @param firstIndicatorAddress Address of the comparator's first indicator\r\n    * @param secondIndicatorAddress Address of the comparator's second indicator\r\n    */\r\n    function addTradingBot(address firstIndicatorAddress, address secondIndicatorAddress) public override {\r\n        require(firstIndicatorAddress != address(0), \"Invalid first indicator address\");\r\n        require(secondIndicatorAddress != address(0), \"Invalid second indicator address\");\r\n        require(_tradingBotStates[msg.sender].previousPrice == 0, \"Trading bot already exists\");\r\n\r\n        _tradingBotStates[msg.sender] = State(firstIndicatorAddress, secondIndicatorAddress, 0);\r\n    }\r\n\r\n    /**\r\n    * @dev Returns whether the comparator's conditions are met\r\n    * @notice Only 'Up' and 'Down' are compatible second indicators\r\n    * @return bool Whether the comparator's conditions are met after the latest price feed update\r\n    */\r\n    function checkConditions() public override returns (bool) {\r\n        State storage tradingBotState = _tradingBotStates[msg.sender];\r\n        uint[] memory priceHistory = IIndicator(tradingBotState.firstIndicatorAddress).getValue(msg.sender);\r\n        \r\n        if (keccak256(bytes(IIndicator(tradingBotState.secondIndicatorAddress).getName())) == keccak256(bytes(\"Up\")))\r\n        {\r\n            if (priceHistory.length == 0)\r\n            {\r\n                return false;\r\n            }\r\n\r\n            if (priceHistory.length > 1)\r\n            {\r\n                for (uint i = 1; i < priceHistory.length; i++)\r\n                {\r\n                    if (priceHistory[i] <= priceHistory[i - 1])\r\n                    {\r\n                        return false;\r\n                    }\r\n                }\r\n\r\n                return true;\r\n            }\r\n            else\r\n            {\r\n                bool result = (priceHistory[0] > tradingBotState.previousPrice);\r\n                tradingBotState.previousPrice = priceHistory[0];\r\n                return result;\r\n            }\r\n        }\r\n        else if (keccak256(bytes(IIndicator(tradingBotState.secondIndicatorAddress).getName())) == keccak256(bytes(\"Down\")))\r\n        {\r\n            if (priceHistory.length == 0)\r\n            {\r\n                return false;\r\n            }\r\n\r\n            if (priceHistory.length > 1)\r\n            {\r\n                for (uint i = 1; i < priceHistory.length; i++)\r\n                {\r\n                    if (priceHistory[i] >= priceHistory[i - 1])\r\n                    {\r\n                        return false;\r\n                    }\r\n                }\r\n\r\n                return true;\r\n            }\r\n            else\r\n            {\r\n                bool result = (priceHistory[0] < tradingBotState.previousPrice);\r\n                tradingBotState.previousPrice = priceHistory[0];\r\n                return result;\r\n            }\r\n        }\r\n\r\n        return false;\r\n    }\r\n}",
  "sourcePath": "C:/Users/xavie/OneDrive/Desktop/TradeGen/Github/tradegen/contracts/Closes.sol",
  "compiler": {
    "name": "solc",
    "version": "0.6.12+commit.27d51765.Emscripten.clang"
  },
  "schemaVersion": "3.4.1",
  "updatedAt": "2021-07-01T16:13:00.208Z",
  "devdoc": {
    "kind": "dev",
    "methods": {
      "addTradingBot(address,address)": {
        "details": "Initializes the state of the trading bot; meant to be called by a trading bot",
        "params": {
          "firstIndicatorAddress": "Address of the comparator's first indicator",
          "secondIndicatorAddress": "Address of the comparator's second indicator"
        }
      },
      "checkConditions()": {
        "details": "Returns whether the comparator's conditions are met",
        "returns": {
          "_0": "bool Whether the comparator's conditions are met after the latest price feed update"
        }
      },
      "editPrice(uint256)": {
        "details": "Updates the sale price of the comparator; meant to be called by the comparator developer",
        "params": {
          "newPrice": "The new sale price of the comparator"
        }
      },
      "getPriceAndDeveloper()": {
        "details": "Returns the sale price and the developer of the comparator",
        "returns": {
          "_0": "(uint, address) Sale price of the comparator and the comparator's developer"
        }
      }
    },
    "version": 1
  },
  "userdoc": {
    "kind": "user",
    "methods": {
      "checkConditions()": {
        "notice": "Only 'Up' and 'Down' are compatible second indicators"
      }
    },
    "version": 1
  }
}