{
  "contractName": "DistributeFunds",
  "abi": [
    {
      "inputs": [
        {
          "internalType": "contract IAddressResolver",
          "name": "_addressResolver",
          "type": "address"
        }
      ],
      "stateMutability": "nonpayable",
      "type": "constructor"
    },
    {
      "anonymous": false,
      "inputs": [
        {
          "indexed": true,
          "internalType": "address",
          "name": "account",
          "type": "address"
        },
        {
          "indexed": false,
          "internalType": "uint256",
          "name": "quantity",
          "type": "uint256"
        },
        {
          "indexed": false,
          "internalType": "string",
          "name": "name",
          "type": "string"
        }
      ],
      "name": "AddedRecipient",
      "type": "event"
    },
    {
      "anonymous": false,
      "inputs": [
        {
          "indexed": true,
          "internalType": "address",
          "name": "previousOwner",
          "type": "address"
        },
        {
          "indexed": true,
          "internalType": "address",
          "name": "newOwner",
          "type": "address"
        }
      ],
      "name": "OwnershipTransferred",
      "type": "event"
    },
    {
      "inputs": [],
      "name": "ADDRESS_RESOLVER",
      "outputs": [
        {
          "internalType": "contract IAddressResolver",
          "name": "",
          "type": "address"
        }
      ],
      "stateMutability": "view",
      "type": "function"
    },
    {
      "inputs": [
        {
          "internalType": "address",
          "name": "",
          "type": "address"
        }
      ],
      "name": "addressToIndex",
      "outputs": [
        {
          "internalType": "uint256",
          "name": "",
          "type": "uint256"
        }
      ],
      "stateMutability": "view",
      "type": "function"
    },
    {
      "inputs": [],
      "name": "amountDistributed",
      "outputs": [
        {
          "internalType": "uint256",
          "name": "",
          "type": "uint256"
        }
      ],
      "stateMutability": "view",
      "type": "function"
    },
    {
      "inputs": [],
      "name": "isOwner",
      "outputs": [
        {
          "internalType": "bool",
          "name": "",
          "type": "bool"
        }
      ],
      "stateMutability": "view",
      "type": "function"
    },
    {
      "inputs": [
        {
          "internalType": "string",
          "name": "",
          "type": "string"
        }
      ],
      "name": "nameToIndex",
      "outputs": [
        {
          "internalType": "uint256",
          "name": "",
          "type": "uint256"
        }
      ],
      "stateMutability": "view",
      "type": "function"
    },
    {
      "inputs": [],
      "name": "owner",
      "outputs": [
        {
          "internalType": "address",
          "name": "",
          "type": "address"
        }
      ],
      "stateMutability": "view",
      "type": "function"
    },
    {
      "inputs": [
        {
          "internalType": "uint256",
          "name": "",
          "type": "uint256"
        }
      ],
      "name": "recipients",
      "outputs": [
        {
          "internalType": "uint256",
          "name": "balance",
          "type": "uint256"
        },
        {
          "internalType": "address",
          "name": "recipientAddress",
          "type": "address"
        },
        {
          "internalType": "string",
          "name": "name",
          "type": "string"
        }
      ],
      "stateMutability": "view",
      "type": "function"
    },
    {
      "inputs": [],
      "name": "renounceOwnership",
      "outputs": [],
      "stateMutability": "nonpayable",
      "type": "function"
    },
    {
      "inputs": [
        {
          "internalType": "address",
          "name": "newOwner",
          "type": "address"
        }
      ],
      "name": "transferOwnership",
      "outputs": [],
      "stateMutability": "nonpayable",
      "type": "function"
    },
    {
      "inputs": [],
      "name": "getAddresses",
      "outputs": [
        {
          "internalType": "address[]",
          "name": "",
          "type": "address[]"
        }
      ],
      "stateMutability": "view",
      "type": "function"
    },
    {
      "inputs": [
        {
          "internalType": "string",
          "name": "name",
          "type": "string"
        }
      ],
      "name": "getRecipientByName",
      "outputs": [
        {
          "internalType": "uint256",
          "name": "",
          "type": "uint256"
        },
        {
          "internalType": "address",
          "name": "",
          "type": "address"
        }
      ],
      "stateMutability": "view",
      "type": "function"
    },
    {
      "inputs": [
        {
          "internalType": "address",
          "name": "recipientAddress",
          "type": "address"
        }
      ],
      "name": "getRecipientByAddress",
      "outputs": [
        {
          "internalType": "uint256",
          "name": "",
          "type": "uint256"
        },
        {
          "internalType": "string",
          "name": "",
          "type": "string"
        }
      ],
      "stateMutability": "view",
      "type": "function"
    },
    {
      "inputs": [
        {
          "internalType": "address",
          "name": "account",
          "type": "address"
        },
        {
          "internalType": "uint256",
          "name": "quantity",
          "type": "uint256"
        },
        {
          "internalType": "string",
          "name": "name",
          "type": "string"
        }
      ],
      "name": "addRecipient",
      "outputs": [],
      "stateMutability": "nonpayable",
      "type": "function"
    }
  ],
  "bytecode": "0x60a060405234801561001057600080fd5b50604051611a7c380380611a7c8339818101604052602081101561003357600080fd5b8101908080519060200190929190505050336000806101000a81548173ffffffffffffffffffffffffffffffffffffffff021916908373ffffffffffffffffffffffffffffffffffffffff16021790555060008054906101000a900473ffffffffffffffffffffffffffffffffffffffff1673ffffffffffffffffffffffffffffffffffffffff16600073ffffffffffffffffffffffffffffffffffffffff167f8be0079c531659141344cd1fd0a4f28419497f9722a3daafe3b4186f6b6457e060405160405180910390a38073ffffffffffffffffffffffffffffffffffffffff1660808173ffffffffffffffffffffffffffffffffffffffff1660601b815250505060805160601c6119236101596000398061087e52806114bc52506119236000f3fe608060405234801561001057600080fd5b50600436106100cf5760003560e01c80638f32d59b1161008c578063c148162611610066578063c148162614610478578063d1bc76a114610547578063f2fde38b14610612578063f667e0aa14610656576100cf565b80638f32d59b146103c5578063981f3b8e146103e5578063a39fac1214610419576100cf565b80630e4662c9146100d45780631871613b146101c0578063193f660c146102a55780632342c260146102c3578063715018a6146103875780638da5cb5b14610391575b600080fd5b61018d600480360360208110156100ea57600080fd5b810190808035906020019064010000000081111561010757600080fd5b82018360208201111561011957600080fd5b8035906020019184600183028401116401000000008311171561013b57600080fd5b91908080601f016020809104026020016040519081016040528093929190818152602001838380828437600081840152601f19601f8201169050808301925050505050505091929192905050506106ae565b604051808381526020018273ffffffffffffffffffffffffffffffffffffffff1681526020019250505060405180910390f35b6102a3600480360360608110156101d657600080fd5b81019080803573ffffffffffffffffffffffffffffffffffffffff169060200190929190803590602001909291908035906020019064010000000081111561021d57600080fd5b82018360208201111561022f57600080fd5b8035906020019184600183028401116401000000008311171561025157600080fd5b91908080601f016020809104026020016040519081016040528093929190818152602001838380828437600081840152601f19601f820116905080830192505050505050509192919290505050610869565b005b6102ad6110df565b6040518082815260200191505060405180910390f35b610305600480360360208110156102d957600080fd5b81019080803573ffffffffffffffffffffffffffffffffffffffff1690602001909291905050506110e5565b6040518083815260200180602001828103825283818151815260200191508051906020019080838360005b8381101561034b578082015181840152602081019050610330565b50505050905090810190601f1680156103785780820380516001836020036101000a031916815260200191505b50935050505060405180910390f35b61038f61136b565b005b61039961143a565b604051808273ffffffffffffffffffffffffffffffffffffffff16815260200191505060405180910390f35b6103cd611463565b60405180821515815260200191505060405180910390f35b6103ed6114ba565b604051808273ffffffffffffffffffffffffffffffffffffffff16815260200191505060405180910390f35b6104216114de565b6040518080602001828103825283818151815260200191508051906020019060200280838360005b83811015610464578082015181840152602081019050610449565b505050509050019250505060405180910390f35b6105316004803603602081101561048e57600080fd5b81019080803590602001906401000000008111156104ab57600080fd5b8201836020820111156104bd57600080fd5b803590602001918460018302840111640100000000831117156104df57600080fd5b91908080601f016020809104026020016040519081016040528093929190818152602001838380828437600081840152601f19601f8201169050808301925050505050505091929192905050506115da565b6040518082815260200191505060405180910390f35b6105736004803603602081101561055d57600080fd5b8101908080359060200190929190505050611608565b604051808481526020018373ffffffffffffffffffffffffffffffffffffffff16815260200180602001828103825283818151815260200191508051906020019080838360005b838110156105d55780820151818401526020810190506105ba565b50505050905090810190601f1680156106025780820380516001836020036101000a031916815260200191505b5094505050505060405180910390f35b6106546004803603602081101561062857600080fd5b81019080803573ffffffffffffffffffffffffffffffffffffffff1690602001909291905050506116fa565b005b6106986004803603602081101561066c57600080fd5b81019080803573ffffffffffffffffffffffffffffffffffffffff169060200190929190505050611717565b6040518082815260200191505060405180910390f35b60008060006003846040518082805190602001908083835b602083106106e957805182526020820191506020810190506020830392506106c6565b6001836020036101000a03801982511681845116808217855250505050505090500191505090815260200160405180910390205411610790576040517f08c379a00000000000000000000000000000000000000000000000000000000081526004018080602001828103825260138152602001807f526563697069656e74206e6f7420666f756e640000000000000000000000000081525060200191505060405180910390fd5b600060016003856040518082805190602001908083835b602083106107ca57805182526020820191506020810190506020830392506107a7565b6001836020036101000a0380198251168184511680821785525050505050509050019150509081526020016040518091039020540390506001818154811061080e57fe5b9060005260206000209060030201600001546001828154811061082d57fe5b906000526020600020906003020160010160009054906101000a900473ffffffffffffffffffffffffffffffffffffffff169250925050915091565b610871611463565b61087a57600080fd5b60007f000000000000000000000000000000000000000000000000000000000000000073ffffffffffffffffffffffffffffffffffffffff166304433bbc6040518163ffffffff1660e01b815260040180806020018281038252600d8152602001807f547261646567656e45524332300000000000000000000000000000000000000081525060200191505060206040518083038186803b15801561091e57600080fd5b505afa158015610932573d6000803e3d6000fd5b505050506040513d602081101561094857600080fd5b81019080805190602001909291905050509050600073ffffffffffffffffffffffffffffffffffffffff168173ffffffffffffffffffffffffffffffffffffffff1614156109fe576040517f08c379a000000000000000000000000000000000000000000000000000000000815260040180806020018281038252601d8152602001807f496e76616c6964206261736520747261646567656e206164647265737300000081525060200191505060405180910390fd5b600073ffffffffffffffffffffffffffffffffffffffff168473ffffffffffffffffffffffffffffffffffffffff161415610aa1576040517f08c379a000000000000000000000000000000000000000000000000000000000815260040180806020018281038252600f8152602001807f496e76616c69642061646472657373000000000000000000000000000000000081525060200191505060405180910390fd5b60006003836040518082805190602001908083835b60208310610ad95780518252602082019150602081019050602083039250610ab6565b6001836020036101000a03801982511681845116808217855250505050505090500191505090815260200160405180910390205414610b80576040517f08c379a00000000000000000000000000000000000000000000000000000000081526004018080602001828103825260138152602001807f4e616d6520616c7265616479206578697374730000000000000000000000000081525060200191505060405180910390fd5b6000600460008673ffffffffffffffffffffffffffffffffffffffff1673ffffffffffffffffffffffffffffffffffffffff1681526020019081526020016000205414610c35576040517f08c379a00000000000000000000000000000000000000000000000000000000081526004018080602001828103825260168152602001807f4164647265737320616c7265616479206578697374730000000000000000000081525060200191505060405180910390fd5b60008311610cab576040517f08c379a000000000000000000000000000000000000000000000000000000000815260040180806020018281038252601f8152602001807f5175616e74697479206d7573742062652067726561746572207468616e20300081525060200191505060405180910390fd5b8073ffffffffffffffffffffffffffffffffffffffff166318160ddd6040518163ffffffff1660e01b815260040160206040518083038186803b158015610cf157600080fd5b505afa158015610d05573d6000803e3d6000fd5b505050506040513d6020811015610d1b57600080fd5b8101908080519060200190929190505050610d418460025461172f90919063ffffffff16565b1115610db5576040517f08c379a00000000000000000000000000000000000000000000000000000000081526004018080602001828103825260198152602001807f4e6f7420656e6f756768205447454e20617661696c61626c650000000000000081525060200191505060405180910390fd5b600160405180606001604052808581526020018673ffffffffffffffffffffffffffffffffffffffff1681526020018481525090806001815401808255809150506001900390600052602060002090600302016000909190919091506000820151816000015560208201518160010160006101000a81548173ffffffffffffffffffffffffffffffffffffffff021916908373ffffffffffffffffffffffffffffffffffffffff1602179055506040820151816002019080519060200190610e7e929190611842565b505050610e968360025461172f90919063ffffffff16565b506001805490506003836040518082805190602001908083835b60208310610ed35780518252602082019150602081019050602083039250610eb0565b6001836020036101000a038019825116818451168082178552505050505050905001915050908152602001604051809103902081905550600180549050600460008673ffffffffffffffffffffffffffffffffffffffff1673ffffffffffffffffffffffffffffffffffffffff168152602001908152602001600020819055508073ffffffffffffffffffffffffffffffffffffffff166323b872dd3386866040518463ffffffff1660e01b8152600401808473ffffffffffffffffffffffffffffffffffffffff1681526020018373ffffffffffffffffffffffffffffffffffffffff1681526020018281526020019350505050602060405180830381600087803b158015610fe257600080fd5b505af1158015610ff6573d6000803e3d6000fd5b505050506040513d602081101561100c57600080fd5b8101908080519060200190929190505050508373ffffffffffffffffffffffffffffffffffffffff167fa5c8bc963fa074eec8de36d50f6bbbadee604d9974d1e2880a1dcc67ca6c3a4984846040518083815260200180602001828103825283818151815260200191508051906020019080838360005b8381101561109e578082015181840152602081019050611083565b50505050905090810190601f1680156110cb5780820380516001836020036101000a031916815260200191505b50935050505060405180910390a250505050565b60025481565b60006060600073ffffffffffffffffffffffffffffffffffffffff168373ffffffffffffffffffffffffffffffffffffffff16141561118c576040517f08c379a000000000000000000000000000000000000000000000000000000000815260040180806020018281038252600f8152602001807f496e76616c69642061646472657373000000000000000000000000000000000081525060200191505060405180910390fd5b6000600460008573ffffffffffffffffffffffffffffffffffffffff1673ffffffffffffffffffffffffffffffffffffffff1681526020019081526020016000205411611241576040517f08c379a00000000000000000000000000000000000000000000000000000000081526004018080602001828103825260138152602001807f526563697069656e74206e6f7420666f756e640000000000000000000000000081525060200191505060405180910390fd5b60006001600460008673ffffffffffffffffffffffffffffffffffffffff1673ffffffffffffffffffffffffffffffffffffffff168152602001908152602001600020540390506001818154811061129557fe5b906000526020600020906003020160000154600182815481106112b457fe5b9060005260206000209060030201600201808054600181600116156101000203166002900480601f01602080910402602001604051908101604052809291908181526020018280546001816001161561010002031660029004801561135a5780601f1061132f5761010080835404028352916020019161135a565b820191906000526020600020905b81548152906001019060200180831161133d57829003601f168201915b505050505090509250925050915091565b611373611463565b61137c57600080fd5b600073ffffffffffffffffffffffffffffffffffffffff1660008054906101000a900473ffffffffffffffffffffffffffffffffffffffff1673ffffffffffffffffffffffffffffffffffffffff167f8be0079c531659141344cd1fd0a4f28419497f9722a3daafe3b4186f6b6457e060405160405180910390a360008060006101000a81548173ffffffffffffffffffffffffffffffffffffffff021916908373ffffffffffffffffffffffffffffffffffffffff160217905550565b60008060009054906101000a900473ffffffffffffffffffffffffffffffffffffffff16905090565b60008060009054906101000a900473ffffffffffffffffffffffffffffffffffffffff1673ffffffffffffffffffffffffffffffffffffffff163373ffffffffffffffffffffffffffffffffffffffff1614905090565b7f000000000000000000000000000000000000000000000000000000000000000081565b6060600060018054905067ffffffffffffffff811180156114fe57600080fd5b5060405190808252806020026020018201604052801561152d5781602001602082028036833780820191505090505b50905060005b6001805490508110156115d2576001818154811061154d57fe5b906000526020600020906003020160010160009054906101000a900473ffffffffffffffffffffffffffffffffffffffff1682828151811061158b57fe5b602002602001019073ffffffffffffffffffffffffffffffffffffffff16908173ffffffffffffffffffffffffffffffffffffffff16815250508080600101915050611533565b508091505090565b6003818051602081018201805184825260208301602085012081835280955050505050506000915090505481565b6001818154811061161857600080fd5b90600052602060002090600302016000915090508060000154908060010160009054906101000a900473ffffffffffffffffffffffffffffffffffffffff1690806002018054600181600116156101000203166002900480601f0160208091040260200160405190810160405280929190818152602001828054600181600116156101000203166002900480156116f05780601f106116c5576101008083540402835291602001916116f0565b820191906000526020600020905b8154815290600101906020018083116116d357829003601f168201915b5050505050905083565b611702611463565b61170b57600080fd5b6117148161174b565b50565b60046020528060005260406000206000915090505481565b60008082840190508381101561174157fe5b8091505092915050565b600073ffffffffffffffffffffffffffffffffffffffff168173ffffffffffffffffffffffffffffffffffffffff16141561178557600080fd5b8073ffffffffffffffffffffffffffffffffffffffff1660008054906101000a900473ffffffffffffffffffffffffffffffffffffffff1673ffffffffffffffffffffffffffffffffffffffff167f8be0079c531659141344cd1fd0a4f28419497f9722a3daafe3b4186f6b6457e060405160405180910390a3806000806101000a81548173ffffffffffffffffffffffffffffffffffffffff021916908373ffffffffffffffffffffffffffffffffffffffff16021790555050565b828054600181600116156101000203166002900490600052602060002090601f01602090048101928261187857600085556118bf565b82601f1061189157805160ff19168380011785556118bf565b828001600101855582156118bf579182015b828111156118be5782518255916020019190600101906118a3565b5b5090506118cc91906118d0565b5090565b5b808211156118e95760008160009055506001016118d1565b509056fea2646970667358221220bafd32b494b64d0cb380a13552b92960cd2908f905b5900187a043532bfda01764736f6c63430007060033",
  "immutableReferences": {
    "1485": [
      {
        "length": 32,
        "start": 2174
      },
      {
        "length": 32,
        "start": 5308
      }
    ]
  },
  "source": "// SPDX-License-Identifier: MIT\r\n\r\npragma solidity >=0.7.6;\r\n\r\n// Inheritance\r\nimport \"./Ownable.sol\";\r\n\r\n// Internal references\r\nimport \"./interfaces/IERC20.sol\";\r\nimport \"./interfaces/IAddressResolver.sol\";\r\n\r\n// Libraires\r\nimport \"./libraries/SafeMath.sol\";\r\n\r\ncontract DistributeFunds is Ownable {\r\n    using SafeMath for uint;\r\n\r\n    IAddressResolver public immutable ADDRESS_RESOLVER;\r\n\r\n    struct Recipient {\r\n        uint balance;\r\n        address recipientAddress;\r\n        string name;\r\n    }\r\n\r\n    Recipient[] public recipients;\r\n    \r\n    uint public amountDistributed;\r\n\r\n    mapping (string => uint) public nameToIndex; //Maps to (index + 1); index 0 represents recipient not found\r\n    mapping (address => uint) public addressToIndex; //Maps to (index + 1); index 0 represents recipient not found\r\n\r\n    constructor(IAddressResolver _addressResolver) Ownable() {\r\n        ADDRESS_RESOLVER = _addressResolver;\r\n    }\r\n\r\n    /* ========== VIEW FUNCTIONS ========== */\r\n\r\n    /**\r\n    * @dev Returns the address of each recipient \r\n    * @return address[] The address of each recipient\r\n    */\r\n    function getAddresses() public view returns (address[] memory) {\r\n        address[] memory addresses = new address[](recipients.length);\r\n\r\n        for (uint i = 0; i < recipients.length; i++)\r\n        {\r\n            addresses[i] = recipients[i].recipientAddress;\r\n        }\r\n\r\n        return addresses;\r\n    }\r\n\r\n    /**\r\n    * @dev Given a recipient's name, returns the recipient's allocated funds and address\r\n    * @param name The recipient's name\r\n    * @return (uint, address) Recipient's allocated TGEN and address\r\n    */\r\n    function getRecipientByName(string memory name) public view returns (uint, address) {\r\n        require(nameToIndex[name] > 0, \"Recipient not found\");\r\n\r\n        uint index = nameToIndex[name] - 1;\r\n\r\n        return (recipients[index].balance, recipients[index].recipientAddress);\r\n    }\r\n\r\n    /**\r\n    * @dev Given a recipient's address, returns the recipient's allocated funds and name\r\n    * @param recipientAddress The recipient's address\r\n    * @return (uint, string) Recipient's allocated TGEN and name\r\n    */\r\n    function getRecipientByAddress(address recipientAddress) public view returns (uint, string memory) {\r\n        require(recipientAddress != address(0), \"Invalid address\");\r\n        require(addressToIndex[recipientAddress] > 0, \"Recipient not found\");\r\n\r\n        uint index = addressToIndex[recipientAddress] - 1;\r\n\r\n        return (recipients[index].balance, recipients[index].name);\r\n    }\r\n\r\n    /* ========== MUTATIVE FUNCTIONS ========== */\r\n\r\n    /**\r\n    * @dev Adds a new recipient\r\n    * @notice Need to call TradegenERC20.approve() before calling this function\r\n    * @param account Address of the recipient\r\n    * @param quantity Amount of TGEN to allocate\r\n    * @param name Name of recipient\r\n    */\r\n    function addRecipient(address account, uint quantity, string memory name) public onlyOwner {\r\n        address baseTradegenAddress = ADDRESS_RESOLVER.getContractAddress(\"TradegenERC20\");\r\n\r\n        require(baseTradegenAddress != address(0), \"Invalid base tradegen address\");\r\n        require(account != address(0), \"Invalid address\");\r\n        require(nameToIndex[name] == 0, \"Name already exists\");\r\n        require(addressToIndex[account] == 0, \"Address already exists\");\r\n        require(quantity > 0, \"Quantity must be greater than 0\");\r\n        require(amountDistributed.add(quantity) <= IERC20(baseTradegenAddress).totalSupply(), \"Not enough TGEN available\");\r\n\r\n        recipients.push(Recipient(quantity, account, name));\r\n        amountDistributed.add(quantity);\r\n        nameToIndex[name] = recipients.length;\r\n        addressToIndex[account] = recipients.length;\r\n\r\n        //Transfer TGEN to recipient\r\n        IERC20(baseTradegenAddress).transferFrom(msg.sender, account, quantity);\r\n\r\n        emit AddedRecipient(account, quantity, name);\r\n    }\r\n\r\n    /* ========== Events ========== */\r\n\r\n    event AddedRecipient(address indexed account, uint quantity, string name);\r\n}",
  "sourcePath": "C:/Users/xavie/OneDrive/Desktop/TradeGen/Github/tradegen-protocol/contracts/DistributeFunds.sol",
  "compiler": {
    "name": "solc",
    "version": "0.7.6+commit.7338295f.Emscripten.clang"
  },
  "schemaVersion": "3.4.1",
  "updatedAt": "2021-09-26T18:16:47.530Z",
  "devdoc": {
    "kind": "dev",
    "methods": {
      "addRecipient(address,uint256,string)": {
        "details": "Adds a new recipient",
        "params": {
          "account": "Address of the recipient",
          "name": "Name of recipient",
          "quantity": "Amount of TGEN to allocate"
        }
      },
      "getAddresses()": {
        "details": "Returns the address of each recipient ",
        "returns": {
          "_0": "address[] The address of each recipient"
        }
      },
      "getRecipientByAddress(address)": {
        "details": "Given a recipient's address, returns the recipient's allocated funds and name",
        "params": {
          "recipientAddress": "The recipient's address"
        },
        "returns": {
          "_0": "(uint, string) Recipient's allocated TGEN and name"
        }
      },
      "getRecipientByName(string)": {
        "details": "Given a recipient's name, returns the recipient's allocated funds and address",
        "params": {
          "name": "The recipient's name"
        },
        "returns": {
          "_0": "(uint, address) Recipient's allocated TGEN and address"
        }
      },
      "isOwner()": {
        "returns": {
          "_0": "true if `msg.sender` is the owner of the contract."
        }
      },
      "owner()": {
        "returns": {
          "_0": "the address of the owner."
        }
      },
      "renounceOwnership()": {
        "details": "Allows the current owner to relinquish control of the contract."
      },
      "transferOwnership(address)": {
        "details": "Allows the current owner to transfer control of the contract to a newOwner.",
        "params": {
          "newOwner": "The address to transfer ownership to."
        }
      }
    },
    "version": 1
  },
  "userdoc": {
    "kind": "user",
    "methods": {
      "addRecipient(address,uint256,string)": {
        "notice": "Need to call TradegenERC20.approve() before calling this function"
      },
      "renounceOwnership()": {
        "notice": "Renouncing to ownership will leave the contract without an owner. It will not be possible to call the functions with the `onlyOwner` modifier anymore."
      }
    },
    "version": 1
  }
}