{
  "contractName": "EMA",
  "abi": [
    {
      "inputs": [
        {
          "internalType": "uint256",
          "name": "price",
          "type": "uint256"
        }
      ],
      "stateMutability": "nonpayable",
      "type": "constructor"
    },
    {
      "anonymous": false,
      "inputs": [
        {
          "indexed": true,
          "internalType": "address",
          "name": "indicatorAddress",
          "type": "address"
        },
        {
          "indexed": false,
          "internalType": "uint256",
          "name": "newPrice",
          "type": "uint256"
        },
        {
          "indexed": false,
          "internalType": "uint256",
          "name": "timestamp",
          "type": "uint256"
        }
      ],
      "name": "UpdatedPrice",
      "type": "event"
    },
    {
      "inputs": [],
      "name": "_developer",
      "outputs": [
        {
          "internalType": "address",
          "name": "",
          "type": "address"
        }
      ],
      "stateMutability": "view",
      "type": "function"
    },
    {
      "inputs": [],
      "name": "_price",
      "outputs": [
        {
          "internalType": "uint256",
          "name": "",
          "type": "uint256"
        }
      ],
      "stateMutability": "view",
      "type": "function"
    },
    {
      "inputs": [],
      "name": "getName",
      "outputs": [
        {
          "internalType": "string",
          "name": "",
          "type": "string"
        }
      ],
      "stateMutability": "pure",
      "type": "function"
    },
    {
      "inputs": [],
      "name": "getPriceAndDeveloper",
      "outputs": [
        {
          "internalType": "uint256",
          "name": "",
          "type": "uint256"
        },
        {
          "internalType": "address",
          "name": "",
          "type": "address"
        }
      ],
      "stateMutability": "view",
      "type": "function"
    },
    {
      "inputs": [
        {
          "internalType": "uint256",
          "name": "newPrice",
          "type": "uint256"
        }
      ],
      "name": "editPrice",
      "outputs": [],
      "stateMutability": "nonpayable",
      "type": "function"
    },
    {
      "inputs": [
        {
          "internalType": "uint256",
          "name": "index",
          "type": "uint256"
        },
        {
          "internalType": "uint256",
          "name": "param",
          "type": "uint256"
        }
      ],
      "name": "addTradingBot",
      "outputs": [],
      "stateMutability": "nonpayable",
      "type": "function"
    },
    {
      "inputs": [
        {
          "internalType": "uint256",
          "name": "index",
          "type": "uint256"
        },
        {
          "internalType": "uint256",
          "name": "latestPrice",
          "type": "uint256"
        }
      ],
      "name": "update",
      "outputs": [],
      "stateMutability": "nonpayable",
      "type": "function"
    },
    {
      "inputs": [
        {
          "internalType": "address",
          "name": "tradingBotAddress",
          "type": "address"
        },
        {
          "internalType": "uint256",
          "name": "index",
          "type": "uint256"
        }
      ],
      "name": "getValue",
      "outputs": [
        {
          "internalType": "uint256[]",
          "name": "",
          "type": "uint256[]"
        }
      ],
      "stateMutability": "view",
      "type": "function"
    },
    {
      "inputs": [
        {
          "internalType": "address",
          "name": "tradingBotAddress",
          "type": "address"
        },
        {
          "internalType": "uint256",
          "name": "index",
          "type": "uint256"
        }
      ],
      "name": "getHistory",
      "outputs": [
        {
          "internalType": "uint256[]",
          "name": "",
          "type": "uint256[]"
        }
      ],
      "stateMutability": "view",
      "type": "function"
    }
  ],
  "bytecode": "0x608060405234801561001057600080fd5b5060405161182f38038061182f8339818101604052602081101561003357600080fd5b810190808051906020019092919050505060008110156100bb576040517f08c379a000000000000000000000000000000000000000000000000000000000815260040180806020018281038252601c8152602001807f5072696365206d7573742062652067726561746572207468616e20300000000081525060200191505060405180910390fd5b8060008190555033600160006101000a81548173ffffffffffffffffffffffffffffffffffffffff021916908373ffffffffffffffffffffffffffffffffffffffff1602179055505061171c806101136000396000f3fe608060405234801561001057600080fd5b50600436106100935760003560e01c80637d6760bf116100665780637d6760bf146101a55780638bdf5803146101e0578063a22a8b2914610283578063a47575a1146102b1578063c7bf8cf5146102e957610093565b806317d7de7c14610098578063235b6ea11461011b5780632fb565e8146101395780637a9d075814610171575b600080fd5b6100a061038c565b6040518080602001828103825283818151815260200191508051906020019080838360005b838110156100e05780820151818401526020810190506100c5565b50505050905090810190601f16801561010d5780820380516001836020036101000a031916815260200191505b509250505060405180910390f35b6101236103c9565b6040518082815260200191505060405180910390f35b61016f6004803603604081101561014f57600080fd5b8101908080359060200190929190803590602001909291905050506103cf565b005b610179610a39565b604051808273ffffffffffffffffffffffffffffffffffffffff16815260200191505060405180910390f35b6101ad610a5f565b604051808381526020018273ffffffffffffffffffffffffffffffffffffffff1681526020019250505060405180910390f35b61022c600480360360408110156101f657600080fd5b81019080803573ffffffffffffffffffffffffffffffffffffffff16906020019092919080359060200190929190505050610a90565b6040518080602001828103825283818151815260200191508051906020019060200280838360005b8381101561026f578082015181840152602081019050610254565b505050509050019250505060405180910390f35b6102af6004803603602081101561029957600080fd5b8101908080359060200190929190505050610d28565b005b6102e7600480360360408110156102c757600080fd5b810190808035906020019092919080359060200190929190505050610ea5565b005b610335600480360360408110156102ff57600080fd5b81019080803573ffffffffffffffffffffffffffffffffffffffff16906020019092919080359060200190929190505050611211565b6040518080602001828103825283818151815260200191508051906020019060200280838360005b8381101561037857808201518184015260208101905061035d565b505050509050019250505060405180910390f35b60606040518060400160405280600381526020017f454d410000000000000000000000000000000000000000000000000000000000815250905090565b60005481565b60008211610445576040517f08c379a000000000000000000000000000000000000000000000000000000000815260040180806020018281038252600d8152602001807f496e76616c696420696e6465780000000000000000000000000000000000000081525060200191505060405180910390fd5b600260003373ffffffffffffffffffffffffffffffffffffffff1673ffffffffffffffffffffffffffffffffffffffff168152602001908152602001600020600083815260200190815260200160002060000160009054906101000a900460ff16610518576040517f08c379a00000000000000000000000000000000000000000000000000000000081526004018080602001828103825260198152602001807f54726164696e6720626f7420646f65736e27742065786973740000000000000081525060200191505060405180910390fd5b6000600260003373ffffffffffffffffffffffffffffffffffffffff1673ffffffffffffffffffffffffffffffffffffffff168152602001908152602001600020600084815260200190815260200160002060000160029054906101000a90047dffffffffffffffffffffffffffffffffffffffffffffffffffffffffffff167dffffffffffffffffffffffffffffffffffffffffffffffffffffffffffff16905060006002905060006106396001600260003373ffffffffffffffffffffffffffffffffffffffff1673ffffffffffffffffffffffffffffffffffffffff168152602001908152602001600020600088815260200190815260200160002060000160019054906101000a900460ff1660ff166115d490919063ffffffff16565b905060008314156106ef5783600260003373ffffffffffffffffffffffffffffffffffffffff1673ffffffffffffffffffffffffffffffffffffffff168152602001908152602001600020600087815260200190815260200160002060000160026101000a8154817dffffffffffffffffffffffffffffffffffffffffffffffffffffffffffff02191690837dffffffffffffffffffffffffffffffffffffffffffffffffffffffffffff16021790555061091b565b8284106107f557600061070b84866115f090919063ffffffff16565b90506000610746856107388561072a868961160790919063ffffffff16565b61163e90919063ffffffff16565b6115d490919063ffffffff16565b905080600260003373ffffffffffffffffffffffffffffffffffffffff1673ffffffffffffffffffffffffffffffffffffffff168152602001908152602001600020600089815260200190815260200160002060000160026101000a8154817dffffffffffffffffffffffffffffffffffffffffffffffffffffffffffff02191690837dffffffffffffffffffffffffffffffffffffffffffffffffffffffffffff160217905550505061091a565b600061081c8261080e858861160790919063ffffffff16565b61163e90919063ffffffff16565b9050600061084583610837868861160790919063ffffffff16565b61163e90919063ffffffff16565b9050600061086e8261086088866115d490919063ffffffff16565b6115f090919063ffffffff16565b905080600260003373ffffffffffffffffffffffffffffffffffffffff1673ffffffffffffffffffffffffffffffffffffffff16815260200190815260200160002060008a815260200190815260200160002060000160026101000a8154817dffffffffffffffffffffffffffffffffffffffffffffffffffffffffffff02191690837dffffffffffffffffffffffffffffffffffffffffffffffffffffffffffff1602179055505050505b5b600260003373ffffffffffffffffffffffffffffffffffffffff1673ffffffffffffffffffffffffffffffffffffffff1681526020019081526020016000206000868152602001908152602001600020600101600260003373ffffffffffffffffffffffffffffffffffffffff1673ffffffffffffffffffffffffffffffffffffffff168152602001908152602001600020600087815260200190815260200160002060000160029054906101000a90047dffffffffffffffffffffffffffffffffffffffffffffffffffffffffffff167dffffffffffffffffffffffffffffffffffffffffffffffffffffffffffff1690806001815401808255809150506001900390600052602060002001600090919091909150555050505050565b600160009054906101000a900473ffffffffffffffffffffffffffffffffffffffff1681565b600080600054600160009054906101000a900473ffffffffffffffffffffffffffffffffffffffff16915091509091565b6060600073ffffffffffffffffffffffffffffffffffffffff168373ffffffffffffffffffffffffffffffffffffffff161415610b35576040517f08c379a000000000000000000000000000000000000000000000000000000000815260040180806020018281038252601b8152602001807f496e76616c69642074726164696e6720626f742061646472657373000000000081525060200191505060405180910390fd5b60008211610bab576040517f08c379a000000000000000000000000000000000000000000000000000000000815260040180806020018281038252600d8152602001807f496e76616c696420696e6465780000000000000000000000000000000000000081525060200191505060405180910390fd5b600260008473ffffffffffffffffffffffffffffffffffffffff1673ffffffffffffffffffffffffffffffffffffffff168152602001908152602001600020600083815260200190815260200160002060000160009054906101000a900460ff16610c7e576040517f08c379a00000000000000000000000000000000000000000000000000000000081526004018080602001828103825260198152602001807f54726164696e6720626f7420646f65736e27742065786973740000000000000081525060200191505060405180910390fd5b600260008473ffffffffffffffffffffffffffffffffffffffff1673ffffffffffffffffffffffffffffffffffffffff1681526020019081526020016000206000838152602001908152602001600020600101805480602002602001604051908101604052809291908181526020018280548015610d1b57602002820191906000526020600020905b815481526020019060010190808311610d07575b5050505050905092915050565b600160009054906101000a900473ffffffffffffffffffffffffffffffffffffffff1673ffffffffffffffffffffffffffffffffffffffff163373ffffffffffffffffffffffffffffffffffffffff1614610dce576040517f08c379a00000000000000000000000000000000000000000000000000000000081526004018080602001828103825260258152602001806116c26025913960400191505060405180910390fd5b6000811015610e45576040517f08c379a000000000000000000000000000000000000000000000000000000000815260040180806020018281038252601f8152602001807f5072696365206d757374206265206120706f736974697665206e756d6265720081525060200191505060405180910390fd5b806000819055503073ffffffffffffffffffffffffffffffffffffffff167ff55d9f2dbb0ce58a822e950a56c6b24b103fae2b7633f87087fc24beba1754548242604051808381526020018281526020019250505060405180910390a250565b60008211610f1b576040517f08c379a000000000000000000000000000000000000000000000000000000000815260040180806020018281038252600d8152602001807f496e76616c696420696e6465780000000000000000000000000000000000000081525060200191505060405180910390fd5b600260003373ffffffffffffffffffffffffffffffffffffffff1673ffffffffffffffffffffffffffffffffffffffff168152602001908152602001600020600083815260200190815260200160002060000160009054906101000a900460ff1615610fef576040517f08c379a000000000000000000000000000000000000000000000000000000000815260040180806020018281038252601a8152602001807f54726164696e6720626f7420616c72656164792065786973747300000000000081525060200191505060405180910390fd5b600181118015611000575060c88111155b611072576040517f08c379a000000000000000000000000000000000000000000000000000000000815260040180806020018281038252601f8152602001807f506172616d206d757374206265206265747765656e203220616e64203230300081525060200191505060405180910390fd5b60405180608001604052806001151581526020018260ff16815260200160007dffffffffffffffffffffffffffffffffffffffffffffffffffffffffffff168152602001600067ffffffffffffffff811180156110ce57600080fd5b506040519080825280602002602001820160405280156110fd5781602001602082028036833780820191505090505b50815250600260003373ffffffffffffffffffffffffffffffffffffffff1673ffffffffffffffffffffffffffffffffffffffff168152602001908152602001600020600084815260200190815260200160002060008201518160000160006101000a81548160ff02191690831515021790555060208201518160000160016101000a81548160ff021916908360ff16021790555060408201518160000160026101000a8154817dffffffffffffffffffffffffffffffffffffffffffffffffffffffffffff02191690837dffffffffffffffffffffffffffffffffffffffffffffffffffffffffffff1602179055506060820151816001019080519060200190611209929190611657565b509050505050565b6060600073ffffffffffffffffffffffffffffffffffffffff168373ffffffffffffffffffffffffffffffffffffffff1614156112b6576040517f08c379a000000000000000000000000000000000000000000000000000000000815260040180806020018281038252601b8152602001807f496e76616c69642074726164696e6720626f742061646472657373000000000081525060200191505060405180910390fd5b6000821161132c576040517f08c379a000000000000000000000000000000000000000000000000000000000815260040180806020018281038252600d8152602001807f496e76616c696420696e6465780000000000000000000000000000000000000081525060200191505060405180910390fd5b600260008473ffffffffffffffffffffffffffffffffffffffff1673ffffffffffffffffffffffffffffffffffffffff168152602001908152602001600020600083815260200190815260200160002060000160009054906101000a900460ff166113ff576040517f08c379a00000000000000000000000000000000000000000000000000000000081526004018080602001828103825260198152602001807f54726164696e6720626f7420646f65736e27742065786973740000000000000081525060200191505060405180910390fd5b6060600167ffffffffffffffff8111801561141957600080fd5b506040519080825280602002602001820160405280156114485781602001602082028036833780820191505090505b509050600260008573ffffffffffffffffffffffffffffffffffffffff1673ffffffffffffffffffffffffffffffffffffffff168152602001908152602001600020600084815260200190815260200160002060000160019054906101000a900460ff1660ff16600260008673ffffffffffffffffffffffffffffffffffffffff1673ffffffffffffffffffffffffffffffffffffffff168152602001908152602001600020600085815260200190815260200160002060010180549050106115ae57600260008573ffffffffffffffffffffffffffffffffffffffff1673ffffffffffffffffffffffffffffffffffffffff168152602001908152602001600020600084815260200190815260200160002060000160029054906101000a90047dffffffffffffffffffffffffffffffffffffffffffffffffffffffffffff167dffffffffffffffffffffffffffffffffffffffffffffffffffffffffffff166115b1565b60005b816000815181106115be57fe5b6020026020010181815250508091505092915050565b6000808284019050838110156115e657fe5b8091505092915050565b6000828211156115fc57fe5b818303905092915050565b60008083141561161a5760009050611638565b600082840290508284828161162b57fe5b041461163357fe5b809150505b92915050565b60008082848161164a57fe5b0490508091505092915050565b828054828255906000526020600020908101928215611693579160200282015b82811115611692578251825591602001919060010190611677565b5b5090506116a091906116a4565b5090565b5b808211156116bd5760008160009055506001016116a5565b509056fe4f6e6c792074686520646576656c6f7065722063616e206564697420746865207072696365a26469706673582212207f2106943347e403b4837d0bdb3468911b511a025f67f755e4211d384eab0f4464736f6c634300060c0033",
  "immutableReferences": {},
  "source": "pragma solidity >=0.5.0;\r\n\r\nimport './interfaces/IIndicator.sol';\r\nimport './libraries/SafeMath.sol';\r\n\r\ncontract EMA is IIndicator {\r\n    using SafeMath for uint;\r\n\r\n    struct State {\r\n        bool exists;\r\n        uint8 EMAperiod;\r\n        uint240 currentValue;\r\n        uint[] indicatorHistory;\r\n    }\r\n\r\n    uint public _price;\r\n    address public _developer;\r\n\r\n    mapping (address => mapping(uint => State)) private _tradingBotStates;\r\n\r\n    constructor(uint price) public {\r\n        require(price >= 0, \"Price must be greater than 0\");\r\n\r\n        _price = price;\r\n        _developer = msg.sender;\r\n    }\r\n\r\n    /**\r\n    * @dev Returns the name of the indicator\r\n    * @return string Name of the indicator\r\n    */\r\n    function getName() public pure override returns (string memory) {\r\n        return \"EMA\";\r\n    }\r\n\r\n    /**\r\n    * @dev Returns the sale price and the developer of the indicator\r\n    * @return (uint, address) Sale price of the indicator and the indicator's developer\r\n    */\r\n    function getPriceAndDeveloper() public view override returns (uint, address) {\r\n        return (_price, _developer);\r\n    }\r\n\r\n    /**\r\n    * @dev Updates the sale price of the indicator; meant to be called by the indicator's developer\r\n    * @param newPrice The new sale price of the indicator\r\n    */\r\n    function editPrice(uint newPrice) external override {\r\n        require(msg.sender == _developer, \"Only the developer can edit the price\");\r\n        require(newPrice >= 0, \"Price must be a positive number\");\r\n\r\n        _price = newPrice;\r\n\r\n        emit UpdatedPrice(address(this), newPrice, block.timestamp);\r\n    }\r\n\r\n    /**\r\n    * @dev Initializes the state of the trading bot; meant to be called by a trading bot\r\n    * @param index Index in trading bot's entry/exit rule array\r\n    * @param param Value of the indicator's parameter\r\n    */\r\n    function addTradingBot(uint index, uint param) public override {\r\n        require(index > 0, \"Invalid index\");\r\n        require(!_tradingBotStates[msg.sender][index].exists, \"Trading bot already exists\");\r\n        require(param > 1 && param <= 200, \"Param must be between 2 and 200\");\r\n\r\n        _tradingBotStates[msg.sender][index] = State(true, uint8(param), 0, new uint[](0));\r\n    }\r\n\r\n    /**\r\n    * @dev Updates the indicator's state based on the latest price feed update\r\n    * @param index Index in trading bot's entry/exit rule array\r\n    * @param latestPrice The latest price from oracle price feed\r\n    */\r\n    function update(uint index, uint latestPrice) public override {\r\n        require(index > 0, \"Invalid index\");\r\n        require(_tradingBotStates[msg.sender][index].exists, \"Trading bot doesn't exist\");\r\n\r\n        uint currentValue = uint256(_tradingBotStates[msg.sender][index].currentValue);\r\n        uint multiplier = 2;\r\n        uint divisor = uint256(_tradingBotStates[msg.sender][index].EMAperiod).add(1);\r\n\r\n        if (currentValue == 0)\r\n        {\r\n            _tradingBotStates[msg.sender][index].currentValue = uint240(latestPrice);\r\n        }\r\n        else if (latestPrice >= currentValue)\r\n        {\r\n            uint inner = latestPrice.sub(currentValue);\r\n            uint value = (multiplier.mul(inner).div(divisor)).add(currentValue);\r\n\r\n            _tradingBotStates[msg.sender][index].currentValue = uint240(value);\r\n        }\r\n        else\r\n        {\r\n            uint current = latestPrice.mul(multiplier).div(divisor);\r\n            uint previous = currentValue.mul(multiplier).div(divisor);\r\n            uint value = current.add(currentValue).sub(previous);\r\n\r\n            _tradingBotStates[msg.sender][index].currentValue = uint240(value);\r\n        }\r\n\r\n        _tradingBotStates[msg.sender][index].indicatorHistory.push(uint256(_tradingBotStates[msg.sender][index].currentValue));\r\n    }\r\n\r\n    /**\r\n    * @dev Given a trading bot address, returns the indicator value for that bot\r\n    * @param tradingBotAddress Address of trading bot\r\n    * @param index Index in trading bot's entry/exit rule array\r\n    * @return uint[] Indicator value for the given trading bot\r\n    */\r\n    function getValue(address tradingBotAddress, uint index) public view override returns (uint[] memory) {\r\n        require(tradingBotAddress != address(0), \"Invalid trading bot address\");\r\n        require(index > 0, \"Invalid index\");\r\n        require(_tradingBotStates[tradingBotAddress][index].exists, \"Trading bot doesn't exist\");\r\n\r\n        uint[] memory temp = new uint[](1);\r\n        temp[0] = (_tradingBotStates[tradingBotAddress][index].indicatorHistory.length < _tradingBotStates[tradingBotAddress][index].EMAperiod) ? 0 : uint256(_tradingBotStates[tradingBotAddress][index].currentValue);\r\n        return temp;\r\n    }\r\n\r\n    /**\r\n    * @dev Given a trading bot address, returns the indicator value history for that bot\r\n    * @param tradingBotAddress Address of trading bot\r\n    * @param index Index in trading bot's entry/exit rule array\r\n    * @return uint[] Indicator value history for the given trading bot\r\n    */\r\n    function getHistory(address tradingBotAddress, uint index) public view override returns (uint[] memory) {\r\n        require(tradingBotAddress != address(0), \"Invalid trading bot address\");\r\n        require(index > 0, \"Invalid index\");\r\n        require(_tradingBotStates[tradingBotAddress][index].exists, \"Trading bot doesn't exist\");\r\n\r\n        return _tradingBotStates[tradingBotAddress][index].indicatorHistory;\r\n    }\r\n}",
  "sourcePath": "C:/Users/xavie/OneDrive/Desktop/TradeGen/Github/tradegen/contracts/EMA.sol",
  "compiler": {
    "name": "solc",
    "version": "0.6.12+commit.27d51765.Emscripten.clang"
  },
  "schemaVersion": "3.4.1",
  "updatedAt": "2021-07-02T00:07:07.856Z",
  "devdoc": {
    "kind": "dev",
    "methods": {
      "addTradingBot(uint256,uint256)": {
        "details": "Initializes the state of the trading bot; meant to be called by a trading bot",
        "params": {
          "index": "Index in trading bot's entry/exit rule array",
          "param": "Value of the indicator's parameter"
        }
      },
      "editPrice(uint256)": {
        "details": "Updates the sale price of the indicator; meant to be called by the indicator's developer",
        "params": {
          "newPrice": "The new sale price of the indicator"
        }
      },
      "getHistory(address,uint256)": {
        "details": "Given a trading bot address, returns the indicator value history for that bot",
        "params": {
          "index": "Index in trading bot's entry/exit rule array",
          "tradingBotAddress": "Address of trading bot"
        },
        "returns": {
          "_0": "uint[] Indicator value history for the given trading bot"
        }
      },
      "getName()": {
        "details": "Returns the name of the indicator",
        "returns": {
          "_0": "string Name of the indicator"
        }
      },
      "getPriceAndDeveloper()": {
        "details": "Returns the sale price and the developer of the indicator",
        "returns": {
          "_0": "(uint, address) Sale price of the indicator and the indicator's developer"
        }
      },
      "getValue(address,uint256)": {
        "details": "Given a trading bot address, returns the indicator value for that bot",
        "params": {
          "index": "Index in trading bot's entry/exit rule array",
          "tradingBotAddress": "Address of trading bot"
        },
        "returns": {
          "_0": "uint[] Indicator value for the given trading bot"
        }
      },
      "update(uint256,uint256)": {
        "details": "Updates the indicator's state based on the latest price feed update",
        "params": {
          "index": "Index in trading bot's entry/exit rule array",
          "latestPrice": "The latest price from oracle price feed"
        }
      }
    },
    "version": 1
  },
  "userdoc": {
    "kind": "user",
    "methods": {},
    "version": 1
  }
}