{
  "contractName": "EMA",
  "abi": [
    {
      "inputs": [
        {
          "internalType": "uint256",
          "name": "price",
          "type": "uint256"
        }
      ],
      "stateMutability": "nonpayable",
      "type": "constructor"
    },
    {
      "anonymous": false,
      "inputs": [
        {
          "indexed": true,
          "internalType": "address",
          "name": "indicatorAddress",
          "type": "address"
        },
        {
          "indexed": false,
          "internalType": "uint256",
          "name": "newPrice",
          "type": "uint256"
        },
        {
          "indexed": false,
          "internalType": "uint256",
          "name": "timestamp",
          "type": "uint256"
        }
      ],
      "name": "UpdatedPrice",
      "type": "event"
    },
    {
      "inputs": [],
      "name": "_developer",
      "outputs": [
        {
          "internalType": "address",
          "name": "",
          "type": "address"
        }
      ],
      "stateMutability": "view",
      "type": "function"
    },
    {
      "inputs": [],
      "name": "_price",
      "outputs": [
        {
          "internalType": "uint256",
          "name": "",
          "type": "uint256"
        }
      ],
      "stateMutability": "view",
      "type": "function"
    },
    {
      "inputs": [],
      "name": "getName",
      "outputs": [
        {
          "internalType": "string",
          "name": "",
          "type": "string"
        }
      ],
      "stateMutability": "pure",
      "type": "function"
    },
    {
      "inputs": [],
      "name": "getPriceAndDeveloper",
      "outputs": [
        {
          "internalType": "uint256",
          "name": "",
          "type": "uint256"
        },
        {
          "internalType": "address",
          "name": "",
          "type": "address"
        }
      ],
      "stateMutability": "view",
      "type": "function"
    },
    {
      "inputs": [
        {
          "internalType": "uint256",
          "name": "newPrice",
          "type": "uint256"
        }
      ],
      "name": "editPrice",
      "outputs": [],
      "stateMutability": "nonpayable",
      "type": "function"
    },
    {
      "inputs": [
        {
          "internalType": "uint256",
          "name": "param",
          "type": "uint256"
        }
      ],
      "name": "addTradingBot",
      "outputs": [],
      "stateMutability": "nonpayable",
      "type": "function"
    },
    {
      "inputs": [
        {
          "internalType": "uint256",
          "name": "latestPrice",
          "type": "uint256"
        }
      ],
      "name": "update",
      "outputs": [],
      "stateMutability": "nonpayable",
      "type": "function"
    },
    {
      "inputs": [
        {
          "internalType": "address",
          "name": "tradingBotAddress",
          "type": "address"
        }
      ],
      "name": "getValue",
      "outputs": [
        {
          "internalType": "uint256[]",
          "name": "",
          "type": "uint256[]"
        }
      ],
      "stateMutability": "view",
      "type": "function"
    },
    {
      "inputs": [
        {
          "internalType": "address",
          "name": "tradingBotAddress",
          "type": "address"
        }
      ],
      "name": "getHistory",
      "outputs": [
        {
          "internalType": "uint256[]",
          "name": "",
          "type": "uint256[]"
        }
      ],
      "stateMutability": "view",
      "type": "function"
    }
  ],
  "bytecode": "0x608060405234801561001057600080fd5b506040516112fc3803806112fc8339818101604052602081101561003357600080fd5b810190808051906020019092919050505060008110156100bb576040517f08c379a000000000000000000000000000000000000000000000000000000000815260040180806020018281038252601c8152602001807f5072696365206d7573742062652067726561746572207468616e20300000000081525060200191505060405180910390fd5b8060008190555033600160006101000a81548173ffffffffffffffffffffffffffffffffffffffff021916908373ffffffffffffffffffffffffffffffffffffffff160217905550506111e9806101136000396000f3fe608060405234801561001057600080fd5b50600436106100935760003560e01c80637d6760bf116100665780637d6760bf14610206578063803968111461024157806382ab890a146102da578063a22a8b2914610308578063a5a6d6f71461033657610093565b806317d7de7c14610098578063235b6ea11461011b5780633ccc0522146101395780637a9d0758146101d2575b600080fd5b6100a0610364565b6040518080602001828103825283818151815260200191508051906020019080838360005b838110156100e05780820151818401526020810190506100c5565b50505050905090810190601f16801561010d5780820380516001836020036101000a031916815260200191505b509250505060405180910390f35b6101236103a1565b6040518082815260200191505060405180910390f35b61017b6004803603602081101561014f57600080fd5b81019080803573ffffffffffffffffffffffffffffffffffffffff1690602001909291905050506103a7565b6040518080602001828103825283818151815260200191508051906020019060200280838360005b838110156101be5780820151818401526020810190506101a3565b505050509050019250505060405180910390f35b6101da6105ef565b604051808273ffffffffffffffffffffffffffffffffffffffff16815260200191505060405180910390f35b61020e610615565b604051808381526020018273ffffffffffffffffffffffffffffffffffffffff1681526020019250505060405180910390f35b6102836004803603602081101561025757600080fd5b81019080803573ffffffffffffffffffffffffffffffffffffffff169060200190929190505050610646565b6040518080602001828103825283818151815260200191508051906020019060200280838360005b838110156102c65780820151818401526020810190506102ab565b505050509050019250505060405180910390f35b610306600480360360208110156102f057600080fd5b8101908080359060200190929190505050610783565b005b6103346004803603602081101561031e57600080fd5b8101908080359060200190929190505050610c36565b005b6103626004803603602081101561034c57600080fd5b8101908080359060200190929190505050610db3565b005b60606040518060400160405280600381526020017f454d410000000000000000000000000000000000000000000000000000000000815250905090565b60005481565b6060600073ffffffffffffffffffffffffffffffffffffffff168273ffffffffffffffffffffffffffffffffffffffff16141561044c576040517f08c379a000000000000000000000000000000000000000000000000000000000815260040180806020018281038252601b8152602001807f496e76616c69642074726164696e6720626f742061646472657373000000000081525060200191505060405180910390fd5b6060600167ffffffffffffffff8111801561046657600080fd5b506040519080825280602002602001820160405280156104955781602001602082028036833780820191505090505b509050600260008473ffffffffffffffffffffffffffffffffffffffff1673ffffffffffffffffffffffffffffffffffffffff16815260200190815260200160002060000160009054906101000a900460ff1660ff16600260008573ffffffffffffffffffffffffffffffffffffffff1673ffffffffffffffffffffffffffffffffffffffff16815260200190815260200160002060010180549050106105ca57600260008473ffffffffffffffffffffffffffffffffffffffff1673ffffffffffffffffffffffffffffffffffffffff16815260200190815260200160002060000160019054906101000a90047effffffffffffffffffffffffffffffffffffffffffffffffffffffffffffff167effffffffffffffffffffffffffffffffffffffffffffffffffffffffffffff166105cd565b60005b816000815181106105da57fe5b60200260200101818152505080915050919050565b600160009054906101000a900473ffffffffffffffffffffffffffffffffffffffff1681565b600080600054600160009054906101000a900473ffffffffffffffffffffffffffffffffffffffff16915091509091565b6060600073ffffffffffffffffffffffffffffffffffffffff168273ffffffffffffffffffffffffffffffffffffffff1614156106eb576040517f08c379a000000000000000000000000000000000000000000000000000000000815260040180806020018281038252601b8152602001807f496e76616c69642074726164696e6720626f742061646472657373000000000081525060200191505060405180910390fd5b600260008373ffffffffffffffffffffffffffffffffffffffff1673ffffffffffffffffffffffffffffffffffffffff16815260200190815260200160002060010180548060200260200160405190810160405280929190818152602001828054801561077757602002820191906000526020600020905b815481526020019060010190808311610763575b50505050509050919050565b6000600260003373ffffffffffffffffffffffffffffffffffffffff1673ffffffffffffffffffffffffffffffffffffffff16815260200190815260200160002060000160019054906101000a90047effffffffffffffffffffffffffffffffffffffffffffffffffffffffffffff167effffffffffffffffffffffffffffffffffffffffffffffffffffffffffffff16905060006002905060006108846001600260003373ffffffffffffffffffffffffffffffffffffffff1673ffffffffffffffffffffffffffffffffffffffff16815260200190815260200160002060000160009054906101000a900460ff1660ff166110a190919063ffffffff16565b9050600083141561092b5783600260003373ffffffffffffffffffffffffffffffffffffffff1673ffffffffffffffffffffffffffffffffffffffff16815260200190815260200160002060000160016101000a8154817effffffffffffffffffffffffffffffffffffffffffffffffffffffffffffff02191690837effffffffffffffffffffffffffffffffffffffffffffffffffffffffffffff160217905550610b39565b828410610a2257600061094784866110bd90919063ffffffff16565b90506000610982856109748561096686896110d490919063ffffffff16565b61110b90919063ffffffff16565b6110a190919063ffffffff16565b905080600260003373ffffffffffffffffffffffffffffffffffffffff1673ffffffffffffffffffffffffffffffffffffffff16815260200190815260200160002060000160016101000a8154817effffffffffffffffffffffffffffffffffffffffffffffffffffffffffffff02191690837effffffffffffffffffffffffffffffffffffffffffffffffffffffffffffff1602179055505050610b38565b6000610a4982610a3b85886110d490919063ffffffff16565b61110b90919063ffffffff16565b90506000610a7283610a6486886110d490919063ffffffff16565b61110b90919063ffffffff16565b90506000610a9b82610a8d88866110a190919063ffffffff16565b6110bd90919063ffffffff16565b905080600260003373ffffffffffffffffffffffffffffffffffffffff1673ffffffffffffffffffffffffffffffffffffffff16815260200190815260200160002060000160016101000a8154817effffffffffffffffffffffffffffffffffffffffffffffffffffffffffffff02191690837effffffffffffffffffffffffffffffffffffffffffffffffffffffffffffff1602179055505050505b5b600260003373ffffffffffffffffffffffffffffffffffffffff1673ffffffffffffffffffffffffffffffffffffffff168152602001908152602001600020600101600260003373ffffffffffffffffffffffffffffffffffffffff1673ffffffffffffffffffffffffffffffffffffffff16815260200190815260200160002060000160019054906101000a90047effffffffffffffffffffffffffffffffffffffffffffffffffffffffffffff167effffffffffffffffffffffffffffffffffffffffffffffffffffffffffffff16908060018154018082558091505060019003906000526020600020016000909190919091505550505050565b600160009054906101000a900473ffffffffffffffffffffffffffffffffffffffff1673ffffffffffffffffffffffffffffffffffffffff163373ffffffffffffffffffffffffffffffffffffffff1614610cdc576040517f08c379a000000000000000000000000000000000000000000000000000000000815260040180806020018281038252602581526020018061118f6025913960400191505060405180910390fd5b6000811015610d53576040517f08c379a000000000000000000000000000000000000000000000000000000000815260040180806020018281038252601f8152602001807f5072696365206d757374206265206120706f736974697665206e756d6265720081525060200191505060405180910390fd5b806000819055503073ffffffffffffffffffffffffffffffffffffffff167ff55d9f2dbb0ce58a822e950a56c6b24b103fae2b7633f87087fc24beba1754548242604051808381526020018281526020019250505060405180910390a250565b6000600260003373ffffffffffffffffffffffffffffffffffffffff1673ffffffffffffffffffffffffffffffffffffffff16815260200190815260200160002060000160019054906101000a90047effffffffffffffffffffffffffffffffffffffffffffffffffffffffffffff167effffffffffffffffffffffffffffffffffffffffffffffffffffffffffffff1614610eb7576040517f08c379a000000000000000000000000000000000000000000000000000000000815260040180806020018281038252601a8152602001807f54726164696e6720626f7420616c72656164792065786973747300000000000081525060200191505060405180910390fd5b600181118015610ec8575060c88111155b610f3a576040517f08c379a000000000000000000000000000000000000000000000000000000000815260040180806020018281038252601f8152602001807f506172616d206d757374206265206265747765656e203220616e64203230300081525060200191505060405180910390fd5b60405180606001604052808260ff16815260200160007effffffffffffffffffffffffffffffffffffffffffffffffffffffffffffff168152602001600067ffffffffffffffff81118015610f8e57600080fd5b50604051908082528060200260200182016040528015610fbd5781602001602082028036833780820191505090505b50815250600260003373ffffffffffffffffffffffffffffffffffffffff1673ffffffffffffffffffffffffffffffffffffffff16815260200190815260200160002060008201518160000160006101000a81548160ff021916908360ff16021790555060208201518160000160016101000a8154817effffffffffffffffffffffffffffffffffffffffffffffffffffffffffffff02191690837effffffffffffffffffffffffffffffffffffffffffffffffffffffffffffff160217905550604082015181600101908051906020019061109a929190611124565b5090505050565b6000808284019050838110156110b357fe5b8091505092915050565b6000828211156110c957fe5b818303905092915050565b6000808314156110e75760009050611105565b60008284029050828482816110f857fe5b041461110057fe5b809150505b92915050565b60008082848161111757fe5b0490508091505092915050565b828054828255906000526020600020908101928215611160579160200282015b8281111561115f578251825591602001919060010190611144565b5b50905061116d9190611171565b5090565b5b8082111561118a576000816000905550600101611172565b509056fe4f6e6c792074686520646576656c6f7065722063616e206564697420746865207072696365a2646970667358221220861d31e398c5cc22b93d3c96fb90d3a091cbd3265ee5cc48b2244561ca4e386f64736f6c634300060c0033",
  "immutableReferences": {},
  "source": "pragma solidity >=0.5.0;\r\n\r\nimport './interfaces/IIndicator.sol';\r\nimport './libraries/SafeMath.sol';\r\n\r\ncontract EMA is IIndicator {\r\n    using SafeMath for uint;\r\n\r\n    struct State {\r\n        uint8 EMAperiod;\r\n        uint248 currentValue;\r\n        uint[] indicatorHistory;\r\n    }\r\n\r\n    uint public _price;\r\n    address public _developer;\r\n\r\n    mapping (address => State) private _tradingBotStates;\r\n\r\n    constructor(uint price) public {\r\n        require(price >= 0, \"Price must be greater than 0\");\r\n\r\n        _price = price;\r\n        _developer = msg.sender;\r\n    }\r\n\r\n    /**\r\n    * @dev Returns the name of the indicator\r\n    * @return string Name of the indicator\r\n    */\r\n    function getName() public pure override returns (string memory) {\r\n        return \"EMA\";\r\n    }\r\n\r\n    /**\r\n    * @dev Returns the sale price and the developer of the indicator\r\n    * @return (uint, address) Sale price of the indicator and the indicator's developer\r\n    */\r\n    function getPriceAndDeveloper() public view override returns (uint, address) {\r\n        return (_price, _developer);\r\n    }\r\n\r\n    /**\r\n    * @dev Updates the sale price of the indicator; meant to be called by the indicator's developer\r\n    * @param newPrice The new sale price of the indicator\r\n    */\r\n    function editPrice(uint newPrice) external override {\r\n        require(msg.sender == _developer, \"Only the developer can edit the price\");\r\n        require(newPrice >= 0, \"Price must be a positive number\");\r\n\r\n        _price = newPrice;\r\n\r\n        emit UpdatedPrice(address(this), newPrice, block.timestamp);\r\n    }\r\n\r\n    /**\r\n    * @dev Initializes the state of the trading bot; meant to be called by a trading bot\r\n    * @param param Value of the indicator's parameter\r\n    */\r\n    function addTradingBot(uint param) public override {\r\n        require(_tradingBotStates[msg.sender].currentValue == 0, \"Trading bot already exists\");\r\n        require(param > 1 && param <= 200, \"Param must be between 2 and 200\");\r\n\r\n        _tradingBotStates[msg.sender] = State(uint8(param), 0, new uint[](0));\r\n    }\r\n\r\n    /**\r\n    * @dev Updates the indicator's state based on the latest price feed update\r\n    * @param latestPrice The latest price from oracle price feed\r\n    */\r\n    function update(uint latestPrice) public override {\r\n        uint currentValue = uint256(_tradingBotStates[msg.sender].currentValue);\r\n        uint multiplier = 2;\r\n        uint divisor = uint256(_tradingBotStates[msg.sender].EMAperiod).add(1);\r\n\r\n        if (currentValue == 0)\r\n        {\r\n            _tradingBotStates[msg.sender].currentValue = uint248(latestPrice);\r\n        }\r\n        else if (latestPrice >= currentValue)\r\n        {\r\n            uint inner = latestPrice.sub(currentValue);\r\n            uint value = (multiplier.mul(inner).div(divisor)).add(currentValue);\r\n\r\n            _tradingBotStates[msg.sender].currentValue = uint248(value);\r\n        }\r\n        else\r\n        {\r\n            uint current = latestPrice.mul(multiplier).div(divisor);\r\n            uint previous = currentValue.mul(multiplier).div(divisor);\r\n            uint value = current.add(currentValue).sub(previous);\r\n\r\n            _tradingBotStates[msg.sender].currentValue = uint248(value);\r\n        }\r\n\r\n        _tradingBotStates[msg.sender].indicatorHistory.push(uint256(_tradingBotStates[msg.sender].currentValue));\r\n    }\r\n\r\n    /**\r\n    * @dev Given a trading bot address, returns the indicator value for that bot\r\n    * @param tradingBotAddress Address of trading bot\r\n    * @return uint[] Indicator value for the given trading bot\r\n    */\r\n    function getValue(address tradingBotAddress) public view override returns (uint[] memory) {\r\n        require(tradingBotAddress != address(0), \"Invalid trading bot address\");\r\n\r\n        uint[] memory temp = new uint[](1);\r\n        temp[0] = (_tradingBotStates[tradingBotAddress].indicatorHistory.length < _tradingBotStates[tradingBotAddress].EMAperiod) ? 0 : uint256(_tradingBotStates[tradingBotAddress].currentValue);\r\n        return temp;\r\n    }\r\n\r\n    /**\r\n    * @dev Given a trading bot address, returns the indicator value history for that bot\r\n    * @param tradingBotAddress Address of trading bot\r\n    * @return uint[] Indicator value history for the given trading bot\r\n    */\r\n    function getHistory(address tradingBotAddress) public view override returns (uint[] memory) {\r\n        require(tradingBotAddress != address(0), \"Invalid trading bot address\");\r\n\r\n        return _tradingBotStates[tradingBotAddress].indicatorHistory;\r\n    }\r\n}",
  "sourcePath": "C:/Users/xavie/OneDrive/Desktop/TradeGen/Github/tradegen/contracts/EMA.sol",
  "compiler": {
    "name": "solc",
    "version": "0.6.12+commit.27d51765.Emscripten.clang"
  },
  "schemaVersion": "3.4.1",
  "updatedAt": "2021-07-01T14:46:47.337Z",
  "devdoc": {
    "kind": "dev",
    "methods": {
      "addTradingBot(uint256)": {
        "details": "Initializes the state of the trading bot; meant to be called by a trading bot",
        "params": {
          "param": "Value of the indicator's parameter"
        }
      },
      "editPrice(uint256)": {
        "details": "Updates the sale price of the indicator; meant to be called by the indicator's developer",
        "params": {
          "newPrice": "The new sale price of the indicator"
        }
      },
      "getHistory(address)": {
        "details": "Given a trading bot address, returns the indicator value history for that bot",
        "params": {
          "tradingBotAddress": "Address of trading bot"
        },
        "returns": {
          "_0": "uint[] Indicator value history for the given trading bot"
        }
      },
      "getName()": {
        "details": "Returns the name of the indicator",
        "returns": {
          "_0": "string Name of the indicator"
        }
      },
      "getPriceAndDeveloper()": {
        "details": "Returns the sale price and the developer of the indicator",
        "returns": {
          "_0": "(uint, address) Sale price of the indicator and the indicator's developer"
        }
      },
      "getValue(address)": {
        "details": "Given a trading bot address, returns the indicator value for that bot",
        "params": {
          "tradingBotAddress": "Address of trading bot"
        },
        "returns": {
          "_0": "uint[] Indicator value for the given trading bot"
        }
      },
      "update(uint256)": {
        "details": "Updates the indicator's state based on the latest price feed update",
        "params": {
          "latestPrice": "The latest price from oracle price feed"
        }
      }
    },
    "version": 1
  },
  "userdoc": {
    "kind": "user",
    "methods": {},
    "version": 1
  }
}