{
  "contractName": "ERC20Verifier",
  "abi": [
    {
      "anonymous": false,
      "inputs": [
        {
          "indexed": false,
          "internalType": "address",
          "name": "pool",
          "type": "address"
        },
        {
          "indexed": false,
          "internalType": "address",
          "name": "spender",
          "type": "address"
        },
        {
          "indexed": false,
          "internalType": "uint256",
          "name": "amount",
          "type": "uint256"
        },
        {
          "indexed": false,
          "internalType": "uint256",
          "name": "timestamp",
          "type": "uint256"
        }
      ],
      "name": "Approve",
      "type": "event"
    },
    {
      "anonymous": false,
      "inputs": [
        {
          "indexed": false,
          "internalType": "address",
          "name": "fundAddress",
          "type": "address"
        },
        {
          "indexed": false,
          "internalType": "address",
          "name": "sourceAsset",
          "type": "address"
        },
        {
          "indexed": false,
          "internalType": "uint256",
          "name": "sourceAmount",
          "type": "uint256"
        },
        {
          "indexed": false,
          "internalType": "address",
          "name": "destinationAsset",
          "type": "address"
        },
        {
          "indexed": false,
          "internalType": "uint256",
          "name": "timestamp",
          "type": "uint256"
        }
      ],
      "name": "ExchangeFrom",
      "type": "event"
    },
    {
      "inputs": [
        {
          "internalType": "bytes32",
          "name": "data",
          "type": "bytes32"
        }
      ],
      "name": "convert32toAddress",
      "outputs": [
        {
          "internalType": "address",
          "name": "o",
          "type": "address"
        }
      ],
      "stateMutability": "pure",
      "type": "function"
    },
    {
      "inputs": [
        {
          "internalType": "bytes",
          "name": "data",
          "type": "bytes"
        },
        {
          "internalType": "uint8",
          "name": "inputNum",
          "type": "uint8"
        },
        {
          "internalType": "uint8",
          "name": "arrayIndex",
          "type": "uint8"
        }
      ],
      "name": "getArrayIndex",
      "outputs": [
        {
          "internalType": "bytes32",
          "name": "",
          "type": "bytes32"
        }
      ],
      "stateMutability": "pure",
      "type": "function"
    },
    {
      "inputs": [
        {
          "internalType": "bytes",
          "name": "data",
          "type": "bytes"
        },
        {
          "internalType": "uint8",
          "name": "inputNum",
          "type": "uint8"
        }
      ],
      "name": "getArrayLast",
      "outputs": [
        {
          "internalType": "bytes32",
          "name": "",
          "type": "bytes32"
        }
      ],
      "stateMutability": "pure",
      "type": "function"
    },
    {
      "inputs": [
        {
          "internalType": "bytes",
          "name": "data",
          "type": "bytes"
        },
        {
          "internalType": "uint8",
          "name": "inputNum",
          "type": "uint8"
        }
      ],
      "name": "getArrayLength",
      "outputs": [
        {
          "internalType": "uint256",
          "name": "",
          "type": "uint256"
        }
      ],
      "stateMutability": "pure",
      "type": "function"
    },
    {
      "inputs": [
        {
          "internalType": "bytes",
          "name": "data",
          "type": "bytes"
        },
        {
          "internalType": "uint8",
          "name": "inputNum",
          "type": "uint8"
        },
        {
          "internalType": "uint256",
          "name": "offset",
          "type": "uint256"
        }
      ],
      "name": "getBytes",
      "outputs": [
        {
          "internalType": "bytes",
          "name": "",
          "type": "bytes"
        }
      ],
      "stateMutability": "pure",
      "type": "function"
    },
    {
      "inputs": [
        {
          "internalType": "bytes",
          "name": "data",
          "type": "bytes"
        },
        {
          "internalType": "uint8",
          "name": "inputNum",
          "type": "uint8"
        }
      ],
      "name": "getInput",
      "outputs": [
        {
          "internalType": "bytes32",
          "name": "",
          "type": "bytes32"
        }
      ],
      "stateMutability": "pure",
      "type": "function"
    },
    {
      "inputs": [
        {
          "internalType": "bytes",
          "name": "data",
          "type": "bytes"
        }
      ],
      "name": "getMethod",
      "outputs": [
        {
          "internalType": "bytes4",
          "name": "",
          "type": "bytes4"
        }
      ],
      "stateMutability": "pure",
      "type": "function"
    },
    {
      "inputs": [
        {
          "internalType": "bytes",
          "name": "data",
          "type": "bytes"
        }
      ],
      "name": "getParams",
      "outputs": [
        {
          "internalType": "bytes",
          "name": "",
          "type": "bytes"
        }
      ],
      "stateMutability": "pure",
      "type": "function"
    },
    {
      "inputs": [
        {
          "internalType": "bytes",
          "name": "data",
          "type": "bytes"
        },
        {
          "internalType": "uint256",
          "name": "offset",
          "type": "uint256"
        },
        {
          "internalType": "uint256",
          "name": "length",
          "type": "uint256"
        }
      ],
      "name": "read32",
      "outputs": [
        {
          "internalType": "bytes32",
          "name": "o",
          "type": "bytes32"
        }
      ],
      "stateMutability": "pure",
      "type": "function"
    },
    {
      "inputs": [
        {
          "internalType": "bytes",
          "name": "data",
          "type": "bytes"
        },
        {
          "internalType": "uint256",
          "name": "offset",
          "type": "uint256"
        }
      ],
      "name": "read4left",
      "outputs": [
        {
          "internalType": "bytes4",
          "name": "o",
          "type": "bytes4"
        }
      ],
      "stateMutability": "pure",
      "type": "function"
    },
    {
      "inputs": [
        {
          "internalType": "address",
          "name": "addressResolver",
          "type": "address"
        },
        {
          "internalType": "address",
          "name": "pool",
          "type": "address"
        },
        {
          "internalType": "address",
          "name": "",
          "type": "address"
        },
        {
          "internalType": "bytes",
          "name": "data",
          "type": "bytes"
        }
      ],
      "name": "verify",
      "outputs": [
        {
          "internalType": "bool",
          "name": "",
          "type": "bool"
        }
      ],
      "stateMutability": "nonpayable",
      "type": "function"
    },
    {
      "inputs": [
        {
          "internalType": "address",
          "name": "pool",
          "type": "address"
        },
        {
          "internalType": "address",
          "name": "asset",
          "type": "address"
        },
        {
          "internalType": "uint256",
          "name": "portion",
          "type": "uint256"
        },
        {
          "internalType": "address",
          "name": "",
          "type": "address"
        }
      ],
      "name": "prepareWithdrawal",
      "outputs": [
        {
          "internalType": "address",
          "name": "",
          "type": "address"
        },
        {
          "internalType": "uint256",
          "name": "",
          "type": "uint256"
        },
        {
          "components": [
            {
              "internalType": "address",
              "name": "to",
              "type": "address"
            },
            {
              "internalType": "bytes",
              "name": "txData",
              "type": "bytes"
            }
          ],
          "internalType": "struct IAssetVerifier.MultiTransaction[]",
          "name": "transactions",
          "type": "tuple[]"
        }
      ],
      "stateMutability": "view",
      "type": "function"
    },
    {
      "inputs": [
        {
          "internalType": "address",
          "name": "pool",
          "type": "address"
        },
        {
          "internalType": "address",
          "name": "asset",
          "type": "address"
        }
      ],
      "name": "getBalance",
      "outputs": [
        {
          "internalType": "uint256",
          "name": "",
          "type": "uint256"
        }
      ],
      "stateMutability": "view",
      "type": "function"
    },
    {
      "inputs": [
        {
          "internalType": "address",
          "name": "asset",
          "type": "address"
        }
      ],
      "name": "getDecimals",
      "outputs": [
        {
          "internalType": "uint256",
          "name": "",
          "type": "uint256"
        }
      ],
      "stateMutability": "view",
      "type": "function"
    }
  ],
  "bytecode": "0x608060405234801561001057600080fd5b50611ff5806100206000396000f3fe608060405234801561001057600080fd5b50600436106100ea5760003560e01c8063689015131161008c578063c3c6279f11610066578063c3c6279f146102d1578063cf54aaa014610301578063d4fac45d14610331578063db896b5714610361576100ea565b8063689015131461024157806382f86acc14610271578063998546e3146102a1576100ea565b8063293d8063116100c8578063293d80631461017f57806339158fdd146101af57806341dc16c3146101df578063460b62c31461020f576100ea565b806309ff5c7d146100ef5780631053f9521461011f5780631eba30771461014f575b600080fd5b610109600480360381019061010491906117b3565b610391565b6040516101169190611ce1565b60405180910390f35b6101396004803603810190610134919061180b565b61052a565b6040516101469190611d17565b60405180910390f35b61016960048036038101906101649190611745565b6106d3565b6040516101769190611c28565b60405180910390f35b610199600480360381019061019491906118e3565b6106e0565b6040516101a69190611cfc565b60405180910390f35b6101c960048036038101906101c49190611639565b61076b565b6040516101d69190611cc6565b60405180910390f35b6101f960048036038101906101f49190611877565b610c03565b6040516102069190611ce1565b60405180910390f35b610229600480360381019061022491906116b9565b610e1b565b60405161023893929190611c88565b60405180910390f35b61025b6004803603810190610256919061176e565b610e71565b6040516102689190611d17565b60405180910390f35b61028b600480360381019061028691906117b3565b610eda565b6040516102989190611ce1565b60405180910390f35b6102bb60048036038101906102b691906117b3565b610f3e565b6040516102c89190611d79565b60405180910390f35b6102eb60048036038101906102e6919061176e565b610fff565b6040516102f89190611cfc565b60405180910390f35b61031b600480360381019061031691906115ab565b611058565b6040516103289190611d79565b60405180910390f35b61034b600480360381019061034691906115fd565b6110e2565b6040516103589190611d79565b60405180910390f35b61037b60048036038101906103769190611937565b611175565b6040516103889190611ce1565b60405180910390f35b6000806103ed85858080601f016020809104026020016040519081016040528093929190818152602001838380828437600081840152601f19601f820116905080830192505050505050506004856020020160ff166020611175565b9050600061044786868080601f016020809104026020016040519081016040528093929190818152602001838380828437600081840152601f19601f8201169050808301925050505050505060048460001c016020611175565b90506000801b81116104c1576040517f08c379a00000000000000000000000000000000000000000000000000000000081526004018080602001828103825260128152602001807f696e707574206973206e6f74206172726179000000000000000000000000000081525060200191505060405180910390fd5b61051f86868080601f016020809104026020016040519081016040528093929190818152602001838380828437600081840152601f19601f8201169050808301925050505050505060208360001c0260048560001c01016020611175565b925050509392505050565b6060601482106105a2576040517f08c379a000000000000000000000000000000000000000000000000000000000815260040180806020018281038252600e8152602001807f696e76616c6964206f666673657400000000000000000000000000000000000081525060200191505060405180910390fd5b602082029150600061060586868080601f016020809104026020016040519081016040528093929190818152602001838380828437600081840152601f19601f82011690508083019250505050505050846004876020020160ff16016020611175565b60001c9050600061066187878080601f016020809104026020016040519081016040528093929190818152602001838380828437600081840152601f19601f820116905080830192505050505050508560048501016020611175565b60001c90506106c76020856004850101018289898080601f016020809104026020016040519081016040528093929190818152602001838380828437600081840152601f19601f820116905080830192505050505050506112179092919063ffffffff16565b92505050949350505050565b60008160001c9050919050565b6000600482018351101561075c576040517f08c379a000000000000000000000000000000000000000000000000000000000815260040180806020018281038252601b8152602001807f52656164696e67206279746573206f7574206f6620626f756e6473000000000081525060200191505060405180910390fd5b81602001830151905092915050565b6000806107788484610fff565b90507f095ea7b334ae44009aa867bfb386f5c3b4b443ac6f0ee573fa91c4608fbadfba7bffffffffffffffffffffffffffffffffffffffffffffffffffffffff1916817bffffffffffffffffffffffffffffffffffffffffffffffffffffffff19161415610bf45760006107f66107f186866000610eda565b6106d3565b9050600061080686866001610eda565b60001c905060008973ffffffffffffffffffffffffffffffffffffffff16632febaebd846040518263ffffffff1660e01b81526004016108469190611c28565b60206040518083038186803b15801561085e57600080fd5b505afa158015610872573d6000803e3d6000fd5b505050506040513d601f19601f8201168201806040525081019061089691906115d4565b9050600073ffffffffffffffffffffffffffffffffffffffff168173ffffffffffffffffffffffffffffffffffffffff161415610b025760008a73ffffffffffffffffffffffffffffffffffffffff166304433bbc6040518163ffffffff1660e01b815260040161090690611d59565b60206040518083038186803b15801561091e57600080fd5b505afa158015610932573d6000803e3d6000fd5b505050506040513d601f19601f8201168201806040525081019061095691906115d4565b90508073ffffffffffffffffffffffffffffffffffffffff1663cc435bf3856040518263ffffffff1660e01b81526004016109919190611c28565b60206040518083038186803b1580156109a957600080fd5b505afa1580156109bd573d6000803e3d6000fd5b505050506040513d601f19601f820116820180604052508101906109e1919061171c565b15610b005760008173ffffffffffffffffffffffffffffffffffffffff1663032c49ed866040518263ffffffff1660e01b8152600401610a219190611c28565b60206040518083038186803b158015610a3957600080fd5b505afa158015610a4d573d6000803e3d6000fd5b505050506040513d601f19601f82011682018060405250810190610a71919061199e565b90508b73ffffffffffffffffffffffffffffffffffffffff166358c1c787826040518263ffffffff1660e01b8152600401610aac9190611d79565b60206040518083038186803b158015610ac457600080fd5b505afa158015610ad8573d6000803e3d6000fd5b505050506040513d601f19601f82011682018060405250810190610afc91906115d4565b9250505b505b600073ffffffffffffffffffffffffffffffffffffffff168173ffffffffffffffffffffffffffffffffffffffff1614158015610b6b57503073ffffffffffffffffffffffffffffffffffffffff168173ffffffffffffffffffffffffffffffffffffffff1614155b610baa576040517f08c379a0000000000000000000000000000000000000000000000000000000008152600401610ba190611d39565b60405180910390fd5b7f8c287cb9c6b85cc52f4e58fb0c3f906c19db890e7288d3bfcfb6a9a66a5d334489848442604051610bdf9493929190611c43565b60405180910390a16001945050505050610bfa565b60009150505b95945050505050565b600080610c5f86868080601f016020809104026020016040519081016040528093929190818152602001838380828437600081840152601f19601f820116905080830192505050505050506004866020020160ff166020611175565b90506000610cb987878080601f016020809104026020016040519081016040528093929190818152602001838380828437600081840152601f19601f8201169050808301925050505050505060048460001c016020611175565b90506000801b8111610d33576040517f08c379a00000000000000000000000000000000000000000000000000000000081526004018080602001828103825260128152602001807f696e707574206973206e6f74206172726179000000000000000000000000000081525060200191505060405180910390fd5b8360ff168160001c11610dae576040517f08c379a00000000000000000000000000000000000000000000000000000000081526004018080602001828103825260168152602001807f696e76616c696420617272617920706f736974696f6e0000000000000000000081525060200191505060405180910390fd5b610e0f87878080601f016020809104026020016040519081016040528093929190818152602001838380828437600081840152601f19601f8201169050808301925050505050505060208660ff166001010260048560001c01016020611175565b92505050949350505050565b60008060606000610e2c88886110e2565b90506000610e5d670de0b6b3a7640000610e4f898561140190919063ffffffff16565b61143890919063ffffffff16565b905087819450945050509450945094915050565b6060610ed2600480858590500385858080601f016020809104026020016040519081016040528093929190818152602001838380828437600081840152601f19601f820116905080830192505050505050506112179092919063ffffffff16565b905092915050565b6000610f3584848080601f016020809104026020016040519081016040528093929190818152602001838380828437600081840152601f19601f820116905080830192505050505050506004846020020160ff166020611175565b90509392505050565b600080610f9a85858080601f016020809104026020016040519081016040528093929190818152602001838380828437600081840152601f19601f820116905080830192505050505050506004856020020160ff166020611175565b9050610ff285858080601f016020809104026020016040519081016040528093929190818152602001838380828437600081840152601f19601f8201169050808301925050505050505060048360001c016020611175565b60001c9150509392505050565b600061105083838080601f016020809104026020016040519081016040528093929190818152602001838380828437600081840152601f19601f8201169050808301925050505050505060006106e0565b905092915050565b60008173ffffffffffffffffffffffffffffffffffffffff1663313ce5676040518163ffffffff1660e01b815260040160206040518083038186803b1580156110a057600080fd5b505afa1580156110b4573d6000803e3d6000fd5b505050506040513d601f19601f820116820180604052508101906110d891906119c7565b60ff169050919050565b60008173ffffffffffffffffffffffffffffffffffffffff166370a08231846040518263ffffffff1660e01b815260040161111d9190611c28565b60206040518083038186803b15801561113557600080fd5b505afa158015611149573d6000803e3d6000fd5b505050506040513d601f19601f8201168201806040525081019061116d919061199e565b905092915050565b6000818301845110156111f0576040517f08c379a000000000000000000000000000000000000000000000000000000000815260040180806020018281038252601b8152602001807f52656164696e67206279746573206f7574206f6620626f756e6473000000000081525060200191505060405180910390fd5b82602001840151905081602003801561120f576008810260020a820491505b509392505050565b606081601f83011015611292576040517f08c379a000000000000000000000000000000000000000000000000000000000815260040180806020018281038252600e8152602001807f736c6963655f6f766572666c6f7700000000000000000000000000000000000081525060200191505060405180910390fd5b82828401101561130a576040517f08c379a000000000000000000000000000000000000000000000000000000000815260040180806020018281038252600e8152602001807f736c6963655f6f766572666c6f7700000000000000000000000000000000000081525060200191505060405180910390fd5b81830184511015611383576040517f08c379a00000000000000000000000000000000000000000000000000000000081526004018080602001828103825260118152602001807f736c6963655f6f75744f66426f756e647300000000000000000000000000000081525060200191505060405180910390fd5b60608215600081146113a457604051915060008252602082016040526113f5565b6040519150601f8416801560200281840101858101878315602002848b0101015b818310156113e257805183526020830192506020810190506113c5565b50868552601f19601f8301166040525050505b50809150509392505050565b6000808314156114145760009050611432565b600082840290508284828161142557fe5b041461142d57fe5b809150505b92915050565b60008082848161144457fe5b0490508091505092915050565b600061146461145f84611dc5565b611d94565b90508281526020810184848401111561147c57600080fd5b611487848285611ef7565b509392505050565b60008135905061149e81611f4c565b92915050565b6000815190506114b381611f4c565b92915050565b6000815190506114c881611f63565b92915050565b6000813590506114dd81611f7a565b92915050565b60008083601f8401126114f557600080fd5b8235905067ffffffffffffffff81111561150e57600080fd5b60208301915083600182028301111561152657600080fd5b9250929050565b600082601f83011261153e57600080fd5b813561154e848260208601611451565b91505092915050565b60008135905061156681611f91565b92915050565b60008151905061157b81611f91565b92915050565b60008135905061159081611fa8565b92915050565b6000815190506115a581611fa8565b92915050565b6000602082840312156115bd57600080fd5b60006115cb8482850161148f565b91505092915050565b6000602082840312156115e657600080fd5b60006115f4848285016114a4565b91505092915050565b6000806040838503121561161057600080fd5b600061161e8582860161148f565b925050602061162f8582860161148f565b9150509250929050565b60008060008060006080868803121561165157600080fd5b600061165f8882890161148f565b95505060206116708882890161148f565b94505060406116818882890161148f565b935050606086013567ffffffffffffffff81111561169e57600080fd5b6116aa888289016114e3565b92509250509295509295909350565b600080600080608085870312156116cf57600080fd5b60006116dd8782880161148f565b94505060206116ee8782880161148f565b93505060406116ff87828801611557565b92505060606117108782880161148f565b91505092959194509250565b60006020828403121561172e57600080fd5b600061173c848285016114b9565b91505092915050565b60006020828403121561175757600080fd5b6000611765848285016114ce565b91505092915050565b6000806020838503121561178157600080fd5b600083013567ffffffffffffffff81111561179b57600080fd5b6117a7858286016114e3565b92509250509250929050565b6000806000604084860312156117c857600080fd5b600084013567ffffffffffffffff8111156117e257600080fd5b6117ee868287016114e3565b9350935050602061180186828701611581565b9150509250925092565b6000806000806060858703121561182157600080fd5b600085013567ffffffffffffffff81111561183b57600080fd5b611847878288016114e3565b9450945050602061185a87828801611581565b925050604061186b87828801611557565b91505092959194509250565b6000806000806060858703121561188d57600080fd5b600085013567ffffffffffffffff8111156118a757600080fd5b6118b3878288016114e3565b945094505060206118c687828801611581565b92505060406118d787828801611581565b91505092959194509250565b600080604083850312156118f657600080fd5b600083013567ffffffffffffffff81111561191057600080fd5b61191c8582860161152d565b925050602061192d85828601611557565b9150509250929050565b60008060006060848603121561194c57600080fd5b600084013567ffffffffffffffff81111561196657600080fd5b6119728682870161152d565b935050602061198386828701611557565b925050604061199486828701611557565b9150509250925092565b6000602082840312156119b057600080fd5b60006119be8482850161156c565b91505092915050565b6000602082840312156119d957600080fd5b60006119e784828501611596565b91505092915050565b60006119fc8383611bdc565b905092915050565b611a0d81611e6c565b82525050565b611a1c81611e6c565b82525050565b6000611a2d82611e05565b611a378185611e28565b935083602082028501611a4985611df5565b8060005b85811015611a855784840389528151611a6685826119f0565b9450611a7183611e1b565b925060208a01995050600181019050611a4d565b50829750879550505050505092915050565b611aa081611e7e565b82525050565b611aaf81611e8a565b82525050565b611abe81611e94565b82525050565b6000611acf82611e10565b611ad98185611e39565b9350611ae9818560208601611f06565b611af281611f3b565b840191505092915050565b6000611b0882611e10565b611b128185611e4a565b9350611b22818560208601611f06565b611b2b81611f3b565b840191505092915050565b6000611b43602b83611e5b565b91507f455243323056657269666965723a20756e737570706f72746564207370656e6460008301527f657220617070726f76616c0000000000000000000000000000000000000000006020830152604082019050919050565b6000611ba9600c83611e5b565b91507f417373657448616e646c657200000000000000000000000000000000000000006000830152602082019050919050565b6000604083016000830151611bf46000860182611a04565b5060208301518482036020860152611c0c8282611ac4565b9150508091505092915050565b611c2281611ee0565b82525050565b6000602082019050611c3d6000830184611a13565b92915050565b6000608082019050611c586000830187611a13565b611c656020830186611a13565b611c726040830185611c19565b611c7f6060830184611c19565b95945050505050565b6000606082019050611c9d6000830186611a13565b611caa6020830185611c19565b8181036040830152611cbc8184611a22565b9050949350505050565b6000602082019050611cdb6000830184611a97565b92915050565b6000602082019050611cf66000830184611aa6565b92915050565b6000602082019050611d116000830184611ab5565b92915050565b60006020820190508181036000830152611d318184611afd565b905092915050565b60006020820190508181036000830152611d5281611b36565b9050919050565b60006020820190508181036000830152611d7281611b9c565b9050919050565b6000602082019050611d8e6000830184611c19565b92915050565b6000604051905081810181811067ffffffffffffffff82111715611dbb57611dba611f39565b5b8060405250919050565b600067ffffffffffffffff821115611de057611ddf611f39565b5b601f19601f8301169050602081019050919050565b6000819050602082019050919050565b600081519050919050565b600081519050919050565b6000602082019050919050565b600082825260208201905092915050565b600082825260208201905092915050565b600082825260208201905092915050565b600082825260208201905092915050565b6000611e7782611ec0565b9050919050565b60008115159050919050565b6000819050919050565b60007fffffffff0000000000000000000000000000000000000000000000000000000082169050919050565b600073ffffffffffffffffffffffffffffffffffffffff82169050919050565b6000819050919050565b600060ff82169050919050565b82818337600083830152505050565b60005b83811015611f24578082015181840152602081019050611f09565b83811115611f33576000848401525b50505050565bfe5b6000601f19601f8301169050919050565b611f5581611e6c565b8114611f6057600080fd5b50565b611f6c81611e7e565b8114611f7757600080fd5b50565b611f8381611e8a565b8114611f8e57600080fd5b50565b611f9a81611ee0565b8114611fa557600080fd5b50565b611fb181611eea565b8114611fbc57600080fd5b5056fea2646970667358221220e447028121515fd511c8752f9e38a87692bb376fa9789474dc5192be4fe8b4ee64736f6c63430007060033",
  "immutableReferences": {},
  "source": "// SPDX-License-Identifier: MIT\r\n\r\npragma solidity >=0.7.6;\r\npragma experimental ABIEncoderV2;\r\n\r\n//Libraries\r\nimport \"../../libraries/TxDataUtils.sol\";\r\nimport \"../../libraries/SafeMath.sol\";\r\n\r\n//Inheritance\r\nimport \"../../interfaces/IAssetVerifier.sol\";\r\nimport \"../../interfaces/IVerifier.sol\";\r\n\r\n//Internal references\r\nimport \"../../interfaces/IAddressResolver.sol\";\r\nimport \"../../interfaces/IAssetHandler.sol\";\r\nimport \"../../interfaces/IERC20.sol\";\r\n\r\ncontract ERC20Verifier is TxDataUtils, IVerifier, IAssetVerifier {\r\n    using SafeMath for uint;\r\n\r\n    /* ========== VIEWS ========== */\r\n\r\n    /**\r\n    * @dev Parses the transaction data to make sure the transaction is valid\r\n    * @param addressResolver Address of AddressResolver contract\r\n    * @param pool Address of the pool\r\n    * @param data Transaction call data\r\n    * @return uint Type of the asset\r\n    */\r\n    function verify(address addressResolver, address pool, address, bytes calldata data) public virtual override returns (bool) {\r\n        bytes4 method = getMethod(data);\r\n\r\n        if (method == bytes4(keccak256(\"approve(address,uint256)\")))\r\n        {\r\n            address spender = convert32toAddress(getInput(data, 0));\r\n            uint amount = uint(getInput(data, 1));\r\n\r\n            address verifier = IAddressResolver(addressResolver).contractVerifiers(spender);\r\n            if (verifier == address(0))\r\n            {\r\n                address assetHandlerAddress = IAddressResolver(addressResolver).getContractAddress(\"AssetHandler\");\r\n                if (IAssetHandler(assetHandlerAddress).isValidAsset(spender))\r\n                {\r\n                    uint assetType = IAssetHandler(assetHandlerAddress).getAssetType(spender);\r\n                    verifier = IAddressResolver(addressResolver).assetVerifiers(assetType);\r\n                }\r\n            }\r\n\r\n            //Checks if the spender is an approved address\r\n            require(verifier != address(0) && verifier != address(this), \"ERC20Verifier: unsupported spender approval\"); \r\n\r\n            emit Approve(pool, spender, amount, block.timestamp);\r\n\r\n            return true;\r\n        }\r\n\r\n        return false;\r\n    }\r\n\r\n    /**\r\n    * @dev Creates transaction data for withdrawing tokens\r\n    * @param pool Address of the pool\r\n    * @param asset Address of the asset\r\n    * @param portion Portion of the pool's balance in the asset\r\n    * @return (address, uint, MultiTransaction[]) Withdrawn asset, amount of asset withdrawn, and transactions used to execute the withdrawal\r\n    */\r\n    function prepareWithdrawal(address pool, address asset, uint portion, address) public view virtual override returns (address, uint, MultiTransaction[] memory transactions) {\r\n        uint totalAssetBalance = getBalance(pool, asset);\r\n        uint withdrawBalance = totalAssetBalance.mul(portion).div(10**18);\r\n        return (asset, withdrawBalance, transactions);\r\n    }\r\n\r\n    /**\r\n    * @dev Returns the pool's balance in the asset\r\n    * @param pool Address of the pool\r\n    * @param asset Address of the asset\r\n    * @return uint Pool's balance in the asset\r\n    */\r\n    function getBalance(address pool, address asset) public view virtual override returns (uint) {\r\n        return IERC20(asset).balanceOf(pool);\r\n    }\r\n\r\n    /**\r\n    * @dev Returns the decimals of the asset\r\n    * @param asset Address of the asset\r\n    * @return uint Asset's number of decimals\r\n    */\r\n    function getDecimals(address asset) public view override returns (uint) {\r\n        return IERC20(asset).decimals();\r\n    }\r\n\r\n    /* ========== EVENTS ========== */\r\n\r\n    event Approve(address pool, address spender, uint amount, uint timestamp);\r\n}",
  "sourcePath": "C:\\Users\\xavie\\OneDrive\\Desktop\\TradeGen\\Github\\tradegen-protocol\\contracts\\verifiers\\assetVerifiers\\ERC20Verifier.sol",
  "compiler": {
    "name": "solc",
    "version": "0.7.6+commit.7338295f.Emscripten.clang"
  },
  "schemaVersion": "3.4.1",
  "updatedAt": "2021-08-17T23:05:06.127Z",
  "devdoc": {
    "kind": "dev",
    "methods": {
      "getBalance(address,address)": {
        "details": "Returns the pool's balance in the asset",
        "params": {
          "asset": "Address of the asset",
          "pool": "Address of the pool"
        },
        "returns": {
          "_0": "uint Pool's balance in the asset"
        }
      },
      "getDecimals(address)": {
        "details": "Returns the decimals of the asset",
        "params": {
          "asset": "Address of the asset"
        },
        "returns": {
          "_0": "uint Asset's number of decimals"
        }
      },
      "prepareWithdrawal(address,address,uint256,address)": {
        "details": "Creates transaction data for withdrawing tokens",
        "params": {
          "asset": "Address of the asset",
          "pool": "Address of the pool",
          "portion": "Portion of the pool's balance in the asset"
        },
        "returns": {
          "_0": "(address, uint, MultiTransaction[]) Withdrawn asset, amount of asset withdrawn, and transactions used to execute the withdrawal"
        }
      },
      "verify(address,address,address,bytes)": {
        "details": "Parses the transaction data to make sure the transaction is valid",
        "params": {
          "addressResolver": "Address of AddressResolver contract",
          "data": "Transaction call data",
          "pool": "Address of the pool"
        },
        "returns": {
          "_0": "uint Type of the asset"
        }
      }
    },
    "version": 1
  },
  "userdoc": {
    "kind": "user",
    "methods": {},
    "version": 1
  }
}