{
  "contractName": "ERC20PriceAggregator",
  "abi": [
    {
      "inputs": [
        {
          "internalType": "contract IAddressResolver",
          "name": "addressResolver",
          "type": "address"
        }
      ],
      "stateMutability": "nonpayable",
      "type": "constructor"
    },
    {
      "inputs": [],
      "name": "ADDRESS_RESOLVER",
      "outputs": [
        {
          "internalType": "contract IAddressResolver",
          "name": "",
          "type": "address"
        }
      ],
      "stateMutability": "view",
      "type": "function"
    },
    {
      "inputs": [
        {
          "internalType": "address",
          "name": "asset",
          "type": "address"
        }
      ],
      "name": "getUSDPrice",
      "outputs": [
        {
          "internalType": "uint256",
          "name": "",
          "type": "uint256"
        }
      ],
      "stateMutability": "view",
      "type": "function"
    }
  ],
  "bytecode": "0x608060405234801561001057600080fd5b506040516103f33803806103f38339818101604052602081101561003357600080fd5b8101908080519060200190929190505050806000806101000a81548173ffffffffffffffffffffffffffffffffffffffff021916908373ffffffffffffffffffffffffffffffffffffffff1602179055505061035f806100946000396000f3fe608060405234801561001057600080fd5b50600436106100365760003560e01c80638b2f0f4f1461003b578063981f3b8e14610093575b600080fd5b61007d6004803603602081101561005157600080fd5b81019080803573ffffffffffffffffffffffffffffffffffffffff1690602001909291905050506100c7565b6040518082815260200191505060405180910390f35b61009b6102da565b604051808273ffffffffffffffffffffffffffffffffffffffff16815260200191505060405180910390f35b60008073ffffffffffffffffffffffffffffffffffffffff168273ffffffffffffffffffffffffffffffffffffffff16141561014e576040517f08c379a000000000000000000000000000000000000000000000000000000000815260040180806020018281038252602b8152602001806102ff602b913960400191505060405180910390fd5b60008060009054906101000a900473ffffffffffffffffffffffffffffffffffffffff1673ffffffffffffffffffffffffffffffffffffffff166304433bbc6040518163ffffffff1660e01b81526004018080602001828103825260128152602001807f426173655562657377617041646170746572000000000000000000000000000081525060200191505060206040518083038186803b1580156101f357600080fd5b505afa158015610207573d6000803e3d6000fd5b505050506040513d602081101561021d57600080fd5b810190808051906020019092919050505090508073ffffffffffffffffffffffffffffffffffffffff166341976e09846040518263ffffffff1660e01b8152600401808273ffffffffffffffffffffffffffffffffffffffff16815260200191505060206040518083038186803b15801561029757600080fd5b505afa1580156102ab573d6000803e3d6000fd5b505050506040513d60208110156102c157600080fd5b8101908080519060200190929190505050915050919050565b60008054906101000a900473ffffffffffffffffffffffffffffffffffffffff168156fe4552433230507269636541676772656761746f723a20696e76616c69642061737365742061646472657373a26469706673582212208cad0f2921170bf4ced6584c19befeb9addf55b312a514e3d76e0d357300285964736f6c63430007060033",
  "immutableReferences": {},
  "source": "// SPDX-License-Identifier: MIT\r\n\r\npragma solidity >=0.7.6;\r\n\r\n//Inheritance\r\nimport './interfaces/IPriceAggregator.sol';\r\n\r\n//Interfaces\r\nimport './interfaces/IBaseUbeswapAdapter.sol';\r\nimport './interfaces/IAddressResolver.sol';\r\n\r\ncontract ERC20PriceAggregator is IPriceAggregator {\r\n\r\n    IAddressResolver public ADDRESS_RESOLVER;\r\n\r\n    constructor(IAddressResolver addressResolver) {\r\n        ADDRESS_RESOLVER = addressResolver;\r\n    }\r\n\r\n    /* ========== VIEWS ========== */\r\n\r\n    function getUSDPrice(address asset) public view override returns (uint) {\r\n        require(asset != address(0), \"ERC20PriceAggregator: invalid asset address\");\r\n\r\n        address baseUbeswapAdapterAddress = ADDRESS_RESOLVER.getContractAddress(\"BaseUbeswapAdapter\");\r\n        return IBaseUbeswapAdapter(baseUbeswapAdapterAddress).getPrice(asset);\r\n    }\r\n}",
  "sourcePath": "C:/Users/xavie/OneDrive/Desktop/TradeGen/Github/tradegen-protocol/contracts/ERC20PriceAggregator.sol",
  "compiler": {
    "name": "solc",
    "version": "0.7.6+commit.7338295f.Emscripten.clang"
  },
  "schemaVersion": "3.4.1",
  "updatedAt": "2021-08-16T00:30:21.870Z",
  "devdoc": {
    "kind": "dev",
    "methods": {},
    "version": 1
  },
  "userdoc": {
    "kind": "user",
    "methods": {},
    "version": 1
  }
}