{
  "contractName": "ERC20Verifier",
  "abi": [
    {
      "anonymous": false,
      "inputs": [
        {
          "indexed": false,
          "internalType": "address",
          "name": "pool",
          "type": "address"
        },
        {
          "indexed": false,
          "internalType": "address",
          "name": "spender",
          "type": "address"
        },
        {
          "indexed": false,
          "internalType": "uint256",
          "name": "amount",
          "type": "uint256"
        },
        {
          "indexed": false,
          "internalType": "uint256",
          "name": "timestamp",
          "type": "uint256"
        }
      ],
      "name": "Approve",
      "type": "event"
    },
    {
      "anonymous": false,
      "inputs": [
        {
          "indexed": false,
          "internalType": "address",
          "name": "fundAddress",
          "type": "address"
        },
        {
          "indexed": false,
          "internalType": "address",
          "name": "sourceAsset",
          "type": "address"
        },
        {
          "indexed": false,
          "internalType": "uint256",
          "name": "sourceAmount",
          "type": "uint256"
        },
        {
          "indexed": false,
          "internalType": "address",
          "name": "destinationAsset",
          "type": "address"
        },
        {
          "indexed": false,
          "internalType": "uint256",
          "name": "timestamp",
          "type": "uint256"
        }
      ],
      "name": "ExchangeFrom",
      "type": "event"
    },
    {
      "inputs": [
        {
          "internalType": "bytes32",
          "name": "data",
          "type": "bytes32"
        }
      ],
      "name": "convert32toAddress",
      "outputs": [
        {
          "internalType": "address",
          "name": "o",
          "type": "address"
        }
      ],
      "stateMutability": "pure",
      "type": "function"
    },
    {
      "inputs": [
        {
          "internalType": "bytes",
          "name": "data",
          "type": "bytes"
        },
        {
          "internalType": "uint8",
          "name": "inputNum",
          "type": "uint8"
        },
        {
          "internalType": "uint8",
          "name": "arrayIndex",
          "type": "uint8"
        }
      ],
      "name": "getArrayIndex",
      "outputs": [
        {
          "internalType": "bytes32",
          "name": "",
          "type": "bytes32"
        }
      ],
      "stateMutability": "pure",
      "type": "function"
    },
    {
      "inputs": [
        {
          "internalType": "bytes",
          "name": "data",
          "type": "bytes"
        },
        {
          "internalType": "uint8",
          "name": "inputNum",
          "type": "uint8"
        }
      ],
      "name": "getArrayLast",
      "outputs": [
        {
          "internalType": "bytes32",
          "name": "",
          "type": "bytes32"
        }
      ],
      "stateMutability": "pure",
      "type": "function"
    },
    {
      "inputs": [
        {
          "internalType": "bytes",
          "name": "data",
          "type": "bytes"
        },
        {
          "internalType": "uint8",
          "name": "inputNum",
          "type": "uint8"
        }
      ],
      "name": "getArrayLength",
      "outputs": [
        {
          "internalType": "uint256",
          "name": "",
          "type": "uint256"
        }
      ],
      "stateMutability": "pure",
      "type": "function"
    },
    {
      "inputs": [
        {
          "internalType": "bytes",
          "name": "data",
          "type": "bytes"
        },
        {
          "internalType": "uint8",
          "name": "inputNum",
          "type": "uint8"
        },
        {
          "internalType": "uint256",
          "name": "offset",
          "type": "uint256"
        }
      ],
      "name": "getBytes",
      "outputs": [
        {
          "internalType": "bytes",
          "name": "",
          "type": "bytes"
        }
      ],
      "stateMutability": "pure",
      "type": "function"
    },
    {
      "inputs": [
        {
          "internalType": "bytes",
          "name": "data",
          "type": "bytes"
        },
        {
          "internalType": "uint8",
          "name": "inputNum",
          "type": "uint8"
        }
      ],
      "name": "getInput",
      "outputs": [
        {
          "internalType": "bytes32",
          "name": "",
          "type": "bytes32"
        }
      ],
      "stateMutability": "pure",
      "type": "function"
    },
    {
      "inputs": [
        {
          "internalType": "bytes",
          "name": "data",
          "type": "bytes"
        }
      ],
      "name": "getMethod",
      "outputs": [
        {
          "internalType": "bytes4",
          "name": "",
          "type": "bytes4"
        }
      ],
      "stateMutability": "pure",
      "type": "function"
    },
    {
      "inputs": [
        {
          "internalType": "bytes",
          "name": "data",
          "type": "bytes"
        }
      ],
      "name": "getParams",
      "outputs": [
        {
          "internalType": "bytes",
          "name": "",
          "type": "bytes"
        }
      ],
      "stateMutability": "pure",
      "type": "function"
    },
    {
      "inputs": [
        {
          "internalType": "bytes",
          "name": "data",
          "type": "bytes"
        },
        {
          "internalType": "uint256",
          "name": "offset",
          "type": "uint256"
        },
        {
          "internalType": "uint256",
          "name": "length",
          "type": "uint256"
        }
      ],
      "name": "read32",
      "outputs": [
        {
          "internalType": "bytes32",
          "name": "o",
          "type": "bytes32"
        }
      ],
      "stateMutability": "pure",
      "type": "function"
    },
    {
      "inputs": [
        {
          "internalType": "bytes",
          "name": "data",
          "type": "bytes"
        },
        {
          "internalType": "uint256",
          "name": "offset",
          "type": "uint256"
        }
      ],
      "name": "read4left",
      "outputs": [
        {
          "internalType": "bytes4",
          "name": "o",
          "type": "bytes4"
        }
      ],
      "stateMutability": "pure",
      "type": "function"
    },
    {
      "inputs": [
        {
          "internalType": "address",
          "name": "addressResolver",
          "type": "address"
        },
        {
          "internalType": "address",
          "name": "pool",
          "type": "address"
        },
        {
          "internalType": "address",
          "name": "",
          "type": "address"
        },
        {
          "internalType": "bytes",
          "name": "data",
          "type": "bytes"
        }
      ],
      "name": "verify",
      "outputs": [
        {
          "internalType": "bool",
          "name": "",
          "type": "bool"
        }
      ],
      "stateMutability": "nonpayable",
      "type": "function"
    },
    {
      "inputs": [
        {
          "internalType": "address",
          "name": "pool",
          "type": "address"
        },
        {
          "internalType": "address",
          "name": "asset",
          "type": "address"
        },
        {
          "internalType": "uint256",
          "name": "portion",
          "type": "uint256"
        },
        {
          "internalType": "address",
          "name": "",
          "type": "address"
        }
      ],
      "name": "prepareWithdrawal",
      "outputs": [
        {
          "internalType": "address",
          "name": "",
          "type": "address"
        },
        {
          "internalType": "uint256",
          "name": "",
          "type": "uint256"
        },
        {
          "components": [
            {
              "internalType": "address",
              "name": "to",
              "type": "address"
            },
            {
              "internalType": "bytes",
              "name": "txData",
              "type": "bytes"
            }
          ],
          "internalType": "struct IAssetVerifier.MultiTransaction[]",
          "name": "transactions",
          "type": "tuple[]"
        }
      ],
      "stateMutability": "view",
      "type": "function"
    },
    {
      "inputs": [
        {
          "internalType": "address",
          "name": "pool",
          "type": "address"
        },
        {
          "internalType": "address",
          "name": "asset",
          "type": "address"
        }
      ],
      "name": "getBalance",
      "outputs": [
        {
          "internalType": "uint256",
          "name": "",
          "type": "uint256"
        }
      ],
      "stateMutability": "view",
      "type": "function"
    },
    {
      "inputs": [
        {
          "internalType": "address",
          "name": "asset",
          "type": "address"
        }
      ],
      "name": "getDecimals",
      "outputs": [
        {
          "internalType": "uint256",
          "name": "",
          "type": "uint256"
        }
      ],
      "stateMutability": "view",
      "type": "function"
    }
  ],
  "bytecode": "0x608060405234801561001057600080fd5b50611c9e806100206000396000f3fe608060405234801561001057600080fd5b50600436106100ea5760003560e01c8063689015131161008c578063c3c6279f11610066578063c3c6279f146102d1578063cf54aaa014610301578063d4fac45d14610331578063db896b5714610361576100ea565b8063689015131461024157806382f86acc14610271578063998546e3146102a1576100ea565b8063293d8063116100c8578063293d80631461017f57806339158fdd146101af57806341dc16c3146101df578063460b62c31461020f576100ea565b806309ff5c7d146100ef5780631053f9521461011f5780631eba30771461014f575b600080fd5b610109600480360381019061010491906114d3565b610391565b60405161011691906119c1565b60405180910390f35b6101396004803603810190610134919061152b565b61052a565b60405161014691906119f7565b60405180910390f35b61016960048036038101906101649190611465565b6106d3565b6040516101769190611908565b60405180910390f35b61019960048036038101906101949190611603565b6106e0565b6040516101a691906119dc565b60405180910390f35b6101c960048036038101906101c49190611382565b61076b565b6040516101d691906119a6565b60405180910390f35b6101f960048036038101906101f49190611597565b610961565b60405161020691906119c1565b60405180910390f35b61022960048036038101906102249190611402565b610b79565b60405161023893929190611968565b60405180910390f35b61025b6004803603810190610256919061148e565b610bcf565b60405161026891906119f7565b60405180910390f35b61028b600480360381019061028691906114d3565b610c38565b60405161029891906119c1565b60405180910390f35b6102bb60048036038101906102b691906114d3565b610c9c565b6040516102c89190611a39565b60405180910390f35b6102eb60048036038101906102e6919061148e565b610d5d565b6040516102f891906119dc565b60405180910390f35b61031b600480360381019061031691906112f4565b610db6565b6040516103289190611a39565b60405180910390f35b61034b60048036038101906103469190611346565b610e40565b6040516103589190611a39565b60405180910390f35b61037b60048036038101906103769190611657565b610ed3565b60405161038891906119c1565b60405180910390f35b6000806103ed85858080601f016020809104026020016040519081016040528093929190818152602001838380828437600081840152601f19601f820116905080830192505050505050506004856020020160ff166020610ed3565b9050600061044786868080601f016020809104026020016040519081016040528093929190818152602001838380828437600081840152601f19601f8201169050808301925050505050505060048460001c016020610ed3565b90506000801b81116104c1576040517f08c379a00000000000000000000000000000000000000000000000000000000081526004018080602001828103825260128152602001807f696e707574206973206e6f74206172726179000000000000000000000000000081525060200191505060405180910390fd5b61051f86868080601f016020809104026020016040519081016040528093929190818152602001838380828437600081840152601f19601f8201169050808301925050505050505060208360001c0260048560001c01016020610ed3565b925050509392505050565b6060601482106105a2576040517f08c379a000000000000000000000000000000000000000000000000000000000815260040180806020018281038252600e8152602001807f696e76616c6964206f666673657400000000000000000000000000000000000081525060200191505060405180910390fd5b602082029150600061060586868080601f016020809104026020016040519081016040528093929190818152602001838380828437600081840152601f19601f82011690508083019250505050505050846004876020020160ff16016020610ed3565b60001c9050600061066187878080601f016020809104026020016040519081016040528093929190818152602001838380828437600081840152601f19601f820116905080830192505050505050508560048501016020610ed3565b60001c90506106c76020856004850101018289898080601f016020809104026020016040519081016040528093929190818152602001838380828437600081840152601f19601f82011690508083019250505050505050610f759092919063ffffffff16565b92505050949350505050565b60008160001c9050919050565b6000600482018351101561075c576040517f08c379a000000000000000000000000000000000000000000000000000000000815260040180806020018281038252601b8152602001807f52656164696e67206279746573206f7574206f6620626f756e6473000000000081525060200191505060405180910390fd5b81602001830151905092915050565b6000806107788484610d5d565b90507f095ea7b334ae44009aa867bfb386f5c3b4b443ac6f0ee573fa91c4608fbadfba7bffffffffffffffffffffffffffffffffffffffffffffffffffffffff1916817bffffffffffffffffffffffffffffffffffffffffffffffffffffffff191614156109525760006107f66107f186866000610c38565b6106d3565b9050600061080686866001610c38565b60001c905060008973ffffffffffffffffffffffffffffffffffffffff16632febaebd846040518263ffffffff1660e01b81526004016108469190611908565b60206040518083038186803b15801561085e57600080fd5b505afa158015610872573d6000803e3d6000fd5b505050506040513d601f19601f82011682018060405250810190610896919061131d565b9050600073ffffffffffffffffffffffffffffffffffffffff168173ffffffffffffffffffffffffffffffffffffffff161415610908576040517f08c379a00000000000000000000000000000000000000000000000000000000081526004016108ff90611a19565b60405180910390fd5b7f8c287cb9c6b85cc52f4e58fb0c3f906c19db890e7288d3bfcfb6a9a66a5d33448984844260405161093d9493929190611923565b60405180910390a16001945050505050610958565b60009150505b95945050505050565b6000806109bd86868080601f016020809104026020016040519081016040528093929190818152602001838380828437600081840152601f19601f820116905080830192505050505050506004866020020160ff166020610ed3565b90506000610a1787878080601f016020809104026020016040519081016040528093929190818152602001838380828437600081840152601f19601f8201169050808301925050505050505060048460001c016020610ed3565b90506000801b8111610a91576040517f08c379a00000000000000000000000000000000000000000000000000000000081526004018080602001828103825260128152602001807f696e707574206973206e6f74206172726179000000000000000000000000000081525060200191505060405180910390fd5b8360ff168160001c11610b0c576040517f08c379a00000000000000000000000000000000000000000000000000000000081526004018080602001828103825260168152602001807f696e76616c696420617272617920706f736974696f6e0000000000000000000081525060200191505060405180910390fd5b610b6d87878080601f016020809104026020016040519081016040528093929190818152602001838380828437600081840152601f19601f8201169050808301925050505050505060208660ff166001010260048560001c01016020610ed3565b92505050949350505050565b60008060606000610b8a8888610e40565b90506000610bbb670de0b6b3a7640000610bad898561115f90919063ffffffff16565b61119690919063ffffffff16565b905087819450945050509450945094915050565b6060610c30600480858590500385858080601f016020809104026020016040519081016040528093929190818152602001838380828437600081840152601f19601f82011690508083019250505050505050610f759092919063ffffffff16565b905092915050565b6000610c9384848080601f016020809104026020016040519081016040528093929190818152602001838380828437600081840152601f19601f820116905080830192505050505050506004846020020160ff166020610ed3565b90509392505050565b600080610cf885858080601f016020809104026020016040519081016040528093929190818152602001838380828437600081840152601f19601f820116905080830192505050505050506004856020020160ff166020610ed3565b9050610d5085858080601f016020809104026020016040519081016040528093929190818152602001838380828437600081840152601f19601f8201169050808301925050505050505060048360001c016020610ed3565b60001c9150509392505050565b6000610dae83838080601f016020809104026020016040519081016040528093929190818152602001838380828437600081840152601f19601f8201169050808301925050505050505060006106e0565b905092915050565b60008173ffffffffffffffffffffffffffffffffffffffff1663313ce5676040518163ffffffff1660e01b815260040160206040518083038186803b158015610dfe57600080fd5b505afa158015610e12573d6000803e3d6000fd5b505050506040513d601f19601f82011682018060405250810190610e3691906116e7565b60ff169050919050565b60008173ffffffffffffffffffffffffffffffffffffffff166370a08231846040518263ffffffff1660e01b8152600401610e7b9190611908565b60206040518083038186803b158015610e9357600080fd5b505afa158015610ea7573d6000803e3d6000fd5b505050506040513d601f19601f82011682018060405250810190610ecb91906116be565b905092915050565b600081830184511015610f4e576040517f08c379a000000000000000000000000000000000000000000000000000000000815260040180806020018281038252601b8152602001807f52656164696e67206279746573206f7574206f6620626f756e6473000000000081525060200191505060405180910390fd5b826020018401519050816020038015610f6d576008810260020a820491505b509392505050565b606081601f83011015610ff0576040517f08c379a000000000000000000000000000000000000000000000000000000000815260040180806020018281038252600e8152602001807f736c6963655f6f766572666c6f7700000000000000000000000000000000000081525060200191505060405180910390fd5b828284011015611068576040517f08c379a000000000000000000000000000000000000000000000000000000000815260040180806020018281038252600e8152602001807f736c6963655f6f766572666c6f7700000000000000000000000000000000000081525060200191505060405180910390fd5b818301845110156110e1576040517f08c379a00000000000000000000000000000000000000000000000000000000081526004018080602001828103825260118152602001807f736c6963655f6f75744f66426f756e647300000000000000000000000000000081525060200191505060405180910390fd5b60608215600081146111025760405191506000825260208201604052611153565b6040519150601f8416801560200281840101858101878315602002848b0101015b818310156111405780518352602083019250602081019050611123565b50868552601f19601f8301166040525050505b50809150509392505050565b6000808314156111725760009050611190565b600082840290508284828161118357fe5b041461118b57fe5b809150505b92915050565b6000808284816111a257fe5b0490508091505092915050565b60006111c26111bd84611a85565b611a54565b9050828152602081018484840111156111da57600080fd5b6111e5848285611bb7565b509392505050565b6000813590506111fc81611c0c565b92915050565b60008151905061121181611c0c565b92915050565b60008135905061122681611c23565b92915050565b60008083601f84011261123e57600080fd5b8235905067ffffffffffffffff81111561125757600080fd5b60208301915083600182028301111561126f57600080fd5b9250929050565b600082601f83011261128757600080fd5b81356112978482602086016111af565b91505092915050565b6000813590506112af81611c3a565b92915050565b6000815190506112c481611c3a565b92915050565b6000813590506112d981611c51565b92915050565b6000815190506112ee81611c51565b92915050565b60006020828403121561130657600080fd5b6000611314848285016111ed565b91505092915050565b60006020828403121561132f57600080fd5b600061133d84828501611202565b91505092915050565b6000806040838503121561135957600080fd5b6000611367858286016111ed565b9250506020611378858286016111ed565b9150509250929050565b60008060008060006080868803121561139a57600080fd5b60006113a8888289016111ed565b95505060206113b9888289016111ed565b94505060406113ca888289016111ed565b935050606086013567ffffffffffffffff8111156113e757600080fd5b6113f38882890161122c565b92509250509295509295909350565b6000806000806080858703121561141857600080fd5b6000611426878288016111ed565b9450506020611437878288016111ed565b9350506040611448878288016112a0565b9250506060611459878288016111ed565b91505092959194509250565b60006020828403121561147757600080fd5b600061148584828501611217565b91505092915050565b600080602083850312156114a157600080fd5b600083013567ffffffffffffffff8111156114bb57600080fd5b6114c78582860161122c565b92509250509250929050565b6000806000604084860312156114e857600080fd5b600084013567ffffffffffffffff81111561150257600080fd5b61150e8682870161122c565b93509350506020611521868287016112ca565b9150509250925092565b6000806000806060858703121561154157600080fd5b600085013567ffffffffffffffff81111561155b57600080fd5b6115678782880161122c565b9450945050602061157a878288016112ca565b925050604061158b878288016112a0565b91505092959194509250565b600080600080606085870312156115ad57600080fd5b600085013567ffffffffffffffff8111156115c757600080fd5b6115d38782880161122c565b945094505060206115e6878288016112ca565b92505060406115f7878288016112ca565b91505092959194509250565b6000806040838503121561161657600080fd5b600083013567ffffffffffffffff81111561163057600080fd5b61163c85828601611276565b925050602061164d858286016112a0565b9150509250929050565b60008060006060848603121561166c57600080fd5b600084013567ffffffffffffffff81111561168657600080fd5b61169286828701611276565b93505060206116a3868287016112a0565b92505060406116b4868287016112a0565b9150509250925092565b6000602082840312156116d057600080fd5b60006116de848285016112b5565b91505092915050565b6000602082840312156116f957600080fd5b6000611707848285016112df565b91505092915050565b600061171c83836118bc565b905092915050565b61172d81611b2c565b82525050565b61173c81611b2c565b82525050565b600061174d82611ac5565b6117578185611ae8565b93508360208202850161176985611ab5565b8060005b858110156117a557848403895281516117868582611710565b945061179183611adb565b925060208a0199505060018101905061176d565b50829750879550505050505092915050565b6117c081611b3e565b82525050565b6117cf81611b4a565b82525050565b6117de81611b54565b82525050565b60006117ef82611ad0565b6117f98185611af9565b9350611809818560208601611bc6565b61181281611bfb565b840191505092915050565b600061182882611ad0565b6118328185611b0a565b9350611842818560208601611bc6565b61184b81611bfb565b840191505092915050565b6000611863602b83611b1b565b91507f455243323056657269666965723a20756e737570706f72746564207370656e6460008301527f657220617070726f76616c0000000000000000000000000000000000000000006020830152604082019050919050565b60006040830160008301516118d46000860182611724565b50602083015184820360208601526118ec82826117e4565b9150508091505092915050565b61190281611ba0565b82525050565b600060208201905061191d6000830184611733565b92915050565b60006080820190506119386000830187611733565b6119456020830186611733565b61195260408301856118f9565b61195f60608301846118f9565b95945050505050565b600060608201905061197d6000830186611733565b61198a60208301856118f9565b818103604083015261199c8184611742565b9050949350505050565b60006020820190506119bb60008301846117b7565b92915050565b60006020820190506119d660008301846117c6565b92915050565b60006020820190506119f160008301846117d5565b92915050565b60006020820190508181036000830152611a11818461181d565b905092915050565b60006020820190508181036000830152611a3281611856565b9050919050565b6000602082019050611a4e60008301846118f9565b92915050565b6000604051905081810181811067ffffffffffffffff82111715611a7b57611a7a611bf9565b5b8060405250919050565b600067ffffffffffffffff821115611aa057611a9f611bf9565b5b601f19601f8301169050602081019050919050565b6000819050602082019050919050565b600081519050919050565b600081519050919050565b6000602082019050919050565b600082825260208201905092915050565b600082825260208201905092915050565b600082825260208201905092915050565b600082825260208201905092915050565b6000611b3782611b80565b9050919050565b60008115159050919050565b6000819050919050565b60007fffffffff0000000000000000000000000000000000000000000000000000000082169050919050565b600073ffffffffffffffffffffffffffffffffffffffff82169050919050565b6000819050919050565b600060ff82169050919050565b82818337600083830152505050565b60005b83811015611be4578082015181840152602081019050611bc9565b83811115611bf3576000848401525b50505050565bfe5b6000601f19601f8301169050919050565b611c1581611b2c565b8114611c2057600080fd5b50565b611c2c81611b4a565b8114611c3757600080fd5b50565b611c4381611ba0565b8114611c4e57600080fd5b50565b611c5a81611baa565b8114611c6557600080fd5b5056fea264697066735822122088669d4fef4db15ac57f0434cdde8f119c5f04c7495721ebae8f436e0a5f7c7564736f6c63430007060033",
  "immutableReferences": {},
  "source": "// SPDX-License-Identifier: MIT\r\n\r\npragma solidity >=0.7.6;\r\npragma experimental ABIEncoderV2;\r\n\r\n//Libraries\r\nimport \"../../libraries/TxDataUtils.sol\";\r\nimport \"../../libraries/SafeMath.sol\";\r\n\r\n//Inheritance\r\nimport \"../../interfaces/IAssetVerifier.sol\";\r\nimport \"../../interfaces/IVerifier.sol\";\r\n\r\n//Internal references\r\nimport \"../../interfaces/IAddressResolver.sol\";\r\nimport \"../../interfaces/IAssetHandler.sol\";\r\nimport \"../../interfaces/IERC20.sol\";\r\n\r\ncontract ERC20Verifier is TxDataUtils, IVerifier, IAssetVerifier {\r\n    using SafeMath for uint;\r\n\r\n    /* ========== VIEWS ========== */\r\n\r\n    /**\r\n    * @dev Parses the transaction data to make sure the transaction is valid\r\n    * @param addressResolver Address of AddressResolver contract\r\n    * @param pool Address of the pool\r\n    * @param data Transaction call data\r\n    * @return uint Type of the asset\r\n    */\r\n    function verify(address addressResolver, address pool, address, bytes calldata data) public virtual override returns (bool) {\r\n        bytes4 method = getMethod(data);\r\n\r\n        if (method == bytes4(keccak256(\"approve(address,uint256)\")))\r\n        {\r\n            address spender = convert32toAddress(getInput(data, 0));\r\n            uint amount = uint(getInput(data, 1));\r\n\r\n            address verifier = IAddressResolver(addressResolver).contractVerifiers(spender);\r\n\r\n            //Checks if the spender is an approved address\r\n            require(verifier != address(0), \"ERC20Verifier: unsupported spender approval\"); \r\n\r\n            emit Approve(pool, spender, amount, block.timestamp);\r\n\r\n            return true;\r\n        }\r\n\r\n        return false;\r\n    }\r\n\r\n    /**\r\n    * @dev Creates transaction data for withdrawing tokens\r\n    * @param pool Address of the pool\r\n    * @param asset Address of the asset\r\n    * @param portion Portion of the pool's balance in the asset\r\n    * @return (address, uint, MultiTransaction[]) Withdrawn asset, amount of asset withdrawn, and transactions used to execute the withdrawal\r\n    */\r\n    function prepareWithdrawal(address pool, address asset, uint portion, address) public view virtual override returns (address, uint, MultiTransaction[] memory transactions) {\r\n        uint totalAssetBalance = getBalance(pool, asset);\r\n        uint withdrawBalance = totalAssetBalance.mul(portion).div(10**18);\r\n        return (asset, withdrawBalance, transactions);\r\n    }\r\n\r\n    /**\r\n    * @dev Returns the pool's balance in the asset\r\n    * @param pool Address of the pool\r\n    * @param asset Address of the asset\r\n    * @return uint Pool's balance in the asset\r\n    */\r\n    function getBalance(address pool, address asset) public view virtual override returns (uint) {\r\n        return IERC20(asset).balanceOf(pool);\r\n    }\r\n\r\n    /**\r\n    * @dev Returns the decimals of the asset\r\n    * @param asset Address of the asset\r\n    * @return uint Asset's number of decimals\r\n    */\r\n    function getDecimals(address asset) public view override returns (uint) {\r\n        return IERC20(asset).decimals();\r\n    }\r\n\r\n    /* ========== EVENTS ========== */\r\n\r\n    event Approve(address pool, address spender, uint amount, uint timestamp);\r\n}",
  "sourcePath": "C:/Users/xavie/OneDrive/Desktop/TradeGen/Github/tradegen-protocol/contracts/verifiers/assetVerifiers/ERC20Verifier.sol",
  "compiler": {
    "name": "solc",
    "version": "0.7.6+commit.7338295f.Emscripten.clang"
  },
  "schemaVersion": "3.4.1",
  "updatedAt": "2021-08-19T22:06:21.757Z",
  "devdoc": {
    "kind": "dev",
    "methods": {
      "getBalance(address,address)": {
        "details": "Returns the pool's balance in the asset",
        "params": {
          "asset": "Address of the asset",
          "pool": "Address of the pool"
        },
        "returns": {
          "_0": "uint Pool's balance in the asset"
        }
      },
      "getDecimals(address)": {
        "details": "Returns the decimals of the asset",
        "params": {
          "asset": "Address of the asset"
        },
        "returns": {
          "_0": "uint Asset's number of decimals"
        }
      },
      "prepareWithdrawal(address,address,uint256,address)": {
        "details": "Creates transaction data for withdrawing tokens",
        "params": {
          "asset": "Address of the asset",
          "pool": "Address of the pool",
          "portion": "Portion of the pool's balance in the asset"
        },
        "returns": {
          "_0": "(address, uint, MultiTransaction[]) Withdrawn asset, amount of asset withdrawn, and transactions used to execute the withdrawal"
        }
      },
      "verify(address,address,address,bytes)": {
        "details": "Parses the transaction data to make sure the transaction is valid",
        "params": {
          "addressResolver": "Address of AddressResolver contract",
          "data": "Transaction call data",
          "pool": "Address of the pool"
        },
        "returns": {
          "_0": "uint Type of the asset"
        }
      }
    },
    "version": 1
  },
  "userdoc": {
    "kind": "user",
    "methods": {},
    "version": 1
  }
}