{
  "contractName": "ERC20Verifier",
  "abi": [
    {
      "anonymous": false,
      "inputs": [
        {
          "indexed": false,
          "internalType": "address",
          "name": "pool",
          "type": "address"
        },
        {
          "indexed": false,
          "internalType": "address",
          "name": "spender",
          "type": "address"
        },
        {
          "indexed": false,
          "internalType": "uint256",
          "name": "amount",
          "type": "uint256"
        },
        {
          "indexed": false,
          "internalType": "uint256",
          "name": "timestamp",
          "type": "uint256"
        }
      ],
      "name": "Approve",
      "type": "event"
    },
    {
      "anonymous": false,
      "inputs": [
        {
          "indexed": false,
          "internalType": "address",
          "name": "fundAddress",
          "type": "address"
        },
        {
          "indexed": false,
          "internalType": "address",
          "name": "sourceAsset",
          "type": "address"
        },
        {
          "indexed": false,
          "internalType": "uint256",
          "name": "sourceAmount",
          "type": "uint256"
        },
        {
          "indexed": false,
          "internalType": "address",
          "name": "destinationAsset",
          "type": "address"
        },
        {
          "indexed": false,
          "internalType": "uint256",
          "name": "timestamp",
          "type": "uint256"
        }
      ],
      "name": "ExchangeFrom",
      "type": "event"
    },
    {
      "inputs": [
        {
          "internalType": "bytes32",
          "name": "data",
          "type": "bytes32"
        }
      ],
      "name": "convert32toAddress",
      "outputs": [
        {
          "internalType": "address",
          "name": "o",
          "type": "address"
        }
      ],
      "stateMutability": "pure",
      "type": "function"
    },
    {
      "inputs": [
        {
          "internalType": "bytes",
          "name": "data",
          "type": "bytes"
        },
        {
          "internalType": "uint8",
          "name": "inputNum",
          "type": "uint8"
        },
        {
          "internalType": "uint8",
          "name": "arrayIndex",
          "type": "uint8"
        }
      ],
      "name": "getArrayIndex",
      "outputs": [
        {
          "internalType": "bytes32",
          "name": "",
          "type": "bytes32"
        }
      ],
      "stateMutability": "pure",
      "type": "function"
    },
    {
      "inputs": [
        {
          "internalType": "bytes",
          "name": "data",
          "type": "bytes"
        },
        {
          "internalType": "uint8",
          "name": "inputNum",
          "type": "uint8"
        }
      ],
      "name": "getArrayLast",
      "outputs": [
        {
          "internalType": "bytes32",
          "name": "",
          "type": "bytes32"
        }
      ],
      "stateMutability": "pure",
      "type": "function"
    },
    {
      "inputs": [
        {
          "internalType": "bytes",
          "name": "data",
          "type": "bytes"
        },
        {
          "internalType": "uint8",
          "name": "inputNum",
          "type": "uint8"
        }
      ],
      "name": "getArrayLength",
      "outputs": [
        {
          "internalType": "uint256",
          "name": "",
          "type": "uint256"
        }
      ],
      "stateMutability": "pure",
      "type": "function"
    },
    {
      "inputs": [
        {
          "internalType": "bytes",
          "name": "data",
          "type": "bytes"
        },
        {
          "internalType": "uint8",
          "name": "inputNum",
          "type": "uint8"
        },
        {
          "internalType": "uint256",
          "name": "offset",
          "type": "uint256"
        }
      ],
      "name": "getBytes",
      "outputs": [
        {
          "internalType": "bytes",
          "name": "",
          "type": "bytes"
        }
      ],
      "stateMutability": "pure",
      "type": "function"
    },
    {
      "inputs": [
        {
          "internalType": "bytes",
          "name": "data",
          "type": "bytes"
        },
        {
          "internalType": "uint8",
          "name": "inputNum",
          "type": "uint8"
        }
      ],
      "name": "getInput",
      "outputs": [
        {
          "internalType": "bytes32",
          "name": "",
          "type": "bytes32"
        }
      ],
      "stateMutability": "pure",
      "type": "function"
    },
    {
      "inputs": [
        {
          "internalType": "bytes",
          "name": "data",
          "type": "bytes"
        }
      ],
      "name": "getMethod",
      "outputs": [
        {
          "internalType": "bytes4",
          "name": "",
          "type": "bytes4"
        }
      ],
      "stateMutability": "pure",
      "type": "function"
    },
    {
      "inputs": [
        {
          "internalType": "bytes",
          "name": "data",
          "type": "bytes"
        }
      ],
      "name": "getParams",
      "outputs": [
        {
          "internalType": "bytes",
          "name": "",
          "type": "bytes"
        }
      ],
      "stateMutability": "pure",
      "type": "function"
    },
    {
      "inputs": [
        {
          "internalType": "bytes",
          "name": "data",
          "type": "bytes"
        },
        {
          "internalType": "uint256",
          "name": "offset",
          "type": "uint256"
        },
        {
          "internalType": "uint256",
          "name": "length",
          "type": "uint256"
        }
      ],
      "name": "read32",
      "outputs": [
        {
          "internalType": "bytes32",
          "name": "o",
          "type": "bytes32"
        }
      ],
      "stateMutability": "pure",
      "type": "function"
    },
    {
      "inputs": [
        {
          "internalType": "bytes",
          "name": "data",
          "type": "bytes"
        },
        {
          "internalType": "uint256",
          "name": "offset",
          "type": "uint256"
        }
      ],
      "name": "read4left",
      "outputs": [
        {
          "internalType": "bytes4",
          "name": "o",
          "type": "bytes4"
        }
      ],
      "stateMutability": "pure",
      "type": "function"
    },
    {
      "inputs": [
        {
          "internalType": "address",
          "name": "addressResolver",
          "type": "address"
        },
        {
          "internalType": "address",
          "name": "pool",
          "type": "address"
        },
        {
          "internalType": "address",
          "name": "",
          "type": "address"
        },
        {
          "internalType": "bytes",
          "name": "data",
          "type": "bytes"
        }
      ],
      "name": "verify",
      "outputs": [
        {
          "internalType": "bool",
          "name": "",
          "type": "bool"
        },
        {
          "internalType": "address",
          "name": "",
          "type": "address"
        }
      ],
      "stateMutability": "nonpayable",
      "type": "function"
    },
    {
      "inputs": [
        {
          "internalType": "address",
          "name": "pool",
          "type": "address"
        },
        {
          "internalType": "address",
          "name": "asset",
          "type": "address"
        },
        {
          "internalType": "uint256",
          "name": "portion",
          "type": "uint256"
        }
      ],
      "name": "prepareWithdrawal",
      "outputs": [
        {
          "internalType": "address",
          "name": "",
          "type": "address"
        },
        {
          "internalType": "uint256",
          "name": "",
          "type": "uint256"
        },
        {
          "components": [
            {
              "internalType": "address",
              "name": "to",
              "type": "address"
            },
            {
              "internalType": "bytes",
              "name": "txData",
              "type": "bytes"
            }
          ],
          "internalType": "struct IAssetVerifier.MultiTransaction[]",
          "name": "transactions",
          "type": "tuple[]"
        }
      ],
      "stateMutability": "view",
      "type": "function"
    },
    {
      "inputs": [
        {
          "internalType": "address",
          "name": "pool",
          "type": "address"
        },
        {
          "internalType": "address",
          "name": "asset",
          "type": "address"
        }
      ],
      "name": "getBalance",
      "outputs": [
        {
          "internalType": "uint256",
          "name": "",
          "type": "uint256"
        }
      ],
      "stateMutability": "view",
      "type": "function"
    },
    {
      "inputs": [
        {
          "internalType": "address",
          "name": "asset",
          "type": "address"
        }
      ],
      "name": "getDecimals",
      "outputs": [
        {
          "internalType": "uint256",
          "name": "",
          "type": "uint256"
        }
      ],
      "stateMutability": "view",
      "type": "function"
    }
  ],
  "bytecode": "0x608060405234801561001057600080fd5b50611ca2806100206000396000f3fe608060405234801561001057600080fd5b50600436106100ea5760003560e01c806382f86acc1161008c578063c3c6279f11610066578063c3c6279f146102d2578063cf54aaa014610302578063d4fac45d14610332578063db896b5714610362576100ea565b806382f86acc1461024057806398d0467314610270578063998546e3146102a2576100ea565b8063293d8063116100c8578063293d80631461017f57806339158fdd146101af57806341dc16c3146101e05780636890151314610210576100ea565b806309ff5c7d146100ef5780631053f9521461011f5780631eba30771461014f575b600080fd5b610109600480360381019061010491906114c9565b610392565b60405161011691906119c5565b60405180910390f35b61013960048036038101906101349190611521565b61052b565b60405161014691906119fb565b60405180910390f35b6101696004803603810190610164919061145b565b6106d4565b60405161017691906118fe565b60405180910390f35b610199600480360381019061019491906115f9565b6106e1565b6040516101a691906119e0565b60405180910390f35b6101c960048036038101906101c4919061138c565b61076c565b6040516101d792919061199c565b60405180910390f35b6101fa60048036038101906101f5919061158d565b61096c565b60405161020791906119c5565b60405180910390f35b61022a60048036038101906102259190611484565b610b84565b60405161023791906119fb565b60405180910390f35b61025a600480360381019061025591906114c9565b610bed565b60405161026791906119c5565b60405180910390f35b61028a6004803603810190610285919061140c565b610c51565b6040516102999392919061195e565b60405180910390f35b6102bc60048036038101906102b791906114c9565b610ca6565b6040516102c99190611a3d565b60405180910390f35b6102ec60048036038101906102e79190611484565b610d67565b6040516102f991906119e0565b60405180910390f35b61031c600480360381019061031791906112fe565b610dc0565b6040516103299190611a3d565b60405180910390f35b61034c60048036038101906103479190611350565b610e4a565b6040516103599190611a3d565b60405180910390f35b61037c6004803603810190610377919061164d565b610edd565b60405161038991906119c5565b60405180910390f35b6000806103ee85858080601f016020809104026020016040519081016040528093929190818152602001838380828437600081840152601f19601f820116905080830192505050505050506004856020020160ff166020610edd565b9050600061044886868080601f016020809104026020016040519081016040528093929190818152602001838380828437600081840152601f19601f8201169050808301925050505050505060048460001c016020610edd565b90506000801b81116104c2576040517f08c379a00000000000000000000000000000000000000000000000000000000081526004018080602001828103825260128152602001807f696e707574206973206e6f74206172726179000000000000000000000000000081525060200191505060405180910390fd5b61052086868080601f016020809104026020016040519081016040528093929190818152602001838380828437600081840152601f19601f8201169050808301925050505050505060208360001c0260048560001c01016020610edd565b925050509392505050565b6060601482106105a3576040517f08c379a000000000000000000000000000000000000000000000000000000000815260040180806020018281038252600e8152602001807f696e76616c6964206f666673657400000000000000000000000000000000000081525060200191505060405180910390fd5b602082029150600061060686868080601f016020809104026020016040519081016040528093929190818152602001838380828437600081840152601f19601f82011690508083019250505050505050846004876020020160ff16016020610edd565b60001c9050600061066287878080601f016020809104026020016040519081016040528093929190818152602001838380828437600081840152601f19601f820116905080830192505050505050508560048501016020610edd565b60001c90506106c86020856004850101018289898080601f016020809104026020016040519081016040528093929190818152602001838380828437600081840152601f19601f82011690508083019250505050505050610f7f9092919063ffffffff16565b92505050949350505050565b60008160001c9050919050565b6000600482018351101561075d576040517f08c379a000000000000000000000000000000000000000000000000000000000815260040180806020018281038252601b8152602001807f52656164696e67206279746573206f7574206f6620626f756e6473000000000081525060200191505060405180910390fd5b81602001830151905092915050565b600080600061077b8585610d67565b90507f095ea7b334ae44009aa867bfb386f5c3b4b443ac6f0ee573fa91c4608fbadfba7bffffffffffffffffffffffffffffffffffffffffffffffffffffffff1916817bffffffffffffffffffffffffffffffffffffffffffffffffffffffff191614156109595760006107f96107f487876000610bed565b6106d4565b9050600061080987876001610bed565b60001c905060008a73ffffffffffffffffffffffffffffffffffffffff16632febaebd846040518263ffffffff1660e01b815260040161084991906118fe565b60206040518083038186803b15801561086157600080fd5b505afa158015610875573d6000803e3d6000fd5b505050506040513d601f19601f820116820180604052508101906108999190611327565b9050600073ffffffffffffffffffffffffffffffffffffffff168173ffffffffffffffffffffffffffffffffffffffff16141561090b576040517f08c379a000000000000000000000000000000000000000000000000000000000815260040161090290611a1d565b60405180910390fd5b7f8c287cb9c6b85cc52f4e58fb0c3f906c19db890e7288d3bfcfb6a9a66a5d33448a8484426040516109409493929190611919565b60405180910390a1600160009550955050505050610962565b60008092509250505b9550959350505050565b6000806109c886868080601f016020809104026020016040519081016040528093929190818152602001838380828437600081840152601f19601f820116905080830192505050505050506004866020020160ff166020610edd565b90506000610a2287878080601f016020809104026020016040519081016040528093929190818152602001838380828437600081840152601f19601f8201169050808301925050505050505060048460001c016020610edd565b90506000801b8111610a9c576040517f08c379a00000000000000000000000000000000000000000000000000000000081526004018080602001828103825260128152602001807f696e707574206973206e6f74206172726179000000000000000000000000000081525060200191505060405180910390fd5b8360ff168160001c11610b17576040517f08c379a00000000000000000000000000000000000000000000000000000000081526004018080602001828103825260168152602001807f696e76616c696420617272617920706f736974696f6e0000000000000000000081525060200191505060405180910390fd5b610b7887878080601f016020809104026020016040519081016040528093929190818152602001838380828437600081840152601f19601f8201169050808301925050505050505060208660ff166001010260048560001c01016020610edd565b92505050949350505050565b6060610be5600480858590500385858080601f016020809104026020016040519081016040528093929190818152602001838380828437600081840152601f19601f82011690508083019250505050505050610f7f9092919063ffffffff16565b905092915050565b6000610c4884848080601f016020809104026020016040519081016040528093929190818152602001838380828437600081840152601f19601f820116905080830192505050505050506004846020020160ff166020610edd565b90509392505050565b60008060606000610c628787610e4a565b90506000610c93670de0b6b3a7640000610c85888561116990919063ffffffff16565b6111a090919063ffffffff16565b9050868194509450505093509350939050565b600080610d0285858080601f016020809104026020016040519081016040528093929190818152602001838380828437600081840152601f19601f820116905080830192505050505050506004856020020160ff166020610edd565b9050610d5a85858080601f016020809104026020016040519081016040528093929190818152602001838380828437600081840152601f19601f8201169050808301925050505050505060048360001c016020610edd565b60001c9150509392505050565b6000610db883838080601f016020809104026020016040519081016040528093929190818152602001838380828437600081840152601f19601f8201169050808301925050505050505060006106e1565b905092915050565b60008173ffffffffffffffffffffffffffffffffffffffff1663313ce5676040518163ffffffff1660e01b815260040160206040518083038186803b158015610e0857600080fd5b505afa158015610e1c573d6000803e3d6000fd5b505050506040513d601f19601f82011682018060405250810190610e4091906116dd565b60ff169050919050565b60008173ffffffffffffffffffffffffffffffffffffffff166370a08231846040518263ffffffff1660e01b8152600401610e8591906118fe565b60206040518083038186803b158015610e9d57600080fd5b505afa158015610eb1573d6000803e3d6000fd5b505050506040513d601f19601f82011682018060405250810190610ed591906116b4565b905092915050565b600081830184511015610f58576040517f08c379a000000000000000000000000000000000000000000000000000000000815260040180806020018281038252601b8152602001807f52656164696e67206279746573206f7574206f6620626f756e6473000000000081525060200191505060405180910390fd5b826020018401519050816020038015610f77576008810260020a820491505b509392505050565b606081601f83011015610ffa576040517f08c379a000000000000000000000000000000000000000000000000000000000815260040180806020018281038252600e8152602001807f736c6963655f6f766572666c6f7700000000000000000000000000000000000081525060200191505060405180910390fd5b828284011015611072576040517f08c379a000000000000000000000000000000000000000000000000000000000815260040180806020018281038252600e8152602001807f736c6963655f6f766572666c6f7700000000000000000000000000000000000081525060200191505060405180910390fd5b818301845110156110eb576040517f08c379a00000000000000000000000000000000000000000000000000000000081526004018080602001828103825260118152602001807f736c6963655f6f75744f66426f756e647300000000000000000000000000000081525060200191505060405180910390fd5b606082156000811461110c576040519150600082526020820160405261115d565b6040519150601f8416801560200281840101858101878315602002848b0101015b8183101561114a578051835260208301925060208101905061112d565b50868552601f19601f8301166040525050505b50809150509392505050565b60008083141561117c576000905061119a565b600082840290508284828161118d57fe5b041461119557fe5b809150505b92915050565b6000808284816111ac57fe5b0490508091505092915050565b60006111cc6111c784611a89565b611a58565b9050828152602081018484840111156111e457600080fd5b6111ef848285611bbb565b509392505050565b60008135905061120681611c10565b92915050565b60008151905061121b81611c10565b92915050565b60008135905061123081611c27565b92915050565b60008083601f84011261124857600080fd5b8235905067ffffffffffffffff81111561126157600080fd5b60208301915083600182028301111561127957600080fd5b9250929050565b600082601f83011261129157600080fd5b81356112a18482602086016111b9565b91505092915050565b6000813590506112b981611c3e565b92915050565b6000815190506112ce81611c3e565b92915050565b6000813590506112e381611c55565b92915050565b6000815190506112f881611c55565b92915050565b60006020828403121561131057600080fd5b600061131e848285016111f7565b91505092915050565b60006020828403121561133957600080fd5b60006113478482850161120c565b91505092915050565b6000806040838503121561136357600080fd5b6000611371858286016111f7565b9250506020611382858286016111f7565b9150509250929050565b6000806000806000608086880312156113a457600080fd5b60006113b2888289016111f7565b95505060206113c3888289016111f7565b94505060406113d4888289016111f7565b935050606086013567ffffffffffffffff8111156113f157600080fd5b6113fd88828901611236565b92509250509295509295909350565b60008060006060848603121561142157600080fd5b600061142f868287016111f7565b9350506020611440868287016111f7565b9250506040611451868287016112aa565b9150509250925092565b60006020828403121561146d57600080fd5b600061147b84828501611221565b91505092915050565b6000806020838503121561149757600080fd5b600083013567ffffffffffffffff8111156114b157600080fd5b6114bd85828601611236565b92509250509250929050565b6000806000604084860312156114de57600080fd5b600084013567ffffffffffffffff8111156114f857600080fd5b61150486828701611236565b93509350506020611517868287016112d4565b9150509250925092565b6000806000806060858703121561153757600080fd5b600085013567ffffffffffffffff81111561155157600080fd5b61155d87828801611236565b94509450506020611570878288016112d4565b9250506040611581878288016112aa565b91505092959194509250565b600080600080606085870312156115a357600080fd5b600085013567ffffffffffffffff8111156115bd57600080fd5b6115c987828801611236565b945094505060206115dc878288016112d4565b92505060406115ed878288016112d4565b91505092959194509250565b6000806040838503121561160c57600080fd5b600083013567ffffffffffffffff81111561162657600080fd5b61163285828601611280565b9250506020611643858286016112aa565b9150509250929050565b60008060006060848603121561166257600080fd5b600084013567ffffffffffffffff81111561167c57600080fd5b61168886828701611280565b9350506020611699868287016112aa565b92505060406116aa868287016112aa565b9150509250925092565b6000602082840312156116c657600080fd5b60006116d4848285016112bf565b91505092915050565b6000602082840312156116ef57600080fd5b60006116fd848285016112e9565b91505092915050565b600061171283836118b2565b905092915050565b61172381611b30565b82525050565b61173281611b30565b82525050565b600061174382611ac9565b61174d8185611aec565b93508360208202850161175f85611ab9565b8060005b8581101561179b578484038952815161177c8582611706565b945061178783611adf565b925060208a01995050600181019050611763565b50829750879550505050505092915050565b6117b681611b42565b82525050565b6117c581611b4e565b82525050565b6117d481611b58565b82525050565b60006117e582611ad4565b6117ef8185611afd565b93506117ff818560208601611bca565b61180881611bff565b840191505092915050565b600061181e82611ad4565b6118288185611b0e565b9350611838818560208601611bca565b61184181611bff565b840191505092915050565b6000611859602b83611b1f565b91507f455243323056657269666965723a20756e737570706f72746564207370656e6460008301527f657220617070726f76616c0000000000000000000000000000000000000000006020830152604082019050919050565b60006040830160008301516118ca600086018261171a565b50602083015184820360208601526118e282826117da565b9150508091505092915050565b6118f881611ba4565b82525050565b60006020820190506119136000830184611729565b92915050565b600060808201905061192e6000830187611729565b61193b6020830186611729565b61194860408301856118ef565b61195560608301846118ef565b95945050505050565b60006060820190506119736000830186611729565b61198060208301856118ef565b81810360408301526119928184611738565b9050949350505050565b60006040820190506119b160008301856117ad565b6119be6020830184611729565b9392505050565b60006020820190506119da60008301846117bc565b92915050565b60006020820190506119f560008301846117cb565b92915050565b60006020820190508181036000830152611a158184611813565b905092915050565b60006020820190508181036000830152611a368161184c565b9050919050565b6000602082019050611a5260008301846118ef565b92915050565b6000604051905081810181811067ffffffffffffffff82111715611a7f57611a7e611bfd565b5b8060405250919050565b600067ffffffffffffffff821115611aa457611aa3611bfd565b5b601f19601f8301169050602081019050919050565b6000819050602082019050919050565b600081519050919050565b600081519050919050565b6000602082019050919050565b600082825260208201905092915050565b600082825260208201905092915050565b600082825260208201905092915050565b600082825260208201905092915050565b6000611b3b82611b84565b9050919050565b60008115159050919050565b6000819050919050565b60007fffffffff0000000000000000000000000000000000000000000000000000000082169050919050565b600073ffffffffffffffffffffffffffffffffffffffff82169050919050565b6000819050919050565b600060ff82169050919050565b82818337600083830152505050565b60005b83811015611be8578082015181840152602081019050611bcd565b83811115611bf7576000848401525b50505050565bfe5b6000601f19601f8301169050919050565b611c1981611b30565b8114611c2457600080fd5b50565b611c3081611b4e565b8114611c3b57600080fd5b50565b611c4781611ba4565b8114611c5257600080fd5b50565b611c5e81611bae565b8114611c6957600080fd5b5056fea26469706673582212201e0e0c01abad15d495359aabcccd4c41e9e7d4a9fd15056dddb94e0f89efb2c864736f6c63430007060033",
  "immutableReferences": {},
  "source": "// SPDX-License-Identifier: MIT\r\n\r\npragma solidity >=0.7.6;\r\npragma experimental ABIEncoderV2;\r\n\r\n//Libraries\r\nimport \"../../libraries/TxDataUtils.sol\";\r\nimport \"../../libraries/SafeMath.sol\";\r\n\r\n//Inheritance\r\nimport \"../../interfaces/IAssetVerifier.sol\";\r\nimport \"../../interfaces/IVerifier.sol\";\r\n\r\n//Internal references\r\nimport \"../../interfaces/IAddressResolver.sol\";\r\nimport \"../../interfaces/IAssetHandler.sol\";\r\nimport \"../../interfaces/IERC20.sol\";\r\n\r\ncontract ERC20Verifier is TxDataUtils, IVerifier, IAssetVerifier {\r\n    using SafeMath for uint;\r\n\r\n    /* ========== VIEWS ========== */\r\n\r\n    /**\r\n    * @dev Parses the transaction data to make sure the transaction is valid\r\n    * @param addressResolver Address of AddressResolver contract\r\n    * @param pool Address of the pool\r\n    * @param data Transaction call data\r\n    * @return (uint, address) Whether the transaction is valid and the received asset\r\n    */\r\n    function verify(address addressResolver, address pool, address, bytes calldata data) public virtual override returns (bool, address) {\r\n        bytes4 method = getMethod(data);\r\n\r\n        if (method == bytes4(keccak256(\"approve(address,uint256)\")))\r\n        {\r\n            address spender = convert32toAddress(getInput(data, 0));\r\n            uint amount = uint(getInput(data, 1));\r\n\r\n            //Only check for contract verifier, since an asset probably won't call transferFrom() on another asset\r\n            address verifier = IAddressResolver(addressResolver).contractVerifiers(spender);\r\n\r\n            //Checks if the spender is an approved address\r\n            require(verifier != address(0), \"ERC20Verifier: unsupported spender approval\"); \r\n\r\n            emit Approve(pool, spender, amount, block.timestamp);\r\n\r\n            return (true, address(0));\r\n        }\r\n\r\n        return (false, address(0));\r\n    }\r\n\r\n    /**\r\n    * @dev Creates transaction data for withdrawing tokens\r\n    * @param pool Address of the pool\r\n    * @param asset Address of the asset\r\n    * @param portion Portion of the pool's balance in the asset\r\n    * @return (address, uint, MultiTransaction[]) Withdrawn asset, amount of asset withdrawn, and transactions used to execute the withdrawal\r\n    */\r\n    function prepareWithdrawal(address pool, address asset, uint portion) public view virtual override returns (address, uint, MultiTransaction[] memory transactions) {\r\n        uint totalAssetBalance = getBalance(pool, asset);\r\n        uint withdrawBalance = totalAssetBalance.mul(portion).div(10**18);\r\n        return (asset, withdrawBalance, transactions);\r\n    }\r\n\r\n    /**\r\n    * @dev Returns the pool's balance in the asset\r\n    * @param pool Address of the pool\r\n    * @param asset Address of the asset\r\n    * @return uint Pool's balance in the asset\r\n    */\r\n    function getBalance(address pool, address asset) public view virtual override returns (uint) {\r\n        return IERC20(asset).balanceOf(pool);\r\n    }\r\n\r\n    /**\r\n    * @dev Returns the decimals of the asset\r\n    * @param asset Address of the asset\r\n    * @return uint Asset's number of decimals\r\n    */\r\n    function getDecimals(address asset) public view override returns (uint) {\r\n        return IERC20(asset).decimals();\r\n    }\r\n\r\n    /* ========== EVENTS ========== */\r\n\r\n    event Approve(address pool, address spender, uint amount, uint timestamp);\r\n}",
  "sourcePath": "C:\\Users\\xavie\\OneDrive\\Desktop\\TradeGen\\Github\\tradegen-protocol\\contracts\\verifiers\\assetVerifiers\\ERC20Verifier.sol",
  "compiler": {
    "name": "solc",
    "version": "0.7.6+commit.7338295f.Emscripten.clang"
  },
  "schemaVersion": "3.4.1",
  "updatedAt": "2021-09-26T18:16:47.728Z",
  "devdoc": {
    "kind": "dev",
    "methods": {
      "getBalance(address,address)": {
        "details": "Returns the pool's balance in the asset",
        "params": {
          "asset": "Address of the asset",
          "pool": "Address of the pool"
        },
        "returns": {
          "_0": "uint Pool's balance in the asset"
        }
      },
      "getDecimals(address)": {
        "details": "Returns the decimals of the asset",
        "params": {
          "asset": "Address of the asset"
        },
        "returns": {
          "_0": "uint Asset's number of decimals"
        }
      },
      "prepareWithdrawal(address,address,uint256)": {
        "details": "Creates transaction data for withdrawing tokens",
        "params": {
          "asset": "Address of the asset",
          "pool": "Address of the pool",
          "portion": "Portion of the pool's balance in the asset"
        },
        "returns": {
          "_0": "(address, uint, MultiTransaction[]) Withdrawn asset, amount of asset withdrawn, and transactions used to execute the withdrawal"
        }
      },
      "verify(address,address,address,bytes)": {
        "details": "Parses the transaction data to make sure the transaction is valid",
        "params": {
          "addressResolver": "Address of AddressResolver contract",
          "data": "Transaction call data",
          "pool": "Address of the pool"
        },
        "returns": {
          "_0": "(uint, address) Whether the transaction is valid and the received asset"
        }
      }
    },
    "version": 1
  },
  "userdoc": {
    "kind": "user",
    "methods": {},
    "version": 1
  }
}