{
  "contractName": "LatestPrice",
  "abi": [
    {
      "inputs": [
        {
          "internalType": "uint256",
          "name": "price",
          "type": "uint256"
        }
      ],
      "stateMutability": "nonpayable",
      "type": "constructor"
    },
    {
      "anonymous": false,
      "inputs": [
        {
          "indexed": true,
          "internalType": "address",
          "name": "indicatorAddress",
          "type": "address"
        },
        {
          "indexed": false,
          "internalType": "uint256",
          "name": "newPrice",
          "type": "uint256"
        },
        {
          "indexed": false,
          "internalType": "uint256",
          "name": "timestamp",
          "type": "uint256"
        }
      ],
      "name": "UpdatedPrice",
      "type": "event"
    },
    {
      "inputs": [],
      "name": "_developer",
      "outputs": [
        {
          "internalType": "address",
          "name": "",
          "type": "address"
        }
      ],
      "stateMutability": "view",
      "type": "function"
    },
    {
      "inputs": [],
      "name": "_price",
      "outputs": [
        {
          "internalType": "uint256",
          "name": "",
          "type": "uint256"
        }
      ],
      "stateMutability": "view",
      "type": "function"
    },
    {
      "inputs": [],
      "name": "getName",
      "outputs": [
        {
          "internalType": "string",
          "name": "",
          "type": "string"
        }
      ],
      "stateMutability": "pure",
      "type": "function"
    },
    {
      "inputs": [],
      "name": "getPriceAndDeveloper",
      "outputs": [
        {
          "internalType": "uint256",
          "name": "",
          "type": "uint256"
        },
        {
          "internalType": "address",
          "name": "",
          "type": "address"
        }
      ],
      "stateMutability": "view",
      "type": "function"
    },
    {
      "inputs": [
        {
          "internalType": "uint256",
          "name": "newPrice",
          "type": "uint256"
        }
      ],
      "name": "editPrice",
      "outputs": [],
      "stateMutability": "nonpayable",
      "type": "function"
    },
    {
      "inputs": [
        {
          "internalType": "uint256",
          "name": "param",
          "type": "uint256"
        }
      ],
      "name": "addTradingBot",
      "outputs": [],
      "stateMutability": "nonpayable",
      "type": "function"
    },
    {
      "inputs": [
        {
          "internalType": "uint256",
          "name": "latestPrice",
          "type": "uint256"
        }
      ],
      "name": "update",
      "outputs": [],
      "stateMutability": "nonpayable",
      "type": "function"
    },
    {
      "inputs": [
        {
          "internalType": "address",
          "name": "tradingBotAddress",
          "type": "address"
        }
      ],
      "name": "getValue",
      "outputs": [
        {
          "internalType": "uint256[]",
          "name": "",
          "type": "uint256[]"
        }
      ],
      "stateMutability": "view",
      "type": "function"
    },
    {
      "inputs": [
        {
          "internalType": "address",
          "name": "tradingBotAddress",
          "type": "address"
        }
      ],
      "name": "getHistory",
      "outputs": [
        {
          "internalType": "uint256[]",
          "name": "",
          "type": "uint256[]"
        }
      ],
      "stateMutability": "view",
      "type": "function"
    }
  ],
  "bytecode": "0x608060405234801561001057600080fd5b50604051610af4380380610af48339818101604052602081101561003357600080fd5b810190808051906020019092919050505060008110156100bb576040517f08c379a000000000000000000000000000000000000000000000000000000000815260040180806020018281038252601c8152602001807f5072696365206d7573742062652067726561746572207468616e20300000000081525060200191505060405180910390fd5b8060008190555033600160006101000a81548173ffffffffffffffffffffffffffffffffffffffff021916908373ffffffffffffffffffffffffffffffffffffffff160217905550506109e1806101136000396000f3fe608060405234801561001057600080fd5b50600436106100935760003560e01c80637d6760bf116100665780637d6760bf14610206578063803968111461024157806382ab890a146102da578063a22a8b2914610308578063a5a6d6f71461033657610093565b806317d7de7c14610098578063235b6ea11461011b5780633ccc0522146101395780637a9d0758146101d2575b600080fd5b6100a0610364565b6040518080602001828103825283818151815260200191508051906020019080838360005b838110156100e05780820151818401526020810190506100c5565b50505050905090810190601f16801561010d5780820380516001836020036101000a031916815260200191505b509250505060405180910390f35b6101236103a1565b6040518082815260200191505060405180910390f35b61017b6004803603602081101561014f57600080fd5b81019080803573ffffffffffffffffffffffffffffffffffffffff1690602001909291905050506103a7565b6040518080602001828103825283818151815260200191508051906020019060200280838360005b838110156101be5780820151818401526020810190506101a3565b505050509050019250505060405180910390f35b6101da610554565b604051808273ffffffffffffffffffffffffffffffffffffffff16815260200191505060405180910390f35b61020e61057a565b604051808381526020018273ffffffffffffffffffffffffffffffffffffffff1681526020019250505060405180910390f35b6102836004803603602081101561025757600080fd5b81019080803573ffffffffffffffffffffffffffffffffffffffff1690602001909291905050506105ab565b6040518080602001828103825283818151815260200191508051906020019060200280838360005b838110156102c65780820151818401526020810190506102ab565b505050509050019250505060405180910390f35b610306600480360360208110156102f057600080fd5b81019080803590602001909291905050506106e5565b005b6103346004803603602081101561031e57600080fd5b810190808035906020019092919050505061074e565b005b6103626004803603602081101561034c57600080fd5b81019080803590602001909291905050506108cb565b005b60606040518060400160405280600b81526020017f4c61746573745072696365000000000000000000000000000000000000000000815250905090565b60005481565b6060600073ffffffffffffffffffffffffffffffffffffffff168273ffffffffffffffffffffffffffffffffffffffff16141561044c576040517f08c379a000000000000000000000000000000000000000000000000000000000815260040180806020018281038252601b8152602001807f496e76616c69642074726164696e6720626f742061646472657373000000000081525060200191505060405180910390fd5b6060600167ffffffffffffffff8111801561046657600080fd5b506040519080825280602002602001820160405280156104955781602001602082028036833780820191505090505b509050600260008473ffffffffffffffffffffffffffffffffffffffff1673ffffffffffffffffffffffffffffffffffffffff1681526020019081526020016000206001600260008673ffffffffffffffffffffffffffffffffffffffff1673ffffffffffffffffffffffffffffffffffffffff16815260200190815260200160002080549050038154811061052757fe5b90600052602060002001548160008151811061053f57fe5b60200260200101818152505080915050919050565b600160009054906101000a900473ffffffffffffffffffffffffffffffffffffffff1681565b600080600054600160009054906101000a900473ffffffffffffffffffffffffffffffffffffffff16915091509091565b6060600073ffffffffffffffffffffffffffffffffffffffff168273ffffffffffffffffffffffffffffffffffffffff161415610650576040517f08c379a000000000000000000000000000000000000000000000000000000000815260040180806020018281038252601b8152602001807f496e76616c69642074726164696e6720626f742061646472657373000000000081525060200191505060405180910390fd5b600260008373ffffffffffffffffffffffffffffffffffffffff1673ffffffffffffffffffffffffffffffffffffffff1681526020019081526020016000208054806020026020016040519081016040528092919081815260200182805480156106d957602002820191906000526020600020905b8154815260200190600101908083116106c5575b50505050509050919050565b600260003373ffffffffffffffffffffffffffffffffffffffff1673ffffffffffffffffffffffffffffffffffffffff16815260200190815260200160002081908060018154018082558091505060019003906000526020600020016000909190919091505550565b600160009054906101000a900473ffffffffffffffffffffffffffffffffffffffff1673ffffffffffffffffffffffffffffffffffffffff163373ffffffffffffffffffffffffffffffffffffffff16146107f4576040517f08c379a00000000000000000000000000000000000000000000000000000000081526004018080602001828103825260258152602001806109876025913960400191505060405180910390fd5b600081101561086b576040517f08c379a000000000000000000000000000000000000000000000000000000000815260040180806020018281038252601f8152602001807f5072696365206d757374206265206120706f736974697665206e756d6265720081525060200191505060405180910390fd5b806000819055503073ffffffffffffffffffffffffffffffffffffffff167ff55d9f2dbb0ce58a822e950a56c6b24b103fae2b7633f87087fc24beba1754548242604051808381526020018281526020019250505060405180910390a250565b6000600260003373ffffffffffffffffffffffffffffffffffffffff1673ffffffffffffffffffffffffffffffffffffffff1681526020019081526020016000208054905014610983576040517f08c379a000000000000000000000000000000000000000000000000000000000815260040180806020018281038252601a8152602001807f54726164696e6720626f7420616c72656164792065786973747300000000000081525060200191505060405180910390fd5b5056fe4f6e6c792074686520646576656c6f7065722063616e206564697420746865207072696365a2646970667358221220a62705169710fc79e594177818e4a9200763ce785d12b4ffef50333f568ca87164736f6c634300060c0033",
  "immutableReferences": {},
  "source": "pragma solidity >=0.5.0;\r\n\r\nimport './interfaces/IIndicator.sol';\r\n\r\ncontract LatestPrice is IIndicator {\r\n\r\n    uint public _price;\r\n    address public _developer;\r\n\r\n    mapping (address => uint[]) private _tradingBotStates;\r\n\r\n    constructor(uint price) public {\r\n        require(price >= 0, \"Price must be greater than 0\");\r\n\r\n        _price = price;\r\n        _developer = msg.sender;\r\n    }\r\n\r\n    /**\r\n    * @dev Returns the name of the indicator\r\n    * @return string Name of the indicator\r\n    */\r\n    function getName() public pure override returns (string memory) {\r\n        return \"LatestPrice\";\r\n    }\r\n\r\n    /**\r\n    * @dev Returns the sale price and the developer of the indicator\r\n    * @return (uint, address) Sale price of the indicator and the indicator's developer\r\n    */\r\n    function getPriceAndDeveloper() public view override returns (uint, address) {\r\n        return (_price, _developer);\r\n    }\r\n\r\n    /**\r\n    * @dev Updates the sale price of the indicator; meant to be called by the indicator's developer\r\n    * @param newPrice The new sale price of the indicator\r\n    */\r\n    function editPrice(uint newPrice) external override {\r\n        require(msg.sender == _developer, \"Only the developer can edit the price\");\r\n        require(newPrice >= 0, \"Price must be a positive number\");\r\n\r\n        _price = newPrice;\r\n\r\n        emit UpdatedPrice(address(this), newPrice, block.timestamp);\r\n    }\r\n\r\n    /**\r\n    * @dev Initializes the state of the trading bot; meant to be called by a trading bot\r\n    * @param param Value of the indicator's parameter\r\n    */\r\n    function addTradingBot(uint param) public override {\r\n        require(_tradingBotStates[msg.sender].length == 0, \"Trading bot already exists\");\r\n    }\r\n\r\n    /**\r\n    * @dev Updates the indicator's state based on the latest price feed update\r\n    * @param latestPrice The latest price from oracle price feed\r\n    */\r\n    function update(uint latestPrice) public override {\r\n        _tradingBotStates[msg.sender].push(latestPrice);\r\n    }   \r\n\r\n    /**\r\n    * @dev Given a trading bot address, returns the indicator value for that bot\r\n    * @param tradingBotAddress Address of trading bot\r\n    * @return uint[] Indicator value for the given trading bot\r\n    */\r\n    function getValue(address tradingBotAddress) public view override returns (uint[] memory) {\r\n        require(tradingBotAddress != address(0), \"Invalid trading bot address\");\r\n\r\n        uint[] memory temp = new uint[](1);\r\n        temp[0] = _tradingBotStates[tradingBotAddress][_tradingBotStates[tradingBotAddress].length - 1];\r\n\r\n        return temp;\r\n    }\r\n\r\n    /**\r\n    * @dev Given a trading bot address, returns the indicator value history for that bot\r\n    * @param tradingBotAddress Address of trading bot\r\n    * @return uint[] Indicator value history for the given trading bot\r\n    */\r\n    function getHistory(address tradingBotAddress) public view override returns (uint[] memory) {\r\n        require(tradingBotAddress != address(0), \"Invalid trading bot address\");\r\n\r\n        return _tradingBotStates[tradingBotAddress];\r\n    }\r\n}",
  "sourcePath": "C:/Users/xavie/OneDrive/Desktop/TradeGen/Github/tradegen/contracts/LatestPrice.sol",
  "compiler": {
    "name": "solc",
    "version": "0.6.12+commit.27d51765.Emscripten.clang"
  },
  "schemaVersion": "3.4.1",
  "updatedAt": "2021-06-29T22:10:14.973Z",
  "devdoc": {
    "kind": "dev",
    "methods": {
      "addTradingBot(uint256)": {
        "details": "Initializes the state of the trading bot; meant to be called by a trading bot",
        "params": {
          "param": "Value of the indicator's parameter"
        }
      },
      "editPrice(uint256)": {
        "details": "Updates the sale price of the indicator; meant to be called by the indicator's developer",
        "params": {
          "newPrice": "The new sale price of the indicator"
        }
      },
      "getHistory(address)": {
        "details": "Given a trading bot address, returns the indicator value history for that bot",
        "params": {
          "tradingBotAddress": "Address of trading bot"
        },
        "returns": {
          "_0": "uint[] Indicator value history for the given trading bot"
        }
      },
      "getName()": {
        "details": "Returns the name of the indicator",
        "returns": {
          "_0": "string Name of the indicator"
        }
      },
      "getPriceAndDeveloper()": {
        "details": "Returns the sale price and the developer of the indicator",
        "returns": {
          "_0": "(uint, address) Sale price of the indicator and the indicator's developer"
        }
      },
      "getValue(address)": {
        "details": "Given a trading bot address, returns the indicator value for that bot",
        "params": {
          "tradingBotAddress": "Address of trading bot"
        },
        "returns": {
          "_0": "uint[] Indicator value for the given trading bot"
        }
      },
      "update(uint256)": {
        "details": "Updates the indicator's state based on the latest price feed update",
        "params": {
          "latestPrice": "The latest price from oracle price feed"
        }
      }
    },
    "version": 1
  },
  "userdoc": {
    "kind": "user",
    "methods": {},
    "version": 1
  }
}