{
  "contractName": "Marketplace",
  "abi": [
    {
      "inputs": [
        {
          "internalType": "contract IAddressResolver",
          "name": "addressResolver",
          "type": "address"
        }
      ],
      "stateMutability": "nonpayable",
      "type": "constructor"
    },
    {
      "anonymous": false,
      "inputs": [
        {
          "indexed": false,
          "internalType": "address",
          "name": "asset",
          "type": "address"
        },
        {
          "indexed": false,
          "internalType": "uint256",
          "name": "timestamp",
          "type": "uint256"
        }
      ],
      "name": "AddedAsset",
      "type": "event"
    },
    {
      "anonymous": false,
      "inputs": [
        {
          "indexed": false,
          "internalType": "address",
          "name": "contractAddress",
          "type": "address"
        },
        {
          "indexed": false,
          "internalType": "uint256",
          "name": "timestamp",
          "type": "uint256"
        }
      ],
      "name": "AddedWhitelistedContract",
      "type": "event"
    },
    {
      "anonymous": false,
      "inputs": [
        {
          "indexed": true,
          "internalType": "address",
          "name": "seller",
          "type": "address"
        },
        {
          "indexed": true,
          "internalType": "address",
          "name": "asset",
          "type": "address"
        },
        {
          "indexed": false,
          "internalType": "uint256",
          "name": "tokenClass",
          "type": "uint256"
        },
        {
          "indexed": false,
          "internalType": "uint256",
          "name": "numberOfTokens",
          "type": "uint256"
        },
        {
          "indexed": false,
          "internalType": "uint256",
          "name": "price",
          "type": "uint256"
        },
        {
          "indexed": false,
          "internalType": "uint256",
          "name": "timestamp",
          "type": "uint256"
        }
      ],
      "name": "CreatedListing",
      "type": "event"
    },
    {
      "anonymous": false,
      "inputs": [
        {
          "indexed": true,
          "internalType": "address",
          "name": "previousOwner",
          "type": "address"
        },
        {
          "indexed": true,
          "internalType": "address",
          "name": "newOwner",
          "type": "address"
        }
      ],
      "name": "OwnershipTransferred",
      "type": "event"
    },
    {
      "anonymous": false,
      "inputs": [
        {
          "indexed": true,
          "internalType": "address",
          "name": "buyer",
          "type": "address"
        },
        {
          "indexed": true,
          "internalType": "address",
          "name": "asset",
          "type": "address"
        },
        {
          "indexed": false,
          "internalType": "uint256",
          "name": "marketplaceListing",
          "type": "uint256"
        },
        {
          "indexed": false,
          "internalType": "uint256",
          "name": "numberOfTokens",
          "type": "uint256"
        },
        {
          "indexed": false,
          "internalType": "uint256",
          "name": "timestamp",
          "type": "uint256"
        }
      ],
      "name": "Purchased",
      "type": "event"
    },
    {
      "anonymous": false,
      "inputs": [
        {
          "indexed": true,
          "internalType": "address",
          "name": "seller",
          "type": "address"
        },
        {
          "indexed": true,
          "internalType": "address",
          "name": "asset",
          "type": "address"
        },
        {
          "indexed": false,
          "internalType": "uint256",
          "name": "timestamp",
          "type": "uint256"
        }
      ],
      "name": "RemovedListing",
      "type": "event"
    },
    {
      "anonymous": false,
      "inputs": [
        {
          "indexed": true,
          "internalType": "address",
          "name": "seller",
          "type": "address"
        },
        {
          "indexed": true,
          "internalType": "address",
          "name": "asset",
          "type": "address"
        },
        {
          "indexed": false,
          "internalType": "uint256",
          "name": "marketplaceListing",
          "type": "uint256"
        },
        {
          "indexed": false,
          "internalType": "uint256",
          "name": "newPrice",
          "type": "uint256"
        },
        {
          "indexed": false,
          "internalType": "uint256",
          "name": "timestamp",
          "type": "uint256"
        }
      ],
      "name": "UpdatedPrice",
      "type": "event"
    },
    {
      "anonymous": false,
      "inputs": [
        {
          "indexed": true,
          "internalType": "address",
          "name": "seller",
          "type": "address"
        },
        {
          "indexed": true,
          "internalType": "address",
          "name": "asset",
          "type": "address"
        },
        {
          "indexed": false,
          "internalType": "uint256",
          "name": "marketplaceListing",
          "type": "uint256"
        },
        {
          "indexed": false,
          "internalType": "uint256",
          "name": "newQuantity",
          "type": "uint256"
        },
        {
          "indexed": false,
          "internalType": "uint256",
          "name": "timestamp",
          "type": "uint256"
        }
      ],
      "name": "UpdatedQuantity",
      "type": "event"
    },
    {
      "inputs": [],
      "name": "ADDRESS_RESOLVER",
      "outputs": [
        {
          "internalType": "contract IAddressResolver",
          "name": "",
          "type": "address"
        }
      ],
      "stateMutability": "view",
      "type": "function"
    },
    {
      "inputs": [
        {
          "internalType": "address",
          "name": "",
          "type": "address"
        }
      ],
      "name": "assetManagers",
      "outputs": [
        {
          "internalType": "address",
          "name": "",
          "type": "address"
        }
      ],
      "stateMutability": "view",
      "type": "function"
    },
    {
      "inputs": [],
      "name": "isOwner",
      "outputs": [
        {
          "internalType": "bool",
          "name": "",
          "type": "bool"
        }
      ],
      "stateMutability": "view",
      "type": "function"
    },
    {
      "inputs": [
        {
          "internalType": "uint256",
          "name": "",
          "type": "uint256"
        }
      ],
      "name": "marketplaceListings",
      "outputs": [
        {
          "internalType": "address",
          "name": "asset",
          "type": "address"
        },
        {
          "internalType": "address",
          "name": "seller",
          "type": "address"
        },
        {
          "internalType": "uint256",
          "name": "tokenClass",
          "type": "uint256"
        },
        {
          "internalType": "uint256",
          "name": "numberOfTokens",
          "type": "uint256"
        },
        {
          "internalType": "uint256",
          "name": "price",
          "type": "uint256"
        }
      ],
      "stateMutability": "view",
      "type": "function"
    },
    {
      "inputs": [],
      "name": "numberOfMarketplaceListings",
      "outputs": [
        {
          "internalType": "uint256",
          "name": "",
          "type": "uint256"
        }
      ],
      "stateMutability": "view",
      "type": "function"
    },
    {
      "inputs": [],
      "name": "owner",
      "outputs": [
        {
          "internalType": "address",
          "name": "",
          "type": "address"
        }
      ],
      "stateMutability": "view",
      "type": "function"
    },
    {
      "inputs": [],
      "name": "renounceOwnership",
      "outputs": [],
      "stateMutability": "nonpayable",
      "type": "function"
    },
    {
      "inputs": [
        {
          "internalType": "address",
          "name": "newOwner",
          "type": "address"
        }
      ],
      "name": "transferOwnership",
      "outputs": [],
      "stateMutability": "nonpayable",
      "type": "function"
    },
    {
      "inputs": [
        {
          "internalType": "address",
          "name": "",
          "type": "address"
        },
        {
          "internalType": "address",
          "name": "",
          "type": "address"
        }
      ],
      "name": "userToListingIndex",
      "outputs": [
        {
          "internalType": "uint256",
          "name": "",
          "type": "uint256"
        }
      ],
      "stateMutability": "view",
      "type": "function"
    },
    {
      "inputs": [
        {
          "internalType": "address",
          "name": "",
          "type": "address"
        }
      ],
      "name": "whitelistedContracts",
      "outputs": [
        {
          "internalType": "bool",
          "name": "",
          "type": "bool"
        }
      ],
      "stateMutability": "view",
      "type": "function"
    },
    {
      "inputs": [
        {
          "internalType": "address",
          "name": "user",
          "type": "address"
        },
        {
          "internalType": "address",
          "name": "asset",
          "type": "address"
        }
      ],
      "name": "getListingIndex",
      "outputs": [
        {
          "internalType": "uint256",
          "name": "",
          "type": "uint256"
        }
      ],
      "stateMutability": "view",
      "type": "function"
    },
    {
      "inputs": [
        {
          "internalType": "uint256",
          "name": "index",
          "type": "uint256"
        }
      ],
      "name": "getMarketplaceListing",
      "outputs": [
        {
          "internalType": "address",
          "name": "",
          "type": "address"
        },
        {
          "internalType": "address",
          "name": "",
          "type": "address"
        },
        {
          "internalType": "uint256",
          "name": "",
          "type": "uint256"
        },
        {
          "internalType": "uint256",
          "name": "",
          "type": "uint256"
        },
        {
          "internalType": "uint256",
          "name": "",
          "type": "uint256"
        }
      ],
      "stateMutability": "view",
      "type": "function"
    },
    {
      "inputs": [
        {
          "internalType": "address",
          "name": "asset",
          "type": "address"
        },
        {
          "internalType": "uint256",
          "name": "index",
          "type": "uint256"
        },
        {
          "internalType": "uint256",
          "name": "numberOfTokens",
          "type": "uint256"
        }
      ],
      "name": "purchase",
      "outputs": [],
      "stateMutability": "nonpayable",
      "type": "function"
    },
    {
      "inputs": [
        {
          "internalType": "address",
          "name": "asset",
          "type": "address"
        },
        {
          "internalType": "uint256",
          "name": "tokenClass",
          "type": "uint256"
        },
        {
          "internalType": "uint256",
          "name": "numberOfTokens",
          "type": "uint256"
        },
        {
          "internalType": "uint256",
          "name": "price",
          "type": "uint256"
        }
      ],
      "name": "createListing",
      "outputs": [],
      "stateMutability": "nonpayable",
      "type": "function"
    },
    {
      "inputs": [
        {
          "internalType": "address",
          "name": "asset",
          "type": "address"
        },
        {
          "internalType": "uint256",
          "name": "index",
          "type": "uint256"
        }
      ],
      "name": "removeListing",
      "outputs": [],
      "stateMutability": "nonpayable",
      "type": "function"
    },
    {
      "inputs": [
        {
          "internalType": "address",
          "name": "asset",
          "type": "address"
        },
        {
          "internalType": "uint256",
          "name": "index",
          "type": "uint256"
        },
        {
          "internalType": "uint256",
          "name": "newPrice",
          "type": "uint256"
        }
      ],
      "name": "updatePrice",
      "outputs": [],
      "stateMutability": "nonpayable",
      "type": "function"
    },
    {
      "inputs": [
        {
          "internalType": "address",
          "name": "asset",
          "type": "address"
        },
        {
          "internalType": "uint256",
          "name": "index",
          "type": "uint256"
        },
        {
          "internalType": "uint256",
          "name": "newQuantity",
          "type": "uint256"
        }
      ],
      "name": "updateQuantity",
      "outputs": [],
      "stateMutability": "nonpayable",
      "type": "function"
    },
    {
      "inputs": [
        {
          "internalType": "address",
          "name": "asset",
          "type": "address"
        },
        {
          "internalType": "address",
          "name": "manager",
          "type": "address"
        }
      ],
      "name": "addAsset",
      "outputs": [],
      "stateMutability": "nonpayable",
      "type": "function"
    },
    {
      "inputs": [
        {
          "internalType": "address",
          "name": "contractAddress",
          "type": "address"
        }
      ],
      "name": "addWhitelistedContract",
      "outputs": [],
      "stateMutability": "nonpayable",
      "type": "function"
    }
  ],
  "bytecode": "0x60a06040523480156200001157600080fd5b5060405162003f1b38038062003f1b833981810160405281019062000037919062000147565b336000806101000a81548173ffffffffffffffffffffffffffffffffffffffff021916908373ffffffffffffffffffffffffffffffffffffffff16021790555060008054906101000a900473ffffffffffffffffffffffffffffffffffffffff1673ffffffffffffffffffffffffffffffffffffffff16600073ffffffffffffffffffffffffffffffffffffffff167f8be0079c531659141344cd1fd0a4f28419497f9722a3daafe3b4186f6b6457e060405160405180910390a38073ffffffffffffffffffffffffffffffffffffffff1660808173ffffffffffffffffffffffffffffffffffffffff1660601b8152505050620001d5565b6000815190506200014181620001bb565b92915050565b6000602082840312156200015a57600080fd5b60006200016a8482850162000130565b91505092915050565b600062000180826200019b565b9050919050565b6000620001948262000173565b9050919050565b600073ffffffffffffffffffffffffffffffffffffffff82169050919050565b620001c68162000187565b8114620001d257600080fd5b50565b60805160601c613d19620002026000398061108c52806112c5528061152152806118105250613d196000f3fe608060405234801561001057600080fd5b50600436106101215760003560e01c8063981f3b8e116100ad578063da48999711610071578063da48999714610322578063e57d6fb71461033e578063f24920781461035a578063f2fde38b14610376578063ff36a42f1461039257610121565b8063981f3b8e1461025457806398968f15146102725780639dd9a9fa1461028e578063a6e65ca6146102be578063d5a87ecb146102ee57610121565b806370cdec3d116100f457806370cdec3d146101c2578063715018a6146101de5780638da5cb5b146101e85780638f32d59b146102065780639319a2681461022457610121565b8063391feebb1461012657806346704adb1461015657806348c320931461017257806359edbe71146101a6575b600080fd5b610140600480360381019061013b9190612dd0565b6103b0565b60405161014d919061383e565b60405180910390f35b610170600480360381019061016b9190612dd0565b6103d0565b005b61018c60048036038101906101879190612f75565b610572565b60405161019d9594939291906137c2565b60405180910390f35b6101c060048036038101906101bb9190612e5e565b6105e8565b005b6101dc60048036038101906101d79190612ee9565b61087b565b005b6101e6610dd5565b005b6101f0610ea4565b6040516101fd9190613702565b60405180910390f35b61020e610ecd565b60405161021b919061383e565b60405180910390f35b61023e60048036038101906102399190612e22565b610f24565b60405161024b9190613b54565b60405180910390f35b61025c61108a565b6040516102699190613859565b60405180910390f35b61028c60048036038101906102879190612e9a565b6110ae565b005b6102a860048036038101906102a39190612e22565b611ca1565b6040516102b59190613b54565b60405180910390f35b6102d860048036038101906102d39190612dd0565b611cc6565b6040516102e59190613702565b60405180910390f35b61030860048036038101906103039190612f75565b611cf9565b6040516103199594939291906137c2565b60405180910390f35b61033c60048036038101906103379190612e22565b611e6d565b005b61035860048036038101906103539190612e9a565b612162565b005b610374600480360381019061036f9190612e9a565b61244d565b005b610390600480360381019061038b9190612dd0565b6127e3565b005b61039a612800565b6040516103a79190613b54565b60405180910390f35b60056020528060005260406000206000915054906101000a900460ff1681565b6103d8610ecd565b6103e157600080fd5b600073ffffffffffffffffffffffffffffffffffffffff168173ffffffffffffffffffffffffffffffffffffffff161415610451576040517f08c379a000000000000000000000000000000000000000000000000000000000815260040161044890613914565b60405180910390fd5b600560008273ffffffffffffffffffffffffffffffffffffffff1673ffffffffffffffffffffffffffffffffffffffff16815260200190815260200160002060009054906101000a900460ff16156104de576040517f08c379a00000000000000000000000000000000000000000000000000000000081526004016104d590613ab4565b60405180910390fd5b6001600560008373ffffffffffffffffffffffffffffffffffffffff1673ffffffffffffffffffffffffffffffffffffffff16815260200190815260200160002060006101000a81548160ff0219169083151502179055507f8e2292322dfe261b8fedaeb8d1da748f64eb41352a1e5718a96fdc3a8a94c9468142604051610567929190613815565b60405180910390a150565b60016020528060005260406000206000915090508060000160009054906101000a900473ffffffffffffffffffffffffffffffffffffffff16908060010160009054906101000a900473ffffffffffffffffffffffffffffffffffffffff16908060020154908060030154908060040154905085565b81600073ffffffffffffffffffffffffffffffffffffffff168173ffffffffffffffffffffffffffffffffffffffff16141580156106b25750600073ffffffffffffffffffffffffffffffffffffffff16600460008373ffffffffffffffffffffffffffffffffffffffff1673ffffffffffffffffffffffffffffffffffffffff16815260200190815260200160002060009054906101000a900473ffffffffffffffffffffffffffffffffffffffff1673ffffffffffffffffffffffffffffffffffffffff1614155b6106f1576040517f08c379a00000000000000000000000000000000000000000000000000000000081526004016106e890613874565b60405180910390fd5b8160008111801561070457506002548111155b610743576040517f08c379a000000000000000000000000000000000000000000000000000000000815260040161073a906139d4565b60405180910390fd5b8383600360008373ffffffffffffffffffffffffffffffffffffffff1673ffffffffffffffffffffffffffffffffffffffff16815260200190815260200160002060003373ffffffffffffffffffffffffffffffffffffffff1673ffffffffffffffffffffffffffffffffffffffff168152602001908152602001600020548114610803576040517f08c379a00000000000000000000000000000000000000000000000000000000081526004016107fa906139f4565b60405180910390fd5b61080e338787612806565b8573ffffffffffffffffffffffffffffffffffffffff163373ffffffffffffffffffffffffffffffffffffffff167f8a278630dbfcb70c51c4938ce9b05b5cf95bb5ee40d4f6ad40c7dc0eea5458964260405161086b9190613b54565b60405180910390a3505050505050565b83600073ffffffffffffffffffffffffffffffffffffffff168173ffffffffffffffffffffffffffffffffffffffff16141580156109455750600073ffffffffffffffffffffffffffffffffffffffff16600460008373ffffffffffffffffffffffffffffffffffffffff1673ffffffffffffffffffffffffffffffffffffffff16815260200190815260200160002060009054906101000a900473ffffffffffffffffffffffffffffffffffffffff1673ffffffffffffffffffffffffffffffffffffffff1614155b610984576040517f08c379a000000000000000000000000000000000000000000000000000000000815260040161097b90613874565b60405180910390fd5b6000600360008773ffffffffffffffffffffffffffffffffffffffff1673ffffffffffffffffffffffffffffffffffffffff16815260200190815260200160002060003373ffffffffffffffffffffffffffffffffffffffff1673ffffffffffffffffffffffffffffffffffffffff1681526020019081526020016000205414610a43576040517f08c379a0000000000000000000000000000000000000000000000000000000008152600401610a3a906138b4565b60405180910390fd5b60008211610a86576040517f08c379a0000000000000000000000000000000000000000000000000000000008152600401610a7d90613b34565b60405180910390fd5b600084118015610a965750600584105b610ad5576040517f08c379a0000000000000000000000000000000000000000000000000000000008152600401610acc90613a54565b60405180910390fd5b600083118015610b6e57508473ffffffffffffffffffffffffffffffffffffffff1662fdd58e33866040518363ffffffff1660e01b8152600401610b1a929190613754565b60206040518083038186803b158015610b3257600080fd5b505afa158015610b46573d6000803e3d6000fd5b505050506040513d601f19601f82011682018060405250810190610b6a9190612f9e565b8311155b610bad576040517f08c379a0000000000000000000000000000000000000000000000000000000008152600401610ba490613934565b60405180910390fd5b610bc36001600254612bed90919063ffffffff16565b600281905550600254600360008773ffffffffffffffffffffffffffffffffffffffff1673ffffffffffffffffffffffffffffffffffffffff16815260200190815260200160002060003373ffffffffffffffffffffffffffffffffffffffff1673ffffffffffffffffffffffffffffffffffffffff168152602001908152602001600020819055506040518060a001604052808673ffffffffffffffffffffffffffffffffffffffff1681526020013373ffffffffffffffffffffffffffffffffffffffff1681526020018581526020018481526020018381525060016000600254815260200190815260200160002060008201518160000160006101000a81548173ffffffffffffffffffffffffffffffffffffffff021916908373ffffffffffffffffffffffffffffffffffffffff16021790555060208201518160010160006101000a81548173ffffffffffffffffffffffffffffffffffffffff021916908373ffffffffffffffffffffffffffffffffffffffff1602179055506040820151816002015560608201518160030155608082015181600401559050508473ffffffffffffffffffffffffffffffffffffffff163373ffffffffffffffffffffffffffffffffffffffff167f2c62a54f9fe3ea4e58aa60b75ca583bbe3a1e7c0778829d9cea89a910945b1a386868642604051610dc69493929190613ba6565b60405180910390a35050505050565b610ddd610ecd565b610de657600080fd5b600073ffffffffffffffffffffffffffffffffffffffff1660008054906101000a900473ffffffffffffffffffffffffffffffffffffffff1673ffffffffffffffffffffffffffffffffffffffff167f8be0079c531659141344cd1fd0a4f28419497f9722a3daafe3b4186f6b6457e060405160405180910390a360008060006101000a81548173ffffffffffffffffffffffffffffffffffffffff021916908373ffffffffffffffffffffffffffffffffffffffff160217905550565b60008060009054906101000a900473ffffffffffffffffffffffffffffffffffffffff16905090565b60008060009054906101000a900473ffffffffffffffffffffffffffffffffffffffff1673ffffffffffffffffffffffffffffffffffffffff163373ffffffffffffffffffffffffffffffffffffffff1614905090565b60008073ffffffffffffffffffffffffffffffffffffffff168373ffffffffffffffffffffffffffffffffffffffff161415610f95576040517f08c379a0000000000000000000000000000000000000000000000000000000008152600401610f8c906138d4565b60405180910390fd5b600073ffffffffffffffffffffffffffffffffffffffff168273ffffffffffffffffffffffffffffffffffffffff161415611005576040517f08c379a0000000000000000000000000000000000000000000000000000000008152600401610ffc90613954565b60405180910390fd5b600360008373ffffffffffffffffffffffffffffffffffffffff1673ffffffffffffffffffffffffffffffffffffffff16815260200190815260200160002060008473ffffffffffffffffffffffffffffffffffffffff1673ffffffffffffffffffffffffffffffffffffffff16815260200190815260200160002054905092915050565b7f000000000000000000000000000000000000000000000000000000000000000081565b82600073ffffffffffffffffffffffffffffffffffffffff168173ffffffffffffffffffffffffffffffffffffffff16141580156111785750600073ffffffffffffffffffffffffffffffffffffffff16600460008373ffffffffffffffffffffffffffffffffffffffff1673ffffffffffffffffffffffffffffffffffffffff16815260200190815260200160002060009054906101000a900473ffffffffffffffffffffffffffffffffffffffff1673ffffffffffffffffffffffffffffffffffffffff1614155b6111b7576040517f08c379a00000000000000000000000000000000000000000000000000000000081526004016111ae90613874565b60405180910390fd5b6000821180156111dd575060016000848152602001908152602001600020600301548211155b61121c576040517f08c379a000000000000000000000000000000000000000000000000000000000815260040161121390613934565b60405180910390fd5b6001600084815260200190815260200160002060010160009054906101000a900473ffffffffffffffffffffffffffffffffffffffff1673ffffffffffffffffffffffffffffffffffffffff163373ffffffffffffffffffffffffffffffffffffffff1614156112c1576040517f08c379a00000000000000000000000000000000000000000000000000000000081526004016112b890613af4565b60405180910390fd5b60007f000000000000000000000000000000000000000000000000000000000000000073ffffffffffffffffffffffffffffffffffffffff166304433bbc6040518163ffffffff1660e01b815260040161131a90613ad4565b60206040518083038186803b15801561133257600080fd5b505afa158015611346573d6000803e3d6000fd5b505050506040513d601f19601f8201168201806040525081019061136a9190612df9565b905060008173ffffffffffffffffffffffffffffffffffffffff166328a2176f6040518163ffffffff1660e01b81526004016113a590613b14565b60206040518083038186803b1580156113bd57600080fd5b505afa1580156113d1573d6000803e3d6000fd5b505050506040513d601f19601f820116820180604052508101906113f59190612f9e565b905060008673ffffffffffffffffffffffffffffffffffffffff16600460008973ffffffffffffffffffffffffffffffffffffffff1673ffffffffffffffffffffffffffffffffffffffff16815260200190815260200160002060009054906101000a900473ffffffffffffffffffffffffffffffffffffffff1673ffffffffffffffffffffffffffffffffffffffff16141561149357600061151b565b8273ffffffffffffffffffffffffffffffffffffffff166328a2176f6040518163ffffffff1660e01b81526004016114ca906139b4565b60206040518083038186803b1580156114e257600080fd5b505afa1580156114f6573d6000803e3d6000fd5b505050506040513d601f19601f8201168201806040525081019061151a9190612f9e565b5b905060007f000000000000000000000000000000000000000000000000000000000000000073ffffffffffffffffffffffffffffffffffffffff166304433bbc6040518163ffffffff1660e01b815260040161157690613a34565b60206040518083038186803b15801561158e57600080fd5b505afa1580156115a2573d6000803e3d6000fd5b505050506040513d601f19601f820116820180604052508101906115c69190612df9565b73ffffffffffffffffffffffffffffffffffffffff1663be781b1c6040518163ffffffff1660e01b815260040160206040518083038186803b15801561160b57600080fd5b505afa15801561161f573d6000803e3d6000fd5b505050506040513d601f19601f820116820180604052508101906116439190612df9565b9050600061167087600160008b815260200190815260200160002060040154612c0990919063ffffffff16565b90508173ffffffffffffffffffffffffffffffffffffffff166323b872dd3330846040518463ffffffff1660e01b81526004016116af9392919061371d565b602060405180830381600087803b1580156116c957600080fd5b505af11580156116dd573d6000803e3d6000fd5b505050506040513d601f19601f820116820180604052508101906117019190612f4c565b508173ffffffffffffffffffffffffffffffffffffffff1663a9059cbb600160008b815260200190815260200160002060010160009054906101000a900473ffffffffffffffffffffffffffffffffffffffff16611782612710611774888a612710030387612c0990919063ffffffff16565b612c4090919063ffffffff16565b6040518363ffffffff1660e01b815260040161179f929190613815565b602060405180830381600087803b1580156117b957600080fd5b505af11580156117cd573d6000803e3d6000fd5b505050506040513d601f19601f820116820180604052508101906117f19190612f4c565b508173ffffffffffffffffffffffffffffffffffffffff1663a9059cbb7f000000000000000000000000000000000000000000000000000000000000000073ffffffffffffffffffffffffffffffffffffffff166304433bbc6040518163ffffffff1660e01b815260040161186590613974565b60206040518083038186803b15801561187d57600080fd5b505afa158015611891573d6000803e3d6000fd5b505050506040513d601f19601f820116820180604052508101906118b59190612df9565b6118dc6127106118ce8987612c0990919063ffffffff16565b612c4090919063ffffffff16565b6040518363ffffffff1660e01b81526004016118f9929190613815565b602060405180830381600087803b15801561191357600080fd5b505af1158015611927573d6000803e3d6000fd5b505050506040513d601f19601f8201168201806040525081019061194b9190612f4c565b506000831115611a69578173ffffffffffffffffffffffffffffffffffffffff1663a9059cbb600460008c73ffffffffffffffffffffffffffffffffffffffff1673ffffffffffffffffffffffffffffffffffffffff16815260200190815260200160002060009054906101000a900473ffffffffffffffffffffffffffffffffffffffff166119f86127106119ea8887612c0990919063ffffffff16565b612c4090919063ffffffff16565b6040518363ffffffff1660e01b8152600401611a15929190613815565b602060405180830381600087803b158015611a2f57600080fd5b505af1158015611a43573d6000803e3d6000fd5b505050506040513d601f19601f82011682018060405250810190611a679190612f4c565b505b8873ffffffffffffffffffffffffffffffffffffffff16630411b252600160008b815260200190815260200160002060010160009054906101000a900473ffffffffffffffffffffffffffffffffffffffff1633600160008d8152602001908152602001600020600201548b6040518563ffffffff1660e01b8152600401611af4949392919061377d565b602060405180830381600087803b158015611b0e57600080fd5b505af1158015611b22573d6000803e3d6000fd5b505050506040513d601f19601f82011682018060405250810190611b469190612f4c565b611b85576040517f08c379a0000000000000000000000000000000000000000000000000000000008152600401611b7c90613994565b60405180910390fd5b6001600089815260200190815260200160002060030154871415611be957611be4600160008a815260200190815260200160002060010160009054906101000a900473ffffffffffffffffffffffffffffffffffffffff168a8a612806565b611c2d565b611c1287600160008b815260200190815260200160002060030154612c5990919063ffffffff16565b600160008a8152602001908152602001600020600301819055505b8873ffffffffffffffffffffffffffffffffffffffff163373ffffffffffffffffffffffffffffffffffffffff167fb362243af1e2070d7d5bf8d713f2e0fab64203f1b71462afbe20572909788c5e8a8a42604051611c8e93929190613b6f565b60405180910390a3505050505050505050565b6003602052816000526040600020602052806000526040600020600091509150505481565b60046020528060005260406000206000915054906101000a900473ffffffffffffffffffffffffffffffffffffffff1681565b600080600080600085600081118015611d1457506002548111155b611d53576040517f08c379a0000000000000000000000000000000000000000000000000000000008152600401611d4a906139d4565b60405180910390fd5b6000600160008981526020019081526020016000206040518060a00160405290816000820160009054906101000a900473ffffffffffffffffffffffffffffffffffffffff1673ffffffffffffffffffffffffffffffffffffffff1673ffffffffffffffffffffffffffffffffffffffff1681526020016001820160009054906101000a900473ffffffffffffffffffffffffffffffffffffffff1673ffffffffffffffffffffffffffffffffffffffff1673ffffffffffffffffffffffffffffffffffffffff168152602001600282015481526020016003820154815260200160048201548152505090508060000151816020015182604001518360600151846080015196509650965096509650505091939590929450565b600560003373ffffffffffffffffffffffffffffffffffffffff1673ffffffffffffffffffffffffffffffffffffffff16815260200190815260200160002060009054906101000a900460ff16611ef9576040517f08c379a0000000000000000000000000000000000000000000000000000000008152600401611ef0906138f4565b60405180910390fd5b600073ffffffffffffffffffffffffffffffffffffffff168273ffffffffffffffffffffffffffffffffffffffff161415611f69576040517f08c379a0000000000000000000000000000000000000000000000000000000008152600401611f6090613894565b60405180910390fd5b600073ffffffffffffffffffffffffffffffffffffffff168173ffffffffffffffffffffffffffffffffffffffff161415611fd9576040517f08c379a0000000000000000000000000000000000000000000000000000000008152600401611fd090613a74565b60405180910390fd5b600073ffffffffffffffffffffffffffffffffffffffff16600460008473ffffffffffffffffffffffffffffffffffffffff1673ffffffffffffffffffffffffffffffffffffffff16815260200190815260200160002060009054906101000a900473ffffffffffffffffffffffffffffffffffffffff1673ffffffffffffffffffffffffffffffffffffffff16146120a7576040517f08c379a000000000000000000000000000000000000000000000000000000000815260040161209e90613a14565b60405180910390fd5b80600460008473ffffffffffffffffffffffffffffffffffffffff1673ffffffffffffffffffffffffffffffffffffffff16815260200190815260200160002060006101000a81548173ffffffffffffffffffffffffffffffffffffffff021916908373ffffffffffffffffffffffffffffffffffffffff1602179055507f90994f4ab6386cbeef40af70d6defafbc09bd302f094506765fbe4d165749e998242604051612156929190613815565b60405180910390a15050565b82600073ffffffffffffffffffffffffffffffffffffffff168173ffffffffffffffffffffffffffffffffffffffff161415801561222c5750600073ffffffffffffffffffffffffffffffffffffffff16600460008373ffffffffffffffffffffffffffffffffffffffff1673ffffffffffffffffffffffffffffffffffffffff16815260200190815260200160002060009054906101000a900473ffffffffffffffffffffffffffffffffffffffff1673ffffffffffffffffffffffffffffffffffffffff1614155b61226b576040517f08c379a000000000000000000000000000000000000000000000000000000000815260040161226290613874565b60405180910390fd5b8260008111801561227e57506002548111155b6122bd576040517f08c379a00000000000000000000000000000000000000000000000000000000081526004016122b4906139d4565b60405180910390fd5b8484600360008373ffffffffffffffffffffffffffffffffffffffff1673ffffffffffffffffffffffffffffffffffffffff16815260200190815260200160002060003373ffffffffffffffffffffffffffffffffffffffff1673ffffffffffffffffffffffffffffffffffffffff16815260200190815260200160002054811461237d576040517f08c379a0000000000000000000000000000000000000000000000000000000008152600401612374906139f4565b60405180910390fd5b600085116123c0576040517f08c379a00000000000000000000000000000000000000000000000000000000081526004016123b790613a94565b60405180910390fd5b8460016000888152602001908152602001600020600401819055508673ffffffffffffffffffffffffffffffffffffffff163373ffffffffffffffffffffffffffffffffffffffff167ffa3b0ea22325f3a3a61082708dbf5d6d33716f0c03f4f8f479ce626426fda1c588884260405161243c93929190613b6f565b60405180910390a350505050505050565b82600073ffffffffffffffffffffffffffffffffffffffff168173ffffffffffffffffffffffffffffffffffffffff16141580156125175750600073ffffffffffffffffffffffffffffffffffffffff16600460008373ffffffffffffffffffffffffffffffffffffffff1673ffffffffffffffffffffffffffffffffffffffff16815260200190815260200160002060009054906101000a900473ffffffffffffffffffffffffffffffffffffffff1673ffffffffffffffffffffffffffffffffffffffff1614155b612556576040517f08c379a000000000000000000000000000000000000000000000000000000000815260040161254d90613874565b60405180910390fd5b8260008111801561256957506002548111155b6125a8576040517f08c379a000000000000000000000000000000000000000000000000000000000815260040161259f906139d4565b60405180910390fd5b8484600360008373ffffffffffffffffffffffffffffffffffffffff1673ffffffffffffffffffffffffffffffffffffffff16815260200190815260200160002060003373ffffffffffffffffffffffffffffffffffffffff1673ffffffffffffffffffffffffffffffffffffffff168152602001908152602001600020548114612668576040517f08c379a000000000000000000000000000000000000000000000000000000000815260040161265f906139f4565b60405180910390fd5b60008511801561271757508673ffffffffffffffffffffffffffffffffffffffff1662fdd58e33600160008a8152602001908152602001600020600201546040518363ffffffff1660e01b81526004016126c3929190613754565b60206040518083038186803b1580156126db57600080fd5b505afa1580156126ef573d6000803e3d6000fd5b505050506040513d601f19601f820116820180604052508101906127139190612f9e565b8511155b612756576040517f08c379a000000000000000000000000000000000000000000000000000000000815260040161274d90613934565b60405180910390fd5b8460016000888152602001908152602001600020600301819055508673ffffffffffffffffffffffffffffffffffffffff163373ffffffffffffffffffffffffffffffffffffffff167f7ac2e51c6cb9bdedabac2087f9484a37c475bb5e1e48fcc100ff856a8b0016718888426040516127d293929190613b6f565b60405180910390a350505050505050565b6127eb610ecd565b6127f457600080fd5b6127fd81612c70565b50565b60025481565b60006001600060025481526020019081526020016000206040518060a00160405290816000820160009054906101000a900473ffffffffffffffffffffffffffffffffffffffff1673ffffffffffffffffffffffffffffffffffffffff1673ffffffffffffffffffffffffffffffffffffffff1681526020016001820160009054906101000a900473ffffffffffffffffffffffffffffffffffffffff1673ffffffffffffffffffffffffffffffffffffffff1673ffffffffffffffffffffffffffffffffffffffff168152602001600282015481526020016003820154815260200160048201548152505090506040518060a00160405280826000015173ffffffffffffffffffffffffffffffffffffffff168152602001826020015173ffffffffffffffffffffffffffffffffffffffff168152602001826040015181526020018260600151815260200182608001518152506001600084815260200190815260200160002060008201518160000160006101000a81548173ffffffffffffffffffffffffffffffffffffffff021916908373ffffffffffffffffffffffffffffffffffffffff16021790555060208201518160010160006101000a81548173ffffffffffffffffffffffffffffffffffffffff021916908373ffffffffffffffffffffffffffffffffffffffff1602179055506040820151816002015560608201518160030155608082015181600401559050506000600360008573ffffffffffffffffffffffffffffffffffffffff1673ffffffffffffffffffffffffffffffffffffffff16815260200190815260200160002060008673ffffffffffffffffffffffffffffffffffffffff1673ffffffffffffffffffffffffffffffffffffffff168152602001908152602001600020819055506002548214612aae5781612ac5565b612ac46001600254612c5990919063ffffffff16565b5b60036000836000015173ffffffffffffffffffffffffffffffffffffffff1673ffffffffffffffffffffffffffffffffffffffff1681526020019081526020016000206000836020015173ffffffffffffffffffffffffffffffffffffffff1673ffffffffffffffffffffffffffffffffffffffff16815260200190815260200160002081905550600160006002548152602001908152602001600020600080820160006101000a81549073ffffffffffffffffffffffffffffffffffffffff02191690556001820160006101000a81549073ffffffffffffffffffffffffffffffffffffffff02191690556002820160009055600382016000905560048201600090555050612be16001600254612c5990919063ffffffff16565b60028190555050505050565b600080828401905083811015612bff57fe5b8091505092915050565b600080831415612c1c5760009050612c3a565b6000828402905082848281612c2d57fe5b0414612c3557fe5b809150505b92915050565b600080828481612c4c57fe5b0490508091505092915050565b600082821115612c6557fe5b818303905092915050565b600073ffffffffffffffffffffffffffffffffffffffff168173ffffffffffffffffffffffffffffffffffffffff161415612caa57600080fd5b8073ffffffffffffffffffffffffffffffffffffffff1660008054906101000a900473ffffffffffffffffffffffffffffffffffffffff1673ffffffffffffffffffffffffffffffffffffffff167f8be0079c531659141344cd1fd0a4f28419497f9722a3daafe3b4186f6b6457e060405160405180910390a3806000806101000a81548173ffffffffffffffffffffffffffffffffffffffff021916908373ffffffffffffffffffffffffffffffffffffffff16021790555050565b600081359050612d7681613c9e565b92915050565b600081519050612d8b81613c9e565b92915050565b600081519050612da081613cb5565b92915050565b600081359050612db581613ccc565b92915050565b600081519050612dca81613ccc565b92915050565b600060208284031215612de257600080fd5b6000612df084828501612d67565b91505092915050565b600060208284031215612e0b57600080fd5b6000612e1984828501612d7c565b91505092915050565b60008060408385031215612e3557600080fd5b6000612e4385828601612d67565b9250506020612e5485828601612d67565b9150509250929050565b60008060408385031215612e7157600080fd5b6000612e7f85828601612d67565b9250506020612e9085828601612da6565b9150509250929050565b600080600060608486031215612eaf57600080fd5b6000612ebd86828701612d67565b9350506020612ece86828701612da6565b9250506040612edf86828701612da6565b9150509250925092565b60008060008060808587031215612eff57600080fd5b6000612f0d87828801612d67565b9450506020612f1e87828801612da6565b9350506040612f2f87828801612da6565b9250506060612f4087828801612da6565b91505092959194509250565b600060208284031215612f5e57600080fd5b6000612f6c84828501612d91565b91505092915050565b600060208284031215612f8757600080fd5b6000612f9584828501612da6565b91505092915050565b600060208284031215612fb057600080fd5b6000612fbe84828501612dbb565b91505092915050565b612fd081613c44565b82525050565b612fdf81613bfc565b82525050565b612fee81613c0e565b82525050565b612ffd81613c56565b82525050565b6000613010601a83613beb565b91507f4d61726b6574706c6163653a20496e76616c69642061737365740000000000006000830152602082019050919050565b6000613050602283613beb565b91507f4d61726b6574706c6163653a20696e76616c696420617373657420616464726560008301527f73730000000000000000000000000000000000000000000000000000000000006020830152604082019050919050565b60006130b6603183613beb565b91507f416c726561647920686176652061206d61726b6574706c616365206c6973746960008301527f6e6720666f7220746869732061737365740000000000000000000000000000006020830152604082019050919050565b600061311c602183613beb565b91507f4d61726b6574706c6163653a20696e76616c696420757365722061646472657360008301527f73000000000000000000000000000000000000000000000000000000000000006020830152604082019050919050565b6000613182603d83613beb565b91507f4d61726b6574706c6163653a204f6e6c792077686974656c697374656420636f60008301527f6e74726163742063616e2063616c6c20746869732066756e6374696f6e0000006020830152604082019050919050565b60006131e8601883613beb565b91507f496e76616c696420636f6e7472616374206164647265737300000000000000006000830152602082019050919050565b6000613228601683613beb565b91507f5175616e74697479206f7574206f6620626f756e6473000000000000000000006000830152602082019050919050565b6000613268601a83613beb565b91507f4d61726b6574706c6163653a20696e76616c69642061737365740000000000006000830152602082019050919050565b60006132a8600883613beb565b91507f54726561737572790000000000000000000000000000000000000000000000006000830152602082019050919050565b60006132e8601583613beb565b91507f546f6b656e207472616e73666572206661696c656400000000000000000000006000830152602082019050919050565b6000613328601a83613beb565b91507f4d61726b6574706c61636541737365744d616e616765724665650000000000006000830152602082019050919050565b6000613368601f83613beb565b91507f4d61726b6574706c6163653a20496e646578206f7574206f662072616e6765006000830152602082019050919050565b60006133a8603383613beb565b91507f4d61726b6574706c6163653a204f6e6c79207468652073656c6c65722063616e60008301527f2063616c6c20746869732066756e6374696f6e000000000000000000000000006020830152604082019050919050565b600061340e602583613beb565b91507f4d61726b6574706c6163653a20616c726561647920616464656420746869732060008301527f61737365740000000000000000000000000000000000000000000000000000006020830152604082019050919050565b6000613474600c83613beb565b91507f417373657448616e646c657200000000000000000000000000000000000000006000830152602082019050919050565b60006134b4602383613beb565b91507f546f6b656e20636c617373206d757374206265206265747765656e203120616e60008301527f64203400000000000000000000000000000000000000000000000000000000006020830152604082019050919050565b600061351a602483613beb565b91507f4d61726b6574706c6163653a20696e76616c6964206d616e616765722061646460008301527f72657373000000000000000000000000000000000000000000000000000000006020830152604082019050919050565b6000613580602083613beb565b91507f4e6577207072696365206d7573742062652067726561746572207468616e20306000830152602082019050919050565b60006135c0601683613beb565b91507f436f6e747261637420616c7265616479206164646564000000000000000000006000830152602082019050919050565b6000613600600883613beb565b91507f53657474696e67730000000000000000000000000000000000000000000000006000830152602082019050919050565b6000613640601c83613beb565b91507f43616e6e6f742062757920796f7572206f776e20706f736974696f6e000000006000830152602082019050919050565b6000613680601683613beb565b91507f4d61726b6574706c61636550726f746f636f6c466565000000000000000000006000830152602082019050919050565b60006136c0601c83613beb565b91507f5072696365206d7573742062652067726561746572207468616e2030000000006000830152602082019050919050565b6136fc81613c3a565b82525050565b60006020820190506137176000830184612fd6565b92915050565b60006060820190506137326000830186612fc7565b61373f6020830185612fd6565b61374c60408301846136f3565b949350505050565b60006040820190506137696000830185612fc7565b61377660208301846136f3565b9392505050565b60006080820190506137926000830187612fd6565b61379f6020830186612fc7565b6137ac60408301856136f3565b6137b960608301846136f3565b95945050505050565b600060a0820190506137d76000830188612fd6565b6137e46020830187612fd6565b6137f160408301866136f3565b6137fe60608301856136f3565b61380b60808301846136f3565b9695505050505050565b600060408201905061382a6000830185612fd6565b61383760208301846136f3565b9392505050565b60006020820190506138536000830184612fe5565b92915050565b600060208201905061386e6000830184612ff4565b92915050565b6000602082019050818103600083015261388d81613003565b9050919050565b600060208201905081810360008301526138ad81613043565b9050919050565b600060208201905081810360008301526138cd816130a9565b9050919050565b600060208201905081810360008301526138ed8161310f565b9050919050565b6000602082019050818103600083015261390d81613175565b9050919050565b6000602082019050818103600083015261392d816131db565b9050919050565b6000602082019050818103600083015261394d8161321b565b9050919050565b6000602082019050818103600083015261396d8161325b565b9050919050565b6000602082019050818103600083015261398d8161329b565b9050919050565b600060208201905081810360008301526139ad816132db565b9050919050565b600060208201905081810360008301526139cd8161331b565b9050919050565b600060208201905081810360008301526139ed8161335b565b9050919050565b60006020820190508181036000830152613a0d8161339b565b9050919050565b60006020820190508181036000830152613a2d81613401565b9050919050565b60006020820190508181036000830152613a4d81613467565b9050919050565b60006020820190508181036000830152613a6d816134a7565b9050919050565b60006020820190508181036000830152613a8d8161350d565b9050919050565b60006020820190508181036000830152613aad81613573565b9050919050565b60006020820190508181036000830152613acd816135b3565b9050919050565b60006020820190508181036000830152613aed816135f3565b9050919050565b60006020820190508181036000830152613b0d81613633565b9050919050565b60006020820190508181036000830152613b2d81613673565b9050919050565b60006020820190508181036000830152613b4d816136b3565b9050919050565b6000602082019050613b6960008301846136f3565b92915050565b6000606082019050613b8460008301866136f3565b613b9160208301856136f3565b613b9e60408301846136f3565b949350505050565b6000608082019050613bbb60008301876136f3565b613bc860208301866136f3565b613bd560408301856136f3565b613be260608301846136f3565b95945050505050565b600082825260208201905092915050565b6000613c0782613c1a565b9050919050565b60008115159050919050565b600073ffffffffffffffffffffffffffffffffffffffff82169050919050565b6000819050919050565b6000613c4f82613c7a565b9050919050565b6000613c6182613c68565b9050919050565b6000613c7382613c1a565b9050919050565b6000613c8582613c8c565b9050919050565b6000613c9782613c1a565b9050919050565b613ca781613bfc565b8114613cb257600080fd5b50565b613cbe81613c0e565b8114613cc957600080fd5b50565b613cd581613c3a565b8114613ce057600080fd5b5056fea26469706673582212202db37fe09c5dc3be94fa418737985ccf38cb68c99fb73d224dbef8b606bd89cb64736f6c63430007060033",
  "immutableReferences": {
    "1854": [
      {
        "length": 32,
        "start": 4236
      },
      {
        "length": 32,
        "start": 4805
      },
      {
        "length": 32,
        "start": 5409
      },
      {
        "length": 32,
        "start": 6160
      }
    ]
  },
  "source": "// SPDX-License-Identifier: MIT\r\n\r\npragma solidity >=0.7.6;\r\npragma experimental ABIEncoderV2;\r\n\r\n//Libraries\r\nimport './libraries/SafeMath.sol';\r\n\r\n//Inheritance\r\nimport './interfaces/IMarketplace.sol';\r\nimport './Ownable.sol';\r\n\r\n//Interfaces\r\nimport './interfaces/IAddressResolver.sol';\r\nimport './interfaces/IERC20.sol';\r\nimport './interfaces/ISettings.sol';\r\nimport './interfaces/IAssetHandler.sol';\r\nimport './interfaces/ISellable.sol';\r\n\r\ncontract Marketplace is IMarketplace, Ownable {\r\n    using SafeMath for uint;\r\n\r\n    IAddressResolver public immutable ADDRESS_RESOLVER;\r\n\r\n    mapping (uint => MarketplaceListing) public marketplaceListings; //starts at index 1\r\n    uint public numberOfMarketplaceListings;\r\n    mapping (address => mapping (address => uint)) public userToListingIndex; //max 1 listing per user\r\n\r\n    //Address of the asset's manager (used for sending manager's fee)\r\n    //Set to asset's address if asset doesn't have manager (no manager fee in this case)\r\n    //Set to address(0) if invalid asset\r\n    mapping (address => address) public assetManagers; \r\n\r\n    //Set of contracts that can add a new asset to marketplace\r\n    mapping (address => bool) public whitelistedContracts;\r\n\r\n    constructor(IAddressResolver addressResolver) Ownable() {\r\n        ADDRESS_RESOLVER = addressResolver;\r\n    }\r\n\r\n    /* ========== VIEWS ========== */\r\n\r\n    /**\r\n    * @dev Given the address of a user and an asset, returns the index of the marketplace listing\r\n    * @notice Returns 0 if user doesn't have a listing in the given asset\r\n    * @param user Address of the user\r\n    * @param asset Address of the asset\r\n    * @return uint Index of the user's marketplace listing\r\n    */\r\n    function getListingIndex(address user, address asset) external view override returns (uint) {\r\n        require(user != address(0), \"Marketplace: invalid user address\");\r\n        require(asset != address(0), \"Marketplace: invalid asset\");\r\n\r\n        return userToListingIndex[asset][user];\r\n    }\r\n\r\n    /**\r\n    * @dev Given the index of a marketplace listing, returns the listing's data\r\n    * @param index Index of the marketplace listing\r\n    * @return (address, address, uint, uint, uint) Asset for sale, address of the seller, asset's token class, number of tokens for sale, USD per token\r\n    */\r\n    function getMarketplaceListing(uint index) public view override indexInRange(index) returns (address, address, uint, uint, uint) {\r\n        MarketplaceListing memory listing = marketplaceListings[index];\r\n\r\n        return (listing.asset, listing.seller, listing.tokenClass, listing.numberOfTokens, listing.price);\r\n    }\r\n\r\n    /* ========== MUTATIVE FUNCTIONS ========== */\r\n\r\n    /**\r\n    * @dev Purchases the specified number of tokens from the marketplace listing\r\n    * @param asset Address of the token for sale\r\n    * @param index Index of the marketplace listing in the asset's listings array\r\n    * @param numberOfTokens Number of tokens to purchase\r\n    */\r\n    function purchase(address asset, uint index, uint numberOfTokens) external override isValidAsset(asset) {\r\n        require(numberOfTokens > 0 &&\r\n                numberOfTokens <= marketplaceListings[index].numberOfTokens,\r\n                \"Quantity out of bounds\");\r\n        require(msg.sender != marketplaceListings[index].seller, \"Cannot buy your own position\");\r\n        \r\n        address settingsAddress = ADDRESS_RESOLVER.getContractAddress(\"Settings\");\r\n        uint protocolFee = ISettings(settingsAddress).getParameterValue(\"MarketplaceProtocolFee\");\r\n        uint managerFee = (assetManagers[asset] != asset) ? ISettings(settingsAddress).getParameterValue(\"MarketplaceAssetManagerFee\") : 0;\r\n        address stableCoinAddress = IAssetHandler(ADDRESS_RESOLVER.getContractAddress(\"AssetHandler\")).getStableCoinAddress();\r\n\r\n        uint amountOfUSD = marketplaceListings[index].price.mul(numberOfTokens);\r\n\r\n        IERC20(stableCoinAddress).transferFrom(msg.sender, address(this), amountOfUSD);\r\n        \r\n        //Transfer cUSD to seller and pay protocol fee\r\n        IERC20(stableCoinAddress).transfer(marketplaceListings[index].seller, amountOfUSD.mul(10000 - protocolFee - managerFee).div(10000));\r\n        IERC20(stableCoinAddress).transfer(ADDRESS_RESOLVER.getContractAddress(\"Treasury\"), amountOfUSD.mul(protocolFee).div(10000));\r\n\r\n        //Pay manager fee if asset has manager\r\n        if (managerFee > 0)\r\n        {\r\n            IERC20(stableCoinAddress).transfer(assetManagers[asset], amountOfUSD.mul(managerFee).div(10000));\r\n        }\r\n\r\n        //Transfer tokens from seller to buyer\r\n        require(ISellable(asset).transfer(marketplaceListings[index].seller, msg.sender, marketplaceListings[index].tokenClass, numberOfTokens), \"Token transfer failed\");\r\n\r\n        //Update marketplace listing\r\n        if (numberOfTokens == marketplaceListings[index].numberOfTokens)\r\n        {\r\n            _removeListing(marketplaceListings[index].seller, asset, index);\r\n        }\r\n        else\r\n        {\r\n            marketplaceListings[index].numberOfTokens = marketplaceListings[index].numberOfTokens.sub(numberOfTokens);\r\n        }\r\n\r\n        emit Purchased(msg.sender, asset, index, numberOfTokens, block.timestamp);\r\n    }\r\n\r\n    /**\r\n    * @dev Creates a new marketplace listing with the given price and quantity\r\n    * @param asset Address of the token for sale\r\n    * @param tokenClass The class of the asset's token\r\n    * @param numberOfTokens Number of tokens to sell\r\n    * @param price USD per token\r\n    */\r\n    function createListing(address asset, uint tokenClass, uint numberOfTokens, uint price) external override isValidAsset(asset) {\r\n        require(userToListingIndex[asset][msg.sender] == 0, \"Already have a marketplace listing for this asset\");\r\n        require(price > 0, \"Price must be greater than 0\");\r\n        require(tokenClass > 0 && tokenClass < 5, \"Token class must be between 1 and 4\");\r\n        require(numberOfTokens > 0 && numberOfTokens <= ISellable(asset).balanceOf(msg.sender, tokenClass), \"Quantity out of bounds\");\r\n\r\n        numberOfMarketplaceListings = numberOfMarketplaceListings.add(1);\r\n        userToListingIndex[asset][msg.sender] = numberOfMarketplaceListings;\r\n        marketplaceListings[numberOfMarketplaceListings] = MarketplaceListing(asset, msg.sender, tokenClass, numberOfTokens, price);\r\n\r\n        emit CreatedListing(msg.sender, asset, tokenClass, numberOfTokens, price, block.timestamp);\r\n    }\r\n\r\n    /**\r\n    * @dev Removes the marketplace listing at the given index\r\n    * @param asset Address of the token for sale\r\n    * @param index Index of the marketplace listing in the asset's listings array\r\n    */\r\n    function removeListing(address asset, uint index) external override isValidAsset(asset) indexInRange(index) onlySeller(asset, index) {\r\n        _removeListing(msg.sender, asset, index);\r\n\r\n        emit RemovedListing(msg.sender, asset, block.timestamp);\r\n    }\r\n\r\n    /**\r\n    * @dev Updates the price of the given marketplace listing\r\n    * @param asset Address of the token for sale\r\n    * @param index Index of the marketplace listing in the asset's listings array\r\n    * @param newPrice USD per token\r\n    */\r\n    function updatePrice(address asset, uint index, uint newPrice) external override isValidAsset(asset) indexInRange(index) onlySeller(asset, index) {\r\n        require(newPrice > 0, \"New price must be greater than 0\");\r\n\r\n        marketplaceListings[index].price = newPrice;\r\n\r\n        emit UpdatedPrice(msg.sender, asset, index, newPrice, block.timestamp);\r\n    }\r\n\r\n    /**\r\n    * @dev Updates the number of tokens for sale of the given marketplace listing\r\n    * @param asset Address of the token for sale\r\n    * @param index Index of the marketplace listing in the asset's listings array\r\n    * @param newQuantity Number of tokens to sell\r\n    */\r\n    function updateQuantity(address asset, uint index, uint newQuantity) external override isValidAsset(asset) indexInRange(index) onlySeller(asset, index) {\r\n        require(newQuantity > 0 &&\r\n                newQuantity <= ISellable(asset).balanceOf(msg.sender, marketplaceListings[index].tokenClass),\r\n                \"Quantity out of bounds\");\r\n\r\n        marketplaceListings[index].numberOfTokens = newQuantity;\r\n\r\n        emit UpdatedQuantity(msg.sender, asset, index, newQuantity, block.timestamp);\r\n    }\r\n\r\n    /* ========== RESTRICTED FUNCTIONS ========== */\r\n\r\n    /**\r\n    * @dev Adds a new sellable asset to the marketplace\r\n    * @notice Meant to be called by whitelisted contract\r\n    * @notice Set 'manager' to asset address if asset doesn't have manager\r\n    * @param asset Address of the asset to add\r\n    * @param manager Address of the asset's manager (or asset's address if asset doesn't have manager)\r\n    */\r\n    function addAsset(address asset, address manager) external override onlyWhitelistedContracts {\r\n        require(asset != address(0), \"Marketplace: invalid asset address\");\r\n        require(manager != address(0), \"Marketplace: invalid manager address\");\r\n        require(assetManagers[asset] == address(0), \"Marketplace: already added this asset\");\r\n\r\n        assetManagers[asset] = manager;\r\n\r\n        emit AddedAsset(asset, block.timestamp);\r\n    }\r\n\r\n    /**\r\n    * @dev Adds a new whitelisted contract\r\n    * @notice Meant to be called by Marketplace contract deployer\r\n    * @param contractAddress Address of contract to add\r\n    */\r\n    function addWhitelistedContract(address contractAddress) external onlyOwner {\r\n        require(contractAddress != address(0), \"Invalid contract address\");\r\n        require(!whitelistedContracts[contractAddress], \"Contract already added\");\r\n\r\n        whitelistedContracts[contractAddress] = true;\r\n\r\n        emit AddedWhitelistedContract(contractAddress, block.timestamp);\r\n    }\r\n\r\n    /* ========== INTERNAL FUNCTIONS ========== */\r\n\r\n    /**\r\n    * @dev Moves the last marketplace listing to the specified index\r\n    * @dev Updates state variables for caller and last listing's seller\r\n    * @param caller Address of user to remove listing from\r\n    * @param asset Address of the token for sale\r\n    * @param index Index of the marketplace listing in the asset's listings array\r\n    */\r\n    function _removeListing(address caller, address asset, uint index) internal {\r\n        MarketplaceListing memory lastListing = marketplaceListings[numberOfMarketplaceListings];\r\n\r\n        marketplaceListings[index] = MarketplaceListing(lastListing.asset, lastListing.seller, lastListing.tokenClass, lastListing.numberOfTokens, lastListing.price);\r\n        userToListingIndex[asset][caller] = 0;\r\n        userToListingIndex[lastListing.asset][lastListing.seller] = (index == numberOfMarketplaceListings) ? numberOfMarketplaceListings.sub(1) : index;\r\n        delete marketplaceListings[numberOfMarketplaceListings];\r\n        numberOfMarketplaceListings = numberOfMarketplaceListings.sub(1);\r\n    }\r\n\r\n    /* ========== MODIFIERS ========== */\r\n\r\n    modifier indexInRange(uint index) {\r\n        require(index > 0 &&\r\n                index <= numberOfMarketplaceListings,\r\n                \"Marketplace: Index out of range\");\r\n        _;\r\n    }\r\n\r\n    modifier onlySeller(address asset, uint index) {\r\n        require(index == userToListingIndex[asset][msg.sender],\r\n                \"Marketplace: Only the seller can call this function\");\r\n        _;\r\n    }\r\n\r\n    modifier onlyWhitelistedContracts() {\r\n        require(whitelistedContracts[msg.sender],\r\n                \"Marketplace: Only whitelisted contract can call this function\");\r\n        _;\r\n    }\r\n\r\n    modifier isValidAsset(address asset) {\r\n        require(asset != address(0) &&\r\n                assetManagers[asset] != address(0), \r\n                \"Marketplace: Invalid asset\");\r\n        _;\r\n    }\r\n}",
  "sourcePath": "C:/Users/xavie/OneDrive/Desktop/TradeGen/Github/tradegen-protocol/contracts/Marketplace.sol",
  "compiler": {
    "name": "solc",
    "version": "0.7.6+commit.7338295f.Emscripten.clang"
  },
  "schemaVersion": "3.4.1",
  "updatedAt": "2021-09-26T18:16:47.535Z",
  "devdoc": {
    "kind": "dev",
    "methods": {
      "addAsset(address,address)": {
        "details": "Adds a new sellable asset to the marketplace",
        "params": {
          "asset": "Address of the asset to add",
          "manager": "Address of the asset's manager (or asset's address if asset doesn't have manager)"
        }
      },
      "addWhitelistedContract(address)": {
        "details": "Adds a new whitelisted contract",
        "params": {
          "contractAddress": "Address of contract to add"
        }
      },
      "createListing(address,uint256,uint256,uint256)": {
        "details": "Creates a new marketplace listing with the given price and quantity",
        "params": {
          "asset": "Address of the token for sale",
          "numberOfTokens": "Number of tokens to sell",
          "price": "USD per token",
          "tokenClass": "The class of the asset's token"
        }
      },
      "getListingIndex(address,address)": {
        "details": "Given the address of a user and an asset, returns the index of the marketplace listing",
        "params": {
          "asset": "Address of the asset",
          "user": "Address of the user"
        },
        "returns": {
          "_0": "uint Index of the user's marketplace listing"
        }
      },
      "getMarketplaceListing(uint256)": {
        "details": "Given the index of a marketplace listing, returns the listing's data",
        "params": {
          "index": "Index of the marketplace listing"
        },
        "returns": {
          "_0": "(address, address, uint, uint, uint) Asset for sale, address of the seller, asset's token class, number of tokens for sale, USD per token"
        }
      },
      "isOwner()": {
        "returns": {
          "_0": "true if `msg.sender` is the owner of the contract."
        }
      },
      "owner()": {
        "returns": {
          "_0": "the address of the owner."
        }
      },
      "purchase(address,uint256,uint256)": {
        "details": "Purchases the specified number of tokens from the marketplace listing",
        "params": {
          "asset": "Address of the token for sale",
          "index": "Index of the marketplace listing in the asset's listings array",
          "numberOfTokens": "Number of tokens to purchase"
        }
      },
      "removeListing(address,uint256)": {
        "details": "Removes the marketplace listing at the given index",
        "params": {
          "asset": "Address of the token for sale",
          "index": "Index of the marketplace listing in the asset's listings array"
        }
      },
      "renounceOwnership()": {
        "details": "Allows the current owner to relinquish control of the contract."
      },
      "transferOwnership(address)": {
        "details": "Allows the current owner to transfer control of the contract to a newOwner.",
        "params": {
          "newOwner": "The address to transfer ownership to."
        }
      },
      "updatePrice(address,uint256,uint256)": {
        "details": "Updates the price of the given marketplace listing",
        "params": {
          "asset": "Address of the token for sale",
          "index": "Index of the marketplace listing in the asset's listings array",
          "newPrice": "USD per token"
        }
      },
      "updateQuantity(address,uint256,uint256)": {
        "details": "Updates the number of tokens for sale of the given marketplace listing",
        "params": {
          "asset": "Address of the token for sale",
          "index": "Index of the marketplace listing in the asset's listings array",
          "newQuantity": "Number of tokens to sell"
        }
      }
    },
    "version": 1
  },
  "userdoc": {
    "kind": "user",
    "methods": {
      "addAsset(address,address)": {
        "notice": "Meant to be called by whitelisted contractSet 'manager' to asset address if asset doesn't have manager"
      },
      "addWhitelistedContract(address)": {
        "notice": "Meant to be called by Marketplace contract deployer"
      },
      "getListingIndex(address,address)": {
        "notice": "Returns 0 if user doesn't have a listing in the given asset"
      },
      "renounceOwnership()": {
        "notice": "Renouncing to ownership will leave the contract without an owner. It will not be possible to call the functions with the `onlyOwner` modifier anymore."
      }
    },
    "version": 1
  }
}