{
  "contractName": "NFTPoolFactory",
  "abi": [
    {
      "inputs": [
        {
          "internalType": "contract IAddressResolver",
          "name": "addressResolver",
          "type": "address"
        }
      ],
      "stateMutability": "nonpayable",
      "type": "constructor"
    },
    {
      "anonymous": false,
      "inputs": [
        {
          "indexed": true,
          "internalType": "address",
          "name": "managerAddress",
          "type": "address"
        },
        {
          "indexed": true,
          "internalType": "address",
          "name": "poolAddress",
          "type": "address"
        },
        {
          "indexed": false,
          "internalType": "uint256",
          "name": "poolIndex",
          "type": "uint256"
        },
        {
          "indexed": false,
          "internalType": "uint256",
          "name": "timestamp",
          "type": "uint256"
        }
      ],
      "name": "CreatedNFTPool",
      "type": "event"
    },
    {
      "inputs": [],
      "name": "ADDRESS_RESOLVER",
      "outputs": [
        {
          "internalType": "contract IAddressResolver",
          "name": "",
          "type": "address"
        }
      ],
      "stateMutability": "view",
      "type": "function"
    },
    {
      "inputs": [
        {
          "internalType": "address",
          "name": "",
          "type": "address"
        }
      ],
      "name": "addressToIndex",
      "outputs": [
        {
          "internalType": "uint256",
          "name": "",
          "type": "uint256"
        }
      ],
      "stateMutability": "view",
      "type": "function"
    },
    {
      "inputs": [
        {
          "internalType": "uint256",
          "name": "",
          "type": "uint256"
        }
      ],
      "name": "pools",
      "outputs": [
        {
          "internalType": "address",
          "name": "",
          "type": "address"
        }
      ],
      "stateMutability": "view",
      "type": "function"
    },
    {
      "inputs": [
        {
          "internalType": "address",
          "name": "",
          "type": "address"
        },
        {
          "internalType": "uint256",
          "name": "",
          "type": "uint256"
        }
      ],
      "name": "userToManagedPools",
      "outputs": [
        {
          "internalType": "uint256",
          "name": "",
          "type": "uint256"
        }
      ],
      "stateMutability": "view",
      "type": "function"
    },
    {
      "inputs": [
        {
          "internalType": "address",
          "name": "user",
          "type": "address"
        }
      ],
      "name": "getUserManagedPools",
      "outputs": [
        {
          "internalType": "address[]",
          "name": "",
          "type": "address[]"
        }
      ],
      "stateMutability": "view",
      "type": "function"
    },
    {
      "inputs": [],
      "name": "getAvailablePools",
      "outputs": [
        {
          "internalType": "address[]",
          "name": "",
          "type": "address[]"
        }
      ],
      "stateMutability": "view",
      "type": "function"
    },
    {
      "inputs": [
        {
          "internalType": "string",
          "name": "poolName",
          "type": "string"
        },
        {
          "internalType": "uint256",
          "name": "maxSupply",
          "type": "uint256"
        },
        {
          "internalType": "uint256",
          "name": "seedPrice",
          "type": "uint256"
        }
      ],
      "name": "createPool",
      "outputs": [],
      "stateMutability": "nonpayable",
      "type": "function"
    }
  ],
  "bytecode": "0x60a060405234801561001057600080fd5b506040516174223803806174228339818101604052602081101561003357600080fd5b81019080805190602001909291905050508073ffffffffffffffffffffffffffffffffffffffff1660808173ffffffffffffffffffffffffffffffffffffffff1660601b815250505060805160601c61737a6100a86000398061045052806104765280610bdc5280610e14525061737a6000f3fe608060405234801561001057600080fd5b506004361061007d5760003560e01c80639b6c52831161005b5780639b6c528314610177578063ac4afa3814610246578063e48f93781461029e578063f667e0aa146103375761007d565b80637517f183146100825780637a0b32ac146100e1578063981f3b8e14610143575b600080fd5b61008a61038f565b6040518080602001828103825283818151815260200191508051906020019060200280838360005b838110156100cd5780820151818401526020810190506100b2565b505050509050019250505060405180910390f35b61012d600480360360408110156100f757600080fd5b81019080803573ffffffffffffffffffffffffffffffffffffffff1690602001909291908035906020019092919050505061041d565b6040518082815260200191505060405180910390f35b61014b61044e565b604051808273ffffffffffffffffffffffffffffffffffffffff16815260200191505060405180910390f35b6102446004803603606081101561018d57600080fd5b81019080803590602001906401000000008111156101aa57600080fd5b8201836020820111156101bc57600080fd5b803590602001918460018302840111640100000000831117156101de57600080fd5b91908080601f016020809104026020016040519081016040528093929190818152602001838380828437600081840152601f19601f8201169050808301925050505050505091929192908035906020019092919080359060200190929190505050610472565b005b6102726004803603602081101561025c57600080fd5b8101908080359060200190929190505050611012565b604051808273ffffffffffffffffffffffffffffffffffffffff16815260200191505060405180910390f35b6102e0600480360360208110156102b457600080fd5b81019080803573ffffffffffffffffffffffffffffffffffffffff169060200190929190505050611051565b6040518080602001828103825283818151815260200191508051906020019060200280838360005b83811015610323578082015181840152602081019050610308565b505050509050019250505060405180910390f35b6103796004803603602081101561034d57600080fd5b81019080803573ffffffffffffffffffffffffffffffffffffffff1690602001909291905050506112d0565b6040518082815260200191505060405180910390f35b6060600080548060200260200160405190810160405280929190818152602001828054801561041357602002820191906000526020600020905b8160009054906101000a900473ffffffffffffffffffffffffffffffffffffffff1673ffffffffffffffffffffffffffffffffffffffff16815260200190600101908083116103c9575b5050505050905090565b6001602052816000526040600020818154811061043957600080fd5b90600052602060002001600091509150505481565b7f000000000000000000000000000000000000000000000000000000000000000081565b60007f000000000000000000000000000000000000000000000000000000000000000073ffffffffffffffffffffffffffffffffffffffff166304433bbc6040518163ffffffff1660e01b81526004018080602001828103825260088152602001807f53657474696e677300000000000000000000000000000000000000000000000081525060200191505060206040518083038186803b15801561051657600080fd5b505afa15801561052a573d6000803e3d6000fd5b505050506040513d602081101561054057600080fd5b8101908080519060200190929190505050905060008173ffffffffffffffffffffffffffffffffffffffff166328a2176f6040518163ffffffff1660e01b815260040180806020018281038252601c8152602001807f4d6178696d756d4e756d6265724f664e4654506f6f6c546f6b656e730000000081525060200191505060206040518083038186803b1580156105d757600080fd5b505afa1580156105eb573d6000803e3d6000fd5b505050506040513d602081101561060157600080fd5b8101908080519060200190929190505050905060008273ffffffffffffffffffffffffffffffffffffffff166328a2176f6040518163ffffffff1660e01b815260040180806020018281038252601c8152602001807f4d696e696d756d4e756d6265724f664e4654506f6f6c546f6b656e730000000081525060200191505060206040518083038186803b15801561069857600080fd5b505afa1580156106ac573d6000803e3d6000fd5b505050506040513d60208110156106c257600080fd5b8101908080519060200190929190505050905060008373ffffffffffffffffffffffffffffffffffffffff166328a2176f6040518163ffffffff1660e01b81526004018080602001828103825260178152602001807f4d6178696d756d4e4654506f6f6c53656564507269636500000000000000000081525060200191505060206040518083038186803b15801561075957600080fd5b505afa15801561076d573d6000803e3d6000fd5b505050506040513d602081101561078357600080fd5b8101908080519060200190929190505050905060008473ffffffffffffffffffffffffffffffffffffffff166328a2176f6040518163ffffffff1660e01b81526004018080602001828103825260178152602001807f4d696e696d756d4e4654506f6f6c53656564507269636500000000000000000081525060200191505060206040518083038186803b15801561081a57600080fd5b505afa15801561082e573d6000803e3d6000fd5b505050506040513d602081101561084457600080fd5b8101908080519060200190929190505050905060008573ffffffffffffffffffffffffffffffffffffffff166328a2176f6040518163ffffffff1660e01b815260040180806020018281038252601b8152602001807f4d6178696d756d4e756d6265724f66506f6f6c7350657255736572000000000081525060200191505060206040518083038186803b1580156108db57600080fd5b505afa1580156108ef573d6000803e3d6000fd5b505050506040513d602081101561090557600080fd5b810190808051906020019092919050505090506028895110610972576040517f08c379a000000000000000000000000000000000000000000000000000000000815260040180806020018281038252602b81526020018061726f602b913960400191505060405180910390fd5b848811156109e8576040517f08c379a000000000000000000000000000000000000000000000000000000000815260040180806020018281038252601c8152602001807f43616e6e6f7420657863656564206d617820737570706c79206361700000000081525060200191505060405180910390fd5b83881015610a41576040517f08c379a00000000000000000000000000000000000000000000000000000000081526004018080602001828103825260248152602001806172c56024913960400191505060405180910390fd5b81871015610a9a576040517f08c379a000000000000000000000000000000000000000000000000000000000815260040180806020018281038252602e815260200180617317602e913960400191505060405180910390fd5b82871115610af3576040517f08c379a000000000000000000000000000000000000000000000000000000000815260040180806020018281038252602b81526020018061729a602b913960400191505060405180910390fd5b80600160003373ffffffffffffffffffffffffffffffffffffffff1673ffffffffffffffffffffffffffffffffffffffff1681526020019081526020016000208054905010610b8d576040517f08c379a000000000000000000000000000000000000000000000000000000000815260040180806020018281038252602e8152602001806172e9602e913960400191505060405180910390fd5b6000604051610b9b906112e8565b604051809103906000f080158015610bb7573d6000803e3d6000fd5b5090508073ffffffffffffffffffffffffffffffffffffffff166305c4bb248b8a8c337f00000000000000000000000000000000000000000000000000000000000000006040518663ffffffff1660e01b815260040180806020018681526020018581526020018473ffffffffffffffffffffffffffffffffffffffff1681526020018373ffffffffffffffffffffffffffffffffffffffff168152602001828103825287818151815260200191508051906020019080838360005b83811015610c8e578082015181840152602081019050610c73565b50505050905090810190601f168015610cbb5780820380516001836020036101000a031916815260200191505b509650505050505050600060405180830381600087803b158015610cde57600080fd5b505af1158015610cf2573d6000803e3d6000fd5b505050506000819080600181540180825580915050600190039060005260206000200160009091909190916101000a81548173ffffffffffffffffffffffffffffffffffffffff021916908373ffffffffffffffffffffffffffffffffffffffff160217905550600160003373ffffffffffffffffffffffffffffffffffffffff1673ffffffffffffffffffffffffffffffffffffffff1681526020019081526020016000206001600080549050039080600181540180825580915050600190039060005260206000200160009091909190915055600080549050600260008373ffffffffffffffffffffffffffffffffffffffff1673ffffffffffffffffffffffffffffffffffffffff1681526020019081526020016000208190555060007f000000000000000000000000000000000000000000000000000000000000000073ffffffffffffffffffffffffffffffffffffffff166304433bbc6040518163ffffffff1660e01b815260040180806020018281038252600b8152602001807f4d61726b6574706c61636500000000000000000000000000000000000000000081525060200191505060206040518083038186803b158015610eb457600080fd5b505afa158015610ec8573d6000803e3d6000fd5b505050506040513d6020811015610ede57600080fd5b810190808051906020019092919050505090508073ffffffffffffffffffffffffffffffffffffffff1663da48999783336040518363ffffffff1660e01b8152600401808373ffffffffffffffffffffffffffffffffffffffff1681526020018273ffffffffffffffffffffffffffffffffffffffff16815260200192505050600060405180830381600087803b158015610f7857600080fd5b505af1158015610f8c573d6000803e3d6000fd5b505050508173ffffffffffffffffffffffffffffffffffffffff163373ffffffffffffffffffffffffffffffffffffffff167f11cca2d06a4daac2dd952abbce2a5bff0554129b4245f4cbf2c696269d88e4c460016000805490500342604051808381526020018281526020019250505060405180910390a35050505050505050505050565b6000818154811061102257600080fd5b906000526020600020016000915054906101000a900473ffffffffffffffffffffffffffffffffffffffff1681565b6060600073ffffffffffffffffffffffffffffffffffffffff168273ffffffffffffffffffffffffffffffffffffffff1614156110f6576040517f08c379a000000000000000000000000000000000000000000000000000000000815260040180806020018281038252600f8152602001807f496e76616c69642061646472657373000000000000000000000000000000000081525060200191505060405180910390fd5b6000600160008473ffffffffffffffffffffffffffffffffffffffff1673ffffffffffffffffffffffffffffffffffffffff1681526020019081526020016000208054905067ffffffffffffffff8111801561115157600080fd5b506040519080825280602002602001820160405280156111805781602001602082028036833780820191505090505b5090506000600160008573ffffffffffffffffffffffffffffffffffffffff1673ffffffffffffffffffffffffffffffffffffffff16815260200190815260200160002080548060200260200160405190810160405280929190818152602001828054801561120e57602002820191906000526020600020905b8154815260200190600101908083116111fa575b5050505050905060005b82518110156112c557600082828151811061122f57fe5b602002602001015190506000818154811061124657fe5b9060005260206000200160009054906101000a900473ffffffffffffffffffffffffffffffffffffffff1684838151811061127d57fe5b602002602001019073ffffffffffffffffffffffffffffffffffffffff16908173ffffffffffffffffffffffffffffffffffffffff1681525050508080600101915050611218565b508192505050919050565b60026020528060005260406000206000915090505481565b615f79806112f68339019056fe608060405234801561001057600080fd5b5033600160006101000a81548173ffffffffffffffffffffffffffffffffffffffff021916908373ffffffffffffffffffffffffffffffffffffffff1602179055506000600160146101000a81548160ff021916908315150217905550615efc806200007d6000396000f3fe608060405234801561001057600080fd5b50600436106101ee5760003560e01c80636ca0f8141161010f578063b24c13a6116100a2578063d5abeb0111610071578063d5abeb01146105a5578063d9799809146105c3578063e3d670d7146105df578063e9fad8ee1461060f576101ee565b8063b24c13a614610517578063b6b55f2514610535578063b927924a14610551578063ca6c13c514610584576101ee565b8063981f3b8e116100de578063981f3b8e1461049d5780639db32353146104bb578063a1a76248146104d9578063ac08c574146104f7576101ee565b80636ca0f814146104155780637e34cd3d146104315780637ff9b5961461044f57806395d4e5da1461046d576101ee565b80632ed8e0d411610187578063481c6a7511610156578063481c6a751461038b5780635195bd29146103a95780635cb035ad146103c757806364dc772b146103f7576101ee565b80632ed8e0d41461031757806336e9332d14610347578063441a3e701461036557806347b339ca14610381576101ee565b806306fdde03116101c357806306fdde031461028d57806318160ddd146102ab5780631ba2f531146102c95780632322e3b9146102e7576101ee565b80626f5e0a146101f3578062fdd58e146102115780630411b2521461024157806305c4bb2414610271575b600080fd5b6101fb610619565b6040516102089190615af7565b60405180910390f35b61022b60048036038101906102269190614a92565b61061f565b6040516102389190615af7565b60405180910390f35b61025b60048036038101906102569190614964565b610644565b604051610268919061579f565b60405180910390f35b61028b60048036038101906102869190614b9a565b610ab9565b005b610295610dcc565b6040516102a291906157d5565b60405180910390f35b6102b3610e6a565b6040516102c09190615af7565b60405180910390f35b6102d1610e70565b6040516102de9190615af7565b60405180910390f35b61030160048036038101906102fc91906148d6565b610f94565b60405161030e9190615af7565b60405180910390f35b610331600480360381019061032c9190614c29565b611094565b60405161033e91906155aa565b60405180910390f35b61034f6110c7565b60405161035c91906155aa565b60405180910390f35b61037f600480360381019061037a9190614c7b565b6110ed565b005b610389611ca2565b005b610393611d96565b6040516103a091906155aa565b60405180910390f35b6103b1611dbc565b6040516103be9190615af7565b60405180910390f35b6103e160048036038101906103dc91906148d6565b611f7a565b6040516103ee9190615af7565b60405180910390f35b6103ff611f92565b60405161040c9190615af7565b60405180910390f35b61042f600480360381019061042a9190614a3e565b611f98565b005b61043961266a565b6040516104469190615af7565b60405180910390f35b610457612670565b6040516104649190615af7565b60405180910390f35b61048760048036038101906104829190614928565b61268c565b6040516104949190615af7565b60405180910390f35b6104a5612949565b6040516104b291906157ba565b60405180910390f35b6104c361296d565b6040516104d09190615af7565b60405180910390f35b6104e1612973565b6040516104ee9190615af7565b60405180910390f35b6104ff612979565b60405161050e9392919061575a565b60405180910390f35b61051f612e67565b60405161052c9190615af7565b60405180910390f35b61054f600480360381019061054a9190614c29565b612e6d565b005b61056b600480360381019061056691906148d6565b6131da565b60405161057b9493929190615baa565b60405180910390f35b61058c6133a7565b60405161059c9493929190615baa565b60405180910390f35b6105ad6133c7565b6040516105ba9190615af7565b60405180910390f35b6105dd60048036038101906105d891906148d6565b6133cd565b005b6105f960048036038101906105f491906148d6565b613525565b6040516106069190615af7565b60405180910390f35b61061761353d565b005b60095481565b600c602052816000526040600020602052806000526040600020600091509150505481565b60008060009054906101000a900473ffffffffffffffffffffffffffffffffffffffff1673ffffffffffffffffffffffffffffffffffffffff166304433bbc6040518163ffffffff1660e01b815260040161069e90615977565b60206040518083038186803b1580156106b657600080fd5b505afa1580156106ca573d6000803e3d6000fd5b505050506040513d601f19601f820116820180604052508101906106ee91906148ff565b73ffffffffffffffffffffffffffffffffffffffff163373ffffffffffffffffffffffffffffffffffffffff1614806107745750600260009054906101000a900473ffffffffffffffffffffffffffffffffffffffff1673ffffffffffffffffffffffffffffffffffffffff163373ffffffffffffffffffffffffffffffffffffffff16145b6107b3576040517f08c379a00000000000000000000000000000000000000000000000000000000081526004016107aa90615ab7565b60405180910390fd5b81600c60008773ffffffffffffffffffffffffffffffffffffffff1673ffffffffffffffffffffffffffffffffffffffff16815260200190815260200160002060008581526020019081526020016000205410156108145760009050610ab1565b61087782600c60008873ffffffffffffffffffffffffffffffffffffffff1673ffffffffffffffffffffffffffffffffffffffff16815260200190815260200160002060008681526020019081526020016000205461361090919063ffffffff16565b600c60008773ffffffffffffffffffffffffffffffffffffffff1673ffffffffffffffffffffffffffffffffffffffff16815260200190815260200160002060008581526020019081526020016000208190555061092e82600c60008773ffffffffffffffffffffffffffffffffffffffff1673ffffffffffffffffffffffffffffffffffffffff16815260200190815260200160002060008681526020019081526020016000205461362790919063ffffffff16565b600c60008673ffffffffffffffffffffffffffffffffffffffff1673ffffffffffffffffffffffffffffffffffffffff1681526020019081526020016000206000858152602001908152602001600020819055506109d482600b60008873ffffffffffffffffffffffffffffffffffffffff1673ffffffffffffffffffffffffffffffffffffffff1681526020019081526020016000205461361090919063ffffffff16565b600b60008773ffffffffffffffffffffffffffffffffffffffff1673ffffffffffffffffffffffffffffffffffffffff16815260200190815260200160002081905550610a6982600b60008773ffffffffffffffffffffffffffffffffffffffff1673ffffffffffffffffffffffffffffffffffffffff1681526020019081526020016000205461362790919063ffffffff16565b600b60008673ffffffffffffffffffffffffffffffffffffffff1673ffffffffffffffffffffffffffffffffffffffff16815260200190815260200160002081905550600190505b949350505050565b600160009054906101000a900473ffffffffffffffffffffffffffffffffffffffff1673ffffffffffffffffffffffffffffffffffffffff163373ffffffffffffffffffffffffffffffffffffffff1614610b49576040517f08c379a0000000000000000000000000000000000000000000000000000000008152600401610b4090615877565b60405180910390fd5b600160149054906101000a900460ff1615610b99576040517f08c379a0000000000000000000000000000000000000000000000000000000008152600401610b9090615917565b60405180910390fd5b8460039080519060200190610baf92919061458a565b5081600460006101000a81548173ffffffffffffffffffffffffffffffffffffffff021916908373ffffffffffffffffffffffffffffffffffffffff1602179055508360068190555082600581905550806000806101000a81548173ffffffffffffffffffffffffffffffffffffffff021916908373ffffffffffffffffffffffffffffffffffffffff16021790555060018060146101000a81548160ff0219169083151502179055506001610c826064610c7460058761364390919063ffffffff16565b61367a90919063ffffffff16565b11610c8e576001610cb6565b610cb56064610ca760058661364390919063ffffffff16565b61367a90919063ffffffff16565b5b6007819055506002610ce56064610cd7600a8761364390919063ffffffff16565b61367a90919063ffffffff16565b11610cf1576002610d19565b610d186064610d0a600a8661364390919063ffffffff16565b61367a90919063ffffffff16565b5b6008819055506003610d486064610d3a60148761364390919063ffffffff16565b61367a90919063ffffffff16565b11610d54576003610d7c565b610d7b6064610d6d60148661364390919063ffffffff16565b61367a90919063ffffffff16565b5b600981905550610dbf600754610db1600854610da36009548861361090919063ffffffff16565b61361090919063ffffffff16565b61361090919063ffffffff16565b600a819055505050505050565b60038054600181600116156101000203166002900480601f016020809104026020016040519081016040528092919081815260200182805460018160011615610100020316600290048015610e625780601f10610e3757610100808354040283529160200191610e62565b820191906000526020600020905b815481529060010190602001808311610e4557829003601f168201915b505050505081565b600d5481565b60008060008054906101000a900473ffffffffffffffffffffffffffffffffffffffff1673ffffffffffffffffffffffffffffffffffffffff166304433bbc6040518163ffffffff1660e01b8152600401610eca906159f7565b60206040518083038186803b158015610ee257600080fd5b505afa158015610ef6573d6000803e3d6000fd5b505050506040513d601f19601f82011682018060405250810190610f1a91906148ff565b9050600080600190505b600f548111610f8b57610f7c610f6d600e600084815260200190815260200160002060009054906101000a900473ffffffffffffffffffffffffffffffffffffffff168561268c565b8361362790919063ffffffff16565b91508080600101915050610f24565b50809250505090565b60008073ffffffffffffffffffffffffffffffffffffffff168273ffffffffffffffffffffffffffffffffffffffff161415611005576040517f08c379a0000000000000000000000000000000000000000000000000000000008152600401610ffc906157f7565b60405180910390fd5b6000600d541415611019576000905061108f565b6000611023610e70565b905061108b600d5461107d600b60008773ffffffffffffffffffffffffffffffffffffffff1673ffffffffffffffffffffffffffffffffffffffff168152602001908152602001600020548461364390919063ffffffff16565b61367a90919063ffffffff16565b9150505b919050565b600e6020528060005260406000206000915054906101000a900473ffffffffffffffffffffffffffffffffffffffff1681565b600260009054906101000a900473ffffffffffffffffffffffffffffffffffffffff1681565b60008060009054906101000a900473ffffffffffffffffffffffffffffffffffffffff1673ffffffffffffffffffffffffffffffffffffffff166304433bbc6040518163ffffffff1660e01b815260040161114790615977565b60206040518083038186803b15801561115f57600080fd5b505afa158015611173573d6000803e3d6000fd5b505050506040513d601f19601f8201168201806040525081019061119791906148ff565b905060008173ffffffffffffffffffffffffffffffffffffffff16639319a26833306040518363ffffffff1660e01b81526004016111d69291906155c5565b60206040518083038186803b1580156111ee57600080fd5b505afa158015611202573d6000803e3d6000fd5b505050506040513d601f19601f820116820180604052508101906112269190614c52565b90506000831180156112385750600583105b611277576040517f08c379a000000000000000000000000000000000000000000000000000000000815260040161126e90615a17565b60405180910390fd5b600084116112ba576040517f08c379a00000000000000000000000000000000000000000000000000000000081526004016112b1906159b7565b60405180910390fd5b600c60003373ffffffffffffffffffffffffffffffffffffffff1673ffffffffffffffffffffffffffffffffffffffff16815260200190815260200160002060008481526020019081526020016000205484111561134d576040517f08c379a000000000000000000000000000000000000000000000000000000000815260040161134490615a77565b60405180910390fd5b600081111561149a576000808373ffffffffffffffffffffffffffffffffffffffff1663d5a87ecb846040518263ffffffff1660e01b81526004016113929190615af7565b60a06040518083038186803b1580156113aa57600080fd5b505afa1580156113be573d6000803e3d6000fd5b505050506040513d601f19601f820116820180604052508101906113e291906149c7565b50935093505050818514156114975761145481600c60003373ffffffffffffffffffffffffffffffffffffffff1673ffffffffffffffffffffffffffffffffffffffff16815260200190815260200160002060008881526020019081526020016000205461361090919063ffffffff16565b861115611496576040517f08c379a000000000000000000000000000000000000000000000000000000000815260040161148d90615a77565b60405180910390fd5b5b50505b60008060009054906101000a900473ffffffffffffffffffffffffffffffffffffffff1673ffffffffffffffffffffffffffffffffffffffff166304433bbc6040518163ffffffff1660e01b81526004016114f490615a97565b60206040518083038186803b15801561150c57600080fd5b505afa158015611520573d6000803e3d6000fd5b505050506040513d601f19601f8201168201806040525081019061154491906148ff565b73ffffffffffffffffffffffffffffffffffffffff166328a2176f6040518163ffffffff1660e01b815260040161157a90615857565b60206040518083038186803b15801561159257600080fd5b505afa1580156115a6573d6000803e3d6000fd5b505050506040513d601f19601f820116820180604052508101906115ca9190614c52565b905060006115d6610e70565b90506000611609600d546115fb670de0b6b3a76400008a61364390919063ffffffff16565b61367a90919063ffffffff16565b905061165d87600b60003373ffffffffffffffffffffffffffffffffffffffff1673ffffffffffffffffffffffffffffffffffffffff1681526020019081526020016000205461361090919063ffffffff16565b600b60003373ffffffffffffffffffffffffffffffffffffffff1673ffffffffffffffffffffffffffffffffffffffff1681526020019081526020016000208190555061170387600c60003373ffffffffffffffffffffffffffffffffffffffff1673ffffffffffffffffffffffffffffffffffffffff16815260200190815260200160002060008981526020019081526020016000205461361090919063ffffffff16565b600c60003373ffffffffffffffffffffffffffffffffffffffff1673ffffffffffffffffffffffffffffffffffffffff16815260200190815260200160002060008881526020019081526020016000208190555061176c87600d5461361090919063ffffffff16565b600d81905550600186141561179b576117908760075461362790919063ffffffff16565b600781905550611815565b60028614156117c4576117b98760085461362790919063ffffffff16565b600881905550611814565b60038614156117ed576117e28760095461362790919063ffffffff16565b600981905550611813565b60048614156118125761180b87600a5461362790919063ffffffff16565b600a819055505b5b5b5b6000600f5467ffffffffffffffff8111801561183057600080fd5b5060405190808252806020026020018201604052801561185f5781602001602082028036833780820191505090505b5090506000600f5467ffffffffffffffff8111801561187d57600080fd5b506040519080825280602002602001820160405280156118ac5781602001602082028036833780820191505090505b5090506000600f54905060008190505b6000811115611bf6576000611904600e600084815260200190815260200160002060009054906101000a900473ffffffffffffffffffffffffffffffffffffffff1687613693565b90506000811115611be757600e600083815260200190815260200160002060009054906101000a900473ffffffffffffffffffffffffffffffffffffffff1673ffffffffffffffffffffffffffffffffffffffff1663a9059cbb3361198a61271061197c8d612710038761364390919063ffffffff16565b61367a90919063ffffffff16565b6040518363ffffffff1660e01b81526004016119a7929190615625565b602060405180830381600087803b1580156119c157600080fd5b505af11580156119d5573d6000803e3d6000fd5b505050506040513d601f19601f820116820180604052508101906119f99190614b35565b50600e600083815260200190815260200160002060009054906101000a900473ffffffffffffffffffffffffffffffffffffffff1673ffffffffffffffffffffffffffffffffffffffff1663a9059cbb600460009054906101000a900473ffffffffffffffffffffffffffffffffffffffff16611a93612710611a858d8761364390919063ffffffff16565b61367a90919063ffffffff16565b6040518363ffffffff1660e01b8152600401611ab0929190615731565b602060405180830381600087803b158015611aca57600080fd5b505af1158015611ade573d6000803e3d6000fd5b505050506040513d601f19601f82011682018060405250810190611b029190614b35565b50611b2e612710611b208a612710038461364390919063ffffffff16565b61367a90919063ffffffff16565b85611b4360018561361090919063ffffffff16565b81518110611b4d57fe5b602002602001018181525050600e600083815260200190815260200160002060009054906101000a900473ffffffffffffffffffffffffffffffffffffffff1684611ba260018561361090919063ffffffff16565b81518110611bac57fe5b602002602001019073ffffffffffffffffffffffffffffffffffffffff16908173ffffffffffffffffffffffffffffffffffffffff16815250505b508080600190039150506118bc565b506000611c26670de0b6b3a7640000611c18878961364390919063ffffffff16565b61367a90919063ffffffff16565b90503373ffffffffffffffffffffffffffffffffffffffff163073ffffffffffffffffffffffffffffffffffffffff167fca9c598e2bf8dd0778925b490473eac35c5a204479163ef8e311b67e2bf18bbb8d84878942604051611c8d959493929190615b12565b60405180910390a35050505050505050505050565b600460009054906101000a900473ffffffffffffffffffffffffffffffffffffffff1673ffffffffffffffffffffffffffffffffffffffff163373ffffffffffffffffffffffffffffffffffffffff1614611d32576040517f08c379a0000000000000000000000000000000000000000000000000000000008152600401611d29906158b7565b60405180910390fd5b6000600f54905060008190505b6000811115611d9257611d84600e600083815260200190815260200160002060009054906101000a900473ffffffffffffffffffffffffffffffffffffffff16613b1e565b808060019003915050611d3f565b5050565b600460009054906101000a900473ffffffffffffffffffffffffffffffffffffffff1681565b60008060008054906101000a900473ffffffffffffffffffffffffffffffffffffffff1673ffffffffffffffffffffffffffffffffffffffff166304433bbc6040518163ffffffff1660e01b8152600401611e16906159f7565b60206040518083038186803b158015611e2e57600080fd5b505afa158015611e42573d6000803e3d6000fd5b505050506040513d601f19601f82011682018060405250810190611e6691906148ff565b905060008173ffffffffffffffffffffffffffffffffffffffff1663be781b1c6040518163ffffffff1660e01b815260040160206040518083038186803b158015611eb057600080fd5b505afa158015611ec4573d6000803e3d6000fd5b505050506040513d601f19601f82011682018060405250810190611ee891906148ff565b90508073ffffffffffffffffffffffffffffffffffffffff166370a08231306040518263ffffffff1660e01b8152600401611f2391906155aa565b60206040518083038186803b158015611f3b57600080fd5b505afa158015611f4f573d6000803e3d6000fd5b505050506040513d601f19601f82011682018060405250810190611f739190614c52565b9250505090565b60106020528060005260406000206000915090505481565b60085481565b600460009054906101000a900473ffffffffffffffffffffffffffffffffffffffff1673ffffffffffffffffffffffffffffffffffffffff163373ffffffffffffffffffffffffffffffffffffffff1614612028576040517f08c379a000000000000000000000000000000000000000000000000000000000815260040161201f906158b7565b60405180910390fd5b600073ffffffffffffffffffffffffffffffffffffffff168273ffffffffffffffffffffffffffffffffffffffff161415612098576040517f08c379a000000000000000000000000000000000000000000000000000000000815260040161208f90615837565b60405180910390fd5b60008060009054906101000a900473ffffffffffffffffffffffffffffffffffffffff1673ffffffffffffffffffffffffffffffffffffffff16632febaebd846040518263ffffffff1660e01b81526004016120f491906155aa565b60206040518083038186803b15801561210c57600080fd5b505afa158015612120573d6000803e3d6000fd5b505050506040513d601f19601f8201168201806040525081019061214491906148ff565b9050600073ffffffffffffffffffffffffffffffffffffffff168173ffffffffffffffffffffffffffffffffffffffff1614156123ba5760008060009054906101000a900473ffffffffffffffffffffffffffffffffffffffff1673ffffffffffffffffffffffffffffffffffffffff166304433bbc6040518163ffffffff1660e01b81526004016121d5906159f7565b60206040518083038186803b1580156121ed57600080fd5b505afa158015612201573d6000803e3d6000fd5b505050506040513d601f19601f8201168201806040525081019061222591906148ff565b90508073ffffffffffffffffffffffffffffffffffffffff1663059ce95d856040518263ffffffff1660e01b815260040161226091906155aa565b60206040518083038186803b15801561227857600080fd5b505afa15801561228c573d6000803e3d6000fd5b505050506040513d601f19601f820116820180604052508101906122b091906148ff565b9150600073ffffffffffffffffffffffffffffffffffffffff168273ffffffffffffffffffffffffffffffffffffffff16146123b8578073ffffffffffffffffffffffffffffffffffffffff1663cc435bf3856040518263ffffffff1660e01b815260040161231f91906155aa565b60206040518083038186803b15801561233757600080fd5b505afa15801561234b573d6000803e3d6000fd5b505050506040513d601f19601f8201168201806040525081019061236f9190614b35565b6123ae576040517f08c379a00000000000000000000000000000000000000000000000000000000081526004016123a590615ad7565b60405180910390fd5b6123b784613fc3565b5b505b600073ffffffffffffffffffffffffffffffffffffffff168173ffffffffffffffffffffffffffffffffffffffff16141561242a576040517f08c379a0000000000000000000000000000000000000000000000000000000008152600401612421906158d7565b60405180910390fd5b6000808273ffffffffffffffffffffffffffffffffffffffff166339158fdd60008054906101000a900473ffffffffffffffffffffffffffffffffffffffff163088886040518563ffffffff1660e01b815260040161248c9493929190615677565b6040805180830381600087803b1580156124a557600080fd5b505af11580156124b9573d6000803e3d6000fd5b505050506040513d601f19601f820116820180604052508101906124dd9190614b5e565b9150915081612521576040517f08c379a000000000000000000000000000000000000000000000000000000000815260040161251890615a57565b60405180910390fd5b60008573ffffffffffffffffffffffffffffffffffffffff16856040516125489190615593565b6000604051808303816000865af19150503d8060008114612585576040519150601f19603f3d011682016040523d82523d6000602084013e61258a565b606091505b50509050806125ce576040517f08c379a00000000000000000000000000000000000000000000000000000000081526004016125c590615a37565b60405180910390fd5b6125d782613fc3565b600460009054906101000a900473ffffffffffffffffffffffffffffffffffffffff1673ffffffffffffffffffffffffffffffffffffffff163073ffffffffffffffffffffffffffffffffffffffff167f364929c6571ff36e52defb6ccaeb414915ab289117424dfed48cebc0f7d7efda88844260405161265a939291906156fa565b60405180910390a3505050505050565b60065481565b60008061267b610e70565b9050612686816140fe565b91505090565b60008073ffffffffffffffffffffffffffffffffffffffff168373ffffffffffffffffffffffffffffffffffffffff1614156126fd576040517f08c379a00000000000000000000000000000000000000000000000000000000081526004016126f490615937565b60405180910390fd5b600073ffffffffffffffffffffffffffffffffffffffff168273ffffffffffffffffffffffffffffffffffffffff16141561276d576040517f08c379a000000000000000000000000000000000000000000000000000000000815260040161276490615957565b60405180910390fd5b60008273ffffffffffffffffffffffffffffffffffffffff16638b2f0f4f856040518263ffffffff1660e01b81526004016127a891906155aa565b60206040518083038186803b1580156127c057600080fd5b505afa1580156127d4573d6000803e3d6000fd5b505050506040513d601f19601f820116820180604052508101906127f89190614c52565b905060008373ffffffffffffffffffffffffffffffffffffffff1663cf54aaa0866040518263ffffffff1660e01b815260040161283591906155aa565b60206040518083038186803b15801561284d57600080fd5b505afa158015612861573d6000803e3d6000fd5b505050506040513d601f19601f820116820180604052508101906128859190614c52565b905060008473ffffffffffffffffffffffffffffffffffffffff1663d4fac45d30886040518363ffffffff1660e01b81526004016128c492919061564e565b60206040518083038186803b1580156128dc57600080fd5b505afa1580156128f0573d6000803e3d6000fd5b505050506040513d601f19601f820116820180604052508101906129149190614c52565b905061293e82600a0a612930858461364390919063ffffffff16565b61367a90919063ffffffff16565b935050505092915050565b60008054906101000a900473ffffffffffffffffffffffffffffffffffffffff1681565b600f5481565b60075481565b60608060008060008054906101000a900473ffffffffffffffffffffffffffffffffffffffff1673ffffffffffffffffffffffffffffffffffffffff166304433bbc6040518163ffffffff1660e01b81526004016129d6906159f7565b60206040518083038186803b1580156129ee57600080fd5b505afa158015612a02573d6000803e3d6000fd5b505050506040513d601f19601f82011682018060405250810190612a2691906148ff565b90506000600f5467ffffffffffffffff81118015612a4357600080fd5b50604051908082528060200260200182016040528015612a725781602001602082028036833780820191505090505b5090506000600f5467ffffffffffffffff81118015612a9057600080fd5b50604051908082528060200260200182016040528015612abf5781602001602082028036833780820191505090505b509050600080600090505b600f54811015612e54578473ffffffffffffffffffffffffffffffffffffffff1663d4fac45d30600e6000612b0960018761362790919063ffffffff16565b815260200190815260200160002060009054906101000a900473ffffffffffffffffffffffffffffffffffffffff166040518363ffffffff1660e01b8152600401612b5592919061564e565b60206040518083038186803b158015612b6d57600080fd5b505afa158015612b81573d6000803e3d6000fd5b505050506040513d601f19601f82011682018060405250810190612ba59190614c52565b838281518110612bb157fe5b602002602001018181525050600e6000612bd560018461362790919063ffffffff16565b815260200190815260200160002060009054906101000a900473ffffffffffffffffffffffffffffffffffffffff16848281518110612c1057fe5b602002602001019073ffffffffffffffffffffffffffffffffffffffff16908173ffffffffffffffffffffffffffffffffffffffff168152505060008573ffffffffffffffffffffffffffffffffffffffff1663cf54aaa0600e6000612c8060018761362790919063ffffffff16565b815260200190815260200160002060009054906101000a900473ffffffffffffffffffffffffffffffffffffffff166040518263ffffffff1660e01b8152600401612ccb91906155aa565b60206040518083038186803b158015612ce357600080fd5b505afa158015612cf7573d6000803e3d6000fd5b505050506040513d601f19601f82011682018060405250810190612d1b9190614c52565b905060008673ffffffffffffffffffffffffffffffffffffffff16638b2f0f4f600e6000612d5360018861362790919063ffffffff16565b815260200190815260200160002060009054906101000a900473ffffffffffffffffffffffffffffffffffffffff166040518263ffffffff1660e01b8152600401612d9e91906155aa565b60206040518083038186803b158015612db657600080fd5b505afa158015612dca573d6000803e3d6000fd5b505050506040513d601f19601f82011682018060405250810190612dee9190614c52565b90506000612e2d83600a0a612e1f84898881518110612e0957fe5b602002602001015161364390919063ffffffff16565b61367a90919063ffffffff16565b9050612e42818661362790919063ffffffff16565b94505050508080600101915050612aca565b5082828296509650965050505050909192565b600a5481565b600081118015612e935750600554612e9082600d5461362790919063ffffffff16565b11155b612ed2576040517f08c379a0000000000000000000000000000000000000000000000000000000008152600401612ec990615897565b60405180910390fd5b60008060009054906101000a900473ffffffffffffffffffffffffffffffffffffffff1673ffffffffffffffffffffffffffffffffffffffff166304433bbc6040518163ffffffff1660e01b8152600401612f2c906159f7565b60206040518083038186803b158015612f4457600080fd5b505afa158015612f58573d6000803e3d6000fd5b505050506040513d601f19601f82011682018060405250810190612f7c91906148ff565b73ffffffffffffffffffffffffffffffffffffffff1663be781b1c6040518163ffffffff1660e01b815260040160206040518083038186803b158015612fc157600080fd5b505afa158015612fd5573d6000803e3d6000fd5b505050506040513d601f19601f82011682018060405250810190612ff991906148ff565b9050600061301783613009612670565b61364390919063ffffffff16565b905061306b83600b60003373ffffffffffffffffffffffffffffffffffffffff1673ffffffffffffffffffffffffffffffffffffffff1681526020019081526020016000205461362790919063ffffffff16565b600b60003373ffffffffffffffffffffffffffffffffffffffff1673ffffffffffffffffffffffffffffffffffffffff168152602001908152602001600020819055506130c383600d5461362790919063ffffffff16565b600d819055506130d3338461412c565b8173ffffffffffffffffffffffffffffffffffffffff166323b872dd3330846040518463ffffffff1660e01b8152600401613110939291906155ee565b602060405180830381600087803b15801561312a57600080fd5b505af115801561313e573d6000803e3d6000fd5b505050506040513d601f19601f820116820180604052508101906131629190614b35565b5061316c82613fc3565b3373ffffffffffffffffffffffffffffffffffffffff163073ffffffffffffffffffffffffffffffffffffffff167f4e2ca0515ed1aef1395f66b5303bb5d6f1bf9d61a353fa53f73f8ac9973fa9f68584426040516131cd93929190615b73565b60405180910390a3505050565b600080600080600073ffffffffffffffffffffffffffffffffffffffff168573ffffffffffffffffffffffffffffffffffffffff161415613250576040517f08c379a000000000000000000000000000000000000000000000000000000000815260040161324790615817565b60405180910390fd5b600c60008673ffffffffffffffffffffffffffffffffffffffff1673ffffffffffffffffffffffffffffffffffffffff16815260200190815260200160002060006001815260200190815260200160002054600c60008773ffffffffffffffffffffffffffffffffffffffff1673ffffffffffffffffffffffffffffffffffffffff16815260200190815260200160002060006002815260200190815260200160002054600c60008873ffffffffffffffffffffffffffffffffffffffff1673ffffffffffffffffffffffffffffffffffffffff16815260200190815260200160002060006003815260200190815260200160002054600c60008973ffffffffffffffffffffffffffffffffffffffff1673ffffffffffffffffffffffffffffffffffffffff1681526020019081526020016000206000600481526020019081526020016000205493509350935093509193509193565b600080600080600754600854600954600a54935093509350935090919293565b60055481565b60008054906101000a900473ffffffffffffffffffffffffffffffffffffffff1673ffffffffffffffffffffffffffffffffffffffff166304433bbc6040518163ffffffff1660e01b8152600401613424906158f7565b60206040518083038186803b15801561343c57600080fd5b505afa158015613450573d6000803e3d6000fd5b505050506040513d601f19601f8201168201806040525081019061347491906148ff565b73ffffffffffffffffffffffffffffffffffffffff163373ffffffffffffffffffffffffffffffffffffffff16146134e1576040517f08c379a00000000000000000000000000000000000000000000000000000000081526004016134d890615997565b60405180910390fd5b80600260006101000a81548173ffffffffffffffffffffffffffffffffffffffff021916908373ffffffffffffffffffffffffffffffffffffffff16021790555050565b600b6020528060005260406000206000915090505481565b6000600190505b6004811161360d576000600c60003373ffffffffffffffffffffffffffffffffffffffff1673ffffffffffffffffffffffffffffffffffffffff1681526020019081526020016000206000838152602001908152602001600020541115613600576135ff600c60003373ffffffffffffffffffffffffffffffffffffffff1673ffffffffffffffffffffffffffffffffffffffff168152602001908152602001600020600083815260200190815260200160002054826110ed565b5b8080600101915050613544565b50565b60008282111561361c57fe5b818303905092915050565b60008082840190508381101561363957fe5b8091505092915050565b6000808314156136565760009050613674565b600082840290508284828161366757fe5b041461366f57fe5b809150505b92915050565b60008082848161368657fe5b0490508091505092915050565b60008060008054906101000a900473ffffffffffffffffffffffffffffffffffffffff1673ffffffffffffffffffffffffffffffffffffffff166304433bbc6040518163ffffffff1660e01b81526004016136ed906159f7565b60206040518083038186803b15801561370557600080fd5b505afa158015613719573d6000803e3d6000fd5b505050506040513d601f19601f8201168201806040525081019061373d91906148ff565b905060008173ffffffffffffffffffffffffffffffffffffffff1663059ce95d866040518263ffffffff1660e01b815260040161377a91906155aa565b60206040518083038186803b15801561379257600080fd5b505afa1580156137a6573d6000803e3d6000fd5b505050506040513d601f19601f820116820180604052508101906137ca91906148ff565b905060008060008373ffffffffffffffffffffffffffffffffffffffff166398d04673308a8a6040518463ffffffff1660e01b815260040161380e939291906156c3565b60006040518083038186803b15801561382657600080fd5b505afa15801561383a573d6000803e3d6000fd5b505050506040513d6000823e3d601f19601f820116820180604052508101906138639190614ace565b925092509250600081511115613b105760008073ffffffffffffffffffffffffffffffffffffffff168473ffffffffffffffffffffffffffffffffffffffff1614613934578373ffffffffffffffffffffffffffffffffffffffff166370a08231306040518263ffffffff1660e01b81526004016138e191906155aa565b60206040518083038186803b1580156138f957600080fd5b505afa15801561390d573d6000803e3d6000fd5b505050506040513d601f19601f820116820180604052508101906139319190614c52565b90505b60005b8251811015613a2957600083828151811061394e57fe5b60200260200101516000015173ffffffffffffffffffffffffffffffffffffffff1684838151811061397c57fe5b6020026020010151602001516040516139959190615593565b6000604051808303816000865af19150503d80600081146139d2576040519150601f19603f3d011682016040523d82523d6000602084013e6139d7565b606091505b5050905080613a1b576040517f08c379a0000000000000000000000000000000000000000000000000000000008152600401613a12906159d7565b60405180910390fd5b508080600101915050613937565b50600073ffffffffffffffffffffffffffffffffffffffff168473ffffffffffffffffffffffffffffffffffffffff1614613b0e57613b0b81613afd8673ffffffffffffffffffffffffffffffffffffffff166370a08231306040518263ffffffff1660e01b8152600401613a9e91906155aa565b60206040518083038186803b158015613ab657600080fd5b505afa158015613aca573d6000803e3d6000fd5b505050506040513d601f19601f82011682018060405250810190613aee9190614c52565b8661362790919063ffffffff16565b61361090919063ffffffff16565b92505b505b819550505050505092915050565b600073ffffffffffffffffffffffffffffffffffffffff168173ffffffffffffffffffffffffffffffffffffffff161415613b8e576040517f08c379a0000000000000000000000000000000000000000000000000000000008152600401613b8590615937565b60405180910390fd5b60008060009054906101000a900473ffffffffffffffffffffffffffffffffffffffff1673ffffffffffffffffffffffffffffffffffffffff166304433bbc6040518163ffffffff1660e01b8152600401613be8906159f7565b60206040518083038186803b158015613c0057600080fd5b505afa158015613c14573d6000803e3d6000fd5b505050506040513d601f19601f82011682018060405250810190613c3891906148ff565b90506103e88173ffffffffffffffffffffffffffffffffffffffff1663d4fac45d30856040518363ffffffff1660e01b8152600401613c7892919061564e565b60206040518083038186803b158015613c9057600080fd5b505afa158015613ca4573d6000803e3d6000fd5b505050506040513d601f19601f82011682018060405250810190613cc89190614c52565b1015613fbf57600e6000600f54815260200190815260200160002060009054906101000a900473ffffffffffffffffffffffffffffffffffffffff1673ffffffffffffffffffffffffffffffffffffffff16600e6000601060008673ffffffffffffffffffffffffffffffffffffffff1673ffffffffffffffffffffffffffffffffffffffff16815260200190815260200160002054815260200190815260200160002060009054906101000a900473ffffffffffffffffffffffffffffffffffffffff1673ffffffffffffffffffffffffffffffffffffffff1614613f2757600e6000600f54815260200190815260200160002060009054906101000a900473ffffffffffffffffffffffffffffffffffffffff16600e6000601060008673ffffffffffffffffffffffffffffffffffffffff1673ffffffffffffffffffffffffffffffffffffffff16815260200190815260200160002054815260200190815260200160002060006101000a81548173ffffffffffffffffffffffffffffffffffffffff021916908373ffffffffffffffffffffffffffffffffffffffff160217905550601060008373ffffffffffffffffffffffffffffffffffffffff1673ffffffffffffffffffffffffffffffffffffffff1681526020019081526020016000205460106000600e6000600f54815260200190815260200160002060009054906101000a900473ffffffffffffffffffffffffffffffffffffffff1673ffffffffffffffffffffffffffffffffffffffff1673ffffffffffffffffffffffffffffffffffffffff168152602001908152602001600020819055505b600e6000600f54815260200190815260200160002060006101000a81549073ffffffffffffffffffffffffffffffffffffffff0219169055601060008373ffffffffffffffffffffffffffffffffffffffff1673ffffffffffffffffffffffffffffffffffffffff16815260200190815260200160002060009055613fb86001600f5461361090919063ffffffff16565b600f819055505b5050565b600073ffffffffffffffffffffffffffffffffffffffff168173ffffffffffffffffffffffffffffffffffffffff161415801561403f57506000601060008373ffffffffffffffffffffffffffffffffffffffff1673ffffffffffffffffffffffffffffffffffffffff16815260200190815260200160002054145b156140fb5761405a6001600f5461362790919063ffffffff16565b600f8190555080600e6000600f54815260200190815260200160002060006101000a81548173ffffffffffffffffffffffffffffffffffffffff021916908373ffffffffffffffffffffffffffffffffffffffff160217905550600f54601060008373ffffffffffffffffffffffffffffffffffffffff1673ffffffffffffffffffffffffffffffffffffffff168152602001908152602001600020819055505b50565b60008082146141215761411c600d548361367a90919063ffffffff16565b614125565b6006545b9050919050565b60008060075411801561413f5750600082115b156142435760075482116141535781614157565b6007545b90506141bd81600c60008673ffffffffffffffffffffffffffffffffffffffff1673ffffffffffffffffffffffffffffffffffffffff1681526020019081526020016000206000600181526020019081526020016000205461362790919063ffffffff16565b600c60008573ffffffffffffffffffffffffffffffffffffffff1673ffffffffffffffffffffffffffffffffffffffff168152602001908152602001600020600060018152602001908152602001600020819055506142278160075461361090919063ffffffff16565b600781905550614240818361361090919063ffffffff16565b91505b60006008541180156142555750600082115b15614359576008548211614269578161426d565b6008545b90506142d381600c60008673ffffffffffffffffffffffffffffffffffffffff1673ffffffffffffffffffffffffffffffffffffffff1681526020019081526020016000206000600281526020019081526020016000205461362790919063ffffffff16565b600c60008573ffffffffffffffffffffffffffffffffffffffff1673ffffffffffffffffffffffffffffffffffffffff1681526020019081526020016000206000600281526020019081526020016000208190555061433d8160085461361090919063ffffffff16565b600881905550614356818361361090919063ffffffff16565b91505b600060095411801561436b5750600082115b1561446f57600954821161437f5781614383565b6009545b90506143e981600c60008673ffffffffffffffffffffffffffffffffffffffff1673ffffffffffffffffffffffffffffffffffffffff1681526020019081526020016000206000600381526020019081526020016000205461362790919063ffffffff16565b600c60008573ffffffffffffffffffffffffffffffffffffffff1673ffffffffffffffffffffffffffffffffffffffff168152602001908152602001600020600060038152602001908152602001600020819055506144538160095461361090919063ffffffff16565b60098190555061446c818361361090919063ffffffff16565b91505b6000600a541180156144815750600082115b1561458557600a5482116144955781614499565b600a545b90506144ff81600c60008673ffffffffffffffffffffffffffffffffffffffff1673ffffffffffffffffffffffffffffffffffffffff1681526020019081526020016000206000600481526020019081526020016000205461362790919063ffffffff16565b600c60008573ffffffffffffffffffffffffffffffffffffffff1673ffffffffffffffffffffffffffffffffffffffff1681526020019081526020016000206000600481526020019081526020016000208190555061456981600a5461361090919063ffffffff16565b600a81905550614582818361361090919063ffffffff16565b91505b505050565b828054600181600116156101000203166002900490600052602060002090601f0160209004810192826145c05760008555614607565b82601f106145d957805160ff1916838001178555614607565b82800160010185558215614607579182015b828111156146065782518255916020019190600101906145eb565b5b5090506146149190614618565b5090565b5b80821115614631576000816000905550600101614619565b5090565b600061464861464384615c20565b615bef565b9050808382526020820190508260005b85811015614688578151850161466e8882614848565b845260208401935060208301925050600181019050614658565b5050509392505050565b60006146a56146a084615c4c565b615bef565b9050828152602081018484840111156146bd57600080fd5b6146c8848285615e15565b509392505050565b60006146e36146de84615c4c565b615bef565b9050828152602081018484840111156146fb57600080fd5b614706848285615e24565b509392505050565b600061472161471c84615c7c565b615bef565b90508281526020810184848401111561473957600080fd5b614744848285615e15565b509392505050565b60008135905061475b81615e6a565b92915050565b60008151905061477081615e6a565b92915050565b600082601f83011261478757600080fd5b8151614797848260208601614635565b91505092915050565b6000815190506147af81615e81565b92915050565b600082601f8301126147c657600080fd5b81356147d6848260208601614692565b91505092915050565b600082601f8301126147f057600080fd5b81516148008482602086016146d0565b91505092915050565b60008135905061481881615e98565b92915050565b600082601f83011261482f57600080fd5b813561483f84826020860161470e565b91505092915050565b60006040828403121561485a57600080fd5b6148646040615bef565b9050600061487484828501614761565b600083015250602082015167ffffffffffffffff81111561489457600080fd5b6148a0848285016147df565b60208301525092915050565b6000813590506148bb81615eaf565b92915050565b6000815190506148d081615eaf565b92915050565b6000602082840312156148e857600080fd5b60006148f68482850161474c565b91505092915050565b60006020828403121561491157600080fd5b600061491f84828501614761565b91505092915050565b6000806040838503121561493b57600080fd5b60006149498582860161474c565b925050602061495a8582860161474c565b9150509250929050565b6000806000806080858703121561497a57600080fd5b60006149888782880161474c565b94505060206149998782880161474c565b93505060406149aa878288016148ac565b92505060606149bb878288016148ac565b91505092959194509250565b600080600080600060a086880312156149df57600080fd5b60006149ed88828901614761565b95505060206149fe88828901614761565b9450506040614a0f888289016148c1565b9350506060614a20888289016148c1565b9250506080614a31888289016148c1565b9150509295509295909350565b60008060408385031215614a5157600080fd5b6000614a5f8582860161474c565b925050602083013567ffffffffffffffff811115614a7c57600080fd5b614a88858286016147b5565b9150509250929050565b60008060408385031215614aa557600080fd5b6000614ab38582860161474c565b9250506020614ac4858286016148ac565b9150509250929050565b600080600060608486031215614ae357600080fd5b6000614af186828701614761565b9350506020614b02868287016148c1565b925050604084015167ffffffffffffffff811115614b1f57600080fd5b614b2b86828701614776565b9150509250925092565b600060208284031215614b4757600080fd5b6000614b55848285016147a0565b91505092915050565b60008060408385031215614b7157600080fd5b6000614b7f858286016147a0565b9250506020614b9085828601614761565b9150509250929050565b600080600080600060a08688031215614bb257600080fd5b600086013567ffffffffffffffff811115614bcc57600080fd5b614bd88882890161481e565b9550506020614be9888289016148ac565b9450506040614bfa888289016148ac565b9350506060614c0b8882890161474c565b9250506080614c1c88828901614809565b9150509295509295909350565b600060208284031215614c3b57600080fd5b6000614c49848285016148ac565b91505092915050565b600060208284031215614c6457600080fd5b6000614c72848285016148c1565b91505092915050565b60008060408385031215614c8e57600080fd5b6000614c9c858286016148ac565b9250506020614cad858286016148ac565b9150509250929050565b6000614cc38383614cf6565b60208301905092915050565b6000614cdb8383615575565b60208301905092915050565b614cf081615dbb565b82525050565b614cff81615d61565b82525050565b614d0e81615d61565b82525050565b6000614d1f82615ccc565b614d298185615d12565b9350614d3483615cac565b8060005b83811015614d65578151614d4c8882614cb7565b9750614d5783615cf8565b925050600181019050614d38565b5085935050505092915050565b6000614d7d82615cd7565b614d878185615d23565b9350614d9283615cbc565b8060005b83811015614dc3578151614daa8882614ccf565b9750614db583615d05565b925050600181019050614d96565b5085935050505092915050565b614dd981615d73565b82525050565b6000614dea82615ce2565b614df48185615d34565b9350614e04818560208601615e24565b614e0d81615e59565b840191505092915050565b6000614e2382615ce2565b614e2d8185615d45565b9350614e3d818560208601615e24565b80840191505092915050565b614e5281615dcd565b82525050565b6000614e6382615ced565b614e6d8185615d50565b9350614e7d818560208601615e24565b614e8681615e59565b840191505092915050565b6000614e9e600f83615d50565b91507f496e76616c6964206164647265737300000000000000000000000000000000006000830152602082019050919050565b6000614ede601483615d50565b91507f496e76616c6964207573657220616464726573730000000000000000000000006000830152602082019050919050565b6000614f1e601483615d50565b91507f496e76616c69642027746f2720616464726573730000000000000000000000006000830152602082019050919050565b6000614f5e601183615d50565b91507f4e4654506f6f6c4d616e616765724665650000000000000000000000000000006000830152602082019050919050565b6000614f9e603383615d50565b91507f4e4654506f6f6c3a204f6e6c79204e4654506f6f6c466163746f72792063616e60008301527f2063616c6c20746869732066756e6374696f6e000000000000000000000000006020830152604082019050919050565b6000615004601683615d50565b91507f5175616e74697479206f7574206f6620626f756e6473000000000000000000006000830152602082019050919050565b6000615044603383615d50565b91507f4e4654506f6f6c3a204f6e6c7920706f6f6c2773206d616e616765722063616e60008301527f2063616c6c20746869732066756e6374696f6e000000000000000000000000006020830152604082019050919050565b60006150aa601083615d50565b91507f496e76616c6964207665726966696572000000000000000000000000000000006000830152602082019050919050565b60006150ea600883615d50565b91507f4f70657261746f720000000000000000000000000000000000000000000000006000830152602082019050919050565b600061512a601c83615d50565b91507f4e4654506f6f6c3a20416c726561647920696e697469616c697a6564000000006000830152602082019050919050565b600061516a601583615d50565b91507f496e76616c6964206173736574206164647265737300000000000000000000006000830152602082019050919050565b60006151aa601d83615d50565b91507f496e76616c69642061737365742068616e646c657220616464726573730000006000830152602082019050919050565b60006151ea600b83615d50565b91507f4d61726b6574706c6163650000000000000000000000000000000000000000006000830152602082019050919050565b600061522a602d83615d50565b91507f4e4654506f6f6c3a204f6e6c79204f70657261746f722063616e2063616c6c2060008301527f746869732066756e6374696f6e000000000000000000000000000000000000006020830152604082019050919050565b6000615290602883615d50565b91507f5769746864726177616c20616d6f756e74206d7573742062652067726561746560008301527f72207468616e20300000000000000000000000000000000000000000000000006020830152604082019050919050565b60006152f6601983615d50565b91507f4661696c656420746f20776974686472617720746f6b656e73000000000000006000830152602082019050919050565b6000615336600c83615d50565b91507f417373657448616e646c657200000000000000000000000000000000000000006000830152602082019050919050565b6000615376602383615d50565b91507f546f6b656e20636c617373206d757374206265206265747765656e203120616e60008301527f64203400000000000000000000000000000000000000000000000000000000006020830152604082019050919050565b60006153dc601d83615d50565b91507f5472616e73616374696f6e206661696c656420746f20657865637574650000006000830152602082019050919050565b600061541c601383615d50565b91507f496e76616c6964207472616e73616374696f6e000000000000000000000000006000830152602082019050919050565b600061545c601183615d50565b91507f4e6f7420656e6f75676820746f6b656e730000000000000000000000000000006000830152602082019050919050565b600061549c600883615d50565b91507f53657474696e67730000000000000000000000000000000000000000000000006000830152602082019050919050565b60006154dc603883615d50565b91507f4e4654506f6f6c3a204f6e6c79204d61726b6574706c616365206f722046617260008301527f6d2063616e2063616c6c20746869732066756e6374696f6e00000000000000006020830152604082019050919050565b6000615542601683615d50565b91507f4e4654506f6f6c3a20696e76616c6964206173736574000000000000000000006000830152602082019050919050565b61557e81615db1565b82525050565b61558d81615db1565b82525050565b600061559f8284614e18565b915081905092915050565b60006020820190506155bf6000830184614d05565b92915050565b60006040820190506155da6000830185614ce7565b6155e76020830184614d05565b9392505050565b60006060820190506156036000830186614ce7565b6156106020830185614d05565b61561d6040830184615584565b949350505050565b600060408201905061563a6000830185614ce7565b6156476020830184615584565b9392505050565b60006040820190506156636000830185614d05565b6156706020830184614d05565b9392505050565b600060808201905061568c6000830187614d05565b6156996020830186614d05565b6156a66040830185614d05565b81810360608301526156b88184614ddf565b905095945050505050565b60006060820190506156d86000830186614d05565b6156e56020830185614d05565b6156f26040830184615584565b949350505050565b600060608201905061570f6000830186614d05565b61571c6020830185614dd0565b6157296040830184615584565b949350505050565b60006040820190506157466000830185614d05565b6157536020830184615584565b9392505050565b600060608201905081810360008301526157748186614d14565b905081810360208301526157888185614d72565b90506157976040830184615584565b949350505050565b60006020820190506157b46000830184614dd0565b92915050565b60006020820190506157cf6000830184614e49565b92915050565b600060208201905081810360008301526157ef8184614e58565b905092915050565b6000602082019050818103600083015261581081614e91565b9050919050565b6000602082019050818103600083015261583081614ed1565b9050919050565b6000602082019050818103600083015261585081614f11565b9050919050565b6000602082019050818103600083015261587081614f51565b9050919050565b6000602082019050818103600083015261589081614f91565b9050919050565b600060208201905081810360008301526158b081614ff7565b9050919050565b600060208201905081810360008301526158d081615037565b9050919050565b600060208201905081810360008301526158f08161509d565b9050919050565b60006020820190508181036000830152615910816150dd565b9050919050565b600060208201905081810360008301526159308161511d565b9050919050565b600060208201905081810360008301526159508161515d565b9050919050565b600060208201905081810360008301526159708161519d565b9050919050565b60006020820190508181036000830152615990816151dd565b9050919050565b600060208201905081810360008301526159b08161521d565b9050919050565b600060208201905081810360008301526159d081615283565b9050919050565b600060208201905081810360008301526159f0816152e9565b9050919050565b60006020820190508181036000830152615a1081615329565b9050919050565b60006020820190508181036000830152615a3081615369565b9050919050565b60006020820190508181036000830152615a50816153cf565b9050919050565b60006020820190508181036000830152615a708161540f565b9050919050565b60006020820190508181036000830152615a908161544f565b9050919050565b60006020820190508181036000830152615ab08161548f565b9050919050565b60006020820190508181036000830152615ad0816154cf565b9050919050565b60006020820190508181036000830152615af081615535565b9050919050565b6000602082019050615b0c6000830184615584565b92915050565b600060a082019050615b276000830188615584565b615b346020830187615584565b8181036040830152615b468186614d14565b90508181036060830152615b5a8185614d72565b9050615b696080830184615584565b9695505050505050565b6000606082019050615b886000830186615584565b615b956020830185615584565b615ba26040830184615584565b949350505050565b6000608082019050615bbf6000830187615584565b615bcc6020830186615584565b615bd96040830185615584565b615be66060830184615584565b95945050505050565b6000604051905081810181811067ffffffffffffffff82111715615c1657615c15615e57565b5b8060405250919050565b600067ffffffffffffffff821115615c3b57615c3a615e57565b5b602082029050602081019050919050565b600067ffffffffffffffff821115615c6757615c66615e57565b5b601f19601f8301169050602081019050919050565b600067ffffffffffffffff821115615c9757615c96615e57565b5b601f19601f8301169050602081019050919050565b6000819050602082019050919050565b6000819050602082019050919050565b600081519050919050565b600081519050919050565b600081519050919050565b600081519050919050565b6000602082019050919050565b6000602082019050919050565b600082825260208201905092915050565b600082825260208201905092915050565b600082825260208201905092915050565b600081905092915050565b600082825260208201905092915050565b6000615d6c82615d91565b9050919050565b60008115159050919050565b6000615d8a82615d61565b9050919050565b600073ffffffffffffffffffffffffffffffffffffffff82169050919050565b6000819050919050565b6000615dc682615df1565b9050919050565b6000615dd882615ddf565b9050919050565b6000615dea82615d91565b9050919050565b6000615dfc82615e03565b9050919050565b6000615e0e82615d91565b9050919050565b82818337600083830152505050565b60005b83811015615e42578082015181840152602081019050615e27565b83811115615e51576000848401525b50505050565bfe5b6000601f19601f8301169050919050565b615e7381615d61565b8114615e7e57600080fd5b50565b615e8a81615d73565b8114615e9557600080fd5b50565b615ea181615d7f565b8114615eac57600080fd5b50565b615eb881615db1565b8114615ec357600080fd5b5056fea2646970667358221220ece6409bf873329f1aed4f29f422ed7c22c4b531f250c600f9397e4039a9401164736f6c63430007060033506f6f6c206e616d65206d7573742068617665206c657373207468616e203430206368617261637465727353656564207072696365206d757374206265206c657373207468616e206d6178207365656420707269636543616e6e6f742068617665206c657373207468616e206d696e20737570706c792063617043616e6e6f7420657863656564206d6178696d756d206e756d626572206f6620706f6f6c7320706572207573657253656564207072696365206d7573742062652067726561746572207468616e206d696e2073656564207072696365a2646970667358221220be539b17167a6424fa684f981a6ab6b5f5f65fdcbd8cff73f9dd49ef0d532b6464736f6c63430007060033",
  "immutableReferences": {
    "4664": [
      {
        "length": 32,
        "start": 1104
      },
      {
        "length": 32,
        "start": 1142
      },
      {
        "length": 32,
        "start": 3036
      },
      {
        "length": 32,
        "start": 3604
      }
    ]
  },
  "source": "// SPDX-License-Identifier: MIT\r\n\r\npragma solidity >=0.7.6;\r\n\r\n//Interfaces\r\nimport './interfaces/ISettings.sol';\r\nimport './interfaces/IAddressResolver.sol';\r\nimport './interfaces/IMarketplace.sol';\r\n\r\n//Libraries\r\nimport './libraries/SafeMath.sol';\r\n\r\n//Internal references\r\nimport './NFTPool.sol';\r\n\r\ncontract NFTPoolFactory {\r\n    using SafeMath for uint;\r\n\r\n    IAddressResolver public immutable ADDRESS_RESOLVER;\r\n\r\n    address[] public pools;\r\n    mapping (address => uint[]) public userToManagedPools;\r\n    mapping (address => uint) public addressToIndex; // maps to (index + 1); index 0 represents pool not found\r\n\r\n    constructor(IAddressResolver addressResolver) {\r\n        ADDRESS_RESOLVER = addressResolver;\r\n    }\r\n\r\n    /* ========== VIEWS ========== */\r\n\r\n    /**\r\n    * @dev Returns the address of each pool the user manages\r\n    * @param user Address of the user\r\n    * @return address[] The address of each pool the user manages\r\n    */\r\n    function getUserManagedPools(address user) public view returns(address[] memory) {\r\n        require(user != address(0), \"Invalid address\");\r\n\r\n        address[] memory addresses = new address[](userToManagedPools[user].length);\r\n        uint[] memory indexes = userToManagedPools[user];\r\n\r\n        for (uint i = 0; i < addresses.length; i++)\r\n        {\r\n            uint index = indexes[i];\r\n            addresses[i] = pools[index];\r\n        }\r\n\r\n        return addresses;\r\n    }\r\n\r\n    /**\r\n    * @dev Returns the address of each available pool\r\n    * @return address[] The address of each available pool\r\n    */\r\n    function getAvailablePools() public view returns(address[] memory) {\r\n        return pools;\r\n    }\r\n\r\n    /* ========== MUTATIVE FUNCTIONS ========== */\r\n\r\n    /**\r\n    * @dev Creates a new pool\r\n    * @param poolName Name of the pool\r\n    * @param maxSupply Maximum number of pool tokens\r\n    * @param seedPrice Initial price of pool tokens\r\n    */\r\n    function createPool(string memory poolName, uint maxSupply, uint seedPrice) external {\r\n        address settingsAddress = ADDRESS_RESOLVER.getContractAddress(\"Settings\");\r\n        uint maximumNumberOfNFTPoolTokens = ISettings(settingsAddress).getParameterValue(\"MaximumNumberOfNFTPoolTokens\");\r\n        uint minimumNumberOfNFTPoolTokens = ISettings(settingsAddress).getParameterValue(\"MinimumNumberOfNFTPoolTokens\");\r\n        uint maximumNFTPoolSeedPrice = ISettings(settingsAddress).getParameterValue(\"MaximumNFTPoolSeedPrice\");\r\n        uint minimumNFTPoolSeedPrice = ISettings(settingsAddress).getParameterValue(\"MinimumNFTPoolSeedPrice\");\r\n        uint maximumNumberOfPoolsPerUser = ISettings(settingsAddress).getParameterValue(\"MaximumNumberOfPoolsPerUser\");\r\n\r\n        \r\n        require(bytes(poolName).length < 40, \"Pool name must have less than 40 characters\");\r\n        require(maxSupply <= maximumNumberOfNFTPoolTokens, \"Cannot exceed max supply cap\");\r\n        require(maxSupply >= minimumNumberOfNFTPoolTokens, \"Cannot have less than min supply cap\");\r\n        require(seedPrice >= minimumNFTPoolSeedPrice, \"Seed price must be greater than min seed price\");\r\n        require(seedPrice <= maximumNFTPoolSeedPrice, \"Seed price must be less than max seed price\");\r\n        require(userToManagedPools[msg.sender].length < maximumNumberOfPoolsPerUser, \"Cannot exceed maximum number of pools per user\");\r\n        \r\n        //Create pool\r\n        address poolAddress = address(new NFTPool());\r\n        NFTPool(poolAddress).initialize(poolName, seedPrice, maxSupply, msg.sender, ADDRESS_RESOLVER);\r\n\r\n        //Update state variables\r\n        pools.push(poolAddress);\r\n        userToManagedPools[msg.sender].push(pools.length - 1);\r\n        addressToIndex[poolAddress] = pools.length;\r\n\r\n        //Add pool token as sellable asset on marketplace\r\n        address marketplaceAddress = ADDRESS_RESOLVER.getContractAddress(\"Marketplace\");\r\n        IMarketplace(marketplaceAddress).addAsset(poolAddress, msg.sender);\r\n\r\n        emit CreatedNFTPool(msg.sender, poolAddress, pools.length - 1, block.timestamp);\r\n    }\r\n\r\n    /* ========== EVENTS ========== */\r\n\r\n    event CreatedNFTPool(address indexed managerAddress, address indexed poolAddress, uint poolIndex, uint timestamp);\r\n}",
  "sourcePath": "C:/Users/xavie/OneDrive/Desktop/TradeGen/Github/tradegen-protocol/contracts/NFTPoolFactory.sol",
  "compiler": {
    "name": "solc",
    "version": "0.7.6+commit.7338295f.Emscripten.clang"
  },
  "schemaVersion": "3.4.1",
  "updatedAt": "2021-09-26T18:16:47.574Z",
  "devdoc": {
    "kind": "dev",
    "methods": {
      "createPool(string,uint256,uint256)": {
        "details": "Creates a new pool",
        "params": {
          "maxSupply": "Maximum number of pool tokens",
          "poolName": "Name of the pool",
          "seedPrice": "Initial price of pool tokens"
        }
      },
      "getAvailablePools()": {
        "details": "Returns the address of each available pool",
        "returns": {
          "_0": "address[] The address of each available pool"
        }
      },
      "getUserManagedPools(address)": {
        "details": "Returns the address of each pool the user manages",
        "params": {
          "user": "Address of the user"
        },
        "returns": {
          "_0": "address[] The address of each pool the user manages"
        }
      }
    },
    "version": 1
  },
  "userdoc": {
    "kind": "user",
    "methods": {},
    "version": 1
  }
}