{
  "contractName": "NFTPool",
  "abi": [
    {
      "inputs": [],
      "stateMutability": "nonpayable",
      "type": "constructor"
    },
    {
      "anonymous": false,
      "inputs": [
        {
          "indexed": true,
          "internalType": "address",
          "name": "poolAddress",
          "type": "address"
        },
        {
          "indexed": true,
          "internalType": "address",
          "name": "userAddress",
          "type": "address"
        },
        {
          "indexed": false,
          "internalType": "uint256",
          "name": "numberOfPoolTokens",
          "type": "uint256"
        },
        {
          "indexed": false,
          "internalType": "uint256",
          "name": "amountOfUSD",
          "type": "uint256"
        },
        {
          "indexed": false,
          "internalType": "uint256",
          "name": "timestamp",
          "type": "uint256"
        }
      ],
      "name": "Deposit",
      "type": "event"
    },
    {
      "anonymous": false,
      "inputs": [
        {
          "indexed": true,
          "internalType": "address",
          "name": "poolAddress",
          "type": "address"
        },
        {
          "indexed": true,
          "internalType": "address",
          "name": "manager",
          "type": "address"
        },
        {
          "indexed": false,
          "internalType": "address",
          "name": "to",
          "type": "address"
        },
        {
          "indexed": false,
          "internalType": "bool",
          "name": "success",
          "type": "bool"
        },
        {
          "indexed": false,
          "internalType": "uint256",
          "name": "timestamp",
          "type": "uint256"
        }
      ],
      "name": "ExecutedTransaction",
      "type": "event"
    },
    {
      "anonymous": false,
      "inputs": [
        {
          "indexed": true,
          "internalType": "address",
          "name": "poolAddress",
          "type": "address"
        },
        {
          "indexed": true,
          "internalType": "address",
          "name": "userAddress",
          "type": "address"
        },
        {
          "indexed": false,
          "internalType": "uint256",
          "name": "numberOfPoolTokens",
          "type": "uint256"
        },
        {
          "indexed": false,
          "internalType": "uint256",
          "name": "valueWithdrawn",
          "type": "uint256"
        },
        {
          "indexed": false,
          "internalType": "address[]",
          "name": "assets",
          "type": "address[]"
        },
        {
          "indexed": false,
          "internalType": "uint256[]",
          "name": "amountsWithdrawn",
          "type": "uint256[]"
        },
        {
          "indexed": false,
          "internalType": "uint256",
          "name": "timestamp",
          "type": "uint256"
        }
      ],
      "name": "Withdraw",
      "type": "event"
    },
    {
      "inputs": [],
      "name": "ADDRESS_RESOLVER",
      "outputs": [
        {
          "internalType": "contract IAddressResolver",
          "name": "",
          "type": "address"
        }
      ],
      "stateMutability": "view",
      "type": "function"
    },
    {
      "inputs": [
        {
          "internalType": "uint256",
          "name": "",
          "type": "uint256"
        }
      ],
      "name": "_positionKeys",
      "outputs": [
        {
          "internalType": "address",
          "name": "",
          "type": "address"
        }
      ],
      "stateMutability": "view",
      "type": "function"
    },
    {
      "inputs": [],
      "name": "availableC1",
      "outputs": [
        {
          "internalType": "uint256",
          "name": "",
          "type": "uint256"
        }
      ],
      "stateMutability": "view",
      "type": "function"
    },
    {
      "inputs": [],
      "name": "availableC2",
      "outputs": [
        {
          "internalType": "uint256",
          "name": "",
          "type": "uint256"
        }
      ],
      "stateMutability": "view",
      "type": "function"
    },
    {
      "inputs": [],
      "name": "availableC3",
      "outputs": [
        {
          "internalType": "uint256",
          "name": "",
          "type": "uint256"
        }
      ],
      "stateMutability": "view",
      "type": "function"
    },
    {
      "inputs": [],
      "name": "availableC4",
      "outputs": [
        {
          "internalType": "uint256",
          "name": "",
          "type": "uint256"
        }
      ],
      "stateMutability": "view",
      "type": "function"
    },
    {
      "inputs": [
        {
          "internalType": "address",
          "name": "",
          "type": "address"
        }
      ],
      "name": "balance",
      "outputs": [
        {
          "internalType": "uint256",
          "name": "",
          "type": "uint256"
        }
      ],
      "stateMutability": "view",
      "type": "function"
    },
    {
      "inputs": [
        {
          "internalType": "address",
          "name": "",
          "type": "address"
        },
        {
          "internalType": "uint256",
          "name": "",
          "type": "uint256"
        }
      ],
      "name": "balanceOf",
      "outputs": [
        {
          "internalType": "uint256",
          "name": "",
          "type": "uint256"
        }
      ],
      "stateMutability": "view",
      "type": "function"
    },
    {
      "inputs": [],
      "name": "farm",
      "outputs": [
        {
          "internalType": "address",
          "name": "",
          "type": "address"
        }
      ],
      "stateMutability": "view",
      "type": "function"
    },
    {
      "inputs": [],
      "name": "manager",
      "outputs": [
        {
          "internalType": "address",
          "name": "",
          "type": "address"
        }
      ],
      "stateMutability": "view",
      "type": "function"
    },
    {
      "inputs": [],
      "name": "maxSupply",
      "outputs": [
        {
          "internalType": "uint256",
          "name": "",
          "type": "uint256"
        }
      ],
      "stateMutability": "view",
      "type": "function"
    },
    {
      "inputs": [],
      "name": "name",
      "outputs": [
        {
          "internalType": "string",
          "name": "",
          "type": "string"
        }
      ],
      "stateMutability": "view",
      "type": "function"
    },
    {
      "inputs": [],
      "name": "numberOfPositions",
      "outputs": [
        {
          "internalType": "uint256",
          "name": "",
          "type": "uint256"
        }
      ],
      "stateMutability": "view",
      "type": "function"
    },
    {
      "inputs": [
        {
          "internalType": "address",
          "name": "",
          "type": "address"
        }
      ],
      "name": "positionToIndex",
      "outputs": [
        {
          "internalType": "uint256",
          "name": "",
          "type": "uint256"
        }
      ],
      "stateMutability": "view",
      "type": "function"
    },
    {
      "inputs": [],
      "name": "seedPrice",
      "outputs": [
        {
          "internalType": "uint256",
          "name": "",
          "type": "uint256"
        }
      ],
      "stateMutability": "view",
      "type": "function"
    },
    {
      "inputs": [],
      "name": "totalSupply",
      "outputs": [
        {
          "internalType": "uint256",
          "name": "",
          "type": "uint256"
        }
      ],
      "stateMutability": "view",
      "type": "function"
    },
    {
      "inputs": [],
      "name": "getAvailableTokensPerClass",
      "outputs": [
        {
          "internalType": "uint256",
          "name": "",
          "type": "uint256"
        },
        {
          "internalType": "uint256",
          "name": "",
          "type": "uint256"
        },
        {
          "internalType": "uint256",
          "name": "",
          "type": "uint256"
        },
        {
          "internalType": "uint256",
          "name": "",
          "type": "uint256"
        }
      ],
      "stateMutability": "view",
      "type": "function"
    },
    {
      "inputs": [
        {
          "internalType": "address",
          "name": "user",
          "type": "address"
        }
      ],
      "name": "getTokenBalancePerClass",
      "outputs": [
        {
          "internalType": "uint256",
          "name": "",
          "type": "uint256"
        },
        {
          "internalType": "uint256",
          "name": "",
          "type": "uint256"
        },
        {
          "internalType": "uint256",
          "name": "",
          "type": "uint256"
        },
        {
          "internalType": "uint256",
          "name": "",
          "type": "uint256"
        }
      ],
      "stateMutability": "view",
      "type": "function"
    },
    {
      "inputs": [
        {
          "internalType": "address",
          "name": "asset",
          "type": "address"
        },
        {
          "internalType": "address",
          "name": "assetHandlerAddress",
          "type": "address"
        }
      ],
      "name": "getAssetValue",
      "outputs": [
        {
          "internalType": "uint256",
          "name": "",
          "type": "uint256"
        }
      ],
      "stateMutability": "view",
      "type": "function"
    },
    {
      "inputs": [],
      "name": "getPositionsAndTotal",
      "outputs": [
        {
          "internalType": "address[]",
          "name": "",
          "type": "address[]"
        },
        {
          "internalType": "uint256[]",
          "name": "",
          "type": "uint256[]"
        },
        {
          "internalType": "uint256",
          "name": "",
          "type": "uint256"
        }
      ],
      "stateMutability": "view",
      "type": "function"
    },
    {
      "inputs": [],
      "name": "getAvailableFunds",
      "outputs": [
        {
          "internalType": "uint256",
          "name": "",
          "type": "uint256"
        }
      ],
      "stateMutability": "view",
      "type": "function"
    },
    {
      "inputs": [],
      "name": "getPoolValue",
      "outputs": [
        {
          "internalType": "uint256",
          "name": "",
          "type": "uint256"
        }
      ],
      "stateMutability": "view",
      "type": "function"
    },
    {
      "inputs": [
        {
          "internalType": "address",
          "name": "user",
          "type": "address"
        }
      ],
      "name": "getUSDBalance",
      "outputs": [
        {
          "internalType": "uint256",
          "name": "",
          "type": "uint256"
        }
      ],
      "stateMutability": "view",
      "type": "function"
    },
    {
      "inputs": [],
      "name": "tokenPrice",
      "outputs": [
        {
          "internalType": "uint256",
          "name": "",
          "type": "uint256"
        }
      ],
      "stateMutability": "view",
      "type": "function"
    },
    {
      "inputs": [
        {
          "internalType": "uint256",
          "name": "numberOfPoolTokens",
          "type": "uint256"
        }
      ],
      "name": "deposit",
      "outputs": [],
      "stateMutability": "nonpayable",
      "type": "function"
    },
    {
      "inputs": [
        {
          "internalType": "uint256",
          "name": "numberOfPoolTokens",
          "type": "uint256"
        },
        {
          "internalType": "uint256",
          "name": "tokenClass",
          "type": "uint256"
        }
      ],
      "name": "withdraw",
      "outputs": [],
      "stateMutability": "nonpayable",
      "type": "function"
    },
    {
      "inputs": [],
      "name": "exit",
      "outputs": [],
      "stateMutability": "nonpayable",
      "type": "function"
    },
    {
      "inputs": [
        {
          "internalType": "address",
          "name": "to",
          "type": "address"
        },
        {
          "internalType": "bytes",
          "name": "data",
          "type": "bytes"
        }
      ],
      "name": "executeTransaction",
      "outputs": [],
      "stateMutability": "nonpayable",
      "type": "function"
    },
    {
      "inputs": [],
      "name": "removeEmptyPositions",
      "outputs": [],
      "stateMutability": "nonpayable",
      "type": "function"
    },
    {
      "inputs": [
        {
          "internalType": "string",
          "name": "poolName",
          "type": "string"
        },
        {
          "internalType": "uint256",
          "name": "price",
          "type": "uint256"
        },
        {
          "internalType": "uint256",
          "name": "supplyCap",
          "type": "uint256"
        },
        {
          "internalType": "address",
          "name": "poolManager",
          "type": "address"
        },
        {
          "internalType": "contract IAddressResolver",
          "name": "addressResolver",
          "type": "address"
        }
      ],
      "name": "initialize",
      "outputs": [],
      "stateMutability": "nonpayable",
      "type": "function"
    },
    {
      "inputs": [
        {
          "internalType": "address",
          "name": "from",
          "type": "address"
        },
        {
          "internalType": "address",
          "name": "to",
          "type": "address"
        },
        {
          "internalType": "uint256",
          "name": "tokenClass",
          "type": "uint256"
        },
        {
          "internalType": "uint256",
          "name": "numberOfTokens",
          "type": "uint256"
        }
      ],
      "name": "transfer",
      "outputs": [
        {
          "internalType": "bool",
          "name": "",
          "type": "bool"
        }
      ],
      "stateMutability": "nonpayable",
      "type": "function"
    },
    {
      "inputs": [
        {
          "internalType": "address",
          "name": "farmAddress",
          "type": "address"
        }
      ],
      "name": "setFarmAddress",
      "outputs": [],
      "stateMutability": "nonpayable",
      "type": "function"
    }
  ],
  "bytecode": "0x608060405234801561001057600080fd5b5033600160006101000a81548173ffffffffffffffffffffffffffffffffffffffff021916908373ffffffffffffffffffffffffffffffffffffffff1602179055506000600160146101000a81548160ff021916908315150217905550615efc806200007d6000396000f3fe608060405234801561001057600080fd5b50600436106101ee5760003560e01c80636ca0f8141161010f578063b24c13a6116100a2578063d5abeb0111610071578063d5abeb01146105a5578063d9799809146105c3578063e3d670d7146105df578063e9fad8ee1461060f576101ee565b8063b24c13a614610517578063b6b55f2514610535578063b927924a14610551578063ca6c13c514610584576101ee565b8063981f3b8e116100de578063981f3b8e1461049d5780639db32353146104bb578063a1a76248146104d9578063ac08c574146104f7576101ee565b80636ca0f814146104155780637e34cd3d146104315780637ff9b5961461044f57806395d4e5da1461046d576101ee565b80632ed8e0d411610187578063481c6a7511610156578063481c6a751461038b5780635195bd29146103a95780635cb035ad146103c757806364dc772b146103f7576101ee565b80632ed8e0d41461031757806336e9332d14610347578063441a3e701461036557806347b339ca14610381576101ee565b806306fdde03116101c357806306fdde031461028d57806318160ddd146102ab5780631ba2f531146102c95780632322e3b9146102e7576101ee565b80626f5e0a146101f3578062fdd58e146102115780630411b2521461024157806305c4bb2414610271575b600080fd5b6101fb610619565b6040516102089190615af7565b60405180910390f35b61022b60048036038101906102269190614a92565b61061f565b6040516102389190615af7565b60405180910390f35b61025b60048036038101906102569190614964565b610644565b604051610268919061579f565b60405180910390f35b61028b60048036038101906102869190614b9a565b610ab9565b005b610295610dcc565b6040516102a291906157d5565b60405180910390f35b6102b3610e6a565b6040516102c09190615af7565b60405180910390f35b6102d1610e70565b6040516102de9190615af7565b60405180910390f35b61030160048036038101906102fc91906148d6565b610f94565b60405161030e9190615af7565b60405180910390f35b610331600480360381019061032c9190614c29565b611094565b60405161033e91906155aa565b60405180910390f35b61034f6110c7565b60405161035c91906155aa565b60405180910390f35b61037f600480360381019061037a9190614c7b565b6110ed565b005b610389611ca2565b005b610393611d96565b6040516103a091906155aa565b60405180910390f35b6103b1611dbc565b6040516103be9190615af7565b60405180910390f35b6103e160048036038101906103dc91906148d6565b611f7a565b6040516103ee9190615af7565b60405180910390f35b6103ff611f92565b60405161040c9190615af7565b60405180910390f35b61042f600480360381019061042a9190614a3e565b611f98565b005b61043961266a565b6040516104469190615af7565b60405180910390f35b610457612670565b6040516104649190615af7565b60405180910390f35b61048760048036038101906104829190614928565b61268c565b6040516104949190615af7565b60405180910390f35b6104a5612949565b6040516104b291906157ba565b60405180910390f35b6104c361296d565b6040516104d09190615af7565b60405180910390f35b6104e1612973565b6040516104ee9190615af7565b60405180910390f35b6104ff612979565b60405161050e9392919061575a565b60405180910390f35b61051f612e67565b60405161052c9190615af7565b60405180910390f35b61054f600480360381019061054a9190614c29565b612e6d565b005b61056b600480360381019061056691906148d6565b6131da565b60405161057b9493929190615baa565b60405180910390f35b61058c6133a7565b60405161059c9493929190615baa565b60405180910390f35b6105ad6133c7565b6040516105ba9190615af7565b60405180910390f35b6105dd60048036038101906105d891906148d6565b6133cd565b005b6105f960048036038101906105f491906148d6565b613525565b6040516106069190615af7565b60405180910390f35b61061761353d565b005b60095481565b600c602052816000526040600020602052806000526040600020600091509150505481565b60008060009054906101000a900473ffffffffffffffffffffffffffffffffffffffff1673ffffffffffffffffffffffffffffffffffffffff166304433bbc6040518163ffffffff1660e01b815260040161069e90615977565b60206040518083038186803b1580156106b657600080fd5b505afa1580156106ca573d6000803e3d6000fd5b505050506040513d601f19601f820116820180604052508101906106ee91906148ff565b73ffffffffffffffffffffffffffffffffffffffff163373ffffffffffffffffffffffffffffffffffffffff1614806107745750600260009054906101000a900473ffffffffffffffffffffffffffffffffffffffff1673ffffffffffffffffffffffffffffffffffffffff163373ffffffffffffffffffffffffffffffffffffffff16145b6107b3576040517f08c379a00000000000000000000000000000000000000000000000000000000081526004016107aa90615ab7565b60405180910390fd5b81600c60008773ffffffffffffffffffffffffffffffffffffffff1673ffffffffffffffffffffffffffffffffffffffff16815260200190815260200160002060008581526020019081526020016000205410156108145760009050610ab1565b61087782600c60008873ffffffffffffffffffffffffffffffffffffffff1673ffffffffffffffffffffffffffffffffffffffff16815260200190815260200160002060008681526020019081526020016000205461361090919063ffffffff16565b600c60008773ffffffffffffffffffffffffffffffffffffffff1673ffffffffffffffffffffffffffffffffffffffff16815260200190815260200160002060008581526020019081526020016000208190555061092e82600c60008773ffffffffffffffffffffffffffffffffffffffff1673ffffffffffffffffffffffffffffffffffffffff16815260200190815260200160002060008681526020019081526020016000205461362790919063ffffffff16565b600c60008673ffffffffffffffffffffffffffffffffffffffff1673ffffffffffffffffffffffffffffffffffffffff1681526020019081526020016000206000858152602001908152602001600020819055506109d482600b60008873ffffffffffffffffffffffffffffffffffffffff1673ffffffffffffffffffffffffffffffffffffffff1681526020019081526020016000205461361090919063ffffffff16565b600b60008773ffffffffffffffffffffffffffffffffffffffff1673ffffffffffffffffffffffffffffffffffffffff16815260200190815260200160002081905550610a6982600b60008773ffffffffffffffffffffffffffffffffffffffff1673ffffffffffffffffffffffffffffffffffffffff1681526020019081526020016000205461362790919063ffffffff16565b600b60008673ffffffffffffffffffffffffffffffffffffffff1673ffffffffffffffffffffffffffffffffffffffff16815260200190815260200160002081905550600190505b949350505050565b600160009054906101000a900473ffffffffffffffffffffffffffffffffffffffff1673ffffffffffffffffffffffffffffffffffffffff163373ffffffffffffffffffffffffffffffffffffffff1614610b49576040517f08c379a0000000000000000000000000000000000000000000000000000000008152600401610b4090615877565b60405180910390fd5b600160149054906101000a900460ff1615610b99576040517f08c379a0000000000000000000000000000000000000000000000000000000008152600401610b9090615917565b60405180910390fd5b8460039080519060200190610baf92919061458a565b5081600460006101000a81548173ffffffffffffffffffffffffffffffffffffffff021916908373ffffffffffffffffffffffffffffffffffffffff1602179055508360068190555082600581905550806000806101000a81548173ffffffffffffffffffffffffffffffffffffffff021916908373ffffffffffffffffffffffffffffffffffffffff16021790555060018060146101000a81548160ff0219169083151502179055506001610c826064610c7460058761364390919063ffffffff16565b61367a90919063ffffffff16565b11610c8e576001610cb6565b610cb56064610ca760058661364390919063ffffffff16565b61367a90919063ffffffff16565b5b6007819055506002610ce56064610cd7600a8761364390919063ffffffff16565b61367a90919063ffffffff16565b11610cf1576002610d19565b610d186064610d0a600a8661364390919063ffffffff16565b61367a90919063ffffffff16565b5b6008819055506003610d486064610d3a60148761364390919063ffffffff16565b61367a90919063ffffffff16565b11610d54576003610d7c565b610d7b6064610d6d60148661364390919063ffffffff16565b61367a90919063ffffffff16565b5b600981905550610dbf600754610db1600854610da36009548861361090919063ffffffff16565b61361090919063ffffffff16565b61361090919063ffffffff16565b600a819055505050505050565b60038054600181600116156101000203166002900480601f016020809104026020016040519081016040528092919081815260200182805460018160011615610100020316600290048015610e625780601f10610e3757610100808354040283529160200191610e62565b820191906000526020600020905b815481529060010190602001808311610e4557829003601f168201915b505050505081565b600d5481565b60008060008054906101000a900473ffffffffffffffffffffffffffffffffffffffff1673ffffffffffffffffffffffffffffffffffffffff166304433bbc6040518163ffffffff1660e01b8152600401610eca906159f7565b60206040518083038186803b158015610ee257600080fd5b505afa158015610ef6573d6000803e3d6000fd5b505050506040513d601f19601f82011682018060405250810190610f1a91906148ff565b9050600080600190505b600f548111610f8b57610f7c610f6d600e600084815260200190815260200160002060009054906101000a900473ffffffffffffffffffffffffffffffffffffffff168561268c565b8361362790919063ffffffff16565b91508080600101915050610f24565b50809250505090565b60008073ffffffffffffffffffffffffffffffffffffffff168273ffffffffffffffffffffffffffffffffffffffff161415611005576040517f08c379a0000000000000000000000000000000000000000000000000000000008152600401610ffc906157f7565b60405180910390fd5b6000600d541415611019576000905061108f565b6000611023610e70565b905061108b600d5461107d600b60008773ffffffffffffffffffffffffffffffffffffffff1673ffffffffffffffffffffffffffffffffffffffff168152602001908152602001600020548461364390919063ffffffff16565b61367a90919063ffffffff16565b9150505b919050565b600e6020528060005260406000206000915054906101000a900473ffffffffffffffffffffffffffffffffffffffff1681565b600260009054906101000a900473ffffffffffffffffffffffffffffffffffffffff1681565b60008060009054906101000a900473ffffffffffffffffffffffffffffffffffffffff1673ffffffffffffffffffffffffffffffffffffffff166304433bbc6040518163ffffffff1660e01b815260040161114790615977565b60206040518083038186803b15801561115f57600080fd5b505afa158015611173573d6000803e3d6000fd5b505050506040513d601f19601f8201168201806040525081019061119791906148ff565b905060008173ffffffffffffffffffffffffffffffffffffffff16639319a26833306040518363ffffffff1660e01b81526004016111d69291906155c5565b60206040518083038186803b1580156111ee57600080fd5b505afa158015611202573d6000803e3d6000fd5b505050506040513d601f19601f820116820180604052508101906112269190614c52565b90506000831180156112385750600583105b611277576040517f08c379a000000000000000000000000000000000000000000000000000000000815260040161126e90615a17565b60405180910390fd5b600084116112ba576040517f08c379a00000000000000000000000000000000000000000000000000000000081526004016112b1906159b7565b60405180910390fd5b600c60003373ffffffffffffffffffffffffffffffffffffffff1673ffffffffffffffffffffffffffffffffffffffff16815260200190815260200160002060008481526020019081526020016000205484111561134d576040517f08c379a000000000000000000000000000000000000000000000000000000000815260040161134490615a77565b60405180910390fd5b600081111561149a576000808373ffffffffffffffffffffffffffffffffffffffff1663d5a87ecb846040518263ffffffff1660e01b81526004016113929190615af7565b60a06040518083038186803b1580156113aa57600080fd5b505afa1580156113be573d6000803e3d6000fd5b505050506040513d601f19601f820116820180604052508101906113e291906149c7565b50935093505050818514156114975761145481600c60003373ffffffffffffffffffffffffffffffffffffffff1673ffffffffffffffffffffffffffffffffffffffff16815260200190815260200160002060008881526020019081526020016000205461361090919063ffffffff16565b861115611496576040517f08c379a000000000000000000000000000000000000000000000000000000000815260040161148d90615a77565b60405180910390fd5b5b50505b60008060009054906101000a900473ffffffffffffffffffffffffffffffffffffffff1673ffffffffffffffffffffffffffffffffffffffff166304433bbc6040518163ffffffff1660e01b81526004016114f490615a97565b60206040518083038186803b15801561150c57600080fd5b505afa158015611520573d6000803e3d6000fd5b505050506040513d601f19601f8201168201806040525081019061154491906148ff565b73ffffffffffffffffffffffffffffffffffffffff166328a2176f6040518163ffffffff1660e01b815260040161157a90615857565b60206040518083038186803b15801561159257600080fd5b505afa1580156115a6573d6000803e3d6000fd5b505050506040513d601f19601f820116820180604052508101906115ca9190614c52565b905060006115d6610e70565b90506000611609600d546115fb670de0b6b3a76400008a61364390919063ffffffff16565b61367a90919063ffffffff16565b905061165d87600b60003373ffffffffffffffffffffffffffffffffffffffff1673ffffffffffffffffffffffffffffffffffffffff1681526020019081526020016000205461361090919063ffffffff16565b600b60003373ffffffffffffffffffffffffffffffffffffffff1673ffffffffffffffffffffffffffffffffffffffff1681526020019081526020016000208190555061170387600c60003373ffffffffffffffffffffffffffffffffffffffff1673ffffffffffffffffffffffffffffffffffffffff16815260200190815260200160002060008981526020019081526020016000205461361090919063ffffffff16565b600c60003373ffffffffffffffffffffffffffffffffffffffff1673ffffffffffffffffffffffffffffffffffffffff16815260200190815260200160002060008881526020019081526020016000208190555061176c87600d5461361090919063ffffffff16565b600d81905550600186141561179b576117908760075461362790919063ffffffff16565b600781905550611815565b60028614156117c4576117b98760085461362790919063ffffffff16565b600881905550611814565b60038614156117ed576117e28760095461362790919063ffffffff16565b600981905550611813565b60048614156118125761180b87600a5461362790919063ffffffff16565b600a819055505b5b5b5b6000600f5467ffffffffffffffff8111801561183057600080fd5b5060405190808252806020026020018201604052801561185f5781602001602082028036833780820191505090505b5090506000600f5467ffffffffffffffff8111801561187d57600080fd5b506040519080825280602002602001820160405280156118ac5781602001602082028036833780820191505090505b5090506000600f54905060008190505b6000811115611bf6576000611904600e600084815260200190815260200160002060009054906101000a900473ffffffffffffffffffffffffffffffffffffffff1687613693565b90506000811115611be757600e600083815260200190815260200160002060009054906101000a900473ffffffffffffffffffffffffffffffffffffffff1673ffffffffffffffffffffffffffffffffffffffff1663a9059cbb3361198a61271061197c8d612710038761364390919063ffffffff16565b61367a90919063ffffffff16565b6040518363ffffffff1660e01b81526004016119a7929190615625565b602060405180830381600087803b1580156119c157600080fd5b505af11580156119d5573d6000803e3d6000fd5b505050506040513d601f19601f820116820180604052508101906119f99190614b35565b50600e600083815260200190815260200160002060009054906101000a900473ffffffffffffffffffffffffffffffffffffffff1673ffffffffffffffffffffffffffffffffffffffff1663a9059cbb600460009054906101000a900473ffffffffffffffffffffffffffffffffffffffff16611a93612710611a858d8761364390919063ffffffff16565b61367a90919063ffffffff16565b6040518363ffffffff1660e01b8152600401611ab0929190615731565b602060405180830381600087803b158015611aca57600080fd5b505af1158015611ade573d6000803e3d6000fd5b505050506040513d601f19601f82011682018060405250810190611b029190614b35565b50611b2e612710611b208a612710038461364390919063ffffffff16565b61367a90919063ffffffff16565b85611b4360018561361090919063ffffffff16565b81518110611b4d57fe5b602002602001018181525050600e600083815260200190815260200160002060009054906101000a900473ffffffffffffffffffffffffffffffffffffffff1684611ba260018561361090919063ffffffff16565b81518110611bac57fe5b602002602001019073ffffffffffffffffffffffffffffffffffffffff16908173ffffffffffffffffffffffffffffffffffffffff16815250505b508080600190039150506118bc565b506000611c26670de0b6b3a7640000611c18878961364390919063ffffffff16565b61367a90919063ffffffff16565b90503373ffffffffffffffffffffffffffffffffffffffff163073ffffffffffffffffffffffffffffffffffffffff167fca9c598e2bf8dd0778925b490473eac35c5a204479163ef8e311b67e2bf18bbb8d84878942604051611c8d959493929190615b12565b60405180910390a35050505050505050505050565b600460009054906101000a900473ffffffffffffffffffffffffffffffffffffffff1673ffffffffffffffffffffffffffffffffffffffff163373ffffffffffffffffffffffffffffffffffffffff1614611d32576040517f08c379a0000000000000000000000000000000000000000000000000000000008152600401611d29906158b7565b60405180910390fd5b6000600f54905060008190505b6000811115611d9257611d84600e600083815260200190815260200160002060009054906101000a900473ffffffffffffffffffffffffffffffffffffffff16613b1e565b808060019003915050611d3f565b5050565b600460009054906101000a900473ffffffffffffffffffffffffffffffffffffffff1681565b60008060008054906101000a900473ffffffffffffffffffffffffffffffffffffffff1673ffffffffffffffffffffffffffffffffffffffff166304433bbc6040518163ffffffff1660e01b8152600401611e16906159f7565b60206040518083038186803b158015611e2e57600080fd5b505afa158015611e42573d6000803e3d6000fd5b505050506040513d601f19601f82011682018060405250810190611e6691906148ff565b905060008173ffffffffffffffffffffffffffffffffffffffff1663be781b1c6040518163ffffffff1660e01b815260040160206040518083038186803b158015611eb057600080fd5b505afa158015611ec4573d6000803e3d6000fd5b505050506040513d601f19601f82011682018060405250810190611ee891906148ff565b90508073ffffffffffffffffffffffffffffffffffffffff166370a08231306040518263ffffffff1660e01b8152600401611f2391906155aa565b60206040518083038186803b158015611f3b57600080fd5b505afa158015611f4f573d6000803e3d6000fd5b505050506040513d601f19601f82011682018060405250810190611f739190614c52565b9250505090565b60106020528060005260406000206000915090505481565b60085481565b600460009054906101000a900473ffffffffffffffffffffffffffffffffffffffff1673ffffffffffffffffffffffffffffffffffffffff163373ffffffffffffffffffffffffffffffffffffffff1614612028576040517f08c379a000000000000000000000000000000000000000000000000000000000815260040161201f906158b7565b60405180910390fd5b600073ffffffffffffffffffffffffffffffffffffffff168273ffffffffffffffffffffffffffffffffffffffff161415612098576040517f08c379a000000000000000000000000000000000000000000000000000000000815260040161208f90615837565b60405180910390fd5b60008060009054906101000a900473ffffffffffffffffffffffffffffffffffffffff1673ffffffffffffffffffffffffffffffffffffffff16632febaebd846040518263ffffffff1660e01b81526004016120f491906155aa565b60206040518083038186803b15801561210c57600080fd5b505afa158015612120573d6000803e3d6000fd5b505050506040513d601f19601f8201168201806040525081019061214491906148ff565b9050600073ffffffffffffffffffffffffffffffffffffffff168173ffffffffffffffffffffffffffffffffffffffff1614156123ba5760008060009054906101000a900473ffffffffffffffffffffffffffffffffffffffff1673ffffffffffffffffffffffffffffffffffffffff166304433bbc6040518163ffffffff1660e01b81526004016121d5906159f7565b60206040518083038186803b1580156121ed57600080fd5b505afa158015612201573d6000803e3d6000fd5b505050506040513d601f19601f8201168201806040525081019061222591906148ff565b90508073ffffffffffffffffffffffffffffffffffffffff1663059ce95d856040518263ffffffff1660e01b815260040161226091906155aa565b60206040518083038186803b15801561227857600080fd5b505afa15801561228c573d6000803e3d6000fd5b505050506040513d601f19601f820116820180604052508101906122b091906148ff565b9150600073ffffffffffffffffffffffffffffffffffffffff168273ffffffffffffffffffffffffffffffffffffffff16146123b8578073ffffffffffffffffffffffffffffffffffffffff1663cc435bf3856040518263ffffffff1660e01b815260040161231f91906155aa565b60206040518083038186803b15801561233757600080fd5b505afa15801561234b573d6000803e3d6000fd5b505050506040513d601f19601f8201168201806040525081019061236f9190614b35565b6123ae576040517f08c379a00000000000000000000000000000000000000000000000000000000081526004016123a590615ad7565b60405180910390fd5b6123b784613fc3565b5b505b600073ffffffffffffffffffffffffffffffffffffffff168173ffffffffffffffffffffffffffffffffffffffff16141561242a576040517f08c379a0000000000000000000000000000000000000000000000000000000008152600401612421906158d7565b60405180910390fd5b6000808273ffffffffffffffffffffffffffffffffffffffff166339158fdd60008054906101000a900473ffffffffffffffffffffffffffffffffffffffff163088886040518563ffffffff1660e01b815260040161248c9493929190615677565b6040805180830381600087803b1580156124a557600080fd5b505af11580156124b9573d6000803e3d6000fd5b505050506040513d601f19601f820116820180604052508101906124dd9190614b5e565b9150915081612521576040517f08c379a000000000000000000000000000000000000000000000000000000000815260040161251890615a57565b60405180910390fd5b60008573ffffffffffffffffffffffffffffffffffffffff16856040516125489190615593565b6000604051808303816000865af19150503d8060008114612585576040519150601f19603f3d011682016040523d82523d6000602084013e61258a565b606091505b50509050806125ce576040517f08c379a00000000000000000000000000000000000000000000000000000000081526004016125c590615a37565b60405180910390fd5b6125d782613fc3565b600460009054906101000a900473ffffffffffffffffffffffffffffffffffffffff1673ffffffffffffffffffffffffffffffffffffffff163073ffffffffffffffffffffffffffffffffffffffff167f364929c6571ff36e52defb6ccaeb414915ab289117424dfed48cebc0f7d7efda88844260405161265a939291906156fa565b60405180910390a3505050505050565b60065481565b60008061267b610e70565b9050612686816140fe565b91505090565b60008073ffffffffffffffffffffffffffffffffffffffff168373ffffffffffffffffffffffffffffffffffffffff1614156126fd576040517f08c379a00000000000000000000000000000000000000000000000000000000081526004016126f490615937565b60405180910390fd5b600073ffffffffffffffffffffffffffffffffffffffff168273ffffffffffffffffffffffffffffffffffffffff16141561276d576040517f08c379a000000000000000000000000000000000000000000000000000000000815260040161276490615957565b60405180910390fd5b60008273ffffffffffffffffffffffffffffffffffffffff16638b2f0f4f856040518263ffffffff1660e01b81526004016127a891906155aa565b60206040518083038186803b1580156127c057600080fd5b505afa1580156127d4573d6000803e3d6000fd5b505050506040513d601f19601f820116820180604052508101906127f89190614c52565b905060008373ffffffffffffffffffffffffffffffffffffffff1663cf54aaa0866040518263ffffffff1660e01b815260040161283591906155aa565b60206040518083038186803b15801561284d57600080fd5b505afa158015612861573d6000803e3d6000fd5b505050506040513d601f19601f820116820180604052508101906128859190614c52565b905060008473ffffffffffffffffffffffffffffffffffffffff1663d4fac45d30886040518363ffffffff1660e01b81526004016128c492919061564e565b60206040518083038186803b1580156128dc57600080fd5b505afa1580156128f0573d6000803e3d6000fd5b505050506040513d601f19601f820116820180604052508101906129149190614c52565b905061293e82600a0a612930858461364390919063ffffffff16565b61367a90919063ffffffff16565b935050505092915050565b60008054906101000a900473ffffffffffffffffffffffffffffffffffffffff1681565b600f5481565b60075481565b60608060008060008054906101000a900473ffffffffffffffffffffffffffffffffffffffff1673ffffffffffffffffffffffffffffffffffffffff166304433bbc6040518163ffffffff1660e01b81526004016129d6906159f7565b60206040518083038186803b1580156129ee57600080fd5b505afa158015612a02573d6000803e3d6000fd5b505050506040513d601f19601f82011682018060405250810190612a2691906148ff565b90506000600f5467ffffffffffffffff81118015612a4357600080fd5b50604051908082528060200260200182016040528015612a725781602001602082028036833780820191505090505b5090506000600f5467ffffffffffffffff81118015612a9057600080fd5b50604051908082528060200260200182016040528015612abf5781602001602082028036833780820191505090505b509050600080600090505b600f54811015612e54578473ffffffffffffffffffffffffffffffffffffffff1663d4fac45d30600e6000612b0960018761362790919063ffffffff16565b815260200190815260200160002060009054906101000a900473ffffffffffffffffffffffffffffffffffffffff166040518363ffffffff1660e01b8152600401612b5592919061564e565b60206040518083038186803b158015612b6d57600080fd5b505afa158015612b81573d6000803e3d6000fd5b505050506040513d601f19601f82011682018060405250810190612ba59190614c52565b838281518110612bb157fe5b602002602001018181525050600e6000612bd560018461362790919063ffffffff16565b815260200190815260200160002060009054906101000a900473ffffffffffffffffffffffffffffffffffffffff16848281518110612c1057fe5b602002602001019073ffffffffffffffffffffffffffffffffffffffff16908173ffffffffffffffffffffffffffffffffffffffff168152505060008573ffffffffffffffffffffffffffffffffffffffff1663cf54aaa0600e6000612c8060018761362790919063ffffffff16565b815260200190815260200160002060009054906101000a900473ffffffffffffffffffffffffffffffffffffffff166040518263ffffffff1660e01b8152600401612ccb91906155aa565b60206040518083038186803b158015612ce357600080fd5b505afa158015612cf7573d6000803e3d6000fd5b505050506040513d601f19601f82011682018060405250810190612d1b9190614c52565b905060008673ffffffffffffffffffffffffffffffffffffffff16638b2f0f4f600e6000612d5360018861362790919063ffffffff16565b815260200190815260200160002060009054906101000a900473ffffffffffffffffffffffffffffffffffffffff166040518263ffffffff1660e01b8152600401612d9e91906155aa565b60206040518083038186803b158015612db657600080fd5b505afa158015612dca573d6000803e3d6000fd5b505050506040513d601f19601f82011682018060405250810190612dee9190614c52565b90506000612e2d83600a0a612e1f84898881518110612e0957fe5b602002602001015161364390919063ffffffff16565b61367a90919063ffffffff16565b9050612e42818661362790919063ffffffff16565b94505050508080600101915050612aca565b5082828296509650965050505050909192565b600a5481565b600081118015612e935750600554612e9082600d5461362790919063ffffffff16565b11155b612ed2576040517f08c379a0000000000000000000000000000000000000000000000000000000008152600401612ec990615897565b60405180910390fd5b60008060009054906101000a900473ffffffffffffffffffffffffffffffffffffffff1673ffffffffffffffffffffffffffffffffffffffff166304433bbc6040518163ffffffff1660e01b8152600401612f2c906159f7565b60206040518083038186803b158015612f4457600080fd5b505afa158015612f58573d6000803e3d6000fd5b505050506040513d601f19601f82011682018060405250810190612f7c91906148ff565b73ffffffffffffffffffffffffffffffffffffffff1663be781b1c6040518163ffffffff1660e01b815260040160206040518083038186803b158015612fc157600080fd5b505afa158015612fd5573d6000803e3d6000fd5b505050506040513d601f19601f82011682018060405250810190612ff991906148ff565b9050600061301783613009612670565b61364390919063ffffffff16565b905061306b83600b60003373ffffffffffffffffffffffffffffffffffffffff1673ffffffffffffffffffffffffffffffffffffffff1681526020019081526020016000205461362790919063ffffffff16565b600b60003373ffffffffffffffffffffffffffffffffffffffff1673ffffffffffffffffffffffffffffffffffffffff168152602001908152602001600020819055506130c383600d5461362790919063ffffffff16565b600d819055506130d3338461412c565b8173ffffffffffffffffffffffffffffffffffffffff166323b872dd3330846040518463ffffffff1660e01b8152600401613110939291906155ee565b602060405180830381600087803b15801561312a57600080fd5b505af115801561313e573d6000803e3d6000fd5b505050506040513d601f19601f820116820180604052508101906131629190614b35565b5061316c82613fc3565b3373ffffffffffffffffffffffffffffffffffffffff163073ffffffffffffffffffffffffffffffffffffffff167f4e2ca0515ed1aef1395f66b5303bb5d6f1bf9d61a353fa53f73f8ac9973fa9f68584426040516131cd93929190615b73565b60405180910390a3505050565b600080600080600073ffffffffffffffffffffffffffffffffffffffff168573ffffffffffffffffffffffffffffffffffffffff161415613250576040517f08c379a000000000000000000000000000000000000000000000000000000000815260040161324790615817565b60405180910390fd5b600c60008673ffffffffffffffffffffffffffffffffffffffff1673ffffffffffffffffffffffffffffffffffffffff16815260200190815260200160002060006001815260200190815260200160002054600c60008773ffffffffffffffffffffffffffffffffffffffff1673ffffffffffffffffffffffffffffffffffffffff16815260200190815260200160002060006002815260200190815260200160002054600c60008873ffffffffffffffffffffffffffffffffffffffff1673ffffffffffffffffffffffffffffffffffffffff16815260200190815260200160002060006003815260200190815260200160002054600c60008973ffffffffffffffffffffffffffffffffffffffff1673ffffffffffffffffffffffffffffffffffffffff1681526020019081526020016000206000600481526020019081526020016000205493509350935093509193509193565b600080600080600754600854600954600a54935093509350935090919293565b60055481565b60008054906101000a900473ffffffffffffffffffffffffffffffffffffffff1673ffffffffffffffffffffffffffffffffffffffff166304433bbc6040518163ffffffff1660e01b8152600401613424906158f7565b60206040518083038186803b15801561343c57600080fd5b505afa158015613450573d6000803e3d6000fd5b505050506040513d601f19601f8201168201806040525081019061347491906148ff565b73ffffffffffffffffffffffffffffffffffffffff163373ffffffffffffffffffffffffffffffffffffffff16146134e1576040517f08c379a00000000000000000000000000000000000000000000000000000000081526004016134d890615997565b60405180910390fd5b80600260006101000a81548173ffffffffffffffffffffffffffffffffffffffff021916908373ffffffffffffffffffffffffffffffffffffffff16021790555050565b600b6020528060005260406000206000915090505481565b6000600190505b6004811161360d576000600c60003373ffffffffffffffffffffffffffffffffffffffff1673ffffffffffffffffffffffffffffffffffffffff1681526020019081526020016000206000838152602001908152602001600020541115613600576135ff600c60003373ffffffffffffffffffffffffffffffffffffffff1673ffffffffffffffffffffffffffffffffffffffff168152602001908152602001600020600083815260200190815260200160002054826110ed565b5b8080600101915050613544565b50565b60008282111561361c57fe5b818303905092915050565b60008082840190508381101561363957fe5b8091505092915050565b6000808314156136565760009050613674565b600082840290508284828161366757fe5b041461366f57fe5b809150505b92915050565b60008082848161368657fe5b0490508091505092915050565b60008060008054906101000a900473ffffffffffffffffffffffffffffffffffffffff1673ffffffffffffffffffffffffffffffffffffffff166304433bbc6040518163ffffffff1660e01b81526004016136ed906159f7565b60206040518083038186803b15801561370557600080fd5b505afa158015613719573d6000803e3d6000fd5b505050506040513d601f19601f8201168201806040525081019061373d91906148ff565b905060008173ffffffffffffffffffffffffffffffffffffffff1663059ce95d866040518263ffffffff1660e01b815260040161377a91906155aa565b60206040518083038186803b15801561379257600080fd5b505afa1580156137a6573d6000803e3d6000fd5b505050506040513d601f19601f820116820180604052508101906137ca91906148ff565b905060008060008373ffffffffffffffffffffffffffffffffffffffff166398d04673308a8a6040518463ffffffff1660e01b815260040161380e939291906156c3565b60006040518083038186803b15801561382657600080fd5b505afa15801561383a573d6000803e3d6000fd5b505050506040513d6000823e3d601f19601f820116820180604052508101906138639190614ace565b925092509250600081511115613b105760008073ffffffffffffffffffffffffffffffffffffffff168473ffffffffffffffffffffffffffffffffffffffff1614613934578373ffffffffffffffffffffffffffffffffffffffff166370a08231306040518263ffffffff1660e01b81526004016138e191906155aa565b60206040518083038186803b1580156138f957600080fd5b505afa15801561390d573d6000803e3d6000fd5b505050506040513d601f19601f820116820180604052508101906139319190614c52565b90505b60005b8251811015613a2957600083828151811061394e57fe5b60200260200101516000015173ffffffffffffffffffffffffffffffffffffffff1684838151811061397c57fe5b6020026020010151602001516040516139959190615593565b6000604051808303816000865af19150503d80600081146139d2576040519150601f19603f3d011682016040523d82523d6000602084013e6139d7565b606091505b5050905080613a1b576040517f08c379a0000000000000000000000000000000000000000000000000000000008152600401613a12906159d7565b60405180910390fd5b508080600101915050613937565b50600073ffffffffffffffffffffffffffffffffffffffff168473ffffffffffffffffffffffffffffffffffffffff1614613b0e57613b0b81613afd8673ffffffffffffffffffffffffffffffffffffffff166370a08231306040518263ffffffff1660e01b8152600401613a9e91906155aa565b60206040518083038186803b158015613ab657600080fd5b505afa158015613aca573d6000803e3d6000fd5b505050506040513d601f19601f82011682018060405250810190613aee9190614c52565b8661362790919063ffffffff16565b61361090919063ffffffff16565b92505b505b819550505050505092915050565b600073ffffffffffffffffffffffffffffffffffffffff168173ffffffffffffffffffffffffffffffffffffffff161415613b8e576040517f08c379a0000000000000000000000000000000000000000000000000000000008152600401613b8590615937565b60405180910390fd5b60008060009054906101000a900473ffffffffffffffffffffffffffffffffffffffff1673ffffffffffffffffffffffffffffffffffffffff166304433bbc6040518163ffffffff1660e01b8152600401613be8906159f7565b60206040518083038186803b158015613c0057600080fd5b505afa158015613c14573d6000803e3d6000fd5b505050506040513d601f19601f82011682018060405250810190613c3891906148ff565b90506103e88173ffffffffffffffffffffffffffffffffffffffff1663d4fac45d30856040518363ffffffff1660e01b8152600401613c7892919061564e565b60206040518083038186803b158015613c9057600080fd5b505afa158015613ca4573d6000803e3d6000fd5b505050506040513d601f19601f82011682018060405250810190613cc89190614c52565b1015613fbf57600e6000600f54815260200190815260200160002060009054906101000a900473ffffffffffffffffffffffffffffffffffffffff1673ffffffffffffffffffffffffffffffffffffffff16600e6000601060008673ffffffffffffffffffffffffffffffffffffffff1673ffffffffffffffffffffffffffffffffffffffff16815260200190815260200160002054815260200190815260200160002060009054906101000a900473ffffffffffffffffffffffffffffffffffffffff1673ffffffffffffffffffffffffffffffffffffffff1614613f2757600e6000600f54815260200190815260200160002060009054906101000a900473ffffffffffffffffffffffffffffffffffffffff16600e6000601060008673ffffffffffffffffffffffffffffffffffffffff1673ffffffffffffffffffffffffffffffffffffffff16815260200190815260200160002054815260200190815260200160002060006101000a81548173ffffffffffffffffffffffffffffffffffffffff021916908373ffffffffffffffffffffffffffffffffffffffff160217905550601060008373ffffffffffffffffffffffffffffffffffffffff1673ffffffffffffffffffffffffffffffffffffffff1681526020019081526020016000205460106000600e6000600f54815260200190815260200160002060009054906101000a900473ffffffffffffffffffffffffffffffffffffffff1673ffffffffffffffffffffffffffffffffffffffff1673ffffffffffffffffffffffffffffffffffffffff168152602001908152602001600020819055505b600e6000600f54815260200190815260200160002060006101000a81549073ffffffffffffffffffffffffffffffffffffffff0219169055601060008373ffffffffffffffffffffffffffffffffffffffff1673ffffffffffffffffffffffffffffffffffffffff16815260200190815260200160002060009055613fb86001600f5461361090919063ffffffff16565b600f819055505b5050565b600073ffffffffffffffffffffffffffffffffffffffff168173ffffffffffffffffffffffffffffffffffffffff161415801561403f57506000601060008373ffffffffffffffffffffffffffffffffffffffff1673ffffffffffffffffffffffffffffffffffffffff16815260200190815260200160002054145b156140fb5761405a6001600f5461362790919063ffffffff16565b600f8190555080600e6000600f54815260200190815260200160002060006101000a81548173ffffffffffffffffffffffffffffffffffffffff021916908373ffffffffffffffffffffffffffffffffffffffff160217905550600f54601060008373ffffffffffffffffffffffffffffffffffffffff1673ffffffffffffffffffffffffffffffffffffffff168152602001908152602001600020819055505b50565b60008082146141215761411c600d548361367a90919063ffffffff16565b614125565b6006545b9050919050565b60008060075411801561413f5750600082115b156142435760075482116141535781614157565b6007545b90506141bd81600c60008673ffffffffffffffffffffffffffffffffffffffff1673ffffffffffffffffffffffffffffffffffffffff1681526020019081526020016000206000600181526020019081526020016000205461362790919063ffffffff16565b600c60008573ffffffffffffffffffffffffffffffffffffffff1673ffffffffffffffffffffffffffffffffffffffff168152602001908152602001600020600060018152602001908152602001600020819055506142278160075461361090919063ffffffff16565b600781905550614240818361361090919063ffffffff16565b91505b60006008541180156142555750600082115b15614359576008548211614269578161426d565b6008545b90506142d381600c60008673ffffffffffffffffffffffffffffffffffffffff1673ffffffffffffffffffffffffffffffffffffffff1681526020019081526020016000206000600281526020019081526020016000205461362790919063ffffffff16565b600c60008573ffffffffffffffffffffffffffffffffffffffff1673ffffffffffffffffffffffffffffffffffffffff1681526020019081526020016000206000600281526020019081526020016000208190555061433d8160085461361090919063ffffffff16565b600881905550614356818361361090919063ffffffff16565b91505b600060095411801561436b5750600082115b1561446f57600954821161437f5781614383565b6009545b90506143e981600c60008673ffffffffffffffffffffffffffffffffffffffff1673ffffffffffffffffffffffffffffffffffffffff1681526020019081526020016000206000600381526020019081526020016000205461362790919063ffffffff16565b600c60008573ffffffffffffffffffffffffffffffffffffffff1673ffffffffffffffffffffffffffffffffffffffff168152602001908152602001600020600060038152602001908152602001600020819055506144538160095461361090919063ffffffff16565b60098190555061446c818361361090919063ffffffff16565b91505b6000600a541180156144815750600082115b1561458557600a5482116144955781614499565b600a545b90506144ff81600c60008673ffffffffffffffffffffffffffffffffffffffff1673ffffffffffffffffffffffffffffffffffffffff1681526020019081526020016000206000600481526020019081526020016000205461362790919063ffffffff16565b600c60008573ffffffffffffffffffffffffffffffffffffffff1673ffffffffffffffffffffffffffffffffffffffff1681526020019081526020016000206000600481526020019081526020016000208190555061456981600a5461361090919063ffffffff16565b600a81905550614582818361361090919063ffffffff16565b91505b505050565b828054600181600116156101000203166002900490600052602060002090601f0160209004810192826145c05760008555614607565b82601f106145d957805160ff1916838001178555614607565b82800160010185558215614607579182015b828111156146065782518255916020019190600101906145eb565b5b5090506146149190614618565b5090565b5b80821115614631576000816000905550600101614619565b5090565b600061464861464384615c20565b615bef565b9050808382526020820190508260005b85811015614688578151850161466e8882614848565b845260208401935060208301925050600181019050614658565b5050509392505050565b60006146a56146a084615c4c565b615bef565b9050828152602081018484840111156146bd57600080fd5b6146c8848285615e15565b509392505050565b60006146e36146de84615c4c565b615bef565b9050828152602081018484840111156146fb57600080fd5b614706848285615e24565b509392505050565b600061472161471c84615c7c565b615bef565b90508281526020810184848401111561473957600080fd5b614744848285615e15565b509392505050565b60008135905061475b81615e6a565b92915050565b60008151905061477081615e6a565b92915050565b600082601f83011261478757600080fd5b8151614797848260208601614635565b91505092915050565b6000815190506147af81615e81565b92915050565b600082601f8301126147c657600080fd5b81356147d6848260208601614692565b91505092915050565b600082601f8301126147f057600080fd5b81516148008482602086016146d0565b91505092915050565b60008135905061481881615e98565b92915050565b600082601f83011261482f57600080fd5b813561483f84826020860161470e565b91505092915050565b60006040828403121561485a57600080fd5b6148646040615bef565b9050600061487484828501614761565b600083015250602082015167ffffffffffffffff81111561489457600080fd5b6148a0848285016147df565b60208301525092915050565b6000813590506148bb81615eaf565b92915050565b6000815190506148d081615eaf565b92915050565b6000602082840312156148e857600080fd5b60006148f68482850161474c565b91505092915050565b60006020828403121561491157600080fd5b600061491f84828501614761565b91505092915050565b6000806040838503121561493b57600080fd5b60006149498582860161474c565b925050602061495a8582860161474c565b9150509250929050565b6000806000806080858703121561497a57600080fd5b60006149888782880161474c565b94505060206149998782880161474c565b93505060406149aa878288016148ac565b92505060606149bb878288016148ac565b91505092959194509250565b600080600080600060a086880312156149df57600080fd5b60006149ed88828901614761565b95505060206149fe88828901614761565b9450506040614a0f888289016148c1565b9350506060614a20888289016148c1565b9250506080614a31888289016148c1565b9150509295509295909350565b60008060408385031215614a5157600080fd5b6000614a5f8582860161474c565b925050602083013567ffffffffffffffff811115614a7c57600080fd5b614a88858286016147b5565b9150509250929050565b60008060408385031215614aa557600080fd5b6000614ab38582860161474c565b9250506020614ac4858286016148ac565b9150509250929050565b600080600060608486031215614ae357600080fd5b6000614af186828701614761565b9350506020614b02868287016148c1565b925050604084015167ffffffffffffffff811115614b1f57600080fd5b614b2b86828701614776565b9150509250925092565b600060208284031215614b4757600080fd5b6000614b55848285016147a0565b91505092915050565b60008060408385031215614b7157600080fd5b6000614b7f858286016147a0565b9250506020614b9085828601614761565b9150509250929050565b600080600080600060a08688031215614bb257600080fd5b600086013567ffffffffffffffff811115614bcc57600080fd5b614bd88882890161481e565b9550506020614be9888289016148ac565b9450506040614bfa888289016148ac565b9350506060614c0b8882890161474c565b9250506080614c1c88828901614809565b9150509295509295909350565b600060208284031215614c3b57600080fd5b6000614c49848285016148ac565b91505092915050565b600060208284031215614c6457600080fd5b6000614c72848285016148c1565b91505092915050565b60008060408385031215614c8e57600080fd5b6000614c9c858286016148ac565b9250506020614cad858286016148ac565b9150509250929050565b6000614cc38383614cf6565b60208301905092915050565b6000614cdb8383615575565b60208301905092915050565b614cf081615dbb565b82525050565b614cff81615d61565b82525050565b614d0e81615d61565b82525050565b6000614d1f82615ccc565b614d298185615d12565b9350614d3483615cac565b8060005b83811015614d65578151614d4c8882614cb7565b9750614d5783615cf8565b925050600181019050614d38565b5085935050505092915050565b6000614d7d82615cd7565b614d878185615d23565b9350614d9283615cbc565b8060005b83811015614dc3578151614daa8882614ccf565b9750614db583615d05565b925050600181019050614d96565b5085935050505092915050565b614dd981615d73565b82525050565b6000614dea82615ce2565b614df48185615d34565b9350614e04818560208601615e24565b614e0d81615e59565b840191505092915050565b6000614e2382615ce2565b614e2d8185615d45565b9350614e3d818560208601615e24565b80840191505092915050565b614e5281615dcd565b82525050565b6000614e6382615ced565b614e6d8185615d50565b9350614e7d818560208601615e24565b614e8681615e59565b840191505092915050565b6000614e9e600f83615d50565b91507f496e76616c6964206164647265737300000000000000000000000000000000006000830152602082019050919050565b6000614ede601483615d50565b91507f496e76616c6964207573657220616464726573730000000000000000000000006000830152602082019050919050565b6000614f1e601483615d50565b91507f496e76616c69642027746f2720616464726573730000000000000000000000006000830152602082019050919050565b6000614f5e601183615d50565b91507f4e4654506f6f6c4d616e616765724665650000000000000000000000000000006000830152602082019050919050565b6000614f9e603383615d50565b91507f4e4654506f6f6c3a204f6e6c79204e4654506f6f6c466163746f72792063616e60008301527f2063616c6c20746869732066756e6374696f6e000000000000000000000000006020830152604082019050919050565b6000615004601683615d50565b91507f5175616e74697479206f7574206f6620626f756e6473000000000000000000006000830152602082019050919050565b6000615044603383615d50565b91507f4e4654506f6f6c3a204f6e6c7920706f6f6c2773206d616e616765722063616e60008301527f2063616c6c20746869732066756e6374696f6e000000000000000000000000006020830152604082019050919050565b60006150aa601083615d50565b91507f496e76616c6964207665726966696572000000000000000000000000000000006000830152602082019050919050565b60006150ea600883615d50565b91507f4f70657261746f720000000000000000000000000000000000000000000000006000830152602082019050919050565b600061512a601c83615d50565b91507f4e4654506f6f6c3a20416c726561647920696e697469616c697a6564000000006000830152602082019050919050565b600061516a601583615d50565b91507f496e76616c6964206173736574206164647265737300000000000000000000006000830152602082019050919050565b60006151aa601d83615d50565b91507f496e76616c69642061737365742068616e646c657220616464726573730000006000830152602082019050919050565b60006151ea600b83615d50565b91507f4d61726b6574706c6163650000000000000000000000000000000000000000006000830152602082019050919050565b600061522a602d83615d50565b91507f4e4654506f6f6c3a204f6e6c79204f70657261746f722063616e2063616c6c2060008301527f746869732066756e6374696f6e000000000000000000000000000000000000006020830152604082019050919050565b6000615290602883615d50565b91507f5769746864726177616c20616d6f756e74206d7573742062652067726561746560008301527f72207468616e20300000000000000000000000000000000000000000000000006020830152604082019050919050565b60006152f6601983615d50565b91507f4661696c656420746f20776974686472617720746f6b656e73000000000000006000830152602082019050919050565b6000615336600c83615d50565b91507f417373657448616e646c657200000000000000000000000000000000000000006000830152602082019050919050565b6000615376602383615d50565b91507f546f6b656e20636c617373206d757374206265206265747765656e203120616e60008301527f64203400000000000000000000000000000000000000000000000000000000006020830152604082019050919050565b60006153dc601d83615d50565b91507f5472616e73616374696f6e206661696c656420746f20657865637574650000006000830152602082019050919050565b600061541c601383615d50565b91507f496e76616c6964207472616e73616374696f6e000000000000000000000000006000830152602082019050919050565b600061545c601183615d50565b91507f4e6f7420656e6f75676820746f6b656e730000000000000000000000000000006000830152602082019050919050565b600061549c600883615d50565b91507f53657474696e67730000000000000000000000000000000000000000000000006000830152602082019050919050565b60006154dc603883615d50565b91507f4e4654506f6f6c3a204f6e6c79204d61726b6574706c616365206f722046617260008301527f6d2063616e2063616c6c20746869732066756e6374696f6e00000000000000006020830152604082019050919050565b6000615542601683615d50565b91507f4e4654506f6f6c3a20696e76616c6964206173736574000000000000000000006000830152602082019050919050565b61557e81615db1565b82525050565b61558d81615db1565b82525050565b600061559f8284614e18565b915081905092915050565b60006020820190506155bf6000830184614d05565b92915050565b60006040820190506155da6000830185614ce7565b6155e76020830184614d05565b9392505050565b60006060820190506156036000830186614ce7565b6156106020830185614d05565b61561d6040830184615584565b949350505050565b600060408201905061563a6000830185614ce7565b6156476020830184615584565b9392505050565b60006040820190506156636000830185614d05565b6156706020830184614d05565b9392505050565b600060808201905061568c6000830187614d05565b6156996020830186614d05565b6156a66040830185614d05565b81810360608301526156b88184614ddf565b905095945050505050565b60006060820190506156d86000830186614d05565b6156e56020830185614d05565b6156f26040830184615584565b949350505050565b600060608201905061570f6000830186614d05565b61571c6020830185614dd0565b6157296040830184615584565b949350505050565b60006040820190506157466000830185614d05565b6157536020830184615584565b9392505050565b600060608201905081810360008301526157748186614d14565b905081810360208301526157888185614d72565b90506157976040830184615584565b949350505050565b60006020820190506157b46000830184614dd0565b92915050565b60006020820190506157cf6000830184614e49565b92915050565b600060208201905081810360008301526157ef8184614e58565b905092915050565b6000602082019050818103600083015261581081614e91565b9050919050565b6000602082019050818103600083015261583081614ed1565b9050919050565b6000602082019050818103600083015261585081614f11565b9050919050565b6000602082019050818103600083015261587081614f51565b9050919050565b6000602082019050818103600083015261589081614f91565b9050919050565b600060208201905081810360008301526158b081614ff7565b9050919050565b600060208201905081810360008301526158d081615037565b9050919050565b600060208201905081810360008301526158f08161509d565b9050919050565b60006020820190508181036000830152615910816150dd565b9050919050565b600060208201905081810360008301526159308161511d565b9050919050565b600060208201905081810360008301526159508161515d565b9050919050565b600060208201905081810360008301526159708161519d565b9050919050565b60006020820190508181036000830152615990816151dd565b9050919050565b600060208201905081810360008301526159b08161521d565b9050919050565b600060208201905081810360008301526159d081615283565b9050919050565b600060208201905081810360008301526159f0816152e9565b9050919050565b60006020820190508181036000830152615a1081615329565b9050919050565b60006020820190508181036000830152615a3081615369565b9050919050565b60006020820190508181036000830152615a50816153cf565b9050919050565b60006020820190508181036000830152615a708161540f565b9050919050565b60006020820190508181036000830152615a908161544f565b9050919050565b60006020820190508181036000830152615ab08161548f565b9050919050565b60006020820190508181036000830152615ad0816154cf565b9050919050565b60006020820190508181036000830152615af081615535565b9050919050565b6000602082019050615b0c6000830184615584565b92915050565b600060a082019050615b276000830188615584565b615b346020830187615584565b8181036040830152615b468186614d14565b90508181036060830152615b5a8185614d72565b9050615b696080830184615584565b9695505050505050565b6000606082019050615b886000830186615584565b615b956020830185615584565b615ba26040830184615584565b949350505050565b6000608082019050615bbf6000830187615584565b615bcc6020830186615584565b615bd96040830185615584565b615be66060830184615584565b95945050505050565b6000604051905081810181811067ffffffffffffffff82111715615c1657615c15615e57565b5b8060405250919050565b600067ffffffffffffffff821115615c3b57615c3a615e57565b5b602082029050602081019050919050565b600067ffffffffffffffff821115615c6757615c66615e57565b5b601f19601f8301169050602081019050919050565b600067ffffffffffffffff821115615c9757615c96615e57565b5b601f19601f8301169050602081019050919050565b6000819050602082019050919050565b6000819050602082019050919050565b600081519050919050565b600081519050919050565b600081519050919050565b600081519050919050565b6000602082019050919050565b6000602082019050919050565b600082825260208201905092915050565b600082825260208201905092915050565b600082825260208201905092915050565b600081905092915050565b600082825260208201905092915050565b6000615d6c82615d91565b9050919050565b60008115159050919050565b6000615d8a82615d61565b9050919050565b600073ffffffffffffffffffffffffffffffffffffffff82169050919050565b6000819050919050565b6000615dc682615df1565b9050919050565b6000615dd882615ddf565b9050919050565b6000615dea82615d91565b9050919050565b6000615dfc82615e03565b9050919050565b6000615e0e82615d91565b9050919050565b82818337600083830152505050565b60005b83811015615e42578082015181840152602081019050615e27565b83811115615e51576000848401525b50505050565bfe5b6000601f19601f8301169050919050565b615e7381615d61565b8114615e7e57600080fd5b50565b615e8a81615d73565b8114615e9557600080fd5b50565b615ea181615d7f565b8114615eac57600080fd5b50565b615eb881615db1565b8114615ec357600080fd5b5056fea2646970667358221220ece6409bf873329f1aed4f29f422ed7c22c4b531f250c600f9397e4039a9401164736f6c63430007060033",
  "immutableReferences": {},
  "source": "// SPDX-License-Identifier: MIT\r\n\r\npragma solidity >=0.7.6;\r\npragma experimental ABIEncoderV2;\r\n\r\n//Interfaces\r\nimport './interfaces/IERC20.sol';\r\nimport './interfaces/ISettings.sol';\r\nimport './interfaces/IAddressResolver.sol';\r\nimport './interfaces/IAssetHandler.sol';\r\nimport './interfaces/IAssetVerifier.sol';\r\nimport './interfaces/IVerifier.sol';\r\nimport './interfaces/IMarketplace.sol';\r\n\r\n//Inheritance\r\nimport './interfaces/INFTPool.sol';\r\nimport './interfaces/ISellable.sol';\r\n\r\n//Libraries\r\nimport './libraries/SafeMath.sol';\r\n\r\ncontract NFTPool is INFTPool, ISellable {\r\n    using SafeMath for uint;\r\n\r\n    IAddressResolver public ADDRESS_RESOLVER;\r\n    address private _factory;\r\n    bool private _initialized;\r\n    address public farm;\r\n   \r\n    //Pool info\r\n    string public name;\r\n    address public manager;\r\n    uint public maxSupply;\r\n    uint public seedPrice;\r\n\r\n    //Token class\r\n    uint public availableC1;\r\n    uint public availableC2;\r\n    uint public availableC3;\r\n    uint public availableC4;\r\n\r\n    //User pool tokens\r\n    mapping (address => uint) public override balance;\r\n    mapping (address => mapping (uint => uint)) public override balanceOf;\r\n    uint public override totalSupply;\r\n\r\n    //Position management\r\n    mapping (uint => address) public _positionKeys;\r\n    uint public numberOfPositions;\r\n    mapping (address => uint) public positionToIndex; //maps to (index + 1), with index 0 representing position not found\r\n\r\n    constructor() {\r\n        _factory = msg.sender;\r\n        _initialized = false;\r\n    }\r\n\r\n    /* ========== VIEWS ========== */\r\n\r\n    /**\r\n    * @dev Returns the number of tokens available for each class\r\n    * @return (uint, uint, uint, uint) Number of available C1, C2, C3, and C4 tokens\r\n    */\r\n    function getAvailableTokensPerClass() external view override returns(uint, uint, uint, uint) {\r\n        return (availableC1, availableC2, availableC3, availableC4);\r\n    }\r\n\r\n    /**\r\n    * @dev Given the address of a user, returns the number of tokens the user has for each class\r\n    * @param user Address of the user\r\n    * @return (uint, uint, uint, uint) Number of available C1, C2, C3, and C4 tokens\r\n    */\r\n    function getTokenBalancePerClass(address user) external view override returns(uint, uint, uint, uint) {\r\n        require(user != address(0), \"Invalid user address\");\r\n\r\n        return (balanceOf[user][1], balanceOf[user][2], balanceOf[user][3], balanceOf[user][4]);\r\n    }\r\n\r\n    /**\r\n    * @dev Returns the USD value of the asset\r\n    * @param asset Address of the asset\r\n    * @param assetHandlerAddress Address of AssetHandler contract\r\n    */\r\n    function getAssetValue(address asset, address assetHandlerAddress) public view override returns (uint) {\r\n        require(asset != address(0), \"Invalid asset address\");\r\n        require(assetHandlerAddress != address(0), \"Invalid asset handler address\");\r\n\r\n        uint USDperToken = IAssetHandler(assetHandlerAddress).getUSDPrice(asset);\r\n        uint numberOfDecimals = IAssetHandler(assetHandlerAddress).getDecimals(asset);\r\n        uint assetBalance = IAssetHandler(assetHandlerAddress).getBalance(address(this), asset);\r\n\r\n        return assetBalance.mul(USDperToken).div(10 ** numberOfDecimals);\r\n    }\r\n\r\n    /**\r\n    * @dev Returns the currency address and balance of each position the pool has, as well as the cumulative value\r\n    * @return (address[], uint[], uint) Currency address and balance of each position the pool has, and the cumulative value of positions\r\n    */\r\n    function getPositionsAndTotal() public view override returns (address[] memory, uint[] memory, uint) {\r\n        address assetHandlerAddress = ADDRESS_RESOLVER.getContractAddress(\"AssetHandler\");\r\n        address[] memory addresses = new address[](numberOfPositions);\r\n        uint[] memory balances = new uint[](numberOfPositions);\r\n        uint sum;\r\n\r\n        //Calculate USD value of each asset\r\n        for (uint i = 0; i < numberOfPositions; i++)\r\n        {\r\n            balances[i] = IAssetHandler(assetHandlerAddress).getBalance(address(this), _positionKeys[i.add(1)]);\r\n            addresses[i] = _positionKeys[i.add(1)];\r\n\r\n            uint numberOfDecimals = IAssetHandler(assetHandlerAddress).getDecimals(_positionKeys[i.add(1)]);\r\n            uint USDperToken = IAssetHandler(assetHandlerAddress).getUSDPrice(_positionKeys[i.add(1)]);\r\n            uint positionBalanceInUSD = balances[i].mul(USDperToken).div(10 ** numberOfDecimals);\r\n            sum = sum.add(positionBalanceInUSD);\r\n        }\r\n\r\n        return (addresses, balances, sum);\r\n    }\r\n\r\n    /**\r\n    * @dev Returns the amount of cUSD the pool has to invest\r\n    * @return uint Amount of cUSD the pool has available\r\n    */\r\n    function getAvailableFunds() public view override returns (uint) {\r\n        address assetHandlerAddress = ADDRESS_RESOLVER.getContractAddress(\"AssetHandler\");\r\n        address stableCoinAddress = IAssetHandler(assetHandlerAddress).getStableCoinAddress();\r\n\r\n        return IERC20(stableCoinAddress).balanceOf(address(this));\r\n    }\r\n\r\n    /**\r\n    * @dev Returns the value of the pool in USD\r\n    * @return uint Value of the pool in USD\r\n    */\r\n    function getPoolValue() public view override returns (uint) {\r\n        address assetHandlerAddress = ADDRESS_RESOLVER.getContractAddress(\"AssetHandler\");\r\n        uint sum = 0;\r\n\r\n        //Get USD value of each asset\r\n        for (uint i = 1; i <= numberOfPositions; i++)\r\n        {\r\n            sum = sum.add(getAssetValue(_positionKeys[i], assetHandlerAddress));\r\n        }\r\n        \r\n        return sum;\r\n    }\r\n\r\n    /**\r\n    * @dev Returns the balance of the user in USD\r\n    * @return uint Balance of the user in USD\r\n    */\r\n    function getUSDBalance(address user) public view override returns (uint) {\r\n        require(user != address(0), \"Invalid address\");\r\n\r\n        if (totalSupply == 0)\r\n        {\r\n            return 0;\r\n        }\r\n\r\n        uint poolValue = getPoolValue();\r\n\r\n        return poolValue.mul(balance[user]).div(totalSupply);\r\n    }\r\n\r\n    /**\r\n    * @dev Returns the price of the pool's token\r\n    * @return USD price of the pool's token\r\n    */\r\n    function tokenPrice() public view override returns (uint) {\r\n        uint poolValue = getPoolValue();\r\n\r\n        return _tokenPrice(poolValue);\r\n    }\r\n\r\n    /* ========== MUTATIVE FUNCTIONS ========== */\r\n\r\n    /**\r\n    * @dev Purchases the given amount of pool tokens\r\n    * @notice Call cUSD.approve() before calling this function\r\n    * @param numberOfPoolTokens Number of pool tokens to purchase\r\n    */\r\n    function deposit(uint numberOfPoolTokens) public override {\r\n        require(numberOfPoolTokens > 0 &&\r\n                totalSupply.add(numberOfPoolTokens) <= maxSupply,\r\n                \"Quantity out of bounds\");\r\n\r\n        address stableCoinAddress = IAssetHandler(ADDRESS_RESOLVER.getContractAddress(\"AssetHandler\")).getStableCoinAddress();\r\n        uint amountOfUSD = tokenPrice().mul(numberOfPoolTokens);\r\n\r\n        balance[msg.sender] = balance[msg.sender].add(numberOfPoolTokens);\r\n        totalSupply = totalSupply.add(numberOfPoolTokens);\r\n\r\n        _depositByClass(msg.sender, numberOfPoolTokens);\r\n\r\n        IERC20(stableCoinAddress).transferFrom(msg.sender, address(this), amountOfUSD);\r\n\r\n        _addPositionKey(stableCoinAddress);\r\n\r\n        emit Deposit(address(this), msg.sender, numberOfPoolTokens, amountOfUSD, block.timestamp);\r\n    }\r\n\r\n    /**\r\n    * @dev Withdraws the user's full investment\r\n    * @param numberOfPoolTokens Number of pool tokens to withdraw\r\n    * @param tokenClass Token class to withdraw from\r\n    */\r\n    function withdraw(uint numberOfPoolTokens, uint tokenClass) public override {\r\n        address marketplaceAddress = ADDRESS_RESOLVER.getContractAddress(\"Marketplace\");\r\n        uint index = IMarketplace(marketplaceAddress).getListingIndex(msg.sender, address(this));\r\n\r\n        require(tokenClass > 0 && tokenClass < 5, \"Token class must be between 1 and 4\");\r\n        require(numberOfPoolTokens > 0,\r\n                \"Withdrawal amount must be greater than 0\");\r\n        require(numberOfPoolTokens <= balanceOf[msg.sender][tokenClass],\r\n                 \"Not enough tokens\");\r\n\r\n        //Account for marketplace listing\r\n        if (index > 0)\r\n        {\r\n            (,, uint listedTokenClass, uint listedTokens,) = IMarketplace(marketplaceAddress).getMarketplaceListing(index);\r\n            if (tokenClass == listedTokenClass)\r\n            {\r\n                require(numberOfPoolTokens <= balanceOf[msg.sender][tokenClass].sub(listedTokens),\r\n                    \"Not enough tokens\");\r\n            }\r\n        }\r\n\r\n        uint managerFee = ISettings(ADDRESS_RESOLVER.getContractAddress(\"Settings\")).getParameterValue(\"NFTPoolManagerFee\");\r\n\r\n        uint poolValue = getPoolValue();\r\n        uint portion = numberOfPoolTokens.mul(10**18).div(totalSupply);\r\n\r\n        //Burn user's pool tokens\r\n        balance[msg.sender] = balance[msg.sender].sub(numberOfPoolTokens);\r\n        balanceOf[msg.sender][tokenClass] = balanceOf[msg.sender][tokenClass].sub(numberOfPoolTokens);\r\n        totalSupply = totalSupply.sub(numberOfPoolTokens);\r\n\r\n        //Update number of available tokens per class\r\n        if (tokenClass == 1)\r\n        {\r\n            availableC1 = availableC1.add(numberOfPoolTokens);\r\n        }\r\n        else if (tokenClass == 2)\r\n        {\r\n            availableC2 = availableC2.add(numberOfPoolTokens);\r\n        }\r\n        else if (tokenClass == 3)\r\n        {\r\n            availableC3 = availableC3.add(numberOfPoolTokens);\r\n        }\r\n        else if (tokenClass == 4)\r\n        {\r\n            availableC4 = availableC4.add(numberOfPoolTokens);\r\n        }\r\n\r\n        uint[] memory amountsWithdrawn = new uint[](numberOfPositions);\r\n        address[] memory assetsWithdrawn = new address[](numberOfPositions);\r\n\r\n        uint assetCount = numberOfPositions;\r\n        //Withdraw user's portion of pool's assets\r\n        for (uint i = assetCount; i > 0; i--)\r\n        {\r\n            uint portionOfAssetBalance = _withdrawProcessing(_positionKeys[i], portion);\r\n\r\n            if (portionOfAssetBalance > 0)\r\n            {\r\n                IERC20(_positionKeys[i]).transfer(msg.sender, portionOfAssetBalance.mul(10000 - managerFee).div(10000));\r\n                IERC20(_positionKeys[i]).transfer(manager, portionOfAssetBalance.mul(managerFee).div(10000));\r\n\r\n                amountsWithdrawn[i.sub(1)] = portionOfAssetBalance.mul(10000 - managerFee).div(10000);\r\n                assetsWithdrawn[i.sub(1)] = _positionKeys[i];\r\n            }\r\n        }\r\n\r\n        uint valueWithdrawn = poolValue.mul(portion).div(10**18);\r\n\r\n        emit Withdraw(address(this), msg.sender, numberOfPoolTokens, valueWithdrawn, assetsWithdrawn, amountsWithdrawn, block.timestamp);\r\n    }\r\n\r\n    /**\r\n    * @dev Withdraws the user's full investment\r\n    */\r\n    function exit() external override {\r\n        for (uint i = 1; i <= 4; i++)\r\n        {\r\n            if (balanceOf[msg.sender][i] > 0)\r\n            {\r\n                withdraw(balanceOf[msg.sender][i], i);\r\n            }\r\n        }\r\n    }\r\n\r\n    /* ========== RESTRICTED FUNCTIONS ========== */\r\n\r\n    /**\r\n    * @dev Executes a transaction on behalf of the pool; lets pool talk to other protocols\r\n    * @param to Address of external contract\r\n    * @param data Bytes data for the transaction\r\n    */\r\n    function executeTransaction(address to, bytes memory data) public onlyPoolManager {\r\n        require(to != address(0), \"Invalid 'to' address\");\r\n\r\n        //First try to get contract verifier\r\n        address verifier = ADDRESS_RESOLVER.contractVerifiers(to);\r\n        //Try to get asset verifier if no contract verifier found\r\n        if (verifier == address(0))\r\n        {\r\n            address assetHandlerAddress = ADDRESS_RESOLVER.getContractAddress(\"AssetHandler\");\r\n            verifier = IAssetHandler(assetHandlerAddress).getVerifier(to);\r\n\r\n            //'to' address is an asset; need to check if asset is valid\r\n            if (verifier != address(0))\r\n            {\r\n                require(IAssetHandler(assetHandlerAddress).isValidAsset(to), \"NFTPool: invalid asset\");\r\n\r\n                _addPositionKey(to);\r\n            }\r\n        }\r\n        \r\n        require(verifier != address(0), \"Invalid verifier\");\r\n        \r\n        (bool valid, address receivedAsset) = IVerifier(verifier).verify(address(ADDRESS_RESOLVER), address(this), to, data);\r\n        require(valid, \"Invalid transaction\");\r\n        \r\n        (bool success, ) = to.call(data);\r\n        require(success, \"Transaction failed to execute\");\r\n\r\n        _addPositionKey(receivedAsset);\r\n\r\n        emit ExecutedTransaction(address(this), manager, to, success, block.timestamp);\r\n    }\r\n\r\n    /**\r\n    * @dev Removes the pool's empty positions from position keys\r\n    */\r\n    function removeEmptyPositions() external onlyPoolManager {\r\n        uint assetCount = numberOfPositions;\r\n\r\n        for (uint i = assetCount; i > 0; i--)\r\n        {\r\n            _removePositionKey(_positionKeys[i]);\r\n        }\r\n    }\r\n\r\n    /**\r\n    * @dev Initializes the pool's data and distributes tokens by class\r\n    * @notice Meant to be called once from NFTPoolFactory contract\r\n    * @notice Token distribution: 5% C1, 10% C2, 20% C3, 65% C4\r\n    * @param poolName Name of the pool\r\n    * @param price Initial token price\r\n    * @param supplyCap Maximum number of tokens the pool can have\r\n    * @param poolManager Address of the user who managed this pool\r\n    * @param addressResolver Instance of AddressResolver interface\r\n    */\r\n    function initialize(string memory poolName, uint price, uint supplyCap, address poolManager, IAddressResolver addressResolver) external onlyFactory notInitialized {\r\n        name = poolName;\r\n        manager = poolManager;\r\n        seedPrice = price;\r\n        maxSupply = supplyCap;\r\n        ADDRESS_RESOLVER = addressResolver;\r\n\r\n        _initialized = true;\r\n\r\n        availableC1 = (supplyCap.mul(5).div(100) > 1) ? supplyCap.mul(5).div(100) : 1;\r\n        availableC2 = (supplyCap.mul(10).div(100) > 2) ? supplyCap.mul(10).div(100) : 2;\r\n        availableC3 = (supplyCap.mul(20).div(100) > 3) ? supplyCap.mul(20).div(100) : 3;\r\n        availableC4 = supplyCap.sub(availableC3).sub(availableC2).sub(availableC1);\r\n    }\r\n\r\n    /**\r\n    * @dev Transfers tokens from seller to buyer\r\n    * @notice Meant to be called from Marketplace contract\r\n    * @param from Address of the seller\r\n    * @param to Address of the buyer\r\n    * @param tokenClass The class of the asset's token\r\n    * @param numberOfTokens Number of tokens to purchase\r\n    */\r\n    function transfer(address from, address to, uint tokenClass, uint numberOfTokens) external override onlyMarketplaceOrFarm returns(bool) {\r\n        if (balanceOf[from][tokenClass] < numberOfTokens)\r\n        {\r\n            return false;\r\n        }\r\n\r\n        balanceOf[from][tokenClass] = balanceOf[from][tokenClass].sub(numberOfTokens);\r\n        balanceOf[to][tokenClass] = balanceOf[to][tokenClass].add(numberOfTokens);\r\n        balance[from] = balance[from].sub(numberOfTokens);\r\n        balance[to] = balance[to].add(numberOfTokens);\r\n\r\n        return true;\r\n    }\r\n\r\n    function setFarmAddress(address farmAddress) external onlyOperator {\r\n        farm = farmAddress;\r\n    }\r\n\r\n    /* ========== INTERNAL FUNCTIONS ========== */\r\n\r\n    /**\r\n    * @dev Adds the given currency to position keys\r\n    * @param currency Address of token to add\r\n    */\r\n    function _addPositionKey(address currency) internal {\r\n        //Add token to positionKeys if not currently in positionKeys\r\n        if (currency != address(0) && positionToIndex[currency] == 0)\r\n        {\r\n            numberOfPositions = numberOfPositions.add(1);\r\n            _positionKeys[numberOfPositions] = currency;\r\n            positionToIndex[currency] = numberOfPositions;\r\n        }\r\n    }\r\n\r\n    /**\r\n    * @dev Removes the given currency to position keys\r\n    * @param currency Address of token to remove\r\n    */\r\n    function _removePositionKey(address currency) internal {\r\n        require(currency != address(0), \"Invalid asset address\");\r\n\r\n        address assetHandlerAddress = ADDRESS_RESOLVER.getContractAddress(\"AssetHandler\");\r\n\r\n        //Remove currency from positionKeys if no balance left; account for dust\r\n        if (IAssetHandler(assetHandlerAddress).getBalance(address(this), currency) < 1000)\r\n        {\r\n            if (_positionKeys[positionToIndex[currency]] != _positionKeys[numberOfPositions])\r\n            {\r\n                _positionKeys[positionToIndex[currency]] = _positionKeys[numberOfPositions];\r\n                positionToIndex[_positionKeys[numberOfPositions]] = positionToIndex[currency];\r\n            }\r\n            delete _positionKeys[numberOfPositions];\r\n            delete positionToIndex[currency];\r\n            numberOfPositions = numberOfPositions.sub(1);\r\n        }\r\n    }\r\n\r\n    /**\r\n    * @dev Calculates the price of a pool token\r\n    * @param _poolValue Value of the pool in USD\r\n    * @return value Price of a pool token\r\n    */\r\n    function _tokenPrice(uint _poolValue) internal view returns (uint value) {\r\n        value = (_poolValue == 0) ? seedPrice : _poolValue.div(totalSupply);\r\n    }\r\n\r\n    /**\r\n    * @dev Performs additional processing when withdrawing an asset (such as checking for staked tokens)\r\n    * @param asset Address of asset to withdraw\r\n    * @param portion User's portion of pool's asset balance\r\n    * @return Amount of tokens to withdraw\r\n    */\r\n    function _withdrawProcessing(address asset, uint portion) internal returns (uint) {\r\n        address assetHandlerAddress = ADDRESS_RESOLVER.getContractAddress(\"AssetHandler\");\r\n        address verifier = IAssetHandler(assetHandlerAddress).getVerifier(asset);\r\n\r\n        (address withdrawAsset, uint withdrawBalance, IAssetVerifier.MultiTransaction[] memory transactions) = IAssetVerifier(verifier).prepareWithdrawal(address(this), asset, portion);\r\n\r\n        if (transactions.length > 0)\r\n        {\r\n            uint initialAssetBalance;\r\n            if (withdrawAsset != address(0))\r\n            {\r\n                initialAssetBalance = IERC20(withdrawAsset).balanceOf(address(this));\r\n            }\r\n\r\n            //Execute each transaction\r\n            for (uint i = 0; i < transactions.length; i++)\r\n            {\r\n                (bool success,) = (transactions[i].to).call(transactions[i].txData);\r\n                require(success, \"Failed to withdraw tokens\");\r\n            }\r\n\r\n            //Account for additional tokens added (withdrawing staked LP tokens)\r\n            if (withdrawAsset != address(0))\r\n            {\r\n                withdrawBalance = withdrawBalance.add(IERC20(withdrawAsset).balanceOf(address(this))).sub(initialAssetBalance);\r\n            }\r\n        }\r\n\r\n        return withdrawBalance;\r\n    }\r\n\r\n    /**\r\n    * @dev Distributes user's deposit into different token classes based on how many tokens are available for each class\r\n    * @notice Attempt to distribute C1 first and work up to C4\r\n    * @param user Address of the user\r\n    * @param numberOfTokens Number of tokens to distribute\r\n    */\r\n    function _depositByClass(address user, uint numberOfTokens) internal {\r\n        uint amount;\r\n\r\n        if (availableC1 > 0 && numberOfTokens > 0)\r\n        {\r\n            amount = (numberOfTokens > availableC1) ? availableC1 : numberOfTokens;\r\n            balanceOf[user][1] = balanceOf[user][1].add(amount);\r\n            availableC1 = availableC1.sub(amount);\r\n            numberOfTokens = numberOfTokens.sub(amount);\r\n        }\r\n\r\n        if (availableC2 > 0 && numberOfTokens > 0)\r\n        {\r\n            amount = (numberOfTokens > availableC2) ? availableC2 : numberOfTokens;\r\n            balanceOf[user][2] = balanceOf[user][2].add(amount);\r\n            availableC2 = availableC2.sub(amount);\r\n            numberOfTokens = numberOfTokens.sub(amount);\r\n        }\r\n\r\n        if (availableC3 > 0 && numberOfTokens > 0)\r\n        {\r\n            amount = (numberOfTokens > availableC3) ? availableC3 : numberOfTokens;\r\n            balanceOf[user][3] = balanceOf[user][3].add(amount);\r\n            availableC3 = availableC3.sub(amount);\r\n            numberOfTokens = numberOfTokens.sub(amount);\r\n        }\r\n\r\n        if (availableC4 > 0 && numberOfTokens > 0)\r\n        {\r\n            amount = (numberOfTokens > availableC4) ? availableC4 : numberOfTokens;\r\n            balanceOf[user][4] = balanceOf[user][4].add(amount);\r\n            availableC4 = availableC4.sub(amount);\r\n            numberOfTokens = numberOfTokens.sub(amount);\r\n        }\r\n    }\r\n\r\n    /* ========== MODIFIERS ========== */\r\n\r\n    modifier onlyPoolManager() {\r\n        require(msg.sender == manager, \"NFTPool: Only pool's manager can call this function\");\r\n        _;\r\n    }\r\n\r\n    modifier onlyFactory() {\r\n        require(msg.sender == _factory, \"NFTPool: Only NFTPoolFactory can call this function\");\r\n        _;\r\n    }\r\n\r\n    modifier notInitialized() {\r\n        require(!_initialized, \"NFTPool: Already initialized\");\r\n        _;\r\n    }\r\n\r\n    modifier onlyMarketplaceOrFarm() {\r\n        require(msg.sender == ADDRESS_RESOLVER.getContractAddress(\"Marketplace\") ||\r\n                msg.sender == farm, \"NFTPool: Only Marketplace or Farm can call this function\");\r\n        _;\r\n    }\r\n\r\n    modifier onlyOperator() {\r\n        require(msg.sender == ADDRESS_RESOLVER.getContractAddress(\"Operator\"), \"NFTPool: Only Operator can call this function\");\r\n        _;\r\n    }\r\n\r\n    /* ========== EVENTS ========== */\r\n\r\n    event Deposit(address indexed poolAddress, address indexed userAddress, uint numberOfPoolTokens, uint amountOfUSD, uint timestamp);\r\n    event Withdraw(address indexed poolAddress, address indexed userAddress, uint numberOfPoolTokens, uint valueWithdrawn, address[] assets, uint[] amountsWithdrawn, uint timestamp);\r\n    event ExecutedTransaction(address indexed poolAddress, address indexed manager, address to, bool success, uint timestamp);\r\n}",
  "sourcePath": "C:\\Users\\xavie\\OneDrive\\Desktop\\TradeGen\\Github\\tradegen-protocol\\contracts\\NFTPool.sol",
  "compiler": {
    "name": "solc",
    "version": "0.7.6+commit.7338295f.Emscripten.clang"
  },
  "schemaVersion": "3.4.1",
  "updatedAt": "2021-09-26T18:16:47.547Z",
  "devdoc": {
    "kind": "dev",
    "methods": {
      "deposit(uint256)": {
        "details": "Purchases the given amount of pool tokens",
        "params": {
          "numberOfPoolTokens": "Number of pool tokens to purchase"
        }
      },
      "executeTransaction(address,bytes)": {
        "details": "Executes a transaction on behalf of the pool; lets pool talk to other protocols",
        "params": {
          "data": "Bytes data for the transaction",
          "to": "Address of external contract"
        }
      },
      "exit()": {
        "details": "Withdraws the user's full investment"
      },
      "getAssetValue(address,address)": {
        "details": "Returns the USD value of the asset",
        "params": {
          "asset": "Address of the asset",
          "assetHandlerAddress": "Address of AssetHandler contract"
        }
      },
      "getAvailableFunds()": {
        "details": "Returns the amount of cUSD the pool has to invest",
        "returns": {
          "_0": "uint Amount of cUSD the pool has available"
        }
      },
      "getAvailableTokensPerClass()": {
        "details": "Returns the number of tokens available for each class",
        "returns": {
          "_0": "(uint, uint, uint, uint) Number of available C1, C2, C3, and C4 tokens"
        }
      },
      "getPoolValue()": {
        "details": "Returns the value of the pool in USD",
        "returns": {
          "_0": "uint Value of the pool in USD"
        }
      },
      "getPositionsAndTotal()": {
        "details": "Returns the currency address and balance of each position the pool has, as well as the cumulative value",
        "returns": {
          "_0": "(address[], uint[], uint) Currency address and balance of each position the pool has, and the cumulative value of positions"
        }
      },
      "getTokenBalancePerClass(address)": {
        "details": "Given the address of a user, returns the number of tokens the user has for each class",
        "params": {
          "user": "Address of the user"
        },
        "returns": {
          "_0": "(uint, uint, uint, uint) Number of available C1, C2, C3, and C4 tokens"
        }
      },
      "getUSDBalance(address)": {
        "details": "Returns the balance of the user in USD",
        "returns": {
          "_0": "uint Balance of the user in USD"
        }
      },
      "initialize(string,uint256,uint256,address,address)": {
        "details": "Initializes the pool's data and distributes tokens by class",
        "params": {
          "addressResolver": "Instance of AddressResolver interface",
          "poolManager": "Address of the user who managed this pool",
          "poolName": "Name of the pool",
          "price": "Initial token price",
          "supplyCap": "Maximum number of tokens the pool can have"
        }
      },
      "removeEmptyPositions()": {
        "details": "Removes the pool's empty positions from position keys"
      },
      "tokenPrice()": {
        "details": "Returns the price of the pool's token",
        "returns": {
          "_0": "USD price of the pool's token"
        }
      },
      "transfer(address,address,uint256,uint256)": {
        "details": "Transfers tokens from seller to buyer",
        "params": {
          "from": "Address of the seller",
          "numberOfTokens": "Number of tokens to purchase",
          "to": "Address of the buyer",
          "tokenClass": "The class of the asset's token"
        }
      },
      "withdraw(uint256,uint256)": {
        "details": "Withdraws the user's full investment",
        "params": {
          "numberOfPoolTokens": "Number of pool tokens to withdraw",
          "tokenClass": "Token class to withdraw from"
        }
      }
    },
    "stateVariables": {
      "balance": {
        "details": "Returns the total number of tokens the user has across token classes",
        "params": {
          "user": "Address of the user"
        },
        "return": "uint Total number of tokens the user has"
      },
      "balanceOf": {
        "details": "Returns the number of tokens the user has for the given token class",
        "params": {
          "tokenClass": "The class of the asset's token",
          "user": "Address of the user"
        },
        "return": "uint Number of tokens the user has for the given token class"
      },
      "totalSupply": {
        "details": "Returns the total supply of pool tokens",
        "return": "uint Total supply of pool tokens"
      }
    },
    "version": 1
  },
  "userdoc": {
    "kind": "user",
    "methods": {
      "balance(address)": {
        "notice": "The balance includes tokens the user has for sale"
      },
      "balanceOf(address,uint256)": {
        "notice": "The balance includes tokens the user has for sale"
      },
      "deposit(uint256)": {
        "notice": "Call cUSD.approve() before calling this function"
      },
      "initialize(string,uint256,uint256,address,address)": {
        "notice": "Meant to be called once from NFTPoolFactory contractToken distribution: 5% C1, 10% C2, 20% C3, 65% C4"
      },
      "transfer(address,address,uint256,uint256)": {
        "notice": "Meant to be called from Marketplace contract"
      }
    },
    "version": 1
  }
}