{
  "contractName": "Pool",
  "abi": [
    {
      "inputs": [
        {
          "internalType": "string",
          "name": "name",
          "type": "string"
        },
        {
          "internalType": "uint256",
          "name": "performanceFee",
          "type": "uint256"
        },
        {
          "internalType": "address",
          "name": "manager",
          "type": "address"
        },
        {
          "internalType": "contract IAddressResolver",
          "name": "addressResolver",
          "type": "address"
        }
      ],
      "stateMutability": "nonpayable",
      "type": "constructor"
    },
    {
      "anonymous": false,
      "inputs": [
        {
          "indexed": true,
          "internalType": "address",
          "name": "owner",
          "type": "address"
        },
        {
          "indexed": true,
          "internalType": "address",
          "name": "spender",
          "type": "address"
        },
        {
          "indexed": false,
          "internalType": "uint256",
          "name": "value",
          "type": "uint256"
        }
      ],
      "name": "Approval",
      "type": "event"
    },
    {
      "anonymous": false,
      "inputs": [
        {
          "indexed": true,
          "internalType": "address",
          "name": "poolAddress",
          "type": "address"
        },
        {
          "indexed": true,
          "internalType": "address",
          "name": "userAddress",
          "type": "address"
        },
        {
          "indexed": false,
          "internalType": "uint256",
          "name": "amount",
          "type": "uint256"
        },
        {
          "indexed": false,
          "internalType": "uint256",
          "name": "timestamp",
          "type": "uint256"
        }
      ],
      "name": "Deposit",
      "type": "event"
    },
    {
      "anonymous": false,
      "inputs": [
        {
          "indexed": true,
          "internalType": "address",
          "name": "poolAddress",
          "type": "address"
        },
        {
          "indexed": true,
          "internalType": "address",
          "name": "currencyKey",
          "type": "address"
        },
        {
          "indexed": false,
          "internalType": "bool",
          "name": "buyOrSell",
          "type": "bool"
        },
        {
          "indexed": false,
          "internalType": "uint256",
          "name": "amount",
          "type": "uint256"
        },
        {
          "indexed": false,
          "internalType": "uint256",
          "name": "timestamp",
          "type": "uint256"
        }
      ],
      "name": "PlacedOrder",
      "type": "event"
    },
    {
      "anonymous": false,
      "inputs": [
        {
          "indexed": true,
          "internalType": "address",
          "name": "from",
          "type": "address"
        },
        {
          "indexed": true,
          "internalType": "address",
          "name": "to",
          "type": "address"
        },
        {
          "indexed": false,
          "internalType": "uint256",
          "name": "value",
          "type": "uint256"
        }
      ],
      "name": "Transfer",
      "type": "event"
    },
    {
      "anonymous": false,
      "inputs": [
        {
          "indexed": true,
          "internalType": "address",
          "name": "poolAddress",
          "type": "address"
        },
        {
          "indexed": true,
          "internalType": "address",
          "name": "userAddress",
          "type": "address"
        },
        {
          "indexed": false,
          "internalType": "uint256",
          "name": "amount",
          "type": "uint256"
        },
        {
          "indexed": false,
          "internalType": "uint256",
          "name": "timestamp",
          "type": "uint256"
        }
      ],
      "name": "Withdraw",
      "type": "event"
    },
    {
      "inputs": [],
      "name": "ADDRESS_RESOLVER",
      "outputs": [
        {
          "internalType": "contract IAddressResolver",
          "name": "",
          "type": "address"
        }
      ],
      "stateMutability": "view",
      "type": "function"
    },
    {
      "inputs": [
        {
          "internalType": "address",
          "name": "",
          "type": "address"
        }
      ],
      "name": "_balanceOf",
      "outputs": [
        {
          "internalType": "uint256",
          "name": "",
          "type": "uint256"
        }
      ],
      "stateMutability": "view",
      "type": "function"
    },
    {
      "inputs": [
        {
          "internalType": "address",
          "name": "",
          "type": "address"
        }
      ],
      "name": "_deposits",
      "outputs": [
        {
          "internalType": "uint256",
          "name": "",
          "type": "uint256"
        }
      ],
      "stateMutability": "view",
      "type": "function"
    },
    {
      "inputs": [],
      "name": "_farmAddress",
      "outputs": [
        {
          "internalType": "address",
          "name": "",
          "type": "address"
        }
      ],
      "stateMutability": "view",
      "type": "function"
    },
    {
      "inputs": [],
      "name": "_manager",
      "outputs": [
        {
          "internalType": "address",
          "name": "",
          "type": "address"
        }
      ],
      "stateMutability": "view",
      "type": "function"
    },
    {
      "inputs": [],
      "name": "_name",
      "outputs": [
        {
          "internalType": "string",
          "name": "",
          "type": "string"
        }
      ],
      "stateMutability": "view",
      "type": "function"
    },
    {
      "inputs": [],
      "name": "_performanceFee",
      "outputs": [
        {
          "internalType": "uint256",
          "name": "",
          "type": "uint256"
        }
      ],
      "stateMutability": "view",
      "type": "function"
    },
    {
      "inputs": [
        {
          "internalType": "uint256",
          "name": "",
          "type": "uint256"
        }
      ],
      "name": "_positionKeys",
      "outputs": [
        {
          "internalType": "address",
          "name": "",
          "type": "address"
        }
      ],
      "stateMutability": "view",
      "type": "function"
    },
    {
      "inputs": [],
      "name": "_totalDeposits",
      "outputs": [
        {
          "internalType": "uint256",
          "name": "",
          "type": "uint256"
        }
      ],
      "stateMutability": "view",
      "type": "function"
    },
    {
      "inputs": [],
      "name": "_totalSupply",
      "outputs": [
        {
          "internalType": "uint256",
          "name": "",
          "type": "uint256"
        }
      ],
      "stateMutability": "view",
      "type": "function"
    },
    {
      "inputs": [
        {
          "internalType": "address",
          "name": "",
          "type": "address"
        },
        {
          "internalType": "address",
          "name": "",
          "type": "address"
        }
      ],
      "name": "allowance",
      "outputs": [
        {
          "internalType": "uint256",
          "name": "",
          "type": "uint256"
        }
      ],
      "stateMutability": "view",
      "type": "function"
    },
    {
      "inputs": [],
      "name": "name",
      "outputs": [
        {
          "internalType": "string",
          "name": "",
          "type": "string"
        }
      ],
      "stateMutability": "view",
      "type": "function"
    },
    {
      "inputs": [],
      "name": "symbol",
      "outputs": [
        {
          "internalType": "string",
          "name": "",
          "type": "string"
        }
      ],
      "stateMutability": "view",
      "type": "function"
    },
    {
      "inputs": [],
      "name": "decimals",
      "outputs": [
        {
          "internalType": "uint8",
          "name": "",
          "type": "uint8"
        }
      ],
      "stateMutability": "view",
      "type": "function"
    },
    {
      "inputs": [],
      "name": "getFarmAddress",
      "outputs": [
        {
          "internalType": "address",
          "name": "",
          "type": "address"
        }
      ],
      "stateMutability": "view",
      "type": "function"
    },
    {
      "inputs": [],
      "name": "getManagerAddress",
      "outputs": [
        {
          "internalType": "address",
          "name": "",
          "type": "address"
        }
      ],
      "stateMutability": "view",
      "type": "function"
    },
    {
      "inputs": [],
      "name": "getPositionsAndTotal",
      "outputs": [
        {
          "internalType": "address[]",
          "name": "",
          "type": "address[]"
        },
        {
          "internalType": "uint256[]",
          "name": "",
          "type": "uint256[]"
        },
        {
          "internalType": "uint256",
          "name": "",
          "type": "uint256"
        }
      ],
      "stateMutability": "view",
      "type": "function"
    },
    {
      "inputs": [],
      "name": "getAvailableFunds",
      "outputs": [
        {
          "internalType": "uint256",
          "name": "",
          "type": "uint256"
        }
      ],
      "stateMutability": "view",
      "type": "function"
    },
    {
      "inputs": [],
      "name": "getPoolBalance",
      "outputs": [
        {
          "internalType": "uint256",
          "name": "",
          "type": "uint256"
        }
      ],
      "stateMutability": "view",
      "type": "function"
    },
    {
      "inputs": [
        {
          "internalType": "address",
          "name": "user",
          "type": "address"
        }
      ],
      "name": "getUSDBalance",
      "outputs": [
        {
          "internalType": "uint256",
          "name": "",
          "type": "uint256"
        }
      ],
      "stateMutability": "view",
      "type": "function"
    },
    {
      "inputs": [
        {
          "internalType": "address",
          "name": "user",
          "type": "address"
        }
      ],
      "name": "balanceOf",
      "outputs": [
        {
          "internalType": "uint256",
          "name": "",
          "type": "uint256"
        }
      ],
      "stateMutability": "view",
      "type": "function"
    },
    {
      "inputs": [],
      "name": "totalSupply",
      "outputs": [
        {
          "internalType": "uint256",
          "name": "",
          "type": "uint256"
        }
      ],
      "stateMutability": "view",
      "type": "function"
    },
    {
      "inputs": [],
      "name": "getPerformanceFee",
      "outputs": [
        {
          "internalType": "uint256",
          "name": "",
          "type": "uint256"
        }
      ],
      "stateMutability": "view",
      "type": "function"
    },
    {
      "inputs": [
        {
          "internalType": "address",
          "name": "spender",
          "type": "address"
        },
        {
          "internalType": "uint256",
          "name": "value",
          "type": "uint256"
        }
      ],
      "name": "approve",
      "outputs": [
        {
          "internalType": "bool",
          "name": "",
          "type": "bool"
        }
      ],
      "stateMutability": "nonpayable",
      "type": "function"
    },
    {
      "inputs": [
        {
          "internalType": "address",
          "name": "to",
          "type": "address"
        },
        {
          "internalType": "uint256",
          "name": "value",
          "type": "uint256"
        }
      ],
      "name": "transfer",
      "outputs": [
        {
          "internalType": "bool",
          "name": "",
          "type": "bool"
        }
      ],
      "stateMutability": "nonpayable",
      "type": "function"
    },
    {
      "inputs": [
        {
          "internalType": "address",
          "name": "from",
          "type": "address"
        },
        {
          "internalType": "address",
          "name": "to",
          "type": "address"
        },
        {
          "internalType": "uint256",
          "name": "value",
          "type": "uint256"
        }
      ],
      "name": "transferFrom",
      "outputs": [
        {
          "internalType": "bool",
          "name": "",
          "type": "bool"
        }
      ],
      "stateMutability": "nonpayable",
      "type": "function"
    },
    {
      "inputs": [
        {
          "internalType": "uint256",
          "name": "amount",
          "type": "uint256"
        }
      ],
      "name": "deposit",
      "outputs": [],
      "stateMutability": "nonpayable",
      "type": "function"
    },
    {
      "inputs": [
        {
          "internalType": "uint256",
          "name": "amount",
          "type": "uint256"
        }
      ],
      "name": "withdraw",
      "outputs": [],
      "stateMutability": "nonpayable",
      "type": "function"
    },
    {
      "inputs": [
        {
          "internalType": "address",
          "name": "currencyKey",
          "type": "address"
        },
        {
          "internalType": "bool",
          "name": "buyOrSell",
          "type": "bool"
        },
        {
          "internalType": "uint256",
          "name": "numberOfTokens",
          "type": "uint256"
        }
      ],
      "name": "placeOrder",
      "outputs": [],
      "stateMutability": "nonpayable",
      "type": "function"
    },
    {
      "inputs": [
        {
          "internalType": "address",
          "name": "farmAddress",
          "type": "address"
        }
      ],
      "name": "setFarmAddress",
      "outputs": [],
      "stateMutability": "nonpayable",
      "type": "function"
    }
  ],
  "bytecode": "0x60806040523480156200001157600080fd5b506040516200435138038062004351833981810160405260808110156200003757600080fd5b81019080805160405193929190846401000000008211156200005857600080fd5b838201915060208201858111156200006f57600080fd5b82518660018202830111640100000000821117156200008d57600080fd5b8083526020830192505050908051906020019080838360005b83811015620000c3578082015181840152602081019050620000a6565b50505050905090810190601f168015620000f15780820380516001836020036101000a031916815260200191505b50604052602001805190602001909291908051906020019092919080519060200190929190505050836001908051906020019062000131929190620001c4565b5081600360006101000a81548173ffffffffffffffffffffffffffffffffffffffff021916908373ffffffffffffffffffffffffffffffffffffffff16021790555082600481905550806000806101000a81548173ffffffffffffffffffffffffffffffffffffffff021916908373ffffffffffffffffffffffffffffffffffffffff160217905550505050506200026a565b828054600181600116156101000203166002900490600052602060002090601f016020900481019282601f106200020757805160ff191683800117855562000238565b8280016001018555821562000238579182015b82811115620002375782518255916020019190600101906200021a565b5b5090506200024791906200024b565b5090565b5b80821115620002665760008160009055506001016200024c565b5090565b6140d7806200027a6000396000f3fe608060405234801561001057600080fd5b50600436106101da5760003560e01c8063981f3b8e11610104578063c162d7da116100a2578063dd62ed3e11610071578063dd62ed3e14610949578063f0329f6b146109c1578063f0f3da5e146109f5578063f296255914610a29576101da565b8063c162d7da146107f6578063cca3e8321461082a578063d28d885214610882578063d979980914610905576101da565b8063abd70aa2116100de578063abd70aa2146106de578063ac08c574146106fc578063ae3eb304146107aa578063b6b55f25146107c8576101da565b8063981f3b8e146105ee5780639d2d665814610622578063a9059cbb1461067a576101da565b80632ed8e0d41161017c5780636e1d9d2d1161014b5780636e1d9d2d146104c157806370a08231146104f557806380e282931461054d57806395d89b411461056b576101da565b80632ed8e0d41461040c578063313ce567146104645780633eaaf86b146104855780635195bd29146104a3576101da565b80632322e3b9116101b85780632322e3b9146102e4578063235c36031461033c57806323b872dd1461035a5780632e1a7d4d146103de576101da565b806306fdde03146101df578063095ea7b31461026257806318160ddd146102c6575b600080fd5b6101e7610a83565b6040518080602001828103825283818151815260200191508051906020019080838360005b8381101561022757808201518184015260208101905061020c565b50505050905090810190601f1680156102545780820380516001836020036101000a031916815260200191505b509250505060405180910390f35b6102ae6004803603604081101561027857600080fd5b81019080803573ffffffffffffffffffffffffffffffffffffffff16906020019092919080359060200190929190505050610b25565b60405180821515815260200191505060405180910390f35b6102ce610b3c565b6040518082815260200191505060405180910390f35b610326600480360360208110156102fa57600080fd5b81019080803573ffffffffffffffffffffffffffffffffffffffff169060200190929190505050610b46565b6040518082815260200191505060405180910390f35b610344610c64565b6040518082815260200191505060405180910390f35b6103c66004803603606081101561037057600080fd5b81019080803573ffffffffffffffffffffffffffffffffffffffff169060200190929190803573ffffffffffffffffffffffffffffffffffffffff16906020019092919080359060200190929190505050610c6e565b60405180821515815260200191505060405180910390f35b61040a600480360360208110156103f457600080fd5b8101908080359060200190929190505050610e1a565b005b6104386004803603602081101561042257600080fd5b8101908080359060200190929190505050611583565b604051808273ffffffffffffffffffffffffffffffffffffffff16815260200191505060405180910390f35b61046c6115bf565b604051808260ff16815260200191505060405180910390f35b61048d6115c8565b6040518082815260200191505060405180910390f35b6104ab6115ce565b6040518082815260200191505060405180910390f35b6104c96117de565b604051808273ffffffffffffffffffffffffffffffffffffffff16815260200191505060405180910390f35b6105376004803603602081101561050b57600080fd5b81019080803573ffffffffffffffffffffffffffffffffffffffff169060200190929190505050611808565b6040518082815260200191505060405180910390f35b6105556118f3565b6040518082815260200191505060405180910390f35b6105736118f9565b6040518080602001828103825283818151815260200191508051906020019080838360005b838110156105b3578082015181840152602081019050610598565b50505050905090810190601f1680156105e05780820380516001836020036101000a031916815260200191505b509250505060405180910390f35b6105f6611910565b604051808273ffffffffffffffffffffffffffffffffffffffff16815260200191505060405180910390f35b6106646004803603602081101561063857600080fd5b81019080803573ffffffffffffffffffffffffffffffffffffffff169060200190929190505050611934565b6040518082815260200191505060405180910390f35b6106c66004803603604081101561069057600080fd5b81019080803573ffffffffffffffffffffffffffffffffffffffff1690602001909291908035906020019092919050505061194c565b60405180821515815260200191505060405180910390f35b6106e6611963565b6040518082815260200191505060405180910390f35b610704611979565b604051808060200180602001848152602001838103835286818151815260200191508051906020019060200280838360005b83811015610751578082015181840152602081019050610736565b50505050905001838103825285818151815260200191508051906020019060200280838360005b83811015610793578082015181840152602081019050610778565b505050509050019550505050505060405180910390f35b6107b2611e95565b6040518082815260200191505060405180910390f35b6107f4600480360360208110156107de57600080fd5b8101908080359060200190929190505050611e9b565b005b6107fe612440565b604051808273ffffffffffffffffffffffffffffffffffffffff16815260200191505060405180910390f35b61086c6004803603602081101561084057600080fd5b81019080803573ffffffffffffffffffffffffffffffffffffffff16906020019092919050505061246a565b6040518082815260200191505060405180910390f35b61088a612482565b6040518080602001828103825283818151815260200191508051906020019080838360005b838110156108ca5780820151818401526020810190506108af565b50505050905090810190601f1680156108f75780820380516001836020036101000a031916815260200191505b509250505060405180910390f35b6109476004803603602081101561091b57600080fd5b81019080803573ffffffffffffffffffffffffffffffffffffffff169060200190929190505050612520565b005b6109ab6004803603604081101561095f57600080fd5b81019080803573ffffffffffffffffffffffffffffffffffffffff169060200190929190803573ffffffffffffffffffffffffffffffffffffffff16906020019092919050505061276e565b6040518082815260200191505060405180910390f35b6109c9612793565b604051808273ffffffffffffffffffffffffffffffffffffffff16815260200191505060405180910390f35b6109fd6127b9565b604051808273ffffffffffffffffffffffffffffffffffffffff16815260200191505060405180910390f35b610a8160048036036060811015610a3f57600080fd5b81019080803573ffffffffffffffffffffffffffffffffffffffff169060200190929190803515159060200190929190803590602001909291905050506127df565b005b606060018054600181600116156101000203166002900480601f016020809104026020016040519081016040528092919081815260200182805460018160011615610100020316600290048015610b1b5780601f10610af057610100808354040283529160200191610b1b565b820191906000526020600020905b815481529060010190602001808311610afe57829003601f168201915b5050505050905090565b6000610b3233848461369d565b6001905092915050565b6000600254905090565b60008073ffffffffffffffffffffffffffffffffffffffff168273ffffffffffffffffffffffffffffffffffffffff161415610bea576040517f08c379a000000000000000000000000000000000000000000000000000000000815260040180806020018281038252600f8152602001807f496e76616c69642061646472657373000000000000000000000000000000000081525060200191505060405180910390fd5b6000610bf4611963565b9050610c5c600254610c4e600760008773ffffffffffffffffffffffffffffffffffffffff1673ffffffffffffffffffffffffffffffffffffffff168152602001908152602001600020548461378890919063ffffffff16565b6137bf90919063ffffffff16565b915050919050565b6000600454905090565b600080600960008673ffffffffffffffffffffffffffffffffffffffff1673ffffffffffffffffffffffffffffffffffffffff16815260200190815260200160002060003373ffffffffffffffffffffffffffffffffffffffff1673ffffffffffffffffffffffffffffffffffffffff168152602001908152602001600020541115610e0457610d8382600960008773ffffffffffffffffffffffffffffffffffffffff1673ffffffffffffffffffffffffffffffffffffffff16815260200190815260200160002060003373ffffffffffffffffffffffffffffffffffffffff1673ffffffffffffffffffffffffffffffffffffffff168152602001908152602001600020546137d890919063ffffffff16565b600960008673ffffffffffffffffffffffffffffffffffffffff1673ffffffffffffffffffffffffffffffffffffffff16815260200190815260200160002060003373ffffffffffffffffffffffffffffffffffffffff1673ffffffffffffffffffffffffffffffffffffffff168152602001908152602001600020819055505b610e0f8484846137ef565b600190509392505050565b60008111610e73576040517f08c379a0000000000000000000000000000000000000000000000000000000008152600401808060200182810382526027815260200180613faf6027913960400191505060405180910390fd5b6000610e7d611963565b90506000610ee7600254610ed9600760003373ffffffffffffffffffffffffffffffffffffffff1673ffffffffffffffffffffffffffffffffffffffff168152602001908152602001600020548561378890919063ffffffff16565b6137bf90919063ffffffff16565b905082811015610f42576040517f08c379a0000000000000000000000000000000000000000000000000000000008152600401808060200182810382526022815260200180613f8d6022913960400191505060405180910390fd5b6000600860003373ffffffffffffffffffffffffffffffffffffffff1673ffffffffffffffffffffffffffffffffffffffff168152602001908152602001600020548211610f91576000610fe4565b610fe3600860003373ffffffffffffffffffffffffffffffffffffffff1673ffffffffffffffffffffffffffffffffffffffff16815260200190815260200160002054836137d890919063ffffffff16565b5b905061100b82610ffd868461378890919063ffffffff16565b6137bf90919063ffffffff16565b905061103560646110276004548461378890919063ffffffff16565b6137bf90919063ffffffff16565b9050600081111561104a5761104981613983565b5b60006110b0836110a287600860003373ffffffffffffffffffffffffffffffffffffffff1673ffffffffffffffffffffffffffffffffffffffff1681526020019081526020016000205461378890919063ffffffff16565b6137bf90919063ffffffff16565b905060006111188461110a88600760003373ffffffffffffffffffffffffffffffffffffffff1673ffffffffffffffffffffffffffffffffffffffff1681526020019081526020016000205461378890919063ffffffff16565b6137bf90919063ffffffff16565b905061116c81600760003373ffffffffffffffffffffffffffffffffffffffff1673ffffffffffffffffffffffffffffffffffffffff168152602001908152602001600020546137d890919063ffffffff16565b600760003373ffffffffffffffffffffffffffffffffffffffff1673ffffffffffffffffffffffffffffffffffffffff168152602001908152602001600020819055506111c4816002546137d890919063ffffffff16565b60028190555061121c82600860003373ffffffffffffffffffffffffffffffffffffffff1673ffffffffffffffffffffffffffffffffffffffff168152602001908152602001600020546137d890919063ffffffff16565b600860003373ffffffffffffffffffffffffffffffffffffffff1673ffffffffffffffffffffffffffffffffffffffff16815260200190815260200160002081905550611274826006546137d890919063ffffffff16565b60068190555060005b600a80549050811015611495576000600a828154811061129957fe5b9060005260206000200160009054906101000a900473ffffffffffffffffffffffffffffffffffffffff1673ffffffffffffffffffffffffffffffffffffffff166370a08231306040518263ffffffff1660e01b8152600401808273ffffffffffffffffffffffffffffffffffffffff16815260200191505060206040518083038186803b15801561132a57600080fd5b505afa15801561133e573d6000803e3d6000fd5b505050506040513d602081101561135457600080fd5b8101908080519060200190929190505050905060006113a088611392611383898d6137d890919063ffffffff16565b8561378890919063ffffffff16565b6137bf90919063ffffffff16565b9050600a83815481106113af57fe5b9060005260206000200160009054906101000a900473ffffffffffffffffffffffffffffffffffffffff1673ffffffffffffffffffffffffffffffffffffffff1663a9059cbb33836040518363ffffffff1660e01b8152600401808373ffffffffffffffffffffffffffffffffffffffff16815260200182815260200192505050602060405180830381600087803b15801561144a57600080fd5b505af115801561145e573d6000803e3d6000fd5b505050506040513d602081101561147457600080fd5b8101908080519060200190929190505050505050808060010191505061127d565b506000600254141561150e57600a60006114af9190613e27565b600067ffffffffffffffff811180156114c757600080fd5b506040519080825280602002602001820160405280156114f65781602001602082028036833780820191505090505b50600a908051906020019061150c929190613e48565b505b3373ffffffffffffffffffffffffffffffffffffffff163073ffffffffffffffffffffffffffffffffffffffff167ff341246adaac6f497bc2a656f546ab9e182111d630394f0c57c710a59a2cb5678842604051808381526020018281526020019250505060405180910390a3505050505050565b600a818154811061159057fe5b906000526020600020016000915054906101000a900473ffffffffffffffffffffffffffffffffffffffff1681565b60006012905090565b60025481565b60008060008054906101000a900473ffffffffffffffffffffffffffffffffffffffff1673ffffffffffffffffffffffffffffffffffffffff166304433bbc6040518163ffffffff1660e01b81526004018080602001828103825260088152602001807f53657474696e677300000000000000000000000000000000000000000000000081525060200191505060206040518083038186803b15801561167357600080fd5b505afa158015611687573d6000803e3d6000fd5b505050506040513d602081101561169d57600080fd5b8101908080519060200190929190505050905060008173ffffffffffffffffffffffffffffffffffffffff1663be781b1c6040518163ffffffff1660e01b815260040160206040518083038186803b1580156116f857600080fd5b505afa15801561170c573d6000803e3d6000fd5b505050506040513d602081101561172257600080fd5b810190808051906020019092919050505090508073ffffffffffffffffffffffffffffffffffffffff166370a08231306040518263ffffffff1660e01b8152600401808273ffffffffffffffffffffffffffffffffffffffff16815260200191505060206040518083038186803b15801561179c57600080fd5b505afa1580156117b0573d6000803e3d6000fd5b505050506040513d60208110156117c657600080fd5b81019080805190602001909291905050509250505090565b6000600560009054906101000a900473ffffffffffffffffffffffffffffffffffffffff16905090565b60008073ffffffffffffffffffffffffffffffffffffffff168273ffffffffffffffffffffffffffffffffffffffff1614156118ac576040517f08c379a00000000000000000000000000000000000000000000000000000000081526004018080602001828103825260148152602001807f496e76616c69642075736572206164647265737300000000000000000000000081525060200191505060405180910390fd5b600760008373ffffffffffffffffffffffffffffffffffffffff1673ffffffffffffffffffffffffffffffffffffffff168152602001908152602001600020549050919050565b60045481565b606060405180602001604052806000815250905090565b60008054906101000a900473ffffffffffffffffffffffffffffffffffffffff1681565b60086020528060005260406000206000915090505481565b60006119593384846137ef565b6001905092915050565b60008061196e611979565b925050508091505090565b60608060008060008054906101000a900473ffffffffffffffffffffffffffffffffffffffff1673ffffffffffffffffffffffffffffffffffffffff166304433bbc6040518163ffffffff1660e01b81526004018080602001828103825260128152602001807f426173655562657377617041646170746572000000000000000000000000000081525060200191505060206040518083038186803b158015611a2157600080fd5b505afa158015611a35573d6000803e3d6000fd5b505050506040513d6020811015611a4b57600080fd5b810190808051906020019092919050505090506060600a8054905067ffffffffffffffff81118015611a7c57600080fd5b50604051908082528060200260200182016040528015611aab5781602001602082028036833780820191505090505b5090506060600a8054905067ffffffffffffffff81118015611acc57600080fd5b50604051908082528060200260200182016040528015611afb5781602001602082028036833780820191505090505b509050600080600090505b600a80549050811015611e8257600a8181548110611b2057fe5b9060005260206000200160009054906101000a900473ffffffffffffffffffffffffffffffffffffffff1673ffffffffffffffffffffffffffffffffffffffff166370a08231306040518263ffffffff1660e01b8152600401808273ffffffffffffffffffffffffffffffffffffffff16815260200191505060206040518083038186803b158015611bb157600080fd5b505afa158015611bc5573d6000803e3d6000fd5b505050506040513d6020811015611bdb57600080fd5b8101908080519060200190929190505050838281518110611bf857fe5b602002602001018181525050600a8181548110611c1157fe5b9060005260206000200160009054906101000a900473ffffffffffffffffffffffffffffffffffffffff16848281518110611c4857fe5b602002602001019073ffffffffffffffffffffffffffffffffffffffff16908173ffffffffffffffffffffffffffffffffffffffff16815250506000600a8281548110611c9157fe5b9060005260206000200160009054906101000a900473ffffffffffffffffffffffffffffffffffffffff1673ffffffffffffffffffffffffffffffffffffffff1663313ce5676040518163ffffffff1660e01b815260040160206040518083038186803b158015611d0157600080fd5b505afa158015611d15573d6000803e3d6000fd5b505050506040513d6020811015611d2b57600080fd5b810190808051906020019092919050505060ff16905060008673ffffffffffffffffffffffffffffffffffffffff166341976e09600a8581548110611d6c57fe5b9060005260206000200160009054906101000a900473ffffffffffffffffffffffffffffffffffffffff166040518263ffffffff1660e01b8152600401808273ffffffffffffffffffffffffffffffffffffffff16815260200191505060206040518083038186803b158015611de157600080fd5b505afa158015611df5573d6000803e3d6000fd5b505050506040513d6020811015611e0b57600080fd5b810190808051906020019092919050505090506000611e5b83600a0a611e4d84898881518110611e3757fe5b602002602001015161378890919063ffffffff16565b6137bf90919063ffffffff16565b9050611e708186613e0b90919063ffffffff16565b94505050508080600101915050611b06565b5082828296509650965050505050909192565b60065481565b60008111611ef4576040517f08c379a00000000000000000000000000000000000000000000000000000000081526004018080602001828103825260248152602001806140516024913960400191505060405180910390fd5b6000611efe611963565b905060008060025411611f115782611f39565b611f3882611f2a8560025461378890919063ffffffff16565b6137bf90919063ffffffff16565b5b9050611f8d83600860003373ffffffffffffffffffffffffffffffffffffffff1673ffffffffffffffffffffffffffffffffffffffff16815260200190815260200160002054613e0b90919063ffffffff16565b600860003373ffffffffffffffffffffffffffffffffffffffff1673ffffffffffffffffffffffffffffffffffffffff16815260200190815260200160002081905550611fe583600654613e0b90919063ffffffff16565b60068190555061203d81600760003373ffffffffffffffffffffffffffffffffffffffff1673ffffffffffffffffffffffffffffffffffffffff16815260200190815260200160002054613e0b90919063ffffffff16565b600760003373ffffffffffffffffffffffffffffffffffffffff1673ffffffffffffffffffffffffffffffffffffffff1681526020019081526020016000208190555061209581600254613e0b90919063ffffffff16565b60028190555060008060009054906101000a900473ffffffffffffffffffffffffffffffffffffffff1673ffffffffffffffffffffffffffffffffffffffff166304433bbc6040518163ffffffff1660e01b81526004018080602001828103825260088152602001807f53657474696e677300000000000000000000000000000000000000000000000081525060200191505060206040518083038186803b15801561214057600080fd5b505afa158015612154573d6000803e3d6000fd5b505050506040513d602081101561216a57600080fd5b8101908080519060200190929190505050905060008173ffffffffffffffffffffffffffffffffffffffff1663be781b1c6040518163ffffffff1660e01b815260040160206040518083038186803b1580156121c557600080fd5b505afa1580156121d9573d6000803e3d6000fd5b505050506040513d60208110156121ef57600080fd5b810190808051906020019092919050505090508073ffffffffffffffffffffffffffffffffffffffff166323b872dd3330886040518463ffffffff1660e01b8152600401808473ffffffffffffffffffffffffffffffffffffffff1681526020018373ffffffffffffffffffffffffffffffffffffffff1681526020018281526020019350505050602060405180830381600087803b15801561229157600080fd5b505af11580156122a5573d6000803e3d6000fd5b505050506040513d60208110156122bb57600080fd5b81019080805190602001909291905050505060005b600a8054905081101561235a578173ffffffffffffffffffffffffffffffffffffffff16600a828154811061230157fe5b9060005260206000200160009054906101000a900473ffffffffffffffffffffffffffffffffffffffff1673ffffffffffffffffffffffffffffffffffffffff16141561234d5761235a565b80806001019150506122d0565b600a805490508114156123cb57600a829080600181540180825580915050600190039060005260206000200160009091909190916101000a81548173ffffffffffffffffffffffffffffffffffffffff021916908373ffffffffffffffffffffffffffffffffffffffff1602179055505b3373ffffffffffffffffffffffffffffffffffffffff163073ffffffffffffffffffffffffffffffffffffffff167fdcbc1c05240f31ff3ad067ef1ee35ce4997762752e3a095284754544f4c709d78842604051808381526020018281526020019250505060405180910390a3505050505050565b6000600360009054906101000a900473ffffffffffffffffffffffffffffffffffffffff16905090565b60076020528060005260406000206000915090505481565b60018054600181600116156101000203166002900480601f0160208091040260200160405190810160405280929190818152602001828054600181600116156101000203166002900480156125185780601f106124ed57610100808354040283529160200191612518565b820191906000526020600020905b8154815290600101906020018083116124fb57829003601f168201915b505050505081565b60008060009054906101000a900473ffffffffffffffffffffffffffffffffffffffff1673ffffffffffffffffffffffffffffffffffffffff166304433bbc6040518163ffffffff1660e01b815260040180806020018281038252600b8152602001807f506f6f6c466163746f727900000000000000000000000000000000000000000081525060200191505060206040518083038186803b1580156125c557600080fd5b505afa1580156125d9573d6000803e3d6000fd5b505050506040513d60208110156125ef57600080fd5b810190808051906020019092919050505090508073ffffffffffffffffffffffffffffffffffffffff163373ffffffffffffffffffffffffffffffffffffffff1614612686576040517f08c379a0000000000000000000000000000000000000000000000000000000008152600401808060200182810382526036815260200180613f2b6036913960400191505060405180910390fd5b600073ffffffffffffffffffffffffffffffffffffffff168273ffffffffffffffffffffffffffffffffffffffff161415612729576040517f08c379a00000000000000000000000000000000000000000000000000000000081526004018080602001828103825260148152602001807f496e76616c6964206661726d206164647265737300000000000000000000000081525060200191505060405180910390fd5b81600560006101000a81548173ffffffffffffffffffffffffffffffffffffffff021916908373ffffffffffffffffffffffffffffffffffffffff1602179055505050565b6009602052816000526040600020602052806000526040600020600091509150505481565b600360009054906101000a900473ffffffffffffffffffffffffffffffffffffffff1681565b600560009054906101000a900473ffffffffffffffffffffffffffffffffffffffff1681565b600360009054906101000a900473ffffffffffffffffffffffffffffffffffffffff1673ffffffffffffffffffffffffffffffffffffffff163373ffffffffffffffffffffffffffffffffffffffff1614612885576040517f08c379a0000000000000000000000000000000000000000000000000000000008152600401808060200182810382526030815260200180613fd66030913960400191505060405180910390fd5b60008060009054906101000a900473ffffffffffffffffffffffffffffffffffffffff1673ffffffffffffffffffffffffffffffffffffffff166304433bbc6040518163ffffffff1660e01b81526004018080602001828103825260088152602001807f53657474696e677300000000000000000000000000000000000000000000000081525060200191505060206040518083038186803b15801561292a57600080fd5b505afa15801561293e573d6000803e3d6000fd5b505050506040513d602081101561295457600080fd5b8101908080519060200190929190505050905060008060009054906101000a900473ffffffffffffffffffffffffffffffffffffffff1673ffffffffffffffffffffffffffffffffffffffff166304433bbc6040518163ffffffff1660e01b81526004018080602001828103825260128152602001807f426173655562657377617041646170746572000000000000000000000000000081525060200191505060206040518083038186803b158015612a0c57600080fd5b505afa158015612a20573d6000803e3d6000fd5b505050506040513d6020811015612a3657600080fd5b8101908080519060200190929190505050905060008273ffffffffffffffffffffffffffffffffffffffff1663be781b1c6040518163ffffffff1660e01b815260040160206040518083038186803b158015612a9157600080fd5b505afa158015612aa5573d6000803e3d6000fd5b505050506040513d6020811015612abb57600080fd5b8101908080519060200190929190505050905060008411612b27576040517f08c379a000000000000000000000000000000000000000000000000000000000815260040180806020018281038252602d815260200180614075602d913960400191505060405180910390fd5b600073ffffffffffffffffffffffffffffffffffffffff168673ffffffffffffffffffffffffffffffffffffffff161415612bca576040517f08c379a000000000000000000000000000000000000000000000000000000000815260040180806020018281038252601a8152602001807f506f6f6c3a20496e76616c69642063757272656e6379206b657900000000000081525060200191505060405180910390fd5b8273ffffffffffffffffffffffffffffffffffffffff1663571a0885876040518263ffffffff1660e01b8152600401808273ffffffffffffffffffffffffffffffffffffffff16815260200191505060206040518083038186803b158015612c3157600080fd5b505afa158015612c45573d6000803e3d6000fd5b505050506040513d6020811015612c5b57600080fd5b8101908080519060200190929190505050612cc1576040517f08c379a00000000000000000000000000000000000000000000000000000000081526004018080602001828103825260238152602001806140066023913960400191505060405180910390fd5b60008673ffffffffffffffffffffffffffffffffffffffff1663313ce5676040518163ffffffff1660e01b815260040160206040518083038186803b158015612d0957600080fd5b505afa158015612d1d573d6000803e3d6000fd5b505050506040513d6020811015612d3357600080fd5b810190808051906020019092919050505060ff16905060008373ffffffffffffffffffffffffffffffffffffffff166341976e09896040518263ffffffff1660e01b8152600401808273ffffffffffffffffffffffffffffffffffffffff16815260200191505060206040518083038186803b158015612db257600080fd5b505afa158015612dc6573d6000803e3d6000fd5b505050506040513d6020811015612ddc57600080fd5b81019080805190602001909291905050509050600080612e1a84600a0a612e0c858b61378890919063ffffffff16565b6137bf90919063ffffffff16565b905088156131335780612e2b6115ce565b1015612e9f576040517f08c379a00000000000000000000000000000000000000000000000000000000081526004018080602001828103825260168152602001807f506f6f6c3a204e6f7420656e6f7567682066756e64730000000000000000000081525060200191505060405180910390fd5b60008a73ffffffffffffffffffffffffffffffffffffffff166370a08231306040518263ffffffff1660e01b8152600401808273ffffffffffffffffffffffffffffffffffffffff16815260200191505060206040518083038186803b158015612f0857600080fd5b505afa158015612f1c573d6000803e3d6000fd5b505050506040513d6020811015612f3257600080fd5b81019080805190602001909291905050501415612fad57600a8a9080600181540180825580915050600190039060005260206000200160009091909190916101000a81548173ffffffffffffffffffffffffffffffffffffffff021916908373ffffffffffffffffffffffffffffffffffffffff1602179055505b8473ffffffffffffffffffffffffffffffffffffffff1663a9059cbb87836040518363ffffffff1660e01b8152600401808373ffffffffffffffffffffffffffffffffffffffff16815260200182815260200192505050602060405180830381600087803b15801561301e57600080fd5b505af1158015613032573d6000803e3d6000fd5b505050506040513d602081101561304857600080fd5b8101908080519060200190929190505050508573ffffffffffffffffffffffffffffffffffffffff1663e5414cd0868c848c6040518563ffffffff1660e01b8152600401808573ffffffffffffffffffffffffffffffffffffffff1681526020018473ffffffffffffffffffffffffffffffffffffffff168152602001838152602001828152602001945050505050602060405180830381600087803b1580156130f157600080fd5b505af1158015613105573d6000803e3d6000fd5b505050506040513d602081101561311b57600080fd5b8101908080519060200190929190505050915061361a565b60005b600a805490508110156131c057600a818154811061315057fe5b9060005260206000200160009054906101000a900473ffffffffffffffffffffffffffffffffffffffff1673ffffffffffffffffffffffffffffffffffffffff168b73ffffffffffffffffffffffffffffffffffffffff1614156131b3576131c0565b8080600101915050613136565b600a80549050811061321d576040517f08c379a000000000000000000000000000000000000000000000000000000000815260040180806020018281038252602c815260200180613f61602c913960400191505060405180910390fd5b888b73ffffffffffffffffffffffffffffffffffffffff166370a08231306040518263ffffffff1660e01b8152600401808273ffffffffffffffffffffffffffffffffffffffff16815260200191505060206040518083038186803b15801561328557600080fd5b505afa158015613299573d6000803e3d6000fd5b505050506040513d60208110156132af57600080fd5b81019080805190602001909291905050501015613317576040517f08c379a00000000000000000000000000000000000000000000000000000000081526004018080602001828103825260288152602001806140296028913960400191505060405180910390fd5b8a73ffffffffffffffffffffffffffffffffffffffff1663a9059cbb888b6040518363ffffffff1660e01b8152600401808373ffffffffffffffffffffffffffffffffffffffff16815260200182815260200192505050602060405180830381600087803b15801561338857600080fd5b505af115801561339c573d6000803e3d6000fd5b505050506040513d60208110156133b257600080fd5b8101908080519060200190929190505050508673ffffffffffffffffffffffffffffffffffffffff1663e5414cd08c888c8d6040518563ffffffff1660e01b8152600401808573ffffffffffffffffffffffffffffffffffffffff1681526020018473ffffffffffffffffffffffffffffffffffffffff168152602001838152602001828152602001945050505050602060405180830381600087803b15801561345b57600080fd5b505af115801561346f573d6000803e3d6000fd5b505050506040513d602081101561348557600080fd5b8101908080519060200190929190505050925060008b73ffffffffffffffffffffffffffffffffffffffff166370a08231306040518263ffffffff1660e01b8152600401808273ffffffffffffffffffffffffffffffffffffffff16815260200191505060206040518083038186803b15801561350157600080fd5b505afa158015613515573d6000803e3d6000fd5b505050506040513d602081101561352b57600080fd5b8101908080519060200190929190505050141561361857600a6001600a80549050038154811061355757fe5b9060005260206000200160009054906101000a900473ffffffffffffffffffffffffffffffffffffffff16600a828154811061358f57fe5b9060005260206000200160006101000a81548173ffffffffffffffffffffffffffffffffffffffff021916908373ffffffffffffffffffffffffffffffffffffffff160217905550600a8054806135e257fe5b6001900381819060005260206000200160006101000a81549073ffffffffffffffffffffffffffffffffffffffff021916905590555b505b8973ffffffffffffffffffffffffffffffffffffffff163073ffffffffffffffffffffffffffffffffffffffff167fce36a85b5be955836f12a0d8f59f3814444727532466c99a7f8db34b875906008b8b42604051808415158152602001838152602001828152602001935050505060405180910390a350505050505050505050565b80600960008573ffffffffffffffffffffffffffffffffffffffff1673ffffffffffffffffffffffffffffffffffffffff16815260200190815260200160002060008473ffffffffffffffffffffffffffffffffffffffff1673ffffffffffffffffffffffffffffffffffffffff168152602001908152602001600020819055508173ffffffffffffffffffffffffffffffffffffffff168373ffffffffffffffffffffffffffffffffffffffff167f8c5be1e5ebec7d5bd14f71427d1e84f3dd0314c0f7b2291e5b200ac8c7c3b925836040518082815260200191505060405180910390a3505050565b60008083141561379b57600090506137b9565b60008284029050828482816137ac57fe5b04146137b457fe5b809150505b92915050565b6000808284816137cb57fe5b0490508091505092915050565b6000828211156137e457fe5b818303905092915050565b61384181600760008673ffffffffffffffffffffffffffffffffffffffff1673ffffffffffffffffffffffffffffffffffffffff168152602001908152602001600020546137d890919063ffffffff16565b600760008573ffffffffffffffffffffffffffffffffffffffff1673ffffffffffffffffffffffffffffffffffffffff168152602001908152602001600020819055506138d681600760008573ffffffffffffffffffffffffffffffffffffffff1673ffffffffffffffffffffffffffffffffffffffff16815260200190815260200160002054613e0b90919063ffffffff16565b600760008473ffffffffffffffffffffffffffffffffffffffff1673ffffffffffffffffffffffffffffffffffffffff168152602001908152602001600020819055508173ffffffffffffffffffffffffffffffffffffffff168373ffffffffffffffffffffffffffffffffffffffff167fddf252ad1be2c89b69c2b068fc378daa952ba7f163c4a11628f55a4df523b3ef836040518082815260200191505060405180910390a3505050565b600061398d611963565b905060008060009054906101000a900473ffffffffffffffffffffffffffffffffffffffff1673ffffffffffffffffffffffffffffffffffffffff166304433bbc6040518163ffffffff1660e01b81526004018080602001828103825260078152602001807f466565506f6f6c0000000000000000000000000000000000000000000000000081525060200191505060206040518083038186803b158015613a3457600080fd5b505afa158015613a48573d6000803e3d6000fd5b505050506040513d6020811015613a5e57600080fd5b810190808051906020019092919050505090508073ffffffffffffffffffffffffffffffffffffffff16630939b690600a6040518263ffffffff1660e01b815260040180806020018281038252838181548152602001915080548015613b1957602002820191906000526020600020905b8160009054906101000a900473ffffffffffffffffffffffffffffffffffffffff1673ffffffffffffffffffffffffffffffffffffffff1681526020019060010190808311613acf575b505092505050600060405180830381600087803b158015613b3957600080fd5b505af1158015613b4d573d6000803e3d6000fd5b5050505060005b600a80549050811015613d5a576000600a8281548110613b7057fe5b9060005260206000200160009054906101000a900473ffffffffffffffffffffffffffffffffffffffff1673ffffffffffffffffffffffffffffffffffffffff166370a08231306040518263ffffffff1660e01b8152600401808273ffffffffffffffffffffffffffffffffffffffff16815260200191505060206040518083038186803b158015613c0157600080fd5b505afa158015613c15573d6000803e3d6000fd5b505050506040513d6020811015613c2b57600080fd5b810190808051906020019092919050505090506000613c6585613c57888561378890919063ffffffff16565b6137bf90919063ffffffff16565b9050600a8381548110613c7457fe5b9060005260206000200160009054906101000a900473ffffffffffffffffffffffffffffffffffffffff1673ffffffffffffffffffffffffffffffffffffffff1663a9059cbb85836040518363ffffffff1660e01b8152600401808373ffffffffffffffffffffffffffffffffffffffff16815260200182815260200192505050602060405180830381600087803b158015613d0f57600080fd5b505af1158015613d23573d6000803e3d6000fd5b505050506040513d6020811015613d3957600080fd5b81019080805190602001909291905050505050508080600101915050613b54565b508073ffffffffffffffffffffffffffffffffffffffff16631dfb9aae600360009054906101000a900473ffffffffffffffffffffffffffffffffffffffff16856040518363ffffffff1660e01b8152600401808373ffffffffffffffffffffffffffffffffffffffff16815260200182815260200192505050600060405180830381600087803b158015613dee57600080fd5b505af1158015613e02573d6000803e3d6000fd5b50505050505050565b600080828401905083811015613e1d57fe5b8091505092915050565b5080546000825590600052602060002090810190613e459190613ed2565b50565b828054828255906000526020600020908101928215613ec1579160200282015b82811115613ec05782518260006101000a81548173ffffffffffffffffffffffffffffffffffffffff021916908373ffffffffffffffffffffffffffffffffffffffff16021790555091602001919060010190613e68565b5b509050613ece9190613eef565b5090565b5b80821115613eeb576000816000905550600101613ed3565b5090565b5b80821115613f2657600081816101000a81549073ffffffffffffffffffffffffffffffffffffffff021916905550600101613ef0565b509056fe506f6f6c3a204f6e6c7920506f6f6c466163746f727920636f6e74726163742063616e2063616c6c20746869732066756e6374696f6e506f6f6c3a20446f6e27742068617665206120706f736974696f6e20696e20746869732063757272656e6379506f6f6c3a204e6f7420656e6f7567682066756e647320746f207769746864726177506f6f6c3a205769746864726177616c206d7573742062652067726561746572207468616e2030506f6f6c3a204f6e6c7920706f6f6c2773206d616e616765722063616e2063616c6c20746869732066756e6374696f6e506f6f6c3a2043757272656e6379206b6579206973206e6f7420617661696c61626c65506f6f6c3a204e6f7420656e6f75676820746f6b656e7320696e20746869732063757272656e6379506f6f6c3a204465706f736974206d7573742062652067726561746572207468616e2030506f6f6c3a204e756d626572206f6620746f6b656e73206d7573742062652067726561746572207468616e2030a26469706673582212200b956e19361b990ff1d84aca6eb7c3e9f3865670e27280c8baed7d48f453cdee64736f6c634300060c0033",
  "immutableReferences": {},
  "source": "pragma solidity >=0.5.0;\r\n\r\n//Adapters\r\nimport './interfaces/IBaseUbeswapAdapter.sol';\r\n\r\n//Interfaces\r\nimport './interfaces/IERC20.sol';\r\nimport './interfaces/IPool.sol';\r\nimport './interfaces/ISettings.sol';\r\nimport './interfaces/IAddressResolver.sol';\r\nimport './interfaces/IFeePool.sol';\r\n\r\n//Libraries\r\nimport './libraries/SafeMath.sol';\r\n\r\ncontract Pool is IPool, IERC20 {\r\n    using SafeMath for uint;\r\n\r\n    IAddressResolver public ADDRESS_RESOLVER;\r\n   \r\n    string public _name;\r\n    uint public _totalSupply;\r\n    address public _manager;\r\n    uint public _performanceFee; //expressed as %\r\n    address public _farmAddress;\r\n    uint public _totalDeposits;\r\n\r\n    mapping (address => uint) public _balanceOf;\r\n    mapping (address => uint) public _deposits;\r\n    mapping(address => mapping(address => uint)) public override allowance;\r\n\r\n    address[] public _positionKeys;\r\n\r\n    constructor(string memory name, uint performanceFee, address manager, IAddressResolver addressResolver) public {\r\n        _name = name;\r\n        _manager = manager;\r\n        _performanceFee = performanceFee;\r\n        ADDRESS_RESOLVER = addressResolver;\r\n    }\r\n\r\n    /* ========== VIEWS ========== */\r\n\r\n    /**\r\n    * @dev Returns the name of the pool\r\n    * @return string The name of the pool\r\n    */\r\n    function name() public view override(IPool, IERC20) returns (string memory) {\r\n        return _name;\r\n    }\r\n\r\n    function symbol() public view override returns (string memory) {\r\n        return \"\";\r\n    }\r\n\r\n    function decimals() public view override returns (uint8) {\r\n        return 18;\r\n    }\r\n\r\n    /**\r\n    * @dev Returns the address of the pool's farm\r\n    * @return address Address of the pool's farm\r\n    */\r\n    function getFarmAddress() public view override returns (address) {\r\n        return _farmAddress;\r\n    }\r\n\r\n    /**\r\n    * @dev Return the pool manager's address\r\n    * @return address Address of the pool's manager\r\n    */\r\n    function getManagerAddress() public view override returns (address) {\r\n        return _manager;\r\n    }\r\n\r\n    /**\r\n    * @dev Returns the currency address and balance of each position the pool has, as well as the cumulative value\r\n    * @return (address[], uint[], uint) Currency address and balance of each position the pool has, and the cumulative value of positions\r\n    */\r\n    function getPositionsAndTotal() public view override returns (address[] memory, uint[] memory, uint) {\r\n        address baseUbeswapAdapterAddress = ADDRESS_RESOLVER.getContractAddress(\"BaseUbeswapAdapter\");\r\n        address[] memory addresses = new address[](_positionKeys.length);\r\n        uint[] memory balances = new uint[](_positionKeys.length);\r\n        uint sum;\r\n\r\n        for (uint i = 0; i < _positionKeys.length; i++)\r\n        {\r\n            balances[i] = IERC20(_positionKeys[i]).balanceOf(address(this));\r\n            addresses[i] = _positionKeys[i];\r\n\r\n            uint numberOfDecimals = IERC20(_positionKeys[i]).decimals();\r\n            uint USDperToken = IBaseUbeswapAdapter(baseUbeswapAdapterAddress).getPrice(_positionKeys[i]);\r\n            uint positionBalanceInUSD = balances[i].mul(USDperToken).div(10 ** numberOfDecimals);\r\n            sum = sum.add(positionBalanceInUSD);\r\n        }\r\n\r\n        return (addresses, balances, sum);\r\n    }\r\n\r\n    /**\r\n    * @dev Returns the amount of cUSD the pool has to invest\r\n    * @return uint Amount of cUSD the pool has available\r\n    */\r\n    function getAvailableFunds() public view override returns (uint) {\r\n        address settingsAddress = ADDRESS_RESOLVER.getContractAddress(\"Settings\");\r\n        address stableCoinAddress = ISettings(settingsAddress).getStableCoinAddress();\r\n\r\n        return IERC20(stableCoinAddress).balanceOf(address(this));\r\n    }\r\n\r\n    /**\r\n    * @dev Returns the value of the pool in USD\r\n    * @return uint Value of the pool in USD\r\n    */\r\n    function getPoolBalance() public view override returns (uint) {\r\n        (,, uint positionBalance) = getPositionsAndTotal();\r\n        \r\n        return positionBalance;\r\n    }\r\n\r\n    /**\r\n    * @dev Returns the balance of the user in USD\r\n    * @return uint Balance of the user in USD\r\n    */\r\n    function getUSDBalance(address user) public view override returns (uint) {\r\n        require(user != address(0), \"Invalid address\");\r\n\r\n        uint poolBalance = getPoolBalance();\r\n\r\n        return poolBalance.mul(_balanceOf[user]).div(_totalSupply);\r\n    }\r\n\r\n    /**\r\n    * @dev Returns the number of LP tokens the user has\r\n    * @param user Address of the user\r\n    * @return uint Number of LP tokens the user has\r\n    */\r\n    function balanceOf(address user) public view override(IPool, IERC20) returns (uint) {\r\n        require(user != address(0), \"Invalid user address\");\r\n\r\n        return _balanceOf[user];\r\n    }\r\n\r\n    /**\r\n    * @dev Returns the total supply of LP tokens in the pool\r\n    * @return uint Total supply of LP tokens\r\n    */\r\n    function totalSupply() public view override returns (uint) {\r\n        return _totalSupply;\r\n    }\r\n\r\n    /**\r\n    * @dev Returns the pool's performance fee\r\n    * @return uint The pool's performance fee\r\n    */\r\n    function getPerformanceFee() public view override returns (uint) {\r\n        return _performanceFee;\r\n    }\r\n\r\n    /* ========== MUTATIVE FUNCTIONS ========== */\r\n\r\n    function approve(address spender, uint value) public override returns (bool) {\r\n        _approve(msg.sender, spender, value);\r\n        return true;\r\n    }\r\n\r\n    function transfer(address to, uint value) public override returns (bool) {\r\n        _transfer(msg.sender, to, value);\r\n        return true;\r\n    }\r\n\r\n    function transferFrom(address from, address to, uint value) public override returns (bool) {\r\n        if (allowance[from][msg.sender] > 0) {\r\n            allowance[from][msg.sender] = allowance[from][msg.sender].sub(value);\r\n        }\r\n        _transfer(from, to, value);\r\n        return true;\r\n    }\r\n\r\n    /* ========== RESTRICTED FUNCTIONS ========== */\r\n\r\n    /**\r\n    * @dev Deposits the given USD amount into the pool\r\n    * @notice Call cUSD.approve() before calling this function\r\n    * @param amount Amount of USD to deposit into the pool\r\n    */\r\n    function deposit(uint amount) public override {\r\n        require(amount > 0, \"Pool: Deposit must be greater than 0\");\r\n\r\n        uint poolBalance = getPoolBalance();\r\n        uint numberOfLPTokens = (_totalSupply > 0) ? _totalSupply.mul(amount).div(poolBalance) : amount;\r\n        _deposits[msg.sender] = _deposits[msg.sender].add(amount);\r\n        _totalDeposits = _totalDeposits.add(amount);\r\n        _balanceOf[msg.sender] = _balanceOf[msg.sender].add(numberOfLPTokens);\r\n        _totalSupply = _totalSupply.add(numberOfLPTokens);\r\n\r\n        address settingsAddress = ADDRESS_RESOLVER.getContractAddress(\"Settings\");\r\n        address stableCoinAddress = ISettings(settingsAddress).getStableCoinAddress();\r\n\r\n        IERC20(stableCoinAddress).transferFrom(msg.sender, address(this), amount);\r\n\r\n        //Check for cUSD in position keys \r\n        uint positionIndex;\r\n        for (positionIndex = 0; positionIndex < _positionKeys.length; positionIndex++)\r\n        {\r\n            if (_positionKeys[positionIndex] == stableCoinAddress)\r\n            {\r\n                break;\r\n            }\r\n        }\r\n\r\n        //Add cUSD to position keys if it's not there already\r\n        if (positionIndex == _positionKeys.length)\r\n        {\r\n            _positionKeys.push(stableCoinAddress);\r\n        }\r\n\r\n        emit Deposit(address(this), msg.sender, amount, block.timestamp);\r\n    }\r\n\r\n    /**\r\n    * @dev Withdraws the given USD amount on behalf of the user\r\n    * @notice The withdrawal is done using pool's assets at time of withdrawal. This avoids the exchange fees and slippage from exchanging pool's assets back to cUSD or TGEN.\r\n    * @param amount Amount of USD to withdraw from the pool\r\n    */\r\n    function withdraw(uint amount) public override {\r\n        require(amount > 0, \"Pool: Withdrawal must be greater than 0\");\r\n\r\n        uint poolBalance = getPoolBalance();\r\n        uint USDBalance = poolBalance.mul(_balanceOf[msg.sender]).div(_totalSupply);\r\n\r\n        require(USDBalance >= amount, \"Pool: Not enough funds to withdraw\");\r\n\r\n        uint fee = (USDBalance > _deposits[msg.sender]) ? USDBalance.sub(_deposits[msg.sender]) : 0;\r\n        fee = fee.mul(amount).div(USDBalance); //Multiply by ratio of withdrawal amount to USD balance\r\n        fee = fee.mul(_performanceFee).div(100);\r\n\r\n        //Pay performance fee if user has profit\r\n        if (fee > 0) \r\n        {\r\n            _payPerformanceFee(fee);\r\n        }\r\n\r\n        uint depositAmount = _deposits[msg.sender].mul(amount).div(USDBalance);\r\n        uint numberOfLPTokens = _balanceOf[msg.sender].mul(amount).div(USDBalance);\r\n        _balanceOf[msg.sender] = _balanceOf[msg.sender].sub(numberOfLPTokens);\r\n        _totalSupply = _totalSupply.sub(numberOfLPTokens);\r\n        _deposits[msg.sender] = _deposits[msg.sender].sub(depositAmount);\r\n        _totalDeposits = _totalDeposits.sub(depositAmount);\r\n\r\n        //Withdraw user's portion of pool's assets\r\n        for (uint i = 0; i < _positionKeys.length; i++)\r\n        {\r\n            uint positionBalance = IERC20(_positionKeys[i]).balanceOf(address(this)); //Number of asset's tokens\r\n            uint amountToTransfer = positionBalance.mul(amount.sub(fee)).div(poolBalance); //Multiply by ratio of withdrawal amount after fee to pool's USD balance\r\n\r\n            IERC20(_positionKeys[i]).transfer(msg.sender, amountToTransfer);\r\n        }\r\n\r\n        //Remove position keys if pool is liquidated\r\n        if (_totalSupply == 0)\r\n        {\r\n            delete _positionKeys;\r\n            _positionKeys = new address[](0);\r\n        }\r\n\r\n        emit Withdraw(address(this), msg.sender, amount, block.timestamp);\r\n    }\r\n\r\n    /**\r\n    * @dev Places an order to buy/sell the given currency\r\n    * @param currencyKey Address of currency to trade\r\n    * @param buyOrSell Whether the user is buying or selling\r\n    * @param numberOfTokens Number of tokens of the given currency\r\n    */\r\n    function placeOrder(address currencyKey, bool buyOrSell, uint numberOfTokens) public override onlyPoolManager {\r\n        address settingsAddress = ADDRESS_RESOLVER.getContractAddress(\"Settings\");\r\n        address baseUbeswapAdapterAddress = ADDRESS_RESOLVER.getContractAddress(\"BaseUbeswapAdapter\");\r\n        address stableCoinAddress = ISettings(settingsAddress).getStableCoinAddress();\r\n\r\n        require(numberOfTokens > 0, \"Pool: Number of tokens must be greater than 0\");\r\n        require(currencyKey != address(0), \"Pool: Invalid currency key\");\r\n        require(ISettings(settingsAddress).checkIfCurrencyIsAvailable(currencyKey), \"Pool: Currency key is not available\");\r\n\r\n        uint numberOfDecimals = IERC20(currencyKey).decimals();\r\n        uint tokenToUSD = IBaseUbeswapAdapter(baseUbeswapAdapterAddress).getPrice(currencyKey);\r\n        uint numberOfTokensReceived;\r\n        uint amountInUSD = numberOfTokens.mul(tokenToUSD).div(10 ** numberOfDecimals);\r\n\r\n        //buying\r\n        if (buyOrSell)\r\n        {\r\n            require(getAvailableFunds() >= amountInUSD, \"Pool: Not enough funds\");\r\n\r\n            //Add to position keys if no position yet\r\n            if (IERC20(currencyKey).balanceOf(address(this)) == 0)\r\n            {\r\n                _positionKeys.push(currencyKey);\r\n            }\r\n\r\n            IERC20(stableCoinAddress).transfer(baseUbeswapAdapterAddress, amountInUSD);\r\n            numberOfTokensReceived = IBaseUbeswapAdapter(baseUbeswapAdapterAddress).swapFromPool(stableCoinAddress, currencyKey, amountInUSD, numberOfTokens);\r\n        }\r\n        //selling\r\n        else\r\n        {\r\n            uint positionIndex;\r\n            for (positionIndex = 0; positionIndex < _positionKeys.length; positionIndex++)\r\n            {\r\n                if (currencyKey == _positionKeys[positionIndex])\r\n                {\r\n                    break;\r\n                }\r\n            }\r\n\r\n            require(positionIndex < _positionKeys.length, \"Pool: Don't have a position in this currency\");\r\n            require(IERC20(currencyKey).balanceOf(address(this)) >= numberOfTokens, \"Pool: Not enough tokens in this currency\");\r\n\r\n            IERC20(currencyKey).transfer(baseUbeswapAdapterAddress, numberOfTokens);\r\n            numberOfTokensReceived = IBaseUbeswapAdapter(baseUbeswapAdapterAddress).swapFromPool(currencyKey, stableCoinAddress, numberOfTokens, numberOfTokens);\r\n\r\n            //remove position key if no funds left in currency\r\n            if (IERC20(currencyKey).balanceOf(address(this)) == 0)\r\n            {\r\n                _positionKeys[positionIndex] = _positionKeys[_positionKeys.length - 1];\r\n                _positionKeys.pop();\r\n            }\r\n        }\r\n\r\n        emit PlacedOrder(address(this), currencyKey, buyOrSell, numberOfTokens, block.timestamp);\r\n    }\r\n\r\n    /**\r\n    * @dev Updates the pool's farm address\r\n    * @param farmAddress Address of the pool's farm\r\n    */\r\n    function setFarmAddress(address farmAddress) public override onlyPoolFactory {\r\n        require(farmAddress != address(0), \"Invalid farm address\");\r\n\r\n        _farmAddress = farmAddress;\r\n    }\r\n\r\n    /* ========== INTERNAL FUNCTIONS ========== */\r\n\r\n    /**\r\n    * @dev Pay performance fee on the user's profit when the user withdraws from the pool\r\n    * @notice Performance fee is paid in pool's assets at time of withdrawal\r\n    * @param fee Amount of cUSD to pay as a fee\r\n    */\r\n    function _payPerformanceFee(uint fee) internal {\r\n        uint poolBalance = getPoolBalance();\r\n        address feePoolAddress = ADDRESS_RESOLVER.getContractAddress(\"FeePool\");\r\n\r\n        IFeePool(feePoolAddress).addPositionKeys(_positionKeys);\r\n\r\n        //Withdraw performance fee proportional to pool's assets\r\n        for (uint i = 0; i < _positionKeys.length; i++)\r\n        {\r\n            uint positionBalance = IERC20(_positionKeys[i]).balanceOf(address(this));\r\n            uint amountToTransfer = positionBalance.mul(fee).div(poolBalance);\r\n\r\n            IERC20(_positionKeys[i]).transfer(feePoolAddress, amountToTransfer);\r\n        }\r\n\r\n        IFeePool(feePoolAddress).addFees(_manager, fee);\r\n    }\r\n\r\n    function _approve(address owner, address spender, uint value) private {\r\n        allowance[owner][spender] = value;\r\n        emit Approval(owner, spender, value);\r\n    }\r\n\r\n    function _transfer(address from, address to, uint value) private {\r\n        _balanceOf[from] = _balanceOf[from].sub(value);\r\n        _balanceOf[to] = _balanceOf[to].add(value);\r\n        emit Transfer(from, to, value);\r\n    }\r\n\r\n    /* ========== MODIFIERS ========== */\r\n\r\n    modifier onlyPoolFactory() {\r\n        address poolFactoryAddress = ADDRESS_RESOLVER.getContractAddress(\"PoolFactory\");\r\n\r\n        require(msg.sender == poolFactoryAddress, \"Pool: Only PoolFactory contract can call this function\");\r\n        _;\r\n    }\r\n\r\n    modifier onlyPoolManager() {\r\n        require(msg.sender == _manager, \"Pool: Only pool's manager can call this function\");\r\n        _;\r\n    }\r\n\r\n    /* ========== EVENTS ========== */\r\n\r\n    event Deposit(address indexed poolAddress, address indexed userAddress, uint amount, uint timestamp);\r\n    event Withdraw(address indexed poolAddress, address indexed userAddress, uint amount, uint timestamp);\r\n    event PlacedOrder(address indexed poolAddress, address indexed currencyKey, bool buyOrSell, uint amount, uint timestamp);\r\n}",
  "sourcePath": "C:/Users/xavie/OneDrive/Desktop/TradeGen/Github/tradegen/contracts/Pool.sol",
  "compiler": {
    "name": "solc",
    "version": "0.6.12+commit.27d51765.Emscripten.clang"
  },
  "schemaVersion": "3.4.1",
  "updatedAt": "2021-07-26T17:49:49.566Z",
  "devdoc": {
    "kind": "dev",
    "methods": {
      "balanceOf(address)": {
        "details": "Returns the number of LP tokens the user has",
        "params": {
          "user": "Address of the user"
        },
        "returns": {
          "_0": "uint Number of LP tokens the user has"
        }
      },
      "deposit(uint256)": {
        "details": "Deposits the given USD amount into the pool",
        "params": {
          "amount": "Amount of USD to deposit into the pool"
        }
      },
      "getAvailableFunds()": {
        "details": "Returns the amount of cUSD the pool has to invest",
        "returns": {
          "_0": "uint Amount of cUSD the pool has available"
        }
      },
      "getFarmAddress()": {
        "details": "Returns the address of the pool's farm",
        "returns": {
          "_0": "address Address of the pool's farm"
        }
      },
      "getManagerAddress()": {
        "details": "Return the pool manager's address",
        "returns": {
          "_0": "address Address of the pool's manager"
        }
      },
      "getPerformanceFee()": {
        "details": "Returns the pool's performance fee",
        "returns": {
          "_0": "uint The pool's performance fee"
        }
      },
      "getPoolBalance()": {
        "details": "Returns the value of the pool in USD",
        "returns": {
          "_0": "uint Value of the pool in USD"
        }
      },
      "getPositionsAndTotal()": {
        "details": "Returns the currency address and balance of each position the pool has, as well as the cumulative value",
        "returns": {
          "_0": "(address[], uint[], uint) Currency address and balance of each position the pool has, and the cumulative value of positions"
        }
      },
      "getUSDBalance(address)": {
        "details": "Returns the balance of the user in USD",
        "returns": {
          "_0": "uint Balance of the user in USD"
        }
      },
      "name()": {
        "details": "Returns the name of the pool",
        "returns": {
          "_0": "string The name of the pool"
        }
      },
      "placeOrder(address,bool,uint256)": {
        "details": "Places an order to buy/sell the given currency",
        "params": {
          "buyOrSell": "Whether the user is buying or selling",
          "currencyKey": "Address of currency to trade",
          "numberOfTokens": "Number of tokens of the given currency"
        }
      },
      "setFarmAddress(address)": {
        "details": "Updates the pool's farm address",
        "params": {
          "farmAddress": "Address of the pool's farm"
        }
      },
      "totalSupply()": {
        "details": "Returns the total supply of LP tokens in the pool",
        "returns": {
          "_0": "uint Total supply of LP tokens"
        }
      },
      "withdraw(uint256)": {
        "details": "Withdraws the given USD amount on behalf of the user",
        "params": {
          "amount": "Amount of USD to withdraw from the pool"
        }
      }
    },
    "version": 1
  },
  "userdoc": {
    "kind": "user",
    "methods": {
      "deposit(uint256)": {
        "notice": "Call cUSD.approve() before calling this function"
      },
      "withdraw(uint256)": {
        "notice": "The withdrawal is done using pool's assets at time of withdrawal. This avoids the exchange fees and slippage from exchanging pool's assets back to cUSD or TGEN."
      }
    },
    "version": 1
  }
}