{
  "contractName": "PoolFactory",
  "abi": [
    {
      "inputs": [
        {
          "internalType": "contract IAddressResolver",
          "name": "addressResolver",
          "type": "address"
        }
      ],
      "stateMutability": "nonpayable",
      "type": "constructor"
    },
    {
      "anonymous": false,
      "inputs": [
        {
          "indexed": true,
          "internalType": "address",
          "name": "managerAddress",
          "type": "address"
        },
        {
          "indexed": true,
          "internalType": "address",
          "name": "poolAddress",
          "type": "address"
        },
        {
          "indexed": false,
          "internalType": "uint256",
          "name": "poolIndex",
          "type": "uint256"
        },
        {
          "indexed": false,
          "internalType": "uint256",
          "name": "timestamp",
          "type": "uint256"
        }
      ],
      "name": "CreatedPool",
      "type": "event"
    },
    {
      "anonymous": false,
      "inputs": [
        {
          "indexed": true,
          "internalType": "address",
          "name": "previousOwner",
          "type": "address"
        },
        {
          "indexed": true,
          "internalType": "address",
          "name": "newOwner",
          "type": "address"
        }
      ],
      "name": "OwnershipTransferred",
      "type": "event"
    },
    {
      "anonymous": false,
      "inputs": [
        {
          "indexed": true,
          "internalType": "address",
          "name": "poolAddress",
          "type": "address"
        },
        {
          "indexed": false,
          "internalType": "address",
          "name": "farmAddress",
          "type": "address"
        },
        {
          "indexed": false,
          "internalType": "uint256",
          "name": "timestamp",
          "type": "uint256"
        }
      ],
      "name": "UpdatedFarmAddress",
      "type": "event"
    },
    {
      "inputs": [],
      "name": "ADDRESS_RESOLVER",
      "outputs": [
        {
          "internalType": "contract IAddressResolver",
          "name": "",
          "type": "address"
        }
      ],
      "stateMutability": "view",
      "type": "function"
    },
    {
      "inputs": [
        {
          "internalType": "address",
          "name": "",
          "type": "address"
        }
      ],
      "name": "addressToIndex",
      "outputs": [
        {
          "internalType": "uint256",
          "name": "",
          "type": "uint256"
        }
      ],
      "stateMutability": "view",
      "type": "function"
    },
    {
      "inputs": [],
      "name": "isOwner",
      "outputs": [
        {
          "internalType": "bool",
          "name": "",
          "type": "bool"
        }
      ],
      "stateMutability": "view",
      "type": "function"
    },
    {
      "inputs": [],
      "name": "owner",
      "outputs": [
        {
          "internalType": "address",
          "name": "",
          "type": "address"
        }
      ],
      "stateMutability": "view",
      "type": "function"
    },
    {
      "inputs": [
        {
          "internalType": "uint256",
          "name": "",
          "type": "uint256"
        }
      ],
      "name": "pools",
      "outputs": [
        {
          "internalType": "address",
          "name": "",
          "type": "address"
        }
      ],
      "stateMutability": "view",
      "type": "function"
    },
    {
      "inputs": [],
      "name": "renounceOwnership",
      "outputs": [],
      "stateMutability": "nonpayable",
      "type": "function"
    },
    {
      "inputs": [
        {
          "internalType": "address",
          "name": "newOwner",
          "type": "address"
        }
      ],
      "name": "transferOwnership",
      "outputs": [],
      "stateMutability": "nonpayable",
      "type": "function"
    },
    {
      "inputs": [
        {
          "internalType": "address",
          "name": "",
          "type": "address"
        },
        {
          "internalType": "uint256",
          "name": "",
          "type": "uint256"
        }
      ],
      "name": "userToManagedPools",
      "outputs": [
        {
          "internalType": "uint256",
          "name": "",
          "type": "uint256"
        }
      ],
      "stateMutability": "view",
      "type": "function"
    },
    {
      "inputs": [
        {
          "internalType": "address",
          "name": "user",
          "type": "address"
        }
      ],
      "name": "getUserManagedPools",
      "outputs": [
        {
          "internalType": "address[]",
          "name": "",
          "type": "address[]"
        }
      ],
      "stateMutability": "view",
      "type": "function"
    },
    {
      "inputs": [],
      "name": "getAvailablePools",
      "outputs": [
        {
          "internalType": "address[]",
          "name": "",
          "type": "address[]"
        }
      ],
      "stateMutability": "view",
      "type": "function"
    },
    {
      "inputs": [
        {
          "internalType": "string",
          "name": "poolName",
          "type": "string"
        },
        {
          "internalType": "uint256",
          "name": "performanceFee",
          "type": "uint256"
        }
      ],
      "name": "createPool",
      "outputs": [],
      "stateMutability": "nonpayable",
      "type": "function"
    },
    {
      "inputs": [
        {
          "internalType": "address",
          "name": "poolAddress",
          "type": "address"
        },
        {
          "internalType": "address",
          "name": "farmAddress",
          "type": "address"
        }
      ],
      "name": "setFarmAddress",
      "outputs": [],
      "stateMutability": "nonpayable",
      "type": "function"
    }
  ],
  "bytecode": "0x60a060405234801561001057600080fd5b506040516169c43803806169c48339818101604052602081101561003357600080fd5b8101908080519060200190929190505050336000806101000a81548173ffffffffffffffffffffffffffffffffffffffff021916908373ffffffffffffffffffffffffffffffffffffffff16021790555060008054906101000a900473ffffffffffffffffffffffffffffffffffffffff1673ffffffffffffffffffffffffffffffffffffffff16600073ffffffffffffffffffffffffffffffffffffffff167f8be0079c531659141344cd1fd0a4f28419497f9722a3daafe3b4186f6b6457e060405160405180910390a38073ffffffffffffffffffffffffffffffffffffffff1660808173ffffffffffffffffffffffffffffffffffffffff1660601b815250505060805160601c616861610163600039806107cb5280610b8d5280610dad52806110e152506168616000f3fe60806040523480156200001157600080fd5b5060043610620000c45760003560e01c80638f32d59b116200007b5780638f32d59b1462000305578063981f3b8e1462000327578063ac4afa38146200035d578063e48f937814620003b8578063f2fde38b1462000456578063f667e0aa146200049d57620000c4565b80631fb16e5814620000c957806326fc66ab1462000130578063715018a614620001fb5780637517f18314620002075780637a0b32ac146200026a5780638da5cb5b14620002cf575b600080fd5b6200012e60048036036040811015620000e157600080fd5b81019080803573ffffffffffffffffffffffffffffffffffffffff169060200190929190803573ffffffffffffffffffffffffffffffffffffffff169060200190929190505050620004f8565b005b620001f9600480360360408110156200014857600080fd5b81019080803590602001906401000000008111156200016657600080fd5b8201836020820111156200017957600080fd5b803590602001918460018302840111640100000000831117156200019c57600080fd5b91908080601f016020809104026020016040519081016040528093929190818152602001838380828437600081840152601f19601f82011690508083019250505050505050919291929080359060200190929190505050620007c7565b005b6200020562000ecb565b005b6200021162000f9d565b6040518080602001828103825283818151815260200191508051906020019060200280838360005b838110156200025657808201518184015260208101905062000239565b505050509050019250505060405180910390f35b620002b9600480360360408110156200028257600080fd5b81019080803573ffffffffffffffffffffffffffffffffffffffff169060200190929190803590602001909291905050506200102d565b6040518082815260200191505060405180910390f35b620002d96200105f565b604051808273ffffffffffffffffffffffffffffffffffffffff16815260200191505060405180910390f35b6200030f62001088565b60405180821515815260200191505060405180910390f35b62000331620010df565b604051808273ffffffffffffffffffffffffffffffffffffffff16815260200191505060405180910390f35b6200038c600480360360208110156200037557600080fd5b810190808035906020019092919050505062001103565b604051808273ffffffffffffffffffffffffffffffffffffffff16815260200191505060405180910390f35b620003fd60048036036020811015620003d057600080fd5b81019080803573ffffffffffffffffffffffffffffffffffffffff16906020019092919050505062001143565b6040518080602001828103825283818151815260200191508051906020019060200280838360005b838110156200044257808201518184015260208101905062000425565b505050509050019250505060405180910390f35b6200049b600480360360208110156200046e57600080fd5b81019080803573ffffffffffffffffffffffffffffffffffffffff169060200190929190505050620013cc565b005b620004e260048036036020811015620004b557600080fd5b81019080803573ffffffffffffffffffffffffffffffffffffffff169060200190929190505050620013ee565b6040518082815260200191505060405180910390f35b81600073ffffffffffffffffffffffffffffffffffffffff168173ffffffffffffffffffffffffffffffffffffffff16141562000581576040517f08c379a00000000000000000000000000000000000000000000000000000000081526004018080602001828103825260218152602001806200678d6021913960400191505060405180910390fd5b6000600360008373ffffffffffffffffffffffffffffffffffffffff1673ffffffffffffffffffffffffffffffffffffffff168152602001908152602001600020541162000637576040517f08c379a000000000000000000000000000000000000000000000000000000000815260040180806020018281038252601b8152602001807f506f6f6c466163746f72793a20506f6f6c206e6f7420666f756e64000000000081525060200191505060405180910390fd5b6200064162001088565b6200064b57600080fd5b600073ffffffffffffffffffffffffffffffffffffffff168273ffffffffffffffffffffffffffffffffffffffff161415620006d3576040517f08c379a00000000000000000000000000000000000000000000000000000000081526004018080602001828103825260218152602001806200676c6021913960400191505060405180910390fd5b8273ffffffffffffffffffffffffffffffffffffffff1663d9799809836040518263ffffffff1660e01b8152600401808273ffffffffffffffffffffffffffffffffffffffff168152602001915050600060405180830381600087803b1580156200073d57600080fd5b505af115801562000752573d6000803e3d6000fd5b505050508273ffffffffffffffffffffffffffffffffffffffff167f0b573389cc314585efb6a07f9e19191d0152f7bf4484b05181383bddbd6d8e798342604051808373ffffffffffffffffffffffffffffffffffffffff1681526020018281526020019250505060405180910390a2505050565b60007f000000000000000000000000000000000000000000000000000000000000000073ffffffffffffffffffffffffffffffffffffffff166304433bbc6040518163ffffffff1660e01b81526004018080602001828103825260088152602001807f53657474696e677300000000000000000000000000000000000000000000000081525060200191505060206040518083038186803b1580156200086c57600080fd5b505afa15801562000881573d6000803e3d6000fd5b505050506040513d60208110156200089857600080fd5b8101908080519060200190929190505050905060008173ffffffffffffffffffffffffffffffffffffffff166328a2176f6040518163ffffffff1660e01b81526004018080602001828103825260158152602001807f4d6178696d756d506572666f726d616e6365466565000000000000000000000081525060200191505060206040518083038186803b1580156200093057600080fd5b505afa15801562000945573d6000803e3d6000fd5b505050506040513d60208110156200095c57600080fd5b8101908080519060200190929190505050905060008273ffffffffffffffffffffffffffffffffffffffff166328a2176f6040518163ffffffff1660e01b815260040180806020018281038252601b8152602001807f4d6178696d756d4e756d6265724f66506f6f6c7350657255736572000000000081525060200191505060206040518083038186803b158015620009f457600080fd5b505afa15801562000a09573d6000803e3d6000fd5b505050506040513d602081101562000a2057600080fd5b81019080805190602001909291905050509050601e85511062000a8f576040517f08c379a000000000000000000000000000000000000000000000000000000000815260040180806020018281038252602b81526020018062006801602b913960400191505060405180910390fd5b8184111562000aea576040517f08c379a0000000000000000000000000000000000000000000000000000000008152600401808060200182810382526025815260200180620067ae6025913960400191505060405180910390fd5b80600260003373ffffffffffffffffffffffffffffffffffffffff1673ffffffffffffffffffffffffffffffffffffffff168152602001908152602001600020805490501062000b86576040517f08c379a000000000000000000000000000000000000000000000000000000000815260040180806020018281038252602e815260200180620067d3602e913960400191505060405180910390fd5b60008585337f000000000000000000000000000000000000000000000000000000000000000060405162000bba90620014fe565b80806020018581526020018473ffffffffffffffffffffffffffffffffffffffff1681526020018373ffffffffffffffffffffffffffffffffffffffff168152602001828103825286818151815260200191508051906020019080838360005b8381101562000c3757808201518184015260208101905062000c1a565b50505050905090810190601f16801562000c655780820380516001836020036101000a031916815260200191505b5095505050505050604051809103906000f08015801562000c8a573d6000803e3d6000fd5b50905060008190506001819080600181540180825580915050600190039060005260206000200160009091909190916101000a81548173ffffffffffffffffffffffffffffffffffffffff021916908373ffffffffffffffffffffffffffffffffffffffff160217905550600260003373ffffffffffffffffffffffffffffffffffffffff1673ffffffffffffffffffffffffffffffffffffffff16815260200190815260200160002060018080549050039080600181540180825580915050600190039060005260206000200160009091909190915055600180549050600360008373ffffffffffffffffffffffffffffffffffffffff1673ffffffffffffffffffffffffffffffffffffffff168152602001908152602001600020819055507f000000000000000000000000000000000000000000000000000000000000000073ffffffffffffffffffffffffffffffffffffffff166343499844826040518263ffffffff1660e01b8152600401808273ffffffffffffffffffffffffffffffffffffffff168152602001915050600060405180830381600087803b15801562000e3557600080fd5b505af115801562000e4a573d6000803e3d6000fd5b505050508073ffffffffffffffffffffffffffffffffffffffff163373ffffffffffffffffffffffffffffffffffffffff167f86e8d285f3aca144a05c4f811c981e98a2beba0e30a1e8385052b05b8a96b4b1600180805490500342604051808381526020018281526020019250505060405180910390a350505050505050565b62000ed562001088565b62000edf57600080fd5b600073ffffffffffffffffffffffffffffffffffffffff1660008054906101000a900473ffffffffffffffffffffffffffffffffffffffff1673ffffffffffffffffffffffffffffffffffffffff167f8be0079c531659141344cd1fd0a4f28419497f9722a3daafe3b4186f6b6457e060405160405180910390a360008060006101000a81548173ffffffffffffffffffffffffffffffffffffffff021916908373ffffffffffffffffffffffffffffffffffffffff160217905550565b606060018054806020026020016040519081016040528092919081815260200182805480156200102357602002820191906000526020600020905b8160009054906101000a900473ffffffffffffffffffffffffffffffffffffffff1673ffffffffffffffffffffffffffffffffffffffff168152602001906001019080831162000fd8575b5050505050905090565b600260205281600052604060002081815481106200104a57600080fd5b90600052602060002001600091509150505481565b60008060009054906101000a900473ffffffffffffffffffffffffffffffffffffffff16905090565b60008060009054906101000a900473ffffffffffffffffffffffffffffffffffffffff1673ffffffffffffffffffffffffffffffffffffffff163373ffffffffffffffffffffffffffffffffffffffff1614905090565b7f000000000000000000000000000000000000000000000000000000000000000081565b600181815481106200111457600080fd5b906000526020600020016000915054906101000a900473ffffffffffffffffffffffffffffffffffffffff1681565b6060600073ffffffffffffffffffffffffffffffffffffffff168273ffffffffffffffffffffffffffffffffffffffff161415620011e9576040517f08c379a000000000000000000000000000000000000000000000000000000000815260040180806020018281038252600f8152602001807f496e76616c69642061646472657373000000000000000000000000000000000081525060200191505060405180910390fd5b6000600260008473ffffffffffffffffffffffffffffffffffffffff1673ffffffffffffffffffffffffffffffffffffffff1681526020019081526020016000208054905067ffffffffffffffff811180156200124557600080fd5b50604051908082528060200260200182016040528015620012755781602001602082028036833780820191505090505b5090506000600260008573ffffffffffffffffffffffffffffffffffffffff1673ffffffffffffffffffffffffffffffffffffffff1681526020019081526020016000208054806020026020016040519081016040528092919081815260200182805480156200130557602002820191906000526020600020905b815481526020019060010190808311620012f0575b5050505050905060005b8251811015620013c15760008282815181106200132857fe5b60200260200101519050600181815481106200134057fe5b9060005260206000200160009054906101000a900473ffffffffffffffffffffffffffffffffffffffff168483815181106200137857fe5b602002602001019073ffffffffffffffffffffffffffffffffffffffff16908173ffffffffffffffffffffffffffffffffffffffff16815250505080806001019150506200130f565b508192505050919050565b620013d662001088565b620013e057600080fd5b620013eb8162001406565b50565b60036020528060005260406000206000915090505481565b600073ffffffffffffffffffffffffffffffffffffffff168173ffffffffffffffffffffffffffffffffffffffff1614156200144157600080fd5b8073ffffffffffffffffffffffffffffffffffffffff1660008054906101000a900473ffffffffffffffffffffffffffffffffffffffff1673ffffffffffffffffffffffffffffffffffffffff167f8be0079c531659141344cd1fd0a4f28419497f9722a3daafe3b4186f6b6457e060405160405180910390a3806000806101000a81548173ffffffffffffffffffffffffffffffffffffffff021916908373ffffffffffffffffffffffffffffffffffffffff16021790555050565b61525f806200150d8339019056fe60806040523480156200001157600080fd5b506040516200525f3803806200525f83398181016040528101906200003791906200025e565b83600190805190602001906200004f929190620000f1565b5081600360006101000a81548173ffffffffffffffffffffffffffffffffffffffff021916908373ffffffffffffffffffffffffffffffffffffffff16021790555082600481905550806000806101000a81548173ffffffffffffffffffffffffffffffffffffffff021916908373ffffffffffffffffffffffffffffffffffffffff160217905550670de0b6b3a76400006006819055505050505062000422565b828054600181600116156101000203166002900490600052602060002090601f01602090048101928262000129576000855562000175565b82601f106200014457805160ff191683800117855562000175565b8280016001018555821562000175579182015b828111156200017457825182559160200191906001019062000157565b5b50905062000184919062000188565b5090565b5b80821115620001a357600081600090555060010162000189565b5090565b6000620001be620001b88462000317565b620002e3565b905082815260208101848484011115620001d757600080fd5b620001e48482856200039c565b509392505050565b600081519050620001fd81620003d4565b92915050565b6000815190506200021481620003ee565b92915050565b600082601f8301126200022c57600080fd5b81516200023e848260208601620001a7565b91505092915050565b600081519050620002588162000408565b92915050565b600080600080608085870312156200027557600080fd5b600085015167ffffffffffffffff8111156200029057600080fd5b6200029e878288016200021a565b9450506020620002b18782880162000247565b9350506040620002c487828801620001ec565b9250506060620002d78782880162000203565b91505092959194509250565b6000604051905081810181811067ffffffffffffffff821117156200030d576200030c620003d2565b5b8060405250919050565b600067ffffffffffffffff821115620003355762000334620003d2565b5b601f19601f8301169050602081019050919050565b6000620003578262000372565b9050919050565b60006200036b826200034a565b9050919050565b600073ffffffffffffffffffffffffffffffffffffffff82169050919050565b6000819050919050565b60005b83811015620003bc5780820151818401526020810190506200039f565b83811115620003cc576000848401525b50505050565bfe5b620003df816200034a565b8114620003eb57600080fd5b50565b620003f9816200035e565b81146200040557600080fd5b50565b620004138162000392565b81146200041f57600080fd5b50565b614e2d80620004326000396000f3fe608060405234801561001057600080fd5b50600436106102275760003560e01c80637ff9b59611610130578063c162d7da116100b8578063dd62ed3e1161007c578063dd62ed3e14610660578063e9fad8ee14610690578063edbf6f501461069a578063f0329f6b146106b8578063f0f3da5e146106d657610227565b8063c162d7da146105ce578063cc3c6df6146105ec578063cca3e832146105f6578063d28d885214610626578063d97998091461064457610227565b8063981f3b8e116100ff578063981f3b8e146105265780639db3235314610544578063a9059cbb14610562578063ac08c57414610592578063b6b55f25146105b257610227565b80637ff9b5961461049c57806380e28293146104ba57806395d4e5da146104d857806395d89b411461050857610227565b80632ed8e0d4116101b35780635195bd29116101825780635195bd29146103e45780635cb035ad146104025780636ca0f814146104325780636e1d9d2d1461044e57806370a082311461046c57610227565b80632ed8e0d41461036e578063313ce5671461039e5780633eaaf86b146103bc57806347b339ca146103da57610227565b80631ba2f531116101fa5780631ba2f531146102b65780632322e3b9146102d4578063235c36031461030457806323b872dd146103225780632e1a7d4d1461035257610227565b806306fdde031461022c578063095ea7b31461024a57806318160ddd1461027a5780631978d6bc14610298575b600080fd5b6102346106f4565b604051610241919061484a565b60405180910390f35b610264600480360381019061025f9190613d6f565b610796565b6040516102719190614814565b60405180910390f35b6102826107ad565b60405161028f9190614aac565b60405180910390f35b6102a06107b7565b6040516102ad9190614aac565b60405180910390f35b6102be6107bd565b6040516102cb9190614aac565b60405180910390f35b6102ee60048036038101906102e99190613c3e565b6108e1565b6040516102fb9190614aac565b60405180910390f35b61030c6109cc565b6040516103199190614aac565b60405180910390f35b61033c60048036038101906103379190613ccc565b6109d6565b6040516103499190614814565b60405180910390f35b61036c60048036038101906103679190613e77565b610b82565b005b61038860048036038101906103839190613e77565b6110bf565b6040516103959190614671565b60405180910390f35b6103a66110f2565b6040516103b39190614b51565b60405180910390f35b6103c46110fb565b6040516103d19190614aac565b60405180910390f35b6103e2611101565b005b6103ec61128e565b6040516103f99190614aac565b60405180910390f35b61041c60048036038101906104179190613c3e565b61144c565b6040516104299190614aac565b60405180910390f35b61044c60048036038101906104479190613d1b565b611464565b005b610456611b34565b6040516104639190614671565b60405180910390f35b61048660048036038101906104819190613c3e565b611b5e565b6040516104939190614aac565b60405180910390f35b6104a4611c16565b6040516104b19190614aac565b60405180910390f35b6104c2611c32565b6040516104cf9190614aac565b60405180910390f35b6104f260048036038101906104ed9190613c90565b611c38565b6040516104ff9190614aac565b60405180910390f35b610510611ef5565b60405161051d919061484a565b60405180910390f35b61052e611f0c565b60405161053b919061482f565b60405180910390f35b61054c611f30565b6040516105599190614aac565b60405180910390f35b61057c60048036038101906105779190613d6f565b611f36565b6040516105899190614814565b60405180910390f35b61059a611f4d565b6040516105a9939291906147cf565b60405180910390f35b6105cc60048036038101906105c79190613e77565b61243b565b005b6105d66127aa565b6040516105e39190614671565b60405180910390f35b6105f46127d4565b005b610610600480360381019061060b9190613c3e565b61286f565b60405161061d9190614aac565b60405180910390f35b61062e612887565b60405161063b919061484a565b60405180910390f35b61065e60048036038101906106599190613c3e565b612925565b005b61067a60048036038101906106759190613c90565b612af4565b6040516106879190614aac565b60405180910390f35b610698612b19565b005b6106a2612b2c565b6040516106af9190614aac565b60405180910390f35b6106c0612be5565b6040516106cd9190614671565b60405180910390f35b6106de612c0b565b6040516106eb9190614671565b60405180910390f35b606060018054600181600116156101000203166002900480601f01602080910402602001604051908101604052809291908181526020018280546001816001161561010002031660029004801561078c5780601f106107615761010080835404028352916020019161078c565b820191906000526020600020905b81548152906001019060200180831161076f57829003601f168201915b5050505050905090565b60006107a3338484612c31565b6001905092915050565b6000600254905090565b60065481565b60008060008054906101000a900473ffffffffffffffffffffffffffffffffffffffff1673ffffffffffffffffffffffffffffffffffffffff166304433bbc6040518163ffffffff1660e01b815260040161081790614a6c565b60206040518083038186803b15801561082f57600080fd5b505afa158015610843573d6000803e3d6000fd5b505050506040513d601f19601f820116820180604052508101906108679190613c67565b9050600080600190505b600a5481116108d8576108c96108ba6009600084815260200190815260200160002060009054906101000a900473ffffffffffffffffffffffffffffffffffffffff1685611c38565b83612d1c90919063ffffffff16565b91508080600101915050610871565b50809250505090565b60008073ffffffffffffffffffffffffffffffffffffffff168273ffffffffffffffffffffffffffffffffffffffff161415610952576040517f08c379a00000000000000000000000000000000000000000000000000000000081526004016109499061490c565b60405180910390fd5b600061095c6107bd565b90506109c46002546109b6600760008773ffffffffffffffffffffffffffffffffffffffff1673ffffffffffffffffffffffffffffffffffffffff1681526020019081526020016000205484612d3890919063ffffffff16565b612d6f90919063ffffffff16565b915050919050565b6000600454905090565b600080600860008673ffffffffffffffffffffffffffffffffffffffff1673ffffffffffffffffffffffffffffffffffffffff16815260200190815260200160002060003373ffffffffffffffffffffffffffffffffffffffff1673ffffffffffffffffffffffffffffffffffffffff168152602001908152602001600020541115610b6c57610aeb82600860008773ffffffffffffffffffffffffffffffffffffffff1673ffffffffffffffffffffffffffffffffffffffff16815260200190815260200160002060003373ffffffffffffffffffffffffffffffffffffffff1673ffffffffffffffffffffffffffffffffffffffff16815260200190815260200160002054612d8890919063ffffffff16565b600860008673ffffffffffffffffffffffffffffffffffffffff1673ffffffffffffffffffffffffffffffffffffffff16815260200190815260200160002060003373ffffffffffffffffffffffffffffffffffffffff1673ffffffffffffffffffffffffffffffffffffffff168152602001908152602001600020819055505b610b77848484612d9f565b600190509392505050565b60008111610bc5576040517f08c379a0000000000000000000000000000000000000000000000000000000008152600401610bbc9061486c565b60405180910390fd5b80600760003373ffffffffffffffffffffffffffffffffffffffff1673ffffffffffffffffffffffffffffffffffffffff168152602001908152602001600020541015610c47576040517f08c379a0000000000000000000000000000000000000000000000000000000008152600401610c3e906149ec565b60405180910390fd5b6000610c51612f33565b90506000610c84600254610c76670de0b6b3a764000086612d3890919063ffffffff16565b612d6f90919063ffffffff16565b9050610cd883600760003373ffffffffffffffffffffffffffffffffffffffff1673ffffffffffffffffffffffffffffffffffffffff16815260200190815260200160002054612d8890919063ffffffff16565b600760003373ffffffffffffffffffffffffffffffffffffffff1673ffffffffffffffffffffffffffffffffffffffff16815260200190815260200160002081905550610d3083600254612d8890919063ffffffff16565b6002819055506000600a5467ffffffffffffffff81118015610d5157600080fd5b50604051908082528060200260200182016040528015610d805781602001602082028036833780820191505090505b5090506000600a5467ffffffffffffffff81118015610d9e57600080fd5b50604051908082528060200260200182016040528015610dcd5781602001602082028036833780820191505090505b5090506000600a54905060008190505b6000811115611003576000610e266009600084815260200190815260200160002060009054906101000a900473ffffffffffffffffffffffffffffffffffffffff1633886130f6565b90506000811115610fac576009600083815260200190815260200160002060009054906101000a900473ffffffffffffffffffffffffffffffffffffffff1673ffffffffffffffffffffffffffffffffffffffff1663a9059cbb33836040518363ffffffff1660e01b8152600401610e9f9291906146c3565b602060405180830381600087803b158015610eb957600080fd5b505af1158015610ecd573d6000803e3d6000fd5b505050506040513d601f19601f82011682018060405250810190610ef19190613e12565b508085610f08600185612d8890919063ffffffff16565b81518110610f1257fe5b6020026020010181815250506009600083815260200190815260200160002060009054906101000a900473ffffffffffffffffffffffffffffffffffffffff1684610f67600185612d8890919063ffffffff16565b81518110610f7157fe5b602002602001019073ffffffffffffffffffffffffffffffffffffffff16908173ffffffffffffffffffffffffffffffffffffffff16815250505b60006002541415610ff457610ff36009600084815260200190815260200160002060009054906101000a900473ffffffffffffffffffffffffffffffffffffffff1661356d565b5b50808060019003915050610ddd565b5060006002541415611018576000600a819055505b6000611047670de0b6b3a76400006110398789612d3890919063ffffffff16565b612d6f90919063ffffffff16565b90503373ffffffffffffffffffffffffffffffffffffffff163073ffffffffffffffffffffffffffffffffffffffff167fca9c598e2bf8dd0778925b490473eac35c5a204479163ef8e311b67e2bf18bbb89848789426040516110ae959493929190614af0565b60405180910390a350505050505050565b60096020528060005260406000206000915054906101000a900473ffffffffffffffffffffffffffffffffffffffff1681565b60006012905090565b60025481565b600360009054906101000a900473ffffffffffffffffffffffffffffffffffffffff1673ffffffffffffffffffffffffffffffffffffffff163373ffffffffffffffffffffffffffffffffffffffff1614611191576040517f08c379a0000000000000000000000000000000000000000000000000000000008152600401611188906149cc565b60405180910390fd5b6000600a54905060006111ae600183612d8890919063ffffffff16565b90505b60008110611203576111f56009600083815260200190815260200160002060009054906101000a900473ffffffffffffffffffffffffffffffffffffffff1661356d565b8080600190039150506111b1565b50600360009054906101000a900473ffffffffffffffffffffffffffffffffffffffff1673ffffffffffffffffffffffffffffffffffffffff163073ffffffffffffffffffffffffffffffffffffffff167f8e3d29abeef0483a28c9f802de238b3d31da2986dd7c27115a421bc802147c5a426040516112839190614aac565b60405180910390a350565b60008060008054906101000a900473ffffffffffffffffffffffffffffffffffffffff1673ffffffffffffffffffffffffffffffffffffffff166304433bbc6040518163ffffffff1660e01b81526004016112e890614a6c565b60206040518083038186803b15801561130057600080fd5b505afa158015611314573d6000803e3d6000fd5b505050506040513d601f19601f820116820180604052508101906113389190613c67565b905060008173ffffffffffffffffffffffffffffffffffffffff1663be781b1c6040518163ffffffff1660e01b815260040160206040518083038186803b15801561138257600080fd5b505afa158015611396573d6000803e3d6000fd5b505050506040513d601f19601f820116820180604052508101906113ba9190613c67565b90508073ffffffffffffffffffffffffffffffffffffffff166370a08231306040518263ffffffff1660e01b81526004016113f59190614671565b60206040518083038186803b15801561140d57600080fd5b505afa158015611421573d6000803e3d6000fd5b505050506040513d601f19601f820116820180604052508101906114459190613ea0565b9250505090565b600b6020528060005260406000206000915090505481565b600360009054906101000a900473ffffffffffffffffffffffffffffffffffffffff1673ffffffffffffffffffffffffffffffffffffffff163373ffffffffffffffffffffffffffffffffffffffff16146114f4576040517f08c379a00000000000000000000000000000000000000000000000000000000081526004016114eb906149cc565b60405180910390fd5b600073ffffffffffffffffffffffffffffffffffffffff168273ffffffffffffffffffffffffffffffffffffffff161415611564576040517f08c379a000000000000000000000000000000000000000000000000000000000815260040161155b906148ec565b60405180910390fd5b60008060009054906101000a900473ffffffffffffffffffffffffffffffffffffffff1673ffffffffffffffffffffffffffffffffffffffff16632febaebd846040518263ffffffff1660e01b81526004016115c09190614671565b60206040518083038186803b1580156115d857600080fd5b505afa1580156115ec573d6000803e3d6000fd5b505050506040513d601f19601f820116820180604052508101906116109190613c67565b9050600073ffffffffffffffffffffffffffffffffffffffff168173ffffffffffffffffffffffffffffffffffffffff1614156118865760008060009054906101000a900473ffffffffffffffffffffffffffffffffffffffff1673ffffffffffffffffffffffffffffffffffffffff166304433bbc6040518163ffffffff1660e01b81526004016116a190614a6c565b60206040518083038186803b1580156116b957600080fd5b505afa1580156116cd573d6000803e3d6000fd5b505050506040513d601f19601f820116820180604052508101906116f19190613c67565b90508073ffffffffffffffffffffffffffffffffffffffff1663059ce95d856040518263ffffffff1660e01b815260040161172c9190614671565b60206040518083038186803b15801561174457600080fd5b505afa158015611758573d6000803e3d6000fd5b505050506040513d601f19601f8201168201806040525081019061177c9190613c67565b9150600073ffffffffffffffffffffffffffffffffffffffff168273ffffffffffffffffffffffffffffffffffffffff1614611884578073ffffffffffffffffffffffffffffffffffffffff1663cc435bf3856040518263ffffffff1660e01b81526004016117eb9190614671565b60206040518083038186803b15801561180357600080fd5b505afa158015611817573d6000803e3d6000fd5b505050506040513d601f19601f8201168201806040525081019061183b9190613e12565b61187a576040517f08c379a000000000000000000000000000000000000000000000000000000000815260040161187190614a4c565b60405180910390fd5b61188384613888565b5b505b600073ffffffffffffffffffffffffffffffffffffffff168173ffffffffffffffffffffffffffffffffffffffff1614156118f6576040517f08c379a00000000000000000000000000000000000000000000000000000000081526004016118ed906148ac565b60405180910390fd5b6000808273ffffffffffffffffffffffffffffffffffffffff166339158fdd60008054906101000a900473ffffffffffffffffffffffffffffffffffffffff163088886040518563ffffffff1660e01b81526004016119589493929190614715565b6040805180830381600087803b15801561197157600080fd5b505af1158015611985573d6000803e3d6000fd5b505050506040513d601f19601f820116820180604052508101906119a99190613e3b565b91509150816119ed576040517f08c379a00000000000000000000000000000000000000000000000000000000081526004016119e490614a2c565b60405180910390fd5b60008573ffffffffffffffffffffffffffffffffffffffff1685604051611a14919061465a565b6000604051808303816000865af19150503d8060008114611a51576040519150601f19603f3d011682016040523d82523d6000602084013e611a56565b606091505b5050905080611a9a576040517f08c379a0000000000000000000000000000000000000000000000000000000008152600401611a919061498c565b60405180910390fd5b611aa382613888565b600360009054906101000a900473ffffffffffffffffffffffffffffffffffffffff1673ffffffffffffffffffffffffffffffffffffffff163073ffffffffffffffffffffffffffffffffffffffff167fa8ab7184067399e01462520d88b77c0db06e364e9cb4db3254f26c504d4e91b18842604051611b249291906147a6565b60405180910390a3505050505050565b6000600560009054906101000a900473ffffffffffffffffffffffffffffffffffffffff16905090565b60008073ffffffffffffffffffffffffffffffffffffffff168273ffffffffffffffffffffffffffffffffffffffff161415611bcf576040517f08c379a0000000000000000000000000000000000000000000000000000000008152600401611bc69061492c565b60405180910390fd5b600760008373ffffffffffffffffffffffffffffffffffffffff1673ffffffffffffffffffffffffffffffffffffffff168152602001908152602001600020549050919050565b600080611c216107bd565b9050611c2c816139c3565b91505090565b60045481565b60008073ffffffffffffffffffffffffffffffffffffffff168373ffffffffffffffffffffffffffffffffffffffff161415611ca9576040517f08c379a0000000000000000000000000000000000000000000000000000000008152600401611ca090614a0c565b60405180910390fd5b600073ffffffffffffffffffffffffffffffffffffffff168273ffffffffffffffffffffffffffffffffffffffff161415611d19576040517f08c379a0000000000000000000000000000000000000000000000000000000008152600401611d10906149ac565b60405180910390fd5b60008273ffffffffffffffffffffffffffffffffffffffff16638b2f0f4f856040518263ffffffff1660e01b8152600401611d549190614671565b60206040518083038186803b158015611d6c57600080fd5b505afa158015611d80573d6000803e3d6000fd5b505050506040513d601f19601f82011682018060405250810190611da49190613ea0565b905060008373ffffffffffffffffffffffffffffffffffffffff1663cf54aaa0866040518263ffffffff1660e01b8152600401611de19190614671565b60206040518083038186803b158015611df957600080fd5b505afa158015611e0d573d6000803e3d6000fd5b505050506040513d601f19601f82011682018060405250810190611e319190613ea0565b905060008473ffffffffffffffffffffffffffffffffffffffff1663d4fac45d30886040518363ffffffff1660e01b8152600401611e709291906146ec565b60206040518083038186803b158015611e8857600080fd5b505afa158015611e9c573d6000803e3d6000fd5b505050506040513d601f19601f82011682018060405250810190611ec09190613ea0565b9050611eea82600a0a611edc8584612d3890919063ffffffff16565b612d6f90919063ffffffff16565b935050505092915050565b606060405180602001604052806000815250905090565b60008054906101000a900473ffffffffffffffffffffffffffffffffffffffff1681565b600a5481565b6000611f43338484612d9f565b6001905092915050565b60608060008060008054906101000a900473ffffffffffffffffffffffffffffffffffffffff1673ffffffffffffffffffffffffffffffffffffffff166304433bbc6040518163ffffffff1660e01b8152600401611faa90614a6c565b60206040518083038186803b158015611fc257600080fd5b505afa158015611fd6573d6000803e3d6000fd5b505050506040513d601f19601f82011682018060405250810190611ffa9190613c67565b90506000600a5467ffffffffffffffff8111801561201757600080fd5b506040519080825280602002602001820160405280156120465781602001602082028036833780820191505090505b5090506000600a5467ffffffffffffffff8111801561206457600080fd5b506040519080825280602002602001820160405280156120935781602001602082028036833780820191505090505b509050600080600090505b600a54811015612428578473ffffffffffffffffffffffffffffffffffffffff1663d4fac45d30600960006120dd600187612d1c90919063ffffffff16565b815260200190815260200160002060009054906101000a900473ffffffffffffffffffffffffffffffffffffffff166040518363ffffffff1660e01b81526004016121299291906146ec565b60206040518083038186803b15801561214157600080fd5b505afa158015612155573d6000803e3d6000fd5b505050506040513d601f19601f820116820180604052508101906121799190613ea0565b83828151811061218557fe5b602002602001018181525050600960006121a9600184612d1c90919063ffffffff16565b815260200190815260200160002060009054906101000a900473ffffffffffffffffffffffffffffffffffffffff168482815181106121e457fe5b602002602001019073ffffffffffffffffffffffffffffffffffffffff16908173ffffffffffffffffffffffffffffffffffffffff168152505060008573ffffffffffffffffffffffffffffffffffffffff1663cf54aaa060096000612254600187612d1c90919063ffffffff16565b815260200190815260200160002060009054906101000a900473ffffffffffffffffffffffffffffffffffffffff166040518263ffffffff1660e01b815260040161229f9190614671565b60206040518083038186803b1580156122b757600080fd5b505afa1580156122cb573d6000803e3d6000fd5b505050506040513d601f19601f820116820180604052508101906122ef9190613ea0565b905060008673ffffffffffffffffffffffffffffffffffffffff16638b2f0f4f60096000612327600188612d1c90919063ffffffff16565b815260200190815260200160002060009054906101000a900473ffffffffffffffffffffffffffffffffffffffff166040518263ffffffff1660e01b81526004016123729190614671565b60206040518083038186803b15801561238a57600080fd5b505afa15801561239e573d6000803e3d6000fd5b505050506040513d601f19601f820116820180604052508101906123c29190613ea0565b9050600061240183600a0a6123f3848988815181106123dd57fe5b6020026020010151612d3890919063ffffffff16565b612d6f90919063ffffffff16565b90506124168186612d1c90919063ffffffff16565b9450505050808060010191505061209e565b5082828296509650965050505050909192565b6000811161247e576040517f08c379a000000000000000000000000000000000000000000000000000000000815260040161247590614a8c565b60405180910390fd5b60006124886107bd565b90506000806002541161249b57826124c3565b6124c2826124b485600254612d3890919063ffffffff16565b612d6f90919063ffffffff16565b5b905061251781600760003373ffffffffffffffffffffffffffffffffffffffff1673ffffffffffffffffffffffffffffffffffffffff16815260200190815260200160002054612d1c90919063ffffffff16565b600760003373ffffffffffffffffffffffffffffffffffffffff1673ffffffffffffffffffffffffffffffffffffffff1681526020019081526020016000208190555061256f81600254612d1c90919063ffffffff16565b60028190555060008060009054906101000a900473ffffffffffffffffffffffffffffffffffffffff1673ffffffffffffffffffffffffffffffffffffffff166304433bbc6040518163ffffffff1660e01b81526004016125cf90614a6c565b60206040518083038186803b1580156125e757600080fd5b505afa1580156125fb573d6000803e3d6000fd5b505050506040513d601f19601f8201168201806040525081019061261f9190613c67565b905060008173ffffffffffffffffffffffffffffffffffffffff1663be781b1c6040518163ffffffff1660e01b815260040160206040518083038186803b15801561266957600080fd5b505afa15801561267d573d6000803e3d6000fd5b505050506040513d601f19601f820116820180604052508101906126a19190613c67565b90508073ffffffffffffffffffffffffffffffffffffffff166323b872dd3330886040518463ffffffff1660e01b81526004016126e09392919061468c565b602060405180830381600087803b1580156126fa57600080fd5b505af115801561270e573d6000803e3d6000fd5b505050506040513d601f19601f820116820180604052508101906127329190613e12565b5061273c81613888565b3373ffffffffffffffffffffffffffffffffffffffff163073ffffffffffffffffffffffffffffffffffffffff167fdcbc1c05240f31ff3ad067ef1ee35ce4997762752e3a095284754544f4c709d7874260405161279b929190614ac7565b60405180910390a35050505050565b6000600360009054906101000a900473ffffffffffffffffffffffffffffffffffffffff16905090565b600360009054906101000a900473ffffffffffffffffffffffffffffffffffffffff1673ffffffffffffffffffffffffffffffffffffffff163373ffffffffffffffffffffffffffffffffffffffff1614612864576040517f08c379a000000000000000000000000000000000000000000000000000000000815260040161285b906149cc565b60405180910390fd5b61286c612f33565b50565b60076020528060005260406000206000915090505481565b60018054600181600116156101000203166002900480601f01602080910402602001604051908101604052809291908181526020018280546001816001161561010002031660029004801561291d5780601f106128f25761010080835404028352916020019161291d565b820191906000526020600020905b81548152906001019060200180831161290057829003601f168201915b505050505081565b60008060009054906101000a900473ffffffffffffffffffffffffffffffffffffffff1673ffffffffffffffffffffffffffffffffffffffff166304433bbc6040518163ffffffff1660e01b815260040161297f906148cc565b60206040518083038186803b15801561299757600080fd5b505afa1580156129ab573d6000803e3d6000fd5b505050506040513d601f19601f820116820180604052508101906129cf9190613c67565b90508073ffffffffffffffffffffffffffffffffffffffff163373ffffffffffffffffffffffffffffffffffffffff1614612a3f576040517f08c379a0000000000000000000000000000000000000000000000000000000008152600401612a369061494c565b60405180910390fd5b600073ffffffffffffffffffffffffffffffffffffffff168273ffffffffffffffffffffffffffffffffffffffff161415612aaf576040517f08c379a0000000000000000000000000000000000000000000000000000000008152600401612aa69061488c565b60405180910390fd5b81600560006101000a81548173ffffffffffffffffffffffffffffffffffffffff021916908373ffffffffffffffffffffffffffffffffffffffff1602179055505050565b6008602052816000526040600020602052806000526040600020600091509150505481565b612b2a612b2533611b5e565b610b82565b565b600080612b376107bd565b905060006002541480612b4a5750600081145b15612b59576000915050612be2565b6000612b64826139c3565b90506006548111612b7a57600092505050612be2565b612bdd81612bcf612710612bc1600454612bb3600254612ba56006548a612d8890919063ffffffff16565b612d3890919063ffffffff16565b612d3890919063ffffffff16565b612d6f90919063ffffffff16565b612d6f90919063ffffffff16565b925050505b90565b600360009054906101000a900473ffffffffffffffffffffffffffffffffffffffff1681565b600560009054906101000a900473ffffffffffffffffffffffffffffffffffffffff1681565b80600860008573ffffffffffffffffffffffffffffffffffffffff1673ffffffffffffffffffffffffffffffffffffffff16815260200190815260200160002060008473ffffffffffffffffffffffffffffffffffffffff1673ffffffffffffffffffffffffffffffffffffffff168152602001908152602001600020819055508173ffffffffffffffffffffffffffffffffffffffff168373ffffffffffffffffffffffffffffffffffffffff167f8c5be1e5ebec7d5bd14f71427d1e84f3dd0314c0f7b2291e5b200ac8c7c3b92583604051612d0f9190614aac565b60405180910390a3505050565b600080828401905083811015612d2e57fe5b8091505092915050565b600080831415612d4b5760009050612d69565b6000828402905082848281612d5c57fe5b0414612d6457fe5b809150505b92915050565b600080828481612d7b57fe5b0490508091505092915050565b600082821115612d9457fe5b818303905092915050565b612df181600760008673ffffffffffffffffffffffffffffffffffffffff1673ffffffffffffffffffffffffffffffffffffffff16815260200190815260200160002054612d8890919063ffffffff16565b600760008573ffffffffffffffffffffffffffffffffffffffff1673ffffffffffffffffffffffffffffffffffffffff16815260200190815260200160002081905550612e8681600760008573ffffffffffffffffffffffffffffffffffffffff1673ffffffffffffffffffffffffffffffffffffffff16815260200190815260200160002054612d1c90919063ffffffff16565b600760008473ffffffffffffffffffffffffffffffffffffffff1673ffffffffffffffffffffffffffffffffffffffff168152602001908152602001600020819055508173ffffffffffffffffffffffffffffffffffffffff168373ffffffffffffffffffffffffffffffffffffffff167fddf252ad1be2c89b69c2b068fc378daa952ba7f163c4a11628f55a4df523b3ef83604051612f269190614aac565b60405180910390a3505050565b600080612f3e6107bd565b90506000612f4a612b2c565b9050612710811015612f61576000925050506130f3565b612fd58160076000600360009054906101000a900473ffffffffffffffffffffffffffffffffffffffff1673ffffffffffffffffffffffffffffffffffffffff1673ffffffffffffffffffffffffffffffffffffffff16815260200190815260200160002054612d1c90919063ffffffff16565b60076000600360009054906101000a900473ffffffffffffffffffffffffffffffffffffffff1673ffffffffffffffffffffffffffffffffffffffff1673ffffffffffffffffffffffffffffffffffffffff1681526020019081526020016000208190555061304f81600254612d1c90919063ffffffff16565b60028190555061305e826139c3565b600681905550600360009054906101000a900473ffffffffffffffffffffffffffffffffffffffff1673ffffffffffffffffffffffffffffffffffffffff163073ffffffffffffffffffffffffffffffffffffffff167f9e04df2ace49a0aadf511c756e3d1d033d10bfbc722409b41010b7c7b99c6f3b83426040516130e5929190614ac7565b60405180910390a381925050505b90565b60008060008054906101000a900473ffffffffffffffffffffffffffffffffffffffff1673ffffffffffffffffffffffffffffffffffffffff166304433bbc6040518163ffffffff1660e01b815260040161315090614a6c565b60206040518083038186803b15801561316857600080fd5b505afa15801561317c573d6000803e3d6000fd5b505050506040513d601f19601f820116820180604052508101906131a09190613c67565b905060008173ffffffffffffffffffffffffffffffffffffffff1663059ce95d876040518263ffffffff1660e01b81526004016131dd9190614671565b60206040518083038186803b1580156131f557600080fd5b505afa158015613209573d6000803e3d6000fd5b505050506040513d601f19601f8201168201806040525081019061322d9190613c67565b905060008060008373ffffffffffffffffffffffffffffffffffffffff1663460b62c3308b8a8c6040518563ffffffff1660e01b81526004016132739493929190614761565b60006040518083038186803b15801561328b57600080fd5b505afa15801561329f573d6000803e3d6000fd5b505050506040513d6000823e3d601f19601f820116820180604052508101906132c89190613dab565b92509250925060008151111561355e5760008073ffffffffffffffffffffffffffffffffffffffff168473ffffffffffffffffffffffffffffffffffffffff1614613399578373ffffffffffffffffffffffffffffffffffffffff166370a08231306040518263ffffffff1660e01b81526004016133469190614671565b60206040518083038186803b15801561335e57600080fd5b505afa158015613372573d6000803e3d6000fd5b505050506040513d601f19601f820116820180604052508101906133969190613ea0565b90505b60005b82518110156134775760008a73ffffffffffffffffffffffffffffffffffffffff168483815181106133ca57fe5b6020026020010151602001516040516133e3919061465a565b6000604051808303816000865af19150503d8060008114613420576040519150601f19603f3d011682016040523d82523d6000602084013e613425565b606091505b5050905080613469576040517f08c379a00000000000000000000000000000000000000000000000000000000081526004016134609061496c565b60405180910390fd5b50808060010191505061339c565b50600073ffffffffffffffffffffffffffffffffffffffff168473ffffffffffffffffffffffffffffffffffffffff161461355c576135598161354b8673ffffffffffffffffffffffffffffffffffffffff166370a08231306040518263ffffffff1660e01b81526004016134ec9190614671565b60206040518083038186803b15801561350457600080fd5b505afa158015613518573d6000803e3d6000fd5b505050506040513d601f19601f8201168201806040525081019061353c9190613ea0565b86612d1c90919063ffffffff16565b612d8890919063ffffffff16565b92505b505b81955050505050509392505050565b600073ffffffffffffffffffffffffffffffffffffffff168173ffffffffffffffffffffffffffffffffffffffff1614156135dd576040517f08c379a00000000000000000000000000000000000000000000000000000000081526004016135d490614a0c565b60405180910390fd5b6127108173ffffffffffffffffffffffffffffffffffffffff166370a08231306040518263ffffffff1660e01b81526004016136199190614671565b60206040518083038186803b15801561363157600080fd5b505afa158015613645573d6000803e3d6000fd5b505050506040513d601f19601f820116820180604052508101906136699190613ea0565b10156138855760096000600a54815260200190815260200160002060009054906101000a900473ffffffffffffffffffffffffffffffffffffffff1660096000600b60008573ffffffffffffffffffffffffffffffffffffffff1673ffffffffffffffffffffffffffffffffffffffff16815260200190815260200160002054815260200190815260200160002060006101000a81548173ffffffffffffffffffffffffffffffffffffffff021916908373ffffffffffffffffffffffffffffffffffffffff160217905550600b60008273ffffffffffffffffffffffffffffffffffffffff1673ffffffffffffffffffffffffffffffffffffffff16815260200190815260200160002054600b600060096000600a54815260200190815260200160002060009054906101000a900473ffffffffffffffffffffffffffffffffffffffff1673ffffffffffffffffffffffffffffffffffffffff1673ffffffffffffffffffffffffffffffffffffffff1681526020019081526020016000208190555060096000600a54815260200190815260200160002060006101000a81549073ffffffffffffffffffffffffffffffffffffffff0219169055600b60008273ffffffffffffffffffffffffffffffffffffffff1673ffffffffffffffffffffffffffffffffffffffff1681526020019081526020016000206000905561387e6001600a54612d8890919063ffffffff16565b600a819055505b50565b600073ffffffffffffffffffffffffffffffffffffffff168173ffffffffffffffffffffffffffffffffffffffff161415801561390457506000600b60008373ffffffffffffffffffffffffffffffffffffffff1673ffffffffffffffffffffffffffffffffffffffff16815260200190815260200160002054145b156139c05761391f6001600a54612d1c90919063ffffffff16565b600a819055508060096000600a54815260200190815260200160002060006101000a81548173ffffffffffffffffffffffffffffffffffffffff021916908373ffffffffffffffffffffffffffffffffffffffff160217905550600a54600b60008373ffffffffffffffffffffffffffffffffffffffff1673ffffffffffffffffffffffffffffffffffffffff168152602001908152602001600020819055505b50565b60008060025414806139d55750600082145b156139e35760009050613a15565b613a12600254613a04670de0b6b3a764000085612d3890919063ffffffff16565b612d6f90919063ffffffff16565b90505b919050565b6000613a2d613a2884614b9d565b614b6c565b9050808382526020820190508260005b85811015613a6d5781518501613a538882613bb0565b845260208401935060208301925050600181019050613a3d565b5050509392505050565b6000613a8a613a8584614bc9565b614b6c565b905082815260208101848484011115613aa257600080fd5b613aad848285614d5d565b509392505050565b6000613ac8613ac384614bc9565b614b6c565b905082815260208101848484011115613ae057600080fd5b613aeb848285614d6c565b509392505050565b600081359050613b0281614db2565b92915050565b600081519050613b1781614db2565b92915050565b600082601f830112613b2e57600080fd5b8151613b3e848260208601613a1a565b91505092915050565b600081519050613b5681614dc9565b92915050565b600082601f830112613b6d57600080fd5b8135613b7d848260208601613a77565b91505092915050565b600082601f830112613b9757600080fd5b8151613ba7848260208601613ab5565b91505092915050565b600060408284031215613bc257600080fd5b613bcc6040614b6c565b90506000613bdc84828501613b08565b600083015250602082015167ffffffffffffffff811115613bfc57600080fd5b613c0884828501613b86565b60208301525092915050565b600081359050613c2381614de0565b92915050565b600081519050613c3881614de0565b92915050565b600060208284031215613c5057600080fd5b6000613c5e84828501613af3565b91505092915050565b600060208284031215613c7957600080fd5b6000613c8784828501613b08565b91505092915050565b60008060408385031215613ca357600080fd5b6000613cb185828601613af3565b9250506020613cc285828601613af3565b9150509250929050565b600080600060608486031215613ce157600080fd5b6000613cef86828701613af3565b9350506020613d0086828701613af3565b9250506040613d1186828701613c14565b9150509250925092565b60008060408385031215613d2e57600080fd5b6000613d3c85828601613af3565b925050602083013567ffffffffffffffff811115613d5957600080fd5b613d6585828601613b5c565b9150509250929050565b60008060408385031215613d8257600080fd5b6000613d9085828601613af3565b9250506020613da185828601613c14565b9150509250929050565b600080600060608486031215613dc057600080fd5b6000613dce86828701613b08565b9350506020613ddf86828701613c29565b925050604084015167ffffffffffffffff811115613dfc57600080fd5b613e0886828701613b1d565b9150509250925092565b600060208284031215613e2457600080fd5b6000613e3284828501613b47565b91505092915050565b60008060408385031215613e4e57600080fd5b6000613e5c85828601613b47565b9250506020613e6d85828601613b08565b9150509250929050565b600060208284031215613e8957600080fd5b6000613e9784828501613c14565b91505092915050565b600060208284031215613eb257600080fd5b6000613ec084828501613c29565b91505092915050565b6000613ed58383613f08565b60208301905092915050565b6000613eed838361462d565b60208301905092915050565b613f0281614d03565b82525050565b613f1181614cae565b82525050565b613f2081614cae565b82525050565b6000613f3182614c19565b613f3b8185614c5f565b9350613f4683614bf9565b8060005b83811015613f77578151613f5e8882613ec9565b9750613f6983614c45565b925050600181019050613f4a565b5085935050505092915050565b6000613f8f82614c24565b613f998185614c70565b9350613fa483614c09565b8060005b83811015613fd5578151613fbc8882613ee1565b9750613fc783614c52565b925050600181019050613fa8565b5085935050505092915050565b613feb81614cc0565b82525050565b6000613ffc82614c2f565b6140068185614c81565b9350614016818560208601614d6c565b61401f81614da1565b840191505092915050565b600061403582614c2f565b61403f8185614c92565b935061404f818560208601614d6c565b80840191505092915050565b61406481614d15565b82525050565b600061407582614c3a565b61407f8185614c9d565b935061408f818560208601614d6c565b61409881614da1565b840191505092915050565b60006140b0603283614c9d565b91507f506f6f6c3a206e756d626572206f6620706f6f6c20746f6b656e73206d75737460008301527f2062652067726561746572207468616e203000000000000000000000000000006020830152604082019050919050565b6000614116601483614c9d565b91507f496e76616c6964206661726d20616464726573730000000000000000000000006000830152602082019050919050565b6000614156601683614c9d565b91507f506f6f6c3a20696e76616c6964207665726966696572000000000000000000006000830152602082019050919050565b6000614196600b83614c9d565b91507f506f6f6c466163746f72790000000000000000000000000000000000000000006000830152602082019050919050565b60006141d6601a83614c9d565b91507f506f6f6c3a20696e76616c69642027746f2720616464726573730000000000006000830152602082019050919050565b6000614216600f83614c9d565b91507f496e76616c6964206164647265737300000000000000000000000000000000006000830152602082019050919050565b6000614256601483614c9d565b91507f496e76616c6964207573657220616464726573730000000000000000000000006000830152602082019050919050565b6000614296603683614c9d565b91507f506f6f6c3a204f6e6c7920506f6f6c466163746f727920636f6e74726163742060008301527f63616e2063616c6c20746869732066756e6374696f6e000000000000000000006020830152604082019050919050565b60006142fc601f83614c9d565b91507f506f6f6c3a206661696c656420746f20776974686472617720746f6b656e73006000830152602082019050919050565b600061433c602383614c9d565b91507f506f6f6c3a207472616e73616374696f6e206661696c656420746f206578656360008301527f75746500000000000000000000000000000000000000000000000000000000006020830152604082019050919050565b60006143a2602383614c9d565b91507f506f6f6c3a20696e76616c69642061737365742068616e646c6572206164647260008301527f65737300000000000000000000000000000000000000000000000000000000006020830152604082019050919050565b6000614408603083614c9d565b91507f506f6f6c3a204f6e6c7920706f6f6c2773206d616e616765722063616e20636160008301527f6c6c20746869732066756e6374696f6e000000000000000000000000000000006020830152604082019050919050565b600061446e602883614c9d565b91507f506f6f6c3a204e6f7420656e6f75676820706f6f6c20746f6b656e7320746f2060008301527f77697468647261770000000000000000000000000000000000000000000000006020830152604082019050919050565b60006144d4601b83614c9d565b91507f506f6f6c3a20696e76616c6964206173736574206164647265737300000000006000830152602082019050919050565b6000614514601983614c9d565b91507f506f6f6c3a20696e76616c6964207472616e73616374696f6e000000000000006000830152602082019050919050565b6000614554601383614c9d565b91507f506f6f6c3a20696e76616c6964206173736574000000000000000000000000006000830152602082019050919050565b6000614594600c83614c9d565b91507f417373657448616e646c657200000000000000000000000000000000000000006000830152602082019050919050565b60006145d4602483614c9d565b91507f506f6f6c3a204465706f736974206d757374206265206772656174657220746860008301527f616e2030000000000000000000000000000000000000000000000000000000006020830152604082019050919050565b61463681614cec565b82525050565b61464581614cec565b82525050565b61465481614cf6565b82525050565b6000614666828461402a565b915081905092915050565b60006020820190506146866000830184613f17565b92915050565b60006060820190506146a16000830186613ef9565b6146ae6020830185613f17565b6146bb604083018461463c565b949350505050565b60006040820190506146d86000830185613ef9565b6146e5602083018461463c565b9392505050565b60006040820190506147016000830185613f17565b61470e6020830184613f17565b9392505050565b600060808201905061472a6000830187613f17565b6147376020830186613f17565b6147446040830185613f17565b81810360608301526147568184613ff1565b905095945050505050565b60006080820190506147766000830187613f17565b6147836020830186613f17565b614790604083018561463c565b61479d6060830184613f17565b95945050505050565b60006040820190506147bb6000830185613f17565b6147c8602083018461463c565b9392505050565b600060608201905081810360008301526147e98186613f26565b905081810360208301526147fd8185613f84565b905061480c604083018461463c565b949350505050565b60006020820190506148296000830184613fe2565b92915050565b6000602082019050614844600083018461405b565b92915050565b60006020820190508181036000830152614864818461406a565b905092915050565b60006020820190508181036000830152614885816140a3565b9050919050565b600060208201905081810360008301526148a581614109565b9050919050565b600060208201905081810360008301526148c581614149565b9050919050565b600060208201905081810360008301526148e581614189565b9050919050565b60006020820190508181036000830152614905816141c9565b9050919050565b6000602082019050818103600083015261492581614209565b9050919050565b6000602082019050818103600083015261494581614249565b9050919050565b6000602082019050818103600083015261496581614289565b9050919050565b60006020820190508181036000830152614985816142ef565b9050919050565b600060208201905081810360008301526149a58161432f565b9050919050565b600060208201905081810360008301526149c581614395565b9050919050565b600060208201905081810360008301526149e5816143fb565b9050919050565b60006020820190508181036000830152614a0581614461565b9050919050565b60006020820190508181036000830152614a25816144c7565b9050919050565b60006020820190508181036000830152614a4581614507565b9050919050565b60006020820190508181036000830152614a6581614547565b9050919050565b60006020820190508181036000830152614a8581614587565b9050919050565b60006020820190508181036000830152614aa5816145c7565b9050919050565b6000602082019050614ac1600083018461463c565b92915050565b6000604082019050614adc600083018561463c565b614ae9602083018461463c565b9392505050565b600060a082019050614b05600083018861463c565b614b12602083018761463c565b8181036040830152614b248186613f26565b90508181036060830152614b388185613f84565b9050614b47608083018461463c565b9695505050505050565b6000602082019050614b66600083018461464b565b92915050565b6000604051905081810181811067ffffffffffffffff82111715614b9357614b92614d9f565b5b8060405250919050565b600067ffffffffffffffff821115614bb857614bb7614d9f565b5b602082029050602081019050919050565b600067ffffffffffffffff821115614be457614be3614d9f565b5b601f19601f8301169050602081019050919050565b6000819050602082019050919050565b6000819050602082019050919050565b600081519050919050565b600081519050919050565b600081519050919050565b600081519050919050565b6000602082019050919050565b6000602082019050919050565b600082825260208201905092915050565b600082825260208201905092915050565b600082825260208201905092915050565b600081905092915050565b600082825260208201905092915050565b6000614cb982614ccc565b9050919050565b60008115159050919050565b600073ffffffffffffffffffffffffffffffffffffffff82169050919050565b6000819050919050565b600060ff82169050919050565b6000614d0e82614d39565b9050919050565b6000614d2082614d27565b9050919050565b6000614d3282614ccc565b9050919050565b6000614d4482614d4b565b9050919050565b6000614d5682614ccc565b9050919050565b82818337600083830152505050565b60005b83811015614d8a578082015181840152602081019050614d6f565b83811115614d99576000848401525b50505050565bfe5b6000601f19601f8301169050919050565b614dbb81614cae565b8114614dc657600080fd5b50565b614dd281614cc0565b8114614ddd57600080fd5b50565b614de981614cec565b8114614df457600080fd5b5056fea2646970667358221220b0673779158731844da7ec0acab4d6ab65be3483d8caace0bb53fa80da7e9cf064736f6c63430007060033506f6f6c466163746f72793a20496e76616c6964206661726d2061646472657373506f6f6c466163746f72793a20496e76616c696420706f6f6c206164647265737343616e6e6f7420657863656564206d6178696d756d20706572666f726d616e63652066656543616e6e6f7420657863656564206d6178696d756d206e756d626572206f6620706f6f6c73207065722075736572506f6f6c206e616d65206d7573742068617665206c657373207468616e2033302063686172616374657273a26469706673582212201479bbd3b985fc7b7f06804eceeeef74e3080a077e03d7fb18b51ec411e4766d64736f6c63430007060033",
  "immutableReferences": {
    "1810": [
      {
        "length": 32,
        "start": 1995
      },
      {
        "length": 32,
        "start": 2957
      },
      {
        "length": 32,
        "start": 3501
      },
      {
        "length": 32,
        "start": 4321
      }
    ]
  },
  "source": "// SPDX-License-Identifier: MIT\r\n\r\npragma solidity >=0.7.6;\r\n\r\n//Interfaces\r\nimport './interfaces/IPool.sol';\r\nimport './interfaces/ISettings.sol';\r\nimport './interfaces/IAddressResolver.sol';\r\n\r\n//Libraries\r\nimport './libraries/SafeMath.sol';\r\n\r\n//Inheritance\r\nimport './Ownable.sol';\r\n\r\n//Internal references\r\nimport './Pool.sol';\r\n\r\ncontract PoolFactory is Ownable {\r\n    using SafeMath for uint;\r\n\r\n    IAddressResolver public immutable ADDRESS_RESOLVER;\r\n\r\n    address[] public pools;\r\n    mapping (address => uint[]) public userToManagedPools;\r\n    mapping (address => uint) public addressToIndex; // maps to (index + 1); index 0 represents pool not found\r\n\r\n    constructor(IAddressResolver addressResolver) Ownable() {\r\n        ADDRESS_RESOLVER = addressResolver;\r\n    }\r\n\r\n    /* ========== VIEWS ========== */\r\n\r\n    /**\r\n    * @dev Returns the address of each pool the user manages\r\n    * @param user Address of the user\r\n    * @return address[] The address of each pool the user manages\r\n    */\r\n    function getUserManagedPools(address user) public view returns(address[] memory) {\r\n        require(user != address(0), \"Invalid address\");\r\n\r\n        address[] memory addresses = new address[](userToManagedPools[user].length);\r\n        uint[] memory indexes = userToManagedPools[user];\r\n\r\n        for (uint i = 0; i < addresses.length; i++)\r\n        {\r\n            uint index = indexes[i];\r\n            addresses[i] = pools[index];\r\n        }\r\n\r\n        return addresses;\r\n    }\r\n\r\n    /**\r\n    * @dev Returns the address of each available pool\r\n    * @return address[] The address of each available pool\r\n    */\r\n    function getAvailablePools() public view returns(address[] memory) {\r\n        return pools;\r\n    }\r\n\r\n    /* ========== MUTATIVE FUNCTIONS ========== */\r\n\r\n    /**\r\n    * @dev Creates a new pool\r\n    * @param poolName Name of the pool\r\n    * @param performanceFee Performance fee for the pool\r\n    */\r\n    function createPool(string memory poolName, uint performanceFee) external {\r\n        address settingsAddress = ADDRESS_RESOLVER.getContractAddress(\"Settings\");\r\n        uint maximumPerformanceFee = ISettings(settingsAddress).getParameterValue(\"MaximumPerformanceFee\");\r\n        uint maximumNumberOfPoolsPerUser = ISettings(settingsAddress).getParameterValue(\"MaximumNumberOfPoolsPerUser\");\r\n\r\n        require(bytes(poolName).length < 30, \"Pool name must have less than 30 characters\");\r\n        require(performanceFee <= maximumPerformanceFee, \"Cannot exceed maximum performance fee\");\r\n        require(userToManagedPools[msg.sender].length < maximumNumberOfPoolsPerUser, \"Cannot exceed maximum number of pools per user\");\r\n\r\n        //Create pool\r\n        Pool temp = new Pool(poolName, performanceFee, msg.sender, ADDRESS_RESOLVER);\r\n\r\n        //Update state variables\r\n        address poolAddress = address(temp);\r\n        pools.push(poolAddress);\r\n        userToManagedPools[msg.sender].push(pools.length - 1);\r\n        addressToIndex[poolAddress] = pools.length;\r\n        ADDRESS_RESOLVER.addPoolAddress(poolAddress);\r\n\r\n        emit CreatedPool(msg.sender, poolAddress, pools.length - 1, block.timestamp);\r\n    }\r\n\r\n    /**\r\n    * @dev Sets the pool's farm address to the specified address\r\n    * @notice Only the PoolFactory contract owner can call this function\r\n    * @param poolAddress Address of the pool\r\n    * @param farmAddress Address of the farm\r\n    */\r\n    function setFarmAddress(address poolAddress, address farmAddress) external isValidPoolAddress(poolAddress) onlyOwner {\r\n        require(farmAddress != address(0), \"PoolFactory: Invalid farm address\");\r\n\r\n        IPool(poolAddress).setFarmAddress(farmAddress);\r\n\r\n        emit UpdatedFarmAddress(poolAddress, farmAddress, block.timestamp);\r\n    }\r\n\r\n    /* ========== MODIFIERS ========== */\r\n\r\n    modifier isValidPoolAddress(address poolAddress) {\r\n        require(poolAddress != address(0), \"PoolFactory: Invalid pool address\");\r\n        require(addressToIndex[poolAddress] > 0, \"PoolFactory: Pool not found\");\r\n        _;\r\n    }\r\n\r\n    /* ========== EVENTS ========== */\r\n\r\n    event UpdatedFarmAddress(address indexed poolAddress, address farmAddress, uint timestamp);\r\n    event CreatedPool(address indexed managerAddress, address indexed poolAddress, uint poolIndex, uint timestamp);\r\n}",
  "sourcePath": "C:/Users/xavie/OneDrive/Desktop/TradeGen/Github/tradegen-protocol/contracts/PoolFactory.sol",
  "compiler": {
    "name": "solc",
    "version": "0.7.6+commit.7338295f.Emscripten.clang"
  },
  "schemaVersion": "3.4.1",
  "updatedAt": "2021-08-20T20:58:56.754Z",
  "devdoc": {
    "kind": "dev",
    "methods": {
      "createPool(string,uint256)": {
        "details": "Creates a new pool",
        "params": {
          "performanceFee": "Performance fee for the pool",
          "poolName": "Name of the pool"
        }
      },
      "getAvailablePools()": {
        "details": "Returns the address of each available pool",
        "returns": {
          "_0": "address[] The address of each available pool"
        }
      },
      "getUserManagedPools(address)": {
        "details": "Returns the address of each pool the user manages",
        "params": {
          "user": "Address of the user"
        },
        "returns": {
          "_0": "address[] The address of each pool the user manages"
        }
      },
      "isOwner()": {
        "returns": {
          "_0": "true if `msg.sender` is the owner of the contract."
        }
      },
      "owner()": {
        "returns": {
          "_0": "the address of the owner."
        }
      },
      "renounceOwnership()": {
        "details": "Allows the current owner to relinquish control of the contract."
      },
      "setFarmAddress(address,address)": {
        "details": "Sets the pool's farm address to the specified address",
        "params": {
          "farmAddress": "Address of the farm",
          "poolAddress": "Address of the pool"
        }
      },
      "transferOwnership(address)": {
        "details": "Allows the current owner to transfer control of the contract to a newOwner.",
        "params": {
          "newOwner": "The address to transfer ownership to."
        }
      }
    },
    "version": 1
  },
  "userdoc": {
    "kind": "user",
    "methods": {
      "renounceOwnership()": {
        "notice": "Renouncing to ownership will leave the contract without an owner. It will not be possible to call the functions with the `onlyOwner` modifier anymore."
      },
      "setFarmAddress(address,address)": {
        "notice": "Only the PoolFactory contract owner can call this function"
      }
    },
    "version": 1
  }
}