{
  "contractName": "PoolFactory",
  "abi": [
    {
      "inputs": [
        {
          "internalType": "contract IAddressResolver",
          "name": "addressResolver",
          "type": "address"
        }
      ],
      "stateMutability": "nonpayable",
      "type": "constructor"
    },
    {
      "anonymous": false,
      "inputs": [
        {
          "indexed": true,
          "internalType": "address",
          "name": "managerAddress",
          "type": "address"
        },
        {
          "indexed": true,
          "internalType": "address",
          "name": "poolAddress",
          "type": "address"
        },
        {
          "indexed": false,
          "internalType": "uint256",
          "name": "poolIndex",
          "type": "uint256"
        },
        {
          "indexed": false,
          "internalType": "uint256",
          "name": "timestamp",
          "type": "uint256"
        }
      ],
      "name": "CreatedPool",
      "type": "event"
    },
    {
      "anonymous": false,
      "inputs": [
        {
          "indexed": true,
          "internalType": "address",
          "name": "previousOwner",
          "type": "address"
        },
        {
          "indexed": true,
          "internalType": "address",
          "name": "newOwner",
          "type": "address"
        }
      ],
      "name": "OwnershipTransferred",
      "type": "event"
    },
    {
      "inputs": [],
      "name": "ADDRESS_RESOLVER",
      "outputs": [
        {
          "internalType": "contract IAddressResolver",
          "name": "",
          "type": "address"
        }
      ],
      "stateMutability": "view",
      "type": "function"
    },
    {
      "inputs": [
        {
          "internalType": "address",
          "name": "",
          "type": "address"
        }
      ],
      "name": "addressToIndex",
      "outputs": [
        {
          "internalType": "uint256",
          "name": "",
          "type": "uint256"
        }
      ],
      "stateMutability": "view",
      "type": "function"
    },
    {
      "inputs": [],
      "name": "isOwner",
      "outputs": [
        {
          "internalType": "bool",
          "name": "",
          "type": "bool"
        }
      ],
      "stateMutability": "view",
      "type": "function"
    },
    {
      "inputs": [],
      "name": "owner",
      "outputs": [
        {
          "internalType": "address",
          "name": "",
          "type": "address"
        }
      ],
      "stateMutability": "view",
      "type": "function"
    },
    {
      "inputs": [
        {
          "internalType": "uint256",
          "name": "",
          "type": "uint256"
        }
      ],
      "name": "pools",
      "outputs": [
        {
          "internalType": "address",
          "name": "",
          "type": "address"
        }
      ],
      "stateMutability": "view",
      "type": "function"
    },
    {
      "inputs": [],
      "name": "renounceOwnership",
      "outputs": [],
      "stateMutability": "nonpayable",
      "type": "function"
    },
    {
      "inputs": [
        {
          "internalType": "address",
          "name": "newOwner",
          "type": "address"
        }
      ],
      "name": "transferOwnership",
      "outputs": [],
      "stateMutability": "nonpayable",
      "type": "function"
    },
    {
      "inputs": [
        {
          "internalType": "address",
          "name": "",
          "type": "address"
        },
        {
          "internalType": "uint256",
          "name": "",
          "type": "uint256"
        }
      ],
      "name": "userToManagedPools",
      "outputs": [
        {
          "internalType": "uint256",
          "name": "",
          "type": "uint256"
        }
      ],
      "stateMutability": "view",
      "type": "function"
    },
    {
      "inputs": [
        {
          "internalType": "address",
          "name": "user",
          "type": "address"
        }
      ],
      "name": "getUserManagedPools",
      "outputs": [
        {
          "internalType": "address[]",
          "name": "",
          "type": "address[]"
        }
      ],
      "stateMutability": "view",
      "type": "function"
    },
    {
      "inputs": [],
      "name": "getAvailablePools",
      "outputs": [
        {
          "internalType": "address[]",
          "name": "",
          "type": "address[]"
        }
      ],
      "stateMutability": "view",
      "type": "function"
    },
    {
      "inputs": [
        {
          "internalType": "string",
          "name": "poolName",
          "type": "string"
        },
        {
          "internalType": "uint256",
          "name": "performanceFee",
          "type": "uint256"
        }
      ],
      "name": "createPool",
      "outputs": [],
      "stateMutability": "nonpayable",
      "type": "function"
    }
  ],
  "bytecode": "0x60a060405234801561001057600080fd5b50604051615d44380380615d448339818101604052602081101561003357600080fd5b8101908080519060200190929190505050336000806101000a81548173ffffffffffffffffffffffffffffffffffffffff021916908373ffffffffffffffffffffffffffffffffffffffff16021790555060008054906101000a900473ffffffffffffffffffffffffffffffffffffffff1673ffffffffffffffffffffffffffffffffffffffff16600073ffffffffffffffffffffffffffffffffffffffff167f8be0079c531659141344cd1fd0a4f28419497f9722a3daafe3b4186f6b6457e060405160405180910390a38073ffffffffffffffffffffffffffffffffffffffff1660808173ffffffffffffffffffffffffffffffffffffffff1660601b815250505060805160601c615be161016360003980610489528061084b5280610a6b5280610d9f5250615be16000f3fe60806040523480156200001157600080fd5b5060043610620000b85760003560e01c80638f32d59b116200007b5780638f32d59b1462000292578063981f3b8e14620002b4578063ac4afa3814620002ea578063e48f93781462000345578063f2fde38b14620003e3578063f667e0aa146200042a57620000b8565b806326fc66ab14620000bd578063715018a614620001885780637517f18314620001945780637a0b32ac14620001f75780638da5cb5b146200025c575b600080fd5b6200018660048036036040811015620000d557600080fd5b8101908080359060200190640100000000811115620000f357600080fd5b8201836020820111156200010657600080fd5b803590602001918460018302840111640100000000831117156200012957600080fd5b91908080601f016020809104026020016040519081016040528093929190818152602001838380828437600081840152601f19601f8201169050808301925050505050505091929192908035906020019092919050505062000485565b005b6200019262000b89565b005b6200019e62000c5b565b6040518080602001828103825283818151815260200191508051906020019060200280838360005b83811015620001e3578082015181840152602081019050620001c6565b505050509050019250505060405180910390f35b62000246600480360360408110156200020f57600080fd5b81019080803573ffffffffffffffffffffffffffffffffffffffff1690602001909291908035906020019092919050505062000ceb565b6040518082815260200191505060405180910390f35b6200026662000d1d565b604051808273ffffffffffffffffffffffffffffffffffffffff16815260200191505060405180910390f35b6200029c62000d46565b60405180821515815260200191505060405180910390f35b620002be62000d9d565b604051808273ffffffffffffffffffffffffffffffffffffffff16815260200191505060405180910390f35b62000319600480360360208110156200030257600080fd5b810190808035906020019092919050505062000dc1565b604051808273ffffffffffffffffffffffffffffffffffffffff16815260200191505060405180910390f35b6200038a600480360360208110156200035d57600080fd5b81019080803573ffffffffffffffffffffffffffffffffffffffff16906020019092919050505062000e01565b6040518080602001828103825283818151815260200191508051906020019060200280838360005b83811015620003cf578082015181840152602081019050620003b2565b505050509050019250505060405180910390f35b6200042860048036036020811015620003fb57600080fd5b81019080803573ffffffffffffffffffffffffffffffffffffffff1690602001909291905050506200108a565b005b6200046f600480360360208110156200044257600080fd5b81019080803573ffffffffffffffffffffffffffffffffffffffff169060200190929190505050620010ac565b6040518082815260200191505060405180910390f35b60007f000000000000000000000000000000000000000000000000000000000000000073ffffffffffffffffffffffffffffffffffffffff166304433bbc6040518163ffffffff1660e01b81526004018080602001828103825260088152602001807f53657474696e677300000000000000000000000000000000000000000000000081525060200191505060206040518083038186803b1580156200052a57600080fd5b505afa1580156200053f573d6000803e3d6000fd5b505050506040513d60208110156200055657600080fd5b8101908080519060200190929190505050905060008173ffffffffffffffffffffffffffffffffffffffff166328a2176f6040518163ffffffff1660e01b81526004018080602001828103825260158152602001807f4d6178696d756d506572666f726d616e6365466565000000000000000000000081525060200191505060206040518083038186803b158015620005ee57600080fd5b505afa15801562000603573d6000803e3d6000fd5b505050506040513d60208110156200061a57600080fd5b8101908080519060200190929190505050905060008273ffffffffffffffffffffffffffffffffffffffff166328a2176f6040518163ffffffff1660e01b815260040180806020018281038252601b8152602001807f4d6178696d756d4e756d6265724f66506f6f6c7350657255736572000000000081525060200191505060206040518083038186803b158015620006b257600080fd5b505afa158015620006c7573d6000803e3d6000fd5b505050506040513d6020811015620006de57600080fd5b81019080805190602001909291905050509050601e8551106200074d576040517f08c379a000000000000000000000000000000000000000000000000000000000815260040180806020018281038252602b81526020018062005b81602b913960400191505060405180910390fd5b81841115620007a8576040517f08c379a000000000000000000000000000000000000000000000000000000000815260040180806020018281038252602581526020018062005b2e6025913960400191505060405180910390fd5b80600260003373ffffffffffffffffffffffffffffffffffffffff1673ffffffffffffffffffffffffffffffffffffffff168152602001908152602001600020805490501062000844576040517f08c379a000000000000000000000000000000000000000000000000000000000815260040180806020018281038252602e81526020018062005b53602e913960400191505060405180910390fd5b60008585337f00000000000000000000000000000000000000000000000000000000000000006040516200087890620011bc565b80806020018581526020018473ffffffffffffffffffffffffffffffffffffffff1681526020018373ffffffffffffffffffffffffffffffffffffffff168152602001828103825286818151815260200191508051906020019080838360005b83811015620008f5578082015181840152602081019050620008d8565b50505050905090810190601f168015620009235780820380516001836020036101000a031916815260200191505b5095505050505050604051809103906000f08015801562000948573d6000803e3d6000fd5b50905060008190506001819080600181540180825580915050600190039060005260206000200160009091909190916101000a81548173ffffffffffffffffffffffffffffffffffffffff021916908373ffffffffffffffffffffffffffffffffffffffff160217905550600260003373ffffffffffffffffffffffffffffffffffffffff1673ffffffffffffffffffffffffffffffffffffffff16815260200190815260200160002060018080549050039080600181540180825580915050600190039060005260206000200160009091909190915055600180549050600360008373ffffffffffffffffffffffffffffffffffffffff1673ffffffffffffffffffffffffffffffffffffffff168152602001908152602001600020819055507f000000000000000000000000000000000000000000000000000000000000000073ffffffffffffffffffffffffffffffffffffffff166343499844826040518263ffffffff1660e01b8152600401808273ffffffffffffffffffffffffffffffffffffffff168152602001915050600060405180830381600087803b15801562000af357600080fd5b505af115801562000b08573d6000803e3d6000fd5b505050508073ffffffffffffffffffffffffffffffffffffffff163373ffffffffffffffffffffffffffffffffffffffff167f86e8d285f3aca144a05c4f811c981e98a2beba0e30a1e8385052b05b8a96b4b1600180805490500342604051808381526020018281526020019250505060405180910390a350505050505050565b62000b9362000d46565b62000b9d57600080fd5b600073ffffffffffffffffffffffffffffffffffffffff1660008054906101000a900473ffffffffffffffffffffffffffffffffffffffff1673ffffffffffffffffffffffffffffffffffffffff167f8be0079c531659141344cd1fd0a4f28419497f9722a3daafe3b4186f6b6457e060405160405180910390a360008060006101000a81548173ffffffffffffffffffffffffffffffffffffffff021916908373ffffffffffffffffffffffffffffffffffffffff160217905550565b6060600180548060200260200160405190810160405280929190818152602001828054801562000ce157602002820191906000526020600020905b8160009054906101000a900473ffffffffffffffffffffffffffffffffffffffff1673ffffffffffffffffffffffffffffffffffffffff168152602001906001019080831162000c96575b5050505050905090565b6002602052816000526040600020818154811062000d0857600080fd5b90600052602060002001600091509150505481565b60008060009054906101000a900473ffffffffffffffffffffffffffffffffffffffff16905090565b60008060009054906101000a900473ffffffffffffffffffffffffffffffffffffffff1673ffffffffffffffffffffffffffffffffffffffff163373ffffffffffffffffffffffffffffffffffffffff1614905090565b7f000000000000000000000000000000000000000000000000000000000000000081565b6001818154811062000dd257600080fd5b906000526020600020016000915054906101000a900473ffffffffffffffffffffffffffffffffffffffff1681565b6060600073ffffffffffffffffffffffffffffffffffffffff168273ffffffffffffffffffffffffffffffffffffffff16141562000ea7576040517f08c379a000000000000000000000000000000000000000000000000000000000815260040180806020018281038252600f8152602001807f496e76616c69642061646472657373000000000000000000000000000000000081525060200191505060405180910390fd5b6000600260008473ffffffffffffffffffffffffffffffffffffffff1673ffffffffffffffffffffffffffffffffffffffff1681526020019081526020016000208054905067ffffffffffffffff8111801562000f0357600080fd5b5060405190808252806020026020018201604052801562000f335781602001602082028036833780820191505090505b5090506000600260008573ffffffffffffffffffffffffffffffffffffffff1673ffffffffffffffffffffffffffffffffffffffff16815260200190815260200160002080548060200260200160405190810160405280929190818152602001828054801562000fc357602002820191906000526020600020905b81548152602001906001019080831162000fae575b5050505050905060005b82518110156200107f57600082828151811062000fe657fe5b602002602001015190506001818154811062000ffe57fe5b9060005260206000200160009054906101000a900473ffffffffffffffffffffffffffffffffffffffff168483815181106200103657fe5b602002602001019073ffffffffffffffffffffffffffffffffffffffff16908173ffffffffffffffffffffffffffffffffffffffff168152505050808060010191505062000fcd565b508192505050919050565b6200109462000d46565b6200109e57600080fd5b620010a981620010c4565b50565b60036020528060005260406000206000915090505481565b600073ffffffffffffffffffffffffffffffffffffffff168173ffffffffffffffffffffffffffffffffffffffff161415620010ff57600080fd5b8073ffffffffffffffffffffffffffffffffffffffff1660008054906101000a900473ffffffffffffffffffffffffffffffffffffffff1673ffffffffffffffffffffffffffffffffffffffff167f8be0079c531659141344cd1fd0a4f28419497f9722a3daafe3b4186f6b6457e060405160405180910390a3806000806101000a81548173ffffffffffffffffffffffffffffffffffffffff021916908373ffffffffffffffffffffffffffffffffffffffff16021790555050565b61496380620011cb8339019056fe60806040523480156200001157600080fd5b50604051620049633803806200496383398181016040528101906200003791906200025e565b83600190805190602001906200004f929190620000f1565b5081600360006101000a81548173ffffffffffffffffffffffffffffffffffffffff021916908373ffffffffffffffffffffffffffffffffffffffff16021790555082600481905550806000806101000a81548173ffffffffffffffffffffffffffffffffffffffff021916908373ffffffffffffffffffffffffffffffffffffffff160217905550670de0b6b3a76400006005819055505050505062000422565b828054600181600116156101000203166002900490600052602060002090601f01602090048101928262000129576000855562000175565b82601f106200014457805160ff191683800117855562000175565b8280016001018555821562000175579182015b828111156200017457825182559160200191906001019062000157565b5b50905062000184919062000188565b5090565b5b80821115620001a357600081600090555060010162000189565b5090565b6000620001be620001b88462000317565b620002e3565b905082815260208101848484011115620001d757600080fd5b620001e48482856200039c565b509392505050565b600081519050620001fd81620003d4565b92915050565b6000815190506200021481620003ee565b92915050565b600082601f8301126200022c57600080fd5b81516200023e848260208601620001a7565b91505092915050565b600081519050620002588162000408565b92915050565b600080600080608085870312156200027557600080fd5b600085015167ffffffffffffffff8111156200029057600080fd5b6200029e878288016200021a565b9450506020620002b18782880162000247565b9350506040620002c487828801620001ec565b9250506060620002d78782880162000203565b91505092959194509250565b6000604051905081810181811067ffffffffffffffff821117156200030d576200030c620003d2565b5b8060405250919050565b600067ffffffffffffffff821115620003355762000334620003d2565b5b601f19601f8301169050602081019050919050565b6000620003578262000372565b9050919050565b60006200036b826200034a565b9050919050565b600073ffffffffffffffffffffffffffffffffffffffff82169050919050565b6000819050919050565b60005b83811015620003bc5780820151818401526020810190506200039f565b83811115620003cc576000848401525b50505050565bfe5b620003df816200034a565b8114620003eb57600080fd5b50565b620003f9816200035e565b81146200040557600080fd5b50565b620004138162000392565b81146200041f57600080fd5b50565b61453180620004326000396000f3fe608060405234801561001057600080fd5b50600436106101c45760003560e01c80637ff9b596116100f9578063c162d7da11610097578063d28d885211610071578063d28d8852146104d9578063e9fad8ee146104f7578063edbf6f5014610501578063f0329f6b1461051f576101c4565b8063c162d7da14610481578063cc3c6df61461049f578063cca3e832146104a9576101c4565b8063981f3b8e116100d3578063981f3b8e146104095780639db3235314610427578063ac08c57414610445578063b6b55f2514610465576101c4565b80637ff9b5961461039d57806380e28293146103bb57806395d4e5da146103d9576101c4565b80632ed8e0d4116101665780635195bd29116101405780635195bd29146103035780635cb035ad146103215780636ca0f8141461035157806370a082311461036d576101c4565b80632ed8e0d4146102ab5780633eaaf86b146102db57806347b339ca146102f9576101c4565b80631ba2f531116101a25780631ba2f531146102235780632322e3b914610241578063235c3603146102715780632e1a7d4d1461028f576101c4565b806306fdde03146101c957806318160ddd146101e75780631978d6bc14610205575b600080fd5b6101d161053d565b6040516101de9190613fd6565b60405180910390f35b6101ef6105df565b6040516101fc91906141d8565b60405180910390f35b61020d6105e9565b60405161021a91906141d8565b60405180910390f35b61022b6105ef565b60405161023891906141d8565b60405180910390f35b61025b60048036038101906102569190613565565b610713565b60405161026891906141d8565b60405180910390f35b6102796107fe565b60405161028691906141d8565b60405180910390f35b6102a960048036038101906102a49190613713565b610808565b005b6102c560048036038101906102c09190613713565b610d44565b6040516102d29190613e18565b60405180910390f35b6102e3610d77565b6040516102f091906141d8565b60405180910390f35b610301610d7d565b005b61030b610ef8565b60405161031891906141d8565b60405180910390f35b61033b60048036038101906103369190613565565b6110b6565b60405161034891906141d8565b60405180910390f35b61036b600480360381019061036691906135f3565b6110ce565b005b61038760048036038101906103829190613565565b6117a0565b60405161039491906141d8565b60405180910390f35b6103a5611858565b6040516103b291906141d8565b60405180910390f35b6103c3611874565b6040516103d091906141d8565b60405180910390f35b6103f360048036038101906103ee91906135b7565b61187a565b60405161040091906141d8565b60405180910390f35b610411611b37565b60405161041e9190613fbb565b60405180910390f35b61042f611b5b565b60405161043c91906141d8565b60405180910390f35b61044d611b61565b60405161045c93929190613f76565b60405180910390f35b61047f600480360381019061047a9190613713565b61204f565b005b6104896123be565b6040516104969190613e18565b60405180910390f35b6104a76123e8565b005b6104c360048036038101906104be9190613565565b612483565b6040516104d091906141d8565b60405180910390f35b6104e161249b565b6040516104ee9190613fd6565b60405180910390f35b6104ff612539565b005b61050961254c565b60405161051691906141d8565b60405180910390f35b610527612605565b6040516105349190613e18565b60405180910390f35b606060018054600181600116156101000203166002900480601f0160208091040260200160405190810160405280929190818152602001828054600181600116156101000203166002900480156105d55780601f106105aa576101008083540402835291602001916105d5565b820191906000526020600020905b8154815290600101906020018083116105b857829003601f168201915b5050505050905090565b6000600254905090565b60055481565b60008060008054906101000a900473ffffffffffffffffffffffffffffffffffffffff1673ffffffffffffffffffffffffffffffffffffffff166304433bbc6040518163ffffffff1660e01b815260040161064990614198565b60206040518083038186803b15801561066157600080fd5b505afa158015610675573d6000803e3d6000fd5b505050506040513d601f19601f82011682018060405250810190610699919061358e565b9050600080600190505b600854811161070a576106fb6106ec6007600084815260200190815260200160002060009054906101000a900473ffffffffffffffffffffffffffffffffffffffff168561187a565b8361262b90919063ffffffff16565b915080806001019150506106a3565b50809250505090565b60008073ffffffffffffffffffffffffffffffffffffffff168273ffffffffffffffffffffffffffffffffffffffff161415610784576040517f08c379a000000000000000000000000000000000000000000000000000000000815260040161077b90614058565b60405180910390fd5b600061078e6105ef565b90506107f66002546107e8600660008773ffffffffffffffffffffffffffffffffffffffff1673ffffffffffffffffffffffffffffffffffffffff168152602001908152602001600020548461264790919063ffffffff16565b61267e90919063ffffffff16565b915050919050565b6000600454905090565b6000811161084b576040517f08c379a000000000000000000000000000000000000000000000000000000000815260040161084290613ff8565b60405180910390fd5b80600660003373ffffffffffffffffffffffffffffffffffffffff1673ffffffffffffffffffffffffffffffffffffffff1681526020019081526020016000205410156108cd576040517f08c379a00000000000000000000000000000000000000000000000000000000081526004016108c490614118565b60405180910390fd5b60006108d7612697565b9050600061090a6002546108fc670de0b6b3a76400008661264790919063ffffffff16565b61267e90919063ffffffff16565b905061095e83600660003373ffffffffffffffffffffffffffffffffffffffff1673ffffffffffffffffffffffffffffffffffffffff1681526020019081526020016000205461285a90919063ffffffff16565b600660003373ffffffffffffffffffffffffffffffffffffffff1673ffffffffffffffffffffffffffffffffffffffff168152602001908152602001600020819055506109b68360025461285a90919063ffffffff16565b600281905550600060085467ffffffffffffffff811180156109d757600080fd5b50604051908082528060200260200182016040528015610a065781602001602082028036833780820191505090505b509050600060085467ffffffffffffffff81118015610a2457600080fd5b50604051908082528060200260200182016040528015610a535781602001602082028036833780820191505090505b5090506000600854905060008190505b6000811115610c88576000610aab6007600084815260200190815260200160002060009054906101000a900473ffffffffffffffffffffffffffffffffffffffff1687612871565b90506000811115610c31576007600083815260200190815260200160002060009054906101000a900473ffffffffffffffffffffffffffffffffffffffff1673ffffffffffffffffffffffffffffffffffffffff1663a9059cbb33836040518363ffffffff1660e01b8152600401610b24929190613e6a565b602060405180830381600087803b158015610b3e57600080fd5b505af1158015610b52573d6000803e3d6000fd5b505050506040513d601f19601f82011682018060405250810190610b7691906136ae565b508085610b8d60018561285a90919063ffffffff16565b81518110610b9757fe5b6020026020010181815250506007600083815260200190815260200160002060009054906101000a900473ffffffffffffffffffffffffffffffffffffffff1684610bec60018561285a90919063ffffffff16565b81518110610bf657fe5b602002602001019073ffffffffffffffffffffffffffffffffffffffff16908173ffffffffffffffffffffffffffffffffffffffff16815250505b60006002541415610c7957610c786007600084815260200190815260200160002060009054906101000a900473ffffffffffffffffffffffffffffffffffffffff16612cfc565b5b50808060019003915050610a63565b5060006002541415610c9d5760006008819055505b6000610ccc670de0b6b3a7640000610cbe878961264790919063ffffffff16565b61267e90919063ffffffff16565b90503373ffffffffffffffffffffffffffffffffffffffff163073ffffffffffffffffffffffffffffffffffffffff167fca9c598e2bf8dd0778925b490473eac35c5a204479163ef8e311b67e2bf18bbb8984878942604051610d3395949392919061421c565b60405180910390a350505050505050565b60076020528060005260406000206000915054906101000a900473ffffffffffffffffffffffffffffffffffffffff1681565b60025481565b600360009054906101000a900473ffffffffffffffffffffffffffffffffffffffff1673ffffffffffffffffffffffffffffffffffffffff163373ffffffffffffffffffffffffffffffffffffffff1614610e0d576040517f08c379a0000000000000000000000000000000000000000000000000000000008152600401610e04906140f8565b60405180910390fd5b6000600854905060008190505b6000811115610e6d57610e5f6007600083815260200190815260200160002060009054906101000a900473ffffffffffffffffffffffffffffffffffffffff16612cfc565b808060019003915050610e1a565b50600360009054906101000a900473ffffffffffffffffffffffffffffffffffffffff1673ffffffffffffffffffffffffffffffffffffffff163073ffffffffffffffffffffffffffffffffffffffff167f8e3d29abeef0483a28c9f802de238b3d31da2986dd7c27115a421bc802147c5a42604051610eed91906141d8565b60405180910390a350565b60008060008054906101000a900473ffffffffffffffffffffffffffffffffffffffff1673ffffffffffffffffffffffffffffffffffffffff166304433bbc6040518163ffffffff1660e01b8152600401610f5290614198565b60206040518083038186803b158015610f6a57600080fd5b505afa158015610f7e573d6000803e3d6000fd5b505050506040513d601f19601f82011682018060405250810190610fa2919061358e565b905060008173ffffffffffffffffffffffffffffffffffffffff1663be781b1c6040518163ffffffff1660e01b815260040160206040518083038186803b158015610fec57600080fd5b505afa158015611000573d6000803e3d6000fd5b505050506040513d601f19601f82011682018060405250810190611024919061358e565b90508073ffffffffffffffffffffffffffffffffffffffff166370a08231306040518263ffffffff1660e01b815260040161105f9190613e18565b60206040518083038186803b15801561107757600080fd5b505afa15801561108b573d6000803e3d6000fd5b505050506040513d601f19601f820116820180604052508101906110af919061373c565b9250505090565b60096020528060005260406000206000915090505481565b600360009054906101000a900473ffffffffffffffffffffffffffffffffffffffff1673ffffffffffffffffffffffffffffffffffffffff163373ffffffffffffffffffffffffffffffffffffffff161461115e576040517f08c379a0000000000000000000000000000000000000000000000000000000008152600401611155906140f8565b60405180910390fd5b600073ffffffffffffffffffffffffffffffffffffffff168273ffffffffffffffffffffffffffffffffffffffff1614156111ce576040517f08c379a00000000000000000000000000000000000000000000000000000000081526004016111c590614038565b60405180910390fd5b60008060009054906101000a900473ffffffffffffffffffffffffffffffffffffffff1673ffffffffffffffffffffffffffffffffffffffff16632febaebd846040518263ffffffff1660e01b815260040161122a9190613e18565b60206040518083038186803b15801561124257600080fd5b505afa158015611256573d6000803e3d6000fd5b505050506040513d601f19601f8201168201806040525081019061127a919061358e565b9050600073ffffffffffffffffffffffffffffffffffffffff168173ffffffffffffffffffffffffffffffffffffffff1614156114f05760008060009054906101000a900473ffffffffffffffffffffffffffffffffffffffff1673ffffffffffffffffffffffffffffffffffffffff166304433bbc6040518163ffffffff1660e01b815260040161130b90614198565b60206040518083038186803b15801561132357600080fd5b505afa158015611337573d6000803e3d6000fd5b505050506040513d601f19601f8201168201806040525081019061135b919061358e565b90508073ffffffffffffffffffffffffffffffffffffffff1663059ce95d856040518263ffffffff1660e01b81526004016113969190613e18565b60206040518083038186803b1580156113ae57600080fd5b505afa1580156113c2573d6000803e3d6000fd5b505050506040513d601f19601f820116820180604052508101906113e6919061358e565b9150600073ffffffffffffffffffffffffffffffffffffffff168273ffffffffffffffffffffffffffffffffffffffff16146114ee578073ffffffffffffffffffffffffffffffffffffffff1663cc435bf3856040518263ffffffff1660e01b81526004016114559190613e18565b60206040518083038186803b15801561146d57600080fd5b505afa158015611481573d6000803e3d6000fd5b505050506040513d601f19601f820116820180604052508101906114a591906136ae565b6114e4576040517f08c379a00000000000000000000000000000000000000000000000000000000081526004016114db90614178565b60405180910390fd5b6114ed846131a1565b5b505b600073ffffffffffffffffffffffffffffffffffffffff168173ffffffffffffffffffffffffffffffffffffffff161415611560576040517f08c379a000000000000000000000000000000000000000000000000000000000815260040161155790614018565b60405180910390fd5b6000808273ffffffffffffffffffffffffffffffffffffffff166339158fdd60008054906101000a900473ffffffffffffffffffffffffffffffffffffffff163088886040518563ffffffff1660e01b81526004016115c29493929190613ebc565b6040805180830381600087803b1580156115db57600080fd5b505af11580156115ef573d6000803e3d6000fd5b505050506040513d601f19601f8201168201806040525081019061161391906136d7565b9150915081611657576040517f08c379a000000000000000000000000000000000000000000000000000000000815260040161164e90614158565b60405180910390fd5b60008573ffffffffffffffffffffffffffffffffffffffff168560405161167e9190613e01565b6000604051808303816000865af19150503d80600081146116bb576040519150601f19603f3d011682016040523d82523d6000602084013e6116c0565b606091505b5050905080611704576040517f08c379a00000000000000000000000000000000000000000000000000000000081526004016116fb906140b8565b60405180910390fd5b61170d826131a1565b600360009054906101000a900473ffffffffffffffffffffffffffffffffffffffff1673ffffffffffffffffffffffffffffffffffffffff163073ffffffffffffffffffffffffffffffffffffffff167f364929c6571ff36e52defb6ccaeb414915ab289117424dfed48cebc0f7d7efda88844260405161179093929190613f3f565b60405180910390a3505050505050565b60008073ffffffffffffffffffffffffffffffffffffffff168273ffffffffffffffffffffffffffffffffffffffff161415611811576040517f08c379a000000000000000000000000000000000000000000000000000000000815260040161180890614078565b60405180910390fd5b600660008373ffffffffffffffffffffffffffffffffffffffff1673ffffffffffffffffffffffffffffffffffffffff168152602001908152602001600020549050919050565b6000806118636105ef565b905061186e816132dc565b91505090565b60045481565b60008073ffffffffffffffffffffffffffffffffffffffff168373ffffffffffffffffffffffffffffffffffffffff1614156118eb576040517f08c379a00000000000000000000000000000000000000000000000000000000081526004016118e290614138565b60405180910390fd5b600073ffffffffffffffffffffffffffffffffffffffff168273ffffffffffffffffffffffffffffffffffffffff16141561195b576040517f08c379a0000000000000000000000000000000000000000000000000000000008152600401611952906140d8565b60405180910390fd5b60008273ffffffffffffffffffffffffffffffffffffffff16638b2f0f4f856040518263ffffffff1660e01b81526004016119969190613e18565b60206040518083038186803b1580156119ae57600080fd5b505afa1580156119c2573d6000803e3d6000fd5b505050506040513d601f19601f820116820180604052508101906119e6919061373c565b905060008373ffffffffffffffffffffffffffffffffffffffff1663cf54aaa0866040518263ffffffff1660e01b8152600401611a239190613e18565b60206040518083038186803b158015611a3b57600080fd5b505afa158015611a4f573d6000803e3d6000fd5b505050506040513d601f19601f82011682018060405250810190611a73919061373c565b905060008473ffffffffffffffffffffffffffffffffffffffff1663d4fac45d30886040518363ffffffff1660e01b8152600401611ab2929190613e93565b60206040518083038186803b158015611aca57600080fd5b505afa158015611ade573d6000803e3d6000fd5b505050506040513d601f19601f82011682018060405250810190611b02919061373c565b9050611b2c82600a0a611b1e858461264790919063ffffffff16565b61267e90919063ffffffff16565b935050505092915050565b60008054906101000a900473ffffffffffffffffffffffffffffffffffffffff1681565b60085481565b60608060008060008054906101000a900473ffffffffffffffffffffffffffffffffffffffff1673ffffffffffffffffffffffffffffffffffffffff166304433bbc6040518163ffffffff1660e01b8152600401611bbe90614198565b60206040518083038186803b158015611bd657600080fd5b505afa158015611bea573d6000803e3d6000fd5b505050506040513d601f19601f82011682018060405250810190611c0e919061358e565b9050600060085467ffffffffffffffff81118015611c2b57600080fd5b50604051908082528060200260200182016040528015611c5a5781602001602082028036833780820191505090505b509050600060085467ffffffffffffffff81118015611c7857600080fd5b50604051908082528060200260200182016040528015611ca75781602001602082028036833780820191505090505b509050600080600090505b60085481101561203c578473ffffffffffffffffffffffffffffffffffffffff1663d4fac45d3060076000611cf160018761262b90919063ffffffff16565b815260200190815260200160002060009054906101000a900473ffffffffffffffffffffffffffffffffffffffff166040518363ffffffff1660e01b8152600401611d3d929190613e93565b60206040518083038186803b158015611d5557600080fd5b505afa158015611d69573d6000803e3d6000fd5b505050506040513d601f19601f82011682018060405250810190611d8d919061373c565b838281518110611d9957fe5b60200260200101818152505060076000611dbd60018461262b90919063ffffffff16565b815260200190815260200160002060009054906101000a900473ffffffffffffffffffffffffffffffffffffffff16848281518110611df857fe5b602002602001019073ffffffffffffffffffffffffffffffffffffffff16908173ffffffffffffffffffffffffffffffffffffffff168152505060008573ffffffffffffffffffffffffffffffffffffffff1663cf54aaa060076000611e6860018761262b90919063ffffffff16565b815260200190815260200160002060009054906101000a900473ffffffffffffffffffffffffffffffffffffffff166040518263ffffffff1660e01b8152600401611eb39190613e18565b60206040518083038186803b158015611ecb57600080fd5b505afa158015611edf573d6000803e3d6000fd5b505050506040513d601f19601f82011682018060405250810190611f03919061373c565b905060008673ffffffffffffffffffffffffffffffffffffffff16638b2f0f4f60076000611f3b60018861262b90919063ffffffff16565b815260200190815260200160002060009054906101000a900473ffffffffffffffffffffffffffffffffffffffff166040518263ffffffff1660e01b8152600401611f869190613e18565b60206040518083038186803b158015611f9e57600080fd5b505afa158015611fb2573d6000803e3d6000fd5b505050506040513d601f19601f82011682018060405250810190611fd6919061373c565b9050600061201583600a0a61200784898881518110611ff157fe5b602002602001015161264790919063ffffffff16565b61267e90919063ffffffff16565b905061202a818661262b90919063ffffffff16565b94505050508080600101915050611cb2565b5082828296509650965050505050909192565b60008111612092576040517f08c379a0000000000000000000000000000000000000000000000000000000008152600401612089906141b8565b60405180910390fd5b600061209c6105ef565b9050600080600254116120af57826120d7565b6120d6826120c88560025461264790919063ffffffff16565b61267e90919063ffffffff16565b5b905061212b81600660003373ffffffffffffffffffffffffffffffffffffffff1673ffffffffffffffffffffffffffffffffffffffff1681526020019081526020016000205461262b90919063ffffffff16565b600660003373ffffffffffffffffffffffffffffffffffffffff1673ffffffffffffffffffffffffffffffffffffffff168152602001908152602001600020819055506121838160025461262b90919063ffffffff16565b60028190555060008060009054906101000a900473ffffffffffffffffffffffffffffffffffffffff1673ffffffffffffffffffffffffffffffffffffffff166304433bbc6040518163ffffffff1660e01b81526004016121e390614198565b60206040518083038186803b1580156121fb57600080fd5b505afa15801561220f573d6000803e3d6000fd5b505050506040513d601f19601f82011682018060405250810190612233919061358e565b905060008173ffffffffffffffffffffffffffffffffffffffff1663be781b1c6040518163ffffffff1660e01b815260040160206040518083038186803b15801561227d57600080fd5b505afa158015612291573d6000803e3d6000fd5b505050506040513d601f19601f820116820180604052508101906122b5919061358e565b90508073ffffffffffffffffffffffffffffffffffffffff166323b872dd3330886040518463ffffffff1660e01b81526004016122f493929190613e33565b602060405180830381600087803b15801561230e57600080fd5b505af1158015612322573d6000803e3d6000fd5b505050506040513d601f19601f8201168201806040525081019061234691906136ae565b50612350816131a1565b3373ffffffffffffffffffffffffffffffffffffffff163073ffffffffffffffffffffffffffffffffffffffff167fdcbc1c05240f31ff3ad067ef1ee35ce4997762752e3a095284754544f4c709d787426040516123af9291906141f3565b60405180910390a35050505050565b6000600360009054906101000a900473ffffffffffffffffffffffffffffffffffffffff16905090565b600360009054906101000a900473ffffffffffffffffffffffffffffffffffffffff1673ffffffffffffffffffffffffffffffffffffffff163373ffffffffffffffffffffffffffffffffffffffff1614612478576040517f08c379a000000000000000000000000000000000000000000000000000000000815260040161246f906140f8565b60405180910390fd5b612480612697565b50565b60066020528060005260406000206000915090505481565b60018054600181600116156101000203166002900480601f0160208091040260200160405190810160405280929190818152602001828054600181600116156101000203166002900480156125315780601f1061250657610100808354040283529160200191612531565b820191906000526020600020905b81548152906001019060200180831161251457829003601f168201915b505050505081565b61254a612545336117a0565b610808565b565b6000806125576105ef565b90506000600254148061256a5750600081145b15612579576000915050612602565b6000612584826132dc565b9050600554811161259a57600092505050612602565b6125fd816125ef6127106125e16004546125d36002546125c56005548a61285a90919063ffffffff16565b61264790919063ffffffff16565b61264790919063ffffffff16565b61267e90919063ffffffff16565b61267e90919063ffffffff16565b925050505b90565b600360009054906101000a900473ffffffffffffffffffffffffffffffffffffffff1681565b60008082840190508381101561263d57fe5b8091505092915050565b60008083141561265a5760009050612678565b600082840290508284828161266b57fe5b041461267357fe5b809150505b92915050565b60008082848161268a57fe5b0490508091505092915050565b6000806126a26105ef565b905060006126ae61254c565b90506127108110156126c557600092505050612857565b6127398160066000600360009054906101000a900473ffffffffffffffffffffffffffffffffffffffff1673ffffffffffffffffffffffffffffffffffffffff1673ffffffffffffffffffffffffffffffffffffffff1681526020019081526020016000205461262b90919063ffffffff16565b60066000600360009054906101000a900473ffffffffffffffffffffffffffffffffffffffff1673ffffffffffffffffffffffffffffffffffffffff1673ffffffffffffffffffffffffffffffffffffffff168152602001908152602001600020819055506127b38160025461262b90919063ffffffff16565b6002819055506127c2826132dc565b600581905550600360009054906101000a900473ffffffffffffffffffffffffffffffffffffffff1673ffffffffffffffffffffffffffffffffffffffff163073ffffffffffffffffffffffffffffffffffffffff167f9e04df2ace49a0aadf511c756e3d1d033d10bfbc722409b41010b7c7b99c6f3b83426040516128499291906141f3565b60405180910390a381925050505b90565b60008282111561286657fe5b818303905092915050565b60008060008054906101000a900473ffffffffffffffffffffffffffffffffffffffff1673ffffffffffffffffffffffffffffffffffffffff166304433bbc6040518163ffffffff1660e01b81526004016128cb90614198565b60206040518083038186803b1580156128e357600080fd5b505afa1580156128f7573d6000803e3d6000fd5b505050506040513d601f19601f8201168201806040525081019061291b919061358e565b905060008173ffffffffffffffffffffffffffffffffffffffff1663059ce95d866040518263ffffffff1660e01b81526004016129589190613e18565b60206040518083038186803b15801561297057600080fd5b505afa158015612984573d6000803e3d6000fd5b505050506040513d601f19601f820116820180604052508101906129a8919061358e565b905060008060008373ffffffffffffffffffffffffffffffffffffffff166398d04673308a8a6040518463ffffffff1660e01b81526004016129ec93929190613f08565b60006040518083038186803b158015612a0457600080fd5b505afa158015612a18573d6000803e3d6000fd5b505050506040513d6000823e3d601f19601f82011682018060405250810190612a419190613647565b925092509250600081511115612cee5760008073ffffffffffffffffffffffffffffffffffffffff168473ffffffffffffffffffffffffffffffffffffffff1614612b12578373ffffffffffffffffffffffffffffffffffffffff166370a08231306040518263ffffffff1660e01b8152600401612abf9190613e18565b60206040518083038186803b158015612ad757600080fd5b505afa158015612aeb573d6000803e3d6000fd5b505050506040513d601f19601f82011682018060405250810190612b0f919061373c565b90505b60005b8251811015612c07576000838281518110612b2c57fe5b60200260200101516000015173ffffffffffffffffffffffffffffffffffffffff16848381518110612b5a57fe5b602002602001015160200151604051612b739190613e01565b6000604051808303816000865af19150503d8060008114612bb0576040519150601f19603f3d011682016040523d82523d6000602084013e612bb5565b606091505b5050905080612bf9576040517f08c379a0000000000000000000000000000000000000000000000000000000008152600401612bf090614098565b60405180910390fd5b508080600101915050612b15565b50600073ffffffffffffffffffffffffffffffffffffffff168473ffffffffffffffffffffffffffffffffffffffff1614612cec57612ce981612cdb8673ffffffffffffffffffffffffffffffffffffffff166370a08231306040518263ffffffff1660e01b8152600401612c7c9190613e18565b60206040518083038186803b158015612c9457600080fd5b505afa158015612ca8573d6000803e3d6000fd5b505050506040513d601f19601f82011682018060405250810190612ccc919061373c565b8661262b90919063ffffffff16565b61285a90919063ffffffff16565b92505b505b819550505050505092915050565b600073ffffffffffffffffffffffffffffffffffffffff168173ffffffffffffffffffffffffffffffffffffffff161415612d6c576040517f08c379a0000000000000000000000000000000000000000000000000000000008152600401612d6390614138565b60405180910390fd5b60008060009054906101000a900473ffffffffffffffffffffffffffffffffffffffff1673ffffffffffffffffffffffffffffffffffffffff166304433bbc6040518163ffffffff1660e01b8152600401612dc690614198565b60206040518083038186803b158015612dde57600080fd5b505afa158015612df2573d6000803e3d6000fd5b505050506040513d601f19601f82011682018060405250810190612e16919061358e565b90506103e88173ffffffffffffffffffffffffffffffffffffffff1663d4fac45d30856040518363ffffffff1660e01b8152600401612e56929190613e93565b60206040518083038186803b158015612e6e57600080fd5b505afa158015612e82573d6000803e3d6000fd5b505050506040513d601f19601f82011682018060405250810190612ea6919061373c565b101561319d5760076000600854815260200190815260200160002060009054906101000a900473ffffffffffffffffffffffffffffffffffffffff1673ffffffffffffffffffffffffffffffffffffffff1660076000600960008673ffffffffffffffffffffffffffffffffffffffff1673ffffffffffffffffffffffffffffffffffffffff16815260200190815260200160002054815260200190815260200160002060009054906101000a900473ffffffffffffffffffffffffffffffffffffffff1673ffffffffffffffffffffffffffffffffffffffff16146131055760076000600854815260200190815260200160002060009054906101000a900473ffffffffffffffffffffffffffffffffffffffff1660076000600960008673ffffffffffffffffffffffffffffffffffffffff1673ffffffffffffffffffffffffffffffffffffffff16815260200190815260200160002054815260200190815260200160002060006101000a81548173ffffffffffffffffffffffffffffffffffffffff021916908373ffffffffffffffffffffffffffffffffffffffff160217905550600960008373ffffffffffffffffffffffffffffffffffffffff1673ffffffffffffffffffffffffffffffffffffffff168152602001908152602001600020546009600060076000600854815260200190815260200160002060009054906101000a900473ffffffffffffffffffffffffffffffffffffffff1673ffffffffffffffffffffffffffffffffffffffff1673ffffffffffffffffffffffffffffffffffffffff168152602001908152602001600020819055505b60076000600854815260200190815260200160002060006101000a81549073ffffffffffffffffffffffffffffffffffffffff0219169055600960008373ffffffffffffffffffffffffffffffffffffffff1673ffffffffffffffffffffffffffffffffffffffff16815260200190815260200160002060009055613196600160085461285a90919063ffffffff16565b6008819055505b5050565b600073ffffffffffffffffffffffffffffffffffffffff168173ffffffffffffffffffffffffffffffffffffffff161415801561321d57506000600960008373ffffffffffffffffffffffffffffffffffffffff1673ffffffffffffffffffffffffffffffffffffffff16815260200190815260200160002054145b156132d957613238600160085461262b90919063ffffffff16565b6008819055508060076000600854815260200190815260200160002060006101000a81548173ffffffffffffffffffffffffffffffffffffffff021916908373ffffffffffffffffffffffffffffffffffffffff160217905550600854600960008373ffffffffffffffffffffffffffffffffffffffff1673ffffffffffffffffffffffffffffffffffffffff168152602001908152602001600020819055505b50565b6000808214156132ef576000905061333c565b6000600254141561330a57670de0b6b3a7640000905061333c565b61333960025461332b670de0b6b3a76400008561264790919063ffffffff16565b61267e90919063ffffffff16565b90505b919050565b600061335461334f846142ae565b61427d565b9050808382526020820190508260005b85811015613394578151850161337a88826134d7565b845260208401935060208301925050600181019050613364565b5050509392505050565b60006133b16133ac846142da565b61427d565b9050828152602081018484840111156133c957600080fd5b6133d4848285614461565b509392505050565b60006133ef6133ea846142da565b61427d565b90508281526020810184848401111561340757600080fd5b613412848285614470565b509392505050565b600081359050613429816144b6565b92915050565b60008151905061343e816144b6565b92915050565b600082601f83011261345557600080fd5b8151613465848260208601613341565b91505092915050565b60008151905061347d816144cd565b92915050565b600082601f83011261349457600080fd5b81356134a484826020860161339e565b91505092915050565b600082601f8301126134be57600080fd5b81516134ce8482602086016133dc565b91505092915050565b6000604082840312156134e957600080fd5b6134f3604061427d565b905060006135038482850161342f565b600083015250602082015167ffffffffffffffff81111561352357600080fd5b61352f848285016134ad565b60208301525092915050565b60008135905061354a816144e4565b92915050565b60008151905061355f816144e4565b92915050565b60006020828403121561357757600080fd5b60006135858482850161341a565b91505092915050565b6000602082840312156135a057600080fd5b60006135ae8482850161342f565b91505092915050565b600080604083850312156135ca57600080fd5b60006135d88582860161341a565b92505060206135e98582860161341a565b9150509250929050565b6000806040838503121561360657600080fd5b60006136148582860161341a565b925050602083013567ffffffffffffffff81111561363157600080fd5b61363d85828601613483565b9150509250929050565b60008060006060848603121561365c57600080fd5b600061366a8682870161342f565b935050602061367b86828701613550565b925050604084015167ffffffffffffffff81111561369857600080fd5b6136a486828701613444565b9150509250925092565b6000602082840312156136c057600080fd5b60006136ce8482850161346e565b91505092915050565b600080604083850312156136ea57600080fd5b60006136f88582860161346e565b92505060206137098582860161342f565b9150509250929050565b60006020828403121561372557600080fd5b60006137338482850161353b565b91505092915050565b60006020828403121561374e57600080fd5b600061375c84828501613550565b91505092915050565b600061377183836137a4565b60208301905092915050565b60006137898383613de3565b60208301905092915050565b61379e81614407565b82525050565b6137ad816143bf565b82525050565b6137bc816143bf565b82525050565b60006137cd8261432a565b6137d78185614370565b93506137e28361430a565b8060005b838110156138135781516137fa8882613765565b975061380583614356565b9250506001810190506137e6565b5085935050505092915050565b600061382b82614335565b6138358185614381565b93506138408361431a565b8060005b83811015613871578151613858888261377d565b975061386383614363565b925050600181019050613844565b5085935050505092915050565b613887816143d1565b82525050565b600061389882614340565b6138a28185614392565b93506138b2818560208601614470565b6138bb816144a5565b840191505092915050565b60006138d182614340565b6138db81856143a3565b93506138eb818560208601614470565b80840191505092915050565b61390081614419565b82525050565b60006139118261434b565b61391b81856143ae565b935061392b818560208601614470565b613934816144a5565b840191505092915050565b600061394c6032836143ae565b91507f506f6f6c3a206e756d626572206f6620706f6f6c20746f6b656e73206d75737460008301527f2062652067726561746572207468616e203000000000000000000000000000006020830152604082019050919050565b60006139b26016836143ae565b91507f506f6f6c3a20696e76616c6964207665726966696572000000000000000000006000830152602082019050919050565b60006139f2601a836143ae565b91507f506f6f6c3a20696e76616c69642027746f2720616464726573730000000000006000830152602082019050919050565b6000613a32600f836143ae565b91507f496e76616c6964206164647265737300000000000000000000000000000000006000830152602082019050919050565b6000613a726014836143ae565b91507f496e76616c6964207573657220616464726573730000000000000000000000006000830152602082019050919050565b6000613ab2601f836143ae565b91507f506f6f6c3a206661696c656420746f20776974686472617720746f6b656e73006000830152602082019050919050565b6000613af26023836143ae565b91507f506f6f6c3a207472616e73616374696f6e206661696c656420746f206578656360008301527f75746500000000000000000000000000000000000000000000000000000000006020830152604082019050919050565b6000613b586023836143ae565b91507f506f6f6c3a20696e76616c69642061737365742068616e646c6572206164647260008301527f65737300000000000000000000000000000000000000000000000000000000006020830152604082019050919050565b6000613bbe6030836143ae565b91507f506f6f6c3a204f6e6c7920706f6f6c2773206d616e616765722063616e20636160008301527f6c6c20746869732066756e6374696f6e000000000000000000000000000000006020830152604082019050919050565b6000613c246028836143ae565b91507f506f6f6c3a204e6f7420656e6f75676820706f6f6c20746f6b656e7320746f2060008301527f77697468647261770000000000000000000000000000000000000000000000006020830152604082019050919050565b6000613c8a601b836143ae565b91507f506f6f6c3a20696e76616c6964206173736574206164647265737300000000006000830152602082019050919050565b6000613cca6019836143ae565b91507f506f6f6c3a20696e76616c6964207472616e73616374696f6e000000000000006000830152602082019050919050565b6000613d0a6013836143ae565b91507f506f6f6c3a20696e76616c6964206173736574000000000000000000000000006000830152602082019050919050565b6000613d4a600c836143ae565b91507f417373657448616e646c657200000000000000000000000000000000000000006000830152602082019050919050565b6000613d8a6024836143ae565b91507f506f6f6c3a204465706f736974206d757374206265206772656174657220746860008301527f616e2030000000000000000000000000000000000000000000000000000000006020830152604082019050919050565b613dec816143fd565b82525050565b613dfb816143fd565b82525050565b6000613e0d82846138c6565b915081905092915050565b6000602082019050613e2d60008301846137b3565b92915050565b6000606082019050613e486000830186613795565b613e5560208301856137b3565b613e626040830184613df2565b949350505050565b6000604082019050613e7f6000830185613795565b613e8c6020830184613df2565b9392505050565b6000604082019050613ea860008301856137b3565b613eb560208301846137b3565b9392505050565b6000608082019050613ed160008301876137b3565b613ede60208301866137b3565b613eeb60408301856137b3565b8181036060830152613efd818461388d565b905095945050505050565b6000606082019050613f1d60008301866137b3565b613f2a60208301856137b3565b613f376040830184613df2565b949350505050565b6000606082019050613f5460008301866137b3565b613f61602083018561387e565b613f6e6040830184613df2565b949350505050565b60006060820190508181036000830152613f9081866137c2565b90508181036020830152613fa48185613820565b9050613fb36040830184613df2565b949350505050565b6000602082019050613fd060008301846138f7565b92915050565b60006020820190508181036000830152613ff08184613906565b905092915050565b600060208201905081810360008301526140118161393f565b9050919050565b60006020820190508181036000830152614031816139a5565b9050919050565b60006020820190508181036000830152614051816139e5565b9050919050565b6000602082019050818103600083015261407181613a25565b9050919050565b6000602082019050818103600083015261409181613a65565b9050919050565b600060208201905081810360008301526140b181613aa5565b9050919050565b600060208201905081810360008301526140d181613ae5565b9050919050565b600060208201905081810360008301526140f181613b4b565b9050919050565b6000602082019050818103600083015261411181613bb1565b9050919050565b6000602082019050818103600083015261413181613c17565b9050919050565b6000602082019050818103600083015261415181613c7d565b9050919050565b6000602082019050818103600083015261417181613cbd565b9050919050565b6000602082019050818103600083015261419181613cfd565b9050919050565b600060208201905081810360008301526141b181613d3d565b9050919050565b600060208201905081810360008301526141d181613d7d565b9050919050565b60006020820190506141ed6000830184613df2565b92915050565b60006040820190506142086000830185613df2565b6142156020830184613df2565b9392505050565b600060a0820190506142316000830188613df2565b61423e6020830187613df2565b818103604083015261425081866137c2565b905081810360608301526142648185613820565b90506142736080830184613df2565b9695505050505050565b6000604051905081810181811067ffffffffffffffff821117156142a4576142a36144a3565b5b8060405250919050565b600067ffffffffffffffff8211156142c9576142c86144a3565b5b602082029050602081019050919050565b600067ffffffffffffffff8211156142f5576142f46144a3565b5b601f19601f8301169050602081019050919050565b6000819050602082019050919050565b6000819050602082019050919050565b600081519050919050565b600081519050919050565b600081519050919050565b600081519050919050565b6000602082019050919050565b6000602082019050919050565b600082825260208201905092915050565b600082825260208201905092915050565b600082825260208201905092915050565b600081905092915050565b600082825260208201905092915050565b60006143ca826143dd565b9050919050565b60008115159050919050565b600073ffffffffffffffffffffffffffffffffffffffff82169050919050565b6000819050919050565b60006144128261443d565b9050919050565b60006144248261442b565b9050919050565b6000614436826143dd565b9050919050565b60006144488261444f565b9050919050565b600061445a826143dd565b9050919050565b82818337600083830152505050565b60005b8381101561448e578082015181840152602081019050614473565b8381111561449d576000848401525b50505050565bfe5b6000601f19601f8301169050919050565b6144bf816143bf565b81146144ca57600080fd5b50565b6144d6816143d1565b81146144e157600080fd5b50565b6144ed816143fd565b81146144f857600080fd5b5056fea26469706673582212202750a76f0a6f3a247efb84a7d95e606f8d793be002b7bcd6c271f2d89a155aa264736f6c6343000706003343616e6e6f7420657863656564206d6178696d756d20706572666f726d616e63652066656543616e6e6f7420657863656564206d6178696d756d206e756d626572206f6620706f6f6c73207065722075736572506f6f6c206e616d65206d7573742068617665206c657373207468616e2033302063686172616374657273a2646970667358221220208c2606d869836ece3b8ddc0e347ac3ef7eb89323829c6ab8fde40f28d9ed9e64736f6c63430007060033",
  "immutableReferences": {
    "6562": [
      {
        "length": 32,
        "start": 1161
      },
      {
        "length": 32,
        "start": 2123
      },
      {
        "length": 32,
        "start": 2667
      },
      {
        "length": 32,
        "start": 3487
      }
    ]
  },
  "source": "// SPDX-License-Identifier: MIT\r\n\r\npragma solidity >=0.7.6;\r\n\r\n//Interfaces\r\nimport './interfaces/ISettings.sol';\r\nimport './interfaces/IAddressResolver.sol';\r\n\r\n//Libraries\r\nimport './libraries/SafeMath.sol';\r\n\r\n//Inheritance\r\nimport './Ownable.sol';\r\n\r\n//Internal references\r\nimport './Pool.sol';\r\n\r\ncontract PoolFactory is Ownable {\r\n    using SafeMath for uint;\r\n\r\n    IAddressResolver public immutable ADDRESS_RESOLVER;\r\n\r\n    address[] public pools;\r\n    mapping (address => uint[]) public userToManagedPools;\r\n    mapping (address => uint) public addressToIndex; // maps to (index + 1); index 0 represents pool not found\r\n\r\n    constructor(IAddressResolver addressResolver) Ownable() {\r\n        ADDRESS_RESOLVER = addressResolver;\r\n    }\r\n\r\n    /* ========== VIEWS ========== */\r\n\r\n    /**\r\n    * @dev Returns the address of each pool the user manages\r\n    * @param user Address of the user\r\n    * @return address[] The address of each pool the user manages\r\n    */\r\n    function getUserManagedPools(address user) public view returns(address[] memory) {\r\n        require(user != address(0), \"Invalid address\");\r\n\r\n        address[] memory addresses = new address[](userToManagedPools[user].length);\r\n        uint[] memory indexes = userToManagedPools[user];\r\n\r\n        for (uint i = 0; i < addresses.length; i++)\r\n        {\r\n            uint index = indexes[i];\r\n            addresses[i] = pools[index];\r\n        }\r\n\r\n        return addresses;\r\n    }\r\n\r\n    /**\r\n    * @dev Returns the address of each available pool\r\n    * @return address[] The address of each available pool\r\n    */\r\n    function getAvailablePools() public view returns(address[] memory) {\r\n        return pools;\r\n    }\r\n\r\n    /* ========== MUTATIVE FUNCTIONS ========== */\r\n\r\n    /**\r\n    * @dev Creates a new pool\r\n    * @param poolName Name of the pool\r\n    * @param performanceFee Performance fee for the pool\r\n    */\r\n    function createPool(string memory poolName, uint performanceFee) external {\r\n        address settingsAddress = ADDRESS_RESOLVER.getContractAddress(\"Settings\");\r\n        uint maximumPerformanceFee = ISettings(settingsAddress).getParameterValue(\"MaximumPerformanceFee\");\r\n        uint maximumNumberOfPoolsPerUser = ISettings(settingsAddress).getParameterValue(\"MaximumNumberOfPoolsPerUser\");\r\n\r\n        require(bytes(poolName).length < 30, \"Pool name must have less than 30 characters\");\r\n        require(performanceFee <= maximumPerformanceFee, \"Cannot exceed maximum performance fee\");\r\n        require(userToManagedPools[msg.sender].length < maximumNumberOfPoolsPerUser, \"Cannot exceed maximum number of pools per user\");\r\n\r\n        //Create pool\r\n        Pool temp = new Pool(poolName, performanceFee, msg.sender, ADDRESS_RESOLVER);\r\n\r\n        //Update state variables\r\n        address poolAddress = address(temp);\r\n        pools.push(poolAddress);\r\n        userToManagedPools[msg.sender].push(pools.length - 1);\r\n        addressToIndex[poolAddress] = pools.length;\r\n        ADDRESS_RESOLVER.addPoolAddress(poolAddress);\r\n\r\n        emit CreatedPool(msg.sender, poolAddress, pools.length - 1, block.timestamp);\r\n    }\r\n\r\n    /* ========== MODIFIERS ========== */\r\n\r\n    modifier isValidPoolAddress(address poolAddress) {\r\n        require(poolAddress != address(0), \"PoolFactory: Invalid pool address\");\r\n        require(addressToIndex[poolAddress] > 0, \"PoolFactory: Pool not found\");\r\n        _;\r\n    }\r\n\r\n    /* ========== EVENTS ========== */\r\n\r\n    event CreatedPool(address indexed managerAddress, address indexed poolAddress, uint poolIndex, uint timestamp);\r\n}",
  "sourcePath": "C:/Users/xavie/OneDrive/Desktop/TradeGen/Github/tradegen-protocol/contracts/PoolFactory.sol",
  "compiler": {
    "name": "solc",
    "version": "0.7.6+commit.7338295f.Emscripten.clang"
  },
  "schemaVersion": "3.4.1",
  "updatedAt": "2021-09-26T18:16:47.600Z",
  "devdoc": {
    "kind": "dev",
    "methods": {
      "createPool(string,uint256)": {
        "details": "Creates a new pool",
        "params": {
          "performanceFee": "Performance fee for the pool",
          "poolName": "Name of the pool"
        }
      },
      "getAvailablePools()": {
        "details": "Returns the address of each available pool",
        "returns": {
          "_0": "address[] The address of each available pool"
        }
      },
      "getUserManagedPools(address)": {
        "details": "Returns the address of each pool the user manages",
        "params": {
          "user": "Address of the user"
        },
        "returns": {
          "_0": "address[] The address of each pool the user manages"
        }
      },
      "isOwner()": {
        "returns": {
          "_0": "true if `msg.sender` is the owner of the contract."
        }
      },
      "owner()": {
        "returns": {
          "_0": "the address of the owner."
        }
      },
      "renounceOwnership()": {
        "details": "Allows the current owner to relinquish control of the contract."
      },
      "transferOwnership(address)": {
        "details": "Allows the current owner to transfer control of the contract to a newOwner.",
        "params": {
          "newOwner": "The address to transfer ownership to."
        }
      }
    },
    "version": 1
  },
  "userdoc": {
    "kind": "user",
    "methods": {
      "renounceOwnership()": {
        "notice": "Renouncing to ownership will leave the contract without an owner. It will not be possible to call the functions with the `onlyOwner` modifier anymore."
      }
    },
    "version": 1
  }
}