{
  "contractName": "PoolManager",
  "abi": [
    {
      "inputs": [
        {
          "internalType": "contract IAddressResolver",
          "name": "addressResolver",
          "type": "address"
        }
      ],
      "stateMutability": "nonpayable",
      "type": "constructor"
    },
    {
      "anonymous": false,
      "inputs": [
        {
          "indexed": true,
          "internalType": "address",
          "name": "managerAddress",
          "type": "address"
        },
        {
          "indexed": true,
          "internalType": "address",
          "name": "poolAddress",
          "type": "address"
        },
        {
          "indexed": false,
          "internalType": "uint256",
          "name": "poolIndex",
          "type": "uint256"
        },
        {
          "indexed": false,
          "internalType": "uint256",
          "name": "timestamp",
          "type": "uint256"
        }
      ],
      "name": "CreatedPool",
      "type": "event"
    },
    {
      "inputs": [],
      "name": "ADDRESS_RESOLVER",
      "outputs": [
        {
          "internalType": "contract IAddressResolver",
          "name": "",
          "type": "address"
        }
      ],
      "stateMutability": "view",
      "type": "function"
    },
    {
      "inputs": [
        {
          "internalType": "address",
          "name": "",
          "type": "address"
        }
      ],
      "name": "addressToIndex",
      "outputs": [
        {
          "internalType": "uint256",
          "name": "",
          "type": "uint256"
        }
      ],
      "stateMutability": "view",
      "type": "function"
    },
    {
      "inputs": [
        {
          "internalType": "uint256",
          "name": "",
          "type": "uint256"
        }
      ],
      "name": "pools",
      "outputs": [
        {
          "internalType": "address",
          "name": "",
          "type": "address"
        }
      ],
      "stateMutability": "view",
      "type": "function"
    },
    {
      "inputs": [
        {
          "internalType": "address",
          "name": "",
          "type": "address"
        },
        {
          "internalType": "uint256",
          "name": "",
          "type": "uint256"
        }
      ],
      "name": "userToInvestedPools",
      "outputs": [
        {
          "internalType": "uint256",
          "name": "",
          "type": "uint256"
        }
      ],
      "stateMutability": "view",
      "type": "function"
    },
    {
      "inputs": [
        {
          "internalType": "address",
          "name": "",
          "type": "address"
        },
        {
          "internalType": "uint256",
          "name": "",
          "type": "uint256"
        }
      ],
      "name": "userToManagedPools",
      "outputs": [
        {
          "internalType": "uint256",
          "name": "",
          "type": "uint256"
        }
      ],
      "stateMutability": "view",
      "type": "function"
    }
  ],
  "bytecode": "0x60a060405234801561001057600080fd5b506040516103a73803806103a78339818101604052602081101561003357600080fd5b81019080805190602001909291905050508073ffffffffffffffffffffffffffffffffffffffff1660808173ffffffffffffffffffffffffffffffffffffffff1660601b815250505060805160601c61030e61009960003980610262525061030e6000f3fe608060405234801561001057600080fd5b50600436106100575760003560e01c806318ec3f651461005c5780637a0b32ac146100be578063981f3b8e14610120578063ac4afa3814610154578063f667e0aa146101ac575b600080fd5b6100a86004803603604081101561007257600080fd5b81019080803573ffffffffffffffffffffffffffffffffffffffff16906020019092919080359060200190929190505050610204565b6040518082815260200191505060405180910390f35b61010a600480360360408110156100d457600080fd5b81019080803573ffffffffffffffffffffffffffffffffffffffff16906020019092919080359060200190929190505050610232565b6040518082815260200191505060405180910390f35b610128610260565b604051808273ffffffffffffffffffffffffffffffffffffffff16815260200191505060405180910390f35b6101806004803603602081101561016a57600080fd5b8101908080359060200190929190505050610284565b604051808273ffffffffffffffffffffffffffffffffffffffff16815260200191505060405180910390f35b6101ee600480360360208110156101c257600080fd5b81019080803573ffffffffffffffffffffffffffffffffffffffff1690602001909291905050506102c0565b6040518082815260200191505060405180910390f35b6002602052816000526040600020818154811061021d57fe5b90600052602060002001600091509150505481565b6001602052816000526040600020818154811061024b57fe5b90600052602060002001600091509150505481565b7f000000000000000000000000000000000000000000000000000000000000000081565b6000818154811061029157fe5b906000526020600020016000915054906101000a900473ffffffffffffffffffffffffffffffffffffffff1681565b6003602052806000526040600020600091509050548156fea26469706673582212203eff2e414c1e2425f5231924e8a02e7bcb64ed0731b64773dbd4055ca027371c64736f6c634300060c0033",
  "immutableReferences": {
    "2355": [
      {
        "length": 32,
        "start": 610
      }
    ]
  },
  "source": "pragma solidity >=0.5.0;\r\n\r\n//Interfaces\r\nimport './interfaces/IAddressResolver.sol';\r\nimport './interfaces/IPool.sol';\r\nimport './interfaces/IStakingRewards.sol';\r\n\r\n//Libraries\r\nimport './libraries/SafeMath.sol';\r\n\r\n//Internal references\r\nimport './Pool.sol';\r\n\r\ncontract PoolManager {\r\n    using SafeMath for uint;\r\n\r\n    IAddressResolver public immutable ADDRESS_RESOLVER;\r\n\r\n    address[] public pools;\r\n    mapping (address => uint[]) public userToManagedPools;\r\n    mapping (address => uint[]) public userToInvestedPools;\r\n    mapping (address => uint) public addressToIndex; // maps to (index + 1); index 0 represents pool not found\r\n\r\n    constructor(IAddressResolver addressResolver) public {\r\n        ADDRESS_RESOLVER = addressResolver;\r\n    }\r\n\r\n    /* ========== VIEWS ========== */\r\n\r\n    /**\r\n    * @dev Returns the address of each available pool\r\n    * @return address[] The address of each available pool\r\n    */\r\n    function _getAvailablePools() internal view returns(address[] memory) {\r\n        return pools;\r\n    }\r\n\r\n    /**\r\n    * @dev Returns the index of each pool the user manages\r\n    * @param user Address of the user\r\n    * @return uint[] The index in pools array of each pool the user manages\r\n    */\r\n    function _getUserManagedPools(address user) internal view returns(uint[] memory) {\r\n        require(user != address(0), \"Invalid address\");\r\n\r\n        return userToManagedPools[user];\r\n    }\r\n\r\n    /**\r\n    * @dev Returns the index of each pool the user is invested in\r\n    * @param user Address of the user\r\n    * @return uint[] The index in pools array of each pool the user is invested in\r\n    */\r\n    function _getUserInvestedPools(address user) internal view returns(uint[] memory) {\r\n        require(user != address(0), \"Invalid address\");\r\n\r\n        return userToInvestedPools[user];\r\n    }\r\n\r\n    /**\r\n    * @dev Returns the index of each pool the user is staked in\r\n    * @param user Address of the user\r\n    * @return uint[] The index in pools array of each pool the user is staked in\r\n    * @return uint Number of pools the user is staked in\r\n    */\r\n    function _getUserStakedPools(address user) internal view returns(uint[] memory, uint) {\r\n        require(user != address(0), \"Invalid address\");\r\n\r\n        uint numberOfStakedPools = 0;\r\n        uint[] memory stakedPoolIndexes = new uint[](userToInvestedPools[user].length);\r\n\r\n        for (uint i = 0; i < stakedPoolIndexes.length; i++)\r\n        {\r\n            uint index = userToInvestedPools[user][i] - 1;\r\n            address poolAddress = pools[index];\r\n            address farmAddress = IPool(poolAddress).getFarmAddress();\r\n            uint stakedBalance = (farmAddress != address(0)) ? IStakingRewards(farmAddress).balanceOf(user) : 0;\r\n\r\n            if (stakedBalance > 0)\r\n            {\r\n                stakedPoolIndexes[numberOfStakedPools] = i;\r\n                numberOfStakedPools++;\r\n            }\r\n        }\r\n\r\n        return (stakedPoolIndexes, numberOfStakedPools);\r\n    }\r\n\r\n    /* ========== MUTATIVE FUNCTIONS ========== */\r\n\r\n    /**\r\n    * @dev Adds the index of the given pool to the user's array of invested pools\r\n    * @param user Address of the user\r\n    * @param poolAddress Address of the pool\r\n    */\r\n    function _addPosition(address user, address poolAddress) internal isValidPoolAddress(poolAddress) {\r\n        userToInvestedPools[user].push(addressToIndex[poolAddress] - 1);\r\n    }\r\n\r\n    /**\r\n    * @dev Removes the index of the given pool from the user's array of invested pools\r\n    * @param user Address of the user\r\n    * @param poolAddress Address of the pool\r\n    */\r\n    function _removePosition(address user, address poolAddress) internal isValidPoolAddress(poolAddress) {\r\n        uint positionIndex;\r\n        uint poolIndex = addressToIndex[poolAddress];\r\n\r\n        //bounded by number of strategies\r\n        for (positionIndex = 0; positionIndex < userToInvestedPools[user].length; positionIndex++)\r\n        {\r\n            if (positionIndex == poolIndex)\r\n            {\r\n                break;\r\n            }\r\n        }\r\n\r\n        require (positionIndex < userToInvestedPools[user].length, \"Position not found\");\r\n\r\n        userToInvestedPools[user][positionIndex] = userToInvestedPools[user][userToInvestedPools[user].length - 1];\r\n        delete userToInvestedPools[user][userToInvestedPools[user].length - 1];\r\n    }\r\n\r\n    /**\r\n    * @dev Creates a new pool\r\n    * @param poolName Name of the pool\r\n    * @param performanceFee Performance fee of the pool\r\n    * @param manager User who manages the pool\r\n    */\r\n    function _createPool(string memory poolName, uint performanceFee, address manager) internal returns(address) {\r\n        Pool temp = new Pool(poolName, performanceFee, manager, ADDRESS_RESOLVER);\r\n\r\n        address poolAddress = address(temp);\r\n        pools.push(poolAddress);\r\n        userToManagedPools[manager].push(pools.length);\r\n        addressToIndex[poolAddress] = pools.length;\r\n\r\n        emit CreatedPool(manager, poolAddress, pools.length - 1, block.timestamp);\r\n\r\n        return poolAddress;\r\n    }\r\n\r\n    /**\r\n    * @dev Deposit cUSD into the given pool\r\n    * @param user Address of the user\r\n    * @param poolAddress Address of the pool\r\n    * @param amount Amount of cUSD to deposit into the pool\r\n    */\r\n    function _deposit(address user, address poolAddress, uint amount) internal isValidPoolAddress(poolAddress) {\r\n        if (IPool(poolAddress).balanceOf(user) == 0)\r\n        {\r\n            uint index = addressToIndex[poolAddress] - 1;\r\n            userToInvestedPools[user].push(index);\r\n        }\r\n\r\n        address settingsAddress = ADDRESS_RESOLVER.getContractAddress(\"Settings\");\r\n        address stableCoinAddress = ISettings(settingsAddress).getStableCoinAddress();\r\n        IERC20(stableCoinAddress).transferFrom(msg.sender, address(this), amount);\r\n\r\n        IPool(poolAddress).deposit(user, amount);\r\n    }\r\n\r\n    /**\r\n    * @dev Withdraw cUSD from the given pool\r\n    * @param user Address of the user\r\n    * @param poolAddress Address of the pool\r\n    * @param amount Amount of cUSD to withdraw from the pool\r\n    */\r\n    function _withdraw(address user, address poolAddress, uint amount) internal isValidPoolAddress(poolAddress) {\r\n        IPool(poolAddress).withdraw(user, amount);\r\n\r\n        if (IPool(poolAddress).balanceOf(user) == 0)\r\n        {\r\n            _removePosition(user, poolAddress);\r\n        }\r\n    }\r\n\r\n    /**\r\n    * @dev Places an order to buy/sell the given currency on behalf of the pool\r\n    * @param poolAddress Address of the pool\r\n    * @param currencyKey Address of currency to trade\r\n    * @param buyOrSell Whether the user is buying or selling\r\n    * @param numberOfTokens Number of tokens of the given currency\r\n    */\r\n    function _placeOrder(address poolAddress, address currencyKey, bool buyOrSell, uint numberOfTokens) internal isValidPoolAddress(poolAddress) onlyManager(poolAddress) {\r\n        IPool(poolAddress).placeOrder(currencyKey, buyOrSell, numberOfTokens);\r\n    }\r\n\r\n    /* ========== MODIFIERS ========== */\r\n\r\n    modifier isValidPoolAddress(address poolAddress) {\r\n        require(ADDRESS_RESOLVER.checkIfPoolAddressIsValid(poolAddress), \"Invalid pool address\");\r\n        _;\r\n    }\r\n\r\n    modifier onlyManager(address poolAddress) {\r\n        address managerAddress = IPool(poolAddress).getManagerAddress();\r\n\r\n        require(msg.sender == managerAddress, \"Only the pool's manager can call this function\");\r\n        _;\r\n    }\r\n\r\n    /* ========== EVENTS ========== */\r\n\r\n    event CreatedPool(address indexed managerAddress, address indexed poolAddress, uint poolIndex, uint timestamp);\r\n}",
  "sourcePath": "C:\\Users\\xavie\\OneDrive\\Desktop\\TradeGen\\Github\\tradegen\\contracts\\PoolManager.sol",
  "compiler": {
    "name": "solc",
    "version": "0.6.12+commit.27d51765.Emscripten.clang"
  },
  "schemaVersion": "3.4.1",
  "updatedAt": "2021-07-15T18:31:19.082Z",
  "devdoc": {
    "kind": "dev",
    "methods": {},
    "version": 1
  },
  "userdoc": {
    "kind": "user",
    "methods": {},
    "version": 1
  }
}