{
  "contractName": "Pool",
  "abi": [
    {
      "inputs": [
        {
          "internalType": "string",
          "name": "name",
          "type": "string"
        },
        {
          "internalType": "uint256",
          "name": "performanceFee",
          "type": "uint256"
        },
        {
          "internalType": "address",
          "name": "manager",
          "type": "address"
        },
        {
          "internalType": "contract IAddressResolver",
          "name": "addressResolver",
          "type": "address"
        }
      ],
      "stateMutability": "nonpayable",
      "type": "constructor"
    },
    {
      "anonymous": false,
      "inputs": [
        {
          "indexed": true,
          "internalType": "address",
          "name": "poolAddress",
          "type": "address"
        },
        {
          "indexed": false,
          "internalType": "address",
          "name": "tokenA",
          "type": "address"
        },
        {
          "indexed": false,
          "internalType": "address",
          "name": "tokenB",
          "type": "address"
        },
        {
          "indexed": false,
          "internalType": "uint256",
          "name": "amountA",
          "type": "uint256"
        },
        {
          "indexed": false,
          "internalType": "uint256",
          "name": "amountB",
          "type": "uint256"
        },
        {
          "indexed": false,
          "internalType": "uint256",
          "name": "numberOfLPTokensReceived",
          "type": "uint256"
        },
        {
          "indexed": false,
          "internalType": "uint256",
          "name": "timestamp",
          "type": "uint256"
        }
      ],
      "name": "AddedLiquidity",
      "type": "event"
    },
    {
      "anonymous": false,
      "inputs": [
        {
          "indexed": true,
          "internalType": "address",
          "name": "owner",
          "type": "address"
        },
        {
          "indexed": true,
          "internalType": "address",
          "name": "spender",
          "type": "address"
        },
        {
          "indexed": false,
          "internalType": "uint256",
          "name": "value",
          "type": "uint256"
        }
      ],
      "name": "Approval",
      "type": "event"
    },
    {
      "anonymous": false,
      "inputs": [
        {
          "indexed": true,
          "internalType": "address",
          "name": "poolAddress",
          "type": "address"
        },
        {
          "indexed": false,
          "internalType": "address",
          "name": "farmAddress",
          "type": "address"
        },
        {
          "indexed": false,
          "internalType": "uint256",
          "name": "timestamp",
          "type": "uint256"
        }
      ],
      "name": "ClaimedUbeswapRewards",
      "type": "event"
    },
    {
      "anonymous": false,
      "inputs": [
        {
          "indexed": true,
          "internalType": "address",
          "name": "poolAddress",
          "type": "address"
        },
        {
          "indexed": true,
          "internalType": "address",
          "name": "userAddress",
          "type": "address"
        },
        {
          "indexed": false,
          "internalType": "uint256",
          "name": "amount",
          "type": "uint256"
        },
        {
          "indexed": false,
          "internalType": "uint256",
          "name": "timestamp",
          "type": "uint256"
        }
      ],
      "name": "Deposit",
      "type": "event"
    },
    {
      "anonymous": false,
      "inputs": [
        {
          "indexed": true,
          "internalType": "address",
          "name": "poolAddress",
          "type": "address"
        },
        {
          "indexed": true,
          "internalType": "address",
          "name": "currencyKey",
          "type": "address"
        },
        {
          "indexed": false,
          "internalType": "bool",
          "name": "buyOrSell",
          "type": "bool"
        },
        {
          "indexed": false,
          "internalType": "uint256",
          "name": "amount",
          "type": "uint256"
        },
        {
          "indexed": false,
          "internalType": "uint256",
          "name": "timestamp",
          "type": "uint256"
        }
      ],
      "name": "PlacedOrder",
      "type": "event"
    },
    {
      "anonymous": false,
      "inputs": [
        {
          "indexed": true,
          "internalType": "address",
          "name": "poolAddress",
          "type": "address"
        },
        {
          "indexed": false,
          "internalType": "address",
          "name": "tokenA",
          "type": "address"
        },
        {
          "indexed": false,
          "internalType": "address",
          "name": "tokenB",
          "type": "address"
        },
        {
          "indexed": false,
          "internalType": "uint256",
          "name": "numberOfLPTokens",
          "type": "uint256"
        },
        {
          "indexed": false,
          "internalType": "uint256",
          "name": "amountAReceived",
          "type": "uint256"
        },
        {
          "indexed": false,
          "internalType": "uint256",
          "name": "amountBReceived",
          "type": "uint256"
        },
        {
          "indexed": false,
          "internalType": "uint256",
          "name": "timestamp",
          "type": "uint256"
        }
      ],
      "name": "RemovedLiquidity",
      "type": "event"
    },
    {
      "anonymous": false,
      "inputs": [
        {
          "indexed": true,
          "internalType": "address",
          "name": "from",
          "type": "address"
        },
        {
          "indexed": true,
          "internalType": "address",
          "name": "to",
          "type": "address"
        },
        {
          "indexed": false,
          "internalType": "uint256",
          "name": "value",
          "type": "uint256"
        }
      ],
      "name": "Transfer",
      "type": "event"
    },
    {
      "anonymous": false,
      "inputs": [
        {
          "indexed": true,
          "internalType": "address",
          "name": "poolAddress",
          "type": "address"
        },
        {
          "indexed": true,
          "internalType": "address",
          "name": "userAddress",
          "type": "address"
        },
        {
          "indexed": false,
          "internalType": "uint256",
          "name": "amount",
          "type": "uint256"
        },
        {
          "indexed": false,
          "internalType": "uint256",
          "name": "timestamp",
          "type": "uint256"
        }
      ],
      "name": "Withdraw",
      "type": "event"
    },
    {
      "inputs": [],
      "name": "ADDRESS_RESOLVER",
      "outputs": [
        {
          "internalType": "contract IAddressResolver",
          "name": "",
          "type": "address"
        }
      ],
      "stateMutability": "view",
      "type": "function"
    },
    {
      "inputs": [
        {
          "internalType": "address",
          "name": "",
          "type": "address"
        }
      ],
      "name": "_balanceOf",
      "outputs": [
        {
          "internalType": "uint256",
          "name": "",
          "type": "uint256"
        }
      ],
      "stateMutability": "view",
      "type": "function"
    },
    {
      "inputs": [
        {
          "internalType": "address",
          "name": "",
          "type": "address"
        }
      ],
      "name": "_deposits",
      "outputs": [
        {
          "internalType": "uint256",
          "name": "",
          "type": "uint256"
        }
      ],
      "stateMutability": "view",
      "type": "function"
    },
    {
      "inputs": [],
      "name": "_farmAddress",
      "outputs": [
        {
          "internalType": "address",
          "name": "",
          "type": "address"
        }
      ],
      "stateMutability": "view",
      "type": "function"
    },
    {
      "inputs": [],
      "name": "_manager",
      "outputs": [
        {
          "internalType": "address",
          "name": "",
          "type": "address"
        }
      ],
      "stateMutability": "view",
      "type": "function"
    },
    {
      "inputs": [],
      "name": "_name",
      "outputs": [
        {
          "internalType": "string",
          "name": "",
          "type": "string"
        }
      ],
      "stateMutability": "view",
      "type": "function"
    },
    {
      "inputs": [],
      "name": "_performanceFee",
      "outputs": [
        {
          "internalType": "uint256",
          "name": "",
          "type": "uint256"
        }
      ],
      "stateMutability": "view",
      "type": "function"
    },
    {
      "inputs": [
        {
          "internalType": "uint256",
          "name": "",
          "type": "uint256"
        }
      ],
      "name": "_positionKeys",
      "outputs": [
        {
          "internalType": "address",
          "name": "",
          "type": "address"
        }
      ],
      "stateMutability": "view",
      "type": "function"
    },
    {
      "inputs": [],
      "name": "_totalDeposits",
      "outputs": [
        {
          "internalType": "uint256",
          "name": "",
          "type": "uint256"
        }
      ],
      "stateMutability": "view",
      "type": "function"
    },
    {
      "inputs": [],
      "name": "_totalSupply",
      "outputs": [
        {
          "internalType": "uint256",
          "name": "",
          "type": "uint256"
        }
      ],
      "stateMutability": "view",
      "type": "function"
    },
    {
      "inputs": [
        {
          "internalType": "address",
          "name": "",
          "type": "address"
        },
        {
          "internalType": "address",
          "name": "",
          "type": "address"
        }
      ],
      "name": "allowance",
      "outputs": [
        {
          "internalType": "uint256",
          "name": "",
          "type": "uint256"
        }
      ],
      "stateMutability": "view",
      "type": "function"
    },
    {
      "inputs": [
        {
          "internalType": "address",
          "name": "",
          "type": "address"
        },
        {
          "internalType": "address",
          "name": "",
          "type": "address"
        }
      ],
      "name": "liquidityPairToIndex",
      "outputs": [
        {
          "internalType": "uint256",
          "name": "",
          "type": "uint256"
        }
      ],
      "stateMutability": "view",
      "type": "function"
    },
    {
      "inputs": [
        {
          "internalType": "uint256",
          "name": "",
          "type": "uint256"
        }
      ],
      "name": "liquidityPositions",
      "outputs": [
        {
          "internalType": "address",
          "name": "tokenA",
          "type": "address"
        },
        {
          "internalType": "address",
          "name": "tokenB",
          "type": "address"
        },
        {
          "internalType": "uint256",
          "name": "numberOfLPTokens",
          "type": "uint256"
        }
      ],
      "stateMutability": "view",
      "type": "function"
    },
    {
      "inputs": [],
      "name": "numberOfLiquidityPositions",
      "outputs": [
        {
          "internalType": "uint256",
          "name": "",
          "type": "uint256"
        }
      ],
      "stateMutability": "view",
      "type": "function"
    },
    {
      "inputs": [],
      "name": "numberOfPositions",
      "outputs": [
        {
          "internalType": "uint256",
          "name": "",
          "type": "uint256"
        }
      ],
      "stateMutability": "view",
      "type": "function"
    },
    {
      "inputs": [
        {
          "internalType": "address",
          "name": "",
          "type": "address"
        }
      ],
      "name": "positionToIndex",
      "outputs": [
        {
          "internalType": "uint256",
          "name": "",
          "type": "uint256"
        }
      ],
      "stateMutability": "view",
      "type": "function"
    },
    {
      "inputs": [],
      "name": "name",
      "outputs": [
        {
          "internalType": "string",
          "name": "",
          "type": "string"
        }
      ],
      "stateMutability": "view",
      "type": "function"
    },
    {
      "inputs": [],
      "name": "symbol",
      "outputs": [
        {
          "internalType": "string",
          "name": "",
          "type": "string"
        }
      ],
      "stateMutability": "view",
      "type": "function"
    },
    {
      "inputs": [],
      "name": "decimals",
      "outputs": [
        {
          "internalType": "uint8",
          "name": "",
          "type": "uint8"
        }
      ],
      "stateMutability": "view",
      "type": "function"
    },
    {
      "inputs": [],
      "name": "getFarmAddress",
      "outputs": [
        {
          "internalType": "address",
          "name": "",
          "type": "address"
        }
      ],
      "stateMutability": "view",
      "type": "function"
    },
    {
      "inputs": [],
      "name": "getManagerAddress",
      "outputs": [
        {
          "internalType": "address",
          "name": "",
          "type": "address"
        }
      ],
      "stateMutability": "view",
      "type": "function"
    },
    {
      "inputs": [],
      "name": "getPositionsAndTotal",
      "outputs": [
        {
          "internalType": "address[]",
          "name": "",
          "type": "address[]"
        },
        {
          "internalType": "uint256[]",
          "name": "",
          "type": "uint256[]"
        },
        {
          "internalType": "uint256",
          "name": "",
          "type": "uint256"
        }
      ],
      "stateMutability": "view",
      "type": "function"
    },
    {
      "inputs": [],
      "name": "getAvailableFunds",
      "outputs": [
        {
          "internalType": "uint256",
          "name": "",
          "type": "uint256"
        }
      ],
      "stateMutability": "view",
      "type": "function"
    },
    {
      "inputs": [],
      "name": "getPoolBalance",
      "outputs": [
        {
          "internalType": "uint256",
          "name": "",
          "type": "uint256"
        }
      ],
      "stateMutability": "view",
      "type": "function"
    },
    {
      "inputs": [
        {
          "internalType": "address",
          "name": "user",
          "type": "address"
        }
      ],
      "name": "getUSDBalance",
      "outputs": [
        {
          "internalType": "uint256",
          "name": "",
          "type": "uint256"
        }
      ],
      "stateMutability": "view",
      "type": "function"
    },
    {
      "inputs": [
        {
          "internalType": "address",
          "name": "user",
          "type": "address"
        }
      ],
      "name": "balanceOf",
      "outputs": [
        {
          "internalType": "uint256",
          "name": "",
          "type": "uint256"
        }
      ],
      "stateMutability": "view",
      "type": "function"
    },
    {
      "inputs": [],
      "name": "totalSupply",
      "outputs": [
        {
          "internalType": "uint256",
          "name": "",
          "type": "uint256"
        }
      ],
      "stateMutability": "view",
      "type": "function"
    },
    {
      "inputs": [],
      "name": "getPerformanceFee",
      "outputs": [
        {
          "internalType": "uint256",
          "name": "",
          "type": "uint256"
        }
      ],
      "stateMutability": "view",
      "type": "function"
    },
    {
      "inputs": [
        {
          "internalType": "address",
          "name": "spender",
          "type": "address"
        },
        {
          "internalType": "uint256",
          "name": "value",
          "type": "uint256"
        }
      ],
      "name": "approve",
      "outputs": [
        {
          "internalType": "bool",
          "name": "",
          "type": "bool"
        }
      ],
      "stateMutability": "nonpayable",
      "type": "function"
    },
    {
      "inputs": [
        {
          "internalType": "address",
          "name": "to",
          "type": "address"
        },
        {
          "internalType": "uint256",
          "name": "value",
          "type": "uint256"
        }
      ],
      "name": "transfer",
      "outputs": [
        {
          "internalType": "bool",
          "name": "",
          "type": "bool"
        }
      ],
      "stateMutability": "nonpayable",
      "type": "function"
    },
    {
      "inputs": [
        {
          "internalType": "address",
          "name": "from",
          "type": "address"
        },
        {
          "internalType": "address",
          "name": "to",
          "type": "address"
        },
        {
          "internalType": "uint256",
          "name": "value",
          "type": "uint256"
        }
      ],
      "name": "transferFrom",
      "outputs": [
        {
          "internalType": "bool",
          "name": "",
          "type": "bool"
        }
      ],
      "stateMutability": "nonpayable",
      "type": "function"
    },
    {
      "inputs": [
        {
          "internalType": "uint256",
          "name": "amount",
          "type": "uint256"
        }
      ],
      "name": "deposit",
      "outputs": [],
      "stateMutability": "nonpayable",
      "type": "function"
    },
    {
      "inputs": [
        {
          "internalType": "uint256",
          "name": "amount",
          "type": "uint256"
        }
      ],
      "name": "withdraw",
      "outputs": [],
      "stateMutability": "nonpayable",
      "type": "function"
    },
    {
      "inputs": [
        {
          "internalType": "address",
          "name": "currencyKey",
          "type": "address"
        },
        {
          "internalType": "bool",
          "name": "buyOrSell",
          "type": "bool"
        },
        {
          "internalType": "uint256",
          "name": "numberOfTokens",
          "type": "uint256"
        }
      ],
      "name": "placeOrder",
      "outputs": [],
      "stateMutability": "nonpayable",
      "type": "function"
    },
    {
      "inputs": [
        {
          "internalType": "address",
          "name": "tokenA",
          "type": "address"
        },
        {
          "internalType": "address",
          "name": "tokenB",
          "type": "address"
        },
        {
          "internalType": "uint256",
          "name": "amountA",
          "type": "uint256"
        },
        {
          "internalType": "uint256",
          "name": "amountB",
          "type": "uint256"
        },
        {
          "internalType": "address",
          "name": "farmAddress",
          "type": "address"
        }
      ],
      "name": "addLiquidity",
      "outputs": [],
      "stateMutability": "nonpayable",
      "type": "function"
    },
    {
      "inputs": [
        {
          "internalType": "address",
          "name": "tokenA",
          "type": "address"
        },
        {
          "internalType": "address",
          "name": "tokenB",
          "type": "address"
        },
        {
          "internalType": "address",
          "name": "farmAddress",
          "type": "address"
        }
      ],
      "name": "removeLiquidity",
      "outputs": [],
      "stateMutability": "nonpayable",
      "type": "function"
    },
    {
      "inputs": [
        {
          "internalType": "address",
          "name": "farmAddress",
          "type": "address"
        }
      ],
      "name": "claimUbeswapRewards",
      "outputs": [],
      "stateMutability": "nonpayable",
      "type": "function"
    },
    {
      "inputs": [
        {
          "internalType": "address",
          "name": "farmAddress",
          "type": "address"
        }
      ],
      "name": "setFarmAddress",
      "outputs": [],
      "stateMutability": "nonpayable",
      "type": "function"
    }
  ],
  "bytecode": "0x60806040523480156200001157600080fd5b506040516200791938038062007919833981810160405260808110156200003757600080fd5b81019080805160405193929190846401000000008211156200005857600080fd5b838201915060208201858111156200006f57600080fd5b82518660018202830111640100000000821117156200008d57600080fd5b8083526020830192505050908051906020019080838360005b83811015620000c3578082015181840152602081019050620000a6565b50505050905090810190601f168015620000f15780820380516001836020036101000a031916815260200191505b50604052602001805190602001909291908051906020019092919080519060200190929190505050836001908051906020019062000131929190620001c4565b5081600360006101000a81548173ffffffffffffffffffffffffffffffffffffffff021916908373ffffffffffffffffffffffffffffffffffffffff16021790555082600481905550806000806101000a81548173ffffffffffffffffffffffffffffffffffffffff021916908373ffffffffffffffffffffffffffffffffffffffff160217905550505050506200026a565b828054600181600116156101000203166002900490600052602060002090601f016020900481019282601f106200020757805160ff191683800117855562000238565b8280016001018555821562000238579182015b82811115620002375782518255916020019190600101906200021a565b5b5090506200024791906200024b565b5090565b5b80821115620002665760008160009055506001016200024c565b5090565b61769f806200027a6000396000f3fe608060405234801561001057600080fd5b50600436106102325760003560e01c806395d89b4111610130578063b6b55f25116100b8578063d97998091161007c578063d979980914610c45578063dd62ed3e14610c89578063f0329f6b14610d01578063f0f3da5e14610d35578063f296255914610d6957610232565b8063b6b55f2514610ac4578063c162d7da14610af2578063c9e6113114610b26578063cca3e83214610b6a578063d28d885214610bc257610232565b8063a9059cbb116100ff578063a9059cbb146108fa578063abd70aa21461095e578063ac08c5741461097c578063ac75886f14610a2a578063ae3eb30414610aa657610232565b806395d89b41146107cd578063981f3b8e146108505780639d2d6658146108845780639db32353146108dc57610232565b80633480c458116101be578063630675b811610182578063630675b81461068d5780636e1d9d2d1461070557806370a082311461073957806380e282931461079157806390966b21146107af57610232565b80633480c458146104dd5780633eaaf86b146105615780634b2fc7bb1461057f5780635195bd29146106175780635cb035ad1461063557610232565b8063235c360311610205578063235c36031461039457806323b872dd146103b25780632e1a7d4d146104365780632ed8e0d414610464578063313ce567146104bc57610232565b806306fdde0314610237578063095ea7b3146102ba57806318160ddd1461031e5780632322e3b91461033c575b600080fd5b61023f610dc3565b6040518080602001828103825283818151815260200191508051906020019080838360005b8381101561027f578082015181840152602081019050610264565b50505050905090810190601f1680156102ac5780820380516001836020036101000a031916815260200191505b509250505060405180910390f35b610306600480360360408110156102d057600080fd5b81019080803573ffffffffffffffffffffffffffffffffffffffff16906020019092919080359060200190929190505050610e65565b60405180821515815260200191505060405180910390f35b610326610e7c565b6040518082815260200191505060405180910390f35b61037e6004803603602081101561035257600080fd5b81019080803573ffffffffffffffffffffffffffffffffffffffff169060200190929190505050610e86565b6040518082815260200191505060405180910390f35b61039c610fa4565b6040518082815260200191505060405180910390f35b61041e600480360360608110156103c857600080fd5b81019080803573ffffffffffffffffffffffffffffffffffffffff169060200190929190803573ffffffffffffffffffffffffffffffffffffffff16906020019092919080359060200190929190505050610fae565b60405180821515815260200191505060405180910390f35b6104626004803603602081101561044c57600080fd5b810190808035906020019092919050505061115a565b005b6104906004803603602081101561047a57600080fd5b810190808035906020019092919050505061190c565b604051808273ffffffffffffffffffffffffffffffffffffffff16815260200191505060405180910390f35b6104c461193f565b604051808260ff16815260200191505060405180910390f35b61055f600480360360608110156104f357600080fd5b81019080803573ffffffffffffffffffffffffffffffffffffffff169060200190929190803573ffffffffffffffffffffffffffffffffffffffff169060200190929190803573ffffffffffffffffffffffffffffffffffffffff169060200190929190505050611948565b005b6105696128f9565b6040518082815260200191505060405180910390f35b610615600480360360a081101561059557600080fd5b81019080803573ffffffffffffffffffffffffffffffffffffffff169060200190929190803573ffffffffffffffffffffffffffffffffffffffff1690602001909291908035906020019092919080359060200190929190803573ffffffffffffffffffffffffffffffffffffffff1690602001909291905050506128ff565b005b61061f613b0d565b6040518082815260200191505060405180910390f35b6106776004803603602081101561064b57600080fd5b81019080803573ffffffffffffffffffffffffffffffffffffffff169060200190929190505050613d1d565b6040518082815260200191505060405180910390f35b6106ef600480360360408110156106a357600080fd5b81019080803573ffffffffffffffffffffffffffffffffffffffff169060200190929190803573ffffffffffffffffffffffffffffffffffffffff169060200190929190505050613d35565b6040518082815260200191505060405180910390f35b61070d613d5a565b604051808273ffffffffffffffffffffffffffffffffffffffff16815260200191505060405180910390f35b61077b6004803603602081101561074f57600080fd5b81019080803573ffffffffffffffffffffffffffffffffffffffff169060200190929190505050613d84565b6040518082815260200191505060405180910390f35b610799613e6f565b6040518082815260200191505060405180910390f35b6107b7613e75565b6040518082815260200191505060405180910390f35b6107d5613e7b565b6040518080602001828103825283818151815260200191508051906020019080838360005b838110156108155780820151818401526020810190506107fa565b50505050905090810190601f1680156108425780820380516001836020036101000a031916815260200191505b509250505060405180910390f35b610858613e92565b604051808273ffffffffffffffffffffffffffffffffffffffff16815260200191505060405180910390f35b6108c66004803603602081101561089a57600080fd5b81019080803573ffffffffffffffffffffffffffffffffffffffff169060200190929190505050613eb6565b6040518082815260200191505060405180910390f35b6108e4613ece565b6040518082815260200191505060405180910390f35b6109466004803603604081101561091057600080fd5b81019080803573ffffffffffffffffffffffffffffffffffffffff16906020019092919080359060200190929190505050613ed4565b60405180821515815260200191505060405180910390f35b610966613eeb565b6040518082815260200191505060405180910390f35b610984613f01565b604051808060200180602001848152602001838103835286818151815260200191508051906020019060200280838360005b838110156109d15780820151818401526020810190506109b6565b50505050905001838103825285818151815260200191508051906020019060200280838360005b83811015610a135780820151818401526020810190506109f8565b505050509050019550505050505060405180910390f35b610a5660048036036020811015610a4057600080fd5b8101908080359060200190929190505050614529565b604051808473ffffffffffffffffffffffffffffffffffffffff1681526020018373ffffffffffffffffffffffffffffffffffffffff168152602001828152602001935050505060405180910390f35b610aae614593565b6040518082815260200191505060405180910390f35b610af060048036036020811015610ada57600080fd5b8101908080359060200190929190505050614599565b005b610afa614b44565b604051808273ffffffffffffffffffffffffffffffffffffffff16815260200191505060405180910390f35b610b6860048036036020811015610b3c57600080fd5b81019080803573ffffffffffffffffffffffffffffffffffffffff169060200190929190505050614b6e565b005b610bac60048036036020811015610b8057600080fd5b81019080803573ffffffffffffffffffffffffffffffffffffffff169060200190929190505050615372565b6040518082815260200191505060405180910390f35b610bca61538a565b6040518080602001828103825283818151815260200191508051906020019080838360005b83811015610c0a578082015181840152602081019050610bef565b50505050905090810190601f168015610c375780820380516001836020036101000a031916815260200191505b509250505060405180910390f35b610c8760048036036020811015610c5b57600080fd5b81019080803573ffffffffffffffffffffffffffffffffffffffff169060200190929190505050615428565b005b610ceb60048036036040811015610c9f57600080fd5b81019080803573ffffffffffffffffffffffffffffffffffffffff169060200190929190803573ffffffffffffffffffffffffffffffffffffffff169060200190929190505050615676565b6040518082815260200191505060405180910390f35b610d0961569b565b604051808273ffffffffffffffffffffffffffffffffffffffff16815260200191505060405180910390f35b610d3d6156c1565b604051808273ffffffffffffffffffffffffffffffffffffffff16815260200191505060405180910390f35b610dc160048036036060811015610d7f57600080fd5b81019080803573ffffffffffffffffffffffffffffffffffffffff169060200190929190803515159060200190929190803590602001909291905050506156e7565b005b606060018054600181600116156101000203166002900480601f016020809104026020016040519081016040528092919081815260200182805460018160011615610100020316600290048015610e5b5780601f10610e3057610100808354040283529160200191610e5b565b820191906000526020600020905b815481529060010190602001808311610e3e57829003601f168201915b5050505050905090565b6000610e723384846165fa565b6001905092915050565b6000600254905090565b60008073ffffffffffffffffffffffffffffffffffffffff168273ffffffffffffffffffffffffffffffffffffffff161415610f2a576040517f08c379a000000000000000000000000000000000000000000000000000000000815260040180806020018281038252600f8152602001807f496e76616c69642061646472657373000000000000000000000000000000000081525060200191505060405180910390fd5b6000610f34613eeb565b9050610f9c600254610f8e600760008773ffffffffffffffffffffffffffffffffffffffff1673ffffffffffffffffffffffffffffffffffffffff16815260200190815260200160002054846166e590919063ffffffff16565b61671c90919063ffffffff16565b915050919050565b6000600454905090565b600080600960008673ffffffffffffffffffffffffffffffffffffffff1673ffffffffffffffffffffffffffffffffffffffff16815260200190815260200160002060003373ffffffffffffffffffffffffffffffffffffffff1673ffffffffffffffffffffffffffffffffffffffff168152602001908152602001600020541115611144576110c382600960008773ffffffffffffffffffffffffffffffffffffffff1673ffffffffffffffffffffffffffffffffffffffff16815260200190815260200160002060003373ffffffffffffffffffffffffffffffffffffffff1673ffffffffffffffffffffffffffffffffffffffff1681526020019081526020016000205461673590919063ffffffff16565b600960008673ffffffffffffffffffffffffffffffffffffffff1673ffffffffffffffffffffffffffffffffffffffff16815260200190815260200160002060003373ffffffffffffffffffffffffffffffffffffffff1673ffffffffffffffffffffffffffffffffffffffff168152602001908152602001600020819055505b61114f84848461674c565b600190509392505050565b600081116111b3576040517f08c379a00000000000000000000000000000000000000000000000000000000081526004018080602001828103825260278152602001806174f56027913960400191505060405180910390fd5b60006111bd613eeb565b90506000611227600254611219600760003373ffffffffffffffffffffffffffffffffffffffff1673ffffffffffffffffffffffffffffffffffffffff16815260200190815260200160002054856166e590919063ffffffff16565b61671c90919063ffffffff16565b905082811015611282576040517f08c379a00000000000000000000000000000000000000000000000000000000081526004018080602001828103825260228152602001806174a96022913960400191505060405180910390fd5b6000600860003373ffffffffffffffffffffffffffffffffffffffff1673ffffffffffffffffffffffffffffffffffffffff1681526020019081526020016000205482116112d1576000611324565b611323600860003373ffffffffffffffffffffffffffffffffffffffff1673ffffffffffffffffffffffffffffffffffffffff168152602001908152602001600020548361673590919063ffffffff16565b5b905061134b8261133d86846166e590919063ffffffff16565b61671c90919063ffffffff16565b90506113756064611367600454846166e590919063ffffffff16565b61671c90919063ffffffff16565b9050600081111561138a57611389816168e0565b5b60006113f0836113e287600860003373ffffffffffffffffffffffffffffffffffffffff1673ffffffffffffffffffffffffffffffffffffffff168152602001908152602001600020546166e590919063ffffffff16565b61671c90919063ffffffff16565b905060006114588461144a88600760003373ffffffffffffffffffffffffffffffffffffffff1673ffffffffffffffffffffffffffffffffffffffff168152602001908152602001600020546166e590919063ffffffff16565b61671c90919063ffffffff16565b90506114ac81600760003373ffffffffffffffffffffffffffffffffffffffff1673ffffffffffffffffffffffffffffffffffffffff1681526020019081526020016000205461673590919063ffffffff16565b600760003373ffffffffffffffffffffffffffffffffffffffff1673ffffffffffffffffffffffffffffffffffffffff168152602001908152602001600020819055506115048160025461673590919063ffffffff16565b60028190555061155c82600860003373ffffffffffffffffffffffffffffffffffffffff1673ffffffffffffffffffffffffffffffffffffffff1681526020019081526020016000205461673590919063ffffffff16565b600860003373ffffffffffffffffffffffffffffffffffffffff1673ffffffffffffffffffffffffffffffffffffffff168152602001908152602001600020819055506115b48260065461673590919063ffffffff16565b60068190555060005b600b54811015611882576000600a600083815260200190815260200160002060009054906101000a900473ffffffffffffffffffffffffffffffffffffffff1673ffffffffffffffffffffffffffffffffffffffff166370a08231306040518263ffffffff1660e01b8152600401808273ffffffffffffffffffffffffffffffffffffffff16815260200191505060206040518083038186803b15801561166357600080fd5b505afa158015611677573d6000803e3d6000fd5b505050506040513d602081101561168d57600080fd5b8101908080519060200190929190505050905060006116d9886116cb6116bc898d61673590919063ffffffff16565b856166e590919063ffffffff16565b61671c90919063ffffffff16565b9050600a600084815260200190815260200160002060009054906101000a900473ffffffffffffffffffffffffffffffffffffffff1673ffffffffffffffffffffffffffffffffffffffff1663a9059cbb33836040518363ffffffff1660e01b8152600401808373ffffffffffffffffffffffffffffffffffffffff16815260200182815260200192505050602060405180830381600087803b15801561177f57600080fd5b505af1158015611793573d6000803e3d6000fd5b505050506040513d60208110156117a957600080fd5b8101908080519060200190929190505050506000600254141561187357600c6000600a600086815260200190815260200160002060009054906101000a900473ffffffffffffffffffffffffffffffffffffffff1673ffffffffffffffffffffffffffffffffffffffff1673ffffffffffffffffffffffffffffffffffffffff16815260200190815260200160002060009055600a600084815260200190815260200160002060006101000a81549073ffffffffffffffffffffffffffffffffffffffff02191690555b505080806001019150506115bd565b5060006002541415611897576000600b819055505b3373ffffffffffffffffffffffffffffffffffffffff163073ffffffffffffffffffffffffffffffffffffffff167ff341246adaac6f497bc2a656f546ab9e182111d630394f0c57c710a59a2cb5678842604051808381526020018281526020019250505060405180910390a3505050505050565b600a6020528060005260406000206000915054906101000a900473ffffffffffffffffffffffffffffffffffffffff1681565b60006012905090565b600360009054906101000a900473ffffffffffffffffffffffffffffffffffffffff1673ffffffffffffffffffffffffffffffffffffffff163373ffffffffffffffffffffffffffffffffffffffff16146119ee576040517f08c379a00000000000000000000000000000000000000000000000000000000081526004018080602001828103825260308152602001806175406030913960400191505060405180910390fd5b600073ffffffffffffffffffffffffffffffffffffffff168373ffffffffffffffffffffffffffffffffffffffff161415611a91576040517f08c379a00000000000000000000000000000000000000000000000000000000081526004018080602001828103825260208152602001807f506f6f6c3a20696e76616c6964206164647265737320666f7220746f6b656e4181525060200191505060405180910390fd5b600073ffffffffffffffffffffffffffffffffffffffff168273ffffffffffffffffffffffffffffffffffffffff161415611b34576040517f08c379a00000000000000000000000000000000000000000000000000000000081526004018080602001828103825260208152602001807f506f6f6c3a20696e76616c6964206164647265737320666f7220746f6b656e4281525060200191505060405180910390fd5b6000808373ffffffffffffffffffffffffffffffffffffffff168573ffffffffffffffffffffffffffffffffffffffff1610611b71578385611b74565b84845b915091506000600f60008473ffffffffffffffffffffffffffffffffffffffff1673ffffffffffffffffffffffffffffffffffffffff16815260200190815260200160002060008373ffffffffffffffffffffffffffffffffffffffff1673ffffffffffffffffffffffffffffffffffffffff1681526020019081526020016000205490506000600d600083815260200190815260200160002060020154905060008111611c8a576040517f08c379a000000000000000000000000000000000000000000000000000000000815260040180806020018281038252601d8152602001807f506f6f6c3a206e6f204c5020746f6b656e7320746f20756e7374616b6500000081525060200191505060405180910390fd5b60008060009054906101000a900473ffffffffffffffffffffffffffffffffffffffff1673ffffffffffffffffffffffffffffffffffffffff166304433bbc6040518163ffffffff1660e01b81526004018080602001828103825260128152602001807f426173655562657377617041646170746572000000000000000000000000000081525060200191505060206040518083038186803b158015611d2f57600080fd5b505afa158015611d43573d6000803e3d6000fd5b505050506040513d6020811015611d5957600080fd5b81019080805190602001909291905050509050600073ffffffffffffffffffffffffffffffffffffffff168173ffffffffffffffffffffffffffffffffffffffff166381ef421f886040518263ffffffff1660e01b8152600401808273ffffffffffffffffffffffffffffffffffffffff16815260200191505060206040518083038186803b158015611deb57600080fd5b505afa158015611dff573d6000803e3d6000fd5b505050506040513d6020811015611e1557600080fd5b810190808051906020019092919050505073ffffffffffffffffffffffffffffffffffffffff161415611eb0576040517f08c379a00000000000000000000000000000000000000000000000000000000081526004018080602001828103825260148152602001807f496e76616c6964206661726d206164647265737300000000000000000000000081525060200191505060405180910390fd5b8573ffffffffffffffffffffffffffffffffffffffff1663e9fad8ee6040518163ffffffff1660e01b8152600401600060405180830381600087803b158015611ef857600080fd5b505af1158015611f0c573d6000803e3d6000fd5b5050505060008060009054906101000a900473ffffffffffffffffffffffffffffffffffffffff1673ffffffffffffffffffffffffffffffffffffffff166304433bbc6040518163ffffffff1660e01b81526004018080602001828103825260088152602001807f53657474696e677300000000000000000000000000000000000000000000000081525060200191505060206040518083038186803b158015611fb557600080fd5b505afa158015611fc9573d6000803e3d6000fd5b505050506040513d6020811015611fdf57600080fd5b8101908080519060200190929190505050905060008173ffffffffffffffffffffffffffffffffffffffff166372be869d6040518163ffffffff1660e01b81526004018080602001828103825260038152602001807f554245000000000000000000000000000000000000000000000000000000000081525060200191505060206040518083038186803b15801561207657600080fd5b505afa15801561208a573d6000803e3d6000fd5b505050506040513d60208110156120a057600080fd5b8101908080519060200190929190505050905060008173ffffffffffffffffffffffffffffffffffffffff166370a08231306040518263ffffffff1660e01b8152600401808273ffffffffffffffffffffffffffffffffffffffff16815260200191505060206040518083038186803b15801561211c57600080fd5b505afa158015612130573d6000803e3d6000fd5b505050506040513d602081101561214657600080fd5b81019080805190602001909291905050501180156121a357506000600c60008373ffffffffffffffffffffffffffffffffffffffff1673ffffffffffffffffffffffffffffffffffffffff16815260200190815260200160002054145b1561225f57600b54600c60008373ffffffffffffffffffffffffffffffffffffffff1673ffffffffffffffffffffffffffffffffffffffff1681526020019081526020016000208190555080600a6000600b54815260200190815260200160002060006101000a81548173ffffffffffffffffffffffffffffffffffffffff021916908373ffffffffffffffffffffffffffffffffffffffff1602179055506122586001600b54616dcc90919063ffffffff16565b600b819055505b6000808473ffffffffffffffffffffffffffffffffffffffff1663d752fab28d8d600d60008c8152602001908152602001600020600201546040518463ffffffff1660e01b8152600401808473ffffffffffffffffffffffffffffffffffffffff1681526020018373ffffffffffffffffffffffffffffffffffffffff16815260200182815260200193505050506040805180830381600087803b15801561230657600080fd5b505af115801561231a573d6000803e3d6000fd5b505050506040513d604081101561233057600080fd5b8101908080519060200190929190805190602001909291905050509150915060008c73ffffffffffffffffffffffffffffffffffffffff166370a08231306040518263ffffffff1660e01b8152600401808273ffffffffffffffffffffffffffffffffffffffff16815260200191505060206040518083038186803b1580156123b857600080fd5b505afa1580156123cc573d6000803e3d6000fd5b505050506040513d60208110156123e257600080fd5b810190808051906020019092919050505011801561243f57506000600c60008e73ffffffffffffffffffffffffffffffffffffffff1673ffffffffffffffffffffffffffffffffffffffff16815260200190815260200160002054145b156124fb57600b54600c60008e73ffffffffffffffffffffffffffffffffffffffff1673ffffffffffffffffffffffffffffffffffffffff168152602001908152602001600020819055508b600a6000600b54815260200190815260200160002060006101000a81548173ffffffffffffffffffffffffffffffffffffffff021916908373ffffffffffffffffffffffffffffffffffffffff1602179055506124f46001600b54616dcc90919063ffffffff16565b600b819055505b60008b73ffffffffffffffffffffffffffffffffffffffff166370a08231306040518263ffffffff1660e01b8152600401808273ffffffffffffffffffffffffffffffffffffffff16815260200191505060206040518083038186803b15801561256457600080fd5b505afa158015612578573d6000803e3d6000fd5b505050506040513d602081101561258e57600080fd5b81019080805190602001909291905050501180156125eb57506000600c60008d73ffffffffffffffffffffffffffffffffffffffff1673ffffffffffffffffffffffffffffffffffffffff16815260200190815260200160002054145b156126a757600b54600c60008d73ffffffffffffffffffffffffffffffffffffffff1673ffffffffffffffffffffffffffffffffffffffff168152602001908152602001600020819055508a600a6000600b54815260200190815260200160002060006101000a81548173ffffffffffffffffffffffffffffffffffffffff021916908373ffffffffffffffffffffffffffffffffffffffff1602179055506126a06001600b54616dcc90919063ffffffff16565b600b819055505b600d60006001600e54038152602001908152602001600020600d60008981526020019081526020016000206000820160009054906101000a900473ffffffffffffffffffffffffffffffffffffffff168160000160006101000a81548173ffffffffffffffffffffffffffffffffffffffff021916908373ffffffffffffffffffffffffffffffffffffffff1602179055506001820160009054906101000a900473ffffffffffffffffffffffffffffffffffffffff168160010160006101000a81548173ffffffffffffffffffffffffffffffffffffffff021916908373ffffffffffffffffffffffffffffffffffffffff16021790555060028201548160020155905050600f60008a73ffffffffffffffffffffffffffffffffffffffff1673ffffffffffffffffffffffffffffffffffffffff16815260200190815260200160002060008973ffffffffffffffffffffffffffffffffffffffff1673ffffffffffffffffffffffffffffffffffffffff168152602001908152602001600020600090556128436001600e5461673590919063ffffffff16565b600e819055503073ffffffffffffffffffffffffffffffffffffffff167f3973c8f49e178ab682555b4cef52b51bf50fcd525e0a2d9083f3b8bc88a760a38d8d89868642604051808773ffffffffffffffffffffffffffffffffffffffff1681526020018673ffffffffffffffffffffffffffffffffffffffff168152602001858152602001848152602001838152602001828152602001965050505050505060405180910390a2505050505050505050505050565b60025481565b600360009054906101000a900473ffffffffffffffffffffffffffffffffffffffff1673ffffffffffffffffffffffffffffffffffffffff163373ffffffffffffffffffffffffffffffffffffffff16146129a5576040517f08c379a00000000000000000000000000000000000000000000000000000000081526004018080602001828103825260308152602001806175406030913960400191505060405180910390fd5b600073ffffffffffffffffffffffffffffffffffffffff168573ffffffffffffffffffffffffffffffffffffffff161415612a48576040517f08c379a00000000000000000000000000000000000000000000000000000000081526004018080602001828103825260208152602001807f506f6f6c3a20696e76616c6964206164647265737320666f7220746f6b656e4181525060200191505060405180910390fd5b600073ffffffffffffffffffffffffffffffffffffffff168473ffffffffffffffffffffffffffffffffffffffff161415612aeb576040517f08c379a00000000000000000000000000000000000000000000000000000000081526004018080602001828103825260208152602001807f506f6f6c3a20696e76616c6964206164647265737320666f7220746f6b656e4281525060200191505060405180910390fd5b60008311612b44576040517f08c379a00000000000000000000000000000000000000000000000000000000081526004018080602001828103825260248152602001806174596024913960400191505060405180910390fd5b60008211612b9d576040517f08c379a000000000000000000000000000000000000000000000000000000000815260040180806020018281038252602481526020018061751c6024913960400191505060405180910390fd5b828573ffffffffffffffffffffffffffffffffffffffff166370a08231306040518263ffffffff1660e01b8152600401808273ffffffffffffffffffffffffffffffffffffffff16815260200191505060206040518083038186803b158015612c0557600080fd5b505afa158015612c19573d6000803e3d6000fd5b505050506040513d6020811015612c2f57600080fd5b81019080805190602001909291905050501015612c97576040517f08c379a000000000000000000000000000000000000000000000000000000000815260040180806020018281038252602a8152602001806175bb602a913960400191505060405180910390fd5b818473ffffffffffffffffffffffffffffffffffffffff166370a08231306040518263ffffffff1660e01b8152600401808273ffffffffffffffffffffffffffffffffffffffff16815260200191505060206040518083038186803b158015612cff57600080fd5b505afa158015612d13573d6000803e3d6000fd5b505050506040513d6020811015612d2957600080fd5b81019080805190602001909291905050501015612d91576040517f08c379a000000000000000000000000000000000000000000000000000000000815260040180806020018281038252602a8152602001806174cb602a913960400191505060405180910390fd5b60008060009054906101000a900473ffffffffffffffffffffffffffffffffffffffff1673ffffffffffffffffffffffffffffffffffffffff166304433bbc6040518163ffffffff1660e01b81526004018080602001828103825260128152602001807f426173655562657377617041646170746572000000000000000000000000000081525060200191505060206040518083038186803b158015612e3657600080fd5b505afa158015612e4a573d6000803e3d6000fd5b505050506040513d6020811015612e6057600080fd5b8101908080519060200190929190505050905060008173ffffffffffffffffffffffffffffffffffffffff166381ef421f846040518263ffffffff1660e01b8152600401808273ffffffffffffffffffffffffffffffffffffffff16815260200191505060206040518083038186803b158015612edc57600080fd5b505afa158015612ef0573d6000803e3d6000fd5b505050506040513d6020811015612f0657600080fd5b8101908080519060200190929190505050905060008273ffffffffffffffffffffffffffffffffffffffff1663e6a4390589896040518363ffffffff1660e01b8152600401808373ffffffffffffffffffffffffffffffffffffffff1681526020018273ffffffffffffffffffffffffffffffffffffffff1681526020019250505060206040518083038186803b158015612fa057600080fd5b505afa158015612fb4573d6000803e3d6000fd5b505050506040513d6020811015612fca57600080fd5b810190808051906020019092919050505090508073ffffffffffffffffffffffffffffffffffffffff168273ffffffffffffffffffffffffffffffffffffffff1614613061576040517f08c379a00000000000000000000000000000000000000000000000000000000081526004018080602001828103825260348152602001806176366034913960400191505060405180910390fd5b60008373ffffffffffffffffffffffffffffffffffffffff1663cf6c62ea8a8a8a8a6040518563ffffffff1660e01b8152600401808573ffffffffffffffffffffffffffffffffffffffff1681526020018473ffffffffffffffffffffffffffffffffffffffff168152602001838152602001828152602001945050505050602060405180830381600087803b1580156130fa57600080fd5b505af115801561310e573d6000803e3d6000fd5b505050506040513d602081101561312457600080fd5b810190808051906020019092919050505090508273ffffffffffffffffffffffffffffffffffffffff1663a694fc3a826040518263ffffffff1660e01b815260040180828152602001915050600060405180830381600087803b15801561318a57600080fd5b505af115801561319e573d6000803e3d6000fd5b505050506000808973ffffffffffffffffffffffffffffffffffffffff168b73ffffffffffffffffffffffffffffffffffffffff16106131df57898b6131e2565b8a8a5b915091506000600f60008473ffffffffffffffffffffffffffffffffffffffff1673ffffffffffffffffffffffffffffffffffffffff16815260200190815260200160002060008373ffffffffffffffffffffffffffffffffffffffff1673ffffffffffffffffffffffffffffffffffffffff1681526020019081526020016000205414156134065760405180606001604052808373ffffffffffffffffffffffffffffffffffffffff1681526020018273ffffffffffffffffffffffffffffffffffffffff16815260200184815250600d6000600e54815260200190815260200160002060008201518160000160006101000a81548173ffffffffffffffffffffffffffffffffffffffff021916908373ffffffffffffffffffffffffffffffffffffffff16021790555060208201518160010160006101000a81548173ffffffffffffffffffffffffffffffffffffffff021916908373ffffffffffffffffffffffffffffffffffffffff16021790555060408201518160020155905050600e54600f60008473ffffffffffffffffffffffffffffffffffffffff1673ffffffffffffffffffffffffffffffffffffffff16815260200190815260200160002060008373ffffffffffffffffffffffffffffffffffffffff1673ffffffffffffffffffffffffffffffffffffffff168152602001908152602001600020819055506133fb6001600e54616dcc90919063ffffffff16565b600e819055506134cc565b6000600f60008473ffffffffffffffffffffffffffffffffffffffff1673ffffffffffffffffffffffffffffffffffffffff16815260200190815260200160002060008373ffffffffffffffffffffffffffffffffffffffff1673ffffffffffffffffffffffffffffffffffffffff1681526020019081526020016000205490506134b084600d600084815260200190815260200160002060020154616dcc90919063ffffffff16565b600d600083815260200190815260200160002060020181905550505b60008b73ffffffffffffffffffffffffffffffffffffffff166370a08231306040518263ffffffff1660e01b8152600401808273ffffffffffffffffffffffffffffffffffffffff16815260200191505060206040518083038186803b15801561353557600080fd5b505afa158015613549573d6000803e3d6000fd5b505050506040513d602081101561355f57600080fd5b8101908080519060200190929190505050141561379557600a60006001600b5403815260200190815260200160002060009054906101000a900473ffffffffffffffffffffffffffffffffffffffff16600a6000600c60008f73ffffffffffffffffffffffffffffffffffffffff1673ffffffffffffffffffffffffffffffffffffffff16815260200190815260200160002054815260200190815260200160002060006101000a81548173ffffffffffffffffffffffffffffffffffffffff021916908373ffffffffffffffffffffffffffffffffffffffff160217905550600c60008c73ffffffffffffffffffffffffffffffffffffffff1673ffffffffffffffffffffffffffffffffffffffff16815260200190815260200160002054600c6000600a60006001600b5403815260200190815260200160002060009054906101000a900473ffffffffffffffffffffffffffffffffffffffff1673ffffffffffffffffffffffffffffffffffffffff1673ffffffffffffffffffffffffffffffffffffffff16815260200190815260200160002081905550600a60006001600b5403815260200190815260200160002060006101000a81549073ffffffffffffffffffffffffffffffffffffffff0219169055600c60008c73ffffffffffffffffffffffffffffffffffffffff1673ffffffffffffffffffffffffffffffffffffffff1681526020019081526020016000206000905561378e6001600b5461673590919063ffffffff16565b600b819055505b60008a73ffffffffffffffffffffffffffffffffffffffff166370a08231306040518263ffffffff1660e01b8152600401808273ffffffffffffffffffffffffffffffffffffffff16815260200191505060206040518083038186803b1580156137fe57600080fd5b505afa158015613812573d6000803e3d6000fd5b505050506040513d602081101561382857600080fd5b81019080805190602001909291905050501415613a5e57600a60006001600b5403815260200190815260200160002060009054906101000a900473ffffffffffffffffffffffffffffffffffffffff16600a6000600c60008e73ffffffffffffffffffffffffffffffffffffffff1673ffffffffffffffffffffffffffffffffffffffff16815260200190815260200160002054815260200190815260200160002060006101000a81548173ffffffffffffffffffffffffffffffffffffffff021916908373ffffffffffffffffffffffffffffffffffffffff160217905550600c60008b73ffffffffffffffffffffffffffffffffffffffff1673ffffffffffffffffffffffffffffffffffffffff16815260200190815260200160002054600c6000600a60006001600b5403815260200190815260200160002060009054906101000a900473ffffffffffffffffffffffffffffffffffffffff1673ffffffffffffffffffffffffffffffffffffffff1673ffffffffffffffffffffffffffffffffffffffff16815260200190815260200160002081905550600a60006001600b5403815260200190815260200160002060006101000a81549073ffffffffffffffffffffffffffffffffffffffff0219169055600c60008b73ffffffffffffffffffffffffffffffffffffffff1673ffffffffffffffffffffffffffffffffffffffff16815260200190815260200160002060009055613a576001600b5461673590919063ffffffff16565b600b819055505b3073ffffffffffffffffffffffffffffffffffffffff167ff9ffff2daaa6b9472b5654f7e769ff05f7b28406632388932f783c6b97f2f5828c8c8c8c8842604051808773ffffffffffffffffffffffffffffffffffffffff1681526020018673ffffffffffffffffffffffffffffffffffffffff168152602001858152602001848152602001838152602001828152602001965050505050505060405180910390a25050505050505050505050565b60008060008054906101000a900473ffffffffffffffffffffffffffffffffffffffff1673ffffffffffffffffffffffffffffffffffffffff166304433bbc6040518163ffffffff1660e01b81526004018080602001828103825260088152602001807f53657474696e677300000000000000000000000000000000000000000000000081525060200191505060206040518083038186803b158015613bb257600080fd5b505afa158015613bc6573d6000803e3d6000fd5b505050506040513d6020811015613bdc57600080fd5b8101908080519060200190929190505050905060008173ffffffffffffffffffffffffffffffffffffffff1663be781b1c6040518163ffffffff1660e01b815260040160206040518083038186803b158015613c3757600080fd5b505afa158015613c4b573d6000803e3d6000fd5b505050506040513d6020811015613c6157600080fd5b810190808051906020019092919050505090508073ffffffffffffffffffffffffffffffffffffffff166370a08231306040518263ffffffff1660e01b8152600401808273ffffffffffffffffffffffffffffffffffffffff16815260200191505060206040518083038186803b158015613cdb57600080fd5b505afa158015613cef573d6000803e3d6000fd5b505050506040513d6020811015613d0557600080fd5b81019080805190602001909291905050509250505090565b600c6020528060005260406000206000915090505481565b600f602052816000526040600020602052806000526040600020600091509150505481565b6000600560009054906101000a900473ffffffffffffffffffffffffffffffffffffffff16905090565b60008073ffffffffffffffffffffffffffffffffffffffff168273ffffffffffffffffffffffffffffffffffffffff161415613e28576040517f08c379a00000000000000000000000000000000000000000000000000000000081526004018080602001828103825260148152602001807f496e76616c69642075736572206164647265737300000000000000000000000081525060200191505060405180910390fd5b600760008373ffffffffffffffffffffffffffffffffffffffff1673ffffffffffffffffffffffffffffffffffffffff168152602001908152602001600020549050919050565b60045481565b600e5481565b606060405180602001604052806000815250905090565b60008054906101000a900473ffffffffffffffffffffffffffffffffffffffff1681565b60086020528060005260406000206000915090505481565b600b5481565b6000613ee133848461674c565b6001905092915050565b600080613ef6613f01565b925050508091505090565b60608060008060008054906101000a900473ffffffffffffffffffffffffffffffffffffffff1673ffffffffffffffffffffffffffffffffffffffff166304433bbc6040518163ffffffff1660e01b81526004018080602001828103825260128152602001807f426173655562657377617041646170746572000000000000000000000000000081525060200191505060206040518083038186803b158015613fa957600080fd5b505afa158015613fbd573d6000803e3d6000fd5b505050506040513d6020811015613fd357600080fd5b810190808051906020019092919050505090506060600b5467ffffffffffffffff8111801561400157600080fd5b506040519080825280602002602001820160405280156140305781602001602082028036833780820191505090505b5090506060600b5467ffffffffffffffff8111801561404e57600080fd5b5060405190808252806020026020018201604052801561407d5781602001602082028036833780820191505090505b509050600080600090505b600b548110156143f157600a600082815260200190815260200160002060009054906101000a900473ffffffffffffffffffffffffffffffffffffffff1673ffffffffffffffffffffffffffffffffffffffff166370a08231306040518263ffffffff1660e01b8152600401808273ffffffffffffffffffffffffffffffffffffffff16815260200191505060206040518083038186803b15801561412c57600080fd5b505afa158015614140573d6000803e3d6000fd5b505050506040513d602081101561415657600080fd5b810190808051906020019092919050505083828151811061417357fe5b602002602001018181525050600a600082815260200190815260200160002060009054906101000a900473ffffffffffffffffffffffffffffffffffffffff168482815181106141bf57fe5b602002602001019073ffffffffffffffffffffffffffffffffffffffff16908173ffffffffffffffffffffffffffffffffffffffff16815250506000600a600083815260200190815260200160002060009054906101000a900473ffffffffffffffffffffffffffffffffffffffff1673ffffffffffffffffffffffffffffffffffffffff1663313ce5676040518163ffffffff1660e01b815260040160206040518083038186803b15801561427457600080fd5b505afa158015614288573d6000803e3d6000fd5b505050506040513d602081101561429e57600080fd5b810190808051906020019092919050505060ff16905060008673ffffffffffffffffffffffffffffffffffffffff166341976e09600a600086815260200190815260200160002060009054906101000a900473ffffffffffffffffffffffffffffffffffffffff166040518263ffffffff1660e01b8152600401808273ffffffffffffffffffffffffffffffffffffffff16815260200191505060206040518083038186803b15801561435057600080fd5b505afa158015614364573d6000803e3d6000fd5b505050506040513d602081101561437a57600080fd5b8101908080519060200190929190505050905060006143ca83600a0a6143bc848988815181106143a657fe5b60200260200101516166e590919063ffffffff16565b61671c90919063ffffffff16565b90506143df8186616dcc90919063ffffffff16565b94505050508080600101915050614088565b5060005b600e54811015614516576144076173d5565b600d60008381526020019081526020016000206040518060600160405290816000820160009054906101000a900473ffffffffffffffffffffffffffffffffffffffff1673ffffffffffffffffffffffffffffffffffffffff1673ffffffffffffffffffffffffffffffffffffffff1681526020016001820160009054906101000a900473ffffffffffffffffffffffffffffffffffffffff1673ffffffffffffffffffffffffffffffffffffffff1673ffffffffffffffffffffffffffffffffffffffff16815260200160028201548152505090506145066144f7826000015183602001518460400151616de8565b84616dcc90919063ffffffff16565b92505080806001019150506143f5565b5082828296509650965050505050909192565b600d6020528060005260406000206000915090508060000160009054906101000a900473ffffffffffffffffffffffffffffffffffffffff16908060010160009054906101000a900473ffffffffffffffffffffffffffffffffffffffff16908060020154905083565b60065481565b600081116145f2576040517f08c379a00000000000000000000000000000000000000000000000000000000081526004018080602001828103825260248152602001806175e56024913960400191505060405180910390fd5b60006145fc613eeb565b90506000806002541161460f5782614637565b61463682614628856002546166e590919063ffffffff16565b61671c90919063ffffffff16565b5b905061468b83600860003373ffffffffffffffffffffffffffffffffffffffff1673ffffffffffffffffffffffffffffffffffffffff16815260200190815260200160002054616dcc90919063ffffffff16565b600860003373ffffffffffffffffffffffffffffffffffffffff1673ffffffffffffffffffffffffffffffffffffffff168152602001908152602001600020819055506146e383600654616dcc90919063ffffffff16565b60068190555061473b81600760003373ffffffffffffffffffffffffffffffffffffffff1673ffffffffffffffffffffffffffffffffffffffff16815260200190815260200160002054616dcc90919063ffffffff16565b600760003373ffffffffffffffffffffffffffffffffffffffff1673ffffffffffffffffffffffffffffffffffffffff1681526020019081526020016000208190555061479381600254616dcc90919063ffffffff16565b60028190555060008060009054906101000a900473ffffffffffffffffffffffffffffffffffffffff1673ffffffffffffffffffffffffffffffffffffffff166304433bbc6040518163ffffffff1660e01b81526004018080602001828103825260088152602001807f53657474696e677300000000000000000000000000000000000000000000000081525060200191505060206040518083038186803b15801561483e57600080fd5b505afa158015614852573d6000803e3d6000fd5b505050506040513d602081101561486857600080fd5b8101908080519060200190929190505050905060008173ffffffffffffffffffffffffffffffffffffffff1663be781b1c6040518163ffffffff1660e01b815260040160206040518083038186803b1580156148c357600080fd5b505afa1580156148d7573d6000803e3d6000fd5b505050506040513d60208110156148ed57600080fd5b810190808051906020019092919050505090508073ffffffffffffffffffffffffffffffffffffffff166323b872dd3330886040518463ffffffff1660e01b8152600401808473ffffffffffffffffffffffffffffffffffffffff1681526020018373ffffffffffffffffffffffffffffffffffffffff1681526020018281526020019350505050602060405180830381600087803b15801561498f57600080fd5b505af11580156149a3573d6000803e3d6000fd5b505050506040513d60208110156149b957600080fd5b8101908080519060200190929190505050506000600c60008373ffffffffffffffffffffffffffffffffffffffff1673ffffffffffffffffffffffffffffffffffffffff1681526020019081526020016000205490506000811415614acf5781600a6000600b54815260200190815260200160002060006101000a81548173ffffffffffffffffffffffffffffffffffffffff021916908373ffffffffffffffffffffffffffffffffffffffff160217905550600b54600c60008473ffffffffffffffffffffffffffffffffffffffff1673ffffffffffffffffffffffffffffffffffffffff16815260200190815260200160002081905550614ac86001600b54616dcc90919063ffffffff16565b600b819055505b3373ffffffffffffffffffffffffffffffffffffffff163073ffffffffffffffffffffffffffffffffffffffff167fdcbc1c05240f31ff3ad067ef1ee35ce4997762752e3a095284754544f4c709d78842604051808381526020018281526020019250505060405180910390a3505050505050565b6000600360009054906101000a900473ffffffffffffffffffffffffffffffffffffffff16905090565b600360009054906101000a900473ffffffffffffffffffffffffffffffffffffffff1673ffffffffffffffffffffffffffffffffffffffff163373ffffffffffffffffffffffffffffffffffffffff1614614c14576040517f08c379a00000000000000000000000000000000000000000000000000000000081526004018080602001828103825260308152602001806175406030913960400191505060405180910390fd5b60008060009054906101000a900473ffffffffffffffffffffffffffffffffffffffff1673ffffffffffffffffffffffffffffffffffffffff166304433bbc6040518163ffffffff1660e01b81526004018080602001828103825260128152602001807f426173655562657377617041646170746572000000000000000000000000000081525060200191505060206040518083038186803b158015614cb957600080fd5b505afa158015614ccd573d6000803e3d6000fd5b505050506040513d6020811015614ce357600080fd5b81019080805190602001909291905050509050600073ffffffffffffffffffffffffffffffffffffffff168173ffffffffffffffffffffffffffffffffffffffff166381ef421f846040518263ffffffff1660e01b8152600401808273ffffffffffffffffffffffffffffffffffffffff16815260200191505060206040518083038186803b158015614d7557600080fd5b505afa158015614d89573d6000803e3d6000fd5b505050506040513d6020811015614d9f57600080fd5b810190808051906020019092919050505073ffffffffffffffffffffffffffffffffffffffff161415614e3a576040517f08c379a00000000000000000000000000000000000000000000000000000000081526004018080602001828103825260148152602001807f496e76616c6964206661726d206164647265737300000000000000000000000081525060200191505060405180910390fd5b60008273ffffffffffffffffffffffffffffffffffffffff166370a08231306040518263ffffffff1660e01b8152600401808273ffffffffffffffffffffffffffffffffffffffff16815260200191505060206040518083038186803b158015614ea357600080fd5b505afa158015614eb7573d6000803e3d6000fd5b505050506040513d6020811015614ecd57600080fd5b810190808051906020019092919050505011614f51576040517f08c379a000000000000000000000000000000000000000000000000000000000815260040180806020018281038252601e8152602001807f506f6f6c3a206e6f20746f6b656e73207374616b656420696e206661726d000081525060200191505060405180910390fd5b8173ffffffffffffffffffffffffffffffffffffffff16633d18b9126040518163ffffffff1660e01b8152600401600060405180830381600087803b158015614f9957600080fd5b505af1158015614fad573d6000803e3d6000fd5b5050505060008060009054906101000a900473ffffffffffffffffffffffffffffffffffffffff1673ffffffffffffffffffffffffffffffffffffffff166304433bbc6040518163ffffffff1660e01b81526004018080602001828103825260088152602001807f53657474696e677300000000000000000000000000000000000000000000000081525060200191505060206040518083038186803b15801561505657600080fd5b505afa15801561506a573d6000803e3d6000fd5b505050506040513d602081101561508057600080fd5b8101908080519060200190929190505050905060008173ffffffffffffffffffffffffffffffffffffffff166372be869d6040518163ffffffff1660e01b81526004018080602001828103825260038152602001807f554245000000000000000000000000000000000000000000000000000000000081525060200191505060206040518083038186803b15801561511757600080fd5b505afa15801561512b573d6000803e3d6000fd5b505050506040513d602081101561514157600080fd5b8101908080519060200190929190505050905060008173ffffffffffffffffffffffffffffffffffffffff166370a08231306040518263ffffffff1660e01b8152600401808273ffffffffffffffffffffffffffffffffffffffff16815260200191505060206040518083038186803b1580156151bd57600080fd5b505afa1580156151d1573d6000803e3d6000fd5b505050506040513d60208110156151e757600080fd5b810190808051906020019092919050505011801561524457506000600c60008373ffffffffffffffffffffffffffffffffffffffff1673ffffffffffffffffffffffffffffffffffffffff16815260200190815260200160002054145b1561530057600b54600c60008373ffffffffffffffffffffffffffffffffffffffff1673ffffffffffffffffffffffffffffffffffffffff1681526020019081526020016000208190555080600a6000600b54815260200190815260200160002060006101000a81548173ffffffffffffffffffffffffffffffffffffffff021916908373ffffffffffffffffffffffffffffffffffffffff1602179055506152f96001600b54616dcc90919063ffffffff16565b600b819055505b3073ffffffffffffffffffffffffffffffffffffffff167f66ea517059fe51fb232f7936fe744b7f6f228be80abc000671f98f7bacf147088542604051808373ffffffffffffffffffffffffffffffffffffffff1681526020018281526020019250505060405180910390a250505050565b60076020528060005260406000206000915090505481565b60018054600181600116156101000203166002900480601f0160208091040260200160405190810160405280929190818152602001828054600181600116156101000203166002900480156154205780601f106153f557610100808354040283529160200191615420565b820191906000526020600020905b81548152906001019060200180831161540357829003601f168201915b505050505081565b60008060009054906101000a900473ffffffffffffffffffffffffffffffffffffffff1673ffffffffffffffffffffffffffffffffffffffff166304433bbc6040518163ffffffff1660e01b815260040180806020018281038252600b8152602001807f506f6f6c466163746f727900000000000000000000000000000000000000000081525060200191505060206040518083038186803b1580156154cd57600080fd5b505afa1580156154e1573d6000803e3d6000fd5b505050506040513d60208110156154f757600080fd5b810190808051906020019092919050505090508073ffffffffffffffffffffffffffffffffffffffff163373ffffffffffffffffffffffffffffffffffffffff161461558e576040517f08c379a00000000000000000000000000000000000000000000000000000000081526004018080602001828103825260368152602001806174236036913960400191505060405180910390fd5b600073ffffffffffffffffffffffffffffffffffffffff168273ffffffffffffffffffffffffffffffffffffffff161415615631576040517f08c379a00000000000000000000000000000000000000000000000000000000081526004018080602001828103825260148152602001807f496e76616c6964206661726d206164647265737300000000000000000000000081525060200191505060405180910390fd5b81600560006101000a81548173ffffffffffffffffffffffffffffffffffffffff021916908373ffffffffffffffffffffffffffffffffffffffff1602179055505050565b6009602052816000526040600020602052806000526040600020600091509150505481565b600360009054906101000a900473ffffffffffffffffffffffffffffffffffffffff1681565b600560009054906101000a900473ffffffffffffffffffffffffffffffffffffffff1681565b600360009054906101000a900473ffffffffffffffffffffffffffffffffffffffff1673ffffffffffffffffffffffffffffffffffffffff163373ffffffffffffffffffffffffffffffffffffffff161461578d576040517f08c379a00000000000000000000000000000000000000000000000000000000081526004018080602001828103825260308152602001806175406030913960400191505060405180910390fd5b60008060009054906101000a900473ffffffffffffffffffffffffffffffffffffffff1673ffffffffffffffffffffffffffffffffffffffff166304433bbc6040518163ffffffff1660e01b81526004018080602001828103825260088152602001807f53657474696e677300000000000000000000000000000000000000000000000081525060200191505060206040518083038186803b15801561583257600080fd5b505afa158015615846573d6000803e3d6000fd5b505050506040513d602081101561585c57600080fd5b8101908080519060200190929190505050905060008060009054906101000a900473ffffffffffffffffffffffffffffffffffffffff1673ffffffffffffffffffffffffffffffffffffffff166304433bbc6040518163ffffffff1660e01b81526004018080602001828103825260128152602001807f426173655562657377617041646170746572000000000000000000000000000081525060200191505060206040518083038186803b15801561591457600080fd5b505afa158015615928573d6000803e3d6000fd5b505050506040513d602081101561593e57600080fd5b8101908080519060200190929190505050905060008273ffffffffffffffffffffffffffffffffffffffff1663be781b1c6040518163ffffffff1660e01b815260040160206040518083038186803b15801561599957600080fd5b505afa1580156159ad573d6000803e3d6000fd5b505050506040513d60208110156159c357600080fd5b8101908080519060200190929190505050905060008411615a2f576040517f08c379a000000000000000000000000000000000000000000000000000000000815260040180806020018281038252602d815260200180617609602d913960400191505060405180910390fd5b600073ffffffffffffffffffffffffffffffffffffffff168673ffffffffffffffffffffffffffffffffffffffff161415615ad2576040517f08c379a000000000000000000000000000000000000000000000000000000000815260040180806020018281038252601a8152602001807f506f6f6c3a20496e76616c69642063757272656e6379206b657900000000000081525060200191505060405180910390fd5b8273ffffffffffffffffffffffffffffffffffffffff1663571a0885876040518263ffffffff1660e01b8152600401808273ffffffffffffffffffffffffffffffffffffffff16815260200191505060206040518083038186803b158015615b3957600080fd5b505afa158015615b4d573d6000803e3d6000fd5b505050506040513d6020811015615b6357600080fd5b8101908080519060200190929190505050615bc9576040517f08c379a00000000000000000000000000000000000000000000000000000000081526004018080602001828103825260238152602001806175706023913960400191505060405180910390fd5b60008673ffffffffffffffffffffffffffffffffffffffff1663313ce5676040518163ffffffff1660e01b815260040160206040518083038186803b158015615c1157600080fd5b505afa158015615c25573d6000803e3d6000fd5b505050506040513d6020811015615c3b57600080fd5b810190808051906020019092919050505060ff16905060008373ffffffffffffffffffffffffffffffffffffffff166341976e09896040518263ffffffff1660e01b8152600401808273ffffffffffffffffffffffffffffffffffffffff16815260200191505060206040518083038186803b158015615cba57600080fd5b505afa158015615cce573d6000803e3d6000fd5b505050506040513d6020811015615ce457600080fd5b81019080805190602001909291905050509050600080615d2284600a0a615d14858b6166e590919063ffffffff16565b61671c90919063ffffffff16565b9050881561608e5780615d33613b0d565b1015615da7576040517f08c379a00000000000000000000000000000000000000000000000000000000081526004018080602001828103825260168152602001807f506f6f6c3a204e6f7420656e6f7567682066756e64730000000000000000000081525060200191505060405180910390fd5b60008a73ffffffffffffffffffffffffffffffffffffffff166370a08231306040518263ffffffff1660e01b8152600401808273ffffffffffffffffffffffffffffffffffffffff16815260200191505060206040518083038186803b158015615e1057600080fd5b505afa158015615e24573d6000803e3d6000fd5b505050506040513d6020811015615e3a57600080fd5b81019080805190602001909291905050501415615f085789600a6000600b54815260200190815260200160002060006101000a81548173ffffffffffffffffffffffffffffffffffffffff021916908373ffffffffffffffffffffffffffffffffffffffff160217905550600b54600c60008c73ffffffffffffffffffffffffffffffffffffffff1673ffffffffffffffffffffffffffffffffffffffff16815260200190815260200160002081905550615f016001600b54616dcc90919063ffffffff16565b600b819055505b8473ffffffffffffffffffffffffffffffffffffffff1663a9059cbb87836040518363ffffffff1660e01b8152600401808373ffffffffffffffffffffffffffffffffffffffff16815260200182815260200192505050602060405180830381600087803b158015615f7957600080fd5b505af1158015615f8d573d6000803e3d6000fd5b505050506040513d6020811015615fa357600080fd5b8101908080519060200190929190505050508573ffffffffffffffffffffffffffffffffffffffff1663e5414cd0868c848c6040518563ffffffff1660e01b8152600401808573ffffffffffffffffffffffffffffffffffffffff1681526020018473ffffffffffffffffffffffffffffffffffffffff168152602001838152602001828152602001945050505050602060405180830381600087803b15801561604c57600080fd5b505af1158015616060573d6000803e3d6000fd5b505050506040513d602081101561607657600080fd5b81019080805190602001909291905050509150616577565b6000600c60008c73ffffffffffffffffffffffffffffffffffffffff1673ffffffffffffffffffffffffffffffffffffffff1681526020019081526020016000205490506000811161612b576040517f08c379a000000000000000000000000000000000000000000000000000000000815260040180806020018281038252602c81526020018061747d602c913960400191505060405180910390fd5b888b73ffffffffffffffffffffffffffffffffffffffff166370a08231306040518263ffffffff1660e01b8152600401808273ffffffffffffffffffffffffffffffffffffffff16815260200191505060206040518083038186803b15801561619357600080fd5b505afa1580156161a7573d6000803e3d6000fd5b505050506040513d60208110156161bd57600080fd5b81019080805190602001909291905050501015616225576040517f08c379a00000000000000000000000000000000000000000000000000000000081526004018080602001828103825260288152602001806175936028913960400191505060405180910390fd5b8a73ffffffffffffffffffffffffffffffffffffffff1663a9059cbb888b6040518363ffffffff1660e01b8152600401808373ffffffffffffffffffffffffffffffffffffffff16815260200182815260200192505050602060405180830381600087803b15801561629657600080fd5b505af11580156162aa573d6000803e3d6000fd5b505050506040513d60208110156162c057600080fd5b8101908080519060200190929190505050508673ffffffffffffffffffffffffffffffffffffffff1663e5414cd08c888c8d6040518563ffffffff1660e01b8152600401808573ffffffffffffffffffffffffffffffffffffffff1681526020018473ffffffffffffffffffffffffffffffffffffffff168152602001838152602001828152602001945050505050602060405180830381600087803b15801561636957600080fd5b505af115801561637d573d6000803e3d6000fd5b505050506040513d602081101561639357600080fd5b8101908080519060200190929190505050925060008b73ffffffffffffffffffffffffffffffffffffffff166370a08231306040518263ffffffff1660e01b8152600401808273ffffffffffffffffffffffffffffffffffffffff16815260200191505060206040518083038186803b15801561640f57600080fd5b505afa158015616423573d6000803e3d6000fd5b505050506040513d602081101561643957600080fd5b8101908080519060200190929190505050141561657557600a60006001600b5403815260200190815260200160002060009054906101000a900473ffffffffffffffffffffffffffffffffffffffff16600a600083815260200190815260200160002060006101000a81548173ffffffffffffffffffffffffffffffffffffffff021916908373ffffffffffffffffffffffffffffffffffffffff160217905550600c60008c73ffffffffffffffffffffffffffffffffffffffff1673ffffffffffffffffffffffffffffffffffffffff16815260200190815260200160002060009055600a60006001600b5403815260200190815260200160002060006101000a81549073ffffffffffffffffffffffffffffffffffffffff021916905561656e6001600b5461673590919063ffffffff16565b600b819055505b505b8973ffffffffffffffffffffffffffffffffffffffff163073ffffffffffffffffffffffffffffffffffffffff167fce36a85b5be955836f12a0d8f59f3814444727532466c99a7f8db34b875906008b8b42604051808415158152602001838152602001828152602001935050505060405180910390a350505050505050505050565b80600960008573ffffffffffffffffffffffffffffffffffffffff1673ffffffffffffffffffffffffffffffffffffffff16815260200190815260200160002060008473ffffffffffffffffffffffffffffffffffffffff1673ffffffffffffffffffffffffffffffffffffffff168152602001908152602001600020819055508173ffffffffffffffffffffffffffffffffffffffff168373ffffffffffffffffffffffffffffffffffffffff167f8c5be1e5ebec7d5bd14f71427d1e84f3dd0314c0f7b2291e5b200ac8c7c3b925836040518082815260200191505060405180910390a3505050565b6000808314156166f85760009050616716565b600082840290508284828161670957fe5b041461671157fe5b809150505b92915050565b60008082848161672857fe5b0490508091505092915050565b60008282111561674157fe5b818303905092915050565b61679e81600760008673ffffffffffffffffffffffffffffffffffffffff1673ffffffffffffffffffffffffffffffffffffffff1681526020019081526020016000205461673590919063ffffffff16565b600760008573ffffffffffffffffffffffffffffffffffffffff1673ffffffffffffffffffffffffffffffffffffffff1681526020019081526020016000208190555061683381600760008573ffffffffffffffffffffffffffffffffffffffff1673ffffffffffffffffffffffffffffffffffffffff16815260200190815260200160002054616dcc90919063ffffffff16565b600760008473ffffffffffffffffffffffffffffffffffffffff1673ffffffffffffffffffffffffffffffffffffffff168152602001908152602001600020819055508173ffffffffffffffffffffffffffffffffffffffff168373ffffffffffffffffffffffffffffffffffffffff167fddf252ad1be2c89b69c2b068fc378daa952ba7f163c4a11628f55a4df523b3ef836040518082815260200191505060405180910390a3505050565b60006168ea613eeb565b905060008060009054906101000a900473ffffffffffffffffffffffffffffffffffffffff1673ffffffffffffffffffffffffffffffffffffffff166304433bbc6040518163ffffffff1660e01b81526004018080602001828103825260078152602001807f466565506f6f6c0000000000000000000000000000000000000000000000000081525060200191505060206040518083038186803b15801561699157600080fd5b505afa1580156169a5573d6000803e3d6000fd5b505050506040513d60208110156169bb57600080fd5b810190808051906020019092919050505090506060600b5467ffffffffffffffff811180156169e957600080fd5b50604051908082528060200260200182016040528015616a185781602001602082028036833780820191505090505b50905060005b600b54811015616aaf57600a600082815260200190815260200160002060009054906101000a900473ffffffffffffffffffffffffffffffffffffffff16828281518110616a6857fe5b602002602001019073ffffffffffffffffffffffffffffffffffffffff16908173ffffffffffffffffffffffffffffffffffffffff16815250508080600101915050616a1e565b508173ffffffffffffffffffffffffffffffffffffffff16630939b690826040518263ffffffff1660e01b81526004018080602001828103825283818151815260200191508051906020019060200280838360005b83811015616b1f578082015181840152602081019050616b04565b5050505090500192505050600060405180830381600087803b158015616b4457600080fd5b505af1158015616b58573d6000803e3d6000fd5b5050505060005b600b54811015616d1a576000828281518110616b7757fe5b602002602001015173ffffffffffffffffffffffffffffffffffffffff166370a08231306040518263ffffffff1660e01b8152600401808273ffffffffffffffffffffffffffffffffffffffff16815260200191505060206040518083038186803b158015616be557600080fd5b505afa158015616bf9573d6000803e3d6000fd5b505050506040513d6020811015616c0f57600080fd5b810190808051906020019092919050505090506000616c4986616c3b89856166e590919063ffffffff16565b61671c90919063ffffffff16565b9050838381518110616c5757fe5b602002602001015173ffffffffffffffffffffffffffffffffffffffff1663a9059cbb86836040518363ffffffff1660e01b8152600401808373ffffffffffffffffffffffffffffffffffffffff16815260200182815260200192505050602060405180830381600087803b158015616ccf57600080fd5b505af1158015616ce3573d6000803e3d6000fd5b505050506040513d6020811015616cf957600080fd5b81019080805190602001909291905050505050508080600101915050616b5f565b508173ffffffffffffffffffffffffffffffffffffffff16631dfb9aae600360009054906101000a900473ffffffffffffffffffffffffffffffffffffffff16866040518363ffffffff1660e01b8152600401808373ffffffffffffffffffffffffffffffffffffffff16815260200182815260200192505050600060405180830381600087803b158015616dae57600080fd5b505af1158015616dc2573d6000803e3d6000fd5b5050505050505050565b600080828401905083811015616dde57fe5b8091505092915050565b60008073ffffffffffffffffffffffffffffffffffffffff168473ffffffffffffffffffffffffffffffffffffffff161415616e8c576040517f08c379a00000000000000000000000000000000000000000000000000000000081526004018080602001828103825260208152602001807f506f6f6c3a20696e76616c6964206164647265737320666f7220746f6b656e4181525060200191505060405180910390fd5b600073ffffffffffffffffffffffffffffffffffffffff168373ffffffffffffffffffffffffffffffffffffffff161415616f2f576040517f08c379a00000000000000000000000000000000000000000000000000000000081526004018080602001828103825260208152602001807f506f6f6c3a20696e76616c6964206164647265737320666f7220746f6b656e4281525060200191505060405180910390fd5b6000821415616f4157600090506173ce565b60008060009054906101000a900473ffffffffffffffffffffffffffffffffffffffff1673ffffffffffffffffffffffffffffffffffffffff166304433bbc6040518163ffffffff1660e01b81526004018080602001828103825260128152602001807f426173655562657377617041646170746572000000000000000000000000000081525060200191505060206040518083038186803b158015616fe657600080fd5b505afa158015616ffa573d6000803e3d6000fd5b505050506040513d602081101561701057600080fd5b810190808051906020019092919050505090506000808273ffffffffffffffffffffffffffffffffffffffff1663d87fc1498888886040518463ffffffff1660e01b8152600401808473ffffffffffffffffffffffffffffffffffffffff1681526020018373ffffffffffffffffffffffffffffffffffffffff1681526020018281526020019350505050604080518083038186803b1580156170b257600080fd5b505afa1580156170c6573d6000803e3d6000fd5b505050506040513d60408110156170dc57600080fd5b8101908080519060200190929190805190602001909291905050509150915060008773ffffffffffffffffffffffffffffffffffffffff1663313ce5676040518163ffffffff1660e01b815260040160206040518083038186803b15801561714357600080fd5b505afa158015617157573d6000803e3d6000fd5b505050506040513d602081101561716d57600080fd5b810190808051906020019092919050505060ff16905060008473ffffffffffffffffffffffffffffffffffffffff166341976e098a6040518263ffffffff1660e01b8152600401808273ffffffffffffffffffffffffffffffffffffffff16815260200191505060206040518083038186803b1580156171ec57600080fd5b505afa158015617200573d6000803e3d6000fd5b505050506040513d602081101561721657600080fd5b81019080805190602001909291905050509050600061725383600a0a61724584886166e590919063ffffffff16565b61671c90919063ffffffff16565b905060008973ffffffffffffffffffffffffffffffffffffffff1663313ce5676040518163ffffffff1660e01b815260040160206040518083038186803b15801561729d57600080fd5b505afa1580156172b1573d6000803e3d6000fd5b505050506040513d60208110156172c757600080fd5b810190808051906020019092919050505060ff16905060008773ffffffffffffffffffffffffffffffffffffffff166341976e098c6040518263ffffffff1660e01b8152600401808273ffffffffffffffffffffffffffffffffffffffff16815260200191505060206040518083038186803b15801561734657600080fd5b505afa15801561735a573d6000803e3d6000fd5b505050506040513d602081101561737057600080fd5b8101908080519060200190929190505050905060006173ad83600a0a61739f848a6166e590919063ffffffff16565b61671c90919063ffffffff16565b90506173c28185616dcc90919063ffffffff16565b99505050505050505050505b9392505050565b6040518060600160405280600073ffffffffffffffffffffffffffffffffffffffff168152602001600073ffffffffffffffffffffffffffffffffffffffff16815260200160008152509056fe506f6f6c3a204f6e6c7920506f6f6c466163746f727920636f6e74726163742063616e2063616c6c20746869732066756e6374696f6e506f6f6c3a20616d6f756e7441206d7573742062652067726561746572207468616e2030506f6f6c3a20446f6e27742068617665206120706f736974696f6e20696e20746869732063757272656e6379506f6f6c3a204e6f7420656e6f7567682066756e647320746f207769746864726177506f6f6c3a206e6f7420656e6f75676820746f6b656e7320696e76657374656420696e20746f6b656e42506f6f6c3a205769746864726177616c206d7573742062652067726561746572207468616e2030506f6f6c3a20616d6f756e7442206d7573742062652067726561746572207468616e2030506f6f6c3a204f6e6c7920706f6f6c2773206d616e616765722063616e2063616c6c20746869732066756e6374696f6e506f6f6c3a2043757272656e6379206b6579206973206e6f7420617661696c61626c65506f6f6c3a204e6f7420656e6f75676820746f6b656e7320696e20746869732063757272656e6379506f6f6c3a206e6f7420656e6f75676820746f6b656e7320696e76657374656420696e20746f6b656e41506f6f6c3a204465706f736974206d7573742062652067726561746572207468616e2030506f6f6c3a204e756d626572206f6620746f6b656e73206d7573742062652067726561746572207468616e2030506f6f6c3a207374616b696e67546f6b656e4164647265737320646f6573206e6f74206d61746368207061697241646472657373a2646970667358221220139fd51b7dea49465447d2fa6db258ef0cdd6e99bc92d8fad29b71e7d22895af64736f6c634300060c0033",
  "immutableReferences": {},
  "source": "pragma solidity >=0.5.0;\r\n\r\n//Adapters\r\nimport './interfaces/IBaseUbeswapAdapter.sol';\r\n\r\n//Interfaces\r\nimport './interfaces/IERC20.sol';\r\nimport './interfaces/IPool.sol';\r\nimport './interfaces/ISettings.sol';\r\nimport './interfaces/IAddressResolver.sol';\r\nimport './interfaces/IFeePool.sol';\r\nimport './interfaces/IStakingRewards.sol';\r\n\r\n//Libraries\r\nimport './libraries/SafeMath.sol';\r\n\r\ncontract Pool is IPool, IERC20 {\r\n    using SafeMath for uint;\r\n\r\n    IAddressResolver public ADDRESS_RESOLVER;\r\n\r\n    struct LiquidityPair {\r\n        address tokenA;\r\n        address tokenB;\r\n        uint numberOfLPTokens;\r\n    }\r\n   \r\n    string public _name;\r\n    uint public _totalSupply;\r\n    address public _manager;\r\n    uint public _performanceFee; //expressed as %\r\n    address public _farmAddress;\r\n    uint public _totalDeposits;\r\n\r\n    mapping (address => uint) public _balanceOf;\r\n    mapping (address => uint) public _deposits;\r\n    mapping (address => mapping(address => uint)) public override allowance;\r\n\r\n    //Asset positions\r\n    mapping (uint => address) public _positionKeys;\r\n    uint public numberOfPositions;\r\n    mapping (address => uint) public positionToIndex; //maps to (index + 1), with index 0 representing position not found\r\n\r\n    //Liquidity positions\r\n    mapping (uint => LiquidityPair) public liquidityPositions;\r\n    uint public numberOfLiquidityPositions;\r\n    mapping (address => mapping(address => uint)) public liquidityPairToIndex; //maps to (index + 1), with index 0 representing position not found\r\n\r\n    constructor(string memory name, uint performanceFee, address manager, IAddressResolver addressResolver) public {\r\n        _name = name;\r\n        _manager = manager;\r\n        _performanceFee = performanceFee;\r\n        ADDRESS_RESOLVER = addressResolver;\r\n    }\r\n\r\n    /* ========== VIEWS ========== */\r\n\r\n    /**\r\n    * @dev Returns the name of the pool\r\n    * @return string The name of the pool\r\n    */\r\n    function name() public view override(IPool, IERC20) returns (string memory) {\r\n        return _name;\r\n    }\r\n\r\n    function symbol() public view override returns (string memory) {\r\n        return \"\";\r\n    }\r\n\r\n    function decimals() public view override returns (uint8) {\r\n        return 18;\r\n    }\r\n\r\n    /**\r\n    * @dev Returns the address of the pool's farm\r\n    * @return address Address of the pool's farm\r\n    */\r\n    function getFarmAddress() public view override returns (address) {\r\n        return _farmAddress;\r\n    }\r\n\r\n    /**\r\n    * @dev Return the pool manager's address\r\n    * @return address Address of the pool's manager\r\n    */\r\n    function getManagerAddress() public view override returns (address) {\r\n        return _manager;\r\n    }\r\n\r\n    /**\r\n    * @dev Returns the currency address and balance of each position the pool has, as well as the cumulative value\r\n    * @return (address[], uint[], uint) Currency address and balance of each position the pool has, and the cumulative value of positions\r\n    */\r\n    function getPositionsAndTotal() public view override returns (address[] memory, uint[] memory, uint) {\r\n        address baseUbeswapAdapterAddress = ADDRESS_RESOLVER.getContractAddress(\"BaseUbeswapAdapter\");\r\n        address[] memory addresses = new address[](numberOfPositions);\r\n        uint[] memory balances = new uint[](numberOfPositions);\r\n        uint sum;\r\n\r\n        //Calculate USD value of each asset position\r\n        for (uint i = 0; i < numberOfPositions; i++)\r\n        {\r\n            balances[i] = IERC20(_positionKeys[i]).balanceOf(address(this));\r\n            addresses[i] = _positionKeys[i];\r\n\r\n            uint numberOfDecimals = IERC20(_positionKeys[i]).decimals();\r\n            uint USDperToken = IBaseUbeswapAdapter(baseUbeswapAdapterAddress).getPrice(_positionKeys[i]);\r\n            uint positionBalanceInUSD = balances[i].mul(USDperToken).div(10 ** numberOfDecimals);\r\n            sum = sum.add(positionBalanceInUSD);\r\n        }\r\n\r\n        //Calculate USD value of each liquidity position\r\n        for (uint i = 0; i < numberOfLiquidityPositions; i++)\r\n        {\r\n            LiquidityPair memory pair = liquidityPositions[i];\r\n            sum = sum.add(_calculateValueOfLPTokens(pair.tokenA, pair.tokenB, pair.numberOfLPTokens));\r\n        }\r\n\r\n        return (addresses, balances, sum);\r\n    }\r\n\r\n    /**\r\n    * @dev Returns the amount of cUSD the pool has to invest\r\n    * @return uint Amount of cUSD the pool has available\r\n    */\r\n    function getAvailableFunds() public view override returns (uint) {\r\n        address settingsAddress = ADDRESS_RESOLVER.getContractAddress(\"Settings\");\r\n        address stableCoinAddress = ISettings(settingsAddress).getStableCoinAddress();\r\n\r\n        return IERC20(stableCoinAddress).balanceOf(address(this));\r\n    }\r\n\r\n    /**\r\n    * @dev Returns the value of the pool in USD\r\n    * @return uint Value of the pool in USD\r\n    */\r\n    function getPoolBalance() public view override returns (uint) {\r\n        (,, uint positionBalance) = getPositionsAndTotal();\r\n        \r\n        return positionBalance;\r\n    }\r\n\r\n    /**\r\n    * @dev Returns the balance of the user in USD\r\n    * @return uint Balance of the user in USD\r\n    */\r\n    function getUSDBalance(address user) public view override returns (uint) {\r\n        require(user != address(0), \"Invalid address\");\r\n\r\n        uint poolBalance = getPoolBalance();\r\n\r\n        return poolBalance.mul(_balanceOf[user]).div(_totalSupply);\r\n    }\r\n\r\n    /**\r\n    * @dev Returns the number of LP tokens the user has\r\n    * @param user Address of the user\r\n    * @return uint Number of LP tokens the user has\r\n    */\r\n    function balanceOf(address user) public view override(IPool, IERC20) returns (uint) {\r\n        require(user != address(0), \"Invalid user address\");\r\n\r\n        return _balanceOf[user];\r\n    }\r\n\r\n    /**\r\n    * @dev Returns the total supply of LP tokens in the pool\r\n    * @return uint Total supply of LP tokens\r\n    */\r\n    function totalSupply() public view override returns (uint) {\r\n        return _totalSupply;\r\n    }\r\n\r\n    /**\r\n    * @dev Returns the pool's performance fee\r\n    * @return uint The pool's performance fee\r\n    */\r\n    function getPerformanceFee() public view override returns (uint) {\r\n        return _performanceFee;\r\n    }\r\n\r\n    /* ========== MUTATIVE FUNCTIONS ========== */\r\n\r\n    function approve(address spender, uint value) public override returns (bool) {\r\n        _approve(msg.sender, spender, value);\r\n        return true;\r\n    }\r\n\r\n    function transfer(address to, uint value) public override returns (bool) {\r\n        _transfer(msg.sender, to, value);\r\n        return true;\r\n    }\r\n\r\n    function transferFrom(address from, address to, uint value) public override returns (bool) {\r\n        if (allowance[from][msg.sender] > 0) {\r\n            allowance[from][msg.sender] = allowance[from][msg.sender].sub(value);\r\n        }\r\n        _transfer(from, to, value);\r\n        return true;\r\n    }\r\n\r\n    /* ========== RESTRICTED FUNCTIONS ========== */\r\n\r\n    /**\r\n    * @dev Deposits the given USD amount into the pool\r\n    * @notice Call cUSD.approve() before calling this function\r\n    * @param amount Amount of USD to deposit into the pool\r\n    */\r\n    function deposit(uint amount) public override {\r\n        require(amount > 0, \"Pool: Deposit must be greater than 0\");\r\n\r\n        uint poolBalance = getPoolBalance();\r\n        uint numberOfLPTokens = (_totalSupply > 0) ? _totalSupply.mul(amount).div(poolBalance) : amount;\r\n        _deposits[msg.sender] = _deposits[msg.sender].add(amount);\r\n        _totalDeposits = _totalDeposits.add(amount);\r\n        _balanceOf[msg.sender] = _balanceOf[msg.sender].add(numberOfLPTokens);\r\n        _totalSupply = _totalSupply.add(numberOfLPTokens);\r\n\r\n        address settingsAddress = ADDRESS_RESOLVER.getContractAddress(\"Settings\");\r\n        address stableCoinAddress = ISettings(settingsAddress).getStableCoinAddress();\r\n\r\n        IERC20(stableCoinAddress).transferFrom(msg.sender, address(this), amount);\r\n\r\n        //Add cUSD to position keys if it's not there already\r\n        uint positionIndex = positionToIndex[stableCoinAddress];\r\n        if (positionIndex == 0)\r\n        {\r\n            _positionKeys[numberOfPositions] = stableCoinAddress;\r\n            positionToIndex[stableCoinAddress] = numberOfPositions;\r\n            numberOfPositions = numberOfPositions.add(1);\r\n        }\r\n\r\n        emit Deposit(address(this), msg.sender, amount, block.timestamp);\r\n    }\r\n\r\n    /**\r\n    * @dev Withdraws the given USD amount on behalf of the user\r\n    * @notice The withdrawal is done using pool's assets at time of withdrawal. This avoids the exchange fees and slippage from exchanging pool's assets back to cUSD or TGEN.\r\n    * @param amount Amount of USD to withdraw from the pool\r\n    */\r\n    function withdraw(uint amount) public override {\r\n        require(amount > 0, \"Pool: Withdrawal must be greater than 0\");\r\n\r\n        uint poolBalance = getPoolBalance();\r\n        uint USDBalance = poolBalance.mul(_balanceOf[msg.sender]).div(_totalSupply);\r\n\r\n        require(USDBalance >= amount, \"Pool: Not enough funds to withdraw\");\r\n\r\n        uint fee = (USDBalance > _deposits[msg.sender]) ? USDBalance.sub(_deposits[msg.sender]) : 0;\r\n        fee = fee.mul(amount).div(USDBalance); //Multiply by ratio of withdrawal amount to USD balance\r\n        fee = fee.mul(_performanceFee).div(100);\r\n\r\n        //Pay performance fee if user has profit\r\n        if (fee > 0) \r\n        {\r\n            _payPerformanceFee(fee);\r\n        }\r\n\r\n        uint depositAmount = _deposits[msg.sender].mul(amount).div(USDBalance);\r\n        uint numberOfLPTokens = _balanceOf[msg.sender].mul(amount).div(USDBalance);\r\n        _balanceOf[msg.sender] = _balanceOf[msg.sender].sub(numberOfLPTokens);\r\n        _totalSupply = _totalSupply.sub(numberOfLPTokens);\r\n        _deposits[msg.sender] = _deposits[msg.sender].sub(depositAmount);\r\n        _totalDeposits = _totalDeposits.sub(depositAmount);\r\n\r\n        //Withdraw user's portion of pool's assets\r\n        for (uint i = 0; i < numberOfPositions; i++)\r\n        {\r\n            uint positionBalance = IERC20(_positionKeys[i]).balanceOf(address(this)); //Number of asset's tokens\r\n            uint amountToTransfer = positionBalance.mul(amount.sub(fee)).div(poolBalance); //Multiply by ratio of withdrawal amount after fee to pool's USD balance\r\n\r\n            IERC20(_positionKeys[i]).transfer(msg.sender, amountToTransfer);\r\n\r\n            //Remove position keys if pool is liquidated\r\n            if (_totalSupply == 0)\r\n            {\r\n                delete positionToIndex[_positionKeys[i]];\r\n                delete _positionKeys[i];\r\n            }\r\n        }\r\n\r\n        //Set numberOfPositions to 0 if pool is liquidated\r\n        if (_totalSupply == 0)\r\n        {\r\n            numberOfPositions = 0;\r\n        }\r\n\r\n        emit Withdraw(address(this), msg.sender, amount, block.timestamp);\r\n    }\r\n\r\n    /**\r\n    * @dev Places an order to buy/sell the given currency\r\n    * @param currencyKey Address of currency to trade\r\n    * @param buyOrSell Whether the user is buying or selling\r\n    * @param numberOfTokens Number of tokens of the given currency\r\n    */\r\n    function placeOrder(address currencyKey, bool buyOrSell, uint numberOfTokens) public override onlyPoolManager {\r\n        address settingsAddress = ADDRESS_RESOLVER.getContractAddress(\"Settings\");\r\n        address baseUbeswapAdapterAddress = ADDRESS_RESOLVER.getContractAddress(\"BaseUbeswapAdapter\");\r\n        address stableCoinAddress = ISettings(settingsAddress).getStableCoinAddress();\r\n\r\n        require(numberOfTokens > 0, \"Pool: Number of tokens must be greater than 0\");\r\n        require(currencyKey != address(0), \"Pool: Invalid currency key\");\r\n        require(ISettings(settingsAddress).checkIfCurrencyIsAvailable(currencyKey), \"Pool: Currency key is not available\");\r\n\r\n        uint numberOfDecimals = IERC20(currencyKey).decimals();\r\n        uint tokenToUSD = IBaseUbeswapAdapter(baseUbeswapAdapterAddress).getPrice(currencyKey);\r\n        uint numberOfTokensReceived;\r\n        uint amountInUSD = numberOfTokens.mul(tokenToUSD).div(10 ** numberOfDecimals);\r\n\r\n        //buying\r\n        if (buyOrSell)\r\n        {\r\n            require(getAvailableFunds() >= amountInUSD, \"Pool: Not enough funds\");\r\n\r\n            //Add to position keys if no position yet\r\n            if (IERC20(currencyKey).balanceOf(address(this)) == 0)\r\n            {\r\n                _positionKeys[numberOfPositions] = currencyKey;\r\n                positionToIndex[currencyKey] = numberOfPositions;\r\n                numberOfPositions = numberOfPositions.add(1);\r\n            }\r\n\r\n            IERC20(stableCoinAddress).transfer(baseUbeswapAdapterAddress, amountInUSD);\r\n            numberOfTokensReceived = IBaseUbeswapAdapter(baseUbeswapAdapterAddress).swapFromPool(stableCoinAddress, currencyKey, amountInUSD, numberOfTokens);\r\n        }\r\n        //selling\r\n        else\r\n        {\r\n            uint positionIndex = positionToIndex[currencyKey];\r\n\r\n            require(positionIndex > 0, \"Pool: Don't have a position in this currency\");\r\n            require(IERC20(currencyKey).balanceOf(address(this)) >= numberOfTokens, \"Pool: Not enough tokens in this currency\");\r\n\r\n            IERC20(currencyKey).transfer(baseUbeswapAdapterAddress, numberOfTokens);\r\n            numberOfTokensReceived = IBaseUbeswapAdapter(baseUbeswapAdapterAddress).swapFromPool(currencyKey, stableCoinAddress, numberOfTokens, numberOfTokens);\r\n\r\n            //remove position key if no funds left in currency\r\n            if (IERC20(currencyKey).balanceOf(address(this)) == 0)\r\n            {\r\n                _positionKeys[positionIndex] = _positionKeys[numberOfPositions - 1];\r\n                delete positionToIndex[currencyKey];\r\n                delete _positionKeys[numberOfPositions - 1];\r\n                numberOfPositions = numberOfPositions.sub(1);\r\n            }\r\n        }\r\n\r\n        emit PlacedOrder(address(this), currencyKey, buyOrSell, numberOfTokens, block.timestamp);\r\n    }\r\n\r\n    /**\r\n    * @dev Adds liquidity for the two given tokens\r\n    * @param tokenA First token in pair\r\n    * @param tokenB Second token in pair\r\n    * @param amountA Amount of first token\r\n    * @param amountB Amount of second token\r\n    * @param farmAddress The token pair's farm address\r\n    */\r\n    function addLiquidity(address tokenA, address tokenB, uint amountA, uint amountB, address farmAddress) public override onlyPoolManager {\r\n        require(tokenA != address(0), \"Pool: invalid address for tokenA\");\r\n        require(tokenB != address(0), \"Pool: invalid address for tokenB\");\r\n        require(amountA > 0, \"Pool: amountA must be greater than 0\");\r\n        require(amountB > 0, \"Pool: amountB must be greater than 0\");\r\n        require(IERC20(tokenA).balanceOf(address(this)) >= amountA, \"Pool: not enough tokens invested in tokenA\");\r\n        require(IERC20(tokenB).balanceOf(address(this)) >= amountB, \"Pool: not enough tokens invested in tokenB\");\r\n\r\n        //Check if farm exists for the token pair\r\n        address baseUbeswapAdapterAddress = ADDRESS_RESOLVER.getContractAddress(\"BaseUbeswapAdapter\");\r\n        address stakingTokenAddress = IBaseUbeswapAdapter(baseUbeswapAdapterAddress).checkIfFarmExists(farmAddress);\r\n        address pairAddress = IBaseUbeswapAdapter(baseUbeswapAdapterAddress).getPair(tokenA, tokenB);\r\n\r\n        require(stakingTokenAddress == pairAddress, \"Pool: stakingTokenAddress does not match pairAddress\");\r\n\r\n        //Add liquidity to Ubeswap pool and stake LP tokens into associated farm\r\n        uint numberOfLPTokens = IBaseUbeswapAdapter(baseUbeswapAdapterAddress).addLiquidity(tokenA, tokenB, amountA, amountB);\r\n        IStakingRewards(stakingTokenAddress).stake(numberOfLPTokens);\r\n\r\n        //Update liquidity positions\r\n        (address token0, address token1) = (tokenA < tokenB) ? (tokenA, tokenB) : (tokenB, tokenA);\r\n        if (liquidityPairToIndex[token0][token1] == 0)\r\n        {\r\n            liquidityPositions[numberOfLiquidityPositions] = LiquidityPair(token0, token1, numberOfLPTokens);\r\n            liquidityPairToIndex[token0][token1] = numberOfLiquidityPositions;\r\n            numberOfLiquidityPositions = numberOfLiquidityPositions.add(1);\r\n        }\r\n        else\r\n        {\r\n            uint index = liquidityPairToIndex[token0][token1];\r\n            liquidityPositions[index].numberOfLPTokens = liquidityPositions[index].numberOfLPTokens.add(numberOfLPTokens);\r\n        }\r\n\r\n        //Remove tokenA from positionKeys if no balance left\r\n        if (IERC20(tokenA).balanceOf(address(this)) == 0)\r\n        {\r\n            _positionKeys[positionToIndex[tokenA]] = _positionKeys[numberOfPositions - 1];\r\n            positionToIndex[_positionKeys[numberOfPositions - 1]] = positionToIndex[tokenA];\r\n            delete _positionKeys[numberOfPositions - 1];\r\n            delete positionToIndex[tokenA];\r\n            numberOfPositions = numberOfPositions.sub(1);\r\n        }\r\n\r\n        //Remove tokenB from positionKeys if no balance left\r\n        if (IERC20(tokenB).balanceOf(address(this)) == 0)\r\n        {\r\n            _positionKeys[positionToIndex[tokenB]] = _positionKeys[numberOfPositions - 1];\r\n            positionToIndex[_positionKeys[numberOfPositions - 1]] = positionToIndex[tokenB];\r\n            delete _positionKeys[numberOfPositions - 1];\r\n            delete positionToIndex[tokenB];\r\n            numberOfPositions = numberOfPositions.sub(1);\r\n        }\r\n\r\n        emit AddedLiquidity(address(this), tokenA, tokenB, amountA, amountB, numberOfLPTokens, block.timestamp);\r\n    }\r\n\r\n    /**\r\n    * @dev Removes liquidity for the two given tokens\r\n    * @param tokenA First token in pair\r\n    * @param tokenB Second token in pair\r\n    * @param farmAddress The token pair's farm address\r\n    */\r\n    function removeLiquidity(address tokenA, address tokenB, address farmAddress) public override onlyPoolManager {\r\n        require(tokenA != address(0), \"Pool: invalid address for tokenA\");\r\n        require(tokenB != address(0), \"Pool: invalid address for tokenB\");\r\n\r\n        //Check if pool has LP tokens in the farm\r\n        (address token0, address token1) = (tokenA < tokenB) ? (tokenA, tokenB) : (tokenB, tokenA);\r\n        uint index = liquidityPairToIndex[token0][token1];\r\n        uint numberOfLPTokens = liquidityPositions[index].numberOfLPTokens;\r\n        require(numberOfLPTokens > 0, \"Pool: no LP tokens to unstake\");\r\n\r\n        //Check if farmAddress is valid\r\n        address baseUbeswapAdapterAddress = ADDRESS_RESOLVER.getContractAddress(\"BaseUbeswapAdapter\");\r\n        require(IBaseUbeswapAdapter(baseUbeswapAdapterAddress).checkIfFarmExists(farmAddress) != address(0), \"Invalid farm address\");\r\n\r\n        //Withdraw LP tokens from the farm and claim available UBE rewards\r\n        IStakingRewards(farmAddress).exit();\r\n\r\n        //Check for UBE balance and update position keys if UBE not currently in postion keys\r\n        address settingsAddress = ADDRESS_RESOLVER.getContractAddress(\"Settings\");\r\n        address UBE = ISettings(settingsAddress).getCurrencyKeyFromSymbol(\"UBE\");\r\n        if (IERC20(UBE).balanceOf(address(this)) > 0 && positionToIndex[UBE] == 0)\r\n        {\r\n            positionToIndex[UBE] = numberOfPositions;\r\n            _positionKeys[numberOfPositions] = UBE;\r\n            numberOfPositions = numberOfPositions.add(1);\r\n        }\r\n\r\n        //Remove liquidity from Ubeswap liquidity pool\r\n        (uint amountA, uint amountB) = IBaseUbeswapAdapter(baseUbeswapAdapterAddress).removeLiquidity(tokenA, tokenB, liquidityPositions[index].numberOfLPTokens);\r\n\r\n        //Add tokenA to positionKeys if balance > 0 and not currently in positionKeys\r\n        if (IERC20(tokenA).balanceOf(address(this)) > 0 && positionToIndex[tokenA] == 0)\r\n        {\r\n            positionToIndex[tokenA] = numberOfPositions;\r\n            _positionKeys[numberOfPositions] = tokenA;\r\n            numberOfPositions = numberOfPositions.add(1);\r\n        }\r\n\r\n        //Add tokenB to positionKeys if balance > 0 and not currently in positionKeys\r\n        if (IERC20(tokenB).balanceOf(address(this)) > 0 && positionToIndex[tokenB] == 0)\r\n        {\r\n            positionToIndex[tokenB] = numberOfPositions;\r\n            _positionKeys[numberOfPositions] = tokenB;\r\n            numberOfPositions = numberOfPositions.add(1);\r\n        }\r\n\r\n        //Update liquidity positions\r\n        liquidityPositions[index] = liquidityPositions[numberOfLiquidityPositions - 1];\r\n        delete liquidityPairToIndex[token0][token1];\r\n        numberOfLiquidityPositions = numberOfLiquidityPositions.sub(1);\r\n\r\n        emit RemovedLiquidity(address(this), tokenA, tokenB, numberOfLPTokens, amountA, amountB, block.timestamp);\r\n    }\r\n\r\n    /**\r\n    * @dev Collects available UBE rewards for the given Ubeswap farm\r\n    * @param farmAddress The token pair's farm address\r\n    */\r\n    function claimUbeswapRewards(address farmAddress) public override onlyPoolManager {\r\n        //Check if farmAddress is valid\r\n        address baseUbeswapAdapterAddress = ADDRESS_RESOLVER.getContractAddress(\"BaseUbeswapAdapter\");\r\n        require(IBaseUbeswapAdapter(baseUbeswapAdapterAddress).checkIfFarmExists(farmAddress) != address(0), \"Invalid farm address\");\r\n\r\n        //Check if pool has tokens staked in farm\r\n        require(IStakingRewards(farmAddress).balanceOf(address(this)) > 0, \"Pool: no tokens staked in farm\");\r\n\r\n        //Claim available UBE rewards\r\n        IStakingRewards(farmAddress).getReward();\r\n\r\n        //Check for UBE balance and update position keys if UBE not currently in postion keys\r\n        address settingsAddress = ADDRESS_RESOLVER.getContractAddress(\"Settings\");\r\n        address UBE = ISettings(settingsAddress).getCurrencyKeyFromSymbol(\"UBE\");\r\n        if (IERC20(UBE).balanceOf(address(this)) > 0 && positionToIndex[UBE] == 0)\r\n        {\r\n            positionToIndex[UBE] = numberOfPositions;\r\n            _positionKeys[numberOfPositions] = UBE;\r\n            numberOfPositions = numberOfPositions.add(1);\r\n        }\r\n\r\n        emit ClaimedUbeswapRewards(address(this), farmAddress, block.timestamp);\r\n    }\r\n\r\n    /**\r\n    * @dev Updates the pool's farm address\r\n    * @param farmAddress Address of the pool's farm\r\n    */\r\n    function setFarmAddress(address farmAddress) public override onlyPoolFactory {\r\n        require(farmAddress != address(0), \"Invalid farm address\");\r\n\r\n        _farmAddress = farmAddress;\r\n    }\r\n\r\n    /* ========== INTERNAL FUNCTIONS ========== */\r\n\r\n    /**\r\n    * @dev Pay performance fee on the user's profit when the user withdraws from the pool\r\n    * @notice Performance fee is paid in pool's assets at time of withdrawal\r\n    * @param fee Amount of cUSD to pay as a fee\r\n    */\r\n    function _payPerformanceFee(uint fee) internal {\r\n        uint poolBalance = getPoolBalance();\r\n        address feePoolAddress = ADDRESS_RESOLVER.getContractAddress(\"FeePool\");\r\n\r\n        //Convert _positionKeys mapping to array\r\n        address[] memory positions = new address[](numberOfPositions);\r\n        for (uint i = 0; i < numberOfPositions; i++)\r\n        {\r\n            positions[i] = _positionKeys[i];\r\n        }\r\n\r\n        IFeePool(feePoolAddress).addPositionKeys(positions);\r\n\r\n        //Withdraw performance fee proportional to pool's assets\r\n        for (uint i = 0; i < numberOfPositions; i++)\r\n        {\r\n            uint positionBalance = IERC20(positions[i]).balanceOf(address(this));\r\n            uint amountToTransfer = positionBalance.mul(fee).div(poolBalance);\r\n\r\n            IERC20(positions[i]).transfer(feePoolAddress, amountToTransfer);\r\n        }\r\n\r\n        IFeePool(feePoolAddress).addFees(_manager, fee);\r\n    }\r\n\r\n    function _calculateValueOfLPTokens(address tokenA, address tokenB, uint numberOfLPTokens) internal view returns (uint) {\r\n        require(tokenA != address(0), \"Pool: invalid address for tokenA\");\r\n        require(tokenB != address(0), \"Pool: invalid address for tokenB\");\r\n        \r\n        if (numberOfLPTokens == 0)\r\n        {\r\n            return 0;\r\n        }\r\n\r\n        address baseUbeswapAdapterAddress = ADDRESS_RESOLVER.getContractAddress(\"BaseUbeswapAdapter\");\r\n        (uint amountA, uint amountB) = IBaseUbeswapAdapter(baseUbeswapAdapterAddress).getTokenAmountsFromPair(tokenA, tokenB, numberOfLPTokens);\r\n\r\n        uint numberOfDecimalsA = IERC20(tokenA).decimals();\r\n        uint USDperTokenA = IBaseUbeswapAdapter(baseUbeswapAdapterAddress).getPrice(tokenA);\r\n        uint USDBalanceA = amountA.mul(USDperTokenA).div(10 ** numberOfDecimalsA);\r\n\r\n        uint numberOfDecimalsB = IERC20(tokenB).decimals();\r\n        uint USDperTokenB = IBaseUbeswapAdapter(baseUbeswapAdapterAddress).getPrice(tokenB);\r\n        uint USDBalanceB = amountB.mul(USDperTokenB).div(10 ** numberOfDecimalsB);\r\n\r\n        return USDBalanceA.add(USDBalanceB);\r\n    }\r\n\r\n    function _approve(address owner, address spender, uint value) private {\r\n        allowance[owner][spender] = value;\r\n        emit Approval(owner, spender, value);\r\n    }\r\n\r\n    function _transfer(address from, address to, uint value) private {\r\n        _balanceOf[from] = _balanceOf[from].sub(value);\r\n        _balanceOf[to] = _balanceOf[to].add(value);\r\n        emit Transfer(from, to, value);\r\n    }\r\n\r\n    /* ========== MODIFIERS ========== */\r\n\r\n    modifier onlyPoolFactory() {\r\n        address poolFactoryAddress = ADDRESS_RESOLVER.getContractAddress(\"PoolFactory\");\r\n\r\n        require(msg.sender == poolFactoryAddress, \"Pool: Only PoolFactory contract can call this function\");\r\n        _;\r\n    }\r\n\r\n    modifier onlyPoolManager() {\r\n        require(msg.sender == _manager, \"Pool: Only pool's manager can call this function\");\r\n        _;\r\n    }\r\n\r\n    /* ========== EVENTS ========== */\r\n\r\n    event Deposit(address indexed poolAddress, address indexed userAddress, uint amount, uint timestamp);\r\n    event Withdraw(address indexed poolAddress, address indexed userAddress, uint amount, uint timestamp);\r\n    event PlacedOrder(address indexed poolAddress, address indexed currencyKey, bool buyOrSell, uint amount, uint timestamp);\r\n    event AddedLiquidity(address indexed poolAddress, address tokenA, address tokenB, uint amountA, uint amountB, uint numberOfLPTokensReceived, uint timestamp);\r\n    event RemovedLiquidity(address indexed poolAddress, address tokenA, address tokenB, uint numberOfLPTokens, uint amountAReceived, uint amountBReceived, uint timestamp);\r\n    event ClaimedUbeswapRewards(address indexed poolAddress, address farmAddress, uint timestamp);\r\n}",
  "sourcePath": "C:/Users/xavie/OneDrive/Desktop/TradeGen/Github/tradegen/contracts/Pool.sol",
  "compiler": {
    "name": "solc",
    "version": "0.6.12+commit.27d51765.Emscripten.clang"
  },
  "schemaVersion": "3.4.1",
  "updatedAt": "2021-08-09T16:04:44.400Z",
  "devdoc": {
    "kind": "dev",
    "methods": {
      "addLiquidity(address,address,uint256,uint256,address)": {
        "details": "Adds liquidity for the two given tokens",
        "params": {
          "amountA": "Amount of first token",
          "amountB": "Amount of second token",
          "farmAddress": "The token pair's farm address",
          "tokenA": "First token in pair",
          "tokenB": "Second token in pair"
        }
      },
      "balanceOf(address)": {
        "details": "Returns the number of LP tokens the user has",
        "params": {
          "user": "Address of the user"
        },
        "returns": {
          "_0": "uint Number of LP tokens the user has"
        }
      },
      "claimUbeswapRewards(address)": {
        "details": "Collects available UBE rewards for the given Ubeswap farm",
        "params": {
          "farmAddress": "The token pair's farm address"
        }
      },
      "deposit(uint256)": {
        "details": "Deposits the given USD amount into the pool",
        "params": {
          "amount": "Amount of USD to deposit into the pool"
        }
      },
      "getAvailableFunds()": {
        "details": "Returns the amount of cUSD the pool has to invest",
        "returns": {
          "_0": "uint Amount of cUSD the pool has available"
        }
      },
      "getFarmAddress()": {
        "details": "Returns the address of the pool's farm",
        "returns": {
          "_0": "address Address of the pool's farm"
        }
      },
      "getManagerAddress()": {
        "details": "Return the pool manager's address",
        "returns": {
          "_0": "address Address of the pool's manager"
        }
      },
      "getPerformanceFee()": {
        "details": "Returns the pool's performance fee",
        "returns": {
          "_0": "uint The pool's performance fee"
        }
      },
      "getPoolBalance()": {
        "details": "Returns the value of the pool in USD",
        "returns": {
          "_0": "uint Value of the pool in USD"
        }
      },
      "getPositionsAndTotal()": {
        "details": "Returns the currency address and balance of each position the pool has, as well as the cumulative value",
        "returns": {
          "_0": "(address[], uint[], uint) Currency address and balance of each position the pool has, and the cumulative value of positions"
        }
      },
      "getUSDBalance(address)": {
        "details": "Returns the balance of the user in USD",
        "returns": {
          "_0": "uint Balance of the user in USD"
        }
      },
      "name()": {
        "details": "Returns the name of the pool",
        "returns": {
          "_0": "string The name of the pool"
        }
      },
      "placeOrder(address,bool,uint256)": {
        "details": "Places an order to buy/sell the given currency",
        "params": {
          "buyOrSell": "Whether the user is buying or selling",
          "currencyKey": "Address of currency to trade",
          "numberOfTokens": "Number of tokens of the given currency"
        }
      },
      "removeLiquidity(address,address,address)": {
        "details": "Removes liquidity for the two given tokens",
        "params": {
          "farmAddress": "The token pair's farm address",
          "tokenA": "First token in pair",
          "tokenB": "Second token in pair"
        }
      },
      "setFarmAddress(address)": {
        "details": "Updates the pool's farm address",
        "params": {
          "farmAddress": "Address of the pool's farm"
        }
      },
      "totalSupply()": {
        "details": "Returns the total supply of LP tokens in the pool",
        "returns": {
          "_0": "uint Total supply of LP tokens"
        }
      },
      "withdraw(uint256)": {
        "details": "Withdraws the given USD amount on behalf of the user",
        "params": {
          "amount": "Amount of USD to withdraw from the pool"
        }
      }
    },
    "version": 1
  },
  "userdoc": {
    "kind": "user",
    "methods": {
      "deposit(uint256)": {
        "notice": "Call cUSD.approve() before calling this function"
      },
      "withdraw(uint256)": {
        "notice": "The withdrawal is done using pool's assets at time of withdrawal. This avoids the exchange fees and slippage from exchanging pool's assets back to cUSD or TGEN."
      }
    },
    "version": 1
  }
}