{
  "contractName": "Pool",
  "abi": [
    {
      "inputs": [
        {
          "internalType": "string",
          "name": "poolName",
          "type": "string"
        },
        {
          "internalType": "uint256",
          "name": "performanceFee",
          "type": "uint256"
        },
        {
          "internalType": "address",
          "name": "manager",
          "type": "address"
        },
        {
          "internalType": "contract IAddressResolver",
          "name": "addressResolver",
          "type": "address"
        }
      ],
      "stateMutability": "nonpayable",
      "type": "constructor"
    },
    {
      "anonymous": false,
      "inputs": [
        {
          "indexed": true,
          "internalType": "address",
          "name": "owner",
          "type": "address"
        },
        {
          "indexed": true,
          "internalType": "address",
          "name": "spender",
          "type": "address"
        },
        {
          "indexed": false,
          "internalType": "uint256",
          "name": "value",
          "type": "uint256"
        }
      ],
      "name": "Approval",
      "type": "event"
    },
    {
      "anonymous": false,
      "inputs": [
        {
          "indexed": true,
          "internalType": "address",
          "name": "poolAddress",
          "type": "address"
        },
        {
          "indexed": true,
          "internalType": "address",
          "name": "userAddress",
          "type": "address"
        },
        {
          "indexed": false,
          "internalType": "uint256",
          "name": "amount",
          "type": "uint256"
        },
        {
          "indexed": false,
          "internalType": "uint256",
          "name": "timestamp",
          "type": "uint256"
        }
      ],
      "name": "Deposit",
      "type": "event"
    },
    {
      "anonymous": false,
      "inputs": [
        {
          "indexed": true,
          "internalType": "address",
          "name": "poolAddress",
          "type": "address"
        },
        {
          "indexed": true,
          "internalType": "address",
          "name": "manager",
          "type": "address"
        },
        {
          "indexed": false,
          "internalType": "address",
          "name": "to",
          "type": "address"
        },
        {
          "indexed": false,
          "internalType": "uint256",
          "name": "timestamp",
          "type": "uint256"
        }
      ],
      "name": "ExecutedTransaction",
      "type": "event"
    },
    {
      "anonymous": false,
      "inputs": [
        {
          "indexed": true,
          "internalType": "address",
          "name": "poolAddress",
          "type": "address"
        },
        {
          "indexed": true,
          "internalType": "address",
          "name": "manager",
          "type": "address"
        },
        {
          "indexed": false,
          "internalType": "uint256",
          "name": "amount",
          "type": "uint256"
        },
        {
          "indexed": false,
          "internalType": "uint256",
          "name": "timestamp",
          "type": "uint256"
        }
      ],
      "name": "MintedManagerFee",
      "type": "event"
    },
    {
      "anonymous": false,
      "inputs": [
        {
          "indexed": true,
          "internalType": "address",
          "name": "poolAddress",
          "type": "address"
        },
        {
          "indexed": true,
          "internalType": "address",
          "name": "manager",
          "type": "address"
        },
        {
          "indexed": false,
          "internalType": "uint256",
          "name": "timestamp",
          "type": "uint256"
        }
      ],
      "name": "RemovedEmptyPositions",
      "type": "event"
    },
    {
      "anonymous": false,
      "inputs": [
        {
          "indexed": true,
          "internalType": "address",
          "name": "from",
          "type": "address"
        },
        {
          "indexed": true,
          "internalType": "address",
          "name": "to",
          "type": "address"
        },
        {
          "indexed": false,
          "internalType": "uint256",
          "name": "value",
          "type": "uint256"
        }
      ],
      "name": "Transfer",
      "type": "event"
    },
    {
      "anonymous": false,
      "inputs": [
        {
          "indexed": true,
          "internalType": "address",
          "name": "poolAddress",
          "type": "address"
        },
        {
          "indexed": true,
          "internalType": "address",
          "name": "userAddress",
          "type": "address"
        },
        {
          "indexed": false,
          "internalType": "uint256",
          "name": "numberOfPoolTokens",
          "type": "uint256"
        },
        {
          "indexed": false,
          "internalType": "uint256",
          "name": "valueWithdrawn",
          "type": "uint256"
        },
        {
          "indexed": false,
          "internalType": "address[]",
          "name": "assets",
          "type": "address[]"
        },
        {
          "indexed": false,
          "internalType": "uint256[]",
          "name": "amountsWithdrawn",
          "type": "uint256[]"
        },
        {
          "indexed": false,
          "internalType": "uint256",
          "name": "timestamp",
          "type": "uint256"
        }
      ],
      "name": "Withdraw",
      "type": "event"
    },
    {
      "inputs": [],
      "name": "ADDRESS_RESOLVER",
      "outputs": [
        {
          "internalType": "contract IAddressResolver",
          "name": "",
          "type": "address"
        }
      ],
      "stateMutability": "view",
      "type": "function"
    },
    {
      "inputs": [
        {
          "internalType": "address",
          "name": "",
          "type": "address"
        }
      ],
      "name": "_balanceOf",
      "outputs": [
        {
          "internalType": "uint256",
          "name": "",
          "type": "uint256"
        }
      ],
      "stateMutability": "view",
      "type": "function"
    },
    {
      "inputs": [],
      "name": "_farmAddress",
      "outputs": [
        {
          "internalType": "address",
          "name": "",
          "type": "address"
        }
      ],
      "stateMutability": "view",
      "type": "function"
    },
    {
      "inputs": [],
      "name": "_manager",
      "outputs": [
        {
          "internalType": "address",
          "name": "",
          "type": "address"
        }
      ],
      "stateMutability": "view",
      "type": "function"
    },
    {
      "inputs": [],
      "name": "_name",
      "outputs": [
        {
          "internalType": "string",
          "name": "",
          "type": "string"
        }
      ],
      "stateMutability": "view",
      "type": "function"
    },
    {
      "inputs": [],
      "name": "_performanceFee",
      "outputs": [
        {
          "internalType": "uint256",
          "name": "",
          "type": "uint256"
        }
      ],
      "stateMutability": "view",
      "type": "function"
    },
    {
      "inputs": [
        {
          "internalType": "uint256",
          "name": "",
          "type": "uint256"
        }
      ],
      "name": "_positionKeys",
      "outputs": [
        {
          "internalType": "address",
          "name": "",
          "type": "address"
        }
      ],
      "stateMutability": "view",
      "type": "function"
    },
    {
      "inputs": [],
      "name": "_tokenPriceAtLastFeeMint",
      "outputs": [
        {
          "internalType": "uint256",
          "name": "",
          "type": "uint256"
        }
      ],
      "stateMutability": "view",
      "type": "function"
    },
    {
      "inputs": [],
      "name": "_totalSupply",
      "outputs": [
        {
          "internalType": "uint256",
          "name": "",
          "type": "uint256"
        }
      ],
      "stateMutability": "view",
      "type": "function"
    },
    {
      "inputs": [
        {
          "internalType": "address",
          "name": "",
          "type": "address"
        },
        {
          "internalType": "address",
          "name": "",
          "type": "address"
        }
      ],
      "name": "allowance",
      "outputs": [
        {
          "internalType": "uint256",
          "name": "",
          "type": "uint256"
        }
      ],
      "stateMutability": "view",
      "type": "function"
    },
    {
      "inputs": [],
      "name": "numberOfPositions",
      "outputs": [
        {
          "internalType": "uint256",
          "name": "",
          "type": "uint256"
        }
      ],
      "stateMutability": "view",
      "type": "function"
    },
    {
      "inputs": [
        {
          "internalType": "address",
          "name": "",
          "type": "address"
        }
      ],
      "name": "positionToIndex",
      "outputs": [
        {
          "internalType": "uint256",
          "name": "",
          "type": "uint256"
        }
      ],
      "stateMutability": "view",
      "type": "function"
    },
    {
      "inputs": [],
      "name": "name",
      "outputs": [
        {
          "internalType": "string",
          "name": "",
          "type": "string"
        }
      ],
      "stateMutability": "view",
      "type": "function"
    },
    {
      "inputs": [],
      "name": "symbol",
      "outputs": [
        {
          "internalType": "string",
          "name": "",
          "type": "string"
        }
      ],
      "stateMutability": "pure",
      "type": "function"
    },
    {
      "inputs": [],
      "name": "decimals",
      "outputs": [
        {
          "internalType": "uint8",
          "name": "",
          "type": "uint8"
        }
      ],
      "stateMutability": "pure",
      "type": "function"
    },
    {
      "inputs": [],
      "name": "getFarmAddress",
      "outputs": [
        {
          "internalType": "address",
          "name": "",
          "type": "address"
        }
      ],
      "stateMutability": "view",
      "type": "function"
    },
    {
      "inputs": [],
      "name": "getManagerAddress",
      "outputs": [
        {
          "internalType": "address",
          "name": "",
          "type": "address"
        }
      ],
      "stateMutability": "view",
      "type": "function"
    },
    {
      "inputs": [
        {
          "internalType": "address",
          "name": "asset",
          "type": "address"
        },
        {
          "internalType": "address",
          "name": "assetHandlerAddress",
          "type": "address"
        }
      ],
      "name": "getAssetValue",
      "outputs": [
        {
          "internalType": "uint256",
          "name": "",
          "type": "uint256"
        }
      ],
      "stateMutability": "view",
      "type": "function"
    },
    {
      "inputs": [],
      "name": "getPositionsAndTotal",
      "outputs": [
        {
          "internalType": "address[]",
          "name": "",
          "type": "address[]"
        },
        {
          "internalType": "uint256[]",
          "name": "",
          "type": "uint256[]"
        },
        {
          "internalType": "uint256",
          "name": "",
          "type": "uint256"
        }
      ],
      "stateMutability": "view",
      "type": "function"
    },
    {
      "inputs": [],
      "name": "getAvailableFunds",
      "outputs": [
        {
          "internalType": "uint256",
          "name": "",
          "type": "uint256"
        }
      ],
      "stateMutability": "view",
      "type": "function"
    },
    {
      "inputs": [],
      "name": "getPoolValue",
      "outputs": [
        {
          "internalType": "uint256",
          "name": "",
          "type": "uint256"
        }
      ],
      "stateMutability": "view",
      "type": "function"
    },
    {
      "inputs": [
        {
          "internalType": "address",
          "name": "user",
          "type": "address"
        }
      ],
      "name": "getUSDBalance",
      "outputs": [
        {
          "internalType": "uint256",
          "name": "",
          "type": "uint256"
        }
      ],
      "stateMutability": "view",
      "type": "function"
    },
    {
      "inputs": [
        {
          "internalType": "address",
          "name": "user",
          "type": "address"
        }
      ],
      "name": "balanceOf",
      "outputs": [
        {
          "internalType": "uint256",
          "name": "",
          "type": "uint256"
        }
      ],
      "stateMutability": "view",
      "type": "function"
    },
    {
      "inputs": [],
      "name": "totalSupply",
      "outputs": [
        {
          "internalType": "uint256",
          "name": "",
          "type": "uint256"
        }
      ],
      "stateMutability": "view",
      "type": "function"
    },
    {
      "inputs": [],
      "name": "getPerformanceFee",
      "outputs": [
        {
          "internalType": "uint256",
          "name": "",
          "type": "uint256"
        }
      ],
      "stateMutability": "view",
      "type": "function"
    },
    {
      "inputs": [],
      "name": "tokenPrice",
      "outputs": [
        {
          "internalType": "uint256",
          "name": "",
          "type": "uint256"
        }
      ],
      "stateMutability": "view",
      "type": "function"
    },
    {
      "inputs": [],
      "name": "availableManagerFee",
      "outputs": [
        {
          "internalType": "uint256",
          "name": "",
          "type": "uint256"
        }
      ],
      "stateMutability": "view",
      "type": "function"
    },
    {
      "inputs": [
        {
          "internalType": "address",
          "name": "spender",
          "type": "address"
        },
        {
          "internalType": "uint256",
          "name": "value",
          "type": "uint256"
        }
      ],
      "name": "approve",
      "outputs": [
        {
          "internalType": "bool",
          "name": "",
          "type": "bool"
        }
      ],
      "stateMutability": "nonpayable",
      "type": "function"
    },
    {
      "inputs": [
        {
          "internalType": "address",
          "name": "to",
          "type": "address"
        },
        {
          "internalType": "uint256",
          "name": "value",
          "type": "uint256"
        }
      ],
      "name": "transfer",
      "outputs": [
        {
          "internalType": "bool",
          "name": "",
          "type": "bool"
        }
      ],
      "stateMutability": "nonpayable",
      "type": "function"
    },
    {
      "inputs": [
        {
          "internalType": "address",
          "name": "from",
          "type": "address"
        },
        {
          "internalType": "address",
          "name": "to",
          "type": "address"
        },
        {
          "internalType": "uint256",
          "name": "value",
          "type": "uint256"
        }
      ],
      "name": "transferFrom",
      "outputs": [
        {
          "internalType": "bool",
          "name": "",
          "type": "bool"
        }
      ],
      "stateMutability": "nonpayable",
      "type": "function"
    },
    {
      "inputs": [],
      "name": "mintManagerFee",
      "outputs": [],
      "stateMutability": "nonpayable",
      "type": "function"
    },
    {
      "inputs": [
        {
          "internalType": "uint256",
          "name": "amount",
          "type": "uint256"
        }
      ],
      "name": "deposit",
      "outputs": [],
      "stateMutability": "nonpayable",
      "type": "function"
    },
    {
      "inputs": [
        {
          "internalType": "uint256",
          "name": "numberOfPoolTokens",
          "type": "uint256"
        }
      ],
      "name": "withdraw",
      "outputs": [],
      "stateMutability": "nonpayable",
      "type": "function"
    },
    {
      "inputs": [],
      "name": "exit",
      "outputs": [],
      "stateMutability": "nonpayable",
      "type": "function"
    },
    {
      "inputs": [
        {
          "internalType": "address",
          "name": "to",
          "type": "address"
        },
        {
          "internalType": "bytes",
          "name": "data",
          "type": "bytes"
        }
      ],
      "name": "executeTransaction",
      "outputs": [],
      "stateMutability": "nonpayable",
      "type": "function"
    },
    {
      "inputs": [],
      "name": "removeEmptyPositions",
      "outputs": [],
      "stateMutability": "nonpayable",
      "type": "function"
    },
    {
      "inputs": [
        {
          "internalType": "address",
          "name": "farmAddress",
          "type": "address"
        }
      ],
      "name": "setFarmAddress",
      "outputs": [],
      "stateMutability": "nonpayable",
      "type": "function"
    }
  ],
  "bytecode": "0x60806040523480156200001157600080fd5b506040516200525f3803806200525f83398181016040528101906200003791906200025e565b83600190805190602001906200004f929190620000f1565b5081600360006101000a81548173ffffffffffffffffffffffffffffffffffffffff021916908373ffffffffffffffffffffffffffffffffffffffff16021790555082600481905550806000806101000a81548173ffffffffffffffffffffffffffffffffffffffff021916908373ffffffffffffffffffffffffffffffffffffffff160217905550670de0b6b3a76400006006819055505050505062000422565b828054600181600116156101000203166002900490600052602060002090601f01602090048101928262000129576000855562000175565b82601f106200014457805160ff191683800117855562000175565b8280016001018555821562000175579182015b828111156200017457825182559160200191906001019062000157565b5b50905062000184919062000188565b5090565b5b80821115620001a357600081600090555060010162000189565b5090565b6000620001be620001b88462000317565b620002e3565b905082815260208101848484011115620001d757600080fd5b620001e48482856200039c565b509392505050565b600081519050620001fd81620003d4565b92915050565b6000815190506200021481620003ee565b92915050565b600082601f8301126200022c57600080fd5b81516200023e848260208601620001a7565b91505092915050565b600081519050620002588162000408565b92915050565b600080600080608085870312156200027557600080fd5b600085015167ffffffffffffffff8111156200029057600080fd5b6200029e878288016200021a565b9450506020620002b18782880162000247565b9350506040620002c487828801620001ec565b9250506060620002d78782880162000203565b91505092959194509250565b6000604051905081810181811067ffffffffffffffff821117156200030d576200030c620003d2565b5b8060405250919050565b600067ffffffffffffffff821115620003355762000334620003d2565b5b601f19601f8301169050602081019050919050565b6000620003578262000372565b9050919050565b60006200036b826200034a565b9050919050565b600073ffffffffffffffffffffffffffffffffffffffff82169050919050565b6000819050919050565b60005b83811015620003bc5780820151818401526020810190506200039f565b83811115620003cc576000848401525b50505050565bfe5b620003df816200034a565b8114620003eb57600080fd5b50565b620003f9816200035e565b81146200040557600080fd5b50565b620004138162000392565b81146200041f57600080fd5b50565b614e2d80620004326000396000f3fe608060405234801561001057600080fd5b50600436106102275760003560e01c80637ff9b59611610130578063c162d7da116100b8578063dd62ed3e1161007c578063dd62ed3e14610660578063e9fad8ee14610690578063edbf6f501461069a578063f0329f6b146106b8578063f0f3da5e146106d657610227565b8063c162d7da146105ce578063cc3c6df6146105ec578063cca3e832146105f6578063d28d885214610626578063d97998091461064457610227565b8063981f3b8e116100ff578063981f3b8e146105265780639db3235314610544578063a9059cbb14610562578063ac08c57414610592578063b6b55f25146105b257610227565b80637ff9b5961461049c57806380e28293146104ba57806395d4e5da146104d857806395d89b411461050857610227565b80632ed8e0d4116101b35780635195bd29116101825780635195bd29146103e45780635cb035ad146104025780636ca0f814146104325780636e1d9d2d1461044e57806370a082311461046c57610227565b80632ed8e0d41461036e578063313ce5671461039e5780633eaaf86b146103bc57806347b339ca146103da57610227565b80631ba2f531116101fa5780631ba2f531146102b65780632322e3b9146102d4578063235c36031461030457806323b872dd146103225780632e1a7d4d1461035257610227565b806306fdde031461022c578063095ea7b31461024a57806318160ddd1461027a5780631978d6bc14610298575b600080fd5b6102346106f4565b604051610241919061484a565b60405180910390f35b610264600480360381019061025f9190613d6f565b610796565b6040516102719190614814565b60405180910390f35b6102826107ad565b60405161028f9190614aac565b60405180910390f35b6102a06107b7565b6040516102ad9190614aac565b60405180910390f35b6102be6107bd565b6040516102cb9190614aac565b60405180910390f35b6102ee60048036038101906102e99190613c3e565b6108e1565b6040516102fb9190614aac565b60405180910390f35b61030c6109cc565b6040516103199190614aac565b60405180910390f35b61033c60048036038101906103379190613ccc565b6109d6565b6040516103499190614814565b60405180910390f35b61036c60048036038101906103679190613e77565b610b82565b005b61038860048036038101906103839190613e77565b6110bf565b6040516103959190614671565b60405180910390f35b6103a66110f2565b6040516103b39190614b51565b60405180910390f35b6103c46110fb565b6040516103d19190614aac565b60405180910390f35b6103e2611101565b005b6103ec61128e565b6040516103f99190614aac565b60405180910390f35b61041c60048036038101906104179190613c3e565b61144c565b6040516104299190614aac565b60405180910390f35b61044c60048036038101906104479190613d1b565b611464565b005b610456611b34565b6040516104639190614671565b60405180910390f35b61048660048036038101906104819190613c3e565b611b5e565b6040516104939190614aac565b60405180910390f35b6104a4611c16565b6040516104b19190614aac565b60405180910390f35b6104c2611c32565b6040516104cf9190614aac565b60405180910390f35b6104f260048036038101906104ed9190613c90565b611c38565b6040516104ff9190614aac565b60405180910390f35b610510611ef5565b60405161051d919061484a565b60405180910390f35b61052e611f0c565b60405161053b919061482f565b60405180910390f35b61054c611f30565b6040516105599190614aac565b60405180910390f35b61057c60048036038101906105779190613d6f565b611f36565b6040516105899190614814565b60405180910390f35b61059a611f4d565b6040516105a9939291906147cf565b60405180910390f35b6105cc60048036038101906105c79190613e77565b61243b565b005b6105d66127aa565b6040516105e39190614671565b60405180910390f35b6105f46127d4565b005b610610600480360381019061060b9190613c3e565b61286f565b60405161061d9190614aac565b60405180910390f35b61062e612887565b60405161063b919061484a565b60405180910390f35b61065e60048036038101906106599190613c3e565b612925565b005b61067a60048036038101906106759190613c90565b612af4565b6040516106879190614aac565b60405180910390f35b610698612b19565b005b6106a2612b2c565b6040516106af9190614aac565b60405180910390f35b6106c0612be5565b6040516106cd9190614671565b60405180910390f35b6106de612c0b565b6040516106eb9190614671565b60405180910390f35b606060018054600181600116156101000203166002900480601f01602080910402602001604051908101604052809291908181526020018280546001816001161561010002031660029004801561078c5780601f106107615761010080835404028352916020019161078c565b820191906000526020600020905b81548152906001019060200180831161076f57829003601f168201915b5050505050905090565b60006107a3338484612c31565b6001905092915050565b6000600254905090565b60065481565b60008060008054906101000a900473ffffffffffffffffffffffffffffffffffffffff1673ffffffffffffffffffffffffffffffffffffffff166304433bbc6040518163ffffffff1660e01b815260040161081790614a6c565b60206040518083038186803b15801561082f57600080fd5b505afa158015610843573d6000803e3d6000fd5b505050506040513d601f19601f820116820180604052508101906108679190613c67565b9050600080600190505b600a5481116108d8576108c96108ba6009600084815260200190815260200160002060009054906101000a900473ffffffffffffffffffffffffffffffffffffffff1685611c38565b83612d1c90919063ffffffff16565b91508080600101915050610871565b50809250505090565b60008073ffffffffffffffffffffffffffffffffffffffff168273ffffffffffffffffffffffffffffffffffffffff161415610952576040517f08c379a00000000000000000000000000000000000000000000000000000000081526004016109499061490c565b60405180910390fd5b600061095c6107bd565b90506109c46002546109b6600760008773ffffffffffffffffffffffffffffffffffffffff1673ffffffffffffffffffffffffffffffffffffffff1681526020019081526020016000205484612d3890919063ffffffff16565b612d6f90919063ffffffff16565b915050919050565b6000600454905090565b600080600860008673ffffffffffffffffffffffffffffffffffffffff1673ffffffffffffffffffffffffffffffffffffffff16815260200190815260200160002060003373ffffffffffffffffffffffffffffffffffffffff1673ffffffffffffffffffffffffffffffffffffffff168152602001908152602001600020541115610b6c57610aeb82600860008773ffffffffffffffffffffffffffffffffffffffff1673ffffffffffffffffffffffffffffffffffffffff16815260200190815260200160002060003373ffffffffffffffffffffffffffffffffffffffff1673ffffffffffffffffffffffffffffffffffffffff16815260200190815260200160002054612d8890919063ffffffff16565b600860008673ffffffffffffffffffffffffffffffffffffffff1673ffffffffffffffffffffffffffffffffffffffff16815260200190815260200160002060003373ffffffffffffffffffffffffffffffffffffffff1673ffffffffffffffffffffffffffffffffffffffff168152602001908152602001600020819055505b610b77848484612d9f565b600190509392505050565b60008111610bc5576040517f08c379a0000000000000000000000000000000000000000000000000000000008152600401610bbc9061486c565b60405180910390fd5b80600760003373ffffffffffffffffffffffffffffffffffffffff1673ffffffffffffffffffffffffffffffffffffffff168152602001908152602001600020541015610c47576040517f08c379a0000000000000000000000000000000000000000000000000000000008152600401610c3e906149ec565b60405180910390fd5b6000610c51612f33565b90506000610c84600254610c76670de0b6b3a764000086612d3890919063ffffffff16565b612d6f90919063ffffffff16565b9050610cd883600760003373ffffffffffffffffffffffffffffffffffffffff1673ffffffffffffffffffffffffffffffffffffffff16815260200190815260200160002054612d8890919063ffffffff16565b600760003373ffffffffffffffffffffffffffffffffffffffff1673ffffffffffffffffffffffffffffffffffffffff16815260200190815260200160002081905550610d3083600254612d8890919063ffffffff16565b6002819055506000600a5467ffffffffffffffff81118015610d5157600080fd5b50604051908082528060200260200182016040528015610d805781602001602082028036833780820191505090505b5090506000600a5467ffffffffffffffff81118015610d9e57600080fd5b50604051908082528060200260200182016040528015610dcd5781602001602082028036833780820191505090505b5090506000600a54905060008190505b6000811115611003576000610e266009600084815260200190815260200160002060009054906101000a900473ffffffffffffffffffffffffffffffffffffffff1633886130f6565b90506000811115610fac576009600083815260200190815260200160002060009054906101000a900473ffffffffffffffffffffffffffffffffffffffff1673ffffffffffffffffffffffffffffffffffffffff1663a9059cbb33836040518363ffffffff1660e01b8152600401610e9f9291906146c3565b602060405180830381600087803b158015610eb957600080fd5b505af1158015610ecd573d6000803e3d6000fd5b505050506040513d601f19601f82011682018060405250810190610ef19190613e12565b508085610f08600185612d8890919063ffffffff16565b81518110610f1257fe5b6020026020010181815250506009600083815260200190815260200160002060009054906101000a900473ffffffffffffffffffffffffffffffffffffffff1684610f67600185612d8890919063ffffffff16565b81518110610f7157fe5b602002602001019073ffffffffffffffffffffffffffffffffffffffff16908173ffffffffffffffffffffffffffffffffffffffff16815250505b60006002541415610ff457610ff36009600084815260200190815260200160002060009054906101000a900473ffffffffffffffffffffffffffffffffffffffff1661356d565b5b50808060019003915050610ddd565b5060006002541415611018576000600a819055505b6000611047670de0b6b3a76400006110398789612d3890919063ffffffff16565b612d6f90919063ffffffff16565b90503373ffffffffffffffffffffffffffffffffffffffff163073ffffffffffffffffffffffffffffffffffffffff167fca9c598e2bf8dd0778925b490473eac35c5a204479163ef8e311b67e2bf18bbb89848789426040516110ae959493929190614af0565b60405180910390a350505050505050565b60096020528060005260406000206000915054906101000a900473ffffffffffffffffffffffffffffffffffffffff1681565b60006012905090565b60025481565b600360009054906101000a900473ffffffffffffffffffffffffffffffffffffffff1673ffffffffffffffffffffffffffffffffffffffff163373ffffffffffffffffffffffffffffffffffffffff1614611191576040517f08c379a0000000000000000000000000000000000000000000000000000000008152600401611188906149cc565b60405180910390fd5b6000600a54905060006111ae600183612d8890919063ffffffff16565b90505b60008110611203576111f56009600083815260200190815260200160002060009054906101000a900473ffffffffffffffffffffffffffffffffffffffff1661356d565b8080600190039150506111b1565b50600360009054906101000a900473ffffffffffffffffffffffffffffffffffffffff1673ffffffffffffffffffffffffffffffffffffffff163073ffffffffffffffffffffffffffffffffffffffff167f8e3d29abeef0483a28c9f802de238b3d31da2986dd7c27115a421bc802147c5a426040516112839190614aac565b60405180910390a350565b60008060008054906101000a900473ffffffffffffffffffffffffffffffffffffffff1673ffffffffffffffffffffffffffffffffffffffff166304433bbc6040518163ffffffff1660e01b81526004016112e890614a6c565b60206040518083038186803b15801561130057600080fd5b505afa158015611314573d6000803e3d6000fd5b505050506040513d601f19601f820116820180604052508101906113389190613c67565b905060008173ffffffffffffffffffffffffffffffffffffffff1663be781b1c6040518163ffffffff1660e01b815260040160206040518083038186803b15801561138257600080fd5b505afa158015611396573d6000803e3d6000fd5b505050506040513d601f19601f820116820180604052508101906113ba9190613c67565b90508073ffffffffffffffffffffffffffffffffffffffff166370a08231306040518263ffffffff1660e01b81526004016113f59190614671565b60206040518083038186803b15801561140d57600080fd5b505afa158015611421573d6000803e3d6000fd5b505050506040513d601f19601f820116820180604052508101906114459190613ea0565b9250505090565b600b6020528060005260406000206000915090505481565b600360009054906101000a900473ffffffffffffffffffffffffffffffffffffffff1673ffffffffffffffffffffffffffffffffffffffff163373ffffffffffffffffffffffffffffffffffffffff16146114f4576040517f08c379a00000000000000000000000000000000000000000000000000000000081526004016114eb906149cc565b60405180910390fd5b600073ffffffffffffffffffffffffffffffffffffffff168273ffffffffffffffffffffffffffffffffffffffff161415611564576040517f08c379a000000000000000000000000000000000000000000000000000000000815260040161155b906148ec565b60405180910390fd5b60008060009054906101000a900473ffffffffffffffffffffffffffffffffffffffff1673ffffffffffffffffffffffffffffffffffffffff16632febaebd846040518263ffffffff1660e01b81526004016115c09190614671565b60206040518083038186803b1580156115d857600080fd5b505afa1580156115ec573d6000803e3d6000fd5b505050506040513d601f19601f820116820180604052508101906116109190613c67565b9050600073ffffffffffffffffffffffffffffffffffffffff168173ffffffffffffffffffffffffffffffffffffffff1614156118865760008060009054906101000a900473ffffffffffffffffffffffffffffffffffffffff1673ffffffffffffffffffffffffffffffffffffffff166304433bbc6040518163ffffffff1660e01b81526004016116a190614a6c565b60206040518083038186803b1580156116b957600080fd5b505afa1580156116cd573d6000803e3d6000fd5b505050506040513d601f19601f820116820180604052508101906116f19190613c67565b90508073ffffffffffffffffffffffffffffffffffffffff1663059ce95d856040518263ffffffff1660e01b815260040161172c9190614671565b60206040518083038186803b15801561174457600080fd5b505afa158015611758573d6000803e3d6000fd5b505050506040513d601f19601f8201168201806040525081019061177c9190613c67565b9150600073ffffffffffffffffffffffffffffffffffffffff168273ffffffffffffffffffffffffffffffffffffffff1614611884578073ffffffffffffffffffffffffffffffffffffffff1663cc435bf3856040518263ffffffff1660e01b81526004016117eb9190614671565b60206040518083038186803b15801561180357600080fd5b505afa158015611817573d6000803e3d6000fd5b505050506040513d601f19601f8201168201806040525081019061183b9190613e12565b61187a576040517f08c379a000000000000000000000000000000000000000000000000000000000815260040161187190614a4c565b60405180910390fd5b61188384613888565b5b505b600073ffffffffffffffffffffffffffffffffffffffff168173ffffffffffffffffffffffffffffffffffffffff1614156118f6576040517f08c379a00000000000000000000000000000000000000000000000000000000081526004016118ed906148ac565b60405180910390fd5b6000808273ffffffffffffffffffffffffffffffffffffffff166339158fdd60008054906101000a900473ffffffffffffffffffffffffffffffffffffffff163088886040518563ffffffff1660e01b81526004016119589493929190614715565b6040805180830381600087803b15801561197157600080fd5b505af1158015611985573d6000803e3d6000fd5b505050506040513d601f19601f820116820180604052508101906119a99190613e3b565b91509150816119ed576040517f08c379a00000000000000000000000000000000000000000000000000000000081526004016119e490614a2c565b60405180910390fd5b60008573ffffffffffffffffffffffffffffffffffffffff1685604051611a14919061465a565b6000604051808303816000865af19150503d8060008114611a51576040519150601f19603f3d011682016040523d82523d6000602084013e611a56565b606091505b5050905080611a9a576040517f08c379a0000000000000000000000000000000000000000000000000000000008152600401611a919061498c565b60405180910390fd5b611aa382613888565b600360009054906101000a900473ffffffffffffffffffffffffffffffffffffffff1673ffffffffffffffffffffffffffffffffffffffff163073ffffffffffffffffffffffffffffffffffffffff167fa8ab7184067399e01462520d88b77c0db06e364e9cb4db3254f26c504d4e91b18842604051611b249291906147a6565b60405180910390a3505050505050565b6000600560009054906101000a900473ffffffffffffffffffffffffffffffffffffffff16905090565b60008073ffffffffffffffffffffffffffffffffffffffff168273ffffffffffffffffffffffffffffffffffffffff161415611bcf576040517f08c379a0000000000000000000000000000000000000000000000000000000008152600401611bc69061492c565b60405180910390fd5b600760008373ffffffffffffffffffffffffffffffffffffffff1673ffffffffffffffffffffffffffffffffffffffff168152602001908152602001600020549050919050565b600080611c216107bd565b9050611c2c816139c3565b91505090565b60045481565b60008073ffffffffffffffffffffffffffffffffffffffff168373ffffffffffffffffffffffffffffffffffffffff161415611ca9576040517f08c379a0000000000000000000000000000000000000000000000000000000008152600401611ca090614a0c565b60405180910390fd5b600073ffffffffffffffffffffffffffffffffffffffff168273ffffffffffffffffffffffffffffffffffffffff161415611d19576040517f08c379a0000000000000000000000000000000000000000000000000000000008152600401611d10906149ac565b60405180910390fd5b60008273ffffffffffffffffffffffffffffffffffffffff16638b2f0f4f856040518263ffffffff1660e01b8152600401611d549190614671565b60206040518083038186803b158015611d6c57600080fd5b505afa158015611d80573d6000803e3d6000fd5b505050506040513d601f19601f82011682018060405250810190611da49190613ea0565b905060008373ffffffffffffffffffffffffffffffffffffffff1663cf54aaa0866040518263ffffffff1660e01b8152600401611de19190614671565b60206040518083038186803b158015611df957600080fd5b505afa158015611e0d573d6000803e3d6000fd5b505050506040513d601f19601f82011682018060405250810190611e319190613ea0565b905060008473ffffffffffffffffffffffffffffffffffffffff1663d4fac45d30886040518363ffffffff1660e01b8152600401611e709291906146ec565b60206040518083038186803b158015611e8857600080fd5b505afa158015611e9c573d6000803e3d6000fd5b505050506040513d601f19601f82011682018060405250810190611ec09190613ea0565b9050611eea82600a0a611edc8584612d3890919063ffffffff16565b612d6f90919063ffffffff16565b935050505092915050565b606060405180602001604052806000815250905090565b60008054906101000a900473ffffffffffffffffffffffffffffffffffffffff1681565b600a5481565b6000611f43338484612d9f565b6001905092915050565b60608060008060008054906101000a900473ffffffffffffffffffffffffffffffffffffffff1673ffffffffffffffffffffffffffffffffffffffff166304433bbc6040518163ffffffff1660e01b8152600401611faa90614a6c565b60206040518083038186803b158015611fc257600080fd5b505afa158015611fd6573d6000803e3d6000fd5b505050506040513d601f19601f82011682018060405250810190611ffa9190613c67565b90506000600a5467ffffffffffffffff8111801561201757600080fd5b506040519080825280602002602001820160405280156120465781602001602082028036833780820191505090505b5090506000600a5467ffffffffffffffff8111801561206457600080fd5b506040519080825280602002602001820160405280156120935781602001602082028036833780820191505090505b509050600080600090505b600a54811015612428578473ffffffffffffffffffffffffffffffffffffffff1663d4fac45d30600960006120dd600187612d1c90919063ffffffff16565b815260200190815260200160002060009054906101000a900473ffffffffffffffffffffffffffffffffffffffff166040518363ffffffff1660e01b81526004016121299291906146ec565b60206040518083038186803b15801561214157600080fd5b505afa158015612155573d6000803e3d6000fd5b505050506040513d601f19601f820116820180604052508101906121799190613ea0565b83828151811061218557fe5b602002602001018181525050600960006121a9600184612d1c90919063ffffffff16565b815260200190815260200160002060009054906101000a900473ffffffffffffffffffffffffffffffffffffffff168482815181106121e457fe5b602002602001019073ffffffffffffffffffffffffffffffffffffffff16908173ffffffffffffffffffffffffffffffffffffffff168152505060008573ffffffffffffffffffffffffffffffffffffffff1663cf54aaa060096000612254600187612d1c90919063ffffffff16565b815260200190815260200160002060009054906101000a900473ffffffffffffffffffffffffffffffffffffffff166040518263ffffffff1660e01b815260040161229f9190614671565b60206040518083038186803b1580156122b757600080fd5b505afa1580156122cb573d6000803e3d6000fd5b505050506040513d601f19601f820116820180604052508101906122ef9190613ea0565b905060008673ffffffffffffffffffffffffffffffffffffffff16638b2f0f4f60096000612327600188612d1c90919063ffffffff16565b815260200190815260200160002060009054906101000a900473ffffffffffffffffffffffffffffffffffffffff166040518263ffffffff1660e01b81526004016123729190614671565b60206040518083038186803b15801561238a57600080fd5b505afa15801561239e573d6000803e3d6000fd5b505050506040513d601f19601f820116820180604052508101906123c29190613ea0565b9050600061240183600a0a6123f3848988815181106123dd57fe5b6020026020010151612d3890919063ffffffff16565b612d6f90919063ffffffff16565b90506124168186612d1c90919063ffffffff16565b9450505050808060010191505061209e565b5082828296509650965050505050909192565b6000811161247e576040517f08c379a000000000000000000000000000000000000000000000000000000000815260040161247590614a8c565b60405180910390fd5b60006124886107bd565b90506000806002541161249b57826124c3565b6124c2826124b485600254612d3890919063ffffffff16565b612d6f90919063ffffffff16565b5b905061251781600760003373ffffffffffffffffffffffffffffffffffffffff1673ffffffffffffffffffffffffffffffffffffffff16815260200190815260200160002054612d1c90919063ffffffff16565b600760003373ffffffffffffffffffffffffffffffffffffffff1673ffffffffffffffffffffffffffffffffffffffff1681526020019081526020016000208190555061256f81600254612d1c90919063ffffffff16565b60028190555060008060009054906101000a900473ffffffffffffffffffffffffffffffffffffffff1673ffffffffffffffffffffffffffffffffffffffff166304433bbc6040518163ffffffff1660e01b81526004016125cf90614a6c565b60206040518083038186803b1580156125e757600080fd5b505afa1580156125fb573d6000803e3d6000fd5b505050506040513d601f19601f8201168201806040525081019061261f9190613c67565b905060008173ffffffffffffffffffffffffffffffffffffffff1663be781b1c6040518163ffffffff1660e01b815260040160206040518083038186803b15801561266957600080fd5b505afa15801561267d573d6000803e3d6000fd5b505050506040513d601f19601f820116820180604052508101906126a19190613c67565b90508073ffffffffffffffffffffffffffffffffffffffff166323b872dd3330886040518463ffffffff1660e01b81526004016126e09392919061468c565b602060405180830381600087803b1580156126fa57600080fd5b505af115801561270e573d6000803e3d6000fd5b505050506040513d601f19601f820116820180604052508101906127329190613e12565b5061273c81613888565b3373ffffffffffffffffffffffffffffffffffffffff163073ffffffffffffffffffffffffffffffffffffffff167fdcbc1c05240f31ff3ad067ef1ee35ce4997762752e3a095284754544f4c709d7874260405161279b929190614ac7565b60405180910390a35050505050565b6000600360009054906101000a900473ffffffffffffffffffffffffffffffffffffffff16905090565b600360009054906101000a900473ffffffffffffffffffffffffffffffffffffffff1673ffffffffffffffffffffffffffffffffffffffff163373ffffffffffffffffffffffffffffffffffffffff1614612864576040517f08c379a000000000000000000000000000000000000000000000000000000000815260040161285b906149cc565b60405180910390fd5b61286c612f33565b50565b60076020528060005260406000206000915090505481565b60018054600181600116156101000203166002900480601f01602080910402602001604051908101604052809291908181526020018280546001816001161561010002031660029004801561291d5780601f106128f25761010080835404028352916020019161291d565b820191906000526020600020905b81548152906001019060200180831161290057829003601f168201915b505050505081565b60008060009054906101000a900473ffffffffffffffffffffffffffffffffffffffff1673ffffffffffffffffffffffffffffffffffffffff166304433bbc6040518163ffffffff1660e01b815260040161297f906148cc565b60206040518083038186803b15801561299757600080fd5b505afa1580156129ab573d6000803e3d6000fd5b505050506040513d601f19601f820116820180604052508101906129cf9190613c67565b90508073ffffffffffffffffffffffffffffffffffffffff163373ffffffffffffffffffffffffffffffffffffffff1614612a3f576040517f08c379a0000000000000000000000000000000000000000000000000000000008152600401612a369061494c565b60405180910390fd5b600073ffffffffffffffffffffffffffffffffffffffff168273ffffffffffffffffffffffffffffffffffffffff161415612aaf576040517f08c379a0000000000000000000000000000000000000000000000000000000008152600401612aa69061488c565b60405180910390fd5b81600560006101000a81548173ffffffffffffffffffffffffffffffffffffffff021916908373ffffffffffffffffffffffffffffffffffffffff1602179055505050565b6008602052816000526040600020602052806000526040600020600091509150505481565b612b2a612b2533611b5e565b610b82565b565b600080612b376107bd565b905060006002541480612b4a5750600081145b15612b59576000915050612be2565b6000612b64826139c3565b90506006548111612b7a57600092505050612be2565b612bdd81612bcf612710612bc1600454612bb3600254612ba56006548a612d8890919063ffffffff16565b612d3890919063ffffffff16565b612d3890919063ffffffff16565b612d6f90919063ffffffff16565b612d6f90919063ffffffff16565b925050505b90565b600360009054906101000a900473ffffffffffffffffffffffffffffffffffffffff1681565b600560009054906101000a900473ffffffffffffffffffffffffffffffffffffffff1681565b80600860008573ffffffffffffffffffffffffffffffffffffffff1673ffffffffffffffffffffffffffffffffffffffff16815260200190815260200160002060008473ffffffffffffffffffffffffffffffffffffffff1673ffffffffffffffffffffffffffffffffffffffff168152602001908152602001600020819055508173ffffffffffffffffffffffffffffffffffffffff168373ffffffffffffffffffffffffffffffffffffffff167f8c5be1e5ebec7d5bd14f71427d1e84f3dd0314c0f7b2291e5b200ac8c7c3b92583604051612d0f9190614aac565b60405180910390a3505050565b600080828401905083811015612d2e57fe5b8091505092915050565b600080831415612d4b5760009050612d69565b6000828402905082848281612d5c57fe5b0414612d6457fe5b809150505b92915050565b600080828481612d7b57fe5b0490508091505092915050565b600082821115612d9457fe5b818303905092915050565b612df181600760008673ffffffffffffffffffffffffffffffffffffffff1673ffffffffffffffffffffffffffffffffffffffff16815260200190815260200160002054612d8890919063ffffffff16565b600760008573ffffffffffffffffffffffffffffffffffffffff1673ffffffffffffffffffffffffffffffffffffffff16815260200190815260200160002081905550612e8681600760008573ffffffffffffffffffffffffffffffffffffffff1673ffffffffffffffffffffffffffffffffffffffff16815260200190815260200160002054612d1c90919063ffffffff16565b600760008473ffffffffffffffffffffffffffffffffffffffff1673ffffffffffffffffffffffffffffffffffffffff168152602001908152602001600020819055508173ffffffffffffffffffffffffffffffffffffffff168373ffffffffffffffffffffffffffffffffffffffff167fddf252ad1be2c89b69c2b068fc378daa952ba7f163c4a11628f55a4df523b3ef83604051612f269190614aac565b60405180910390a3505050565b600080612f3e6107bd565b90506000612f4a612b2c565b9050612710811015612f61576000925050506130f3565b612fd58160076000600360009054906101000a900473ffffffffffffffffffffffffffffffffffffffff1673ffffffffffffffffffffffffffffffffffffffff1673ffffffffffffffffffffffffffffffffffffffff16815260200190815260200160002054612d1c90919063ffffffff16565b60076000600360009054906101000a900473ffffffffffffffffffffffffffffffffffffffff1673ffffffffffffffffffffffffffffffffffffffff1673ffffffffffffffffffffffffffffffffffffffff1681526020019081526020016000208190555061304f81600254612d1c90919063ffffffff16565b60028190555061305e826139c3565b600681905550600360009054906101000a900473ffffffffffffffffffffffffffffffffffffffff1673ffffffffffffffffffffffffffffffffffffffff163073ffffffffffffffffffffffffffffffffffffffff167f9e04df2ace49a0aadf511c756e3d1d033d10bfbc722409b41010b7c7b99c6f3b83426040516130e5929190614ac7565b60405180910390a381925050505b90565b60008060008054906101000a900473ffffffffffffffffffffffffffffffffffffffff1673ffffffffffffffffffffffffffffffffffffffff166304433bbc6040518163ffffffff1660e01b815260040161315090614a6c565b60206040518083038186803b15801561316857600080fd5b505afa15801561317c573d6000803e3d6000fd5b505050506040513d601f19601f820116820180604052508101906131a09190613c67565b905060008173ffffffffffffffffffffffffffffffffffffffff1663059ce95d876040518263ffffffff1660e01b81526004016131dd9190614671565b60206040518083038186803b1580156131f557600080fd5b505afa158015613209573d6000803e3d6000fd5b505050506040513d601f19601f8201168201806040525081019061322d9190613c67565b905060008060008373ffffffffffffffffffffffffffffffffffffffff1663460b62c3308b8a8c6040518563ffffffff1660e01b81526004016132739493929190614761565b60006040518083038186803b15801561328b57600080fd5b505afa15801561329f573d6000803e3d6000fd5b505050506040513d6000823e3d601f19601f820116820180604052508101906132c89190613dab565b92509250925060008151111561355e5760008073ffffffffffffffffffffffffffffffffffffffff168473ffffffffffffffffffffffffffffffffffffffff1614613399578373ffffffffffffffffffffffffffffffffffffffff166370a08231306040518263ffffffff1660e01b81526004016133469190614671565b60206040518083038186803b15801561335e57600080fd5b505afa158015613372573d6000803e3d6000fd5b505050506040513d601f19601f820116820180604052508101906133969190613ea0565b90505b60005b82518110156134775760008a73ffffffffffffffffffffffffffffffffffffffff168483815181106133ca57fe5b6020026020010151602001516040516133e3919061465a565b6000604051808303816000865af19150503d8060008114613420576040519150601f19603f3d011682016040523d82523d6000602084013e613425565b606091505b5050905080613469576040517f08c379a00000000000000000000000000000000000000000000000000000000081526004016134609061496c565b60405180910390fd5b50808060010191505061339c565b50600073ffffffffffffffffffffffffffffffffffffffff168473ffffffffffffffffffffffffffffffffffffffff161461355c576135598161354b8673ffffffffffffffffffffffffffffffffffffffff166370a08231306040518263ffffffff1660e01b81526004016134ec9190614671565b60206040518083038186803b15801561350457600080fd5b505afa158015613518573d6000803e3d6000fd5b505050506040513d601f19601f8201168201806040525081019061353c9190613ea0565b86612d1c90919063ffffffff16565b612d8890919063ffffffff16565b92505b505b81955050505050509392505050565b600073ffffffffffffffffffffffffffffffffffffffff168173ffffffffffffffffffffffffffffffffffffffff1614156135dd576040517f08c379a00000000000000000000000000000000000000000000000000000000081526004016135d490614a0c565b60405180910390fd5b6127108173ffffffffffffffffffffffffffffffffffffffff166370a08231306040518263ffffffff1660e01b81526004016136199190614671565b60206040518083038186803b15801561363157600080fd5b505afa158015613645573d6000803e3d6000fd5b505050506040513d601f19601f820116820180604052508101906136699190613ea0565b10156138855760096000600a54815260200190815260200160002060009054906101000a900473ffffffffffffffffffffffffffffffffffffffff1660096000600b60008573ffffffffffffffffffffffffffffffffffffffff1673ffffffffffffffffffffffffffffffffffffffff16815260200190815260200160002054815260200190815260200160002060006101000a81548173ffffffffffffffffffffffffffffffffffffffff021916908373ffffffffffffffffffffffffffffffffffffffff160217905550600b60008273ffffffffffffffffffffffffffffffffffffffff1673ffffffffffffffffffffffffffffffffffffffff16815260200190815260200160002054600b600060096000600a54815260200190815260200160002060009054906101000a900473ffffffffffffffffffffffffffffffffffffffff1673ffffffffffffffffffffffffffffffffffffffff1673ffffffffffffffffffffffffffffffffffffffff1681526020019081526020016000208190555060096000600a54815260200190815260200160002060006101000a81549073ffffffffffffffffffffffffffffffffffffffff0219169055600b60008273ffffffffffffffffffffffffffffffffffffffff1673ffffffffffffffffffffffffffffffffffffffff1681526020019081526020016000206000905561387e6001600a54612d8890919063ffffffff16565b600a819055505b50565b600073ffffffffffffffffffffffffffffffffffffffff168173ffffffffffffffffffffffffffffffffffffffff161415801561390457506000600b60008373ffffffffffffffffffffffffffffffffffffffff1673ffffffffffffffffffffffffffffffffffffffff16815260200190815260200160002054145b156139c05761391f6001600a54612d1c90919063ffffffff16565b600a819055508060096000600a54815260200190815260200160002060006101000a81548173ffffffffffffffffffffffffffffffffffffffff021916908373ffffffffffffffffffffffffffffffffffffffff160217905550600a54600b60008373ffffffffffffffffffffffffffffffffffffffff1673ffffffffffffffffffffffffffffffffffffffff168152602001908152602001600020819055505b50565b60008060025414806139d55750600082145b156139e35760009050613a15565b613a12600254613a04670de0b6b3a764000085612d3890919063ffffffff16565b612d6f90919063ffffffff16565b90505b919050565b6000613a2d613a2884614b9d565b614b6c565b9050808382526020820190508260005b85811015613a6d5781518501613a538882613bb0565b845260208401935060208301925050600181019050613a3d565b5050509392505050565b6000613a8a613a8584614bc9565b614b6c565b905082815260208101848484011115613aa257600080fd5b613aad848285614d5d565b509392505050565b6000613ac8613ac384614bc9565b614b6c565b905082815260208101848484011115613ae057600080fd5b613aeb848285614d6c565b509392505050565b600081359050613b0281614db2565b92915050565b600081519050613b1781614db2565b92915050565b600082601f830112613b2e57600080fd5b8151613b3e848260208601613a1a565b91505092915050565b600081519050613b5681614dc9565b92915050565b600082601f830112613b6d57600080fd5b8135613b7d848260208601613a77565b91505092915050565b600082601f830112613b9757600080fd5b8151613ba7848260208601613ab5565b91505092915050565b600060408284031215613bc257600080fd5b613bcc6040614b6c565b90506000613bdc84828501613b08565b600083015250602082015167ffffffffffffffff811115613bfc57600080fd5b613c0884828501613b86565b60208301525092915050565b600081359050613c2381614de0565b92915050565b600081519050613c3881614de0565b92915050565b600060208284031215613c5057600080fd5b6000613c5e84828501613af3565b91505092915050565b600060208284031215613c7957600080fd5b6000613c8784828501613b08565b91505092915050565b60008060408385031215613ca357600080fd5b6000613cb185828601613af3565b9250506020613cc285828601613af3565b9150509250929050565b600080600060608486031215613ce157600080fd5b6000613cef86828701613af3565b9350506020613d0086828701613af3565b9250506040613d1186828701613c14565b9150509250925092565b60008060408385031215613d2e57600080fd5b6000613d3c85828601613af3565b925050602083013567ffffffffffffffff811115613d5957600080fd5b613d6585828601613b5c565b9150509250929050565b60008060408385031215613d8257600080fd5b6000613d9085828601613af3565b9250506020613da185828601613c14565b9150509250929050565b600080600060608486031215613dc057600080fd5b6000613dce86828701613b08565b9350506020613ddf86828701613c29565b925050604084015167ffffffffffffffff811115613dfc57600080fd5b613e0886828701613b1d565b9150509250925092565b600060208284031215613e2457600080fd5b6000613e3284828501613b47565b91505092915050565b60008060408385031215613e4e57600080fd5b6000613e5c85828601613b47565b9250506020613e6d85828601613b08565b9150509250929050565b600060208284031215613e8957600080fd5b6000613e9784828501613c14565b91505092915050565b600060208284031215613eb257600080fd5b6000613ec084828501613c29565b91505092915050565b6000613ed58383613f08565b60208301905092915050565b6000613eed838361462d565b60208301905092915050565b613f0281614d03565b82525050565b613f1181614cae565b82525050565b613f2081614cae565b82525050565b6000613f3182614c19565b613f3b8185614c5f565b9350613f4683614bf9565b8060005b83811015613f77578151613f5e8882613ec9565b9750613f6983614c45565b925050600181019050613f4a565b5085935050505092915050565b6000613f8f82614c24565b613f998185614c70565b9350613fa483614c09565b8060005b83811015613fd5578151613fbc8882613ee1565b9750613fc783614c52565b925050600181019050613fa8565b5085935050505092915050565b613feb81614cc0565b82525050565b6000613ffc82614c2f565b6140068185614c81565b9350614016818560208601614d6c565b61401f81614da1565b840191505092915050565b600061403582614c2f565b61403f8185614c92565b935061404f818560208601614d6c565b80840191505092915050565b61406481614d15565b82525050565b600061407582614c3a565b61407f8185614c9d565b935061408f818560208601614d6c565b61409881614da1565b840191505092915050565b60006140b0603283614c9d565b91507f506f6f6c3a206e756d626572206f6620706f6f6c20746f6b656e73206d75737460008301527f2062652067726561746572207468616e203000000000000000000000000000006020830152604082019050919050565b6000614116601483614c9d565b91507f496e76616c6964206661726d20616464726573730000000000000000000000006000830152602082019050919050565b6000614156601683614c9d565b91507f506f6f6c3a20696e76616c6964207665726966696572000000000000000000006000830152602082019050919050565b6000614196600b83614c9d565b91507f506f6f6c466163746f72790000000000000000000000000000000000000000006000830152602082019050919050565b60006141d6601a83614c9d565b91507f506f6f6c3a20696e76616c69642027746f2720616464726573730000000000006000830152602082019050919050565b6000614216600f83614c9d565b91507f496e76616c6964206164647265737300000000000000000000000000000000006000830152602082019050919050565b6000614256601483614c9d565b91507f496e76616c6964207573657220616464726573730000000000000000000000006000830152602082019050919050565b6000614296603683614c9d565b91507f506f6f6c3a204f6e6c7920506f6f6c466163746f727920636f6e74726163742060008301527f63616e2063616c6c20746869732066756e6374696f6e000000000000000000006020830152604082019050919050565b60006142fc601f83614c9d565b91507f506f6f6c3a206661696c656420746f20776974686472617720746f6b656e73006000830152602082019050919050565b600061433c602383614c9d565b91507f506f6f6c3a207472616e73616374696f6e206661696c656420746f206578656360008301527f75746500000000000000000000000000000000000000000000000000000000006020830152604082019050919050565b60006143a2602383614c9d565b91507f506f6f6c3a20696e76616c69642061737365742068616e646c6572206164647260008301527f65737300000000000000000000000000000000000000000000000000000000006020830152604082019050919050565b6000614408603083614c9d565b91507f506f6f6c3a204f6e6c7920706f6f6c2773206d616e616765722063616e20636160008301527f6c6c20746869732066756e6374696f6e000000000000000000000000000000006020830152604082019050919050565b600061446e602883614c9d565b91507f506f6f6c3a204e6f7420656e6f75676820706f6f6c20746f6b656e7320746f2060008301527f77697468647261770000000000000000000000000000000000000000000000006020830152604082019050919050565b60006144d4601b83614c9d565b91507f506f6f6c3a20696e76616c6964206173736574206164647265737300000000006000830152602082019050919050565b6000614514601983614c9d565b91507f506f6f6c3a20696e76616c6964207472616e73616374696f6e000000000000006000830152602082019050919050565b6000614554601383614c9d565b91507f506f6f6c3a20696e76616c6964206173736574000000000000000000000000006000830152602082019050919050565b6000614594600c83614c9d565b91507f417373657448616e646c657200000000000000000000000000000000000000006000830152602082019050919050565b60006145d4602483614c9d565b91507f506f6f6c3a204465706f736974206d757374206265206772656174657220746860008301527f616e2030000000000000000000000000000000000000000000000000000000006020830152604082019050919050565b61463681614cec565b82525050565b61464581614cec565b82525050565b61465481614cf6565b82525050565b6000614666828461402a565b915081905092915050565b60006020820190506146866000830184613f17565b92915050565b60006060820190506146a16000830186613ef9565b6146ae6020830185613f17565b6146bb604083018461463c565b949350505050565b60006040820190506146d86000830185613ef9565b6146e5602083018461463c565b9392505050565b60006040820190506147016000830185613f17565b61470e6020830184613f17565b9392505050565b600060808201905061472a6000830187613f17565b6147376020830186613f17565b6147446040830185613f17565b81810360608301526147568184613ff1565b905095945050505050565b60006080820190506147766000830187613f17565b6147836020830186613f17565b614790604083018561463c565b61479d6060830184613f17565b95945050505050565b60006040820190506147bb6000830185613f17565b6147c8602083018461463c565b9392505050565b600060608201905081810360008301526147e98186613f26565b905081810360208301526147fd8185613f84565b905061480c604083018461463c565b949350505050565b60006020820190506148296000830184613fe2565b92915050565b6000602082019050614844600083018461405b565b92915050565b60006020820190508181036000830152614864818461406a565b905092915050565b60006020820190508181036000830152614885816140a3565b9050919050565b600060208201905081810360008301526148a581614109565b9050919050565b600060208201905081810360008301526148c581614149565b9050919050565b600060208201905081810360008301526148e581614189565b9050919050565b60006020820190508181036000830152614905816141c9565b9050919050565b6000602082019050818103600083015261492581614209565b9050919050565b6000602082019050818103600083015261494581614249565b9050919050565b6000602082019050818103600083015261496581614289565b9050919050565b60006020820190508181036000830152614985816142ef565b9050919050565b600060208201905081810360008301526149a58161432f565b9050919050565b600060208201905081810360008301526149c581614395565b9050919050565b600060208201905081810360008301526149e5816143fb565b9050919050565b60006020820190508181036000830152614a0581614461565b9050919050565b60006020820190508181036000830152614a25816144c7565b9050919050565b60006020820190508181036000830152614a4581614507565b9050919050565b60006020820190508181036000830152614a6581614547565b9050919050565b60006020820190508181036000830152614a8581614587565b9050919050565b60006020820190508181036000830152614aa5816145c7565b9050919050565b6000602082019050614ac1600083018461463c565b92915050565b6000604082019050614adc600083018561463c565b614ae9602083018461463c565b9392505050565b600060a082019050614b05600083018861463c565b614b12602083018761463c565b8181036040830152614b248186613f26565b90508181036060830152614b388185613f84565b9050614b47608083018461463c565b9695505050505050565b6000602082019050614b66600083018461464b565b92915050565b6000604051905081810181811067ffffffffffffffff82111715614b9357614b92614d9f565b5b8060405250919050565b600067ffffffffffffffff821115614bb857614bb7614d9f565b5b602082029050602081019050919050565b600067ffffffffffffffff821115614be457614be3614d9f565b5b601f19601f8301169050602081019050919050565b6000819050602082019050919050565b6000819050602082019050919050565b600081519050919050565b600081519050919050565b600081519050919050565b600081519050919050565b6000602082019050919050565b6000602082019050919050565b600082825260208201905092915050565b600082825260208201905092915050565b600082825260208201905092915050565b600081905092915050565b600082825260208201905092915050565b6000614cb982614ccc565b9050919050565b60008115159050919050565b600073ffffffffffffffffffffffffffffffffffffffff82169050919050565b6000819050919050565b600060ff82169050919050565b6000614d0e82614d39565b9050919050565b6000614d2082614d27565b9050919050565b6000614d3282614ccc565b9050919050565b6000614d4482614d4b565b9050919050565b6000614d5682614ccc565b9050919050565b82818337600083830152505050565b60005b83811015614d8a578082015181840152602081019050614d6f565b83811115614d99576000848401525b50505050565bfe5b6000601f19601f8301169050919050565b614dbb81614cae565b8114614dc657600080fd5b50565b614dd281614cc0565b8114614ddd57600080fd5b50565b614de981614cec565b8114614df457600080fd5b5056fea2646970667358221220b0673779158731844da7ec0acab4d6ab65be3483d8caace0bb53fa80da7e9cf064736f6c63430007060033",
  "immutableReferences": {},
  "source": "// SPDX-License-Identifier: MIT\r\n\r\npragma solidity >=0.7.6;\r\npragma experimental ABIEncoderV2;\r\n\r\n//Adapters\r\nimport './interfaces/IBaseUbeswapAdapter.sol';\r\n\r\n//Interfaces\r\nimport './interfaces/IERC20.sol';\r\nimport './interfaces/IPool.sol';\r\nimport './interfaces/ISettings.sol';\r\nimport './interfaces/IAddressResolver.sol';\r\nimport './interfaces/IAssetHandler.sol';\r\nimport './interfaces/IAssetVerifier.sol';\r\nimport './interfaces/IVerifier.sol';\r\nimport './interfaces/Ubeswap/IStakingRewards.sol';\r\n\r\n//Libraries\r\nimport './libraries/SafeMath.sol';\r\n\r\ncontract Pool is IPool, IERC20 {\r\n    using SafeMath for uint;\r\n\r\n    IAddressResolver public ADDRESS_RESOLVER;\r\n   \r\n    string public _name;\r\n    uint public _totalSupply;\r\n    address public _manager;\r\n    uint public _performanceFee; //expressed as %\r\n    address public _farmAddress;\r\n    uint256 public _tokenPriceAtLastFeeMint;\r\n\r\n    mapping (address => uint) public _balanceOf;\r\n    mapping (address => mapping(address => uint)) public override allowance;\r\n\r\n    //Asset positions\r\n    mapping (uint => address) public _positionKeys;\r\n    uint public numberOfPositions;\r\n    mapping (address => uint) public positionToIndex; //maps to (index + 1), with index 0 representing position not found\r\n\r\n    constructor(string memory poolName, uint performanceFee, address manager, IAddressResolver addressResolver) {\r\n        _name = poolName;\r\n        _manager = manager;\r\n        _performanceFee = performanceFee;\r\n        ADDRESS_RESOLVER = addressResolver;\r\n\r\n        _tokenPriceAtLastFeeMint = 10**18;\r\n    }\r\n\r\n    /* ========== VIEWS ========== */\r\n\r\n    /**\r\n    * @dev Returns the name of the pool\r\n    * @return string The name of the pool\r\n    */\r\n    function name() public view override(IPool, IERC20) returns (string memory) {\r\n        return _name;\r\n    }\r\n\r\n    function symbol() public pure override returns (string memory) {\r\n        return \"\";\r\n    }\r\n\r\n    function decimals() public pure override returns (uint8) {\r\n        return 18;\r\n    }\r\n\r\n    /**\r\n    * @dev Returns the address of the pool's farm\r\n    * @return address Address of the pool's farm\r\n    */\r\n    function getFarmAddress() public view override returns (address) {\r\n        return _farmAddress;\r\n    }\r\n\r\n    /**\r\n    * @dev Return the pool manager's address\r\n    * @return address Address of the pool's manager\r\n    */\r\n    function getManagerAddress() public view override returns (address) {\r\n        return _manager;\r\n    }\r\n\r\n    /**\r\n    * @dev Returns the USD value of the asset\r\n    * @param asset Address of the asset\r\n    * @param assetHandlerAddress Address of AssetHandler contract\r\n    */\r\n    function getAssetValue(address asset, address assetHandlerAddress) public view override returns (uint) {\r\n        require(asset != address(0), \"Pool: invalid asset address\");\r\n        require(assetHandlerAddress != address(0), \"Pool: invalid asset handler address\");\r\n\r\n        uint USDperToken = IAssetHandler(assetHandlerAddress).getUSDPrice(asset);\r\n        uint numberOfDecimals = IAssetHandler(assetHandlerAddress).getDecimals(asset);\r\n        uint balance = IAssetHandler(assetHandlerAddress).getBalance(address(this), asset);\r\n\r\n        return balance.mul(USDperToken).div(10 ** numberOfDecimals);\r\n    }\r\n\r\n    /**\r\n    * @dev Returns the currency address and balance of each position the pool has, as well as the cumulative value\r\n    * @return (address[], uint[], uint) Currency address and balance of each position the pool has, and the cumulative value of positions\r\n    */\r\n    function getPositionsAndTotal() public view override returns (address[] memory, uint[] memory, uint) {\r\n        address assetHandlerAddress = ADDRESS_RESOLVER.getContractAddress(\"AssetHandler\");\r\n        address[] memory addresses = new address[](numberOfPositions);\r\n        uint[] memory balances = new uint[](numberOfPositions);\r\n        uint sum;\r\n\r\n        //Calculate USD value of each asset\r\n        for (uint i = 0; i < numberOfPositions; i++)\r\n        {\r\n            balances[i] = IAssetHandler(assetHandlerAddress).getBalance(address(this), _positionKeys[i.add(1)]);\r\n            addresses[i] = _positionKeys[i.add(1)];\r\n\r\n            uint numberOfDecimals = IAssetHandler(assetHandlerAddress).getDecimals(_positionKeys[i.add(1)]);\r\n            uint USDperToken = IAssetHandler(assetHandlerAddress).getUSDPrice(_positionKeys[i.add(1)]);\r\n            uint positionBalanceInUSD = balances[i].mul(USDperToken).div(10 ** numberOfDecimals);\r\n            sum = sum.add(positionBalanceInUSD);\r\n        }\r\n\r\n        return (addresses, balances, sum);\r\n    }\r\n\r\n    /**\r\n    * @dev Returns the amount of cUSD the pool has to invest\r\n    * @return uint Amount of cUSD the pool has available\r\n    */\r\n    function getAvailableFunds() public view override returns (uint) {\r\n        address assetHandlerAddress = ADDRESS_RESOLVER.getContractAddress(\"AssetHandler\");\r\n        address stableCoinAddress = IAssetHandler(assetHandlerAddress).getStableCoinAddress();\r\n\r\n        return IERC20(stableCoinAddress).balanceOf(address(this));\r\n    }\r\n\r\n    /**\r\n    * @dev Returns the value of the pool in USD\r\n    * @return uint Value of the pool in USD\r\n    */\r\n    function getPoolValue() public view override returns (uint) {\r\n        address assetHandlerAddress = ADDRESS_RESOLVER.getContractAddress(\"AssetHandler\");\r\n        uint sum = 0;\r\n\r\n        //Get USD value of each asset\r\n        for (uint i = 1; i <= numberOfPositions; i++)\r\n        {\r\n            sum = sum.add(getAssetValue(_positionKeys[i], assetHandlerAddress));\r\n        }\r\n        \r\n        return sum;\r\n    }\r\n\r\n    /**\r\n    * @dev Returns the balance of the user in USD\r\n    * @return uint Balance of the user in USD\r\n    */\r\n    function getUSDBalance(address user) public view override returns (uint) {\r\n        require(user != address(0), \"Invalid address\");\r\n\r\n        uint poolValue = getPoolValue();\r\n\r\n        return poolValue.mul(_balanceOf[user]).div(_totalSupply);\r\n    }\r\n\r\n    /**\r\n    * @dev Returns the number of pool tokens the user has\r\n    * @param user Address of the user\r\n    * @return uint Number of pool tokens the user has\r\n    */\r\n    function balanceOf(address user) public view override(IPool, IERC20) returns (uint) {\r\n        require(user != address(0), \"Invalid user address\");\r\n\r\n        return _balanceOf[user];\r\n    }\r\n\r\n    /**\r\n    * @dev Returns the total supply of LP tokens in the pool\r\n    * @return uint Total supply of LP tokens\r\n    */\r\n    function totalSupply() public view override returns (uint) {\r\n        return _totalSupply;\r\n    }\r\n\r\n    /**\r\n    * @dev Returns the pool's performance fee\r\n    * @return uint The pool's performance fee\r\n    */\r\n    function getPerformanceFee() public view override returns (uint) {\r\n        return _performanceFee;\r\n    }\r\n\r\n    /**\r\n    * @dev Returns the price of the pool's token\r\n    * @return USD price of the pool's token\r\n    */\r\n    function tokenPrice() public view override returns (uint) {\r\n        uint poolValue = getPoolValue();\r\n\r\n        return _tokenPrice(poolValue);\r\n    }\r\n\r\n    /**\r\n    * @dev Returns the pool manager's available fees\r\n    * @return Pool manager's available fees\r\n    */\r\n    function availableManagerFee() public view override returns (uint) {\r\n        uint poolValue = getPoolValue();\r\n\r\n        if (_totalSupply == 0 || poolValue == 0)\r\n        {\r\n            return 0;\r\n        }\r\n\r\n        uint currentTokenPrice = _tokenPrice(poolValue);\r\n\r\n        if (currentTokenPrice <= _tokenPriceAtLastFeeMint)\r\n        {\r\n            return 0;\r\n        }\r\n\r\n        return (currentTokenPrice.sub(_tokenPriceAtLastFeeMint)).mul(_totalSupply).mul(_performanceFee).div(10000).div(currentTokenPrice);\r\n    }\r\n\r\n    /* ========== MUTATIVE FUNCTIONS ========== */\r\n\r\n    function approve(address spender, uint value) public override returns (bool) {\r\n        _approve(msg.sender, spender, value);\r\n        return true;\r\n    }\r\n\r\n    function transfer(address to, uint value) public override returns (bool) {\r\n        _transfer(msg.sender, to, value);\r\n        return true;\r\n    }\r\n\r\n    function transferFrom(address from, address to, uint value) public override returns (bool) {\r\n        if (allowance[from][msg.sender] > 0) {\r\n            allowance[from][msg.sender] = allowance[from][msg.sender].sub(value);\r\n        }\r\n        _transfer(from, to, value);\r\n        return true;\r\n    }\r\n\r\n    /**\r\n    * @dev Mints the pool manager's fee\r\n    */\r\n    function mintManagerFee() external onlyPoolManager {\r\n        _mintManagerFee();\r\n    }\r\n\r\n    /**\r\n    * @dev Deposits the given USD amount into the pool\r\n    * @notice Call cUSD.approve() before calling this function\r\n    * @param amount Amount of USD to deposit into the pool\r\n    */\r\n    function deposit(uint amount) public override {\r\n        require(amount > 0, \"Pool: Deposit must be greater than 0\");\r\n\r\n        uint poolBalance = getPoolValue();\r\n        uint numberOfLPTokens = (_totalSupply > 0) ? _totalSupply.mul(amount).div(poolBalance) : amount;\r\n\r\n        _balanceOf[msg.sender] = _balanceOf[msg.sender].add(numberOfLPTokens);\r\n        _totalSupply = _totalSupply.add(numberOfLPTokens);\r\n\r\n        address assetHandlerAddress = ADDRESS_RESOLVER.getContractAddress(\"AssetHandler\");\r\n        address stableCoinAddress = IAssetHandler(assetHandlerAddress).getStableCoinAddress();\r\n\r\n        IERC20(stableCoinAddress).transferFrom(msg.sender, address(this), amount);\r\n\r\n        _addPositionKey(stableCoinAddress);\r\n\r\n        emit Deposit(address(this), msg.sender, amount, block.timestamp);\r\n    }\r\n\r\n    /**\r\n    * @dev Withdraws the given number of pool tokens from the user\r\n    * @param numberOfPoolTokens Number of pool tokens to withdraw\r\n    */\r\n    function withdraw(uint numberOfPoolTokens) public override {\r\n        require(numberOfPoolTokens > 0, \"Pool: number of pool tokens must be greater than 0\");\r\n        require(_balanceOf[msg.sender] >= numberOfPoolTokens, \"Pool: Not enough pool tokens to withdraw\");\r\n\r\n        //Mint manager fee\r\n        uint poolValue = _mintManagerFee();\r\n        uint portion = numberOfPoolTokens.mul(10**18).div(_totalSupply);\r\n\r\n        //Burn user's pool tokens\r\n        _balanceOf[msg.sender] = _balanceOf[msg.sender].sub(numberOfPoolTokens);\r\n        _totalSupply = _totalSupply.sub(numberOfPoolTokens);\r\n\r\n        uint[] memory amountsWithdrawn = new uint[](numberOfPositions);\r\n        address[] memory assetsWithdrawn = new address[](numberOfPositions);\r\n\r\n        uint assetCount = numberOfPositions;\r\n\r\n        //Withdraw user's portion of pool's assets\r\n        for (uint i = assetCount; i > 0; i--)\r\n        {\r\n            uint portionOfAssetBalance = _withdrawProcessing(_positionKeys[i], msg.sender, portion);\r\n\r\n            if (portionOfAssetBalance > 0)\r\n            {\r\n                IERC20(_positionKeys[i]).transfer(msg.sender, portionOfAssetBalance);\r\n\r\n                amountsWithdrawn[i.sub(1)] = portionOfAssetBalance;\r\n                assetsWithdrawn[i.sub(1)] = _positionKeys[i];\r\n            }\r\n\r\n            //Remove position keys if pool is liquidated\r\n            if (_totalSupply == 0)\r\n            {\r\n                _removePositionKey(_positionKeys[i]);\r\n            }\r\n        }\r\n\r\n        //Set numberOfPositions to 0 if pool is liquidated\r\n        if (_totalSupply == 0)\r\n        {\r\n            numberOfPositions = 0;\r\n        }\r\n\r\n        uint valueWithdrawn = poolValue.mul(portion).div(10**18);\r\n\r\n        emit Withdraw(address(this), msg.sender, numberOfPoolTokens, valueWithdrawn, assetsWithdrawn, amountsWithdrawn, block.timestamp);\r\n    }\r\n\r\n    /**\r\n    * @dev Withdraws the user's full investment\r\n    */\r\n    function exit() external override {\r\n        withdraw(balanceOf(msg.sender));\r\n    }\r\n\r\n    /* ========== RESTRICTED FUNCTIONS ========== */\r\n\r\n    /**\r\n    * @dev Executes a transaction on behalf of the pool; lets pool talk to other protocols\r\n    * @param to Address of external contract\r\n    * @param data Bytes data for the transaction\r\n    */\r\n    function executeTransaction(address to, bytes memory data) public onlyPoolManager {\r\n        require(to != address(0), \"Pool: invalid 'to' address\");\r\n\r\n        //First try to get contract verifier\r\n        address verifier = ADDRESS_RESOLVER.contractVerifiers(to);\r\n        //Try to get asset verifier if no contract verifier found\r\n        if (verifier == address(0))\r\n        {\r\n            address assetHandlerAddress = ADDRESS_RESOLVER.getContractAddress(\"AssetHandler\");\r\n            verifier = IAssetHandler(assetHandlerAddress).getVerifier(to);\r\n\r\n            //'to' address is an asset; need to check if asset is valid\r\n            if (verifier != address(0))\r\n            {\r\n                require(IAssetHandler(assetHandlerAddress).isValidAsset(to), \"Pool: invalid asset\");\r\n\r\n                _addPositionKey(to);\r\n            }\r\n        }\r\n\r\n        require(verifier != address(0), \"Pool: invalid verifier\");\r\n\r\n        (bool valid, address receivedAsset) = IVerifier(verifier).verify(address(ADDRESS_RESOLVER), address(this), to, data);\r\n        require(valid, \"Pool: invalid transaction\");\r\n\r\n        (bool success, ) = to.call(data);\r\n        require(success, \"Pool: transaction failed to execute\");\r\n\r\n        _addPositionKey(receivedAsset);\r\n\r\n        emit ExecutedTransaction(address(this), _manager, to, block.timestamp);\r\n    }\r\n\r\n    /**\r\n    * @dev Removes the pool's empty positions from position keys\r\n    */\r\n    function removeEmptyPositions() external onlyPoolManager {\r\n        uint assetCount = numberOfPositions;\r\n\r\n        for (uint i = assetCount.sub(1); i >= 0; i--)\r\n        {\r\n            _removePositionKey(_positionKeys[i]);\r\n        }\r\n\r\n        emit RemovedEmptyPositions(address(this), _manager, block.timestamp);\r\n    }\r\n\r\n    /**\r\n    * @dev Updates the pool's farm address\r\n    * @param farmAddress Address of the pool's farm\r\n    */\r\n    function setFarmAddress(address farmAddress) public override onlyPoolFactory {\r\n        require(farmAddress != address(0), \"Invalid farm address\");\r\n\r\n        _farmAddress = farmAddress;\r\n    }\r\n\r\n    /* ========== INTERNAL FUNCTIONS ========== */\r\n\r\n    /**\r\n    * @dev Adds the given currency to position keys\r\n    * @param currency Address of token to add\r\n    */\r\n    function _addPositionKey(address currency) internal {\r\n        //Add token to positionKeys if not currently in positionKeys\r\n        if (currency != address(0) && positionToIndex[currency] == 0)\r\n        {\r\n            numberOfPositions = numberOfPositions.add(1);\r\n            _positionKeys[numberOfPositions] = currency;\r\n            positionToIndex[currency] = numberOfPositions;\r\n        }\r\n    }\r\n\r\n    /**\r\n    * @dev Removes the given currency to position keys\r\n    * @param currency Address of token to remove\r\n    */\r\n    function _removePositionKey(address currency) internal {\r\n        require(currency != address(0), \"Pool: invalid asset address\");\r\n\r\n        //Remove currency from positionKeys if no balance left; account for dust\r\n        if (IERC20(currency).balanceOf(address(this)) < 10000)\r\n        {\r\n            _positionKeys[positionToIndex[currency]] = _positionKeys[numberOfPositions];\r\n            positionToIndex[_positionKeys[numberOfPositions]] = positionToIndex[currency];\r\n            delete _positionKeys[numberOfPositions];\r\n            delete positionToIndex[currency];\r\n            numberOfPositions = numberOfPositions.sub(1);\r\n        }\r\n    }\r\n\r\n    function _approve(address owner, address spender, uint value) private {\r\n        allowance[owner][spender] = value;\r\n        emit Approval(owner, spender, value);\r\n    }\r\n\r\n    function _transfer(address from, address to, uint value) private {\r\n        _balanceOf[from] = _balanceOf[from].sub(value);\r\n        _balanceOf[to] = _balanceOf[to].add(value);\r\n        emit Transfer(from, to, value);\r\n    }\r\n\r\n    /**\r\n    * @dev Calculates the price of a pool token\r\n    * @param _poolValue Value of the pool in USD\r\n    * @return Price of a pool token\r\n    */\r\n    function _tokenPrice(uint _poolValue) internal view returns (uint) {\r\n        if (_totalSupply == 0 || _poolValue == 0)\r\n        {\r\n            return 0;\r\n        }\r\n\r\n        return _poolValue.mul(10**18).div(_totalSupply);\r\n    }\r\n\r\n    /**\r\n    * @dev Mints the pool manager's available fees\r\n    * @return Pool's USD value\r\n    */\r\n    function _mintManagerFee() internal returns(uint) {\r\n        uint poolValue = getPoolValue();\r\n\r\n        uint availableFee = availableManagerFee();\r\n\r\n        // Ignore dust when minting performance fees\r\n        if (availableFee < 10000)\r\n        {\r\n            return 0;\r\n        }\r\n\r\n        _balanceOf[_manager] = _balanceOf[_manager].add(availableFee);\r\n        _totalSupply = _totalSupply.add(availableFee);\r\n\r\n        _tokenPriceAtLastFeeMint = _tokenPrice(poolValue);\r\n\r\n        emit MintedManagerFee(address(this), _manager, availableFee, block.timestamp);\r\n\r\n        return poolValue;\r\n    }\r\n\r\n    /**\r\n    * @dev Performs additional processing when withdrawing an asset (such as checking for staked tokens)\r\n    * @param asset Address of asset to withdraw\r\n    * @param to Address of external contract\r\n    * @param portion User's portion of pool's asset balance\r\n    * @return Amount of tokens to withdraw\r\n    */\r\n    function _withdrawProcessing(address asset, address to, uint portion) internal returns (uint) {\r\n        address assetHandlerAddress = ADDRESS_RESOLVER.getContractAddress(\"AssetHandler\");\r\n        address verifier = IAssetHandler(assetHandlerAddress).getVerifier(asset);\r\n\r\n        (address withdrawAsset, uint withdrawBalance, IAssetVerifier.MultiTransaction[] memory transactions) = IAssetVerifier(verifier).prepareWithdrawal(address(this), asset, portion, to);\r\n\r\n        if (transactions.length > 0)\r\n        {\r\n            uint initialAssetBalance;\r\n            if (withdrawAsset != address(0))\r\n            {\r\n                initialAssetBalance = IERC20(withdrawAsset).balanceOf(address(this));\r\n            }\r\n\r\n            //Execute each transaction\r\n            for (uint i = 0; i < transactions.length; i++)\r\n            {\r\n                (bool success,) = to.call(transactions[i].txData);\r\n                require(success, \"Pool: failed to withdraw tokens\");\r\n            }\r\n\r\n            //Account for additional tokens added (withdrawing staked LP tokens)\r\n            if (withdrawAsset != address(0))\r\n            {\r\n                withdrawBalance = withdrawBalance.add(IERC20(withdrawAsset).balanceOf(address(this))).sub(initialAssetBalance);\r\n            }\r\n        }\r\n\r\n        return withdrawBalance;\r\n    }\r\n\r\n    /* ========== MODIFIERS ========== */\r\n\r\n    modifier onlyPoolFactory() {\r\n        address poolFactoryAddress = ADDRESS_RESOLVER.getContractAddress(\"PoolFactory\");\r\n\r\n        require(msg.sender == poolFactoryAddress, \"Pool: Only PoolFactory contract can call this function\");\r\n        _;\r\n    }\r\n\r\n    modifier onlyPoolManager() {\r\n        require(msg.sender == _manager, \"Pool: Only pool's manager can call this function\");\r\n        _;\r\n    }\r\n\r\n    /* ========== EVENTS ========== */\r\n\r\n    event Deposit(address indexed poolAddress, address indexed userAddress, uint amount, uint timestamp);\r\n    event Withdraw(address indexed poolAddress, address indexed userAddress, uint numberOfPoolTokens, uint valueWithdrawn, address[] assets, uint[] amountsWithdrawn, uint timestamp);\r\n    event MintedManagerFee(address indexed poolAddress, address indexed manager, uint amount, uint timestamp);\r\n    event ExecutedTransaction(address indexed poolAddress, address indexed manager, address to, uint timestamp);\r\n    event RemovedEmptyPositions(address indexed poolAddress, address indexed manager, uint timestamp);\r\n}",
  "sourcePath": "C:\\Users\\xavie\\OneDrive\\Desktop\\TradeGen\\Github\\tradegen-protocol\\contracts\\Pool.sol",
  "compiler": {
    "name": "solc",
    "version": "0.7.6+commit.7338295f.Emscripten.clang"
  },
  "schemaVersion": "3.4.1",
  "updatedAt": "2021-08-20T20:58:56.727Z",
  "devdoc": {
    "kind": "dev",
    "methods": {
      "availableManagerFee()": {
        "details": "Returns the pool manager's available fees",
        "returns": {
          "_0": "Pool manager's available fees"
        }
      },
      "balanceOf(address)": {
        "details": "Returns the number of pool tokens the user has",
        "params": {
          "user": "Address of the user"
        },
        "returns": {
          "_0": "uint Number of pool tokens the user has"
        }
      },
      "deposit(uint256)": {
        "details": "Deposits the given USD amount into the pool",
        "params": {
          "amount": "Amount of USD to deposit into the pool"
        }
      },
      "executeTransaction(address,bytes)": {
        "details": "Executes a transaction on behalf of the pool; lets pool talk to other protocols",
        "params": {
          "data": "Bytes data for the transaction",
          "to": "Address of external contract"
        }
      },
      "exit()": {
        "details": "Withdraws the user's full investment"
      },
      "getAssetValue(address,address)": {
        "details": "Returns the USD value of the asset",
        "params": {
          "asset": "Address of the asset",
          "assetHandlerAddress": "Address of AssetHandler contract"
        }
      },
      "getAvailableFunds()": {
        "details": "Returns the amount of cUSD the pool has to invest",
        "returns": {
          "_0": "uint Amount of cUSD the pool has available"
        }
      },
      "getFarmAddress()": {
        "details": "Returns the address of the pool's farm",
        "returns": {
          "_0": "address Address of the pool's farm"
        }
      },
      "getManagerAddress()": {
        "details": "Return the pool manager's address",
        "returns": {
          "_0": "address Address of the pool's manager"
        }
      },
      "getPerformanceFee()": {
        "details": "Returns the pool's performance fee",
        "returns": {
          "_0": "uint The pool's performance fee"
        }
      },
      "getPoolValue()": {
        "details": "Returns the value of the pool in USD",
        "returns": {
          "_0": "uint Value of the pool in USD"
        }
      },
      "getPositionsAndTotal()": {
        "details": "Returns the currency address and balance of each position the pool has, as well as the cumulative value",
        "returns": {
          "_0": "(address[], uint[], uint) Currency address and balance of each position the pool has, and the cumulative value of positions"
        }
      },
      "getUSDBalance(address)": {
        "details": "Returns the balance of the user in USD",
        "returns": {
          "_0": "uint Balance of the user in USD"
        }
      },
      "mintManagerFee()": {
        "details": "Mints the pool manager's fee"
      },
      "name()": {
        "details": "Returns the name of the pool",
        "returns": {
          "_0": "string The name of the pool"
        }
      },
      "removeEmptyPositions()": {
        "details": "Removes the pool's empty positions from position keys"
      },
      "setFarmAddress(address)": {
        "details": "Updates the pool's farm address",
        "params": {
          "farmAddress": "Address of the pool's farm"
        }
      },
      "tokenPrice()": {
        "details": "Returns the price of the pool's token",
        "returns": {
          "_0": "USD price of the pool's token"
        }
      },
      "totalSupply()": {
        "details": "Returns the total supply of LP tokens in the pool",
        "returns": {
          "_0": "uint Total supply of LP tokens"
        }
      },
      "withdraw(uint256)": {
        "details": "Withdraws the given number of pool tokens from the user",
        "params": {
          "numberOfPoolTokens": "Number of pool tokens to withdraw"
        }
      }
    },
    "version": 1
  },
  "userdoc": {
    "kind": "user",
    "methods": {
      "deposit(uint256)": {
        "notice": "Call cUSD.approve() before calling this function"
      }
    },
    "version": 1
  }
}