{
  "contractName": "Pool",
  "abi": [
    {
      "inputs": [
        {
          "internalType": "string",
          "name": "name",
          "type": "string"
        },
        {
          "internalType": "uint256",
          "name": "performanceFee",
          "type": "uint256"
        },
        {
          "internalType": "address",
          "name": "manager",
          "type": "address"
        },
        {
          "internalType": "contract IAddressResolver",
          "name": "addressResolver",
          "type": "address"
        }
      ],
      "stateMutability": "nonpayable",
      "type": "constructor"
    },
    {
      "anonymous": false,
      "inputs": [
        {
          "indexed": true,
          "internalType": "address",
          "name": "owner",
          "type": "address"
        },
        {
          "indexed": true,
          "internalType": "address",
          "name": "spender",
          "type": "address"
        },
        {
          "indexed": false,
          "internalType": "uint256",
          "name": "value",
          "type": "uint256"
        }
      ],
      "name": "Approval",
      "type": "event"
    },
    {
      "anonymous": false,
      "inputs": [
        {
          "indexed": true,
          "internalType": "address",
          "name": "user",
          "type": "address"
        },
        {
          "indexed": true,
          "internalType": "address",
          "name": "poolAddress",
          "type": "address"
        },
        {
          "indexed": false,
          "internalType": "uint256",
          "name": "amount",
          "type": "uint256"
        },
        {
          "indexed": false,
          "internalType": "uint256",
          "name": "timestamp",
          "type": "uint256"
        }
      ],
      "name": "DepositedFundsIntoPool",
      "type": "event"
    },
    {
      "anonymous": false,
      "inputs": [
        {
          "indexed": true,
          "internalType": "address",
          "name": "user",
          "type": "address"
        },
        {
          "indexed": true,
          "internalType": "address",
          "name": "poolAddress",
          "type": "address"
        },
        {
          "indexed": false,
          "internalType": "uint256",
          "name": "amount",
          "type": "uint256"
        },
        {
          "indexed": false,
          "internalType": "uint256",
          "name": "timestamp",
          "type": "uint256"
        }
      ],
      "name": "PaidPerformanceFee",
      "type": "event"
    },
    {
      "anonymous": false,
      "inputs": [
        {
          "indexed": true,
          "internalType": "address",
          "name": "poolAddress",
          "type": "address"
        },
        {
          "indexed": true,
          "internalType": "address",
          "name": "currencyKey",
          "type": "address"
        },
        {
          "indexed": false,
          "internalType": "bool",
          "name": "buyOrSell",
          "type": "bool"
        },
        {
          "indexed": false,
          "internalType": "uint256",
          "name": "numberOfTokensSwapped",
          "type": "uint256"
        },
        {
          "indexed": false,
          "internalType": "uint256",
          "name": "numberOfTokensReceived",
          "type": "uint256"
        },
        {
          "indexed": false,
          "internalType": "uint256",
          "name": "timestamp",
          "type": "uint256"
        }
      ],
      "name": "PlacedOrder",
      "type": "event"
    },
    {
      "anonymous": false,
      "inputs": [
        {
          "indexed": true,
          "internalType": "address",
          "name": "from",
          "type": "address"
        },
        {
          "indexed": true,
          "internalType": "address",
          "name": "to",
          "type": "address"
        },
        {
          "indexed": false,
          "internalType": "uint256",
          "name": "value",
          "type": "uint256"
        }
      ],
      "name": "Transfer",
      "type": "event"
    },
    {
      "anonymous": false,
      "inputs": [
        {
          "indexed": true,
          "internalType": "address",
          "name": "poolAddress",
          "type": "address"
        },
        {
          "indexed": false,
          "internalType": "address",
          "name": "farmAddress",
          "type": "address"
        },
        {
          "indexed": false,
          "internalType": "uint256",
          "name": "timestamp",
          "type": "uint256"
        }
      ],
      "name": "UpdatedFarmAddress",
      "type": "event"
    },
    {
      "anonymous": false,
      "inputs": [
        {
          "indexed": true,
          "internalType": "address",
          "name": "user",
          "type": "address"
        },
        {
          "indexed": true,
          "internalType": "address",
          "name": "poolAddress",
          "type": "address"
        },
        {
          "indexed": false,
          "internalType": "uint256",
          "name": "amount",
          "type": "uint256"
        },
        {
          "indexed": false,
          "internalType": "uint256",
          "name": "timestamp",
          "type": "uint256"
        }
      ],
      "name": "WithdrewFundsFromPool",
      "type": "event"
    },
    {
      "inputs": [],
      "name": "ADDRESS_RESOLVER",
      "outputs": [
        {
          "internalType": "contract IAddressResolver",
          "name": "",
          "type": "address"
        }
      ],
      "stateMutability": "view",
      "type": "function"
    },
    {
      "inputs": [
        {
          "internalType": "address",
          "name": "",
          "type": "address"
        }
      ],
      "name": "_balanceOf",
      "outputs": [
        {
          "internalType": "uint256",
          "name": "",
          "type": "uint256"
        }
      ],
      "stateMutability": "view",
      "type": "function"
    },
    {
      "inputs": [],
      "name": "_farmAddress",
      "outputs": [
        {
          "internalType": "address",
          "name": "",
          "type": "address"
        }
      ],
      "stateMutability": "view",
      "type": "function"
    },
    {
      "inputs": [],
      "name": "_manager",
      "outputs": [
        {
          "internalType": "address",
          "name": "",
          "type": "address"
        }
      ],
      "stateMutability": "view",
      "type": "function"
    },
    {
      "inputs": [],
      "name": "_name",
      "outputs": [
        {
          "internalType": "string",
          "name": "",
          "type": "string"
        }
      ],
      "stateMutability": "view",
      "type": "function"
    },
    {
      "inputs": [],
      "name": "_performanceFee",
      "outputs": [
        {
          "internalType": "uint256",
          "name": "",
          "type": "uint256"
        }
      ],
      "stateMutability": "view",
      "type": "function"
    },
    {
      "inputs": [],
      "name": "_poolManagerAddress",
      "outputs": [
        {
          "internalType": "address",
          "name": "",
          "type": "address"
        }
      ],
      "stateMutability": "view",
      "type": "function"
    },
    {
      "inputs": [
        {
          "internalType": "uint256",
          "name": "",
          "type": "uint256"
        }
      ],
      "name": "_positionKeys",
      "outputs": [
        {
          "internalType": "address",
          "name": "",
          "type": "address"
        }
      ],
      "stateMutability": "view",
      "type": "function"
    },
    {
      "inputs": [],
      "name": "_totalSupply",
      "outputs": [
        {
          "internalType": "uint256",
          "name": "",
          "type": "uint256"
        }
      ],
      "stateMutability": "view",
      "type": "function"
    },
    {
      "inputs": [
        {
          "internalType": "address",
          "name": "",
          "type": "address"
        },
        {
          "internalType": "address",
          "name": "",
          "type": "address"
        }
      ],
      "name": "allowance",
      "outputs": [
        {
          "internalType": "uint256",
          "name": "",
          "type": "uint256"
        }
      ],
      "stateMutability": "view",
      "type": "function"
    },
    {
      "inputs": [],
      "name": "name",
      "outputs": [
        {
          "internalType": "string",
          "name": "",
          "type": "string"
        }
      ],
      "stateMutability": "view",
      "type": "function"
    },
    {
      "inputs": [],
      "name": "symbol",
      "outputs": [
        {
          "internalType": "string",
          "name": "",
          "type": "string"
        }
      ],
      "stateMutability": "view",
      "type": "function"
    },
    {
      "inputs": [],
      "name": "decimals",
      "outputs": [
        {
          "internalType": "uint8",
          "name": "",
          "type": "uint8"
        }
      ],
      "stateMutability": "view",
      "type": "function"
    },
    {
      "inputs": [],
      "name": "getFarmAddress",
      "outputs": [
        {
          "internalType": "address",
          "name": "",
          "type": "address"
        }
      ],
      "stateMutability": "view",
      "type": "function"
    },
    {
      "inputs": [],
      "name": "getManagerAddress",
      "outputs": [
        {
          "internalType": "address",
          "name": "",
          "type": "address"
        }
      ],
      "stateMutability": "view",
      "type": "function"
    },
    {
      "inputs": [],
      "name": "getPositionsAndTotal",
      "outputs": [
        {
          "internalType": "address[]",
          "name": "",
          "type": "address[]"
        },
        {
          "internalType": "uint256[]",
          "name": "",
          "type": "uint256[]"
        },
        {
          "internalType": "uint256",
          "name": "",
          "type": "uint256"
        }
      ],
      "stateMutability": "view",
      "type": "function"
    },
    {
      "inputs": [],
      "name": "getAvailableFunds",
      "outputs": [
        {
          "internalType": "uint256",
          "name": "",
          "type": "uint256"
        }
      ],
      "stateMutability": "view",
      "type": "function"
    },
    {
      "inputs": [],
      "name": "getPoolBalance",
      "outputs": [
        {
          "internalType": "uint256",
          "name": "",
          "type": "uint256"
        }
      ],
      "stateMutability": "view",
      "type": "function"
    },
    {
      "inputs": [
        {
          "internalType": "address",
          "name": "user",
          "type": "address"
        }
      ],
      "name": "getUSDBalance",
      "outputs": [
        {
          "internalType": "uint256",
          "name": "",
          "type": "uint256"
        }
      ],
      "stateMutability": "view",
      "type": "function"
    },
    {
      "inputs": [
        {
          "internalType": "address",
          "name": "user",
          "type": "address"
        }
      ],
      "name": "balanceOf",
      "outputs": [
        {
          "internalType": "uint256",
          "name": "",
          "type": "uint256"
        }
      ],
      "stateMutability": "view",
      "type": "function"
    },
    {
      "inputs": [],
      "name": "totalSupply",
      "outputs": [
        {
          "internalType": "uint256",
          "name": "",
          "type": "uint256"
        }
      ],
      "stateMutability": "view",
      "type": "function"
    },
    {
      "inputs": [],
      "name": "getPerformanceFee",
      "outputs": [
        {
          "internalType": "uint256",
          "name": "",
          "type": "uint256"
        }
      ],
      "stateMutability": "view",
      "type": "function"
    },
    {
      "inputs": [
        {
          "internalType": "address",
          "name": "spender",
          "type": "address"
        },
        {
          "internalType": "uint256",
          "name": "value",
          "type": "uint256"
        }
      ],
      "name": "approve",
      "outputs": [
        {
          "internalType": "bool",
          "name": "",
          "type": "bool"
        }
      ],
      "stateMutability": "nonpayable",
      "type": "function"
    },
    {
      "inputs": [
        {
          "internalType": "address",
          "name": "to",
          "type": "address"
        },
        {
          "internalType": "uint256",
          "name": "value",
          "type": "uint256"
        }
      ],
      "name": "transfer",
      "outputs": [
        {
          "internalType": "bool",
          "name": "",
          "type": "bool"
        }
      ],
      "stateMutability": "nonpayable",
      "type": "function"
    },
    {
      "inputs": [
        {
          "internalType": "address",
          "name": "from",
          "type": "address"
        },
        {
          "internalType": "address",
          "name": "to",
          "type": "address"
        },
        {
          "internalType": "uint256",
          "name": "value",
          "type": "uint256"
        }
      ],
      "name": "transferFrom",
      "outputs": [
        {
          "internalType": "bool",
          "name": "",
          "type": "bool"
        }
      ],
      "stateMutability": "nonpayable",
      "type": "function"
    },
    {
      "inputs": [
        {
          "internalType": "address",
          "name": "user",
          "type": "address"
        },
        {
          "internalType": "uint256",
          "name": "amount",
          "type": "uint256"
        }
      ],
      "name": "deposit",
      "outputs": [],
      "stateMutability": "nonpayable",
      "type": "function"
    },
    {
      "inputs": [
        {
          "internalType": "address",
          "name": "user",
          "type": "address"
        },
        {
          "internalType": "uint256",
          "name": "amount",
          "type": "uint256"
        }
      ],
      "name": "withdraw",
      "outputs": [],
      "stateMutability": "nonpayable",
      "type": "function"
    },
    {
      "inputs": [
        {
          "internalType": "address",
          "name": "currencyKey",
          "type": "address"
        },
        {
          "internalType": "bool",
          "name": "buyOrSell",
          "type": "bool"
        },
        {
          "internalType": "uint256",
          "name": "numberOfTokens",
          "type": "uint256"
        }
      ],
      "name": "placeOrder",
      "outputs": [],
      "stateMutability": "nonpayable",
      "type": "function"
    },
    {
      "inputs": [
        {
          "internalType": "address",
          "name": "farmAddress",
          "type": "address"
        }
      ],
      "name": "setFarmAddress",
      "outputs": [],
      "stateMutability": "nonpayable",
      "type": "function"
    }
  ],
  "bytecode": "0x60806040523480156200001157600080fd5b5060405162003e5338038062003e53833981810160405260808110156200003757600080fd5b81019080805160405193929190846401000000008211156200005857600080fd5b838201915060208201858111156200006f57600080fd5b82518660018202830111640100000000821117156200008d57600080fd5b8083526020830192505050908051906020019080838360005b83811015620000c3578082015181840152602081019050620000a6565b50505050905090810190601f168015620000f15780820380516001836020036101000a031916815260200191505b5060405260200180519060200190929190805190602001909291908051906020019092919050505083600190805190602001906200013192919062000205565b5081600360006101000a81548173ffffffffffffffffffffffffffffffffffffffff021916908373ffffffffffffffffffffffffffffffffffffffff16021790555082600481905550806000806101000a81548173ffffffffffffffffffffffffffffffffffffffff021916908373ffffffffffffffffffffffffffffffffffffffff16021790555033600660006101000a81548173ffffffffffffffffffffffffffffffffffffffff021916908373ffffffffffffffffffffffffffffffffffffffff16021790555050505050620002ab565b828054600181600116156101000203166002900490600052602060002090601f016020900481019282601f106200024857805160ff191683800117855562000279565b8280016001018555821562000279579182015b82811115620002785782518255916020019190600101906200025b565b5b5090506200028891906200028c565b5090565b5b80821115620002a75760008160009055506001016200028d565b5090565b613b9880620002bb6000396000f3fe608060405234801561001057600080fd5b50600436106101cf5760003560e01c806395d89b4111610104578063cca3e832116100a2578063f0329f6b11610071578063f0329f6b14610966578063f0f3da5e1461099a578063f2962559146109ce578063f3fef3a314610a28576101cf565b8063cca3e832146107cf578063d28d885214610827578063d9799809146108aa578063dd62ed3e146108ee576101cf565b8063abd70aa2116100de578063abd70aa21461069b578063ac08c574146106b9578063c162d7da14610767578063cb8ac4781461079b576101cf565b806395d89b4114610580578063981f3b8e14610603578063a9059cbb14610637576101cf565b8063313ce567116101715780635195bd291161014b5780635195bd29146104b85780636e1d9d2d146104d657806370a082311461050a57806380e2829314610562576101cf565b8063313ce5671461042b5780633eaaf86b1461044c57806347e7ef241461046a576101cf565b80632322e3b9116101ad5780632322e3b9146102d9578063235c36031461033157806323b872dd1461034f5780632ed8e0d4146103d3576101cf565b806306fdde03146101d4578063095ea7b31461025757806318160ddd146102bb575b600080fd5b6101dc610a76565b6040518080602001828103825283818151815260200191508051906020019080838360005b8381101561021c578082015181840152602081019050610201565b50505050905090810190601f1680156102495780820380516001836020036101000a031916815260200191505b509250505060405180910390f35b6102a36004803603604081101561026d57600080fd5b81019080803573ffffffffffffffffffffffffffffffffffffffff16906020019092919080359060200190929190505050610b18565b60405180821515815260200191505060405180910390f35b6102c3610b2f565b6040518082815260200191505060405180910390f35b61031b600480360360208110156102ef57600080fd5b81019080803573ffffffffffffffffffffffffffffffffffffffff169060200190929190505050610b39565b6040518082815260200191505060405180910390f35b610339610c57565b6040518082815260200191505060405180910390f35b6103bb6004803603606081101561036557600080fd5b81019080803573ffffffffffffffffffffffffffffffffffffffff169060200190929190803573ffffffffffffffffffffffffffffffffffffffff16906020019092919080359060200190929190505050610c61565b60405180821515815260200191505060405180910390f35b6103ff600480360360208110156103e957600080fd5b8101908080359060200190929190505050610e0d565b604051808273ffffffffffffffffffffffffffffffffffffffff16815260200191505060405180910390f35b610433610e49565b604051808260ff16815260200191505060405180910390f35b610454610e52565b6040518082815260200191505060405180910390f35b6104b66004803603604081101561048057600080fd5b81019080803573ffffffffffffffffffffffffffffffffffffffff16906020019092919080359060200190929190505050610e58565b005b6104c0611325565b6040518082815260200191505060405180910390f35b6104de611535565b604051808273ffffffffffffffffffffffffffffffffffffffff16815260200191505060405180910390f35b61054c6004803603602081101561052057600080fd5b81019080803573ffffffffffffffffffffffffffffffffffffffff16906020019092919050505061155f565b6040518082815260200191505060405180910390f35b61056a61164a565b6040518082815260200191505060405180910390f35b610588611650565b6040518080602001828103825283818151815260200191508051906020019080838360005b838110156105c85780820151818401526020810190506105ad565b50505050905090810190601f1680156105f55780820380516001836020036101000a031916815260200191505b509250505060405180910390f35b61060b611667565b604051808273ffffffffffffffffffffffffffffffffffffffff16815260200191505060405180910390f35b6106836004803603604081101561064d57600080fd5b81019080803573ffffffffffffffffffffffffffffffffffffffff1690602001909291908035906020019092919050505061168b565b60405180821515815260200191505060405180910390f35b6106a36116a2565b6040518082815260200191505060405180910390f35b6106c16116d7565b604051808060200180602001848152602001838103835286818151815260200191508051906020019060200280838360005b8381101561070e5780820151818401526020810190506106f3565b50505050905001838103825285818151815260200191508051906020019060200280838360005b83811015610750578082015181840152602081019050610735565b505050509050019550505050505060405180910390f35b61076f611b19565b604051808273ffffffffffffffffffffffffffffffffffffffff16815260200191505060405180910390f35b6107a3611b43565b604051808273ffffffffffffffffffffffffffffffffffffffff16815260200191505060405180910390f35b610811600480360360208110156107e557600080fd5b81019080803573ffffffffffffffffffffffffffffffffffffffff169060200190929190505050611b69565b6040518082815260200191505060405180910390f35b61082f611b81565b6040518080602001828103825283818151815260200191508051906020019080838360005b8381101561086f578082015181840152602081019050610854565b50505050905090810190601f16801561089c5780820380516001836020036101000a031916815260200191505b509250505060405180910390f35b6108ec600480360360208110156108c057600080fd5b81019080803573ffffffffffffffffffffffffffffffffffffffff169060200190929190505050611c1f565b005b6109506004803603604081101561090457600080fd5b81019080803573ffffffffffffffffffffffffffffffffffffffff169060200190929190803573ffffffffffffffffffffffffffffffffffffffff169060200190929190505050611e18565b6040518082815260200191505060405180910390f35b61096e611e3d565b604051808273ffffffffffffffffffffffffffffffffffffffff16815260200191505060405180910390f35b6109a2611e63565b604051808273ffffffffffffffffffffffffffffffffffffffff16815260200191505060405180910390f35b610a26600480360360608110156109e457600080fd5b81019080803573ffffffffffffffffffffffffffffffffffffffff16906020019092919080351515906020019092919080359060200190929190505050611e89565b005b610a7460048036036040811015610a3e57600080fd5b81019080803573ffffffffffffffffffffffffffffffffffffffff16906020019092919080359060200190929190505050612ae9565b005b606060018054600181600116156101000203166002900480601f016020809104026020016040519081016040528092919081815260200182805460018160011615610100020316600290048015610b0e5780601f10610ae357610100808354040283529160200191610b0e565b820191906000526020600020905b815481529060010190602001808311610af157829003601f168201915b5050505050905090565b6000610b25338484613288565b6001905092915050565b6000600254905090565b60008073ffffffffffffffffffffffffffffffffffffffff168273ffffffffffffffffffffffffffffffffffffffff161415610bdd576040517f08c379a000000000000000000000000000000000000000000000000000000000815260040180806020018281038252600f8152602001807f496e76616c69642061646472657373000000000000000000000000000000000081525060200191505060405180910390fd5b6000610be76116a2565b9050610c4f600254610c41600760008773ffffffffffffffffffffffffffffffffffffffff1673ffffffffffffffffffffffffffffffffffffffff168152602001908152602001600020548461337390919063ffffffff16565b6133aa90919063ffffffff16565b915050919050565b6000600454905090565b600080600860008673ffffffffffffffffffffffffffffffffffffffff1673ffffffffffffffffffffffffffffffffffffffff16815260200190815260200160002060003373ffffffffffffffffffffffffffffffffffffffff1673ffffffffffffffffffffffffffffffffffffffff168152602001908152602001600020541115610df757610d7682600860008773ffffffffffffffffffffffffffffffffffffffff1673ffffffffffffffffffffffffffffffffffffffff16815260200190815260200160002060003373ffffffffffffffffffffffffffffffffffffffff1673ffffffffffffffffffffffffffffffffffffffff168152602001908152602001600020546133c390919063ffffffff16565b600860008673ffffffffffffffffffffffffffffffffffffffff1673ffffffffffffffffffffffffffffffffffffffff16815260200190815260200160002060003373ffffffffffffffffffffffffffffffffffffffff1673ffffffffffffffffffffffffffffffffffffffff168152602001908152602001600020819055505b610e028484846133da565b600190509392505050565b60098181548110610e1a57fe5b906000526020600020016000915054906101000a900473ffffffffffffffffffffffffffffffffffffffff1681565b60006012905090565b60025481565b600660009054906101000a900473ffffffffffffffffffffffffffffffffffffffff1673ffffffffffffffffffffffffffffffffffffffff163373ffffffffffffffffffffffffffffffffffffffff1614610efe576040517f08c379a0000000000000000000000000000000000000000000000000000000008152600401808060200182810382526030815260200180613aa36030913960400191505060405180910390fd5b600073ffffffffffffffffffffffffffffffffffffffff168273ffffffffffffffffffffffffffffffffffffffff161415610fa1576040517f08c379a00000000000000000000000000000000000000000000000000000000081526004018080602001828103825260148152602001807f496e76616c69642075736572206164647265737300000000000000000000000081525060200191505060405180910390fd5b60008111611017576040517f08c379a000000000000000000000000000000000000000000000000000000000815260040180806020018281038252601e8152602001807f4465706f736974206d7573742062652067726561746572207468616e2030000081525060200191505060405180910390fd5b60008060009054906101000a900473ffffffffffffffffffffffffffffffffffffffff1673ffffffffffffffffffffffffffffffffffffffff166304433bbc6040518163ffffffff1660e01b81526004018080602001828103825260088152602001807f53657474696e677300000000000000000000000000000000000000000000000081525060200191505060206040518083038186803b1580156110bc57600080fd5b505afa1580156110d0573d6000803e3d6000fd5b505050506040513d60208110156110e657600080fd5b8101908080519060200190929190505050905060008173ffffffffffffffffffffffffffffffffffffffff1663be781b1c6040518163ffffffff1660e01b815260040160206040518083038186803b15801561114157600080fd5b505afa158015611155573d6000803e3d6000fd5b505050506040513d602081101561116b57600080fd5b810190808051906020019092919050505090508073ffffffffffffffffffffffffffffffffffffffff166323b872dd3330866040518463ffffffff1660e01b8152600401808473ffffffffffffffffffffffffffffffffffffffff1681526020018373ffffffffffffffffffffffffffffffffffffffff1681526020018281526020019350505050602060405180830381600087803b15801561120d57600080fd5b505af1158015611221573d6000803e3d6000fd5b505050506040513d602081101561123757600080fd5b81019080805190602001909291905050505061129b83600760008773ffffffffffffffffffffffffffffffffffffffff1673ffffffffffffffffffffffffffffffffffffffff1681526020019081526020016000205461356e90919063ffffffff16565b506112b18360025461356e90919063ffffffff16565b503073ffffffffffffffffffffffffffffffffffffffff163373ffffffffffffffffffffffffffffffffffffffff167f0eb1bd5716040080f7b533c81b41fc4489007e229d63ec955934adf0908f75f98542604051808381526020018281526020019250505060405180910390a350505050565b60008060008054906101000a900473ffffffffffffffffffffffffffffffffffffffff1673ffffffffffffffffffffffffffffffffffffffff166304433bbc6040518163ffffffff1660e01b81526004018080602001828103825260088152602001807f53657474696e677300000000000000000000000000000000000000000000000081525060200191505060206040518083038186803b1580156113ca57600080fd5b505afa1580156113de573d6000803e3d6000fd5b505050506040513d60208110156113f457600080fd5b8101908080519060200190929190505050905060008173ffffffffffffffffffffffffffffffffffffffff1663be781b1c6040518163ffffffff1660e01b815260040160206040518083038186803b15801561144f57600080fd5b505afa158015611463573d6000803e3d6000fd5b505050506040513d602081101561147957600080fd5b810190808051906020019092919050505090508073ffffffffffffffffffffffffffffffffffffffff166370a08231306040518263ffffffff1660e01b8152600401808273ffffffffffffffffffffffffffffffffffffffff16815260200191505060206040518083038186803b1580156114f357600080fd5b505afa158015611507573d6000803e3d6000fd5b505050506040513d602081101561151d57600080fd5b81019080805190602001909291905050509250505090565b6000600560009054906101000a900473ffffffffffffffffffffffffffffffffffffffff16905090565b60008073ffffffffffffffffffffffffffffffffffffffff168273ffffffffffffffffffffffffffffffffffffffff161415611603576040517f08c379a00000000000000000000000000000000000000000000000000000000081526004018080602001828103825260148152602001807f496e76616c69642075736572206164647265737300000000000000000000000081525060200191505060405180910390fd5b600760008373ffffffffffffffffffffffffffffffffffffffff1673ffffffffffffffffffffffffffffffffffffffff168152602001908152602001600020549050919050565b60045481565b606060405180602001604052806000815250905090565b60008054906101000a900473ffffffffffffffffffffffffffffffffffffffff1681565b60006116983384846133da565b6001905092915050565b6000806116ad6116d7565b9250505060006116bb611325565b90506116d0828261356e90919063ffffffff16565b9250505090565b60608060008060008054906101000a900473ffffffffffffffffffffffffffffffffffffffff1673ffffffffffffffffffffffffffffffffffffffff166304433bbc6040518163ffffffff1660e01b81526004018080602001828103825260128152602001807f426173655562657377617041646170746572000000000000000000000000000081525060200191505060206040518083038186803b15801561177f57600080fd5b505afa158015611793573d6000803e3d6000fd5b505050506040513d60208110156117a957600080fd5b81019080805190602001909291905050509050606060098054905067ffffffffffffffff811180156117da57600080fd5b506040519080825280602002602001820160405280156118095781602001602082028036833780820191505090505b509050606060098054905067ffffffffffffffff8111801561182a57600080fd5b506040519080825280602002602001820160405280156118595781602001602082028036833780820191505090505b5090506000805b600980549050811015611b06576009818154811061187a57fe5b9060005260206000200160009054906101000a900473ffffffffffffffffffffffffffffffffffffffff1673ffffffffffffffffffffffffffffffffffffffff166370a08231306040518263ffffffff1660e01b8152600401808273ffffffffffffffffffffffffffffffffffffffff16815260200191505060206040518083038186803b15801561190b57600080fd5b505afa15801561191f573d6000803e3d6000fd5b505050506040513d602081101561193557600080fd5b810190808051906020019092919050505083828151811061195257fe5b6020026020010181815250506009818154811061196b57fe5b9060005260206000200160009054906101000a900473ffffffffffffffffffffffffffffffffffffffff168482815181106119a257fe5b602002602001019073ffffffffffffffffffffffffffffffffffffffff16908173ffffffffffffffffffffffffffffffffffffffff168152505060008573ffffffffffffffffffffffffffffffffffffffff166341976e0960098481548110611a0757fe5b9060005260206000200160009054906101000a900473ffffffffffffffffffffffffffffffffffffffff166040518263ffffffff1660e01b8152600401808273ffffffffffffffffffffffffffffffffffffffff16815260200191505060206040518083038186803b158015611a7c57600080fd5b505afa158015611a90573d6000803e3d6000fd5b505050506040513d6020811015611aa657600080fd5b810190808051906020019092919050505090506000611ae1858481518110611aca57fe5b60200260200101518361337390919063ffffffff16565b9050611af6818561356e90919063ffffffff16565b5050508080600101915050611860565b5082828296509650965050505050909192565b6000600360009054906101000a900473ffffffffffffffffffffffffffffffffffffffff16905090565b600660009054906101000a900473ffffffffffffffffffffffffffffffffffffffff1681565b60076020528060005260406000206000915090505481565b60018054600181600116156101000203166002900480601f016020809104026020016040519081016040528092919081815260200182805460018160011615610100020316600290048015611c175780601f10611bec57610100808354040283529160200191611c17565b820191906000526020600020905b815481529060010190602001808311611bfa57829003601f168201915b505050505081565b600660009054906101000a900473ffffffffffffffffffffffffffffffffffffffff1673ffffffffffffffffffffffffffffffffffffffff163373ffffffffffffffffffffffffffffffffffffffff1614611cc5576040517f08c379a0000000000000000000000000000000000000000000000000000000008152600401808060200182810382526030815260200180613aa36030913960400191505060405180910390fd5b600073ffffffffffffffffffffffffffffffffffffffff168173ffffffffffffffffffffffffffffffffffffffff161415611d68576040517f08c379a00000000000000000000000000000000000000000000000000000000081526004018080602001828103825260148152602001807f496e76616c6964206661726d206164647265737300000000000000000000000081525060200191505060405180910390fd5b80600560006101000a81548173ffffffffffffffffffffffffffffffffffffffff021916908373ffffffffffffffffffffffffffffffffffffffff1602179055503073ffffffffffffffffffffffffffffffffffffffff167f0b573389cc314585efb6a07f9e19191d0152f7bf4484b05181383bddbd6d8e798242604051808373ffffffffffffffffffffffffffffffffffffffff1681526020018281526020019250505060405180910390a250565b6008602052816000526040600020602052806000526040600020600091509150505481565b600360009054906101000a900473ffffffffffffffffffffffffffffffffffffffff1681565b600560009054906101000a900473ffffffffffffffffffffffffffffffffffffffff1681565b600660009054906101000a900473ffffffffffffffffffffffffffffffffffffffff1673ffffffffffffffffffffffffffffffffffffffff163373ffffffffffffffffffffffffffffffffffffffff1614611f2f576040517f08c379a0000000000000000000000000000000000000000000000000000000008152600401808060200182810382526030815260200180613aa36030913960400191505060405180910390fd5b60008060009054906101000a900473ffffffffffffffffffffffffffffffffffffffff1673ffffffffffffffffffffffffffffffffffffffff166304433bbc6040518163ffffffff1660e01b81526004018080602001828103825260088152602001807f53657474696e677300000000000000000000000000000000000000000000000081525060200191505060206040518083038186803b158015611fd457600080fd5b505afa158015611fe8573d6000803e3d6000fd5b505050506040513d6020811015611ffe57600080fd5b8101908080519060200190929190505050905060008060009054906101000a900473ffffffffffffffffffffffffffffffffffffffff1673ffffffffffffffffffffffffffffffffffffffff166304433bbc6040518163ffffffff1660e01b81526004018080602001828103825260128152602001807f426173655562657377617041646170746572000000000000000000000000000081525060200191505060206040518083038186803b1580156120b657600080fd5b505afa1580156120ca573d6000803e3d6000fd5b505050506040513d60208110156120e057600080fd5b8101908080519060200190929190505050905060008273ffffffffffffffffffffffffffffffffffffffff1663be781b1c6040518163ffffffff1660e01b815260040160206040518083038186803b15801561213b57600080fd5b505afa15801561214f573d6000803e3d6000fd5b505050506040513d602081101561216557600080fd5b81019080805190602001909291905050509050600084116121d1576040517f08c379a0000000000000000000000000000000000000000000000000000000008152600401808060200182810382526027815260200180613af46027913960400191505060405180910390fd5b600073ffffffffffffffffffffffffffffffffffffffff168673ffffffffffffffffffffffffffffffffffffffff161415612274576040517f08c379a00000000000000000000000000000000000000000000000000000000081526004018080602001828103825260148152602001807f496e76616c69642063757272656e6379206b657900000000000000000000000081525060200191505060405180910390fd5b8273ffffffffffffffffffffffffffffffffffffffff1663571a0885876040518263ffffffff1660e01b8152600401808273ffffffffffffffffffffffffffffffffffffffff16815260200191505060206040518083038186803b1580156122db57600080fd5b505afa1580156122ef573d6000803e3d6000fd5b505050506040513d602081101561230557600080fd5b8101908080519060200190929190505050612388576040517f08c379a000000000000000000000000000000000000000000000000000000000815260040180806020018281038252601d8152602001807f43757272656e6379206b6579206973206e6f7420617661696c61626c6500000081525060200191505060405180910390fd5b60008273ffffffffffffffffffffffffffffffffffffffff166341976e09886040518263ffffffff1660e01b8152600401808273ffffffffffffffffffffffffffffffffffffffff16815260200191505060206040518083038186803b1580156123f157600080fd5b505afa158015612405573d6000803e3d6000fd5b505050506040513d602081101561241b57600080fd5b81019080805190602001909291905050509050600086156125e257612449828761337390919063ffffffff16565b612451611325565b10156124c5576040517f08c379a00000000000000000000000000000000000000000000000000000000081526004018080602001828103825260108152602001807f4e6f7420656e6f7567682066756e64730000000000000000000000000000000081525060200191505060405180910390fd5b60006124da83886133aa90919063ffffffff16565b9050600061250560646124f760628b61337390919063ffffffff16565b6133aa90919063ffffffff16565b90508573ffffffffffffffffffffffffffffffffffffffff1663e5414cd0868c85856040518563ffffffff1660e01b8152600401808573ffffffffffffffffffffffffffffffffffffffff1681526020018473ffffffffffffffffffffffffffffffffffffffff168152602001838152602001828152602001945050505050602060405180830381600087803b15801561259e57600080fd5b505af11580156125b2573d6000803e3d6000fd5b505050506040513d60208110156125c857600080fd5b810190808051906020019092919050505092505050612a60565b60005b60098054905081101561266f57600981815481106125ff57fe5b9060005260206000200160009054906101000a900473ffffffffffffffffffffffffffffffffffffffff1673ffffffffffffffffffffffffffffffffffffffff168973ffffffffffffffffffffffffffffffffffffffff1614156126625761266f565b80806001019150506125e5565b60098054905081106126cc576040517f08c379a0000000000000000000000000000000000000000000000000000000008152600401808060200182810382526026815260200180613b3d6026913960400191505060405180910390fd5b868973ffffffffffffffffffffffffffffffffffffffff166370a08231336040518263ffffffff1660e01b8152600401808273ffffffffffffffffffffffffffffffffffffffff16815260200191505060206040518083038186803b15801561273457600080fd5b505afa158015612748573d6000803e3d6000fd5b505050506040513d602081101561275e57600080fd5b810190808051906020019092919050505010156127c6576040517f08c379a0000000000000000000000000000000000000000000000000000000008152600401808060200182810382526022815260200180613b1b6022913960400191505060405180910390fd5b60006127db848961337390919063ffffffff16565b9050600061280660646127f860628561337390919063ffffffff16565b6133aa90919063ffffffff16565b90508673ffffffffffffffffffffffffffffffffffffffff1663e5414cd08c888c856040518563ffffffff1660e01b8152600401808573ffffffffffffffffffffffffffffffffffffffff1681526020018473ffffffffffffffffffffffffffffffffffffffff168152602001838152602001828152602001945050505050602060405180830381600087803b15801561289f57600080fd5b505af11580156128b3573d6000803e3d6000fd5b505050506040513d60208110156128c957600080fd5b8101908080519060200190929190505050935060008b73ffffffffffffffffffffffffffffffffffffffff166370a08231336040518263ffffffff1660e01b8152600401808273ffffffffffffffffffffffffffffffffffffffff16815260200191505060206040518083038186803b15801561294557600080fd5b505afa158015612959573d6000803e3d6000fd5b505050506040513d602081101561296f57600080fd5b81019080805190602001909291905050501415612a5c5760096001600980549050038154811061299b57fe5b9060005260206000200160009054906101000a900473ffffffffffffffffffffffffffffffffffffffff16600984815481106129d357fe5b9060005260206000200160006101000a81548173ffffffffffffffffffffffffffffffffffffffff021916908373ffffffffffffffffffffffffffffffffffffffff1602179055506009805480612a2657fe5b6001900381819060005260206000200160006101000a81549073ffffffffffffffffffffffffffffffffffffffff021916905590555b5050505b8773ffffffffffffffffffffffffffffffffffffffff163073ffffffffffffffffffffffffffffffffffffffff167f929eb7d2e6621260223433b747992833b209c5dd762a0040fb0a87a4b80a1d4a8989854260405180851515815260200184815260200183815260200182815260200194505050505060405180910390a35050505050505050565b600660009054906101000a900473ffffffffffffffffffffffffffffffffffffffff1673ffffffffffffffffffffffffffffffffffffffff163373ffffffffffffffffffffffffffffffffffffffff1614612b8f576040517f08c379a0000000000000000000000000000000000000000000000000000000008152600401808060200182810382526030815260200180613aa36030913960400191505060405180910390fd5b600073ffffffffffffffffffffffffffffffffffffffff168273ffffffffffffffffffffffffffffffffffffffff161415612c32576040517f08c379a00000000000000000000000000000000000000000000000000000000081526004018080602001828103825260148152602001807f496e76616c69642075736572206164647265737300000000000000000000000081525060200191505060405180910390fd5b60008111612c8b576040517f08c379a0000000000000000000000000000000000000000000000000000000008152600401808060200182810382526021815260200180613ad36021913960400191505060405180910390fd5b6000612c9683610b39565b905081811015612d0e576040517f08c379a000000000000000000000000000000000000000000000000000000000815260040180806020018281038252601c8152602001807f4e6f7420656e6f7567682066756e647320746f2077697468647261770000000081525060200191505060405180910390fd5b6000612d186116a2565b90506000600760008673ffffffffffffffffffffffffffffffffffffffff1673ffffffffffffffffffffffffffffffffffffffff168152602001908152602001600020548311612d69576000612dbc565b612dbb600760008773ffffffffffffffffffffffffffffffffffffffff1673ffffffffffffffffffffffffffffffffffffffff16815260200190815260200160002054846133c390919063ffffffff16565b5b90506000612de584612dd7878561337390919063ffffffff16565b6133aa90919063ffffffff16565b90506000612e116064612e036004548561337390919063ffffffff16565b6133aa90919063ffffffff16565b90506000612e2882886133c390919063ffffffff16565b90506000841115612e3e57612e3d888361358a565b5b6000612e5386896133aa90919063ffffffff16565b9050612ea781600760008c73ffffffffffffffffffffffffffffffffffffffff1673ffffffffffffffffffffffffffffffffffffffff168152602001908152602001600020546133c390919063ffffffff16565b50612ebd816002546133c390919063ffffffff16565b5060005b60098054905081101561320f57600060098281548110612edd57fe5b9060005260206000200160009054906101000a900473ffffffffffffffffffffffffffffffffffffffff1673ffffffffffffffffffffffffffffffffffffffff166370a08231306040518263ffffffff1660e01b8152600401808273ffffffffffffffffffffffffffffffffffffffff16815260200191505060206040518083038186803b158015612f6e57600080fd5b505afa158015612f82573d6000803e3d6000fd5b505050506040513d6020811015612f9857600080fd5b810190808051906020019092919050505090506000612fd289612fc4878561337390919063ffffffff16565b6133aa90919063ffffffff16565b905060098381548110612fe157fe5b9060005260206000200160009054906101000a900473ffffffffffffffffffffffffffffffffffffffff1673ffffffffffffffffffffffffffffffffffffffff1663095ea7b38d836040518363ffffffff1660e01b8152600401808373ffffffffffffffffffffffffffffffffffffffff16815260200182815260200192505050602060405180830381600087803b15801561307c57600080fd5b505af1158015613090573d6000803e3d6000fd5b505050506040513d60208110156130a657600080fd5b810190808051906020019092919050505050600983815481106130c557fe5b9060005260206000200160009054906101000a900473ffffffffffffffffffffffffffffffffffffffff1673ffffffffffffffffffffffffffffffffffffffff166323b872dd308e846040518463ffffffff1660e01b8152600401808473ffffffffffffffffffffffffffffffffffffffff1681526020018373ffffffffffffffffffffffffffffffffffffffff1681526020018281526020019350505050602060405180830381600087803b15801561317e57600080fd5b505af1158015613192573d6000803e3d6000fd5b505050506040513d60208110156131a857600080fd5b8101908080519060200190929190505050506000600254141561320057600983815481106131d257fe5b9060005260206000200160006101000a81549073ffffffffffffffffffffffffffffffffffffffff02191690555b50508080600101915050612ec1565b503073ffffffffffffffffffffffffffffffffffffffff163373ffffffffffffffffffffffffffffffffffffffff167fcd66141cfde93a4c7ec1f982902a7c551ee653bcd0579aa9ba0e05c71410d0f78a42604051808381526020018281526020019250505060405180910390a3505050505050505050565b80600860008573ffffffffffffffffffffffffffffffffffffffff1673ffffffffffffffffffffffffffffffffffffffff16815260200190815260200160002060008473ffffffffffffffffffffffffffffffffffffffff1673ffffffffffffffffffffffffffffffffffffffff168152602001908152602001600020819055508173ffffffffffffffffffffffffffffffffffffffff168373ffffffffffffffffffffffffffffffffffffffff167f8c5be1e5ebec7d5bd14f71427d1e84f3dd0314c0f7b2291e5b200ac8c7c3b925836040518082815260200191505060405180910390a3505050565b60008083141561338657600090506133a4565b600082840290508284828161339757fe5b041461339f57fe5b809150505b92915050565b6000808284816133b657fe5b0490508091505092915050565b6000828211156133cf57fe5b818303905092915050565b61342c81600760008673ffffffffffffffffffffffffffffffffffffffff1673ffffffffffffffffffffffffffffffffffffffff168152602001908152602001600020546133c390919063ffffffff16565b600760008573ffffffffffffffffffffffffffffffffffffffff1673ffffffffffffffffffffffffffffffffffffffff168152602001908152602001600020819055506134c181600760008573ffffffffffffffffffffffffffffffffffffffff1673ffffffffffffffffffffffffffffffffffffffff1681526020019081526020016000205461356e90919063ffffffff16565b600760008473ffffffffffffffffffffffffffffffffffffffff1673ffffffffffffffffffffffffffffffffffffffff168152602001908152602001600020819055508173ffffffffffffffffffffffffffffffffffffffff168373ffffffffffffffffffffffffffffffffffffffff167fddf252ad1be2c89b69c2b068fc378daa952ba7f163c4a11628f55a4df523b3ef836040518082815260200191505060405180910390a3505050565b60008082840190508381101561358057fe5b8091505092915050565b60006135946116a2565b905060008060009054906101000a900473ffffffffffffffffffffffffffffffffffffffff1673ffffffffffffffffffffffffffffffffffffffff166304433bbc6040518163ffffffff1660e01b81526004018080602001828103825260078152602001807f466565506f6f6c0000000000000000000000000000000000000000000000000081525060200191505060206040518083038186803b15801561363b57600080fd5b505afa15801561364f573d6000803e3d6000fd5b505050506040513d602081101561366557600080fd5b8101908080519060200190929190505050905060005b6009805490508110156139835760006009828154811061369757fe5b9060005260206000200160009054906101000a900473ffffffffffffffffffffffffffffffffffffffff1673ffffffffffffffffffffffffffffffffffffffff166370a08231306040518263ffffffff1660e01b8152600401808273ffffffffffffffffffffffffffffffffffffffff16815260200191505060206040518083038186803b15801561372857600080fd5b505afa15801561373c573d6000803e3d6000fd5b505050506040513d602081101561375257600080fd5b81019080805190602001909291905050509050600061378c8561377e888561337390919063ffffffff16565b6133aa90919063ffffffff16565b90506009838154811061379b57fe5b9060005260206000200160009054906101000a900473ffffffffffffffffffffffffffffffffffffffff1673ffffffffffffffffffffffffffffffffffffffff1663095ea7b385836040518363ffffffff1660e01b8152600401808373ffffffffffffffffffffffffffffffffffffffff16815260200182815260200192505050602060405180830381600087803b15801561383657600080fd5b505af115801561384a573d6000803e3d6000fd5b505050506040513d602081101561386057600080fd5b8101908080519060200190929190505050506009838154811061387f57fe5b9060005260206000200160009054906101000a900473ffffffffffffffffffffffffffffffffffffffff1673ffffffffffffffffffffffffffffffffffffffff166323b872dd3086846040518463ffffffff1660e01b8152600401808473ffffffffffffffffffffffffffffffffffffffff1681526020018373ffffffffffffffffffffffffffffffffffffffff1681526020018281526020019350505050602060405180830381600087803b15801561393857600080fd5b505af115801561394c573d6000803e3d6000fd5b505050506040513d602081101561396257600080fd5b8101908080519060200190929190505050505050808060010191505061367b565b508073ffffffffffffffffffffffffffffffffffffffff16631dfb9aae600360009054906101000a900473ffffffffffffffffffffffffffffffffffffffff16856040518363ffffffff1660e01b8152600401808373ffffffffffffffffffffffffffffffffffffffff16815260200182815260200192505050600060405180830381600087803b158015613a1757600080fd5b505af1158015613a2b573d6000803e3d6000fd5b505050503073ffffffffffffffffffffffffffffffffffffffff168473ffffffffffffffffffffffffffffffffffffffff167fbafce7cda0b6bad679f81e8822ac7eb8d19db19f7d4940fdf1e8ec673b594ec08542604051808381526020018281526020019250505060405180910390a35050505056fe4f6e6c7920506f6f6c4d616e6167657220636f6e74726163742063616e2063616c6c20746869732066756e6374696f6e5769746864726177616c206d7573742062652067726561746572207468616e20304e756d626572206f6620746f6b656e73206d7573742062652067726561746572207468616e20304e6f7420656e6f75676820746f6b656e7320696e20746869732063757272656e6379446f6e27742068617665206120706f736974696f6e20696e20746869732063757272656e6379a2646970667358221220427eef1c308210db30a62be1105ccc87406771435d8097c160192b10c8efb80c64736f6c634300060c0033",
  "immutableReferences": {},
  "source": "pragma solidity >=0.5.0;\r\n\r\n//Adapters\r\nimport './interfaces/IBaseUbeswapAdapter.sol';\r\n\r\n//Interfaces\r\nimport './interfaces/IERC20.sol';\r\nimport './interfaces/IPool.sol';\r\nimport './interfaces/ISettings.sol';\r\nimport './interfaces/IAddressResolver.sol';\r\nimport './interfaces/IFeePool.sol';\r\n\r\n//Libraries\r\nimport './libraries/SafeMath.sol';\r\n\r\ncontract Pool is IPool, IERC20 {\r\n    using SafeMath for uint;\r\n\r\n    IAddressResolver public ADDRESS_RESOLVER;\r\n   \r\n    string public _name;\r\n    uint public _totalSupply;\r\n    address public _manager;\r\n    uint public _performanceFee; //expressed as %\r\n    address public _farmAddress;\r\n    address public _poolManagerAddress;\r\n\r\n    mapping (address => uint) public _balanceOf;\r\n    mapping(address => mapping(address => uint)) public override allowance;\r\n\r\n    address[] public _positionKeys;\r\n\r\n    constructor(string memory name, uint performanceFee, address manager, IAddressResolver addressResolver) public {\r\n        _name = name;\r\n        _manager = manager;\r\n        _performanceFee = performanceFee;\r\n        ADDRESS_RESOLVER = addressResolver;\r\n        _poolManagerAddress = msg.sender;\r\n    }\r\n\r\n    /* ========== VIEWS ========== */\r\n\r\n    /**\r\n    * @dev Returns the name of the pool\r\n    * @return string The name of the pool\r\n    */\r\n    function name() public view override(IPool, IERC20) returns (string memory) {\r\n        return _name;\r\n    }\r\n\r\n    function symbol() public view override returns (string memory) {\r\n        return \"\";\r\n    }\r\n\r\n    function decimals() public view override returns (uint8) {\r\n        return 18;\r\n    }\r\n\r\n    /**\r\n    * @dev Returns the address of the pool's farm\r\n    * @return address Address of the pool's farm\r\n    */\r\n    function getFarmAddress() public view override returns (address) {\r\n        return _farmAddress;\r\n    }\r\n\r\n    /**\r\n    * @dev Return the pool manager's address\r\n    * @return address Address of the pool's manager\r\n    */\r\n    function getManagerAddress() public view override returns (address) {\r\n        return _manager;\r\n    }\r\n\r\n    /**\r\n    * @dev Returns the currency address and balance of each position the pool has, as well as the cumulative value\r\n    * @return (address[], uint[], uint) Currency address and balance of each position the pool has, and the cumulative value of positions\r\n    */\r\n    function getPositionsAndTotal() public view override returns (address[] memory, uint[] memory, uint) {\r\n        address baseUbeswapAdapterAddress = ADDRESS_RESOLVER.getContractAddress(\"BaseUbeswapAdapter\");\r\n        address[] memory addresses = new address[](_positionKeys.length);\r\n        uint[] memory balances = new uint[](_positionKeys.length);\r\n        uint sum = 0;\r\n\r\n        for (uint i = 0; i < _positionKeys.length; i++)\r\n        {\r\n            balances[i] = IERC20(_positionKeys[i]).balanceOf(address(this));\r\n            addresses[i] = _positionKeys[i];\r\n\r\n            uint USDperToken = IBaseUbeswapAdapter(baseUbeswapAdapterAddress).getPrice(_positionKeys[i]);\r\n            uint positionBalanceInUSD = USDperToken.mul(balances[i]);\r\n            sum.add(positionBalanceInUSD);\r\n        }\r\n\r\n        return (addresses, balances, sum);\r\n    }\r\n\r\n    /**\r\n    * @dev Returns the amount of cUSD the pool has to invest\r\n    * @return uint Amount of cUSD the pool has available\r\n    */\r\n    function getAvailableFunds() public view override returns (uint) {\r\n        address settingsAddress = ADDRESS_RESOLVER.getContractAddress(\"Settings\");\r\n        address stableCoinAddress = ISettings(settingsAddress).getStableCoinAddress();\r\n\r\n        return IERC20(stableCoinAddress).balanceOf(address(this));\r\n    }\r\n\r\n    /**\r\n    * @dev Returns the value of the pool in USD\r\n    * @return uint Value of the pool in USD\r\n    */\r\n    function getPoolBalance() public view override returns (uint) {\r\n        (,, uint positionBalance) = getPositionsAndTotal();\r\n        uint availableFunds = getAvailableFunds();\r\n        \r\n        return availableFunds.add(positionBalance);\r\n    }\r\n\r\n    /**\r\n    * @dev Returns the balance of the user in USD\r\n    * @return uint Balance of the user in USD\r\n    */\r\n    function getUSDBalance(address user) public view override returns (uint) {\r\n        require(user != address(0), \"Invalid address\");\r\n\r\n        uint poolBalance = getPoolBalance();\r\n\r\n        return poolBalance.mul(_balanceOf[user]).div(_totalSupply);\r\n    }\r\n\r\n    /**\r\n    * @dev Returns the number of LP tokens the user has\r\n    * @param user Address of the user\r\n    * @return uint Number of LP tokens the user has\r\n    */\r\n    function balanceOf(address user) public view override(IPool, IERC20) returns (uint) {\r\n        require(user != address(0), \"Invalid user address\");\r\n\r\n        return _balanceOf[user];\r\n    }\r\n\r\n    /**\r\n    * @dev Returns the total supply of LP tokens in the pool\r\n    * @return uint Total supply of LP tokens\r\n    */\r\n    function totalSupply() public view override returns (uint) {\r\n        return _totalSupply;\r\n    }\r\n\r\n    /**\r\n    * @dev Returns the pool's performance fee\r\n    * @return uint The pool's performance fee\r\n    */\r\n    function getPerformanceFee() public view override returns (uint) {\r\n        return _performanceFee;\r\n    }\r\n\r\n    /* ========== MUTATIVE FUNCTIONS ========== */\r\n\r\n    function approve(address spender, uint value) public override returns (bool) {\r\n        _approve(msg.sender, spender, value);\r\n        return true;\r\n    }\r\n\r\n    function transfer(address to, uint value) public override returns (bool) {\r\n        _transfer(msg.sender, to, value);\r\n        return true;\r\n    }\r\n\r\n    function transferFrom(address from, address to, uint value) public override returns (bool) {\r\n        if (allowance[from][msg.sender] > 0) {\r\n            allowance[from][msg.sender] = allowance[from][msg.sender].sub(value);\r\n        }\r\n        _transfer(from, to, value);\r\n        return true;\r\n    }\r\n\r\n    /* ========== RESTRICTED FUNCTIONS ========== */\r\n\r\n    /**\r\n    * @dev Deposits the given USD amount into the pool\r\n    * @param user Address of the user\r\n    * @param amount Amount of USD to deposit into the pool\r\n    */\r\n    function deposit(address user, uint amount) public override onlyPoolManager {\r\n        require(user != address(0), \"Invalid user address\");\r\n        require(amount > 0, \"Deposit must be greater than 0\");\r\n\r\n        address settingsAddress = ADDRESS_RESOLVER.getContractAddress(\"Settings\");\r\n        address stableCoinAddress = ISettings(settingsAddress).getStableCoinAddress();\r\n\r\n        IERC20(stableCoinAddress).transferFrom(msg.sender, address(this), amount);\r\n        _balanceOf[user].add(amount); //add 1 LP token per cUSD\r\n        _totalSupply.add(amount);\r\n\r\n        emit DepositedFundsIntoPool(msg.sender, address(this), amount, block.timestamp);\r\n    }\r\n\r\n    /**\r\n    * @dev Withdraws the given USD amount on behalf of the user\r\n    * @notice The withdrawal is done using pool's assets at time of withdrawal. This avoids the exchange fees and slippage from exchanging pool's assets back to cUSD or TGEN.\r\n    * @param user Address of user to withdraw\r\n    * @param amount Amount of USD to withdraw from the pool\r\n    */\r\n    function withdraw(address user, uint amount) public override onlyPoolManager {\r\n        require(user != address(0), \"Invalid user address\");\r\n        require(amount > 0, \"Withdrawal must be greater than 0\");\r\n\r\n        uint USDBalance = getUSDBalance(user);\r\n\r\n        require(USDBalance >= amount, \"Not enough funds to withdraw\");\r\n\r\n        uint poolBalance = getPoolBalance();\r\n        uint totalProfit = (USDBalance > _balanceOf[user]) ? USDBalance.sub(_balanceOf[user]) : 0;\r\n        uint profitOnWithdrawalAmount = totalProfit.mul(amount).div(USDBalance); //Multiply by ratio of withdrawal amount to USD balance\r\n        uint fee = profitOnWithdrawalAmount.mul(_performanceFee).div(100);\r\n        uint amountToWithdrawAfterFee = amount.sub(fee);\r\n\r\n        //Pay performance fee if user has profit\r\n        if (totalProfit > 0) \r\n        {\r\n            _payPerformanceFee(user, fee);\r\n        }\r\n\r\n        uint numberOfLPTokens = amount.div(poolBalance);\r\n        _balanceOf[user].sub(numberOfLPTokens);\r\n        _totalSupply.sub(numberOfLPTokens);\r\n\r\n        //Withdraw user's portion of pool's assets\r\n        for (uint i = 0; i < _positionKeys.length; i++)\r\n        {\r\n            uint positionBalance = IERC20(_positionKeys[i]).balanceOf(address(this)); //Number of asset's tokens\r\n            uint amountToTransfer = positionBalance.mul(amountToWithdrawAfterFee).div(poolBalance); //Multiply by ratio of withdrawal amount after fee to pool's USD balance\r\n\r\n            IERC20(_positionKeys[i]).approve(user, amountToTransfer);\r\n            IERC20(_positionKeys[i]).transferFrom(address(this), user, amountToTransfer);\r\n\r\n            //Remove position key if pool is liquidated\r\n            if (_totalSupply == 0)\r\n            {\r\n                delete _positionKeys[i];\r\n            }\r\n        }\r\n\r\n        emit WithdrewFundsFromPool(msg.sender, address(this), amount, block.timestamp);\r\n    }\r\n\r\n    /**\r\n    * @dev Places an order to buy/sell the given currency\r\n    * @param currencyKey Address of currency to trade\r\n    * @param buyOrSell Whether the user is buying or selling\r\n    * @param numberOfTokens Number of tokens of the given currency\r\n    */\r\n    function placeOrder(address currencyKey, bool buyOrSell, uint numberOfTokens) public override onlyPoolManager {\r\n        address settingsAddress = ADDRESS_RESOLVER.getContractAddress(\"Settings\");\r\n        address baseUbeswapAdapterAddress = ADDRESS_RESOLVER.getContractAddress(\"BaseUbeswapAdapter\");\r\n        address stableCoinAddress = ISettings(settingsAddress).getStableCoinAddress();\r\n\r\n        require(numberOfTokens > 0, \"Number of tokens must be greater than 0\");\r\n        require(currencyKey != address(0), \"Invalid currency key\");\r\n        require(ISettings(settingsAddress).checkIfCurrencyIsAvailable(currencyKey), \"Currency key is not available\");\r\n\r\n        uint tokenToUSD = IBaseUbeswapAdapter(baseUbeswapAdapterAddress).getPrice(currencyKey);\r\n        uint numberOfTokensReceived;\r\n\r\n        //buying\r\n        if (buyOrSell)\r\n        {\r\n            require(getAvailableFunds() >= numberOfTokens.mul(tokenToUSD), \"Not enough funds\");\r\n\r\n            uint amountInUSD = numberOfTokens.div(tokenToUSD);\r\n            uint minAmountOut = numberOfTokens.mul(98).div(100); //max slippage 2%\r\n\r\n            numberOfTokensReceived = IBaseUbeswapAdapter(baseUbeswapAdapterAddress).swapFromPool(stableCoinAddress, currencyKey, amountInUSD, minAmountOut);\r\n        }\r\n        //selling\r\n        else\r\n        {\r\n            uint positionIndex;\r\n            for (positionIndex = 0; positionIndex < _positionKeys.length; positionIndex++)\r\n            {\r\n                if (currencyKey == _positionKeys[positionIndex])\r\n                {\r\n                    break;\r\n                }\r\n            }\r\n\r\n            require(positionIndex < _positionKeys.length, \"Don't have a position in this currency\");\r\n            require(IERC20(currencyKey).balanceOf(msg.sender) >= numberOfTokens, \"Not enough tokens in this currency\");\r\n\r\n            uint amountInUSD = numberOfTokens.mul(tokenToUSD);\r\n            uint minAmountOut = amountInUSD.mul(98).div(100); //max slippage 2%\r\n\r\n            numberOfTokensReceived = IBaseUbeswapAdapter(baseUbeswapAdapterAddress).swapFromPool(currencyKey, stableCoinAddress, numberOfTokens, minAmountOut);\r\n\r\n            //remove position key if no funds left in currency\r\n            if (IERC20(currencyKey).balanceOf(msg.sender) == 0)\r\n            {\r\n                _positionKeys[positionIndex] = _positionKeys[_positionKeys.length - 1];\r\n                _positionKeys.pop();\r\n            }\r\n        }\r\n\r\n        emit PlacedOrder(address(this), currencyKey, buyOrSell, numberOfTokens, numberOfTokensReceived, block.timestamp);\r\n    }\r\n\r\n    /**\r\n    * @dev Updates the pool's farm address\r\n    * @param farmAddress Address of the pool's farm\r\n    */\r\n    function setFarmAddress(address farmAddress) public override onlyPoolManager {\r\n        require(farmAddress != address(0), \"Invalid farm address\");\r\n\r\n        _farmAddress = farmAddress;\r\n\r\n        emit UpdatedFarmAddress(address(this), farmAddress, block.timestamp);\r\n    }\r\n\r\n    /* ========== INTERNAL FUNCTIONS ========== */\r\n\r\n    /**\r\n    * @dev Pay performance fee on the user's profit when the user withdraws from the pool\r\n    * @notice Performance fee is paid in pool's assets at time of withdrawal\r\n    * @param user Address of the user\r\n    * @param fee Amount of cUSD to pay as a fee\r\n    */\r\n    function _payPerformanceFee(address user, uint fee) internal {\r\n        uint poolBalance = getPoolBalance();\r\n        address feePoolAddress = ADDRESS_RESOLVER.getContractAddress(\"FeePool\");\r\n\r\n        //Withdraw performance fee proportional to pool's assets\r\n        for (uint i = 0; i < _positionKeys.length; i++)\r\n        {\r\n            uint positionBalance = IERC20(_positionKeys[i]).balanceOf(address(this));\r\n            uint amountToTransfer = positionBalance.mul(fee).div(poolBalance);\r\n\r\n            IERC20(_positionKeys[i]).approve(feePoolAddress, amountToTransfer);\r\n            IERC20(_positionKeys[i]).transferFrom(address(this), feePoolAddress, amountToTransfer);\r\n        }\r\n\r\n        IFeePool(feePoolAddress).addFees(_manager, fee);\r\n\r\n        emit PaidPerformanceFee(user, address(this), fee, block.timestamp);\r\n    }\r\n\r\n    function _approve(address owner, address spender, uint value) private {\r\n        allowance[owner][spender] = value;\r\n        emit Approval(owner, spender, value);\r\n    }\r\n\r\n    function _transfer(address from, address to, uint value) private {\r\n        _balanceOf[from] = _balanceOf[from].sub(value);\r\n        _balanceOf[to] = _balanceOf[to].add(value);\r\n        emit Transfer(from, to, value);\r\n    }\r\n\r\n    /* ========== MODIFIERS ========== */\r\n\r\n    modifier onlyPoolManager() {\r\n        require(msg.sender == _poolManagerAddress, \"Only PoolManager contract can call this function\");\r\n        _;\r\n    }\r\n\r\n    /* ========== EVENTS ========== */\r\n\r\n    event DepositedFundsIntoPool(address indexed user, address indexed poolAddress, uint amount, uint timestamp);\r\n    event WithdrewFundsFromPool(address indexed user, address indexed poolAddress, uint amount, uint timestamp);\r\n    event PaidPerformanceFee(address indexed user, address indexed poolAddress, uint amount, uint timestamp);\r\n    event PlacedOrder(address indexed poolAddress, address indexed currencyKey, bool buyOrSell, uint numberOfTokensSwapped, uint numberOfTokensReceived, uint timestamp);\r\n    event UpdatedFarmAddress(address indexed poolAddress, address farmAddress, uint timestamp);\r\n}",
  "sourcePath": "C:\\Users\\xavie\\OneDrive\\Desktop\\TradeGen\\Github\\tradegen\\contracts\\Pool.sol",
  "compiler": {
    "name": "solc",
    "version": "0.6.12+commit.27d51765.Emscripten.clang"
  },
  "schemaVersion": "3.4.1",
  "updatedAt": "2021-07-15T18:31:19.064Z",
  "devdoc": {
    "kind": "dev",
    "methods": {
      "balanceOf(address)": {
        "details": "Returns the number of LP tokens the user has",
        "params": {
          "user": "Address of the user"
        },
        "returns": {
          "_0": "uint Number of LP tokens the user has"
        }
      },
      "deposit(address,uint256)": {
        "details": "Deposits the given USD amount into the pool",
        "params": {
          "amount": "Amount of USD to deposit into the pool",
          "user": "Address of the user"
        }
      },
      "getAvailableFunds()": {
        "details": "Returns the amount of cUSD the pool has to invest",
        "returns": {
          "_0": "uint Amount of cUSD the pool has available"
        }
      },
      "getFarmAddress()": {
        "details": "Returns the address of the pool's farm",
        "returns": {
          "_0": "address Address of the pool's farm"
        }
      },
      "getManagerAddress()": {
        "details": "Return the pool manager's address",
        "returns": {
          "_0": "address Address of the pool's manager"
        }
      },
      "getPerformanceFee()": {
        "details": "Returns the pool's performance fee",
        "returns": {
          "_0": "uint The pool's performance fee"
        }
      },
      "getPoolBalance()": {
        "details": "Returns the value of the pool in USD",
        "returns": {
          "_0": "uint Value of the pool in USD"
        }
      },
      "getPositionsAndTotal()": {
        "details": "Returns the currency address and balance of each position the pool has, as well as the cumulative value",
        "returns": {
          "_0": "(address[], uint[], uint) Currency address and balance of each position the pool has, and the cumulative value of positions"
        }
      },
      "getUSDBalance(address)": {
        "details": "Returns the balance of the user in USD",
        "returns": {
          "_0": "uint Balance of the user in USD"
        }
      },
      "name()": {
        "details": "Returns the name of the pool",
        "returns": {
          "_0": "string The name of the pool"
        }
      },
      "placeOrder(address,bool,uint256)": {
        "details": "Places an order to buy/sell the given currency",
        "params": {
          "buyOrSell": "Whether the user is buying or selling",
          "currencyKey": "Address of currency to trade",
          "numberOfTokens": "Number of tokens of the given currency"
        }
      },
      "setFarmAddress(address)": {
        "details": "Updates the pool's farm address",
        "params": {
          "farmAddress": "Address of the pool's farm"
        }
      },
      "totalSupply()": {
        "details": "Returns the total supply of LP tokens in the pool",
        "returns": {
          "_0": "uint Total supply of LP tokens"
        }
      },
      "withdraw(address,uint256)": {
        "details": "Withdraws the given USD amount on behalf of the user",
        "params": {
          "amount": "Amount of USD to withdraw from the pool",
          "user": "Address of user to withdraw"
        }
      }
    },
    "version": 1
  },
  "userdoc": {
    "kind": "user",
    "methods": {
      "withdraw(address,uint256)": {
        "notice": "The withdrawal is done using pool's assets at time of withdrawal. This avoids the exchange fees and slippage from exchanging pool's assets back to cUSD or TGEN."
      }
    },
    "version": 1
  }
}