{
  "contractName": "Pool",
  "abi": [
    {
      "inputs": [
        {
          "internalType": "string",
          "name": "poolName",
          "type": "string"
        },
        {
          "internalType": "uint256",
          "name": "performanceFee",
          "type": "uint256"
        },
        {
          "internalType": "address",
          "name": "manager",
          "type": "address"
        },
        {
          "internalType": "contract IAddressResolver",
          "name": "addressResolver",
          "type": "address"
        }
      ],
      "stateMutability": "nonpayable",
      "type": "constructor"
    },
    {
      "anonymous": false,
      "inputs": [
        {
          "indexed": true,
          "internalType": "address",
          "name": "owner",
          "type": "address"
        },
        {
          "indexed": true,
          "internalType": "address",
          "name": "spender",
          "type": "address"
        },
        {
          "indexed": false,
          "internalType": "uint256",
          "name": "value",
          "type": "uint256"
        }
      ],
      "name": "Approval",
      "type": "event"
    },
    {
      "anonymous": false,
      "inputs": [
        {
          "indexed": true,
          "internalType": "address",
          "name": "poolAddress",
          "type": "address"
        },
        {
          "indexed": true,
          "internalType": "address",
          "name": "userAddress",
          "type": "address"
        },
        {
          "indexed": false,
          "internalType": "uint256",
          "name": "amount",
          "type": "uint256"
        },
        {
          "indexed": false,
          "internalType": "uint256",
          "name": "timestamp",
          "type": "uint256"
        }
      ],
      "name": "Deposit",
      "type": "event"
    },
    {
      "anonymous": false,
      "inputs": [
        {
          "indexed": true,
          "internalType": "address",
          "name": "poolAddress",
          "type": "address"
        },
        {
          "indexed": true,
          "internalType": "address",
          "name": "manager",
          "type": "address"
        },
        {
          "indexed": false,
          "internalType": "address",
          "name": "to",
          "type": "address"
        },
        {
          "indexed": false,
          "internalType": "uint256",
          "name": "timestamp",
          "type": "uint256"
        }
      ],
      "name": "ExecutedTransaction",
      "type": "event"
    },
    {
      "anonymous": false,
      "inputs": [
        {
          "indexed": true,
          "internalType": "address",
          "name": "poolAddress",
          "type": "address"
        },
        {
          "indexed": true,
          "internalType": "address",
          "name": "manager",
          "type": "address"
        },
        {
          "indexed": false,
          "internalType": "uint256",
          "name": "amount",
          "type": "uint256"
        },
        {
          "indexed": false,
          "internalType": "uint256",
          "name": "timestamp",
          "type": "uint256"
        }
      ],
      "name": "MintedManagerFee",
      "type": "event"
    },
    {
      "anonymous": false,
      "inputs": [
        {
          "indexed": true,
          "internalType": "address",
          "name": "poolAddress",
          "type": "address"
        },
        {
          "indexed": true,
          "internalType": "address",
          "name": "manager",
          "type": "address"
        },
        {
          "indexed": false,
          "internalType": "uint256",
          "name": "timestamp",
          "type": "uint256"
        }
      ],
      "name": "RemovedEmptyPositions",
      "type": "event"
    },
    {
      "anonymous": false,
      "inputs": [
        {
          "indexed": true,
          "internalType": "address",
          "name": "from",
          "type": "address"
        },
        {
          "indexed": true,
          "internalType": "address",
          "name": "to",
          "type": "address"
        },
        {
          "indexed": false,
          "internalType": "uint256",
          "name": "value",
          "type": "uint256"
        }
      ],
      "name": "Transfer",
      "type": "event"
    },
    {
      "anonymous": false,
      "inputs": [
        {
          "indexed": true,
          "internalType": "address",
          "name": "poolAddress",
          "type": "address"
        },
        {
          "indexed": true,
          "internalType": "address",
          "name": "userAddress",
          "type": "address"
        },
        {
          "indexed": false,
          "internalType": "uint256",
          "name": "numberOfPoolTokens",
          "type": "uint256"
        },
        {
          "indexed": false,
          "internalType": "uint256",
          "name": "valueWithdrawn",
          "type": "uint256"
        },
        {
          "indexed": false,
          "internalType": "address[]",
          "name": "assets",
          "type": "address[]"
        },
        {
          "indexed": false,
          "internalType": "uint256[]",
          "name": "amountsWithdrawn",
          "type": "uint256[]"
        },
        {
          "indexed": false,
          "internalType": "uint256",
          "name": "timestamp",
          "type": "uint256"
        }
      ],
      "name": "Withdraw",
      "type": "event"
    },
    {
      "inputs": [],
      "name": "ADDRESS_RESOLVER",
      "outputs": [
        {
          "internalType": "contract IAddressResolver",
          "name": "",
          "type": "address"
        }
      ],
      "stateMutability": "view",
      "type": "function"
    },
    {
      "inputs": [
        {
          "internalType": "address",
          "name": "",
          "type": "address"
        }
      ],
      "name": "_balanceOf",
      "outputs": [
        {
          "internalType": "uint256",
          "name": "",
          "type": "uint256"
        }
      ],
      "stateMutability": "view",
      "type": "function"
    },
    {
      "inputs": [],
      "name": "_farmAddress",
      "outputs": [
        {
          "internalType": "address",
          "name": "",
          "type": "address"
        }
      ],
      "stateMutability": "view",
      "type": "function"
    },
    {
      "inputs": [],
      "name": "_manager",
      "outputs": [
        {
          "internalType": "address",
          "name": "",
          "type": "address"
        }
      ],
      "stateMutability": "view",
      "type": "function"
    },
    {
      "inputs": [],
      "name": "_name",
      "outputs": [
        {
          "internalType": "string",
          "name": "",
          "type": "string"
        }
      ],
      "stateMutability": "view",
      "type": "function"
    },
    {
      "inputs": [],
      "name": "_performanceFee",
      "outputs": [
        {
          "internalType": "uint256",
          "name": "",
          "type": "uint256"
        }
      ],
      "stateMutability": "view",
      "type": "function"
    },
    {
      "inputs": [
        {
          "internalType": "uint256",
          "name": "",
          "type": "uint256"
        }
      ],
      "name": "_positionKeys",
      "outputs": [
        {
          "internalType": "address",
          "name": "",
          "type": "address"
        }
      ],
      "stateMutability": "view",
      "type": "function"
    },
    {
      "inputs": [],
      "name": "_tokenPriceAtLastFeeMint",
      "outputs": [
        {
          "internalType": "uint256",
          "name": "",
          "type": "uint256"
        }
      ],
      "stateMutability": "view",
      "type": "function"
    },
    {
      "inputs": [],
      "name": "_totalSupply",
      "outputs": [
        {
          "internalType": "uint256",
          "name": "",
          "type": "uint256"
        }
      ],
      "stateMutability": "view",
      "type": "function"
    },
    {
      "inputs": [
        {
          "internalType": "address",
          "name": "",
          "type": "address"
        },
        {
          "internalType": "address",
          "name": "",
          "type": "address"
        }
      ],
      "name": "allowance",
      "outputs": [
        {
          "internalType": "uint256",
          "name": "",
          "type": "uint256"
        }
      ],
      "stateMutability": "view",
      "type": "function"
    },
    {
      "inputs": [],
      "name": "numberOfPositions",
      "outputs": [
        {
          "internalType": "uint256",
          "name": "",
          "type": "uint256"
        }
      ],
      "stateMutability": "view",
      "type": "function"
    },
    {
      "inputs": [
        {
          "internalType": "address",
          "name": "",
          "type": "address"
        }
      ],
      "name": "positionToIndex",
      "outputs": [
        {
          "internalType": "uint256",
          "name": "",
          "type": "uint256"
        }
      ],
      "stateMutability": "view",
      "type": "function"
    },
    {
      "inputs": [],
      "name": "name",
      "outputs": [
        {
          "internalType": "string",
          "name": "",
          "type": "string"
        }
      ],
      "stateMutability": "view",
      "type": "function"
    },
    {
      "inputs": [],
      "name": "symbol",
      "outputs": [
        {
          "internalType": "string",
          "name": "",
          "type": "string"
        }
      ],
      "stateMutability": "pure",
      "type": "function"
    },
    {
      "inputs": [],
      "name": "decimals",
      "outputs": [
        {
          "internalType": "uint8",
          "name": "",
          "type": "uint8"
        }
      ],
      "stateMutability": "pure",
      "type": "function"
    },
    {
      "inputs": [],
      "name": "getFarmAddress",
      "outputs": [
        {
          "internalType": "address",
          "name": "",
          "type": "address"
        }
      ],
      "stateMutability": "view",
      "type": "function"
    },
    {
      "inputs": [],
      "name": "getManagerAddress",
      "outputs": [
        {
          "internalType": "address",
          "name": "",
          "type": "address"
        }
      ],
      "stateMutability": "view",
      "type": "function"
    },
    {
      "inputs": [
        {
          "internalType": "address",
          "name": "asset",
          "type": "address"
        },
        {
          "internalType": "address",
          "name": "assetHandlerAddress",
          "type": "address"
        }
      ],
      "name": "getAssetValue",
      "outputs": [
        {
          "internalType": "uint256",
          "name": "",
          "type": "uint256"
        }
      ],
      "stateMutability": "view",
      "type": "function"
    },
    {
      "inputs": [],
      "name": "getPositionsAndTotal",
      "outputs": [
        {
          "internalType": "address[]",
          "name": "",
          "type": "address[]"
        },
        {
          "internalType": "uint256[]",
          "name": "",
          "type": "uint256[]"
        },
        {
          "internalType": "uint256",
          "name": "",
          "type": "uint256"
        }
      ],
      "stateMutability": "view",
      "type": "function"
    },
    {
      "inputs": [],
      "name": "getAvailableFunds",
      "outputs": [
        {
          "internalType": "uint256",
          "name": "",
          "type": "uint256"
        }
      ],
      "stateMutability": "view",
      "type": "function"
    },
    {
      "inputs": [],
      "name": "getPoolValue",
      "outputs": [
        {
          "internalType": "uint256",
          "name": "",
          "type": "uint256"
        }
      ],
      "stateMutability": "view",
      "type": "function"
    },
    {
      "inputs": [
        {
          "internalType": "address",
          "name": "user",
          "type": "address"
        }
      ],
      "name": "getUSDBalance",
      "outputs": [
        {
          "internalType": "uint256",
          "name": "",
          "type": "uint256"
        }
      ],
      "stateMutability": "view",
      "type": "function"
    },
    {
      "inputs": [
        {
          "internalType": "address",
          "name": "user",
          "type": "address"
        }
      ],
      "name": "balanceOf",
      "outputs": [
        {
          "internalType": "uint256",
          "name": "",
          "type": "uint256"
        }
      ],
      "stateMutability": "view",
      "type": "function"
    },
    {
      "inputs": [],
      "name": "totalSupply",
      "outputs": [
        {
          "internalType": "uint256",
          "name": "",
          "type": "uint256"
        }
      ],
      "stateMutability": "view",
      "type": "function"
    },
    {
      "inputs": [],
      "name": "getPerformanceFee",
      "outputs": [
        {
          "internalType": "uint256",
          "name": "",
          "type": "uint256"
        }
      ],
      "stateMutability": "view",
      "type": "function"
    },
    {
      "inputs": [],
      "name": "tokenPrice",
      "outputs": [
        {
          "internalType": "uint256",
          "name": "",
          "type": "uint256"
        }
      ],
      "stateMutability": "view",
      "type": "function"
    },
    {
      "inputs": [],
      "name": "availableManagerFee",
      "outputs": [
        {
          "internalType": "uint256",
          "name": "",
          "type": "uint256"
        }
      ],
      "stateMutability": "view",
      "type": "function"
    },
    {
      "inputs": [
        {
          "internalType": "address",
          "name": "spender",
          "type": "address"
        },
        {
          "internalType": "uint256",
          "name": "value",
          "type": "uint256"
        }
      ],
      "name": "approve",
      "outputs": [
        {
          "internalType": "bool",
          "name": "",
          "type": "bool"
        }
      ],
      "stateMutability": "nonpayable",
      "type": "function"
    },
    {
      "inputs": [
        {
          "internalType": "address",
          "name": "to",
          "type": "address"
        },
        {
          "internalType": "uint256",
          "name": "value",
          "type": "uint256"
        }
      ],
      "name": "transfer",
      "outputs": [
        {
          "internalType": "bool",
          "name": "",
          "type": "bool"
        }
      ],
      "stateMutability": "nonpayable",
      "type": "function"
    },
    {
      "inputs": [
        {
          "internalType": "address",
          "name": "from",
          "type": "address"
        },
        {
          "internalType": "address",
          "name": "to",
          "type": "address"
        },
        {
          "internalType": "uint256",
          "name": "value",
          "type": "uint256"
        }
      ],
      "name": "transferFrom",
      "outputs": [
        {
          "internalType": "bool",
          "name": "",
          "type": "bool"
        }
      ],
      "stateMutability": "nonpayable",
      "type": "function"
    },
    {
      "inputs": [],
      "name": "mintManagerFee",
      "outputs": [],
      "stateMutability": "nonpayable",
      "type": "function"
    },
    {
      "inputs": [
        {
          "internalType": "uint256",
          "name": "amount",
          "type": "uint256"
        }
      ],
      "name": "deposit",
      "outputs": [],
      "stateMutability": "nonpayable",
      "type": "function"
    },
    {
      "inputs": [
        {
          "internalType": "uint256",
          "name": "numberOfPoolTokens",
          "type": "uint256"
        }
      ],
      "name": "withdraw",
      "outputs": [],
      "stateMutability": "nonpayable",
      "type": "function"
    },
    {
      "inputs": [
        {
          "internalType": "address",
          "name": "to",
          "type": "address"
        },
        {
          "internalType": "bytes",
          "name": "data",
          "type": "bytes"
        }
      ],
      "name": "executeTransaction",
      "outputs": [],
      "stateMutability": "nonpayable",
      "type": "function"
    },
    {
      "inputs": [],
      "name": "removeEmptyPositions",
      "outputs": [],
      "stateMutability": "nonpayable",
      "type": "function"
    },
    {
      "inputs": [
        {
          "internalType": "address",
          "name": "farmAddress",
          "type": "address"
        }
      ],
      "name": "setFarmAddress",
      "outputs": [],
      "stateMutability": "nonpayable",
      "type": "function"
    }
  ],
  "bytecode": "0x60806040523480156200001157600080fd5b50604051620051c6380380620051c683398181016040528101906200003791906200025e565b83600190805190602001906200004f929190620000f1565b5081600360006101000a81548173ffffffffffffffffffffffffffffffffffffffff021916908373ffffffffffffffffffffffffffffffffffffffff16021790555082600481905550806000806101000a81548173ffffffffffffffffffffffffffffffffffffffff021916908373ffffffffffffffffffffffffffffffffffffffff160217905550670de0b6b3a76400006006819055505050505062000422565b828054600181600116156101000203166002900490600052602060002090601f01602090048101928262000129576000855562000175565b82601f106200014457805160ff191683800117855562000175565b8280016001018555821562000175579182015b828111156200017457825182559160200191906001019062000157565b5b50905062000184919062000188565b5090565b5b80821115620001a357600081600090555060010162000189565b5090565b6000620001be620001b88462000317565b620002e3565b905082815260208101848484011115620001d757600080fd5b620001e48482856200039c565b509392505050565b600081519050620001fd81620003d4565b92915050565b6000815190506200021481620003ee565b92915050565b600082601f8301126200022c57600080fd5b81516200023e848260208601620001a7565b91505092915050565b600081519050620002588162000408565b92915050565b600080600080608085870312156200027557600080fd5b600085015167ffffffffffffffff8111156200029057600080fd5b6200029e878288016200021a565b9450506020620002b18782880162000247565b9350506040620002c487828801620001ec565b9250506060620002d78782880162000203565b91505092959194509250565b6000604051905081810181811067ffffffffffffffff821117156200030d576200030c620003d2565b5b8060405250919050565b600067ffffffffffffffff821115620003355762000334620003d2565b5b601f19601f8301169050602081019050919050565b6000620003578262000372565b9050919050565b60006200036b826200034a565b9050919050565b600073ffffffffffffffffffffffffffffffffffffffff82169050919050565b6000819050919050565b60005b83811015620003bc5780820151818401526020810190506200039f565b83811115620003cc576000848401525b50505050565bfe5b620003df816200034a565b8114620003eb57600080fd5b50565b620003f9816200035e565b81146200040557600080fd5b50565b620004138162000392565b81146200041f57600080fd5b50565b614d9480620004326000396000f3fe608060405234801561001057600080fd5b506004361061021c5760003560e01c80637ff9b59611610125578063c162d7da116100ad578063d97998091161007c578063d979980914610639578063dd62ed3e14610655578063edbf6f5014610685578063f0329f6b146106a3578063f0f3da5e146106c15761021c565b8063c162d7da146105c3578063cc3c6df6146105e1578063cca3e832146105eb578063d28d88521461061b5761021c565b8063981f3b8e116100f4578063981f3b8e1461051b5780639db3235314610539578063a9059cbb14610557578063ac08c57414610587578063b6b55f25146105a75761021c565b80637ff9b5961461049157806380e28293146104af57806395d4e5da146104cd57806395d89b41146104fd5761021c565b80632ed8e0d4116101a85780635195bd29116101775780635195bd29146103d95780635cb035ad146103f75780636ca0f814146104275780636e1d9d2d1461044357806370a08231146104615761021c565b80632ed8e0d414610363578063313ce567146103935780633eaaf86b146103b157806347b339ca146103cf5761021c565b80631ba2f531116101ef5780631ba2f531146102ab5780632322e3b9146102c9578063235c3603146102f957806323b872dd146103175780632e1a7d4d146103475761021c565b806306fdde0314610221578063095ea7b31461023f57806318160ddd1461026f5780631978d6bc1461028d575b600080fd5b6102296106df565b60405161023691906147b1565b60405180910390f35b61025960048036038101906102549190613d12565b610781565b604051610266919061477b565b60405180910390f35b610277610798565b6040516102849190614a13565b60405180910390f35b6102956107a2565b6040516102a29190614a13565b60405180910390f35b6102b36107a8565b6040516102c09190614a13565b60405180910390f35b6102e360048036038101906102de9190613be1565b6108c9565b6040516102f09190614a13565b60405180910390f35b6103016109b4565b60405161030e9190614a13565b60405180910390f35b610331600480360381019061032c9190613c6f565b6109be565b60405161033e919061477b565b60405180910390f35b610361600480360381019061035c9190613dde565b610b6a565b005b61037d60048036038101906103789190613dde565b611093565b60405161038a91906145d8565b60405180910390f35b61039b6110c6565b6040516103a89190614ab8565b60405180910390f35b6103b96110cf565b6040516103c69190614a13565b60405180910390f35b6103d76110d5565b005b6103e1611262565b6040516103ee9190614a13565b60405180910390f35b610411600480360381019061040c9190613be1565b611420565b60405161041e9190614a13565b60405180910390f35b610441600480360381019061043c9190613cbe565b611438565b005b61044b611af6565b60405161045891906145d8565b60405180910390f35b61047b60048036038101906104769190613be1565b611b20565b6040516104889190614a13565b60405180910390f35b610499611bd8565b6040516104a69190614a13565b60405180910390f35b6104b7611bf4565b6040516104c49190614a13565b60405180910390f35b6104e760048036038101906104e29190613c33565b611bfa565b6040516104f49190614a13565b60405180910390f35b610505611eb7565b60405161051291906147b1565b60405180910390f35b610523611ece565b6040516105309190614796565b60405180910390f35b610541611ef2565b60405161054e9190614a13565b60405180910390f35b610571600480360381019061056c9190613d12565b611ef8565b60405161057e919061477b565b60405180910390f35b61058f611f0f565b60405161059e93929190614736565b60405180910390f35b6105c160048036038101906105bc9190613dde565b6123b1565b005b6105cb612720565b6040516105d891906145d8565b60405180910390f35b6105e961274a565b005b61060560048036038101906106009190613be1565b6127e5565b6040516106129190614a13565b60405180910390f35b6106236127fd565b60405161063091906147b1565b60405180910390f35b610653600480360381019061064e9190613be1565b61289b565b005b61066f600480360381019061066a9190613c33565b612a6a565b60405161067c9190614a13565b60405180910390f35b61068d612a8f565b60405161069a9190614a13565b60405180910390f35b6106ab612b48565b6040516106b891906145d8565b60405180910390f35b6106c9612b6e565b6040516106d691906145d8565b60405180910390f35b606060018054600181600116156101000203166002900480601f0160208091040260200160405190810160405280929190818152602001828054600181600116156101000203166002900480156107775780601f1061074c57610100808354040283529160200191610777565b820191906000526020600020905b81548152906001019060200180831161075a57829003601f168201915b5050505050905090565b600061078e338484612b94565b6001905092915050565b6000600254905090565b60065481565b60008060008054906101000a900473ffffffffffffffffffffffffffffffffffffffff1673ffffffffffffffffffffffffffffffffffffffff166304433bbc6040518163ffffffff1660e01b8152600401610802906149d3565b60206040518083038186803b15801561081a57600080fd5b505afa15801561082e573d6000803e3d6000fd5b505050506040513d601f19601f820116820180604052508101906108529190613c0a565b90506000805b600a548110156108c0576108b16108a26009600084815260200190815260200160002060009054906101000a900473ffffffffffffffffffffffffffffffffffffffff1685611bfa565b83612c7f90919063ffffffff16565b91508080600101915050610858565b50809250505090565b60008073ffffffffffffffffffffffffffffffffffffffff168273ffffffffffffffffffffffffffffffffffffffff16141561093a576040517f08c379a000000000000000000000000000000000000000000000000000000000815260040161093190614873565b60405180910390fd5b60006109446107a8565b90506109ac60025461099e600760008773ffffffffffffffffffffffffffffffffffffffff1673ffffffffffffffffffffffffffffffffffffffff1681526020019081526020016000205484612c9b90919063ffffffff16565b612cd290919063ffffffff16565b915050919050565b6000600454905090565b600080600860008673ffffffffffffffffffffffffffffffffffffffff1673ffffffffffffffffffffffffffffffffffffffff16815260200190815260200160002060003373ffffffffffffffffffffffffffffffffffffffff1673ffffffffffffffffffffffffffffffffffffffff168152602001908152602001600020541115610b5457610ad382600860008773ffffffffffffffffffffffffffffffffffffffff1673ffffffffffffffffffffffffffffffffffffffff16815260200190815260200160002060003373ffffffffffffffffffffffffffffffffffffffff1673ffffffffffffffffffffffffffffffffffffffff16815260200190815260200160002054612ceb90919063ffffffff16565b600860008673ffffffffffffffffffffffffffffffffffffffff1673ffffffffffffffffffffffffffffffffffffffff16815260200190815260200160002060003373ffffffffffffffffffffffffffffffffffffffff1673ffffffffffffffffffffffffffffffffffffffff168152602001908152602001600020819055505b610b5f848484612d02565b600190509392505050565b60008111610bad576040517f08c379a0000000000000000000000000000000000000000000000000000000008152600401610ba4906147d3565b60405180910390fd5b80600760003373ffffffffffffffffffffffffffffffffffffffff1673ffffffffffffffffffffffffffffffffffffffff168152602001908152602001600020541015610c2f576040517f08c379a0000000000000000000000000000000000000000000000000000000008152600401610c2690614953565b60405180910390fd5b6000610c39612e96565b90506000610c6c600254610c5e670de0b6b3a764000086612c9b90919063ffffffff16565b612cd290919063ffffffff16565b9050610cc083600760003373ffffffffffffffffffffffffffffffffffffffff1673ffffffffffffffffffffffffffffffffffffffff16815260200190815260200160002054612ceb90919063ffffffff16565b600760003373ffffffffffffffffffffffffffffffffffffffff1673ffffffffffffffffffffffffffffffffffffffff16815260200190815260200160002081905550610d1883600254612ceb90919063ffffffff16565b6002819055506000600a5467ffffffffffffffff81118015610d3957600080fd5b50604051908082528060200260200182016040528015610d685781602001602082028036833780820191505090505b5090506000600a5467ffffffffffffffff81118015610d8657600080fd5b50604051908082528060200260200182016040528015610db55781602001602082028036833780820191505090505b5090506000600a5490506000610dd5600183612ceb90919063ffffffff16565b90505b60008110610fd7576000610e206009600084815260200190815260200160002060009054906101000a900473ffffffffffffffffffffffffffffffffffffffff163388613059565b90506000811115610f80576009600083815260200190815260200160002060009054906101000a900473ffffffffffffffffffffffffffffffffffffffff1673ffffffffffffffffffffffffffffffffffffffff1663a9059cbb33836040518363ffffffff1660e01b8152600401610e9992919061462a565b602060405180830381600087803b158015610eb357600080fd5b505af1158015610ec7573d6000803e3d6000fd5b505050506040513d601f19601f82011682018060405250810190610eeb9190613db5565b5080858381518110610ef957fe5b6020026020010181815250506009600083815260200190815260200160002060009054906101000a900473ffffffffffffffffffffffffffffffffffffffff16848381518110610f4557fe5b602002602001019073ffffffffffffffffffffffffffffffffffffffff16908173ffffffffffffffffffffffffffffffffffffffff16815250505b60006002541415610fc857610fc76009600084815260200190815260200160002060009054906101000a900473ffffffffffffffffffffffffffffffffffffffff166134d0565b5b50808060019003915050610dd8565b5060006002541415610fec576000600a819055505b600061101b670de0b6b3a764000061100d8789612c9b90919063ffffffff16565b612cd290919063ffffffff16565b90503373ffffffffffffffffffffffffffffffffffffffff163073ffffffffffffffffffffffffffffffffffffffff167fca9c598e2bf8dd0778925b490473eac35c5a204479163ef8e311b67e2bf18bbb8984878942604051611082959493929190614a57565b60405180910390a350505050505050565b60096020528060005260406000206000915054906101000a900473ffffffffffffffffffffffffffffffffffffffff1681565b60006012905090565b60025481565b600360009054906101000a900473ffffffffffffffffffffffffffffffffffffffff1673ffffffffffffffffffffffffffffffffffffffff163373ffffffffffffffffffffffffffffffffffffffff1614611165576040517f08c379a000000000000000000000000000000000000000000000000000000000815260040161115c90614933565b60405180910390fd5b6000600a5490506000611182600183612ceb90919063ffffffff16565b90505b600081106111d7576111c96009600083815260200190815260200160002060009054906101000a900473ffffffffffffffffffffffffffffffffffffffff166134d0565b808060019003915050611185565b50600360009054906101000a900473ffffffffffffffffffffffffffffffffffffffff1673ffffffffffffffffffffffffffffffffffffffff163073ffffffffffffffffffffffffffffffffffffffff167f8e3d29abeef0483a28c9f802de238b3d31da2986dd7c27115a421bc802147c5a426040516112579190614a13565b60405180910390a350565b60008060008054906101000a900473ffffffffffffffffffffffffffffffffffffffff1673ffffffffffffffffffffffffffffffffffffffff166304433bbc6040518163ffffffff1660e01b81526004016112bc906149d3565b60206040518083038186803b1580156112d457600080fd5b505afa1580156112e8573d6000803e3d6000fd5b505050506040513d601f19601f8201168201806040525081019061130c9190613c0a565b905060008173ffffffffffffffffffffffffffffffffffffffff1663be781b1c6040518163ffffffff1660e01b815260040160206040518083038186803b15801561135657600080fd5b505afa15801561136a573d6000803e3d6000fd5b505050506040513d601f19601f8201168201806040525081019061138e9190613c0a565b90508073ffffffffffffffffffffffffffffffffffffffff166370a08231306040518263ffffffff1660e01b81526004016113c991906145d8565b60206040518083038186803b1580156113e157600080fd5b505afa1580156113f5573d6000803e3d6000fd5b505050506040513d601f19601f820116820180604052508101906114199190613e07565b9250505090565b600b6020528060005260406000206000915090505481565b600360009054906101000a900473ffffffffffffffffffffffffffffffffffffffff1673ffffffffffffffffffffffffffffffffffffffff163373ffffffffffffffffffffffffffffffffffffffff16146114c8576040517f08c379a00000000000000000000000000000000000000000000000000000000081526004016114bf90614933565b60405180910390fd5b600073ffffffffffffffffffffffffffffffffffffffff168273ffffffffffffffffffffffffffffffffffffffff161415611538576040517f08c379a000000000000000000000000000000000000000000000000000000000815260040161152f90614853565b60405180910390fd5b60008060009054906101000a900473ffffffffffffffffffffffffffffffffffffffff1673ffffffffffffffffffffffffffffffffffffffff16632febaebd846040518263ffffffff1660e01b815260040161159491906145d8565b60206040518083038186803b1580156115ac57600080fd5b505afa1580156115c0573d6000803e3d6000fd5b505050506040513d601f19601f820116820180604052508101906115e49190613c0a565b9050600073ffffffffffffffffffffffffffffffffffffffff168173ffffffffffffffffffffffffffffffffffffffff16141561185a5760008060009054906101000a900473ffffffffffffffffffffffffffffffffffffffff1673ffffffffffffffffffffffffffffffffffffffff166304433bbc6040518163ffffffff1660e01b8152600401611675906149d3565b60206040518083038186803b15801561168d57600080fd5b505afa1580156116a1573d6000803e3d6000fd5b505050506040513d601f19601f820116820180604052508101906116c59190613c0a565b90508073ffffffffffffffffffffffffffffffffffffffff1663059ce95d856040518263ffffffff1660e01b815260040161170091906145d8565b60206040518083038186803b15801561171857600080fd5b505afa15801561172c573d6000803e3d6000fd5b505050506040513d601f19601f820116820180604052508101906117509190613c0a565b9150600073ffffffffffffffffffffffffffffffffffffffff168273ffffffffffffffffffffffffffffffffffffffff1614611858578073ffffffffffffffffffffffffffffffffffffffff1663cc435bf3856040518263ffffffff1660e01b81526004016117bf91906145d8565b60206040518083038186803b1580156117d757600080fd5b505afa1580156117eb573d6000803e3d6000fd5b505050506040513d601f19601f8201168201806040525081019061180f9190613db5565b61184e576040517f08c379a0000000000000000000000000000000000000000000000000000000008152600401611845906149b3565b60405180910390fd5b611857846137f4565b5b505b600073ffffffffffffffffffffffffffffffffffffffff168173ffffffffffffffffffffffffffffffffffffffff1614156118ca576040517f08c379a00000000000000000000000000000000000000000000000000000000081526004016118c190614813565b60405180910390fd5b8073ffffffffffffffffffffffffffffffffffffffff166339158fdd60008054906101000a900473ffffffffffffffffffffffffffffffffffffffff163086866040518563ffffffff1660e01b8152600401611929949392919061467c565b602060405180830381600087803b15801561194357600080fd5b505af1158015611957573d6000803e3d6000fd5b505050506040513d601f19601f8201168201806040525081019061197b9190613db5565b6119ba576040517f08c379a00000000000000000000000000000000000000000000000000000000081526004016119b190614993565b60405180910390fd5b60008373ffffffffffffffffffffffffffffffffffffffff16836040516119e191906145c1565b6000604051808303816000865af19150503d8060008114611a1e576040519150601f19603f3d011682016040523d82523d6000602084013e611a23565b606091505b5050905080611a67576040517f08c379a0000000000000000000000000000000000000000000000000000000008152600401611a5e906148f3565b60405180910390fd5b600360009054906101000a900473ffffffffffffffffffffffffffffffffffffffff1673ffffffffffffffffffffffffffffffffffffffff163073ffffffffffffffffffffffffffffffffffffffff167fa8ab7184067399e01462520d88b77c0db06e364e9cb4db3254f26c504d4e91b18642604051611ae892919061470d565b60405180910390a350505050565b6000600560009054906101000a900473ffffffffffffffffffffffffffffffffffffffff16905090565b60008073ffffffffffffffffffffffffffffffffffffffff168273ffffffffffffffffffffffffffffffffffffffff161415611b91576040517f08c379a0000000000000000000000000000000000000000000000000000000008152600401611b8890614893565b60405180910390fd5b600760008373ffffffffffffffffffffffffffffffffffffffff1673ffffffffffffffffffffffffffffffffffffffff168152602001908152602001600020549050919050565b600080611be36107a8565b9050611bee81613966565b91505090565b60045481565b60008073ffffffffffffffffffffffffffffffffffffffff168373ffffffffffffffffffffffffffffffffffffffff161415611c6b576040517f08c379a0000000000000000000000000000000000000000000000000000000008152600401611c6290614973565b60405180910390fd5b600073ffffffffffffffffffffffffffffffffffffffff168273ffffffffffffffffffffffffffffffffffffffff161415611cdb576040517f08c379a0000000000000000000000000000000000000000000000000000000008152600401611cd290614913565b60405180910390fd5b60008273ffffffffffffffffffffffffffffffffffffffff16638b2f0f4f856040518263ffffffff1660e01b8152600401611d1691906145d8565b60206040518083038186803b158015611d2e57600080fd5b505afa158015611d42573d6000803e3d6000fd5b505050506040513d601f19601f82011682018060405250810190611d669190613e07565b905060008373ffffffffffffffffffffffffffffffffffffffff1663cf54aaa0866040518263ffffffff1660e01b8152600401611da391906145d8565b60206040518083038186803b158015611dbb57600080fd5b505afa158015611dcf573d6000803e3d6000fd5b505050506040513d601f19601f82011682018060405250810190611df39190613e07565b905060008473ffffffffffffffffffffffffffffffffffffffff1663d4fac45d30886040518363ffffffff1660e01b8152600401611e32929190614653565b60206040518083038186803b158015611e4a57600080fd5b505afa158015611e5e573d6000803e3d6000fd5b505050506040513d601f19601f82011682018060405250810190611e829190613e07565b9050611eac82600a0a611e9e8584612c9b90919063ffffffff16565b612cd290919063ffffffff16565b935050505092915050565b606060405180602001604052806000815250905090565b60008054906101000a900473ffffffffffffffffffffffffffffffffffffffff1681565b600a5481565b6000611f05338484612d02565b6001905092915050565b60608060008060008054906101000a900473ffffffffffffffffffffffffffffffffffffffff1673ffffffffffffffffffffffffffffffffffffffff166304433bbc6040518163ffffffff1660e01b8152600401611f6c906149d3565b60206040518083038186803b158015611f8457600080fd5b505afa158015611f98573d6000803e3d6000fd5b505050506040513d601f19601f82011682018060405250810190611fbc9190613c0a565b90506000600a5467ffffffffffffffff81118015611fd957600080fd5b506040519080825280602002602001820160405280156120085781602001602082028036833780820191505090505b5090506000600a5467ffffffffffffffff8111801561202657600080fd5b506040519080825280602002602001820160405280156120555781602001602082028036833780820191505090505b509050600080600090505b600a5481101561239e578473ffffffffffffffffffffffffffffffffffffffff1663d4fac45d306009600085815260200190815260200160002060009054906101000a900473ffffffffffffffffffffffffffffffffffffffff166040518363ffffffff1660e01b81526004016120d8929190614653565b60206040518083038186803b1580156120f057600080fd5b505afa158015612104573d6000803e3d6000fd5b505050506040513d601f19601f820116820180604052508101906121289190613e07565b83828151811061213457fe5b6020026020010181815250506009600082815260200190815260200160002060009054906101000a900473ffffffffffffffffffffffffffffffffffffffff1684828151811061218057fe5b602002602001019073ffffffffffffffffffffffffffffffffffffffff16908173ffffffffffffffffffffffffffffffffffffffff168152505060008573ffffffffffffffffffffffffffffffffffffffff1663cf54aaa06009600085815260200190815260200160002060009054906101000a900473ffffffffffffffffffffffffffffffffffffffff166040518263ffffffff1660e01b815260040161222891906145d8565b60206040518083038186803b15801561224057600080fd5b505afa158015612254573d6000803e3d6000fd5b505050506040513d601f19601f820116820180604052508101906122789190613e07565b905060008673ffffffffffffffffffffffffffffffffffffffff16638b2f0f4f6009600086815260200190815260200160002060009054906101000a900473ffffffffffffffffffffffffffffffffffffffff166040518263ffffffff1660e01b81526004016122e891906145d8565b60206040518083038186803b15801561230057600080fd5b505afa158015612314573d6000803e3d6000fd5b505050506040513d601f19601f820116820180604052508101906123389190613e07565b9050600061237783600a0a6123698489888151811061235357fe5b6020026020010151612c9b90919063ffffffff16565b612cd290919063ffffffff16565b905061238c8186612c7f90919063ffffffff16565b94505050508080600101915050612060565b5082828296509650965050505050909192565b600081116123f4576040517f08c379a00000000000000000000000000000000000000000000000000000000081526004016123eb906149f3565b60405180910390fd5b60006123fe6107a8565b9050600080600254116124115782612439565b6124388261242a85600254612c9b90919063ffffffff16565b612cd290919063ffffffff16565b5b905061248d81600760003373ffffffffffffffffffffffffffffffffffffffff1673ffffffffffffffffffffffffffffffffffffffff16815260200190815260200160002054612c7f90919063ffffffff16565b600760003373ffffffffffffffffffffffffffffffffffffffff1673ffffffffffffffffffffffffffffffffffffffff168152602001908152602001600020819055506124e581600254612c7f90919063ffffffff16565b60028190555060008060009054906101000a900473ffffffffffffffffffffffffffffffffffffffff1673ffffffffffffffffffffffffffffffffffffffff166304433bbc6040518163ffffffff1660e01b8152600401612545906149d3565b60206040518083038186803b15801561255d57600080fd5b505afa158015612571573d6000803e3d6000fd5b505050506040513d601f19601f820116820180604052508101906125959190613c0a565b905060008173ffffffffffffffffffffffffffffffffffffffff1663be781b1c6040518163ffffffff1660e01b815260040160206040518083038186803b1580156125df57600080fd5b505afa1580156125f3573d6000803e3d6000fd5b505050506040513d601f19601f820116820180604052508101906126179190613c0a565b90508073ffffffffffffffffffffffffffffffffffffffff166323b872dd3330886040518463ffffffff1660e01b8152600401612656939291906145f3565b602060405180830381600087803b15801561267057600080fd5b505af1158015612684573d6000803e3d6000fd5b505050506040513d601f19601f820116820180604052508101906126a89190613db5565b506126b2816137f4565b3373ffffffffffffffffffffffffffffffffffffffff163073ffffffffffffffffffffffffffffffffffffffff167fdcbc1c05240f31ff3ad067ef1ee35ce4997762752e3a095284754544f4c709d78742604051612711929190614a2e565b60405180910390a35050505050565b6000600360009054906101000a900473ffffffffffffffffffffffffffffffffffffffff16905090565b600360009054906101000a900473ffffffffffffffffffffffffffffffffffffffff1673ffffffffffffffffffffffffffffffffffffffff163373ffffffffffffffffffffffffffffffffffffffff16146127da576040517f08c379a00000000000000000000000000000000000000000000000000000000081526004016127d190614933565b60405180910390fd5b6127e2612e96565b50565b60076020528060005260406000206000915090505481565b60018054600181600116156101000203166002900480601f0160208091040260200160405190810160405280929190818152602001828054600181600116156101000203166002900480156128935780601f1061286857610100808354040283529160200191612893565b820191906000526020600020905b81548152906001019060200180831161287657829003601f168201915b505050505081565b60008060009054906101000a900473ffffffffffffffffffffffffffffffffffffffff1673ffffffffffffffffffffffffffffffffffffffff166304433bbc6040518163ffffffff1660e01b81526004016128f590614833565b60206040518083038186803b15801561290d57600080fd5b505afa158015612921573d6000803e3d6000fd5b505050506040513d601f19601f820116820180604052508101906129459190613c0a565b90508073ffffffffffffffffffffffffffffffffffffffff163373ffffffffffffffffffffffffffffffffffffffff16146129b5576040517f08c379a00000000000000000000000000000000000000000000000000000000081526004016129ac906148b3565b60405180910390fd5b600073ffffffffffffffffffffffffffffffffffffffff168273ffffffffffffffffffffffffffffffffffffffff161415612a25576040517f08c379a0000000000000000000000000000000000000000000000000000000008152600401612a1c906147f3565b60405180910390fd5b81600560006101000a81548173ffffffffffffffffffffffffffffffffffffffff021916908373ffffffffffffffffffffffffffffffffffffffff1602179055505050565b6008602052816000526040600020602052806000526040600020600091509150505481565b600080612a9a6107a8565b905060006002541480612aad5750600081145b15612abc576000915050612b45565b6000612ac782613966565b90506006548111612add57600092505050612b45565b612b4081612b32612710612b24600454612b16600254612b086006548a612ceb90919063ffffffff16565b612c9b90919063ffffffff16565b612c9b90919063ffffffff16565b612cd290919063ffffffff16565b612cd290919063ffffffff16565b925050505b90565b600360009054906101000a900473ffffffffffffffffffffffffffffffffffffffff1681565b600560009054906101000a900473ffffffffffffffffffffffffffffffffffffffff1681565b80600860008573ffffffffffffffffffffffffffffffffffffffff1673ffffffffffffffffffffffffffffffffffffffff16815260200190815260200160002060008473ffffffffffffffffffffffffffffffffffffffff1673ffffffffffffffffffffffffffffffffffffffff168152602001908152602001600020819055508173ffffffffffffffffffffffffffffffffffffffff168373ffffffffffffffffffffffffffffffffffffffff167f8c5be1e5ebec7d5bd14f71427d1e84f3dd0314c0f7b2291e5b200ac8c7c3b92583604051612c729190614a13565b60405180910390a3505050565b600080828401905083811015612c9157fe5b8091505092915050565b600080831415612cae5760009050612ccc565b6000828402905082848281612cbf57fe5b0414612cc757fe5b809150505b92915050565b600080828481612cde57fe5b0490508091505092915050565b600082821115612cf757fe5b818303905092915050565b612d5481600760008673ffffffffffffffffffffffffffffffffffffffff1673ffffffffffffffffffffffffffffffffffffffff16815260200190815260200160002054612ceb90919063ffffffff16565b600760008573ffffffffffffffffffffffffffffffffffffffff1673ffffffffffffffffffffffffffffffffffffffff16815260200190815260200160002081905550612de981600760008573ffffffffffffffffffffffffffffffffffffffff1673ffffffffffffffffffffffffffffffffffffffff16815260200190815260200160002054612c7f90919063ffffffff16565b600760008473ffffffffffffffffffffffffffffffffffffffff1673ffffffffffffffffffffffffffffffffffffffff168152602001908152602001600020819055508173ffffffffffffffffffffffffffffffffffffffff168373ffffffffffffffffffffffffffffffffffffffff167fddf252ad1be2c89b69c2b068fc378daa952ba7f163c4a11628f55a4df523b3ef83604051612e899190614a13565b60405180910390a3505050565b600080612ea16107a8565b90506000612ead612a8f565b9050612710811015612ec457600092505050613056565b612f388160076000600360009054906101000a900473ffffffffffffffffffffffffffffffffffffffff1673ffffffffffffffffffffffffffffffffffffffff1673ffffffffffffffffffffffffffffffffffffffff16815260200190815260200160002054612c7f90919063ffffffff16565b60076000600360009054906101000a900473ffffffffffffffffffffffffffffffffffffffff1673ffffffffffffffffffffffffffffffffffffffff1673ffffffffffffffffffffffffffffffffffffffff16815260200190815260200160002081905550612fb281600254612c7f90919063ffffffff16565b600281905550612fc182613966565b600681905550600360009054906101000a900473ffffffffffffffffffffffffffffffffffffffff1673ffffffffffffffffffffffffffffffffffffffff163073ffffffffffffffffffffffffffffffffffffffff167f9e04df2ace49a0aadf511c756e3d1d033d10bfbc722409b41010b7c7b99c6f3b8342604051613048929190614a2e565b60405180910390a381925050505b90565b60008060008054906101000a900473ffffffffffffffffffffffffffffffffffffffff1673ffffffffffffffffffffffffffffffffffffffff166304433bbc6040518163ffffffff1660e01b81526004016130b3906149d3565b60206040518083038186803b1580156130cb57600080fd5b505afa1580156130df573d6000803e3d6000fd5b505050506040513d601f19601f820116820180604052508101906131039190613c0a565b905060008173ffffffffffffffffffffffffffffffffffffffff1663059ce95d876040518263ffffffff1660e01b815260040161314091906145d8565b60206040518083038186803b15801561315857600080fd5b505afa15801561316c573d6000803e3d6000fd5b505050506040513d601f19601f820116820180604052508101906131909190613c0a565b905060008060008373ffffffffffffffffffffffffffffffffffffffff1663460b62c3308b8a8c6040518563ffffffff1660e01b81526004016131d694939291906146c8565b60006040518083038186803b1580156131ee57600080fd5b505afa158015613202573d6000803e3d6000fd5b505050506040513d6000823e3d601f19601f8201168201806040525081019061322b9190613d4e565b9250925092506000815111156134c15760008073ffffffffffffffffffffffffffffffffffffffff168473ffffffffffffffffffffffffffffffffffffffff16146132fc578373ffffffffffffffffffffffffffffffffffffffff166370a08231306040518263ffffffff1660e01b81526004016132a991906145d8565b60206040518083038186803b1580156132c157600080fd5b505afa1580156132d5573d6000803e3d6000fd5b505050506040513d601f19601f820116820180604052508101906132f99190613e07565b90505b60005b82518110156133da5760008a73ffffffffffffffffffffffffffffffffffffffff1684838151811061332d57fe5b60200260200101516020015160405161334691906145c1565b6000604051808303816000865af19150503d8060008114613383576040519150601f19603f3d011682016040523d82523d6000602084013e613388565b606091505b50509050806133cc576040517f08c379a00000000000000000000000000000000000000000000000000000000081526004016133c3906148d3565b60405180910390fd5b5080806001019150506132ff565b50600073ffffffffffffffffffffffffffffffffffffffff168473ffffffffffffffffffffffffffffffffffffffff16146134bf576134bc816134ae8673ffffffffffffffffffffffffffffffffffffffff166370a08231306040518263ffffffff1660e01b815260040161344f91906145d8565b60206040518083038186803b15801561346757600080fd5b505afa15801561347b573d6000803e3d6000fd5b505050506040513d601f19601f8201168201806040525081019061349f9190613e07565b86612c7f90919063ffffffff16565b612ceb90919063ffffffff16565b92505b505b81955050505050509392505050565b600073ffffffffffffffffffffffffffffffffffffffff168173ffffffffffffffffffffffffffffffffffffffff161415613540576040517f08c379a000000000000000000000000000000000000000000000000000000000815260040161353790614973565b60405180910390fd5b6127108173ffffffffffffffffffffffffffffffffffffffff166370a08231306040518263ffffffff1660e01b815260040161357c91906145d8565b60206040518083038186803b15801561359457600080fd5b505afa1580156135a8573d6000803e3d6000fd5b505050506040513d601f19601f820116820180604052508101906135cc9190613e07565b10156137f157600960006001600a5403815260200190815260200160002060009054906101000a900473ffffffffffffffffffffffffffffffffffffffff1660096000600b60008573ffffffffffffffffffffffffffffffffffffffff1673ffffffffffffffffffffffffffffffffffffffff16815260200190815260200160002054815260200190815260200160002060006101000a81548173ffffffffffffffffffffffffffffffffffffffff021916908373ffffffffffffffffffffffffffffffffffffffff160217905550600b60008273ffffffffffffffffffffffffffffffffffffffff1673ffffffffffffffffffffffffffffffffffffffff16815260200190815260200160002054600b6000600960006001600a5403815260200190815260200160002060009054906101000a900473ffffffffffffffffffffffffffffffffffffffff1673ffffffffffffffffffffffffffffffffffffffff1673ffffffffffffffffffffffffffffffffffffffff16815260200190815260200160002081905550600960006001600a5403815260200190815260200160002060006101000a81549073ffffffffffffffffffffffffffffffffffffffff0219169055600b60008273ffffffffffffffffffffffffffffffffffffffff1673ffffffffffffffffffffffffffffffffffffffff168152602001908152602001600020600090556137ea6001600a54612ceb90919063ffffffff16565b600a819055505b50565b600073ffffffffffffffffffffffffffffffffffffffff168173ffffffffffffffffffffffffffffffffffffffff161415613864576040517f08c379a000000000000000000000000000000000000000000000000000000000815260040161385b90614973565b60405180910390fd5b6000600b60008373ffffffffffffffffffffffffffffffffffffffff1673ffffffffffffffffffffffffffffffffffffffff16815260200190815260200160002054141561396357600a54600b60008373ffffffffffffffffffffffffffffffffffffffff1673ffffffffffffffffffffffffffffffffffffffff168152602001908152602001600020819055508060096000600a54815260200190815260200160002060006101000a81548173ffffffffffffffffffffffffffffffffffffffff021916908373ffffffffffffffffffffffffffffffffffffffff16021790555061395c6001600a54612c7f90919063ffffffff16565b600a819055505b50565b60008060025414806139785750600082145b1561398657600090506139b8565b6139b56002546139a7670de0b6b3a764000085612c9b90919063ffffffff16565b612cd290919063ffffffff16565b90505b919050565b60006139d06139cb84614b04565b614ad3565b9050808382526020820190508260005b85811015613a1057815185016139f68882613b53565b8452602084019350602083019250506001810190506139e0565b5050509392505050565b6000613a2d613a2884614b30565b614ad3565b905082815260208101848484011115613a4557600080fd5b613a50848285614cc4565b509392505050565b6000613a6b613a6684614b30565b614ad3565b905082815260208101848484011115613a8357600080fd5b613a8e848285614cd3565b509392505050565b600081359050613aa581614d19565b92915050565b600081519050613aba81614d19565b92915050565b600082601f830112613ad157600080fd5b8151613ae18482602086016139bd565b91505092915050565b600081519050613af981614d30565b92915050565b600082601f830112613b1057600080fd5b8135613b20848260208601613a1a565b91505092915050565b600082601f830112613b3a57600080fd5b8151613b4a848260208601613a58565b91505092915050565b600060408284031215613b6557600080fd5b613b6f6040614ad3565b90506000613b7f84828501613aab565b600083015250602082015167ffffffffffffffff811115613b9f57600080fd5b613bab84828501613b29565b60208301525092915050565b600081359050613bc681614d47565b92915050565b600081519050613bdb81614d47565b92915050565b600060208284031215613bf357600080fd5b6000613c0184828501613a96565b91505092915050565b600060208284031215613c1c57600080fd5b6000613c2a84828501613aab565b91505092915050565b60008060408385031215613c4657600080fd5b6000613c5485828601613a96565b9250506020613c6585828601613a96565b9150509250929050565b600080600060608486031215613c8457600080fd5b6000613c9286828701613a96565b9350506020613ca386828701613a96565b9250506040613cb486828701613bb7565b9150509250925092565b60008060408385031215613cd157600080fd5b6000613cdf85828601613a96565b925050602083013567ffffffffffffffff811115613cfc57600080fd5b613d0885828601613aff565b9150509250929050565b60008060408385031215613d2557600080fd5b6000613d3385828601613a96565b9250506020613d4485828601613bb7565b9150509250929050565b600080600060608486031215613d6357600080fd5b6000613d7186828701613aab565b9350506020613d8286828701613bcc565b925050604084015167ffffffffffffffff811115613d9f57600080fd5b613dab86828701613ac0565b9150509250925092565b600060208284031215613dc757600080fd5b6000613dd584828501613aea565b91505092915050565b600060208284031215613df057600080fd5b6000613dfe84828501613bb7565b91505092915050565b600060208284031215613e1957600080fd5b6000613e2784828501613bcc565b91505092915050565b6000613e3c8383613e6f565b60208301905092915050565b6000613e548383614594565b60208301905092915050565b613e6981614c6a565b82525050565b613e7881614c15565b82525050565b613e8781614c15565b82525050565b6000613e9882614b80565b613ea28185614bc6565b9350613ead83614b60565b8060005b83811015613ede578151613ec58882613e30565b9750613ed083614bac565b925050600181019050613eb1565b5085935050505092915050565b6000613ef682614b8b565b613f008185614bd7565b9350613f0b83614b70565b8060005b83811015613f3c578151613f238882613e48565b9750613f2e83614bb9565b925050600181019050613f0f565b5085935050505092915050565b613f5281614c27565b82525050565b6000613f6382614b96565b613f6d8185614be8565b9350613f7d818560208601614cd3565b613f8681614d08565b840191505092915050565b6000613f9c82614b96565b613fa68185614bf9565b9350613fb6818560208601614cd3565b80840191505092915050565b613fcb81614c7c565b82525050565b6000613fdc82614ba1565b613fe68185614c04565b9350613ff6818560208601614cd3565b613fff81614d08565b840191505092915050565b6000614017603283614c04565b91507f506f6f6c3a206e756d626572206f6620706f6f6c20746f6b656e73206d75737460008301527f2062652067726561746572207468616e203000000000000000000000000000006020830152604082019050919050565b600061407d601483614c04565b91507f496e76616c6964206661726d20616464726573730000000000000000000000006000830152602082019050919050565b60006140bd601683614c04565b91507f506f6f6c3a20696e76616c6964207665726966696572000000000000000000006000830152602082019050919050565b60006140fd600b83614c04565b91507f506f6f6c466163746f72790000000000000000000000000000000000000000006000830152602082019050919050565b600061413d601a83614c04565b91507f506f6f6c3a20696e76616c69642027746f2720616464726573730000000000006000830152602082019050919050565b600061417d600f83614c04565b91507f496e76616c6964206164647265737300000000000000000000000000000000006000830152602082019050919050565b60006141bd601483614c04565b91507f496e76616c6964207573657220616464726573730000000000000000000000006000830152602082019050919050565b60006141fd603683614c04565b91507f506f6f6c3a204f6e6c7920506f6f6c466163746f727920636f6e74726163742060008301527f63616e2063616c6c20746869732066756e6374696f6e000000000000000000006020830152604082019050919050565b6000614263601f83614c04565b91507f506f6f6c3a206661696c656420746f20776974686472617720746f6b656e73006000830152602082019050919050565b60006142a3602383614c04565b91507f506f6f6c3a207472616e73616374696f6e206661696c656420746f206578656360008301527f75746500000000000000000000000000000000000000000000000000000000006020830152604082019050919050565b6000614309602383614c04565b91507f506f6f6c3a20696e76616c69642061737365742068616e646c6572206164647260008301527f65737300000000000000000000000000000000000000000000000000000000006020830152604082019050919050565b600061436f603083614c04565b91507f506f6f6c3a204f6e6c7920706f6f6c2773206d616e616765722063616e20636160008301527f6c6c20746869732066756e6374696f6e000000000000000000000000000000006020830152604082019050919050565b60006143d5602883614c04565b91507f506f6f6c3a204e6f7420656e6f75676820706f6f6c20746f6b656e7320746f2060008301527f77697468647261770000000000000000000000000000000000000000000000006020830152604082019050919050565b600061443b601b83614c04565b91507f506f6f6c3a20696e76616c6964206173736574206164647265737300000000006000830152602082019050919050565b600061447b601983614c04565b91507f506f6f6c3a20696e76616c6964207472616e73616374696f6e000000000000006000830152602082019050919050565b60006144bb601383614c04565b91507f506f6f6c3a20696e76616c6964206173736574000000000000000000000000006000830152602082019050919050565b60006144fb600c83614c04565b91507f417373657448616e646c657200000000000000000000000000000000000000006000830152602082019050919050565b600061453b602483614c04565b91507f506f6f6c3a204465706f736974206d757374206265206772656174657220746860008301527f616e2030000000000000000000000000000000000000000000000000000000006020830152604082019050919050565b61459d81614c53565b82525050565b6145ac81614c53565b82525050565b6145bb81614c5d565b82525050565b60006145cd8284613f91565b915081905092915050565b60006020820190506145ed6000830184613e7e565b92915050565b60006060820190506146086000830186613e60565b6146156020830185613e7e565b61462260408301846145a3565b949350505050565b600060408201905061463f6000830185613e60565b61464c60208301846145a3565b9392505050565b60006040820190506146686000830185613e7e565b6146756020830184613e7e565b9392505050565b60006080820190506146916000830187613e7e565b61469e6020830186613e7e565b6146ab6040830185613e7e565b81810360608301526146bd8184613f58565b905095945050505050565b60006080820190506146dd6000830187613e7e565b6146ea6020830186613e7e565b6146f760408301856145a3565b6147046060830184613e7e565b95945050505050565b60006040820190506147226000830185613e7e565b61472f60208301846145a3565b9392505050565b600060608201905081810360008301526147508186613e8d565b905081810360208301526147648185613eeb565b905061477360408301846145a3565b949350505050565b60006020820190506147906000830184613f49565b92915050565b60006020820190506147ab6000830184613fc2565b92915050565b600060208201905081810360008301526147cb8184613fd1565b905092915050565b600060208201905081810360008301526147ec8161400a565b9050919050565b6000602082019050818103600083015261480c81614070565b9050919050565b6000602082019050818103600083015261482c816140b0565b9050919050565b6000602082019050818103600083015261484c816140f0565b9050919050565b6000602082019050818103600083015261486c81614130565b9050919050565b6000602082019050818103600083015261488c81614170565b9050919050565b600060208201905081810360008301526148ac816141b0565b9050919050565b600060208201905081810360008301526148cc816141f0565b9050919050565b600060208201905081810360008301526148ec81614256565b9050919050565b6000602082019050818103600083015261490c81614296565b9050919050565b6000602082019050818103600083015261492c816142fc565b9050919050565b6000602082019050818103600083015261494c81614362565b9050919050565b6000602082019050818103600083015261496c816143c8565b9050919050565b6000602082019050818103600083015261498c8161442e565b9050919050565b600060208201905081810360008301526149ac8161446e565b9050919050565b600060208201905081810360008301526149cc816144ae565b9050919050565b600060208201905081810360008301526149ec816144ee565b9050919050565b60006020820190508181036000830152614a0c8161452e565b9050919050565b6000602082019050614a2860008301846145a3565b92915050565b6000604082019050614a4360008301856145a3565b614a5060208301846145a3565b9392505050565b600060a082019050614a6c60008301886145a3565b614a7960208301876145a3565b8181036040830152614a8b8186613e8d565b90508181036060830152614a9f8185613eeb565b9050614aae60808301846145a3565b9695505050505050565b6000602082019050614acd60008301846145b2565b92915050565b6000604051905081810181811067ffffffffffffffff82111715614afa57614af9614d06565b5b8060405250919050565b600067ffffffffffffffff821115614b1f57614b1e614d06565b5b602082029050602081019050919050565b600067ffffffffffffffff821115614b4b57614b4a614d06565b5b601f19601f8301169050602081019050919050565b6000819050602082019050919050565b6000819050602082019050919050565b600081519050919050565b600081519050919050565b600081519050919050565b600081519050919050565b6000602082019050919050565b6000602082019050919050565b600082825260208201905092915050565b600082825260208201905092915050565b600082825260208201905092915050565b600081905092915050565b600082825260208201905092915050565b6000614c2082614c33565b9050919050565b60008115159050919050565b600073ffffffffffffffffffffffffffffffffffffffff82169050919050565b6000819050919050565b600060ff82169050919050565b6000614c7582614ca0565b9050919050565b6000614c8782614c8e565b9050919050565b6000614c9982614c33565b9050919050565b6000614cab82614cb2565b9050919050565b6000614cbd82614c33565b9050919050565b82818337600083830152505050565b60005b83811015614cf1578082015181840152602081019050614cd6565b83811115614d00576000848401525b50505050565bfe5b6000601f19601f8301169050919050565b614d2281614c15565b8114614d2d57600080fd5b50565b614d3981614c27565b8114614d4457600080fd5b50565b614d5081614c53565b8114614d5b57600080fd5b5056fea2646970667358221220b0dc51861525a9c4b6d74ada984d392cd973cbed8b1bfbbb30ec6da07107c08364736f6c63430007060033",
  "immutableReferences": {},
  "source": "// SPDX-License-Identifier: MIT\r\n\r\npragma solidity >=0.7.6;\r\npragma experimental ABIEncoderV2;\r\n\r\n//Adapters\r\nimport './interfaces/IBaseUbeswapAdapter.sol';\r\n\r\n//Interfaces\r\nimport './interfaces/IERC20.sol';\r\nimport './interfaces/IPool.sol';\r\nimport './interfaces/ISettings.sol';\r\nimport './interfaces/IAddressResolver.sol';\r\nimport './interfaces/IAssetHandler.sol';\r\nimport './interfaces/IAssetVerifier.sol';\r\nimport './interfaces/IVerifier.sol';\r\nimport './interfaces/Ubeswap/IStakingRewards.sol';\r\n\r\n//Libraries\r\nimport './libraries/SafeMath.sol';\r\n\r\ncontract Pool is IPool, IERC20 {\r\n    using SafeMath for uint;\r\n\r\n    IAddressResolver public ADDRESS_RESOLVER;\r\n   \r\n    string public _name;\r\n    uint public _totalSupply;\r\n    address public _manager;\r\n    uint public _performanceFee; //expressed as %\r\n    address public _farmAddress;\r\n    uint256 public _tokenPriceAtLastFeeMint;\r\n\r\n    mapping (address => uint) public _balanceOf;\r\n    mapping (address => mapping(address => uint)) public override allowance;\r\n\r\n    //Asset positions\r\n    mapping (uint => address) public _positionKeys;\r\n    uint public numberOfPositions;\r\n    mapping (address => uint) public positionToIndex; //maps to (index + 1), with index 0 representing position not found\r\n\r\n    constructor(string memory poolName, uint performanceFee, address manager, IAddressResolver addressResolver) {\r\n        _name = poolName;\r\n        _manager = manager;\r\n        _performanceFee = performanceFee;\r\n        ADDRESS_RESOLVER = addressResolver;\r\n\r\n        _tokenPriceAtLastFeeMint = 10**18;\r\n    }\r\n\r\n    /* ========== VIEWS ========== */\r\n\r\n    /**\r\n    * @dev Returns the name of the pool\r\n    * @return string The name of the pool\r\n    */\r\n    function name() public view override(IPool, IERC20) returns (string memory) {\r\n        return _name;\r\n    }\r\n\r\n    function symbol() public pure override returns (string memory) {\r\n        return \"\";\r\n    }\r\n\r\n    function decimals() public pure override returns (uint8) {\r\n        return 18;\r\n    }\r\n\r\n    /**\r\n    * @dev Returns the address of the pool's farm\r\n    * @return address Address of the pool's farm\r\n    */\r\n    function getFarmAddress() public view override returns (address) {\r\n        return _farmAddress;\r\n    }\r\n\r\n    /**\r\n    * @dev Return the pool manager's address\r\n    * @return address Address of the pool's manager\r\n    */\r\n    function getManagerAddress() public view override returns (address) {\r\n        return _manager;\r\n    }\r\n\r\n    /**\r\n    * @dev Returns the USD value of the asset\r\n    * @param asset Address of the asset\r\n    * @param assetHandlerAddress Address of AssetHandler contract\r\n    */\r\n    function getAssetValue(address asset, address assetHandlerAddress) public view override returns (uint) {\r\n        require(asset != address(0), \"Pool: invalid asset address\");\r\n        require(assetHandlerAddress != address(0), \"Pool: invalid asset handler address\");\r\n\r\n        uint USDperToken = IAssetHandler(assetHandlerAddress).getUSDPrice(asset);\r\n        uint numberOfDecimals = IAssetHandler(assetHandlerAddress).getDecimals(asset);\r\n        uint balance = IAssetHandler(assetHandlerAddress).getBalance(address(this), asset);\r\n\r\n        return balance.mul(USDperToken).div(10 ** numberOfDecimals);\r\n    }\r\n\r\n    /**\r\n    * @dev Returns the currency address and balance of each position the pool has, as well as the cumulative value\r\n    * @return (address[], uint[], uint) Currency address and balance of each position the pool has, and the cumulative value of positions\r\n    */\r\n    function getPositionsAndTotal() public view override returns (address[] memory, uint[] memory, uint) {\r\n        address assetHandlerAddress = ADDRESS_RESOLVER.getContractAddress(\"AssetHandler\");\r\n        address[] memory addresses = new address[](numberOfPositions);\r\n        uint[] memory balances = new uint[](numberOfPositions);\r\n        uint sum;\r\n\r\n        //Calculate USD value of each asset\r\n        for (uint i = 0; i < numberOfPositions; i++)\r\n        {\r\n            balances[i] = IAssetHandler(assetHandlerAddress).getBalance(address(this), _positionKeys[i]);\r\n            addresses[i] = _positionKeys[i];\r\n\r\n            uint numberOfDecimals = IAssetHandler(assetHandlerAddress).getDecimals(_positionKeys[i]);\r\n            uint USDperToken = IAssetHandler(assetHandlerAddress).getUSDPrice(_positionKeys[i]);\r\n            uint positionBalanceInUSD = balances[i].mul(USDperToken).div(10 ** numberOfDecimals);\r\n            sum = sum.add(positionBalanceInUSD);\r\n        }\r\n\r\n        return (addresses, balances, sum);\r\n    }\r\n\r\n    /**\r\n    * @dev Returns the amount of cUSD the pool has to invest\r\n    * @return uint Amount of cUSD the pool has available\r\n    */\r\n    function getAvailableFunds() public view override returns (uint) {\r\n        address assetHandlerAddress = ADDRESS_RESOLVER.getContractAddress(\"AssetHandler\");\r\n        address stableCoinAddress = IAssetHandler(assetHandlerAddress).getStableCoinAddress();\r\n\r\n        return IERC20(stableCoinAddress).balanceOf(address(this));\r\n    }\r\n\r\n    /**\r\n    * @dev Returns the value of the pool in USD\r\n    * @return uint Value of the pool in USD\r\n    */\r\n    function getPoolValue() public view override returns (uint) {\r\n        address assetHandlerAddress = ADDRESS_RESOLVER.getContractAddress(\"AssetHandler\");\r\n        uint sum = 0;\r\n\r\n        //Get USD value of each asset\r\n        for (uint i = 0; i < numberOfPositions; i++)\r\n        {\r\n            sum = sum.add(getAssetValue(_positionKeys[i], assetHandlerAddress));\r\n        }\r\n        \r\n        return sum;\r\n    }\r\n\r\n    /**\r\n    * @dev Returns the balance of the user in USD\r\n    * @return uint Balance of the user in USD\r\n    */\r\n    function getUSDBalance(address user) public view override returns (uint) {\r\n        require(user != address(0), \"Invalid address\");\r\n\r\n        uint poolValue = getPoolValue();\r\n\r\n        return poolValue.mul(_balanceOf[user]).div(_totalSupply);\r\n    }\r\n\r\n    /**\r\n    * @dev Returns the number of pool tokens the user has\r\n    * @param user Address of the user\r\n    * @return uint Number of pool tokens the user has\r\n    */\r\n    function balanceOf(address user) public view override(IPool, IERC20) returns (uint) {\r\n        require(user != address(0), \"Invalid user address\");\r\n\r\n        return _balanceOf[user];\r\n    }\r\n\r\n    /**\r\n    * @dev Returns the total supply of LP tokens in the pool\r\n    * @return uint Total supply of LP tokens\r\n    */\r\n    function totalSupply() public view override returns (uint) {\r\n        return _totalSupply;\r\n    }\r\n\r\n    /**\r\n    * @dev Returns the pool's performance fee\r\n    * @return uint The pool's performance fee\r\n    */\r\n    function getPerformanceFee() public view override returns (uint) {\r\n        return _performanceFee;\r\n    }\r\n\r\n    /**\r\n    * @dev Returns the price of the pool's token\r\n    * @return USD price of the pool's token\r\n    */\r\n    function tokenPrice() public view override returns (uint) {\r\n        uint poolValue = getPoolValue();\r\n\r\n        return _tokenPrice(poolValue);\r\n    }\r\n\r\n    /**\r\n    * @dev Returns the pool manager's available fees\r\n    * @return Pool manager's available fees\r\n    */\r\n    function availableManagerFee() public view override returns (uint) {\r\n        uint poolValue = getPoolValue();\r\n\r\n        if (_totalSupply == 0 || poolValue == 0)\r\n        {\r\n            return 0;\r\n        }\r\n\r\n        uint currentTokenPrice = _tokenPrice(poolValue);\r\n\r\n        if (currentTokenPrice <= _tokenPriceAtLastFeeMint)\r\n        {\r\n            return 0;\r\n        }\r\n\r\n        return (currentTokenPrice.sub(_tokenPriceAtLastFeeMint)).mul(_totalSupply).mul(_performanceFee).div(10000).div(currentTokenPrice);\r\n    }\r\n\r\n    /* ========== MUTATIVE FUNCTIONS ========== */\r\n\r\n    function approve(address spender, uint value) public override returns (bool) {\r\n        _approve(msg.sender, spender, value);\r\n        return true;\r\n    }\r\n\r\n    function transfer(address to, uint value) public override returns (bool) {\r\n        _transfer(msg.sender, to, value);\r\n        return true;\r\n    }\r\n\r\n    function transferFrom(address from, address to, uint value) public override returns (bool) {\r\n        if (allowance[from][msg.sender] > 0) {\r\n            allowance[from][msg.sender] = allowance[from][msg.sender].sub(value);\r\n        }\r\n        _transfer(from, to, value);\r\n        return true;\r\n    }\r\n\r\n    /**\r\n    * @dev Mints the pool manager's fee\r\n    */\r\n    function mintManagerFee() external onlyPoolManager {\r\n        _mintManagerFee();\r\n    }\r\n\r\n    /**\r\n    * @dev Deposits the given USD amount into the pool\r\n    * @notice Call cUSD.approve() before calling this function\r\n    * @param amount Amount of USD to deposit into the pool\r\n    */\r\n    function deposit(uint amount) public override {\r\n        require(amount > 0, \"Pool: Deposit must be greater than 0\");\r\n\r\n        uint poolBalance = getPoolValue();\r\n        uint numberOfLPTokens = (_totalSupply > 0) ? _totalSupply.mul(amount).div(poolBalance) : amount;\r\n\r\n        _balanceOf[msg.sender] = _balanceOf[msg.sender].add(numberOfLPTokens);\r\n        _totalSupply = _totalSupply.add(numberOfLPTokens);\r\n\r\n        address assetHandlerAddress = ADDRESS_RESOLVER.getContractAddress(\"AssetHandler\");\r\n        address stableCoinAddress = IAssetHandler(assetHandlerAddress).getStableCoinAddress();\r\n\r\n        IERC20(stableCoinAddress).transferFrom(msg.sender, address(this), amount);\r\n\r\n        //Add cUSD to position keys if it's not there already\r\n        _addPositionKey(stableCoinAddress);\r\n\r\n        emit Deposit(address(this), msg.sender, amount, block.timestamp);\r\n    }\r\n\r\n    /**\r\n    * @dev Withdraws the given number of pool tokens from the user\r\n    * @param numberOfPoolTokens Number of pool tokens to withdraw\r\n    */\r\n    function withdraw(uint numberOfPoolTokens) public override {\r\n        require(numberOfPoolTokens > 0, \"Pool: number of pool tokens must be greater than 0\");\r\n        require(_balanceOf[msg.sender] >= numberOfPoolTokens, \"Pool: Not enough pool tokens to withdraw\");\r\n\r\n        //Mint manager fee\r\n        uint poolValue = _mintManagerFee();\r\n        uint portion = numberOfPoolTokens.mul(10**18).div(_totalSupply);\r\n\r\n        //Burn user's pool tokens\r\n        _balanceOf[msg.sender] = _balanceOf[msg.sender].sub(numberOfPoolTokens);\r\n        _totalSupply = _totalSupply.sub(numberOfPoolTokens);\r\n\r\n        uint[] memory amountsWithdrawn = new uint[](numberOfPositions);\r\n        address[] memory assetsWithdrawn = new address[](numberOfPositions);\r\n\r\n        uint assetCount = numberOfPositions;\r\n\r\n        //Withdraw user's portion of pool's assets\r\n        for (uint i = assetCount.sub(1); i >= 0; i--)\r\n        {\r\n            uint portionOfAssetBalance = _withdrawProcessing(_positionKeys[i], msg.sender, portion);\r\n\r\n            if (portionOfAssetBalance > 0)\r\n            {\r\n                IERC20(_positionKeys[i]).transfer(msg.sender, portionOfAssetBalance);\r\n\r\n                amountsWithdrawn[i] = portionOfAssetBalance;\r\n                assetsWithdrawn[i] = _positionKeys[i];\r\n            }\r\n\r\n            //Remove position keys if pool is liquidated\r\n            if (_totalSupply == 0)\r\n            {\r\n                _removePositionKey(_positionKeys[i]);\r\n            }\r\n        }\r\n\r\n        //Set numberOfPositions to 0 if pool is liquidated\r\n        if (_totalSupply == 0)\r\n        {\r\n            numberOfPositions = 0;\r\n        }\r\n\r\n        uint valueWithdrawn = poolValue.mul(portion).div(10**18);\r\n\r\n        emit Withdraw(address(this), msg.sender, numberOfPoolTokens, valueWithdrawn, assetsWithdrawn, amountsWithdrawn, block.timestamp);\r\n    }\r\n\r\n    /* ========== RESTRICTED FUNCTIONS ========== */\r\n\r\n    /**\r\n    * @dev Executes a transaction on behalf of the pool; lets pool talk to other protocols\r\n    * @param to Address of external contract\r\n    * @param data Bytes data for the transaction\r\n    */\r\n    function executeTransaction(address to, bytes memory data) public onlyPoolManager {\r\n        require(to != address(0), \"Pool: invalid 'to' address\");\r\n\r\n        //First try to get contract verifier\r\n        address verifier = ADDRESS_RESOLVER.contractVerifiers(to);\r\n        //Try to get asset verifier if no contract verifier found\r\n        if (verifier == address(0))\r\n        {\r\n            address assetHandlerAddress = ADDRESS_RESOLVER.getContractAddress(\"AssetHandler\");\r\n            verifier = IAssetHandler(assetHandlerAddress).getVerifier(to);\r\n\r\n            //'to' address is an asset; need to check if asset is valid\r\n            if (verifier != address(0))\r\n            {\r\n                require(IAssetHandler(assetHandlerAddress).isValidAsset(to), \"Pool: invalid asset\");\r\n\r\n                _addPositionKey(to);\r\n            }\r\n        }\r\n\r\n        require(verifier != address(0), \"Pool: invalid verifier\");\r\n        require(IVerifier(verifier).verify(address(ADDRESS_RESOLVER), address(this), to, data), \"Pool: invalid transaction\");\r\n\r\n        (bool success, ) = to.call(data);\r\n        require(success, \"Pool: transaction failed to execute\");\r\n\r\n        emit ExecutedTransaction(address(this), _manager, to, block.timestamp);\r\n    }\r\n\r\n    /**\r\n    * @dev Removes the pool's empty positions from position keys\r\n    */\r\n    function removeEmptyPositions() external onlyPoolManager {\r\n        uint assetCount = numberOfPositions;\r\n\r\n        for (uint i = assetCount.sub(1); i >= 0; i--)\r\n        {\r\n            _removePositionKey(_positionKeys[i]);\r\n        }\r\n\r\n        emit RemovedEmptyPositions(address(this), _manager, block.timestamp);\r\n    }\r\n\r\n    /**\r\n    * @dev Updates the pool's farm address\r\n    * @param farmAddress Address of the pool's farm\r\n    */\r\n    function setFarmAddress(address farmAddress) public override onlyPoolFactory {\r\n        require(farmAddress != address(0), \"Invalid farm address\");\r\n\r\n        _farmAddress = farmAddress;\r\n    }\r\n\r\n    /* ========== INTERNAL FUNCTIONS ========== */\r\n\r\n    /**\r\n    * @dev Adds the given currency to position keys\r\n    * @param currency Address of token to add\r\n    */\r\n    function _addPositionKey(address currency) internal {\r\n        require(currency != address(0), \"Pool: invalid asset address\");\r\n\r\n        //Add token to positionKeys if not currently in positionKeys\r\n        if (positionToIndex[currency] == 0)\r\n        {\r\n            positionToIndex[currency] = numberOfPositions;\r\n            _positionKeys[numberOfPositions] = currency;\r\n            numberOfPositions = numberOfPositions.add(1);\r\n        }\r\n    }\r\n\r\n    /**\r\n    * @dev Removes the given currency to position keys\r\n    * @param currency Address of token to remove\r\n    */\r\n    function _removePositionKey(address currency) internal {\r\n        require(currency != address(0), \"Pool: invalid asset address\");\r\n\r\n        //Remove currency from positionKeys if no balance left; account for dust\r\n        if (IERC20(currency).balanceOf(address(this)) < 10000)\r\n        {\r\n            _positionKeys[positionToIndex[currency]] = _positionKeys[numberOfPositions - 1];\r\n            positionToIndex[_positionKeys[numberOfPositions - 1]] = positionToIndex[currency];\r\n            delete _positionKeys[numberOfPositions - 1];\r\n            delete positionToIndex[currency];\r\n            numberOfPositions = numberOfPositions.sub(1);\r\n        }\r\n    }\r\n\r\n    function _approve(address owner, address spender, uint value) private {\r\n        allowance[owner][spender] = value;\r\n        emit Approval(owner, spender, value);\r\n    }\r\n\r\n    function _transfer(address from, address to, uint value) private {\r\n        _balanceOf[from] = _balanceOf[from].sub(value);\r\n        _balanceOf[to] = _balanceOf[to].add(value);\r\n        emit Transfer(from, to, value);\r\n    }\r\n\r\n    /**\r\n    * @dev Calculates the price of a pool token\r\n    * @param _poolValue Value of the pool in USD\r\n    * @return Price of a pool token\r\n    */\r\n    function _tokenPrice(uint _poolValue) internal view returns (uint) {\r\n        if (_totalSupply == 0 || _poolValue == 0)\r\n        {\r\n            return 0;\r\n        }\r\n\r\n        return _poolValue.mul(10**18).div(_totalSupply);\r\n    }\r\n\r\n    /**\r\n    * @dev Mints the pool manager's available fees\r\n    * @return Pool's USD value\r\n    */\r\n    function _mintManagerFee() internal returns(uint) {\r\n        uint poolValue = getPoolValue();\r\n\r\n        uint availableFee = availableManagerFee();\r\n\r\n        // Ignore dust when minting performance fees\r\n        if (availableFee < 10000)\r\n        {\r\n            return 0;\r\n        }\r\n\r\n        _balanceOf[_manager] = _balanceOf[_manager].add(availableFee);\r\n        _totalSupply = _totalSupply.add(availableFee);\r\n\r\n        _tokenPriceAtLastFeeMint = _tokenPrice(poolValue);\r\n\r\n        emit MintedManagerFee(address(this), _manager, availableFee, block.timestamp);\r\n\r\n        return poolValue;\r\n    }\r\n\r\n    /**\r\n    * @dev Performs additional processing when withdrawing an asset (such as checking for staked tokens)\r\n    * @param asset Address of asset to withdraw\r\n    * @param to Address of external contract\r\n    * @param portion User's portion of pool's asset balance\r\n    * @return Amount of tokens to withdraw\r\n    */\r\n    function _withdrawProcessing(address asset, address to, uint portion) internal returns (uint) {\r\n        address assetHandlerAddress = ADDRESS_RESOLVER.getContractAddress(\"AssetHandler\");\r\n        address verifier = IAssetHandler(assetHandlerAddress).getVerifier(asset);\r\n\r\n        (address withdrawAsset, uint withdrawBalance, IAssetVerifier.MultiTransaction[] memory transactions) = IAssetVerifier(verifier).prepareWithdrawal(address(this), asset, portion, to);\r\n\r\n        if (transactions.length > 0)\r\n        {\r\n            uint initialAssetBalance;\r\n            if (withdrawAsset != address(0))\r\n            {\r\n                initialAssetBalance = IERC20(withdrawAsset).balanceOf(address(this));\r\n            }\r\n\r\n            //Execute each transaction\r\n            for (uint i = 0; i < transactions.length; i++)\r\n            {\r\n                (bool success,) = to.call(transactions[i].txData);\r\n                require(success, \"Pool: failed to withdraw tokens\");\r\n            }\r\n\r\n            //Account for additional tokens added (withdrawing staked LP tokens)\r\n            if (withdrawAsset != address(0))\r\n            {\r\n                withdrawBalance = withdrawBalance.add(IERC20(withdrawAsset).balanceOf(address(this))).sub(initialAssetBalance);\r\n            }\r\n        }\r\n\r\n        return withdrawBalance;\r\n    }\r\n\r\n    /* ========== MODIFIERS ========== */\r\n\r\n    modifier onlyPoolFactory() {\r\n        address poolFactoryAddress = ADDRESS_RESOLVER.getContractAddress(\"PoolFactory\");\r\n\r\n        require(msg.sender == poolFactoryAddress, \"Pool: Only PoolFactory contract can call this function\");\r\n        _;\r\n    }\r\n\r\n    modifier onlyPoolManager() {\r\n        require(msg.sender == _manager, \"Pool: Only pool's manager can call this function\");\r\n        _;\r\n    }\r\n\r\n    /* ========== EVENTS ========== */\r\n\r\n    event Deposit(address indexed poolAddress, address indexed userAddress, uint amount, uint timestamp);\r\n    event Withdraw(address indexed poolAddress, address indexed userAddress, uint numberOfPoolTokens, uint valueWithdrawn, address[] assets, uint[] amountsWithdrawn, uint timestamp);\r\n    event MintedManagerFee(address indexed poolAddress, address indexed manager, uint amount, uint timestamp);\r\n    event ExecutedTransaction(address indexed poolAddress, address indexed manager, address to, uint timestamp);\r\n    event RemovedEmptyPositions(address indexed poolAddress, address indexed manager, uint timestamp);\r\n}",
  "sourcePath": "C:\\Users\\xavie\\OneDrive\\Desktop\\TradeGen\\Github\\tradegen-protocol\\contracts\\Pool.sol",
  "compiler": {
    "name": "solc",
    "version": "0.7.6+commit.7338295f.Emscripten.clang"
  },
  "schemaVersion": "3.4.1",
  "updatedAt": "2021-08-16T00:30:21.903Z",
  "devdoc": {
    "kind": "dev",
    "methods": {
      "availableManagerFee()": {
        "details": "Returns the pool manager's available fees",
        "returns": {
          "_0": "Pool manager's available fees"
        }
      },
      "balanceOf(address)": {
        "details": "Returns the number of pool tokens the user has",
        "params": {
          "user": "Address of the user"
        },
        "returns": {
          "_0": "uint Number of pool tokens the user has"
        }
      },
      "deposit(uint256)": {
        "details": "Deposits the given USD amount into the pool",
        "params": {
          "amount": "Amount of USD to deposit into the pool"
        }
      },
      "executeTransaction(address,bytes)": {
        "details": "Executes a transaction on behalf of the pool; lets pool talk to other protocols",
        "params": {
          "data": "Bytes data for the transaction",
          "to": "Address of external contract"
        }
      },
      "getAssetValue(address,address)": {
        "details": "Returns the USD value of the asset",
        "params": {
          "asset": "Address of the asset",
          "assetHandlerAddress": "Address of AssetHandler contract"
        }
      },
      "getAvailableFunds()": {
        "details": "Returns the amount of cUSD the pool has to invest",
        "returns": {
          "_0": "uint Amount of cUSD the pool has available"
        }
      },
      "getFarmAddress()": {
        "details": "Returns the address of the pool's farm",
        "returns": {
          "_0": "address Address of the pool's farm"
        }
      },
      "getManagerAddress()": {
        "details": "Return the pool manager's address",
        "returns": {
          "_0": "address Address of the pool's manager"
        }
      },
      "getPerformanceFee()": {
        "details": "Returns the pool's performance fee",
        "returns": {
          "_0": "uint The pool's performance fee"
        }
      },
      "getPoolValue()": {
        "details": "Returns the value of the pool in USD",
        "returns": {
          "_0": "uint Value of the pool in USD"
        }
      },
      "getPositionsAndTotal()": {
        "details": "Returns the currency address and balance of each position the pool has, as well as the cumulative value",
        "returns": {
          "_0": "(address[], uint[], uint) Currency address and balance of each position the pool has, and the cumulative value of positions"
        }
      },
      "getUSDBalance(address)": {
        "details": "Returns the balance of the user in USD",
        "returns": {
          "_0": "uint Balance of the user in USD"
        }
      },
      "mintManagerFee()": {
        "details": "Mints the pool manager's fee"
      },
      "name()": {
        "details": "Returns the name of the pool",
        "returns": {
          "_0": "string The name of the pool"
        }
      },
      "removeEmptyPositions()": {
        "details": "Removes the pool's empty positions from position keys"
      },
      "setFarmAddress(address)": {
        "details": "Updates the pool's farm address",
        "params": {
          "farmAddress": "Address of the pool's farm"
        }
      },
      "tokenPrice()": {
        "details": "Returns the price of the pool's token",
        "returns": {
          "_0": "USD price of the pool's token"
        }
      },
      "totalSupply()": {
        "details": "Returns the total supply of LP tokens in the pool",
        "returns": {
          "_0": "uint Total supply of LP tokens"
        }
      },
      "withdraw(uint256)": {
        "details": "Withdraws the given number of pool tokens from the user",
        "params": {
          "numberOfPoolTokens": "Number of pool tokens to withdraw"
        }
      }
    },
    "version": 1
  },
  "userdoc": {
    "kind": "user",
    "methods": {
      "deposit(uint256)": {
        "notice": "Call cUSD.approve() before calling this function"
      }
    },
    "version": 1
  }
}