{
  "contractName": "PoolFactory",
  "abi": [
    {
      "inputs": [
        {
          "internalType": "contract IAddressResolver",
          "name": "addressResolver",
          "type": "address"
        }
      ],
      "stateMutability": "nonpayable",
      "type": "constructor"
    },
    {
      "anonymous": false,
      "inputs": [
        {
          "indexed": true,
          "internalType": "address",
          "name": "managerAddress",
          "type": "address"
        },
        {
          "indexed": true,
          "internalType": "address",
          "name": "poolAddress",
          "type": "address"
        },
        {
          "indexed": false,
          "internalType": "uint256",
          "name": "poolIndex",
          "type": "uint256"
        },
        {
          "indexed": false,
          "internalType": "uint256",
          "name": "timestamp",
          "type": "uint256"
        }
      ],
      "name": "CreatedPool",
      "type": "event"
    },
    {
      "anonymous": false,
      "inputs": [
        {
          "indexed": true,
          "internalType": "address",
          "name": "previousOwner",
          "type": "address"
        },
        {
          "indexed": true,
          "internalType": "address",
          "name": "newOwner",
          "type": "address"
        }
      ],
      "name": "OwnershipTransferred",
      "type": "event"
    },
    {
      "anonymous": false,
      "inputs": [
        {
          "indexed": true,
          "internalType": "address",
          "name": "poolAddress",
          "type": "address"
        },
        {
          "indexed": false,
          "internalType": "address",
          "name": "farmAddress",
          "type": "address"
        },
        {
          "indexed": false,
          "internalType": "uint256",
          "name": "timestamp",
          "type": "uint256"
        }
      ],
      "name": "UpdatedFarmAddress",
      "type": "event"
    },
    {
      "inputs": [],
      "name": "ADDRESS_RESOLVER",
      "outputs": [
        {
          "internalType": "contract IAddressResolver",
          "name": "",
          "type": "address"
        }
      ],
      "stateMutability": "view",
      "type": "function"
    },
    {
      "inputs": [
        {
          "internalType": "address",
          "name": "",
          "type": "address"
        }
      ],
      "name": "addressToIndex",
      "outputs": [
        {
          "internalType": "uint256",
          "name": "",
          "type": "uint256"
        }
      ],
      "stateMutability": "view",
      "type": "function"
    },
    {
      "inputs": [],
      "name": "isOwner",
      "outputs": [
        {
          "internalType": "bool",
          "name": "",
          "type": "bool"
        }
      ],
      "stateMutability": "view",
      "type": "function"
    },
    {
      "inputs": [],
      "name": "owner",
      "outputs": [
        {
          "internalType": "address",
          "name": "",
          "type": "address"
        }
      ],
      "stateMutability": "view",
      "type": "function"
    },
    {
      "inputs": [
        {
          "internalType": "uint256",
          "name": "",
          "type": "uint256"
        }
      ],
      "name": "pools",
      "outputs": [
        {
          "internalType": "address",
          "name": "",
          "type": "address"
        }
      ],
      "stateMutability": "view",
      "type": "function"
    },
    {
      "inputs": [],
      "name": "renounceOwnership",
      "outputs": [],
      "stateMutability": "nonpayable",
      "type": "function"
    },
    {
      "inputs": [
        {
          "internalType": "address",
          "name": "newOwner",
          "type": "address"
        }
      ],
      "name": "transferOwnership",
      "outputs": [],
      "stateMutability": "nonpayable",
      "type": "function"
    },
    {
      "inputs": [
        {
          "internalType": "address",
          "name": "",
          "type": "address"
        },
        {
          "internalType": "uint256",
          "name": "",
          "type": "uint256"
        }
      ],
      "name": "userToManagedPools",
      "outputs": [
        {
          "internalType": "uint256",
          "name": "",
          "type": "uint256"
        }
      ],
      "stateMutability": "view",
      "type": "function"
    },
    {
      "inputs": [
        {
          "internalType": "address",
          "name": "user",
          "type": "address"
        }
      ],
      "name": "getUserManagedPools",
      "outputs": [
        {
          "internalType": "address[]",
          "name": "",
          "type": "address[]"
        }
      ],
      "stateMutability": "view",
      "type": "function"
    },
    {
      "inputs": [],
      "name": "getAvailablePools",
      "outputs": [
        {
          "internalType": "address[]",
          "name": "",
          "type": "address[]"
        }
      ],
      "stateMutability": "view",
      "type": "function"
    },
    {
      "inputs": [
        {
          "internalType": "string",
          "name": "poolName",
          "type": "string"
        },
        {
          "internalType": "uint256",
          "name": "performanceFee",
          "type": "uint256"
        }
      ],
      "name": "createPool",
      "outputs": [],
      "stateMutability": "nonpayable",
      "type": "function"
    },
    {
      "inputs": [
        {
          "internalType": "address",
          "name": "poolAddress",
          "type": "address"
        },
        {
          "internalType": "address",
          "name": "farmAddress",
          "type": "address"
        }
      ],
      "name": "setFarmAddress",
      "outputs": [],
      "stateMutability": "nonpayable",
      "type": "function"
    }
  ],
  "bytecode": "0x60a060405234801561001057600080fd5b5060405161692b38038061692b8339818101604052602081101561003357600080fd5b8101908080519060200190929190505050336000806101000a81548173ffffffffffffffffffffffffffffffffffffffff021916908373ffffffffffffffffffffffffffffffffffffffff16021790555060008054906101000a900473ffffffffffffffffffffffffffffffffffffffff1673ffffffffffffffffffffffffffffffffffffffff16600073ffffffffffffffffffffffffffffffffffffffff167f8be0079c531659141344cd1fd0a4f28419497f9722a3daafe3b4186f6b6457e060405160405180910390a38073ffffffffffffffffffffffffffffffffffffffff1660808173ffffffffffffffffffffffffffffffffffffffff1660601b815250505060805160601c6167c8610163600039806107cb5280610b8d5280610dad52806110e152506167c86000f3fe60806040523480156200001157600080fd5b5060043610620000c45760003560e01c80638f32d59b116200007b5780638f32d59b1462000305578063981f3b8e1462000327578063ac4afa38146200035d578063e48f937814620003b8578063f2fde38b1462000456578063f667e0aa146200049d57620000c4565b80631fb16e5814620000c957806326fc66ab1462000130578063715018a614620001fb5780637517f18314620002075780637a0b32ac146200026a5780638da5cb5b14620002cf575b600080fd5b6200012e60048036036040811015620000e157600080fd5b81019080803573ffffffffffffffffffffffffffffffffffffffff169060200190929190803573ffffffffffffffffffffffffffffffffffffffff169060200190929190505050620004f8565b005b620001f9600480360360408110156200014857600080fd5b81019080803590602001906401000000008111156200016657600080fd5b8201836020820111156200017957600080fd5b803590602001918460018302840111640100000000831117156200019c57600080fd5b91908080601f016020809104026020016040519081016040528093929190818152602001838380828437600081840152601f19601f82011690508083019250505050505050919291929080359060200190929190505050620007c7565b005b6200020562000ecb565b005b6200021162000f9d565b6040518080602001828103825283818151815260200191508051906020019060200280838360005b838110156200025657808201518184015260208101905062000239565b505050509050019250505060405180910390f35b620002b9600480360360408110156200028257600080fd5b81019080803573ffffffffffffffffffffffffffffffffffffffff169060200190929190803590602001909291905050506200102d565b6040518082815260200191505060405180910390f35b620002d96200105f565b604051808273ffffffffffffffffffffffffffffffffffffffff16815260200191505060405180910390f35b6200030f62001088565b60405180821515815260200191505060405180910390f35b62000331620010df565b604051808273ffffffffffffffffffffffffffffffffffffffff16815260200191505060405180910390f35b6200038c600480360360208110156200037557600080fd5b810190808035906020019092919050505062001103565b604051808273ffffffffffffffffffffffffffffffffffffffff16815260200191505060405180910390f35b620003fd60048036036020811015620003d057600080fd5b81019080803573ffffffffffffffffffffffffffffffffffffffff16906020019092919050505062001143565b6040518080602001828103825283818151815260200191508051906020019060200280838360005b838110156200044257808201518184015260208101905062000425565b505050509050019250505060405180910390f35b6200049b600480360360208110156200046e57600080fd5b81019080803573ffffffffffffffffffffffffffffffffffffffff169060200190929190505050620013cc565b005b620004e260048036036020811015620004b557600080fd5b81019080803573ffffffffffffffffffffffffffffffffffffffff169060200190929190505050620013ee565b6040518082815260200191505060405180910390f35b81600073ffffffffffffffffffffffffffffffffffffffff168173ffffffffffffffffffffffffffffffffffffffff16141562000581576040517f08c379a0000000000000000000000000000000000000000000000000000000008152600401808060200182810382526021815260200180620066f46021913960400191505060405180910390fd5b6000600360008373ffffffffffffffffffffffffffffffffffffffff1673ffffffffffffffffffffffffffffffffffffffff168152602001908152602001600020541162000637576040517f08c379a000000000000000000000000000000000000000000000000000000000815260040180806020018281038252601b8152602001807f506f6f6c466163746f72793a20506f6f6c206e6f7420666f756e64000000000081525060200191505060405180910390fd5b6200064162001088565b6200064b57600080fd5b600073ffffffffffffffffffffffffffffffffffffffff168273ffffffffffffffffffffffffffffffffffffffff161415620006d3576040517f08c379a0000000000000000000000000000000000000000000000000000000008152600401808060200182810382526021815260200180620066d36021913960400191505060405180910390fd5b8273ffffffffffffffffffffffffffffffffffffffff1663d9799809836040518263ffffffff1660e01b8152600401808273ffffffffffffffffffffffffffffffffffffffff168152602001915050600060405180830381600087803b1580156200073d57600080fd5b505af115801562000752573d6000803e3d6000fd5b505050508273ffffffffffffffffffffffffffffffffffffffff167f0b573389cc314585efb6a07f9e19191d0152f7bf4484b05181383bddbd6d8e798342604051808373ffffffffffffffffffffffffffffffffffffffff1681526020018281526020019250505060405180910390a2505050565b60007f000000000000000000000000000000000000000000000000000000000000000073ffffffffffffffffffffffffffffffffffffffff166304433bbc6040518163ffffffff1660e01b81526004018080602001828103825260088152602001807f53657474696e677300000000000000000000000000000000000000000000000081525060200191505060206040518083038186803b1580156200086c57600080fd5b505afa15801562000881573d6000803e3d6000fd5b505050506040513d60208110156200089857600080fd5b8101908080519060200190929190505050905060008173ffffffffffffffffffffffffffffffffffffffff166328a2176f6040518163ffffffff1660e01b81526004018080602001828103825260158152602001807f4d6178696d756d506572666f726d616e6365466565000000000000000000000081525060200191505060206040518083038186803b1580156200093057600080fd5b505afa15801562000945573d6000803e3d6000fd5b505050506040513d60208110156200095c57600080fd5b8101908080519060200190929190505050905060008273ffffffffffffffffffffffffffffffffffffffff166328a2176f6040518163ffffffff1660e01b815260040180806020018281038252601b8152602001807f4d6178696d756d4e756d6265724f66506f6f6c7350657255736572000000000081525060200191505060206040518083038186803b158015620009f457600080fd5b505afa15801562000a09573d6000803e3d6000fd5b505050506040513d602081101562000a2057600080fd5b81019080805190602001909291905050509050601e85511062000a8f576040517f08c379a000000000000000000000000000000000000000000000000000000000815260040180806020018281038252602b81526020018062006768602b913960400191505060405180910390fd5b8184111562000aea576040517f08c379a0000000000000000000000000000000000000000000000000000000008152600401808060200182810382526025815260200180620067156025913960400191505060405180910390fd5b80600260003373ffffffffffffffffffffffffffffffffffffffff1673ffffffffffffffffffffffffffffffffffffffff168152602001908152602001600020805490501062000b86576040517f08c379a000000000000000000000000000000000000000000000000000000000815260040180806020018281038252602e8152602001806200673a602e913960400191505060405180910390fd5b60008585337f000000000000000000000000000000000000000000000000000000000000000060405162000bba90620014fe565b80806020018581526020018473ffffffffffffffffffffffffffffffffffffffff1681526020018373ffffffffffffffffffffffffffffffffffffffff168152602001828103825286818151815260200191508051906020019080838360005b8381101562000c3757808201518184015260208101905062000c1a565b50505050905090810190601f16801562000c655780820380516001836020036101000a031916815260200191505b5095505050505050604051809103906000f08015801562000c8a573d6000803e3d6000fd5b50905060008190506001819080600181540180825580915050600190039060005260206000200160009091909190916101000a81548173ffffffffffffffffffffffffffffffffffffffff021916908373ffffffffffffffffffffffffffffffffffffffff160217905550600260003373ffffffffffffffffffffffffffffffffffffffff1673ffffffffffffffffffffffffffffffffffffffff16815260200190815260200160002060018080549050039080600181540180825580915050600190039060005260206000200160009091909190915055600180549050600360008373ffffffffffffffffffffffffffffffffffffffff1673ffffffffffffffffffffffffffffffffffffffff168152602001908152602001600020819055507f000000000000000000000000000000000000000000000000000000000000000073ffffffffffffffffffffffffffffffffffffffff166343499844826040518263ffffffff1660e01b8152600401808273ffffffffffffffffffffffffffffffffffffffff168152602001915050600060405180830381600087803b15801562000e3557600080fd5b505af115801562000e4a573d6000803e3d6000fd5b505050508073ffffffffffffffffffffffffffffffffffffffff163373ffffffffffffffffffffffffffffffffffffffff167f86e8d285f3aca144a05c4f811c981e98a2beba0e30a1e8385052b05b8a96b4b1600180805490500342604051808381526020018281526020019250505060405180910390a350505050505050565b62000ed562001088565b62000edf57600080fd5b600073ffffffffffffffffffffffffffffffffffffffff1660008054906101000a900473ffffffffffffffffffffffffffffffffffffffff1673ffffffffffffffffffffffffffffffffffffffff167f8be0079c531659141344cd1fd0a4f28419497f9722a3daafe3b4186f6b6457e060405160405180910390a360008060006101000a81548173ffffffffffffffffffffffffffffffffffffffff021916908373ffffffffffffffffffffffffffffffffffffffff160217905550565b606060018054806020026020016040519081016040528092919081815260200182805480156200102357602002820191906000526020600020905b8160009054906101000a900473ffffffffffffffffffffffffffffffffffffffff1673ffffffffffffffffffffffffffffffffffffffff168152602001906001019080831162000fd8575b5050505050905090565b600260205281600052604060002081815481106200104a57600080fd5b90600052602060002001600091509150505481565b60008060009054906101000a900473ffffffffffffffffffffffffffffffffffffffff16905090565b60008060009054906101000a900473ffffffffffffffffffffffffffffffffffffffff1673ffffffffffffffffffffffffffffffffffffffff163373ffffffffffffffffffffffffffffffffffffffff1614905090565b7f000000000000000000000000000000000000000000000000000000000000000081565b600181815481106200111457600080fd5b906000526020600020016000915054906101000a900473ffffffffffffffffffffffffffffffffffffffff1681565b6060600073ffffffffffffffffffffffffffffffffffffffff168273ffffffffffffffffffffffffffffffffffffffff161415620011e9576040517f08c379a000000000000000000000000000000000000000000000000000000000815260040180806020018281038252600f8152602001807f496e76616c69642061646472657373000000000000000000000000000000000081525060200191505060405180910390fd5b6000600260008473ffffffffffffffffffffffffffffffffffffffff1673ffffffffffffffffffffffffffffffffffffffff1681526020019081526020016000208054905067ffffffffffffffff811180156200124557600080fd5b50604051908082528060200260200182016040528015620012755781602001602082028036833780820191505090505b5090506000600260008573ffffffffffffffffffffffffffffffffffffffff1673ffffffffffffffffffffffffffffffffffffffff1681526020019081526020016000208054806020026020016040519081016040528092919081815260200182805480156200130557602002820191906000526020600020905b815481526020019060010190808311620012f0575b5050505050905060005b8251811015620013c15760008282815181106200132857fe5b60200260200101519050600181815481106200134057fe5b9060005260206000200160009054906101000a900473ffffffffffffffffffffffffffffffffffffffff168483815181106200137857fe5b602002602001019073ffffffffffffffffffffffffffffffffffffffff16908173ffffffffffffffffffffffffffffffffffffffff16815250505080806001019150506200130f565b508192505050919050565b620013d662001088565b620013e057600080fd5b620013eb8162001406565b50565b60036020528060005260406000206000915090505481565b600073ffffffffffffffffffffffffffffffffffffffff168173ffffffffffffffffffffffffffffffffffffffff1614156200144157600080fd5b8073ffffffffffffffffffffffffffffffffffffffff1660008054906101000a900473ffffffffffffffffffffffffffffffffffffffff1673ffffffffffffffffffffffffffffffffffffffff167f8be0079c531659141344cd1fd0a4f28419497f9722a3daafe3b4186f6b6457e060405160405180910390a3806000806101000a81548173ffffffffffffffffffffffffffffffffffffffff021916908373ffffffffffffffffffffffffffffffffffffffff16021790555050565b6151c6806200150d8339019056fe60806040523480156200001157600080fd5b50604051620051c6380380620051c683398181016040528101906200003791906200025e565b83600190805190602001906200004f929190620000f1565b5081600360006101000a81548173ffffffffffffffffffffffffffffffffffffffff021916908373ffffffffffffffffffffffffffffffffffffffff16021790555082600481905550806000806101000a81548173ffffffffffffffffffffffffffffffffffffffff021916908373ffffffffffffffffffffffffffffffffffffffff160217905550670de0b6b3a76400006006819055505050505062000422565b828054600181600116156101000203166002900490600052602060002090601f01602090048101928262000129576000855562000175565b82601f106200014457805160ff191683800117855562000175565b8280016001018555821562000175579182015b828111156200017457825182559160200191906001019062000157565b5b50905062000184919062000188565b5090565b5b80821115620001a357600081600090555060010162000189565b5090565b6000620001be620001b88462000317565b620002e3565b905082815260208101848484011115620001d757600080fd5b620001e48482856200039c565b509392505050565b600081519050620001fd81620003d4565b92915050565b6000815190506200021481620003ee565b92915050565b600082601f8301126200022c57600080fd5b81516200023e848260208601620001a7565b91505092915050565b600081519050620002588162000408565b92915050565b600080600080608085870312156200027557600080fd5b600085015167ffffffffffffffff8111156200029057600080fd5b6200029e878288016200021a565b9450506020620002b18782880162000247565b9350506040620002c487828801620001ec565b9250506060620002d78782880162000203565b91505092959194509250565b6000604051905081810181811067ffffffffffffffff821117156200030d576200030c620003d2565b5b8060405250919050565b600067ffffffffffffffff821115620003355762000334620003d2565b5b601f19601f8301169050602081019050919050565b6000620003578262000372565b9050919050565b60006200036b826200034a565b9050919050565b600073ffffffffffffffffffffffffffffffffffffffff82169050919050565b6000819050919050565b60005b83811015620003bc5780820151818401526020810190506200039f565b83811115620003cc576000848401525b50505050565bfe5b620003df816200034a565b8114620003eb57600080fd5b50565b620003f9816200035e565b81146200040557600080fd5b50565b620004138162000392565b81146200041f57600080fd5b50565b614d9480620004326000396000f3fe608060405234801561001057600080fd5b506004361061021c5760003560e01c80637ff9b59611610125578063c162d7da116100ad578063d97998091161007c578063d979980914610639578063dd62ed3e14610655578063edbf6f5014610685578063f0329f6b146106a3578063f0f3da5e146106c15761021c565b8063c162d7da146105c3578063cc3c6df6146105e1578063cca3e832146105eb578063d28d88521461061b5761021c565b8063981f3b8e116100f4578063981f3b8e1461051b5780639db3235314610539578063a9059cbb14610557578063ac08c57414610587578063b6b55f25146105a75761021c565b80637ff9b5961461049157806380e28293146104af57806395d4e5da146104cd57806395d89b41146104fd5761021c565b80632ed8e0d4116101a85780635195bd29116101775780635195bd29146103d95780635cb035ad146103f75780636ca0f814146104275780636e1d9d2d1461044357806370a08231146104615761021c565b80632ed8e0d414610363578063313ce567146103935780633eaaf86b146103b157806347b339ca146103cf5761021c565b80631ba2f531116101ef5780631ba2f531146102ab5780632322e3b9146102c9578063235c3603146102f957806323b872dd146103175780632e1a7d4d146103475761021c565b806306fdde0314610221578063095ea7b31461023f57806318160ddd1461026f5780631978d6bc1461028d575b600080fd5b6102296106df565b60405161023691906147b1565b60405180910390f35b61025960048036038101906102549190613d12565b610781565b604051610266919061477b565b60405180910390f35b610277610798565b6040516102849190614a13565b60405180910390f35b6102956107a2565b6040516102a29190614a13565b60405180910390f35b6102b36107a8565b6040516102c09190614a13565b60405180910390f35b6102e360048036038101906102de9190613be1565b6108c9565b6040516102f09190614a13565b60405180910390f35b6103016109b4565b60405161030e9190614a13565b60405180910390f35b610331600480360381019061032c9190613c6f565b6109be565b60405161033e919061477b565b60405180910390f35b610361600480360381019061035c9190613dde565b610b6a565b005b61037d60048036038101906103789190613dde565b611093565b60405161038a91906145d8565b60405180910390f35b61039b6110c6565b6040516103a89190614ab8565b60405180910390f35b6103b96110cf565b6040516103c69190614a13565b60405180910390f35b6103d76110d5565b005b6103e1611262565b6040516103ee9190614a13565b60405180910390f35b610411600480360381019061040c9190613be1565b611420565b60405161041e9190614a13565b60405180910390f35b610441600480360381019061043c9190613cbe565b611438565b005b61044b611af6565b60405161045891906145d8565b60405180910390f35b61047b60048036038101906104769190613be1565b611b20565b6040516104889190614a13565b60405180910390f35b610499611bd8565b6040516104a69190614a13565b60405180910390f35b6104b7611bf4565b6040516104c49190614a13565b60405180910390f35b6104e760048036038101906104e29190613c33565b611bfa565b6040516104f49190614a13565b60405180910390f35b610505611eb7565b60405161051291906147b1565b60405180910390f35b610523611ece565b6040516105309190614796565b60405180910390f35b610541611ef2565b60405161054e9190614a13565b60405180910390f35b610571600480360381019061056c9190613d12565b611ef8565b60405161057e919061477b565b60405180910390f35b61058f611f0f565b60405161059e93929190614736565b60405180910390f35b6105c160048036038101906105bc9190613dde565b6123b1565b005b6105cb612720565b6040516105d891906145d8565b60405180910390f35b6105e961274a565b005b61060560048036038101906106009190613be1565b6127e5565b6040516106129190614a13565b60405180910390f35b6106236127fd565b60405161063091906147b1565b60405180910390f35b610653600480360381019061064e9190613be1565b61289b565b005b61066f600480360381019061066a9190613c33565b612a6a565b60405161067c9190614a13565b60405180910390f35b61068d612a8f565b60405161069a9190614a13565b60405180910390f35b6106ab612b48565b6040516106b891906145d8565b60405180910390f35b6106c9612b6e565b6040516106d691906145d8565b60405180910390f35b606060018054600181600116156101000203166002900480601f0160208091040260200160405190810160405280929190818152602001828054600181600116156101000203166002900480156107775780601f1061074c57610100808354040283529160200191610777565b820191906000526020600020905b81548152906001019060200180831161075a57829003601f168201915b5050505050905090565b600061078e338484612b94565b6001905092915050565b6000600254905090565b60065481565b60008060008054906101000a900473ffffffffffffffffffffffffffffffffffffffff1673ffffffffffffffffffffffffffffffffffffffff166304433bbc6040518163ffffffff1660e01b8152600401610802906149d3565b60206040518083038186803b15801561081a57600080fd5b505afa15801561082e573d6000803e3d6000fd5b505050506040513d601f19601f820116820180604052508101906108529190613c0a565b90506000805b600a548110156108c0576108b16108a26009600084815260200190815260200160002060009054906101000a900473ffffffffffffffffffffffffffffffffffffffff1685611bfa565b83612c7f90919063ffffffff16565b91508080600101915050610858565b50809250505090565b60008073ffffffffffffffffffffffffffffffffffffffff168273ffffffffffffffffffffffffffffffffffffffff16141561093a576040517f08c379a000000000000000000000000000000000000000000000000000000000815260040161093190614873565b60405180910390fd5b60006109446107a8565b90506109ac60025461099e600760008773ffffffffffffffffffffffffffffffffffffffff1673ffffffffffffffffffffffffffffffffffffffff1681526020019081526020016000205484612c9b90919063ffffffff16565b612cd290919063ffffffff16565b915050919050565b6000600454905090565b600080600860008673ffffffffffffffffffffffffffffffffffffffff1673ffffffffffffffffffffffffffffffffffffffff16815260200190815260200160002060003373ffffffffffffffffffffffffffffffffffffffff1673ffffffffffffffffffffffffffffffffffffffff168152602001908152602001600020541115610b5457610ad382600860008773ffffffffffffffffffffffffffffffffffffffff1673ffffffffffffffffffffffffffffffffffffffff16815260200190815260200160002060003373ffffffffffffffffffffffffffffffffffffffff1673ffffffffffffffffffffffffffffffffffffffff16815260200190815260200160002054612ceb90919063ffffffff16565b600860008673ffffffffffffffffffffffffffffffffffffffff1673ffffffffffffffffffffffffffffffffffffffff16815260200190815260200160002060003373ffffffffffffffffffffffffffffffffffffffff1673ffffffffffffffffffffffffffffffffffffffff168152602001908152602001600020819055505b610b5f848484612d02565b600190509392505050565b60008111610bad576040517f08c379a0000000000000000000000000000000000000000000000000000000008152600401610ba4906147d3565b60405180910390fd5b80600760003373ffffffffffffffffffffffffffffffffffffffff1673ffffffffffffffffffffffffffffffffffffffff168152602001908152602001600020541015610c2f576040517f08c379a0000000000000000000000000000000000000000000000000000000008152600401610c2690614953565b60405180910390fd5b6000610c39612e96565b90506000610c6c600254610c5e670de0b6b3a764000086612c9b90919063ffffffff16565b612cd290919063ffffffff16565b9050610cc083600760003373ffffffffffffffffffffffffffffffffffffffff1673ffffffffffffffffffffffffffffffffffffffff16815260200190815260200160002054612ceb90919063ffffffff16565b600760003373ffffffffffffffffffffffffffffffffffffffff1673ffffffffffffffffffffffffffffffffffffffff16815260200190815260200160002081905550610d1883600254612ceb90919063ffffffff16565b6002819055506000600a5467ffffffffffffffff81118015610d3957600080fd5b50604051908082528060200260200182016040528015610d685781602001602082028036833780820191505090505b5090506000600a5467ffffffffffffffff81118015610d8657600080fd5b50604051908082528060200260200182016040528015610db55781602001602082028036833780820191505090505b5090506000600a5490506000610dd5600183612ceb90919063ffffffff16565b90505b60008110610fd7576000610e206009600084815260200190815260200160002060009054906101000a900473ffffffffffffffffffffffffffffffffffffffff163388613059565b90506000811115610f80576009600083815260200190815260200160002060009054906101000a900473ffffffffffffffffffffffffffffffffffffffff1673ffffffffffffffffffffffffffffffffffffffff1663a9059cbb33836040518363ffffffff1660e01b8152600401610e9992919061462a565b602060405180830381600087803b158015610eb357600080fd5b505af1158015610ec7573d6000803e3d6000fd5b505050506040513d601f19601f82011682018060405250810190610eeb9190613db5565b5080858381518110610ef957fe5b6020026020010181815250506009600083815260200190815260200160002060009054906101000a900473ffffffffffffffffffffffffffffffffffffffff16848381518110610f4557fe5b602002602001019073ffffffffffffffffffffffffffffffffffffffff16908173ffffffffffffffffffffffffffffffffffffffff16815250505b60006002541415610fc857610fc76009600084815260200190815260200160002060009054906101000a900473ffffffffffffffffffffffffffffffffffffffff166134d0565b5b50808060019003915050610dd8565b5060006002541415610fec576000600a819055505b600061101b670de0b6b3a764000061100d8789612c9b90919063ffffffff16565b612cd290919063ffffffff16565b90503373ffffffffffffffffffffffffffffffffffffffff163073ffffffffffffffffffffffffffffffffffffffff167fca9c598e2bf8dd0778925b490473eac35c5a204479163ef8e311b67e2bf18bbb8984878942604051611082959493929190614a57565b60405180910390a350505050505050565b60096020528060005260406000206000915054906101000a900473ffffffffffffffffffffffffffffffffffffffff1681565b60006012905090565b60025481565b600360009054906101000a900473ffffffffffffffffffffffffffffffffffffffff1673ffffffffffffffffffffffffffffffffffffffff163373ffffffffffffffffffffffffffffffffffffffff1614611165576040517f08c379a000000000000000000000000000000000000000000000000000000000815260040161115c90614933565b60405180910390fd5b6000600a5490506000611182600183612ceb90919063ffffffff16565b90505b600081106111d7576111c96009600083815260200190815260200160002060009054906101000a900473ffffffffffffffffffffffffffffffffffffffff166134d0565b808060019003915050611185565b50600360009054906101000a900473ffffffffffffffffffffffffffffffffffffffff1673ffffffffffffffffffffffffffffffffffffffff163073ffffffffffffffffffffffffffffffffffffffff167f8e3d29abeef0483a28c9f802de238b3d31da2986dd7c27115a421bc802147c5a426040516112579190614a13565b60405180910390a350565b60008060008054906101000a900473ffffffffffffffffffffffffffffffffffffffff1673ffffffffffffffffffffffffffffffffffffffff166304433bbc6040518163ffffffff1660e01b81526004016112bc906149d3565b60206040518083038186803b1580156112d457600080fd5b505afa1580156112e8573d6000803e3d6000fd5b505050506040513d601f19601f8201168201806040525081019061130c9190613c0a565b905060008173ffffffffffffffffffffffffffffffffffffffff1663be781b1c6040518163ffffffff1660e01b815260040160206040518083038186803b15801561135657600080fd5b505afa15801561136a573d6000803e3d6000fd5b505050506040513d601f19601f8201168201806040525081019061138e9190613c0a565b90508073ffffffffffffffffffffffffffffffffffffffff166370a08231306040518263ffffffff1660e01b81526004016113c991906145d8565b60206040518083038186803b1580156113e157600080fd5b505afa1580156113f5573d6000803e3d6000fd5b505050506040513d601f19601f820116820180604052508101906114199190613e07565b9250505090565b600b6020528060005260406000206000915090505481565b600360009054906101000a900473ffffffffffffffffffffffffffffffffffffffff1673ffffffffffffffffffffffffffffffffffffffff163373ffffffffffffffffffffffffffffffffffffffff16146114c8576040517f08c379a00000000000000000000000000000000000000000000000000000000081526004016114bf90614933565b60405180910390fd5b600073ffffffffffffffffffffffffffffffffffffffff168273ffffffffffffffffffffffffffffffffffffffff161415611538576040517f08c379a000000000000000000000000000000000000000000000000000000000815260040161152f90614853565b60405180910390fd5b60008060009054906101000a900473ffffffffffffffffffffffffffffffffffffffff1673ffffffffffffffffffffffffffffffffffffffff16632febaebd846040518263ffffffff1660e01b815260040161159491906145d8565b60206040518083038186803b1580156115ac57600080fd5b505afa1580156115c0573d6000803e3d6000fd5b505050506040513d601f19601f820116820180604052508101906115e49190613c0a565b9050600073ffffffffffffffffffffffffffffffffffffffff168173ffffffffffffffffffffffffffffffffffffffff16141561185a5760008060009054906101000a900473ffffffffffffffffffffffffffffffffffffffff1673ffffffffffffffffffffffffffffffffffffffff166304433bbc6040518163ffffffff1660e01b8152600401611675906149d3565b60206040518083038186803b15801561168d57600080fd5b505afa1580156116a1573d6000803e3d6000fd5b505050506040513d601f19601f820116820180604052508101906116c59190613c0a565b90508073ffffffffffffffffffffffffffffffffffffffff1663059ce95d856040518263ffffffff1660e01b815260040161170091906145d8565b60206040518083038186803b15801561171857600080fd5b505afa15801561172c573d6000803e3d6000fd5b505050506040513d601f19601f820116820180604052508101906117509190613c0a565b9150600073ffffffffffffffffffffffffffffffffffffffff168273ffffffffffffffffffffffffffffffffffffffff1614611858578073ffffffffffffffffffffffffffffffffffffffff1663cc435bf3856040518263ffffffff1660e01b81526004016117bf91906145d8565b60206040518083038186803b1580156117d757600080fd5b505afa1580156117eb573d6000803e3d6000fd5b505050506040513d601f19601f8201168201806040525081019061180f9190613db5565b61184e576040517f08c379a0000000000000000000000000000000000000000000000000000000008152600401611845906149b3565b60405180910390fd5b611857846137f4565b5b505b600073ffffffffffffffffffffffffffffffffffffffff168173ffffffffffffffffffffffffffffffffffffffff1614156118ca576040517f08c379a00000000000000000000000000000000000000000000000000000000081526004016118c190614813565b60405180910390fd5b8073ffffffffffffffffffffffffffffffffffffffff166339158fdd60008054906101000a900473ffffffffffffffffffffffffffffffffffffffff163086866040518563ffffffff1660e01b8152600401611929949392919061467c565b602060405180830381600087803b15801561194357600080fd5b505af1158015611957573d6000803e3d6000fd5b505050506040513d601f19601f8201168201806040525081019061197b9190613db5565b6119ba576040517f08c379a00000000000000000000000000000000000000000000000000000000081526004016119b190614993565b60405180910390fd5b60008373ffffffffffffffffffffffffffffffffffffffff16836040516119e191906145c1565b6000604051808303816000865af19150503d8060008114611a1e576040519150601f19603f3d011682016040523d82523d6000602084013e611a23565b606091505b5050905080611a67576040517f08c379a0000000000000000000000000000000000000000000000000000000008152600401611a5e906148f3565b60405180910390fd5b600360009054906101000a900473ffffffffffffffffffffffffffffffffffffffff1673ffffffffffffffffffffffffffffffffffffffff163073ffffffffffffffffffffffffffffffffffffffff167fa8ab7184067399e01462520d88b77c0db06e364e9cb4db3254f26c504d4e91b18642604051611ae892919061470d565b60405180910390a350505050565b6000600560009054906101000a900473ffffffffffffffffffffffffffffffffffffffff16905090565b60008073ffffffffffffffffffffffffffffffffffffffff168273ffffffffffffffffffffffffffffffffffffffff161415611b91576040517f08c379a0000000000000000000000000000000000000000000000000000000008152600401611b8890614893565b60405180910390fd5b600760008373ffffffffffffffffffffffffffffffffffffffff1673ffffffffffffffffffffffffffffffffffffffff168152602001908152602001600020549050919050565b600080611be36107a8565b9050611bee81613966565b91505090565b60045481565b60008073ffffffffffffffffffffffffffffffffffffffff168373ffffffffffffffffffffffffffffffffffffffff161415611c6b576040517f08c379a0000000000000000000000000000000000000000000000000000000008152600401611c6290614973565b60405180910390fd5b600073ffffffffffffffffffffffffffffffffffffffff168273ffffffffffffffffffffffffffffffffffffffff161415611cdb576040517f08c379a0000000000000000000000000000000000000000000000000000000008152600401611cd290614913565b60405180910390fd5b60008273ffffffffffffffffffffffffffffffffffffffff16638b2f0f4f856040518263ffffffff1660e01b8152600401611d1691906145d8565b60206040518083038186803b158015611d2e57600080fd5b505afa158015611d42573d6000803e3d6000fd5b505050506040513d601f19601f82011682018060405250810190611d669190613e07565b905060008373ffffffffffffffffffffffffffffffffffffffff1663cf54aaa0866040518263ffffffff1660e01b8152600401611da391906145d8565b60206040518083038186803b158015611dbb57600080fd5b505afa158015611dcf573d6000803e3d6000fd5b505050506040513d601f19601f82011682018060405250810190611df39190613e07565b905060008473ffffffffffffffffffffffffffffffffffffffff1663d4fac45d30886040518363ffffffff1660e01b8152600401611e32929190614653565b60206040518083038186803b158015611e4a57600080fd5b505afa158015611e5e573d6000803e3d6000fd5b505050506040513d601f19601f82011682018060405250810190611e829190613e07565b9050611eac82600a0a611e9e8584612c9b90919063ffffffff16565b612cd290919063ffffffff16565b935050505092915050565b606060405180602001604052806000815250905090565b60008054906101000a900473ffffffffffffffffffffffffffffffffffffffff1681565b600a5481565b6000611f05338484612d02565b6001905092915050565b60608060008060008054906101000a900473ffffffffffffffffffffffffffffffffffffffff1673ffffffffffffffffffffffffffffffffffffffff166304433bbc6040518163ffffffff1660e01b8152600401611f6c906149d3565b60206040518083038186803b158015611f8457600080fd5b505afa158015611f98573d6000803e3d6000fd5b505050506040513d601f19601f82011682018060405250810190611fbc9190613c0a565b90506000600a5467ffffffffffffffff81118015611fd957600080fd5b506040519080825280602002602001820160405280156120085781602001602082028036833780820191505090505b5090506000600a5467ffffffffffffffff8111801561202657600080fd5b506040519080825280602002602001820160405280156120555781602001602082028036833780820191505090505b509050600080600090505b600a5481101561239e578473ffffffffffffffffffffffffffffffffffffffff1663d4fac45d306009600085815260200190815260200160002060009054906101000a900473ffffffffffffffffffffffffffffffffffffffff166040518363ffffffff1660e01b81526004016120d8929190614653565b60206040518083038186803b1580156120f057600080fd5b505afa158015612104573d6000803e3d6000fd5b505050506040513d601f19601f820116820180604052508101906121289190613e07565b83828151811061213457fe5b6020026020010181815250506009600082815260200190815260200160002060009054906101000a900473ffffffffffffffffffffffffffffffffffffffff1684828151811061218057fe5b602002602001019073ffffffffffffffffffffffffffffffffffffffff16908173ffffffffffffffffffffffffffffffffffffffff168152505060008573ffffffffffffffffffffffffffffffffffffffff1663cf54aaa06009600085815260200190815260200160002060009054906101000a900473ffffffffffffffffffffffffffffffffffffffff166040518263ffffffff1660e01b815260040161222891906145d8565b60206040518083038186803b15801561224057600080fd5b505afa158015612254573d6000803e3d6000fd5b505050506040513d601f19601f820116820180604052508101906122789190613e07565b905060008673ffffffffffffffffffffffffffffffffffffffff16638b2f0f4f6009600086815260200190815260200160002060009054906101000a900473ffffffffffffffffffffffffffffffffffffffff166040518263ffffffff1660e01b81526004016122e891906145d8565b60206040518083038186803b15801561230057600080fd5b505afa158015612314573d6000803e3d6000fd5b505050506040513d601f19601f820116820180604052508101906123389190613e07565b9050600061237783600a0a6123698489888151811061235357fe5b6020026020010151612c9b90919063ffffffff16565b612cd290919063ffffffff16565b905061238c8186612c7f90919063ffffffff16565b94505050508080600101915050612060565b5082828296509650965050505050909192565b600081116123f4576040517f08c379a00000000000000000000000000000000000000000000000000000000081526004016123eb906149f3565b60405180910390fd5b60006123fe6107a8565b9050600080600254116124115782612439565b6124388261242a85600254612c9b90919063ffffffff16565b612cd290919063ffffffff16565b5b905061248d81600760003373ffffffffffffffffffffffffffffffffffffffff1673ffffffffffffffffffffffffffffffffffffffff16815260200190815260200160002054612c7f90919063ffffffff16565b600760003373ffffffffffffffffffffffffffffffffffffffff1673ffffffffffffffffffffffffffffffffffffffff168152602001908152602001600020819055506124e581600254612c7f90919063ffffffff16565b60028190555060008060009054906101000a900473ffffffffffffffffffffffffffffffffffffffff1673ffffffffffffffffffffffffffffffffffffffff166304433bbc6040518163ffffffff1660e01b8152600401612545906149d3565b60206040518083038186803b15801561255d57600080fd5b505afa158015612571573d6000803e3d6000fd5b505050506040513d601f19601f820116820180604052508101906125959190613c0a565b905060008173ffffffffffffffffffffffffffffffffffffffff1663be781b1c6040518163ffffffff1660e01b815260040160206040518083038186803b1580156125df57600080fd5b505afa1580156125f3573d6000803e3d6000fd5b505050506040513d601f19601f820116820180604052508101906126179190613c0a565b90508073ffffffffffffffffffffffffffffffffffffffff166323b872dd3330886040518463ffffffff1660e01b8152600401612656939291906145f3565b602060405180830381600087803b15801561267057600080fd5b505af1158015612684573d6000803e3d6000fd5b505050506040513d601f19601f820116820180604052508101906126a89190613db5565b506126b2816137f4565b3373ffffffffffffffffffffffffffffffffffffffff163073ffffffffffffffffffffffffffffffffffffffff167fdcbc1c05240f31ff3ad067ef1ee35ce4997762752e3a095284754544f4c709d78742604051612711929190614a2e565b60405180910390a35050505050565b6000600360009054906101000a900473ffffffffffffffffffffffffffffffffffffffff16905090565b600360009054906101000a900473ffffffffffffffffffffffffffffffffffffffff1673ffffffffffffffffffffffffffffffffffffffff163373ffffffffffffffffffffffffffffffffffffffff16146127da576040517f08c379a00000000000000000000000000000000000000000000000000000000081526004016127d190614933565b60405180910390fd5b6127e2612e96565b50565b60076020528060005260406000206000915090505481565b60018054600181600116156101000203166002900480601f0160208091040260200160405190810160405280929190818152602001828054600181600116156101000203166002900480156128935780601f1061286857610100808354040283529160200191612893565b820191906000526020600020905b81548152906001019060200180831161287657829003601f168201915b505050505081565b60008060009054906101000a900473ffffffffffffffffffffffffffffffffffffffff1673ffffffffffffffffffffffffffffffffffffffff166304433bbc6040518163ffffffff1660e01b81526004016128f590614833565b60206040518083038186803b15801561290d57600080fd5b505afa158015612921573d6000803e3d6000fd5b505050506040513d601f19601f820116820180604052508101906129459190613c0a565b90508073ffffffffffffffffffffffffffffffffffffffff163373ffffffffffffffffffffffffffffffffffffffff16146129b5576040517f08c379a00000000000000000000000000000000000000000000000000000000081526004016129ac906148b3565b60405180910390fd5b600073ffffffffffffffffffffffffffffffffffffffff168273ffffffffffffffffffffffffffffffffffffffff161415612a25576040517f08c379a0000000000000000000000000000000000000000000000000000000008152600401612a1c906147f3565b60405180910390fd5b81600560006101000a81548173ffffffffffffffffffffffffffffffffffffffff021916908373ffffffffffffffffffffffffffffffffffffffff1602179055505050565b6008602052816000526040600020602052806000526040600020600091509150505481565b600080612a9a6107a8565b905060006002541480612aad5750600081145b15612abc576000915050612b45565b6000612ac782613966565b90506006548111612add57600092505050612b45565b612b4081612b32612710612b24600454612b16600254612b086006548a612ceb90919063ffffffff16565b612c9b90919063ffffffff16565b612c9b90919063ffffffff16565b612cd290919063ffffffff16565b612cd290919063ffffffff16565b925050505b90565b600360009054906101000a900473ffffffffffffffffffffffffffffffffffffffff1681565b600560009054906101000a900473ffffffffffffffffffffffffffffffffffffffff1681565b80600860008573ffffffffffffffffffffffffffffffffffffffff1673ffffffffffffffffffffffffffffffffffffffff16815260200190815260200160002060008473ffffffffffffffffffffffffffffffffffffffff1673ffffffffffffffffffffffffffffffffffffffff168152602001908152602001600020819055508173ffffffffffffffffffffffffffffffffffffffff168373ffffffffffffffffffffffffffffffffffffffff167f8c5be1e5ebec7d5bd14f71427d1e84f3dd0314c0f7b2291e5b200ac8c7c3b92583604051612c729190614a13565b60405180910390a3505050565b600080828401905083811015612c9157fe5b8091505092915050565b600080831415612cae5760009050612ccc565b6000828402905082848281612cbf57fe5b0414612cc757fe5b809150505b92915050565b600080828481612cde57fe5b0490508091505092915050565b600082821115612cf757fe5b818303905092915050565b612d5481600760008673ffffffffffffffffffffffffffffffffffffffff1673ffffffffffffffffffffffffffffffffffffffff16815260200190815260200160002054612ceb90919063ffffffff16565b600760008573ffffffffffffffffffffffffffffffffffffffff1673ffffffffffffffffffffffffffffffffffffffff16815260200190815260200160002081905550612de981600760008573ffffffffffffffffffffffffffffffffffffffff1673ffffffffffffffffffffffffffffffffffffffff16815260200190815260200160002054612c7f90919063ffffffff16565b600760008473ffffffffffffffffffffffffffffffffffffffff1673ffffffffffffffffffffffffffffffffffffffff168152602001908152602001600020819055508173ffffffffffffffffffffffffffffffffffffffff168373ffffffffffffffffffffffffffffffffffffffff167fddf252ad1be2c89b69c2b068fc378daa952ba7f163c4a11628f55a4df523b3ef83604051612e899190614a13565b60405180910390a3505050565b600080612ea16107a8565b90506000612ead612a8f565b9050612710811015612ec457600092505050613056565b612f388160076000600360009054906101000a900473ffffffffffffffffffffffffffffffffffffffff1673ffffffffffffffffffffffffffffffffffffffff1673ffffffffffffffffffffffffffffffffffffffff16815260200190815260200160002054612c7f90919063ffffffff16565b60076000600360009054906101000a900473ffffffffffffffffffffffffffffffffffffffff1673ffffffffffffffffffffffffffffffffffffffff1673ffffffffffffffffffffffffffffffffffffffff16815260200190815260200160002081905550612fb281600254612c7f90919063ffffffff16565b600281905550612fc182613966565b600681905550600360009054906101000a900473ffffffffffffffffffffffffffffffffffffffff1673ffffffffffffffffffffffffffffffffffffffff163073ffffffffffffffffffffffffffffffffffffffff167f9e04df2ace49a0aadf511c756e3d1d033d10bfbc722409b41010b7c7b99c6f3b8342604051613048929190614a2e565b60405180910390a381925050505b90565b60008060008054906101000a900473ffffffffffffffffffffffffffffffffffffffff1673ffffffffffffffffffffffffffffffffffffffff166304433bbc6040518163ffffffff1660e01b81526004016130b3906149d3565b60206040518083038186803b1580156130cb57600080fd5b505afa1580156130df573d6000803e3d6000fd5b505050506040513d601f19601f820116820180604052508101906131039190613c0a565b905060008173ffffffffffffffffffffffffffffffffffffffff1663059ce95d876040518263ffffffff1660e01b815260040161314091906145d8565b60206040518083038186803b15801561315857600080fd5b505afa15801561316c573d6000803e3d6000fd5b505050506040513d601f19601f820116820180604052508101906131909190613c0a565b905060008060008373ffffffffffffffffffffffffffffffffffffffff1663460b62c3308b8a8c6040518563ffffffff1660e01b81526004016131d694939291906146c8565b60006040518083038186803b1580156131ee57600080fd5b505afa158015613202573d6000803e3d6000fd5b505050506040513d6000823e3d601f19601f8201168201806040525081019061322b9190613d4e565b9250925092506000815111156134c15760008073ffffffffffffffffffffffffffffffffffffffff168473ffffffffffffffffffffffffffffffffffffffff16146132fc578373ffffffffffffffffffffffffffffffffffffffff166370a08231306040518263ffffffff1660e01b81526004016132a991906145d8565b60206040518083038186803b1580156132c157600080fd5b505afa1580156132d5573d6000803e3d6000fd5b505050506040513d601f19601f820116820180604052508101906132f99190613e07565b90505b60005b82518110156133da5760008a73ffffffffffffffffffffffffffffffffffffffff1684838151811061332d57fe5b60200260200101516020015160405161334691906145c1565b6000604051808303816000865af19150503d8060008114613383576040519150601f19603f3d011682016040523d82523d6000602084013e613388565b606091505b50509050806133cc576040517f08c379a00000000000000000000000000000000000000000000000000000000081526004016133c3906148d3565b60405180910390fd5b5080806001019150506132ff565b50600073ffffffffffffffffffffffffffffffffffffffff168473ffffffffffffffffffffffffffffffffffffffff16146134bf576134bc816134ae8673ffffffffffffffffffffffffffffffffffffffff166370a08231306040518263ffffffff1660e01b815260040161344f91906145d8565b60206040518083038186803b15801561346757600080fd5b505afa15801561347b573d6000803e3d6000fd5b505050506040513d601f19601f8201168201806040525081019061349f9190613e07565b86612c7f90919063ffffffff16565b612ceb90919063ffffffff16565b92505b505b81955050505050509392505050565b600073ffffffffffffffffffffffffffffffffffffffff168173ffffffffffffffffffffffffffffffffffffffff161415613540576040517f08c379a000000000000000000000000000000000000000000000000000000000815260040161353790614973565b60405180910390fd5b6127108173ffffffffffffffffffffffffffffffffffffffff166370a08231306040518263ffffffff1660e01b815260040161357c91906145d8565b60206040518083038186803b15801561359457600080fd5b505afa1580156135a8573d6000803e3d6000fd5b505050506040513d601f19601f820116820180604052508101906135cc9190613e07565b10156137f157600960006001600a5403815260200190815260200160002060009054906101000a900473ffffffffffffffffffffffffffffffffffffffff1660096000600b60008573ffffffffffffffffffffffffffffffffffffffff1673ffffffffffffffffffffffffffffffffffffffff16815260200190815260200160002054815260200190815260200160002060006101000a81548173ffffffffffffffffffffffffffffffffffffffff021916908373ffffffffffffffffffffffffffffffffffffffff160217905550600b60008273ffffffffffffffffffffffffffffffffffffffff1673ffffffffffffffffffffffffffffffffffffffff16815260200190815260200160002054600b6000600960006001600a5403815260200190815260200160002060009054906101000a900473ffffffffffffffffffffffffffffffffffffffff1673ffffffffffffffffffffffffffffffffffffffff1673ffffffffffffffffffffffffffffffffffffffff16815260200190815260200160002081905550600960006001600a5403815260200190815260200160002060006101000a81549073ffffffffffffffffffffffffffffffffffffffff0219169055600b60008273ffffffffffffffffffffffffffffffffffffffff1673ffffffffffffffffffffffffffffffffffffffff168152602001908152602001600020600090556137ea6001600a54612ceb90919063ffffffff16565b600a819055505b50565b600073ffffffffffffffffffffffffffffffffffffffff168173ffffffffffffffffffffffffffffffffffffffff161415613864576040517f08c379a000000000000000000000000000000000000000000000000000000000815260040161385b90614973565b60405180910390fd5b6000600b60008373ffffffffffffffffffffffffffffffffffffffff1673ffffffffffffffffffffffffffffffffffffffff16815260200190815260200160002054141561396357600a54600b60008373ffffffffffffffffffffffffffffffffffffffff1673ffffffffffffffffffffffffffffffffffffffff168152602001908152602001600020819055508060096000600a54815260200190815260200160002060006101000a81548173ffffffffffffffffffffffffffffffffffffffff021916908373ffffffffffffffffffffffffffffffffffffffff16021790555061395c6001600a54612c7f90919063ffffffff16565b600a819055505b50565b60008060025414806139785750600082145b1561398657600090506139b8565b6139b56002546139a7670de0b6b3a764000085612c9b90919063ffffffff16565b612cd290919063ffffffff16565b90505b919050565b60006139d06139cb84614b04565b614ad3565b9050808382526020820190508260005b85811015613a1057815185016139f68882613b53565b8452602084019350602083019250506001810190506139e0565b5050509392505050565b6000613a2d613a2884614b30565b614ad3565b905082815260208101848484011115613a4557600080fd5b613a50848285614cc4565b509392505050565b6000613a6b613a6684614b30565b614ad3565b905082815260208101848484011115613a8357600080fd5b613a8e848285614cd3565b509392505050565b600081359050613aa581614d19565b92915050565b600081519050613aba81614d19565b92915050565b600082601f830112613ad157600080fd5b8151613ae18482602086016139bd565b91505092915050565b600081519050613af981614d30565b92915050565b600082601f830112613b1057600080fd5b8135613b20848260208601613a1a565b91505092915050565b600082601f830112613b3a57600080fd5b8151613b4a848260208601613a58565b91505092915050565b600060408284031215613b6557600080fd5b613b6f6040614ad3565b90506000613b7f84828501613aab565b600083015250602082015167ffffffffffffffff811115613b9f57600080fd5b613bab84828501613b29565b60208301525092915050565b600081359050613bc681614d47565b92915050565b600081519050613bdb81614d47565b92915050565b600060208284031215613bf357600080fd5b6000613c0184828501613a96565b91505092915050565b600060208284031215613c1c57600080fd5b6000613c2a84828501613aab565b91505092915050565b60008060408385031215613c4657600080fd5b6000613c5485828601613a96565b9250506020613c6585828601613a96565b9150509250929050565b600080600060608486031215613c8457600080fd5b6000613c9286828701613a96565b9350506020613ca386828701613a96565b9250506040613cb486828701613bb7565b9150509250925092565b60008060408385031215613cd157600080fd5b6000613cdf85828601613a96565b925050602083013567ffffffffffffffff811115613cfc57600080fd5b613d0885828601613aff565b9150509250929050565b60008060408385031215613d2557600080fd5b6000613d3385828601613a96565b9250506020613d4485828601613bb7565b9150509250929050565b600080600060608486031215613d6357600080fd5b6000613d7186828701613aab565b9350506020613d8286828701613bcc565b925050604084015167ffffffffffffffff811115613d9f57600080fd5b613dab86828701613ac0565b9150509250925092565b600060208284031215613dc757600080fd5b6000613dd584828501613aea565b91505092915050565b600060208284031215613df057600080fd5b6000613dfe84828501613bb7565b91505092915050565b600060208284031215613e1957600080fd5b6000613e2784828501613bcc565b91505092915050565b6000613e3c8383613e6f565b60208301905092915050565b6000613e548383614594565b60208301905092915050565b613e6981614c6a565b82525050565b613e7881614c15565b82525050565b613e8781614c15565b82525050565b6000613e9882614b80565b613ea28185614bc6565b9350613ead83614b60565b8060005b83811015613ede578151613ec58882613e30565b9750613ed083614bac565b925050600181019050613eb1565b5085935050505092915050565b6000613ef682614b8b565b613f008185614bd7565b9350613f0b83614b70565b8060005b83811015613f3c578151613f238882613e48565b9750613f2e83614bb9565b925050600181019050613f0f565b5085935050505092915050565b613f5281614c27565b82525050565b6000613f6382614b96565b613f6d8185614be8565b9350613f7d818560208601614cd3565b613f8681614d08565b840191505092915050565b6000613f9c82614b96565b613fa68185614bf9565b9350613fb6818560208601614cd3565b80840191505092915050565b613fcb81614c7c565b82525050565b6000613fdc82614ba1565b613fe68185614c04565b9350613ff6818560208601614cd3565b613fff81614d08565b840191505092915050565b6000614017603283614c04565b91507f506f6f6c3a206e756d626572206f6620706f6f6c20746f6b656e73206d75737460008301527f2062652067726561746572207468616e203000000000000000000000000000006020830152604082019050919050565b600061407d601483614c04565b91507f496e76616c6964206661726d20616464726573730000000000000000000000006000830152602082019050919050565b60006140bd601683614c04565b91507f506f6f6c3a20696e76616c6964207665726966696572000000000000000000006000830152602082019050919050565b60006140fd600b83614c04565b91507f506f6f6c466163746f72790000000000000000000000000000000000000000006000830152602082019050919050565b600061413d601a83614c04565b91507f506f6f6c3a20696e76616c69642027746f2720616464726573730000000000006000830152602082019050919050565b600061417d600f83614c04565b91507f496e76616c6964206164647265737300000000000000000000000000000000006000830152602082019050919050565b60006141bd601483614c04565b91507f496e76616c6964207573657220616464726573730000000000000000000000006000830152602082019050919050565b60006141fd603683614c04565b91507f506f6f6c3a204f6e6c7920506f6f6c466163746f727920636f6e74726163742060008301527f63616e2063616c6c20746869732066756e6374696f6e000000000000000000006020830152604082019050919050565b6000614263601f83614c04565b91507f506f6f6c3a206661696c656420746f20776974686472617720746f6b656e73006000830152602082019050919050565b60006142a3602383614c04565b91507f506f6f6c3a207472616e73616374696f6e206661696c656420746f206578656360008301527f75746500000000000000000000000000000000000000000000000000000000006020830152604082019050919050565b6000614309602383614c04565b91507f506f6f6c3a20696e76616c69642061737365742068616e646c6572206164647260008301527f65737300000000000000000000000000000000000000000000000000000000006020830152604082019050919050565b600061436f603083614c04565b91507f506f6f6c3a204f6e6c7920706f6f6c2773206d616e616765722063616e20636160008301527f6c6c20746869732066756e6374696f6e000000000000000000000000000000006020830152604082019050919050565b60006143d5602883614c04565b91507f506f6f6c3a204e6f7420656e6f75676820706f6f6c20746f6b656e7320746f2060008301527f77697468647261770000000000000000000000000000000000000000000000006020830152604082019050919050565b600061443b601b83614c04565b91507f506f6f6c3a20696e76616c6964206173736574206164647265737300000000006000830152602082019050919050565b600061447b601983614c04565b91507f506f6f6c3a20696e76616c6964207472616e73616374696f6e000000000000006000830152602082019050919050565b60006144bb601383614c04565b91507f506f6f6c3a20696e76616c6964206173736574000000000000000000000000006000830152602082019050919050565b60006144fb600c83614c04565b91507f417373657448616e646c657200000000000000000000000000000000000000006000830152602082019050919050565b600061453b602483614c04565b91507f506f6f6c3a204465706f736974206d757374206265206772656174657220746860008301527f616e2030000000000000000000000000000000000000000000000000000000006020830152604082019050919050565b61459d81614c53565b82525050565b6145ac81614c53565b82525050565b6145bb81614c5d565b82525050565b60006145cd8284613f91565b915081905092915050565b60006020820190506145ed6000830184613e7e565b92915050565b60006060820190506146086000830186613e60565b6146156020830185613e7e565b61462260408301846145a3565b949350505050565b600060408201905061463f6000830185613e60565b61464c60208301846145a3565b9392505050565b60006040820190506146686000830185613e7e565b6146756020830184613e7e565b9392505050565b60006080820190506146916000830187613e7e565b61469e6020830186613e7e565b6146ab6040830185613e7e565b81810360608301526146bd8184613f58565b905095945050505050565b60006080820190506146dd6000830187613e7e565b6146ea6020830186613e7e565b6146f760408301856145a3565b6147046060830184613e7e565b95945050505050565b60006040820190506147226000830185613e7e565b61472f60208301846145a3565b9392505050565b600060608201905081810360008301526147508186613e8d565b905081810360208301526147648185613eeb565b905061477360408301846145a3565b949350505050565b60006020820190506147906000830184613f49565b92915050565b60006020820190506147ab6000830184613fc2565b92915050565b600060208201905081810360008301526147cb8184613fd1565b905092915050565b600060208201905081810360008301526147ec8161400a565b9050919050565b6000602082019050818103600083015261480c81614070565b9050919050565b6000602082019050818103600083015261482c816140b0565b9050919050565b6000602082019050818103600083015261484c816140f0565b9050919050565b6000602082019050818103600083015261486c81614130565b9050919050565b6000602082019050818103600083015261488c81614170565b9050919050565b600060208201905081810360008301526148ac816141b0565b9050919050565b600060208201905081810360008301526148cc816141f0565b9050919050565b600060208201905081810360008301526148ec81614256565b9050919050565b6000602082019050818103600083015261490c81614296565b9050919050565b6000602082019050818103600083015261492c816142fc565b9050919050565b6000602082019050818103600083015261494c81614362565b9050919050565b6000602082019050818103600083015261496c816143c8565b9050919050565b6000602082019050818103600083015261498c8161442e565b9050919050565b600060208201905081810360008301526149ac8161446e565b9050919050565b600060208201905081810360008301526149cc816144ae565b9050919050565b600060208201905081810360008301526149ec816144ee565b9050919050565b60006020820190508181036000830152614a0c8161452e565b9050919050565b6000602082019050614a2860008301846145a3565b92915050565b6000604082019050614a4360008301856145a3565b614a5060208301846145a3565b9392505050565b600060a082019050614a6c60008301886145a3565b614a7960208301876145a3565b8181036040830152614a8b8186613e8d565b90508181036060830152614a9f8185613eeb565b9050614aae60808301846145a3565b9695505050505050565b6000602082019050614acd60008301846145b2565b92915050565b6000604051905081810181811067ffffffffffffffff82111715614afa57614af9614d06565b5b8060405250919050565b600067ffffffffffffffff821115614b1f57614b1e614d06565b5b602082029050602081019050919050565b600067ffffffffffffffff821115614b4b57614b4a614d06565b5b601f19601f8301169050602081019050919050565b6000819050602082019050919050565b6000819050602082019050919050565b600081519050919050565b600081519050919050565b600081519050919050565b600081519050919050565b6000602082019050919050565b6000602082019050919050565b600082825260208201905092915050565b600082825260208201905092915050565b600082825260208201905092915050565b600081905092915050565b600082825260208201905092915050565b6000614c2082614c33565b9050919050565b60008115159050919050565b600073ffffffffffffffffffffffffffffffffffffffff82169050919050565b6000819050919050565b600060ff82169050919050565b6000614c7582614ca0565b9050919050565b6000614c8782614c8e565b9050919050565b6000614c9982614c33565b9050919050565b6000614cab82614cb2565b9050919050565b6000614cbd82614c33565b9050919050565b82818337600083830152505050565b60005b83811015614cf1578082015181840152602081019050614cd6565b83811115614d00576000848401525b50505050565bfe5b6000601f19601f8301169050919050565b614d2281614c15565b8114614d2d57600080fd5b50565b614d3981614c27565b8114614d4457600080fd5b50565b614d5081614c53565b8114614d5b57600080fd5b5056fea2646970667358221220b0dc51861525a9c4b6d74ada984d392cd973cbed8b1bfbbb30ec6da07107c08364736f6c63430007060033506f6f6c466163746f72793a20496e76616c6964206661726d2061646472657373506f6f6c466163746f72793a20496e76616c696420706f6f6c206164647265737343616e6e6f7420657863656564206d6178696d756d20706572666f726d616e63652066656543616e6e6f7420657863656564206d6178696d756d206e756d626572206f6620706f6f6c73207065722075736572506f6f6c206e616d65206d7573742068617665206c657373207468616e2033302063686172616374657273a2646970667358221220be0d8063a662140eb7403e86316f07a27f06c41b816c13fcbf997a57fe9c963964736f6c63430007060033",
  "immutableReferences": {
    "3473": [
      {
        "length": 32,
        "start": 1995
      },
      {
        "length": 32,
        "start": 2957
      },
      {
        "length": 32,
        "start": 3501
      },
      {
        "length": 32,
        "start": 4321
      }
    ]
  },
  "source": "// SPDX-License-Identifier: MIT\r\n\r\npragma solidity >=0.7.6;\r\n\r\n//Interfaces\r\nimport './interfaces/IPool.sol';\r\nimport './interfaces/ISettings.sol';\r\nimport './interfaces/IAddressResolver.sol';\r\n\r\n//Libraries\r\nimport './libraries/SafeMath.sol';\r\n\r\n//Inheritance\r\nimport './Ownable.sol';\r\n\r\n//Internal references\r\nimport './Pool.sol';\r\n\r\ncontract PoolFactory is Ownable {\r\n    using SafeMath for uint;\r\n\r\n    IAddressResolver public immutable ADDRESS_RESOLVER;\r\n\r\n    address[] public pools;\r\n    mapping (address => uint[]) public userToManagedPools;\r\n    mapping (address => uint) public addressToIndex; // maps to (index + 1); index 0 represents pool not found\r\n\r\n    constructor(IAddressResolver addressResolver) Ownable() {\r\n        ADDRESS_RESOLVER = addressResolver;\r\n    }\r\n\r\n    /* ========== VIEWS ========== */\r\n\r\n    /**\r\n    * @dev Returns the address of each pool the user manages\r\n    * @param user Address of the user\r\n    * @return address[] The address of each pool the user manages\r\n    */\r\n    function getUserManagedPools(address user) public view returns(address[] memory) {\r\n        require(user != address(0), \"Invalid address\");\r\n\r\n        address[] memory addresses = new address[](userToManagedPools[user].length);\r\n        uint[] memory indexes = userToManagedPools[user];\r\n\r\n        for (uint i = 0; i < addresses.length; i++)\r\n        {\r\n            uint index = indexes[i];\r\n            addresses[i] = pools[index];\r\n        }\r\n\r\n        return addresses;\r\n    }\r\n\r\n    /**\r\n    * @dev Returns the address of each available pool\r\n    * @return address[] The address of each available pool\r\n    */\r\n    function getAvailablePools() public view returns(address[] memory) {\r\n        return pools;\r\n    }\r\n\r\n    /* ========== MUTATIVE FUNCTIONS ========== */\r\n\r\n    /**\r\n    * @dev Creates a new pool\r\n    * @param poolName Name of the pool\r\n    * @param performanceFee Performance fee for the pool\r\n    */\r\n    function createPool(string memory poolName, uint performanceFee) external {\r\n        address settingsAddress = ADDRESS_RESOLVER.getContractAddress(\"Settings\");\r\n        uint maximumPerformanceFee = ISettings(settingsAddress).getParameterValue(\"MaximumPerformanceFee\");\r\n        uint maximumNumberOfPoolsPerUser = ISettings(settingsAddress).getParameterValue(\"MaximumNumberOfPoolsPerUser\");\r\n\r\n        require(bytes(poolName).length < 30, \"Pool name must have less than 30 characters\");\r\n        require(performanceFee <= maximumPerformanceFee, \"Cannot exceed maximum performance fee\");\r\n        require(userToManagedPools[msg.sender].length < maximumNumberOfPoolsPerUser, \"Cannot exceed maximum number of pools per user\");\r\n\r\n        //Create pool\r\n        Pool temp = new Pool(poolName, performanceFee, msg.sender, ADDRESS_RESOLVER);\r\n\r\n        //Update state variables\r\n        address poolAddress = address(temp);\r\n        pools.push(poolAddress);\r\n        userToManagedPools[msg.sender].push(pools.length - 1);\r\n        addressToIndex[poolAddress] = pools.length;\r\n        ADDRESS_RESOLVER.addPoolAddress(poolAddress);\r\n\r\n        emit CreatedPool(msg.sender, poolAddress, pools.length - 1, block.timestamp);\r\n    }\r\n\r\n    /**\r\n    * @dev Sets the pool's farm address to the specified address\r\n    * @notice Only the PoolFactory contract owner can call this function\r\n    * @param poolAddress Address of the pool\r\n    * @param farmAddress Address of the farm\r\n    */\r\n    function setFarmAddress(address poolAddress, address farmAddress) external isValidPoolAddress(poolAddress) onlyOwner {\r\n        require(farmAddress != address(0), \"PoolFactory: Invalid farm address\");\r\n\r\n        IPool(poolAddress).setFarmAddress(farmAddress);\r\n\r\n        emit UpdatedFarmAddress(poolAddress, farmAddress, block.timestamp);\r\n    }\r\n\r\n    /* ========== MODIFIERS ========== */\r\n\r\n    modifier isValidPoolAddress(address poolAddress) {\r\n        require(poolAddress != address(0), \"PoolFactory: Invalid pool address\");\r\n        require(addressToIndex[poolAddress] > 0, \"PoolFactory: Pool not found\");\r\n        _;\r\n    }\r\n\r\n    /* ========== EVENTS ========== */\r\n\r\n    event UpdatedFarmAddress(address indexed poolAddress, address farmAddress, uint timestamp);\r\n    event CreatedPool(address indexed managerAddress, address indexed poolAddress, uint poolIndex, uint timestamp);\r\n}",
  "sourcePath": "C:/Users/xavie/OneDrive/Desktop/TradeGen/Github/tradegen-protocol/contracts/PoolFactory.sol",
  "compiler": {
    "name": "solc",
    "version": "0.7.6+commit.7338295f.Emscripten.clang"
  },
  "schemaVersion": "3.4.1",
  "updatedAt": "2021-08-16T00:30:21.948Z",
  "devdoc": {
    "kind": "dev",
    "methods": {
      "createPool(string,uint256)": {
        "details": "Creates a new pool",
        "params": {
          "performanceFee": "Performance fee for the pool",
          "poolName": "Name of the pool"
        }
      },
      "getAvailablePools()": {
        "details": "Returns the address of each available pool",
        "returns": {
          "_0": "address[] The address of each available pool"
        }
      },
      "getUserManagedPools(address)": {
        "details": "Returns the address of each pool the user manages",
        "params": {
          "user": "Address of the user"
        },
        "returns": {
          "_0": "address[] The address of each pool the user manages"
        }
      },
      "isOwner()": {
        "returns": {
          "_0": "true if `msg.sender` is the owner of the contract."
        }
      },
      "owner()": {
        "returns": {
          "_0": "the address of the owner."
        }
      },
      "renounceOwnership()": {
        "details": "Allows the current owner to relinquish control of the contract."
      },
      "setFarmAddress(address,address)": {
        "details": "Sets the pool's farm address to the specified address",
        "params": {
          "farmAddress": "Address of the farm",
          "poolAddress": "Address of the pool"
        }
      },
      "transferOwnership(address)": {
        "details": "Allows the current owner to transfer control of the contract to a newOwner.",
        "params": {
          "newOwner": "The address to transfer ownership to."
        }
      }
    },
    "version": 1
  },
  "userdoc": {
    "kind": "user",
    "methods": {
      "renounceOwnership()": {
        "notice": "Renouncing to ownership will leave the contract without an owner. It will not be possible to call the functions with the `onlyOwner` modifier anymore."
      },
      "setFarmAddress(address,address)": {
        "notice": "Only the PoolFactory contract owner can call this function"
      }
    },
    "version": 1
  }
}