{
  "contractName": "PoolProxy",
  "abi": [
    {
      "inputs": [
        {
          "internalType": "contract IAddressResolver",
          "name": "addressResolver",
          "type": "address"
        }
      ],
      "stateMutability": "nonpayable",
      "type": "constructor"
    },
    {
      "anonymous": false,
      "inputs": [
        {
          "indexed": true,
          "internalType": "address",
          "name": "managerAddress",
          "type": "address"
        },
        {
          "indexed": true,
          "internalType": "address",
          "name": "poolAddress",
          "type": "address"
        },
        {
          "indexed": false,
          "internalType": "uint256",
          "name": "poolIndex",
          "type": "uint256"
        },
        {
          "indexed": false,
          "internalType": "uint256",
          "name": "timestamp",
          "type": "uint256"
        }
      ],
      "name": "CreatedPool",
      "type": "event"
    },
    {
      "inputs": [],
      "name": "ADDRESS_RESOLVER",
      "outputs": [
        {
          "internalType": "contract IAddressResolver",
          "name": "",
          "type": "address"
        }
      ],
      "stateMutability": "view",
      "type": "function"
    },
    {
      "inputs": [
        {
          "internalType": "address",
          "name": "",
          "type": "address"
        }
      ],
      "name": "addressToIndex",
      "outputs": [
        {
          "internalType": "uint256",
          "name": "",
          "type": "uint256"
        }
      ],
      "stateMutability": "view",
      "type": "function"
    },
    {
      "inputs": [
        {
          "internalType": "uint256",
          "name": "",
          "type": "uint256"
        }
      ],
      "name": "pools",
      "outputs": [
        {
          "internalType": "address",
          "name": "",
          "type": "address"
        }
      ],
      "stateMutability": "view",
      "type": "function"
    },
    {
      "inputs": [
        {
          "internalType": "address",
          "name": "",
          "type": "address"
        },
        {
          "internalType": "uint256",
          "name": "",
          "type": "uint256"
        }
      ],
      "name": "userToInvestedPools",
      "outputs": [
        {
          "internalType": "uint256",
          "name": "",
          "type": "uint256"
        }
      ],
      "stateMutability": "view",
      "type": "function"
    },
    {
      "inputs": [
        {
          "internalType": "address",
          "name": "",
          "type": "address"
        },
        {
          "internalType": "uint256",
          "name": "",
          "type": "uint256"
        }
      ],
      "name": "userToManagedPools",
      "outputs": [
        {
          "internalType": "uint256",
          "name": "",
          "type": "uint256"
        }
      ],
      "stateMutability": "view",
      "type": "function"
    },
    {
      "inputs": [
        {
          "internalType": "address",
          "name": "user",
          "type": "address"
        }
      ],
      "name": "getUserManagedPools",
      "outputs": [
        {
          "internalType": "uint256[]",
          "name": "",
          "type": "uint256[]"
        }
      ],
      "stateMutability": "view",
      "type": "function"
    },
    {
      "inputs": [
        {
          "internalType": "address",
          "name": "user",
          "type": "address"
        }
      ],
      "name": "getUserInvestedPools",
      "outputs": [
        {
          "internalType": "uint256[]",
          "name": "",
          "type": "uint256[]"
        }
      ],
      "stateMutability": "view",
      "type": "function"
    },
    {
      "inputs": [
        {
          "internalType": "address",
          "name": "user",
          "type": "address"
        }
      ],
      "name": "getUserStakedPools",
      "outputs": [
        {
          "internalType": "uint256[]",
          "name": "",
          "type": "uint256[]"
        },
        {
          "internalType": "uint256",
          "name": "",
          "type": "uint256"
        }
      ],
      "stateMutability": "view",
      "type": "function"
    },
    {
      "inputs": [],
      "name": "getAvailablePools",
      "outputs": [
        {
          "internalType": "address[]",
          "name": "",
          "type": "address[]"
        }
      ],
      "stateMutability": "view",
      "type": "function"
    },
    {
      "inputs": [
        {
          "internalType": "string",
          "name": "poolName",
          "type": "string"
        },
        {
          "internalType": "uint256",
          "name": "performanceFee",
          "type": "uint256"
        }
      ],
      "name": "createPool",
      "outputs": [],
      "stateMutability": "nonpayable",
      "type": "function"
    },
    {
      "inputs": [
        {
          "internalType": "address",
          "name": "poolAddress",
          "type": "address"
        },
        {
          "internalType": "uint256",
          "name": "amount",
          "type": "uint256"
        }
      ],
      "name": "withdraw",
      "outputs": [],
      "stateMutability": "nonpayable",
      "type": "function"
    },
    {
      "inputs": [
        {
          "internalType": "address",
          "name": "poolAddress",
          "type": "address"
        },
        {
          "internalType": "uint256",
          "name": "amount",
          "type": "uint256"
        }
      ],
      "name": "deposit",
      "outputs": [],
      "stateMutability": "nonpayable",
      "type": "function"
    },
    {
      "inputs": [
        {
          "internalType": "address",
          "name": "poolAddress",
          "type": "address"
        },
        {
          "internalType": "address",
          "name": "currencyKey",
          "type": "address"
        },
        {
          "internalType": "bool",
          "name": "buyOrSell",
          "type": "bool"
        },
        {
          "internalType": "uint256",
          "name": "numberOfTokens",
          "type": "uint256"
        }
      ],
      "name": "placeOrder",
      "outputs": [],
      "stateMutability": "nonpayable",
      "type": "function"
    }
  ],
  "bytecode": "0x60a060405234801561001057600080fd5b506040516167933803806167938339818101604052602081101561003357600080fd5b8101908080519060200190929190505050808073ffffffffffffffffffffffffffffffffffffffff1660808173ffffffffffffffffffffffffffffffffffffffff1660601b81525050505060805160601c6166d06100c3600039806107125280610aa95280610db7528061114852806113e8528061167f528061194b528061205b52806122e052506166d06000f3fe60806040523480156200001157600080fd5b5060043610620000e25760003560e01c80637a0b32ac1162000099578063e30658f6116200006f578063e30658f614620004dc578063e48f93781462000581578063f3fef3a3146200061f578063f667e0aa146200067057620000e2565b80637a0b32ac14620003e6578063981f3b8e146200044b578063ac4afa38146200048157620000e2565b8063081c2a3014620000e757806318ec3f65146200018557806326fc66ab14620001ea57806347e7ef2414620002b557806365cdf54014620003065780637517f1831462000383575b600080fd5b6200012c60048036036020811015620000ff57600080fd5b81019080803573ffffffffffffffffffffffffffffffffffffffff169060200190929190505050620006cb565b6040518080602001828103825283818151815260200191508051906020019060200280838360005b838110156200017157808201518184015260208101905062000154565b505050509050019250505060405180910390f35b620001d4600480360360408110156200019d57600080fd5b81019080803573ffffffffffffffffffffffffffffffffffffffff16906020019092919080359060200190929190505050620006df565b6040518082815260200191505060405180910390f35b620002b3600480360360408110156200020257600080fd5b81019080803590602001906401000000008111156200022057600080fd5b8201836020820111156200023357600080fd5b803590602001918460018302840111640100000000831117156200025657600080fd5b91908080601f016020809104026020016040519081016040528093929190818152602001838380828437600081840152601f19601f820116905080830192505050505050509192919290803590602001909291905050506200070e565b005b6200030460048036036040811015620002cd57600080fd5b81019080803573ffffffffffffffffffffffffffffffffffffffff1690602001909291908035906020019092919050505062000b52565b005b62000381600480360360808110156200031e57600080fd5b81019080803573ffffffffffffffffffffffffffffffffffffffff169060200190929190803573ffffffffffffffffffffffffffffffffffffffff1690602001909291908035151590602001909291908035906020019092919050505062000bbe565b005b6200038d62000d75565b6040518080602001828103825283818151815260200191508051906020019060200280838360005b83811015620003d2578082015181840152602081019050620003b5565b505050509050019250505060405180910390f35b6200043560048036036040811015620003fe57600080fd5b81019080803573ffffffffffffffffffffffffffffffffffffffff1690602001909291908035906020019092919050505062000d86565b6040518082815260200191505060405180910390f35b6200045562000db5565b604051808273ffffffffffffffffffffffffffffffffffffffff16815260200191505060405180910390f35b620004b0600480360360208110156200049957600080fd5b810190808035906020019092919050505062000dd9565b604051808273ffffffffffffffffffffffffffffffffffffffff16815260200191505060405180910390f35b6200052160048036036020811015620004f457600080fd5b81019080803573ffffffffffffffffffffffffffffffffffffffff16906020019092919050505062000e16565b6040518080602001838152602001828103825284818151815260200191508051906020019060200280838360005b838110156200056c5780820151818401526020810190506200054f565b50505050905001935050505060405180910390f35b620005c6600480360360208110156200059957600080fd5b81019080803573ffffffffffffffffffffffffffffffffffffffff16906020019092919050505062000e2e565b6040518080602001828103825283818151815260200191508051906020019060200280838360005b838110156200060b578082015181840152602081019050620005ee565b505050509050019250505060405180910390f35b6200066e600480360360408110156200063757600080fd5b81019080803573ffffffffffffffffffffffffffffffffffffffff1690602001909291908035906020019092919050505062000e42565b005b620006b5600480360360208110156200068857600080fd5b81019080803573ffffffffffffffffffffffffffffffffffffffff16906020019092919050505062000eae565b6040518082815260200191505060405180910390f35b6060620006d88262000ec6565b9050919050565b60026020528160005260406000208181548110620006f957fe5b90600052602060002001600091509150505481565b60007f000000000000000000000000000000000000000000000000000000000000000073ffffffffffffffffffffffffffffffffffffffff166304433bbc6040518163ffffffff1660e01b81526004018080602001828103825260088152602001807f53657474696e677300000000000000000000000000000000000000000000000081525060200191505060206040518083038186803b158015620007b357600080fd5b505afa158015620007c8573d6000803e3d6000fd5b505050506040513d6020811015620007df57600080fd5b8101908080519060200190929190505050905060008173ffffffffffffffffffffffffffffffffffffffff166328a2176f6040518163ffffffff1660e01b81526004018080602001828103825260158152602001807f4d6178696d756d506572666f726d616e6365466565000000000000000000000081525060200191505060206040518083038186803b1580156200087757600080fd5b505afa1580156200088c573d6000803e3d6000fd5b505050506040513d6020811015620008a357600080fd5b8101908080519060200190929190505050905060008273ffffffffffffffffffffffffffffffffffffffff166328a2176f6040518163ffffffff1660e01b815260040180806020018281038252601b8152602001807f4d6178696d756d4e756d6265724f66506f6f6c7350657255736572000000000081525060200191505060206040518083038186803b1580156200093b57600080fd5b505afa15801562000950573d6000803e3d6000fd5b505050506040513d60208110156200096757600080fd5b81019080805190602001909291905050509050601e855110620009d6576040517f08c379a000000000000000000000000000000000000000000000000000000000815260040180806020018281038252602b81526020018062006670602b913960400191505060405180910390fd5b8184111562000a31576040517f08c379a0000000000000000000000000000000000000000000000000000000008152600401808060200182810382526025815260200180620065ce6025913960400191505060405180910390fd5b8062000a3d3362001003565b511062000a96576040517f08c379a000000000000000000000000000000000000000000000000000000000815260040180806020018281038252602e81526020018062006642602e913960400191505060405180910390fd5b600062000aa586863362001140565b90507f000000000000000000000000000000000000000000000000000000000000000073ffffffffffffffffffffffffffffffffffffffff166343499844826040518263ffffffff1660e01b8152600401808273ffffffffffffffffffffffffffffffffffffffff168152602001915050600060405180830381600087803b15801562000b3157600080fd5b505af115801562000b46573d6000803e3d6000fd5b50505050505050505050565b6000811162000bad576040517f08c379a00000000000000000000000000000000000000000000000000000000081526004018080602001828103825260258152602001806200657b6025913960400191505060405180910390fd5b62000bba338383620013e5565b5050565b600073ffffffffffffffffffffffffffffffffffffffff168473ffffffffffffffffffffffffffffffffffffffff16141562000c62576040517f08c379a00000000000000000000000000000000000000000000000000000000081526004018080602001828103825260148152602001807f496e76616c696420706f6f6c206164647265737300000000000000000000000081525060200191505060405180910390fd5b600073ffffffffffffffffffffffffffffffffffffffff168373ffffffffffffffffffffffffffffffffffffffff16141562000d06576040517f08c379a00000000000000000000000000000000000000000000000000000000081526004018080602001828103825260148152602001807f496e76616c69642063757272656e6379206b657900000000000000000000000081525060200191505060405180910390fd5b6000811162000d61576040517f08c379a0000000000000000000000000000000000000000000000000000000008152600401808060200182810382526027815260200180620065f36027913960400191505060405180910390fd5b62000d6f8484848462001948565b50505050565b606062000d8162001c2e565b905090565b6001602052816000526040600020818154811062000da057fe5b90600052602060002001600091509150505481565b7f000000000000000000000000000000000000000000000000000000000000000081565b6000818154811062000de757fe5b906000526020600020016000915054906101000a900473ffffffffffffffffffffffffffffffffffffffff1681565b6060600062000e258362001cbe565b91509150915091565b606062000e3b8262001003565b9050919050565b6000811162000e9d576040517f08c379a00000000000000000000000000000000000000000000000000000000081526004018080602001828103825260288152602001806200661a6028913960400191505060405180910390fd5b62000eaa33838362002058565b5050565b60036020528060005260406000206000915090505481565b6060600073ffffffffffffffffffffffffffffffffffffffff168273ffffffffffffffffffffffffffffffffffffffff16141562000f6c576040517f08c379a000000000000000000000000000000000000000000000000000000000815260040180806020018281038252600f8152602001807f496e76616c69642061646472657373000000000000000000000000000000000081525060200191505060405180910390fd5b600260008373ffffffffffffffffffffffffffffffffffffffff1673ffffffffffffffffffffffffffffffffffffffff16815260200190815260200160002080548060200260200160405190810160405280929190818152602001828054801562000ff757602002820191906000526020600020905b81548152602001906001019080831162000fe2575b50505050509050919050565b6060600073ffffffffffffffffffffffffffffffffffffffff168273ffffffffffffffffffffffffffffffffffffffff161415620010a9576040517f08c379a000000000000000000000000000000000000000000000000000000000815260040180806020018281038252600f8152602001807f496e76616c69642061646472657373000000000000000000000000000000000081525060200191505060405180910390fd5b600160008373ffffffffffffffffffffffffffffffffffffffff1673ffffffffffffffffffffffffffffffffffffffff1681526020019081526020016000208054806020026020016040519081016040528092919081815260200182805480156200113457602002820191906000526020600020905b8154815260200190600101908083116200111f575b50505050509050919050565b6000808484847f0000000000000000000000000000000000000000000000000000000000000000604051620011759062002719565b80806020018581526020018473ffffffffffffffffffffffffffffffffffffffff1681526020018373ffffffffffffffffffffffffffffffffffffffff168152602001828103825286818151815260200191508051906020019080838360005b83811015620011f2578082015181840152602081019050620011d5565b50505050905090810190601f168015620012205780820380516001836020036101000a031916815260200191505b5095505050505050604051809103906000f08015801562001245573d6000803e3d6000fd5b50905060008190506000819080600181540180825580915050600190039060005260206000200160009091909190916101000a81548173ffffffffffffffffffffffffffffffffffffffff021916908373ffffffffffffffffffffffffffffffffffffffff160217905550600160008573ffffffffffffffffffffffffffffffffffffffff1673ffffffffffffffffffffffffffffffffffffffff1681526020019081526020016000206000805490509080600181540180825580915050600190039060005260206000200160009091909190915055600080549050600360008373ffffffffffffffffffffffffffffffffffffffff1673ffffffffffffffffffffffffffffffffffffffff168152602001908152602001600020819055508073ffffffffffffffffffffffffffffffffffffffff168473ffffffffffffffffffffffffffffffffffffffff167f86e8d285f3aca144a05c4f811c981e98a2beba0e30a1e8385052b05b8a96b4b160016000805490500342604051808381526020018281526020019250505060405180910390a380925050509392505050565b817f000000000000000000000000000000000000000000000000000000000000000073ffffffffffffffffffffffffffffffffffffffff1663e51f8aba826040518263ffffffff1660e01b8152600401808273ffffffffffffffffffffffffffffffffffffffff16815260200191505060206040518083038186803b1580156200146e57600080fd5b505afa15801562001483573d6000803e3d6000fd5b505050506040513d60208110156200149a57600080fd5b81019080805190602001909291905050506200151e576040517f08c379a00000000000000000000000000000000000000000000000000000000081526004018080602001828103825260148152602001807f496e76616c696420706f6f6c206164647265737300000000000000000000000081525060200191505060405180910390fd5b60008373ffffffffffffffffffffffffffffffffffffffff166370a08231866040518263ffffffff1660e01b8152600401808273ffffffffffffffffffffffffffffffffffffffff16815260200191505060206040518083038186803b1580156200158857600080fd5b505afa1580156200159d573d6000803e3d6000fd5b505050506040513d6020811015620015b457600080fd5b810190808051906020019092919050505014156200167b5760006001600360008673ffffffffffffffffffffffffffffffffffffffff1673ffffffffffffffffffffffffffffffffffffffff16815260200190815260200160002054039050600260008673ffffffffffffffffffffffffffffffffffffffff1673ffffffffffffffffffffffffffffffffffffffff168152602001908152602001600020819080600181540180825580915050600190039060005260206000200160009091909190915055505b60007f000000000000000000000000000000000000000000000000000000000000000073ffffffffffffffffffffffffffffffffffffffff166304433bbc6040518163ffffffff1660e01b81526004018080602001828103825260088152602001807f53657474696e677300000000000000000000000000000000000000000000000081525060200191505060206040518083038186803b1580156200172057600080fd5b505afa15801562001735573d6000803e3d6000fd5b505050506040513d60208110156200174c57600080fd5b8101908080519060200190929190505050905060008173ffffffffffffffffffffffffffffffffffffffff1663be781b1c6040518163ffffffff1660e01b815260040160206040518083038186803b158015620017a857600080fd5b505afa158015620017bd573d6000803e3d6000fd5b505050506040513d6020811015620017d457600080fd5b810190808051906020019092919050505090508073ffffffffffffffffffffffffffffffffffffffff166323b872dd3330876040518463ffffffff1660e01b8152600401808473ffffffffffffffffffffffffffffffffffffffff1681526020018373ffffffffffffffffffffffffffffffffffffffff1681526020018281526020019350505050602060405180830381600087803b1580156200187757600080fd5b505af11580156200188c573d6000803e3d6000fd5b505050506040513d6020811015620018a357600080fd5b8101908080519060200190929190505050508473ffffffffffffffffffffffffffffffffffffffff166347e7ef2487866040518363ffffffff1660e01b8152600401808373ffffffffffffffffffffffffffffffffffffffff16815260200182815260200192505050600060405180830381600087803b1580156200192757600080fd5b505af11580156200193c573d6000803e3d6000fd5b50505050505050505050565b837f000000000000000000000000000000000000000000000000000000000000000073ffffffffffffffffffffffffffffffffffffffff1663e51f8aba826040518263ffffffff1660e01b8152600401808273ffffffffffffffffffffffffffffffffffffffff16815260200191505060206040518083038186803b158015620019d157600080fd5b505afa158015620019e6573d6000803e3d6000fd5b505050506040513d6020811015620019fd57600080fd5b810190808051906020019092919050505062001a81576040517f08c379a00000000000000000000000000000000000000000000000000000000081526004018080602001828103825260148152602001807f496e76616c696420706f6f6c206164647265737300000000000000000000000081525060200191505060405180910390fd5b8460008173ffffffffffffffffffffffffffffffffffffffff1663c162d7da6040518163ffffffff1660e01b815260040160206040518083038186803b15801562001acb57600080fd5b505afa15801562001ae0573d6000803e3d6000fd5b505050506040513d602081101562001af757600080fd5b810190808051906020019092919050505090508073ffffffffffffffffffffffffffffffffffffffff163373ffffffffffffffffffffffffffffffffffffffff161462001b90576040517f08c379a000000000000000000000000000000000000000000000000000000000815260040180806020018281038252602e815260200180620065a0602e913960400191505060405180910390fd5b8673ffffffffffffffffffffffffffffffffffffffff1663f29625598787876040518463ffffffff1660e01b8152600401808473ffffffffffffffffffffffffffffffffffffffff16815260200183151581526020018281526020019350505050600060405180830381600087803b15801562001c0c57600080fd5b505af115801562001c21573d6000803e3d6000fd5b5050505050505050505050565b6060600080548060200260200160405190810160405280929190818152602001828054801562001cb457602002820191906000526020600020905b8160009054906101000a900473ffffffffffffffffffffffffffffffffffffffff1673ffffffffffffffffffffffffffffffffffffffff168152602001906001019080831162001c69575b5050505050905090565b606060008073ffffffffffffffffffffffffffffffffffffffff168373ffffffffffffffffffffffffffffffffffffffff16141562001d65576040517f08c379a000000000000000000000000000000000000000000000000000000000815260040180806020018281038252600f8152602001807f496e76616c69642061646472657373000000000000000000000000000000000081525060200191505060405180910390fd5b60006060600260008673ffffffffffffffffffffffffffffffffffffffff1673ffffffffffffffffffffffffffffffffffffffff1681526020019081526020016000208054905067ffffffffffffffff8111801562001dc357600080fd5b5060405190808252806020026020018201604052801562001df35781602001602082028036833780820191505090505b50905060005b81518110156200204a5760006001600260008973ffffffffffffffffffffffffffffffffffffffff1673ffffffffffffffffffffffffffffffffffffffff168152602001908152602001600020838154811062001e5257fe5b9060005260206000200154039050600080828154811062001e6f57fe5b9060005260206000200160009054906101000a900473ffffffffffffffffffffffffffffffffffffffff16905060008173ffffffffffffffffffffffffffffffffffffffff16636e1d9d2d6040518163ffffffff1660e01b815260040160206040518083038186803b15801562001ee557600080fd5b505afa15801562001efa573d6000803e3d6000fd5b505050506040513d602081101562001f1157600080fd5b8101908080519060200190929190505050905060008073ffffffffffffffffffffffffffffffffffffffff168273ffffffffffffffffffffffffffffffffffffffff16141562001f6357600062002009565b8173ffffffffffffffffffffffffffffffffffffffff166370a082318b6040518263ffffffff1660e01b8152600401808273ffffffffffffffffffffffffffffffffffffffff16815260200191505060206040518083038186803b15801562001fcb57600080fd5b505afa15801562001fe0573d6000803e3d6000fd5b505050506040513d602081101562001ff757600080fd5b81019080805190602001909291905050505b905060008111156200203857848688815181106200202357fe5b60200260200101818152505086806001019750505b50505050808060010191505062001df9565b508082935093505050915091565b817f000000000000000000000000000000000000000000000000000000000000000073ffffffffffffffffffffffffffffffffffffffff1663e51f8aba826040518263ffffffff1660e01b8152600401808273ffffffffffffffffffffffffffffffffffffffff16815260200191505060206040518083038186803b158015620020e157600080fd5b505afa158015620020f6573d6000803e3d6000fd5b505050506040513d60208110156200210d57600080fd5b810190808051906020019092919050505062002191576040517f08c379a00000000000000000000000000000000000000000000000000000000081526004018080602001828103825260148152602001807f496e76616c696420706f6f6c206164647265737300000000000000000000000081525060200191505060405180910390fd5b8273ffffffffffffffffffffffffffffffffffffffff1663f3fef3a385846040518363ffffffff1660e01b8152600401808373ffffffffffffffffffffffffffffffffffffffff16815260200182815260200192505050600060405180830381600087803b1580156200220357600080fd5b505af115801562002218573d6000803e3d6000fd5b5050505060008373ffffffffffffffffffffffffffffffffffffffff166370a08231866040518263ffffffff1660e01b8152600401808273ffffffffffffffffffffffffffffffffffffffff16815260200191505060206040518083038186803b1580156200228657600080fd5b505afa1580156200229b573d6000803e3d6000fd5b505050506040513d6020811015620022b257600080fd5b81019080805190602001909291905050501415620022d757620022d68484620022dd565b5b50505050565b807f000000000000000000000000000000000000000000000000000000000000000073ffffffffffffffffffffffffffffffffffffffff1663e51f8aba826040518263ffffffff1660e01b8152600401808273ffffffffffffffffffffffffffffffffffffffff16815260200191505060206040518083038186803b1580156200236657600080fd5b505afa1580156200237b573d6000803e3d6000fd5b505050506040513d60208110156200239257600080fd5b810190808051906020019092919050505062002416576040517f08c379a00000000000000000000000000000000000000000000000000000000081526004018080602001828103825260148152602001807f496e76616c696420706f6f6c206164647265737300000000000000000000000081525060200191505060405180910390fd5b600080600360008573ffffffffffffffffffffffffffffffffffffffff1673ffffffffffffffffffffffffffffffffffffffff168152602001908152602001600020549050600091505b600260008673ffffffffffffffffffffffffffffffffffffffff1673ffffffffffffffffffffffffffffffffffffffff16815260200190815260200160002080549050821015620024c85780821415620024ba57620024c8565b818060010192505062002460565b600260008673ffffffffffffffffffffffffffffffffffffffff1673ffffffffffffffffffffffffffffffffffffffff16815260200190815260200160002080549050821062002580576040517f08c379a00000000000000000000000000000000000000000000000000000000081526004018080602001828103825260128152602001807f506f736974696f6e206e6f7420666f756e64000000000000000000000000000081525060200191505060405180910390fd5b600260008673ffffffffffffffffffffffffffffffffffffffff1673ffffffffffffffffffffffffffffffffffffffff1681526020019081526020016000206001600260008873ffffffffffffffffffffffffffffffffffffffff1673ffffffffffffffffffffffffffffffffffffffff1681526020019081526020016000208054905003815481106200261057fe5b9060005260206000200154600260008773ffffffffffffffffffffffffffffffffffffffff1673ffffffffffffffffffffffffffffffffffffffff16815260200190815260200160002083815481106200266657fe5b9060005260206000200181905550600260008673ffffffffffffffffffffffffffffffffffffffff1673ffffffffffffffffffffffffffffffffffffffff1681526020019081526020016000206001600260008873ffffffffffffffffffffffffffffffffffffffff1673ffffffffffffffffffffffffffffffffffffffff1681526020019081526020016000208054905003815481106200270457fe5b90600052602060002001600090555050505050565b613e5380620027288339019056fe60806040523480156200001157600080fd5b5060405162003e5338038062003e53833981810160405260808110156200003757600080fd5b81019080805160405193929190846401000000008211156200005857600080fd5b838201915060208201858111156200006f57600080fd5b82518660018202830111640100000000821117156200008d57600080fd5b8083526020830192505050908051906020019080838360005b83811015620000c3578082015181840152602081019050620000a6565b50505050905090810190601f168015620000f15780820380516001836020036101000a031916815260200191505b5060405260200180519060200190929190805190602001909291908051906020019092919050505083600190805190602001906200013192919062000205565b5081600360006101000a81548173ffffffffffffffffffffffffffffffffffffffff021916908373ffffffffffffffffffffffffffffffffffffffff16021790555082600481905550806000806101000a81548173ffffffffffffffffffffffffffffffffffffffff021916908373ffffffffffffffffffffffffffffffffffffffff16021790555033600660006101000a81548173ffffffffffffffffffffffffffffffffffffffff021916908373ffffffffffffffffffffffffffffffffffffffff16021790555050505050620002ab565b828054600181600116156101000203166002900490600052602060002090601f016020900481019282601f106200024857805160ff191683800117855562000279565b8280016001018555821562000279579182015b82811115620002785782518255916020019190600101906200025b565b5b5090506200028891906200028c565b5090565b5b80821115620002a75760008160009055506001016200028d565b5090565b613b9880620002bb6000396000f3fe608060405234801561001057600080fd5b50600436106101cf5760003560e01c806395d89b4111610104578063cca3e832116100a2578063f0329f6b11610071578063f0329f6b14610966578063f0f3da5e1461099a578063f2962559146109ce578063f3fef3a314610a28576101cf565b8063cca3e832146107cf578063d28d885214610827578063d9799809146108aa578063dd62ed3e146108ee576101cf565b8063abd70aa2116100de578063abd70aa21461069b578063ac08c574146106b9578063c162d7da14610767578063cb8ac4781461079b576101cf565b806395d89b4114610580578063981f3b8e14610603578063a9059cbb14610637576101cf565b8063313ce567116101715780635195bd291161014b5780635195bd29146104b85780636e1d9d2d146104d657806370a082311461050a57806380e2829314610562576101cf565b8063313ce5671461042b5780633eaaf86b1461044c57806347e7ef241461046a576101cf565b80632322e3b9116101ad5780632322e3b9146102d9578063235c36031461033157806323b872dd1461034f5780632ed8e0d4146103d3576101cf565b806306fdde03146101d4578063095ea7b31461025757806318160ddd146102bb575b600080fd5b6101dc610a76565b6040518080602001828103825283818151815260200191508051906020019080838360005b8381101561021c578082015181840152602081019050610201565b50505050905090810190601f1680156102495780820380516001836020036101000a031916815260200191505b509250505060405180910390f35b6102a36004803603604081101561026d57600080fd5b81019080803573ffffffffffffffffffffffffffffffffffffffff16906020019092919080359060200190929190505050610b18565b60405180821515815260200191505060405180910390f35b6102c3610b2f565b6040518082815260200191505060405180910390f35b61031b600480360360208110156102ef57600080fd5b81019080803573ffffffffffffffffffffffffffffffffffffffff169060200190929190505050610b39565b6040518082815260200191505060405180910390f35b610339610c57565b6040518082815260200191505060405180910390f35b6103bb6004803603606081101561036557600080fd5b81019080803573ffffffffffffffffffffffffffffffffffffffff169060200190929190803573ffffffffffffffffffffffffffffffffffffffff16906020019092919080359060200190929190505050610c61565b60405180821515815260200191505060405180910390f35b6103ff600480360360208110156103e957600080fd5b8101908080359060200190929190505050610e0d565b604051808273ffffffffffffffffffffffffffffffffffffffff16815260200191505060405180910390f35b610433610e49565b604051808260ff16815260200191505060405180910390f35b610454610e52565b6040518082815260200191505060405180910390f35b6104b66004803603604081101561048057600080fd5b81019080803573ffffffffffffffffffffffffffffffffffffffff16906020019092919080359060200190929190505050610e58565b005b6104c0611325565b6040518082815260200191505060405180910390f35b6104de611535565b604051808273ffffffffffffffffffffffffffffffffffffffff16815260200191505060405180910390f35b61054c6004803603602081101561052057600080fd5b81019080803573ffffffffffffffffffffffffffffffffffffffff16906020019092919050505061155f565b6040518082815260200191505060405180910390f35b61056a61164a565b6040518082815260200191505060405180910390f35b610588611650565b6040518080602001828103825283818151815260200191508051906020019080838360005b838110156105c85780820151818401526020810190506105ad565b50505050905090810190601f1680156105f55780820380516001836020036101000a031916815260200191505b509250505060405180910390f35b61060b611667565b604051808273ffffffffffffffffffffffffffffffffffffffff16815260200191505060405180910390f35b6106836004803603604081101561064d57600080fd5b81019080803573ffffffffffffffffffffffffffffffffffffffff1690602001909291908035906020019092919050505061168b565b60405180821515815260200191505060405180910390f35b6106a36116a2565b6040518082815260200191505060405180910390f35b6106c16116d7565b604051808060200180602001848152602001838103835286818151815260200191508051906020019060200280838360005b8381101561070e5780820151818401526020810190506106f3565b50505050905001838103825285818151815260200191508051906020019060200280838360005b83811015610750578082015181840152602081019050610735565b505050509050019550505050505060405180910390f35b61076f611b19565b604051808273ffffffffffffffffffffffffffffffffffffffff16815260200191505060405180910390f35b6107a3611b43565b604051808273ffffffffffffffffffffffffffffffffffffffff16815260200191505060405180910390f35b610811600480360360208110156107e557600080fd5b81019080803573ffffffffffffffffffffffffffffffffffffffff169060200190929190505050611b69565b6040518082815260200191505060405180910390f35b61082f611b81565b6040518080602001828103825283818151815260200191508051906020019080838360005b8381101561086f578082015181840152602081019050610854565b50505050905090810190601f16801561089c5780820380516001836020036101000a031916815260200191505b509250505060405180910390f35b6108ec600480360360208110156108c057600080fd5b81019080803573ffffffffffffffffffffffffffffffffffffffff169060200190929190505050611c1f565b005b6109506004803603604081101561090457600080fd5b81019080803573ffffffffffffffffffffffffffffffffffffffff169060200190929190803573ffffffffffffffffffffffffffffffffffffffff169060200190929190505050611e18565b6040518082815260200191505060405180910390f35b61096e611e3d565b604051808273ffffffffffffffffffffffffffffffffffffffff16815260200191505060405180910390f35b6109a2611e63565b604051808273ffffffffffffffffffffffffffffffffffffffff16815260200191505060405180910390f35b610a26600480360360608110156109e457600080fd5b81019080803573ffffffffffffffffffffffffffffffffffffffff16906020019092919080351515906020019092919080359060200190929190505050611e89565b005b610a7460048036036040811015610a3e57600080fd5b81019080803573ffffffffffffffffffffffffffffffffffffffff16906020019092919080359060200190929190505050612ae9565b005b606060018054600181600116156101000203166002900480601f016020809104026020016040519081016040528092919081815260200182805460018160011615610100020316600290048015610b0e5780601f10610ae357610100808354040283529160200191610b0e565b820191906000526020600020905b815481529060010190602001808311610af157829003601f168201915b5050505050905090565b6000610b25338484613288565b6001905092915050565b6000600254905090565b60008073ffffffffffffffffffffffffffffffffffffffff168273ffffffffffffffffffffffffffffffffffffffff161415610bdd576040517f08c379a000000000000000000000000000000000000000000000000000000000815260040180806020018281038252600f8152602001807f496e76616c69642061646472657373000000000000000000000000000000000081525060200191505060405180910390fd5b6000610be76116a2565b9050610c4f600254610c41600760008773ffffffffffffffffffffffffffffffffffffffff1673ffffffffffffffffffffffffffffffffffffffff168152602001908152602001600020548461337390919063ffffffff16565b6133aa90919063ffffffff16565b915050919050565b6000600454905090565b600080600860008673ffffffffffffffffffffffffffffffffffffffff1673ffffffffffffffffffffffffffffffffffffffff16815260200190815260200160002060003373ffffffffffffffffffffffffffffffffffffffff1673ffffffffffffffffffffffffffffffffffffffff168152602001908152602001600020541115610df757610d7682600860008773ffffffffffffffffffffffffffffffffffffffff1673ffffffffffffffffffffffffffffffffffffffff16815260200190815260200160002060003373ffffffffffffffffffffffffffffffffffffffff1673ffffffffffffffffffffffffffffffffffffffff168152602001908152602001600020546133c390919063ffffffff16565b600860008673ffffffffffffffffffffffffffffffffffffffff1673ffffffffffffffffffffffffffffffffffffffff16815260200190815260200160002060003373ffffffffffffffffffffffffffffffffffffffff1673ffffffffffffffffffffffffffffffffffffffff168152602001908152602001600020819055505b610e028484846133da565b600190509392505050565b60098181548110610e1a57fe5b906000526020600020016000915054906101000a900473ffffffffffffffffffffffffffffffffffffffff1681565b60006012905090565b60025481565b600660009054906101000a900473ffffffffffffffffffffffffffffffffffffffff1673ffffffffffffffffffffffffffffffffffffffff163373ffffffffffffffffffffffffffffffffffffffff1614610efe576040517f08c379a0000000000000000000000000000000000000000000000000000000008152600401808060200182810382526030815260200180613aa36030913960400191505060405180910390fd5b600073ffffffffffffffffffffffffffffffffffffffff168273ffffffffffffffffffffffffffffffffffffffff161415610fa1576040517f08c379a00000000000000000000000000000000000000000000000000000000081526004018080602001828103825260148152602001807f496e76616c69642075736572206164647265737300000000000000000000000081525060200191505060405180910390fd5b60008111611017576040517f08c379a000000000000000000000000000000000000000000000000000000000815260040180806020018281038252601e8152602001807f4465706f736974206d7573742062652067726561746572207468616e2030000081525060200191505060405180910390fd5b60008060009054906101000a900473ffffffffffffffffffffffffffffffffffffffff1673ffffffffffffffffffffffffffffffffffffffff166304433bbc6040518163ffffffff1660e01b81526004018080602001828103825260088152602001807f53657474696e677300000000000000000000000000000000000000000000000081525060200191505060206040518083038186803b1580156110bc57600080fd5b505afa1580156110d0573d6000803e3d6000fd5b505050506040513d60208110156110e657600080fd5b8101908080519060200190929190505050905060008173ffffffffffffffffffffffffffffffffffffffff1663be781b1c6040518163ffffffff1660e01b815260040160206040518083038186803b15801561114157600080fd5b505afa158015611155573d6000803e3d6000fd5b505050506040513d602081101561116b57600080fd5b810190808051906020019092919050505090508073ffffffffffffffffffffffffffffffffffffffff166323b872dd3330866040518463ffffffff1660e01b8152600401808473ffffffffffffffffffffffffffffffffffffffff1681526020018373ffffffffffffffffffffffffffffffffffffffff1681526020018281526020019350505050602060405180830381600087803b15801561120d57600080fd5b505af1158015611221573d6000803e3d6000fd5b505050506040513d602081101561123757600080fd5b81019080805190602001909291905050505061129b83600760008773ffffffffffffffffffffffffffffffffffffffff1673ffffffffffffffffffffffffffffffffffffffff1681526020019081526020016000205461356e90919063ffffffff16565b506112b18360025461356e90919063ffffffff16565b503073ffffffffffffffffffffffffffffffffffffffff163373ffffffffffffffffffffffffffffffffffffffff167f0eb1bd5716040080f7b533c81b41fc4489007e229d63ec955934adf0908f75f98542604051808381526020018281526020019250505060405180910390a350505050565b60008060008054906101000a900473ffffffffffffffffffffffffffffffffffffffff1673ffffffffffffffffffffffffffffffffffffffff166304433bbc6040518163ffffffff1660e01b81526004018080602001828103825260088152602001807f53657474696e677300000000000000000000000000000000000000000000000081525060200191505060206040518083038186803b1580156113ca57600080fd5b505afa1580156113de573d6000803e3d6000fd5b505050506040513d60208110156113f457600080fd5b8101908080519060200190929190505050905060008173ffffffffffffffffffffffffffffffffffffffff1663be781b1c6040518163ffffffff1660e01b815260040160206040518083038186803b15801561144f57600080fd5b505afa158015611463573d6000803e3d6000fd5b505050506040513d602081101561147957600080fd5b810190808051906020019092919050505090508073ffffffffffffffffffffffffffffffffffffffff166370a08231306040518263ffffffff1660e01b8152600401808273ffffffffffffffffffffffffffffffffffffffff16815260200191505060206040518083038186803b1580156114f357600080fd5b505afa158015611507573d6000803e3d6000fd5b505050506040513d602081101561151d57600080fd5b81019080805190602001909291905050509250505090565b6000600560009054906101000a900473ffffffffffffffffffffffffffffffffffffffff16905090565b60008073ffffffffffffffffffffffffffffffffffffffff168273ffffffffffffffffffffffffffffffffffffffff161415611603576040517f08c379a00000000000000000000000000000000000000000000000000000000081526004018080602001828103825260148152602001807f496e76616c69642075736572206164647265737300000000000000000000000081525060200191505060405180910390fd5b600760008373ffffffffffffffffffffffffffffffffffffffff1673ffffffffffffffffffffffffffffffffffffffff168152602001908152602001600020549050919050565b60045481565b606060405180602001604052806000815250905090565b60008054906101000a900473ffffffffffffffffffffffffffffffffffffffff1681565b60006116983384846133da565b6001905092915050565b6000806116ad6116d7565b9250505060006116bb611325565b90506116d0828261356e90919063ffffffff16565b9250505090565b60608060008060008054906101000a900473ffffffffffffffffffffffffffffffffffffffff1673ffffffffffffffffffffffffffffffffffffffff166304433bbc6040518163ffffffff1660e01b81526004018080602001828103825260128152602001807f426173655562657377617041646170746572000000000000000000000000000081525060200191505060206040518083038186803b15801561177f57600080fd5b505afa158015611793573d6000803e3d6000fd5b505050506040513d60208110156117a957600080fd5b81019080805190602001909291905050509050606060098054905067ffffffffffffffff811180156117da57600080fd5b506040519080825280602002602001820160405280156118095781602001602082028036833780820191505090505b509050606060098054905067ffffffffffffffff8111801561182a57600080fd5b506040519080825280602002602001820160405280156118595781602001602082028036833780820191505090505b5090506000805b600980549050811015611b06576009818154811061187a57fe5b9060005260206000200160009054906101000a900473ffffffffffffffffffffffffffffffffffffffff1673ffffffffffffffffffffffffffffffffffffffff166370a08231306040518263ffffffff1660e01b8152600401808273ffffffffffffffffffffffffffffffffffffffff16815260200191505060206040518083038186803b15801561190b57600080fd5b505afa15801561191f573d6000803e3d6000fd5b505050506040513d602081101561193557600080fd5b810190808051906020019092919050505083828151811061195257fe5b6020026020010181815250506009818154811061196b57fe5b9060005260206000200160009054906101000a900473ffffffffffffffffffffffffffffffffffffffff168482815181106119a257fe5b602002602001019073ffffffffffffffffffffffffffffffffffffffff16908173ffffffffffffffffffffffffffffffffffffffff168152505060008573ffffffffffffffffffffffffffffffffffffffff166341976e0960098481548110611a0757fe5b9060005260206000200160009054906101000a900473ffffffffffffffffffffffffffffffffffffffff166040518263ffffffff1660e01b8152600401808273ffffffffffffffffffffffffffffffffffffffff16815260200191505060206040518083038186803b158015611a7c57600080fd5b505afa158015611a90573d6000803e3d6000fd5b505050506040513d6020811015611aa657600080fd5b810190808051906020019092919050505090506000611ae1858481518110611aca57fe5b60200260200101518361337390919063ffffffff16565b9050611af6818561356e90919063ffffffff16565b5050508080600101915050611860565b5082828296509650965050505050909192565b6000600360009054906101000a900473ffffffffffffffffffffffffffffffffffffffff16905090565b600660009054906101000a900473ffffffffffffffffffffffffffffffffffffffff1681565b60076020528060005260406000206000915090505481565b60018054600181600116156101000203166002900480601f016020809104026020016040519081016040528092919081815260200182805460018160011615610100020316600290048015611c175780601f10611bec57610100808354040283529160200191611c17565b820191906000526020600020905b815481529060010190602001808311611bfa57829003601f168201915b505050505081565b600660009054906101000a900473ffffffffffffffffffffffffffffffffffffffff1673ffffffffffffffffffffffffffffffffffffffff163373ffffffffffffffffffffffffffffffffffffffff1614611cc5576040517f08c379a0000000000000000000000000000000000000000000000000000000008152600401808060200182810382526030815260200180613aa36030913960400191505060405180910390fd5b600073ffffffffffffffffffffffffffffffffffffffff168173ffffffffffffffffffffffffffffffffffffffff161415611d68576040517f08c379a00000000000000000000000000000000000000000000000000000000081526004018080602001828103825260148152602001807f496e76616c6964206661726d206164647265737300000000000000000000000081525060200191505060405180910390fd5b80600560006101000a81548173ffffffffffffffffffffffffffffffffffffffff021916908373ffffffffffffffffffffffffffffffffffffffff1602179055503073ffffffffffffffffffffffffffffffffffffffff167f0b573389cc314585efb6a07f9e19191d0152f7bf4484b05181383bddbd6d8e798242604051808373ffffffffffffffffffffffffffffffffffffffff1681526020018281526020019250505060405180910390a250565b6008602052816000526040600020602052806000526040600020600091509150505481565b600360009054906101000a900473ffffffffffffffffffffffffffffffffffffffff1681565b600560009054906101000a900473ffffffffffffffffffffffffffffffffffffffff1681565b600660009054906101000a900473ffffffffffffffffffffffffffffffffffffffff1673ffffffffffffffffffffffffffffffffffffffff163373ffffffffffffffffffffffffffffffffffffffff1614611f2f576040517f08c379a0000000000000000000000000000000000000000000000000000000008152600401808060200182810382526030815260200180613aa36030913960400191505060405180910390fd5b60008060009054906101000a900473ffffffffffffffffffffffffffffffffffffffff1673ffffffffffffffffffffffffffffffffffffffff166304433bbc6040518163ffffffff1660e01b81526004018080602001828103825260088152602001807f53657474696e677300000000000000000000000000000000000000000000000081525060200191505060206040518083038186803b158015611fd457600080fd5b505afa158015611fe8573d6000803e3d6000fd5b505050506040513d6020811015611ffe57600080fd5b8101908080519060200190929190505050905060008060009054906101000a900473ffffffffffffffffffffffffffffffffffffffff1673ffffffffffffffffffffffffffffffffffffffff166304433bbc6040518163ffffffff1660e01b81526004018080602001828103825260128152602001807f426173655562657377617041646170746572000000000000000000000000000081525060200191505060206040518083038186803b1580156120b657600080fd5b505afa1580156120ca573d6000803e3d6000fd5b505050506040513d60208110156120e057600080fd5b8101908080519060200190929190505050905060008273ffffffffffffffffffffffffffffffffffffffff1663be781b1c6040518163ffffffff1660e01b815260040160206040518083038186803b15801561213b57600080fd5b505afa15801561214f573d6000803e3d6000fd5b505050506040513d602081101561216557600080fd5b81019080805190602001909291905050509050600084116121d1576040517f08c379a0000000000000000000000000000000000000000000000000000000008152600401808060200182810382526027815260200180613af46027913960400191505060405180910390fd5b600073ffffffffffffffffffffffffffffffffffffffff168673ffffffffffffffffffffffffffffffffffffffff161415612274576040517f08c379a00000000000000000000000000000000000000000000000000000000081526004018080602001828103825260148152602001807f496e76616c69642063757272656e6379206b657900000000000000000000000081525060200191505060405180910390fd5b8273ffffffffffffffffffffffffffffffffffffffff1663571a0885876040518263ffffffff1660e01b8152600401808273ffffffffffffffffffffffffffffffffffffffff16815260200191505060206040518083038186803b1580156122db57600080fd5b505afa1580156122ef573d6000803e3d6000fd5b505050506040513d602081101561230557600080fd5b8101908080519060200190929190505050612388576040517f08c379a000000000000000000000000000000000000000000000000000000000815260040180806020018281038252601d8152602001807f43757272656e6379206b6579206973206e6f7420617661696c61626c6500000081525060200191505060405180910390fd5b60008273ffffffffffffffffffffffffffffffffffffffff166341976e09886040518263ffffffff1660e01b8152600401808273ffffffffffffffffffffffffffffffffffffffff16815260200191505060206040518083038186803b1580156123f157600080fd5b505afa158015612405573d6000803e3d6000fd5b505050506040513d602081101561241b57600080fd5b81019080805190602001909291905050509050600086156125e257612449828761337390919063ffffffff16565b612451611325565b10156124c5576040517f08c379a00000000000000000000000000000000000000000000000000000000081526004018080602001828103825260108152602001807f4e6f7420656e6f7567682066756e64730000000000000000000000000000000081525060200191505060405180910390fd5b60006124da83886133aa90919063ffffffff16565b9050600061250560646124f760628b61337390919063ffffffff16565b6133aa90919063ffffffff16565b90508573ffffffffffffffffffffffffffffffffffffffff1663e5414cd0868c85856040518563ffffffff1660e01b8152600401808573ffffffffffffffffffffffffffffffffffffffff1681526020018473ffffffffffffffffffffffffffffffffffffffff168152602001838152602001828152602001945050505050602060405180830381600087803b15801561259e57600080fd5b505af11580156125b2573d6000803e3d6000fd5b505050506040513d60208110156125c857600080fd5b810190808051906020019092919050505092505050612a60565b60005b60098054905081101561266f57600981815481106125ff57fe5b9060005260206000200160009054906101000a900473ffffffffffffffffffffffffffffffffffffffff1673ffffffffffffffffffffffffffffffffffffffff168973ffffffffffffffffffffffffffffffffffffffff1614156126625761266f565b80806001019150506125e5565b60098054905081106126cc576040517f08c379a0000000000000000000000000000000000000000000000000000000008152600401808060200182810382526026815260200180613b3d6026913960400191505060405180910390fd5b868973ffffffffffffffffffffffffffffffffffffffff166370a08231336040518263ffffffff1660e01b8152600401808273ffffffffffffffffffffffffffffffffffffffff16815260200191505060206040518083038186803b15801561273457600080fd5b505afa158015612748573d6000803e3d6000fd5b505050506040513d602081101561275e57600080fd5b810190808051906020019092919050505010156127c6576040517f08c379a0000000000000000000000000000000000000000000000000000000008152600401808060200182810382526022815260200180613b1b6022913960400191505060405180910390fd5b60006127db848961337390919063ffffffff16565b9050600061280660646127f860628561337390919063ffffffff16565b6133aa90919063ffffffff16565b90508673ffffffffffffffffffffffffffffffffffffffff1663e5414cd08c888c856040518563ffffffff1660e01b8152600401808573ffffffffffffffffffffffffffffffffffffffff1681526020018473ffffffffffffffffffffffffffffffffffffffff168152602001838152602001828152602001945050505050602060405180830381600087803b15801561289f57600080fd5b505af11580156128b3573d6000803e3d6000fd5b505050506040513d60208110156128c957600080fd5b8101908080519060200190929190505050935060008b73ffffffffffffffffffffffffffffffffffffffff166370a08231336040518263ffffffff1660e01b8152600401808273ffffffffffffffffffffffffffffffffffffffff16815260200191505060206040518083038186803b15801561294557600080fd5b505afa158015612959573d6000803e3d6000fd5b505050506040513d602081101561296f57600080fd5b81019080805190602001909291905050501415612a5c5760096001600980549050038154811061299b57fe5b9060005260206000200160009054906101000a900473ffffffffffffffffffffffffffffffffffffffff16600984815481106129d357fe5b9060005260206000200160006101000a81548173ffffffffffffffffffffffffffffffffffffffff021916908373ffffffffffffffffffffffffffffffffffffffff1602179055506009805480612a2657fe5b6001900381819060005260206000200160006101000a81549073ffffffffffffffffffffffffffffffffffffffff021916905590555b5050505b8773ffffffffffffffffffffffffffffffffffffffff163073ffffffffffffffffffffffffffffffffffffffff167f929eb7d2e6621260223433b747992833b209c5dd762a0040fb0a87a4b80a1d4a8989854260405180851515815260200184815260200183815260200182815260200194505050505060405180910390a35050505050505050565b600660009054906101000a900473ffffffffffffffffffffffffffffffffffffffff1673ffffffffffffffffffffffffffffffffffffffff163373ffffffffffffffffffffffffffffffffffffffff1614612b8f576040517f08c379a0000000000000000000000000000000000000000000000000000000008152600401808060200182810382526030815260200180613aa36030913960400191505060405180910390fd5b600073ffffffffffffffffffffffffffffffffffffffff168273ffffffffffffffffffffffffffffffffffffffff161415612c32576040517f08c379a00000000000000000000000000000000000000000000000000000000081526004018080602001828103825260148152602001807f496e76616c69642075736572206164647265737300000000000000000000000081525060200191505060405180910390fd5b60008111612c8b576040517f08c379a0000000000000000000000000000000000000000000000000000000008152600401808060200182810382526021815260200180613ad36021913960400191505060405180910390fd5b6000612c9683610b39565b905081811015612d0e576040517f08c379a000000000000000000000000000000000000000000000000000000000815260040180806020018281038252601c8152602001807f4e6f7420656e6f7567682066756e647320746f2077697468647261770000000081525060200191505060405180910390fd5b6000612d186116a2565b90506000600760008673ffffffffffffffffffffffffffffffffffffffff1673ffffffffffffffffffffffffffffffffffffffff168152602001908152602001600020548311612d69576000612dbc565b612dbb600760008773ffffffffffffffffffffffffffffffffffffffff1673ffffffffffffffffffffffffffffffffffffffff16815260200190815260200160002054846133c390919063ffffffff16565b5b90506000612de584612dd7878561337390919063ffffffff16565b6133aa90919063ffffffff16565b90506000612e116064612e036004548561337390919063ffffffff16565b6133aa90919063ffffffff16565b90506000612e2882886133c390919063ffffffff16565b90506000841115612e3e57612e3d888361358a565b5b6000612e5386896133aa90919063ffffffff16565b9050612ea781600760008c73ffffffffffffffffffffffffffffffffffffffff1673ffffffffffffffffffffffffffffffffffffffff168152602001908152602001600020546133c390919063ffffffff16565b50612ebd816002546133c390919063ffffffff16565b5060005b60098054905081101561320f57600060098281548110612edd57fe5b9060005260206000200160009054906101000a900473ffffffffffffffffffffffffffffffffffffffff1673ffffffffffffffffffffffffffffffffffffffff166370a08231306040518263ffffffff1660e01b8152600401808273ffffffffffffffffffffffffffffffffffffffff16815260200191505060206040518083038186803b158015612f6e57600080fd5b505afa158015612f82573d6000803e3d6000fd5b505050506040513d6020811015612f9857600080fd5b810190808051906020019092919050505090506000612fd289612fc4878561337390919063ffffffff16565b6133aa90919063ffffffff16565b905060098381548110612fe157fe5b9060005260206000200160009054906101000a900473ffffffffffffffffffffffffffffffffffffffff1673ffffffffffffffffffffffffffffffffffffffff1663095ea7b38d836040518363ffffffff1660e01b8152600401808373ffffffffffffffffffffffffffffffffffffffff16815260200182815260200192505050602060405180830381600087803b15801561307c57600080fd5b505af1158015613090573d6000803e3d6000fd5b505050506040513d60208110156130a657600080fd5b810190808051906020019092919050505050600983815481106130c557fe5b9060005260206000200160009054906101000a900473ffffffffffffffffffffffffffffffffffffffff1673ffffffffffffffffffffffffffffffffffffffff166323b872dd308e846040518463ffffffff1660e01b8152600401808473ffffffffffffffffffffffffffffffffffffffff1681526020018373ffffffffffffffffffffffffffffffffffffffff1681526020018281526020019350505050602060405180830381600087803b15801561317e57600080fd5b505af1158015613192573d6000803e3d6000fd5b505050506040513d60208110156131a857600080fd5b8101908080519060200190929190505050506000600254141561320057600983815481106131d257fe5b9060005260206000200160006101000a81549073ffffffffffffffffffffffffffffffffffffffff02191690555b50508080600101915050612ec1565b503073ffffffffffffffffffffffffffffffffffffffff163373ffffffffffffffffffffffffffffffffffffffff167fcd66141cfde93a4c7ec1f982902a7c551ee653bcd0579aa9ba0e05c71410d0f78a42604051808381526020018281526020019250505060405180910390a3505050505050505050565b80600860008573ffffffffffffffffffffffffffffffffffffffff1673ffffffffffffffffffffffffffffffffffffffff16815260200190815260200160002060008473ffffffffffffffffffffffffffffffffffffffff1673ffffffffffffffffffffffffffffffffffffffff168152602001908152602001600020819055508173ffffffffffffffffffffffffffffffffffffffff168373ffffffffffffffffffffffffffffffffffffffff167f8c5be1e5ebec7d5bd14f71427d1e84f3dd0314c0f7b2291e5b200ac8c7c3b925836040518082815260200191505060405180910390a3505050565b60008083141561338657600090506133a4565b600082840290508284828161339757fe5b041461339f57fe5b809150505b92915050565b6000808284816133b657fe5b0490508091505092915050565b6000828211156133cf57fe5b818303905092915050565b61342c81600760008673ffffffffffffffffffffffffffffffffffffffff1673ffffffffffffffffffffffffffffffffffffffff168152602001908152602001600020546133c390919063ffffffff16565b600760008573ffffffffffffffffffffffffffffffffffffffff1673ffffffffffffffffffffffffffffffffffffffff168152602001908152602001600020819055506134c181600760008573ffffffffffffffffffffffffffffffffffffffff1673ffffffffffffffffffffffffffffffffffffffff1681526020019081526020016000205461356e90919063ffffffff16565b600760008473ffffffffffffffffffffffffffffffffffffffff1673ffffffffffffffffffffffffffffffffffffffff168152602001908152602001600020819055508173ffffffffffffffffffffffffffffffffffffffff168373ffffffffffffffffffffffffffffffffffffffff167fddf252ad1be2c89b69c2b068fc378daa952ba7f163c4a11628f55a4df523b3ef836040518082815260200191505060405180910390a3505050565b60008082840190508381101561358057fe5b8091505092915050565b60006135946116a2565b905060008060009054906101000a900473ffffffffffffffffffffffffffffffffffffffff1673ffffffffffffffffffffffffffffffffffffffff166304433bbc6040518163ffffffff1660e01b81526004018080602001828103825260078152602001807f466565506f6f6c0000000000000000000000000000000000000000000000000081525060200191505060206040518083038186803b15801561363b57600080fd5b505afa15801561364f573d6000803e3d6000fd5b505050506040513d602081101561366557600080fd5b8101908080519060200190929190505050905060005b6009805490508110156139835760006009828154811061369757fe5b9060005260206000200160009054906101000a900473ffffffffffffffffffffffffffffffffffffffff1673ffffffffffffffffffffffffffffffffffffffff166370a08231306040518263ffffffff1660e01b8152600401808273ffffffffffffffffffffffffffffffffffffffff16815260200191505060206040518083038186803b15801561372857600080fd5b505afa15801561373c573d6000803e3d6000fd5b505050506040513d602081101561375257600080fd5b81019080805190602001909291905050509050600061378c8561377e888561337390919063ffffffff16565b6133aa90919063ffffffff16565b90506009838154811061379b57fe5b9060005260206000200160009054906101000a900473ffffffffffffffffffffffffffffffffffffffff1673ffffffffffffffffffffffffffffffffffffffff1663095ea7b385836040518363ffffffff1660e01b8152600401808373ffffffffffffffffffffffffffffffffffffffff16815260200182815260200192505050602060405180830381600087803b15801561383657600080fd5b505af115801561384a573d6000803e3d6000fd5b505050506040513d602081101561386057600080fd5b8101908080519060200190929190505050506009838154811061387f57fe5b9060005260206000200160009054906101000a900473ffffffffffffffffffffffffffffffffffffffff1673ffffffffffffffffffffffffffffffffffffffff166323b872dd3086846040518463ffffffff1660e01b8152600401808473ffffffffffffffffffffffffffffffffffffffff1681526020018373ffffffffffffffffffffffffffffffffffffffff1681526020018281526020019350505050602060405180830381600087803b15801561393857600080fd5b505af115801561394c573d6000803e3d6000fd5b505050506040513d602081101561396257600080fd5b8101908080519060200190929190505050505050808060010191505061367b565b508073ffffffffffffffffffffffffffffffffffffffff16631dfb9aae600360009054906101000a900473ffffffffffffffffffffffffffffffffffffffff16856040518363ffffffff1660e01b8152600401808373ffffffffffffffffffffffffffffffffffffffff16815260200182815260200192505050600060405180830381600087803b158015613a1757600080fd5b505af1158015613a2b573d6000803e3d6000fd5b505050503073ffffffffffffffffffffffffffffffffffffffff168473ffffffffffffffffffffffffffffffffffffffff167fbafce7cda0b6bad679f81e8822ac7eb8d19db19f7d4940fdf1e8ec673b594ec08542604051808381526020018281526020019250505060405180910390a35050505056fe4f6e6c7920506f6f6c4d616e6167657220636f6e74726163742063616e2063616c6c20746869732066756e6374696f6e5769746864726177616c206d7573742062652067726561746572207468616e20304e756d626572206f6620746f6b656e73206d7573742062652067726561746572207468616e20304e6f7420656e6f75676820746f6b656e7320696e20746869732063757272656e6379446f6e27742068617665206120706f736974696f6e20696e20746869732063757272656e6379a2646970667358221220427eef1c308210db30a62be1105ccc87406771435d8097c160192b10c8efb80c64736f6c634300060c00334465706f73697420616d6f756e74206d7573742062652067726561746572207468616e20304f6e6c792074686520706f6f6c2773206d616e616765722063616e2063616c6c20746869732066756e6374696f6e43616e6e6f7420657863656564206d6178696d756d20706572666f726d616e6365206665654e756d626572206f6620746f6b656e73206d7573742062652067726561746572207468616e20305769746864726177616c20616d6f756e74206d7573742062652067726561746572207468616e203043616e6e6f7420657863656564206d6178696d756d206e756d626572206f6620706f6f6c73207065722075736572506f6f6c206e616d65206d7573742068617665206c657373207468616e2033302063686172616374657273a2646970667358221220c7d5d6b128e07e3264bf5403f75274d333b9f5b643286b9b0092708b6825a1ad64736f6c634300060c0033",
  "immutableReferences": {
    "2355": [
      {
        "length": 32,
        "start": 1810
      },
      {
        "length": 32,
        "start": 2729
      },
      {
        "length": 32,
        "start": 3511
      },
      {
        "length": 32,
        "start": 4424
      },
      {
        "length": 32,
        "start": 5096
      },
      {
        "length": 32,
        "start": 5759
      },
      {
        "length": 32,
        "start": 6475
      },
      {
        "length": 32,
        "start": 8283
      },
      {
        "length": 32,
        "start": 8928
      }
    ]
  },
  "source": "pragma solidity >=0.5.0;\r\n\r\n//Interfaces\r\nimport './interfaces/IPool.sol';\r\nimport './interfaces/ISettings.sol';\r\nimport './interfaces/IAddressResolver.sol';\r\n\r\nimport './PoolManager.sol';\r\n\r\ncontract PoolProxy is PoolManager {\r\n    using SafeMath for uint;\r\n\r\n    constructor(IAddressResolver addressResolver) PoolManager(addressResolver) public {\r\n    }\r\n\r\n    /* ========== VIEWS ========== */\r\n\r\n    /**\r\n    * @dev Returns the index of each pool the user manages\r\n    * @param user Address of the user\r\n    * @return uint[] The index in pools array of each pool the user manages\r\n    */\r\n    function getUserManagedPools(address user) public view returns(uint[] memory) {\r\n        return _getUserManagedPools(user);\r\n    }\r\n\r\n    /**\r\n    * @dev Returns the index of each pool the user is invested in\r\n    * @param user Address of the user\r\n    * @return uint[] The index in pools array of each pool the user is invested in\r\n    */\r\n    function getUserInvestedPools(address user) public view returns(uint[] memory) {\r\n        return _getUserInvestedPools(user);\r\n    }\r\n\r\n    /**\r\n    * @dev Returns the index of each pool the user is staked in\r\n    * @param user Address of the user\r\n    * @return uint[] The index in pools array of each pool the user is staked in\r\n    * @return uint Number of pools the user is staked in\r\n    */\r\n    function getUserStakedPools(address user) public view returns(uint[] memory, uint) {\r\n        return _getUserStakedPools(user);\r\n    }\r\n\r\n    /**\r\n    * @dev Returns the address of each available pool\r\n    * @return address[] The address of each available pool\r\n    */\r\n    function getAvailablePools() public view returns(address[] memory) {\r\n        return _getAvailablePools();\r\n    }\r\n\r\n    /* ========== MUTATIVE FUNCTIONS ========== */\r\n\r\n    /**\r\n    * @dev Creates a new pool\r\n    * @param poolName Name of the pool\r\n    * @param performanceFee Performance fee for the pool\r\n    */\r\n    function createPool(string memory poolName, uint performanceFee) external {\r\n        address settingsAddress = ADDRESS_RESOLVER.getContractAddress(\"Settings\");\r\n        uint maximumPerformanceFee = ISettings(settingsAddress).getParameterValue(\"MaximumPerformanceFee\");\r\n        uint maximumNumberOfPoolsPerUser = ISettings(settingsAddress).getParameterValue(\"MaximumNumberOfPoolsPerUser\");\r\n\r\n        require(bytes(poolName).length < 30, \"Pool name must have less than 30 characters\");\r\n        require(performanceFee <= maximumPerformanceFee, \"Cannot exceed maximum performance fee\");\r\n        require(_getUserManagedPools(msg.sender).length < maximumNumberOfPoolsPerUser, \"Cannot exceed maximum number of pools per user\");\r\n\r\n        address poolAddress = _createPool(poolName, performanceFee, msg.sender);\r\n\r\n        ADDRESS_RESOLVER.addPoolAddress(poolAddress);\r\n    }\r\n\r\n    /**\r\n    * @dev Withdraw cUSD from the given pool\r\n    * @param poolAddress Address of the pool\r\n    * @param amount Amount of cUSD to withdraw from the pool\r\n    */\r\n    function withdraw(address poolAddress, uint amount) external {\r\n        require(amount > 0, \"Withdrawal amount must be greater than 0\");\r\n\r\n        _withdraw(msg.sender, poolAddress, amount);\r\n    }\r\n\r\n    /**\r\n    * @dev Deposit cUSD into the given pool\r\n    * @param poolAddress Address of the pool\r\n    * @param amount Amount of cUSD to deposit into the pool\r\n    */\r\n    function deposit(address poolAddress, uint amount) external {\r\n        require(amount > 0, \"Deposit amount must be greater than 0\");\r\n\r\n        _deposit(msg.sender, poolAddress, amount);\r\n    }\r\n\r\n    /**\r\n    * @dev Places an order to buy/sell the given currency on behalf of the pool\r\n    * @param poolAddress Address of the pool\r\n    * @param currencyKey Address of currency to trade\r\n    * @param buyOrSell Whether the user is buying or selling\r\n    * @param numberOfTokens Number of tokens of the given currency\r\n    */\r\n    function placeOrder(address poolAddress, address currencyKey, bool buyOrSell, uint numberOfTokens) external {\r\n        require(poolAddress != address(0), \"Invalid pool address\");\r\n        require(currencyKey != address(0), \"Invalid currency key\");\r\n        require(numberOfTokens > 0, \"Number of tokens must be greater than 0\");\r\n\r\n        _placeOrder(poolAddress, currencyKey, buyOrSell, numberOfTokens);\r\n    }\r\n}",
  "sourcePath": "C:/Users/xavie/OneDrive/Desktop/TradeGen/Github/tradegen/contracts/PoolProxy.sol",
  "compiler": {
    "name": "solc",
    "version": "0.6.12+commit.27d51765.Emscripten.clang"
  },
  "schemaVersion": "3.4.1",
  "updatedAt": "2021-07-15T18:31:19.090Z",
  "devdoc": {
    "kind": "dev",
    "methods": {
      "createPool(string,uint256)": {
        "details": "Creates a new pool",
        "params": {
          "performanceFee": "Performance fee for the pool",
          "poolName": "Name of the pool"
        }
      },
      "deposit(address,uint256)": {
        "details": "Deposit cUSD into the given pool",
        "params": {
          "amount": "Amount of cUSD to deposit into the pool",
          "poolAddress": "Address of the pool"
        }
      },
      "getAvailablePools()": {
        "details": "Returns the address of each available pool",
        "returns": {
          "_0": "address[] The address of each available pool"
        }
      },
      "getUserInvestedPools(address)": {
        "details": "Returns the index of each pool the user is invested in",
        "params": {
          "user": "Address of the user"
        },
        "returns": {
          "_0": "uint[] The index in pools array of each pool the user is invested in"
        }
      },
      "getUserManagedPools(address)": {
        "details": "Returns the index of each pool the user manages",
        "params": {
          "user": "Address of the user"
        },
        "returns": {
          "_0": "uint[] The index in pools array of each pool the user manages"
        }
      },
      "getUserStakedPools(address)": {
        "details": "Returns the index of each pool the user is staked in",
        "params": {
          "user": "Address of the user"
        },
        "returns": {
          "_0": "uint[] The index in pools array of each pool the user is staked in",
          "_1": "uint Number of pools the user is staked in"
        }
      },
      "placeOrder(address,address,bool,uint256)": {
        "details": "Places an order to buy/sell the given currency on behalf of the pool",
        "params": {
          "buyOrSell": "Whether the user is buying or selling",
          "currencyKey": "Address of currency to trade",
          "numberOfTokens": "Number of tokens of the given currency",
          "poolAddress": "Address of the pool"
        }
      },
      "withdraw(address,uint256)": {
        "details": "Withdraw cUSD from the given pool",
        "params": {
          "amount": "Amount of cUSD to withdraw from the pool",
          "poolAddress": "Address of the pool"
        }
      }
    },
    "version": 1
  },
  "userdoc": {
    "kind": "user",
    "methods": {},
    "version": 1
  }
}