{
  "contractName": "PreviousNPriceUpdates",
  "abi": [
    {
      "inputs": [
        {
          "internalType": "uint256",
          "name": "price",
          "type": "uint256"
        }
      ],
      "stateMutability": "nonpayable",
      "type": "constructor"
    },
    {
      "anonymous": false,
      "inputs": [
        {
          "indexed": true,
          "internalType": "address",
          "name": "indicatorAddress",
          "type": "address"
        },
        {
          "indexed": false,
          "internalType": "uint256",
          "name": "newPrice",
          "type": "uint256"
        },
        {
          "indexed": false,
          "internalType": "uint256",
          "name": "timestamp",
          "type": "uint256"
        }
      ],
      "name": "UpdatedPrice",
      "type": "event"
    },
    {
      "inputs": [],
      "name": "_developer",
      "outputs": [
        {
          "internalType": "address",
          "name": "",
          "type": "address"
        }
      ],
      "stateMutability": "view",
      "type": "function"
    },
    {
      "inputs": [],
      "name": "_price",
      "outputs": [
        {
          "internalType": "uint256",
          "name": "",
          "type": "uint256"
        }
      ],
      "stateMutability": "view",
      "type": "function"
    },
    {
      "inputs": [],
      "name": "getName",
      "outputs": [
        {
          "internalType": "string",
          "name": "",
          "type": "string"
        }
      ],
      "stateMutability": "pure",
      "type": "function"
    },
    {
      "inputs": [],
      "name": "getPriceAndDeveloper",
      "outputs": [
        {
          "internalType": "uint256",
          "name": "",
          "type": "uint256"
        },
        {
          "internalType": "address",
          "name": "",
          "type": "address"
        }
      ],
      "stateMutability": "view",
      "type": "function"
    },
    {
      "inputs": [
        {
          "internalType": "uint256",
          "name": "newPrice",
          "type": "uint256"
        }
      ],
      "name": "editPrice",
      "outputs": [],
      "stateMutability": "nonpayable",
      "type": "function"
    },
    {
      "inputs": [
        {
          "internalType": "uint256",
          "name": "param",
          "type": "uint256"
        }
      ],
      "name": "addTradingBot",
      "outputs": [
        {
          "internalType": "uint256",
          "name": "",
          "type": "uint256"
        }
      ],
      "stateMutability": "nonpayable",
      "type": "function"
    },
    {
      "inputs": [
        {
          "internalType": "uint256",
          "name": "index",
          "type": "uint256"
        },
        {
          "internalType": "uint256",
          "name": "latestPrice",
          "type": "uint256"
        }
      ],
      "name": "update",
      "outputs": [],
      "stateMutability": "nonpayable",
      "type": "function"
    },
    {
      "inputs": [
        {
          "internalType": "address",
          "name": "tradingBotAddress",
          "type": "address"
        },
        {
          "internalType": "uint256",
          "name": "index",
          "type": "uint256"
        }
      ],
      "name": "getValue",
      "outputs": [
        {
          "internalType": "uint256[]",
          "name": "",
          "type": "uint256[]"
        }
      ],
      "stateMutability": "view",
      "type": "function"
    },
    {
      "inputs": [
        {
          "internalType": "address",
          "name": "tradingBotAddress",
          "type": "address"
        },
        {
          "internalType": "uint256",
          "name": "index",
          "type": "uint256"
        }
      ],
      "name": "getHistory",
      "outputs": [
        {
          "internalType": "uint256[]",
          "name": "",
          "type": "uint256[]"
        }
      ],
      "stateMutability": "view",
      "type": "function"
    }
  ],
  "bytecode": "0x608060405234801561001057600080fd5b506040516110413803806110418339818101604052602081101561003357600080fd5b810190808051906020019092919050505060008110156100bb576040517f08c379a000000000000000000000000000000000000000000000000000000000815260040180806020018281038252601c8152602001807f5072696365206d7573742062652067726561746572207468616e20300000000081525060200191505060405180910390fd5b8060008190555033600160006101000a81548173ffffffffffffffffffffffffffffffffffffffff021916908373ffffffffffffffffffffffffffffffffffffffff16021790555050610f2e806101136000396000f3fe608060405234801561001057600080fd5b50600436106100935760003560e01c80637d6760bf116100665780637d6760bf146101a55780638bdf5803146101e0578063a22a8b2914610283578063a5a6d6f7146102b1578063c7bf8cf5146102f357610093565b806317d7de7c14610098578063235b6ea11461011b5780632fb565e8146101395780637a9d075814610171575b600080fd5b6100a0610396565b6040518080602001828103825283818151815260200191508051906020019080838360005b838110156100e05780820151818401526020810190506100c5565b50505050905090810190601f16801561010d5780820380516001836020036101000a031916815260200191505b509250505060405180910390f35b6101236103d3565b6040518082815260200191505060405180910390f35b61016f6004803603604081101561014f57600080fd5b8101908080359060200190929190803590602001909291905050506103d9565b005b610179610518565b604051808273ffffffffffffffffffffffffffffffffffffffff16815260200191505060405180910390f35b6101ad61053e565b604051808381526020018273ffffffffffffffffffffffffffffffffffffffff1681526020019250505060405180910390f35b61022c600480360360408110156101f657600080fd5b81019080803573ffffffffffffffffffffffffffffffffffffffff1690602001909291908035906020019092919050505061056f565b6040518080602001828103825283818151815260200191508051906020019060200280838360005b8381101561026f578082015181840152602081019050610254565b505050509050019250505060405180910390f35b6102af6004803603602081101561029957600080fd5b810190808035906020019092919050505061077f565b005b6102dd600480360360208110156102c757600080fd5b81019080803590602001909291905050506108fc565b6040518082815260200191505060405180910390f35b61033f6004803603604081101561030957600080fd5b81019080803573ffffffffffffffffffffffffffffffffffffffff16906020019092919080359060200190929190505050610aec565b6040518080602001828103825283818151815260200191508051906020019060200280838360005b83811015610382578082015181840152602081019050610367565b505050509050019250505060405180910390f35b60606040518060400160405280601581526020017f50726576696f75734e5072696365557064617465730000000000000000000000815250905090565b60005481565b6000821015801561042b5750600260003373ffffffffffffffffffffffffffffffffffffffff1673ffffffffffffffffffffffffffffffffffffffff1681526020019081526020016000208054905082105b61049d576040517f08c379a000000000000000000000000000000000000000000000000000000000815260040180806020018281038252600d8152602001807f496e76616c696420696e6465780000000000000000000000000000000000000081525060200191505060405180910390fd5b600360003373ffffffffffffffffffffffffffffffffffffffff1673ffffffffffffffffffffffffffffffffffffffff16815260200190815260200160002060008381526020019081526020016000208190806001815401808255809150506001900390600052602060002001600090919091909150555050565b600160009054906101000a900473ffffffffffffffffffffffffffffffffffffffff1681565b600080600054600160009054906101000a900473ffffffffffffffffffffffffffffffffffffffff16915091509091565b6060600073ffffffffffffffffffffffffffffffffffffffff168373ffffffffffffffffffffffffffffffffffffffff161415610614576040517f08c379a000000000000000000000000000000000000000000000000000000000815260040180806020018281038252601b8152602001807f496e76616c69642074726164696e6720626f742061646472657373000000000081525060200191505060405180910390fd5b600082101580156106665750600260008473ffffffffffffffffffffffffffffffffffffffff1673ffffffffffffffffffffffffffffffffffffffff1681526020019081526020016000208054905082105b6106d8576040517f08c379a000000000000000000000000000000000000000000000000000000000815260040180806020018281038252600d8152602001807f496e76616c696420696e6465780000000000000000000000000000000000000081525060200191505060405180910390fd5b600360008473ffffffffffffffffffffffffffffffffffffffff1673ffffffffffffffffffffffffffffffffffffffff168152602001908152602001600020600083815260200190815260200160002080548060200260200160405190810160405280929190818152602001828054801561077257602002820191906000526020600020905b81548152602001906001019080831161075e575b5050505050905092915050565b600160009054906101000a900473ffffffffffffffffffffffffffffffffffffffff1673ffffffffffffffffffffffffffffffffffffffff163373ffffffffffffffffffffffffffffffffffffffff1614610825576040517f08c379a0000000000000000000000000000000000000000000000000000000008152600401808060200182810382526025815260200180610ed46025913960400191505060405180910390fd5b600081101561089c576040517f08c379a000000000000000000000000000000000000000000000000000000000815260040180806020018281038252601f8152602001807f5072696365206d757374206265206120706f736974697665206e756d6265720081525060200191505060405180910390fd5b806000819055503073ffffffffffffffffffffffffffffffffffffffff167ff55d9f2dbb0ce58a822e950a56c6b24b103fae2b7633f87087fc24beba1754548242604051808381526020018281526020019250505060405180910390a250565b600060018211801561090f575060c88211155b610981576040517f08c379a000000000000000000000000000000000000000000000000000000000815260040180806020018281038252601f8152602001807f506172616d206d757374206265206265747765656e203220616e64203230300081525060200191505060405180910390fd5b600260003373ffffffffffffffffffffffffffffffffffffffff1673ffffffffffffffffffffffffffffffffffffffff16815260200190815260200160002060405180604001604052808460ff16815260200160007effffffffffffffffffffffffffffffffffffffffffffffffffffffffffffff168152509080600181540180825580915050600190039060005260206000200160009091909190915060008201518160000160006101000a81548160ff021916908360ff16021790555060208201518160000160016101000a8154817effffffffffffffffffffffffffffffffffffffffffffffffffffffffffffff02191690837effffffffffffffffffffffffffffffffffffffffffffffffffffffffffffff16021790555050506001600260003373ffffffffffffffffffffffffffffffffffffffff1673ffffffffffffffffffffffffffffffffffffffff16815260200190815260200160002080549050039050919050565b6060600073ffffffffffffffffffffffffffffffffffffffff168373ffffffffffffffffffffffffffffffffffffffff161415610b91576040517f08c379a000000000000000000000000000000000000000000000000000000000815260040180806020018281038252601b8152602001807f496e76616c69642074726164696e6720626f742061646472657373000000000081525060200191505060405180910390fd5b60008210158015610be35750600260008473ffffffffffffffffffffffffffffffffffffffff1673ffffffffffffffffffffffffffffffffffffffff1681526020019081526020016000208054905082105b610c55576040517f08c379a000000000000000000000000000000000000000000000000000000000815260040180806020018281038252600d8152602001807f496e76616c696420696e6465780000000000000000000000000000000000000081525060200191505060405180910390fd5b6000600260008573ffffffffffffffffffffffffffffffffffffffff1673ffffffffffffffffffffffffffffffffffffffff1681526020019081526020016000208381548110610ca157fe5b9060005260206000200160000160009054906101000a900460ff1660ff16600360008673ffffffffffffffffffffffffffffffffffffffff1673ffffffffffffffffffffffffffffffffffffffff1681526020019081526020016000206000858152602001908152602001600020805490501015610d20576000610d89565b600260008573ffffffffffffffffffffffffffffffffffffffff1673ffffffffffffffffffffffffffffffffffffffff1681526020019081526020016000208381548110610d6a57fe5b9060005260206000200160000160009054906101000a900460ff1660ff165b905060608167ffffffffffffffff81118015610da457600080fd5b50604051908082528060200260200182016040528015610dd35781602001602082028036833780820191505090505b50905060008290505b60018110610ec757600360008773ffffffffffffffffffffffffffffffffffffffff1673ffffffffffffffffffffffffffffffffffffffff168152602001908152602001600020600086815260200190815260200160002081600360008973ffffffffffffffffffffffffffffffffffffffff1673ffffffffffffffffffffffffffffffffffffffff1681526020019081526020016000206000888152602001908152602001600020805490500381548110610e9457fe5b90600052602060002001548282850381518110610ead57fe5b602002602001018181525050808060019003915050610ddc565b5080925050509291505056fe4f6e6c792074686520646576656c6f7065722063616e206564697420746865207072696365a2646970667358221220d33e1a425b6e5c88047d1c6ee2886b201009882fed582bb01556eeeedbbfaeef64736f6c634300060c0033",
  "immutableReferences": {},
  "source": "pragma solidity >=0.5.0;\r\n\r\nimport './interfaces/IIndicator.sol';\r\n\r\ncontract PreviousNPriceUpdates is IIndicator {\r\n\r\n    struct State {\r\n        uint8 N;\r\n        uint248 currentValue;\r\n    }\r\n\r\n    uint public _price;\r\n    address public _developer;\r\n\r\n    mapping (address => State[]) private _tradingBotStates;\r\n    mapping (address => mapping (uint => uint[])) private _tradingBotHistory;\r\n\r\n    constructor(uint price) public {\r\n        require(price >= 0, \"Price must be greater than 0\");\r\n\r\n        _price = price;\r\n        _developer = msg.sender;\r\n    }\r\n\r\n    /**\r\n    * @dev Returns the name of the indicator\r\n    * @return string Name of the indicator\r\n    */\r\n    function getName() public pure override returns (string memory) {\r\n        return \"PreviousNPriceUpdates\";\r\n    }\r\n\r\n    /**\r\n    * @dev Returns the sale price and the developer of the indicator\r\n    * @return (uint, address) Sale price of the indicator and the indicator's developer\r\n    */\r\n    function getPriceAndDeveloper() public view override returns (uint, address) {\r\n        return (_price, _developer);\r\n    }\r\n\r\n    /**\r\n    * @dev Updates the sale price of the indicator; meant to be called by the indicator's developer\r\n    * @param newPrice The new sale price of the indicator\r\n    */\r\n    function editPrice(uint newPrice) external override {\r\n        require(msg.sender == _developer, \"Only the developer can edit the price\");\r\n        require(newPrice >= 0, \"Price must be a positive number\");\r\n\r\n        _price = newPrice;\r\n\r\n        emit UpdatedPrice(address(this), newPrice, block.timestamp);\r\n    }\r\n\r\n    /**\r\n    * @dev Initializes the state of the trading bot; meant to be called by a trading bot\r\n    * @param param Value of the indicator's parameter\r\n    * @return uint Index of trading bot instance in State array\r\n    */\r\n    function addTradingBot(uint param) public override returns (uint) {\r\n        require(param > 1 && param <= 200, \"Param must be between 2 and 200\");\r\n\r\n        _tradingBotStates[msg.sender].push(State(uint8(param), 0));\r\n\r\n        return _tradingBotStates[msg.sender].length - 1;\r\n    }\r\n\r\n    /**\r\n    * @dev Updates the indicator's state based on the latest price feed update\r\n    * @param index Index in trading bot's entry/exit rule array\r\n    * @param latestPrice The latest price from oracle price feed\r\n    */\r\n    function update(uint index, uint latestPrice) public override {\r\n        require(index >= 0 && index < _tradingBotStates[msg.sender].length, \"Invalid index\");\r\n\r\n        _tradingBotHistory[msg.sender][index].push(latestPrice);\r\n    }   \r\n\r\n    /**\r\n    * @dev Given a trading bot address, returns the indicator value for that bot\r\n    * @param tradingBotAddress Address of trading bot\r\n    * @param index Index in trading bot's entry/exit rule array\r\n    * @return uint[] Indicator value for the given trading bot\r\n    */\r\n    function getValue(address tradingBotAddress, uint index) public view override returns (uint[] memory) {\r\n        require(tradingBotAddress != address(0), \"Invalid trading bot address\");\r\n        require(index >= 0 && index < _tradingBotStates[tradingBotAddress].length, \"Invalid index\");\r\n        \r\n        uint length = (_tradingBotHistory[tradingBotAddress][index].length >= uint256(_tradingBotStates[tradingBotAddress][index].N)) ? uint256(_tradingBotStates[tradingBotAddress][index].N) : 0;\r\n        uint[] memory temp = new uint[](length);\r\n\r\n        for (uint i = length; i >= 1; i--)\r\n        {\r\n            temp[length - i] = _tradingBotHistory[tradingBotAddress][index][_tradingBotHistory[tradingBotAddress][index].length - i];\r\n        }\r\n\r\n        return temp;\r\n    }\r\n\r\n    /**\r\n    * @dev Given a trading bot address, returns the indicator value history for that bot\r\n    * @param tradingBotAddress Address of trading bot\r\n    * @param index Index in trading bot's entry/exit rule array\r\n    * @return uint[] Indicator value history for the given trading bot\r\n    */\r\n    function getHistory(address tradingBotAddress, uint index) public view override returns (uint[] memory) {\r\n        require(tradingBotAddress != address(0), \"Invalid trading bot address\");\r\n        require(index >= 0 && index < _tradingBotStates[tradingBotAddress].length, \"Invalid index\");\r\n\r\n        return _tradingBotHistory[tradingBotAddress][index];\r\n    }\r\n}",
  "sourcePath": "C:/Users/xavie/OneDrive/Desktop/TradeGen/Github/tradegen/contracts/PreviousNPriceUpdates.sol",
  "compiler": {
    "name": "solc",
    "version": "0.6.12+commit.27d51765.Emscripten.clang"
  },
  "schemaVersion": "3.4.1",
  "updatedAt": "2021-07-02T23:55:09.669Z",
  "devdoc": {
    "kind": "dev",
    "methods": {
      "addTradingBot(uint256)": {
        "details": "Initializes the state of the trading bot; meant to be called by a trading bot",
        "params": {
          "param": "Value of the indicator's parameter"
        },
        "returns": {
          "_0": "uint Index of trading bot instance in State array"
        }
      },
      "editPrice(uint256)": {
        "details": "Updates the sale price of the indicator; meant to be called by the indicator's developer",
        "params": {
          "newPrice": "The new sale price of the indicator"
        }
      },
      "getHistory(address,uint256)": {
        "details": "Given a trading bot address, returns the indicator value history for that bot",
        "params": {
          "index": "Index in trading bot's entry/exit rule array",
          "tradingBotAddress": "Address of trading bot"
        },
        "returns": {
          "_0": "uint[] Indicator value history for the given trading bot"
        }
      },
      "getName()": {
        "details": "Returns the name of the indicator",
        "returns": {
          "_0": "string Name of the indicator"
        }
      },
      "getPriceAndDeveloper()": {
        "details": "Returns the sale price and the developer of the indicator",
        "returns": {
          "_0": "(uint, address) Sale price of the indicator and the indicator's developer"
        }
      },
      "getValue(address,uint256)": {
        "details": "Given a trading bot address, returns the indicator value for that bot",
        "params": {
          "index": "Index in trading bot's entry/exit rule array",
          "tradingBotAddress": "Address of trading bot"
        },
        "returns": {
          "_0": "uint[] Indicator value for the given trading bot"
        }
      },
      "update(uint256,uint256)": {
        "details": "Updates the indicator's state based on the latest price feed update",
        "params": {
          "index": "Index in trading bot's entry/exit rule array",
          "latestPrice": "The latest price from oracle price feed"
        }
      }
    },
    "version": 1
  },
  "userdoc": {
    "kind": "user",
    "methods": {},
    "version": 1
  }
}