{
  "contractName": "Settings",
  "abi": [
    {
      "inputs": [],
      "stateMutability": "nonpayable",
      "type": "constructor"
    },
    {
      "anonymous": false,
      "inputs": [
        {
          "indexed": true,
          "internalType": "address",
          "name": "previousOwner",
          "type": "address"
        },
        {
          "indexed": true,
          "internalType": "address",
          "name": "newOwner",
          "type": "address"
        }
      ],
      "name": "OwnershipTransferred",
      "type": "event"
    },
    {
      "anonymous": false,
      "inputs": [
        {
          "indexed": false,
          "internalType": "string",
          "name": "parameter",
          "type": "string"
        },
        {
          "indexed": false,
          "internalType": "uint256",
          "name": "oldValue",
          "type": "uint256"
        },
        {
          "indexed": false,
          "internalType": "uint256",
          "name": "newValue",
          "type": "uint256"
        },
        {
          "indexed": false,
          "internalType": "uint256",
          "name": "timestamp",
          "type": "uint256"
        }
      ],
      "name": "SetParameterValue",
      "type": "event"
    },
    {
      "inputs": [],
      "name": "isOwner",
      "outputs": [
        {
          "internalType": "bool",
          "name": "",
          "type": "bool"
        }
      ],
      "stateMutability": "view",
      "type": "function"
    },
    {
      "inputs": [],
      "name": "owner",
      "outputs": [
        {
          "internalType": "address",
          "name": "",
          "type": "address"
        }
      ],
      "stateMutability": "view",
      "type": "function"
    },
    {
      "inputs": [
        {
          "internalType": "string",
          "name": "",
          "type": "string"
        }
      ],
      "name": "parameters",
      "outputs": [
        {
          "internalType": "uint256",
          "name": "",
          "type": "uint256"
        }
      ],
      "stateMutability": "view",
      "type": "function"
    },
    {
      "inputs": [],
      "name": "renounceOwnership",
      "outputs": [],
      "stateMutability": "nonpayable",
      "type": "function"
    },
    {
      "inputs": [
        {
          "internalType": "address",
          "name": "newOwner",
          "type": "address"
        }
      ],
      "name": "transferOwnership",
      "outputs": [],
      "stateMutability": "nonpayable",
      "type": "function"
    },
    {
      "inputs": [
        {
          "internalType": "string",
          "name": "parameter",
          "type": "string"
        }
      ],
      "name": "getParameterValue",
      "outputs": [
        {
          "internalType": "uint256",
          "name": "",
          "type": "uint256"
        }
      ],
      "stateMutability": "view",
      "type": "function"
    },
    {
      "inputs": [
        {
          "internalType": "string",
          "name": "parameter",
          "type": "string"
        },
        {
          "internalType": "uint256",
          "name": "newValue",
          "type": "uint256"
        }
      ],
      "name": "setParameterValue",
      "outputs": [],
      "stateMutability": "nonpayable",
      "type": "function"
    }
  ],
  "bytecode": "0x608060405234801561001057600080fd5b50336000806101000a81548173ffffffffffffffffffffffffffffffffffffffff021916908373ffffffffffffffffffffffffffffffffffffffff16021790555060008054906101000a900473ffffffffffffffffffffffffffffffffffffffff1673ffffffffffffffffffffffffffffffffffffffff16600073ffffffffffffffffffffffffffffffffffffffff167f8be0079c531659141344cd1fd0a4f28419497f9722a3daafe3b4186f6b6457e060405160405180910390a36108dd806100db6000396000f3fe608060405234801561001057600080fd5b506004361061007d5760003560e01c80638da5cb5b1161005b5780638da5cb5b1461022a5780638f32d59b1461025e578063f2fde38b1461027e578063f74987cb146102c25761007d565b8063017dcc701461008257806328a2176f14610151578063715018a614610220575b600080fd5b61013b6004803603602081101561009857600080fd5b81019080803590602001906401000000008111156100b557600080fd5b8201836020820111156100c757600080fd5b803590602001918460018302840111640100000000831117156100e957600080fd5b91908080601f016020809104026020016040519081016040528093929190818152602001838380828437600081840152601f19601f820116905080830192505050505050509192919290505050610387565b6040518082815260200191505060405180910390f35b61020a6004803603602081101561016757600080fd5b810190808035906020019064010000000081111561018457600080fd5b82018360208201111561019657600080fd5b803590602001918460018302840111640100000000831117156101b857600080fd5b91908080601f016020809104026020016040519081016040528093929190818152602001838380828437600081840152601f19601f8201169050808301925050505050505091929192905050506103b5565b6040518082815260200191505060405180910390f35b610228610428565b005b6102326104f7565b604051808273ffffffffffffffffffffffffffffffffffffffff16815260200191505060405180910390f35b610266610520565b60405180821515815260200191505060405180910390f35b6102c06004803603602081101561029457600080fd5b81019080803573ffffffffffffffffffffffffffffffffffffffff169060200190929190505050610577565b005b610385600480360360408110156102d857600080fd5b81019080803590602001906401000000008111156102f557600080fd5b82018360208201111561030757600080fd5b8035906020019184600183028401116401000000008311171561032957600080fd5b91908080601f016020809104026020016040519081016040528093929190818152602001838380828437600081840152601f19601f82011690508083019250505050505050919291929080359060200190929190505050610594565b005b6001818051602081018201805184825260208301602085012081835280955050505050506000915090505481565b60006001826040518082805190602001908083835b602083106103ed57805182526020820191506020810190506020830392506103ca565b6001836020036101000a0380198251168184511680821785525050505050509050019150509081526020016040518091039020549050919050565b610430610520565b61043957600080fd5b600073ffffffffffffffffffffffffffffffffffffffff1660008054906101000a900473ffffffffffffffffffffffffffffffffffffffff1673ffffffffffffffffffffffffffffffffffffffff167f8be0079c531659141344cd1fd0a4f28419497f9722a3daafe3b4186f6b6457e060405160405180910390a360008060006101000a81548173ffffffffffffffffffffffffffffffffffffffff021916908373ffffffffffffffffffffffffffffffffffffffff160217905550565b60008060009054906101000a900473ffffffffffffffffffffffffffffffffffffffff16905090565b60008060009054906101000a900473ffffffffffffffffffffffffffffffffffffffff1673ffffffffffffffffffffffffffffffffffffffff163373ffffffffffffffffffffffffffffffffffffffff1614905090565b61057f610520565b61058857600080fd5b610591816107b0565b50565b61059c610520565b6105a557600080fd5b6000811161061b576040517f08c379a00000000000000000000000000000000000000000000000000000000081526004018080602001828103825260188152602001807f56616c75652063616e6e6f74206265206e65676174697665000000000000000081525060200191505060405180910390fd5b60006001836040518082805190602001908083835b602083106106535780518252602082019150602081019050602083039250610630565b6001836020036101000a0380198251168184511680821785525050505050509050019150509081526020016040518091039020549050816001846040518082805190602001908083835b602083106106c0578051825260208201915060208101905060208303925061069d565b6001836020036101000a0380198251168184511680821785525050505050509050019150509081526020016040518091039020819055507fff1f01d7130c893ebdd39a4de0117ce4ff043cc426ee3da02a63d26c83f0cf9a838284426040518080602001858152602001848152602001838152602001828103825286818151815260200191508051906020019080838360005b8381101561076e578082015181840152602081019050610753565b50505050905090810190601f16801561079b5780820380516001836020036101000a031916815260200191505b509550505050505060405180910390a1505050565b600073ffffffffffffffffffffffffffffffffffffffff168173ffffffffffffffffffffffffffffffffffffffff1614156107ea57600080fd5b8073ffffffffffffffffffffffffffffffffffffffff1660008054906101000a900473ffffffffffffffffffffffffffffffffffffffff1673ffffffffffffffffffffffffffffffffffffffff167f8be0079c531659141344cd1fd0a4f28419497f9722a3daafe3b4186f6b6457e060405160405180910390a3806000806101000a81548173ffffffffffffffffffffffffffffffffffffffff021916908373ffffffffffffffffffffffffffffffffffffffff1602179055505056fea2646970667358221220d1bc8bc9a6cba0a7fe04b08688bc76fe8499c4a648b81d706a5b78c21e1b011664736f6c63430007060033",
  "immutableReferences": {},
  "source": "// SPDX-License-Identifier: MIT\r\n\r\npragma solidity >=0.7.6;\r\n\r\n//Interfaces\r\nimport './interfaces/ISettings.sol';\r\n\r\n//Libraries\r\nimport './libraries/SafeMath.sol';\r\n\r\n//Inheritance\r\nimport './Ownable.sol';\r\n\r\ncontract Settings is ISettings, Ownable {\r\n    using SafeMath for uint;\r\n\r\n    mapping (string => uint) public parameters;\r\n\r\n    /**\r\n    * @notice Initial parameters and values:\r\n    *         WeeklyLPStakingRewards - 500,000 TGEN; \r\n    *         WeeklyStakingFarmRewards - 500,000 TGEN; \r\n    *         WeeklyStableCoinStakingRewards - 500,000 TGEN;\r\n    *         WeeklyStakingRewards - 500,000 TGEN; \r\n    *         TransactionFee - 0.3%;\r\n    *         VoteLimit - 10;\r\n    *         VotingReward - 3 TGEN;\r\n    *         StrategyApprovalThreshold - 80%;\r\n    *         MaximumNumberOfEntryRules - 7;\r\n    *         MaximumNumberOfExitRules - 7;\r\n    *         MaximumNumberOfPoolsPerUser - 2;\r\n    *         MaximumPerformanceFee - 30% (3000 / 10000);\r\n    *         MaximumNumberOfPositionsInPool - 6;\r\n    *         InterestRateOnLeveragedAssets - 4%;\r\n    *         InterestRateOnLeveragedLiquidityPositions - 3%;\r\n    *         LiquidationFee - 5%;\r\n    *         TargetInsuranceFundAllocation - 50,000,000 TGEN;\r\n    *         UBEKeeperReward - 0.1%;\r\n    */\r\n    constructor() Ownable() {}\r\n\r\n    /* ========== VIEWS ========== */\r\n\r\n    /**\r\n    * @dev Given the name of a parameter, returns the value of the parameter\r\n    * @param parameter The name of the parameter to get value for\r\n    * @return uint The value of the given parameter\r\n    */\r\n    function getParameterValue(string memory parameter) public view override returns(uint) {\r\n        return parameters[parameter];\r\n    }\r\n\r\n    /* ========== RESTRICTED FUNCTIONS ========== */\r\n\r\n    /**\r\n    * @dev Updates the address for the given contract; meant to be called by Settings contract owner\r\n    * @param parameter The name of the parameter to change\r\n    * @param newValue The new value of the given parameter\r\n    */\r\n    function setParameterValue(string memory parameter, uint newValue) external onlyOwner {\r\n        require(newValue > 0, \"Value cannot be negative\");\r\n\r\n        uint oldValue = parameters[parameter];\r\n        parameters[parameter] = newValue;\r\n\r\n        emit SetParameterValue(parameter, oldValue, newValue, block.timestamp);\r\n    }\r\n\r\n    /* ========== MODIFIERS ========== */\r\n\r\n    modifier isValidAddress(address addressToCheck) {\r\n        require(addressToCheck != address(0), \"Address is not valid\");\r\n        _;\r\n    }\r\n\r\n    /* ========== EVENTS ========== */\r\n\r\n    event SetParameterValue(string parameter,uint oldValue, uint newValue, uint timestamp);\r\n}",
  "sourcePath": "C:/Users/xavie/OneDrive/Desktop/TradeGen/Github/tradegen-protocol/contracts/Settings.sol",
  "compiler": {
    "name": "solc",
    "version": "0.7.6+commit.7338295f.Emscripten.clang"
  },
  "schemaVersion": "3.4.1",
  "updatedAt": "2021-08-20T15:22:56.765Z",
  "devdoc": {
    "kind": "dev",
    "methods": {
      "getParameterValue(string)": {
        "details": "Given the name of a parameter, returns the value of the parameter",
        "params": {
          "parameter": "The name of the parameter to get value for"
        },
        "returns": {
          "_0": "uint The value of the given parameter"
        }
      },
      "isOwner()": {
        "returns": {
          "_0": "true if `msg.sender` is the owner of the contract."
        }
      },
      "owner()": {
        "returns": {
          "_0": "the address of the owner."
        }
      },
      "renounceOwnership()": {
        "details": "Allows the current owner to relinquish control of the contract."
      },
      "setParameterValue(string,uint256)": {
        "details": "Updates the address for the given contract; meant to be called by Settings contract owner",
        "params": {
          "newValue": "The new value of the given parameter",
          "parameter": "The name of the parameter to change"
        }
      },
      "transferOwnership(address)": {
        "details": "Allows the current owner to transfer control of the contract to a newOwner.",
        "params": {
          "newOwner": "The address to transfer ownership to."
        }
      }
    },
    "version": 1
  },
  "userdoc": {
    "kind": "user",
    "methods": {
      "constructor": {
        "notice": "Initial parameters and values:         WeeklyLPStakingRewards - 500,000 TGEN;          WeeklyStakingFarmRewards - 500,000 TGEN;          WeeklyStableCoinStakingRewards - 500,000 TGEN;         WeeklyStakingRewards - 500,000 TGEN;          TransactionFee - 0.3%;         VoteLimit - 10;         VotingReward - 3 TGEN;         StrategyApprovalThreshold - 80%;         MaximumNumberOfEntryRules - 7;         MaximumNumberOfExitRules - 7;         MaximumNumberOfPoolsPerUser - 2;         MaximumPerformanceFee - 30% (3000 / 10000);         MaximumNumberOfPositionsInPool - 6;         InterestRateOnLeveragedAssets - 4%;         InterestRateOnLeveragedLiquidityPositions - 3%;         LiquidationFee - 5%;         TargetInsuranceFundAllocation - 50,000,000 TGEN;         UBEKeeperReward - 0.1%;"
      },
      "renounceOwnership()": {
        "notice": "Renouncing to ownership will leave the contract without an owner. It will not be possible to call the functions with the `onlyOwner` modifier anymore."
      }
    },
    "version": 1
  }
}