{
  "contractName": "Settings",
  "abi": [
    {
      "inputs": [],
      "stateMutability": "nonpayable",
      "type": "constructor"
    },
    {
      "anonymous": false,
      "inputs": [
        {
          "indexed": false,
          "internalType": "address",
          "name": "currencyKey",
          "type": "address"
        },
        {
          "indexed": false,
          "internalType": "uint256",
          "name": "timestamp",
          "type": "uint256"
        }
      ],
      "name": "AddedCurrencyKey",
      "type": "event"
    },
    {
      "anonymous": false,
      "inputs": [
        {
          "indexed": false,
          "internalType": "address",
          "name": "oracleAddress",
          "type": "address"
        },
        {
          "indexed": false,
          "internalType": "uint256",
          "name": "timestamp",
          "type": "uint256"
        }
      ],
      "name": "AddedOracleAPIAddress",
      "type": "event"
    },
    {
      "anonymous": false,
      "inputs": [
        {
          "indexed": true,
          "internalType": "address",
          "name": "previousOwner",
          "type": "address"
        },
        {
          "indexed": true,
          "internalType": "address",
          "name": "newOwner",
          "type": "address"
        }
      ],
      "name": "OwnershipTransferred",
      "type": "event"
    },
    {
      "anonymous": false,
      "inputs": [
        {
          "indexed": false,
          "internalType": "string",
          "name": "parameter",
          "type": "string"
        },
        {
          "indexed": false,
          "internalType": "uint256",
          "name": "oldValue",
          "type": "uint256"
        },
        {
          "indexed": false,
          "internalType": "uint256",
          "name": "newValue",
          "type": "uint256"
        },
        {
          "indexed": false,
          "internalType": "uint256",
          "name": "timestamp",
          "type": "uint256"
        }
      ],
      "name": "SetParameterValue",
      "type": "event"
    },
    {
      "anonymous": false,
      "inputs": [
        {
          "indexed": false,
          "internalType": "string",
          "name": "currencySymbol",
          "type": "string"
        },
        {
          "indexed": false,
          "internalType": "address",
          "name": "oldCurrencyKey",
          "type": "address"
        },
        {
          "indexed": false,
          "internalType": "address",
          "name": "newCurrencyKey",
          "type": "address"
        },
        {
          "indexed": false,
          "internalType": "uint256",
          "name": "timestamp",
          "type": "uint256"
        }
      ],
      "name": "UpdatedCurrencyKey",
      "type": "event"
    },
    {
      "anonymous": false,
      "inputs": [
        {
          "indexed": false,
          "internalType": "string",
          "name": "oracleName",
          "type": "string"
        },
        {
          "indexed": false,
          "internalType": "address",
          "name": "oldOracleAddress",
          "type": "address"
        },
        {
          "indexed": false,
          "internalType": "address",
          "name": "newOracleAddress",
          "type": "address"
        },
        {
          "indexed": false,
          "internalType": "uint256",
          "name": "timestamp",
          "type": "uint256"
        }
      ],
      "name": "UpdatedOracleAPIAddress",
      "type": "event"
    },
    {
      "anonymous": false,
      "inputs": [
        {
          "indexed": false,
          "internalType": "address",
          "name": "oldAddress",
          "type": "address"
        },
        {
          "indexed": false,
          "internalType": "address",
          "name": "stableCurrencyAddress",
          "type": "address"
        },
        {
          "indexed": false,
          "internalType": "uint256",
          "name": "timestamp",
          "type": "uint256"
        }
      ],
      "name": "UpdatedStableCoinAddress",
      "type": "event"
    },
    {
      "inputs": [
        {
          "internalType": "uint256",
          "name": "",
          "type": "uint256"
        }
      ],
      "name": "availableCurrencies",
      "outputs": [
        {
          "internalType": "address",
          "name": "",
          "type": "address"
        }
      ],
      "stateMutability": "view",
      "type": "function"
    },
    {
      "inputs": [],
      "name": "cUSDAddress",
      "outputs": [
        {
          "internalType": "address",
          "name": "",
          "type": "address"
        }
      ],
      "stateMutability": "view",
      "type": "function"
    },
    {
      "inputs": [
        {
          "internalType": "address",
          "name": "",
          "type": "address"
        }
      ],
      "name": "currencyKeyToIndex",
      "outputs": [
        {
          "internalType": "uint256",
          "name": "",
          "type": "uint256"
        }
      ],
      "stateMutability": "view",
      "type": "function"
    },
    {
      "inputs": [
        {
          "internalType": "address",
          "name": "",
          "type": "address"
        }
      ],
      "name": "currencyKeyToSymbol",
      "outputs": [
        {
          "internalType": "string",
          "name": "",
          "type": "string"
        }
      ],
      "stateMutability": "view",
      "type": "function"
    },
    {
      "inputs": [
        {
          "internalType": "string",
          "name": "",
          "type": "string"
        }
      ],
      "name": "currencySymbolToAddress",
      "outputs": [
        {
          "internalType": "address",
          "name": "",
          "type": "address"
        }
      ],
      "stateMutability": "view",
      "type": "function"
    },
    {
      "inputs": [],
      "name": "isOwner",
      "outputs": [
        {
          "internalType": "bool",
          "name": "",
          "type": "bool"
        }
      ],
      "stateMutability": "view",
      "type": "function"
    },
    {
      "inputs": [
        {
          "internalType": "address",
          "name": "",
          "type": "address"
        }
      ],
      "name": "isValidOracleAPIAddress",
      "outputs": [
        {
          "internalType": "uint256",
          "name": "",
          "type": "uint256"
        }
      ],
      "stateMutability": "view",
      "type": "function"
    },
    {
      "inputs": [
        {
          "internalType": "uint256",
          "name": "",
          "type": "uint256"
        }
      ],
      "name": "oracleAPIAddresses",
      "outputs": [
        {
          "internalType": "address",
          "name": "",
          "type": "address"
        }
      ],
      "stateMutability": "view",
      "type": "function"
    },
    {
      "inputs": [
        {
          "internalType": "address",
          "name": "",
          "type": "address"
        }
      ],
      "name": "oracleAddressToName",
      "outputs": [
        {
          "internalType": "string",
          "name": "",
          "type": "string"
        }
      ],
      "stateMutability": "view",
      "type": "function"
    },
    {
      "inputs": [],
      "name": "owner",
      "outputs": [
        {
          "internalType": "address",
          "name": "",
          "type": "address"
        }
      ],
      "stateMutability": "view",
      "type": "function"
    },
    {
      "inputs": [
        {
          "internalType": "string",
          "name": "",
          "type": "string"
        }
      ],
      "name": "parameters",
      "outputs": [
        {
          "internalType": "uint256",
          "name": "",
          "type": "uint256"
        }
      ],
      "stateMutability": "view",
      "type": "function"
    },
    {
      "inputs": [],
      "name": "renounceOwnership",
      "outputs": [],
      "stateMutability": "nonpayable",
      "type": "function"
    },
    {
      "inputs": [
        {
          "internalType": "address",
          "name": "newOwner",
          "type": "address"
        }
      ],
      "name": "transferOwnership",
      "outputs": [],
      "stateMutability": "nonpayable",
      "type": "function"
    },
    {
      "inputs": [
        {
          "internalType": "uint256",
          "name": "index",
          "type": "uint256"
        }
      ],
      "name": "getCurrencyKeyFromIndex",
      "outputs": [
        {
          "internalType": "address",
          "name": "",
          "type": "address"
        }
      ],
      "stateMutability": "view",
      "type": "function"
    },
    {
      "inputs": [
        {
          "internalType": "string",
          "name": "symbol",
          "type": "string"
        }
      ],
      "name": "getCurrencyKeyFromSymbol",
      "outputs": [
        {
          "internalType": "address",
          "name": "",
          "type": "address"
        }
      ],
      "stateMutability": "view",
      "type": "function"
    },
    {
      "inputs": [
        {
          "internalType": "string",
          "name": "parameter",
          "type": "string"
        }
      ],
      "name": "getParameterValue",
      "outputs": [
        {
          "internalType": "uint256",
          "name": "",
          "type": "uint256"
        }
      ],
      "stateMutability": "view",
      "type": "function"
    },
    {
      "inputs": [],
      "name": "getAvailableCurrencies",
      "outputs": [
        {
          "internalType": "address[]",
          "name": "",
          "type": "address[]"
        }
      ],
      "stateMutability": "view",
      "type": "function"
    },
    {
      "inputs": [
        {
          "internalType": "address",
          "name": "currencyKey",
          "type": "address"
        }
      ],
      "name": "getCurrencySymbol",
      "outputs": [
        {
          "internalType": "string",
          "name": "",
          "type": "string"
        }
      ],
      "stateMutability": "view",
      "type": "function"
    },
    {
      "inputs": [],
      "name": "getStableCoinAddress",
      "outputs": [
        {
          "internalType": "address",
          "name": "",
          "type": "address"
        }
      ],
      "stateMutability": "view",
      "type": "function"
    },
    {
      "inputs": [],
      "name": "getOracleAPIs",
      "outputs": [
        {
          "internalType": "address[]",
          "name": "",
          "type": "address[]"
        }
      ],
      "stateMutability": "view",
      "type": "function"
    },
    {
      "inputs": [
        {
          "internalType": "address",
          "name": "oracleAddress",
          "type": "address"
        }
      ],
      "name": "getOracleAPIName",
      "outputs": [
        {
          "internalType": "string",
          "name": "",
          "type": "string"
        }
      ],
      "stateMutability": "view",
      "type": "function"
    },
    {
      "inputs": [
        {
          "internalType": "address",
          "name": "currencyKey",
          "type": "address"
        }
      ],
      "name": "checkIfCurrencyIsAvailable",
      "outputs": [
        {
          "internalType": "bool",
          "name": "",
          "type": "bool"
        }
      ],
      "stateMutability": "view",
      "type": "function"
    },
    {
      "inputs": [
        {
          "internalType": "string",
          "name": "parameter",
          "type": "string"
        },
        {
          "internalType": "uint256",
          "name": "newValue",
          "type": "uint256"
        }
      ],
      "name": "setParameterValue",
      "outputs": [],
      "stateMutability": "nonpayable",
      "type": "function"
    },
    {
      "inputs": [
        {
          "internalType": "address",
          "name": "stableCoinAddress",
          "type": "address"
        }
      ],
      "name": "setStableCoinAddress",
      "outputs": [],
      "stateMutability": "nonpayable",
      "type": "function"
    },
    {
      "inputs": [
        {
          "internalType": "string",
          "name": "currencySymbol",
          "type": "string"
        },
        {
          "internalType": "address",
          "name": "newCurrencyKey",
          "type": "address"
        }
      ],
      "name": "updateCurrencyKey",
      "outputs": [],
      "stateMutability": "nonpayable",
      "type": "function"
    },
    {
      "inputs": [
        {
          "internalType": "string",
          "name": "currencySymbol",
          "type": "string"
        },
        {
          "internalType": "address",
          "name": "currencyKey",
          "type": "address"
        }
      ],
      "name": "addCurrencyKey",
      "outputs": [],
      "stateMutability": "nonpayable",
      "type": "function"
    },
    {
      "inputs": [
        {
          "internalType": "address",
          "name": "oldOracleAddress",
          "type": "address"
        },
        {
          "internalType": "address",
          "name": "newOracleAddress",
          "type": "address"
        }
      ],
      "name": "updateOracleAPIAddress",
      "outputs": [],
      "stateMutability": "nonpayable",
      "type": "function"
    },
    {
      "inputs": [
        {
          "internalType": "string",
          "name": "name",
          "type": "string"
        },
        {
          "internalType": "address",
          "name": "oracleAddress",
          "type": "address"
        }
      ],
      "name": "addOracleAPIAddress",
      "outputs": [],
      "stateMutability": "nonpayable",
      "type": "function"
    }
  ],
  "bytecode": "0x608060405234801561001057600080fd5b50336000806101000a81548173ffffffffffffffffffffffffffffffffffffffff021916908373ffffffffffffffffffffffffffffffffffffffff16021790555060008054906101000a900473ffffffffffffffffffffffffffffffffffffffff1673ffffffffffffffffffffffffffffffffffffffff16600073ffffffffffffffffffffffffffffffffffffffff167f8be0079c531659141344cd1fd0a4f28419497f9722a3daafe3b4186f6b6457e060405160405180910390a36137f5806100db6000396000f3fe608060405234801561001057600080fd5b50600436106101c35760003560e01c8063571a0885116100f95780638f32d59b11610097578063f2fde38b11610071578063f2fde38b14610e3c578063f3574a4c14610e80578063f559814b14610ed8578063f74987cb14610f37576101c3565b80638f32d59b14610d2b578063a673e94414610d4b578063be781b1c14610e08576101c3565b80637ba15ce9116100d35780637ba15ce914610be35780638055362314610c475780638da5cb5b14610c9f5780638ee3d0d214610cd3576101c3565b8063571a088514610a9a578063715018a614610af457806372be869d14610afe576101c3565b806344879b3b1161016657806352bf83e31161014057806352bf83e31461080b578063554c9b6a146108c8578063565bd77e14610985578063566b4a3514610a42576101c3565b806344879b3b1461068d5780634dfe56d9146106d157806350dfe2f014610730576101c3565b80631f695007116101a25780631f6950071461045757806328a2176f146105325780632b0e0ab3146106015780633ff574b614610659576101c3565b8062f6ec7a146101c8578063017dcc70146102ad5780631705cae81461037c575b600080fd5b610281600480360360208110156101de57600080fd5b81019080803590602001906401000000008111156101fb57600080fd5b82018360208201111561020d57600080fd5b8035906020019184600183028401116401000000008311171561022f57600080fd5b91908080601f016020809104026020016040519081016040528093929190818152602001838380828437600081840152601f19601f820116905080830192505050505050509192919290505050610ffc565b604051808273ffffffffffffffffffffffffffffffffffffffff16815260200191505060405180910390f35b610366600480360360208110156102c357600080fd5b81019080803590602001906401000000008111156102e057600080fd5b8201836020820111156102f257600080fd5b8035906020019184600183028401116401000000008311171561031457600080fd5b91908080601f016020809104026020016040519081016040528093929190818152602001838380828437600081840152601f19601f820116905080830192505050505050509192919290505050611045565b6040518082815260200191505060405180910390f35b6104556004803603604081101561039257600080fd5b81019080803590602001906401000000008111156103af57600080fd5b8201836020820111156103c157600080fd5b803590602001918460018302840111640100000000831117156103e357600080fd5b91908080601f016020809104026020016040519081016040528093929190818152602001838380828437600081840152601f19601f820116905080830192505050505050509192919290803573ffffffffffffffffffffffffffffffffffffffff169060200190929190505050611073565b005b6105306004803603604081101561046d57600080fd5b810190808035906020019064010000000081111561048a57600080fd5b82018360208201111561049c57600080fd5b803590602001918460018302840111640100000000831117156104be57600080fd5b91908080601f016020809104026020016040519081016040528093929190818152602001838380828437600081840152601f19601f820116905080830192505050505050509192919290803573ffffffffffffffffffffffffffffffffffffffff169060200190929190505050611337565b005b6105eb6004803603602081101561054857600080fd5b810190808035906020019064010000000081111561056557600080fd5b82018360208201111561057757600080fd5b8035906020019184600183028401116401000000008311171561059957600080fd5b91908080601f016020809104026020016040519081016040528093929190818152602001838380828437600081840152601f19601f820116905080830192505050505050509192919290505050611875565b6040518082815260200191505060405180910390f35b61062d6004803603602081101561061757600080fd5b81019080803590602001909291905050506118e8565b604051808273ffffffffffffffffffffffffffffffffffffffff16815260200191505060405180910390f35b61066161194c565b604051808273ffffffffffffffffffffffffffffffffffffffff16815260200191505060405180910390f35b6106cf600480360360208110156106a357600080fd5b81019080803573ffffffffffffffffffffffffffffffffffffffff169060200190929190505050611972565b005b6106d9611b07565b6040518080602001828103825283818151815260200191508051906020019060200280838360005b8381101561071c578082015181840152602081019050610701565b505050509050019250505060405180910390f35b6108096004803603604081101561074657600080fd5b810190808035906020019064010000000081111561076357600080fd5b82018360208201111561077557600080fd5b8035906020019184600183028401116401000000008311171561079757600080fd5b91908080601f016020809104026020016040519081016040528093929190818152602001838380828437600081840152601f19601f820116905080830192505050505050509192919290803573ffffffffffffffffffffffffffffffffffffffff169060200190929190505050611b95565b005b61084d6004803603602081101561082157600080fd5b81019080803573ffffffffffffffffffffffffffffffffffffffff1690602001909291905050506122b1565b6040518080602001828103825283818151815260200191508051906020019080838360005b8381101561088d578082015181840152602081019050610872565b50505050905090810190601f1680156108ba5780820380516001836020036101000a031916815260200191505b509250505060405180910390f35b61090a600480360360208110156108de57600080fd5b81019080803573ffffffffffffffffffffffffffffffffffffffff169060200190929190505050612361565b6040518080602001828103825283818151815260200191508051906020019080838360005b8381101561094a57808201518184015260208101905061092f565b50505050905090810190601f1680156109775780820380516001836020036101000a031916815260200191505b509250505060405180910390f35b6109c76004803603602081101561099b57600080fd5b81019080803573ffffffffffffffffffffffffffffffffffffffff16906020019092919050505061259c565b6040518080602001828103825283818151815260200191508051906020019080838360005b83811015610a075780820151818401526020810190506109ec565b50505050905090810190601f168015610a345780820380516001836020036101000a031916815260200191505b509250505060405180910390f35b610a8460048036036020811015610a5857600080fd5b81019080803573ffffffffffffffffffffffffffffffffffffffff16906020019092919050505061264c565b6040518082815260200191505060405180910390f35b610adc60048036036020811015610ab057600080fd5b81019080803573ffffffffffffffffffffffffffffffffffffffff169060200190929190505050612664565b60405180821515815260200191505060405180910390f35b610afc612755565b005b610bb760048036036020811015610b1457600080fd5b8101908080359060200190640100000000811115610b3157600080fd5b820183602082011115610b4357600080fd5b80359060200191846001830284011164010000000083111715610b6557600080fd5b91908080601f016020809104026020016040519081016040528093929190818152602001838380828437600081840152601f19601f820116905080830192505050505050509192919290505050612824565b604051808273ffffffffffffffffffffffffffffffffffffffff16815260200191505060405180910390f35b610c4560048036036040811015610bf957600080fd5b81019080803573ffffffffffffffffffffffffffffffffffffffff169060200190929190803573ffffffffffffffffffffffffffffffffffffffff1690602001909291905050506128b7565b005b610c7360048036036020811015610c5d57600080fd5b8101908080359060200190929190505050612eac565b604051808273ffffffffffffffffffffffffffffffffffffffff16815260200191505060405180910390f35b610ca7612ee8565b604051808273ffffffffffffffffffffffffffffffffffffffff16815260200191505060405180910390f35b610d1560048036036020811015610ce957600080fd5b81019080803573ffffffffffffffffffffffffffffffffffffffff169060200190929190505050612f11565b6040518082815260200191505060405180910390f35b610d33612f29565b60405180821515815260200191505060405180910390f35b610d8d60048036036020811015610d6157600080fd5b81019080803573ffffffffffffffffffffffffffffffffffffffff169060200190929190505050612f80565b6040518080602001828103825283818151815260200191508051906020019080838360005b83811015610dcd578082015181840152602081019050610db2565b50505050905090810190601f168015610dfa5780820380516001836020036101000a031916815260200191505b509250505060405180910390f35b610e106131bb565b604051808273ffffffffffffffffffffffffffffffffffffffff16815260200191505060405180910390f35b610e7e60048036036020811015610e5257600080fd5b81019080803573ffffffffffffffffffffffffffffffffffffffff1690602001909291905050506131e5565b005b610eac60048036036020811015610e9657600080fd5b8101908080359060200190929190505050613202565b604051808273ffffffffffffffffffffffffffffffffffffffff16815260200191505060405180910390f35b610ee061323e565b6040518080602001828103825283818151815260200191508051906020019060200280838360005b83811015610f23578082015181840152602081019050610f08565b505050509050019250505060405180910390f35b610ffa60048036036040811015610f4d57600080fd5b8101908080359060200190640100000000811115610f6a57600080fd5b820183602082011115610f7c57600080fd5b80359060200191846001830284011164010000000083111715610f9e57600080fd5b91908080601f016020809104026020016040519081016040528093929190818152602001838380828437600081840152601f19601f820116905080830192505050505050509192919290803590602001909291905050506132cc565b005b6005818051602081018201805184825260208301602085012081835280955050505050506000915054906101000a900473ffffffffffffffffffffffffffffffffffffffff1681565b6001818051602081018201805184825260208301602085012081835280955050505050506000915090505481565b61107b612f29565b61108457600080fd5b80600073ffffffffffffffffffffffffffffffffffffffff168173ffffffffffffffffffffffffffffffffffffffff161415611128576040517f08c379a00000000000000000000000000000000000000000000000000000000081526004018080602001828103825260148152602001807f41646472657373206973206e6f742076616c696400000000000000000000000081525060200191505060405180910390fd5b6000600860008473ffffffffffffffffffffffffffffffffffffffff1673ffffffffffffffffffffffffffffffffffffffff16815260200190815260200160002054146111dd576040517f08c379a000000000000000000000000000000000000000000000000000000000815260040180806020018281038252601d8152602001807f4f7261636c65206164647265737320616c72656164792065786973747300000081525060200191505060405180910390fd5b6007829080600181540180825580915050600190039060005260206000200160009091909190916101000a81548173ffffffffffffffffffffffffffffffffffffffff021916908373ffffffffffffffffffffffffffffffffffffffff160217905550600780549050600860008473ffffffffffffffffffffffffffffffffffffffff1673ffffffffffffffffffffffffffffffffffffffff1681526020019081526020016000208190555082600960008473ffffffffffffffffffffffffffffffffffffffff1673ffffffffffffffffffffffffffffffffffffffff16815260200190815260200160002090805190602001906112dc9291906135df565b507fa564f29e4413419045dd3eb6503eba734201693a6eaf99dc09eee622176661048242604051808373ffffffffffffffffffffffffffffffffffffffff1681526020018281526020019250505060405180910390a1505050565b61133f612f29565b61134857600080fd5b80600073ffffffffffffffffffffffffffffffffffffffff168173ffffffffffffffffffffffffffffffffffffffff1614156113ec576040517f08c379a00000000000000000000000000000000000000000000000000000000081526004018080602001828103825260148152602001807f41646472657373206973206e6f742076616c696400000000000000000000000081525060200191505060405180910390fd5b600260009054906101000a900473ffffffffffffffffffffffffffffffffffffffff1673ffffffffffffffffffffffffffffffffffffffff168273ffffffffffffffffffffffffffffffffffffffff161415611493576040517f08c379a000000000000000000000000000000000000000000000000000000000815260040180806020018281038252602181526020018061379f6021913960400191505060405180910390fd5b6000600460008473ffffffffffffffffffffffffffffffffffffffff1673ffffffffffffffffffffffffffffffffffffffff1681526020019081526020016000205414611548576040517f08c379a000000000000000000000000000000000000000000000000000000000815260040180806020018281038252601b8152602001807f43757272656e6379206b657920616c726561647920657869737473000000000081525060200191505060405180910390fd5b600073ffffffffffffffffffffffffffffffffffffffff166005846040518082805190602001908083835b602083106115965780518252602082019150602081019050602083039250611573565b6001836020036101000a038019825116818451168082178552505050505050905001915050908152602001604051809103902060009054906101000a900473ffffffffffffffffffffffffffffffffffffffff1673ffffffffffffffffffffffffffffffffffffffff1614611673576040517f08c379a000000000000000000000000000000000000000000000000000000000815260040180806020018281038252601e8152602001807f43757272656e63792073796d626f6c20616c726561647920657869737473000081525060200191505060405180910390fd5b6003829080600181540180825580915050600190039060005260206000200160009091909190916101000a81548173ffffffffffffffffffffffffffffffffffffffff021916908373ffffffffffffffffffffffffffffffffffffffff160217905550600380549050600460008473ffffffffffffffffffffffffffffffffffffffff1673ffffffffffffffffffffffffffffffffffffffff16815260200190815260200160002081905550816005846040518082805190602001908083835b602083106117565780518252602082019150602081019050602083039250611733565b6001836020036101000a038019825116818451168082178552505050505050905001915050908152602001604051809103902060006101000a81548173ffffffffffffffffffffffffffffffffffffffff021916908373ffffffffffffffffffffffffffffffffffffffff16021790555082600660008473ffffffffffffffffffffffffffffffffffffffff1673ffffffffffffffffffffffffffffffffffffffff168152602001908152602001600020908051906020019061181a9291906135df565b507fcbab75122074af5e3e5fd93250b21fa5f48329d5637242b283f2ca5cdf35baeb8242604051808373ffffffffffffffffffffffffffffffffffffffff1681526020018281526020019250505060405180910390a1505050565b60006001826040518082805190602001908083835b602083106118ad578051825260208201915060208101905060208303925061188a565b6001836020036101000a0380198251168184511680821785525050505050509050019150509081526020016040518091039020549050919050565b600080821180156118fe57506003805490508211155b611909576000611945565b6003600183038154811061191957fe5b9060005260206000200160009054906101000a900473ffffffffffffffffffffffffffffffffffffffff165b9050919050565b600260009054906101000a900473ffffffffffffffffffffffffffffffffffffffff1681565b61197a612f29565b61198357600080fd5b80600073ffffffffffffffffffffffffffffffffffffffff168173ffffffffffffffffffffffffffffffffffffffff161415611a27576040517f08c379a00000000000000000000000000000000000000000000000000000000081526004018080602001828103825260148152602001807f41646472657373206973206e6f742076616c696400000000000000000000000081525060200191505060405180910390fd5b6000600260009054906101000a900473ffffffffffffffffffffffffffffffffffffffff16905082600260006101000a81548173ffffffffffffffffffffffffffffffffffffffff021916908373ffffffffffffffffffffffffffffffffffffffff1602179055507f072a1227dd437d4b25a46e6b33a97e823875ad37911c084a9e5a405d50060762818442604051808473ffffffffffffffffffffffffffffffffffffffff1681526020018373ffffffffffffffffffffffffffffffffffffffff168152602001828152602001935050505060405180910390a1505050565b60606007805480602002602001604051908101604052809291908181526020018280548015611b8b57602002820191906000526020600020905b8160009054906101000a900473ffffffffffffffffffffffffffffffffffffffff1673ffffffffffffffffffffffffffffffffffffffff1681526020019060010190808311611b41575b5050505050905090565b611b9d612f29565b611ba657600080fd5b80600073ffffffffffffffffffffffffffffffffffffffff168173ffffffffffffffffffffffffffffffffffffffff161415611c4a576040517f08c379a00000000000000000000000000000000000000000000000000000000081526004018080602001828103825260148152602001807f41646472657373206973206e6f742076616c696400000000000000000000000081525060200191505060405180910390fd5b600260009054906101000a900473ffffffffffffffffffffffffffffffffffffffff1673ffffffffffffffffffffffffffffffffffffffff168273ffffffffffffffffffffffffffffffffffffffff161415611cf1576040517f08c379a000000000000000000000000000000000000000000000000000000000815260040180806020018281038252603281526020018061374c6032913960400191505060405180910390fd5b6000600460008473ffffffffffffffffffffffffffffffffffffffff1673ffffffffffffffffffffffffffffffffffffffff1681526020019081526020016000205414611da6576040517f08c379a000000000000000000000000000000000000000000000000000000000815260040180806020018281038252601f8152602001807f4e65772063757272656e6379206b657920616c7265616479206578697374730081525060200191505060405180910390fd5b600073ffffffffffffffffffffffffffffffffffffffff166005846040518082805190602001908083835b60208310611df45780518252602082019150602081019050602083039250611dd1565b6001836020036101000a038019825116818451168082178552505050505050905001915050908152602001604051809103902060009054906101000a900473ffffffffffffffffffffffffffffffffffffffff1673ffffffffffffffffffffffffffffffffffffffff161415611ed2576040517f08c379a00000000000000000000000000000000000000000000000000000000081526004018080602001828103825260198152602001807f43757272656e63792073796d626f6c206e6f7420666f756e640000000000000081525060200191505060405180910390fd5b60006005846040518082805190602001908083835b60208310611f0a5780518252602082019150602081019050602083039250611ee7565b6001836020036101000a038019825116818451168082178552505050505050905001915050908152602001604051809103902060009054906101000a900473ffffffffffffffffffffffffffffffffffffffff1690506000600460008373ffffffffffffffffffffffffffffffffffffffff1673ffffffffffffffffffffffffffffffffffffffff1681526020019081526020016000205490508360036001830381548110611fb557fe5b9060005260206000200160006101000a81548173ffffffffffffffffffffffffffffffffffffffff021916908373ffffffffffffffffffffffffffffffffffffffff16021790555080600460008673ffffffffffffffffffffffffffffffffffffffff1673ffffffffffffffffffffffffffffffffffffffff16815260200190815260200160002081905550836005866040518082805190602001908083835b602083106120785780518252602082019150602081019050602083039250612055565b6001836020036101000a038019825116818451168082178552505050505050905001915050908152602001604051809103902060006101000a81548173ffffffffffffffffffffffffffffffffffffffff021916908373ffffffffffffffffffffffffffffffffffffffff16021790555084600660008673ffffffffffffffffffffffffffffffffffffffff1673ffffffffffffffffffffffffffffffffffffffff168152602001908152602001600020908051906020019061213c9291906135df565b50600460008373ffffffffffffffffffffffffffffffffffffffff1673ffffffffffffffffffffffffffffffffffffffff16815260200190815260200160002060009055600660008373ffffffffffffffffffffffffffffffffffffffff1673ffffffffffffffffffffffffffffffffffffffff16815260200190815260200160002060006121cb919061365f565b7ea7703615b23a8d75fdf6bab3c6c89d45cffcddec9f421da7893e8068f740928583864260405180806020018573ffffffffffffffffffffffffffffffffffffffff1681526020018473ffffffffffffffffffffffffffffffffffffffff168152602001838152602001828103825286818151815260200191508051906020019080838360005b8381101561226d578082015181840152602081019050612252565b50505050905090810190601f16801561229a5780820380516001836020036101000a031916815260200191505b509550505050505060405180910390a15050505050565b60066020528060005260406000206000915090508054600181600116156101000203166002900480601f0160208091040260200160405190810160405280929190818152602001828054600181600116156101000203166002900480156123595780601f1061232e57610100808354040283529160200191612359565b820191906000526020600020905b81548152906001019060200180831161233c57829003601f168201915b505050505081565b606081600073ffffffffffffffffffffffffffffffffffffffff168173ffffffffffffffffffffffffffffffffffffffff161415612407576040517f08c379a00000000000000000000000000000000000000000000000000000000081526004018080602001828103825260148152602001807f41646472657373206973206e6f742076616c696400000000000000000000000081525060200191505060405180910390fd5b6000600460008573ffffffffffffffffffffffffffffffffffffffff1673ffffffffffffffffffffffffffffffffffffffff16815260200190815260200160002054116124bc576040517f08c379a00000000000000000000000000000000000000000000000000000000081526004018080602001828103825260168152602001807f43757272656e6379206e6f7420737570706f727465640000000000000000000081525060200191505060405180910390fd5b600660008473ffffffffffffffffffffffffffffffffffffffff1673ffffffffffffffffffffffffffffffffffffffff1681526020019081526020016000208054600181600116156101000203166002900480601f01602080910402602001604051908101604052809291908181526020018280546001816001161561010002031660029004801561258f5780601f106125645761010080835404028352916020019161258f565b820191906000526020600020905b81548152906001019060200180831161257257829003601f168201915b5050505050915050919050565b60096020528060005260406000206000915090508054600181600116156101000203166002900480601f0160208091040260200160405190810160405280929190818152602001828054600181600116156101000203166002900480156126445780601f1061261957610100808354040283529160200191612644565b820191906000526020600020905b81548152906001019060200180831161262757829003601f168201915b505050505081565b60086020528060005260406000206000915090505481565b600081600073ffffffffffffffffffffffffffffffffffffffff168173ffffffffffffffffffffffffffffffffffffffff16141561270a576040517f08c379a00000000000000000000000000000000000000000000000000000000081526004018080602001828103825260148152602001807f41646472657373206973206e6f742076616c696400000000000000000000000081525060200191505060405180910390fd5b6000600460008573ffffffffffffffffffffffffffffffffffffffff1673ffffffffffffffffffffffffffffffffffffffff1681526020019081526020016000205411915050919050565b61275d612f29565b61276657600080fd5b600073ffffffffffffffffffffffffffffffffffffffff1660008054906101000a900473ffffffffffffffffffffffffffffffffffffffff1673ffffffffffffffffffffffffffffffffffffffff167f8be0079c531659141344cd1fd0a4f28419497f9722a3daafe3b4186f6b6457e060405160405180910390a360008060006101000a81548173ffffffffffffffffffffffffffffffffffffffff021916908373ffffffffffffffffffffffffffffffffffffffff160217905550565b60006005826040518082805190602001908083835b6020831061285c5780518252602082019150602081019050602083039250612839565b6001836020036101000a038019825116818451168082178552505050505050905001915050908152602001604051809103902060009054906101000a900473ffffffffffffffffffffffffffffffffffffffff169050919050565b6128bf612f29565b6128c857600080fd5b81600073ffffffffffffffffffffffffffffffffffffffff168173ffffffffffffffffffffffffffffffffffffffff16141561296c576040517f08c379a00000000000000000000000000000000000000000000000000000000081526004018080602001828103825260148152602001807f41646472657373206973206e6f742076616c696400000000000000000000000081525060200191505060405180910390fd5b81600073ffffffffffffffffffffffffffffffffffffffff168173ffffffffffffffffffffffffffffffffffffffff161415612a10576040517f08c379a00000000000000000000000000000000000000000000000000000000081526004018080602001828103825260148152602001807f41646472657373206973206e6f742076616c696400000000000000000000000081525060200191505060405180910390fd5b6000600860008673ffffffffffffffffffffffffffffffffffffffff1673ffffffffffffffffffffffffffffffffffffffff1681526020019081526020016000205411612ac5576040517f08c379a00000000000000000000000000000000000000000000000000000000081526004018080602001828103825260208152602001807f4f6c64206f7261636c65206164647265737320646f65736e277420657869737481525060200191505060405180910390fd5b6000600860008573ffffffffffffffffffffffffffffffffffffffff1673ffffffffffffffffffffffffffffffffffffffff1681526020019081526020016000205414612b5d576040517f08c379a000000000000000000000000000000000000000000000000000000000815260040180806020018281038252602181526020018061377e6021913960400191505060405180910390fd5b6000600860008673ffffffffffffffffffffffffffffffffffffffff1673ffffffffffffffffffffffffffffffffffffffff1681526020019081526020016000205490508360076001830381548110612bb257fe5b9060005260206000200160006101000a81548173ffffffffffffffffffffffffffffffffffffffff021916908373ffffffffffffffffffffffffffffffffffffffff16021790555080600860008673ffffffffffffffffffffffffffffffffffffffff1673ffffffffffffffffffffffffffffffffffffffff16815260200190815260200160002081905550600960008673ffffffffffffffffffffffffffffffffffffffff1673ffffffffffffffffffffffffffffffffffffffff168152602001908152602001600020600960008673ffffffffffffffffffffffffffffffffffffffff1673ffffffffffffffffffffffffffffffffffffffff1681526020019081526020016000209080546001816001161561010002031660029004612cdb9291906136a7565b50600860008673ffffffffffffffffffffffffffffffffffffffff1673ffffffffffffffffffffffffffffffffffffffff16815260200190815260200160002060009055600960008673ffffffffffffffffffffffffffffffffffffffff1673ffffffffffffffffffffffffffffffffffffffff1681526020019081526020016000206000612d6a919061365f565b7f158ed1253f0e3bc843d097639e5637c488fb5a0406c124d6dcbc7ae137c51eca600960008673ffffffffffffffffffffffffffffffffffffffff1673ffffffffffffffffffffffffffffffffffffffff16815260200190815260200160002086864260405180806020018573ffffffffffffffffffffffffffffffffffffffff1681526020018473ffffffffffffffffffffffffffffffffffffffff168152602001838152602001828103825286818154600181600116156101000203166002900481526020019150805460018160011615610100020316600290048015612e945780601f10612e6957610100808354040283529160200191612e94565b820191906000526020600020905b815481529060010190602001808311612e7757829003601f168201915b50509550505050505060405180910390a15050505050565b60038181548110612eb957fe5b906000526020600020016000915054906101000a900473ffffffffffffffffffffffffffffffffffffffff1681565b60008060009054906101000a900473ffffffffffffffffffffffffffffffffffffffff16905090565b60046020528060005260406000206000915090505481565b60008060009054906101000a900473ffffffffffffffffffffffffffffffffffffffff1673ffffffffffffffffffffffffffffffffffffffff163373ffffffffffffffffffffffffffffffffffffffff1614905090565b606081600073ffffffffffffffffffffffffffffffffffffffff168173ffffffffffffffffffffffffffffffffffffffff161415613026576040517f08c379a00000000000000000000000000000000000000000000000000000000081526004018080602001828103825260148152602001807f41646472657373206973206e6f742076616c696400000000000000000000000081525060200191505060405180910390fd5b6000600860008573ffffffffffffffffffffffffffffffffffffffff1673ffffffffffffffffffffffffffffffffffffffff16815260200190815260200160002054116130db576040517f08c379a00000000000000000000000000000000000000000000000000000000081526004018080602001828103825260148152602001807f4f7261636c652041504920737570706f7274656400000000000000000000000081525060200191505060405180910390fd5b600960008473ffffffffffffffffffffffffffffffffffffffff1673ffffffffffffffffffffffffffffffffffffffff1681526020019081526020016000208054600181600116156101000203166002900480601f0160208091040260200160405190810160405280929190818152602001828054600181600116156101000203166002900480156131ae5780601f10613183576101008083540402835291602001916131ae565b820191906000526020600020905b81548152906001019060200180831161319157829003601f168201915b5050505050915050919050565b6000600260009054906101000a900473ffffffffffffffffffffffffffffffffffffffff16905090565b6131ed612f29565b6131f657600080fd5b6131ff816134e8565b50565b6007818154811061320f57fe5b906000526020600020016000915054906101000a900473ffffffffffffffffffffffffffffffffffffffff1681565b606060038054806020026020016040519081016040528092919081815260200182805480156132c257602002820191906000526020600020905b8160009054906101000a900473ffffffffffffffffffffffffffffffffffffffff1673ffffffffffffffffffffffffffffffffffffffff1681526020019060010190808311613278575b5050505050905090565b6132d4612f29565b6132dd57600080fd5b60008111613353576040517f08c379a00000000000000000000000000000000000000000000000000000000081526004018080602001828103825260188152602001807f56616c75652063616e6e6f74206265206e65676174697665000000000000000081525060200191505060405180910390fd5b60006001836040518082805190602001908083835b6020831061338b5780518252602082019150602081019050602083039250613368565b6001836020036101000a0380198251168184511680821785525050505050509050019150509081526020016040518091039020549050816001846040518082805190602001908083835b602083106133f857805182526020820191506020810190506020830392506133d5565b6001836020036101000a0380198251168184511680821785525050505050509050019150509081526020016040518091039020819055507fff1f01d7130c893ebdd39a4de0117ce4ff043cc426ee3da02a63d26c83f0cf9a838284426040518080602001858152602001848152602001838152602001828103825286818151815260200191508051906020019080838360005b838110156134a657808201518184015260208101905061348b565b50505050905090810190601f1680156134d35780820380516001836020036101000a031916815260200191505b509550505050505060405180910390a1505050565b600073ffffffffffffffffffffffffffffffffffffffff168173ffffffffffffffffffffffffffffffffffffffff16141561352257600080fd5b8073ffffffffffffffffffffffffffffffffffffffff1660008054906101000a900473ffffffffffffffffffffffffffffffffffffffff1673ffffffffffffffffffffffffffffffffffffffff167f8be0079c531659141344cd1fd0a4f28419497f9722a3daafe3b4186f6b6457e060405160405180910390a3806000806101000a81548173ffffffffffffffffffffffffffffffffffffffff021916908373ffffffffffffffffffffffffffffffffffffffff16021790555050565b828054600181600116156101000203166002900490600052602060002090601f016020900481019282601f1061362057805160ff191683800117855561364e565b8280016001018555821561364e579182015b8281111561364d578251825591602001919060010190613632565b5b50905061365b919061372e565b5090565b50805460018160011615610100020316600290046000825580601f1061368557506136a4565b601f0160209004906000526020600020908101906136a3919061372e565b5b50565b828054600181600116156101000203166002900490600052602060002090601f016020900481019282601f106136e0578054855561371d565b8280016001018555821561371d57600052602060002091601f016020900482015b8281111561371c578254825591600101919060010190613701565b5b50905061372a919061372e565b5090565b5b8082111561374757600081600090555060010161372f565b509056fe4e65772063757272656e6379206b65792063616e6e6f7420657175616c20737461626c6520746f6b656e20616464726573734e6577206f7261636c65206164647265737320616c72656164792065786973747343616e6e6f7420657175616c20737461626c6520746f6b656e2061646472657373a26469706673582212206c1efe6eb20a8e53d6030993bfa7caeb29ffd849f085d887a34866d69facc5e064736f6c634300060c0033",
  "immutableReferences": {},
  "source": "pragma solidity >=0.5.0;\r\n\r\n//Interfaces\r\nimport './interfaces/ISettings.sol';\r\n\r\n//Libraries\r\nimport './libraries/SafeMath.sol';\r\n\r\n//Inheritance\r\nimport './Ownable.sol';\r\n\r\ncontract Settings is ISettings, Ownable {\r\n    using SafeMath for uint;\r\n\r\n    mapping (string => uint) public parameters;\r\n\r\n    //currencies\r\n    address public cUSDAddress;\r\n    address[] public availableCurrencies;\r\n    mapping (address => uint) public currencyKeyToIndex; //maps to (index + 1); index 0 represents currency key not found\r\n    mapping (string => address) public currencySymbolToAddress;\r\n    mapping (address => string) public currencyKeyToSymbol;\r\n\r\n    //oracles\r\n    address[] public oracleAPIAddresses;\r\n    mapping (address => uint) public isValidOracleAPIAddress; // maps to (index + 1) in oracleAPIAddresses array; index 0 represents invalid API address\r\n    mapping (address => string) public oracleAddressToName;\r\n\r\n    /**\r\n    * @notice Initial parameters and values:\r\n    *         WeeklyStableCoinStakingRewards - 500,000 TGEN;\r\n    *         WeeklyStakingRewards - 500,000 TGEN; \r\n    *         TransactionFee - 0.3%;\r\n    *         VoteLimit - 10;\r\n    *         VotingReward - 3 TGEN;\r\n    *         StrategyApprovalThreshold - 80%;\r\n    *         MaximumNumberOfEntryRules - 7;\r\n    *         MaximumNumberOfExitRules - 7;\r\n    *         MaximumNumberOfPoolsPerUser - 2;\r\n    *         MaximumPerformanceFee - 30%;\r\n    */\r\n    constructor() public Ownable() {}\r\n\r\n    /* ========== VIEWS ========== */\r\n\r\n    /**\r\n    * @dev Given the index in the array of available currencies, returns the currency key at that index\r\n    * @param index Index in the array of available currencies\r\n    * @return address Currency key at given index\r\n    */\r\n    function getCurrencyKeyFromIndex(uint index) public view override returns (address) {\r\n        return (index > 0 && index <= availableCurrencies.length) ? availableCurrencies[index - 1] : address(0);\r\n    }\r\n\r\n    /**\r\n    * @dev Given the symbol of a currency, returns the address of the currency\r\n    * @param symbol The symbol of the currency\r\n    * @return address Currency key for given symbol\r\n    */\r\n    function getCurrencyKeyFromSymbol(string memory symbol) public view override returns (address) {\r\n        return currencySymbolToAddress[symbol];\r\n    }\r\n\r\n    /**\r\n    * @dev Given the name of a parameter, returns the value of the parameter\r\n    * @param parameter The name of the parameter to get value for\r\n    * @return uint The value of the given parameter\r\n    */\r\n    function getParameterValue(string memory parameter) public view override returns(uint) {\r\n        return parameters[parameter];\r\n    }\r\n\r\n    /**\r\n    * @dev Returns the addresses of supported currencies for trading\r\n    * @return address[] An array of addresses of supported currencies\r\n    */\r\n    function getAvailableCurrencies() external view override returns (address[] memory) {\r\n        return availableCurrencies;\r\n    }\r\n\r\n    /**\r\n    * @dev Given the address of a currency, returns the currency's symbol\r\n    * @param currencyKey The address of the currency\r\n    * @return string The currency symbol\r\n    */\r\n    function getCurrencySymbol(address currencyKey) external view override isValidAddress(currencyKey) returns(string memory) {\r\n        require(currencyKeyToIndex[currencyKey] > 0, \"Currency not supported\");\r\n\r\n        return currencyKeyToSymbol[currencyKey];\r\n    }\r\n\r\n    /**\r\n    * @dev Returns the address of the stable coin\r\n    * @return address The stable coin address\r\n    */\r\n    function getStableCoinAddress() public view override returns(address) {\r\n        return cUSDAddress;\r\n    }\r\n\r\n    /**\r\n    * @dev Returns the addresses and names of supported oracle APIs\r\n    * @return OracleData[] An array of oracle API addresses and names\r\n    */\r\n    function getOracleAPIs() public view override returns (address[] memory) {\r\n        return oracleAPIAddresses;\r\n    }\r\n\r\n    /**\r\n    * @dev Given the address of an oracle API, returns the name of the oracle API\r\n    * @param oracleAddress The address of the oracle API\r\n    * @return string The oracle API name\r\n    */\r\n    function getOracleAPIName(address oracleAddress) external view override isValidAddress(oracleAddress) returns(string memory) {\r\n        require(isValidOracleAPIAddress[oracleAddress] > 0, \"Oracle API supported\");\r\n\r\n        return oracleAddressToName[oracleAddress];\r\n    }\r\n\r\n    /**\r\n    * @dev Given the address of a currency, returns whether the currency is supported on the platform\r\n    * @param currencyKey The address of the currency\r\n    * @return bool Whether the currency is supported on the platform\r\n    */\r\n    function checkIfCurrencyIsAvailable(address currencyKey) external view override isValidAddress(currencyKey) returns (bool) {\r\n        return (currencyKeyToIndex[currencyKey] > 0);\r\n    }\r\n\r\n    /* ========== RESTRICTED FUNCTIONS ========== */\r\n\r\n    /**\r\n    * @dev Updates the address for the given contract; meant to be called by Settings contract owner\r\n    * @param parameter The name of the parameter to change\r\n    * @param newValue The new value of the given parameter\r\n    */\r\n    function setParameterValue(string memory parameter, uint newValue) external override onlyOwner {\r\n        require(newValue > 0, \"Value cannot be negative\");\r\n\r\n        uint oldValue = parameters[parameter];\r\n        parameters[parameter] = newValue;\r\n\r\n        emit SetParameterValue(parameter, oldValue, newValue, block.timestamp);\r\n    }\r\n\r\n    /**\r\n    * @dev Sets the address of the stable coin\r\n    * @param stableCoinAddress The address of the stable coin\r\n    */\r\n    function setStableCoinAddress(address stableCoinAddress) external override onlyOwner isValidAddress(stableCoinAddress) {\r\n        address oldAddress = cUSDAddress;\r\n        cUSDAddress = stableCoinAddress;\r\n\r\n        emit UpdatedStableCoinAddress(oldAddress, stableCoinAddress, block.timestamp);\r\n    }\r\n\r\n    /**\r\n    * @dev Updates the address of the given currency\r\n    * @param currencySymbol The currency symbol\r\n    * @param newCurrencyKey The new address for the given currency\r\n    */\r\n    function updateCurrencyKey(string memory currencySymbol, address newCurrencyKey) external override onlyOwner isValidAddress(newCurrencyKey) {\r\n        require(newCurrencyKey != cUSDAddress, \"New currency key cannot equal stable token address\");\r\n        require(currencyKeyToIndex[newCurrencyKey] == 0, \"New currency key already exists\");\r\n        require(currencySymbolToAddress[currencySymbol] != address(0), \"Currency symbol not found\");\r\n\r\n        address oldCurrencyKey = currencySymbolToAddress[currencySymbol];\r\n        uint oldCurrencyKeyIndex = currencyKeyToIndex[oldCurrencyKey];\r\n\r\n        availableCurrencies[oldCurrencyKeyIndex - 1] = newCurrencyKey;\r\n        currencyKeyToIndex[newCurrencyKey] = oldCurrencyKeyIndex;\r\n        currencySymbolToAddress[currencySymbol] = newCurrencyKey;\r\n        currencyKeyToSymbol[newCurrencyKey] = currencySymbol;\r\n\r\n        delete currencyKeyToIndex[oldCurrencyKey];\r\n        delete currencyKeyToSymbol[oldCurrencyKey];\r\n\r\n        emit UpdatedCurrencyKey(currencySymbol, oldCurrencyKey, newCurrencyKey, block.timestamp);\r\n    }\r\n\r\n    /**\r\n    * @dev Adds a new tradable currency to the platform\r\n    * @param currencySymbol The symbol of the currency to add\r\n    * @param currencyKey The address of the currency to add\r\n    */\r\n    function addCurrencyKey(string memory currencySymbol, address currencyKey) external override onlyOwner isValidAddress(currencyKey) {\r\n        require(currencyKey != cUSDAddress, \"Cannot equal stable token address\");\r\n        require(currencyKeyToIndex[currencyKey] == 0, \"Currency key already exists\");\r\n        require(currencySymbolToAddress[currencySymbol] == address(0), \"Currency symbol already exists\");\r\n\r\n        availableCurrencies.push(currencyKey);\r\n        currencyKeyToIndex[currencyKey] = availableCurrencies.length;\r\n        currencySymbolToAddress[currencySymbol] = currencyKey;\r\n        currencyKeyToSymbol[currencyKey] = currencySymbol;\r\n\r\n        emit AddedCurrencyKey(currencyKey, block.timestamp);\r\n    }\r\n\r\n    /**\r\n    * @dev Updates the address of a given oracle API\r\n    * @param oldOracleAddress The address of the oracle API to update\r\n    * @param newOracleAddress The new address of the given oracle API\r\n    */\r\n    function updateOracleAPIAddress(address oldOracleAddress, address newOracleAddress) external override onlyOwner isValidAddress(oldOracleAddress) isValidAddress(newOracleAddress) {\r\n        require(isValidOracleAPIAddress[oldOracleAddress] > 0, \"Old oracle address doesn't exist\");\r\n        require(isValidOracleAPIAddress[newOracleAddress] == 0, \"New oracle address already exists\");\r\n\r\n        uint oldOracleAddressIndex = isValidOracleAPIAddress[oldOracleAddress];\r\n\r\n        oracleAPIAddresses[oldOracleAddressIndex - 1] = newOracleAddress;\r\n        isValidOracleAPIAddress[newOracleAddress] = oldOracleAddressIndex;\r\n        oracleAddressToName[newOracleAddress] = oracleAddressToName[oldOracleAddress];\r\n\r\n        delete isValidOracleAPIAddress[oldOracleAddress];\r\n        delete oracleAddressToName[oldOracleAddress];\r\n\r\n        emit UpdatedOracleAPIAddress(oracleAddressToName[newOracleAddress], oldOracleAddress, newOracleAddress, block.timestamp);\r\n    }\r\n\r\n    /**\r\n    * @dev Adds a new oracle API to the platform\r\n    * @param name The name of the oracle API\r\n    * @param oracleAddress The address of the oracle API\r\n    */\r\n    function addOracleAPIAddress(string memory name, address oracleAddress) external override onlyOwner isValidAddress(oracleAddress) {\r\n        require(isValidOracleAPIAddress[oracleAddress] == 0, \"Oracle address already exists\");\r\n\r\n        oracleAPIAddresses.push(oracleAddress);\r\n        isValidOracleAPIAddress[oracleAddress] = oracleAPIAddresses.length;\r\n        oracleAddressToName[oracleAddress] = name;\r\n\r\n        emit AddedOracleAPIAddress(oracleAddress, block.timestamp);\r\n    }\r\n\r\n    /* ========== MODIFIERS ========== */\r\n\r\n    modifier isValidAddress(address addressToCheck) {\r\n        require(addressToCheck != address(0), \"Address is not valid\");\r\n        _;\r\n    }\r\n\r\n    /* ========== EVENTS ========== */\r\n\r\n    event AddedCurrencyKey(address currencyKey, uint timestamp);\r\n    event AddedOracleAPIAddress(address oracleAddress, uint timestamp);\r\n    event SetParameterValue(string parameter,uint oldValue, uint newValue, uint timestamp);\r\n    event UpdatedStableCoinAddress(address oldAddress, address stableCurrencyAddress, uint timestamp);\r\n    event UpdatedCurrencyKey(string currencySymbol, address oldCurrencyKey, address newCurrencyKey, uint timestamp); \r\n    event UpdatedOracleAPIAddress(string oracleName, address oldOracleAddress, address newOracleAddress, uint timestamp);\r\n}",
  "sourcePath": "C:/Users/xavie/OneDrive/Desktop/TradeGen/Github/tradegen/contracts/Settings.sol",
  "compiler": {
    "name": "solc",
    "version": "0.6.12+commit.27d51765.Emscripten.clang"
  },
  "schemaVersion": "3.4.1",
  "updatedAt": "2021-08-09T16:04:44.446Z",
  "devdoc": {
    "kind": "dev",
    "methods": {
      "addCurrencyKey(string,address)": {
        "details": "Adds a new tradable currency to the platform",
        "params": {
          "currencyKey": "The address of the currency to add",
          "currencySymbol": "The symbol of the currency to add"
        }
      },
      "addOracleAPIAddress(string,address)": {
        "details": "Adds a new oracle API to the platform",
        "params": {
          "name": "The name of the oracle API",
          "oracleAddress": "The address of the oracle API"
        }
      },
      "checkIfCurrencyIsAvailable(address)": {
        "details": "Given the address of a currency, returns whether the currency is supported on the platform",
        "params": {
          "currencyKey": "The address of the currency"
        },
        "returns": {
          "_0": "bool Whether the currency is supported on the platform"
        }
      },
      "getAvailableCurrencies()": {
        "details": "Returns the addresses of supported currencies for trading",
        "returns": {
          "_0": "address[] An array of addresses of supported currencies"
        }
      },
      "getCurrencyKeyFromIndex(uint256)": {
        "details": "Given the index in the array of available currencies, returns the currency key at that index",
        "params": {
          "index": "Index in the array of available currencies"
        },
        "returns": {
          "_0": "address Currency key at given index"
        }
      },
      "getCurrencyKeyFromSymbol(string)": {
        "details": "Given the symbol of a currency, returns the address of the currency",
        "params": {
          "symbol": "The symbol of the currency"
        },
        "returns": {
          "_0": "address Currency key for given symbol"
        }
      },
      "getCurrencySymbol(address)": {
        "details": "Given the address of a currency, returns the currency's symbol",
        "params": {
          "currencyKey": "The address of the currency"
        },
        "returns": {
          "_0": "string The currency symbol"
        }
      },
      "getOracleAPIName(address)": {
        "details": "Given the address of an oracle API, returns the name of the oracle API",
        "params": {
          "oracleAddress": "The address of the oracle API"
        },
        "returns": {
          "_0": "string The oracle API name"
        }
      },
      "getOracleAPIs()": {
        "details": "Returns the addresses and names of supported oracle APIs",
        "returns": {
          "_0": "OracleData[] An array of oracle API addresses and names"
        }
      },
      "getParameterValue(string)": {
        "details": "Given the name of a parameter, returns the value of the parameter",
        "params": {
          "parameter": "The name of the parameter to get value for"
        },
        "returns": {
          "_0": "uint The value of the given parameter"
        }
      },
      "getStableCoinAddress()": {
        "details": "Returns the address of the stable coin",
        "returns": {
          "_0": "address The stable coin address"
        }
      },
      "isOwner()": {
        "returns": {
          "_0": "true if `msg.sender` is the owner of the contract."
        }
      },
      "owner()": {
        "returns": {
          "_0": "the address of the owner."
        }
      },
      "renounceOwnership()": {
        "details": "Allows the current owner to relinquish control of the contract."
      },
      "setParameterValue(string,uint256)": {
        "details": "Updates the address for the given contract; meant to be called by Settings contract owner",
        "params": {
          "newValue": "The new value of the given parameter",
          "parameter": "The name of the parameter to change"
        }
      },
      "setStableCoinAddress(address)": {
        "details": "Sets the address of the stable coin",
        "params": {
          "stableCoinAddress": "The address of the stable coin"
        }
      },
      "transferOwnership(address)": {
        "details": "Allows the current owner to transfer control of the contract to a newOwner.",
        "params": {
          "newOwner": "The address to transfer ownership to."
        }
      },
      "updateCurrencyKey(string,address)": {
        "details": "Updates the address of the given currency",
        "params": {
          "currencySymbol": "The currency symbol",
          "newCurrencyKey": "The new address for the given currency"
        }
      },
      "updateOracleAPIAddress(address,address)": {
        "details": "Updates the address of a given oracle API",
        "params": {
          "newOracleAddress": "The new address of the given oracle API",
          "oldOracleAddress": "The address of the oracle API to update"
        }
      }
    },
    "version": 1
  },
  "userdoc": {
    "kind": "user",
    "methods": {
      "constructor": "Initial parameters and values:         WeeklyStableCoinStakingRewards - 500,000 TGEN;         WeeklyStakingRewards - 500,000 TGEN;          TransactionFee - 0.3%;         VoteLimit - 10;         VotingReward - 3 TGEN;         StrategyApprovalThreshold - 80%;         MaximumNumberOfEntryRules - 7;         MaximumNumberOfExitRules - 7;         MaximumNumberOfPoolsPerUser - 2;         MaximumPerformanceFee - 30%;",
      "renounceOwnership()": {
        "notice": "Renouncing to ownership will leave the contract without an owner. It will not be possible to call the functions with the `onlyOwner` modifier anymore."
      }
    },
    "version": 1
  }
}