{
  "contractName": "StableCoinStakingRewards",
  "abi": [
    {
      "inputs": [
        {
          "internalType": "contract IAddressResolver",
          "name": "_addressResolver",
          "type": "address"
        }
      ],
      "stateMutability": "nonpayable",
      "type": "constructor"
    },
    {
      "anonymous": false,
      "inputs": [
        {
          "indexed": true,
          "internalType": "address",
          "name": "previousOwner",
          "type": "address"
        },
        {
          "indexed": true,
          "internalType": "address",
          "name": "newOwner",
          "type": "address"
        }
      ],
      "name": "OwnershipTransferred",
      "type": "event"
    },
    {
      "anonymous": false,
      "inputs": [
        {
          "indexed": true,
          "internalType": "address",
          "name": "user",
          "type": "address"
        },
        {
          "indexed": false,
          "internalType": "uint256",
          "name": "amount",
          "type": "uint256"
        },
        {
          "indexed": false,
          "internalType": "uint256",
          "name": "timestamp",
          "type": "uint256"
        }
      ],
      "name": "RewardPaid",
      "type": "event"
    },
    {
      "anonymous": false,
      "inputs": [
        {
          "indexed": true,
          "internalType": "address",
          "name": "beneficiary",
          "type": "address"
        },
        {
          "indexed": false,
          "internalType": "uint256",
          "name": "total",
          "type": "uint256"
        },
        {
          "indexed": false,
          "internalType": "uint256",
          "name": "vestingTimestamp",
          "type": "uint256"
        },
        {
          "indexed": false,
          "internalType": "uint256",
          "name": "timestamp",
          "type": "uint256"
        }
      ],
      "name": "Staked",
      "type": "event"
    },
    {
      "anonymous": false,
      "inputs": [
        {
          "indexed": true,
          "internalType": "address",
          "name": "beneficiary",
          "type": "address"
        },
        {
          "indexed": false,
          "internalType": "uint256",
          "name": "time",
          "type": "uint256"
        },
        {
          "indexed": false,
          "internalType": "uint256",
          "name": "value",
          "type": "uint256"
        }
      ],
      "name": "Vested",
      "type": "event"
    },
    {
      "inputs": [],
      "name": "ADDRESS_RESOLVER",
      "outputs": [
        {
          "internalType": "contract IAddressResolver",
          "name": "",
          "type": "address"
        }
      ],
      "stateMutability": "view",
      "type": "function"
    },
    {
      "inputs": [],
      "name": "MAX_VESTING_ENTRIES",
      "outputs": [
        {
          "internalType": "uint256",
          "name": "",
          "type": "uint256"
        }
      ],
      "stateMutability": "view",
      "type": "function"
    },
    {
      "inputs": [],
      "name": "QUANTITY_INDEX",
      "outputs": [
        {
          "internalType": "uint256",
          "name": "",
          "type": "uint256"
        }
      ],
      "stateMutability": "view",
      "type": "function"
    },
    {
      "inputs": [],
      "name": "TIME_INDEX",
      "outputs": [
        {
          "internalType": "uint256",
          "name": "",
          "type": "uint256"
        }
      ],
      "stateMutability": "view",
      "type": "function"
    },
    {
      "inputs": [],
      "name": "isOwner",
      "outputs": [
        {
          "internalType": "bool",
          "name": "",
          "type": "bool"
        }
      ],
      "stateMutability": "view",
      "type": "function"
    },
    {
      "inputs": [],
      "name": "lastUpdateTime",
      "outputs": [
        {
          "internalType": "uint256",
          "name": "",
          "type": "uint256"
        }
      ],
      "stateMutability": "view",
      "type": "function"
    },
    {
      "inputs": [],
      "name": "owner",
      "outputs": [
        {
          "internalType": "address",
          "name": "",
          "type": "address"
        }
      ],
      "stateMutability": "view",
      "type": "function"
    },
    {
      "inputs": [],
      "name": "renounceOwnership",
      "outputs": [],
      "stateMutability": "nonpayable",
      "type": "function"
    },
    {
      "inputs": [],
      "name": "rewardPerTokenStored",
      "outputs": [
        {
          "internalType": "uint256",
          "name": "",
          "type": "uint256"
        }
      ],
      "stateMutability": "view",
      "type": "function"
    },
    {
      "inputs": [
        {
          "internalType": "address",
          "name": "",
          "type": "address"
        }
      ],
      "name": "rewards",
      "outputs": [
        {
          "internalType": "uint256",
          "name": "",
          "type": "uint256"
        }
      ],
      "stateMutability": "view",
      "type": "function"
    },
    {
      "inputs": [
        {
          "internalType": "address",
          "name": "",
          "type": "address"
        }
      ],
      "name": "totalVestedAccountBalance",
      "outputs": [
        {
          "internalType": "uint256",
          "name": "",
          "type": "uint256"
        }
      ],
      "stateMutability": "view",
      "type": "function"
    },
    {
      "inputs": [],
      "name": "totalVestedBalance",
      "outputs": [
        {
          "internalType": "uint256",
          "name": "",
          "type": "uint256"
        }
      ],
      "stateMutability": "view",
      "type": "function"
    },
    {
      "inputs": [
        {
          "internalType": "address",
          "name": "newOwner",
          "type": "address"
        }
      ],
      "name": "transferOwnership",
      "outputs": [],
      "stateMutability": "nonpayable",
      "type": "function"
    },
    {
      "inputs": [
        {
          "internalType": "address",
          "name": "",
          "type": "address"
        }
      ],
      "name": "userRewardPerTokenPaid",
      "outputs": [
        {
          "internalType": "uint256",
          "name": "",
          "type": "uint256"
        }
      ],
      "stateMutability": "view",
      "type": "function"
    },
    {
      "inputs": [
        {
          "internalType": "address",
          "name": "",
          "type": "address"
        },
        {
          "internalType": "uint256",
          "name": "",
          "type": "uint256"
        },
        {
          "internalType": "uint256",
          "name": "",
          "type": "uint256"
        }
      ],
      "name": "vestingSchedules",
      "outputs": [
        {
          "internalType": "uint256",
          "name": "",
          "type": "uint256"
        }
      ],
      "stateMutability": "view",
      "type": "function"
    },
    {
      "inputs": [
        {
          "internalType": "address",
          "name": "account",
          "type": "address"
        }
      ],
      "name": "balanceOf",
      "outputs": [
        {
          "internalType": "uint256",
          "name": "",
          "type": "uint256"
        }
      ],
      "stateMutability": "view",
      "type": "function"
    },
    {
      "inputs": [
        {
          "internalType": "address",
          "name": "account",
          "type": "address"
        }
      ],
      "name": "numVestingEntries",
      "outputs": [
        {
          "internalType": "uint256",
          "name": "",
          "type": "uint256"
        }
      ],
      "stateMutability": "view",
      "type": "function"
    },
    {
      "inputs": [
        {
          "internalType": "address",
          "name": "account",
          "type": "address"
        },
        {
          "internalType": "uint256",
          "name": "index",
          "type": "uint256"
        }
      ],
      "name": "getVestingScheduleEntry",
      "outputs": [
        {
          "internalType": "uint256[2]",
          "name": "",
          "type": "uint256[2]"
        }
      ],
      "stateMutability": "view",
      "type": "function"
    },
    {
      "inputs": [
        {
          "internalType": "address",
          "name": "account",
          "type": "address"
        },
        {
          "internalType": "uint256",
          "name": "index",
          "type": "uint256"
        }
      ],
      "name": "getVestingTime",
      "outputs": [
        {
          "internalType": "uint256",
          "name": "",
          "type": "uint256"
        }
      ],
      "stateMutability": "view",
      "type": "function"
    },
    {
      "inputs": [
        {
          "internalType": "address",
          "name": "account",
          "type": "address"
        },
        {
          "internalType": "uint256",
          "name": "index",
          "type": "uint256"
        }
      ],
      "name": "getVestingQuantity",
      "outputs": [
        {
          "internalType": "uint256",
          "name": "",
          "type": "uint256"
        }
      ],
      "stateMutability": "view",
      "type": "function"
    },
    {
      "inputs": [
        {
          "internalType": "address",
          "name": "account",
          "type": "address"
        }
      ],
      "name": "getNextVestingIndex",
      "outputs": [
        {
          "internalType": "uint256",
          "name": "",
          "type": "uint256"
        }
      ],
      "stateMutability": "view",
      "type": "function"
    },
    {
      "inputs": [],
      "name": "rewardPerToken",
      "outputs": [
        {
          "internalType": "uint256",
          "name": "",
          "type": "uint256"
        }
      ],
      "stateMutability": "view",
      "type": "function"
    },
    {
      "inputs": [
        {
          "internalType": "address",
          "name": "account",
          "type": "address"
        }
      ],
      "name": "earned",
      "outputs": [
        {
          "internalType": "uint256",
          "name": "",
          "type": "uint256"
        }
      ],
      "stateMutability": "view",
      "type": "function"
    },
    {
      "inputs": [
        {
          "internalType": "address",
          "name": "account",
          "type": "address"
        }
      ],
      "name": "getNextVestingEntry",
      "outputs": [
        {
          "internalType": "uint256[2]",
          "name": "",
          "type": "uint256[2]"
        }
      ],
      "stateMutability": "view",
      "type": "function"
    },
    {
      "inputs": [
        {
          "internalType": "address",
          "name": "account",
          "type": "address"
        }
      ],
      "name": "getNextVestingTime",
      "outputs": [
        {
          "internalType": "uint256",
          "name": "",
          "type": "uint256"
        }
      ],
      "stateMutability": "view",
      "type": "function"
    },
    {
      "inputs": [
        {
          "internalType": "address",
          "name": "account",
          "type": "address"
        }
      ],
      "name": "getNextVestingQuantity",
      "outputs": [
        {
          "internalType": "uint256",
          "name": "",
          "type": "uint256"
        }
      ],
      "stateMutability": "view",
      "type": "function"
    },
    {
      "inputs": [
        {
          "internalType": "uint256",
          "name": "amount",
          "type": "uint256"
        }
      ],
      "name": "stake",
      "outputs": [],
      "stateMutability": "nonpayable",
      "type": "function"
    },
    {
      "inputs": [],
      "name": "vest",
      "outputs": [],
      "stateMutability": "nonpayable",
      "type": "function"
    },
    {
      "inputs": [],
      "name": "getReward",
      "outputs": [],
      "stateMutability": "nonpayable",
      "type": "function"
    }
  ],
  "bytecode": "0x60a060405234801561001057600080fd5b506040516127683803806127688339818101604052602081101561003357600080fd5b8101908080519060200190929190505050336000806101000a81548173ffffffffffffffffffffffffffffffffffffffff021916908373ffffffffffffffffffffffffffffffffffffffff16021790555060008054906101000a900473ffffffffffffffffffffffffffffffffffffffff1673ffffffffffffffffffffffffffffffffffffffff16600073ffffffffffffffffffffffffffffffffffffffff167f8be0079c531659141344cd1fd0a4f28419497f9722a3daafe3b4186f6b6457e060405160405180910390a3600180819055508073ffffffffffffffffffffffffffffffffffffffff1660808173ffffffffffffffffffffffffffffffffffffffff1660601b81525050426002819055505060805160601c6125f261017660003980610cae528061119152806116fe528061199c5280611d3a52506125f26000f3fe608060405234801561001057600080fd5b50600436106101ce5760003560e01c80638b87634711610104578063a694fc3a116100a2578063da7bd3e911610071578063da7bd3e9146107c1578063df136d651461084b578063ee1d036c14610869578063f2fde38b146108cb576101ce565b8063a694fc3a14610739578063c8f33c9114610767578063cd3daf9d14610785578063d0cc82e3146107a3576101ce565b806397f46527116100de57806397f465271461062d578063981f3b8e146106855780639b217f90146106b9578063a15d59ce1461071b576101ce565b80638b876347146105815780638da5cb5b146105d95780638f32d59b1461060d576101ce565b8063458efde3116101715780636b3905c41161014b5780636b3905c4146104a957806370a0823114610501578063715018a6146105595780638ad5877714610563576101ce565b8063458efde31461041557806345e5441f1461041f57806363667eb71461048b576101ce565b8063204b676a116101ad578063204b676a146102db578063227d517a146103335780632f5bb6611461038b5780633d18b9121461040b576101ce565b80628cc262146101d35780630700037d1461022b57806319e740c014610283575b600080fd5b610215600480360360208110156101e957600080fd5b81019080803573ffffffffffffffffffffffffffffffffffffffff16906020019092919050505061090f565b6040518082815260200191505060405180910390f35b61026d6004803603602081101561024157600080fd5b81019080803573ffffffffffffffffffffffffffffffffffffffff169060200190929190505050610a2d565b6040518082815260200191505060405180910390f35b6102c56004803603602081101561029957600080fd5b81019080803573ffffffffffffffffffffffffffffffffffffffff169060200190929190505050610a45565b6040518082815260200191505060405180910390f35b61031d600480360360208110156102f157600080fd5b81019080803573ffffffffffffffffffffffffffffffffffffffff169060200190929190505050610a91565b6040518082815260200191505060405180910390f35b6103756004803603602081101561034957600080fd5b81019080803573ffffffffffffffffffffffffffffffffffffffff169060200190929190505050610add565b6040518082815260200191505060405180910390f35b6103cd600480360360208110156103a157600080fd5b81019080803573ffffffffffffffffffffffffffffffffffffffff169060200190929190505050610af5565b6040518082600260200280838360005b838110156103f85780820151818401526020810190506103dd565b5050505090500191505060405180910390f35b610413610b4c565b005b61041d610f2d565b005b6104756004803603606081101561043557600080fd5b81019080803573ffffffffffffffffffffffffffffffffffffffff16906020019092919080359060200190929190803590602001909291905050506114bd565b6040518082815260200191505060405180910390f35b6104936114fc565b6040518082815260200191505060405180910390f35b6104eb600480360360208110156104bf57600080fd5b81019080803573ffffffffffffffffffffffffffffffffffffffff169060200190929190505050611501565b6040518082815260200191505060405180910390f35b6105436004803603602081101561051757600080fd5b81019080803573ffffffffffffffffffffffffffffffffffffffff169060200190929190505050611524565b6040518082815260200191505060405180910390f35b61056161156d565b005b61056b61163c565b6040518082815260200191505060405180910390f35b6105c36004803603602081101561059757600080fd5b81019080803573ffffffffffffffffffffffffffffffffffffffff169060200190929190505050611641565b6040518082815260200191505060405180910390f35b6105e1611659565b604051808273ffffffffffffffffffffffffffffffffffffffff16815260200191505060405180910390f35b610615611682565b60405180821515815260200191505060405180910390f35b61066f6004803603602081101561064357600080fd5b81019080803573ffffffffffffffffffffffffffffffffffffffff1690602001909291905050506116d9565b6040518082815260200191505060405180910390f35b61068d6116fc565b604051808273ffffffffffffffffffffffffffffffffffffffff16815260200191505060405180910390f35b610705600480360360408110156106cf57600080fd5b81019080803573ffffffffffffffffffffffffffffffffffffffff16906020019092919080359060200190929190505050611720565b6040518082815260200191505060405180910390f35b610723611745565b6040518082815260200191505060405180910390f35b6107656004803603602081101561074f57600080fd5b810190808035906020019092919050505061174b565b005b61076f611991565b6040518082815260200191505060405180910390f35b61078d611997565b6040518082815260200191505060405180910390f35b6107ab611bc2565b6040518082815260200191505060405180910390f35b61080d600480360360408110156107d757600080fd5b81019080803573ffffffffffffffffffffffffffffffffffffffff16906020019092919080359060200190929190505050611bc7565b6040518082600260200280838360005b8381101561083857808201518184015260208101905061081d565b5050505090500191505060405180910390f35b610853611c6b565b6040518082815260200191505060405180910390f35b6108b56004803603604081101561087f57600080fd5b81019080803573ffffffffffffffffffffffffffffffffffffffff16906020019092919080359060200190929190505050611c71565b6040518082815260200191505060405180910390f35b61090d600480360360208110156108e157600080fd5b81019080803573ffffffffffffffffffffffffffffffffffffffff169060200190929190505050611c96565b005b6000610a26600560008473ffffffffffffffffffffffffffffffffffffffff1673ffffffffffffffffffffffffffffffffffffffff16815260200190815260200160002054610a18670de0b6b3a7640000610a0a6109bc600460008973ffffffffffffffffffffffffffffffffffffffff1673ffffffffffffffffffffffffffffffffffffffff168152602001908152602001600020546109ae611997565b611cb390919063ffffffff16565b600760008973ffffffffffffffffffffffffffffffffffffffff1673ffffffffffffffffffffffffffffffffffffffff16815260200190815260200160002054611cca90919063ffffffff16565b611d0190919063ffffffff16565b611d1a90919063ffffffff16565b9050919050565b60056020528060005260406000206000915090505481565b600080610a5183610a91565b905060005b81811015610a86576000610a6a8583611720565b14610a79578092505050610a8c565b8080600101915050610a56565b50809150505b919050565b6000600660008373ffffffffffffffffffffffffffffffffffffffff1673ffffffffffffffffffffffffffffffffffffffff168152602001908152602001600020805490509050919050565b60076020528060005260406000206000915090505481565b610afd61243c565b6000610b0883610a45565b9050610b1383610a91565b811415610b39576040518060400160405280600081526020016000815250915050610b47565b610b438382611bc7565b9150505b919050565b60026001541415610bc5576040517f08c379a000000000000000000000000000000000000000000000000000000000815260040180806020018281038252601f8152602001807f5265656e7472616e637947756172643a207265656e7472616e742063616c6c0081525060200191505060405180910390fd5b600260018190555033610bd6611997565b60038190555042600281905550600073ffffffffffffffffffffffffffffffffffffffff168173ffffffffffffffffffffffffffffffffffffffff1614610caa57610c208161090f565b600560008373ffffffffffffffffffffffffffffffffffffffff1673ffffffffffffffffffffffffffffffffffffffff16815260200190815260200160002081905550600354600460008373ffffffffffffffffffffffffffffffffffffffff1673ffffffffffffffffffffffffffffffffffffffff168152602001908152602001600020819055505b60007f000000000000000000000000000000000000000000000000000000000000000073ffffffffffffffffffffffffffffffffffffffff166304433bbc6040518163ffffffff1660e01b815260040180806020018281038252600c8152602001807f42617365547261646567656e000000000000000000000000000000000000000081525060200191505060206040518083038186803b158015610d4e57600080fd5b505afa158015610d62573d6000803e3d6000fd5b505050506040513d6020811015610d7857600080fd5b810190808051906020019092919050505090506000600560003373ffffffffffffffffffffffffffffffffffffffff1673ffffffffffffffffffffffffffffffffffffffff1681526020019081526020016000205490506000811115610f21576000600560003373ffffffffffffffffffffffffffffffffffffffff1673ffffffffffffffffffffffffffffffffffffffff168152602001908152602001600020819055508173ffffffffffffffffffffffffffffffffffffffff1663a9059cbb33836040518363ffffffff1660e01b8152600401808373ffffffffffffffffffffffffffffffffffffffff16815260200182815260200192505050602060405180830381600087803b158015610e8e57600080fd5b505af1158015610ea2573d6000803e3d6000fd5b505050506040513d6020811015610eb857600080fd5b8101908080519060200190929190505050503373ffffffffffffffffffffffffffffffffffffffff167fd6f2c8500df5b44f11e9e48b91ff9f1b9d81bc496d55570c2b1b75bf65243f518242604051808381526020018281526020019250505060405180910390a25b50505060018081905550565b60026001541415610fa6576040517f08c379a000000000000000000000000000000000000000000000000000000000815260040180806020018281038252601f8152602001807f5265656e7472616e637947756172643a207265656e7472616e742063616c6c0081525060200191505060405180910390fd5b600260018190555033610fb7611997565b60038190555042600281905550600073ffffffffffffffffffffffffffffffffffffffff168173ffffffffffffffffffffffffffffffffffffffff161461108b576110018161090f565b600560008373ffffffffffffffffffffffffffffffffffffffff1673ffffffffffffffffffffffffffffffffffffffff16815260200190815260200160002081905550600354600460008373ffffffffffffffffffffffffffffffffffffffff1673ffffffffffffffffffffffffffffffffffffffff168152602001908152602001600020819055505b600061109633610a91565b9050600080600090505b828110156111845760006110b43383611720565b9050428111156110c45750611184565b60006110d03384611c71565b90506000811115611175576040518060400160405280600060ff168152602001600060ff16815250600660003373ffffffffffffffffffffffffffffffffffffffff1673ffffffffffffffffffffffffffffffffffffffff168152602001908152602001600020848154811061114257fe5b906000526020600020906002020190600261115e92919061245e565b506111728185611d1a90919063ffffffff16565b93505b505080806001019150506110a0565b50600081146114a95760007f000000000000000000000000000000000000000000000000000000000000000073ffffffffffffffffffffffffffffffffffffffff166304433bbc6040518163ffffffff1660e01b81526004018080602001828103825260088152602001807f53657474696e677300000000000000000000000000000000000000000000000081525060200191505060206040518083038186803b15801561123157600080fd5b505afa158015611245573d6000803e3d6000fd5b505050506040513d602081101561125b57600080fd5b8101908080519060200190929190505050905060008173ffffffffffffffffffffffffffffffffffffffff1663be781b1c6040518163ffffffff1660e01b815260040160206040518083038186803b1580156112b657600080fd5b505afa1580156112ca573d6000803e3d6000fd5b505050506040513d60208110156112e057600080fd5b8101908080519060200190929190505050905061130883600854611cb390919063ffffffff16565b60088190555061136083600760003373ffffffffffffffffffffffffffffffffffffffff1673ffffffffffffffffffffffffffffffffffffffff16815260200190815260200160002054611cb390919063ffffffff16565b600760003373ffffffffffffffffffffffffffffffffffffffff1673ffffffffffffffffffffffffffffffffffffffff168152602001908152602001600020819055508073ffffffffffffffffffffffffffffffffffffffff1663a9059cbb33856040518363ffffffff1660e01b8152600401808373ffffffffffffffffffffffffffffffffffffffff16815260200182815260200192505050602060405180830381600087803b15801561141457600080fd5b505af1158015611428573d6000803e3d6000fd5b505050506040513d602081101561143e57600080fd5b8101908080519060200190929190505050503373ffffffffffffffffffffffffffffffffffffffff167ffbeff59d2bfda0d79ea8a29f8c57c66d48c7a13eabbdb90908d9115ec41c9dc64285604051808381526020018281526020019250505060405180910390a250505b6114b1610b4c565b50505060018081905550565b600660205282600052604060002082815481106114d657fe5b906000526020600020906002020181600281106114ef57fe5b0160009250925050505481565b600081565b600061150c82610af5565b60006002811061151857fe5b60200201519050919050565b6000600760008373ffffffffffffffffffffffffffffffffffffffff1673ffffffffffffffffffffffffffffffffffffffff168152602001908152602001600020549050919050565b611575611682565b61157e57600080fd5b600073ffffffffffffffffffffffffffffffffffffffff1660008054906101000a900473ffffffffffffffffffffffffffffffffffffffff1673ffffffffffffffffffffffffffffffffffffffff167f8be0079c531659141344cd1fd0a4f28419497f9722a3daafe3b4186f6b6457e060405160405180910390a360008060006101000a81548173ffffffffffffffffffffffffffffffffffffffff021916908373ffffffffffffffffffffffffffffffffffffffff160217905550565b600181565b60046020528060005260406000206000915090505481565b60008060009054906101000a900473ffffffffffffffffffffffffffffffffffffffff16905090565b60008060009054906101000a900473ffffffffffffffffffffffffffffffffffffffff1673ffffffffffffffffffffffffffffffffffffffff163373ffffffffffffffffffffffffffffffffffffffff1614905090565b60006116e482610af5565b6001600281106116f057fe5b60200201519050919050565b7f000000000000000000000000000000000000000000000000000000000000000081565b600061172c8383611bc7565b60006002811061173857fe5b6020020151905092915050565b60085481565b600260015414156117c4576040517f08c379a000000000000000000000000000000000000000000000000000000000815260040180806020018281038252601f8152602001807f5265656e7472616e637947756172643a207265656e7472616e742063616c6c0081525060200191505060405180910390fd5b6002600181905550336117d5611997565b60038190555042600281905550600073ffffffffffffffffffffffffffffffffffffffff168173ffffffffffffffffffffffffffffffffffffffff16146118a95761181f8161090f565b600560008373ffffffffffffffffffffffffffffffffffffffff1673ffffffffffffffffffffffffffffffffffffffff16815260200190815260200160002081905550600354600460008373ffffffffffffffffffffffffffffffffffffffff1673ffffffffffffffffffffffffffffffffffffffff168152602001908152602001600020819055505b60008211611902576040517f08c379a000000000000000000000000000000000000000000000000000000000815260040180806020018281038252603e81526020018061257f603e913960400191505060405180910390fd5b600061191a62278d0042611d1a90919063ffffffff16565b9050611927338285611d36565b3373ffffffffffffffffffffffffffffffffffffffff167fb4caaf29adda3eefee3ad552a8e85058589bf834c7466cae4ee58787f70589ed84834260405180848152602001838152602001828152602001935050505060405180910390a250506001808190555050565b60025481565b6000807f000000000000000000000000000000000000000000000000000000000000000073ffffffffffffffffffffffffffffffffffffffff166304433bbc6040518163ffffffff1660e01b81526004018080602001828103825260088152602001807f53657474696e677300000000000000000000000000000000000000000000000081525060200191505060206040518083038186803b158015611a3c57600080fd5b505afa158015611a50573d6000803e3d6000fd5b505050506040513d6020811015611a6657600080fd5b8101908080519060200190929190505050905060008173ffffffffffffffffffffffffffffffffffffffff166328a2176f6040518163ffffffff1660e01b815260040180806020018281038252601e8152602001807f5765656b6c79537461626c65436f696e5374616b696e6752657761726473000081525060200191505060206040518083038186803b158015611afd57600080fd5b505afa158015611b11573d6000803e3d6000fd5b505050506040513d6020811015611b2757600080fd5b8101908080519060200190929190505050905060006008541415611b515760035492505050611bbf565b611bba611ba9600854611b9b670de0b6b3a7640000611b8d86611b7f60025442611cb390919063ffffffff16565b611cca90919063ffffffff16565b611cca90919063ffffffff16565b611d0190919063ffffffff16565b600354611d1a90919063ffffffff16565b925050505b90565b603081565b611bcf61243c565b600660008473ffffffffffffffffffffffffffffffffffffffff1673ffffffffffffffffffffffffffffffffffffffff1681526020019081526020016000208281548110611c1957fe5b9060005260206000209060020201600280602002604051908101604052809291908260028015611c5e576020028201915b815481526020019060010190808311611c4a575b5050505050905092915050565b60035481565b6000611c7d8383611bc7565b600160028110611c8957fe5b6020020151905092915050565b611c9e611682565b611ca757600080fd5b611cb081612345565b50565b600082821115611cbf57fe5b818303905092915050565b600080831415611cdd5760009050611cfb565b6000828402905082848281611cee57fe5b0414611cf657fe5b809150505b92915050565b600080828481611d0d57fe5b0490508091505092915050565b600080828401905083811015611d2c57fe5b8091505092915050565b60007f000000000000000000000000000000000000000000000000000000000000000073ffffffffffffffffffffffffffffffffffffffff166304433bbc6040518163ffffffff1660e01b81526004018080602001828103825260088152602001807f53657474696e677300000000000000000000000000000000000000000000000081525060200191505060206040518083038186803b158015611dda57600080fd5b505afa158015611dee573d6000803e3d6000fd5b505050506040513d6020811015611e0457600080fd5b8101908080519060200190929190505050905060008173ffffffffffffffffffffffffffffffffffffffff1663be781b1c6040518163ffffffff1660e01b815260040160206040518083038186803b158015611e5f57600080fd5b505afa158015611e73573d6000803e3d6000fd5b505050506040513d6020811015611e8957600080fd5b81019080805190602001909291905050509050834210611f11576040517f08c379a000000000000000000000000000000000000000000000000000000000815260040180806020018281038252601a8152602001807f54696d65206d75737420626520696e207468652066757475726500000000000081525060200191505060405180910390fd5b6000831415611f88576040517f08c379a00000000000000000000000000000000000000000000000000000000081526004018080602001828103825260178152602001807f5175616e746974792063616e6e6f74206265207a65726f00000000000000000081525060200191505060405180910390fd5b611f9d83600854611d1a90919063ffffffff16565b6008819055508073ffffffffffffffffffffffffffffffffffffffff166370a08231306040518263ffffffff1660e01b8152600401808273ffffffffffffffffffffffffffffffffffffffff16815260200191505060206040518083038186803b15801561200a57600080fd5b505afa15801561201e573d6000803e3d6000fd5b505050506040513d602081101561203457600080fd5b8101908080519060200190929190505050600854111561209f576040517f08c379a00000000000000000000000000000000000000000000000000000000081526004018080602001828103825260478152602001806125386047913960600191505060405180910390fd5b6000600660008773ffffffffffffffffffffffffffffffffffffffff1673ffffffffffffffffffffffffffffffffffffffff168152602001908152602001600020805490509050603081111561215d576040517f08c379a000000000000000000000000000000000000000000000000000000000815260040180806020018281038252601c8152602001807f56657374696e67207363686564756c6520697320746f6f206c6f6e670000000081525060200191505060405180910390fd5b60008114156121af5783600760008873ffffffffffffffffffffffffffffffffffffffff1673ffffffffffffffffffffffffffffffffffffffff168152602001908152602001600020819055506122b1565b846121c58760016121bf8a610a91565b03611720565b1061221b576040517f08c379a00000000000000000000000000000000000000000000000000000000081526004018080602001828103825260378152602001806125016037913960400191505060405180910390fd5b61226d84600760008973ffffffffffffffffffffffffffffffffffffffff1673ffffffffffffffffffffffffffffffffffffffff16815260200190815260200160002054611d1a90919063ffffffff16565b600760008873ffffffffffffffffffffffffffffffffffffffff1673ffffffffffffffffffffffffffffffffffffffff168152602001908152602001600020819055505b600660008773ffffffffffffffffffffffffffffffffffffffff1673ffffffffffffffffffffffffffffffffffffffff168152602001908152602001600020604051806040016040528087815260200186815250908060018154018082558091505060019003906000526020600020906002020160009091909190915090600261233c9291906124a3565b50505050505050565b600073ffffffffffffffffffffffffffffffffffffffff168173ffffffffffffffffffffffffffffffffffffffff16141561237f57600080fd5b8073ffffffffffffffffffffffffffffffffffffffff1660008054906101000a900473ffffffffffffffffffffffffffffffffffffffff1673ffffffffffffffffffffffffffffffffffffffff167f8be0079c531659141344cd1fd0a4f28419497f9722a3daafe3b4186f6b6457e060405160405180910390a3806000806101000a81548173ffffffffffffffffffffffffffffffffffffffff021916908373ffffffffffffffffffffffffffffffffffffffff16021790555050565b6040518060400160405280600290602082028036833780820191505090505090565b8260028101928215612492579160200282015b82811115612491578251829060ff16905591602001919060010190612471565b5b50905061249f91906124e3565b5090565b82600281019282156124d2579160200282015b828111156124d15782518255916020019190600101906124b6565b5b5090506124df91906124e3565b5090565b5b808211156124fc5760008160009055506001016124e4565b509056fe43616e6e6f7420616464206e65772076657374656420656e7472696573206561726c696572207468616e20746865206c617374206f6e654d75737420626520656e6f7567682062616c616e636520696e2074686520636f6e747261637420746f2070726f7669646520666f72207468652076657374696e6720656e747279537461626c65436f696e5374616b696e67526577617264733a205374616b656420616d6f756e74206d7573742062652067726561746572207468616e2030a2646970667358221220e7df13b62c19ee25abbf566211fca7e0082dfd2a6cd485f8469207b4e915328264736f6c634300060c0033",
  "immutableReferences": {
    "779": [
      {
        "length": 32,
        "start": 3246
      },
      {
        "length": 32,
        "start": 4497
      },
      {
        "length": 32,
        "start": 5886
      },
      {
        "length": 32,
        "start": 6556
      },
      {
        "length": 32,
        "start": 7482
      }
    ]
  },
  "source": "pragma solidity >=0.5.0;\r\n\r\n// Inheritance\r\nimport \"./Ownable.sol\";\r\nimport \"./interfaces/IStableCoinStakingRewards.sol\";\r\nimport \"./openzeppelin-solidity/ReentrancyGuard.sol\";\r\n\r\n// Libraires\r\nimport \"./libraries/SafeMath.sol\";\r\n\r\n// Internal references\r\nimport \"./interfaces/IERC20.sol\";\r\nimport \"./interfaces/IAddressResolver.sol\";\r\nimport \"./interfaces/ISettings.sol\";\r\n\r\ncontract StableCoinStakingRewards is Ownable, IStableCoinStakingRewards, ReentrancyGuard {\r\n    using SafeMath for uint;\r\n\r\n    IAddressResolver public immutable ADDRESS_RESOLVER;\r\n\r\n    uint public lastUpdateTime;\r\n    uint public rewardPerTokenStored;\r\n    mapping(address => uint256) public userRewardPerTokenPaid;\r\n    mapping(address => uint256) public rewards;\r\n\r\n    /* Lists of (timestamp, quantity) pairs per account, sorted in ascending time order.\r\n     * These are the times at which each given quantity of cUSD vests. */\r\n    mapping(address => uint[2][]) public vestingSchedules;\r\n\r\n    /* An account's total vested cUSD balance to save recomputing this */\r\n    mapping(address => uint) public totalVestedAccountBalance;\r\n\r\n    /* The total remaining vested balance, for verifying the actual Tradegen balance of this contract against. */\r\n    uint public totalVestedBalance;\r\n\r\n    uint public constant TIME_INDEX = 0;\r\n    uint public constant QUANTITY_INDEX = 1;\r\n\r\n    /* Limit vesting entries to disallow unbounded iteration over vesting schedules. */\r\n    uint public constant MAX_VESTING_ENTRIES = 48;\r\n\r\n    /* ========== CONSTRUCTOR ========== */\r\n\r\n    constructor(IAddressResolver _addressResolver) public Ownable() {\r\n        ADDRESS_RESOLVER = _addressResolver;\r\n        lastUpdateTime = block.timestamp;\r\n    }\r\n\r\n    /* ========== VIEW FUNCTIONS ========== */\r\n\r\n    /**\r\n     * @notice A simple alias to totalVestedAccountBalance: provides ERC20 balance integration.\r\n     */\r\n    function balanceOf(address account) public view override returns (uint) {\r\n        return totalVestedAccountBalance[account];\r\n    }\r\n\r\n    /**\r\n     * @notice The number of vesting dates in an account's schedule.\r\n     */\r\n    function numVestingEntries(address account) public view override returns (uint) {\r\n        return vestingSchedules[account].length;\r\n    }\r\n\r\n    /**\r\n     * @notice Get a particular schedule entry for an account.\r\n     * @return A pair of uints: (timestamp, cUSD quantity).\r\n     */\r\n    function getVestingScheduleEntry(address account, uint index) public view override returns (uint[2] memory) {\r\n        return vestingSchedules[account][index];\r\n    }\r\n\r\n    /**\r\n     * @notice Get the time at which a given schedule entry will vest.\r\n     */\r\n    function getVestingTime(address account, uint index) public view override returns (uint) {\r\n        return getVestingScheduleEntry(account, index)[TIME_INDEX];\r\n    }\r\n\r\n    /**\r\n     * @notice Get the quantity of cUSD associated with a given schedule entry.\r\n     */\r\n    function getVestingQuantity(address account, uint index) public view override returns (uint) {\r\n        return getVestingScheduleEntry(account, index)[QUANTITY_INDEX];\r\n    }\r\n\r\n    /**\r\n     * @notice Obtain the index of the next schedule entry that will vest for a given user.\r\n     */\r\n    function getNextVestingIndex(address account) public view override returns (uint) {\r\n        uint len = numVestingEntries(account);\r\n\r\n        for (uint i = 0; i < len; i++)\r\n        {\r\n            if (getVestingTime(account, i) != 0)\r\n            {\r\n                return i;\r\n            }\r\n        }\r\n\r\n        return len;\r\n    }\r\n\r\n    /**\r\n     * @notice Calculates the amount of TGEN reward per token staked.\r\n     */\r\n    function rewardPerToken() public view override returns (uint256) {\r\n        address settingsAddress = ADDRESS_RESOLVER.getContractAddress(\"Settings\");\r\n        uint rewardRate = ISettings(settingsAddress).getParameterValue(\"WeeklyStableCoinStakingRewards\");\r\n\r\n        if (totalVestedBalance == 0) {\r\n            return rewardPerTokenStored;\r\n        }\r\n        return\r\n            rewardPerTokenStored.add(\r\n                block.timestamp.sub(lastUpdateTime).mul(rewardRate).mul(1e18).div(totalVestedBalance)\r\n            );\r\n    }\r\n\r\n    /**\r\n     * @notice Calculates the amount of TGEN rewards earned.\r\n     */\r\n    function earned(address account) public view override returns (uint256) {\r\n        return totalVestedAccountBalance[account].mul(rewardPerToken().sub(userRewardPerTokenPaid[account])).div(1e18).add(rewards[account]);\r\n    }\r\n\r\n    /**\r\n     * @notice Obtain the next schedule entry that will vest for a given user.\r\n     * @return A pair of uints: (timestamp, cUSD quantity). */\r\n    function getNextVestingEntry(address account) public view override returns (uint[2] memory) {\r\n        uint index = getNextVestingIndex(account);\r\n        if (index == numVestingEntries(account))\r\n        {\r\n            return [uint(0), 0];\r\n        }\r\n\r\n        return getVestingScheduleEntry(account, index);\r\n    }\r\n\r\n    /**\r\n     * @notice Obtain the time at which the next schedule entry will vest for a given user.\r\n     */\r\n    function getNextVestingTime(address account) external view override returns (uint) {\r\n        return getNextVestingEntry(account)[TIME_INDEX];\r\n    }\r\n\r\n    /**\r\n     * @notice Obtain the quantity which the next schedule entry will vest for a given user.\r\n     */\r\n    function getNextVestingQuantity(address account) external view override returns (uint) {\r\n        return getNextVestingEntry(account)[QUANTITY_INDEX];\r\n    }\r\n\r\n    /* ========== INTERNAL FUNCTIONS ========== */\r\n\r\n    /**\r\n     * @notice Add a new vesting entry at a given time and quantity to an account's schedule.\r\n     * @param account The account to append a new vesting entry to.\r\n     * @param time The absolute unix timestamp after which the vested quantity may be withdrawn.\r\n     * @param quantity The quantity of cUSD that will vest.\r\n     */\r\n    function appendVestingEntry(address account, uint time, uint quantity) internal {\r\n        address settingsAddress = ADDRESS_RESOLVER.getContractAddress(\"Settings\");\r\n        address stableCoinAddress = ISettings(settingsAddress).getStableCoinAddress();\r\n\r\n        /* No empty or already-passed vesting entries allowed. */\r\n        require(block.timestamp < time, \"Time must be in the future\");\r\n        require(quantity != 0, \"Quantity cannot be zero\");\r\n\r\n        /* There must be enough balance in the contract to provide for the vesting entry. */\r\n        totalVestedBalance = totalVestedBalance.add(quantity);\r\n        require(\r\n            totalVestedBalance <= IERC20(stableCoinAddress).balanceOf(address(this)),\r\n            \"Must be enough balance in the contract to provide for the vesting entry\"\r\n        );\r\n\r\n        /* Disallow arbitrarily long vesting schedules in light of the gas limit. */\r\n        uint scheduleLength = vestingSchedules[account].length;\r\n        require(scheduleLength <= MAX_VESTING_ENTRIES, \"Vesting schedule is too long\");\r\n\r\n        if (scheduleLength == 0)\r\n        {\r\n            totalVestedAccountBalance[account] = quantity;\r\n        }\r\n        else\r\n        {\r\n            /* Disallow adding new vested cUSD earlier than the last one.\r\n             * Since entries are only appended, this means that no vesting date can be repeated. */\r\n            require(\r\n                getVestingTime(account, numVestingEntries(account) - 1) < time,\r\n                \"Cannot add new vested entries earlier than the last one\"\r\n            );\r\n\r\n            totalVestedAccountBalance[account] = totalVestedAccountBalance[account].add(quantity);\r\n        }\r\n\r\n        vestingSchedules[account].push([time, quantity]);\r\n    }\r\n\r\n    /* ========== MUTATIVE FUNCTIONS ========== */\r\n\r\n    /**\r\n     * @notice Stakes the given cUSD amount.\r\n     */\r\n    function stake(uint amount) external override nonReentrant updateReward(msg.sender) {\r\n        require(amount > 0, \"StableCoinStakingRewards: Staked amount must be greater than 0\");\r\n\r\n        uint vestingTimestamp = block.timestamp.add(30 days);\r\n        appendVestingEntry(msg.sender, vestingTimestamp, amount);\r\n\r\n        emit Staked(msg.sender, amount, vestingTimestamp, block.timestamp);\r\n    }\r\n\r\n    /**\r\n     * @notice Allow a user to withdraw any cUSD in their schedule that have vested.\r\n     */\r\n    function vest() external override nonReentrant updateReward(msg.sender) {\r\n        uint numEntries = numVestingEntries(msg.sender);\r\n        uint total;\r\n\r\n        for (uint i = 0; i < numEntries; i++)\r\n        {\r\n            uint time = getVestingTime(msg.sender, i);\r\n            /* The list is sorted; when we reach the first future time, bail out. */\r\n            if (time > block.timestamp)\r\n            {\r\n                break;\r\n            }\r\n\r\n            uint qty = getVestingQuantity(msg.sender, i);\r\n\r\n            if (qty > 0)\r\n            {\r\n                vestingSchedules[msg.sender][i] = [0, 0];\r\n                total = total.add(qty);\r\n            }\r\n        }\r\n\r\n        if (total != 0)\r\n        {\r\n            address settingsAddress = ADDRESS_RESOLVER.getContractAddress(\"Settings\");\r\n            address stableCoinAddress = ISettings(settingsAddress).getStableCoinAddress();\r\n            totalVestedBalance = totalVestedBalance.sub(total);\r\n            totalVestedAccountBalance[msg.sender] = totalVestedAccountBalance[msg.sender].sub(total);\r\n            IERC20(stableCoinAddress).transfer(msg.sender, total);\r\n\r\n            emit Vested(msg.sender, block.timestamp, total);\r\n        }\r\n\r\n        getReward();\r\n    }\r\n\r\n    /**\r\n     * @notice Allow a user to claim any available staking rewards.\r\n     */\r\n    function getReward() public override nonReentrant updateReward(msg.sender) {\r\n        address baseTradegenAddress = ADDRESS_RESOLVER.getContractAddress(\"BaseTradegen\");\r\n        uint reward = rewards[msg.sender];\r\n\r\n        if (reward > 0)\r\n        {\r\n            rewards[msg.sender] = 0;\r\n            IERC20(baseTradegenAddress).transfer(msg.sender, reward);\r\n            emit RewardPaid(msg.sender, reward, block.timestamp);\r\n        }\r\n    }\r\n\r\n    /* ========== MODIFIERS ========== */\r\n\r\n    modifier updateReward(address account) {\r\n        rewardPerTokenStored = rewardPerToken();\r\n        lastUpdateTime = block.timestamp;\r\n        if (account != address(0)) {\r\n            rewards[account] = earned(account);\r\n            userRewardPerTokenPaid[account] = rewardPerTokenStored;\r\n        }\r\n        _;\r\n    }\r\n\r\n    /* ========== EVENTS ========== */\r\n\r\n    event Vested(address indexed beneficiary, uint time, uint value);\r\n    event Staked(address indexed beneficiary, uint total, uint vestingTimestamp, uint timestamp);\r\n    event RewardPaid(address indexed user, uint amount, uint timestamp);\r\n}",
  "sourcePath": "C:/Users/xavie/OneDrive/Desktop/TradeGen/Github/tradegen/contracts/StableCoinStakingRewards.sol",
  "compiler": {
    "name": "solc",
    "version": "0.6.12+commit.27d51765.Emscripten.clang"
  },
  "schemaVersion": "3.4.1",
  "updatedAt": "2021-08-08T21:55:38.696Z",
  "devdoc": {
    "kind": "dev",
    "methods": {
      "getNextVestingEntry(address)": {
        "returns": {
          "_0": "A pair of uints: (timestamp, cUSD quantity). "
        }
      },
      "getVestingScheduleEntry(address,uint256)": {
        "returns": {
          "_0": "A pair of uints: (timestamp, cUSD quantity)."
        }
      },
      "isOwner()": {
        "returns": {
          "_0": "true if `msg.sender` is the owner of the contract."
        }
      },
      "owner()": {
        "returns": {
          "_0": "the address of the owner."
        }
      },
      "renounceOwnership()": {
        "details": "Allows the current owner to relinquish control of the contract."
      },
      "transferOwnership(address)": {
        "details": "Allows the current owner to transfer control of the contract to a newOwner.",
        "params": {
          "newOwner": "The address to transfer ownership to."
        }
      }
    },
    "version": 1
  },
  "userdoc": {
    "kind": "user",
    "methods": {
      "balanceOf(address)": {
        "notice": "A simple alias to totalVestedAccountBalance: provides ERC20 balance integration."
      },
      "earned(address)": {
        "notice": "Calculates the amount of TGEN rewards earned."
      },
      "getNextVestingEntry(address)": {
        "notice": "Obtain the next schedule entry that will vest for a given user."
      },
      "getNextVestingIndex(address)": {
        "notice": "Obtain the index of the next schedule entry that will vest for a given user."
      },
      "getNextVestingQuantity(address)": {
        "notice": "Obtain the quantity which the next schedule entry will vest for a given user."
      },
      "getNextVestingTime(address)": {
        "notice": "Obtain the time at which the next schedule entry will vest for a given user."
      },
      "getReward()": {
        "notice": "Allow a user to claim any available staking rewards."
      },
      "getVestingQuantity(address,uint256)": {
        "notice": "Get the quantity of cUSD associated with a given schedule entry."
      },
      "getVestingScheduleEntry(address,uint256)": {
        "notice": "Get a particular schedule entry for an account."
      },
      "getVestingTime(address,uint256)": {
        "notice": "Get the time at which a given schedule entry will vest."
      },
      "numVestingEntries(address)": {
        "notice": "The number of vesting dates in an account's schedule."
      },
      "renounceOwnership()": {
        "notice": "Renouncing to ownership will leave the contract without an owner. It will not be possible to call the functions with the `onlyOwner` modifier anymore."
      },
      "rewardPerToken()": {
        "notice": "Calculates the amount of TGEN reward per token staked."
      },
      "stake(uint256)": {
        "notice": "Stakes the given cUSD amount."
      },
      "vest()": {
        "notice": "Allow a user to withdraw any cUSD in their schedule that have vested."
      }
    },
    "version": 1
  }
}