{
  "contractName": "StakingFarmRewards",
  "abi": [
    {
      "inputs": [
        {
          "internalType": "contract IAddressResolver",
          "name": "_addressResolver",
          "type": "address"
        }
      ],
      "stateMutability": "nonpayable",
      "type": "constructor"
    },
    {
      "anonymous": false,
      "inputs": [
        {
          "indexed": true,
          "internalType": "address",
          "name": "previousOwner",
          "type": "address"
        },
        {
          "indexed": true,
          "internalType": "address",
          "name": "newOwner",
          "type": "address"
        }
      ],
      "name": "OwnershipTransferred",
      "type": "event"
    },
    {
      "anonymous": false,
      "inputs": [
        {
          "indexed": true,
          "internalType": "address",
          "name": "user",
          "type": "address"
        },
        {
          "indexed": false,
          "internalType": "uint256",
          "name": "amount",
          "type": "uint256"
        },
        {
          "indexed": false,
          "internalType": "address",
          "name": "farmAddress",
          "type": "address"
        },
        {
          "indexed": false,
          "internalType": "uint256",
          "name": "timestamp",
          "type": "uint256"
        }
      ],
      "name": "RewardPaid",
      "type": "event"
    },
    {
      "anonymous": false,
      "inputs": [
        {
          "indexed": true,
          "internalType": "address",
          "name": "beneficiary",
          "type": "address"
        },
        {
          "indexed": false,
          "internalType": "uint256",
          "name": "total",
          "type": "uint256"
        },
        {
          "indexed": false,
          "internalType": "uint256",
          "name": "vestingTimestamp",
          "type": "uint256"
        },
        {
          "indexed": false,
          "internalType": "address",
          "name": "farmAddress",
          "type": "address"
        },
        {
          "indexed": false,
          "internalType": "uint256",
          "name": "timestamp",
          "type": "uint256"
        }
      ],
      "name": "Staked",
      "type": "event"
    },
    {
      "anonymous": false,
      "inputs": [
        {
          "indexed": true,
          "internalType": "address",
          "name": "beneficiary",
          "type": "address"
        },
        {
          "indexed": false,
          "internalType": "uint256",
          "name": "time",
          "type": "uint256"
        },
        {
          "indexed": false,
          "internalType": "uint256",
          "name": "value",
          "type": "uint256"
        },
        {
          "indexed": false,
          "internalType": "address",
          "name": "farmAddress",
          "type": "address"
        }
      ],
      "name": "Vested",
      "type": "event"
    },
    {
      "inputs": [],
      "name": "ADDRESS_RESOLVER",
      "outputs": [
        {
          "internalType": "contract IAddressResolver",
          "name": "",
          "type": "address"
        }
      ],
      "stateMutability": "view",
      "type": "function"
    },
    {
      "inputs": [],
      "name": "MAX_VESTING_ENTRIES",
      "outputs": [
        {
          "internalType": "uint256",
          "name": "",
          "type": "uint256"
        }
      ],
      "stateMutability": "view",
      "type": "function"
    },
    {
      "inputs": [],
      "name": "QUANTITY_INDEX",
      "outputs": [
        {
          "internalType": "uint256",
          "name": "",
          "type": "uint256"
        }
      ],
      "stateMutability": "view",
      "type": "function"
    },
    {
      "inputs": [],
      "name": "TIME_INDEX",
      "outputs": [
        {
          "internalType": "uint256",
          "name": "",
          "type": "uint256"
        }
      ],
      "stateMutability": "view",
      "type": "function"
    },
    {
      "inputs": [],
      "name": "isOwner",
      "outputs": [
        {
          "internalType": "bool",
          "name": "",
          "type": "bool"
        }
      ],
      "stateMutability": "view",
      "type": "function"
    },
    {
      "inputs": [
        {
          "internalType": "address",
          "name": "",
          "type": "address"
        }
      ],
      "name": "lastUpdateTime",
      "outputs": [
        {
          "internalType": "uint256",
          "name": "",
          "type": "uint256"
        }
      ],
      "stateMutability": "view",
      "type": "function"
    },
    {
      "inputs": [],
      "name": "owner",
      "outputs": [
        {
          "internalType": "address",
          "name": "",
          "type": "address"
        }
      ],
      "stateMutability": "view",
      "type": "function"
    },
    {
      "inputs": [],
      "name": "renounceOwnership",
      "outputs": [],
      "stateMutability": "nonpayable",
      "type": "function"
    },
    {
      "inputs": [
        {
          "internalType": "address",
          "name": "",
          "type": "address"
        }
      ],
      "name": "rewardPerTokenStored",
      "outputs": [
        {
          "internalType": "uint256",
          "name": "",
          "type": "uint256"
        }
      ],
      "stateMutability": "view",
      "type": "function"
    },
    {
      "inputs": [
        {
          "internalType": "address",
          "name": "",
          "type": "address"
        },
        {
          "internalType": "address",
          "name": "",
          "type": "address"
        }
      ],
      "name": "rewards",
      "outputs": [
        {
          "internalType": "uint256",
          "name": "",
          "type": "uint256"
        }
      ],
      "stateMutability": "view",
      "type": "function"
    },
    {
      "inputs": [
        {
          "internalType": "address",
          "name": "",
          "type": "address"
        },
        {
          "internalType": "address",
          "name": "",
          "type": "address"
        }
      ],
      "name": "totalVestedAccountBalance",
      "outputs": [
        {
          "internalType": "uint256",
          "name": "",
          "type": "uint256"
        }
      ],
      "stateMutability": "view",
      "type": "function"
    },
    {
      "inputs": [
        {
          "internalType": "address",
          "name": "",
          "type": "address"
        }
      ],
      "name": "totalVestedBalance",
      "outputs": [
        {
          "internalType": "uint256",
          "name": "",
          "type": "uint256"
        }
      ],
      "stateMutability": "view",
      "type": "function"
    },
    {
      "inputs": [
        {
          "internalType": "address",
          "name": "newOwner",
          "type": "address"
        }
      ],
      "name": "transferOwnership",
      "outputs": [],
      "stateMutability": "nonpayable",
      "type": "function"
    },
    {
      "inputs": [
        {
          "internalType": "address",
          "name": "",
          "type": "address"
        },
        {
          "internalType": "address",
          "name": "",
          "type": "address"
        }
      ],
      "name": "userRewardPerTokenPaid",
      "outputs": [
        {
          "internalType": "uint256",
          "name": "",
          "type": "uint256"
        }
      ],
      "stateMutability": "view",
      "type": "function"
    },
    {
      "inputs": [
        {
          "internalType": "address",
          "name": "",
          "type": "address"
        },
        {
          "internalType": "address",
          "name": "",
          "type": "address"
        },
        {
          "internalType": "uint256",
          "name": "",
          "type": "uint256"
        },
        {
          "internalType": "uint256",
          "name": "",
          "type": "uint256"
        }
      ],
      "name": "vestingSchedules",
      "outputs": [
        {
          "internalType": "uint256",
          "name": "",
          "type": "uint256"
        }
      ],
      "stateMutability": "view",
      "type": "function"
    },
    {
      "inputs": [
        {
          "internalType": "address",
          "name": "account",
          "type": "address"
        },
        {
          "internalType": "address",
          "name": "farmAddress",
          "type": "address"
        }
      ],
      "name": "balanceOf",
      "outputs": [
        {
          "internalType": "uint256",
          "name": "",
          "type": "uint256"
        }
      ],
      "stateMutability": "view",
      "type": "function"
    },
    {
      "inputs": [
        {
          "internalType": "address",
          "name": "account",
          "type": "address"
        },
        {
          "internalType": "address",
          "name": "farmAddress",
          "type": "address"
        }
      ],
      "name": "numVestingEntries",
      "outputs": [
        {
          "internalType": "uint256",
          "name": "",
          "type": "uint256"
        }
      ],
      "stateMutability": "view",
      "type": "function"
    },
    {
      "inputs": [
        {
          "internalType": "address",
          "name": "account",
          "type": "address"
        },
        {
          "internalType": "uint256",
          "name": "index",
          "type": "uint256"
        },
        {
          "internalType": "address",
          "name": "farmAddress",
          "type": "address"
        }
      ],
      "name": "getVestingScheduleEntry",
      "outputs": [
        {
          "internalType": "uint256[2]",
          "name": "",
          "type": "uint256[2]"
        }
      ],
      "stateMutability": "view",
      "type": "function"
    },
    {
      "inputs": [
        {
          "internalType": "address",
          "name": "account",
          "type": "address"
        },
        {
          "internalType": "uint256",
          "name": "index",
          "type": "uint256"
        },
        {
          "internalType": "address",
          "name": "farmAddress",
          "type": "address"
        }
      ],
      "name": "getVestingTime",
      "outputs": [
        {
          "internalType": "uint256",
          "name": "",
          "type": "uint256"
        }
      ],
      "stateMutability": "view",
      "type": "function"
    },
    {
      "inputs": [
        {
          "internalType": "address",
          "name": "account",
          "type": "address"
        },
        {
          "internalType": "uint256",
          "name": "index",
          "type": "uint256"
        },
        {
          "internalType": "address",
          "name": "farmAddress",
          "type": "address"
        }
      ],
      "name": "getVestingQuantity",
      "outputs": [
        {
          "internalType": "uint256",
          "name": "",
          "type": "uint256"
        }
      ],
      "stateMutability": "view",
      "type": "function"
    },
    {
      "inputs": [
        {
          "internalType": "address",
          "name": "account",
          "type": "address"
        },
        {
          "internalType": "address",
          "name": "farmAddress",
          "type": "address"
        }
      ],
      "name": "getNextVestingIndex",
      "outputs": [
        {
          "internalType": "uint256",
          "name": "",
          "type": "uint256"
        }
      ],
      "stateMutability": "view",
      "type": "function"
    },
    {
      "inputs": [
        {
          "internalType": "address",
          "name": "farmAddress",
          "type": "address"
        }
      ],
      "name": "rewardPerToken",
      "outputs": [
        {
          "internalType": "uint256",
          "name": "",
          "type": "uint256"
        }
      ],
      "stateMutability": "view",
      "type": "function"
    },
    {
      "inputs": [
        {
          "internalType": "address",
          "name": "account",
          "type": "address"
        },
        {
          "internalType": "address",
          "name": "farmAddress",
          "type": "address"
        }
      ],
      "name": "earned",
      "outputs": [
        {
          "internalType": "uint256",
          "name": "",
          "type": "uint256"
        }
      ],
      "stateMutability": "view",
      "type": "function"
    },
    {
      "inputs": [
        {
          "internalType": "address",
          "name": "account",
          "type": "address"
        },
        {
          "internalType": "address",
          "name": "farmAddress",
          "type": "address"
        }
      ],
      "name": "getNextVestingEntry",
      "outputs": [
        {
          "internalType": "uint256[2]",
          "name": "",
          "type": "uint256[2]"
        }
      ],
      "stateMutability": "view",
      "type": "function"
    },
    {
      "inputs": [
        {
          "internalType": "address",
          "name": "account",
          "type": "address"
        },
        {
          "internalType": "address",
          "name": "farmAddress",
          "type": "address"
        }
      ],
      "name": "getNextVestingTime",
      "outputs": [
        {
          "internalType": "uint256",
          "name": "",
          "type": "uint256"
        }
      ],
      "stateMutability": "view",
      "type": "function"
    },
    {
      "inputs": [
        {
          "internalType": "address",
          "name": "account",
          "type": "address"
        },
        {
          "internalType": "address",
          "name": "farmAddress",
          "type": "address"
        }
      ],
      "name": "getNextVestingQuantity",
      "outputs": [
        {
          "internalType": "uint256",
          "name": "",
          "type": "uint256"
        }
      ],
      "stateMutability": "view",
      "type": "function"
    },
    {
      "inputs": [
        {
          "internalType": "address",
          "name": "account",
          "type": "address"
        }
      ],
      "name": "getStakedFarms",
      "outputs": [
        {
          "internalType": "address[]",
          "name": "",
          "type": "address[]"
        },
        {
          "internalType": "uint256[]",
          "name": "",
          "type": "uint256[]"
        },
        {
          "internalType": "uint256",
          "name": "",
          "type": "uint256"
        }
      ],
      "stateMutability": "view",
      "type": "function"
    },
    {
      "inputs": [
        {
          "internalType": "address",
          "name": "account",
          "type": "address"
        },
        {
          "internalType": "address",
          "name": "farmAddress",
          "type": "address"
        }
      ],
      "name": "getUSDValueOfStakedPosition",
      "outputs": [
        {
          "internalType": "uint256",
          "name": "",
          "type": "uint256"
        }
      ],
      "stateMutability": "view",
      "type": "function"
    },
    {
      "inputs": [
        {
          "internalType": "address",
          "name": "farmAddress",
          "type": "address"
        }
      ],
      "name": "getUSDValueOfFarm",
      "outputs": [
        {
          "internalType": "uint256",
          "name": "",
          "type": "uint256"
        }
      ],
      "stateMutability": "view",
      "type": "function"
    },
    {
      "inputs": [
        {
          "internalType": "uint256",
          "name": "amount",
          "type": "uint256"
        },
        {
          "internalType": "address",
          "name": "farmAddress",
          "type": "address"
        }
      ],
      "name": "stake",
      "outputs": [],
      "stateMutability": "nonpayable",
      "type": "function"
    },
    {
      "inputs": [
        {
          "internalType": "address",
          "name": "farmAddress",
          "type": "address"
        }
      ],
      "name": "vest",
      "outputs": [],
      "stateMutability": "nonpayable",
      "type": "function"
    },
    {
      "inputs": [
        {
          "internalType": "address",
          "name": "farmAddress",
          "type": "address"
        }
      ],
      "name": "getReward",
      "outputs": [],
      "stateMutability": "nonpayable",
      "type": "function"
    },
    {
      "inputs": [],
      "name": "initializeFarms",
      "outputs": [],
      "stateMutability": "nonpayable",
      "type": "function"
    }
  ],
  "bytecode": "0x60a06040526000600260006101000a81548160ff0219169083151502179055503480156200002c57600080fd5b506040516200588438038062005884833981810160405260208110156200005257600080fd5b8101908080519060200190929190505050336000806101000a81548173ffffffffffffffffffffffffffffffffffffffff021916908373ffffffffffffffffffffffffffffffffffffffff16021790555060008054906101000a900473ffffffffffffffffffffffffffffffffffffffff1673ffffffffffffffffffffffffffffffffffffffff16600073ffffffffffffffffffffffffffffffffffffffff167f8be0079c531659141344cd1fd0a4f28419497f9722a3daafe3b4186f6b6457e060405160405180910390a3600180819055508073ffffffffffffffffffffffffffffffffffffffff1660808173ffffffffffffffffffffffffffffffffffffffff1660601b815250505060805160601c6156eb620001996000398061166f52806123035280612ab85280612fb9528061365c52806137f95280614dd352506156eb6000f3fe608060405234801561001057600080fd5b50600436106101fb5760003560e01c80638f32d59b1161011a578063da7b6036116100ad578063ef0067f41161007c578063ef0067f414610c8a578063f122977714610ce2578063f2fde38b14610d3a578063f3c5f51e14610d7e578063f7888aec14610dc2576101fb565b8063da7b603614610a3a578063e70b9e2714610ab2578063e97a560c14610b2a578063ed8a559714610c12576101fb565b8063b258047b116100e9578063b258047b146108e0578063b57f443f14610980578063c00007b0146109d8578063d0cc82e314610a1c576101fb565b80638f32d59b146107bc578063981f3b8e146107dc5780639ce43f9014610810578063ac3e68d714610868576101fb565b8063714efa3211610192578063815fad8611610161578063815fad861461064857806384f48812146106c05780638ad587771461076a5780638da5cb5b14610788576101fb565b8063714efa3214610564578063715018a6146105e657806376f2b4d8146105f05780637acb7757146105fa576101fb565b8063440cdb3b116101ce578063440cdb3b146103c057806363667eb71461044c57806365ff92a01461046a5780637035ab98146104ec576101fb565b806313f57f9714610200578063162d28d114610278578063211dc32d146102f05780632ce9aead14610368575b600080fd5b6102626004803603604081101561021657600080fd5b81019080803573ffffffffffffffffffffffffffffffffffffffff169060200190929190803573ffffffffffffffffffffffffffffffffffffffff169060200190929190505050610e3a565b6040518082815260200191505060405180910390f35b6102da6004803603604081101561028e57600080fd5b81019080803573ffffffffffffffffffffffffffffffffffffffff169060200190929190803573ffffffffffffffffffffffffffffffffffffffff169060200190929190505050610e5f565b6040518082815260200191505060405180910390f35b6103526004803603604081101561030657600080fd5b81019080803573ffffffffffffffffffffffffffffffffffffffff169060200190929190803573ffffffffffffffffffffffffffffffffffffffff169060200190929190505050610fba565b6040518082815260200191505060405180910390f35b6103aa6004803603602081101561037e57600080fd5b81019080803573ffffffffffffffffffffffffffffffffffffffff169060200190929190505050611216565b6040518082815260200191505060405180910390f35b610436600480360360808110156103d657600080fd5b81019080803573ffffffffffffffffffffffffffffffffffffffff169060200190929190803573ffffffffffffffffffffffffffffffffffffffff169060200190929190803590602001909291908035906020019092919050505061122e565b6040518082815260200191505060405180910390f35b61045461127a565b6040518082815260200191505060405180910390f35b6104d66004803603606081101561048057600080fd5b81019080803573ffffffffffffffffffffffffffffffffffffffff16906020019092919080359060200190929190803573ffffffffffffffffffffffffffffffffffffffff16906020019092919050505061127f565b6040518082815260200191505060405180910390f35b61054e6004803603604081101561050257600080fd5b81019080803573ffffffffffffffffffffffffffffffffffffffff169060200190929190803573ffffffffffffffffffffffffffffffffffffffff1690602001909291905050506113b1565b6040518082815260200191505060405180910390f35b6105d06004803603606081101561057a57600080fd5b81019080803573ffffffffffffffffffffffffffffffffffffffff16906020019092919080359060200190929190803573ffffffffffffffffffffffffffffffffffffffff1690602001909291905050506113d6565b6040518082815260200191505060405180910390f35b6105ee611508565b005b6105f86115d7565b005b6106466004803603604081101561061057600080fd5b8101908080359060200190929190803573ffffffffffffffffffffffffffffffffffffffff1690602001909291905050506118fb565b005b6106aa6004803603604081101561065e57600080fd5b81019080803573ffffffffffffffffffffffffffffffffffffffff169060200190929190803573ffffffffffffffffffffffffffffffffffffffff169060200190929190505050611f5e565b6040518082815260200191505060405180910390f35b61072c600480360360608110156106d657600080fd5b81019080803573ffffffffffffffffffffffffffffffffffffffff16906020019092919080359060200190929190803573ffffffffffffffffffffffffffffffffffffffff16906020019092919050505061208e565b6040518082600260200280838360005b8381101561075757808201518184015260208101905061073c565b5050505090500191505060405180910390f35b61077261227c565b6040518082815260200191505060405180910390f35b610790612281565b604051808273ffffffffffffffffffffffffffffffffffffffff16815260200191505060405180910390f35b6107c46122aa565b60405180821515815260200191505060405180910390f35b6107e4612301565b604051808273ffffffffffffffffffffffffffffffffffffffff16815260200191505060405180910390f35b6108526004803603602081101561082657600080fd5b81019080803573ffffffffffffffffffffffffffffffffffffffff169060200190929190505050612325565b6040518082815260200191505060405180910390f35b6108ca6004803603604081101561087e57600080fd5b81019080803573ffffffffffffffffffffffffffffffffffffffff169060200190929190803573ffffffffffffffffffffffffffffffffffffffff16906020019092919050505061233d565b6040518082815260200191505060405180910390f35b610942600480360360408110156108f657600080fd5b81019080803573ffffffffffffffffffffffffffffffffffffffff169060200190929190803573ffffffffffffffffffffffffffffffffffffffff1690602001909291905050506124d2565b6040518082600260200280838360005b8381101561096d578082015181840152602081019050610952565b5050505090500191505060405180910390f35b6109c26004803603602081101561099657600080fd5b81019080803573ffffffffffffffffffffffffffffffffffffffff169060200190929190505050612639565b6040518082815260200191505060405180910390f35b610a1a600480360360208110156109ee57600080fd5b81019080803573ffffffffffffffffffffffffffffffffffffffff169060200190929190505050612716565b005b610a24612dd1565b6040518082815260200191505060405180910390f35b610a9c60048036036040811015610a5057600080fd5b81019080803573ffffffffffffffffffffffffffffffffffffffff169060200190929190803573ffffffffffffffffffffffffffffffffffffffff169060200190929190505050612dd6565b6040518082815260200191505060405180910390f35b610b1460048036036040811015610ac857600080fd5b81019080803573ffffffffffffffffffffffffffffffffffffffff169060200190929190803573ffffffffffffffffffffffffffffffffffffffff169060200190929190505050612f06565b6040518082815260200191505060405180910390f35b610b6c60048036036020811015610b4057600080fd5b81019080803573ffffffffffffffffffffffffffffffffffffffff169060200190929190505050612f2b565b604051808060200180602001848152602001838103835286818151815260200191508051906020019060200280838360005b83811015610bb9578082015181840152602081019050610b9e565b50505050905001838103825285818151815260200191508051906020019060200280838360005b83811015610bfb578082015181840152602081019050610be0565b505050509050019550505050505060405180910390f35b610c7460048036036040811015610c2857600080fd5b81019080803573ffffffffffffffffffffffffffffffffffffffff169060200190929190803573ffffffffffffffffffffffffffffffffffffffff169060200190929190505050613418565b6040518082815260200191505060405180910390f35b610ccc60048036036020811015610ca057600080fd5b81019080803573ffffffffffffffffffffffffffffffffffffffff1690602001909291905050506135b9565b6040518082815260200191505060405180910390f35b610d2460048036036020811015610cf857600080fd5b81019080803573ffffffffffffffffffffffffffffffffffffffff1690602001909291905050506135d1565b6040518082815260200191505060405180910390f35b610d7c60048036036020811015610d5057600080fd5b81019080803573ffffffffffffffffffffffffffffffffffffffff169060200190929190505050613bbe565b005b610dc060048036036020811015610d9457600080fd5b81019080803573ffffffffffffffffffffffffffffffffffffffff169060200190929190505050613bdb565b005b610e2460048036036040811015610dd857600080fd5b81019080803573ffffffffffffffffffffffffffffffffffffffff169060200190929190803573ffffffffffffffffffffffffffffffffffffffff169060200190929190505050614590565b6040518082815260200191505060405180910390f35b6008602052816000526040600020602052806000526040600020600091509150505481565b60008073ffffffffffffffffffffffffffffffffffffffff168273ffffffffffffffffffffffffffffffffffffffff161415610ee6576040517f08c379a00000000000000000000000000000000000000000000000000000000081526004018080602001828103825260288152602001806156486028913960400191505060405180910390fd5b600073ffffffffffffffffffffffffffffffffffffffff168373ffffffffffffffffffffffffffffffffffffffff161415610f6c576040517f08c379a000000000000000000000000000000000000000000000000000000000815260040180806020018281038252602b8152602001806155ae602b913960400191505060405180910390fd5b6000610f78848461233d565b905060005b81811015610fae576000610f9286838761127f565b14610fa1578092505050610fb4565b8080600101915050610f7d565b50809150505b92915050565b60008073ffffffffffffffffffffffffffffffffffffffff168273ffffffffffffffffffffffffffffffffffffffff161415611041576040517f08c379a00000000000000000000000000000000000000000000000000000000081526004018080602001828103825260288152602001806156486028913960400191505060405180910390fd5b61120e600660008473ffffffffffffffffffffffffffffffffffffffff1673ffffffffffffffffffffffffffffffffffffffff16815260200190815260200160002060008573ffffffffffffffffffffffffffffffffffffffff1673ffffffffffffffffffffffffffffffffffffffff16815260200190815260200160002054611200670de0b6b3a76400006111f2611167600560008973ffffffffffffffffffffffffffffffffffffffff1673ffffffffffffffffffffffffffffffffffffffff16815260200190815260200160002060008a73ffffffffffffffffffffffffffffffffffffffff1673ffffffffffffffffffffffffffffffffffffffff16815260200190815260200160002054611159896135d1565b61472290919063ffffffff16565b600860008973ffffffffffffffffffffffffffffffffffffffff1673ffffffffffffffffffffffffffffffffffffffff16815260200190815260200160002060008a73ffffffffffffffffffffffffffffffffffffffff1673ffffffffffffffffffffffffffffffffffffffff1681526020019081526020016000205461473990919063ffffffff16565b61477090919063ffffffff16565b61478990919063ffffffff16565b905092915050565b60036020528060005260406000206000915090505481565b6007602052836000526040600020602052826000526040600020828154811061125357fe5b9060005260206000209060020201816002811061126c57fe5b016000935093505050505481565b600081565b60008073ffffffffffffffffffffffffffffffffffffffff168273ffffffffffffffffffffffffffffffffffffffff161415611306576040517f08c379a00000000000000000000000000000000000000000000000000000000081526004018080602001828103825260288152602001806156486028913960400191505060405180910390fd5b600073ffffffffffffffffffffffffffffffffffffffff168473ffffffffffffffffffffffffffffffffffffffff16141561138c576040517f08c379a000000000000000000000000000000000000000000000000000000000815260040180806020018281038252602b8152602001806155ae602b913960400191505060405180910390fd5b61139784848461208e565b6000600281106113a357fe5b602002015190509392505050565b6005602052816000526040600020602052806000526040600020600091509150505481565b60008073ffffffffffffffffffffffffffffffffffffffff168273ffffffffffffffffffffffffffffffffffffffff16141561145d576040517f08c379a00000000000000000000000000000000000000000000000000000000081526004018080602001828103825260288152602001806156486028913960400191505060405180910390fd5b600073ffffffffffffffffffffffffffffffffffffffff168473ffffffffffffffffffffffffffffffffffffffff1614156114e3576040517f08c379a000000000000000000000000000000000000000000000000000000000815260040180806020018281038252602b8152602001806155ae602b913960400191505060405180910390fd5b6114ee84848461208e565b6001600281106114fa57fe5b602002015190509392505050565b6115106122aa565b61151957600080fd5b600073ffffffffffffffffffffffffffffffffffffffff1660008054906101000a900473ffffffffffffffffffffffffffffffffffffffff1673ffffffffffffffffffffffffffffffffffffffff167f8be0079c531659141344cd1fd0a4f28419497f9722a3daafe3b4186f6b6457e060405160405180910390a360008060006101000a81548173ffffffffffffffffffffffffffffffffffffffff021916908373ffffffffffffffffffffffffffffffffffffffff160217905550565b6115df6122aa565b6115e857600080fd5b600260009054906101000a900460ff161561166b576040517f08c379a00000000000000000000000000000000000000000000000000000000081526004018080602001828103825260198152602001807f416c726561647920696e697469616c697a6564206661726d730000000000000081525060200191505060405180910390fd5b60007f000000000000000000000000000000000000000000000000000000000000000073ffffffffffffffffffffffffffffffffffffffff166304433bbc6040518163ffffffff1660e01b81526004018080602001828103825260128152602001807f426173655562657377617041646170746572000000000000000000000000000081525060200191505060206040518083038186803b15801561170f57600080fd5b505afa158015611723573d6000803e3d6000fd5b505050506040513d602081101561173957600080fd5b8101908080519060200190929190505050905060608173ffffffffffffffffffffffffffffffffffffffff1663e1f6e5bb6040518163ffffffff1660e01b815260040160006040518083038186803b15801561179457600080fd5b505afa1580156117a8573d6000803e3d6000fd5b505050506040513d6000823e3d601f19601f8201168201806040525060208110156117d257600080fd5b81019080805160405193929190846401000000008211156117f257600080fd5b8382019150602082018581111561180857600080fd5b825186602082028301116401000000008211171561182557600080fd5b8083526020830192505050908051906020019060200280838360005b8381101561185c578082015181840152602081019050611841565b50505050905001604052505050905060005b81518110156118db57426003600084848151811061188857fe5b602002602001015173ffffffffffffffffffffffffffffffffffffffff1673ffffffffffffffffffffffffffffffffffffffff16815260200190815260200160002081905550808060010191505061186e565b506001600260006101000a81548160ff0219169083151502179055505050565b60026001541415611974576040517f08c379a000000000000000000000000000000000000000000000000000000000815260040180806020018281038252601f8152602001807f5265656e7472616e637947756172643a207265656e7472616e742063616c6c0081525060200191505060405180910390fd5b60026001819055503381600073ffffffffffffffffffffffffffffffffffffffff168173ffffffffffffffffffffffffffffffffffffffff161415611a04576040517f08c379a00000000000000000000000000000000000000000000000000000000081526004018080602001828103825260288152602001806156486028913960400191505060405180910390fd5b611a0d816135d1565b600460008373ffffffffffffffffffffffffffffffffffffffff1673ffffffffffffffffffffffffffffffffffffffff1681526020019081526020016000208190555042600360008373ffffffffffffffffffffffffffffffffffffffff1673ffffffffffffffffffffffffffffffffffffffff16815260200190815260200160002081905550600073ffffffffffffffffffffffffffffffffffffffff168273ffffffffffffffffffffffffffffffffffffffff1614611c1357611ad28282610fba565b600660008373ffffffffffffffffffffffffffffffffffffffff1673ffffffffffffffffffffffffffffffffffffffff16815260200190815260200160002060008473ffffffffffffffffffffffffffffffffffffffff1673ffffffffffffffffffffffffffffffffffffffff16815260200190815260200160002081905550600460008273ffffffffffffffffffffffffffffffffffffffff1673ffffffffffffffffffffffffffffffffffffffff16815260200190815260200160002054600560008373ffffffffffffffffffffffffffffffffffffffff1673ffffffffffffffffffffffffffffffffffffffff16815260200190815260200160002060008473ffffffffffffffffffffffffffffffffffffffff1673ffffffffffffffffffffffffffffffffffffffff168152602001908152602001600020819055505b60008411611c6c576040517f08c379a00000000000000000000000000000000000000000000000000000000081526004018080602001828103825260388152602001806156106038913960400191505060405180910390fd5b600073ffffffffffffffffffffffffffffffffffffffff168373ffffffffffffffffffffffffffffffffffffffff161415611cf2576040517f08c379a00000000000000000000000000000000000000000000000000000000081526004018080602001828103825260288152602001806156486028913960400191505060405180910390fd5b6000611d0a62278d004261478990919063ffffffff16565b9050611d18338287876147a5565b60008473ffffffffffffffffffffffffffffffffffffffff166372f702f36040518163ffffffff1660e01b815260040160206040518083038186803b158015611d6057600080fd5b505afa158015611d74573d6000803e3d6000fd5b505050506040513d6020811015611d8a57600080fd5b810190808051906020019092919050505090508073ffffffffffffffffffffffffffffffffffffffff166323b872dd3330896040518463ffffffff1660e01b8152600401808473ffffffffffffffffffffffffffffffffffffffff1681526020018373ffffffffffffffffffffffffffffffffffffffff1681526020018281526020019350505050602060405180830381600087803b158015611e2c57600080fd5b505af1158015611e40573d6000803e3d6000fd5b505050506040513d6020811015611e5657600080fd5b8101908080519060200190929190505050508073ffffffffffffffffffffffffffffffffffffffff1663a694fc3a876040518263ffffffff1660e01b815260040180828152602001915050600060405180830381600087803b158015611ebb57600080fd5b505af1158015611ecf573d6000803e3d6000fd5b505050503373ffffffffffffffffffffffffffffffffffffffff167f1fee4d9b498e57294e757c1878fe71d4cb3b91cedabd496d3ed7ec88437623c487848842604051808581526020018481526020018373ffffffffffffffffffffffffffffffffffffffff16815260200182815260200194505050505060405180910390a250505050600180819055505050565b60008073ffffffffffffffffffffffffffffffffffffffff168273ffffffffffffffffffffffffffffffffffffffff161415611fe5576040517f08c379a00000000000000000000000000000000000000000000000000000000081526004018080602001828103825260288152602001806156486028913960400191505060405180910390fd5b600073ffffffffffffffffffffffffffffffffffffffff168373ffffffffffffffffffffffffffffffffffffffff16141561206b576040517f08c379a000000000000000000000000000000000000000000000000000000000815260040180806020018281038252602b8152602001806155ae602b913960400191505060405180910390fd5b61207583836124d2565b60016002811061208157fe5b6020020151905092915050565b6120966154e9565b600073ffffffffffffffffffffffffffffffffffffffff168273ffffffffffffffffffffffffffffffffffffffff16141561211c576040517f08c379a00000000000000000000000000000000000000000000000000000000081526004018080602001828103825260288152602001806156486028913960400191505060405180910390fd5b600073ffffffffffffffffffffffffffffffffffffffff168473ffffffffffffffffffffffffffffffffffffffff1614156121a2576040517f08c379a000000000000000000000000000000000000000000000000000000000815260040180806020018281038252602b8152602001806155ae602b913960400191505060405180910390fd5b600760008373ffffffffffffffffffffffffffffffffffffffff1673ffffffffffffffffffffffffffffffffffffffff16815260200190815260200160002060008573ffffffffffffffffffffffffffffffffffffffff1673ffffffffffffffffffffffffffffffffffffffff168152602001908152602001600020838154811061222957fe5b906000526020600020906002020160028060200260405190810160405280929190826002801561226e576020028201915b81548152602001906001019080831161225a575b505050505090509392505050565b600181565b60008060009054906101000a900473ffffffffffffffffffffffffffffffffffffffff16905090565b60008060009054906101000a900473ffffffffffffffffffffffffffffffffffffffff1673ffffffffffffffffffffffffffffffffffffffff163373ffffffffffffffffffffffffffffffffffffffff1614905090565b7f000000000000000000000000000000000000000000000000000000000000000081565b60046020528060005260406000206000915090505481565b60008073ffffffffffffffffffffffffffffffffffffffff168273ffffffffffffffffffffffffffffffffffffffff1614156123c4576040517f08c379a00000000000000000000000000000000000000000000000000000000081526004018080602001828103825260288152602001806156486028913960400191505060405180910390fd5b600073ffffffffffffffffffffffffffffffffffffffff168373ffffffffffffffffffffffffffffffffffffffff16141561244a576040517f08c379a000000000000000000000000000000000000000000000000000000000815260040180806020018281038252602b8152602001806155ae602b913960400191505060405180910390fd5b600760008373ffffffffffffffffffffffffffffffffffffffff1673ffffffffffffffffffffffffffffffffffffffff16815260200190815260200160002060008473ffffffffffffffffffffffffffffffffffffffff1673ffffffffffffffffffffffffffffffffffffffff16815260200190815260200160002080549050905092915050565b6124da6154e9565b600073ffffffffffffffffffffffffffffffffffffffff168273ffffffffffffffffffffffffffffffffffffffff161415612560576040517f08c379a00000000000000000000000000000000000000000000000000000000081526004018080602001828103825260288152602001806156486028913960400191505060405180910390fd5b600073ffffffffffffffffffffffffffffffffffffffff168373ffffffffffffffffffffffffffffffffffffffff1614156125e6576040517f08c379a000000000000000000000000000000000000000000000000000000000815260040180806020018281038252602b8152602001806155ae602b913960400191505060405180910390fd5b60006125f28484610e5f565b90506125fe848461233d565b811415612624576040518060400160405280600081526020016000815250915050612633565b61262f84828561208e565b9150505b92915050565b60008073ffffffffffffffffffffffffffffffffffffffff168273ffffffffffffffffffffffffffffffffffffffff1614156126c0576040517f08c379a00000000000000000000000000000000000000000000000000000000081526004018080602001828103825260288152602001806156486028913960400191505060405180910390fd5b6000600960008473ffffffffffffffffffffffffffffffffffffffff1673ffffffffffffffffffffffffffffffffffffffff16815260200190815260200160002054905061270e8382614d75565b915050919050565b6002600154141561278f576040517f08c379a000000000000000000000000000000000000000000000000000000000815260040180806020018281038252601f8152602001807f5265656e7472616e637947756172643a207265656e7472616e742063616c6c0081525060200191505060405180910390fd5b60026001819055503381600073ffffffffffffffffffffffffffffffffffffffff168173ffffffffffffffffffffffffffffffffffffffff16141561281f576040517f08c379a00000000000000000000000000000000000000000000000000000000081526004018080602001828103825260288152602001806156486028913960400191505060405180910390fd5b612828816135d1565b600460008373ffffffffffffffffffffffffffffffffffffffff1673ffffffffffffffffffffffffffffffffffffffff1681526020019081526020016000208190555042600360008373ffffffffffffffffffffffffffffffffffffffff1673ffffffffffffffffffffffffffffffffffffffff16815260200190815260200160002081905550600073ffffffffffffffffffffffffffffffffffffffff168273ffffffffffffffffffffffffffffffffffffffff1614612a2e576128ed8282610fba565b600660008373ffffffffffffffffffffffffffffffffffffffff1673ffffffffffffffffffffffffffffffffffffffff16815260200190815260200160002060008473ffffffffffffffffffffffffffffffffffffffff1673ffffffffffffffffffffffffffffffffffffffff16815260200190815260200160002081905550600460008273ffffffffffffffffffffffffffffffffffffffff1673ffffffffffffffffffffffffffffffffffffffff16815260200190815260200160002054600560008373ffffffffffffffffffffffffffffffffffffffff1673ffffffffffffffffffffffffffffffffffffffff16815260200190815260200160002060008473ffffffffffffffffffffffffffffffffffffffff1673ffffffffffffffffffffffffffffffffffffffff168152602001908152602001600020819055505b600073ffffffffffffffffffffffffffffffffffffffff168373ffffffffffffffffffffffffffffffffffffffff161415612ab4576040517f08c379a00000000000000000000000000000000000000000000000000000000081526004018080602001828103825260288152602001806156486028913960400191505060405180910390fd5b60007f000000000000000000000000000000000000000000000000000000000000000073ffffffffffffffffffffffffffffffffffffffff166304433bbc6040518163ffffffff1660e01b815260040180806020018281038252600c8152602001807f42617365547261646567656e000000000000000000000000000000000000000081525060200191505060206040518083038186803b158015612b5857600080fd5b505afa158015612b6c573d6000803e3d6000fd5b505050506040513d6020811015612b8257600080fd5b810190808051906020019092919050505090506000600660008673ffffffffffffffffffffffffffffffffffffffff1673ffffffffffffffffffffffffffffffffffffffff16815260200190815260200160002060003373ffffffffffffffffffffffffffffffffffffffff1673ffffffffffffffffffffffffffffffffffffffff1681526020019081526020016000205490506000811115612dc3576000600660008773ffffffffffffffffffffffffffffffffffffffff1673ffffffffffffffffffffffffffffffffffffffff16815260200190815260200160002060003373ffffffffffffffffffffffffffffffffffffffff1673ffffffffffffffffffffffffffffffffffffffff168152602001908152602001600020819055508173ffffffffffffffffffffffffffffffffffffffff1663a9059cbb33836040518363ffffffff1660e01b8152600401808373ffffffffffffffffffffffffffffffffffffffff16815260200182815260200192505050602060405180830381600087803b158015612d1257600080fd5b505af1158015612d26573d6000803e3d6000fd5b505050506040513d6020811015612d3c57600080fd5b8101908080519060200190929190505050503373ffffffffffffffffffffffffffffffffffffffff167faf206e736916d38b56e2d559931a189bc3119b8fc6d6850bd34e382f09030587828742604051808481526020018373ffffffffffffffffffffffffffffffffffffffff168152602001828152602001935050505060405180910390a25b505050506001808190555050565b603081565b60008073ffffffffffffffffffffffffffffffffffffffff168273ffffffffffffffffffffffffffffffffffffffff161415612e5d576040517f08c379a00000000000000000000000000000000000000000000000000000000081526004018080602001828103825260288152602001806156486028913960400191505060405180910390fd5b600073ffffffffffffffffffffffffffffffffffffffff168373ffffffffffffffffffffffffffffffffffffffff161415612ee3576040517f08c379a000000000000000000000000000000000000000000000000000000000815260040180806020018281038252602b8152602001806155ae602b913960400191505060405180910390fd5b612eed83836124d2565b600060028110612ef957fe5b6020020151905092915050565b6006602052816000526040600020602052806000526040600020600091509150505481565b60608060008073ffffffffffffffffffffffffffffffffffffffff168473ffffffffffffffffffffffffffffffffffffffff161415612fb5576040517f08c379a000000000000000000000000000000000000000000000000000000000815260040180806020018281038252602b8152602001806155ae602b913960400191505060405180910390fd5b60007f000000000000000000000000000000000000000000000000000000000000000073ffffffffffffffffffffffffffffffffffffffff166304433bbc6040518163ffffffff1660e01b81526004018080602001828103825260128152602001807f426173655562657377617041646170746572000000000000000000000000000081525060200191505060206040518083038186803b15801561305957600080fd5b505afa15801561306d573d6000803e3d6000fd5b505050506040513d602081101561308357600080fd5b8101908080519060200190929190505050905060608173ffffffffffffffffffffffffffffffffffffffff1663e1f6e5bb6040518163ffffffff1660e01b815260040160006040518083038186803b1580156130de57600080fd5b505afa1580156130f2573d6000803e3d6000fd5b505050506040513d6000823e3d601f19601f82011682018060405250602081101561311c57600080fd5b810190808051604051939291908464010000000082111561313c57600080fd5b8382019150602082018581111561315257600080fd5b825186602082028301116401000000008211171561316f57600080fd5b8083526020830192505050908051906020019060200280838360005b838110156131a657808201518184015260208101905061318b565b5050505090500160405250505090506060815167ffffffffffffffff811180156131cf57600080fd5b506040519080825280602002602001820160405280156131fe5781602001602082028036833780820191505090505b5090506060825167ffffffffffffffff8111801561321b57600080fd5b5060405190808252806020026020018201604052801561324a5781602001602082028036833780820191505090505b5090506000805b84518110156134025760006008600087848151811061326c57fe5b602002602001015173ffffffffffffffffffffffffffffffffffffffff1673ffffffffffffffffffffffffffffffffffffffff16815260200190815260200160002060008c73ffffffffffffffffffffffffffffffffffffffff1673ffffffffffffffffffffffffffffffffffffffff1681526020019081526020016000205411156133f5578481815181106132fe57fe5b602002602001015184838151811061331257fe5b602002602001019073ffffffffffffffffffffffffffffffffffffffff16908173ffffffffffffffffffffffffffffffffffffffff16815250506008600086838151811061335c57fe5b602002602001015173ffffffffffffffffffffffffffffffffffffffff1673ffffffffffffffffffffffffffffffffffffffff16815260200190815260200160002060008b73ffffffffffffffffffffffffffffffffffffffff1673ffffffffffffffffffffffffffffffffffffffff168152602001908152602001600020548383815181106133e857fe5b6020026020010181815250505b8080600101915050613251565b5082828297509750975050505050509193909250565b60008073ffffffffffffffffffffffffffffffffffffffff168273ffffffffffffffffffffffffffffffffffffffff16141561349f576040517f08c379a00000000000000000000000000000000000000000000000000000000081526004018080602001828103825260288152602001806156486028913960400191505060405180910390fd5b600073ffffffffffffffffffffffffffffffffffffffff168373ffffffffffffffffffffffffffffffffffffffff161415613525576040517f08c379a000000000000000000000000000000000000000000000000000000000815260040180806020018281038252602b8152602001806155ae602b913960400191505060405180910390fd5b6000600860008473ffffffffffffffffffffffffffffffffffffffff1673ffffffffffffffffffffffffffffffffffffffff16815260200190815260200160002060008573ffffffffffffffffffffffffffffffffffffffff1673ffffffffffffffffffffffffffffffffffffffff1681526020019081526020016000205490506135b08382614d75565b91505092915050565b60096020528060005260406000206000915090505481565b60008073ffffffffffffffffffffffffffffffffffffffff168273ffffffffffffffffffffffffffffffffffffffff161415613658576040517f08c379a00000000000000000000000000000000000000000000000000000000081526004018080602001828103825260288152602001806156486028913960400191505060405180910390fd5b60007f000000000000000000000000000000000000000000000000000000000000000073ffffffffffffffffffffffffffffffffffffffff166304433bbc6040518163ffffffff1660e01b81526004018080602001828103825260088152602001807f53657474696e677300000000000000000000000000000000000000000000000081525060200191505060206040518083038186803b1580156136fc57600080fd5b505afa158015613710573d6000803e3d6000fd5b505050506040513d602081101561372657600080fd5b810190808051906020019092919050505073ffffffffffffffffffffffffffffffffffffffff166328a2176f6040518163ffffffff1660e01b81526004018080602001828103825260188152602001807f5765656b6c795374616b696e674661726d52657761726473000000000000000081525060200191505060206040518083038186803b1580156137b857600080fd5b505afa1580156137cc573d6000803e3d6000fd5b505050506040513d60208110156137e257600080fd5b8101908080519060200190929190505050905060007f000000000000000000000000000000000000000000000000000000000000000073ffffffffffffffffffffffffffffffffffffffff166304433bbc6040518163ffffffff1660e01b81526004018080602001828103825260128152602001807f426173655562657377617041646170746572000000000000000000000000000081525060200191505060206040518083038186803b15801561389957600080fd5b505afa1580156138ad573d6000803e3d6000fd5b505050506040513d60208110156138c357600080fd5b810190808051906020019092919050505073ffffffffffffffffffffffffffffffffffffffff1663e1f6e5bb6040518163ffffffff1660e01b815260040160006040518083038186803b15801561391957600080fd5b505afa15801561392d573d6000803e3d6000fd5b505050506040513d6000823e3d601f19601f82011682018060405250602081101561395757600080fd5b810190808051604051939291908464010000000082111561397757600080fd5b8382019150602082018581111561398d57600080fd5b82518660208202830111640100000000821117156139aa57600080fd5b8083526020830192505050908051906020019060200280838360005b838110156139e15780820151818401526020810190506139c6565b505050509050016040525050505190506000600960008673ffffffffffffffffffffffffffffffffffffffff1673ffffffffffffffffffffffffffffffffffffffff168152602001908152602001600020541415613a8257600460008573ffffffffffffffffffffffffffffffffffffffff1673ffffffffffffffffffffffffffffffffffffffff1681526020019081526020016000205492505050613bb9565b613bb4613b6682613b58600960008973ffffffffffffffffffffffffffffffffffffffff1673ffffffffffffffffffffffffffffffffffffffff16815260200190815260200160002054613b4a670de0b6b3a7640000613b3c89613b2e600360008f73ffffffffffffffffffffffffffffffffffffffff1673ffffffffffffffffffffffffffffffffffffffff168152602001908152602001600020544261472290919063ffffffff16565b61473990919063ffffffff16565b61473990919063ffffffff16565b61477090919063ffffffff16565b61477090919063ffffffff16565b600460008773ffffffffffffffffffffffffffffffffffffffff1673ffffffffffffffffffffffffffffffffffffffff1681526020019081526020016000205461478990919063ffffffff16565b925050505b919050565b613bc66122aa565b613bcf57600080fd5b613bd8816153f2565b50565b60026001541415613c54576040517f08c379a000000000000000000000000000000000000000000000000000000000815260040180806020018281038252601f8152602001807f5265656e7472616e637947756172643a207265656e7472616e742063616c6c0081525060200191505060405180910390fd5b60026001819055503381600073ffffffffffffffffffffffffffffffffffffffff168173ffffffffffffffffffffffffffffffffffffffff161415613ce4576040517f08c379a00000000000000000000000000000000000000000000000000000000081526004018080602001828103825260288152602001806156486028913960400191505060405180910390fd5b613ced816135d1565b600460008373ffffffffffffffffffffffffffffffffffffffff1673ffffffffffffffffffffffffffffffffffffffff1681526020019081526020016000208190555042600360008373ffffffffffffffffffffffffffffffffffffffff1673ffffffffffffffffffffffffffffffffffffffff16815260200190815260200160002081905550600073ffffffffffffffffffffffffffffffffffffffff168273ffffffffffffffffffffffffffffffffffffffff1614613ef357613db28282610fba565b600660008373ffffffffffffffffffffffffffffffffffffffff1673ffffffffffffffffffffffffffffffffffffffff16815260200190815260200160002060008473ffffffffffffffffffffffffffffffffffffffff1673ffffffffffffffffffffffffffffffffffffffff16815260200190815260200160002081905550600460008273ffffffffffffffffffffffffffffffffffffffff1673ffffffffffffffffffffffffffffffffffffffff16815260200190815260200160002054600560008373ffffffffffffffffffffffffffffffffffffffff1673ffffffffffffffffffffffffffffffffffffffff16815260200190815260200160002060008473ffffffffffffffffffffffffffffffffffffffff1673ffffffffffffffffffffffffffffffffffffffff168152602001908152602001600020819055505b600073ffffffffffffffffffffffffffffffffffffffff168373ffffffffffffffffffffffffffffffffffffffff161415613f79576040517f08c379a00000000000000000000000000000000000000000000000000000000081526004018080602001828103825260288152602001806156486028913960400191505060405180910390fd5b6000613f85338561233d565b9050600080600090505b828110156140b2576000613fa433838961127f565b905042811115613fb457506140b2565b6000613fc133848a6113d6565b905060008111156140a3576040518060400160405280600060ff168152602001600060ff16815250600760008a73ffffffffffffffffffffffffffffffffffffffff1673ffffffffffffffffffffffffffffffffffffffff16815260200190815260200160002060003373ffffffffffffffffffffffffffffffffffffffff1673ffffffffffffffffffffffffffffffffffffffff168152602001908152602001600020848154811061407057fe5b906000526020600020906002020190600261408c92919061550b565b506140a0818561478990919063ffffffff16565b93505b50508080600101915050613f8f565b5060008114614579578473ffffffffffffffffffffffffffffffffffffffff1663e9fad8ee6040518163ffffffff1660e01b8152600401600060405180830381600087803b15801561410357600080fd5b505af1158015614117573d6000803e3d6000fd5b5050505060008573ffffffffffffffffffffffffffffffffffffffff166372f702f36040518163ffffffff1660e01b815260040160206040518083038186803b15801561416357600080fd5b505afa158015614177573d6000803e3d6000fd5b505050506040513d602081101561418d57600080fd5b810190808051906020019092919050505090506141f282600960008973ffffffffffffffffffffffffffffffffffffffff1673ffffffffffffffffffffffffffffffffffffffff1681526020019081526020016000205461472290919063ffffffff16565b600960008873ffffffffffffffffffffffffffffffffffffffff1673ffffffffffffffffffffffffffffffffffffffff168152602001908152602001600020819055506142c482600860008973ffffffffffffffffffffffffffffffffffffffff1673ffffffffffffffffffffffffffffffffffffffff16815260200190815260200160002060003373ffffffffffffffffffffffffffffffffffffffff1673ffffffffffffffffffffffffffffffffffffffff1681526020019081526020016000205461472290919063ffffffff16565b600860008873ffffffffffffffffffffffffffffffffffffffff1673ffffffffffffffffffffffffffffffffffffffff16815260200190815260200160002060003373ffffffffffffffffffffffffffffffffffffffff1673ffffffffffffffffffffffffffffffffffffffff168152602001908152602001600020819055508073ffffffffffffffffffffffffffffffffffffffff1663a9059cbb33846040518363ffffffff1660e01b8152600401808373ffffffffffffffffffffffffffffffffffffffff16815260200182815260200192505050602060405180830381600087803b1580156143b557600080fd5b505af11580156143c9573d6000803e3d6000fd5b505050506040513d60208110156143df57600080fd5b81019080805190602001909291905050505060008173ffffffffffffffffffffffffffffffffffffffff166370a08231306040518263ffffffff1660e01b8152600401808273ffffffffffffffffffffffffffffffffffffffff16815260200191505060206040518083038186803b15801561445a57600080fd5b505afa15801561446e573d6000803e3d6000fd5b505050506040513d602081101561448457600080fd5b810190808051906020019092919050505090508673ffffffffffffffffffffffffffffffffffffffff1663a694fc3a826040518263ffffffff1660e01b815260040180828152602001915050600060405180830381600087803b1580156144ea57600080fd5b505af11580156144fe573d6000803e3d6000fd5b505050503373ffffffffffffffffffffffffffffffffffffffff167fe407a22cf0d8c3ccb509acc25f3153e324ee799bc68b6a2c5c176f6fba10a17842858a604051808481526020018381526020018273ffffffffffffffffffffffffffffffffffffffff168152602001935050505060405180910390a250505b61458285612716565b505050506001808190555050565b60008073ffffffffffffffffffffffffffffffffffffffff168273ffffffffffffffffffffffffffffffffffffffff161415614617576040517f08c379a00000000000000000000000000000000000000000000000000000000081526004018080602001828103825260288152602001806156486028913960400191505060405180910390fd5b600073ffffffffffffffffffffffffffffffffffffffff168373ffffffffffffffffffffffffffffffffffffffff16141561469d576040517f08c379a000000000000000000000000000000000000000000000000000000000815260040180806020018281038252602b8152602001806155ae602b913960400191505060405180910390fd5b600860008373ffffffffffffffffffffffffffffffffffffffff1673ffffffffffffffffffffffffffffffffffffffff16815260200190815260200160002060008473ffffffffffffffffffffffffffffffffffffffff1673ffffffffffffffffffffffffffffffffffffffff16815260200190815260200160002054905092915050565b60008282111561472e57fe5b818303905092915050565b60008083141561474c576000905061476a565b600082840290508284828161475d57fe5b041461476557fe5b809150505b92915050565b60008082848161477c57fe5b0490508091505092915050565b60008082840190508381101561479b57fe5b8091505092915050565b600073ffffffffffffffffffffffffffffffffffffffff168173ffffffffffffffffffffffffffffffffffffffff16141561482b576040517f08c379a00000000000000000000000000000000000000000000000000000000081526004018080602001828103825260288152602001806156486028913960400191505060405180910390fd5b600073ffffffffffffffffffffffffffffffffffffffff168473ffffffffffffffffffffffffffffffffffffffff1614156148b1576040517f08c379a000000000000000000000000000000000000000000000000000000000815260040180806020018281038252602b8152602001806155ae602b913960400191505060405180910390fd5b824210614926576040517f08c379a000000000000000000000000000000000000000000000000000000000815260040180806020018281038252601a8152602001807f54696d65206d75737420626520696e207468652066757475726500000000000081525060200191505060405180910390fd5b600082141561499d576040517f08c379a00000000000000000000000000000000000000000000000000000000081526004018080602001828103825260178152602001807f5175616e746974792063616e6e6f74206265207a65726f00000000000000000081525060200191505060405180910390fd5b6000600760008373ffffffffffffffffffffffffffffffffffffffff1673ffffffffffffffffffffffffffffffffffffffff16815260200190815260200160002060008673ffffffffffffffffffffffffffffffffffffffff1673ffffffffffffffffffffffffffffffffffffffff1681526020019081526020016000208054905090506030811115614a98576040517f08c379a000000000000000000000000000000000000000000000000000000000815260040180806020018281038252601c8152602001807f56657374696e67207363686564756c6520697320746f6f206c6f6e670000000081525060200191505060405180910390fd5b6000811415614b275782600860008473ffffffffffffffffffffffffffffffffffffffff1673ffffffffffffffffffffffffffffffffffffffff16815260200190815260200160002060008773ffffffffffffffffffffffffffffffffffffffff1673ffffffffffffffffffffffffffffffffffffffff16815260200190815260200160002081905550614ca5565b83614b3f866001614b38898761233d565b038561127f565b10614b95576040517f08c379a00000000000000000000000000000000000000000000000000000000081526004018080602001828103825260378152602001806155d96037913960400191505060405180910390fd5b614c2483600860008573ffffffffffffffffffffffffffffffffffffffff1673ffffffffffffffffffffffffffffffffffffffff16815260200190815260200160002060008873ffffffffffffffffffffffffffffffffffffffff1673ffffffffffffffffffffffffffffffffffffffff1681526020019081526020016000205461478990919063ffffffff16565b600860008473ffffffffffffffffffffffffffffffffffffffff1673ffffffffffffffffffffffffffffffffffffffff16815260200190815260200160002060008773ffffffffffffffffffffffffffffffffffffffff1673ffffffffffffffffffffffffffffffffffffffff168152602001908152602001600020819055505b600760008373ffffffffffffffffffffffffffffffffffffffff1673ffffffffffffffffffffffffffffffffffffffff16815260200190815260200160002060008673ffffffffffffffffffffffffffffffffffffffff1673ffffffffffffffffffffffffffffffffffffffff1681526020019081526020016000206040518060400160405280868152602001858152509080600181540180825580915050600190039060005260206000209060020201600090919091909150906002614d6d929190615550565b505050505050565b6000808211614dcf576040517f08c379a00000000000000000000000000000000000000000000000000000000081526004018080602001828103825260468152602001806156706046913960600191505060405180910390fd5b60007f000000000000000000000000000000000000000000000000000000000000000073ffffffffffffffffffffffffffffffffffffffff166304433bbc6040518163ffffffff1660e01b81526004018080602001828103825260128152602001807f426173655562657377617041646170746572000000000000000000000000000081525060200191505060206040518083038186803b158015614e7357600080fd5b505afa158015614e87573d6000803e3d6000fd5b505050506040513d6020811015614e9d57600080fd5b8101908080519060200190929190505050905060008473ffffffffffffffffffffffffffffffffffffffff166372f702f36040518163ffffffff1660e01b815260040160206040518083038186803b158015614ef857600080fd5b505afa158015614f0c573d6000803e3d6000fd5b505050506040513d6020811015614f2257600080fd5b8101908080519060200190929190505050905060008173ffffffffffffffffffffffffffffffffffffffff16630dfe16816040518163ffffffff1660e01b815260040160206040518083038186803b158015614f7d57600080fd5b505afa158015614f91573d6000803e3d6000fd5b505050506040513d6020811015614fa757600080fd5b8101908080519060200190929190505050905060008273ffffffffffffffffffffffffffffffffffffffff1663d21220a76040518163ffffffff1660e01b815260040160206040518083038186803b15801561500257600080fd5b505afa158015615016573d6000803e3d6000fd5b505050506040513d602081101561502c57600080fd5b810190808051906020019092919050505090506000808573ffffffffffffffffffffffffffffffffffffffff1663d87fc14985858b6040518463ffffffff1660e01b8152600401808473ffffffffffffffffffffffffffffffffffffffff1681526020018373ffffffffffffffffffffffffffffffffffffffff1681526020018281526020019350505050604080518083038186803b1580156150ce57600080fd5b505afa1580156150e2573d6000803e3d6000fd5b505050506040513d60408110156150f857600080fd5b8101908080519060200190929190805190602001909291905050509150915060008473ffffffffffffffffffffffffffffffffffffffff1663313ce5676040518163ffffffff1660e01b815260040160206040518083038186803b15801561515f57600080fd5b505afa158015615173573d6000803e3d6000fd5b505050506040513d602081101561518957600080fd5b810190808051906020019092919050505060ff16905060008773ffffffffffffffffffffffffffffffffffffffff166341976e09876040518263ffffffff1660e01b8152600401808273ffffffffffffffffffffffffffffffffffffffff16815260200191505060206040518083038186803b15801561520857600080fd5b505afa15801561521c573d6000803e3d6000fd5b505050506040513d602081101561523257600080fd5b81019080805190602001909291905050509050600061526f83600a0a615261848861473990919063ffffffff16565b61477090919063ffffffff16565b905060008673ffffffffffffffffffffffffffffffffffffffff1663313ce5676040518163ffffffff1660e01b815260040160206040518083038186803b1580156152b957600080fd5b505afa1580156152cd573d6000803e3d6000fd5b505050506040513d60208110156152e357600080fd5b810190808051906020019092919050505060ff16905060008a73ffffffffffffffffffffffffffffffffffffffff166341976e09896040518263ffffffff1660e01b8152600401808273ffffffffffffffffffffffffffffffffffffffff16815260200191505060206040518083038186803b15801561536257600080fd5b505afa158015615376573d6000803e3d6000fd5b505050506040513d602081101561538c57600080fd5b8101908080519060200190929190505050905060006153c983600a0a6153bb848a61473990919063ffffffff16565b61477090919063ffffffff16565b90506153de818561473990919063ffffffff16565b9c5050505050505050505050505092915050565b600073ffffffffffffffffffffffffffffffffffffffff168173ffffffffffffffffffffffffffffffffffffffff16141561542c57600080fd5b8073ffffffffffffffffffffffffffffffffffffffff1660008054906101000a900473ffffffffffffffffffffffffffffffffffffffff1673ffffffffffffffffffffffffffffffffffffffff167f8be0079c531659141344cd1fd0a4f28419497f9722a3daafe3b4186f6b6457e060405160405180910390a3806000806101000a81548173ffffffffffffffffffffffffffffffffffffffff021916908373ffffffffffffffffffffffffffffffffffffffff16021790555050565b6040518060400160405280600290602082028036833780820191505090505090565b826002810192821561553f579160200282015b8281111561553e578251829060ff1690559160200191906001019061551e565b5b50905061554c9190615590565b5090565b826002810192821561557f579160200282015b8281111561557e578251825591602001919060010190615563565b5b50905061558c9190615590565b5090565b5b808211156155a9576000816000905550600101615591565b509056fe5374616b696e674661726d526577617264733a20696e76616c6964206163636f756e74206164647265737343616e6e6f7420616464206e65772076657374656420656e7472696573206561726c696572207468616e20746865206c617374206f6e655374616b696e674661726d526577617264733a205374616b656420616d6f756e74206d7573742062652067726561746572207468616e20305374616b696e674661726d526577617264733a20696e76616c6964206661726d20616464726573735374616b696e674661726d526577617264733a206e756d626572206f66204c5020746f6b656e7320696e2070616972206d7573742062652067726561746572207468616e2030a264697066735822122075652e4eab3c478dfcb317937b0c2a9b70929d1c773bbe88a4e308d40d38ba0064736f6c634300060c0033",
  "immutableReferences": {
    "143": [
      {
        "length": 32,
        "start": 5743
      },
      {
        "length": 32,
        "start": 8963
      },
      {
        "length": 32,
        "start": 10936
      },
      {
        "length": 32,
        "start": 12217
      },
      {
        "length": 32,
        "start": 13916
      },
      {
        "length": 32,
        "start": 14329
      },
      {
        "length": 32,
        "start": 19923
      }
    ]
  },
  "source": "pragma solidity >=0.5.0;\r\n\r\n// Inheritance\r\nimport \"./Ownable.sol\";\r\nimport \"./interfaces/IStakingFarmRewards.sol\";\r\nimport \"./openzeppelin-solidity/ReentrancyGuard.sol\";\r\n\r\n// Libraires\r\nimport \"./libraries/SafeMath.sol\";\r\n\r\n// Internal references\r\nimport \"./interfaces/IERC20.sol\";\r\nimport \"./interfaces/IAddressResolver.sol\";\r\nimport \"./interfaces/ISettings.sol\";\r\nimport './interfaces/IBaseUbeswapAdapter.sol';\r\nimport \"./interfaces/IStakingRewards.sol\";\r\nimport \"./interfaces/IUniswapV2Pair.sol\";\r\n\r\ncontract StakingFarmRewards is Ownable, IStakingFarmRewards, ReentrancyGuard {\r\n    using SafeMath for uint;\r\n\r\n    IAddressResolver public immutable ADDRESS_RESOLVER;\r\n    bool private initialized = false;\r\n\r\n    mapping (address => uint) public lastUpdateTime;\r\n    mapping (address => uint) public rewardPerTokenStored;\r\n    mapping (address => mapping(address => uint256)) public userRewardPerTokenPaid;\r\n    mapping (address => mapping(address => uint256)) public rewards;\r\n\r\n    /* Lists of (timestamp, quantity) pairs per account, sorted in ascending time order.\r\n     * These are the times at which each given quantity of LP token vests. */\r\n    mapping (address => mapping(address => uint[2][])) public vestingSchedules;\r\n\r\n    /* An account's total vested LP token balance to save recomputing this */\r\n    mapping (address => mapping(address => uint)) public totalVestedAccountBalance;\r\n\r\n    /* The total remaining vested balance, for verifying the actual LP token balance of this contract against. */\r\n    mapping (address => uint) public totalVestedBalance;\r\n\r\n    uint public constant TIME_INDEX = 0;\r\n    uint public constant QUANTITY_INDEX = 1;\r\n\r\n    /* Limit vesting entries to disallow unbounded iteration over vesting schedules. */\r\n    uint public constant MAX_VESTING_ENTRIES = 48;\r\n\r\n    /* ========== CONSTRUCTOR ========== */\r\n\r\n    constructor(IAddressResolver _addressResolver) public Ownable() {\r\n        ADDRESS_RESOLVER = _addressResolver;\r\n    }\r\n\r\n    /* ========== VIEW FUNCTIONS ========== */\r\n\r\n    /**\r\n     * @notice A simple alias to totalVestedAccountBalance: provides ERC20 balance integration.\r\n     */\r\n    function balanceOf(address account, address farmAddress) public view override returns (uint) {\r\n        require(farmAddress != address(0), \"StakingFarmRewards: invalid farm address\");\r\n        require(account != address(0), \"StakingFarmRewards: invalid account address\");\r\n\r\n        return totalVestedAccountBalance[farmAddress][account];\r\n    }\r\n\r\n    /**\r\n     * @notice The number of vesting dates in an account's schedule for the given farm.\r\n     */\r\n    function numVestingEntries(address account, address farmAddress) public view override returns (uint) {\r\n        require(farmAddress != address(0), \"StakingFarmRewards: invalid farm address\");\r\n        require(account != address(0), \"StakingFarmRewards: invalid account address\");\r\n\r\n        return vestingSchedules[farmAddress][account].length;\r\n    }\r\n\r\n    /**\r\n     * @notice Get a particular schedule entry for an account for the given farm.\r\n     * @return A pair of uints: (timestamp, LP token quantity).\r\n     */\r\n    function getVestingScheduleEntry(address account, uint index, address farmAddress) public view override returns (uint[2] memory) {\r\n        require(farmAddress != address(0), \"StakingFarmRewards: invalid farm address\");\r\n        require(account != address(0), \"StakingFarmRewards: invalid account address\");\r\n\r\n        return vestingSchedules[farmAddress][account][index];\r\n    }\r\n\r\n    /**\r\n     * @notice Get the time at which a given schedule entry will vest.\r\n     */\r\n    function getVestingTime(address account, uint index, address farmAddress) public view override returns (uint) {\r\n        require(farmAddress != address(0), \"StakingFarmRewards: invalid farm address\");\r\n        require(account != address(0), \"StakingFarmRewards: invalid account address\");\r\n\r\n        return getVestingScheduleEntry(account, index, farmAddress)[TIME_INDEX];\r\n    }\r\n\r\n    /**\r\n     * @notice Get the quantity of LP tokens associated with a given schedule entry for the given farm.\r\n     */\r\n    function getVestingQuantity(address account, uint index, address farmAddress) public view override returns (uint) {\r\n        require(farmAddress != address(0), \"StakingFarmRewards: invalid farm address\");\r\n        require(account != address(0), \"StakingFarmRewards: invalid account address\");\r\n\r\n        return getVestingScheduleEntry(account, index, farmAddress)[QUANTITY_INDEX];\r\n    }\r\n\r\n    /**\r\n     * @notice Obtain the index of the next schedule entry that will vest for a given user.\r\n     */\r\n    function getNextVestingIndex(address account, address farmAddress) public view override returns (uint) {\r\n        require(farmAddress != address(0), \"StakingFarmRewards: invalid farm address\");\r\n        require(account != address(0), \"StakingFarmRewards: invalid account address\");\r\n\r\n        uint len = numVestingEntries(account, farmAddress);\r\n\r\n        for (uint i = 0; i < len; i++)\r\n        {\r\n            if (getVestingTime(account, i, farmAddress) != 0)\r\n            {\r\n                return i;\r\n            }\r\n        }\r\n\r\n        return len;\r\n    }\r\n\r\n    /**\r\n     * @notice Calculates the amount of TGEN reward per token staked in the given farm.\r\n     */\r\n    function rewardPerToken(address farmAddress) public view override returns (uint256) {\r\n        require(farmAddress != address(0), \"StakingFarmRewards: invalid farm address\");\r\n\r\n        uint rewardRate = ISettings(ADDRESS_RESOLVER.getContractAddress(\"Settings\")).getParameterValue(\"WeeklyStakingFarmRewards\");\r\n        uint numberOfAvailableFarms = IBaseUbeswapAdapter(ADDRESS_RESOLVER.getContractAddress(\"BaseUbeswapAdapter\")).getAvailableUbeswapFarms().length;\r\n\r\n        if (totalVestedBalance[farmAddress] == 0) {\r\n            return rewardPerTokenStored[farmAddress];\r\n        }\r\n        return\r\n            rewardPerTokenStored[farmAddress].add(\r\n                block.timestamp.sub(lastUpdateTime[farmAddress]).mul(rewardRate).mul(1e18).div(totalVestedBalance[farmAddress]).div(numberOfAvailableFarms)\r\n            );\r\n    }\r\n\r\n    /**\r\n     * @notice Calculates the amount of TGEN rewards earned for the given farm.\r\n     */\r\n    function earned(address account, address farmAddress) public view override returns (uint256) {\r\n        require(farmAddress != address(0), \"StakingFarmRewards: invalid farm address\");\r\n\r\n        return totalVestedAccountBalance[farmAddress][account].mul(rewardPerToken(farmAddress).sub(userRewardPerTokenPaid[farmAddress][account])).div(1e18).add(rewards[farmAddress][account]);\r\n    }\r\n\r\n    /**\r\n     * @notice Obtain the next schedule entry that will vest for a given user.\r\n     * @return A pair of uints: (timestamp, LP token quantity). */\r\n    function getNextVestingEntry(address account, address farmAddress) public view override returns (uint[2] memory) {\r\n        require(farmAddress != address(0), \"StakingFarmRewards: invalid farm address\");\r\n        require(account != address(0), \"StakingFarmRewards: invalid account address\");\r\n\r\n        uint index = getNextVestingIndex(account, farmAddress);\r\n        if (index == numVestingEntries(account, farmAddress))\r\n        {\r\n            return [uint(0), 0];\r\n        }\r\n\r\n        return getVestingScheduleEntry(account, index, farmAddress);\r\n    }\r\n\r\n    /**\r\n     * @notice Obtain the time at which the next schedule entry will vest for a given user.\r\n     */\r\n    function getNextVestingTime(address account, address farmAddress) external view override returns (uint) {\r\n        require(farmAddress != address(0), \"StakingFarmRewards: invalid farm address\");\r\n        require(account != address(0), \"StakingFarmRewards: invalid account address\");\r\n\r\n        return getNextVestingEntry(account, farmAddress)[TIME_INDEX];\r\n    }\r\n\r\n    /**\r\n     * @notice Obtain the quantity which the next schedule entry will vest for a given user.\r\n     */\r\n    function getNextVestingQuantity(address account, address farmAddress) external view override returns (uint) {\r\n        require(farmAddress != address(0), \"StakingFarmRewards: invalid farm address\");\r\n        require(account != address(0), \"StakingFarmRewards: invalid account address\");\r\n\r\n        return getNextVestingEntry(account, farmAddress)[QUANTITY_INDEX];\r\n    }\r\n\r\n    /**\r\n     * @notice Returns the user's staked farms, balance in each staked farm, and the number of staked farms\r\n     * @param account Address of the user\r\n     * @return (address[], uint[], uint) The address of each staked farm, user's LP token balance in the associated farm, and the number of staked farms\r\n     */\r\n    function getStakedFarms(address account) public view override returns (address[] memory, uint[] memory, uint) {\r\n        require(account != address(0), \"StakingFarmRewards: invalid account address\");\r\n\r\n        address baseUbeswapAdapterAddress = ADDRESS_RESOLVER.getContractAddress(\"BaseUbeswapAdapter\");   \r\n        address[] memory availableFarms = IBaseUbeswapAdapter(baseUbeswapAdapterAddress).getAvailableUbeswapFarms();\r\n        address[] memory stakedFarms = new address[](availableFarms.length);\r\n        uint[] memory balances = new uint[](availableFarms.length);\r\n        uint count = 0;\r\n\r\n        for (uint i = 0; i < availableFarms.length; i++)\r\n        {\r\n            if (totalVestedAccountBalance[availableFarms[i]][account] > 0)\r\n            {\r\n                stakedFarms[count] = availableFarms[i];\r\n                balances[count] = totalVestedAccountBalance[availableFarms[i]][account];\r\n            }\r\n        }   \r\n\r\n        return (stakedFarms, balances, count); \r\n    }\r\n\r\n    /**\r\n     * @notice Returns the USD value of the user's staked position in the given farm\r\n     * @param account Address of the user\r\n     * @param farmAddress Address of the farm\r\n     * @return uint USD value of the staked position\r\n     */\r\n    function getUSDValueOfStakedPosition(address account, address farmAddress) public view override returns (uint) {\r\n        require(farmAddress != address(0), \"StakingFarmRewards: invalid farm address\");\r\n        require(account != address(0), \"StakingFarmRewards: invalid account address\");\r\n\r\n        uint numberOfLPTokens = totalVestedAccountBalance[farmAddress][account];\r\n\r\n        return _calculateValueOfPair(farmAddress, numberOfLPTokens);\r\n    }\r\n\r\n    /**\r\n     * @notice Returns the USD value of the given farm\r\n     * @param farmAddress Address of the farm\r\n     * @return uint USD value staked in the farm\r\n     */\r\n    function getUSDValueOfFarm(address farmAddress) public view override returns (uint) {\r\n        require(farmAddress != address(0), \"StakingFarmRewards: invalid farm address\");\r\n\r\n        uint totalSupply = totalVestedBalance[farmAddress];\r\n        \r\n        return _calculateValueOfPair(farmAddress, totalSupply);\r\n    }\r\n\r\n    /* ========== INTERNAL FUNCTIONS ========== */\r\n\r\n    /**\r\n     * @notice Add a new vesting entry at a given time and quantity to an account's schedule for the given farm.\r\n     * @param account The account to append a new vesting entry to.\r\n     * @param time The absolute unix timestamp after which the vested quantity may be withdrawn.\r\n     * @param quantity The quantity of LP token that will vest.\r\n     * @param farmAddress Address of the farm to stake in\r\n     */\r\n    function appendVestingEntry(address account, uint time, uint quantity, address farmAddress) internal {\r\n        require(farmAddress != address(0), \"StakingFarmRewards: invalid farm address\");\r\n        require(account != address(0), \"StakingFarmRewards: invalid account address\");\r\n\r\n\r\n        /* No empty or already-passed vesting entries allowed. */\r\n        require(block.timestamp < time, \"Time must be in the future\");\r\n        require(quantity != 0, \"Quantity cannot be zero\");\r\n\r\n        /* Disallow arbitrarily long vesting schedules in light of the gas limit. */\r\n        uint scheduleLength = vestingSchedules[farmAddress][account].length;\r\n        require(scheduleLength <= MAX_VESTING_ENTRIES, \"Vesting schedule is too long\");\r\n\r\n        if (scheduleLength == 0)\r\n        {\r\n            totalVestedAccountBalance[farmAddress][account] = quantity;\r\n        }\r\n        else\r\n        {\r\n            /* Disallow adding new vested LP token earlier than the last one.\r\n             * Since entries are only appended, this means that no vesting date can be repeated. */\r\n            require(\r\n                getVestingTime(account, numVestingEntries(account, farmAddress) - 1, farmAddress) < time,\r\n                \"Cannot add new vested entries earlier than the last one\"\r\n            );\r\n\r\n            totalVestedAccountBalance[farmAddress][account] = totalVestedAccountBalance[farmAddress][account].add(quantity);\r\n        }\r\n\r\n        vestingSchedules[farmAddress][account].push([time, quantity]);\r\n    }\r\n\r\n    /**\r\n     * @notice Given the address of a farm and the number of LP tokens, returns the USD value of the LP tokens.\r\n     * @param farmAddress Address of the farm to stake in\r\n     * @param numberOfTokens Number of LP tokens in the farm\r\n     * @return uint The USD value of the LP tokens\r\n     */\r\n    function _calculateValueOfPair(address farmAddress, uint numberOfTokens) internal view returns (uint) {\r\n        require(numberOfTokens > 0, \"StakingFarmRewards: number of LP tokens in pair must be greater than 0\");\r\n\r\n        address baseUbeswapAdapterAddress = ADDRESS_RESOLVER.getContractAddress(\"BaseUbeswapAdapter\"); \r\n\r\n        address pair = IStakingRewards(farmAddress).stakingToken();\r\n        address tokenA = IUniswapV2Pair(pair).token0();\r\n        address tokenB = IUniswapV2Pair(pair).token1();\r\n        (uint amountA, uint amountB) = IBaseUbeswapAdapter(baseUbeswapAdapterAddress).getTokenAmountsFromPair(tokenA, tokenB, numberOfTokens);\r\n\r\n        uint numberOfDecimalsA = IERC20(tokenA).decimals();\r\n        uint USDperTokenA = IBaseUbeswapAdapter(baseUbeswapAdapterAddress).getPrice(tokenA);\r\n        uint USDBalanceA = amountA.mul(USDperTokenA).div(10 ** numberOfDecimalsA);\r\n\r\n        uint numberOfDecimalsB = IERC20(tokenB).decimals();\r\n        uint USDperTokenB = IBaseUbeswapAdapter(baseUbeswapAdapterAddress).getPrice(tokenB);\r\n        uint USDBalanceB = amountB.mul(USDperTokenB).div(10 ** numberOfDecimalsB);\r\n\r\n        return USDBalanceA.mul(USDBalanceB);\r\n    }\r\n\r\n    /* ========== MUTATIVE FUNCTIONS ========== */\r\n\r\n    /**\r\n     * @notice Stakes the given LP token amount.\r\n     */\r\n    function stake(uint amount, address farmAddress) external override nonReentrant updateReward(msg.sender, farmAddress) {\r\n        require(amount > 0, \"StakingFarmRewards: Staked amount must be greater than 0\");\r\n        require(farmAddress != address(0), \"StakingFarmRewards: invalid farm address\");\r\n\r\n        uint vestingTimestamp = block.timestamp.add(30 days);\r\n        appendVestingEntry(msg.sender, vestingTimestamp, amount, farmAddress);\r\n\r\n        //Transfer LP tokens from user and stake in farm\r\n        address stakingToken = IStakingRewards(farmAddress).stakingToken();\r\n        IERC20(stakingToken).transferFrom(msg.sender, address(this), amount);\r\n        IStakingRewards(stakingToken).stake(amount); //This contract has custody of staked tokens\r\n\r\n        emit Staked(msg.sender, amount, vestingTimestamp, farmAddress, block.timestamp);\r\n    }\r\n\r\n    /**\r\n     * @notice Allow a user to withdraw any LP token in their schedule that have vested.\r\n     */\r\n    function vest(address farmAddress) external override nonReentrant updateReward(msg.sender, farmAddress) {\r\n        require(farmAddress != address(0), \"StakingFarmRewards: invalid farm address\");\r\n\r\n        uint numEntries = numVestingEntries(msg.sender, farmAddress);\r\n        uint total;\r\n\r\n        for (uint i = 0; i < numEntries; i++)\r\n        {\r\n            uint time = getVestingTime(msg.sender, i, farmAddress);\r\n            /* The list is sorted; when we reach the first future time, bail out. */\r\n            if (time > block.timestamp)\r\n            {\r\n                break;\r\n            }\r\n\r\n            uint qty = getVestingQuantity(msg.sender, i, farmAddress);\r\n\r\n            if (qty > 0)\r\n            {\r\n                vestingSchedules[farmAddress][msg.sender][i] = [0, 0];\r\n                total = total.add(qty);\r\n            }\r\n        }\r\n\r\n        if (total != 0)\r\n        {\r\n            //Unstake from farm and claim available UBE rewards; unstakes full position by default\r\n            IStakingRewards(farmAddress).exit();\r\n\r\n            //Update state variables and transfer tokens to user\r\n            address stakingToken = IStakingRewards(farmAddress).stakingToken();\r\n            totalVestedBalance[farmAddress] = totalVestedBalance[farmAddress].sub(total);\r\n            totalVestedAccountBalance[farmAddress][msg.sender] = totalVestedAccountBalance[farmAddress][msg.sender].sub(total);\r\n            IERC20(stakingToken).transfer(msg.sender, total);\r\n\r\n            //Stake remaining tokens back into farm\r\n            uint remainingTokens = IERC20(stakingToken).balanceOf(address(this));\r\n            IStakingRewards(farmAddress).stake(remainingTokens);\r\n\r\n            emit Vested(msg.sender, block.timestamp, total, farmAddress);\r\n        }\r\n\r\n        //Claim TGEN rewards\r\n        getReward(farmAddress);\r\n    }\r\n\r\n    /**\r\n     * @notice Allow a user to claim any available staking rewards for the given farm.\r\n     */\r\n    function getReward(address farmAddress) public override nonReentrant updateReward(msg.sender, farmAddress) {\r\n        require(farmAddress != address(0), \"StakingFarmRewards: invalid farm address\");\r\n\r\n        address baseTradegenAddress = ADDRESS_RESOLVER.getContractAddress(\"BaseTradegen\");\r\n        uint reward = rewards[farmAddress][msg.sender];\r\n\r\n        if (reward > 0)\r\n        {\r\n            rewards[farmAddress][msg.sender] = 0;\r\n            IERC20(baseTradegenAddress).transfer(msg.sender, reward);\r\n            emit RewardPaid(msg.sender, reward, farmAddress, block.timestamp);\r\n        }\r\n    }\r\n\r\n    /* ========== RESTRICTED FUNCTIOND ========== */\r\n\r\n    /**\r\n     * @notice Initialize the lastUpdateTime of each Ubeswap farm; meant to be called once\r\n     */\r\n    function initializeFarms() external onlyOwner {\r\n        require(!initialized, \"Already initialized farms\");\r\n        //Initialize lastUpdateTime of each available Ubeswap farm\r\n        address baseUbeswapAdapterAddress = ADDRESS_RESOLVER.getContractAddress(\"BaseUbeswapAdapter\");\r\n        address[] memory farms = IBaseUbeswapAdapter(baseUbeswapAdapterAddress).getAvailableUbeswapFarms();\r\n        for (uint i = 0; i < farms.length; i++)\r\n        {\r\n            lastUpdateTime[farms[i]] = block.timestamp;\r\n        }\r\n\r\n        initialized = true;\r\n    }\r\n\r\n    /* ========== MODIFIERS ========== */\r\n\r\n    modifier updateReward(address account, address farmAddress) {\r\n        require(farmAddress != address(0), \"StakingFarmRewards: invalid farm address\");\r\n\r\n        rewardPerTokenStored[farmAddress] = rewardPerToken(farmAddress);\r\n        lastUpdateTime[farmAddress] = block.timestamp;\r\n        if (account != address(0)) {\r\n            rewards[farmAddress][account] = earned(account, farmAddress);\r\n            userRewardPerTokenPaid[farmAddress][account] = rewardPerTokenStored[farmAddress];\r\n        }\r\n        _;\r\n    }\r\n\r\n    /* ========== EVENTS ========== */\r\n\r\n    event Vested(address indexed beneficiary, uint time, uint value, address farmAddress);\r\n    event Staked(address indexed beneficiary, uint total, uint vestingTimestamp, address farmAddress, uint timestamp);\r\n    event RewardPaid(address indexed user, uint amount, address farmAddress, uint timestamp);\r\n}",
  "sourcePath": "C:/Users/xavie/OneDrive/Desktop/TradeGen/Github/tradegen/contracts/StakingFarmRewards.sol",
  "compiler": {
    "name": "solc",
    "version": "0.6.12+commit.27d51765.Emscripten.clang"
  },
  "schemaVersion": "3.4.1",
  "updatedAt": "2021-08-09T20:40:37.713Z",
  "devdoc": {
    "kind": "dev",
    "methods": {
      "getNextVestingEntry(address,address)": {
        "returns": {
          "_0": "A pair of uints: (timestamp, LP token quantity). "
        }
      },
      "getStakedFarms(address)": {
        "params": {
          "account": "Address of the user"
        },
        "returns": {
          "_0": "(address[], uint[], uint) The address of each staked farm, user's LP token balance in the associated farm, and the number of staked farms"
        }
      },
      "getUSDValueOfFarm(address)": {
        "params": {
          "farmAddress": "Address of the farm"
        },
        "returns": {
          "_0": "uint USD value staked in the farm"
        }
      },
      "getUSDValueOfStakedPosition(address,address)": {
        "params": {
          "account": "Address of the user",
          "farmAddress": "Address of the farm"
        },
        "returns": {
          "_0": "uint USD value of the staked position"
        }
      },
      "getVestingScheduleEntry(address,uint256,address)": {
        "returns": {
          "_0": "A pair of uints: (timestamp, LP token quantity)."
        }
      },
      "isOwner()": {
        "returns": {
          "_0": "true if `msg.sender` is the owner of the contract."
        }
      },
      "owner()": {
        "returns": {
          "_0": "the address of the owner."
        }
      },
      "renounceOwnership()": {
        "details": "Allows the current owner to relinquish control of the contract."
      },
      "transferOwnership(address)": {
        "details": "Allows the current owner to transfer control of the contract to a newOwner.",
        "params": {
          "newOwner": "The address to transfer ownership to."
        }
      }
    },
    "version": 1
  },
  "userdoc": {
    "kind": "user",
    "methods": {
      "balanceOf(address,address)": {
        "notice": "A simple alias to totalVestedAccountBalance: provides ERC20 balance integration."
      },
      "earned(address,address)": {
        "notice": "Calculates the amount of TGEN rewards earned for the given farm."
      },
      "getNextVestingEntry(address,address)": {
        "notice": "Obtain the next schedule entry that will vest for a given user."
      },
      "getNextVestingIndex(address,address)": {
        "notice": "Obtain the index of the next schedule entry that will vest for a given user."
      },
      "getNextVestingQuantity(address,address)": {
        "notice": "Obtain the quantity which the next schedule entry will vest for a given user."
      },
      "getNextVestingTime(address,address)": {
        "notice": "Obtain the time at which the next schedule entry will vest for a given user."
      },
      "getReward(address)": {
        "notice": "Allow a user to claim any available staking rewards for the given farm."
      },
      "getStakedFarms(address)": {
        "notice": "Returns the user's staked farms, balance in each staked farm, and the number of staked farms"
      },
      "getUSDValueOfFarm(address)": {
        "notice": "Returns the USD value of the given farm"
      },
      "getUSDValueOfStakedPosition(address,address)": {
        "notice": "Returns the USD value of the user's staked position in the given farm"
      },
      "getVestingQuantity(address,uint256,address)": {
        "notice": "Get the quantity of LP tokens associated with a given schedule entry for the given farm."
      },
      "getVestingScheduleEntry(address,uint256,address)": {
        "notice": "Get a particular schedule entry for an account for the given farm."
      },
      "getVestingTime(address,uint256,address)": {
        "notice": "Get the time at which a given schedule entry will vest."
      },
      "initializeFarms()": {
        "notice": "Initialize the lastUpdateTime of each Ubeswap farm; meant to be called once"
      },
      "numVestingEntries(address,address)": {
        "notice": "The number of vesting dates in an account's schedule for the given farm."
      },
      "renounceOwnership()": {
        "notice": "Renouncing to ownership will leave the contract without an owner. It will not be possible to call the functions with the `onlyOwner` modifier anymore."
      },
      "rewardPerToken(address)": {
        "notice": "Calculates the amount of TGEN reward per token staked in the given farm."
      },
      "stake(uint256,address)": {
        "notice": "Stakes the given LP token amount."
      },
      "vest(address)": {
        "notice": "Allow a user to withdraw any LP token in their schedule that have vested."
      }
    },
    "version": 1
  }
}