{
  "contractName": "StakingFarmRewards",
  "abi": [
    {
      "inputs": [
        {
          "internalType": "contract IAddressResolver",
          "name": "_addressResolver",
          "type": "address"
        }
      ],
      "stateMutability": "nonpayable",
      "type": "constructor"
    },
    {
      "anonymous": false,
      "inputs": [
        {
          "indexed": true,
          "internalType": "address",
          "name": "previousOwner",
          "type": "address"
        },
        {
          "indexed": true,
          "internalType": "address",
          "name": "newOwner",
          "type": "address"
        }
      ],
      "name": "OwnershipTransferred",
      "type": "event"
    },
    {
      "anonymous": false,
      "inputs": [
        {
          "indexed": true,
          "internalType": "address",
          "name": "user",
          "type": "address"
        },
        {
          "indexed": false,
          "internalType": "uint256",
          "name": "amount",
          "type": "uint256"
        },
        {
          "indexed": false,
          "internalType": "address",
          "name": "farmAddress",
          "type": "address"
        },
        {
          "indexed": false,
          "internalType": "uint256",
          "name": "timestamp",
          "type": "uint256"
        }
      ],
      "name": "RewardPaid",
      "type": "event"
    },
    {
      "anonymous": false,
      "inputs": [
        {
          "indexed": true,
          "internalType": "address",
          "name": "beneficiary",
          "type": "address"
        },
        {
          "indexed": false,
          "internalType": "uint256",
          "name": "total",
          "type": "uint256"
        },
        {
          "indexed": false,
          "internalType": "uint256",
          "name": "vestingTimestamp",
          "type": "uint256"
        },
        {
          "indexed": false,
          "internalType": "address",
          "name": "farmAddress",
          "type": "address"
        },
        {
          "indexed": false,
          "internalType": "uint256",
          "name": "timestamp",
          "type": "uint256"
        }
      ],
      "name": "Staked",
      "type": "event"
    },
    {
      "anonymous": false,
      "inputs": [
        {
          "indexed": true,
          "internalType": "address",
          "name": "beneficiary",
          "type": "address"
        },
        {
          "indexed": false,
          "internalType": "uint256",
          "name": "time",
          "type": "uint256"
        },
        {
          "indexed": false,
          "internalType": "uint256",
          "name": "value",
          "type": "uint256"
        },
        {
          "indexed": false,
          "internalType": "address",
          "name": "farmAddress",
          "type": "address"
        }
      ],
      "name": "Vested",
      "type": "event"
    },
    {
      "inputs": [],
      "name": "ADDRESS_RESOLVER",
      "outputs": [
        {
          "internalType": "contract IAddressResolver",
          "name": "",
          "type": "address"
        }
      ],
      "stateMutability": "view",
      "type": "function"
    },
    {
      "inputs": [],
      "name": "MAX_VESTING_ENTRIES",
      "outputs": [
        {
          "internalType": "uint256",
          "name": "",
          "type": "uint256"
        }
      ],
      "stateMutability": "view",
      "type": "function"
    },
    {
      "inputs": [],
      "name": "QUANTITY_INDEX",
      "outputs": [
        {
          "internalType": "uint256",
          "name": "",
          "type": "uint256"
        }
      ],
      "stateMutability": "view",
      "type": "function"
    },
    {
      "inputs": [],
      "name": "TIME_INDEX",
      "outputs": [
        {
          "internalType": "uint256",
          "name": "",
          "type": "uint256"
        }
      ],
      "stateMutability": "view",
      "type": "function"
    },
    {
      "inputs": [],
      "name": "isOwner",
      "outputs": [
        {
          "internalType": "bool",
          "name": "",
          "type": "bool"
        }
      ],
      "stateMutability": "view",
      "type": "function"
    },
    {
      "inputs": [
        {
          "internalType": "address",
          "name": "",
          "type": "address"
        }
      ],
      "name": "lastUpdateTime",
      "outputs": [
        {
          "internalType": "uint256",
          "name": "",
          "type": "uint256"
        }
      ],
      "stateMutability": "view",
      "type": "function"
    },
    {
      "inputs": [],
      "name": "owner",
      "outputs": [
        {
          "internalType": "address",
          "name": "",
          "type": "address"
        }
      ],
      "stateMutability": "view",
      "type": "function"
    },
    {
      "inputs": [],
      "name": "renounceOwnership",
      "outputs": [],
      "stateMutability": "nonpayable",
      "type": "function"
    },
    {
      "inputs": [
        {
          "internalType": "address",
          "name": "",
          "type": "address"
        }
      ],
      "name": "rewardPerTokenStored",
      "outputs": [
        {
          "internalType": "uint256",
          "name": "",
          "type": "uint256"
        }
      ],
      "stateMutability": "view",
      "type": "function"
    },
    {
      "inputs": [
        {
          "internalType": "address",
          "name": "",
          "type": "address"
        },
        {
          "internalType": "address",
          "name": "",
          "type": "address"
        }
      ],
      "name": "rewards",
      "outputs": [
        {
          "internalType": "uint256",
          "name": "",
          "type": "uint256"
        }
      ],
      "stateMutability": "view",
      "type": "function"
    },
    {
      "inputs": [
        {
          "internalType": "address",
          "name": "",
          "type": "address"
        },
        {
          "internalType": "address",
          "name": "",
          "type": "address"
        }
      ],
      "name": "totalVestedAccountBalance",
      "outputs": [
        {
          "internalType": "uint256",
          "name": "",
          "type": "uint256"
        }
      ],
      "stateMutability": "view",
      "type": "function"
    },
    {
      "inputs": [
        {
          "internalType": "address",
          "name": "",
          "type": "address"
        }
      ],
      "name": "totalVestedBalance",
      "outputs": [
        {
          "internalType": "uint256",
          "name": "",
          "type": "uint256"
        }
      ],
      "stateMutability": "view",
      "type": "function"
    },
    {
      "inputs": [
        {
          "internalType": "address",
          "name": "newOwner",
          "type": "address"
        }
      ],
      "name": "transferOwnership",
      "outputs": [],
      "stateMutability": "nonpayable",
      "type": "function"
    },
    {
      "inputs": [
        {
          "internalType": "address",
          "name": "",
          "type": "address"
        },
        {
          "internalType": "address",
          "name": "",
          "type": "address"
        }
      ],
      "name": "userRewardPerTokenPaid",
      "outputs": [
        {
          "internalType": "uint256",
          "name": "",
          "type": "uint256"
        }
      ],
      "stateMutability": "view",
      "type": "function"
    },
    {
      "inputs": [
        {
          "internalType": "address",
          "name": "",
          "type": "address"
        },
        {
          "internalType": "address",
          "name": "",
          "type": "address"
        },
        {
          "internalType": "uint256",
          "name": "",
          "type": "uint256"
        },
        {
          "internalType": "uint256",
          "name": "",
          "type": "uint256"
        }
      ],
      "name": "vestingSchedules",
      "outputs": [
        {
          "internalType": "uint256",
          "name": "",
          "type": "uint256"
        }
      ],
      "stateMutability": "view",
      "type": "function"
    },
    {
      "inputs": [
        {
          "internalType": "address",
          "name": "account",
          "type": "address"
        },
        {
          "internalType": "address",
          "name": "farmAddress",
          "type": "address"
        }
      ],
      "name": "balanceOf",
      "outputs": [
        {
          "internalType": "uint256",
          "name": "",
          "type": "uint256"
        }
      ],
      "stateMutability": "view",
      "type": "function"
    },
    {
      "inputs": [
        {
          "internalType": "address",
          "name": "account",
          "type": "address"
        },
        {
          "internalType": "address",
          "name": "farmAddress",
          "type": "address"
        }
      ],
      "name": "numVestingEntries",
      "outputs": [
        {
          "internalType": "uint256",
          "name": "",
          "type": "uint256"
        }
      ],
      "stateMutability": "view",
      "type": "function"
    },
    {
      "inputs": [
        {
          "internalType": "address",
          "name": "account",
          "type": "address"
        },
        {
          "internalType": "uint256",
          "name": "index",
          "type": "uint256"
        },
        {
          "internalType": "address",
          "name": "farmAddress",
          "type": "address"
        }
      ],
      "name": "getVestingScheduleEntry",
      "outputs": [
        {
          "internalType": "uint256[2]",
          "name": "",
          "type": "uint256[2]"
        }
      ],
      "stateMutability": "view",
      "type": "function"
    },
    {
      "inputs": [
        {
          "internalType": "address",
          "name": "account",
          "type": "address"
        },
        {
          "internalType": "uint256",
          "name": "index",
          "type": "uint256"
        },
        {
          "internalType": "address",
          "name": "farmAddress",
          "type": "address"
        }
      ],
      "name": "getVestingTime",
      "outputs": [
        {
          "internalType": "uint256",
          "name": "",
          "type": "uint256"
        }
      ],
      "stateMutability": "view",
      "type": "function"
    },
    {
      "inputs": [
        {
          "internalType": "address",
          "name": "account",
          "type": "address"
        },
        {
          "internalType": "uint256",
          "name": "index",
          "type": "uint256"
        },
        {
          "internalType": "address",
          "name": "farmAddress",
          "type": "address"
        }
      ],
      "name": "getVestingQuantity",
      "outputs": [
        {
          "internalType": "uint256",
          "name": "",
          "type": "uint256"
        }
      ],
      "stateMutability": "view",
      "type": "function"
    },
    {
      "inputs": [
        {
          "internalType": "address",
          "name": "account",
          "type": "address"
        },
        {
          "internalType": "address",
          "name": "farmAddress",
          "type": "address"
        }
      ],
      "name": "getNextVestingIndex",
      "outputs": [
        {
          "internalType": "uint256",
          "name": "",
          "type": "uint256"
        }
      ],
      "stateMutability": "view",
      "type": "function"
    },
    {
      "inputs": [
        {
          "internalType": "address",
          "name": "farmAddress",
          "type": "address"
        }
      ],
      "name": "rewardPerToken",
      "outputs": [
        {
          "internalType": "uint256",
          "name": "",
          "type": "uint256"
        }
      ],
      "stateMutability": "view",
      "type": "function"
    },
    {
      "inputs": [
        {
          "internalType": "address",
          "name": "account",
          "type": "address"
        },
        {
          "internalType": "address",
          "name": "farmAddress",
          "type": "address"
        }
      ],
      "name": "earned",
      "outputs": [
        {
          "internalType": "uint256",
          "name": "",
          "type": "uint256"
        }
      ],
      "stateMutability": "view",
      "type": "function"
    },
    {
      "inputs": [
        {
          "internalType": "address",
          "name": "account",
          "type": "address"
        },
        {
          "internalType": "address",
          "name": "farmAddress",
          "type": "address"
        }
      ],
      "name": "getNextVestingEntry",
      "outputs": [
        {
          "internalType": "uint256[2]",
          "name": "",
          "type": "uint256[2]"
        }
      ],
      "stateMutability": "view",
      "type": "function"
    },
    {
      "inputs": [
        {
          "internalType": "address",
          "name": "account",
          "type": "address"
        },
        {
          "internalType": "address",
          "name": "farmAddress",
          "type": "address"
        }
      ],
      "name": "getNextVestingTime",
      "outputs": [
        {
          "internalType": "uint256",
          "name": "",
          "type": "uint256"
        }
      ],
      "stateMutability": "view",
      "type": "function"
    },
    {
      "inputs": [
        {
          "internalType": "address",
          "name": "account",
          "type": "address"
        },
        {
          "internalType": "address",
          "name": "farmAddress",
          "type": "address"
        }
      ],
      "name": "getNextVestingQuantity",
      "outputs": [
        {
          "internalType": "uint256",
          "name": "",
          "type": "uint256"
        }
      ],
      "stateMutability": "view",
      "type": "function"
    },
    {
      "inputs": [
        {
          "internalType": "address",
          "name": "account",
          "type": "address"
        }
      ],
      "name": "getStakedFarms",
      "outputs": [
        {
          "internalType": "address[]",
          "name": "",
          "type": "address[]"
        },
        {
          "internalType": "uint256[]",
          "name": "",
          "type": "uint256[]"
        },
        {
          "internalType": "uint256",
          "name": "",
          "type": "uint256"
        }
      ],
      "stateMutability": "view",
      "type": "function"
    },
    {
      "inputs": [
        {
          "internalType": "address",
          "name": "account",
          "type": "address"
        },
        {
          "internalType": "address",
          "name": "farmAddress",
          "type": "address"
        }
      ],
      "name": "getUSDValueOfStakedPosition",
      "outputs": [
        {
          "internalType": "uint256",
          "name": "",
          "type": "uint256"
        }
      ],
      "stateMutability": "view",
      "type": "function"
    },
    {
      "inputs": [
        {
          "internalType": "address",
          "name": "farmAddress",
          "type": "address"
        }
      ],
      "name": "getUSDValueOfFarm",
      "outputs": [
        {
          "internalType": "uint256",
          "name": "",
          "type": "uint256"
        }
      ],
      "stateMutability": "view",
      "type": "function"
    },
    {
      "inputs": [
        {
          "internalType": "uint256",
          "name": "amount",
          "type": "uint256"
        },
        {
          "internalType": "address",
          "name": "farmAddress",
          "type": "address"
        }
      ],
      "name": "stake",
      "outputs": [],
      "stateMutability": "nonpayable",
      "type": "function"
    },
    {
      "inputs": [
        {
          "internalType": "address",
          "name": "farmAddress",
          "type": "address"
        }
      ],
      "name": "vest",
      "outputs": [],
      "stateMutability": "nonpayable",
      "type": "function"
    },
    {
      "inputs": [
        {
          "internalType": "address",
          "name": "farmAddress",
          "type": "address"
        }
      ],
      "name": "getReward",
      "outputs": [],
      "stateMutability": "nonpayable",
      "type": "function"
    },
    {
      "inputs": [],
      "name": "initializeFarms",
      "outputs": [],
      "stateMutability": "nonpayable",
      "type": "function"
    }
  ],
  "bytecode": "0x60a06040526000600260006101000a81548160ff0219169083151502179055503480156200002c57600080fd5b506040516200588a3803806200588a833981810160405260208110156200005257600080fd5b8101908080519060200190929190505050336000806101000a81548173ffffffffffffffffffffffffffffffffffffffff021916908373ffffffffffffffffffffffffffffffffffffffff16021790555060008054906101000a900473ffffffffffffffffffffffffffffffffffffffff1673ffffffffffffffffffffffffffffffffffffffff16600073ffffffffffffffffffffffffffffffffffffffff167f8be0079c531659141344cd1fd0a4f28419497f9722a3daafe3b4186f6b6457e060405160405180910390a3600180819055508073ffffffffffffffffffffffffffffffffffffffff1660808173ffffffffffffffffffffffffffffffffffffffff1660601b815250505060805160601c6156f1620001996000398061167552806123095280612abe5280612fbf528061366252806137ff5280614dd952506156f16000f3fe608060405234801561001057600080fd5b50600436106101fb5760003560e01c80638f32d59b1161011a578063da7b6036116100ad578063ef0067f41161007c578063ef0067f414610c8a578063f122977714610ce2578063f2fde38b14610d3a578063f3c5f51e14610d7e578063f7888aec14610dc2576101fb565b8063da7b603614610a3a578063e70b9e2714610ab2578063e97a560c14610b2a578063ed8a559714610c12576101fb565b8063b258047b116100e9578063b258047b146108e0578063b57f443f14610980578063c00007b0146109d8578063d0cc82e314610a1c576101fb565b80638f32d59b146107bc578063981f3b8e146107dc5780639ce43f9014610810578063ac3e68d714610868576101fb565b8063714efa3211610192578063815fad8611610161578063815fad861461064857806384f48812146106c05780638ad587771461076a5780638da5cb5b14610788576101fb565b8063714efa3214610564578063715018a6146105e657806376f2b4d8146105f05780637acb7757146105fa576101fb565b8063440cdb3b116101ce578063440cdb3b146103c057806363667eb71461044c57806365ff92a01461046a5780637035ab98146104ec576101fb565b806313f57f9714610200578063162d28d114610278578063211dc32d146102f05780632ce9aead14610368575b600080fd5b6102626004803603604081101561021657600080fd5b81019080803573ffffffffffffffffffffffffffffffffffffffff169060200190929190803573ffffffffffffffffffffffffffffffffffffffff169060200190929190505050610e3a565b6040518082815260200191505060405180910390f35b6102da6004803603604081101561028e57600080fd5b81019080803573ffffffffffffffffffffffffffffffffffffffff169060200190929190803573ffffffffffffffffffffffffffffffffffffffff169060200190929190505050610e5f565b6040518082815260200191505060405180910390f35b6103526004803603604081101561030657600080fd5b81019080803573ffffffffffffffffffffffffffffffffffffffff169060200190929190803573ffffffffffffffffffffffffffffffffffffffff169060200190929190505050610fba565b6040518082815260200191505060405180910390f35b6103aa6004803603602081101561037e57600080fd5b81019080803573ffffffffffffffffffffffffffffffffffffffff169060200190929190505050611216565b6040518082815260200191505060405180910390f35b610436600480360360808110156103d657600080fd5b81019080803573ffffffffffffffffffffffffffffffffffffffff169060200190929190803573ffffffffffffffffffffffffffffffffffffffff169060200190929190803590602001909291908035906020019092919050505061122e565b6040518082815260200191505060405180910390f35b610454611280565b6040518082815260200191505060405180910390f35b6104d66004803603606081101561048057600080fd5b81019080803573ffffffffffffffffffffffffffffffffffffffff16906020019092919080359060200190929190803573ffffffffffffffffffffffffffffffffffffffff169060200190929190505050611285565b6040518082815260200191505060405180910390f35b61054e6004803603604081101561050257600080fd5b81019080803573ffffffffffffffffffffffffffffffffffffffff169060200190929190803573ffffffffffffffffffffffffffffffffffffffff1690602001909291905050506113b7565b6040518082815260200191505060405180910390f35b6105d06004803603606081101561057a57600080fd5b81019080803573ffffffffffffffffffffffffffffffffffffffff16906020019092919080359060200190929190803573ffffffffffffffffffffffffffffffffffffffff1690602001909291905050506113dc565b6040518082815260200191505060405180910390f35b6105ee61150e565b005b6105f86115dd565b005b6106466004803603604081101561061057600080fd5b8101908080359060200190929190803573ffffffffffffffffffffffffffffffffffffffff169060200190929190505050611901565b005b6106aa6004803603604081101561065e57600080fd5b81019080803573ffffffffffffffffffffffffffffffffffffffff169060200190929190803573ffffffffffffffffffffffffffffffffffffffff169060200190929190505050611f64565b6040518082815260200191505060405180910390f35b61072c600480360360608110156106d657600080fd5b81019080803573ffffffffffffffffffffffffffffffffffffffff16906020019092919080359060200190929190803573ffffffffffffffffffffffffffffffffffffffff169060200190929190505050612094565b6040518082600260200280838360005b8381101561075757808201518184015260208101905061073c565b5050505090500191505060405180910390f35b610772612282565b6040518082815260200191505060405180910390f35b610790612287565b604051808273ffffffffffffffffffffffffffffffffffffffff16815260200191505060405180910390f35b6107c46122b0565b60405180821515815260200191505060405180910390f35b6107e4612307565b604051808273ffffffffffffffffffffffffffffffffffffffff16815260200191505060405180910390f35b6108526004803603602081101561082657600080fd5b81019080803573ffffffffffffffffffffffffffffffffffffffff16906020019092919050505061232b565b6040518082815260200191505060405180910390f35b6108ca6004803603604081101561087e57600080fd5b81019080803573ffffffffffffffffffffffffffffffffffffffff169060200190929190803573ffffffffffffffffffffffffffffffffffffffff169060200190929190505050612343565b6040518082815260200191505060405180910390f35b610942600480360360408110156108f657600080fd5b81019080803573ffffffffffffffffffffffffffffffffffffffff169060200190929190803573ffffffffffffffffffffffffffffffffffffffff1690602001909291905050506124d8565b6040518082600260200280838360005b8381101561096d578082015181840152602081019050610952565b5050505090500191505060405180910390f35b6109c26004803603602081101561099657600080fd5b81019080803573ffffffffffffffffffffffffffffffffffffffff16906020019092919050505061263f565b6040518082815260200191505060405180910390f35b610a1a600480360360208110156109ee57600080fd5b81019080803573ffffffffffffffffffffffffffffffffffffffff16906020019092919050505061271c565b005b610a24612dd7565b6040518082815260200191505060405180910390f35b610a9c60048036036040811015610a5057600080fd5b81019080803573ffffffffffffffffffffffffffffffffffffffff169060200190929190803573ffffffffffffffffffffffffffffffffffffffff169060200190929190505050612ddc565b6040518082815260200191505060405180910390f35b610b1460048036036040811015610ac857600080fd5b81019080803573ffffffffffffffffffffffffffffffffffffffff169060200190929190803573ffffffffffffffffffffffffffffffffffffffff169060200190929190505050612f0c565b6040518082815260200191505060405180910390f35b610b6c60048036036020811015610b4057600080fd5b81019080803573ffffffffffffffffffffffffffffffffffffffff169060200190929190505050612f31565b604051808060200180602001848152602001838103835286818151815260200191508051906020019060200280838360005b83811015610bb9578082015181840152602081019050610b9e565b50505050905001838103825285818151815260200191508051906020019060200280838360005b83811015610bfb578082015181840152602081019050610be0565b505050509050019550505050505060405180910390f35b610c7460048036036040811015610c2857600080fd5b81019080803573ffffffffffffffffffffffffffffffffffffffff169060200190929190803573ffffffffffffffffffffffffffffffffffffffff16906020019092919050505061341e565b6040518082815260200191505060405180910390f35b610ccc60048036036020811015610ca057600080fd5b81019080803573ffffffffffffffffffffffffffffffffffffffff1690602001909291905050506135bf565b6040518082815260200191505060405180910390f35b610d2460048036036020811015610cf857600080fd5b81019080803573ffffffffffffffffffffffffffffffffffffffff1690602001909291905050506135d7565b6040518082815260200191505060405180910390f35b610d7c60048036036020811015610d5057600080fd5b81019080803573ffffffffffffffffffffffffffffffffffffffff169060200190929190505050613bc4565b005b610dc060048036036020811015610d9457600080fd5b81019080803573ffffffffffffffffffffffffffffffffffffffff169060200190929190505050613be1565b005b610e2460048036036040811015610dd857600080fd5b81019080803573ffffffffffffffffffffffffffffffffffffffff169060200190929190803573ffffffffffffffffffffffffffffffffffffffff169060200190929190505050614596565b6040518082815260200191505060405180910390f35b6008602052816000526040600020602052806000526040600020600091509150505481565b60008073ffffffffffffffffffffffffffffffffffffffff168273ffffffffffffffffffffffffffffffffffffffff161415610ee6576040517f08c379a000000000000000000000000000000000000000000000000000000000815260040180806020018281038252602881526020018061564e6028913960400191505060405180910390fd5b600073ffffffffffffffffffffffffffffffffffffffff168373ffffffffffffffffffffffffffffffffffffffff161415610f6c576040517f08c379a000000000000000000000000000000000000000000000000000000000815260040180806020018281038252602b8152602001806155b4602b913960400191505060405180910390fd5b6000610f788484612343565b905060005b81811015610fae576000610f92868387611285565b14610fa1578092505050610fb4565b8080600101915050610f7d565b50809150505b92915050565b60008073ffffffffffffffffffffffffffffffffffffffff168273ffffffffffffffffffffffffffffffffffffffff161415611041576040517f08c379a000000000000000000000000000000000000000000000000000000000815260040180806020018281038252602881526020018061564e6028913960400191505060405180910390fd5b61120e600660008473ffffffffffffffffffffffffffffffffffffffff1673ffffffffffffffffffffffffffffffffffffffff16815260200190815260200160002060008573ffffffffffffffffffffffffffffffffffffffff1673ffffffffffffffffffffffffffffffffffffffff16815260200190815260200160002054611200670de0b6b3a76400006111f2611167600560008973ffffffffffffffffffffffffffffffffffffffff1673ffffffffffffffffffffffffffffffffffffffff16815260200190815260200160002060008a73ffffffffffffffffffffffffffffffffffffffff1673ffffffffffffffffffffffffffffffffffffffff16815260200190815260200160002054611159896135d7565b61472890919063ffffffff16565b600860008973ffffffffffffffffffffffffffffffffffffffff1673ffffffffffffffffffffffffffffffffffffffff16815260200190815260200160002060008a73ffffffffffffffffffffffffffffffffffffffff1673ffffffffffffffffffffffffffffffffffffffff1681526020019081526020016000205461473f90919063ffffffff16565b61477690919063ffffffff16565b61478f90919063ffffffff16565b905092915050565b60036020528060005260406000206000915090505481565b6007602052836000526040600020602052826000526040600020828154811061125657600080fd5b9060005260206000209060020201816002811061127257600080fd5b016000935093505050505481565b600081565b60008073ffffffffffffffffffffffffffffffffffffffff168273ffffffffffffffffffffffffffffffffffffffff16141561130c576040517f08c379a000000000000000000000000000000000000000000000000000000000815260040180806020018281038252602881526020018061564e6028913960400191505060405180910390fd5b600073ffffffffffffffffffffffffffffffffffffffff168473ffffffffffffffffffffffffffffffffffffffff161415611392576040517f08c379a000000000000000000000000000000000000000000000000000000000815260040180806020018281038252602b8152602001806155b4602b913960400191505060405180910390fd5b61139d848484612094565b6000600281106113a957fe5b602002015190509392505050565b6005602052816000526040600020602052806000526040600020600091509150505481565b60008073ffffffffffffffffffffffffffffffffffffffff168273ffffffffffffffffffffffffffffffffffffffff161415611463576040517f08c379a000000000000000000000000000000000000000000000000000000000815260040180806020018281038252602881526020018061564e6028913960400191505060405180910390fd5b600073ffffffffffffffffffffffffffffffffffffffff168473ffffffffffffffffffffffffffffffffffffffff1614156114e9576040517f08c379a000000000000000000000000000000000000000000000000000000000815260040180806020018281038252602b8152602001806155b4602b913960400191505060405180910390fd5b6114f4848484612094565b60016002811061150057fe5b602002015190509392505050565b6115166122b0565b61151f57600080fd5b600073ffffffffffffffffffffffffffffffffffffffff1660008054906101000a900473ffffffffffffffffffffffffffffffffffffffff1673ffffffffffffffffffffffffffffffffffffffff167f8be0079c531659141344cd1fd0a4f28419497f9722a3daafe3b4186f6b6457e060405160405180910390a360008060006101000a81548173ffffffffffffffffffffffffffffffffffffffff021916908373ffffffffffffffffffffffffffffffffffffffff160217905550565b6115e56122b0565b6115ee57600080fd5b600260009054906101000a900460ff1615611671576040517f08c379a00000000000000000000000000000000000000000000000000000000081526004018080602001828103825260198152602001807f416c726561647920696e697469616c697a6564206661726d730000000000000081525060200191505060405180910390fd5b60007f000000000000000000000000000000000000000000000000000000000000000073ffffffffffffffffffffffffffffffffffffffff166304433bbc6040518163ffffffff1660e01b81526004018080602001828103825260128152602001807f426173655562657377617041646170746572000000000000000000000000000081525060200191505060206040518083038186803b15801561171557600080fd5b505afa158015611729573d6000803e3d6000fd5b505050506040513d602081101561173f57600080fd5b8101908080519060200190929190505050905060008173ffffffffffffffffffffffffffffffffffffffff1663e1f6e5bb6040518163ffffffff1660e01b815260040160006040518083038186803b15801561179a57600080fd5b505afa1580156117ae573d6000803e3d6000fd5b505050506040513d6000823e3d601f19601f8201168201806040525060208110156117d857600080fd5b81019080805160405193929190846401000000008211156117f857600080fd5b8382019150602082018581111561180e57600080fd5b825186602082028301116401000000008211171561182b57600080fd5b8083526020830192505050908051906020019060200280838360005b83811015611862578082015181840152602081019050611847565b50505050905001604052505050905060005b81518110156118e157426003600084848151811061188e57fe5b602002602001015173ffffffffffffffffffffffffffffffffffffffff1673ffffffffffffffffffffffffffffffffffffffff168152602001908152602001600020819055508080600101915050611874565b506001600260006101000a81548160ff0219169083151502179055505050565b6002600154141561197a576040517f08c379a000000000000000000000000000000000000000000000000000000000815260040180806020018281038252601f8152602001807f5265656e7472616e637947756172643a207265656e7472616e742063616c6c0081525060200191505060405180910390fd5b60026001819055503381600073ffffffffffffffffffffffffffffffffffffffff168173ffffffffffffffffffffffffffffffffffffffff161415611a0a576040517f08c379a000000000000000000000000000000000000000000000000000000000815260040180806020018281038252602881526020018061564e6028913960400191505060405180910390fd5b611a13816135d7565b600460008373ffffffffffffffffffffffffffffffffffffffff1673ffffffffffffffffffffffffffffffffffffffff1681526020019081526020016000208190555042600360008373ffffffffffffffffffffffffffffffffffffffff1673ffffffffffffffffffffffffffffffffffffffff16815260200190815260200160002081905550600073ffffffffffffffffffffffffffffffffffffffff168273ffffffffffffffffffffffffffffffffffffffff1614611c1957611ad88282610fba565b600660008373ffffffffffffffffffffffffffffffffffffffff1673ffffffffffffffffffffffffffffffffffffffff16815260200190815260200160002060008473ffffffffffffffffffffffffffffffffffffffff1673ffffffffffffffffffffffffffffffffffffffff16815260200190815260200160002081905550600460008273ffffffffffffffffffffffffffffffffffffffff1673ffffffffffffffffffffffffffffffffffffffff16815260200190815260200160002054600560008373ffffffffffffffffffffffffffffffffffffffff1673ffffffffffffffffffffffffffffffffffffffff16815260200190815260200160002060008473ffffffffffffffffffffffffffffffffffffffff1673ffffffffffffffffffffffffffffffffffffffff168152602001908152602001600020819055505b60008411611c72576040517f08c379a00000000000000000000000000000000000000000000000000000000081526004018080602001828103825260388152602001806156166038913960400191505060405180910390fd5b600073ffffffffffffffffffffffffffffffffffffffff168373ffffffffffffffffffffffffffffffffffffffff161415611cf8576040517f08c379a000000000000000000000000000000000000000000000000000000000815260040180806020018281038252602881526020018061564e6028913960400191505060405180910390fd5b6000611d1062278d004261478f90919063ffffffff16565b9050611d1e338287876147ab565b60008473ffffffffffffffffffffffffffffffffffffffff166372f702f36040518163ffffffff1660e01b815260040160206040518083038186803b158015611d6657600080fd5b505afa158015611d7a573d6000803e3d6000fd5b505050506040513d6020811015611d9057600080fd5b810190808051906020019092919050505090508073ffffffffffffffffffffffffffffffffffffffff166323b872dd3330896040518463ffffffff1660e01b8152600401808473ffffffffffffffffffffffffffffffffffffffff1681526020018373ffffffffffffffffffffffffffffffffffffffff1681526020018281526020019350505050602060405180830381600087803b158015611e3257600080fd5b505af1158015611e46573d6000803e3d6000fd5b505050506040513d6020811015611e5c57600080fd5b8101908080519060200190929190505050508073ffffffffffffffffffffffffffffffffffffffff1663a694fc3a876040518263ffffffff1660e01b815260040180828152602001915050600060405180830381600087803b158015611ec157600080fd5b505af1158015611ed5573d6000803e3d6000fd5b505050503373ffffffffffffffffffffffffffffffffffffffff167f1fee4d9b498e57294e757c1878fe71d4cb3b91cedabd496d3ed7ec88437623c487848842604051808581526020018481526020018373ffffffffffffffffffffffffffffffffffffffff16815260200182815260200194505050505060405180910390a250505050600180819055505050565b60008073ffffffffffffffffffffffffffffffffffffffff168273ffffffffffffffffffffffffffffffffffffffff161415611feb576040517f08c379a000000000000000000000000000000000000000000000000000000000815260040180806020018281038252602881526020018061564e6028913960400191505060405180910390fd5b600073ffffffffffffffffffffffffffffffffffffffff168373ffffffffffffffffffffffffffffffffffffffff161415612071576040517f08c379a000000000000000000000000000000000000000000000000000000000815260040180806020018281038252602b8152602001806155b4602b913960400191505060405180910390fd5b61207b83836124d8565b60016002811061208757fe5b6020020151905092915050565b61209c6154ef565b600073ffffffffffffffffffffffffffffffffffffffff168273ffffffffffffffffffffffffffffffffffffffff161415612122576040517f08c379a000000000000000000000000000000000000000000000000000000000815260040180806020018281038252602881526020018061564e6028913960400191505060405180910390fd5b600073ffffffffffffffffffffffffffffffffffffffff168473ffffffffffffffffffffffffffffffffffffffff1614156121a8576040517f08c379a000000000000000000000000000000000000000000000000000000000815260040180806020018281038252602b8152602001806155b4602b913960400191505060405180910390fd5b600760008373ffffffffffffffffffffffffffffffffffffffff1673ffffffffffffffffffffffffffffffffffffffff16815260200190815260200160002060008573ffffffffffffffffffffffffffffffffffffffff1673ffffffffffffffffffffffffffffffffffffffff168152602001908152602001600020838154811061222f57fe5b9060005260206000209060020201600280602002604051908101604052809291908260028015612274576020028201915b815481526020019060010190808311612260575b505050505090509392505050565b600181565b60008060009054906101000a900473ffffffffffffffffffffffffffffffffffffffff16905090565b60008060009054906101000a900473ffffffffffffffffffffffffffffffffffffffff1673ffffffffffffffffffffffffffffffffffffffff163373ffffffffffffffffffffffffffffffffffffffff1614905090565b7f000000000000000000000000000000000000000000000000000000000000000081565b60046020528060005260406000206000915090505481565b60008073ffffffffffffffffffffffffffffffffffffffff168273ffffffffffffffffffffffffffffffffffffffff1614156123ca576040517f08c379a000000000000000000000000000000000000000000000000000000000815260040180806020018281038252602881526020018061564e6028913960400191505060405180910390fd5b600073ffffffffffffffffffffffffffffffffffffffff168373ffffffffffffffffffffffffffffffffffffffff161415612450576040517f08c379a000000000000000000000000000000000000000000000000000000000815260040180806020018281038252602b8152602001806155b4602b913960400191505060405180910390fd5b600760008373ffffffffffffffffffffffffffffffffffffffff1673ffffffffffffffffffffffffffffffffffffffff16815260200190815260200160002060008473ffffffffffffffffffffffffffffffffffffffff1673ffffffffffffffffffffffffffffffffffffffff16815260200190815260200160002080549050905092915050565b6124e06154ef565b600073ffffffffffffffffffffffffffffffffffffffff168273ffffffffffffffffffffffffffffffffffffffff161415612566576040517f08c379a000000000000000000000000000000000000000000000000000000000815260040180806020018281038252602881526020018061564e6028913960400191505060405180910390fd5b600073ffffffffffffffffffffffffffffffffffffffff168373ffffffffffffffffffffffffffffffffffffffff1614156125ec576040517f08c379a000000000000000000000000000000000000000000000000000000000815260040180806020018281038252602b8152602001806155b4602b913960400191505060405180910390fd5b60006125f88484610e5f565b90506126048484612343565b81141561262a576040518060400160405280600081526020016000815250915050612639565b612635848285612094565b9150505b92915050565b60008073ffffffffffffffffffffffffffffffffffffffff168273ffffffffffffffffffffffffffffffffffffffff1614156126c6576040517f08c379a000000000000000000000000000000000000000000000000000000000815260040180806020018281038252602881526020018061564e6028913960400191505060405180910390fd5b6000600960008473ffffffffffffffffffffffffffffffffffffffff1673ffffffffffffffffffffffffffffffffffffffff1681526020019081526020016000205490506127148382614d7b565b915050919050565b60026001541415612795576040517f08c379a000000000000000000000000000000000000000000000000000000000815260040180806020018281038252601f8152602001807f5265656e7472616e637947756172643a207265656e7472616e742063616c6c0081525060200191505060405180910390fd5b60026001819055503381600073ffffffffffffffffffffffffffffffffffffffff168173ffffffffffffffffffffffffffffffffffffffff161415612825576040517f08c379a000000000000000000000000000000000000000000000000000000000815260040180806020018281038252602881526020018061564e6028913960400191505060405180910390fd5b61282e816135d7565b600460008373ffffffffffffffffffffffffffffffffffffffff1673ffffffffffffffffffffffffffffffffffffffff1681526020019081526020016000208190555042600360008373ffffffffffffffffffffffffffffffffffffffff1673ffffffffffffffffffffffffffffffffffffffff16815260200190815260200160002081905550600073ffffffffffffffffffffffffffffffffffffffff168273ffffffffffffffffffffffffffffffffffffffff1614612a34576128f38282610fba565b600660008373ffffffffffffffffffffffffffffffffffffffff1673ffffffffffffffffffffffffffffffffffffffff16815260200190815260200160002060008473ffffffffffffffffffffffffffffffffffffffff1673ffffffffffffffffffffffffffffffffffffffff16815260200190815260200160002081905550600460008273ffffffffffffffffffffffffffffffffffffffff1673ffffffffffffffffffffffffffffffffffffffff16815260200190815260200160002054600560008373ffffffffffffffffffffffffffffffffffffffff1673ffffffffffffffffffffffffffffffffffffffff16815260200190815260200160002060008473ffffffffffffffffffffffffffffffffffffffff1673ffffffffffffffffffffffffffffffffffffffff168152602001908152602001600020819055505b600073ffffffffffffffffffffffffffffffffffffffff168373ffffffffffffffffffffffffffffffffffffffff161415612aba576040517f08c379a000000000000000000000000000000000000000000000000000000000815260040180806020018281038252602881526020018061564e6028913960400191505060405180910390fd5b60007f000000000000000000000000000000000000000000000000000000000000000073ffffffffffffffffffffffffffffffffffffffff166304433bbc6040518163ffffffff1660e01b815260040180806020018281038252600d8152602001807f547261646567656e45524332300000000000000000000000000000000000000081525060200191505060206040518083038186803b158015612b5e57600080fd5b505afa158015612b72573d6000803e3d6000fd5b505050506040513d6020811015612b8857600080fd5b810190808051906020019092919050505090506000600660008673ffffffffffffffffffffffffffffffffffffffff1673ffffffffffffffffffffffffffffffffffffffff16815260200190815260200160002060003373ffffffffffffffffffffffffffffffffffffffff1673ffffffffffffffffffffffffffffffffffffffff1681526020019081526020016000205490506000811115612dc9576000600660008773ffffffffffffffffffffffffffffffffffffffff1673ffffffffffffffffffffffffffffffffffffffff16815260200190815260200160002060003373ffffffffffffffffffffffffffffffffffffffff1673ffffffffffffffffffffffffffffffffffffffff168152602001908152602001600020819055508173ffffffffffffffffffffffffffffffffffffffff1663a9059cbb33836040518363ffffffff1660e01b8152600401808373ffffffffffffffffffffffffffffffffffffffff16815260200182815260200192505050602060405180830381600087803b158015612d1857600080fd5b505af1158015612d2c573d6000803e3d6000fd5b505050506040513d6020811015612d4257600080fd5b8101908080519060200190929190505050503373ffffffffffffffffffffffffffffffffffffffff167faf206e736916d38b56e2d559931a189bc3119b8fc6d6850bd34e382f09030587828742604051808481526020018373ffffffffffffffffffffffffffffffffffffffff168152602001828152602001935050505060405180910390a25b505050506001808190555050565b603081565b60008073ffffffffffffffffffffffffffffffffffffffff168273ffffffffffffffffffffffffffffffffffffffff161415612e63576040517f08c379a000000000000000000000000000000000000000000000000000000000815260040180806020018281038252602881526020018061564e6028913960400191505060405180910390fd5b600073ffffffffffffffffffffffffffffffffffffffff168373ffffffffffffffffffffffffffffffffffffffff161415612ee9576040517f08c379a000000000000000000000000000000000000000000000000000000000815260040180806020018281038252602b8152602001806155b4602b913960400191505060405180910390fd5b612ef383836124d8565b600060028110612eff57fe5b6020020151905092915050565b6006602052816000526040600020602052806000526040600020600091509150505481565b60608060008073ffffffffffffffffffffffffffffffffffffffff168473ffffffffffffffffffffffffffffffffffffffff161415612fbb576040517f08c379a000000000000000000000000000000000000000000000000000000000815260040180806020018281038252602b8152602001806155b4602b913960400191505060405180910390fd5b60007f000000000000000000000000000000000000000000000000000000000000000073ffffffffffffffffffffffffffffffffffffffff166304433bbc6040518163ffffffff1660e01b81526004018080602001828103825260128152602001807f426173655562657377617041646170746572000000000000000000000000000081525060200191505060206040518083038186803b15801561305f57600080fd5b505afa158015613073573d6000803e3d6000fd5b505050506040513d602081101561308957600080fd5b8101908080519060200190929190505050905060008173ffffffffffffffffffffffffffffffffffffffff1663e1f6e5bb6040518163ffffffff1660e01b815260040160006040518083038186803b1580156130e457600080fd5b505afa1580156130f8573d6000803e3d6000fd5b505050506040513d6000823e3d601f19601f82011682018060405250602081101561312257600080fd5b810190808051604051939291908464010000000082111561314257600080fd5b8382019150602082018581111561315857600080fd5b825186602082028301116401000000008211171561317557600080fd5b8083526020830192505050908051906020019060200280838360005b838110156131ac578082015181840152602081019050613191565b5050505090500160405250505090506000815167ffffffffffffffff811180156131d557600080fd5b506040519080825280602002602001820160405280156132045781602001602082028036833780820191505090505b5090506000825167ffffffffffffffff8111801561322157600080fd5b506040519080825280602002602001820160405280156132505781602001602082028036833780820191505090505b5090506000805b84518110156134085760006008600087848151811061327257fe5b602002602001015173ffffffffffffffffffffffffffffffffffffffff1673ffffffffffffffffffffffffffffffffffffffff16815260200190815260200160002060008c73ffffffffffffffffffffffffffffffffffffffff1673ffffffffffffffffffffffffffffffffffffffff1681526020019081526020016000205411156133fb5784818151811061330457fe5b602002602001015184838151811061331857fe5b602002602001019073ffffffffffffffffffffffffffffffffffffffff16908173ffffffffffffffffffffffffffffffffffffffff16815250506008600086838151811061336257fe5b602002602001015173ffffffffffffffffffffffffffffffffffffffff1673ffffffffffffffffffffffffffffffffffffffff16815260200190815260200160002060008b73ffffffffffffffffffffffffffffffffffffffff1673ffffffffffffffffffffffffffffffffffffffff168152602001908152602001600020548383815181106133ee57fe5b6020026020010181815250505b8080600101915050613257565b5082828297509750975050505050509193909250565b60008073ffffffffffffffffffffffffffffffffffffffff168273ffffffffffffffffffffffffffffffffffffffff1614156134a5576040517f08c379a000000000000000000000000000000000000000000000000000000000815260040180806020018281038252602881526020018061564e6028913960400191505060405180910390fd5b600073ffffffffffffffffffffffffffffffffffffffff168373ffffffffffffffffffffffffffffffffffffffff16141561352b576040517f08c379a000000000000000000000000000000000000000000000000000000000815260040180806020018281038252602b8152602001806155b4602b913960400191505060405180910390fd5b6000600860008473ffffffffffffffffffffffffffffffffffffffff1673ffffffffffffffffffffffffffffffffffffffff16815260200190815260200160002060008573ffffffffffffffffffffffffffffffffffffffff1673ffffffffffffffffffffffffffffffffffffffff1681526020019081526020016000205490506135b68382614d7b565b91505092915050565b60096020528060005260406000206000915090505481565b60008073ffffffffffffffffffffffffffffffffffffffff168273ffffffffffffffffffffffffffffffffffffffff16141561365e576040517f08c379a000000000000000000000000000000000000000000000000000000000815260040180806020018281038252602881526020018061564e6028913960400191505060405180910390fd5b60007f000000000000000000000000000000000000000000000000000000000000000073ffffffffffffffffffffffffffffffffffffffff166304433bbc6040518163ffffffff1660e01b81526004018080602001828103825260088152602001807f53657474696e677300000000000000000000000000000000000000000000000081525060200191505060206040518083038186803b15801561370257600080fd5b505afa158015613716573d6000803e3d6000fd5b505050506040513d602081101561372c57600080fd5b810190808051906020019092919050505073ffffffffffffffffffffffffffffffffffffffff166328a2176f6040518163ffffffff1660e01b81526004018080602001828103825260188152602001807f5765656b6c795374616b696e674661726d52657761726473000000000000000081525060200191505060206040518083038186803b1580156137be57600080fd5b505afa1580156137d2573d6000803e3d6000fd5b505050506040513d60208110156137e857600080fd5b8101908080519060200190929190505050905060007f000000000000000000000000000000000000000000000000000000000000000073ffffffffffffffffffffffffffffffffffffffff166304433bbc6040518163ffffffff1660e01b81526004018080602001828103825260128152602001807f426173655562657377617041646170746572000000000000000000000000000081525060200191505060206040518083038186803b15801561389f57600080fd5b505afa1580156138b3573d6000803e3d6000fd5b505050506040513d60208110156138c957600080fd5b810190808051906020019092919050505073ffffffffffffffffffffffffffffffffffffffff1663e1f6e5bb6040518163ffffffff1660e01b815260040160006040518083038186803b15801561391f57600080fd5b505afa158015613933573d6000803e3d6000fd5b505050506040513d6000823e3d601f19601f82011682018060405250602081101561395d57600080fd5b810190808051604051939291908464010000000082111561397d57600080fd5b8382019150602082018581111561399357600080fd5b82518660208202830111640100000000821117156139b057600080fd5b8083526020830192505050908051906020019060200280838360005b838110156139e75780820151818401526020810190506139cc565b505050509050016040525050505190506000600960008673ffffffffffffffffffffffffffffffffffffffff1673ffffffffffffffffffffffffffffffffffffffff168152602001908152602001600020541415613a8857600460008573ffffffffffffffffffffffffffffffffffffffff1673ffffffffffffffffffffffffffffffffffffffff1681526020019081526020016000205492505050613bbf565b613bba613b6c82613b5e600960008973ffffffffffffffffffffffffffffffffffffffff1673ffffffffffffffffffffffffffffffffffffffff16815260200190815260200160002054613b50670de0b6b3a7640000613b4289613b34600360008f73ffffffffffffffffffffffffffffffffffffffff1673ffffffffffffffffffffffffffffffffffffffff168152602001908152602001600020544261472890919063ffffffff16565b61473f90919063ffffffff16565b61473f90919063ffffffff16565b61477690919063ffffffff16565b61477690919063ffffffff16565b600460008773ffffffffffffffffffffffffffffffffffffffff1673ffffffffffffffffffffffffffffffffffffffff1681526020019081526020016000205461478f90919063ffffffff16565b925050505b919050565b613bcc6122b0565b613bd557600080fd5b613bde816153f8565b50565b60026001541415613c5a576040517f08c379a000000000000000000000000000000000000000000000000000000000815260040180806020018281038252601f8152602001807f5265656e7472616e637947756172643a207265656e7472616e742063616c6c0081525060200191505060405180910390fd5b60026001819055503381600073ffffffffffffffffffffffffffffffffffffffff168173ffffffffffffffffffffffffffffffffffffffff161415613cea576040517f08c379a000000000000000000000000000000000000000000000000000000000815260040180806020018281038252602881526020018061564e6028913960400191505060405180910390fd5b613cf3816135d7565b600460008373ffffffffffffffffffffffffffffffffffffffff1673ffffffffffffffffffffffffffffffffffffffff1681526020019081526020016000208190555042600360008373ffffffffffffffffffffffffffffffffffffffff1673ffffffffffffffffffffffffffffffffffffffff16815260200190815260200160002081905550600073ffffffffffffffffffffffffffffffffffffffff168273ffffffffffffffffffffffffffffffffffffffff1614613ef957613db88282610fba565b600660008373ffffffffffffffffffffffffffffffffffffffff1673ffffffffffffffffffffffffffffffffffffffff16815260200190815260200160002060008473ffffffffffffffffffffffffffffffffffffffff1673ffffffffffffffffffffffffffffffffffffffff16815260200190815260200160002081905550600460008273ffffffffffffffffffffffffffffffffffffffff1673ffffffffffffffffffffffffffffffffffffffff16815260200190815260200160002054600560008373ffffffffffffffffffffffffffffffffffffffff1673ffffffffffffffffffffffffffffffffffffffff16815260200190815260200160002060008473ffffffffffffffffffffffffffffffffffffffff1673ffffffffffffffffffffffffffffffffffffffff168152602001908152602001600020819055505b600073ffffffffffffffffffffffffffffffffffffffff168373ffffffffffffffffffffffffffffffffffffffff161415613f7f576040517f08c379a000000000000000000000000000000000000000000000000000000000815260040180806020018281038252602881526020018061564e6028913960400191505060405180910390fd5b6000613f8b3385612343565b9050600080600090505b828110156140b8576000613faa338389611285565b905042811115613fba57506140b8565b6000613fc733848a6113dc565b905060008111156140a9576040518060400160405280600060ff168152602001600060ff16815250600760008a73ffffffffffffffffffffffffffffffffffffffff1673ffffffffffffffffffffffffffffffffffffffff16815260200190815260200160002060003373ffffffffffffffffffffffffffffffffffffffff1673ffffffffffffffffffffffffffffffffffffffff168152602001908152602001600020848154811061407657fe5b9060005260206000209060020201906002614092929190615511565b506140a6818561478f90919063ffffffff16565b93505b50508080600101915050613f95565b506000811461457f578473ffffffffffffffffffffffffffffffffffffffff1663e9fad8ee6040518163ffffffff1660e01b8152600401600060405180830381600087803b15801561410957600080fd5b505af115801561411d573d6000803e3d6000fd5b5050505060008573ffffffffffffffffffffffffffffffffffffffff166372f702f36040518163ffffffff1660e01b815260040160206040518083038186803b15801561416957600080fd5b505afa15801561417d573d6000803e3d6000fd5b505050506040513d602081101561419357600080fd5b810190808051906020019092919050505090506141f882600960008973ffffffffffffffffffffffffffffffffffffffff1673ffffffffffffffffffffffffffffffffffffffff1681526020019081526020016000205461472890919063ffffffff16565b600960008873ffffffffffffffffffffffffffffffffffffffff1673ffffffffffffffffffffffffffffffffffffffff168152602001908152602001600020819055506142ca82600860008973ffffffffffffffffffffffffffffffffffffffff1673ffffffffffffffffffffffffffffffffffffffff16815260200190815260200160002060003373ffffffffffffffffffffffffffffffffffffffff1673ffffffffffffffffffffffffffffffffffffffff1681526020019081526020016000205461472890919063ffffffff16565b600860008873ffffffffffffffffffffffffffffffffffffffff1673ffffffffffffffffffffffffffffffffffffffff16815260200190815260200160002060003373ffffffffffffffffffffffffffffffffffffffff1673ffffffffffffffffffffffffffffffffffffffff168152602001908152602001600020819055508073ffffffffffffffffffffffffffffffffffffffff1663a9059cbb33846040518363ffffffff1660e01b8152600401808373ffffffffffffffffffffffffffffffffffffffff16815260200182815260200192505050602060405180830381600087803b1580156143bb57600080fd5b505af11580156143cf573d6000803e3d6000fd5b505050506040513d60208110156143e557600080fd5b81019080805190602001909291905050505060008173ffffffffffffffffffffffffffffffffffffffff166370a08231306040518263ffffffff1660e01b8152600401808273ffffffffffffffffffffffffffffffffffffffff16815260200191505060206040518083038186803b15801561446057600080fd5b505afa158015614474573d6000803e3d6000fd5b505050506040513d602081101561448a57600080fd5b810190808051906020019092919050505090508673ffffffffffffffffffffffffffffffffffffffff1663a694fc3a826040518263ffffffff1660e01b815260040180828152602001915050600060405180830381600087803b1580156144f057600080fd5b505af1158015614504573d6000803e3d6000fd5b505050503373ffffffffffffffffffffffffffffffffffffffff167fe407a22cf0d8c3ccb509acc25f3153e324ee799bc68b6a2c5c176f6fba10a17842858a604051808481526020018381526020018273ffffffffffffffffffffffffffffffffffffffff168152602001935050505060405180910390a250505b6145888561271c565b505050506001808190555050565b60008073ffffffffffffffffffffffffffffffffffffffff168273ffffffffffffffffffffffffffffffffffffffff16141561461d576040517f08c379a000000000000000000000000000000000000000000000000000000000815260040180806020018281038252602881526020018061564e6028913960400191505060405180910390fd5b600073ffffffffffffffffffffffffffffffffffffffff168373ffffffffffffffffffffffffffffffffffffffff1614156146a3576040517f08c379a000000000000000000000000000000000000000000000000000000000815260040180806020018281038252602b8152602001806155b4602b913960400191505060405180910390fd5b600860008373ffffffffffffffffffffffffffffffffffffffff1673ffffffffffffffffffffffffffffffffffffffff16815260200190815260200160002060008473ffffffffffffffffffffffffffffffffffffffff1673ffffffffffffffffffffffffffffffffffffffff16815260200190815260200160002054905092915050565b60008282111561473457fe5b818303905092915050565b6000808314156147525760009050614770565b600082840290508284828161476357fe5b041461476b57fe5b809150505b92915050565b60008082848161478257fe5b0490508091505092915050565b6000808284019050838110156147a157fe5b8091505092915050565b600073ffffffffffffffffffffffffffffffffffffffff168173ffffffffffffffffffffffffffffffffffffffff161415614831576040517f08c379a000000000000000000000000000000000000000000000000000000000815260040180806020018281038252602881526020018061564e6028913960400191505060405180910390fd5b600073ffffffffffffffffffffffffffffffffffffffff168473ffffffffffffffffffffffffffffffffffffffff1614156148b7576040517f08c379a000000000000000000000000000000000000000000000000000000000815260040180806020018281038252602b8152602001806155b4602b913960400191505060405180910390fd5b82421061492c576040517f08c379a000000000000000000000000000000000000000000000000000000000815260040180806020018281038252601a8152602001807f54696d65206d75737420626520696e207468652066757475726500000000000081525060200191505060405180910390fd5b60008214156149a3576040517f08c379a00000000000000000000000000000000000000000000000000000000081526004018080602001828103825260178152602001807f5175616e746974792063616e6e6f74206265207a65726f00000000000000000081525060200191505060405180910390fd5b6000600760008373ffffffffffffffffffffffffffffffffffffffff1673ffffffffffffffffffffffffffffffffffffffff16815260200190815260200160002060008673ffffffffffffffffffffffffffffffffffffffff1673ffffffffffffffffffffffffffffffffffffffff1681526020019081526020016000208054905090506030811115614a9e576040517f08c379a000000000000000000000000000000000000000000000000000000000815260040180806020018281038252601c8152602001807f56657374696e67207363686564756c6520697320746f6f206c6f6e670000000081525060200191505060405180910390fd5b6000811415614b2d5782600860008473ffffffffffffffffffffffffffffffffffffffff1673ffffffffffffffffffffffffffffffffffffffff16815260200190815260200160002060008773ffffffffffffffffffffffffffffffffffffffff1673ffffffffffffffffffffffffffffffffffffffff16815260200190815260200160002081905550614cab565b83614b45866001614b3e8987612343565b0385611285565b10614b9b576040517f08c379a00000000000000000000000000000000000000000000000000000000081526004018080602001828103825260378152602001806155df6037913960400191505060405180910390fd5b614c2a83600860008573ffffffffffffffffffffffffffffffffffffffff1673ffffffffffffffffffffffffffffffffffffffff16815260200190815260200160002060008873ffffffffffffffffffffffffffffffffffffffff1673ffffffffffffffffffffffffffffffffffffffff1681526020019081526020016000205461478f90919063ffffffff16565b600860008473ffffffffffffffffffffffffffffffffffffffff1673ffffffffffffffffffffffffffffffffffffffff16815260200190815260200160002060008773ffffffffffffffffffffffffffffffffffffffff1673ffffffffffffffffffffffffffffffffffffffff168152602001908152602001600020819055505b600760008373ffffffffffffffffffffffffffffffffffffffff1673ffffffffffffffffffffffffffffffffffffffff16815260200190815260200160002060008673ffffffffffffffffffffffffffffffffffffffff1673ffffffffffffffffffffffffffffffffffffffff1681526020019081526020016000206040518060400160405280868152602001858152509080600181540180825580915050600190039060005260206000209060020201600090919091909150906002614d73929190615556565b505050505050565b6000808211614dd5576040517f08c379a00000000000000000000000000000000000000000000000000000000081526004018080602001828103825260468152602001806156766046913960600191505060405180910390fd5b60007f000000000000000000000000000000000000000000000000000000000000000073ffffffffffffffffffffffffffffffffffffffff166304433bbc6040518163ffffffff1660e01b81526004018080602001828103825260128152602001807f426173655562657377617041646170746572000000000000000000000000000081525060200191505060206040518083038186803b158015614e7957600080fd5b505afa158015614e8d573d6000803e3d6000fd5b505050506040513d6020811015614ea357600080fd5b8101908080519060200190929190505050905060008473ffffffffffffffffffffffffffffffffffffffff166372f702f36040518163ffffffff1660e01b815260040160206040518083038186803b158015614efe57600080fd5b505afa158015614f12573d6000803e3d6000fd5b505050506040513d6020811015614f2857600080fd5b8101908080519060200190929190505050905060008173ffffffffffffffffffffffffffffffffffffffff16630dfe16816040518163ffffffff1660e01b815260040160206040518083038186803b158015614f8357600080fd5b505afa158015614f97573d6000803e3d6000fd5b505050506040513d6020811015614fad57600080fd5b8101908080519060200190929190505050905060008273ffffffffffffffffffffffffffffffffffffffff1663d21220a76040518163ffffffff1660e01b815260040160206040518083038186803b15801561500857600080fd5b505afa15801561501c573d6000803e3d6000fd5b505050506040513d602081101561503257600080fd5b810190808051906020019092919050505090506000808573ffffffffffffffffffffffffffffffffffffffff1663d87fc14985858b6040518463ffffffff1660e01b8152600401808473ffffffffffffffffffffffffffffffffffffffff1681526020018373ffffffffffffffffffffffffffffffffffffffff1681526020018281526020019350505050604080518083038186803b1580156150d457600080fd5b505afa1580156150e8573d6000803e3d6000fd5b505050506040513d60408110156150fe57600080fd5b8101908080519060200190929190805190602001909291905050509150915060008473ffffffffffffffffffffffffffffffffffffffff1663313ce5676040518163ffffffff1660e01b815260040160206040518083038186803b15801561516557600080fd5b505afa158015615179573d6000803e3d6000fd5b505050506040513d602081101561518f57600080fd5b810190808051906020019092919050505060ff16905060008773ffffffffffffffffffffffffffffffffffffffff166341976e09876040518263ffffffff1660e01b8152600401808273ffffffffffffffffffffffffffffffffffffffff16815260200191505060206040518083038186803b15801561520e57600080fd5b505afa158015615222573d6000803e3d6000fd5b505050506040513d602081101561523857600080fd5b81019080805190602001909291905050509050600061527583600a0a615267848861473f90919063ffffffff16565b61477690919063ffffffff16565b905060008673ffffffffffffffffffffffffffffffffffffffff1663313ce5676040518163ffffffff1660e01b815260040160206040518083038186803b1580156152bf57600080fd5b505afa1580156152d3573d6000803e3d6000fd5b505050506040513d60208110156152e957600080fd5b810190808051906020019092919050505060ff16905060008a73ffffffffffffffffffffffffffffffffffffffff166341976e09896040518263ffffffff1660e01b8152600401808273ffffffffffffffffffffffffffffffffffffffff16815260200191505060206040518083038186803b15801561536857600080fd5b505afa15801561537c573d6000803e3d6000fd5b505050506040513d602081101561539257600080fd5b8101908080519060200190929190505050905060006153cf83600a0a6153c1848a61473f90919063ffffffff16565b61477690919063ffffffff16565b90506153e4818561473f90919063ffffffff16565b9c5050505050505050505050505092915050565b600073ffffffffffffffffffffffffffffffffffffffff168173ffffffffffffffffffffffffffffffffffffffff16141561543257600080fd5b8073ffffffffffffffffffffffffffffffffffffffff1660008054906101000a900473ffffffffffffffffffffffffffffffffffffffff1673ffffffffffffffffffffffffffffffffffffffff167f8be0079c531659141344cd1fd0a4f28419497f9722a3daafe3b4186f6b6457e060405160405180910390a3806000806101000a81548173ffffffffffffffffffffffffffffffffffffffff021916908373ffffffffffffffffffffffffffffffffffffffff16021790555050565b6040518060400160405280600290602082028036833780820191505090505090565b8260028101928215615545579160200282015b82811115615544578251829060ff16905591602001919060010190615524565b5b5090506155529190615596565b5090565b8260028101928215615585579160200282015b82811115615584578251825591602001919060010190615569565b5b5090506155929190615596565b5090565b5b808211156155af576000816000905550600101615597565b509056fe5374616b696e674661726d526577617264733a20696e76616c6964206163636f756e74206164647265737343616e6e6f7420616464206e65772076657374656420656e7472696573206561726c696572207468616e20746865206c617374206f6e655374616b696e674661726d526577617264733a205374616b656420616d6f756e74206d7573742062652067726561746572207468616e20305374616b696e674661726d526577617264733a20696e76616c6964206661726d20616464726573735374616b696e674661726d526577617264733a206e756d626572206f66204c5020746f6b656e7320696e2070616972206d7573742062652067726561746572207468616e2030a264697066735822122071c815c7d7053fdb8c15ad62a7ed43f291b45e841241a04ed12bc31f56b8b85c64736f6c63430007060033",
  "immutableReferences": {
    "3988": [
      {
        "length": 32,
        "start": 5749
      },
      {
        "length": 32,
        "start": 8969
      },
      {
        "length": 32,
        "start": 10942
      },
      {
        "length": 32,
        "start": 12223
      },
      {
        "length": 32,
        "start": 13922
      },
      {
        "length": 32,
        "start": 14335
      },
      {
        "length": 32,
        "start": 19929
      }
    ]
  },
  "source": "// SPDX-License-Identifier: MIT\r\n\r\npragma solidity >=0.7.6;\r\n\r\n// Inheritance\r\nimport \"./Ownable.sol\";\r\nimport \"./interfaces/IStakingFarmRewards.sol\";\r\nimport \"./openzeppelin-solidity/ReentrancyGuard.sol\";\r\n\r\n// Libraires\r\nimport \"./libraries/SafeMath.sol\";\r\n\r\n// Internal references\r\nimport \"./interfaces/IERC20.sol\";\r\nimport \"./interfaces/IAddressResolver.sol\";\r\nimport \"./interfaces/ISettings.sol\";\r\nimport './interfaces/IBaseUbeswapAdapter.sol';\r\nimport \"./interfaces/Ubeswap/IStakingRewards.sol\";\r\nimport \"./interfaces/Ubeswap/IUniswapV2Pair.sol\";\r\n\r\ncontract StakingFarmRewards is Ownable, IStakingFarmRewards, ReentrancyGuard {\r\n    using SafeMath for uint;\r\n\r\n    IAddressResolver public immutable ADDRESS_RESOLVER;\r\n    bool private initialized = false;\r\n\r\n    mapping (address => uint) public lastUpdateTime;\r\n    mapping (address => uint) public rewardPerTokenStored;\r\n    mapping (address => mapping(address => uint256)) public userRewardPerTokenPaid;\r\n    mapping (address => mapping(address => uint256)) public rewards;\r\n\r\n    /* Lists of (timestamp, quantity) pairs per account, sorted in ascending time order.\r\n     * These are the times at which each given quantity of LP token vests. */\r\n    mapping (address => mapping(address => uint[2][])) public vestingSchedules;\r\n\r\n    /* An account's total vested LP token balance to save recomputing this */\r\n    mapping (address => mapping(address => uint)) public totalVestedAccountBalance;\r\n\r\n    /* The total remaining vested balance, for verifying the actual LP token balance of this contract against. */\r\n    mapping (address => uint) public totalVestedBalance;\r\n\r\n    uint public constant TIME_INDEX = 0;\r\n    uint public constant QUANTITY_INDEX = 1;\r\n\r\n    /* Limit vesting entries to disallow unbounded iteration over vesting schedules. */\r\n    uint public constant MAX_VESTING_ENTRIES = 48;\r\n\r\n    /* ========== CONSTRUCTOR ========== */\r\n\r\n    constructor(IAddressResolver _addressResolver) Ownable() {\r\n        ADDRESS_RESOLVER = _addressResolver;\r\n    }\r\n\r\n    /* ========== VIEW FUNCTIONS ========== */\r\n\r\n    /**\r\n     * @notice A simple alias to totalVestedAccountBalance: provides ERC20 balance integration.\r\n     */\r\n    function balanceOf(address account, address farmAddress) public view override returns (uint) {\r\n        require(farmAddress != address(0), \"StakingFarmRewards: invalid farm address\");\r\n        require(account != address(0), \"StakingFarmRewards: invalid account address\");\r\n\r\n        return totalVestedAccountBalance[farmAddress][account];\r\n    }\r\n\r\n    /**\r\n     * @notice The number of vesting dates in an account's schedule for the given farm.\r\n     */\r\n    function numVestingEntries(address account, address farmAddress) public view override returns (uint) {\r\n        require(farmAddress != address(0), \"StakingFarmRewards: invalid farm address\");\r\n        require(account != address(0), \"StakingFarmRewards: invalid account address\");\r\n\r\n        return vestingSchedules[farmAddress][account].length;\r\n    }\r\n\r\n    /**\r\n     * @notice Get a particular schedule entry for an account for the given farm.\r\n     * @return A pair of uints: (timestamp, LP token quantity).\r\n     */\r\n    function getVestingScheduleEntry(address account, uint index, address farmAddress) public view override returns (uint[2] memory) {\r\n        require(farmAddress != address(0), \"StakingFarmRewards: invalid farm address\");\r\n        require(account != address(0), \"StakingFarmRewards: invalid account address\");\r\n\r\n        return vestingSchedules[farmAddress][account][index];\r\n    }\r\n\r\n    /**\r\n     * @notice Get the time at which a given schedule entry will vest.\r\n     */\r\n    function getVestingTime(address account, uint index, address farmAddress) public view override returns (uint) {\r\n        require(farmAddress != address(0), \"StakingFarmRewards: invalid farm address\");\r\n        require(account != address(0), \"StakingFarmRewards: invalid account address\");\r\n\r\n        return getVestingScheduleEntry(account, index, farmAddress)[TIME_INDEX];\r\n    }\r\n\r\n    /**\r\n     * @notice Get the quantity of LP tokens associated with a given schedule entry for the given farm.\r\n     */\r\n    function getVestingQuantity(address account, uint index, address farmAddress) public view override returns (uint) {\r\n        require(farmAddress != address(0), \"StakingFarmRewards: invalid farm address\");\r\n        require(account != address(0), \"StakingFarmRewards: invalid account address\");\r\n\r\n        return getVestingScheduleEntry(account, index, farmAddress)[QUANTITY_INDEX];\r\n    }\r\n\r\n    /**\r\n     * @notice Obtain the index of the next schedule entry that will vest for a given user.\r\n     */\r\n    function getNextVestingIndex(address account, address farmAddress) public view override returns (uint) {\r\n        require(farmAddress != address(0), \"StakingFarmRewards: invalid farm address\");\r\n        require(account != address(0), \"StakingFarmRewards: invalid account address\");\r\n\r\n        uint len = numVestingEntries(account, farmAddress);\r\n\r\n        for (uint i = 0; i < len; i++)\r\n        {\r\n            if (getVestingTime(account, i, farmAddress) != 0)\r\n            {\r\n                return i;\r\n            }\r\n        }\r\n\r\n        return len;\r\n    }\r\n\r\n    /**\r\n     * @notice Calculates the amount of TGEN reward per token staked in the given farm.\r\n     */\r\n    function rewardPerToken(address farmAddress) public view override returns (uint256) {\r\n        require(farmAddress != address(0), \"StakingFarmRewards: invalid farm address\");\r\n\r\n        uint rewardRate = ISettings(ADDRESS_RESOLVER.getContractAddress(\"Settings\")).getParameterValue(\"WeeklyStakingFarmRewards\");\r\n        uint numberOfAvailableFarms = IBaseUbeswapAdapter(ADDRESS_RESOLVER.getContractAddress(\"BaseUbeswapAdapter\")).getAvailableUbeswapFarms().length;\r\n\r\n        if (totalVestedBalance[farmAddress] == 0) {\r\n            return rewardPerTokenStored[farmAddress];\r\n        }\r\n        return\r\n            rewardPerTokenStored[farmAddress].add(\r\n                block.timestamp.sub(lastUpdateTime[farmAddress]).mul(rewardRate).mul(1e18).div(totalVestedBalance[farmAddress]).div(numberOfAvailableFarms)\r\n            );\r\n    }\r\n\r\n    /**\r\n     * @notice Calculates the amount of TGEN rewards earned for the given farm.\r\n     */\r\n    function earned(address account, address farmAddress) public view override returns (uint256) {\r\n        require(farmAddress != address(0), \"StakingFarmRewards: invalid farm address\");\r\n\r\n        return totalVestedAccountBalance[farmAddress][account].mul(rewardPerToken(farmAddress).sub(userRewardPerTokenPaid[farmAddress][account])).div(1e18).add(rewards[farmAddress][account]);\r\n    }\r\n\r\n    /**\r\n     * @notice Obtain the next schedule entry that will vest for a given user.\r\n     * @return A pair of uints: (timestamp, LP token quantity). */\r\n    function getNextVestingEntry(address account, address farmAddress) public view override returns (uint[2] memory) {\r\n        require(farmAddress != address(0), \"StakingFarmRewards: invalid farm address\");\r\n        require(account != address(0), \"StakingFarmRewards: invalid account address\");\r\n\r\n        uint index = getNextVestingIndex(account, farmAddress);\r\n        if (index == numVestingEntries(account, farmAddress))\r\n        {\r\n            return [uint(0), 0];\r\n        }\r\n\r\n        return getVestingScheduleEntry(account, index, farmAddress);\r\n    }\r\n\r\n    /**\r\n     * @notice Obtain the time at which the next schedule entry will vest for a given user.\r\n     */\r\n    function getNextVestingTime(address account, address farmAddress) external view override returns (uint) {\r\n        require(farmAddress != address(0), \"StakingFarmRewards: invalid farm address\");\r\n        require(account != address(0), \"StakingFarmRewards: invalid account address\");\r\n\r\n        return getNextVestingEntry(account, farmAddress)[TIME_INDEX];\r\n    }\r\n\r\n    /**\r\n     * @notice Obtain the quantity which the next schedule entry will vest for a given user.\r\n     */\r\n    function getNextVestingQuantity(address account, address farmAddress) external view override returns (uint) {\r\n        require(farmAddress != address(0), \"StakingFarmRewards: invalid farm address\");\r\n        require(account != address(0), \"StakingFarmRewards: invalid account address\");\r\n\r\n        return getNextVestingEntry(account, farmAddress)[QUANTITY_INDEX];\r\n    }\r\n\r\n    /**\r\n     * @notice Returns the user's staked farms, balance in each staked farm, and the number of staked farms\r\n     * @param account Address of the user\r\n     * @return (address[], uint[], uint) The address of each staked farm, user's LP token balance in the associated farm, and the number of staked farms\r\n     */\r\n    function getStakedFarms(address account) public view override returns (address[] memory, uint[] memory, uint) {\r\n        require(account != address(0), \"StakingFarmRewards: invalid account address\");\r\n\r\n        address baseUbeswapAdapterAddress = ADDRESS_RESOLVER.getContractAddress(\"BaseUbeswapAdapter\");   \r\n        address[] memory availableFarms = IBaseUbeswapAdapter(baseUbeswapAdapterAddress).getAvailableUbeswapFarms();\r\n        address[] memory stakedFarms = new address[](availableFarms.length);\r\n        uint[] memory balances = new uint[](availableFarms.length);\r\n        uint count = 0;\r\n\r\n        for (uint i = 0; i < availableFarms.length; i++)\r\n        {\r\n            if (totalVestedAccountBalance[availableFarms[i]][account] > 0)\r\n            {\r\n                stakedFarms[count] = availableFarms[i];\r\n                balances[count] = totalVestedAccountBalance[availableFarms[i]][account];\r\n            }\r\n        }   \r\n\r\n        return (stakedFarms, balances, count); \r\n    }\r\n\r\n    /**\r\n     * @notice Returns the USD value of the user's staked position in the given farm\r\n     * @param account Address of the user\r\n     * @param farmAddress Address of the farm\r\n     * @return uint USD value of the staked position\r\n     */\r\n    function getUSDValueOfStakedPosition(address account, address farmAddress) public view override returns (uint) {\r\n        require(farmAddress != address(0), \"StakingFarmRewards: invalid farm address\");\r\n        require(account != address(0), \"StakingFarmRewards: invalid account address\");\r\n\r\n        uint numberOfLPTokens = totalVestedAccountBalance[farmAddress][account];\r\n\r\n        return _calculateValueOfPair(farmAddress, numberOfLPTokens);\r\n    }\r\n\r\n    /**\r\n     * @notice Returns the USD value of the given farm\r\n     * @param farmAddress Address of the farm\r\n     * @return uint USD value staked in the farm\r\n     */\r\n    function getUSDValueOfFarm(address farmAddress) public view override returns (uint) {\r\n        require(farmAddress != address(0), \"StakingFarmRewards: invalid farm address\");\r\n\r\n        uint totalSupply = totalVestedBalance[farmAddress];\r\n        \r\n        return _calculateValueOfPair(farmAddress, totalSupply);\r\n    }\r\n\r\n    /* ========== INTERNAL FUNCTIONS ========== */\r\n\r\n    /**\r\n     * @notice Add a new vesting entry at a given time and quantity to an account's schedule for the given farm.\r\n     * @param account The account to append a new vesting entry to.\r\n     * @param time The absolute unix timestamp after which the vested quantity may be withdrawn.\r\n     * @param quantity The quantity of LP token that will vest.\r\n     * @param farmAddress Address of the farm to stake in\r\n     */\r\n    function appendVestingEntry(address account, uint time, uint quantity, address farmAddress) internal {\r\n        require(farmAddress != address(0), \"StakingFarmRewards: invalid farm address\");\r\n        require(account != address(0), \"StakingFarmRewards: invalid account address\");\r\n\r\n\r\n        /* No empty or already-passed vesting entries allowed. */\r\n        require(block.timestamp < time, \"Time must be in the future\");\r\n        require(quantity != 0, \"Quantity cannot be zero\");\r\n\r\n        /* Disallow arbitrarily long vesting schedules in light of the gas limit. */\r\n        uint scheduleLength = vestingSchedules[farmAddress][account].length;\r\n        require(scheduleLength <= MAX_VESTING_ENTRIES, \"Vesting schedule is too long\");\r\n\r\n        if (scheduleLength == 0)\r\n        {\r\n            totalVestedAccountBalance[farmAddress][account] = quantity;\r\n        }\r\n        else\r\n        {\r\n            /* Disallow adding new vested LP token earlier than the last one.\r\n             * Since entries are only appended, this means that no vesting date can be repeated. */\r\n            require(\r\n                getVestingTime(account, numVestingEntries(account, farmAddress) - 1, farmAddress) < time,\r\n                \"Cannot add new vested entries earlier than the last one\"\r\n            );\r\n\r\n            totalVestedAccountBalance[farmAddress][account] = totalVestedAccountBalance[farmAddress][account].add(quantity);\r\n        }\r\n\r\n        vestingSchedules[farmAddress][account].push([time, quantity]);\r\n    }\r\n\r\n    /**\r\n     * @notice Given the address of a farm and the number of LP tokens, returns the USD value of the LP tokens.\r\n     * @param farmAddress Address of the farm to stake in\r\n     * @param numberOfTokens Number of LP tokens in the farm\r\n     * @return uint The USD value of the LP tokens\r\n     */\r\n    function _calculateValueOfPair(address farmAddress, uint numberOfTokens) internal view returns (uint) {\r\n        require(numberOfTokens > 0, \"StakingFarmRewards: number of LP tokens in pair must be greater than 0\");\r\n\r\n        address baseUbeswapAdapterAddress = ADDRESS_RESOLVER.getContractAddress(\"BaseUbeswapAdapter\"); \r\n\r\n        address pair = IStakingRewards(farmAddress).stakingToken();\r\n        address tokenA = IUniswapV2Pair(pair).token0();\r\n        address tokenB = IUniswapV2Pair(pair).token1();\r\n        (uint amountA, uint amountB) = IBaseUbeswapAdapter(baseUbeswapAdapterAddress).getTokenAmountsFromPair(tokenA, tokenB, numberOfTokens);\r\n\r\n        uint numberOfDecimalsA = IERC20(tokenA).decimals();\r\n        uint USDperTokenA = IBaseUbeswapAdapter(baseUbeswapAdapterAddress).getPrice(tokenA);\r\n        uint USDBalanceA = amountA.mul(USDperTokenA).div(10 ** numberOfDecimalsA);\r\n\r\n        uint numberOfDecimalsB = IERC20(tokenB).decimals();\r\n        uint USDperTokenB = IBaseUbeswapAdapter(baseUbeswapAdapterAddress).getPrice(tokenB);\r\n        uint USDBalanceB = amountB.mul(USDperTokenB).div(10 ** numberOfDecimalsB);\r\n\r\n        return USDBalanceA.mul(USDBalanceB);\r\n    }\r\n\r\n    /* ========== MUTATIVE FUNCTIONS ========== */\r\n\r\n    /**\r\n     * @notice Stakes the given LP token amount.\r\n     */\r\n    function stake(uint amount, address farmAddress) external override nonReentrant updateReward(msg.sender, farmAddress) {\r\n        require(amount > 0, \"StakingFarmRewards: Staked amount must be greater than 0\");\r\n        require(farmAddress != address(0), \"StakingFarmRewards: invalid farm address\");\r\n\r\n        uint vestingTimestamp = block.timestamp.add(30 days);\r\n        appendVestingEntry(msg.sender, vestingTimestamp, amount, farmAddress);\r\n\r\n        //Transfer LP tokens from user and stake in farm\r\n        address stakingToken = IStakingRewards(farmAddress).stakingToken();\r\n        IERC20(stakingToken).transferFrom(msg.sender, address(this), amount);\r\n        IStakingRewards(stakingToken).stake(amount); //This contract has custody of staked tokens\r\n\r\n        emit Staked(msg.sender, amount, vestingTimestamp, farmAddress, block.timestamp);\r\n    }\r\n\r\n    /**\r\n     * @notice Allow a user to withdraw any LP token in their schedule that have vested.\r\n     */\r\n    function vest(address farmAddress) external override nonReentrant updateReward(msg.sender, farmAddress) {\r\n        require(farmAddress != address(0), \"StakingFarmRewards: invalid farm address\");\r\n\r\n        uint numEntries = numVestingEntries(msg.sender, farmAddress);\r\n        uint total;\r\n\r\n        for (uint i = 0; i < numEntries; i++)\r\n        {\r\n            uint time = getVestingTime(msg.sender, i, farmAddress);\r\n            /* The list is sorted; when we reach the first future time, bail out. */\r\n            if (time > block.timestamp)\r\n            {\r\n                break;\r\n            }\r\n\r\n            uint qty = getVestingQuantity(msg.sender, i, farmAddress);\r\n\r\n            if (qty > 0)\r\n            {\r\n                vestingSchedules[farmAddress][msg.sender][i] = [0, 0];\r\n                total = total.add(qty);\r\n            }\r\n        }\r\n\r\n        if (total != 0)\r\n        {\r\n            //Unstake from farm and claim available UBE rewards; unstakes full position by default\r\n            IStakingRewards(farmAddress).exit();\r\n\r\n            //Update state variables and transfer tokens to user\r\n            address stakingToken = IStakingRewards(farmAddress).stakingToken();\r\n            totalVestedBalance[farmAddress] = totalVestedBalance[farmAddress].sub(total);\r\n            totalVestedAccountBalance[farmAddress][msg.sender] = totalVestedAccountBalance[farmAddress][msg.sender].sub(total);\r\n            IERC20(stakingToken).transfer(msg.sender, total);\r\n\r\n            //Stake remaining tokens back into farm\r\n            uint remainingTokens = IERC20(stakingToken).balanceOf(address(this));\r\n            IStakingRewards(farmAddress).stake(remainingTokens);\r\n\r\n            emit Vested(msg.sender, block.timestamp, total, farmAddress);\r\n        }\r\n\r\n        //Claim TGEN rewards\r\n        getReward(farmAddress);\r\n    }\r\n\r\n    /**\r\n     * @notice Allow a user to claim any available staking rewards for the given farm.\r\n     */\r\n    function getReward(address farmAddress) public override nonReentrant updateReward(msg.sender, farmAddress) {\r\n        require(farmAddress != address(0), \"StakingFarmRewards: invalid farm address\");\r\n\r\n        address baseTradegenAddress = ADDRESS_RESOLVER.getContractAddress(\"TradegenERC20\");\r\n        uint reward = rewards[farmAddress][msg.sender];\r\n\r\n        if (reward > 0)\r\n        {\r\n            rewards[farmAddress][msg.sender] = 0;\r\n            IERC20(baseTradegenAddress).transfer(msg.sender, reward);\r\n            emit RewardPaid(msg.sender, reward, farmAddress, block.timestamp);\r\n        }\r\n    }\r\n\r\n    /* ========== RESTRICTED FUNCTIONS ========== */\r\n\r\n    /**\r\n     * @notice Initialize the lastUpdateTime of each Ubeswap farm; meant to be called once\r\n     */\r\n    function initializeFarms() external onlyOwner {\r\n        require(!initialized, \"Already initialized farms\");\r\n        //Initialize lastUpdateTime of each available Ubeswap farm\r\n        address baseUbeswapAdapterAddress = ADDRESS_RESOLVER.getContractAddress(\"BaseUbeswapAdapter\");\r\n        address[] memory farms = IBaseUbeswapAdapter(baseUbeswapAdapterAddress).getAvailableUbeswapFarms();\r\n        for (uint i = 0; i < farms.length; i++)\r\n        {\r\n            lastUpdateTime[farms[i]] = block.timestamp;\r\n        }\r\n\r\n        initialized = true;\r\n    }\r\n\r\n    /* ========== MODIFIERS ========== */\r\n\r\n    modifier updateReward(address account, address farmAddress) {\r\n        require(farmAddress != address(0), \"StakingFarmRewards: invalid farm address\");\r\n\r\n        rewardPerTokenStored[farmAddress] = rewardPerToken(farmAddress);\r\n        lastUpdateTime[farmAddress] = block.timestamp;\r\n        if (account != address(0)) {\r\n            rewards[farmAddress][account] = earned(account, farmAddress);\r\n            userRewardPerTokenPaid[farmAddress][account] = rewardPerTokenStored[farmAddress];\r\n        }\r\n        _;\r\n    }\r\n\r\n    /* ========== EVENTS ========== */\r\n\r\n    event Vested(address indexed beneficiary, uint time, uint value, address farmAddress);\r\n    event Staked(address indexed beneficiary, uint total, uint vestingTimestamp, address farmAddress, uint timestamp);\r\n    event RewardPaid(address indexed user, uint amount, address farmAddress, uint timestamp);\r\n}",
  "sourcePath": "C:/Users/xavie/OneDrive/Desktop/TradeGen/Github/tradegen-protocol/contracts/StakingFarmRewards.sol",
  "compiler": {
    "name": "solc",
    "version": "0.7.6+commit.7338295f.Emscripten.clang"
  },
  "schemaVersion": "3.4.1",
  "updatedAt": "2021-08-17T23:05:05.973Z",
  "devdoc": {
    "kind": "dev",
    "methods": {
      "getNextVestingEntry(address,address)": {
        "returns": {
          "_0": "A pair of uints: (timestamp, LP token quantity). "
        }
      },
      "getStakedFarms(address)": {
        "params": {
          "account": "Address of the user"
        },
        "returns": {
          "_0": "(address[], uint[], uint) The address of each staked farm, user's LP token balance in the associated farm, and the number of staked farms"
        }
      },
      "getUSDValueOfFarm(address)": {
        "params": {
          "farmAddress": "Address of the farm"
        },
        "returns": {
          "_0": "uint USD value staked in the farm"
        }
      },
      "getUSDValueOfStakedPosition(address,address)": {
        "params": {
          "account": "Address of the user",
          "farmAddress": "Address of the farm"
        },
        "returns": {
          "_0": "uint USD value of the staked position"
        }
      },
      "getVestingScheduleEntry(address,uint256,address)": {
        "returns": {
          "_0": "A pair of uints: (timestamp, LP token quantity)."
        }
      },
      "isOwner()": {
        "returns": {
          "_0": "true if `msg.sender` is the owner of the contract."
        }
      },
      "owner()": {
        "returns": {
          "_0": "the address of the owner."
        }
      },
      "renounceOwnership()": {
        "details": "Allows the current owner to relinquish control of the contract."
      },
      "transferOwnership(address)": {
        "details": "Allows the current owner to transfer control of the contract to a newOwner.",
        "params": {
          "newOwner": "The address to transfer ownership to."
        }
      }
    },
    "version": 1
  },
  "userdoc": {
    "kind": "user",
    "methods": {
      "balanceOf(address,address)": {
        "notice": "A simple alias to totalVestedAccountBalance: provides ERC20 balance integration."
      },
      "earned(address,address)": {
        "notice": "Calculates the amount of TGEN rewards earned for the given farm."
      },
      "getNextVestingEntry(address,address)": {
        "notice": "Obtain the next schedule entry that will vest for a given user."
      },
      "getNextVestingIndex(address,address)": {
        "notice": "Obtain the index of the next schedule entry that will vest for a given user."
      },
      "getNextVestingQuantity(address,address)": {
        "notice": "Obtain the quantity which the next schedule entry will vest for a given user."
      },
      "getNextVestingTime(address,address)": {
        "notice": "Obtain the time at which the next schedule entry will vest for a given user."
      },
      "getReward(address)": {
        "notice": "Allow a user to claim any available staking rewards for the given farm."
      },
      "getStakedFarms(address)": {
        "notice": "Returns the user's staked farms, balance in each staked farm, and the number of staked farms"
      },
      "getUSDValueOfFarm(address)": {
        "notice": "Returns the USD value of the given farm"
      },
      "getUSDValueOfStakedPosition(address,address)": {
        "notice": "Returns the USD value of the user's staked position in the given farm"
      },
      "getVestingQuantity(address,uint256,address)": {
        "notice": "Get the quantity of LP tokens associated with a given schedule entry for the given farm."
      },
      "getVestingScheduleEntry(address,uint256,address)": {
        "notice": "Get a particular schedule entry for an account for the given farm."
      },
      "getVestingTime(address,uint256,address)": {
        "notice": "Get the time at which a given schedule entry will vest."
      },
      "initializeFarms()": {
        "notice": "Initialize the lastUpdateTime of each Ubeswap farm; meant to be called once"
      },
      "numVestingEntries(address,address)": {
        "notice": "The number of vesting dates in an account's schedule for the given farm."
      },
      "renounceOwnership()": {
        "notice": "Renouncing to ownership will leave the contract without an owner. It will not be possible to call the functions with the `onlyOwner` modifier anymore."
      },
      "rewardPerToken(address)": {
        "notice": "Calculates the amount of TGEN reward per token staked in the given farm."
      },
      "stake(uint256,address)": {
        "notice": "Stakes the given LP token amount."
      },
      "vest(address)": {
        "notice": "Allow a user to withdraw any LP token in their schedule that have vested."
      }
    },
    "version": 1
  }
}