{
  "contractName": "TestUbeswapAdapter",
  "abi": [
    {
      "inputs": [
        {
          "internalType": "contract IAddressResolver",
          "name": "addressResolver",
          "type": "address"
        }
      ],
      "stateMutability": "nonpayable",
      "type": "constructor"
    },
    {
      "anonymous": false,
      "inputs": [
        {
          "indexed": false,
          "internalType": "address",
          "name": "addressAddedFrom",
          "type": "address"
        },
        {
          "indexed": false,
          "internalType": "address",
          "name": "tokenA",
          "type": "address"
        },
        {
          "indexed": false,
          "internalType": "address",
          "name": "tokenB",
          "type": "address"
        },
        {
          "indexed": false,
          "internalType": "uint256",
          "name": "amountA",
          "type": "uint256"
        },
        {
          "indexed": false,
          "internalType": "uint256",
          "name": "amountB",
          "type": "uint256"
        },
        {
          "indexed": false,
          "internalType": "uint256",
          "name": "numberOfLPTokens",
          "type": "uint256"
        },
        {
          "indexed": false,
          "internalType": "uint256",
          "name": "timestamp",
          "type": "uint256"
        }
      ],
      "name": "AddedLiquidity",
      "type": "event"
    },
    {
      "anonymous": false,
      "inputs": [
        {
          "indexed": false,
          "internalType": "address",
          "name": "addressRemovedFrom",
          "type": "address"
        },
        {
          "indexed": false,
          "internalType": "address",
          "name": "tokenA",
          "type": "address"
        },
        {
          "indexed": false,
          "internalType": "address",
          "name": "tokenB",
          "type": "address"
        },
        {
          "indexed": false,
          "internalType": "uint256",
          "name": "amountAReceived",
          "type": "uint256"
        },
        {
          "indexed": false,
          "internalType": "uint256",
          "name": "amountBReceived",
          "type": "uint256"
        },
        {
          "indexed": false,
          "internalType": "uint256",
          "name": "timestamp",
          "type": "uint256"
        }
      ],
      "name": "RemovedLiquidity",
      "type": "event"
    },
    {
      "anonymous": false,
      "inputs": [
        {
          "indexed": false,
          "internalType": "address",
          "name": "fromAsset",
          "type": "address"
        },
        {
          "indexed": false,
          "internalType": "address",
          "name": "toAsset",
          "type": "address"
        },
        {
          "indexed": false,
          "internalType": "uint256",
          "name": "fromAmount",
          "type": "uint256"
        },
        {
          "indexed": false,
          "internalType": "uint256",
          "name": "receivedAmount",
          "type": "uint256"
        },
        {
          "indexed": false,
          "internalType": "uint256",
          "name": "timestamp",
          "type": "uint256"
        }
      ],
      "name": "Swapped",
      "type": "event"
    },
    {
      "inputs": [],
      "name": "ADDRESS_RESOLVER",
      "outputs": [
        {
          "internalType": "contract IAddressResolver",
          "name": "",
          "type": "address"
        }
      ],
      "stateMutability": "view",
      "type": "function"
    },
    {
      "inputs": [],
      "name": "MAX_SLIPPAGE_PERCENT",
      "outputs": [
        {
          "internalType": "uint256",
          "name": "",
          "type": "uint256"
        }
      ],
      "stateMutability": "view",
      "type": "function"
    },
    {
      "inputs": [],
      "name": "USDperCELO",
      "outputs": [
        {
          "internalType": "uint256",
          "name": "",
          "type": "uint256"
        }
      ],
      "stateMutability": "view",
      "type": "function"
    },
    {
      "inputs": [
        {
          "internalType": "address",
          "name": "currencyKey",
          "type": "address"
        }
      ],
      "name": "getPrice",
      "outputs": [
        {
          "internalType": "uint256",
          "name": "",
          "type": "uint256"
        }
      ],
      "stateMutability": "view",
      "type": "function"
    },
    {
      "inputs": [
        {
          "internalType": "uint256",
          "name": "numberOfTokens",
          "type": "uint256"
        },
        {
          "internalType": "address",
          "name": "currencyKeyIn",
          "type": "address"
        },
        {
          "internalType": "address",
          "name": "currencyKeyOut",
          "type": "address"
        }
      ],
      "name": "getAmountsOut",
      "outputs": [
        {
          "internalType": "uint256",
          "name": "",
          "type": "uint256"
        }
      ],
      "stateMutability": "view",
      "type": "function"
    },
    {
      "inputs": [
        {
          "internalType": "uint256",
          "name": "newPrice",
          "type": "uint256"
        }
      ],
      "name": "setPrice",
      "outputs": [],
      "stateMutability": "nonpayable",
      "type": "function"
    },
    {
      "inputs": [],
      "name": "getAvailableUbeswapFarms",
      "outputs": [
        {
          "internalType": "address[]",
          "name": "",
          "type": "address[]"
        }
      ],
      "stateMutability": "view",
      "type": "function"
    },
    {
      "inputs": [
        {
          "internalType": "address",
          "name": "farmAddress",
          "type": "address"
        }
      ],
      "name": "checkIfFarmExists",
      "outputs": [
        {
          "internalType": "address",
          "name": "",
          "type": "address"
        }
      ],
      "stateMutability": "view",
      "type": "function"
    },
    {
      "inputs": [
        {
          "internalType": "address",
          "name": "tokenA",
          "type": "address"
        },
        {
          "internalType": "address",
          "name": "tokenB",
          "type": "address"
        }
      ],
      "name": "getPair",
      "outputs": [
        {
          "internalType": "address",
          "name": "",
          "type": "address"
        }
      ],
      "stateMutability": "view",
      "type": "function"
    },
    {
      "inputs": [
        {
          "internalType": "address",
          "name": "poolAddress",
          "type": "address"
        },
        {
          "internalType": "address",
          "name": "farmAddress",
          "type": "address"
        }
      ],
      "name": "getAvailableRewards",
      "outputs": [
        {
          "internalType": "uint256",
          "name": "",
          "type": "uint256"
        }
      ],
      "stateMutability": "view",
      "type": "function"
    },
    {
      "inputs": [
        {
          "internalType": "address",
          "name": "tokenA",
          "type": "address"
        },
        {
          "internalType": "address",
          "name": "tokenB",
          "type": "address"
        },
        {
          "internalType": "uint256",
          "name": "numberOfLPTokens",
          "type": "uint256"
        }
      ],
      "name": "getTokenAmountsFromPair",
      "outputs": [
        {
          "internalType": "uint256",
          "name": "",
          "type": "uint256"
        },
        {
          "internalType": "uint256",
          "name": "",
          "type": "uint256"
        }
      ],
      "stateMutability": "view",
      "type": "function"
    },
    {
      "inputs": [
        {
          "internalType": "address",
          "name": "assetToSwapFrom",
          "type": "address"
        },
        {
          "internalType": "address",
          "name": "assetToSwapTo",
          "type": "address"
        },
        {
          "internalType": "uint256",
          "name": "amountToSwap",
          "type": "uint256"
        },
        {
          "internalType": "uint256",
          "name": "minAmountOut",
          "type": "uint256"
        }
      ],
      "name": "swapFromPool",
      "outputs": [
        {
          "internalType": "uint256",
          "name": "",
          "type": "uint256"
        }
      ],
      "stateMutability": "nonpayable",
      "type": "function"
    },
    {
      "inputs": [
        {
          "internalType": "address",
          "name": "assetToSwapFrom",
          "type": "address"
        },
        {
          "internalType": "address",
          "name": "assetToSwapTo",
          "type": "address"
        },
        {
          "internalType": "uint256",
          "name": "amountToSwap",
          "type": "uint256"
        },
        {
          "internalType": "uint256",
          "name": "minAmountOut",
          "type": "uint256"
        }
      ],
      "name": "swapFromBot",
      "outputs": [
        {
          "internalType": "uint256",
          "name": "",
          "type": "uint256"
        }
      ],
      "stateMutability": "nonpayable",
      "type": "function"
    },
    {
      "inputs": [
        {
          "internalType": "address",
          "name": "tokenA",
          "type": "address"
        },
        {
          "internalType": "address",
          "name": "tokenB",
          "type": "address"
        },
        {
          "internalType": "uint256",
          "name": "amountA",
          "type": "uint256"
        },
        {
          "internalType": "uint256",
          "name": "amountB",
          "type": "uint256"
        }
      ],
      "name": "addLiquidity",
      "outputs": [
        {
          "internalType": "uint256",
          "name": "",
          "type": "uint256"
        }
      ],
      "stateMutability": "nonpayable",
      "type": "function"
    },
    {
      "inputs": [
        {
          "internalType": "address",
          "name": "tokenA",
          "type": "address"
        },
        {
          "internalType": "address",
          "name": "tokenB",
          "type": "address"
        },
        {
          "internalType": "uint256",
          "name": "numberOfLPTokens",
          "type": "uint256"
        }
      ],
      "name": "removeLiquidity",
      "outputs": [
        {
          "internalType": "uint256",
          "name": "",
          "type": "uint256"
        },
        {
          "internalType": "uint256",
          "name": "",
          "type": "uint256"
        }
      ],
      "stateMutability": "nonpayable",
      "type": "function"
    }
  ],
  "bytecode": "0x60a0604052600560005534801561001557600080fd5b506040516133d83803806133d88339818101604052602081101561003857600080fd5b81019080805190602001909291905050508073ffffffffffffffffffffffffffffffffffffffff1660808173ffffffffffffffffffffffffffffffffffffffff1660601b815250505060805160601c6132fe6100da600039806108bc52806109f85280610da25280610dc95280610eaa52806116b552806117e65280611be75280611e8c52806120c9528061230a52806128d35280612e5b52506132fe6000f3fe608060405234801561001057600080fd5b50600436106100f45760003560e01c8063981f3b8e11610097578063d87fc14911610066578063d87fc149146104f8578063e1f6e5bb14610581578063e5414cd0146105e0578063e6a439051461066c576100f4565b8063981f3b8e1461032d578063baf7fa9914610361578063cf6c62ea146103e3578063d752fab21461046f576100f4565b806332e4b286116100d357806332e4b2861461021b57806341976e091461023957806381ef421f1461029157806391b7f5ed146102ff576100f4565b80629e78be146100f95780630838fcb314610171578063262018df146101fd575b600080fd5b61015b6004803603604081101561010f57600080fd5b81019080803573ffffffffffffffffffffffffffffffffffffffff169060200190929190803573ffffffffffffffffffffffffffffffffffffffff1690602001909291905050506106fa565b6040518082815260200191505060405180910390f35b6101e76004803603608081101561018757600080fd5b81019080803573ffffffffffffffffffffffffffffffffffffffff169060200190929190803573ffffffffffffffffffffffffffffffffffffffff16906020019092919080359060200190929190803590602001909291905050506108b8565b6040518082815260200191505060405180910390f35b6102056109e8565b6040518082815260200191505060405180910390f35b6102236109ee565b6040518082815260200191505060405180910390f35b61027b6004803603602081101561024f57600080fd5b81019080803573ffffffffffffffffffffffffffffffffffffffff1690602001909291905050506109f3565b6040518082815260200191505060405180910390f35b6102d3600480360360208110156102a757600080fd5b81019080803573ffffffffffffffffffffffffffffffffffffffff169060200190929190505050610c6a565b604051808273ffffffffffffffffffffffffffffffffffffffff16815260200191505060405180910390f35b61032b6004803603602081101561031557600080fd5b8101908080359060200190929190505050610d96565b005b610335610da0565b604051808273ffffffffffffffffffffffffffffffffffffffff16815260200191505060405180910390f35b6103cd6004803603606081101561037757600080fd5b8101908080359060200190929190803573ffffffffffffffffffffffffffffffffffffffff169060200190929190803573ffffffffffffffffffffffffffffffffffffffff169060200190929190505050610dc4565b6040518082815260200191505060405180910390f35b610459600480360360808110156103f957600080fd5b81019080803573ffffffffffffffffffffffffffffffffffffffff169060200190929190803573ffffffffffffffffffffffffffffffffffffffff16906020019092919080359060200190929190803590602001909291905050506116b1565b6040518082815260200191505060405180910390f35b6104db6004803603606081101561048557600080fd5b81019080803573ffffffffffffffffffffffffffffffffffffffff169060200190929190803573ffffffffffffffffffffffffffffffffffffffff169060200190929190803590602001909291905050506117e1565b604051808381526020018281526020019250505060405180910390f35b6105646004803603606081101561050e57600080fd5b81019080803573ffffffffffffffffffffffffffffffffffffffff169060200190929190803573ffffffffffffffffffffffffffffffffffffffff16906020019092919080359060200190929190505050611913565b604051808381526020018281526020019250505060405180910390f35b610589611be1565b6040518080602001828103825283818151815260200191508051906020019060200280838360005b838110156105cc5780820151818401526020810190506105b1565b505050509050019250505060405180910390f35b610656600480360360808110156105f657600080fd5b81019080803573ffffffffffffffffffffffffffffffffffffffff169060200190929190803573ffffffffffffffffffffffffffffffffffffffff1690602001909291908035906020019092919080359060200190929190505050611e88565b6040518082815260200191505060405180910390f35b6106ce6004803603604081101561068257600080fd5b81019080803573ffffffffffffffffffffffffffffffffffffffff169060200190929190803573ffffffffffffffffffffffffffffffffffffffff169060200190929190505050611fb8565b604051808273ffffffffffffffffffffffffffffffffffffffff16815260200191505060405180910390f35b60008073ffffffffffffffffffffffffffffffffffffffff168373ffffffffffffffffffffffffffffffffffffffff161415610781576040517f08c379a00000000000000000000000000000000000000000000000000000000081526004018080602001828103825260288152602001806131a96028913960400191505060405180910390fd5b600073ffffffffffffffffffffffffffffffffffffffff166107a283610c6a565b73ffffffffffffffffffffffffffffffffffffffff16141561080f576040517f08c379a00000000000000000000000000000000000000000000000000000000081526004018080602001828103825260288152602001806131d16028913960400191505060405180910390fd5b8173ffffffffffffffffffffffffffffffffffffffff16628cc262846040518263ffffffff1660e01b8152600401808273ffffffffffffffffffffffffffffffffffffffff16815260200191505060206040518083038186803b15801561087557600080fd5b505afa158015610889573d6000803e3d6000fd5b505050506040513d602081101561089f57600080fd5b8101908080519060200190929190505050905092915050565b60007f000000000000000000000000000000000000000000000000000000000000000073ffffffffffffffffffffffffffffffffffffffff1663683ad58f336040518263ffffffff1660e01b8152600401808273ffffffffffffffffffffffffffffffffffffffff16815260200191505060206040518083038186803b15801561094157600080fd5b505afa158015610955573d6000803e3d6000fd5b505050506040513d602081101561096b57600080fd5b81019080805190602001909291905050506109d1576040517f08c379a000000000000000000000000000000000000000000000000000000000815260040180806020018281038252602b815260200180613272602b913960400191505060405180910390fd5b6109de338686868661226f565b9050949350505050565b60005481565b600a81565b6000807f000000000000000000000000000000000000000000000000000000000000000073ffffffffffffffffffffffffffffffffffffffff166304433bbc6040518163ffffffff1660e01b81526004018080602001828103825260088152602001807f53657474696e677300000000000000000000000000000000000000000000000081525060200191505060206040518083038186803b158015610a9857600080fd5b505afa158015610aac573d6000803e3d6000fd5b505050506040513d6020811015610ac257600080fd5b8101908080519060200190929190505050905060008173ffffffffffffffffffffffffffffffffffffffff1663be781b1c6040518163ffffffff1660e01b815260040160206040518083038186803b158015610b1d57600080fd5b505afa158015610b31573d6000803e3d6000fd5b505050506040513d6020811015610b4757600080fd5b810190808051906020019092919050505090508073ffffffffffffffffffffffffffffffffffffffff168473ffffffffffffffffffffffffffffffffffffffff161415610ba057670de0b6b3a764000092505050610c65565b600073ffffffffffffffffffffffffffffffffffffffff168473ffffffffffffffffffffffffffffffffffffffff161415610c43576040517f08c379a00000000000000000000000000000000000000000000000000000000081526004018080602001828103825260148152602001807f496e76616c69642063757272656e6379206b657900000000000000000000000081525060200191505060405180910390fd5b610c60670de0b6b3a764000060005461289790919063ffffffff16565b925050505b919050565b60008073ffffffffffffffffffffffffffffffffffffffff168273ffffffffffffffffffffffffffffffffffffffff161415610d0e576040517f08c379a00000000000000000000000000000000000000000000000000000000081526004018080602001828103825260148152602001807f496e76616c6964206661726d206164647265737300000000000000000000000081525060200191505060405180910390fd5b8173ffffffffffffffffffffffffffffffffffffffff166372f702f36040518163ffffffff1660e01b815260040160206040518083038186803b158015610d5457600080fd5b505afa158015610d68573d6000803e3d6000fd5b505050506040513d6020811015610d7e57600080fd5b81019080805190602001909291905050509050919050565b8060008190555050565b7f000000000000000000000000000000000000000000000000000000000000000081565b6000807f000000000000000000000000000000000000000000000000000000000000000073ffffffffffffffffffffffffffffffffffffffff166304433bbc6040518163ffffffff1660e01b81526004018080602001828103825260088152602001807f53657474696e677300000000000000000000000000000000000000000000000081525060200191505060206040518083038186803b158015610e6957600080fd5b505afa158015610e7d573d6000803e3d6000fd5b505050506040513d6020811015610e9357600080fd5b8101908080519060200190929190505050905060007f000000000000000000000000000000000000000000000000000000000000000073ffffffffffffffffffffffffffffffffffffffff166304433bbc6040518163ffffffff1660e01b815260040180806020018281038252600d8152602001807f55626573776170526f757465720000000000000000000000000000000000000081525060200191505060206040518083038186803b158015610f4a57600080fd5b505afa158015610f5e573d6000803e3d6000fd5b505050506040513d6020811015610f7457600080fd5b8101908080519060200190929190505050905060008273ffffffffffffffffffffffffffffffffffffffff1663be781b1c6040518163ffffffff1660e01b815260040160206040518083038186803b158015610fcf57600080fd5b505afa158015610fe3573d6000803e3d6000fd5b505050506040513d6020811015610ff957600080fd5b81019080805190602001909291905050509050600073ffffffffffffffffffffffffffffffffffffffff168673ffffffffffffffffffffffffffffffffffffffff1614156110af576040517f08c379a00000000000000000000000000000000000000000000000000000000081526004018080602001828103825260178152602001807f496e76616c69642063757272656e6379206b657920696e00000000000000000081525060200191505060405180910390fd5b600073ffffffffffffffffffffffffffffffffffffffff168573ffffffffffffffffffffffffffffffffffffffff161415611152576040517f08c379a00000000000000000000000000000000000000000000000000000000081526004018080602001828103825260188152602001807f496e76616c69642063757272656e6379206b6579206f7574000000000000000081525060200191505060405180910390fd5b8273ffffffffffffffffffffffffffffffffffffffff1663571a0885876040518263ffffffff1660e01b8152600401808273ffffffffffffffffffffffffffffffffffffffff16815260200191505060206040518083038186803b1580156111b957600080fd5b505afa1580156111cd573d6000803e3d6000fd5b505050506040513d60208110156111e357600080fd5b81019080805190602001909291905050508061122a57508073ffffffffffffffffffffffffffffffffffffffff168673ffffffffffffffffffffffffffffffffffffffff16145b61129c576040517f08c379a00000000000000000000000000000000000000000000000000000000081526004018080602001828103825260198152602001807f43757272656e6379206973206e6f7420617661696c61626c650000000000000081525060200191505060405180910390fd5b8273ffffffffffffffffffffffffffffffffffffffff1663571a0885866040518263ffffffff1660e01b8152600401808273ffffffffffffffffffffffffffffffffffffffff16815260200191505060206040518083038186803b15801561130357600080fd5b505afa158015611317573d6000803e3d6000fd5b505050506040513d602081101561132d57600080fd5b81019080805190602001909291905050508061137457508073ffffffffffffffffffffffffffffffffffffffff168573ffffffffffffffffffffffffffffffffffffffff16145b6113e6576040517f08c379a00000000000000000000000000000000000000000000000000000000081526004018080602001828103825260198152602001807f43757272656e6379206973206e6f7420617661696c61626c650000000000000081525060200191505060405180910390fd5b6000871161143f576040517f08c379a000000000000000000000000000000000000000000000000000000000815260040180806020018281038252602781526020018061321d6027913960400191505060405180910390fd5b6060600267ffffffffffffffff8111801561145957600080fd5b506040519080825280602002602001820160405280156114885781602001602082028036833780820191505090505b509050868160008151811061149957fe5b602002602001019073ffffffffffffffffffffffffffffffffffffffff16908173ffffffffffffffffffffffffffffffffffffffff168152505085816001815181106114e157fe5b602002602001019073ffffffffffffffffffffffffffffffffffffffff16908173ffffffffffffffffffffffffffffffffffffffff168152505060608373ffffffffffffffffffffffffffffffffffffffff1663d06ca61f8a846040518363ffffffff1660e01b81526004018083815260200180602001828103825283818151815260200191508051906020019060200280838360005b83811015611593578082015181840152602081019050611578565b50505050905001935050505060006040518083038186803b1580156115b757600080fd5b505afa1580156115cb573d6000803e3d6000fd5b505050506040513d6000823e3d601f19601f8201168201806040525060208110156115f557600080fd5b810190808051604051939291908464010000000082111561161557600080fd5b8382019150602082018581111561162b57600080fd5b825186602082028301116401000000008211171561164857600080fd5b8083526020830192505050908051906020019060200280838360005b8381101561167f578082015181840152602081019050611664565b5050505090500160405250505090508060018151811061169b57fe5b6020026020010151955050505050509392505050565b60007f000000000000000000000000000000000000000000000000000000000000000073ffffffffffffffffffffffffffffffffffffffff1663e51f8aba336040518263ffffffff1660e01b8152600401808273ffffffffffffffffffffffffffffffffffffffff16815260200191505060206040518083038186803b15801561173a57600080fd5b505afa15801561174e573d6000803e3d6000fd5b505050506040513d602081101561176457600080fd5b81019080805190602001909291905050506117ca576040517f08c379a00000000000000000000000000000000000000000000000000000000081526004018080602001828103825260248152602001806131f96024913960400191505060405180910390fd5b6117d733868686866128ce565b9050949350505050565b6000807f000000000000000000000000000000000000000000000000000000000000000073ffffffffffffffffffffffffffffffffffffffff1663e51f8aba336040518263ffffffff1660e01b8152600401808273ffffffffffffffffffffffffffffffffffffffff16815260200191505060206040518083038186803b15801561186b57600080fd5b505afa15801561187f573d6000803e3d6000fd5b505050506040513d602081101561189557600080fd5b81019080805190602001909291905050506118fb576040517f08c379a00000000000000000000000000000000000000000000000000000000081526004018080602001828103825260248152602001806131f96024913960400191505060405180910390fd5b61190733868686612e54565b91509150935093915050565b60008060006119228686611fb8565b9050600073ffffffffffffffffffffffffffffffffffffffff168173ffffffffffffffffffffffffffffffffffffffff1614156119aa576040517f08c379a000000000000000000000000000000000000000000000000000000000815260040180806020018281038252602c81526020018061329d602c913960400191505060405180910390fd5b60008673ffffffffffffffffffffffffffffffffffffffff166370a08231836040518263ffffffff1660e01b8152600401808273ffffffffffffffffffffffffffffffffffffffff16815260200191505060206040518083038186803b158015611a1357600080fd5b505afa158015611a27573d6000803e3d6000fd5b505050506040513d6020811015611a3d57600080fd5b8101908080519060200190929190505050905060008673ffffffffffffffffffffffffffffffffffffffff166370a08231846040518263ffffffff1660e01b8152600401808273ffffffffffffffffffffffffffffffffffffffff16815260200191505060206040518083038186803b158015611ab957600080fd5b505afa158015611acd573d6000803e3d6000fd5b505050506040513d6020811015611ae357600080fd5b8101908080519060200190929190505050905060008373ffffffffffffffffffffffffffffffffffffffff166318160ddd6040518163ffffffff1660e01b815260040160206040518083038186803b158015611b3e57600080fd5b505afa158015611b52573d6000803e3d6000fd5b505050506040513d6020811015611b6857600080fd5b810190808051906020019092919050505090506000611ba282611b948a8761289790919063ffffffff16565b61311090919063ffffffff16565b90506000611bcb83611bbd8b8761289790919063ffffffff16565b61311090919063ffffffff16565b9050818197509750505050505050935093915050565b606060007f000000000000000000000000000000000000000000000000000000000000000073ffffffffffffffffffffffffffffffffffffffff166304433bbc6040518163ffffffff1660e01b81526004018080602001828103825260128152602001807f55626573776170506f6f6c4d616e61676572000000000000000000000000000081525060200191505060206040518083038186803b158015611c8757600080fd5b505afa158015611c9b573d6000803e3d6000fd5b505050506040513d6020811015611cb157600080fd5b8101908080519060200190929190505050905060008173ffffffffffffffffffffffffffffffffffffffff16638c788de06040518163ffffffff1660e01b815260040160206040518083038186803b158015611d0c57600080fd5b505afa158015611d20573d6000803e3d6000fd5b505050506040513d6020811015611d3657600080fd5b8101908080519060200190929190505050905060608167ffffffffffffffff81118015611d6257600080fd5b50604051908082528060200260200182016040528015611d915781602001602082028036833780820191505090505b50905060005b82811015611e7e578373ffffffffffffffffffffffffffffffffffffffff16634a4ca369826040518263ffffffff1660e01b81526004018082815260200191505060206040518083038186803b158015611df057600080fd5b505afa158015611e04573d6000803e3d6000fd5b505050506040513d6020811015611e1a57600080fd5b8101908080519060200190929190505050828281518110611e3757fe5b602002602001019073ffffffffffffffffffffffffffffffffffffffff16908173ffffffffffffffffffffffffffffffffffffffff16815250508080600101915050611d97565b5080935050505090565b60007f000000000000000000000000000000000000000000000000000000000000000073ffffffffffffffffffffffffffffffffffffffff1663e51f8aba336040518263ffffffff1660e01b8152600401808273ffffffffffffffffffffffffffffffffffffffff16815260200191505060206040518083038186803b158015611f1157600080fd5b505afa158015611f25573d6000803e3d6000fd5b505050506040513d6020811015611f3b57600080fd5b8101908080519060200190929190505050611fa1576040517f08c379a00000000000000000000000000000000000000000000000000000000081526004018080602001828103825260248152602001806131f96024913960400191505060405180910390fd5b611fae338686868661226f565b9050949350505050565b60008073ffffffffffffffffffffffffffffffffffffffff168373ffffffffffffffffffffffffffffffffffffffff16141561203f576040517f08c379a000000000000000000000000000000000000000000000000000000000815260040180806020018281038252602e815260200180613146602e913960400191505060405180910390fd5b600073ffffffffffffffffffffffffffffffffffffffff168273ffffffffffffffffffffffffffffffffffffffff1614156120c5576040517f08c379a000000000000000000000000000000000000000000000000000000000815260040180806020018281038252602e815260200180613244602e913960400191505060405180910390fd5b60007f000000000000000000000000000000000000000000000000000000000000000073ffffffffffffffffffffffffffffffffffffffff166304433bbc6040518163ffffffff1660e01b81526004018080602001828103825260108152602001807f556e69737761705632466163746f72790000000000000000000000000000000081525060200191505060206040518083038186803b15801561216957600080fd5b505afa15801561217d573d6000803e3d6000fd5b505050506040513d602081101561219357600080fd5b810190808051906020019092919050505090508073ffffffffffffffffffffffffffffffffffffffff1663e6a4390585856040518363ffffffff1660e01b8152600401808373ffffffffffffffffffffffffffffffffffffffff1681526020018273ffffffffffffffffffffffffffffffffffffffff1681526020019250505060206040518083038186803b15801561222b57600080fd5b505afa15801561223f573d6000803e3d6000fd5b505050506040513d602081101561225557600080fd5b810190808051906020019092919050505091505092915050565b60008061227d848787610dc4565b905060006122ab606461229d600a6064038761289790919063ffffffff16565b61311090919063ffffffff16565b905080821015612306576040517f08c379a00000000000000000000000000000000000000000000000000000000081526004018080602001828103825260358152602001806131746035913960400191505060405180910390fd5b60007f000000000000000000000000000000000000000000000000000000000000000073ffffffffffffffffffffffffffffffffffffffff166304433bbc6040518163ffffffff1660e01b815260040180806020018281038252600d8152602001807f55626573776170526f757465720000000000000000000000000000000000000081525060200191505060206040518083038186803b1580156123aa57600080fd5b505afa1580156123be573d6000803e3d6000fd5b505050506040513d60208110156123d457600080fd5b810190808051906020019092919050505090508773ffffffffffffffffffffffffffffffffffffffff1663095ea7b38260006040518363ffffffff1660e01b8152600401808373ffffffffffffffffffffffffffffffffffffffff16815260200182815260200192505050602060405180830381600087803b15801561245957600080fd5b505af115801561246d573d6000803e3d6000fd5b505050506040513d602081101561248357600080fd5b8101908080519060200190929190505050508773ffffffffffffffffffffffffffffffffffffffff1663095ea7b382886040518363ffffffff1660e01b8152600401808373ffffffffffffffffffffffffffffffffffffffff16815260200182815260200192505050602060405180830381600087803b15801561250657600080fd5b505af115801561251a573d6000803e3d6000fd5b505050506040513d602081101561253057600080fd5b8101908080519060200190929190505050506060600267ffffffffffffffff8111801561255c57600080fd5b5060405190808252806020026020018201604052801561258b5781602001602082028036833780820191505090505b509050888160008151811061259c57fe5b602002602001019073ffffffffffffffffffffffffffffffffffffffff16908173ffffffffffffffffffffffffffffffffffffffff168152505087816001815181106125e457fe5b602002602001019073ffffffffffffffffffffffffffffffffffffffff16908173ffffffffffffffffffffffffffffffffffffffff168152505060608273ffffffffffffffffffffffffffffffffffffffff166338ed17398989858f426040518663ffffffff1660e01b815260040180868152602001858152602001806020018473ffffffffffffffffffffffffffffffffffffffff168152602001838152602001828103825285818151815260200191508051906020019060200280838360005b838110156126c15780820151818401526020810190506126a6565b505050509050019650505050505050600060405180830381600087803b1580156126ea57600080fd5b505af11580156126fe573d6000803e3d6000fd5b505050506040513d6000823e3d601f19601f82011682018060405250602081101561272857600080fd5b810190808051604051939291908464010000000082111561274857600080fd5b8382019150602082018581111561275e57600080fd5b825186602082028301116401000000008211171561277b57600080fd5b8083526020830192505050908051906020019060200280838360005b838110156127b2578082015181840152602081019050612797565b5050505090500160405250505090507fa54201e99d8e1488291e015a3af88c7a169bcf4932617ecd9536e1f1ad4351108a8a836000815181106127f157fe5b60200260200101518460018651038151811061280957fe5b602002602001015142604051808673ffffffffffffffffffffffffffffffffffffffff1681526020018573ffffffffffffffffffffffffffffffffffffffff1681526020018481526020018381526020018281526020019550505050505060405180910390a18060018251038151811061287f57fe5b60200260200101519550505050505095945050505050565b6000808314156128aa57600090506128c8565b60008284029050828482816128bb57fe5b04146128c357fe5b809150505b92915050565b6000807f000000000000000000000000000000000000000000000000000000000000000073ffffffffffffffffffffffffffffffffffffffff166304433bbc6040518163ffffffff1660e01b815260040180806020018281038252600d8152602001807f55626573776170526f757465720000000000000000000000000000000000000081525060200191505060206040518083038186803b15801561297357600080fd5b505afa158015612987573d6000803e3d6000fd5b505050506040513d602081101561299d57600080fd5b810190808051906020019092919050505090508573ffffffffffffffffffffffffffffffffffffffff1663095ea7b38260006040518363ffffffff1660e01b8152600401808373ffffffffffffffffffffffffffffffffffffffff16815260200182815260200192505050602060405180830381600087803b158015612a2257600080fd5b505af1158015612a36573d6000803e3d6000fd5b505050506040513d6020811015612a4c57600080fd5b8101908080519060200190929190505050508573ffffffffffffffffffffffffffffffffffffffff1663095ea7b382866040518363ffffffff1660e01b8152600401808373ffffffffffffffffffffffffffffffffffffffff16815260200182815260200192505050602060405180830381600087803b158015612acf57600080fd5b505af1158015612ae3573d6000803e3d6000fd5b505050506040513d6020811015612af957600080fd5b8101908080519060200190929190505050508473ffffffffffffffffffffffffffffffffffffffff1663095ea7b38260006040518363ffffffff1660e01b8152600401808373ffffffffffffffffffffffffffffffffffffffff16815260200182815260200192505050602060405180830381600087803b158015612b7d57600080fd5b505af1158015612b91573d6000803e3d6000fd5b505050506040513d6020811015612ba757600080fd5b8101908080519060200190929190505050508473ffffffffffffffffffffffffffffffffffffffff1663095ea7b382856040518363ffffffff1660e01b8152600401808373ffffffffffffffffffffffffffffffffffffffff16815260200182815260200192505050602060405180830381600087803b158015612c2a57600080fd5b505af1158015612c3e573d6000803e3d6000fd5b505050506040513d6020811015612c5457600080fd5b81019080805190602001909291905050505060008173ffffffffffffffffffffffffffffffffffffffff1663e8e33700888888886000808f612ca16102584261312990919063ffffffff16565b6040518963ffffffff1660e01b8152600401808973ffffffffffffffffffffffffffffffffffffffff1681526020018873ffffffffffffffffffffffffffffffffffffffff1681526020018781526020018681526020018581526020018481526020018373ffffffffffffffffffffffffffffffffffffffff16815260200182815260200198505050505050505050606060405180830381600087803b158015612d4a57600080fd5b505af1158015612d5e573d6000803e3d6000fd5b505050506040513d6060811015612d7457600080fd5b81019080805190602001909291908051906020019092919080519060200190929190505050925050507ff9ffff2daaa6b9472b5654f7e769ff05f7b28406632388932f783c6b97f2f58288888888888642604051808873ffffffffffffffffffffffffffffffffffffffff1681526020018773ffffffffffffffffffffffffffffffffffffffff1681526020018673ffffffffffffffffffffffffffffffffffffffff16815260200185815260200184815260200183815260200182815260200197505050505050505060405180910390a1809250505095945050505050565b60008060007f000000000000000000000000000000000000000000000000000000000000000073ffffffffffffffffffffffffffffffffffffffff166304433bbc6040518163ffffffff1660e01b815260040180806020018281038252600d8152602001807f55626573776170526f757465720000000000000000000000000000000000000081525060200191505060206040518083038186803b158015612efb57600080fd5b505afa158015612f0f573d6000803e3d6000fd5b505050506040513d6020811015612f2557600080fd5b810190808051906020019092919050505090506000808273ffffffffffffffffffffffffffffffffffffffff1663baa2abde8989896000808f612f736102584261312990919063ffffffff16565b6040518863ffffffff1660e01b8152600401808873ffffffffffffffffffffffffffffffffffffffff1681526020018773ffffffffffffffffffffffffffffffffffffffff1681526020018681526020018581526020018481526020018373ffffffffffffffffffffffffffffffffffffffff1681526020018281526020019750505050505050506040805180830381600087803b15801561301457600080fd5b505af1158015613028573d6000803e3d6000fd5b505050506040513d604081101561303e57600080fd5b810190808051906020019092919080519060200190929190505050915091507f429032ba83790adfa842a372bffc1d5c12b6166819d7d0c597c3cd972c6ff786898989858542604051808773ffffffffffffffffffffffffffffffffffffffff1681526020018673ffffffffffffffffffffffffffffffffffffffff1681526020018573ffffffffffffffffffffffffffffffffffffffff168152602001848152602001838152602001828152602001965050505050505060405180910390a181819450945050505094509492505050565b60008082848161311c57fe5b0490508091505092915050565b60008082840190508381101561313b57fe5b809150509291505056fe4261736555626573776170416461707465723a20696e76616c6964206164647265737320666f7220746f6b656e414261736555626573776170416461707465723a206d696e416d6f756e744f75742065786365656473206d617820736c6970706167654261736555626573776170416461707465723a20696e76616c696420706f6f6c20616464726573734261736555626573776170416461707465723a20696e76616c6964206661726d20616464726573734f6e6c792074686520706f6f6c2063616e2063616c6c20746869732066756e6374696f6e4e756d626572206f6620746f6b656e73206d7573742062652067726561746572207468616e20304261736555626573776170416461707465723a20696e76616c6964206164647265737320666f7220746f6b656e424f6e6c79207468652074726164696e6720626f742063616e2063616c6c20746869732066756e6374696f6e4261736555626573776170416461707465723a20696e76616c6964206164647265737320666f722070616972a26469706673582212209b0aaa940e1da24e65c0a055f42a767149dfb257f742bec98783e8695bdb535964736f6c634300060c0033",
  "immutableReferences": {
    "4757": [
      {
        "length": 32,
        "start": 2236
      },
      {
        "length": 32,
        "start": 2552
      },
      {
        "length": 32,
        "start": 3490
      },
      {
        "length": 32,
        "start": 3529
      },
      {
        "length": 32,
        "start": 3754
      },
      {
        "length": 32,
        "start": 5813
      },
      {
        "length": 32,
        "start": 6118
      },
      {
        "length": 32,
        "start": 7143
      },
      {
        "length": 32,
        "start": 7820
      },
      {
        "length": 32,
        "start": 8393
      },
      {
        "length": 32,
        "start": 8970
      },
      {
        "length": 32,
        "start": 10451
      },
      {
        "length": 32,
        "start": 11867
      }
    ]
  },
  "source": "pragma solidity >=0.5.0;\r\n\r\n//Interfaces\r\nimport './interfaces/IUniswapV2Router02.sol';\r\nimport './interfaces/IERC20.sol';\r\nimport './interfaces/ISettings.sol';\r\nimport './interfaces/IAddressResolver.sol';\r\nimport './interfaces/IBaseUbeswapAdapter.sol';\r\nimport './interfaces/IUbeswapPoolManager.sol';\r\nimport './interfaces/IStakingRewards.sol';\r\nimport './interfaces/IUniswapV2Factory.sol';\r\n\r\n//Libraries\r\nimport './libraries/SafeMath.sol';\r\n\r\ncontract TestUbeswapAdapter is IBaseUbeswapAdapter {\r\n    using SafeMath for uint;\r\n\r\n    // Max slippage percent allowed\r\n    uint public constant override MAX_SLIPPAGE_PERCENT = 10; //10% slippage\r\n\r\n    //Artificial CELO price used for testing\r\n    uint public USDperCELO = 5;\r\n\r\n    IAddressResolver public immutable ADDRESS_RESOLVER;\r\n\r\n    constructor(IAddressResolver addressResolver) public {\r\n        ADDRESS_RESOLVER = addressResolver;\r\n    }\r\n\r\n    /* ========== VIEWS ========== */\r\n\r\n    /**\r\n    * @dev Given an input asset address, returns the price of the asset in cUSD\r\n    * @param currencyKey Address of the asset\r\n    * @return uint Price of the asset\r\n    */\r\n    function getPrice(address currencyKey) public view override returns(uint) {\r\n        address settingsAddress = ADDRESS_RESOLVER.getContractAddress(\"Settings\");\r\n        address stableCoinAddress = ISettings(settingsAddress).getStableCoinAddress();\r\n\r\n        //Check if currency key is cUSD\r\n        if (currencyKey == stableCoinAddress)\r\n        {\r\n            return 10 ** 18;\r\n        }\r\n\r\n        require(currencyKey != address(0), \"Invalid currency key\");\r\n\r\n        //Return CELO price\r\n        return USDperCELO.mul(10 ** 18);\r\n    }\r\n\r\n    /**\r\n    * @dev Given an input asset amount, returns the maximum output amount of the other asset\r\n    * @notice Assumes numberOfTokens is multiplied by currency's decimals before function call\r\n    * @param numberOfTokens Number of tokens\r\n    * @param currencyKeyIn Address of the asset to be swap from\r\n    * @param currencyKeyOut Address of the asset to be swap to\r\n    * @return uint Amount out of the asset\r\n    */\r\n    function getAmountsOut(uint numberOfTokens, address currencyKeyIn, address currencyKeyOut) public view override returns (uint) {\r\n        address settingsAddress = ADDRESS_RESOLVER.getContractAddress(\"Settings\");\r\n        address ubeswapRouterAddress = ADDRESS_RESOLVER.getContractAddress(\"UbeswapRouter\");\r\n        address stableCoinAddress = ISettings(settingsAddress).getStableCoinAddress();\r\n\r\n        require(currencyKeyIn != address(0), \"Invalid currency key in\");\r\n        require(currencyKeyOut != address(0), \"Invalid currency key out\");\r\n        require(ISettings(settingsAddress).checkIfCurrencyIsAvailable(currencyKeyIn) || currencyKeyIn == stableCoinAddress, \"Currency is not available\");\r\n        require(ISettings(settingsAddress).checkIfCurrencyIsAvailable(currencyKeyOut) || currencyKeyOut == stableCoinAddress, \"Currency is not available\");\r\n        require(numberOfTokens > 0, \"Number of tokens must be greater than 0\");\r\n\r\n        address[] memory path = new address[](2);\r\n        path[0] = currencyKeyIn;\r\n        path[1] = currencyKeyOut;\r\n        uint[] memory amounts = IUniswapV2Router02(ubeswapRouterAddress).getAmountsOut(numberOfTokens, path);\r\n\r\n        return amounts[1];\r\n    }\r\n\r\n    /**\r\n    * @dev Sets the CELO price to the specified price\r\n    * @notice This function is only used for testing\r\n    * @param newPrice Price of CELO per USD\r\n    */\r\n    function setPrice(uint newPrice) public {\r\n        USDperCELO = newPrice;\r\n    }\r\n\r\n    /**\r\n    * @dev Returns the farm address and liquidity pool address for each available farm on Ubeswap\r\n    * @return address[] memory The farm address for each available farm\r\n    */\r\n    function getAvailableUbeswapFarms() public view override returns (address[] memory) {\r\n        address ubeswapPoolManagerAddress = ADDRESS_RESOLVER.getContractAddress(\"UbeswapPoolManager\");\r\n\r\n        uint numberOfAvailableFarms = IUbeswapPoolManager(ubeswapPoolManagerAddress).poolsCount();\r\n        address[] memory farmAddresses = new address[](numberOfAvailableFarms);\r\n\r\n        for (uint i = 0; i < numberOfAvailableFarms; i++)\r\n        {\r\n            farmAddresses[i] = IUbeswapPoolManager(ubeswapPoolManagerAddress).poolsByIndex(i);\r\n        }\r\n\r\n        return farmAddresses;\r\n    }\r\n\r\n    /**\r\n    * @dev Given the address of a farm on Ubeswap, returns the farm's staking token address\r\n    * @param farmAddress Address of the farm to check\r\n    * @return address The farm's staking token address\r\n    */\r\n    function checkIfFarmExists(address farmAddress) public view override returns (address) {\r\n        require(farmAddress != address(0), \"Invalid farm address\");\r\n\r\n        return IStakingRewards(farmAddress).stakingToken();\r\n    }\r\n\r\n    /**\r\n    * @dev Returns the address of a token pair\r\n    * @param tokenA First token in pair\r\n    * @param tokenB Second token in pair\r\n    * @return address The pair's address\r\n    */\r\n    function getPair(address tokenA, address tokenB) public view override returns (address) {\r\n        require(tokenA != address(0), \"BaseUbeswapAdapter: invalid address for tokenA\");\r\n        require(tokenB != address(0), \"BaseUbeswapAdapter: invalid address for tokenB\");\r\n\r\n        address uniswapV2FactoryAddress = ADDRESS_RESOLVER.getContractAddress(\"UniswapV2Factory\");\r\n\r\n        return IUniswapV2Factory(uniswapV2FactoryAddress).getPair(tokenA, tokenB);\r\n    }\r\n\r\n    /**\r\n    * @dev Returns the amount of UBE rewards available for the pool in the given farm\r\n    * @param poolAddress Address of the pool\r\n    * @param farmAddress Address of the farm on Ubeswap\r\n    * @return uint Amount of UBE available\r\n    */\r\n    function getAvailableRewards(address poolAddress, address farmAddress) public view override returns (uint) {\r\n        require(poolAddress != address(0), \"BaseUbeswapAdapter: invalid pool address\");\r\n        require(checkIfFarmExists(farmAddress) != address(0), \"BaseUbeswapAdapter: invalid farm address\");\r\n\r\n        return IStakingRewards(farmAddress).earned(poolAddress);\r\n    }\r\n\r\n    /**\r\n    * @dev Calculates the amount of tokens in a pair\r\n    * @param tokenA First token in pair\r\n    * @param tokenB Second token in pair\r\n    * @param numberOfLPTokens Number of LP tokens for the given pair\r\n    * @return (uint, uint) The number of tokens for tokenA and tokenB\r\n    */\r\n    function getTokenAmountsFromPair(address tokenA, address tokenB, uint numberOfLPTokens) public view override returns (uint, uint) {\r\n        address pair = getPair(tokenA, tokenB);\r\n        require(pair != address(0), \"BaseUbeswapAdapter: invalid address for pair\");\r\n\r\n        uint pairBalanceTokenA = IERC20(tokenA).balanceOf(pair);\r\n        uint pairBalanceTokenB = IERC20(tokenB).balanceOf(pair);\r\n        uint totalSupply = IERC20(pair).totalSupply();\r\n\r\n        uint amountA = pairBalanceTokenA.mul(numberOfLPTokens).div(totalSupply);\r\n        uint amountB = pairBalanceTokenB.mul(numberOfLPTokens).div(totalSupply);\r\n\r\n        return (amountA, amountB);\r\n    }\r\n\r\n    /* ========== RESTRICTED FUNCTIONS ========== */\r\n\r\n    /**\r\n    * @dev Swaps an exact `amountToSwap` of an asset to another; meant to be called from a user pool\r\n    * @notice Pool needs to transfer assetToSwapFrom to BaseUbeswapAdapter before calling this function\r\n    * @param assetToSwapFrom Origin asset\r\n    * @param assetToSwapTo Destination asset\r\n    * @param amountToSwap Exact amount of `assetToSwapFrom` to be swapped\r\n    * @param minAmountOut the min amount of `assetToSwapTo` to be received from the swap\r\n    * @return the number of tokens received\r\n    */\r\n    function swapFromPool(address assetToSwapFrom, address assetToSwapTo, uint amountToSwap, uint minAmountOut) public override returns (uint) {\r\n        require(ADDRESS_RESOLVER.checkIfPoolAddressIsValid(msg.sender), \"Only the pool can call this function\");\r\n\r\n        return _swapExactTokensForTokens(msg.sender, assetToSwapFrom, assetToSwapTo, amountToSwap, minAmountOut);\r\n    }\r\n\r\n    /**\r\n    * @dev Swaps an exact `amountToSwap` of an asset to another; meant to be called from a trading bot\r\n    * @notice Bot needs to transfer assetToSwapFrom to BaseUbeswapAdapter before calling this function\r\n    * @param assetToSwapFrom Origin asset\r\n    * @param assetToSwapTo Destination asset\r\n    * @param amountToSwap Exact amount of `assetToSwapFrom` to be swapped\r\n    * @param minAmountOut the min amount of `assetToSwapTo` to be received from the swap\r\n    * @return the number of tokens received\r\n    */\r\n    function swapFromBot(address assetToSwapFrom, address assetToSwapTo, uint amountToSwap, uint minAmountOut) public override returns (uint) {\r\n        require(ADDRESS_RESOLVER.checkIfTradingBotAddressIsValid(msg.sender), \"Only the trading bot can call this function\");\r\n\r\n        return _swapExactTokensForTokens(msg.sender, assetToSwapFrom, assetToSwapTo, amountToSwap, minAmountOut);\r\n    }\r\n\r\n    /**\r\n    * @dev Adds liquidity for the two given tokens; meant to be called from a pool\r\n    * @param tokenA First token in pair\r\n    * @param tokenB Second token in pair\r\n    * @param amountA Amount of first token\r\n    * @param amountB Amount of second token\r\n    * @return uint The number of tokens LP tokens minted\r\n    */\r\n    function addLiquidity(address tokenA, address tokenB, uint amountA, uint amountB) public override returns (uint) {\r\n        require(ADDRESS_RESOLVER.checkIfPoolAddressIsValid(msg.sender), \"Only the pool can call this function\");\r\n\r\n        return _addLiquidity(msg.sender, tokenA, tokenB, amountA, amountB);\r\n    }\r\n\r\n    /**\r\n    * @dev Removes liquidity for the two given tokens; meant to be called from a pool\r\n    * @param tokenA First token in pair\r\n    * @param tokenB Second token in pair\r\n    * @param numberOfLPTokens Number of LP tokens for the given pair\r\n    * @return (uint, uint) Amount of tokenA and tokenB withdrawn\r\n    */\r\n    function removeLiquidity(address tokenA, address tokenB, uint numberOfLPTokens) public override returns (uint, uint) {\r\n        require(ADDRESS_RESOLVER.checkIfPoolAddressIsValid(msg.sender), \"Only the pool can call this function\");\r\n\r\n        return _removeLiquidity(msg.sender, tokenA, tokenB, numberOfLPTokens);\r\n    }\r\n\r\n    /* ========== INTERNAL FUNCTIONS ========== */\r\n\r\n    /**\r\n    * @dev Swaps an exact `amountToSwap` of an asset to another\r\n    * @notice Assumes amountToSwap is multiplied by currency's decimals before function call\r\n    * @param addressToSwapFrom the pool or bot that is making the swap\r\n    * @param assetToSwapFrom Origin asset\r\n    * @param assetToSwapTo Destination asset\r\n    * @param amountToSwap Exact amount of `assetToSwapFrom` to be swapped\r\n    * @param minAmountOut the min amount of `assetToSwapTo` to be received from the swap\r\n    * @return the amount of tokens received\r\n    */\r\n    function _swapExactTokensForTokens(address addressToSwapFrom, address assetToSwapFrom, address assetToSwapTo, uint amountToSwap, uint minAmountOut) internal returns (uint) {\r\n        uint amountOut = getAmountsOut(amountToSwap, assetToSwapFrom, assetToSwapTo);\r\n        uint expectedMinAmountOut = minAmountOut.mul(100 - MAX_SLIPPAGE_PERCENT).div(100);\r\n\r\n        require(amountOut >= expectedMinAmountOut, 'BaseUbeswapAdapter: minAmountOut exceeds max slippage');\r\n\r\n        address ubeswapRouterAddress = ADDRESS_RESOLVER.getContractAddress(\"UbeswapRouter\");\r\n        // Approves the transfer for the swap. Approves for 0 first to comply with tokens that implement the anti frontrunning approval fix.\r\n        IERC20(assetToSwapFrom).approve(ubeswapRouterAddress, 0);\r\n        IERC20(assetToSwapFrom).approve(ubeswapRouterAddress, amountToSwap);\r\n\r\n        address[] memory path;\r\n        path = new address[](2);\r\n        path[0] = assetToSwapFrom;\r\n        path[1] = assetToSwapTo;\r\n\r\n        uint[] memory amounts = IUniswapV2Router02(ubeswapRouterAddress).swapExactTokensForTokens(amountToSwap, minAmountOut, path, addressToSwapFrom, block.timestamp);\r\n\r\n        emit Swapped(assetToSwapFrom, assetToSwapTo, amounts[0], amounts[amounts.length - 1], block.timestamp);\r\n\r\n        return amounts[amounts.length - 1];\r\n    }\r\n\r\n    /**\r\n    * @dev Adds liquidity for the two given tokens\r\n    * @param addressToAddFrom Address of the pool\r\n    * @param tokenA First token in pair\r\n    * @param tokenB Second token in pair\r\n    * @param amountA Amount of first token\r\n    * @param amountB Amount of second token\r\n    * @return uint The number of tokens LP tokens minted\r\n    */\r\n    function _addLiquidity(address addressToAddFrom, address tokenA, address tokenB, uint amountA, uint amountB) internal returns (uint) {\r\n        address ubeswapRouterAddress = ADDRESS_RESOLVER.getContractAddress(\"UbeswapRouter\");\r\n\r\n        // Approves the transfer for the swap. Approves for 0 first to comply with tokens that implement the anti frontrunning approval fix.\r\n        IERC20(tokenA).approve(ubeswapRouterAddress, 0);\r\n        IERC20(tokenA).approve(ubeswapRouterAddress, amountA);\r\n\r\n        // Approves the transfer for the swap. Approves for 0 first to comply with tokens that implement the anti frontrunning approval fix.\r\n        IERC20(tokenB).approve(ubeswapRouterAddress, 0);\r\n        IERC20(tokenB).approve(ubeswapRouterAddress, amountB);\r\n\r\n        (,, uint numberOfLPTokens) = IUniswapV2Router02(ubeswapRouterAddress).addLiquidity(tokenA, tokenB, amountA, amountB, 0, 0, addressToAddFrom, block.timestamp.add(10 minutes));\r\n\r\n        emit AddedLiquidity(addressToAddFrom, tokenA, tokenB, amountA, amountB, numberOfLPTokens, block.timestamp);\r\n\r\n        return numberOfLPTokens;\r\n    }\r\n\r\n    /**\r\n    * @dev Removes liquidity for the two given tokens\r\n    * @param addressToRemoveFrom Address of the pool\r\n    * @param tokenA First token in pair\r\n    * @param tokenB Second token in pair\r\n    * @param numberOfLPTokens Number of LP tokens for the given pair\r\n    * @return (uint, uint) Amount of tokenA and tokenB withdrawn\r\n    */\r\n    function _removeLiquidity(address addressToRemoveFrom, address tokenA, address tokenB, uint numberOfLPTokens) internal returns (uint, uint) {\r\n        address ubeswapRouterAddress = ADDRESS_RESOLVER.getContractAddress(\"UbeswapRouter\");\r\n\r\n        (uint amountAReceived, uint amountBReceived) = IUniswapV2Router02(ubeswapRouterAddress).removeLiquidity(tokenA, tokenB, numberOfLPTokens, 0, 0, addressToRemoveFrom, block.timestamp.add(10 minutes));\r\n        emit RemovedLiquidity(addressToRemoveFrom, tokenA, tokenB, amountAReceived, amountBReceived, block.timestamp);\r\n\r\n        return (amountAReceived, amountBReceived);\r\n    }\r\n\r\n    /**\r\n    * @dev Get the decimals of an asset\r\n    * @return number of decimals of the asset\r\n    */\r\n    function _getDecimals(address asset) internal view returns (uint) {\r\n        return IERC20(asset).decimals();\r\n    }\r\n\r\n    /* ========== EVENTS ========== */\r\n\r\n    event Swapped(address fromAsset, address toAsset, uint fromAmount, uint receivedAmount, uint timestamp);\r\n    event AddedLiquidity(address addressAddedFrom, address tokenA, address tokenB, uint amountA, uint amountB, uint numberOfLPTokens, uint timestamp);\r\n    event RemovedLiquidity(address addressRemovedFrom, address tokenA, address tokenB, uint amountAReceived, uint amountBReceived, uint timestamp);\r\n}",
  "sourcePath": "C:/Users/xavie/OneDrive/Desktop/TradeGen/Github/tradegen/contracts/TestUbeswapAdapter.sol",
  "compiler": {
    "name": "solc",
    "version": "0.6.12+commit.27d51765.Emscripten.clang"
  },
  "schemaVersion": "3.4.1",
  "updatedAt": "2021-08-09T16:04:44.459Z",
  "devdoc": {
    "kind": "dev",
    "methods": {
      "addLiquidity(address,address,uint256,uint256)": {
        "details": "Adds liquidity for the two given tokens; meant to be called from a pool",
        "params": {
          "amountA": "Amount of first token",
          "amountB": "Amount of second token",
          "tokenA": "First token in pair",
          "tokenB": "Second token in pair"
        },
        "returns": {
          "_0": "uint The number of tokens LP tokens minted"
        }
      },
      "checkIfFarmExists(address)": {
        "details": "Given the address of a farm on Ubeswap, returns the farm's staking token address",
        "params": {
          "farmAddress": "Address of the farm to check"
        },
        "returns": {
          "_0": "address The farm's staking token address"
        }
      },
      "getAmountsOut(uint256,address,address)": {
        "details": "Given an input asset amount, returns the maximum output amount of the other asset",
        "params": {
          "currencyKeyIn": "Address of the asset to be swap from",
          "currencyKeyOut": "Address of the asset to be swap to",
          "numberOfTokens": "Number of tokens"
        },
        "returns": {
          "_0": "uint Amount out of the asset"
        }
      },
      "getAvailableRewards(address,address)": {
        "details": "Returns the amount of UBE rewards available for the pool in the given farm",
        "params": {
          "farmAddress": "Address of the farm on Ubeswap",
          "poolAddress": "Address of the pool"
        },
        "returns": {
          "_0": "uint Amount of UBE available"
        }
      },
      "getAvailableUbeswapFarms()": {
        "details": "Returns the farm address and liquidity pool address for each available farm on Ubeswap",
        "returns": {
          "_0": "address[] memory The farm address for each available farm"
        }
      },
      "getPair(address,address)": {
        "details": "Returns the address of a token pair",
        "params": {
          "tokenA": "First token in pair",
          "tokenB": "Second token in pair"
        },
        "returns": {
          "_0": "address The pair's address"
        }
      },
      "getPrice(address)": {
        "details": "Given an input asset address, returns the price of the asset in cUSD",
        "params": {
          "currencyKey": "Address of the asset"
        },
        "returns": {
          "_0": "uint Price of the asset"
        }
      },
      "getTokenAmountsFromPair(address,address,uint256)": {
        "details": "Calculates the amount of tokens in a pair",
        "params": {
          "numberOfLPTokens": "Number of LP tokens for the given pair",
          "tokenA": "First token in pair",
          "tokenB": "Second token in pair"
        },
        "returns": {
          "_0": "(uint, uint) The number of tokens for tokenA and tokenB"
        }
      },
      "removeLiquidity(address,address,uint256)": {
        "details": "Removes liquidity for the two given tokens; meant to be called from a pool",
        "params": {
          "numberOfLPTokens": "Number of LP tokens for the given pair",
          "tokenA": "First token in pair",
          "tokenB": "Second token in pair"
        },
        "returns": {
          "_0": "(uint, uint) Amount of tokenA and tokenB withdrawn"
        }
      },
      "setPrice(uint256)": {
        "details": "Sets the CELO price to the specified price",
        "params": {
          "newPrice": "Price of CELO per USD"
        }
      },
      "swapFromBot(address,address,uint256,uint256)": {
        "details": "Swaps an exact `amountToSwap` of an asset to another; meant to be called from a trading bot",
        "params": {
          "amountToSwap": "Exact amount of `assetToSwapFrom` to be swapped",
          "assetToSwapFrom": "Origin asset",
          "assetToSwapTo": "Destination asset",
          "minAmountOut": "the min amount of `assetToSwapTo` to be received from the swap"
        },
        "returns": {
          "_0": "the number of tokens received"
        }
      },
      "swapFromPool(address,address,uint256,uint256)": {
        "details": "Swaps an exact `amountToSwap` of an asset to another; meant to be called from a user pool",
        "params": {
          "amountToSwap": "Exact amount of `assetToSwapFrom` to be swapped",
          "assetToSwapFrom": "Origin asset",
          "assetToSwapTo": "Destination asset",
          "minAmountOut": "the min amount of `assetToSwapTo` to be received from the swap"
        },
        "returns": {
          "_0": "the number of tokens received"
        }
      }
    },
    "version": 1
  },
  "userdoc": {
    "kind": "user",
    "methods": {
      "getAmountsOut(uint256,address,address)": {
        "notice": "Assumes numberOfTokens is multiplied by currency's decimals before function call"
      },
      "setPrice(uint256)": {
        "notice": "This function is only used for testing"
      },
      "swapFromBot(address,address,uint256,uint256)": {
        "notice": "Bot needs to transfer assetToSwapFrom to BaseUbeswapAdapter before calling this function"
      },
      "swapFromPool(address,address,uint256,uint256)": {
        "notice": "Pool needs to transfer assetToSwapFrom to BaseUbeswapAdapter before calling this function"
      }
    },
    "version": 1
  }
}