{
  "contractName": "TradegenLPStakingRewards",
  "abi": [
    {
      "inputs": [
        {
          "internalType": "contract IAddressResolver",
          "name": "_addressResolver",
          "type": "address"
        }
      ],
      "stateMutability": "nonpayable",
      "type": "constructor"
    },
    {
      "anonymous": false,
      "inputs": [
        {
          "indexed": true,
          "internalType": "address",
          "name": "previousOwner",
          "type": "address"
        },
        {
          "indexed": true,
          "internalType": "address",
          "name": "newOwner",
          "type": "address"
        }
      ],
      "name": "OwnershipTransferred",
      "type": "event"
    },
    {
      "anonymous": false,
      "inputs": [
        {
          "indexed": true,
          "internalType": "address",
          "name": "user",
          "type": "address"
        },
        {
          "indexed": false,
          "internalType": "uint256",
          "name": "amount",
          "type": "uint256"
        },
        {
          "indexed": false,
          "internalType": "uint256",
          "name": "timestamp",
          "type": "uint256"
        }
      ],
      "name": "RewardPaid",
      "type": "event"
    },
    {
      "anonymous": false,
      "inputs": [
        {
          "indexed": true,
          "internalType": "address",
          "name": "beneficiary",
          "type": "address"
        },
        {
          "indexed": false,
          "internalType": "uint256",
          "name": "total",
          "type": "uint256"
        },
        {
          "indexed": false,
          "internalType": "uint256",
          "name": "vestingTimestamp",
          "type": "uint256"
        },
        {
          "indexed": false,
          "internalType": "uint256",
          "name": "timestamp",
          "type": "uint256"
        }
      ],
      "name": "Staked",
      "type": "event"
    },
    {
      "anonymous": false,
      "inputs": [
        {
          "indexed": true,
          "internalType": "address",
          "name": "beneficiary",
          "type": "address"
        },
        {
          "indexed": false,
          "internalType": "uint256",
          "name": "time",
          "type": "uint256"
        },
        {
          "indexed": false,
          "internalType": "uint256",
          "name": "value",
          "type": "uint256"
        }
      ],
      "name": "Vested",
      "type": "event"
    },
    {
      "inputs": [],
      "name": "ADDRESS_RESOLVER",
      "outputs": [
        {
          "internalType": "contract IAddressResolver",
          "name": "",
          "type": "address"
        }
      ],
      "stateMutability": "view",
      "type": "function"
    },
    {
      "inputs": [],
      "name": "MAX_VESTING_ENTRIES",
      "outputs": [
        {
          "internalType": "uint256",
          "name": "",
          "type": "uint256"
        }
      ],
      "stateMutability": "view",
      "type": "function"
    },
    {
      "inputs": [],
      "name": "QUANTITY_INDEX",
      "outputs": [
        {
          "internalType": "uint256",
          "name": "",
          "type": "uint256"
        }
      ],
      "stateMutability": "view",
      "type": "function"
    },
    {
      "inputs": [],
      "name": "TIME_INDEX",
      "outputs": [
        {
          "internalType": "uint256",
          "name": "",
          "type": "uint256"
        }
      ],
      "stateMutability": "view",
      "type": "function"
    },
    {
      "inputs": [],
      "name": "TOKENS_INDEX",
      "outputs": [
        {
          "internalType": "uint256",
          "name": "",
          "type": "uint256"
        }
      ],
      "stateMutability": "view",
      "type": "function"
    },
    {
      "inputs": [],
      "name": "isOwner",
      "outputs": [
        {
          "internalType": "bool",
          "name": "",
          "type": "bool"
        }
      ],
      "stateMutability": "view",
      "type": "function"
    },
    {
      "inputs": [],
      "name": "lastUpdateTime",
      "outputs": [
        {
          "internalType": "uint256",
          "name": "",
          "type": "uint256"
        }
      ],
      "stateMutability": "view",
      "type": "function"
    },
    {
      "inputs": [],
      "name": "owner",
      "outputs": [
        {
          "internalType": "address",
          "name": "",
          "type": "address"
        }
      ],
      "stateMutability": "view",
      "type": "function"
    },
    {
      "inputs": [],
      "name": "renounceOwnership",
      "outputs": [],
      "stateMutability": "nonpayable",
      "type": "function"
    },
    {
      "inputs": [],
      "name": "rewardPerTokenStored",
      "outputs": [
        {
          "internalType": "uint256",
          "name": "",
          "type": "uint256"
        }
      ],
      "stateMutability": "view",
      "type": "function"
    },
    {
      "inputs": [
        {
          "internalType": "address",
          "name": "",
          "type": "address"
        }
      ],
      "name": "rewards",
      "outputs": [
        {
          "internalType": "uint256",
          "name": "",
          "type": "uint256"
        }
      ],
      "stateMutability": "view",
      "type": "function"
    },
    {
      "inputs": [
        {
          "internalType": "address",
          "name": "",
          "type": "address"
        }
      ],
      "name": "totalVestedAccountBalance",
      "outputs": [
        {
          "internalType": "uint256",
          "name": "",
          "type": "uint256"
        }
      ],
      "stateMutability": "view",
      "type": "function"
    },
    {
      "inputs": [],
      "name": "totalVestedBalance",
      "outputs": [
        {
          "internalType": "uint256",
          "name": "",
          "type": "uint256"
        }
      ],
      "stateMutability": "view",
      "type": "function"
    },
    {
      "inputs": [
        {
          "internalType": "address",
          "name": "newOwner",
          "type": "address"
        }
      ],
      "name": "transferOwnership",
      "outputs": [],
      "stateMutability": "nonpayable",
      "type": "function"
    },
    {
      "inputs": [
        {
          "internalType": "address",
          "name": "",
          "type": "address"
        }
      ],
      "name": "userRewardPerTokenPaid",
      "outputs": [
        {
          "internalType": "uint256",
          "name": "",
          "type": "uint256"
        }
      ],
      "stateMutability": "view",
      "type": "function"
    },
    {
      "inputs": [
        {
          "internalType": "address",
          "name": "",
          "type": "address"
        },
        {
          "internalType": "uint256",
          "name": "",
          "type": "uint256"
        },
        {
          "internalType": "uint256",
          "name": "",
          "type": "uint256"
        }
      ],
      "name": "vestingSchedules",
      "outputs": [
        {
          "internalType": "uint256",
          "name": "",
          "type": "uint256"
        }
      ],
      "stateMutability": "view",
      "type": "function"
    },
    {
      "inputs": [],
      "name": "rewardRate",
      "outputs": [
        {
          "internalType": "uint256",
          "name": "",
          "type": "uint256"
        }
      ],
      "stateMutability": "view",
      "type": "function"
    },
    {
      "inputs": [],
      "name": "totalSupply",
      "outputs": [
        {
          "internalType": "uint256",
          "name": "",
          "type": "uint256"
        }
      ],
      "stateMutability": "view",
      "type": "function"
    },
    {
      "inputs": [],
      "name": "stakingToken",
      "outputs": [
        {
          "internalType": "address",
          "name": "",
          "type": "address"
        }
      ],
      "stateMutability": "view",
      "type": "function"
    },
    {
      "inputs": [],
      "name": "rewardsToken",
      "outputs": [
        {
          "internalType": "address",
          "name": "",
          "type": "address"
        }
      ],
      "stateMutability": "view",
      "type": "function"
    },
    {
      "inputs": [
        {
          "internalType": "address",
          "name": "account",
          "type": "address"
        }
      ],
      "name": "balanceOf",
      "outputs": [
        {
          "internalType": "uint256",
          "name": "",
          "type": "uint256"
        }
      ],
      "stateMutability": "view",
      "type": "function"
    },
    {
      "inputs": [
        {
          "internalType": "address",
          "name": "account",
          "type": "address"
        }
      ],
      "name": "numVestingEntries",
      "outputs": [
        {
          "internalType": "uint256",
          "name": "",
          "type": "uint256"
        }
      ],
      "stateMutability": "view",
      "type": "function"
    },
    {
      "inputs": [
        {
          "internalType": "address",
          "name": "account",
          "type": "address"
        },
        {
          "internalType": "uint256",
          "name": "index",
          "type": "uint256"
        }
      ],
      "name": "getVestingScheduleEntry",
      "outputs": [
        {
          "internalType": "uint256[3]",
          "name": "",
          "type": "uint256[3]"
        }
      ],
      "stateMutability": "view",
      "type": "function"
    },
    {
      "inputs": [
        {
          "internalType": "address",
          "name": "account",
          "type": "address"
        },
        {
          "internalType": "uint256",
          "name": "index",
          "type": "uint256"
        }
      ],
      "name": "getVestingTime",
      "outputs": [
        {
          "internalType": "uint256",
          "name": "",
          "type": "uint256"
        }
      ],
      "stateMutability": "view",
      "type": "function"
    },
    {
      "inputs": [
        {
          "internalType": "address",
          "name": "account",
          "type": "address"
        },
        {
          "internalType": "uint256",
          "name": "index",
          "type": "uint256"
        }
      ],
      "name": "getVestingQuantity",
      "outputs": [
        {
          "internalType": "uint256",
          "name": "",
          "type": "uint256"
        }
      ],
      "stateMutability": "view",
      "type": "function"
    },
    {
      "inputs": [
        {
          "internalType": "address",
          "name": "account",
          "type": "address"
        },
        {
          "internalType": "uint256",
          "name": "index",
          "type": "uint256"
        }
      ],
      "name": "getVestingTokenAmount",
      "outputs": [
        {
          "internalType": "uint256",
          "name": "",
          "type": "uint256"
        }
      ],
      "stateMutability": "view",
      "type": "function"
    },
    {
      "inputs": [
        {
          "internalType": "address",
          "name": "account",
          "type": "address"
        }
      ],
      "name": "getNextVestingIndex",
      "outputs": [
        {
          "internalType": "uint256",
          "name": "",
          "type": "uint256"
        }
      ],
      "stateMutability": "view",
      "type": "function"
    },
    {
      "inputs": [],
      "name": "rewardPerToken",
      "outputs": [
        {
          "internalType": "uint256",
          "name": "",
          "type": "uint256"
        }
      ],
      "stateMutability": "view",
      "type": "function"
    },
    {
      "inputs": [
        {
          "internalType": "address",
          "name": "account",
          "type": "address"
        }
      ],
      "name": "earned",
      "outputs": [
        {
          "internalType": "uint256",
          "name": "",
          "type": "uint256"
        }
      ],
      "stateMutability": "view",
      "type": "function"
    },
    {
      "inputs": [
        {
          "internalType": "address",
          "name": "account",
          "type": "address"
        }
      ],
      "name": "getNextVestingEntry",
      "outputs": [
        {
          "internalType": "uint256[3]",
          "name": "",
          "type": "uint256[3]"
        }
      ],
      "stateMutability": "view",
      "type": "function"
    },
    {
      "inputs": [
        {
          "internalType": "address",
          "name": "account",
          "type": "address"
        }
      ],
      "name": "getNextVestingTime",
      "outputs": [
        {
          "internalType": "uint256",
          "name": "",
          "type": "uint256"
        }
      ],
      "stateMutability": "view",
      "type": "function"
    },
    {
      "inputs": [
        {
          "internalType": "address",
          "name": "account",
          "type": "address"
        }
      ],
      "name": "getNextVestingQuantity",
      "outputs": [
        {
          "internalType": "uint256",
          "name": "",
          "type": "uint256"
        }
      ],
      "stateMutability": "view",
      "type": "function"
    },
    {
      "inputs": [],
      "name": "getUSDValueOfContract",
      "outputs": [
        {
          "internalType": "uint256",
          "name": "",
          "type": "uint256"
        }
      ],
      "stateMutability": "view",
      "type": "function"
    },
    {
      "inputs": [
        {
          "internalType": "uint256",
          "name": "numberOfTokens",
          "type": "uint256"
        }
      ],
      "name": "calculateValueOfLPTokens",
      "outputs": [
        {
          "internalType": "uint256",
          "name": "",
          "type": "uint256"
        }
      ],
      "stateMutability": "view",
      "type": "function"
    },
    {
      "inputs": [
        {
          "internalType": "uint256",
          "name": "amount",
          "type": "uint256"
        },
        {
          "internalType": "uint256",
          "name": "numberOfWeeks",
          "type": "uint256"
        }
      ],
      "name": "stake",
      "outputs": [],
      "stateMutability": "nonpayable",
      "type": "function"
    },
    {
      "inputs": [],
      "name": "vest",
      "outputs": [],
      "stateMutability": "nonpayable",
      "type": "function"
    },
    {
      "inputs": [],
      "name": "getReward",
      "outputs": [],
      "stateMutability": "nonpayable",
      "type": "function"
    }
  ],
  "bytecode": "0x60a060405234801561001057600080fd5b506040516137413803806137418339818101604052602081101561003357600080fd5b8101908080519060200190929190505050336000806101000a81548173ffffffffffffffffffffffffffffffffffffffff021916908373ffffffffffffffffffffffffffffffffffffffff16021790555060008054906101000a900473ffffffffffffffffffffffffffffffffffffffff1673ffffffffffffffffffffffffffffffffffffffff16600073ffffffffffffffffffffffffffffffffffffffff167f8be0079c531659141344cd1fd0a4f28419497f9722a3daafe3b4186f6b6457e060405160405180910390a3600180819055508073ffffffffffffffffffffffffffffffffffffffff1660808173ffffffffffffffffffffffffffffffffffffffff1660601b81525050426002819055505060805160601c6135b761018a60003980610d685280611ab45280611b955280611cfb52806122ac528061250a528061256752806127a45280612ad452506135b76000f3fe608060405234801561001057600080fd5b50600436106102265760003560e01c80637b0472f011610130578063a15d59ce116100b8578063d1af0c7d1161007c578063d1af0c7d14610973578063da7bd3e9146109a7578063df136d6514610a31578063ee1d036c14610a4f578063f2fde38b14610ab157610226565b8063a15d59ce146108dd578063c8f33c91146108fb578063c96f6c0914610919578063cd3daf9d14610937578063d0cc82e31461095557610226565b80638da5cb5b116100ff5780638da5cb5b1461079b5780638f32d59b146107cf57806397f46527146107ef578063981f3b8e146108475780639b217f901461087b57610226565b80637b0472f0146106cf5780637b0a47ee146107075780638ad58777146107255780638b8763471461074357610226565b80633d18b912116101b357806363667eb71161018257806363667eb7146105c35780636b3905c4146105e157806370a0823114610639578063715018a61461069157806372f702f31461069b57610226565b80633d18b91214610525578063458efde31461052f57806345e5441f1461053957806359d8017c146105a557610226565b806319e740c0116101fa57806319e740c01461035b578063204b676a146103b3578063227d517a1461040b5780632659ce56146104635780632f5bb661146104a557610226565b80628cc2621461022b5780630700037d1461028357806308063bc7146102db57806318160ddd1461033d575b600080fd5b61026d6004803603602081101561024157600080fd5b81019080803573ffffffffffffffffffffffffffffffffffffffff169060200190929190505050610af5565b6040518082815260200191505060405180910390f35b6102c56004803603602081101561029957600080fd5b81019080803573ffffffffffffffffffffffffffffffffffffffff169060200190929190505050610c13565b6040518082815260200191505060405180910390f35b610327600480360360408110156102f157600080fd5b81019080803573ffffffffffffffffffffffffffffffffffffffff16906020019092919080359060200190929190505050610c2b565b6040518082815260200191505060405180910390f35b610345610c50565b6040518082815260200191505060405180910390f35b61039d6004803603602081101561037157600080fd5b81019080803573ffffffffffffffffffffffffffffffffffffffff169060200190929190505050610c5a565b6040518082815260200191505060405180910390f35b6103f5600480360360208110156103c957600080fd5b81019080803573ffffffffffffffffffffffffffffffffffffffff169060200190929190505050610ca6565b6040518082815260200191505060405180910390f35b61044d6004803603602081101561042157600080fd5b81019080803573ffffffffffffffffffffffffffffffffffffffff169060200190929190505050610cf2565b6040518082815260200191505060405180910390f35b61048f6004803603602081101561047957600080fd5b8101908080359060200190929190505050610d0a565b6040518082815260200191505060405180910390f35b6104e7600480360360208110156104bb57600080fd5b81019080803573ffffffffffffffffffffffffffffffffffffffff16906020019092919050505061130d565b6040518082600360200280838360005b838110156105125780820151818401526020810190506104f7565b5050505090500191505060405180910390f35b61052d61136b565b005b6105376113fe565b005b61058f6004803603606081101561054f57600080fd5b81019080803573ffffffffffffffffffffffffffffffffffffffff1690602001909291908035906020019092919080359060200190929190505050611907565b6040518082815260200191505060405180910390f35b6105ad61194c565b6040518082815260200191505060405180910390f35b6105cb61196f565b6040518082815260200191505060405180910390f35b610623600480360360208110156105f757600080fd5b81019080803573ffffffffffffffffffffffffffffffffffffffff169060200190929190505050611974565b6040518082815260200191505060405180910390f35b61067b6004803603602081101561064f57600080fd5b81019080803573ffffffffffffffffffffffffffffffffffffffff169060200190929190505050611997565b6040518082815260200191505060405180910390f35b6106996119e0565b005b6106a3611aaf565b604051808273ffffffffffffffffffffffffffffffffffffffff16815260200191505060405180910390f35b610705600480360360408110156106e557600080fd5b810190808035906020019092919080359060200190929190505050611ea1565b005b61070f6122a8565b6040518082815260200191505060405180910390f35b61072d612448565b6040518082815260200191505060405180910390f35b6107856004803603602081101561075957600080fd5b81019080803573ffffffffffffffffffffffffffffffffffffffff16906020019092919050505061244d565b6040518082815260200191505060405180910390f35b6107a3612465565b604051808273ffffffffffffffffffffffffffffffffffffffff16815260200191505060405180910390f35b6107d761248e565b60405180821515815260200191505060405180910390f35b6108316004803603602081101561080557600080fd5b81019080803573ffffffffffffffffffffffffffffffffffffffff1690602001909291905050506124e5565b6040518082815260200191505060405180910390f35b61084f612508565b604051808273ffffffffffffffffffffffffffffffffffffffff16815260200191505060405180910390f35b6108c76004803603604081101561089157600080fd5b81019080803573ffffffffffffffffffffffffffffffffffffffff1690602001909291908035906020019092919050505061252c565b6040518082815260200191505060405180910390f35b6108e5612551565b6040518082815260200191505060405180910390f35b610903612557565b6040518082815260200191505060405180910390f35b61092161255d565b6040518082815260200191505060405180910390f35b61093f612562565b6040518082815260200191505060405180910390f35b61095d61279b565b6040518082815260200191505060405180910390f35b61097b6127a0565b604051808273ffffffffffffffffffffffffffffffffffffffff16815260200191505060405180910390f35b6109f3600480360360408110156109bd57600080fd5b81019080803573ffffffffffffffffffffffffffffffffffffffff16906020019092919080359060200190929190505050612884565b6040518082600360200280838360005b83811015610a1e578082015181840152602081019050610a03565b5050505090500191505060405180910390f35b610a39612928565b6040518082815260200191505060405180910390f35b610a9b60048036036040811015610a6557600080fd5b81019080803573ffffffffffffffffffffffffffffffffffffffff1690602001909291908035906020019092919050505061292e565b6040518082815260200191505060405180910390f35b610af360048036036020811015610ac757600080fd5b81019080803573ffffffffffffffffffffffffffffffffffffffff169060200190929190505050612953565b005b6000610c0c600560008473ffffffffffffffffffffffffffffffffffffffff1673ffffffffffffffffffffffffffffffffffffffff16815260200190815260200160002054610bfe670de0b6b3a7640000610bf0610ba2600460008973ffffffffffffffffffffffffffffffffffffffff1673ffffffffffffffffffffffffffffffffffffffff16815260200190815260200160002054610b94612562565b61297090919063ffffffff16565b600760008973ffffffffffffffffffffffffffffffffffffffff1673ffffffffffffffffffffffffffffffffffffffff1681526020019081526020016000205461298790919063ffffffff16565b6129be90919063ffffffff16565b6129d790919063ffffffff16565b9050919050565b60056020528060005260406000206000915090505481565b6000610c378383612884565b600260038110610c4357fe5b6020020151905092915050565b6000600a54905090565b600080610c6683610ca6565b905060005b81811015610c9b576000610c7f858361252c565b14610c8e578092505050610ca1565b8080600101915050610c6b565b50809150505b919050565b6000600860008373ffffffffffffffffffffffffffffffffffffffff1673ffffffffffffffffffffffffffffffffffffffff168152602001908152602001600020805490509050919050565b60096020528060005260406000206000915090505481565b6000808211610d64576040517f08c379a000000000000000000000000000000000000000000000000000000000815260040180806020018281038252604c81526020018061348f604c913960600191505060405180910390fd5b60007f000000000000000000000000000000000000000000000000000000000000000073ffffffffffffffffffffffffffffffffffffffff166304433bbc6040518163ffffffff1660e01b81526004018080602001828103825260128152602001807f426173655562657377617041646170746572000000000000000000000000000081525060200191505060206040518083038186803b158015610e0857600080fd5b505afa158015610e1c573d6000803e3d6000fd5b505050506040513d6020811015610e3257600080fd5b810190808051906020019092919050505090506000610e4f611aaf565b905060008173ffffffffffffffffffffffffffffffffffffffff16630dfe16816040518163ffffffff1660e01b815260040160206040518083038186803b158015610e9957600080fd5b505afa158015610ead573d6000803e3d6000fd5b505050506040513d6020811015610ec357600080fd5b8101908080519060200190929190505050905060008273ffffffffffffffffffffffffffffffffffffffff1663d21220a76040518163ffffffff1660e01b815260040160206040518083038186803b158015610f1e57600080fd5b505afa158015610f32573d6000803e3d6000fd5b505050506040513d6020811015610f4857600080fd5b810190808051906020019092919050505090506000808573ffffffffffffffffffffffffffffffffffffffff1663d87fc14985858b6040518463ffffffff1660e01b8152600401808473ffffffffffffffffffffffffffffffffffffffff1681526020018373ffffffffffffffffffffffffffffffffffffffff1681526020018281526020019350505050604080518083038186803b158015610fea57600080fd5b505afa158015610ffe573d6000803e3d6000fd5b505050506040513d604081101561101457600080fd5b8101908080519060200190929190805190602001909291905050509150915060008473ffffffffffffffffffffffffffffffffffffffff1663313ce5676040518163ffffffff1660e01b815260040160206040518083038186803b15801561107b57600080fd5b505afa15801561108f573d6000803e3d6000fd5b505050506040513d60208110156110a557600080fd5b810190808051906020019092919050505060ff16905060008773ffffffffffffffffffffffffffffffffffffffff166341976e09876040518263ffffffff1660e01b8152600401808273ffffffffffffffffffffffffffffffffffffffff16815260200191505060206040518083038186803b15801561112457600080fd5b505afa158015611138573d6000803e3d6000fd5b505050506040513d602081101561114e57600080fd5b81019080805190602001909291905050509050600061118b83600a0a61117d848861298790919063ffffffff16565b6129be90919063ffffffff16565b905060008673ffffffffffffffffffffffffffffffffffffffff1663313ce5676040518163ffffffff1660e01b815260040160206040518083038186803b1580156111d557600080fd5b505afa1580156111e9573d6000803e3d6000fd5b505050506040513d60208110156111ff57600080fd5b810190808051906020019092919050505060ff16905060008a73ffffffffffffffffffffffffffffffffffffffff166341976e09896040518263ffffffff1660e01b8152600401808273ffffffffffffffffffffffffffffffffffffffff16815260200191505060206040518083038186803b15801561127e57600080fd5b505afa158015611292573d6000803e3d6000fd5b505050506040513d60208110156112a857600080fd5b8101908080519060200190929190505050905060006112e583600a0a6112d7848a61298790919063ffffffff16565b6129be90919063ffffffff16565b90506112fa818561298790919063ffffffff16565b9c50505050505050505050505050919050565b6113156133ca565b600061132083610c5a565b905061132b83610ca6565b81141561135857604051806060016040528060008152602001600081526020016000815250915050611366565b6113628382612884565b9150505b919050565b600260015414156113e4576040517f08c379a000000000000000000000000000000000000000000000000000000000815260040180806020018281038252601f8152602001807f5265656e7472616e637947756172643a207265656e7472616e742063616c6c0081525060200191505060405180910390fd5b60026001819055506113f5336129f3565b60018081905550565b60026001541415611477576040517f08c379a000000000000000000000000000000000000000000000000000000000815260040180806020018281038252601f8152602001807f5265656e7472616e637947756172643a207265656e7472616e742063616c6c0081525060200191505060405180910390fd5b600260018190555033611488612562565b60038190555042600281905550600073ffffffffffffffffffffffffffffffffffffffff168173ffffffffffffffffffffffffffffffffffffffff161461155c576114d281610af5565b600560008373ffffffffffffffffffffffffffffffffffffffff1673ffffffffffffffffffffffffffffffffffffffff16815260200190815260200160002081905550600354600460008373ffffffffffffffffffffffffffffffffffffffff1673ffffffffffffffffffffffffffffffffffffffff168152602001908152602001600020819055505b600061156733610ca6565b9050600080611575336129f3565b60005b8381101561167857600061158c338361292e565b9050600061159a3384610c2b565b905060008211806115ab5750600081115b15611669576040518060600160405280600060ff168152602001600060ff168152602001600060ff16815250600860003373ffffffffffffffffffffffffffffffffffffffff1673ffffffffffffffffffffffffffffffffffffffff168152602001908152602001600020848154811061162157fe5b906000526020600020906003020190600361163d9291906133ec565b5061165182866129d790919063ffffffff16565b945061166681856129d790919063ffffffff16565b93505b50508080600101915050611578565b5060008214158061168a575060008114155b156118fa576116a482600a5461297090919063ffffffff16565b600a819055506116fc82600960003373ffffffffffffffffffffffffffffffffffffffff1673ffffffffffffffffffffffffffffffffffffffff1681526020019081526020016000205461297090919063ffffffff16565b600960003373ffffffffffffffffffffffffffffffffffffffff1673ffffffffffffffffffffffffffffffffffffffff168152602001908152602001600020819055506117548160065461297090919063ffffffff16565b6006819055506117ac81600760003373ffffffffffffffffffffffffffffffffffffffff1673ffffffffffffffffffffffffffffffffffffffff1681526020019081526020016000205461297090919063ffffffff16565b600760003373ffffffffffffffffffffffffffffffffffffffff1673ffffffffffffffffffffffffffffffffffffffff168152602001908152602001600020819055506117f7611aaf565b73ffffffffffffffffffffffffffffffffffffffff1663a9059cbb33846040518363ffffffff1660e01b8152600401808373ffffffffffffffffffffffffffffffffffffffff16815260200182815260200192505050602060405180830381600087803b15801561186757600080fd5b505af115801561187b573d6000803e3d6000fd5b505050506040513d602081101561189157600080fd5b8101908080519060200190929190505050503373ffffffffffffffffffffffffffffffffffffffff167ffbeff59d2bfda0d79ea8a29f8c57c66d48c7a13eabbdb90908d9115ec41c9dc64284604051808381526020018281526020019250505060405180910390a25b5050505060018081905550565b6008602052826000526040600020828154811061192357600080fd5b9060005260206000209060030201816003811061193f57600080fd5b0160009250925050505481565b6000806006541161195e57600061196a565b611969600a54610d0a565b5b905090565b600081565b600061197f8261130d565b60006003811061198b57fe5b60200201519050919050565b6000600960008373ffffffffffffffffffffffffffffffffffffffff1673ffffffffffffffffffffffffffffffffffffffff168152602001908152602001600020549050919050565b6119e861248e565b6119f157600080fd5b600073ffffffffffffffffffffffffffffffffffffffff1660008054906101000a900473ffffffffffffffffffffffffffffffffffffffff1673ffffffffffffffffffffffffffffffffffffffff167f8be0079c531659141344cd1fd0a4f28419497f9722a3daafe3b4186f6b6457e060405160405180910390a360008060006101000a81548173ffffffffffffffffffffffffffffffffffffffff021916908373ffffffffffffffffffffffffffffffffffffffff160217905550565b6000807f000000000000000000000000000000000000000000000000000000000000000073ffffffffffffffffffffffffffffffffffffffff166304433bbc6040518163ffffffff1660e01b815260040180806020018281038252600c8152602001807f417373657448616e646c6572000000000000000000000000000000000000000081525060200191505060206040518083038186803b158015611b5457600080fd5b505afa158015611b68573d6000803e3d6000fd5b505050506040513d6020811015611b7e57600080fd5b8101908080519060200190929190505050905060007f000000000000000000000000000000000000000000000000000000000000000073ffffffffffffffffffffffffffffffffffffffff166304433bbc6040518163ffffffff1660e01b81526004018080602001828103825260128152602001807f426173655562657377617041646170746572000000000000000000000000000081525060200191505060206040518083038186803b158015611c3557600080fd5b505afa158015611c49573d6000803e3d6000fd5b505050506040513d6020811015611c5f57600080fd5b8101908080519060200190929190505050905060008273ffffffffffffffffffffffffffffffffffffffff1663be781b1c6040518163ffffffff1660e01b815260040160206040518083038186803b158015611cba57600080fd5b505afa158015611cce573d6000803e3d6000fd5b505050506040513d6020811015611ce457600080fd5b8101908080519060200190929190505050905060007f000000000000000000000000000000000000000000000000000000000000000073ffffffffffffffffffffffffffffffffffffffff166304433bbc6040518163ffffffff1660e01b815260040180806020018281038252600d8152602001807f547261646567656e45524332300000000000000000000000000000000000000081525060200191505060206040518083038186803b158015611d9b57600080fd5b505afa158015611daf573d6000803e3d6000fd5b505050506040513d6020811015611dc557600080fd5b810190808051906020019092919050505090508273ffffffffffffffffffffffffffffffffffffffff1663e6a4390582846040518363ffffffff1660e01b8152600401808373ffffffffffffffffffffffffffffffffffffffff1681526020018273ffffffffffffffffffffffffffffffffffffffff1681526020019250505060206040518083038186803b158015611e5d57600080fd5b505afa158015611e71573d6000803e3d6000fd5b505050506040513d6020811015611e8757600080fd5b810190808051906020019092919050505094505050505090565b60026001541415611f1a576040517f08c379a000000000000000000000000000000000000000000000000000000000815260040180806020018281038252601f8152602001807f5265656e7472616e637947756172643a207265656e7472616e742063616c6c0081525060200191505060405180910390fd5b600260018190555033611f2b612562565b60038190555042600281905550600073ffffffffffffffffffffffffffffffffffffffff168173ffffffffffffffffffffffffffffffffffffffff1614611fff57611f7581610af5565b600560008373ffffffffffffffffffffffffffffffffffffffff1673ffffffffffffffffffffffffffffffffffffffff16815260200190815260200160002081905550600354600460008373ffffffffffffffffffffffffffffffffffffffff1673ffffffffffffffffffffffffffffffffffffffff168152602001908152602001600020819055505b60008311612058576040517f08c379a000000000000000000000000000000000000000000000000000000000815260040180806020018281038252603e815260200180613544603e913960400191505060405180910390fd5b6000821015801561206a575060348211155b6120bf576040517f08c379a00000000000000000000000000000000000000000000000000000000081526004018080602001828103825260428152602001806134db6042913960600191505060405180910390fd5b60006120e96120da8462093a8061298790919063ffffffff16565b426129d790919063ffffffff16565b9050600061212660346121186121096034886129d790919063ffffffff16565b8861298790919063ffffffff16565b6129be90919063ffffffff16565b905061213d816006546129d790919063ffffffff16565b60068190555061214f33838784612d29565b61216485600a546129d790919063ffffffff16565b600a81905550612172611aaf565b73ffffffffffffffffffffffffffffffffffffffff166323b872dd3330886040518463ffffffff1660e01b8152600401808473ffffffffffffffffffffffffffffffffffffffff1681526020018373ffffffffffffffffffffffffffffffffffffffff1681526020018281526020019350505050602060405180830381600087803b15801561220057600080fd5b505af1158015612214573d6000803e3d6000fd5b505050506040513d602081101561222a57600080fd5b8101908080519060200190929190505050503373ffffffffffffffffffffffffffffffffffffffff167fb4caaf29adda3eefee3ad552a8e85058589bf834c7466cae4ee58787f70589ed86844260405180848152602001838152602001828152602001935050505060405180910390a2505050600180819055505050565b60007f000000000000000000000000000000000000000000000000000000000000000073ffffffffffffffffffffffffffffffffffffffff166304433bbc6040518163ffffffff1660e01b81526004018080602001828103825260088152602001807f53657474696e677300000000000000000000000000000000000000000000000081525060200191505060206040518083038186803b15801561234c57600080fd5b505afa158015612360573d6000803e3d6000fd5b505050506040513d602081101561237657600080fd5b810190808051906020019092919050505073ffffffffffffffffffffffffffffffffffffffff166328a2176f6040518163ffffffff1660e01b81526004018080602001828103825260168152602001807f5765656b6c794c505374616b696e67526577617264730000000000000000000081525060200191505060206040518083038186803b15801561240857600080fd5b505afa15801561241c573d6000803e3d6000fd5b505050506040513d602081101561243257600080fd5b8101908080519060200190929190505050905090565b600181565b60046020528060005260406000206000915090505481565b60008060009054906101000a900473ffffffffffffffffffffffffffffffffffffffff16905090565b60008060009054906101000a900473ffffffffffffffffffffffffffffffffffffffff1673ffffffffffffffffffffffffffffffffffffffff163373ffffffffffffffffffffffffffffffffffffffff1614905090565b60006124f08261130d565b6001600381106124fc57fe5b60200201519050919050565b7f000000000000000000000000000000000000000000000000000000000000000081565b60006125388383612884565b60006003811061254457fe5b6020020151905092915050565b600a5481565b60025481565b600281565b6000807f000000000000000000000000000000000000000000000000000000000000000073ffffffffffffffffffffffffffffffffffffffff166304433bbc6040518163ffffffff1660e01b81526004018080602001828103825260088152602001807f53657474696e677300000000000000000000000000000000000000000000000081525060200191505060206040518083038186803b15801561260757600080fd5b505afa15801561261b573d6000803e3d6000fd5b505050506040513d602081101561263157600080fd5b810190808051906020019092919050505073ffffffffffffffffffffffffffffffffffffffff166328a2176f6040518163ffffffff1660e01b81526004018080602001828103825260168152602001807f5765656b6c794c505374616b696e67526577617264730000000000000000000081525060200191505060206040518083038186803b1580156126c357600080fd5b505afa1580156126d7573d6000803e3d6000fd5b505050506040513d60208110156126ed57600080fd5b810190808051906020019092919050505090506000600654141561271657600354915050612798565b612794612783600654612775670de0b6b3a764000061276762093a806127598861274b6002544261297090919063ffffffff16565b61298790919063ffffffff16565b6129be90919063ffffffff16565b61298790919063ffffffff16565b6129be90919063ffffffff16565b6003546129d790919063ffffffff16565b9150505b90565b603081565b60007f000000000000000000000000000000000000000000000000000000000000000073ffffffffffffffffffffffffffffffffffffffff166304433bbc6040518163ffffffff1660e01b815260040180806020018281038252600d8152602001807f547261646567656e45524332300000000000000000000000000000000000000081525060200191505060206040518083038186803b15801561284457600080fd5b505afa158015612858573d6000803e3d6000fd5b505050506040513d602081101561286e57600080fd5b8101908080519060200190929190505050905090565b61288c6133ca565b600860008473ffffffffffffffffffffffffffffffffffffffff1673ffffffffffffffffffffffffffffffffffffffff16815260200190815260200160002082815481106128d657fe5b906000526020600020906003020160038060200260405190810160405280929190826003801561291b576020028201915b815481526020019060010190808311612907575b5050505050905092915050565b60035481565b600061293a8383612884565b60016003811061294657fe5b6020020151905092915050565b61295b61248e565b61296457600080fd5b61296d816132d3565b50565b60008282111561297c57fe5b818303905092915050565b60008083141561299a57600090506129b8565b60008284029050828482816129ab57fe5b04146129b357fe5b809150505b92915050565b6000808284816129ca57fe5b0490508091505092915050565b6000808284019050838110156129e957fe5b8091505092915050565b806129fc612562565b60038190555042600281905550600073ffffffffffffffffffffffffffffffffffffffff168173ffffffffffffffffffffffffffffffffffffffff1614612ad057612a4681610af5565b600560008373ffffffffffffffffffffffffffffffffffffffff1673ffffffffffffffffffffffffffffffffffffffff16815260200190815260200160002081905550600354600460008373ffffffffffffffffffffffffffffffffffffffff1673ffffffffffffffffffffffffffffffffffffffff168152602001908152602001600020819055505b60007f000000000000000000000000000000000000000000000000000000000000000073ffffffffffffffffffffffffffffffffffffffff166304433bbc6040518163ffffffff1660e01b81526004018080602001828103825260178152602001807f547261646567656e4c505374616b696e67457363726f7700000000000000000081525060200191505060206040518083038186803b158015612b7457600080fd5b505afa158015612b88573d6000803e3d6000fd5b505050506040513d6020811015612b9e57600080fd5b810190808051906020019092919050505090506000600560008573ffffffffffffffffffffffffffffffffffffffff1673ffffffffffffffffffffffffffffffffffffffff1681526020019081526020016000205490506000811115612d23576000600560008673ffffffffffffffffffffffffffffffffffffffff1673ffffffffffffffffffffffffffffffffffffffff168152602001908152602001600020819055508173ffffffffffffffffffffffffffffffffffffffff16637523a5ab85836040518363ffffffff1660e01b8152600401808373ffffffffffffffffffffffffffffffffffffffff16815260200182815260200192505050600060405180830381600087803b158015612cb457600080fd5b505af1158015612cc8573d6000803e3d6000fd5b505050508373ffffffffffffffffffffffffffffffffffffffff167fd6f2c8500df5b44f11e9e48b91ff9f1b9d81bc496d55570c2b1b75bf65243f518242604051808381526020018281526020019250505060405180910390a25b50505050565b82421115612d9f576040517f08c379a000000000000000000000000000000000000000000000000000000000815260040180806020018281038252601a8152602001807f54696d65206d75737420626520696e207468652066757475726500000000000081525060200191505060405180910390fd5b6000821415612e16576040517f08c379a00000000000000000000000000000000000000000000000000000000081526004018080602001828103825260178152602001807f5175616e746974792063616e6e6f74206265207a65726f00000000000000000081525060200191505060405180910390fd5b60008111612e6f576040517f08c379a000000000000000000000000000000000000000000000000000000000815260040180806020018281038252602781526020018061351d6027913960400191505060405180910390fd5b6000600860008673ffffffffffffffffffffffffffffffffffffffff1673ffffffffffffffffffffffffffffffffffffffff1681526020019081526020016000208054905090506000811415612fde5782600960008773ffffffffffffffffffffffffffffffffffffffff1673ffffffffffffffffffffffffffffffffffffffff1681526020019081526020016000208190555081600760008773ffffffffffffffffffffffffffffffffffffffff1673ffffffffffffffffffffffffffffffffffffffff16815260200190815260200160002081905550600860008673ffffffffffffffffffffffffffffffffffffffff1673ffffffffffffffffffffffffffffffffffffffff1681526020019081526020016000206040518060600160405280868152602001858152602001848152509080600181540180825580915050600190039060005260206000209060030201600090919091909150906003612fd8929190613431565b506132cc565b6000805b82811015613090576000612ff6888361292e565b141561308357604051806060016040528087815260200186815260200185815250600860008973ffffffffffffffffffffffffffffffffffffffff1673ffffffffffffffffffffffffffffffffffffffff168152602001908152602001600020828154811061306157fe5b906000526020600020906003020190600361307d929190613431565b50600191505b8080600101915050612fe2565b50806131a057603082111561310d576040517f08c379a000000000000000000000000000000000000000000000000000000000815260040180806020018281038252601c8152602001807f56657374696e67207363686564756c6520697320746f6f206c6f6e670000000081525060200191505060405180910390fd5b600860008773ffffffffffffffffffffffffffffffffffffffff1673ffffffffffffffffffffffffffffffffffffffff168152602001908152602001600020604051806060016040528087815260200186815260200185815250908060018154018082558091505060019003906000526020600020906003020160009091909190915090600361319e929190613431565b505b6131f284600960008973ffffffffffffffffffffffffffffffffffffffff1673ffffffffffffffffffffffffffffffffffffffff168152602001908152602001600020546129d790919063ffffffff16565b600960008873ffffffffffffffffffffffffffffffffffffffff1673ffffffffffffffffffffffffffffffffffffffff1681526020019081526020016000208190555061328783600760008973ffffffffffffffffffffffffffffffffffffffff1673ffffffffffffffffffffffffffffffffffffffff168152602001908152602001600020546129d790919063ffffffff16565b600760008873ffffffffffffffffffffffffffffffffffffffff1673ffffffffffffffffffffffffffffffffffffffff16815260200190815260200160002081905550505b5050505050565b600073ffffffffffffffffffffffffffffffffffffffff168173ffffffffffffffffffffffffffffffffffffffff16141561330d57600080fd5b8073ffffffffffffffffffffffffffffffffffffffff1660008054906101000a900473ffffffffffffffffffffffffffffffffffffffff1673ffffffffffffffffffffffffffffffffffffffff167f8be0079c531659141344cd1fd0a4f28419497f9722a3daafe3b4186f6b6457e060405160405180910390a3806000806101000a81548173ffffffffffffffffffffffffffffffffffffffff021916908373ffffffffffffffffffffffffffffffffffffffff16021790555050565b6040518060600160405280600390602082028036833780820191505090505090565b8260038101928215613420579160200282015b8281111561341f578251829060ff169055916020019190600101906133ff565b5b50905061342d9190613471565b5090565b8260038101928215613460579160200282015b8281111561345f578251825591602001919060010190613444565b5b50905061346d9190613471565b5090565b5b8082111561348a576000816000905550600101613472565b509056fe547261646567656e4c505374616b696e67526577617264733a206e756d626572206f66204c5020746f6b656e7320696e2070616972206d7573742062652067726561746572207468616e2030547261646567656e4c505374616b696e67526577617264733a206e756d626572206f66207765656b73206d757374206265206265747765656e203020616e642035324e756d626572206f6620746f6b656e73206d7573742062652067726561746572207468616e2030547261646567656e4c505374616b696e67526577617264733a205374616b656420616d6f756e74206d7573742062652067726561746572207468616e2030a26469706673582212201e06273e6e1a713e3fecca9c4976d4b78a019e65eb6bdf19556f1bb570b542f864736f6c63430007060033",
  "immutableReferences": {
    "3375": [
      {
        "length": 32,
        "start": 3432
      },
      {
        "length": 32,
        "start": 6836
      },
      {
        "length": 32,
        "start": 7061
      },
      {
        "length": 32,
        "start": 7419
      },
      {
        "length": 32,
        "start": 8876
      },
      {
        "length": 32,
        "start": 9482
      },
      {
        "length": 32,
        "start": 9575
      },
      {
        "length": 32,
        "start": 10148
      },
      {
        "length": 32,
        "start": 10964
      }
    ]
  },
  "source": "// SPDX-License-Identifier: MIT\r\n\r\npragma solidity >=0.7.6;\r\n\r\n//Adapters\r\nimport './interfaces/IBaseUbeswapAdapter.sol';\r\n\r\n// Inheritance\r\nimport \"./Ownable.sol\";\r\nimport \"./interfaces//ITradegenLPStakingRewards.sol\";\r\nimport \"./openzeppelin-solidity/ReentrancyGuard.sol\";\r\n\r\n// Libraries\r\nimport \"./libraries/SafeMath.sol\";\r\n\r\n// Internal references\r\nimport \"./interfaces/IERC20.sol\";\r\nimport \"./interfaces/IAddressResolver.sol\";\r\nimport \"./interfaces/ISettings.sol\";\r\nimport \"./interfaces/IAssetHandler.sol\";\r\nimport \"./interfaces/ITradegenStakingEscrow.sol\";\r\nimport \"./interfaces/IBaseUbeswapAdapter.sol\";\r\nimport \"./interfaces/Ubeswap/IUniswapV2Pair.sol\";\r\n\r\ncontract TradegenLPStakingRewards is Ownable, ITradegenLPStakingRewards, ReentrancyGuard {\r\n    using SafeMath for uint;\r\n\r\n    IAddressResolver public immutable ADDRESS_RESOLVER;\r\n\r\n    uint public lastUpdateTime;\r\n    uint256 public rewardPerTokenStored;\r\n    mapping(address => uint256) public userRewardPerTokenPaid;\r\n    mapping(address => uint256) public rewards;\r\n\r\n    uint256 private _totalSupply;\r\n    mapping(address => uint256) private _balances;\r\n\r\n    /* Lists of (timestamp, quantity, tokens) tuples per account, sorted in ascending time order.\r\n     * These are the times at which each given quantity of LP token vests. */\r\n    mapping(address => uint[3][]) public vestingSchedules;\r\n\r\n    /* An account's total vested TGEN-cUSD LP token balance to save recomputing this */\r\n    mapping(address => uint) public totalVestedAccountBalance;\r\n\r\n    /* The total remaining vested balance, for verifying the actual TGEN-cUSD LP token balance of this contract against. */\r\n    uint public totalVestedBalance;\r\n\r\n    uint public constant TIME_INDEX = 0;\r\n    uint public constant QUANTITY_INDEX = 1;\r\n    uint public constant TOKENS_INDEX = 2;\r\n\r\n    /* Limit vesting entries to disallow unbounded iteration over vesting schedules. */\r\n    uint public constant MAX_VESTING_ENTRIES = 48;\r\n\r\n    /* ========== CONSTRUCTOR ========== */\r\n\r\n    constructor(IAddressResolver _addressResolver) Ownable() {\r\n        ADDRESS_RESOLVER = _addressResolver;\r\n        lastUpdateTime = block.timestamp;\r\n    }\r\n\r\n    /* ========== VIEW FUNCTIONS ========== */\r\n\r\n    function rewardRate() public view override returns (uint) {\r\n        return ISettings(ADDRESS_RESOLVER.getContractAddress(\"Settings\")).getParameterValue(\"WeeklyLPStakingRewards\");\r\n    }\r\n\r\n    function totalSupply() public view override returns (uint) {\r\n        return totalVestedBalance;\r\n    }\r\n\r\n    function stakingToken() public view override returns (address) {\r\n        address assetHandlerAddress = ADDRESS_RESOLVER.getContractAddress(\"AssetHandler\");\r\n        address baseUbeswapAdapterAddress = ADDRESS_RESOLVER.getContractAddress(\"BaseUbeswapAdapter\");\r\n        address stableCoinAddress = IAssetHandler(assetHandlerAddress).getStableCoinAddress();\r\n        address TGEN = ADDRESS_RESOLVER.getContractAddress(\"TradegenERC20\");\r\n\r\n        return IBaseUbeswapAdapter(baseUbeswapAdapterAddress).getPair(TGEN, stableCoinAddress);\r\n    }\r\n\r\n    function rewardsToken() external view override returns (address) {\r\n        return ADDRESS_RESOLVER.getContractAddress(\"TradegenERC20\");\r\n    }\r\n\r\n    /**\r\n     * @notice A simple alias to totalVestedAccountBalance: provides ERC20 balance integration.\r\n     */\r\n    function balanceOf(address account) public view override returns (uint) {\r\n        return totalVestedAccountBalance[account];\r\n    }\r\n\r\n    /**\r\n     * @notice The number of vesting dates in an account's schedule.\r\n     */\r\n    function numVestingEntries(address account) public view override returns (uint) {\r\n        return vestingSchedules[account].length;\r\n    }\r\n\r\n    /**\r\n     * @notice Get a particular schedule entry for an account.\r\n     * @return A tuple of uints: (timestamp, TGEN-cUSD LP quantity, token quantity).\r\n     */\r\n    function getVestingScheduleEntry(address account, uint index) public view override returns (uint[3] memory) {\r\n        return vestingSchedules[account][index];\r\n    }\r\n\r\n    /**\r\n     * @notice Get the time at which a given schedule entry will vest.\r\n     */\r\n    function getVestingTime(address account, uint index) public view override returns (uint) {\r\n        return getVestingScheduleEntry(account, index)[TIME_INDEX];\r\n    }\r\n\r\n    /**\r\n     * @notice Get the quantity of TGEN-cUSD LP associated with a given schedule entry.\r\n     */\r\n    function getVestingQuantity(address account, uint index) public view override returns (uint) {\r\n        return getVestingScheduleEntry(account, index)[QUANTITY_INDEX];\r\n    }\r\n\r\n    /**\r\n     * @notice Get the quantity of tokens associated with a given schedule entry.\r\n     */\r\n    function getVestingTokenAmount(address account, uint index) public view override returns (uint) {\r\n        return getVestingScheduleEntry(account, index)[TOKENS_INDEX];\r\n    }\r\n\r\n    /**\r\n     * @notice Obtain the index of the next schedule entry that will vest for a given user.\r\n     */\r\n    function getNextVestingIndex(address account) public view override returns (uint) {\r\n        uint len = numVestingEntries(account);\r\n\r\n        for (uint i = 0; i < len; i++)\r\n        {\r\n            if (getVestingTime(account, i) != 0)\r\n            {\r\n                return i;\r\n            }\r\n        }\r\n\r\n        return len;\r\n    }\r\n\r\n    /**\r\n     * @notice Calculates the amount of TGEN reward per token stored\r\n     */\r\n    function rewardPerToken() public view override returns (uint) {\r\n        uint rate = ISettings(ADDRESS_RESOLVER.getContractAddress(\"Settings\")).getParameterValue(\"WeeklyLPStakingRewards\");\r\n\r\n        if (_totalSupply == 0)\r\n        {\r\n            return rewardPerTokenStored;\r\n        }\r\n\r\n        return rewardPerTokenStored.add(block.timestamp.sub(lastUpdateTime).mul(rate).div(7 days).mul(1e18).div(_totalSupply));\r\n    }\r\n\r\n    /**\r\n     * @notice Calculates the amount of TGEN rewards earned\r\n     */\r\n    function earned(address account) public view override returns (uint) {\r\n        return _balances[account].mul(rewardPerToken().sub(userRewardPerTokenPaid[account])).div(1e18).add(rewards[account]);\r\n    }\r\n\r\n    /**\r\n     * @notice Obtain the next schedule entry that will vest for a given user.\r\n     * @return A tuple of uints: (timestamp, TGEN-cUSD LP quantity, token quantity). */\r\n    function getNextVestingEntry(address account) public view override returns (uint[3] memory) {\r\n        uint index = getNextVestingIndex(account);\r\n        if (index == numVestingEntries(account))\r\n        {\r\n            return [uint(0), 0, 0];\r\n        }\r\n\r\n        return getVestingScheduleEntry(account, index);\r\n    }\r\n\r\n    /**\r\n     * @notice Obtain the time at which the next schedule entry will vest for a given user.\r\n     */\r\n    function getNextVestingTime(address account) external view override returns (uint) {\r\n        return getNextVestingEntry(account)[TIME_INDEX];\r\n    }\r\n\r\n    /**\r\n     * @notice Obtain the quantity which the next schedule entry will vest for a given user.\r\n     */\r\n    function getNextVestingQuantity(address account) external view override returns (uint) {\r\n        return getNextVestingEntry(account)[QUANTITY_INDEX];\r\n    }\r\n\r\n    /**\r\n     * @notice Returns the USD value of all LP tokens staked in this contract\r\n     * @return uint USD value of this contract\r\n     */\r\n    function getUSDValueOfContract() public view override returns (uint) {\r\n        return (_totalSupply > 0) ? calculateValueOfLPTokens(totalVestedBalance) : 0;\r\n    }\r\n\r\n    /**\r\n     * @notice Calculates the USD value of the given number of LP tokens\r\n     * @param numberOfTokens Number of LP tokens in the farm\r\n     * @return uint The USD value of the LP tokens\r\n     */\r\n    function calculateValueOfLPTokens(uint numberOfTokens) public view override returns (uint) {\r\n        require(numberOfTokens > 0, \"TradegenLPStakingRewards: number of LP tokens in pair must be greater than 0\");\r\n\r\n        address baseUbeswapAdapterAddress = ADDRESS_RESOLVER.getContractAddress(\"BaseUbeswapAdapter\"); \r\n\r\n        address pair = stakingToken();\r\n        address tokenA = IUniswapV2Pair(pair).token0();\r\n        address tokenB = IUniswapV2Pair(pair).token1();\r\n        (uint amountA, uint amountB) = IBaseUbeswapAdapter(baseUbeswapAdapterAddress).getTokenAmountsFromPair(tokenA, tokenB, numberOfTokens);\r\n\r\n        uint numberOfDecimalsA = IERC20(tokenA).decimals();\r\n        uint USDperTokenA = IBaseUbeswapAdapter(baseUbeswapAdapterAddress).getPrice(tokenA);\r\n        uint USDBalanceA = amountA.mul(USDperTokenA).div(10 ** numberOfDecimalsA);\r\n\r\n        uint numberOfDecimalsB = IERC20(tokenB).decimals();\r\n        uint USDperTokenB = IBaseUbeswapAdapter(baseUbeswapAdapterAddress).getPrice(tokenB);\r\n        uint USDBalanceB = amountB.mul(USDperTokenB).div(10 ** numberOfDecimalsB);\r\n\r\n        return USDBalanceA.mul(USDBalanceB);\r\n    }\r\n\r\n    /* ========== INTERNAL FUNCTIONS ========== */\r\n\r\n    /**\r\n     * @notice Add a new vesting entry at a given time and quantity to an account's schedule.\r\n     * @param account The account to append a new vesting entry to.\r\n     * @param time The absolute unix timestamp after which the vested quantity may be withdrawn.\r\n     * @param quantity The quantity of TGEN-cUSD LP that will vest.\r\n     * @param numberOfTokens Number of tokens to issue, base on staked quantity and number of weeks\r\n     */\r\n    function appendVestingEntry(address account, uint time, uint quantity, uint numberOfTokens) internal {\r\n        /* No empty or already-passed vesting entries allowed. */\r\n        require(block.timestamp <= time, \"Time must be in the future\");\r\n        require(quantity != 0, \"Quantity cannot be zero\");\r\n        require(numberOfTokens > 0, \"Number of tokens must be greater than 0\");\r\n\r\n        /* Disallow arbitrarily long vesting schedules in light of the gas limit. */\r\n        uint scheduleLength = vestingSchedules[account].length;\r\n\r\n        if (scheduleLength == 0)\r\n        {\r\n            totalVestedAccountBalance[account] = quantity;\r\n            _balances[account] = numberOfTokens;\r\n\r\n            vestingSchedules[account].push([time, quantity, numberOfTokens]);\r\n        }\r\n        else\r\n        {\r\n            //Look for empty spot before appending new entry\r\n            bool foundEmptySpot = false;\r\n            for (uint i = 0; i < scheduleLength; i++)\r\n            {\r\n                if (getVestingQuantity(account, i) == 0)\r\n                {\r\n                    vestingSchedules[account][i] = [time, quantity, numberOfTokens];\r\n                    foundEmptySpot = true;\r\n                }\r\n            }\r\n\r\n            if (!foundEmptySpot)\r\n            {\r\n                require(scheduleLength <= MAX_VESTING_ENTRIES, \"Vesting schedule is too long\");\r\n                vestingSchedules[account].push([time, quantity, numberOfTokens]);\r\n            }\r\n\r\n            totalVestedAccountBalance[account] = totalVestedAccountBalance[account].add(quantity);\r\n            _balances[account] = _balances[account].add(numberOfTokens);\r\n        }  \r\n    }\r\n\r\n    function _claim(address user) internal updateReward(user) {\r\n        address tradegenLPStakingEscrowAddress = ADDRESS_RESOLVER.getContractAddress(\"TradegenLPStakingEscrow\");\r\n        uint reward = rewards[user];\r\n\r\n        if (reward > 0)\r\n        {\r\n            rewards[user] = 0;\r\n            ITradegenStakingEscrow(tradegenLPStakingEscrowAddress).claimStakingRewards(user, reward);\r\n            emit RewardPaid(user, reward, block.timestamp);\r\n        }\r\n    }\r\n\r\n    /* ========== MUTATIVE FUNCTIONS ========== */\r\n\r\n    /**\r\n     * @notice Stakes the given TGEN-cUSD LP amount.\r\n     */\r\n    function stake(uint amount, uint numberOfWeeks) external override nonReentrant updateReward(msg.sender) {\r\n        require(amount > 0, \"TradegenLPStakingRewards: Staked amount must be greater than 0\");\r\n        require(numberOfWeeks >= 0 && numberOfWeeks <= 52, \"TradegenLPStakingRewards: number of weeks must be between 0 and 52\");\r\n\r\n        //Up to 2x multiplier depending on number of weeks staked\r\n        uint vestingTimestamp = block.timestamp.add(uint(1 weeks).mul(numberOfWeeks));\r\n        uint adjustedAmount = amount.mul(numberOfWeeks.add(52)).div(52);\r\n\r\n        _totalSupply = _totalSupply.add(adjustedAmount);\r\n        appendVestingEntry(msg.sender, vestingTimestamp, amount, adjustedAmount);\r\n\r\n        totalVestedBalance = totalVestedBalance.add(amount);\r\n        IERC20(stakingToken()).transferFrom(msg.sender, address(this), amount);\r\n\r\n        emit Staked(msg.sender, amount, vestingTimestamp, block.timestamp);\r\n    }\r\n\r\n    /**\r\n     * @notice Allow a user to withdraw any TGEN-cUSD LP in their schedule that have vested.\r\n     */\r\n    function vest() external override nonReentrant updateReward(msg.sender) {\r\n        uint numEntries = numVestingEntries(msg.sender);\r\n        uint total;\r\n        uint tokenTotal;\r\n\r\n        //Claim rewards before withdrawing, since rewards calculation will fail if total supply is 0 after withdrawing\r\n        _claim(msg.sender);\r\n\r\n        for (uint i = 0; i < numEntries; i++)\r\n        {\r\n            uint qty = getVestingQuantity(msg.sender, i);\r\n            uint numberOfTokens = getVestingTokenAmount(msg.sender, i);\r\n\r\n            if (qty > 0 || numberOfTokens > 0)\r\n            {\r\n                vestingSchedules[msg.sender][i] = [0, 0, 0];\r\n                total = total.add(qty);\r\n                tokenTotal = tokenTotal.add(numberOfTokens);\r\n            }\r\n        }\r\n\r\n        if (total != 0 || tokenTotal != 0)\r\n        {\r\n            totalVestedBalance = totalVestedBalance.sub(total);\r\n            totalVestedAccountBalance[msg.sender] = totalVestedAccountBalance[msg.sender].sub(total);\r\n            _totalSupply = _totalSupply.sub(tokenTotal);\r\n            _balances[msg.sender] = _balances[msg.sender].sub(tokenTotal);\r\n\r\n            IERC20(stakingToken()).transfer(msg.sender, total);\r\n\r\n            emit Vested(msg.sender, block.timestamp, total);\r\n        }\r\n    }\r\n\r\n    /**\r\n     * @notice Allow a user to claim any available staking rewards\r\n     */\r\n    function getReward() public override nonReentrant {\r\n        _claim(msg.sender);\r\n    }\r\n\r\n    /* ========== MODIFIERS ========== */\r\n\r\n    modifier updateReward(address account) {\r\n        rewardPerTokenStored = rewardPerToken();\r\n        lastUpdateTime = block.timestamp;\r\n        if (account != address(0)) {\r\n            rewards[account] = earned(account);\r\n            userRewardPerTokenPaid[account] = rewardPerTokenStored;\r\n        }\r\n        _;\r\n    }\r\n\r\n    /* ========== EVENTS ========== */\r\n\r\n    event Vested(address indexed beneficiary, uint time, uint value);\r\n    event Staked(address indexed beneficiary, uint total, uint vestingTimestamp, uint timestamp);\r\n    event RewardPaid(address indexed user, uint amount, uint timestamp);\r\n}",
  "sourcePath": "C:/Users/xavie/OneDrive/Desktop/TradeGen/Github/tradegen-protocol/contracts/TradegenLPStakingRewards.sol",
  "compiler": {
    "name": "solc",
    "version": "0.7.6+commit.7338295f.Emscripten.clang"
  },
  "schemaVersion": "3.4.1",
  "updatedAt": "2021-08-19T19:30:15.579Z",
  "devdoc": {
    "kind": "dev",
    "methods": {
      "calculateValueOfLPTokens(uint256)": {
        "params": {
          "numberOfTokens": "Number of LP tokens in the farm"
        },
        "returns": {
          "_0": "uint The USD value of the LP tokens"
        }
      },
      "getNextVestingEntry(address)": {
        "returns": {
          "_0": "A tuple of uints: (timestamp, TGEN-cUSD LP quantity, token quantity). "
        }
      },
      "getUSDValueOfContract()": {
        "returns": {
          "_0": "uint USD value of this contract"
        }
      },
      "getVestingScheduleEntry(address,uint256)": {
        "returns": {
          "_0": "A tuple of uints: (timestamp, TGEN-cUSD LP quantity, token quantity)."
        }
      },
      "isOwner()": {
        "returns": {
          "_0": "true if `msg.sender` is the owner of the contract."
        }
      },
      "owner()": {
        "returns": {
          "_0": "the address of the owner."
        }
      },
      "renounceOwnership()": {
        "details": "Allows the current owner to relinquish control of the contract."
      },
      "transferOwnership(address)": {
        "details": "Allows the current owner to transfer control of the contract to a newOwner.",
        "params": {
          "newOwner": "The address to transfer ownership to."
        }
      }
    },
    "version": 1
  },
  "userdoc": {
    "kind": "user",
    "methods": {
      "balanceOf(address)": {
        "notice": "A simple alias to totalVestedAccountBalance: provides ERC20 balance integration."
      },
      "calculateValueOfLPTokens(uint256)": {
        "notice": "Calculates the USD value of the given number of LP tokens"
      },
      "earned(address)": {
        "notice": "Calculates the amount of TGEN rewards earned"
      },
      "getNextVestingEntry(address)": {
        "notice": "Obtain the next schedule entry that will vest for a given user."
      },
      "getNextVestingIndex(address)": {
        "notice": "Obtain the index of the next schedule entry that will vest for a given user."
      },
      "getNextVestingQuantity(address)": {
        "notice": "Obtain the quantity which the next schedule entry will vest for a given user."
      },
      "getNextVestingTime(address)": {
        "notice": "Obtain the time at which the next schedule entry will vest for a given user."
      },
      "getReward()": {
        "notice": "Allow a user to claim any available staking rewards"
      },
      "getUSDValueOfContract()": {
        "notice": "Returns the USD value of all LP tokens staked in this contract"
      },
      "getVestingQuantity(address,uint256)": {
        "notice": "Get the quantity of TGEN-cUSD LP associated with a given schedule entry."
      },
      "getVestingScheduleEntry(address,uint256)": {
        "notice": "Get a particular schedule entry for an account."
      },
      "getVestingTime(address,uint256)": {
        "notice": "Get the time at which a given schedule entry will vest."
      },
      "getVestingTokenAmount(address,uint256)": {
        "notice": "Get the quantity of tokens associated with a given schedule entry."
      },
      "numVestingEntries(address)": {
        "notice": "The number of vesting dates in an account's schedule."
      },
      "renounceOwnership()": {
        "notice": "Renouncing to ownership will leave the contract without an owner. It will not be possible to call the functions with the `onlyOwner` modifier anymore."
      },
      "rewardPerToken()": {
        "notice": "Calculates the amount of TGEN reward per token stored"
      },
      "stake(uint256,uint256)": {
        "notice": "Stakes the given TGEN-cUSD LP amount."
      },
      "vest()": {
        "notice": "Allow a user to withdraw any TGEN-cUSD LP in their schedule that have vested."
      }
    },
    "version": 1
  }
}