{
  "contractName": "TradegenEscrow",
  "abi": [
    {
      "inputs": [
        {
          "internalType": "contract IAddressResolver",
          "name": "_addressResolver",
          "type": "address"
        }
      ],
      "stateMutability": "nonpayable",
      "type": "constructor"
    },
    {
      "anonymous": false,
      "inputs": [
        {
          "indexed": true,
          "internalType": "address",
          "name": "previousOwner",
          "type": "address"
        },
        {
          "indexed": true,
          "internalType": "address",
          "name": "newOwner",
          "type": "address"
        }
      ],
      "name": "OwnershipTransferred",
      "type": "event"
    },
    {
      "anonymous": false,
      "inputs": [
        {
          "indexed": true,
          "internalType": "address",
          "name": "beneficiary",
          "type": "address"
        },
        {
          "indexed": false,
          "internalType": "uint256",
          "name": "time",
          "type": "uint256"
        },
        {
          "indexed": false,
          "internalType": "uint256",
          "name": "value",
          "type": "uint256"
        }
      ],
      "name": "Vested",
      "type": "event"
    },
    {
      "inputs": [],
      "name": "ADDRESS_RESOLVER",
      "outputs": [
        {
          "internalType": "contract IAddressResolver",
          "name": "",
          "type": "address"
        }
      ],
      "stateMutability": "view",
      "type": "function"
    },
    {
      "inputs": [],
      "name": "MAX_VESTING_ENTRIES",
      "outputs": [
        {
          "internalType": "uint256",
          "name": "",
          "type": "uint256"
        }
      ],
      "stateMutability": "view",
      "type": "function"
    },
    {
      "inputs": [],
      "name": "QUANTITY_INDEX",
      "outputs": [
        {
          "internalType": "uint256",
          "name": "",
          "type": "uint256"
        }
      ],
      "stateMutability": "view",
      "type": "function"
    },
    {
      "inputs": [],
      "name": "TIME_INDEX",
      "outputs": [
        {
          "internalType": "uint256",
          "name": "",
          "type": "uint256"
        }
      ],
      "stateMutability": "view",
      "type": "function"
    },
    {
      "inputs": [],
      "name": "isOwner",
      "outputs": [
        {
          "internalType": "bool",
          "name": "",
          "type": "bool"
        }
      ],
      "stateMutability": "view",
      "type": "function"
    },
    {
      "inputs": [],
      "name": "owner",
      "outputs": [
        {
          "internalType": "address",
          "name": "",
          "type": "address"
        }
      ],
      "stateMutability": "view",
      "type": "function"
    },
    {
      "inputs": [],
      "name": "renounceOwnership",
      "outputs": [],
      "stateMutability": "nonpayable",
      "type": "function"
    },
    {
      "inputs": [
        {
          "internalType": "address",
          "name": "",
          "type": "address"
        }
      ],
      "name": "totalVestedAccountBalance",
      "outputs": [
        {
          "internalType": "uint256",
          "name": "",
          "type": "uint256"
        }
      ],
      "stateMutability": "view",
      "type": "function"
    },
    {
      "inputs": [],
      "name": "totalVestedBalance",
      "outputs": [
        {
          "internalType": "uint256",
          "name": "",
          "type": "uint256"
        }
      ],
      "stateMutability": "view",
      "type": "function"
    },
    {
      "inputs": [
        {
          "internalType": "address",
          "name": "newOwner",
          "type": "address"
        }
      ],
      "name": "transferOwnership",
      "outputs": [],
      "stateMutability": "nonpayable",
      "type": "function"
    },
    {
      "inputs": [
        {
          "internalType": "address",
          "name": "",
          "type": "address"
        },
        {
          "internalType": "uint256",
          "name": "",
          "type": "uint256"
        },
        {
          "internalType": "uint256",
          "name": "",
          "type": "uint256"
        }
      ],
      "name": "vestingSchedules",
      "outputs": [
        {
          "internalType": "uint256",
          "name": "",
          "type": "uint256"
        }
      ],
      "stateMutability": "view",
      "type": "function"
    },
    {
      "inputs": [
        {
          "internalType": "address",
          "name": "account",
          "type": "address"
        }
      ],
      "name": "balanceOf",
      "outputs": [
        {
          "internalType": "uint256",
          "name": "",
          "type": "uint256"
        }
      ],
      "stateMutability": "view",
      "type": "function"
    },
    {
      "inputs": [
        {
          "internalType": "address",
          "name": "account",
          "type": "address"
        }
      ],
      "name": "numVestingEntries",
      "outputs": [
        {
          "internalType": "uint256",
          "name": "",
          "type": "uint256"
        }
      ],
      "stateMutability": "view",
      "type": "function"
    },
    {
      "inputs": [
        {
          "internalType": "address",
          "name": "account",
          "type": "address"
        },
        {
          "internalType": "uint256",
          "name": "index",
          "type": "uint256"
        }
      ],
      "name": "getVestingScheduleEntry",
      "outputs": [
        {
          "internalType": "uint256[2]",
          "name": "",
          "type": "uint256[2]"
        }
      ],
      "stateMutability": "view",
      "type": "function"
    },
    {
      "inputs": [
        {
          "internalType": "address",
          "name": "account",
          "type": "address"
        },
        {
          "internalType": "uint256",
          "name": "index",
          "type": "uint256"
        }
      ],
      "name": "getVestingTime",
      "outputs": [
        {
          "internalType": "uint256",
          "name": "",
          "type": "uint256"
        }
      ],
      "stateMutability": "view",
      "type": "function"
    },
    {
      "inputs": [
        {
          "internalType": "address",
          "name": "account",
          "type": "address"
        },
        {
          "internalType": "uint256",
          "name": "index",
          "type": "uint256"
        }
      ],
      "name": "getVestingQuantity",
      "outputs": [
        {
          "internalType": "uint256",
          "name": "",
          "type": "uint256"
        }
      ],
      "stateMutability": "view",
      "type": "function"
    },
    {
      "inputs": [
        {
          "internalType": "address",
          "name": "account",
          "type": "address"
        }
      ],
      "name": "getNextVestingIndex",
      "outputs": [
        {
          "internalType": "uint256",
          "name": "",
          "type": "uint256"
        }
      ],
      "stateMutability": "view",
      "type": "function"
    },
    {
      "inputs": [
        {
          "internalType": "address",
          "name": "account",
          "type": "address"
        }
      ],
      "name": "getNextVestingEntry",
      "outputs": [
        {
          "internalType": "uint256[2]",
          "name": "",
          "type": "uint256[2]"
        }
      ],
      "stateMutability": "view",
      "type": "function"
    },
    {
      "inputs": [
        {
          "internalType": "address",
          "name": "account",
          "type": "address"
        }
      ],
      "name": "getNextVestingTime",
      "outputs": [
        {
          "internalType": "uint256",
          "name": "",
          "type": "uint256"
        }
      ],
      "stateMutability": "view",
      "type": "function"
    },
    {
      "inputs": [
        {
          "internalType": "address",
          "name": "account",
          "type": "address"
        }
      ],
      "name": "getNextVestingQuantity",
      "outputs": [
        {
          "internalType": "uint256",
          "name": "",
          "type": "uint256"
        }
      ],
      "stateMutability": "view",
      "type": "function"
    },
    {
      "inputs": [
        {
          "internalType": "address",
          "name": "account",
          "type": "address"
        },
        {
          "internalType": "uint256",
          "name": "time",
          "type": "uint256"
        },
        {
          "internalType": "uint256",
          "name": "quantity",
          "type": "uint256"
        }
      ],
      "name": "appendVestingEntry",
      "outputs": [],
      "stateMutability": "nonpayable",
      "type": "function"
    },
    {
      "inputs": [
        {
          "internalType": "address",
          "name": "account",
          "type": "address"
        },
        {
          "internalType": "uint256[]",
          "name": "times",
          "type": "uint256[]"
        },
        {
          "internalType": "uint256[]",
          "name": "quantities",
          "type": "uint256[]"
        }
      ],
      "name": "addVestingSchedule",
      "outputs": [],
      "stateMutability": "nonpayable",
      "type": "function"
    },
    {
      "inputs": [
        {
          "internalType": "address",
          "name": "account",
          "type": "address"
        },
        {
          "internalType": "uint256",
          "name": "amount",
          "type": "uint256"
        },
        {
          "internalType": "uint256",
          "name": "numberOfMonths",
          "type": "uint256"
        }
      ],
      "name": "addUniformMonthlyVestingSchedule",
      "outputs": [],
      "stateMutability": "nonpayable",
      "type": "function"
    },
    {
      "inputs": [],
      "name": "vest",
      "outputs": [],
      "stateMutability": "nonpayable",
      "type": "function"
    }
  ],
  "bytecode": "0x60a060405234801561001057600080fd5b50604051611b9e380380611b9e8339818101604052602081101561003357600080fd5b8101908080519060200190929190505050336000806101000a81548173ffffffffffffffffffffffffffffffffffffffff021916908373ffffffffffffffffffffffffffffffffffffffff16021790555060008054906101000a900473ffffffffffffffffffffffffffffffffffffffff1673ffffffffffffffffffffffffffffffffffffffff16600073ffffffffffffffffffffffffffffffffffffffff167f8be0079c531659141344cd1fd0a4f28419497f9722a3daafe3b4186f6b6457e060405160405180910390a38073ffffffffffffffffffffffffffffffffffffffff1660808173ffffffffffffffffffffffffffffffffffffffff1660601b815250505060805160601c611a4061015e600039806108fe528061104452806115ea5250611a406000f3fe608060405234801561001057600080fd5b50600436106101585760003560e01c80638ad58777116100c3578063a15d59ce1161007c578063a15d59ce14610643578063bb2a7d0c14610661578063d0cc82e31461074f578063da7bd3e91461076d578063ee1d036c146107f7578063f2fde38b1461085957610158565b80638ad58777146104e35780638da5cb5b146105015780638f32d59b1461053557806397f4652714610555578063981f3b8e146105ad5780639b217f90146105e157610158565b806345e5441f1161011557806345e5441f1461034757806363667eb7146103b35780636b3905c4146103d157806370a0823114610429578063715018a6146104815780637739b6051461048b57610158565b806319e740c01461015d5780631bb47b44146101b5578063204b676a1461020d578063227d517a146102655780632f5bb661146102bd578063458efde31461033d575b600080fd5b61019f6004803603602081101561017357600080fd5b81019080803573ffffffffffffffffffffffffffffffffffffffff16906020019092919050505061089d565b6040518082815260200191505060405180910390f35b61020b600480360360608110156101cb57600080fd5b81019080803573ffffffffffffffffffffffffffffffffffffffff16906020019092919080359060200190929190803590602001909291905050506108e9565b005b61024f6004803603602081101561022357600080fd5b81019080803573ffffffffffffffffffffffffffffffffffffffff169060200190929190505050610e83565b6040518082815260200191505060405180910390f35b6102a76004803603602081101561027b57600080fd5b81019080803573ffffffffffffffffffffffffffffffffffffffff169060200190929190505050610ecf565b6040518082815260200191505060405180910390f35b6102ff600480360360208110156102d357600080fd5b81019080803573ffffffffffffffffffffffffffffffffffffffff169060200190929190505050610ee7565b6040518082600260200280838360005b8381101561032a57808201518184015260208101905061030f565b5050505090500191505060405180910390f35b610345610f3e565b005b61039d6004803603606081101561035d57600080fd5b81019080803573ffffffffffffffffffffffffffffffffffffffff16906020019092919080359060200190929190803590602001909291905050506112da565b6040518082815260200191505060405180910390f35b6103bb611319565b6040518082815260200191505060405180910390f35b610413600480360360208110156103e757600080fd5b81019080803573ffffffffffffffffffffffffffffffffffffffff16906020019092919050505061131e565b6040518082815260200191505060405180910390f35b61046b6004803603602081101561043f57600080fd5b81019080803573ffffffffffffffffffffffffffffffffffffffff169060200190929190505050611341565b6040518082815260200191505060405180910390f35b61048961138a565b005b6104e1600480360360608110156104a157600080fd5b81019080803573ffffffffffffffffffffffffffffffffffffffff1690602001909291908035906020019092919080359060200190929190505050611459565b005b6104eb611540565b6040518082815260200191505060405180910390f35b610509611545565b604051808273ffffffffffffffffffffffffffffffffffffffff16815260200191505060405180910390f35b61053d61156e565b60405180821515815260200191505060405180910390f35b6105976004803603602081101561056b57600080fd5b81019080803573ffffffffffffffffffffffffffffffffffffffff1690602001909291905050506115c5565b6040518082815260200191505060405180910390f35b6105b56115e8565b604051808273ffffffffffffffffffffffffffffffffffffffff16815260200191505060405180910390f35b61062d600480360360408110156105f757600080fd5b81019080803573ffffffffffffffffffffffffffffffffffffffff1690602001909291908035906020019092919050505061160c565b6040518082815260200191505060405180910390f35b61064b611631565b6040518082815260200191505060405180910390f35b61074d6004803603606081101561067757600080fd5b81019080803573ffffffffffffffffffffffffffffffffffffffff169060200190929190803590602001906401000000008111156106b457600080fd5b8201836020820111156106c657600080fd5b803590602001918460208302840111640100000000831117156106e857600080fd5b90919293919293908035906020019064010000000081111561070957600080fd5b82018360208201111561071b57600080fd5b8035906020019184602083028401116401000000008311171561073d57600080fd5b9091929391929390505050611637565b005b61075761169a565b6040518082815260200191505060405180910390f35b6107b96004803603604081101561078357600080fd5b81019080803573ffffffffffffffffffffffffffffffffffffffff1690602001909291908035906020019092919050505061169f565b6040518082600260200280838360005b838110156107e45780820151818401526020810190506107c9565b5050505090500191505060405180910390f35b6108436004803603604081101561080d57600080fd5b81019080803573ffffffffffffffffffffffffffffffffffffffff16906020019092919080359060200190929190505050611743565b6040518082815260200191505060405180910390f35b61089b6004803603602081101561086f57600080fd5b81019080803573ffffffffffffffffffffffffffffffffffffffff169060200190929190505050611768565b005b6000806108a983610e83565b905060005b818110156108de5760006108c2858361160c565b146108d15780925050506108e4565b80806001019150506108ae565b50809150505b919050565b6108f161156e565b6108fa57600080fd5b60007f000000000000000000000000000000000000000000000000000000000000000073ffffffffffffffffffffffffffffffffffffffff166304433bbc6040518163ffffffff1660e01b815260040180806020018281038252600c8152602001807f42617365547261646567656e000000000000000000000000000000000000000081525060200191505060206040518083038186803b15801561099e57600080fd5b505afa1580156109b2573d6000803e3d6000fd5b505050506040513d60208110156109c857600080fd5b81019080805190602001909291905050509050824210610a50576040517f08c379a000000000000000000000000000000000000000000000000000000000815260040180806020018281038252601a8152602001807f54696d65206d75737420626520696e207468652066757475726500000000000081525060200191505060405180910390fd5b6000821415610ac7576040517f08c379a00000000000000000000000000000000000000000000000000000000081526004018080602001828103825260178152602001807f5175616e746974792063616e6e6f74206265207a65726f00000000000000000081525060200191505060405180910390fd5b610adc8260035461178590919063ffffffff16565b6003819055508073ffffffffffffffffffffffffffffffffffffffff166370a08231306040518263ffffffff1660e01b8152600401808273ffffffffffffffffffffffffffffffffffffffff16815260200191505060206040518083038186803b158015610b4957600080fd5b505afa158015610b5d573d6000803e3d6000fd5b505050506040513d6020811015610b7357600080fd5b81019080805190602001909291905050506003541115610bde576040517f08c379a00000000000000000000000000000000000000000000000000000000081526004018080602001828103825260478152602001806119c46047913960600191505060405180910390fd5b6000600160008673ffffffffffffffffffffffffffffffffffffffff1673ffffffffffffffffffffffffffffffffffffffff1681526020019081526020016000208054905090506030811115610c9c576040517f08c379a000000000000000000000000000000000000000000000000000000000815260040180806020018281038252601c8152602001807f56657374696e67207363686564756c6520697320746f6f206c6f6e670000000081525060200191505060405180910390fd5b6000811415610cee5782600260008773ffffffffffffffffffffffffffffffffffffffff1673ffffffffffffffffffffffffffffffffffffffff16815260200190815260200160002081905550610df0565b83610d04866001610cfe89610e83565b0361160c565b10610d5a576040517f08c379a000000000000000000000000000000000000000000000000000000000815260040180806020018281038252603781526020018061198d6037913960400191505060405180910390fd5b610dac83600260008873ffffffffffffffffffffffffffffffffffffffff1673ffffffffffffffffffffffffffffffffffffffff1681526020019081526020016000205461178590919063ffffffff16565b600260008773ffffffffffffffffffffffffffffffffffffffff1673ffffffffffffffffffffffffffffffffffffffff168152602001908152602001600020819055505b600160008673ffffffffffffffffffffffffffffffffffffffff1673ffffffffffffffffffffffffffffffffffffffff1681526020019081526020016000206040518060400160405280868152602001858152509080600181540180825580915050600190039060005260206000209060020201600090919091909150906002610e7b9291906118c8565b505050505050565b6000600160008373ffffffffffffffffffffffffffffffffffffffff1673ffffffffffffffffffffffffffffffffffffffff168152602001908152602001600020805490509050919050565b60026020528060005260406000206000915090505481565b610eef611908565b6000610efa8361089d565b9050610f0583610e83565b811415610f2b576040518060400160405280600081526020016000815250915050610f39565b610f35838261169f565b9150505b919050565b6000610f4933610e83565b9050600080600090505b82811015611037576000610f67338361160c565b905042811115610f775750611037565b6000610f833384611743565b90506000811115611028576040518060400160405280600060ff168152602001600060ff16815250600160003373ffffffffffffffffffffffffffffffffffffffff1673ffffffffffffffffffffffffffffffffffffffff1681526020019081526020016000208481548110610ff557fe5b906000526020600020906002020190600261101192919061192a565b50611025818561178590919063ffffffff16565b93505b50508080600101915050610f53565b50600081146112d65760007f000000000000000000000000000000000000000000000000000000000000000073ffffffffffffffffffffffffffffffffffffffff166304433bbc6040518163ffffffff1660e01b815260040180806020018281038252600c8152602001807f42617365547261646567656e000000000000000000000000000000000000000081525060200191505060206040518083038186803b1580156110e457600080fd5b505afa1580156110f8573d6000803e3d6000fd5b505050506040513d602081101561110e57600080fd5b81019080805190602001909291905050509050611136826003546117a190919063ffffffff16565b60038190555061118e82600260003373ffffffffffffffffffffffffffffffffffffffff1673ffffffffffffffffffffffffffffffffffffffff168152602001908152602001600020546117a190919063ffffffff16565b600260003373ffffffffffffffffffffffffffffffffffffffff1673ffffffffffffffffffffffffffffffffffffffff168152602001908152602001600020819055508073ffffffffffffffffffffffffffffffffffffffff1663a9059cbb33846040518363ffffffff1660e01b8152600401808373ffffffffffffffffffffffffffffffffffffffff16815260200182815260200192505050602060405180830381600087803b15801561124257600080fd5b505af1158015611256573d6000803e3d6000fd5b505050506040513d602081101561126c57600080fd5b8101908080519060200190929190505050503373ffffffffffffffffffffffffffffffffffffffff167ffbeff59d2bfda0d79ea8a29f8c57c66d48c7a13eabbdb90908d9115ec41c9dc64284604051808381526020018281526020019250505060405180910390a2505b5050565b600160205282600052604060002082815481106112f357fe5b9060005260206000209060020201816002811061130c57fe5b0160009250925050505481565b600081565b600061132982610ee7565b60006002811061133557fe5b60200201519050919050565b6000600260008373ffffffffffffffffffffffffffffffffffffffff1673ffffffffffffffffffffffffffffffffffffffff168152602001908152602001600020549050919050565b61139261156e565b61139b57600080fd5b600073ffffffffffffffffffffffffffffffffffffffff1660008054906101000a900473ffffffffffffffffffffffffffffffffffffffff1673ffffffffffffffffffffffffffffffffffffffff167f8be0079c531659141344cd1fd0a4f28419497f9722a3daafe3b4186f6b6457e060405160405180910390a360008060006101000a81548173ffffffffffffffffffffffffffffffffffffffff021916908373ffffffffffffffffffffffffffffffffffffffff160217905550565b61146161156e565b61146a57600080fd5b60308111156114e1576040517f08c379a000000000000000000000000000000000000000000000000000000000815260040180806020018281038252601c8152602001807f56657374696e67207363686564756c6520697320746f6f206c6f6e670000000081525060200191505060405180910390fd5b600042905060005b8281101561153957600062278d00905061150c818461178590919063ffffffff16565b925061152b868461152687896117b890919063ffffffff16565b6108e9565b5080806001019150506114e9565b5050505050565b600181565b60008060009054906101000a900473ffffffffffffffffffffffffffffffffffffffff16905090565b60008060009054906101000a900473ffffffffffffffffffffffffffffffffffffffff1673ffffffffffffffffffffffffffffffffffffffff163373ffffffffffffffffffffffffffffffffffffffff1614905090565b60006115d082610ee7565b6001600281106115dc57fe5b60200201519050919050565b7f000000000000000000000000000000000000000000000000000000000000000081565b6000611618838361169f565b60006002811061162457fe5b6020020151905092915050565b60035481565b61163f61156e565b61164857600080fd5b60005b84849050811015611692576116858686868481811061166657fe5b9050602002013585858581811061167957fe5b905060200201356108e9565b808060010191505061164b565b505050505050565b603081565b6116a7611908565b600160008473ffffffffffffffffffffffffffffffffffffffff1673ffffffffffffffffffffffffffffffffffffffff16815260200190815260200160002082815481106116f157fe5b9060005260206000209060020201600280602002604051908101604052809291908260028015611736576020028201915b815481526020019060010190808311611722575b5050505050905092915050565b600061174f838361169f565b60016002811061175b57fe5b6020020151905092915050565b61177061156e565b61177957600080fd5b611782816117d1565b50565b60008082840190508381101561179757fe5b8091505092915050565b6000828211156117ad57fe5b818303905092915050565b6000808284816117c457fe5b0490508091505092915050565b600073ffffffffffffffffffffffffffffffffffffffff168173ffffffffffffffffffffffffffffffffffffffff16141561180b57600080fd5b8073ffffffffffffffffffffffffffffffffffffffff1660008054906101000a900473ffffffffffffffffffffffffffffffffffffffff1673ffffffffffffffffffffffffffffffffffffffff167f8be0079c531659141344cd1fd0a4f28419497f9722a3daafe3b4186f6b6457e060405160405180910390a3806000806101000a81548173ffffffffffffffffffffffffffffffffffffffff021916908373ffffffffffffffffffffffffffffffffffffffff16021790555050565b82600281019282156118f7579160200282015b828111156118f65782518255916020019190600101906118db565b5b509050611904919061196f565b5090565b6040518060400160405280600290602082028036833780820191505090505090565b826002810192821561195e579160200282015b8281111561195d578251829060ff1690559160200191906001019061193d565b5b50905061196b919061196f565b5090565b5b80821115611988576000816000905550600101611970565b509056fe43616e6e6f7420616464206e65772076657374656420656e7472696573206561726c696572207468616e20746865206c617374206f6e654d75737420626520656e6f7567682062616c616e636520696e2074686520636f6e747261637420746f2070726f7669646520666f72207468652076657374696e6720656e747279a2646970667358221220fe942ce603aa199fbd7aea11274da8a491961db7b5cf4f0c2ace4d518447580c64736f6c634300060c0033",
  "immutableReferences": {
    "387": [
      {
        "length": 32,
        "start": 2302
      },
      {
        "length": 32,
        "start": 4164
      },
      {
        "length": 32,
        "start": 5610
      }
    ]
  },
  "source": "pragma solidity >=0.5.0;\r\n\r\n// Inheritance\r\nimport \"./Ownable.sol\";\r\nimport \"./interfaces/ITradegenEscrow.sol\";\r\n\r\n// Libraires\r\nimport \"./libraries/SafeMath.sol\";\r\n\r\n// Internal references\r\nimport \"./interfaces/IERC20.sol\";\r\nimport \"./interfaces/IAddressResolver.sol\";\r\n\r\ncontract TradegenEscrow is Ownable, ITradegenEscrow {\r\n    using SafeMath for uint;\r\n\r\n    IAddressResolver public immutable ADDRESS_RESOLVER;\r\n\r\n    /* Lists of (timestamp, quantity) pairs per account, sorted in ascending time order.\r\n     * These are the times at which each given quantity of TGEN vests. */\r\n    mapping(address => uint[2][]) public vestingSchedules;\r\n\r\n    /* An account's total vested TGEN balance to save recomputing this */\r\n    mapping(address => uint) public totalVestedAccountBalance;\r\n\r\n    /* The total remaining vested balance, for verifying the actual Tradegen balance of this contract against. */\r\n    uint public totalVestedBalance;\r\n\r\n    uint public constant TIME_INDEX = 0;\r\n    uint public constant QUANTITY_INDEX = 1;\r\n\r\n    /* Limit vesting entries to disallow unbounded iteration over vesting schedules. */\r\n    uint public constant MAX_VESTING_ENTRIES = 48;\r\n\r\n    /* ========== CONSTRUCTOR ========== */\r\n\r\n    constructor(IAddressResolver _addressResolver) public Ownable() {\r\n        ADDRESS_RESOLVER = _addressResolver;\r\n    }\r\n\r\n    /* ========== VIEW FUNCTIONS ========== */\r\n\r\n    /**\r\n     * @notice A simple alias to totalVestedAccountBalance: provides ERC20 balance integration.\r\n     */\r\n    function balanceOf(address account) public view override returns (uint) {\r\n        return totalVestedAccountBalance[account];\r\n    }\r\n\r\n    /**\r\n     * @notice The number of vesting dates in an account's schedule.\r\n     */\r\n    function numVestingEntries(address account) public view override returns (uint) {\r\n        return vestingSchedules[account].length;\r\n    }\r\n\r\n    /**\r\n     * @notice Get a particular schedule entry for an account.\r\n     * @return A pair of uints: (timestamp, TGEN quantity).\r\n     */\r\n    function getVestingScheduleEntry(address account, uint index) public view override returns (uint[2] memory) {\r\n        return vestingSchedules[account][index];\r\n    }\r\n\r\n    /**\r\n     * @notice Get the time at which a given schedule entry will vest.\r\n     */\r\n    function getVestingTime(address account, uint index) public view override returns (uint) {\r\n        return getVestingScheduleEntry(account, index)[TIME_INDEX];\r\n    }\r\n\r\n    /**\r\n     * @notice Get the quantity of TGEN associated with a given schedule entry.\r\n     */\r\n    function getVestingQuantity(address account, uint index) public view override returns (uint) {\r\n        return getVestingScheduleEntry(account, index)[QUANTITY_INDEX];\r\n    }\r\n\r\n    /**\r\n     * @notice Obtain the index of the next schedule entry that will vest for a given user.\r\n     */\r\n    function getNextVestingIndex(address account) public view override returns (uint) {\r\n        uint len = numVestingEntries(account);\r\n\r\n        for (uint i = 0; i < len; i++)\r\n        {\r\n            if (getVestingTime(account, i) != 0)\r\n            {\r\n                return i;\r\n            }\r\n        }\r\n\r\n        return len;\r\n    }\r\n\r\n    /**\r\n     * @notice Obtain the next schedule entry that will vest for a given user.\r\n     * @return A pair of uints: (timestamp, TGEN quantity). */\r\n    function getNextVestingEntry(address account) public view override returns (uint[2] memory) {\r\n        uint index = getNextVestingIndex(account);\r\n        if (index == numVestingEntries(account))\r\n        {\r\n            return [uint(0), 0];\r\n        }\r\n\r\n        return getVestingScheduleEntry(account, index);\r\n    }\r\n\r\n    /**\r\n     * @notice Obtain the time at which the next schedule entry will vest for a given user.\r\n     */\r\n    function getNextVestingTime(address account) external view override returns (uint) {\r\n        return getNextVestingEntry(account)[TIME_INDEX];\r\n    }\r\n\r\n    /**\r\n     * @notice Obtain the quantity which the next schedule entry will vest for a given user.\r\n     */\r\n    function getNextVestingQuantity(address account) external view override returns (uint) {\r\n        return getNextVestingEntry(account)[QUANTITY_INDEX];\r\n    }\r\n\r\n    /* ========== MUTATIVE FUNCTIONS ========== */\r\n\r\n    /**\r\n     * @notice Add a new vesting entry at a given time and quantity to an account's schedule.\r\n     * @param account The account to append a new vesting entry to.\r\n     * @param time The absolute unix timestamp after which the vested quantity may be withdrawn.\r\n     * @param quantity The quantity of TGEN that will vest.\r\n     */\r\n    function appendVestingEntry(address account, uint time, uint quantity) public onlyOwner {\r\n        address baseTradegenAddress = ADDRESS_RESOLVER.getContractAddress(\"BaseTradegen\");\r\n\r\n        /* No empty or already-passed vesting entries allowed. */\r\n        require(block.timestamp < time, \"Time must be in the future\");\r\n        require(quantity != 0, \"Quantity cannot be zero\");\r\n\r\n        /* There must be enough balance in the contract to provide for the vesting entry. */\r\n        totalVestedBalance = totalVestedBalance.add(quantity);\r\n        require(\r\n            totalVestedBalance <= IERC20(baseTradegenAddress).balanceOf(address(this)),\r\n            \"Must be enough balance in the contract to provide for the vesting entry\"\r\n        );\r\n\r\n        /* Disallow arbitrarily long vesting schedules in light of the gas limit. */\r\n        uint scheduleLength = vestingSchedules[account].length;\r\n        require(scheduleLength <= MAX_VESTING_ENTRIES, \"Vesting schedule is too long\");\r\n\r\n        if (scheduleLength == 0)\r\n        {\r\n            totalVestedAccountBalance[account] = quantity;\r\n        }\r\n        else\r\n        {\r\n            /* Disallow adding new vested TGEN earlier than the last one.\r\n             * Since entries are only appended, this means that no vesting date can be repeated. */\r\n            require(\r\n                getVestingTime(account, numVestingEntries(account) - 1) < time,\r\n                \"Cannot add new vested entries earlier than the last one\"\r\n            );\r\n\r\n            totalVestedAccountBalance[account] = totalVestedAccountBalance[account].add(quantity);\r\n        }\r\n\r\n        vestingSchedules[account].push([time, quantity]);\r\n    }\r\n\r\n    /**\r\n     * @notice Construct a vesting schedule to release a quantities of TGEN\r\n     * over a series of intervals.\r\n     * @dev Assumes that the quantities are nonzero\r\n     * and that the sequence of timestamps is strictly increasing.\r\n     * This may only be called by the owner during the contract's setup period.\r\n     */\r\n    function addVestingSchedule(address account, uint[] calldata times, uint[] calldata quantities) external onlyOwner {\r\n        for (uint i = 0; i < times.length; i++)\r\n        {\r\n            appendVestingEntry(account, times[i], quantities[i]);\r\n        }\r\n    }\r\n\r\n    /**\r\n     * @notice Construct a vesting schedule to release equal amounts of TGEN\r\n     * over a number of months.\r\n     * @dev Assumes that the quantities are nonzero\r\n     * and that the sequence of timestamps is strictly increasing.\r\n     * This may only be called by the owner during the contract's setup period.\r\n     */\r\n    function addUniformMonthlyVestingSchedule(address account, uint amount, uint numberOfMonths) external onlyOwner {\r\n        require(numberOfMonths <= MAX_VESTING_ENTRIES, \"Vesting schedule is too long\");\r\n\r\n        uint timestamp = block.timestamp;\r\n        for (uint i = 0; i < numberOfMonths; i++)\r\n        {\r\n            uint difference = 30 days;\r\n            timestamp = timestamp.add(difference);\r\n            appendVestingEntry(account, timestamp, amount.div(numberOfMonths));\r\n        }\r\n    }\r\n\r\n    /**\r\n     * @notice Allow a user to withdraw any TGEN in their schedule that have vested.\r\n     */\r\n    function vest() external override {\r\n        uint numEntries = numVestingEntries(msg.sender);\r\n        uint total;\r\n\r\n        for (uint i = 0; i < numEntries; i++)\r\n        {\r\n            uint time = getVestingTime(msg.sender, i);\r\n            /* The list is sorted; when we reach the first future time, bail out. */\r\n            if (time > block.timestamp)\r\n            {\r\n                break;\r\n            }\r\n\r\n            uint qty = getVestingQuantity(msg.sender, i);\r\n\r\n            if (qty > 0)\r\n            {\r\n                vestingSchedules[msg.sender][i] = [0, 0];\r\n                total = total.add(qty);\r\n            }\r\n        }\r\n\r\n        if (total != 0)\r\n        {\r\n            address baseTradegenAddress = ADDRESS_RESOLVER.getContractAddress(\"BaseTradegen\");\r\n            totalVestedBalance = totalVestedBalance.sub(total);\r\n            totalVestedAccountBalance[msg.sender] = totalVestedAccountBalance[msg.sender].sub(total);\r\n            IERC20(baseTradegenAddress).transfer(msg.sender, total);\r\n\r\n            emit Vested(msg.sender, block.timestamp, total);\r\n        }\r\n    }\r\n\r\n    /* ========== EVENTS ========== */\r\n\r\n    event Vested(address indexed beneficiary, uint time, uint value);\r\n}",
  "sourcePath": "C:/Users/xavie/OneDrive/Desktop/TradeGen/Github/tradegen/contracts/TradegenEscrow.sol",
  "compiler": {
    "name": "solc",
    "version": "0.6.12+commit.27d51765.Emscripten.clang"
  },
  "schemaVersion": "3.4.1",
  "updatedAt": "2021-07-10T20:44:05.913Z",
  "devdoc": {
    "kind": "dev",
    "methods": {
      "addUniformMonthlyVestingSchedule(address,uint256,uint256)": {
        "details": "Assumes that the quantities are nonzero and that the sequence of timestamps is strictly increasing. This may only be called by the owner during the contract's setup period."
      },
      "addVestingSchedule(address,uint256[],uint256[])": {
        "details": "Assumes that the quantities are nonzero and that the sequence of timestamps is strictly increasing. This may only be called by the owner during the contract's setup period."
      },
      "appendVestingEntry(address,uint256,uint256)": {
        "params": {
          "account": "The account to append a new vesting entry to.",
          "quantity": "The quantity of TGEN that will vest.",
          "time": "The absolute unix timestamp after which the vested quantity may be withdrawn."
        }
      },
      "getNextVestingEntry(address)": {
        "returns": {
          "_0": "A pair of uints: (timestamp, TGEN quantity). "
        }
      },
      "getVestingScheduleEntry(address,uint256)": {
        "returns": {
          "_0": "A pair of uints: (timestamp, TGEN quantity)."
        }
      },
      "isOwner()": {
        "returns": {
          "_0": "true if `msg.sender` is the owner of the contract."
        }
      },
      "owner()": {
        "returns": {
          "_0": "the address of the owner."
        }
      },
      "renounceOwnership()": {
        "details": "Allows the current owner to relinquish control of the contract."
      },
      "transferOwnership(address)": {
        "details": "Allows the current owner to transfer control of the contract to a newOwner.",
        "params": {
          "newOwner": "The address to transfer ownership to."
        }
      }
    },
    "version": 1
  },
  "userdoc": {
    "kind": "user",
    "methods": {
      "addUniformMonthlyVestingSchedule(address,uint256,uint256)": {
        "notice": "Construct a vesting schedule to release equal amounts of TGEN over a number of months."
      },
      "addVestingSchedule(address,uint256[],uint256[])": {
        "notice": "Construct a vesting schedule to release a quantities of TGEN over a series of intervals."
      },
      "appendVestingEntry(address,uint256,uint256)": {
        "notice": "Add a new vesting entry at a given time and quantity to an account's schedule."
      },
      "balanceOf(address)": {
        "notice": "A simple alias to totalVestedAccountBalance: provides ERC20 balance integration."
      },
      "getNextVestingEntry(address)": {
        "notice": "Obtain the next schedule entry that will vest for a given user."
      },
      "getNextVestingIndex(address)": {
        "notice": "Obtain the index of the next schedule entry that will vest for a given user."
      },
      "getNextVestingQuantity(address)": {
        "notice": "Obtain the quantity which the next schedule entry will vest for a given user."
      },
      "getNextVestingTime(address)": {
        "notice": "Obtain the time at which the next schedule entry will vest for a given user."
      },
      "getVestingQuantity(address,uint256)": {
        "notice": "Get the quantity of TGEN associated with a given schedule entry."
      },
      "getVestingScheduleEntry(address,uint256)": {
        "notice": "Get a particular schedule entry for an account."
      },
      "getVestingTime(address,uint256)": {
        "notice": "Get the time at which a given schedule entry will vest."
      },
      "numVestingEntries(address)": {
        "notice": "The number of vesting dates in an account's schedule."
      },
      "renounceOwnership()": {
        "notice": "Renouncing to ownership will leave the contract without an owner. It will not be possible to call the functions with the `onlyOwner` modifier anymore."
      },
      "vest()": {
        "notice": "Allow a user to withdraw any TGEN in their schedule that have vested."
      }
    },
    "version": 1
  }
}