{
  "contractName": "TradegenLPStakingRewards",
  "abi": [
    {
      "inputs": [
        {
          "internalType": "contract IAddressResolver",
          "name": "_addressResolver",
          "type": "address"
        }
      ],
      "stateMutability": "nonpayable",
      "type": "constructor"
    },
    {
      "anonymous": false,
      "inputs": [
        {
          "indexed": true,
          "internalType": "address",
          "name": "previousOwner",
          "type": "address"
        },
        {
          "indexed": true,
          "internalType": "address",
          "name": "newOwner",
          "type": "address"
        }
      ],
      "name": "OwnershipTransferred",
      "type": "event"
    },
    {
      "anonymous": false,
      "inputs": [
        {
          "indexed": true,
          "internalType": "address",
          "name": "user",
          "type": "address"
        },
        {
          "indexed": false,
          "internalType": "uint256",
          "name": "amount",
          "type": "uint256"
        },
        {
          "indexed": false,
          "internalType": "uint256",
          "name": "timestamp",
          "type": "uint256"
        }
      ],
      "name": "RewardPaid",
      "type": "event"
    },
    {
      "anonymous": false,
      "inputs": [
        {
          "indexed": true,
          "internalType": "address",
          "name": "beneficiary",
          "type": "address"
        },
        {
          "indexed": false,
          "internalType": "uint256",
          "name": "total",
          "type": "uint256"
        },
        {
          "indexed": false,
          "internalType": "uint256",
          "name": "vestingTimestamp",
          "type": "uint256"
        },
        {
          "indexed": false,
          "internalType": "uint256",
          "name": "timestamp",
          "type": "uint256"
        }
      ],
      "name": "Staked",
      "type": "event"
    },
    {
      "anonymous": false,
      "inputs": [
        {
          "indexed": true,
          "internalType": "address",
          "name": "beneficiary",
          "type": "address"
        },
        {
          "indexed": false,
          "internalType": "uint256",
          "name": "time",
          "type": "uint256"
        },
        {
          "indexed": false,
          "internalType": "uint256",
          "name": "value",
          "type": "uint256"
        }
      ],
      "name": "Vested",
      "type": "event"
    },
    {
      "inputs": [],
      "name": "ADDRESS_RESOLVER",
      "outputs": [
        {
          "internalType": "contract IAddressResolver",
          "name": "",
          "type": "address"
        }
      ],
      "stateMutability": "view",
      "type": "function"
    },
    {
      "inputs": [],
      "name": "MAX_VESTING_ENTRIES",
      "outputs": [
        {
          "internalType": "uint256",
          "name": "",
          "type": "uint256"
        }
      ],
      "stateMutability": "view",
      "type": "function"
    },
    {
      "inputs": [],
      "name": "QUANTITY_INDEX",
      "outputs": [
        {
          "internalType": "uint256",
          "name": "",
          "type": "uint256"
        }
      ],
      "stateMutability": "view",
      "type": "function"
    },
    {
      "inputs": [],
      "name": "TIME_INDEX",
      "outputs": [
        {
          "internalType": "uint256",
          "name": "",
          "type": "uint256"
        }
      ],
      "stateMutability": "view",
      "type": "function"
    },
    {
      "inputs": [],
      "name": "TOKENS_INDEX",
      "outputs": [
        {
          "internalType": "uint256",
          "name": "",
          "type": "uint256"
        }
      ],
      "stateMutability": "view",
      "type": "function"
    },
    {
      "inputs": [
        {
          "internalType": "address",
          "name": "",
          "type": "address"
        }
      ],
      "name": "_balances",
      "outputs": [
        {
          "internalType": "uint256",
          "name": "",
          "type": "uint256"
        }
      ],
      "stateMutability": "view",
      "type": "function"
    },
    {
      "inputs": [],
      "name": "_totalSupply",
      "outputs": [
        {
          "internalType": "uint256",
          "name": "",
          "type": "uint256"
        }
      ],
      "stateMutability": "view",
      "type": "function"
    },
    {
      "inputs": [],
      "name": "isOwner",
      "outputs": [
        {
          "internalType": "bool",
          "name": "",
          "type": "bool"
        }
      ],
      "stateMutability": "view",
      "type": "function"
    },
    {
      "inputs": [],
      "name": "lastUpdateTime",
      "outputs": [
        {
          "internalType": "uint256",
          "name": "",
          "type": "uint256"
        }
      ],
      "stateMutability": "view",
      "type": "function"
    },
    {
      "inputs": [],
      "name": "owner",
      "outputs": [
        {
          "internalType": "address",
          "name": "",
          "type": "address"
        }
      ],
      "stateMutability": "view",
      "type": "function"
    },
    {
      "inputs": [],
      "name": "renounceOwnership",
      "outputs": [],
      "stateMutability": "nonpayable",
      "type": "function"
    },
    {
      "inputs": [],
      "name": "rewardPerTokenStored",
      "outputs": [
        {
          "internalType": "uint256",
          "name": "",
          "type": "uint256"
        }
      ],
      "stateMutability": "view",
      "type": "function"
    },
    {
      "inputs": [
        {
          "internalType": "address",
          "name": "",
          "type": "address"
        }
      ],
      "name": "rewards",
      "outputs": [
        {
          "internalType": "uint256",
          "name": "",
          "type": "uint256"
        }
      ],
      "stateMutability": "view",
      "type": "function"
    },
    {
      "inputs": [
        {
          "internalType": "address",
          "name": "",
          "type": "address"
        }
      ],
      "name": "totalVestedAccountBalance",
      "outputs": [
        {
          "internalType": "uint256",
          "name": "",
          "type": "uint256"
        }
      ],
      "stateMutability": "view",
      "type": "function"
    },
    {
      "inputs": [],
      "name": "totalVestedBalance",
      "outputs": [
        {
          "internalType": "uint256",
          "name": "",
          "type": "uint256"
        }
      ],
      "stateMutability": "view",
      "type": "function"
    },
    {
      "inputs": [
        {
          "internalType": "address",
          "name": "newOwner",
          "type": "address"
        }
      ],
      "name": "transferOwnership",
      "outputs": [],
      "stateMutability": "nonpayable",
      "type": "function"
    },
    {
      "inputs": [
        {
          "internalType": "address",
          "name": "",
          "type": "address"
        }
      ],
      "name": "userRewardPerTokenPaid",
      "outputs": [
        {
          "internalType": "uint256",
          "name": "",
          "type": "uint256"
        }
      ],
      "stateMutability": "view",
      "type": "function"
    },
    {
      "inputs": [
        {
          "internalType": "address",
          "name": "",
          "type": "address"
        },
        {
          "internalType": "uint256",
          "name": "",
          "type": "uint256"
        },
        {
          "internalType": "uint256",
          "name": "",
          "type": "uint256"
        }
      ],
      "name": "vestingSchedules",
      "outputs": [
        {
          "internalType": "uint256",
          "name": "",
          "type": "uint256"
        }
      ],
      "stateMutability": "view",
      "type": "function"
    },
    {
      "inputs": [],
      "name": "rewardRate",
      "outputs": [
        {
          "internalType": "uint256",
          "name": "",
          "type": "uint256"
        }
      ],
      "stateMutability": "view",
      "type": "function"
    },
    {
      "inputs": [],
      "name": "totalSupply",
      "outputs": [
        {
          "internalType": "uint256",
          "name": "",
          "type": "uint256"
        }
      ],
      "stateMutability": "view",
      "type": "function"
    },
    {
      "inputs": [],
      "name": "stakingToken",
      "outputs": [
        {
          "internalType": "address",
          "name": "",
          "type": "address"
        }
      ],
      "stateMutability": "view",
      "type": "function"
    },
    {
      "inputs": [],
      "name": "rewardsToken",
      "outputs": [
        {
          "internalType": "address",
          "name": "",
          "type": "address"
        }
      ],
      "stateMutability": "view",
      "type": "function"
    },
    {
      "inputs": [
        {
          "internalType": "address",
          "name": "account",
          "type": "address"
        }
      ],
      "name": "balanceOf",
      "outputs": [
        {
          "internalType": "uint256",
          "name": "",
          "type": "uint256"
        }
      ],
      "stateMutability": "view",
      "type": "function"
    },
    {
      "inputs": [
        {
          "internalType": "address",
          "name": "account",
          "type": "address"
        }
      ],
      "name": "numVestingEntries",
      "outputs": [
        {
          "internalType": "uint256",
          "name": "",
          "type": "uint256"
        }
      ],
      "stateMutability": "view",
      "type": "function"
    },
    {
      "inputs": [
        {
          "internalType": "address",
          "name": "account",
          "type": "address"
        },
        {
          "internalType": "uint256",
          "name": "index",
          "type": "uint256"
        }
      ],
      "name": "getVestingScheduleEntry",
      "outputs": [
        {
          "internalType": "uint256[3]",
          "name": "",
          "type": "uint256[3]"
        }
      ],
      "stateMutability": "view",
      "type": "function"
    },
    {
      "inputs": [
        {
          "internalType": "address",
          "name": "account",
          "type": "address"
        },
        {
          "internalType": "uint256",
          "name": "index",
          "type": "uint256"
        }
      ],
      "name": "getVestingTime",
      "outputs": [
        {
          "internalType": "uint256",
          "name": "",
          "type": "uint256"
        }
      ],
      "stateMutability": "view",
      "type": "function"
    },
    {
      "inputs": [
        {
          "internalType": "address",
          "name": "account",
          "type": "address"
        },
        {
          "internalType": "uint256",
          "name": "index",
          "type": "uint256"
        }
      ],
      "name": "getVestingQuantity",
      "outputs": [
        {
          "internalType": "uint256",
          "name": "",
          "type": "uint256"
        }
      ],
      "stateMutability": "view",
      "type": "function"
    },
    {
      "inputs": [
        {
          "internalType": "address",
          "name": "account",
          "type": "address"
        },
        {
          "internalType": "uint256",
          "name": "index",
          "type": "uint256"
        }
      ],
      "name": "getVestingTokenAmount",
      "outputs": [
        {
          "internalType": "uint256",
          "name": "",
          "type": "uint256"
        }
      ],
      "stateMutability": "view",
      "type": "function"
    },
    {
      "inputs": [
        {
          "internalType": "address",
          "name": "account",
          "type": "address"
        }
      ],
      "name": "getNextVestingIndex",
      "outputs": [
        {
          "internalType": "uint256",
          "name": "",
          "type": "uint256"
        }
      ],
      "stateMutability": "view",
      "type": "function"
    },
    {
      "inputs": [],
      "name": "rewardPerToken",
      "outputs": [
        {
          "internalType": "uint256",
          "name": "",
          "type": "uint256"
        }
      ],
      "stateMutability": "view",
      "type": "function"
    },
    {
      "inputs": [
        {
          "internalType": "address",
          "name": "account",
          "type": "address"
        }
      ],
      "name": "earned",
      "outputs": [
        {
          "internalType": "uint256",
          "name": "",
          "type": "uint256"
        }
      ],
      "stateMutability": "view",
      "type": "function"
    },
    {
      "inputs": [
        {
          "internalType": "address",
          "name": "account",
          "type": "address"
        }
      ],
      "name": "getNextVestingEntry",
      "outputs": [
        {
          "internalType": "uint256[3]",
          "name": "",
          "type": "uint256[3]"
        }
      ],
      "stateMutability": "view",
      "type": "function"
    },
    {
      "inputs": [
        {
          "internalType": "address",
          "name": "account",
          "type": "address"
        }
      ],
      "name": "getNextVestingTime",
      "outputs": [
        {
          "internalType": "uint256",
          "name": "",
          "type": "uint256"
        }
      ],
      "stateMutability": "view",
      "type": "function"
    },
    {
      "inputs": [
        {
          "internalType": "address",
          "name": "account",
          "type": "address"
        }
      ],
      "name": "getNextVestingQuantity",
      "outputs": [
        {
          "internalType": "uint256",
          "name": "",
          "type": "uint256"
        }
      ],
      "stateMutability": "view",
      "type": "function"
    },
    {
      "inputs": [],
      "name": "getUSDValueOfContract",
      "outputs": [
        {
          "internalType": "uint256",
          "name": "",
          "type": "uint256"
        }
      ],
      "stateMutability": "view",
      "type": "function"
    },
    {
      "inputs": [
        {
          "internalType": "uint256",
          "name": "numberOfTokens",
          "type": "uint256"
        }
      ],
      "name": "calculateValueOfLPTokens",
      "outputs": [
        {
          "internalType": "uint256",
          "name": "",
          "type": "uint256"
        }
      ],
      "stateMutability": "view",
      "type": "function"
    },
    {
      "inputs": [
        {
          "internalType": "uint256",
          "name": "amount",
          "type": "uint256"
        },
        {
          "internalType": "uint256",
          "name": "numberOfWeeks",
          "type": "uint256"
        }
      ],
      "name": "stake",
      "outputs": [],
      "stateMutability": "nonpayable",
      "type": "function"
    },
    {
      "inputs": [],
      "name": "vest",
      "outputs": [],
      "stateMutability": "nonpayable",
      "type": "function"
    },
    {
      "inputs": [],
      "name": "getReward",
      "outputs": [],
      "stateMutability": "nonpayable",
      "type": "function"
    }
  ],
  "bytecode": "0x60a060405234801561001057600080fd5b506040516137eb3803806137eb8339818101604052602081101561003357600080fd5b8101908080519060200190929190505050336000806101000a81548173ffffffffffffffffffffffffffffffffffffffff021916908373ffffffffffffffffffffffffffffffffffffffff16021790555060008054906101000a900473ffffffffffffffffffffffffffffffffffffffff1673ffffffffffffffffffffffffffffffffffffffff16600073ffffffffffffffffffffffffffffffffffffffff167f8be0079c531659141344cd1fd0a4f28419497f9722a3daafe3b4186f6b6457e060405160405180910390a3600180819055508073ffffffffffffffffffffffffffffffffffffffff1660808173ffffffffffffffffffffffffffffffffffffffff1660601b81525050426002819055505060805160601c61366161018a60003980610df45280611b5e5280611c3f5280611da5528061235652806125b45280612611528061284e5280612b7e52506136616000f3fe608060405234801561001057600080fd5b506004361061023c5760003560e01c806372f702f31161013b578063a15d59ce116100b8578063d1af0c7d1161007c578063d1af0c7d146109ff578063da7bd3e914610a33578063df136d6514610abd578063ee1d036c14610adb578063f2fde38b14610b3d5761023c565b8063a15d59ce14610969578063c8f33c9114610987578063c96f6c09146109a5578063cd3daf9d146109c3578063d0cc82e3146109e15761023c565b80638da5cb5b116100ff5780638da5cb5b146108275780638f32d59b1461085b57806397f465271461087b578063981f3b8e146108d35780639b217f90146109075761023c565b806372f702f3146107275780637b0472f01461075b5780637b0a47ee146107935780638ad58777146107b15780638b876347146107cf5761023c565b80633d18b912116101c957806363667eb71161018d57806363667eb7146105f75780636b3905c4146106155780636ebcf6071461066d57806370a08231146106c5578063715018a61461071d5761023c565b80633d18b9121461053b5780633eaaf86b14610545578063458efde31461056357806345e5441f1461056d57806359d8017c146105d95761023c565b806319e740c01161021057806319e740c014610371578063204b676a146103c9578063227d517a146104215780632659ce56146104795780632f5bb661146104bb5761023c565b80628cc262146102415780630700037d1461029957806308063bc7146102f157806318160ddd14610353575b600080fd5b6102836004803603602081101561025757600080fd5b81019080803573ffffffffffffffffffffffffffffffffffffffff169060200190929190505050610b81565b6040518082815260200191505060405180910390f35b6102db600480360360208110156102af57600080fd5b81019080803573ffffffffffffffffffffffffffffffffffffffff169060200190929190505050610c9f565b6040518082815260200191505060405180910390f35b61033d6004803603604081101561030757600080fd5b81019080803573ffffffffffffffffffffffffffffffffffffffff16906020019092919080359060200190929190505050610cb7565b6040518082815260200191505060405180910390f35b61035b610cdc565b6040518082815260200191505060405180910390f35b6103b36004803603602081101561038757600080fd5b81019080803573ffffffffffffffffffffffffffffffffffffffff169060200190929190505050610ce6565b6040518082815260200191505060405180910390f35b61040b600480360360208110156103df57600080fd5b81019080803573ffffffffffffffffffffffffffffffffffffffff169060200190929190505050610d32565b6040518082815260200191505060405180910390f35b6104636004803603602081101561043757600080fd5b81019080803573ffffffffffffffffffffffffffffffffffffffff169060200190929190505050610d7e565b6040518082815260200191505060405180910390f35b6104a56004803603602081101561048f57600080fd5b8101908080359060200190929190505050610d96565b6040518082815260200191505060405180910390f35b6104fd600480360360208110156104d157600080fd5b81019080803573ffffffffffffffffffffffffffffffffffffffff169060200190929190505050611399565b6040518082600360200280838360005b8381101561052857808201518184015260208101905061050d565b5050505090500191505060405180910390f35b6105436113f7565b005b61054d61148a565b6040518082815260200191505060405180910390f35b61056b611490565b005b6105c36004803603606081101561058357600080fd5b81019080803573ffffffffffffffffffffffffffffffffffffffff1690602001909291908035906020019092919080359060200190929190505050611999565b6040518082815260200191505060405180910390f35b6105e16119de565b6040518082815260200191505060405180910390f35b6105ff611a01565b6040518082815260200191505060405180910390f35b6106576004803603602081101561062b57600080fd5b81019080803573ffffffffffffffffffffffffffffffffffffffff169060200190929190505050611a06565b6040518082815260200191505060405180910390f35b6106af6004803603602081101561068357600080fd5b81019080803573ffffffffffffffffffffffffffffffffffffffff169060200190929190505050611a29565b6040518082815260200191505060405180910390f35b610707600480360360208110156106db57600080fd5b81019080803573ffffffffffffffffffffffffffffffffffffffff169060200190929190505050611a41565b6040518082815260200191505060405180910390f35b610725611a8a565b005b61072f611b59565b604051808273ffffffffffffffffffffffffffffffffffffffff16815260200191505060405180910390f35b6107916004803603604081101561077157600080fd5b810190808035906020019092919080359060200190929190505050611f4b565b005b61079b612352565b6040518082815260200191505060405180910390f35b6107b96124f2565b6040518082815260200191505060405180910390f35b610811600480360360208110156107e557600080fd5b81019080803573ffffffffffffffffffffffffffffffffffffffff1690602001909291905050506124f7565b6040518082815260200191505060405180910390f35b61082f61250f565b604051808273ffffffffffffffffffffffffffffffffffffffff16815260200191505060405180910390f35b610863612538565b60405180821515815260200191505060405180910390f35b6108bd6004803603602081101561089157600080fd5b81019080803573ffffffffffffffffffffffffffffffffffffffff16906020019092919050505061258f565b6040518082815260200191505060405180910390f35b6108db6125b2565b604051808273ffffffffffffffffffffffffffffffffffffffff16815260200191505060405180910390f35b6109536004803603604081101561091d57600080fd5b81019080803573ffffffffffffffffffffffffffffffffffffffff169060200190929190803590602001909291905050506125d6565b6040518082815260200191505060405180910390f35b6109716125fb565b6040518082815260200191505060405180910390f35b61098f612601565b6040518082815260200191505060405180910390f35b6109ad612607565b6040518082815260200191505060405180910390f35b6109cb61260c565b6040518082815260200191505060405180910390f35b6109e9612845565b6040518082815260200191505060405180910390f35b610a0761284a565b604051808273ffffffffffffffffffffffffffffffffffffffff16815260200191505060405180910390f35b610a7f60048036036040811015610a4957600080fd5b81019080803573ffffffffffffffffffffffffffffffffffffffff1690602001909291908035906020019092919050505061292e565b6040518082600360200280838360005b83811015610aaa578082015181840152602081019050610a8f565b5050505090500191505060405180910390f35b610ac56129d2565b6040518082815260200191505060405180910390f35b610b2760048036036040811015610af157600080fd5b81019080803573ffffffffffffffffffffffffffffffffffffffff169060200190929190803590602001909291905050506129d8565b6040518082815260200191505060405180910390f35b610b7f60048036036020811015610b5357600080fd5b81019080803573ffffffffffffffffffffffffffffffffffffffff1690602001909291905050506129fd565b005b6000610c98600560008473ffffffffffffffffffffffffffffffffffffffff1673ffffffffffffffffffffffffffffffffffffffff16815260200190815260200160002054610c8a670de0b6b3a7640000610c7c610c2e600460008973ffffffffffffffffffffffffffffffffffffffff1673ffffffffffffffffffffffffffffffffffffffff16815260200190815260200160002054610c2061260c565b612a1a90919063ffffffff16565b600760008973ffffffffffffffffffffffffffffffffffffffff1673ffffffffffffffffffffffffffffffffffffffff16815260200190815260200160002054612a3190919063ffffffff16565b612a6890919063ffffffff16565b612a8190919063ffffffff16565b9050919050565b60056020528060005260406000206000915090505481565b6000610cc3838361292e565b600260038110610ccf57fe5b6020020151905092915050565b6000600a54905090565b600080610cf283610d32565b905060005b81811015610d27576000610d0b85836125d6565b14610d1a578092505050610d2d565b8080600101915050610cf7565b50809150505b919050565b6000600860008373ffffffffffffffffffffffffffffffffffffffff1673ffffffffffffffffffffffffffffffffffffffff168152602001908152602001600020805490509050919050565b60096020528060005260406000206000915090505481565b6000808211610df0576040517f08c379a000000000000000000000000000000000000000000000000000000000815260040180806020018281038252604c815260200180613539604c913960600191505060405180910390fd5b60007f000000000000000000000000000000000000000000000000000000000000000073ffffffffffffffffffffffffffffffffffffffff166304433bbc6040518163ffffffff1660e01b81526004018080602001828103825260128152602001807f426173655562657377617041646170746572000000000000000000000000000081525060200191505060206040518083038186803b158015610e9457600080fd5b505afa158015610ea8573d6000803e3d6000fd5b505050506040513d6020811015610ebe57600080fd5b810190808051906020019092919050505090506000610edb611b59565b905060008173ffffffffffffffffffffffffffffffffffffffff16630dfe16816040518163ffffffff1660e01b815260040160206040518083038186803b158015610f2557600080fd5b505afa158015610f39573d6000803e3d6000fd5b505050506040513d6020811015610f4f57600080fd5b8101908080519060200190929190505050905060008273ffffffffffffffffffffffffffffffffffffffff1663d21220a76040518163ffffffff1660e01b815260040160206040518083038186803b158015610faa57600080fd5b505afa158015610fbe573d6000803e3d6000fd5b505050506040513d6020811015610fd457600080fd5b810190808051906020019092919050505090506000808573ffffffffffffffffffffffffffffffffffffffff1663d87fc14985858b6040518463ffffffff1660e01b8152600401808473ffffffffffffffffffffffffffffffffffffffff1681526020018373ffffffffffffffffffffffffffffffffffffffff1681526020018281526020019350505050604080518083038186803b15801561107657600080fd5b505afa15801561108a573d6000803e3d6000fd5b505050506040513d60408110156110a057600080fd5b8101908080519060200190929190805190602001909291905050509150915060008473ffffffffffffffffffffffffffffffffffffffff1663313ce5676040518163ffffffff1660e01b815260040160206040518083038186803b15801561110757600080fd5b505afa15801561111b573d6000803e3d6000fd5b505050506040513d602081101561113157600080fd5b810190808051906020019092919050505060ff16905060008773ffffffffffffffffffffffffffffffffffffffff166341976e09876040518263ffffffff1660e01b8152600401808273ffffffffffffffffffffffffffffffffffffffff16815260200191505060206040518083038186803b1580156111b057600080fd5b505afa1580156111c4573d6000803e3d6000fd5b505050506040513d60208110156111da57600080fd5b81019080805190602001909291905050509050600061121783600a0a6112098488612a3190919063ffffffff16565b612a6890919063ffffffff16565b905060008673ffffffffffffffffffffffffffffffffffffffff1663313ce5676040518163ffffffff1660e01b815260040160206040518083038186803b15801561126157600080fd5b505afa158015611275573d6000803e3d6000fd5b505050506040513d602081101561128b57600080fd5b810190808051906020019092919050505060ff16905060008a73ffffffffffffffffffffffffffffffffffffffff166341976e09896040518263ffffffff1660e01b8152600401808273ffffffffffffffffffffffffffffffffffffffff16815260200191505060206040518083038186803b15801561130a57600080fd5b505afa15801561131e573d6000803e3d6000fd5b505050506040513d602081101561133457600080fd5b81019080805190602001909291905050509050600061137183600a0a611363848a612a3190919063ffffffff16565b612a6890919063ffffffff16565b90506113868185612a3190919063ffffffff16565b9c50505050505050505050505050919050565b6113a1613474565b60006113ac83610ce6565b90506113b783610d32565b8114156113e4576040518060600160405280600081526020016000815260200160008152509150506113f2565b6113ee838261292e565b9150505b919050565b60026001541415611470576040517f08c379a000000000000000000000000000000000000000000000000000000000815260040180806020018281038252601f8152602001807f5265656e7472616e637947756172643a207265656e7472616e742063616c6c0081525060200191505060405180910390fd5b600260018190555061148133612a9d565b60018081905550565b60065481565b60026001541415611509576040517f08c379a000000000000000000000000000000000000000000000000000000000815260040180806020018281038252601f8152602001807f5265656e7472616e637947756172643a207265656e7472616e742063616c6c0081525060200191505060405180910390fd5b60026001819055503361151a61260c565b60038190555042600281905550600073ffffffffffffffffffffffffffffffffffffffff168173ffffffffffffffffffffffffffffffffffffffff16146115ee5761156481610b81565b600560008373ffffffffffffffffffffffffffffffffffffffff1673ffffffffffffffffffffffffffffffffffffffff16815260200190815260200160002081905550600354600460008373ffffffffffffffffffffffffffffffffffffffff1673ffffffffffffffffffffffffffffffffffffffff168152602001908152602001600020819055505b60006115f933610d32565b905060008061160733612a9d565b60005b8381101561170a57600061161e33836129d8565b9050600061162c3384610cb7565b9050600082118061163d5750600081115b156116fb576040518060600160405280600060ff168152602001600060ff168152602001600060ff16815250600860003373ffffffffffffffffffffffffffffffffffffffff1673ffffffffffffffffffffffffffffffffffffffff16815260200190815260200160002084815481106116b357fe5b90600052602060002090600302019060036116cf929190613496565b506116e38286612a8190919063ffffffff16565b94506116f88185612a8190919063ffffffff16565b93505b5050808060010191505061160a565b5060008214158061171c575060008114155b1561198c5761173682600a54612a1a90919063ffffffff16565b600a8190555061178e82600960003373ffffffffffffffffffffffffffffffffffffffff1673ffffffffffffffffffffffffffffffffffffffff16815260200190815260200160002054612a1a90919063ffffffff16565b600960003373ffffffffffffffffffffffffffffffffffffffff1673ffffffffffffffffffffffffffffffffffffffff168152602001908152602001600020819055506117e681600654612a1a90919063ffffffff16565b60068190555061183e81600760003373ffffffffffffffffffffffffffffffffffffffff1673ffffffffffffffffffffffffffffffffffffffff16815260200190815260200160002054612a1a90919063ffffffff16565b600760003373ffffffffffffffffffffffffffffffffffffffff1673ffffffffffffffffffffffffffffffffffffffff16815260200190815260200160002081905550611889611b59565b73ffffffffffffffffffffffffffffffffffffffff1663a9059cbb33846040518363ffffffff1660e01b8152600401808373ffffffffffffffffffffffffffffffffffffffff16815260200182815260200192505050602060405180830381600087803b1580156118f957600080fd5b505af115801561190d573d6000803e3d6000fd5b505050506040513d602081101561192357600080fd5b8101908080519060200190929190505050503373ffffffffffffffffffffffffffffffffffffffff167ffbeff59d2bfda0d79ea8a29f8c57c66d48c7a13eabbdb90908d9115ec41c9dc64284604051808381526020018281526020019250505060405180910390a25b5050505060018081905550565b600860205282600052604060002082815481106119b557600080fd5b906000526020600020906003020181600381106119d157600080fd5b0160009250925050505481565b600080600654116119f05760006119fc565b6119fb600a54610d96565b5b905090565b600081565b6000611a1182611399565b600060038110611a1d57fe5b60200201519050919050565b60076020528060005260406000206000915090505481565b6000600960008373ffffffffffffffffffffffffffffffffffffffff1673ffffffffffffffffffffffffffffffffffffffff168152602001908152602001600020549050919050565b611a92612538565b611a9b57600080fd5b600073ffffffffffffffffffffffffffffffffffffffff1660008054906101000a900473ffffffffffffffffffffffffffffffffffffffff1673ffffffffffffffffffffffffffffffffffffffff167f8be0079c531659141344cd1fd0a4f28419497f9722a3daafe3b4186f6b6457e060405160405180910390a360008060006101000a81548173ffffffffffffffffffffffffffffffffffffffff021916908373ffffffffffffffffffffffffffffffffffffffff160217905550565b6000807f000000000000000000000000000000000000000000000000000000000000000073ffffffffffffffffffffffffffffffffffffffff166304433bbc6040518163ffffffff1660e01b815260040180806020018281038252600c8152602001807f417373657448616e646c6572000000000000000000000000000000000000000081525060200191505060206040518083038186803b158015611bfe57600080fd5b505afa158015611c12573d6000803e3d6000fd5b505050506040513d6020811015611c2857600080fd5b8101908080519060200190929190505050905060007f000000000000000000000000000000000000000000000000000000000000000073ffffffffffffffffffffffffffffffffffffffff166304433bbc6040518163ffffffff1660e01b81526004018080602001828103825260128152602001807f426173655562657377617041646170746572000000000000000000000000000081525060200191505060206040518083038186803b158015611cdf57600080fd5b505afa158015611cf3573d6000803e3d6000fd5b505050506040513d6020811015611d0957600080fd5b8101908080519060200190929190505050905060008273ffffffffffffffffffffffffffffffffffffffff1663be781b1c6040518163ffffffff1660e01b815260040160206040518083038186803b158015611d6457600080fd5b505afa158015611d78573d6000803e3d6000fd5b505050506040513d6020811015611d8e57600080fd5b8101908080519060200190929190505050905060007f000000000000000000000000000000000000000000000000000000000000000073ffffffffffffffffffffffffffffffffffffffff166304433bbc6040518163ffffffff1660e01b815260040180806020018281038252600d8152602001807f547261646567656e45524332300000000000000000000000000000000000000081525060200191505060206040518083038186803b158015611e4557600080fd5b505afa158015611e59573d6000803e3d6000fd5b505050506040513d6020811015611e6f57600080fd5b810190808051906020019092919050505090508273ffffffffffffffffffffffffffffffffffffffff1663e6a4390582846040518363ffffffff1660e01b8152600401808373ffffffffffffffffffffffffffffffffffffffff1681526020018273ffffffffffffffffffffffffffffffffffffffff1681526020019250505060206040518083038186803b158015611f0757600080fd5b505afa158015611f1b573d6000803e3d6000fd5b505050506040513d6020811015611f3157600080fd5b810190808051906020019092919050505094505050505090565b60026001541415611fc4576040517f08c379a000000000000000000000000000000000000000000000000000000000815260040180806020018281038252601f8152602001807f5265656e7472616e637947756172643a207265656e7472616e742063616c6c0081525060200191505060405180910390fd5b600260018190555033611fd561260c565b60038190555042600281905550600073ffffffffffffffffffffffffffffffffffffffff168173ffffffffffffffffffffffffffffffffffffffff16146120a95761201f81610b81565b600560008373ffffffffffffffffffffffffffffffffffffffff1673ffffffffffffffffffffffffffffffffffffffff16815260200190815260200160002081905550600354600460008373ffffffffffffffffffffffffffffffffffffffff1673ffffffffffffffffffffffffffffffffffffffff168152602001908152602001600020819055505b60008311612102576040517f08c379a000000000000000000000000000000000000000000000000000000000815260040180806020018281038252603e8152602001806135ee603e913960400191505060405180910390fd5b60008210158015612114575060348211155b612169576040517f08c379a00000000000000000000000000000000000000000000000000000000081526004018080602001828103825260428152602001806135856042913960600191505060405180910390fd5b60006121936121848462093a80612a3190919063ffffffff16565b42612a8190919063ffffffff16565b905060006121d060346121c26121b3603488612a8190919063ffffffff16565b88612a3190919063ffffffff16565b612a6890919063ffffffff16565b90506121e781600654612a8190919063ffffffff16565b6006819055506121f933838784612dd3565b61220e85600a54612a8190919063ffffffff16565b600a8190555061221c611b59565b73ffffffffffffffffffffffffffffffffffffffff166323b872dd3330886040518463ffffffff1660e01b8152600401808473ffffffffffffffffffffffffffffffffffffffff1681526020018373ffffffffffffffffffffffffffffffffffffffff1681526020018281526020019350505050602060405180830381600087803b1580156122aa57600080fd5b505af11580156122be573d6000803e3d6000fd5b505050506040513d60208110156122d457600080fd5b8101908080519060200190929190505050503373ffffffffffffffffffffffffffffffffffffffff167fb4caaf29adda3eefee3ad552a8e85058589bf834c7466cae4ee58787f70589ed86844260405180848152602001838152602001828152602001935050505060405180910390a2505050600180819055505050565b60007f000000000000000000000000000000000000000000000000000000000000000073ffffffffffffffffffffffffffffffffffffffff166304433bbc6040518163ffffffff1660e01b81526004018080602001828103825260088152602001807f53657474696e677300000000000000000000000000000000000000000000000081525060200191505060206040518083038186803b1580156123f657600080fd5b505afa15801561240a573d6000803e3d6000fd5b505050506040513d602081101561242057600080fd5b810190808051906020019092919050505073ffffffffffffffffffffffffffffffffffffffff166328a2176f6040518163ffffffff1660e01b81526004018080602001828103825260168152602001807f5765656b6c794c505374616b696e67526577617264730000000000000000000081525060200191505060206040518083038186803b1580156124b257600080fd5b505afa1580156124c6573d6000803e3d6000fd5b505050506040513d60208110156124dc57600080fd5b8101908080519060200190929190505050905090565b600181565b60046020528060005260406000206000915090505481565b60008060009054906101000a900473ffffffffffffffffffffffffffffffffffffffff16905090565b60008060009054906101000a900473ffffffffffffffffffffffffffffffffffffffff1673ffffffffffffffffffffffffffffffffffffffff163373ffffffffffffffffffffffffffffffffffffffff1614905090565b600061259a82611399565b6001600381106125a657fe5b60200201519050919050565b7f000000000000000000000000000000000000000000000000000000000000000081565b60006125e2838361292e565b6000600381106125ee57fe5b6020020151905092915050565b600a5481565b60025481565b600281565b6000807f000000000000000000000000000000000000000000000000000000000000000073ffffffffffffffffffffffffffffffffffffffff166304433bbc6040518163ffffffff1660e01b81526004018080602001828103825260088152602001807f53657474696e677300000000000000000000000000000000000000000000000081525060200191505060206040518083038186803b1580156126b157600080fd5b505afa1580156126c5573d6000803e3d6000fd5b505050506040513d60208110156126db57600080fd5b810190808051906020019092919050505073ffffffffffffffffffffffffffffffffffffffff166328a2176f6040518163ffffffff1660e01b81526004018080602001828103825260168152602001807f5765656b6c794c505374616b696e67526577617264730000000000000000000081525060200191505060206040518083038186803b15801561276d57600080fd5b505afa158015612781573d6000803e3d6000fd5b505050506040513d602081101561279757600080fd5b81019080805190602001909291905050509050600060065414156127c057600354915050612842565b61283e61282d60065461281f670de0b6b3a764000061281162093a80612803886127f560025442612a1a90919063ffffffff16565b612a3190919063ffffffff16565b612a6890919063ffffffff16565b612a3190919063ffffffff16565b612a6890919063ffffffff16565b600354612a8190919063ffffffff16565b9150505b90565b603081565b60007f000000000000000000000000000000000000000000000000000000000000000073ffffffffffffffffffffffffffffffffffffffff166304433bbc6040518163ffffffff1660e01b815260040180806020018281038252600d8152602001807f547261646567656e45524332300000000000000000000000000000000000000081525060200191505060206040518083038186803b1580156128ee57600080fd5b505afa158015612902573d6000803e3d6000fd5b505050506040513d602081101561291857600080fd5b8101908080519060200190929190505050905090565b612936613474565b600860008473ffffffffffffffffffffffffffffffffffffffff1673ffffffffffffffffffffffffffffffffffffffff168152602001908152602001600020828154811061298057fe5b90600052602060002090600302016003806020026040519081016040528092919082600380156129c5576020028201915b8154815260200190600101908083116129b1575b5050505050905092915050565b60035481565b60006129e4838361292e565b6001600381106129f057fe5b6020020151905092915050565b612a05612538565b612a0e57600080fd5b612a178161337d565b50565b600082821115612a2657fe5b818303905092915050565b600080831415612a445760009050612a62565b6000828402905082848281612a5557fe5b0414612a5d57fe5b809150505b92915050565b600080828481612a7457fe5b0490508091505092915050565b600080828401905083811015612a9357fe5b8091505092915050565b80612aa661260c565b60038190555042600281905550600073ffffffffffffffffffffffffffffffffffffffff168173ffffffffffffffffffffffffffffffffffffffff1614612b7a57612af081610b81565b600560008373ffffffffffffffffffffffffffffffffffffffff1673ffffffffffffffffffffffffffffffffffffffff16815260200190815260200160002081905550600354600460008373ffffffffffffffffffffffffffffffffffffffff1673ffffffffffffffffffffffffffffffffffffffff168152602001908152602001600020819055505b60007f000000000000000000000000000000000000000000000000000000000000000073ffffffffffffffffffffffffffffffffffffffff166304433bbc6040518163ffffffff1660e01b81526004018080602001828103825260178152602001807f547261646567656e4c505374616b696e67457363726f7700000000000000000081525060200191505060206040518083038186803b158015612c1e57600080fd5b505afa158015612c32573d6000803e3d6000fd5b505050506040513d6020811015612c4857600080fd5b810190808051906020019092919050505090506000600560008573ffffffffffffffffffffffffffffffffffffffff1673ffffffffffffffffffffffffffffffffffffffff1681526020019081526020016000205490506000811115612dcd576000600560008673ffffffffffffffffffffffffffffffffffffffff1673ffffffffffffffffffffffffffffffffffffffff168152602001908152602001600020819055508173ffffffffffffffffffffffffffffffffffffffff16637523a5ab85836040518363ffffffff1660e01b8152600401808373ffffffffffffffffffffffffffffffffffffffff16815260200182815260200192505050600060405180830381600087803b158015612d5e57600080fd5b505af1158015612d72573d6000803e3d6000fd5b505050508373ffffffffffffffffffffffffffffffffffffffff167fd6f2c8500df5b44f11e9e48b91ff9f1b9d81bc496d55570c2b1b75bf65243f518242604051808381526020018281526020019250505060405180910390a25b50505050565b82421115612e49576040517f08c379a000000000000000000000000000000000000000000000000000000000815260040180806020018281038252601a8152602001807f54696d65206d75737420626520696e207468652066757475726500000000000081525060200191505060405180910390fd5b6000821415612ec0576040517f08c379a00000000000000000000000000000000000000000000000000000000081526004018080602001828103825260178152602001807f5175616e746974792063616e6e6f74206265207a65726f00000000000000000081525060200191505060405180910390fd5b60008111612f19576040517f08c379a00000000000000000000000000000000000000000000000000000000081526004018080602001828103825260278152602001806135c76027913960400191505060405180910390fd5b6000600860008673ffffffffffffffffffffffffffffffffffffffff1673ffffffffffffffffffffffffffffffffffffffff16815260200190815260200160002080549050905060008114156130885782600960008773ffffffffffffffffffffffffffffffffffffffff1673ffffffffffffffffffffffffffffffffffffffff1681526020019081526020016000208190555081600760008773ffffffffffffffffffffffffffffffffffffffff1673ffffffffffffffffffffffffffffffffffffffff16815260200190815260200160002081905550600860008673ffffffffffffffffffffffffffffffffffffffff1673ffffffffffffffffffffffffffffffffffffffff16815260200190815260200160002060405180606001604052808681526020018581526020018481525090806001815401808255809150506001900390600052602060002090600302016000909190919091509060036130829291906134db565b50613376565b6000805b8281101561313a5760006130a088836129d8565b141561312d57604051806060016040528087815260200186815260200185815250600860008973ffffffffffffffffffffffffffffffffffffffff1673ffffffffffffffffffffffffffffffffffffffff168152602001908152602001600020828154811061310b57fe5b90600052602060002090600302019060036131279291906134db565b50600191505b808060010191505061308c565b508061324a5760308211156131b7576040517f08c379a000000000000000000000000000000000000000000000000000000000815260040180806020018281038252601c8152602001807f56657374696e67207363686564756c6520697320746f6f206c6f6e670000000081525060200191505060405180910390fd5b600860008773ffffffffffffffffffffffffffffffffffffffff1673ffffffffffffffffffffffffffffffffffffffff16815260200190815260200160002060405180606001604052808781526020018681526020018581525090806001815401808255809150506001900390600052602060002090600302016000909190919091509060036132489291906134db565b505b61329c84600960008973ffffffffffffffffffffffffffffffffffffffff1673ffffffffffffffffffffffffffffffffffffffff16815260200190815260200160002054612a8190919063ffffffff16565b600960008873ffffffffffffffffffffffffffffffffffffffff1673ffffffffffffffffffffffffffffffffffffffff1681526020019081526020016000208190555061333183600760008973ffffffffffffffffffffffffffffffffffffffff1673ffffffffffffffffffffffffffffffffffffffff16815260200190815260200160002054612a8190919063ffffffff16565b600760008873ffffffffffffffffffffffffffffffffffffffff1673ffffffffffffffffffffffffffffffffffffffff16815260200190815260200160002081905550505b5050505050565b600073ffffffffffffffffffffffffffffffffffffffff168173ffffffffffffffffffffffffffffffffffffffff1614156133b757600080fd5b8073ffffffffffffffffffffffffffffffffffffffff1660008054906101000a900473ffffffffffffffffffffffffffffffffffffffff1673ffffffffffffffffffffffffffffffffffffffff167f8be0079c531659141344cd1fd0a4f28419497f9722a3daafe3b4186f6b6457e060405160405180910390a3806000806101000a81548173ffffffffffffffffffffffffffffffffffffffff021916908373ffffffffffffffffffffffffffffffffffffffff16021790555050565b6040518060600160405280600390602082028036833780820191505090505090565b82600381019282156134ca579160200282015b828111156134c9578251829060ff169055916020019190600101906134a9565b5b5090506134d7919061351b565b5090565b826003810192821561350a579160200282015b828111156135095782518255916020019190600101906134ee565b5b509050613517919061351b565b5090565b5b8082111561353457600081600090555060010161351c565b509056fe547261646567656e4c505374616b696e67526577617264733a206e756d626572206f66204c5020746f6b656e7320696e2070616972206d7573742062652067726561746572207468616e2030547261646567656e4c505374616b696e67526577617264733a206e756d626572206f66207765656b73206d757374206265206265747765656e203020616e642035324e756d626572206f6620746f6b656e73206d7573742062652067726561746572207468616e2030547261646567656e4c505374616b696e67526577617264733a205374616b656420616d6f756e74206d7573742062652067726561746572207468616e2030a2646970667358221220fcd9571d62866385198e1852721e59fd7a8d0cdbd2d86050aabb8f86fa5bfdd964736f6c63430007060033",
  "immutableReferences": {
    "9089": [
      {
        "length": 32,
        "start": 3572
      },
      {
        "length": 32,
        "start": 7006
      },
      {
        "length": 32,
        "start": 7231
      },
      {
        "length": 32,
        "start": 7589
      },
      {
        "length": 32,
        "start": 9046
      },
      {
        "length": 32,
        "start": 9652
      },
      {
        "length": 32,
        "start": 9745
      },
      {
        "length": 32,
        "start": 10318
      },
      {
        "length": 32,
        "start": 11134
      }
    ]
  },
  "source": "// SPDX-License-Identifier: MIT\r\n\r\npragma solidity >=0.7.6;\r\n\r\n//Adapters\r\nimport './interfaces/IBaseUbeswapAdapter.sol';\r\n\r\n// Inheritance\r\nimport \"./Ownable.sol\";\r\nimport \"./interfaces//ITradegenLPStakingRewards.sol\";\r\nimport \"./openzeppelin-solidity/ReentrancyGuard.sol\";\r\n\r\n// Libraries\r\nimport \"./libraries/SafeMath.sol\";\r\n\r\n// Internal references\r\nimport \"./interfaces/IERC20.sol\";\r\nimport \"./interfaces/IAddressResolver.sol\";\r\nimport \"./interfaces/ISettings.sol\";\r\nimport \"./interfaces/IAssetHandler.sol\";\r\nimport \"./interfaces/ITradegenStakingEscrow.sol\";\r\nimport \"./interfaces/IBaseUbeswapAdapter.sol\";\r\nimport \"./interfaces/Ubeswap/IUniswapV2Pair.sol\";\r\n\r\ncontract TradegenLPStakingRewards is Ownable, ITradegenLPStakingRewards, ReentrancyGuard {\r\n    using SafeMath for uint;\r\n\r\n    IAddressResolver public immutable ADDRESS_RESOLVER;\r\n\r\n    uint public lastUpdateTime;\r\n    uint256 public rewardPerTokenStored;\r\n    mapping(address => uint256) public userRewardPerTokenPaid;\r\n    mapping(address => uint256) public rewards;\r\n\r\n    uint256 public _totalSupply;\r\n    mapping(address => uint256) public _balances;\r\n\r\n    /* Lists of (timestamp, quantity, tokens) tuples per account, sorted in ascending time order.\r\n     * These are the times at which each given quantity of LP token vests. */\r\n    mapping(address => uint[3][]) public vestingSchedules;\r\n\r\n    /* An account's total vested TGEN-cUSD LP token balance to save recomputing this */\r\n    mapping(address => uint) public totalVestedAccountBalance;\r\n\r\n    /* The total remaining vested balance, for verifying the actual TGEN-cUSD LP token balance of this contract against. */\r\n    uint public totalVestedBalance;\r\n\r\n    uint public constant TIME_INDEX = 0;\r\n    uint public constant QUANTITY_INDEX = 1;\r\n    uint public constant TOKENS_INDEX = 2;\r\n\r\n    /* Limit vesting entries to disallow unbounded iteration over vesting schedules. */\r\n    uint public constant MAX_VESTING_ENTRIES = 48;\r\n\r\n    /* ========== CONSTRUCTOR ========== */\r\n\r\n    constructor(IAddressResolver _addressResolver) Ownable() {\r\n        ADDRESS_RESOLVER = _addressResolver;\r\n        lastUpdateTime = block.timestamp;\r\n    }\r\n\r\n    /* ========== VIEW FUNCTIONS ========== */\r\n\r\n    function rewardRate() public view override returns (uint) {\r\n        return ISettings(ADDRESS_RESOLVER.getContractAddress(\"Settings\")).getParameterValue(\"WeeklyLPStakingRewards\");\r\n    }\r\n\r\n    function totalSupply() public view override returns (uint) {\r\n        return totalVestedBalance;\r\n    }\r\n\r\n    function stakingToken() public view override returns (address) {\r\n        address assetHandlerAddress = ADDRESS_RESOLVER.getContractAddress(\"AssetHandler\");\r\n        address baseUbeswapAdapterAddress = ADDRESS_RESOLVER.getContractAddress(\"BaseUbeswapAdapter\");\r\n        address stableCoinAddress = IAssetHandler(assetHandlerAddress).getStableCoinAddress();\r\n        address TGEN = ADDRESS_RESOLVER.getContractAddress(\"TradegenERC20\");\r\n\r\n        return IBaseUbeswapAdapter(baseUbeswapAdapterAddress).getPair(TGEN, stableCoinAddress);\r\n    }\r\n\r\n    function rewardsToken() external view override returns (address) {\r\n        return ADDRESS_RESOLVER.getContractAddress(\"TradegenERC20\");\r\n    }\r\n\r\n    /**\r\n     * @notice A simple alias to totalVestedAccountBalance: provides ERC20 balance integration.\r\n     */\r\n    function balanceOf(address account) public view override returns (uint) {\r\n        return totalVestedAccountBalance[account];\r\n    }\r\n\r\n    /**\r\n     * @notice The number of vesting dates in an account's schedule.\r\n     */\r\n    function numVestingEntries(address account) public view override returns (uint) {\r\n        return vestingSchedules[account].length;\r\n    }\r\n\r\n    /**\r\n     * @notice Get a particular schedule entry for an account.\r\n     * @return A tuple of uints: (timestamp, TGEN-cUSD LP quantity, token quantity).\r\n     */\r\n    function getVestingScheduleEntry(address account, uint index) public view override returns (uint[3] memory) {\r\n        return vestingSchedules[account][index];\r\n    }\r\n\r\n    /**\r\n     * @notice Get the time at which a given schedule entry will vest.\r\n     */\r\n    function getVestingTime(address account, uint index) public view override returns (uint) {\r\n        return getVestingScheduleEntry(account, index)[TIME_INDEX];\r\n    }\r\n\r\n    /**\r\n     * @notice Get the quantity of TGEN-cUSD LP associated with a given schedule entry.\r\n     */\r\n    function getVestingQuantity(address account, uint index) public view override returns (uint) {\r\n        return getVestingScheduleEntry(account, index)[QUANTITY_INDEX];\r\n    }\r\n\r\n    /**\r\n     * @notice Get the quantity of tokens associated with a given schedule entry.\r\n     */\r\n    function getVestingTokenAmount(address account, uint index) public view override returns (uint) {\r\n        return getVestingScheduleEntry(account, index)[TOKENS_INDEX];\r\n    }\r\n\r\n    /**\r\n     * @notice Obtain the index of the next schedule entry that will vest for a given user.\r\n     */\r\n    function getNextVestingIndex(address account) public view override returns (uint) {\r\n        uint len = numVestingEntries(account);\r\n\r\n        for (uint i = 0; i < len; i++)\r\n        {\r\n            if (getVestingTime(account, i) != 0)\r\n            {\r\n                return i;\r\n            }\r\n        }\r\n\r\n        return len;\r\n    }\r\n\r\n    /**\r\n     * @notice Calculates the amount of TGEN reward per token stored\r\n     */\r\n    function rewardPerToken() public view override returns (uint) {\r\n        uint rate = ISettings(ADDRESS_RESOLVER.getContractAddress(\"Settings\")).getParameterValue(\"WeeklyLPStakingRewards\");\r\n\r\n        if (_totalSupply == 0)\r\n        {\r\n            return rewardPerTokenStored;\r\n        }\r\n\r\n        return rewardPerTokenStored.add(block.timestamp.sub(lastUpdateTime).mul(rate).div(7 days).mul(1e18).div(_totalSupply));\r\n    }\r\n\r\n    /**\r\n     * @notice Calculates the amount of TGEN rewards earned\r\n     */\r\n    function earned(address account) public view override returns (uint) {\r\n        return _balances[account].mul(rewardPerToken().sub(userRewardPerTokenPaid[account])).div(1e18).add(rewards[account]);\r\n    }\r\n\r\n    /**\r\n     * @notice Obtain the next schedule entry that will vest for a given user.\r\n     * @return A tuple of uints: (timestamp, TGEN-cUSD LP quantity, token quantity). */\r\n    function getNextVestingEntry(address account) public view override returns (uint[3] memory) {\r\n        uint index = getNextVestingIndex(account);\r\n        if (index == numVestingEntries(account))\r\n        {\r\n            return [uint(0), 0, 0];\r\n        }\r\n\r\n        return getVestingScheduleEntry(account, index);\r\n    }\r\n\r\n    /**\r\n     * @notice Obtain the time at which the next schedule entry will vest for a given user.\r\n     */\r\n    function getNextVestingTime(address account) external view override returns (uint) {\r\n        return getNextVestingEntry(account)[TIME_INDEX];\r\n    }\r\n\r\n    /**\r\n     * @notice Obtain the quantity which the next schedule entry will vest for a given user.\r\n     */\r\n    function getNextVestingQuantity(address account) external view override returns (uint) {\r\n        return getNextVestingEntry(account)[QUANTITY_INDEX];\r\n    }\r\n\r\n    /**\r\n     * @notice Returns the USD value of all LP tokens staked in this contract\r\n     * @return uint USD value of this contract\r\n     */\r\n    function getUSDValueOfContract() public view override returns (uint) {\r\n        return (_totalSupply > 0) ? calculateValueOfLPTokens(totalVestedBalance) : 0;\r\n    }\r\n\r\n    /**\r\n     * @notice Calculates the USD value of the given number of LP tokens\r\n     * @param numberOfTokens Number of LP tokens in the farm\r\n     * @return uint The USD value of the LP tokens\r\n     */\r\n    function calculateValueOfLPTokens(uint numberOfTokens) public view override returns (uint) {\r\n        require(numberOfTokens > 0, \"TradegenLPStakingRewards: number of LP tokens in pair must be greater than 0\");\r\n\r\n        address baseUbeswapAdapterAddress = ADDRESS_RESOLVER.getContractAddress(\"BaseUbeswapAdapter\"); \r\n\r\n        address pair = stakingToken();\r\n        address tokenA = IUniswapV2Pair(pair).token0();\r\n        address tokenB = IUniswapV2Pair(pair).token1();\r\n        (uint amountA, uint amountB) = IBaseUbeswapAdapter(baseUbeswapAdapterAddress).getTokenAmountsFromPair(tokenA, tokenB, numberOfTokens);\r\n\r\n        uint numberOfDecimalsA = IERC20(tokenA).decimals();\r\n        uint USDperTokenA = IBaseUbeswapAdapter(baseUbeswapAdapterAddress).getPrice(tokenA);\r\n        uint USDBalanceA = amountA.mul(USDperTokenA).div(10 ** numberOfDecimalsA);\r\n\r\n        uint numberOfDecimalsB = IERC20(tokenB).decimals();\r\n        uint USDperTokenB = IBaseUbeswapAdapter(baseUbeswapAdapterAddress).getPrice(tokenB);\r\n        uint USDBalanceB = amountB.mul(USDperTokenB).div(10 ** numberOfDecimalsB);\r\n\r\n        return USDBalanceA.mul(USDBalanceB);\r\n    }\r\n\r\n    /* ========== INTERNAL FUNCTIONS ========== */\r\n\r\n    /**\r\n     * @notice Add a new vesting entry at a given time and quantity to an account's schedule.\r\n     * @param account The account to append a new vesting entry to.\r\n     * @param time The absolute unix timestamp after which the vested quantity may be withdrawn.\r\n     * @param quantity The quantity of TGEN-cUSD LP that will vest.\r\n     * @param numberOfTokens Number of tokens to issue, base on staked quantity and number of weeks\r\n     */\r\n    function appendVestingEntry(address account, uint time, uint quantity, uint numberOfTokens) internal {\r\n        /* No empty or already-passed vesting entries allowed. */\r\n        require(block.timestamp <= time, \"Time must be in the future\");\r\n        require(quantity != 0, \"Quantity cannot be zero\");\r\n        require(numberOfTokens > 0, \"Number of tokens must be greater than 0\");\r\n\r\n        /* Disallow arbitrarily long vesting schedules in light of the gas limit. */\r\n        uint scheduleLength = vestingSchedules[account].length;\r\n\r\n        if (scheduleLength == 0)\r\n        {\r\n            totalVestedAccountBalance[account] = quantity;\r\n            _balances[account] = numberOfTokens;\r\n\r\n            vestingSchedules[account].push([time, quantity, numberOfTokens]);\r\n        }\r\n        else\r\n        {\r\n            //Look for empty spot before appending new entry\r\n            bool foundEmptySpot = false;\r\n            for (uint i = 0; i < scheduleLength; i++)\r\n            {\r\n                if (getVestingQuantity(account, i) == 0)\r\n                {\r\n                    vestingSchedules[account][i] = [time, quantity, numberOfTokens];\r\n                    foundEmptySpot = true;\r\n                }\r\n            }\r\n\r\n            if (!foundEmptySpot)\r\n            {\r\n                require(scheduleLength <= MAX_VESTING_ENTRIES, \"Vesting schedule is too long\");\r\n                vestingSchedules[account].push([time, quantity, numberOfTokens]);\r\n            }\r\n\r\n            totalVestedAccountBalance[account] = totalVestedAccountBalance[account].add(quantity);\r\n            _balances[account] = _balances[account].add(numberOfTokens);\r\n        }  \r\n    }\r\n\r\n    function _claim(address user) internal updateReward(user) {\r\n        address tradegenLPStakingEscrowAddress = ADDRESS_RESOLVER.getContractAddress(\"TradegenLPStakingEscrow\");\r\n        uint reward = rewards[user];\r\n\r\n        if (reward > 0)\r\n        {\r\n            rewards[user] = 0;\r\n            ITradegenStakingEscrow(tradegenLPStakingEscrowAddress).claimStakingRewards(user, reward);\r\n            emit RewardPaid(user, reward, block.timestamp);\r\n        }\r\n    }\r\n\r\n    /* ========== MUTATIVE FUNCTIONS ========== */\r\n\r\n    /**\r\n     * @notice Stakes the given TGEN-cUSD LP amount.\r\n     */\r\n    function stake(uint amount, uint numberOfWeeks) external override nonReentrant updateReward(msg.sender) {\r\n        require(amount > 0, \"TradegenLPStakingRewards: Staked amount must be greater than 0\");\r\n        require(numberOfWeeks >= 0 && numberOfWeeks <= 52, \"TradegenLPStakingRewards: number of weeks must be between 0 and 52\");\r\n\r\n        //Up to 2x multiplier depending on number of weeks staked\r\n        uint vestingTimestamp = block.timestamp.add(uint(1 weeks).mul(numberOfWeeks));\r\n        uint adjustedAmount = amount.mul(numberOfWeeks.add(52)).div(52);\r\n\r\n        _totalSupply = _totalSupply.add(adjustedAmount);\r\n        appendVestingEntry(msg.sender, vestingTimestamp, amount, adjustedAmount);\r\n\r\n        totalVestedBalance = totalVestedBalance.add(amount);\r\n        IERC20(stakingToken()).transferFrom(msg.sender, address(this), amount);\r\n\r\n        emit Staked(msg.sender, amount, vestingTimestamp, block.timestamp);\r\n    }\r\n\r\n    /**\r\n     * @notice Allow a user to withdraw any TGEN-cUSD LP in their schedule that have vested.\r\n     */\r\n    function vest() external override nonReentrant updateReward(msg.sender) {\r\n        uint numEntries = numVestingEntries(msg.sender);\r\n        uint total;\r\n        uint tokenTotal;\r\n\r\n        //Claim rewards before withdrawing, since rewards calculation will fail if total supply is 0 after withdrawing\r\n        _claim(msg.sender);\r\n\r\n        for (uint i = 0; i < numEntries; i++)\r\n        {\r\n            uint qty = getVestingQuantity(msg.sender, i);\r\n            uint numberOfTokens = getVestingTokenAmount(msg.sender, i);\r\n\r\n            if (qty > 0 || numberOfTokens > 0)\r\n            {\r\n                vestingSchedules[msg.sender][i] = [0, 0, 0];\r\n                total = total.add(qty);\r\n                tokenTotal = tokenTotal.add(numberOfTokens);\r\n            }\r\n        }\r\n\r\n        if (total != 0 || tokenTotal != 0)\r\n        {\r\n            totalVestedBalance = totalVestedBalance.sub(total);\r\n            totalVestedAccountBalance[msg.sender] = totalVestedAccountBalance[msg.sender].sub(total);\r\n            _totalSupply = _totalSupply.sub(tokenTotal);\r\n            _balances[msg.sender] = _balances[msg.sender].sub(tokenTotal);\r\n\r\n            IERC20(stakingToken()).transfer(msg.sender, total);\r\n\r\n            emit Vested(msg.sender, block.timestamp, total);\r\n        }\r\n    }\r\n\r\n    /**\r\n     * @notice Allow a user to claim any available staking rewards\r\n     */\r\n    function getReward() public override nonReentrant {\r\n        _claim(msg.sender);\r\n    }\r\n\r\n    /* ========== MODIFIERS ========== */\r\n\r\n    modifier updateReward(address account) {\r\n        rewardPerTokenStored = rewardPerToken();\r\n        lastUpdateTime = block.timestamp;\r\n        if (account != address(0)) {\r\n            rewards[account] = earned(account);\r\n            userRewardPerTokenPaid[account] = rewardPerTokenStored;\r\n        }\r\n        _;\r\n    }\r\n\r\n    /* ========== EVENTS ========== */\r\n\r\n    event Vested(address indexed beneficiary, uint time, uint value);\r\n    event Staked(address indexed beneficiary, uint total, uint vestingTimestamp, uint timestamp);\r\n    event RewardPaid(address indexed user, uint amount, uint timestamp);\r\n}",
  "sourcePath": "C:/Users/xavie/OneDrive/Desktop/TradeGen/Github/tradegen-protocol/contracts/TradegenLPStakingRewards.sol",
  "compiler": {
    "name": "solc",
    "version": "0.7.6+commit.7338295f.Emscripten.clang"
  },
  "schemaVersion": "3.4.1",
  "updatedAt": "2021-09-26T18:16:47.628Z",
  "devdoc": {
    "kind": "dev",
    "methods": {
      "calculateValueOfLPTokens(uint256)": {
        "params": {
          "numberOfTokens": "Number of LP tokens in the farm"
        },
        "returns": {
          "_0": "uint The USD value of the LP tokens"
        }
      },
      "getNextVestingEntry(address)": {
        "returns": {
          "_0": "A tuple of uints: (timestamp, TGEN-cUSD LP quantity, token quantity). "
        }
      },
      "getUSDValueOfContract()": {
        "returns": {
          "_0": "uint USD value of this contract"
        }
      },
      "getVestingScheduleEntry(address,uint256)": {
        "returns": {
          "_0": "A tuple of uints: (timestamp, TGEN-cUSD LP quantity, token quantity)."
        }
      },
      "isOwner()": {
        "returns": {
          "_0": "true if `msg.sender` is the owner of the contract."
        }
      },
      "owner()": {
        "returns": {
          "_0": "the address of the owner."
        }
      },
      "renounceOwnership()": {
        "details": "Allows the current owner to relinquish control of the contract."
      },
      "transferOwnership(address)": {
        "details": "Allows the current owner to transfer control of the contract to a newOwner.",
        "params": {
          "newOwner": "The address to transfer ownership to."
        }
      }
    },
    "version": 1
  },
  "userdoc": {
    "kind": "user",
    "methods": {
      "balanceOf(address)": {
        "notice": "A simple alias to totalVestedAccountBalance: provides ERC20 balance integration."
      },
      "calculateValueOfLPTokens(uint256)": {
        "notice": "Calculates the USD value of the given number of LP tokens"
      },
      "earned(address)": {
        "notice": "Calculates the amount of TGEN rewards earned"
      },
      "getNextVestingEntry(address)": {
        "notice": "Obtain the next schedule entry that will vest for a given user."
      },
      "getNextVestingIndex(address)": {
        "notice": "Obtain the index of the next schedule entry that will vest for a given user."
      },
      "getNextVestingQuantity(address)": {
        "notice": "Obtain the quantity which the next schedule entry will vest for a given user."
      },
      "getNextVestingTime(address)": {
        "notice": "Obtain the time at which the next schedule entry will vest for a given user."
      },
      "getReward()": {
        "notice": "Allow a user to claim any available staking rewards"
      },
      "getUSDValueOfContract()": {
        "notice": "Returns the USD value of all LP tokens staked in this contract"
      },
      "getVestingQuantity(address,uint256)": {
        "notice": "Get the quantity of TGEN-cUSD LP associated with a given schedule entry."
      },
      "getVestingScheduleEntry(address,uint256)": {
        "notice": "Get a particular schedule entry for an account."
      },
      "getVestingTime(address,uint256)": {
        "notice": "Get the time at which a given schedule entry will vest."
      },
      "getVestingTokenAmount(address,uint256)": {
        "notice": "Get the quantity of tokens associated with a given schedule entry."
      },
      "numVestingEntries(address)": {
        "notice": "The number of vesting dates in an account's schedule."
      },
      "renounceOwnership()": {
        "notice": "Renouncing to ownership will leave the contract without an owner. It will not be possible to call the functions with the `onlyOwner` modifier anymore."
      },
      "rewardPerToken()": {
        "notice": "Calculates the amount of TGEN reward per token stored"
      },
      "stake(uint256,uint256)": {
        "notice": "Stakes the given TGEN-cUSD LP amount."
      },
      "vest()": {
        "notice": "Allow a user to withdraw any TGEN-cUSD LP in their schedule that have vested."
      }
    },
    "version": 1
  }
}