{
  "contractName": "TradegenLPStakingRewards",
  "abi": [
    {
      "inputs": [
        {
          "internalType": "contract IAddressResolver",
          "name": "_addressResolver",
          "type": "address"
        }
      ],
      "stateMutability": "nonpayable",
      "type": "constructor"
    },
    {
      "anonymous": false,
      "inputs": [
        {
          "indexed": true,
          "internalType": "address",
          "name": "previousOwner",
          "type": "address"
        },
        {
          "indexed": true,
          "internalType": "address",
          "name": "newOwner",
          "type": "address"
        }
      ],
      "name": "OwnershipTransferred",
      "type": "event"
    },
    {
      "anonymous": false,
      "inputs": [
        {
          "indexed": true,
          "internalType": "address",
          "name": "user",
          "type": "address"
        },
        {
          "indexed": false,
          "internalType": "uint256",
          "name": "amount",
          "type": "uint256"
        },
        {
          "indexed": false,
          "internalType": "uint256",
          "name": "timestamp",
          "type": "uint256"
        }
      ],
      "name": "RewardPaid",
      "type": "event"
    },
    {
      "anonymous": false,
      "inputs": [
        {
          "indexed": true,
          "internalType": "address",
          "name": "beneficiary",
          "type": "address"
        },
        {
          "indexed": false,
          "internalType": "uint256",
          "name": "total",
          "type": "uint256"
        },
        {
          "indexed": false,
          "internalType": "uint256",
          "name": "vestingTimestamp",
          "type": "uint256"
        },
        {
          "indexed": false,
          "internalType": "uint256",
          "name": "timestamp",
          "type": "uint256"
        }
      ],
      "name": "Staked",
      "type": "event"
    },
    {
      "anonymous": false,
      "inputs": [
        {
          "indexed": true,
          "internalType": "address",
          "name": "beneficiary",
          "type": "address"
        },
        {
          "indexed": false,
          "internalType": "uint256",
          "name": "time",
          "type": "uint256"
        },
        {
          "indexed": false,
          "internalType": "uint256",
          "name": "value",
          "type": "uint256"
        }
      ],
      "name": "Vested",
      "type": "event"
    },
    {
      "inputs": [],
      "name": "ADDRESS_RESOLVER",
      "outputs": [
        {
          "internalType": "contract IAddressResolver",
          "name": "",
          "type": "address"
        }
      ],
      "stateMutability": "view",
      "type": "function"
    },
    {
      "inputs": [],
      "name": "MAX_VESTING_ENTRIES",
      "outputs": [
        {
          "internalType": "uint256",
          "name": "",
          "type": "uint256"
        }
      ],
      "stateMutability": "view",
      "type": "function"
    },
    {
      "inputs": [],
      "name": "QUANTITY_INDEX",
      "outputs": [
        {
          "internalType": "uint256",
          "name": "",
          "type": "uint256"
        }
      ],
      "stateMutability": "view",
      "type": "function"
    },
    {
      "inputs": [],
      "name": "TIME_INDEX",
      "outputs": [
        {
          "internalType": "uint256",
          "name": "",
          "type": "uint256"
        }
      ],
      "stateMutability": "view",
      "type": "function"
    },
    {
      "inputs": [],
      "name": "TOKENS_INDEX",
      "outputs": [
        {
          "internalType": "uint256",
          "name": "",
          "type": "uint256"
        }
      ],
      "stateMutability": "view",
      "type": "function"
    },
    {
      "inputs": [],
      "name": "isOwner",
      "outputs": [
        {
          "internalType": "bool",
          "name": "",
          "type": "bool"
        }
      ],
      "stateMutability": "view",
      "type": "function"
    },
    {
      "inputs": [],
      "name": "lastUpdateTime",
      "outputs": [
        {
          "internalType": "uint256",
          "name": "",
          "type": "uint256"
        }
      ],
      "stateMutability": "view",
      "type": "function"
    },
    {
      "inputs": [],
      "name": "owner",
      "outputs": [
        {
          "internalType": "address",
          "name": "",
          "type": "address"
        }
      ],
      "stateMutability": "view",
      "type": "function"
    },
    {
      "inputs": [],
      "name": "renounceOwnership",
      "outputs": [],
      "stateMutability": "nonpayable",
      "type": "function"
    },
    {
      "inputs": [],
      "name": "rewardPerTokenStored",
      "outputs": [
        {
          "internalType": "uint256",
          "name": "",
          "type": "uint256"
        }
      ],
      "stateMutability": "view",
      "type": "function"
    },
    {
      "inputs": [
        {
          "internalType": "address",
          "name": "",
          "type": "address"
        }
      ],
      "name": "rewards",
      "outputs": [
        {
          "internalType": "uint256",
          "name": "",
          "type": "uint256"
        }
      ],
      "stateMutability": "view",
      "type": "function"
    },
    {
      "inputs": [
        {
          "internalType": "address",
          "name": "",
          "type": "address"
        }
      ],
      "name": "totalVestedAccountBalance",
      "outputs": [
        {
          "internalType": "uint256",
          "name": "",
          "type": "uint256"
        }
      ],
      "stateMutability": "view",
      "type": "function"
    },
    {
      "inputs": [],
      "name": "totalVestedBalance",
      "outputs": [
        {
          "internalType": "uint256",
          "name": "",
          "type": "uint256"
        }
      ],
      "stateMutability": "view",
      "type": "function"
    },
    {
      "inputs": [
        {
          "internalType": "address",
          "name": "newOwner",
          "type": "address"
        }
      ],
      "name": "transferOwnership",
      "outputs": [],
      "stateMutability": "nonpayable",
      "type": "function"
    },
    {
      "inputs": [
        {
          "internalType": "address",
          "name": "",
          "type": "address"
        }
      ],
      "name": "userRewardPerTokenPaid",
      "outputs": [
        {
          "internalType": "uint256",
          "name": "",
          "type": "uint256"
        }
      ],
      "stateMutability": "view",
      "type": "function"
    },
    {
      "inputs": [
        {
          "internalType": "address",
          "name": "",
          "type": "address"
        },
        {
          "internalType": "uint256",
          "name": "",
          "type": "uint256"
        },
        {
          "internalType": "uint256",
          "name": "",
          "type": "uint256"
        }
      ],
      "name": "vestingSchedules",
      "outputs": [
        {
          "internalType": "uint256",
          "name": "",
          "type": "uint256"
        }
      ],
      "stateMutability": "view",
      "type": "function"
    },
    {
      "inputs": [],
      "name": "rewardRate",
      "outputs": [
        {
          "internalType": "uint256",
          "name": "",
          "type": "uint256"
        }
      ],
      "stateMutability": "view",
      "type": "function"
    },
    {
      "inputs": [],
      "name": "totalSupply",
      "outputs": [
        {
          "internalType": "uint256",
          "name": "",
          "type": "uint256"
        }
      ],
      "stateMutability": "view",
      "type": "function"
    },
    {
      "inputs": [],
      "name": "stakingToken",
      "outputs": [
        {
          "internalType": "address",
          "name": "",
          "type": "address"
        }
      ],
      "stateMutability": "view",
      "type": "function"
    },
    {
      "inputs": [],
      "name": "rewardsToken",
      "outputs": [
        {
          "internalType": "address",
          "name": "",
          "type": "address"
        }
      ],
      "stateMutability": "view",
      "type": "function"
    },
    {
      "inputs": [
        {
          "internalType": "address",
          "name": "account",
          "type": "address"
        }
      ],
      "name": "balanceOf",
      "outputs": [
        {
          "internalType": "uint256",
          "name": "",
          "type": "uint256"
        }
      ],
      "stateMutability": "view",
      "type": "function"
    },
    {
      "inputs": [
        {
          "internalType": "address",
          "name": "account",
          "type": "address"
        }
      ],
      "name": "numVestingEntries",
      "outputs": [
        {
          "internalType": "uint256",
          "name": "",
          "type": "uint256"
        }
      ],
      "stateMutability": "view",
      "type": "function"
    },
    {
      "inputs": [
        {
          "internalType": "address",
          "name": "account",
          "type": "address"
        },
        {
          "internalType": "uint256",
          "name": "index",
          "type": "uint256"
        }
      ],
      "name": "getVestingScheduleEntry",
      "outputs": [
        {
          "internalType": "uint256[3]",
          "name": "",
          "type": "uint256[3]"
        }
      ],
      "stateMutability": "view",
      "type": "function"
    },
    {
      "inputs": [
        {
          "internalType": "address",
          "name": "account",
          "type": "address"
        },
        {
          "internalType": "uint256",
          "name": "index",
          "type": "uint256"
        }
      ],
      "name": "getVestingTime",
      "outputs": [
        {
          "internalType": "uint256",
          "name": "",
          "type": "uint256"
        }
      ],
      "stateMutability": "view",
      "type": "function"
    },
    {
      "inputs": [
        {
          "internalType": "address",
          "name": "account",
          "type": "address"
        },
        {
          "internalType": "uint256",
          "name": "index",
          "type": "uint256"
        }
      ],
      "name": "getVestingQuantity",
      "outputs": [
        {
          "internalType": "uint256",
          "name": "",
          "type": "uint256"
        }
      ],
      "stateMutability": "view",
      "type": "function"
    },
    {
      "inputs": [
        {
          "internalType": "address",
          "name": "account",
          "type": "address"
        },
        {
          "internalType": "uint256",
          "name": "index",
          "type": "uint256"
        }
      ],
      "name": "getVestingTokenAmount",
      "outputs": [
        {
          "internalType": "uint256",
          "name": "",
          "type": "uint256"
        }
      ],
      "stateMutability": "view",
      "type": "function"
    },
    {
      "inputs": [
        {
          "internalType": "address",
          "name": "account",
          "type": "address"
        }
      ],
      "name": "getNextVestingIndex",
      "outputs": [
        {
          "internalType": "uint256",
          "name": "",
          "type": "uint256"
        }
      ],
      "stateMutability": "view",
      "type": "function"
    },
    {
      "inputs": [],
      "name": "rewardPerToken",
      "outputs": [
        {
          "internalType": "uint256",
          "name": "",
          "type": "uint256"
        }
      ],
      "stateMutability": "view",
      "type": "function"
    },
    {
      "inputs": [
        {
          "internalType": "address",
          "name": "account",
          "type": "address"
        }
      ],
      "name": "earned",
      "outputs": [
        {
          "internalType": "uint256",
          "name": "",
          "type": "uint256"
        }
      ],
      "stateMutability": "view",
      "type": "function"
    },
    {
      "inputs": [
        {
          "internalType": "address",
          "name": "account",
          "type": "address"
        }
      ],
      "name": "getNextVestingEntry",
      "outputs": [
        {
          "internalType": "uint256[3]",
          "name": "",
          "type": "uint256[3]"
        }
      ],
      "stateMutability": "view",
      "type": "function"
    },
    {
      "inputs": [
        {
          "internalType": "address",
          "name": "account",
          "type": "address"
        }
      ],
      "name": "getNextVestingTime",
      "outputs": [
        {
          "internalType": "uint256",
          "name": "",
          "type": "uint256"
        }
      ],
      "stateMutability": "view",
      "type": "function"
    },
    {
      "inputs": [
        {
          "internalType": "address",
          "name": "account",
          "type": "address"
        }
      ],
      "name": "getNextVestingQuantity",
      "outputs": [
        {
          "internalType": "uint256",
          "name": "",
          "type": "uint256"
        }
      ],
      "stateMutability": "view",
      "type": "function"
    },
    {
      "inputs": [],
      "name": "getUSDValueOfContract",
      "outputs": [
        {
          "internalType": "uint256",
          "name": "",
          "type": "uint256"
        }
      ],
      "stateMutability": "view",
      "type": "function"
    },
    {
      "inputs": [
        {
          "internalType": "uint256",
          "name": "amount",
          "type": "uint256"
        },
        {
          "internalType": "uint256",
          "name": "numberOfWeeks",
          "type": "uint256"
        }
      ],
      "name": "stake",
      "outputs": [],
      "stateMutability": "nonpayable",
      "type": "function"
    },
    {
      "inputs": [],
      "name": "vest",
      "outputs": [],
      "stateMutability": "nonpayable",
      "type": "function"
    },
    {
      "inputs": [],
      "name": "getReward",
      "outputs": [],
      "stateMutability": "nonpayable",
      "type": "function"
    }
  ],
  "bytecode": "0x60a060405234801561001057600080fd5b506040516136493803806136498339818101604052602081101561003357600080fd5b8101908080519060200190929190505050336000806101000a81548173ffffffffffffffffffffffffffffffffffffffff021916908373ffffffffffffffffffffffffffffffffffffffff16021790555060008054906101000a900473ffffffffffffffffffffffffffffffffffffffff1673ffffffffffffffffffffffffffffffffffffffff16600073ffffffffffffffffffffffffffffffffffffffff167f8be0079c531659141344cd1fd0a4f28419497f9722a3daafe3b4186f6b6457e060405160405180910390a3600180819055508073ffffffffffffffffffffffffffffffffffffffff1660808173ffffffffffffffffffffffffffffffffffffffff1660601b81525050426002819055505060805160601c6134bf61018a60003980610e7d5280611799528061187a52806119e05280611f9152806121ef528061224c5280612489528061273652506134bf6000f3fe608060405234801561001057600080fd5b506004361061021b5760003560e01c80637b0a47ee11610125578063c8f33c91116100ad578063d1af0c7d1161007c578063d1af0c7d14610926578063da7bd3e91461095a578063df136d65146109e4578063ee1d036c14610a02578063f2fde38b14610a645761021b565b8063c8f33c91146108ae578063c96f6c09146108cc578063cd3daf9d146108ea578063d0cc82e3146109085761021b565b80638f32d59b116100f45780638f32d59b1461078257806397f46527146107a2578063981f3b8e146107fa5780639b217f901461082e578063a15d59ce146108905761021b565b80637b0a47ee146106ba5780638ad58777146106d85780638b876347146106f65780638da5cb5b1461074e5761021b565b8063458efde3116101a85780636b3905c4116101775780636b3905c41461059457806370a08231146105ec578063715018a61461064457806372f702f31461064e5780637b0472f0146106825761021b565b8063458efde3146104e257806345e5441f146104ec57806359d8017c1461055857806363667eb7146105765761021b565b806319e740c0116101ef57806319e740c014610350578063204b676a146103a8578063227d517a146104005780632f5bb661146104585780633d18b912146104d85761021b565b80628cc262146102205780630700037d1461027857806308063bc7146102d057806318160ddd14610332575b600080fd5b6102626004803603602081101561023657600080fd5b81019080803573ffffffffffffffffffffffffffffffffffffffff169060200190929190505050610aa8565b6040518082815260200191505060405180910390f35b6102ba6004803603602081101561028e57600080fd5b81019080803573ffffffffffffffffffffffffffffffffffffffff169060200190929190505050610bc6565b6040518082815260200191505060405180910390f35b61031c600480360360408110156102e657600080fd5b81019080803573ffffffffffffffffffffffffffffffffffffffff16906020019092919080359060200190929190505050610bde565b6040518082815260200191505060405180910390f35b61033a610c03565b6040518082815260200191505060405180910390f35b6103926004803603602081101561036657600080fd5b81019080803573ffffffffffffffffffffffffffffffffffffffff169060200190929190505050610c0d565b6040518082815260200191505060405180910390f35b6103ea600480360360208110156103be57600080fd5b81019080803573ffffffffffffffffffffffffffffffffffffffff169060200190929190505050610c59565b6040518082815260200191505060405180910390f35b6104426004803603602081101561041657600080fd5b81019080803573ffffffffffffffffffffffffffffffffffffffff169060200190929190505050610ca5565b6040518082815260200191505060405180910390f35b61049a6004803603602081101561046e57600080fd5b81019080803573ffffffffffffffffffffffffffffffffffffffff169060200190929190505050610cbd565b6040518082600360200280838360005b838110156104c55780820151818401526020810190506104aa565b5050505090500191505060405180910390f35b6104e0610d1b565b005b6104ea6110d8565b005b6105426004803603606081101561050257600080fd5b81019080803573ffffffffffffffffffffffffffffffffffffffff16906020019092919080359060200190929190803590602001909291905050506115fd565b6040518082815260200191505060405180910390f35b610560611642565b6040518082815260200191505060405180910390f35b61057e611654565b6040518082815260200191505060405180910390f35b6105d6600480360360208110156105aa57600080fd5b81019080803573ffffffffffffffffffffffffffffffffffffffff169060200190929190505050611659565b6040518082815260200191505060405180910390f35b61062e6004803603602081101561060257600080fd5b81019080803573ffffffffffffffffffffffffffffffffffffffff16906020019092919050505061167c565b6040518082815260200191505060405180910390f35b61064c6116c5565b005b610656611794565b604051808273ffffffffffffffffffffffffffffffffffffffff16815260200191505060405180910390f35b6106b86004803603604081101561069857600080fd5b810190808035906020019092919080359060200190929190505050611b86565b005b6106c2611f8d565b6040518082815260200191505060405180910390f35b6106e061212d565b6040518082815260200191505060405180910390f35b6107386004803603602081101561070c57600080fd5b81019080803573ffffffffffffffffffffffffffffffffffffffff169060200190929190505050612132565b6040518082815260200191505060405180910390f35b61075661214a565b604051808273ffffffffffffffffffffffffffffffffffffffff16815260200191505060405180910390f35b61078a612173565b60405180821515815260200191505060405180910390f35b6107e4600480360360208110156107b857600080fd5b81019080803573ffffffffffffffffffffffffffffffffffffffff1690602001909291905050506121ca565b6040518082815260200191505060405180910390f35b6108026121ed565b604051808273ffffffffffffffffffffffffffffffffffffffff16815260200191505060405180910390f35b61087a6004803603604081101561084457600080fd5b81019080803573ffffffffffffffffffffffffffffffffffffffff16906020019092919080359060200190929190505050612211565b6040518082815260200191505060405180910390f35b610898612236565b6040518082815260200191505060405180910390f35b6108b661223c565b6040518082815260200191505060405180910390f35b6108d4612242565b6040518082815260200191505060405180910390f35b6108f2612247565b6040518082815260200191505060405180910390f35b610910612480565b6040518082815260200191505060405180910390f35b61092e612485565b604051808273ffffffffffffffffffffffffffffffffffffffff16815260200191505060405180910390f35b6109a66004803603604081101561097057600080fd5b81019080803573ffffffffffffffffffffffffffffffffffffffff16906020019092919080359060200190929190505050612569565b6040518082600360200280838360005b838110156109d15780820151818401526020810190506109b6565b5050505090500191505060405180910390f35b6109ec61260d565b6040518082815260200191505060405180910390f35b610a4e60048036036040811015610a1857600080fd5b81019080803573ffffffffffffffffffffffffffffffffffffffff16906020019092919080359060200190929190505050612613565b6040518082815260200191505060405180910390f35b610aa660048036036020811015610a7a57600080fd5b81019080803573ffffffffffffffffffffffffffffffffffffffff169060200190929190505050612638565b005b6000610bbf600560008473ffffffffffffffffffffffffffffffffffffffff1673ffffffffffffffffffffffffffffffffffffffff16815260200190815260200160002054610bb1670de0b6b3a7640000610ba3610b55600460008973ffffffffffffffffffffffffffffffffffffffff1673ffffffffffffffffffffffffffffffffffffffff16815260200190815260200160002054610b47612247565b61265590919063ffffffff16565b600760008973ffffffffffffffffffffffffffffffffffffffff1673ffffffffffffffffffffffffffffffffffffffff1681526020019081526020016000205461266c90919063ffffffff16565b6126a390919063ffffffff16565b6126bc90919063ffffffff16565b9050919050565b60056020528060005260406000206000915090505481565b6000610bea8383612569565b600260038110610bf657fe5b6020020151905092915050565b6000600a54905090565b600080610c1983610c59565b905060005b81811015610c4e576000610c328583612211565b14610c41578092505050610c54565b8080600101915050610c1e565b50809150505b919050565b6000600860008373ffffffffffffffffffffffffffffffffffffffff1673ffffffffffffffffffffffffffffffffffffffff168152602001908152602001600020805490509050919050565b60096020528060005260406000206000915090505481565b610cc561329b565b6000610cd083610c0d565b9050610cdb83610c59565b811415610d0857604051806060016040528060008152602001600081526020016000815250915050610d16565b610d128382612569565b9150505b919050565b60026001541415610d94576040517f08c379a000000000000000000000000000000000000000000000000000000000815260040180806020018281038252601f8152602001807f5265656e7472616e637947756172643a207265656e7472616e742063616c6c0081525060200191505060405180910390fd5b600260018190555033610da5612247565b60038190555042600281905550600073ffffffffffffffffffffffffffffffffffffffff168173ffffffffffffffffffffffffffffffffffffffff1614610e7957610def81610aa8565b600560008373ffffffffffffffffffffffffffffffffffffffff1673ffffffffffffffffffffffffffffffffffffffff16815260200190815260200160002081905550600354600460008373ffffffffffffffffffffffffffffffffffffffff1673ffffffffffffffffffffffffffffffffffffffff168152602001908152602001600020819055505b60007f000000000000000000000000000000000000000000000000000000000000000073ffffffffffffffffffffffffffffffffffffffff166304433bbc6040518163ffffffff1660e01b81526004018080602001828103825260178152602001807f547261646567656e4c505374616b696e67457363726f7700000000000000000081525060200191505060206040518083038186803b158015610f1d57600080fd5b505afa158015610f31573d6000803e3d6000fd5b505050506040513d6020811015610f4757600080fd5b810190808051906020019092919050505090506000600560003373ffffffffffffffffffffffffffffffffffffffff1673ffffffffffffffffffffffffffffffffffffffff16815260200190815260200160002054905060008111156110cc576000600560003373ffffffffffffffffffffffffffffffffffffffff1673ffffffffffffffffffffffffffffffffffffffff168152602001908152602001600020819055508173ffffffffffffffffffffffffffffffffffffffff16637523a5ab33836040518363ffffffff1660e01b8152600401808373ffffffffffffffffffffffffffffffffffffffff16815260200182815260200192505050600060405180830381600087803b15801561105d57600080fd5b505af1158015611071573d6000803e3d6000fd5b505050503373ffffffffffffffffffffffffffffffffffffffff167fd6f2c8500df5b44f11e9e48b91ff9f1b9d81bc496d55570c2b1b75bf65243f518242604051808381526020018281526020019250505060405180910390a25b50505060018081905550565b60026001541415611151576040517f08c379a000000000000000000000000000000000000000000000000000000000815260040180806020018281038252601f8152602001807f5265656e7472616e637947756172643a207265656e7472616e742063616c6c0081525060200191505060405180910390fd5b600260018190555033611162612247565b60038190555042600281905550600073ffffffffffffffffffffffffffffffffffffffff168173ffffffffffffffffffffffffffffffffffffffff1614611236576111ac81610aa8565b600560008373ffffffffffffffffffffffffffffffffffffffff1673ffffffffffffffffffffffffffffffffffffffff16815260200190815260200160002081905550600354600460008373ffffffffffffffffffffffffffffffffffffffff1673ffffffffffffffffffffffffffffffffffffffff168152602001908152602001600020819055505b600061124133610c59565b905060008060005b8381101561136657600061125d3383612211565b90504281111561126d5750611366565b60006112793384612613565b905060006112873385610bde565b905060008211806112985750600081115b15611356576040518060600160405280600060ff168152602001600060ff168152602001600060ff16815250600860003373ffffffffffffffffffffffffffffffffffffffff1673ffffffffffffffffffffffffffffffffffffffff168152602001908152602001600020858154811061130e57fe5b906000526020600020906003020190600361132a9291906132bd565b5061133e82876126bc90919063ffffffff16565b955061135381866126bc90919063ffffffff16565b94505b5050508080600101915050611249565b50600082141580611378575060008114155b156115e85761139282600a5461265590919063ffffffff16565b600a819055506113ea82600960003373ffffffffffffffffffffffffffffffffffffffff1673ffffffffffffffffffffffffffffffffffffffff1681526020019081526020016000205461265590919063ffffffff16565b600960003373ffffffffffffffffffffffffffffffffffffffff1673ffffffffffffffffffffffffffffffffffffffff168152602001908152602001600020819055506114428160065461265590919063ffffffff16565b60068190555061149a81600760003373ffffffffffffffffffffffffffffffffffffffff1673ffffffffffffffffffffffffffffffffffffffff1681526020019081526020016000205461265590919063ffffffff16565b600760003373ffffffffffffffffffffffffffffffffffffffff1673ffffffffffffffffffffffffffffffffffffffff168152602001908152602001600020819055506114e5611794565b73ffffffffffffffffffffffffffffffffffffffff1663a9059cbb33846040518363ffffffff1660e01b8152600401808373ffffffffffffffffffffffffffffffffffffffff16815260200182815260200192505050602060405180830381600087803b15801561155557600080fd5b505af1158015611569573d6000803e3d6000fd5b505050506040513d602081101561157f57600080fd5b8101908080519060200190929190505050503373ffffffffffffffffffffffffffffffffffffffff167ffbeff59d2bfda0d79ea8a29f8c57c66d48c7a13eabbdb90908d9115ec41c9dc64284604051808381526020018281526020019250505060405180910390a25b6115f0610d1b565b5050505060018081905550565b6008602052826000526040600020828154811061161957600080fd5b9060005260206000209060030201816003811061163557600080fd5b0160009250925050505481565b600061164f600a546126d8565b905090565b600081565b600061166482610cbd565b60006003811061167057fe5b60200201519050919050565b6000600960008373ffffffffffffffffffffffffffffffffffffffff1673ffffffffffffffffffffffffffffffffffffffff168152602001908152602001600020549050919050565b6116cd612173565b6116d657600080fd5b600073ffffffffffffffffffffffffffffffffffffffff1660008054906101000a900473ffffffffffffffffffffffffffffffffffffffff1673ffffffffffffffffffffffffffffffffffffffff167f8be0079c531659141344cd1fd0a4f28419497f9722a3daafe3b4186f6b6457e060405160405180910390a360008060006101000a81548173ffffffffffffffffffffffffffffffffffffffff021916908373ffffffffffffffffffffffffffffffffffffffff160217905550565b6000807f000000000000000000000000000000000000000000000000000000000000000073ffffffffffffffffffffffffffffffffffffffff166304433bbc6040518163ffffffff1660e01b815260040180806020018281038252600c8152602001807f417373657448616e646c6572000000000000000000000000000000000000000081525060200191505060206040518083038186803b15801561183957600080fd5b505afa15801561184d573d6000803e3d6000fd5b505050506040513d602081101561186357600080fd5b8101908080519060200190929190505050905060007f000000000000000000000000000000000000000000000000000000000000000073ffffffffffffffffffffffffffffffffffffffff166304433bbc6040518163ffffffff1660e01b81526004018080602001828103825260128152602001807f426173655562657377617041646170746572000000000000000000000000000081525060200191505060206040518083038186803b15801561191a57600080fd5b505afa15801561192e573d6000803e3d6000fd5b505050506040513d602081101561194457600080fd5b8101908080519060200190929190505050905060008273ffffffffffffffffffffffffffffffffffffffff1663be781b1c6040518163ffffffff1660e01b815260040160206040518083038186803b15801561199f57600080fd5b505afa1580156119b3573d6000803e3d6000fd5b505050506040513d60208110156119c957600080fd5b8101908080519060200190929190505050905060007f000000000000000000000000000000000000000000000000000000000000000073ffffffffffffffffffffffffffffffffffffffff166304433bbc6040518163ffffffff1660e01b815260040180806020018281038252600d8152602001807f547261646567656e45524332300000000000000000000000000000000000000081525060200191505060206040518083038186803b158015611a8057600080fd5b505afa158015611a94573d6000803e3d6000fd5b505050506040513d6020811015611aaa57600080fd5b810190808051906020019092919050505090508273ffffffffffffffffffffffffffffffffffffffff1663e6a4390582846040518363ffffffff1660e01b8152600401808373ffffffffffffffffffffffffffffffffffffffff1681526020018273ffffffffffffffffffffffffffffffffffffffff1681526020019250505060206040518083038186803b158015611b4257600080fd5b505afa158015611b56573d6000803e3d6000fd5b505050506040513d6020811015611b6c57600080fd5b810190808051906020019092919050505094505050505090565b60026001541415611bff576040517f08c379a000000000000000000000000000000000000000000000000000000000815260040180806020018281038252601f8152602001807f5265656e7472616e637947756172643a207265656e7472616e742063616c6c0081525060200191505060405180910390fd5b600260018190555033611c10612247565b60038190555042600281905550600073ffffffffffffffffffffffffffffffffffffffff168173ffffffffffffffffffffffffffffffffffffffff1614611ce457611c5a81610aa8565b600560008373ffffffffffffffffffffffffffffffffffffffff1673ffffffffffffffffffffffffffffffffffffffff16815260200190815260200160002081905550600354600460008373ffffffffffffffffffffffffffffffffffffffff1673ffffffffffffffffffffffffffffffffffffffff168152602001908152602001600020819055505b60008311611d3d576040517f08c379a000000000000000000000000000000000000000000000000000000000815260040180806020018281038252603e81526020018061344c603e913960400191505060405180910390fd5b60008210158015611d4f575060348211155b611da4576040517f08c379a00000000000000000000000000000000000000000000000000000000081526004018080602001828103825260428152602001806133e36042913960600191505060405180910390fd5b6000611dce611dbf8462093a8061266c90919063ffffffff16565b426126bc90919063ffffffff16565b90506000611e0b6034611dfd611dee6034886126bc90919063ffffffff16565b8861266c90919063ffffffff16565b6126a390919063ffffffff16565b9050611e22816006546126bc90919063ffffffff16565b600681905550611e3433838784612cdb565b611e4985600a546126bc90919063ffffffff16565b600a81905550611e57611794565b73ffffffffffffffffffffffffffffffffffffffff166323b872dd3330886040518463ffffffff1660e01b8152600401808473ffffffffffffffffffffffffffffffffffffffff1681526020018373ffffffffffffffffffffffffffffffffffffffff1681526020018281526020019350505050602060405180830381600087803b158015611ee557600080fd5b505af1158015611ef9573d6000803e3d6000fd5b505050506040513d6020811015611f0f57600080fd5b8101908080519060200190929190505050503373ffffffffffffffffffffffffffffffffffffffff167fb4caaf29adda3eefee3ad552a8e85058589bf834c7466cae4ee58787f70589ed86844260405180848152602001838152602001828152602001935050505060405180910390a2505050600180819055505050565b60007f000000000000000000000000000000000000000000000000000000000000000073ffffffffffffffffffffffffffffffffffffffff166304433bbc6040518163ffffffff1660e01b81526004018080602001828103825260088152602001807f53657474696e677300000000000000000000000000000000000000000000000081525060200191505060206040518083038186803b15801561203157600080fd5b505afa158015612045573d6000803e3d6000fd5b505050506040513d602081101561205b57600080fd5b810190808051906020019092919050505073ffffffffffffffffffffffffffffffffffffffff166328a2176f6040518163ffffffff1660e01b81526004018080602001828103825260168152602001807f5765656b6c794c505374616b696e67526577617264730000000000000000000081525060200191505060206040518083038186803b1580156120ed57600080fd5b505afa158015612101573d6000803e3d6000fd5b505050506040513d602081101561211757600080fd5b8101908080519060200190929190505050905090565b600181565b60046020528060005260406000206000915090505481565b60008060009054906101000a900473ffffffffffffffffffffffffffffffffffffffff16905090565b60008060009054906101000a900473ffffffffffffffffffffffffffffffffffffffff1673ffffffffffffffffffffffffffffffffffffffff163373ffffffffffffffffffffffffffffffffffffffff1614905090565b60006121d582610cbd565b6001600381106121e157fe5b60200201519050919050565b7f000000000000000000000000000000000000000000000000000000000000000081565b600061221d8383612569565b60006003811061222957fe5b6020020151905092915050565b600a5481565b60025481565b600281565b6000807f000000000000000000000000000000000000000000000000000000000000000073ffffffffffffffffffffffffffffffffffffffff166304433bbc6040518163ffffffff1660e01b81526004018080602001828103825260088152602001807f53657474696e677300000000000000000000000000000000000000000000000081525060200191505060206040518083038186803b1580156122ec57600080fd5b505afa158015612300573d6000803e3d6000fd5b505050506040513d602081101561231657600080fd5b810190808051906020019092919050505073ffffffffffffffffffffffffffffffffffffffff166328a2176f6040518163ffffffff1660e01b81526004018080602001828103825260168152602001807f5765656b6c794c505374616b696e67526577617264730000000000000000000081525060200191505060206040518083038186803b1580156123a857600080fd5b505afa1580156123bc573d6000803e3d6000fd5b505050506040513d60208110156123d257600080fd5b81019080805190602001909291905050509050600060065414156123fb5760035491505061247d565b61247961246860065461245a670de0b6b3a764000061244c62093a8061243e886124306002544261265590919063ffffffff16565b61266c90919063ffffffff16565b6126a390919063ffffffff16565b61266c90919063ffffffff16565b6126a390919063ffffffff16565b6003546126bc90919063ffffffff16565b9150505b90565b603081565b60007f000000000000000000000000000000000000000000000000000000000000000073ffffffffffffffffffffffffffffffffffffffff166304433bbc6040518163ffffffff1660e01b815260040180806020018281038252600d8152602001807f547261646567656e45524332300000000000000000000000000000000000000081525060200191505060206040518083038186803b15801561252957600080fd5b505afa15801561253d573d6000803e3d6000fd5b505050506040513d602081101561255357600080fd5b8101908080519060200190929190505050905090565b61257161329b565b600860008473ffffffffffffffffffffffffffffffffffffffff1673ffffffffffffffffffffffffffffffffffffffff16815260200190815260200160002082815481106125bb57fe5b9060005260206000209060030201600380602002604051908101604052809291908260038015612600576020028201915b8154815260200190600101908083116125ec575b5050505050905092915050565b60035481565b600061261f8383612569565b60016003811061262b57fe5b6020020151905092915050565b612640612173565b61264957600080fd5b612652816131a4565b50565b60008282111561266157fe5b818303905092915050565b60008083141561267f576000905061269d565b600082840290508284828161269057fe5b041461269857fe5b809150505b92915050565b6000808284816126af57fe5b0490508091505092915050565b6000808284019050838110156126ce57fe5b8091505092915050565b6000808211612732576040517f08c379a000000000000000000000000000000000000000000000000000000000815260040180806020018281038252604c815260200180613360604c913960600191505060405180910390fd5b60007f000000000000000000000000000000000000000000000000000000000000000073ffffffffffffffffffffffffffffffffffffffff166304433bbc6040518163ffffffff1660e01b81526004018080602001828103825260128152602001807f426173655562657377617041646170746572000000000000000000000000000081525060200191505060206040518083038186803b1580156127d657600080fd5b505afa1580156127ea573d6000803e3d6000fd5b505050506040513d602081101561280057600080fd5b81019080805190602001909291905050509050600061281d611794565b905060008173ffffffffffffffffffffffffffffffffffffffff16630dfe16816040518163ffffffff1660e01b815260040160206040518083038186803b15801561286757600080fd5b505afa15801561287b573d6000803e3d6000fd5b505050506040513d602081101561289157600080fd5b8101908080519060200190929190505050905060008273ffffffffffffffffffffffffffffffffffffffff1663d21220a76040518163ffffffff1660e01b815260040160206040518083038186803b1580156128ec57600080fd5b505afa158015612900573d6000803e3d6000fd5b505050506040513d602081101561291657600080fd5b810190808051906020019092919050505090506000808573ffffffffffffffffffffffffffffffffffffffff1663d87fc14985858b6040518463ffffffff1660e01b8152600401808473ffffffffffffffffffffffffffffffffffffffff1681526020018373ffffffffffffffffffffffffffffffffffffffff1681526020018281526020019350505050604080518083038186803b1580156129b857600080fd5b505afa1580156129cc573d6000803e3d6000fd5b505050506040513d60408110156129e257600080fd5b8101908080519060200190929190805190602001909291905050509150915060008473ffffffffffffffffffffffffffffffffffffffff1663313ce5676040518163ffffffff1660e01b815260040160206040518083038186803b158015612a4957600080fd5b505afa158015612a5d573d6000803e3d6000fd5b505050506040513d6020811015612a7357600080fd5b810190808051906020019092919050505060ff16905060008773ffffffffffffffffffffffffffffffffffffffff166341976e09876040518263ffffffff1660e01b8152600401808273ffffffffffffffffffffffffffffffffffffffff16815260200191505060206040518083038186803b158015612af257600080fd5b505afa158015612b06573d6000803e3d6000fd5b505050506040513d6020811015612b1c57600080fd5b810190808051906020019092919050505090506000612b5983600a0a612b4b848861266c90919063ffffffff16565b6126a390919063ffffffff16565b905060008673ffffffffffffffffffffffffffffffffffffffff1663313ce5676040518163ffffffff1660e01b815260040160206040518083038186803b158015612ba357600080fd5b505afa158015612bb7573d6000803e3d6000fd5b505050506040513d6020811015612bcd57600080fd5b810190808051906020019092919050505060ff16905060008a73ffffffffffffffffffffffffffffffffffffffff166341976e09896040518263ffffffff1660e01b8152600401808273ffffffffffffffffffffffffffffffffffffffff16815260200191505060206040518083038186803b158015612c4c57600080fd5b505afa158015612c60573d6000803e3d6000fd5b505050506040513d6020811015612c7657600080fd5b810190808051906020019092919050505090506000612cb383600a0a612ca5848a61266c90919063ffffffff16565b6126a390919063ffffffff16565b9050612cc8818561266c90919063ffffffff16565b9c50505050505050505050505050919050565b824210612d50576040517f08c379a000000000000000000000000000000000000000000000000000000000815260040180806020018281038252601a8152602001807f54696d65206d75737420626520696e207468652066757475726500000000000081525060200191505060405180910390fd5b6000821415612dc7576040517f08c379a00000000000000000000000000000000000000000000000000000000081526004018080602001828103825260178152602001807f5175616e746974792063616e6e6f74206265207a65726f00000000000000000081525060200191505060405180910390fd5b60008111612e20576040517f08c379a00000000000000000000000000000000000000000000000000000000081526004018080602001828103825260278152602001806134256027913960400191505060405180910390fd5b6000600860008673ffffffffffffffffffffffffffffffffffffffff1673ffffffffffffffffffffffffffffffffffffffff1681526020019081526020016000208054905090506030811115612ede576040517f08c379a000000000000000000000000000000000000000000000000000000000815260040180806020018281038252601c8152602001807f56657374696e67207363686564756c6520697320746f6f206c6f6e670000000081525060200191505060405180910390fd5b6000811415612f745782600960008773ffffffffffffffffffffffffffffffffffffffff1673ffffffffffffffffffffffffffffffffffffffff1681526020019081526020016000208190555081600760008773ffffffffffffffffffffffffffffffffffffffff1673ffffffffffffffffffffffffffffffffffffffff1681526020019081526020016000208190555061310b565b83612f8a866001612f8489610c59565b03612211565b10612fe0576040517f08c379a00000000000000000000000000000000000000000000000000000000081526004018080602001828103825260378152602001806133ac6037913960400191505060405180910390fd5b61303283600960008873ffffffffffffffffffffffffffffffffffffffff1673ffffffffffffffffffffffffffffffffffffffff168152602001908152602001600020546126bc90919063ffffffff16565b600960008773ffffffffffffffffffffffffffffffffffffffff1673ffffffffffffffffffffffffffffffffffffffff168152602001908152602001600020819055506130c782600760008873ffffffffffffffffffffffffffffffffffffffff1673ffffffffffffffffffffffffffffffffffffffff168152602001908152602001600020546126bc90919063ffffffff16565b600760008773ffffffffffffffffffffffffffffffffffffffff1673ffffffffffffffffffffffffffffffffffffffff168152602001908152602001600020819055505b600860008673ffffffffffffffffffffffffffffffffffffffff1673ffffffffffffffffffffffffffffffffffffffff168152602001908152602001600020604051806060016040528086815260200185815260200184815250908060018154018082558091505060019003906000526020600020906003020160009091909190915090600361319c929190613302565b505050505050565b600073ffffffffffffffffffffffffffffffffffffffff168173ffffffffffffffffffffffffffffffffffffffff1614156131de57600080fd5b8073ffffffffffffffffffffffffffffffffffffffff1660008054906101000a900473ffffffffffffffffffffffffffffffffffffffff1673ffffffffffffffffffffffffffffffffffffffff167f8be0079c531659141344cd1fd0a4f28419497f9722a3daafe3b4186f6b6457e060405160405180910390a3806000806101000a81548173ffffffffffffffffffffffffffffffffffffffff021916908373ffffffffffffffffffffffffffffffffffffffff16021790555050565b6040518060600160405280600390602082028036833780820191505090505090565b82600381019282156132f1579160200282015b828111156132f0578251829060ff169055916020019190600101906132d0565b5b5090506132fe9190613342565b5090565b8260038101928215613331579160200282015b82811115613330578251825591602001919060010190613315565b5b50905061333e9190613342565b5090565b5b8082111561335b576000816000905550600101613343565b509056fe547261646567656e4c505374616b696e67526577617264733a206e756d626572206f66204c5020746f6b656e7320696e2070616972206d7573742062652067726561746572207468616e203043616e6e6f7420616464206e65772076657374656420656e7472696573206561726c696572207468616e20746865206c617374206f6e65547261646567656e4c505374616b696e67526577617264733a206e756d626572206f66207765656b73206d757374206265206265747765656e203020616e642035324e756d626572206f6620746f6b656e73206d7573742062652067726561746572207468616e2030547261646567656e4c505374616b696e67526577617264733a205374616b656420616d6f756e74206d7573742062652067726561746572207468616e2030a2646970667358221220ad942d910dc805279331e1eb1ff1ba6aa4d212befde30940ba923def992a18ad64736f6c63430007060033",
  "immutableReferences": {
    "145": [
      {
        "length": 32,
        "start": 3709
      },
      {
        "length": 32,
        "start": 6041
      },
      {
        "length": 32,
        "start": 6266
      },
      {
        "length": 32,
        "start": 6624
      },
      {
        "length": 32,
        "start": 8081
      },
      {
        "length": 32,
        "start": 8687
      },
      {
        "length": 32,
        "start": 8780
      },
      {
        "length": 32,
        "start": 9353
      },
      {
        "length": 32,
        "start": 10038
      }
    ]
  },
  "source": "// SPDX-License-Identifier: MIT\r\n\r\npragma solidity >=0.7.6;\r\n\r\n//Adapters\r\nimport './interfaces/IBaseUbeswapAdapter.sol';\r\n\r\n// Inheritance\r\nimport \"./Ownable.sol\";\r\nimport \"./interfaces//ITradegenLPStakingRewards.sol\";\r\nimport \"./openzeppelin-solidity/ReentrancyGuard.sol\";\r\n\r\n// Libraries\r\nimport \"./libraries/SafeMath.sol\";\r\n\r\n// Internal references\r\nimport \"./interfaces/IERC20.sol\";\r\nimport \"./interfaces/IAddressResolver.sol\";\r\nimport \"./interfaces/ISettings.sol\";\r\nimport \"./interfaces/IAssetHandler.sol\";\r\nimport \"./interfaces/ITradegenStakingEscrow.sol\";\r\nimport \"./interfaces/IBaseUbeswapAdapter.sol\";\r\nimport \"./interfaces/Ubeswap/IUniswapV2Pair.sol\";\r\n\r\ncontract TradegenLPStakingRewards is Ownable, ITradegenLPStakingRewards, ReentrancyGuard {\r\n    using SafeMath for uint;\r\n\r\n    IAddressResolver public immutable ADDRESS_RESOLVER;\r\n\r\n    uint public lastUpdateTime;\r\n    uint256 public rewardPerTokenStored;\r\n    mapping(address => uint256) public userRewardPerTokenPaid;\r\n    mapping(address => uint256) public rewards;\r\n\r\n    uint256 private _totalSupply;\r\n    mapping(address => uint256) private _balances;\r\n\r\n    /* Lists of (timestamp, quantity, tokens) tuples per account, sorted in ascending time order.\r\n     * These are the times at which each given quantity of LP token vests. */\r\n    mapping(address => uint[3][]) public vestingSchedules;\r\n\r\n    /* An account's total vested TGEN-cUSD LP token balance to save recomputing this */\r\n    mapping(address => uint) public totalVestedAccountBalance;\r\n\r\n    /* The total remaining vested balance, for verifying the actual TGEN-cUSD LP token balance of this contract against. */\r\n    uint public totalVestedBalance;\r\n\r\n    uint public constant TIME_INDEX = 0;\r\n    uint public constant QUANTITY_INDEX = 1;\r\n    uint public constant TOKENS_INDEX = 2;\r\n\r\n    /* Limit vesting entries to disallow unbounded iteration over vesting schedules. */\r\n    uint public constant MAX_VESTING_ENTRIES = 48;\r\n\r\n    /* ========== CONSTRUCTOR ========== */\r\n\r\n    constructor(IAddressResolver _addressResolver) Ownable() {\r\n        ADDRESS_RESOLVER = _addressResolver;\r\n        lastUpdateTime = block.timestamp;\r\n    }\r\n\r\n    /* ========== VIEW FUNCTIONS ========== */\r\n\r\n    function rewardRate() public view override returns (uint) {\r\n        return ISettings(ADDRESS_RESOLVER.getContractAddress(\"Settings\")).getParameterValue(\"WeeklyLPStakingRewards\");\r\n    }\r\n\r\n    function totalSupply() public view override returns (uint) {\r\n        return totalVestedBalance;\r\n    }\r\n\r\n    function stakingToken() public view override returns (address) {\r\n        address assetHandlerAddress = ADDRESS_RESOLVER.getContractAddress(\"AssetHandler\");\r\n        address baseUbeswapAdapterAddress = ADDRESS_RESOLVER.getContractAddress(\"BaseUbeswapAdapter\");\r\n        address stableCoinAddress = IAssetHandler(assetHandlerAddress).getStableCoinAddress();\r\n        address TGEN = ADDRESS_RESOLVER.getContractAddress(\"TradegenERC20\");\r\n\r\n        return IBaseUbeswapAdapter(baseUbeswapAdapterAddress).getPair(TGEN, stableCoinAddress);\r\n    }\r\n\r\n    function rewardsToken() external view override returns (address) {\r\n        return ADDRESS_RESOLVER.getContractAddress(\"TradegenERC20\");\r\n    }\r\n\r\n    /**\r\n     * @notice A simple alias to totalVestedAccountBalance: provides ERC20 balance integration.\r\n     */\r\n    function balanceOf(address account) public view override returns (uint) {\r\n        return totalVestedAccountBalance[account];\r\n    }\r\n\r\n    /**\r\n     * @notice The number of vesting dates in an account's schedule.\r\n     */\r\n    function numVestingEntries(address account) public view override returns (uint) {\r\n        return vestingSchedules[account].length;\r\n    }\r\n\r\n    /**\r\n     * @notice Get a particular schedule entry for an account.\r\n     * @return A tuple of uints: (timestamp, TGEN-cUSD LP quantity, token quantity).\r\n     */\r\n    function getVestingScheduleEntry(address account, uint index) public view override returns (uint[3] memory) {\r\n        return vestingSchedules[account][index];\r\n    }\r\n\r\n    /**\r\n     * @notice Get the time at which a given schedule entry will vest.\r\n     */\r\n    function getVestingTime(address account, uint index) public view override returns (uint) {\r\n        return getVestingScheduleEntry(account, index)[TIME_INDEX];\r\n    }\r\n\r\n    /**\r\n     * @notice Get the quantity of TGEN-cUSD LP associated with a given schedule entry.\r\n     */\r\n    function getVestingQuantity(address account, uint index) public view override returns (uint) {\r\n        return getVestingScheduleEntry(account, index)[QUANTITY_INDEX];\r\n    }\r\n\r\n    /**\r\n     * @notice Get the quantity of tokens associated with a given schedule entry.\r\n     */\r\n    function getVestingTokenAmount(address account, uint index) public view override returns (uint) {\r\n        return getVestingScheduleEntry(account, index)[TOKENS_INDEX];\r\n    }\r\n\r\n    /**\r\n     * @notice Obtain the index of the next schedule entry that will vest for a given user.\r\n     */\r\n    function getNextVestingIndex(address account) public view override returns (uint) {\r\n        uint len = numVestingEntries(account);\r\n\r\n        for (uint i = 0; i < len; i++)\r\n        {\r\n            if (getVestingTime(account, i) != 0)\r\n            {\r\n                return i;\r\n            }\r\n        }\r\n\r\n        return len;\r\n    }\r\n\r\n    /**\r\n     * @notice Calculates the amount of TGEN reward per token stored\r\n     */\r\n    function rewardPerToken() public view override returns (uint) {\r\n        uint rate = ISettings(ADDRESS_RESOLVER.getContractAddress(\"Settings\")).getParameterValue(\"WeeklyLPStakingRewards\");\r\n\r\n        if (_totalSupply == 0)\r\n        {\r\n            return rewardPerTokenStored;\r\n        }\r\n\r\n        return rewardPerTokenStored.add(block.timestamp.sub(lastUpdateTime).mul(rate).div(7 days).mul(1e18).div(_totalSupply));\r\n    }\r\n\r\n    /**\r\n     * @notice Calculates the amount of TGEN rewards earned\r\n     */\r\n    function earned(address account) public view override returns (uint) {\r\n        return _balances[account].mul(rewardPerToken().sub(userRewardPerTokenPaid[account])).div(1e18).add(rewards[account]);\r\n    }\r\n\r\n    /**\r\n     * @notice Obtain the next schedule entry that will vest for a given user.\r\n     * @return A tuple of uints: (timestamp, TGEN-cUSD LP quantity, token quantity). */\r\n    function getNextVestingEntry(address account) public view override returns (uint[3] memory) {\r\n        uint index = getNextVestingIndex(account);\r\n        if (index == numVestingEntries(account))\r\n        {\r\n            return [uint(0), 0, 0];\r\n        }\r\n\r\n        return getVestingScheduleEntry(account, index);\r\n    }\r\n\r\n    /**\r\n     * @notice Obtain the time at which the next schedule entry will vest for a given user.\r\n     */\r\n    function getNextVestingTime(address account) external view override returns (uint) {\r\n        return getNextVestingEntry(account)[TIME_INDEX];\r\n    }\r\n\r\n    /**\r\n     * @notice Obtain the quantity which the next schedule entry will vest for a given user.\r\n     */\r\n    function getNextVestingQuantity(address account) external view override returns (uint) {\r\n        return getNextVestingEntry(account)[QUANTITY_INDEX];\r\n    }\r\n\r\n    /**\r\n     * @notice Returns the USD value of all LP tokens staked in this contract\r\n     * @return uint USD value of this contract\r\n     */\r\n    function getUSDValueOfContract() public view override returns (uint) {\r\n        return _calculateValueOfLPTokens(totalVestedBalance);\r\n    }\r\n\r\n    /* ========== INTERNAL FUNCTIONS ========== */\r\n\r\n    /**\r\n     * @notice Add a new vesting entry at a given time and quantity to an account's schedule.\r\n     * @param account The account to append a new vesting entry to.\r\n     * @param time The absolute unix timestamp after which the vested quantity may be withdrawn.\r\n     * @param quantity The quantity of TGEN-cUSD LP that will vest.\r\n     * @param numberOfTokens Number of tokens to issue, base on staked quantity and number of weeks\r\n     */\r\n    function appendVestingEntry(address account, uint time, uint quantity, uint numberOfTokens) internal {\r\n        /* No empty or already-passed vesting entries allowed. */\r\n        require(block.timestamp < time, \"Time must be in the future\");\r\n        require(quantity != 0, \"Quantity cannot be zero\");\r\n        require(numberOfTokens > 0, \"Number of tokens must be greater than 0\");\r\n\r\n        /* Disallow arbitrarily long vesting schedules in light of the gas limit. */\r\n        uint scheduleLength = vestingSchedules[account].length;\r\n        require(scheduleLength <= MAX_VESTING_ENTRIES, \"Vesting schedule is too long\");\r\n\r\n        if (scheduleLength == 0)\r\n        {\r\n            totalVestedAccountBalance[account] = quantity;\r\n            _balances[account] = numberOfTokens;\r\n        }\r\n        else\r\n        {\r\n            /* Disallow adding new vested TGEN-cUSD LP earlier than the last one.\r\n             * Since entries are only appended, this means that no vesting date can be repeated. */\r\n            require(\r\n                getVestingTime(account, numVestingEntries(account) - 1) < time,\r\n                \"Cannot add new vested entries earlier than the last one\"\r\n            );\r\n\r\n            totalVestedAccountBalance[account] = totalVestedAccountBalance[account].add(quantity);\r\n            _balances[account] = _balances[account].add(numberOfTokens);\r\n        }\r\n\r\n        vestingSchedules[account].push([time, quantity, numberOfTokens]);\r\n    }\r\n\r\n    /**\r\n     * @notice Calculates the USD value of the given number of LP tokens\r\n     * @param numberOfTokens Number of LP tokens in the farm\r\n     * @return uint The USD value of the LP tokens\r\n     */\r\n    function _calculateValueOfLPTokens(uint numberOfTokens) internal view returns (uint) {\r\n        require(numberOfTokens > 0, \"TradegenLPStakingRewards: number of LP tokens in pair must be greater than 0\");\r\n\r\n        address baseUbeswapAdapterAddress = ADDRESS_RESOLVER.getContractAddress(\"BaseUbeswapAdapter\"); \r\n\r\n        address pair = stakingToken();\r\n        address tokenA = IUniswapV2Pair(pair).token0();\r\n        address tokenB = IUniswapV2Pair(pair).token1();\r\n        (uint amountA, uint amountB) = IBaseUbeswapAdapter(baseUbeswapAdapterAddress).getTokenAmountsFromPair(tokenA, tokenB, numberOfTokens);\r\n\r\n        uint numberOfDecimalsA = IERC20(tokenA).decimals();\r\n        uint USDperTokenA = IBaseUbeswapAdapter(baseUbeswapAdapterAddress).getPrice(tokenA);\r\n        uint USDBalanceA = amountA.mul(USDperTokenA).div(10 ** numberOfDecimalsA);\r\n\r\n        uint numberOfDecimalsB = IERC20(tokenB).decimals();\r\n        uint USDperTokenB = IBaseUbeswapAdapter(baseUbeswapAdapterAddress).getPrice(tokenB);\r\n        uint USDBalanceB = amountB.mul(USDperTokenB).div(10 ** numberOfDecimalsB);\r\n\r\n        return USDBalanceA.mul(USDBalanceB);\r\n    }\r\n\r\n    /* ========== MUTATIVE FUNCTIONS ========== */\r\n\r\n    /**\r\n     * @notice Stakes the given TGEN-cUSD LP amount.\r\n     */\r\n    function stake(uint amount, uint numberOfWeeks) external override nonReentrant updateReward(msg.sender) {\r\n        require(amount > 0, \"TradegenLPStakingRewards: Staked amount must be greater than 0\");\r\n        require(numberOfWeeks >= 0 && numberOfWeeks <= 52, \"TradegenLPStakingRewards: number of weeks must be between 0 and 52\");\r\n\r\n        //Up to 2x multiplier depending on number of weeks staked\r\n        uint vestingTimestamp = block.timestamp.add(uint(1 weeks).mul(numberOfWeeks));\r\n        uint adjustedAmount = amount.mul(numberOfWeeks.add(52)).div(52);\r\n\r\n        _totalSupply = _totalSupply.add(adjustedAmount);\r\n        appendVestingEntry(msg.sender, vestingTimestamp, amount, adjustedAmount);\r\n\r\n        totalVestedBalance = totalVestedBalance.add(amount);\r\n        IERC20(stakingToken()).transferFrom(msg.sender, address(this), amount);\r\n\r\n        emit Staked(msg.sender, amount, vestingTimestamp, block.timestamp);\r\n    }\r\n\r\n    /**\r\n     * @notice Allow a user to withdraw any TGEN-cUSD LP in their schedule that have vested.\r\n     */\r\n    function vest() external override nonReentrant updateReward(msg.sender) {\r\n        uint numEntries = numVestingEntries(msg.sender);\r\n        uint total;\r\n        uint tokenTotal;\r\n\r\n        for (uint i = 0; i < numEntries; i++)\r\n        {\r\n            uint time = getVestingTime(msg.sender, i);\r\n            /* The list is sorted; when we reach the first future time, bail out. */\r\n            if (time > block.timestamp)\r\n            {\r\n                break;\r\n            }\r\n\r\n            uint qty = getVestingQuantity(msg.sender, i);\r\n            uint numberOfTokens = getVestingTokenAmount(msg.sender, i);\r\n\r\n            if (qty > 0 || numberOfTokens > 0)\r\n            {\r\n                vestingSchedules[msg.sender][i] = [0, 0, 0];\r\n                total = total.add(qty);\r\n                tokenTotal = tokenTotal.add(numberOfTokens);\r\n            }\r\n        }\r\n\r\n        if (total != 0 || tokenTotal != 0)\r\n        {\r\n            totalVestedBalance = totalVestedBalance.sub(total);\r\n            totalVestedAccountBalance[msg.sender] = totalVestedAccountBalance[msg.sender].sub(total);\r\n            _totalSupply = _totalSupply.sub(tokenTotal);\r\n            _balances[msg.sender] = _balances[msg.sender].sub(tokenTotal);\r\n\r\n            IERC20(stakingToken()).transfer(msg.sender, total);\r\n\r\n            emit Vested(msg.sender, block.timestamp, total);\r\n        }\r\n\r\n        getReward();\r\n    }\r\n\r\n    /**\r\n     * @notice Allow a user to claim any available staking rewards\r\n     */\r\n    function getReward() public override nonReentrant updateReward(msg.sender) {\r\n        address tradegenLPStakingEscrowAddress = ADDRESS_RESOLVER.getContractAddress(\"TradegenLPStakingEscrow\");\r\n        uint reward = rewards[msg.sender];\r\n\r\n        if (reward > 0)\r\n        {\r\n            rewards[msg.sender] = 0;\r\n            ITradegenStakingEscrow(tradegenLPStakingEscrowAddress).claimStakingRewards(msg.sender, reward);\r\n            emit RewardPaid(msg.sender, reward, block.timestamp);\r\n        }\r\n    }\r\n\r\n    /* ========== MODIFIERS ========== */\r\n\r\n    modifier updateReward(address account) {\r\n        rewardPerTokenStored = rewardPerToken();\r\n        lastUpdateTime = block.timestamp;\r\n        if (account != address(0)) {\r\n            rewards[account] = earned(account);\r\n            userRewardPerTokenPaid[account] = rewardPerTokenStored;\r\n        }\r\n        _;\r\n    }\r\n\r\n    /* ========== EVENTS ========== */\r\n\r\n    event Vested(address indexed beneficiary, uint time, uint value);\r\n    event Staked(address indexed beneficiary, uint total, uint vestingTimestamp, uint timestamp);\r\n    event RewardPaid(address indexed user, uint amount, uint timestamp);\r\n}",
  "sourcePath": "C:/Users/xavie/OneDrive/Desktop/TradeGen/Github/tradegen-protocol/contracts/TradegenLPStakingRewards.sol",
  "compiler": {
    "name": "solc",
    "version": "0.7.6+commit.7338295f.Emscripten.clang"
  },
  "schemaVersion": "3.4.1",
  "updatedAt": "2021-08-19T12:42:40.317Z",
  "devdoc": {
    "kind": "dev",
    "methods": {
      "getNextVestingEntry(address)": {
        "returns": {
          "_0": "A tuple of uints: (timestamp, TGEN-cUSD LP quantity, token quantity). "
        }
      },
      "getUSDValueOfContract()": {
        "returns": {
          "_0": "uint USD value of this contract"
        }
      },
      "getVestingScheduleEntry(address,uint256)": {
        "returns": {
          "_0": "A tuple of uints: (timestamp, TGEN-cUSD LP quantity, token quantity)."
        }
      },
      "isOwner()": {
        "returns": {
          "_0": "true if `msg.sender` is the owner of the contract."
        }
      },
      "owner()": {
        "returns": {
          "_0": "the address of the owner."
        }
      },
      "renounceOwnership()": {
        "details": "Allows the current owner to relinquish control of the contract."
      },
      "transferOwnership(address)": {
        "details": "Allows the current owner to transfer control of the contract to a newOwner.",
        "params": {
          "newOwner": "The address to transfer ownership to."
        }
      }
    },
    "version": 1
  },
  "userdoc": {
    "kind": "user",
    "methods": {
      "balanceOf(address)": {
        "notice": "A simple alias to totalVestedAccountBalance: provides ERC20 balance integration."
      },
      "earned(address)": {
        "notice": "Calculates the amount of TGEN rewards earned"
      },
      "getNextVestingEntry(address)": {
        "notice": "Obtain the next schedule entry that will vest for a given user."
      },
      "getNextVestingIndex(address)": {
        "notice": "Obtain the index of the next schedule entry that will vest for a given user."
      },
      "getNextVestingQuantity(address)": {
        "notice": "Obtain the quantity which the next schedule entry will vest for a given user."
      },
      "getNextVestingTime(address)": {
        "notice": "Obtain the time at which the next schedule entry will vest for a given user."
      },
      "getReward()": {
        "notice": "Allow a user to claim any available staking rewards"
      },
      "getUSDValueOfContract()": {
        "notice": "Returns the USD value of all LP tokens staked in this contract"
      },
      "getVestingQuantity(address,uint256)": {
        "notice": "Get the quantity of TGEN-cUSD LP associated with a given schedule entry."
      },
      "getVestingScheduleEntry(address,uint256)": {
        "notice": "Get a particular schedule entry for an account."
      },
      "getVestingTime(address,uint256)": {
        "notice": "Get the time at which a given schedule entry will vest."
      },
      "getVestingTokenAmount(address,uint256)": {
        "notice": "Get the quantity of tokens associated with a given schedule entry."
      },
      "numVestingEntries(address)": {
        "notice": "The number of vesting dates in an account's schedule."
      },
      "renounceOwnership()": {
        "notice": "Renouncing to ownership will leave the contract without an owner. It will not be possible to call the functions with the `onlyOwner` modifier anymore."
      },
      "rewardPerToken()": {
        "notice": "Calculates the amount of TGEN reward per token stored"
      },
      "stake(uint256,uint256)": {
        "notice": "Stakes the given TGEN-cUSD LP amount."
      },
      "vest()": {
        "notice": "Allow a user to withdraw any TGEN-cUSD LP in their schedule that have vested."
      }
    },
    "version": 1
  }
}