{
  "contractName": "TradegenLPStakingRewards",
  "abi": [
    {
      "inputs": [
        {
          "internalType": "contract IAddressResolver",
          "name": "_addressResolver",
          "type": "address"
        }
      ],
      "stateMutability": "nonpayable",
      "type": "constructor"
    },
    {
      "anonymous": false,
      "inputs": [
        {
          "indexed": true,
          "internalType": "address",
          "name": "previousOwner",
          "type": "address"
        },
        {
          "indexed": true,
          "internalType": "address",
          "name": "newOwner",
          "type": "address"
        }
      ],
      "name": "OwnershipTransferred",
      "type": "event"
    },
    {
      "anonymous": false,
      "inputs": [
        {
          "indexed": true,
          "internalType": "address",
          "name": "user",
          "type": "address"
        },
        {
          "indexed": false,
          "internalType": "uint256",
          "name": "amount",
          "type": "uint256"
        },
        {
          "indexed": false,
          "internalType": "uint256",
          "name": "timestamp",
          "type": "uint256"
        }
      ],
      "name": "RewardPaid",
      "type": "event"
    },
    {
      "anonymous": false,
      "inputs": [
        {
          "indexed": true,
          "internalType": "address",
          "name": "beneficiary",
          "type": "address"
        },
        {
          "indexed": false,
          "internalType": "uint256",
          "name": "total",
          "type": "uint256"
        },
        {
          "indexed": false,
          "internalType": "uint256",
          "name": "vestingTimestamp",
          "type": "uint256"
        },
        {
          "indexed": false,
          "internalType": "uint256",
          "name": "timestamp",
          "type": "uint256"
        }
      ],
      "name": "Staked",
      "type": "event"
    },
    {
      "anonymous": false,
      "inputs": [
        {
          "indexed": true,
          "internalType": "address",
          "name": "beneficiary",
          "type": "address"
        },
        {
          "indexed": false,
          "internalType": "uint256",
          "name": "time",
          "type": "uint256"
        },
        {
          "indexed": false,
          "internalType": "uint256",
          "name": "value",
          "type": "uint256"
        }
      ],
      "name": "Vested",
      "type": "event"
    },
    {
      "inputs": [],
      "name": "ADDRESS_RESOLVER",
      "outputs": [
        {
          "internalType": "contract IAddressResolver",
          "name": "",
          "type": "address"
        }
      ],
      "stateMutability": "view",
      "type": "function"
    },
    {
      "inputs": [],
      "name": "MAX_VESTING_ENTRIES",
      "outputs": [
        {
          "internalType": "uint256",
          "name": "",
          "type": "uint256"
        }
      ],
      "stateMutability": "view",
      "type": "function"
    },
    {
      "inputs": [],
      "name": "QUANTITY_INDEX",
      "outputs": [
        {
          "internalType": "uint256",
          "name": "",
          "type": "uint256"
        }
      ],
      "stateMutability": "view",
      "type": "function"
    },
    {
      "inputs": [],
      "name": "TIME_INDEX",
      "outputs": [
        {
          "internalType": "uint256",
          "name": "",
          "type": "uint256"
        }
      ],
      "stateMutability": "view",
      "type": "function"
    },
    {
      "inputs": [],
      "name": "isOwner",
      "outputs": [
        {
          "internalType": "bool",
          "name": "",
          "type": "bool"
        }
      ],
      "stateMutability": "view",
      "type": "function"
    },
    {
      "inputs": [],
      "name": "lastUpdateTime",
      "outputs": [
        {
          "internalType": "uint256",
          "name": "",
          "type": "uint256"
        }
      ],
      "stateMutability": "view",
      "type": "function"
    },
    {
      "inputs": [],
      "name": "owner",
      "outputs": [
        {
          "internalType": "address",
          "name": "",
          "type": "address"
        }
      ],
      "stateMutability": "view",
      "type": "function"
    },
    {
      "inputs": [],
      "name": "renounceOwnership",
      "outputs": [],
      "stateMutability": "nonpayable",
      "type": "function"
    },
    {
      "inputs": [],
      "name": "rewardPerTokenStored",
      "outputs": [
        {
          "internalType": "uint256",
          "name": "",
          "type": "uint256"
        }
      ],
      "stateMutability": "view",
      "type": "function"
    },
    {
      "inputs": [
        {
          "internalType": "address",
          "name": "",
          "type": "address"
        }
      ],
      "name": "rewards",
      "outputs": [
        {
          "internalType": "uint256",
          "name": "",
          "type": "uint256"
        }
      ],
      "stateMutability": "view",
      "type": "function"
    },
    {
      "inputs": [
        {
          "internalType": "address",
          "name": "",
          "type": "address"
        }
      ],
      "name": "totalVestedAccountBalance",
      "outputs": [
        {
          "internalType": "uint256",
          "name": "",
          "type": "uint256"
        }
      ],
      "stateMutability": "view",
      "type": "function"
    },
    {
      "inputs": [],
      "name": "totalVestedBalance",
      "outputs": [
        {
          "internalType": "uint256",
          "name": "",
          "type": "uint256"
        }
      ],
      "stateMutability": "view",
      "type": "function"
    },
    {
      "inputs": [
        {
          "internalType": "address",
          "name": "newOwner",
          "type": "address"
        }
      ],
      "name": "transferOwnership",
      "outputs": [],
      "stateMutability": "nonpayable",
      "type": "function"
    },
    {
      "inputs": [
        {
          "internalType": "address",
          "name": "",
          "type": "address"
        }
      ],
      "name": "userRewardPerTokenPaid",
      "outputs": [
        {
          "internalType": "uint256",
          "name": "",
          "type": "uint256"
        }
      ],
      "stateMutability": "view",
      "type": "function"
    },
    {
      "inputs": [
        {
          "internalType": "address",
          "name": "",
          "type": "address"
        },
        {
          "internalType": "uint256",
          "name": "",
          "type": "uint256"
        },
        {
          "internalType": "uint256",
          "name": "",
          "type": "uint256"
        }
      ],
      "name": "vestingSchedules",
      "outputs": [
        {
          "internalType": "uint256",
          "name": "",
          "type": "uint256"
        }
      ],
      "stateMutability": "view",
      "type": "function"
    },
    {
      "inputs": [],
      "name": "rewardRate",
      "outputs": [
        {
          "internalType": "uint256",
          "name": "",
          "type": "uint256"
        }
      ],
      "stateMutability": "view",
      "type": "function"
    },
    {
      "inputs": [],
      "name": "totalSupply",
      "outputs": [
        {
          "internalType": "uint256",
          "name": "",
          "type": "uint256"
        }
      ],
      "stateMutability": "view",
      "type": "function"
    },
    {
      "inputs": [],
      "name": "stakingToken",
      "outputs": [
        {
          "internalType": "address",
          "name": "",
          "type": "address"
        }
      ],
      "stateMutability": "view",
      "type": "function"
    },
    {
      "inputs": [],
      "name": "rewardsToken",
      "outputs": [
        {
          "internalType": "address",
          "name": "",
          "type": "address"
        }
      ],
      "stateMutability": "view",
      "type": "function"
    },
    {
      "inputs": [
        {
          "internalType": "address",
          "name": "account",
          "type": "address"
        }
      ],
      "name": "balanceOf",
      "outputs": [
        {
          "internalType": "uint256",
          "name": "",
          "type": "uint256"
        }
      ],
      "stateMutability": "view",
      "type": "function"
    },
    {
      "inputs": [
        {
          "internalType": "address",
          "name": "account",
          "type": "address"
        }
      ],
      "name": "numVestingEntries",
      "outputs": [
        {
          "internalType": "uint256",
          "name": "",
          "type": "uint256"
        }
      ],
      "stateMutability": "view",
      "type": "function"
    },
    {
      "inputs": [
        {
          "internalType": "address",
          "name": "account",
          "type": "address"
        },
        {
          "internalType": "uint256",
          "name": "index",
          "type": "uint256"
        }
      ],
      "name": "getVestingScheduleEntry",
      "outputs": [
        {
          "internalType": "uint256[2]",
          "name": "",
          "type": "uint256[2]"
        }
      ],
      "stateMutability": "view",
      "type": "function"
    },
    {
      "inputs": [
        {
          "internalType": "address",
          "name": "account",
          "type": "address"
        },
        {
          "internalType": "uint256",
          "name": "index",
          "type": "uint256"
        }
      ],
      "name": "getVestingTime",
      "outputs": [
        {
          "internalType": "uint256",
          "name": "",
          "type": "uint256"
        }
      ],
      "stateMutability": "view",
      "type": "function"
    },
    {
      "inputs": [
        {
          "internalType": "address",
          "name": "account",
          "type": "address"
        },
        {
          "internalType": "uint256",
          "name": "index",
          "type": "uint256"
        }
      ],
      "name": "getVestingQuantity",
      "outputs": [
        {
          "internalType": "uint256",
          "name": "",
          "type": "uint256"
        }
      ],
      "stateMutability": "view",
      "type": "function"
    },
    {
      "inputs": [
        {
          "internalType": "address",
          "name": "account",
          "type": "address"
        }
      ],
      "name": "getNextVestingIndex",
      "outputs": [
        {
          "internalType": "uint256",
          "name": "",
          "type": "uint256"
        }
      ],
      "stateMutability": "view",
      "type": "function"
    },
    {
      "inputs": [],
      "name": "rewardPerToken",
      "outputs": [
        {
          "internalType": "uint256",
          "name": "",
          "type": "uint256"
        }
      ],
      "stateMutability": "view",
      "type": "function"
    },
    {
      "inputs": [
        {
          "internalType": "address",
          "name": "account",
          "type": "address"
        }
      ],
      "name": "earned",
      "outputs": [
        {
          "internalType": "uint256",
          "name": "",
          "type": "uint256"
        }
      ],
      "stateMutability": "view",
      "type": "function"
    },
    {
      "inputs": [
        {
          "internalType": "address",
          "name": "account",
          "type": "address"
        }
      ],
      "name": "getNextVestingEntry",
      "outputs": [
        {
          "internalType": "uint256[2]",
          "name": "",
          "type": "uint256[2]"
        }
      ],
      "stateMutability": "view",
      "type": "function"
    },
    {
      "inputs": [
        {
          "internalType": "address",
          "name": "account",
          "type": "address"
        }
      ],
      "name": "getNextVestingTime",
      "outputs": [
        {
          "internalType": "uint256",
          "name": "",
          "type": "uint256"
        }
      ],
      "stateMutability": "view",
      "type": "function"
    },
    {
      "inputs": [
        {
          "internalType": "address",
          "name": "account",
          "type": "address"
        }
      ],
      "name": "getNextVestingQuantity",
      "outputs": [
        {
          "internalType": "uint256",
          "name": "",
          "type": "uint256"
        }
      ],
      "stateMutability": "view",
      "type": "function"
    },
    {
      "inputs": [],
      "name": "getUSDValueOfContract",
      "outputs": [
        {
          "internalType": "uint256",
          "name": "",
          "type": "uint256"
        }
      ],
      "stateMutability": "view",
      "type": "function"
    },
    {
      "inputs": [
        {
          "internalType": "uint256",
          "name": "amount",
          "type": "uint256"
        },
        {
          "internalType": "uint256",
          "name": "numberOfWeeks",
          "type": "uint256"
        }
      ],
      "name": "stake",
      "outputs": [],
      "stateMutability": "nonpayable",
      "type": "function"
    },
    {
      "inputs": [],
      "name": "vest",
      "outputs": [],
      "stateMutability": "nonpayable",
      "type": "function"
    },
    {
      "inputs": [],
      "name": "getReward",
      "outputs": [],
      "stateMutability": "nonpayable",
      "type": "function"
    }
  ],
  "bytecode": "0x60a060405234801561001057600080fd5b5060405161331d38038061331d8339818101604052602081101561003357600080fd5b8101908080519060200190929190505050336000806101000a81548173ffffffffffffffffffffffffffffffffffffffff021916908373ffffffffffffffffffffffffffffffffffffffff16021790555060008054906101000a900473ffffffffffffffffffffffffffffffffffffffff1673ffffffffffffffffffffffffffffffffffffffff16600073ffffffffffffffffffffffffffffffffffffffff167f8be0079c531659141344cd1fd0a4f28419497f9722a3daafe3b4186f6b6457e060405160405180910390a3600180819055508073ffffffffffffffffffffffffffffffffffffffff1660808173ffffffffffffffffffffffffffffffffffffffff1660601b81525050426002819055505060805160601c61319361018a60003980610dbb528061160552806116e6528061184c5280611ddf528061203d528061209552806122bd528061256a52506131936000f3fe608060405234801561001057600080fd5b50600436106102055760003560e01c80637b0a47ee1161011a578063a15d59ce116100ad578063d1af0c7d1161007c578063d1af0c7d14610890578063da7bd3e9146108c4578063df136d651461094e578063ee1d036c1461096c578063f2fde38b146109ce57610205565b8063a15d59ce14610818578063c8f33c9114610836578063cd3daf9d14610854578063d0cc82e31461087257610205565b80638f32d59b116100e95780638f32d59b1461070a57806397f465271461072a578063981f3b8e146107825780639b217f90146107b657610205565b80637b0a47ee146106425780638ad58777146106605780638b8763471461067e5780638da5cb5b146106d657610205565b8063458efde31161019d5780636b3905c41161016c5780636b3905c41461051c57806370a0823114610574578063715018a6146105cc57806372f702f3146105d65780637b0472f01461060a57610205565b8063458efde31461046a57806345e5441f1461047457806359d8017c146104e057806363667eb7146104fe57610205565b8063204b676a116101d9578063204b676a14610330578063227d517a146103885780632f5bb661146103e05780633d18b9121461046057610205565b80628cc2621461020a5780630700037d1461026257806318160ddd146102ba57806319e740c0146102d8575b600080fd5b61024c6004803603602081101561022057600080fd5b81019080803573ffffffffffffffffffffffffffffffffffffffff169060200190929190505050610a12565b6040518082815260200191505060405180910390f35b6102a46004803603602081101561027857600080fd5b81019080803573ffffffffffffffffffffffffffffffffffffffff169060200190929190505050610b30565b6040518082815260200191505060405180910390f35b6102c2610b48565b6040518082815260200191505060405180910390f35b61031a600480360360208110156102ee57600080fd5b81019080803573ffffffffffffffffffffffffffffffffffffffff169060200190929190505050610b52565b6040518082815260200191505060405180910390f35b6103726004803603602081101561034657600080fd5b81019080803573ffffffffffffffffffffffffffffffffffffffff169060200190929190505050610b9e565b6040518082815260200191505060405180910390f35b6103ca6004803603602081101561039e57600080fd5b81019080803573ffffffffffffffffffffffffffffffffffffffff169060200190929190505050610bea565b6040518082815260200191505060405180910390f35b610422600480360360208110156103f657600080fd5b81019080803573ffffffffffffffffffffffffffffffffffffffff169060200190929190505050610c02565b6040518082600260200280838360005b8381101561044d578082015181840152602081019050610432565b5050505090500191505060405180910390f35b610468610c59565b005b61047261103a565b005b6104ca6004803603606081101561048a57600080fd5b81019080803573ffffffffffffffffffffffffffffffffffffffff1690602001909291908035906020019092919080359060200190929190505050611469565b6040518082815260200191505060405180910390f35b6104e86114ae565b6040518082815260200191505060405180910390f35b6105066114c0565b6040518082815260200191505060405180910390f35b61055e6004803603602081101561053257600080fd5b81019080803573ffffffffffffffffffffffffffffffffffffffff1690602001909291905050506114c5565b6040518082815260200191505060405180910390f35b6105b66004803603602081101561058a57600080fd5b81019080803573ffffffffffffffffffffffffffffffffffffffff1690602001909291905050506114e8565b6040518082815260200191505060405180910390f35b6105d4611531565b005b6105de611600565b604051808273ffffffffffffffffffffffffffffffffffffffff16815260200191505060405180910390f35b6106406004803603604081101561062057600080fd5b8101908080359060200190929190803590602001909291905050506119f2565b005b61064a611ddb565b6040518082815260200191505060405180910390f35b610668611f7b565b6040518082815260200191505060405180910390f35b6106c06004803603602081101561069457600080fd5b81019080803573ffffffffffffffffffffffffffffffffffffffff169060200190929190505050611f80565b6040518082815260200191505060405180910390f35b6106de611f98565b604051808273ffffffffffffffffffffffffffffffffffffffff16815260200191505060405180910390f35b610712611fc1565b60405180821515815260200191505060405180910390f35b61076c6004803603602081101561074057600080fd5b81019080803573ffffffffffffffffffffffffffffffffffffffff169060200190929190505050612018565b6040518082815260200191505060405180910390f35b61078a61203b565b604051808273ffffffffffffffffffffffffffffffffffffffff16815260200191505060405180910390f35b610802600480360360408110156107cc57600080fd5b81019080803573ffffffffffffffffffffffffffffffffffffffff1690602001909291908035906020019092919050505061205f565b6040518082815260200191505060405180910390f35b610820612084565b6040518082815260200191505060405180910390f35b61083e61208a565b6040518082815260200191505060405180910390f35b61085c612090565b6040518082815260200191505060405180910390f35b61087a6122b4565b6040518082815260200191505060405180910390f35b6108986122b9565b604051808273ffffffffffffffffffffffffffffffffffffffff16815260200191505060405180910390f35b610910600480360360408110156108da57600080fd5b81019080803573ffffffffffffffffffffffffffffffffffffffff1690602001909291908035906020019092919050505061239d565b6040518082600260200280838360005b8381101561093b578082015181840152602081019050610920565b5050505090500191505060405180910390f35b610956612441565b6040518082815260200191505060405180910390f35b6109b86004803603604081101561098257600080fd5b81019080803573ffffffffffffffffffffffffffffffffffffffff16906020019092919080359060200190929190505050612447565b6040518082815260200191505060405180910390f35b610a10600480360360208110156109e457600080fd5b81019080803573ffffffffffffffffffffffffffffffffffffffff16906020019092919050505061246c565b005b6000610b29600560008473ffffffffffffffffffffffffffffffffffffffff1673ffffffffffffffffffffffffffffffffffffffff16815260200190815260200160002054610b1b670de0b6b3a7640000610b0d610abf600460008973ffffffffffffffffffffffffffffffffffffffff1673ffffffffffffffffffffffffffffffffffffffff16815260200190815260200160002054610ab1612090565b61248990919063ffffffff16565b600760008973ffffffffffffffffffffffffffffffffffffffff1673ffffffffffffffffffffffffffffffffffffffff168152602001908152602001600020546124a090919063ffffffff16565b6124d790919063ffffffff16565b6124f090919063ffffffff16565b9050919050565b60056020528060005260406000206000915090505481565b6000600854905090565b600080610b5e83610b9e565b905060005b81811015610b93576000610b77858361205f565b14610b86578092505050610b99565b8080600101915050610b63565b50809150505b919050565b6000600660008373ffffffffffffffffffffffffffffffffffffffff1673ffffffffffffffffffffffffffffffffffffffff168152602001908152602001600020805490509050919050565b60076020528060005260406000206000915090505481565b610c0a612f96565b6000610c1583610b52565b9050610c2083610b9e565b811415610c46576040518060400160405280600081526020016000815250915050610c54565b610c50838261239d565b9150505b919050565b60026001541415610cd2576040517f08c379a000000000000000000000000000000000000000000000000000000000815260040180806020018281038252601f8152602001807f5265656e7472616e637947756172643a207265656e7472616e742063616c6c0081525060200191505060405180910390fd5b600260018190555033610ce3612090565b60038190555042600281905550600073ffffffffffffffffffffffffffffffffffffffff168173ffffffffffffffffffffffffffffffffffffffff1614610db757610d2d81610a12565b600560008373ffffffffffffffffffffffffffffffffffffffff1673ffffffffffffffffffffffffffffffffffffffff16815260200190815260200160002081905550600354600460008373ffffffffffffffffffffffffffffffffffffffff1673ffffffffffffffffffffffffffffffffffffffff168152602001908152602001600020819055505b60007f000000000000000000000000000000000000000000000000000000000000000073ffffffffffffffffffffffffffffffffffffffff166304433bbc6040518163ffffffff1660e01b815260040180806020018281038252600d8152602001807f547261646567656e45524332300000000000000000000000000000000000000081525060200191505060206040518083038186803b158015610e5b57600080fd5b505afa158015610e6f573d6000803e3d6000fd5b505050506040513d6020811015610e8557600080fd5b810190808051906020019092919050505090506000600560003373ffffffffffffffffffffffffffffffffffffffff1673ffffffffffffffffffffffffffffffffffffffff168152602001908152602001600020549050600081111561102e576000600560003373ffffffffffffffffffffffffffffffffffffffff1673ffffffffffffffffffffffffffffffffffffffff168152602001908152602001600020819055508173ffffffffffffffffffffffffffffffffffffffff1663a9059cbb33836040518363ffffffff1660e01b8152600401808373ffffffffffffffffffffffffffffffffffffffff16815260200182815260200192505050602060405180830381600087803b158015610f9b57600080fd5b505af1158015610faf573d6000803e3d6000fd5b505050506040513d6020811015610fc557600080fd5b8101908080519060200190929190505050503373ffffffffffffffffffffffffffffffffffffffff167fd6f2c8500df5b44f11e9e48b91ff9f1b9d81bc496d55570c2b1b75bf65243f518242604051808381526020018281526020019250505060405180910390a25b50505060018081905550565b600260015414156110b3576040517f08c379a000000000000000000000000000000000000000000000000000000000815260040180806020018281038252601f8152602001807f5265656e7472616e637947756172643a207265656e7472616e742063616c6c0081525060200191505060405180910390fd5b6002600181905550336110c4612090565b60038190555042600281905550600073ffffffffffffffffffffffffffffffffffffffff168173ffffffffffffffffffffffffffffffffffffffff16146111985761110e81610a12565b600560008373ffffffffffffffffffffffffffffffffffffffff1673ffffffffffffffffffffffffffffffffffffffff16815260200190815260200160002081905550600354600460008373ffffffffffffffffffffffffffffffffffffffff1673ffffffffffffffffffffffffffffffffffffffff168152602001908152602001600020819055505b60006111a333610b9e565b9050600080600090505b828110156112915760006111c1338361205f565b9050428111156111d15750611291565b60006111dd3384612447565b90506000811115611282576040518060400160405280600060ff168152602001600060ff16815250600660003373ffffffffffffffffffffffffffffffffffffffff1673ffffffffffffffffffffffffffffffffffffffff168152602001908152602001600020848154811061124f57fe5b906000526020600020906002020190600261126b929190612fb8565b5061127f81856124f090919063ffffffff16565b93505b505080806001019150506111ad565b5060008114611455576112af8160085461248990919063ffffffff16565b60088190555061130781600760003373ffffffffffffffffffffffffffffffffffffffff1673ffffffffffffffffffffffffffffffffffffffff1681526020019081526020016000205461248990919063ffffffff16565b600760003373ffffffffffffffffffffffffffffffffffffffff1673ffffffffffffffffffffffffffffffffffffffff16815260200190815260200160002081905550611352611600565b73ffffffffffffffffffffffffffffffffffffffff1663a9059cbb33836040518363ffffffff1660e01b8152600401808373ffffffffffffffffffffffffffffffffffffffff16815260200182815260200192505050602060405180830381600087803b1580156113c257600080fd5b505af11580156113d6573d6000803e3d6000fd5b505050506040513d60208110156113ec57600080fd5b8101908080519060200190929190505050503373ffffffffffffffffffffffffffffffffffffffff167ffbeff59d2bfda0d79ea8a29f8c57c66d48c7a13eabbdb90908d9115ec41c9dc64283604051808381526020018281526020019250505060405180910390a25b61145d610c59565b50505060018081905550565b6006602052826000526040600020828154811061148557600080fd5b906000526020600020906002020181600281106114a157600080fd5b0160009250925050505481565b60006114bb60085461250c565b905090565b600081565b60006114d082610c02565b6000600281106114dc57fe5b60200201519050919050565b6000600760008373ffffffffffffffffffffffffffffffffffffffff1673ffffffffffffffffffffffffffffffffffffffff168152602001908152602001600020549050919050565b611539611fc1565b61154257600080fd5b600073ffffffffffffffffffffffffffffffffffffffff1660008054906101000a900473ffffffffffffffffffffffffffffffffffffffff1673ffffffffffffffffffffffffffffffffffffffff167f8be0079c531659141344cd1fd0a4f28419497f9722a3daafe3b4186f6b6457e060405160405180910390a360008060006101000a81548173ffffffffffffffffffffffffffffffffffffffff021916908373ffffffffffffffffffffffffffffffffffffffff160217905550565b6000807f000000000000000000000000000000000000000000000000000000000000000073ffffffffffffffffffffffffffffffffffffffff166304433bbc6040518163ffffffff1660e01b815260040180806020018281038252600c8152602001807f417373657448616e646c6572000000000000000000000000000000000000000081525060200191505060206040518083038186803b1580156116a557600080fd5b505afa1580156116b9573d6000803e3d6000fd5b505050506040513d60208110156116cf57600080fd5b8101908080519060200190929190505050905060007f000000000000000000000000000000000000000000000000000000000000000073ffffffffffffffffffffffffffffffffffffffff166304433bbc6040518163ffffffff1660e01b81526004018080602001828103825260128152602001807f426173655562657377617041646170746572000000000000000000000000000081525060200191505060206040518083038186803b15801561178657600080fd5b505afa15801561179a573d6000803e3d6000fd5b505050506040513d60208110156117b057600080fd5b8101908080519060200190929190505050905060008273ffffffffffffffffffffffffffffffffffffffff1663be781b1c6040518163ffffffff1660e01b815260040160206040518083038186803b15801561180b57600080fd5b505afa15801561181f573d6000803e3d6000fd5b505050506040513d602081101561183557600080fd5b8101908080519060200190929190505050905060007f000000000000000000000000000000000000000000000000000000000000000073ffffffffffffffffffffffffffffffffffffffff166304433bbc6040518163ffffffff1660e01b815260040180806020018281038252600d8152602001807f547261646567656e45524332300000000000000000000000000000000000000081525060200191505060206040518083038186803b1580156118ec57600080fd5b505afa158015611900573d6000803e3d6000fd5b505050506040513d602081101561191657600080fd5b810190808051906020019092919050505090508273ffffffffffffffffffffffffffffffffffffffff1663e6a4390582846040518363ffffffff1660e01b8152600401808373ffffffffffffffffffffffffffffffffffffffff1681526020018273ffffffffffffffffffffffffffffffffffffffff1681526020019250505060206040518083038186803b1580156119ae57600080fd5b505afa1580156119c2573d6000803e3d6000fd5b505050506040513d60208110156119d857600080fd5b810190808051906020019092919050505094505050505090565b60026001541415611a6b576040517f08c379a000000000000000000000000000000000000000000000000000000000815260040180806020018281038252601f8152602001807f5265656e7472616e637947756172643a207265656e7472616e742063616c6c0081525060200191505060405180910390fd5b600260018190555033611a7c612090565b60038190555042600281905550600073ffffffffffffffffffffffffffffffffffffffff168173ffffffffffffffffffffffffffffffffffffffff1614611b5057611ac681610a12565b600560008373ffffffffffffffffffffffffffffffffffffffff1673ffffffffffffffffffffffffffffffffffffffff16815260200190815260200160002081905550600354600460008373ffffffffffffffffffffffffffffffffffffffff1673ffffffffffffffffffffffffffffffffffffffff168152602001908152602001600020819055505b60008311611ba9576040517f08c379a000000000000000000000000000000000000000000000000000000000815260040180806020018281038252603e815260200180613120603e913960400191505060405180910390fd5b600082118015611bba575060348211155b611c0f576040517f08c379a00000000000000000000000000000000000000000000000000000000081526004018080602001828103825260428152602001806130de6042913960600191505060405180910390fd5b6000611c39611c2a8462093a806124a090919063ffffffff16565b426124f090919063ffffffff16565b90506000611c7584611c67611c586001886124f090919063ffffffff16565b886124a090919063ffffffff16565b6124d790919063ffffffff16565b9050611c82338383612b0f565b611c97816008546124f090919063ffffffff16565b600881905550611ca5611600565b73ffffffffffffffffffffffffffffffffffffffff166323b872dd3330846040518463ffffffff1660e01b8152600401808473ffffffffffffffffffffffffffffffffffffffff1681526020018373ffffffffffffffffffffffffffffffffffffffff1681526020018281526020019350505050602060405180830381600087803b158015611d3357600080fd5b505af1158015611d47573d6000803e3d6000fd5b505050506040513d6020811015611d5d57600080fd5b8101908080519060200190929190505050503373ffffffffffffffffffffffffffffffffffffffff167fb4caaf29adda3eefee3ad552a8e85058589bf834c7466cae4ee58787f70589ed82844260405180848152602001838152602001828152602001935050505060405180910390a2505050600180819055505050565b60007f000000000000000000000000000000000000000000000000000000000000000073ffffffffffffffffffffffffffffffffffffffff166304433bbc6040518163ffffffff1660e01b81526004018080602001828103825260088152602001807f53657474696e677300000000000000000000000000000000000000000000000081525060200191505060206040518083038186803b158015611e7f57600080fd5b505afa158015611e93573d6000803e3d6000fd5b505050506040513d6020811015611ea957600080fd5b810190808051906020019092919050505073ffffffffffffffffffffffffffffffffffffffff166328a2176f6040518163ffffffff1660e01b815260040180806020018281038252601a8152602001807f5765656b6c794c505374616b696e674661726d5265776172647300000000000081525060200191505060206040518083038186803b158015611f3b57600080fd5b505afa158015611f4f573d6000803e3d6000fd5b505050506040513d6020811015611f6557600080fd5b8101908080519060200190929190505050905090565b600181565b60046020528060005260406000206000915090505481565b60008060009054906101000a900473ffffffffffffffffffffffffffffffffffffffff16905090565b60008060009054906101000a900473ffffffffffffffffffffffffffffffffffffffff1673ffffffffffffffffffffffffffffffffffffffff163373ffffffffffffffffffffffffffffffffffffffff1614905090565b600061202382610c02565b60016002811061202f57fe5b60200201519050919050565b7f000000000000000000000000000000000000000000000000000000000000000081565b600061206b838361239d565b60006002811061207757fe5b6020020151905092915050565b60085481565b60025481565b6000807f000000000000000000000000000000000000000000000000000000000000000073ffffffffffffffffffffffffffffffffffffffff166304433bbc6040518163ffffffff1660e01b81526004018080602001828103825260088152602001807f53657474696e677300000000000000000000000000000000000000000000000081525060200191505060206040518083038186803b15801561213557600080fd5b505afa158015612149573d6000803e3d6000fd5b505050506040513d602081101561215f57600080fd5b810190808051906020019092919050505073ffffffffffffffffffffffffffffffffffffffff166328a2176f6040518163ffffffff1660e01b815260040180806020018281038252601a8152602001807f5765656b6c794c505374616b696e674661726d5265776172647300000000000081525060200191505060206040518083038186803b1580156121f157600080fd5b505afa158015612205573d6000803e3d6000fd5b505050506040513d602081101561221b57600080fd5b8101908080519060200190929190505050905060006008541415612244576003549150506122b1565b6122ad61229c60085461228e670de0b6b3a7640000612280866122726002544261248990919063ffffffff16565b6124a090919063ffffffff16565b6124a090919063ffffffff16565b6124d790919063ffffffff16565b6003546124f090919063ffffffff16565b9150505b90565b603081565b60007f000000000000000000000000000000000000000000000000000000000000000073ffffffffffffffffffffffffffffffffffffffff166304433bbc6040518163ffffffff1660e01b815260040180806020018281038252600d8152602001807f547261646567656e45524332300000000000000000000000000000000000000081525060200191505060206040518083038186803b15801561235d57600080fd5b505afa158015612371573d6000803e3d6000fd5b505050506040513d602081101561238757600080fd5b8101908080519060200190929190505050905090565b6123a5612f96565b600660008473ffffffffffffffffffffffffffffffffffffffff1673ffffffffffffffffffffffffffffffffffffffff16815260200190815260200160002082815481106123ef57fe5b9060005260206000209060020201600280602002604051908101604052809291908260028015612434576020028201915b815481526020019060010190808311612420575b5050505050905092915050565b60035481565b6000612453838361239d565b60016002811061245f57fe5b6020020151905092915050565b612474611fc1565b61247d57600080fd5b61248681612e9f565b50565b60008282111561249557fe5b818303905092915050565b6000808314156124b357600090506124d1565b60008284029050828482816124c457fe5b04146124cc57fe5b809150505b92915050565b6000808284816124e357fe5b0490508091505092915050565b60008082840190508381101561250257fe5b8091505092915050565b6000808211612566576040517f08c379a000000000000000000000000000000000000000000000000000000000815260040180806020018281038252604c81526020018061305b604c913960600191505060405180910390fd5b60007f000000000000000000000000000000000000000000000000000000000000000073ffffffffffffffffffffffffffffffffffffffff166304433bbc6040518163ffffffff1660e01b81526004018080602001828103825260128152602001807f426173655562657377617041646170746572000000000000000000000000000081525060200191505060206040518083038186803b15801561260a57600080fd5b505afa15801561261e573d6000803e3d6000fd5b505050506040513d602081101561263457600080fd5b810190808051906020019092919050505090506000612651611600565b905060008173ffffffffffffffffffffffffffffffffffffffff16630dfe16816040518163ffffffff1660e01b815260040160206040518083038186803b15801561269b57600080fd5b505afa1580156126af573d6000803e3d6000fd5b505050506040513d60208110156126c557600080fd5b8101908080519060200190929190505050905060008273ffffffffffffffffffffffffffffffffffffffff1663d21220a76040518163ffffffff1660e01b815260040160206040518083038186803b15801561272057600080fd5b505afa158015612734573d6000803e3d6000fd5b505050506040513d602081101561274a57600080fd5b810190808051906020019092919050505090506000808573ffffffffffffffffffffffffffffffffffffffff1663d87fc14985858b6040518463ffffffff1660e01b8152600401808473ffffffffffffffffffffffffffffffffffffffff1681526020018373ffffffffffffffffffffffffffffffffffffffff1681526020018281526020019350505050604080518083038186803b1580156127ec57600080fd5b505afa158015612800573d6000803e3d6000fd5b505050506040513d604081101561281657600080fd5b8101908080519060200190929190805190602001909291905050509150915060008473ffffffffffffffffffffffffffffffffffffffff1663313ce5676040518163ffffffff1660e01b815260040160206040518083038186803b15801561287d57600080fd5b505afa158015612891573d6000803e3d6000fd5b505050506040513d60208110156128a757600080fd5b810190808051906020019092919050505060ff16905060008773ffffffffffffffffffffffffffffffffffffffff166341976e09876040518263ffffffff1660e01b8152600401808273ffffffffffffffffffffffffffffffffffffffff16815260200191505060206040518083038186803b15801561292657600080fd5b505afa15801561293a573d6000803e3d6000fd5b505050506040513d602081101561295057600080fd5b81019080805190602001909291905050509050600061298d83600a0a61297f84886124a090919063ffffffff16565b6124d790919063ffffffff16565b905060008673ffffffffffffffffffffffffffffffffffffffff1663313ce5676040518163ffffffff1660e01b815260040160206040518083038186803b1580156129d757600080fd5b505afa1580156129eb573d6000803e3d6000fd5b505050506040513d6020811015612a0157600080fd5b810190808051906020019092919050505060ff16905060008a73ffffffffffffffffffffffffffffffffffffffff166341976e09896040518263ffffffff1660e01b8152600401808273ffffffffffffffffffffffffffffffffffffffff16815260200191505060206040518083038186803b158015612a8057600080fd5b505afa158015612a94573d6000803e3d6000fd5b505050506040513d6020811015612aaa57600080fd5b810190808051906020019092919050505090506000612ae783600a0a612ad9848a6124a090919063ffffffff16565b6124d790919063ffffffff16565b9050612afc81856124a090919063ffffffff16565b9c50505050505050505050505050919050565b814210612b84576040517f08c379a000000000000000000000000000000000000000000000000000000000815260040180806020018281038252601a8152602001807f54696d65206d75737420626520696e207468652066757475726500000000000081525060200191505060405180910390fd5b6000811415612bfb576040517f08c379a00000000000000000000000000000000000000000000000000000000081526004018080602001828103825260178152602001807f5175616e746974792063616e6e6f74206265207a65726f00000000000000000081525060200191505060405180910390fd5b6000600660008573ffffffffffffffffffffffffffffffffffffffff1673ffffffffffffffffffffffffffffffffffffffff1681526020019081526020016000208054905090506030811115612cb9576040517f08c379a000000000000000000000000000000000000000000000000000000000815260040180806020018281038252601c8152602001807f56657374696e67207363686564756c6520697320746f6f206c6f6e670000000081525060200191505060405180910390fd5b6000811415612d0b5781600760008673ffffffffffffffffffffffffffffffffffffffff1673ffffffffffffffffffffffffffffffffffffffff16815260200190815260200160002081905550612e0d565b82612d21856001612d1b88610b9e565b0361205f565b10612d77576040517f08c379a00000000000000000000000000000000000000000000000000000000081526004018080602001828103825260378152602001806130a76037913960400191505060405180910390fd5b612dc982600760008773ffffffffffffffffffffffffffffffffffffffff1673ffffffffffffffffffffffffffffffffffffffff168152602001908152602001600020546124f090919063ffffffff16565b600760008673ffffffffffffffffffffffffffffffffffffffff1673ffffffffffffffffffffffffffffffffffffffff168152602001908152602001600020819055505b600660008573ffffffffffffffffffffffffffffffffffffffff1673ffffffffffffffffffffffffffffffffffffffff1681526020019081526020016000206040518060400160405280858152602001848152509080600181540180825580915050600190039060005260206000209060020201600090919091909150906002612e98929190612ffd565b5050505050565b600073ffffffffffffffffffffffffffffffffffffffff168173ffffffffffffffffffffffffffffffffffffffff161415612ed957600080fd5b8073ffffffffffffffffffffffffffffffffffffffff1660008054906101000a900473ffffffffffffffffffffffffffffffffffffffff1673ffffffffffffffffffffffffffffffffffffffff167f8be0079c531659141344cd1fd0a4f28419497f9722a3daafe3b4186f6b6457e060405160405180910390a3806000806101000a81548173ffffffffffffffffffffffffffffffffffffffff021916908373ffffffffffffffffffffffffffffffffffffffff16021790555050565b6040518060400160405280600290602082028036833780820191505090505090565b8260028101928215612fec579160200282015b82811115612feb578251829060ff16905591602001919060010190612fcb565b5b509050612ff9919061303d565b5090565b826002810192821561302c579160200282015b8281111561302b578251825591602001919060010190613010565b5b509050613039919061303d565b5090565b5b8082111561305657600081600090555060010161303e565b509056fe547261646567656e4c505374616b696e67526577617264733a206e756d626572206f66204c5020746f6b656e7320696e2070616972206d7573742062652067726561746572207468616e203043616e6e6f7420616464206e65772076657374656420656e7472696573206561726c696572207468616e20746865206c617374206f6e65547261646567656e4c505374616b696e67526577617264733a206e756d626572206f66207765656b73206d757374206265206265747765656e203120616e64203532547261646567656e4c505374616b696e67526577617264733a205374616b656420616d6f756e74206d7573742062652067726561746572207468616e2030a26469706673582212201927dcfc6124eff40e9bbc3da7cbbfeab0686cb94e6cd278062008cb9f6cf8f364736f6c63430007060033",
  "immutableReferences": {
    "6952": [
      {
        "length": 32,
        "start": 3515
      },
      {
        "length": 32,
        "start": 5637
      },
      {
        "length": 32,
        "start": 5862
      },
      {
        "length": 32,
        "start": 6220
      },
      {
        "length": 32,
        "start": 7647
      },
      {
        "length": 32,
        "start": 8253
      },
      {
        "length": 32,
        "start": 8341
      },
      {
        "length": 32,
        "start": 8893
      },
      {
        "length": 32,
        "start": 9578
      }
    ]
  },
  "source": "// SPDX-License-Identifier: MIT\r\n\r\npragma solidity >=0.7.6;\r\n\r\n//Adapters\r\nimport './interfaces/IBaseUbeswapAdapter.sol';\r\n\r\n// Inheritance\r\nimport \"./Ownable.sol\";\r\nimport \"./interfaces//ITradegenLPStakingRewards.sol\";\r\nimport \"./openzeppelin-solidity/ReentrancyGuard.sol\";\r\n\r\n// Libraries\r\nimport \"./libraries/SafeMath.sol\";\r\n\r\n// Internal references\r\nimport \"./interfaces/IERC20.sol\";\r\nimport \"./interfaces/IAddressResolver.sol\";\r\nimport \"./interfaces/ISettings.sol\";\r\nimport \"./interfaces/IAssetHandler.sol\";\r\nimport \"./interfaces/IBaseUbeswapAdapter.sol\";\r\nimport \"./interfaces/Ubeswap/IUniswapV2Pair.sol\";\r\n\r\ncontract TradegenLPStakingRewards is Ownable, ITradegenLPStakingRewards, ReentrancyGuard {\r\n    using SafeMath for uint;\r\n\r\n    IAddressResolver public immutable ADDRESS_RESOLVER;\r\n\r\n    uint public lastUpdateTime;\r\n    uint256 public rewardPerTokenStored;\r\n    mapping(address => uint256) public userRewardPerTokenPaid;\r\n    mapping(address => uint256) public rewards;\r\n\r\n    /* Lists of (timestamp, quantity) pairs per account, sorted in ascending time order.\r\n     * These are the times at which each given quantity of LP token vests. */\r\n    mapping(address => uint[2][]) public vestingSchedules;\r\n\r\n    /* An account's total vested TGEN-cUSD LP token balance to save recomputing this */\r\n    mapping(address => uint) public totalVestedAccountBalance;\r\n\r\n    /* The total remaining vested balance, for verifying the actual TGEN-cUSD LP token balance of this contract against. */\r\n    uint public totalVestedBalance;\r\n\r\n    uint public constant TIME_INDEX = 0;\r\n    uint public constant QUANTITY_INDEX = 1;\r\n\r\n    /* Limit vesting entries to disallow unbounded iteration over vesting schedules. */\r\n    uint public constant MAX_VESTING_ENTRIES = 48;\r\n\r\n    /* ========== CONSTRUCTOR ========== */\r\n\r\n    constructor(IAddressResolver _addressResolver) Ownable() {\r\n        ADDRESS_RESOLVER = _addressResolver;\r\n        lastUpdateTime = block.timestamp;\r\n    }\r\n\r\n    /* ========== VIEW FUNCTIONS ========== */\r\n\r\n    function rewardRate() public view override returns (uint) {\r\n        return ISettings(ADDRESS_RESOLVER.getContractAddress(\"Settings\")).getParameterValue(\"WeeklyLPStakingFarmRewards\");\r\n    }\r\n\r\n    function totalSupply() public view override returns (uint) {\r\n        return totalVestedBalance;\r\n    }\r\n\r\n    function stakingToken() public view override returns (address) {\r\n        address assetHandlerAddress = ADDRESS_RESOLVER.getContractAddress(\"AssetHandler\");\r\n        address baseUbeswapAdapterAddress = ADDRESS_RESOLVER.getContractAddress(\"BaseUbeswapAdapter\");\r\n        address stableCoinAddress = IAssetHandler(assetHandlerAddress).getStableCoinAddress();\r\n        address TGEN = ADDRESS_RESOLVER.getContractAddress(\"TradegenERC20\");\r\n\r\n        return IBaseUbeswapAdapter(baseUbeswapAdapterAddress).getPair(TGEN, stableCoinAddress);\r\n    }\r\n\r\n    function rewardsToken() external view override returns (address) {\r\n        return ADDRESS_RESOLVER.getContractAddress(\"TradegenERC20\");\r\n    }\r\n\r\n    /**\r\n     * @notice A simple alias to totalVestedAccountBalance: provides ERC20 balance integration.\r\n     */\r\n    function balanceOf(address account) public view override returns (uint) {\r\n        return totalVestedAccountBalance[account];\r\n    }\r\n\r\n    /**\r\n     * @notice The number of vesting dates in an account's schedule.\r\n     */\r\n    function numVestingEntries(address account) public view override returns (uint) {\r\n        return vestingSchedules[account].length;\r\n    }\r\n\r\n    /**\r\n     * @notice Get a particular schedule entry for an account.\r\n     * @return A pair of uints: (timestamp, TGEN-cUSD LP quantity).\r\n     */\r\n    function getVestingScheduleEntry(address account, uint index) public view override returns (uint[2] memory) {\r\n        return vestingSchedules[account][index];\r\n    }\r\n\r\n    /**\r\n     * @notice Get the time at which a given schedule entry will vest.\r\n     */\r\n    function getVestingTime(address account, uint index) public view override returns (uint) {\r\n        return getVestingScheduleEntry(account, index)[TIME_INDEX];\r\n    }\r\n\r\n    /**\r\n     * @notice Get the quantity of TGEN-cUSD LP associated with a given schedule entry.\r\n     */\r\n    function getVestingQuantity(address account, uint index) public view override returns (uint) {\r\n        return getVestingScheduleEntry(account, index)[QUANTITY_INDEX];\r\n    }\r\n\r\n    /**\r\n     * @notice Obtain the index of the next schedule entry that will vest for a given user.\r\n     */\r\n    function getNextVestingIndex(address account) public view override returns (uint) {\r\n        uint len = numVestingEntries(account);\r\n\r\n        for (uint i = 0; i < len; i++)\r\n        {\r\n            if (getVestingTime(account, i) != 0)\r\n            {\r\n                return i;\r\n            }\r\n        }\r\n\r\n        return len;\r\n    }\r\n\r\n    /**\r\n     * @notice Calculates the amount of TGEN reward per token stored\r\n     */\r\n    function rewardPerToken() public view override returns (uint) {\r\n        uint rate = ISettings(ADDRESS_RESOLVER.getContractAddress(\"Settings\")).getParameterValue(\"WeeklyLPStakingFarmRewards\");\r\n\r\n        if (totalVestedBalance == 0)\r\n        {\r\n            return rewardPerTokenStored;\r\n        }\r\n\r\n        return rewardPerTokenStored.add(block.timestamp.sub(lastUpdateTime).mul(rate).mul(1e18).div(totalVestedBalance));\r\n    }\r\n\r\n    /**\r\n     * @notice Calculates the amount of TGEN rewards earned\r\n     */\r\n    function earned(address account) public view override returns (uint) {\r\n        return totalVestedAccountBalance[account].mul(rewardPerToken().sub(userRewardPerTokenPaid[account])).div(1e18).add(rewards[account]);\r\n    }\r\n\r\n    /**\r\n     * @notice Obtain the next schedule entry that will vest for a given user.\r\n     * @return A pair of uints: (timestamp, TGEN-cUSD LP quantity). */\r\n    function getNextVestingEntry(address account) public view override returns (uint[2] memory) {\r\n        uint index = getNextVestingIndex(account);\r\n        if (index == numVestingEntries(account))\r\n        {\r\n            return [uint(0), 0];\r\n        }\r\n\r\n        return getVestingScheduleEntry(account, index);\r\n    }\r\n\r\n    /**\r\n     * @notice Obtain the time at which the next schedule entry will vest for a given user.\r\n     */\r\n    function getNextVestingTime(address account) external view override returns (uint) {\r\n        return getNextVestingEntry(account)[TIME_INDEX];\r\n    }\r\n\r\n    /**\r\n     * @notice Obtain the quantity which the next schedule entry will vest for a given user.\r\n     */\r\n    function getNextVestingQuantity(address account) external view override returns (uint) {\r\n        return getNextVestingEntry(account)[QUANTITY_INDEX];\r\n    }\r\n\r\n    /**\r\n     * @notice Returns the USD value of all LP tokens staked in this contract\r\n     * @return uint USD value of this contract\r\n     */\r\n    function getUSDValueOfContract() public view override returns (uint) {\r\n        return _calculateValueOfLPTokens(totalVestedBalance);\r\n    }\r\n\r\n    /* ========== INTERNAL FUNCTIONS ========== */\r\n\r\n    /**\r\n     * @notice Add a new vesting entry at a given time and quantity to an account's schedule.\r\n     * @param account The account to append a new vesting entry to.\r\n     * @param time The absolute unix timestamp after which the vested quantity may be withdrawn.\r\n     * @param quantity The quantity of TGEN-cUSD LP that will vest.\r\n     */\r\n    function appendVestingEntry(address account, uint time, uint quantity) internal {\r\n        /* No empty or already-passed vesting entries allowed. */\r\n        require(block.timestamp < time, \"Time must be in the future\");\r\n        require(quantity != 0, \"Quantity cannot be zero\");\r\n\r\n        /* Disallow arbitrarily long vesting schedules in light of the gas limit. */\r\n        uint scheduleLength = vestingSchedules[account].length;\r\n        require(scheduleLength <= MAX_VESTING_ENTRIES, \"Vesting schedule is too long\");\r\n\r\n        if (scheduleLength == 0)\r\n        {\r\n            totalVestedAccountBalance[account] = quantity;\r\n        }\r\n        else\r\n        {\r\n            /* Disallow adding new vested TGEN-cUSD LP earlier than the last one.\r\n             * Since entries are only appended, this means that no vesting date can be repeated. */\r\n            require(\r\n                getVestingTime(account, numVestingEntries(account) - 1) < time,\r\n                \"Cannot add new vested entries earlier than the last one\"\r\n            );\r\n\r\n            totalVestedAccountBalance[account] = totalVestedAccountBalance[account].add(quantity);\r\n        }\r\n\r\n        vestingSchedules[account].push([time, quantity]);\r\n    }\r\n\r\n    /**\r\n     * @notice Calculates the USD value of the given number of LP tokens\r\n     * @param numberOfTokens Number of LP tokens in the farm\r\n     * @return uint The USD value of the LP tokens\r\n     */\r\n    function _calculateValueOfLPTokens(uint numberOfTokens) internal view returns (uint) {\r\n        require(numberOfTokens > 0, \"TradegenLPStakingRewards: number of LP tokens in pair must be greater than 0\");\r\n\r\n        address baseUbeswapAdapterAddress = ADDRESS_RESOLVER.getContractAddress(\"BaseUbeswapAdapter\"); \r\n\r\n        address pair = stakingToken();\r\n        address tokenA = IUniswapV2Pair(pair).token0();\r\n        address tokenB = IUniswapV2Pair(pair).token1();\r\n        (uint amountA, uint amountB) = IBaseUbeswapAdapter(baseUbeswapAdapterAddress).getTokenAmountsFromPair(tokenA, tokenB, numberOfTokens);\r\n\r\n        uint numberOfDecimalsA = IERC20(tokenA).decimals();\r\n        uint USDperTokenA = IBaseUbeswapAdapter(baseUbeswapAdapterAddress).getPrice(tokenA);\r\n        uint USDBalanceA = amountA.mul(USDperTokenA).div(10 ** numberOfDecimalsA);\r\n\r\n        uint numberOfDecimalsB = IERC20(tokenB).decimals();\r\n        uint USDperTokenB = IBaseUbeswapAdapter(baseUbeswapAdapterAddress).getPrice(tokenB);\r\n        uint USDBalanceB = amountB.mul(USDperTokenB).div(10 ** numberOfDecimalsB);\r\n\r\n        return USDBalanceA.mul(USDBalanceB);\r\n    }\r\n\r\n    /* ========== MUTATIVE FUNCTIONS ========== */\r\n\r\n    /**\r\n     * @notice Stakes the given TGEN-cUSD LP amount.\r\n     */\r\n    function stake(uint amount, uint numberOfWeeks) external override nonReentrant updateReward(msg.sender) {\r\n        require(amount > 0, \"TradegenLPStakingRewards: Staked amount must be greater than 0\");\r\n        require(numberOfWeeks > 0 && numberOfWeeks <= 52, \"TradegenLPStakingRewards: number of weeks must be between 1 and 52\");\r\n\r\n        //Up to 2x multiplier depending on number of weeks staked\r\n        uint vestingTimestamp = block.timestamp.add(uint(1 weeks).mul(numberOfWeeks));\r\n        uint adjustedAmount = amount.mul(numberOfWeeks.add(1)).div(numberOfWeeks);\r\n        appendVestingEntry(msg.sender, vestingTimestamp, adjustedAmount);\r\n\r\n        totalVestedBalance = totalVestedBalance.add(adjustedAmount);\r\n        IERC20(stakingToken()).transferFrom(msg.sender, address(this), adjustedAmount);\r\n\r\n        emit Staked(msg.sender, adjustedAmount, vestingTimestamp, block.timestamp);\r\n    }\r\n\r\n    /**\r\n     * @notice Allow a user to withdraw any TGEN-cUSD LP in their schedule that have vested.\r\n     */\r\n    function vest() external override nonReentrant updateReward(msg.sender) {\r\n        uint numEntries = numVestingEntries(msg.sender);\r\n        uint total;\r\n\r\n        for (uint i = 0; i < numEntries; i++)\r\n        {\r\n            uint time = getVestingTime(msg.sender, i);\r\n            /* The list is sorted; when we reach the first future time, bail out. */\r\n            if (time > block.timestamp)\r\n            {\r\n                break;\r\n            }\r\n\r\n            uint qty = getVestingQuantity(msg.sender, i);\r\n\r\n            if (qty > 0)\r\n            {\r\n                vestingSchedules[msg.sender][i] = [0, 0];\r\n                total = total.add(qty);\r\n            }\r\n        }\r\n\r\n        if (total != 0)\r\n        {\r\n            totalVestedBalance = totalVestedBalance.sub(total);\r\n            totalVestedAccountBalance[msg.sender] = totalVestedAccountBalance[msg.sender].sub(total);\r\n\r\n            IERC20(stakingToken()).transfer(msg.sender, total);\r\n\r\n            emit Vested(msg.sender, block.timestamp, total);\r\n        }\r\n\r\n        getReward();\r\n    }\r\n\r\n    /**\r\n     * @notice Allow a user to claim any available staking rewards\r\n     */\r\n    function getReward() public override nonReentrant updateReward(msg.sender) {\r\n        address TGEN = ADDRESS_RESOLVER.getContractAddress(\"TradegenERC20\");\r\n        uint reward = rewards[msg.sender];\r\n\r\n        if (reward > 0)\r\n        {\r\n            rewards[msg.sender] = 0;\r\n            IERC20(TGEN).transfer(msg.sender, reward);\r\n            emit RewardPaid(msg.sender, reward, block.timestamp);\r\n        }\r\n    }\r\n\r\n    /* ========== MODIFIERS ========== */\r\n\r\n    modifier updateReward(address account) {\r\n        rewardPerTokenStored = rewardPerToken();\r\n        lastUpdateTime = block.timestamp;\r\n        if (account != address(0)) {\r\n            rewards[account] = earned(account);\r\n            userRewardPerTokenPaid[account] = rewardPerTokenStored;\r\n        }\r\n        _;\r\n    }\r\n\r\n    /* ========== EVENTS ========== */\r\n\r\n    event Vested(address indexed beneficiary, uint time, uint value);\r\n    event Staked(address indexed beneficiary, uint total, uint vestingTimestamp, uint timestamp);\r\n    event RewardPaid(address indexed user, uint amount, uint timestamp);\r\n}",
  "sourcePath": "C:/Users/xavie/OneDrive/Desktop/TradeGen/Github/tradegen-protocol/contracts/TradegenLPStakingRewards.sol",
  "compiler": {
    "name": "solc",
    "version": "0.7.6+commit.7338295f.Emscripten.clang"
  },
  "schemaVersion": "3.4.1",
  "updatedAt": "2021-08-17T23:05:06.018Z",
  "devdoc": {
    "kind": "dev",
    "methods": {
      "getNextVestingEntry(address)": {
        "returns": {
          "_0": "A pair of uints: (timestamp, TGEN-cUSD LP quantity). "
        }
      },
      "getUSDValueOfContract()": {
        "returns": {
          "_0": "uint USD value of this contract"
        }
      },
      "getVestingScheduleEntry(address,uint256)": {
        "returns": {
          "_0": "A pair of uints: (timestamp, TGEN-cUSD LP quantity)."
        }
      },
      "isOwner()": {
        "returns": {
          "_0": "true if `msg.sender` is the owner of the contract."
        }
      },
      "owner()": {
        "returns": {
          "_0": "the address of the owner."
        }
      },
      "renounceOwnership()": {
        "details": "Allows the current owner to relinquish control of the contract."
      },
      "transferOwnership(address)": {
        "details": "Allows the current owner to transfer control of the contract to a newOwner.",
        "params": {
          "newOwner": "The address to transfer ownership to."
        }
      }
    },
    "version": 1
  },
  "userdoc": {
    "kind": "user",
    "methods": {
      "balanceOf(address)": {
        "notice": "A simple alias to totalVestedAccountBalance: provides ERC20 balance integration."
      },
      "earned(address)": {
        "notice": "Calculates the amount of TGEN rewards earned"
      },
      "getNextVestingEntry(address)": {
        "notice": "Obtain the next schedule entry that will vest for a given user."
      },
      "getNextVestingIndex(address)": {
        "notice": "Obtain the index of the next schedule entry that will vest for a given user."
      },
      "getNextVestingQuantity(address)": {
        "notice": "Obtain the quantity which the next schedule entry will vest for a given user."
      },
      "getNextVestingTime(address)": {
        "notice": "Obtain the time at which the next schedule entry will vest for a given user."
      },
      "getReward()": {
        "notice": "Allow a user to claim any available staking rewards"
      },
      "getUSDValueOfContract()": {
        "notice": "Returns the USD value of all LP tokens staked in this contract"
      },
      "getVestingQuantity(address,uint256)": {
        "notice": "Get the quantity of TGEN-cUSD LP associated with a given schedule entry."
      },
      "getVestingScheduleEntry(address,uint256)": {
        "notice": "Get a particular schedule entry for an account."
      },
      "getVestingTime(address,uint256)": {
        "notice": "Get the time at which a given schedule entry will vest."
      },
      "numVestingEntries(address)": {
        "notice": "The number of vesting dates in an account's schedule."
      },
      "renounceOwnership()": {
        "notice": "Renouncing to ownership will leave the contract without an owner. It will not be possible to call the functions with the `onlyOwner` modifier anymore."
      },
      "rewardPerToken()": {
        "notice": "Calculates the amount of TGEN reward per token stored"
      },
      "stake(uint256,uint256)": {
        "notice": "Stakes the given TGEN-cUSD LP amount."
      },
      "vest()": {
        "notice": "Allow a user to withdraw any TGEN-cUSD LP in their schedule that have vested."
      }
    },
    "version": 1
  }
}