{
  "contractName": "TradegenStakingRewards",
  "abi": [
    {
      "inputs": [
        {
          "internalType": "contract IAddressResolver",
          "name": "addressResolver",
          "type": "address"
        }
      ],
      "stateMutability": "nonpayable",
      "type": "constructor"
    },
    {
      "anonymous": false,
      "inputs": [
        {
          "indexed": true,
          "internalType": "address",
          "name": "user",
          "type": "address"
        },
        {
          "indexed": false,
          "internalType": "uint256",
          "name": "amount",
          "type": "uint256"
        },
        {
          "indexed": false,
          "internalType": "uint256",
          "name": "timestamp",
          "type": "uint256"
        }
      ],
      "name": "ClaimedStakingRewards",
      "type": "event"
    },
    {
      "anonymous": false,
      "inputs": [
        {
          "indexed": true,
          "internalType": "address",
          "name": "user",
          "type": "address"
        },
        {
          "indexed": false,
          "internalType": "uint256",
          "name": "amount",
          "type": "uint256"
        },
        {
          "indexed": false,
          "internalType": "uint256",
          "name": "timestamp",
          "type": "uint256"
        }
      ],
      "name": "Staked",
      "type": "event"
    },
    {
      "anonymous": false,
      "inputs": [
        {
          "indexed": true,
          "internalType": "address",
          "name": "user",
          "type": "address"
        },
        {
          "indexed": false,
          "internalType": "uint256",
          "name": "amount",
          "type": "uint256"
        },
        {
          "indexed": false,
          "internalType": "uint256",
          "name": "timestamp",
          "type": "uint256"
        }
      ],
      "name": "Unstaked",
      "type": "event"
    },
    {
      "inputs": [],
      "name": "ADDRESS_RESOLVER",
      "outputs": [
        {
          "internalType": "contract IAddressResolver",
          "name": "",
          "type": "address"
        }
      ],
      "stateMutability": "view",
      "type": "function"
    },
    {
      "inputs": [],
      "name": "totalSupply",
      "outputs": [
        {
          "internalType": "uint256",
          "name": "",
          "type": "uint256"
        }
      ],
      "stateMutability": "view",
      "type": "function"
    },
    {
      "inputs": [
        {
          "internalType": "address",
          "name": "account",
          "type": "address"
        }
      ],
      "name": "balanceOf",
      "outputs": [
        {
          "internalType": "uint256",
          "name": "",
          "type": "uint256"
        }
      ],
      "stateMutability": "view",
      "type": "function"
    },
    {
      "inputs": [],
      "name": "getAvailableYield",
      "outputs": [
        {
          "internalType": "uint256",
          "name": "",
          "type": "uint256"
        }
      ],
      "stateMutability": "view",
      "type": "function"
    },
    {
      "inputs": [
        {
          "internalType": "uint256",
          "name": "amount",
          "type": "uint256"
        }
      ],
      "name": "stake",
      "outputs": [],
      "stateMutability": "nonpayable",
      "type": "function"
    },
    {
      "inputs": [
        {
          "internalType": "uint256",
          "name": "amount",
          "type": "uint256"
        }
      ],
      "name": "unstake",
      "outputs": [],
      "stateMutability": "nonpayable",
      "type": "function"
    },
    {
      "inputs": [],
      "name": "claimStakingRewards",
      "outputs": [],
      "stateMutability": "nonpayable",
      "type": "function"
    }
  ],
  "bytecode": "0x60a060405234801561001057600080fd5b506040516111663803806111668339818101604052602081101561003357600080fd5b81019080805190602001909291905050508073ffffffffffffffffffffffffffffffffffffffff1660808173ffffffffffffffffffffffffffffffffffffffff1660601b815250505060805160601c6110b96100ad600039806102f152806104fb52806108105280610a545280610cc152506110b96000f3fe608060405234801561001057600080fd5b506004361061007d5760003560e01c80636b69e05b1161005b5780636b69e05b146100ec57806370a08231146100f6578063981f3b8e1461014e578063a694fc3a146101825761007d565b806318160ddd146100825780632843594f146100a05780632e17de78146100be575b600080fd5b61008a6101b0565b6040518082815260200191505060405180910390f35b6100a86101b9565b6040518082815260200191505060405180910390f35b6100ea600480360360208110156100d457600080fd5b81019080803590602001909291905050506101c9565b005b6100f46104f7565b005b6101386004803603602081101561010c57600080fd5b81019080803573ffffffffffffffffffffffffffffffffffffffff1690602001909291905050506107c5565b6040518082815260200191505060405180910390f35b61015661080e565b604051808273ffffffffffffffffffffffffffffffffffffffff16815260200191505060405180910390f35b6101ae6004803603602081101561019857600080fd5b8101908080359060200190929190505050610832565b005b60008054905090565b60006101c433610c52565b905090565b6000811161023f576040517f08c379a00000000000000000000000000000000000000000000000000000000081526004018080602001828103825260118152602001807f43616e6e6f74207769746864726177203000000000000000000000000000000081525060200191505060405180910390fd5b6102548160005461100090919063ffffffff16565b6000819055506102ac81600160003373ffffffffffffffffffffffffffffffffffffffff1673ffffffffffffffffffffffffffffffffffffffff1681526020019081526020016000205461100090919063ffffffff16565b600160003373ffffffffffffffffffffffffffffffffffffffff1673ffffffffffffffffffffffffffffffffffffffff168152602001908152602001600020819055507f000000000000000000000000000000000000000000000000000000000000000073ffffffffffffffffffffffffffffffffffffffff166304433bbc6040518163ffffffff1660e01b815260040180806020018281038252600d8152602001807f547261646567656e45524332300000000000000000000000000000000000000081525060200191505060206040518083038186803b15801561039157600080fd5b505afa1580156103a5573d6000803e3d6000fd5b505050506040513d60208110156103bb57600080fd5b810190808051906020019092919050505073ffffffffffffffffffffffffffffffffffffffff166323b872dd3033846040518463ffffffff1660e01b8152600401808473ffffffffffffffffffffffffffffffffffffffff1681526020018373ffffffffffffffffffffffffffffffffffffffff1681526020018281526020019350505050602060405180830381600087803b15801561045a57600080fd5b505af115801561046e573d6000803e3d6000fd5b505050506040513d602081101561048457600080fd5b81019080805190602001909291905050505061049e6104f7565b3373ffffffffffffffffffffffffffffffffffffffff167f7fc4727e062e336010f2c282598ef5f14facb3de68cf8195c2f23e1454b2b74e8242604051808381526020018281526020019250505060405180910390a250565b60007f000000000000000000000000000000000000000000000000000000000000000073ffffffffffffffffffffffffffffffffffffffff166304433bbc6040518163ffffffff1660e01b81526004018080602001828103825260158152602001807f547261646567656e5374616b696e67457363726f77000000000000000000000081525060200191505060206040518083038186803b15801561059b57600080fd5b505afa1580156105af573d6000803e3d6000fd5b505050506040513d60208110156105c557600080fd5b8101908080519060200190929190505050905060006105e333610c52565b905060008111156107c1576000600260003373ffffffffffffffffffffffffffffffffffffffff1673ffffffffffffffffffffffffffffffffffffffff16815260200190815260200160002060000160046101000a8154817bffffffffffffffffffffffffffffffffffffffffffffffffffffffff02191690837bffffffffffffffffffffffffffffffffffffffffffffffffffffffff16021790555042600260003373ffffffffffffffffffffffffffffffffffffffff1673ffffffffffffffffffffffffffffffffffffffff16815260200190815260200160002060000160006101000a81548163ffffffff021916908363ffffffff1602179055508173ffffffffffffffffffffffffffffffffffffffff16637523a5ab33836040518363ffffffff1660e01b8152600401808373ffffffffffffffffffffffffffffffffffffffff16815260200182815260200192505050600060405180830381600087803b15801561075257600080fd5b505af1158015610766573d6000803e3d6000fd5b505050503373ffffffffffffffffffffffffffffffffffffffff167f18e207410c87e089295711d025dedd457101dfdefa8ea9198210d4aafd7eceaa8242604051808381526020018281526020019250505060405180910390a25b5050565b6000600160008373ffffffffffffffffffffffffffffffffffffffff1673ffffffffffffffffffffffffffffffffffffffff168152602001908152602001600020549050919050565b7f000000000000000000000000000000000000000000000000000000000000000081565b600081116108a8576040517f08c379a000000000000000000000000000000000000000000000000000000000815260040180806020018281038252600e8152602001807f43616e6e6f74207374616b65203000000000000000000000000000000000000081525060200191505060405180910390fd5b42600260003373ffffffffffffffffffffffffffffffffffffffff1673ffffffffffffffffffffffffffffffffffffffff16815260200190815260200160002060000160006101000a81548163ffffffff021916908363ffffffff16021790555061091233610c52565b600260003373ffffffffffffffffffffffffffffffffffffffff1673ffffffffffffffffffffffffffffffffffffffff16815260200190815260200160002060000160046101000a8154817bffffffffffffffffffffffffffffffffffffffffffffffffffffffff02191690837bffffffffffffffffffffffffffffffffffffffffffffffffffffffff1602179055506109b78160005461101790919063ffffffff16565b600081905550610a0f81600160003373ffffffffffffffffffffffffffffffffffffffff1673ffffffffffffffffffffffffffffffffffffffff1681526020019081526020016000205461101790919063ffffffff16565b600160003373ffffffffffffffffffffffffffffffffffffffff1673ffffffffffffffffffffffffffffffffffffffff168152602001908152602001600020819055507f000000000000000000000000000000000000000000000000000000000000000073ffffffffffffffffffffffffffffffffffffffff166304433bbc6040518163ffffffff1660e01b815260040180806020018281038252600d8152602001807f547261646567656e45524332300000000000000000000000000000000000000081525060200191505060206040518083038186803b158015610af457600080fd5b505afa158015610b08573d6000803e3d6000fd5b505050506040513d6020811015610b1e57600080fd5b810190808051906020019092919050505073ffffffffffffffffffffffffffffffffffffffff166323b872dd3330846040518463ffffffff1660e01b8152600401808473ffffffffffffffffffffffffffffffffffffffff1681526020018373ffffffffffffffffffffffffffffffffffffffff1681526020018281526020019350505050602060405180830381600087803b158015610bbd57600080fd5b505af1158015610bd1573d6000803e3d6000fd5b505050506040513d6020811015610be757600080fd5b8101908080519060200190929190505050503373ffffffffffffffffffffffffffffffffffffffff167f1449c6dd7851abc30abf37f57715f492010519147cc2652fbc38202c18a6ee908242604051808381526020018281526020019250505060405180910390a250565b600080600260008473ffffffffffffffffffffffffffffffffffffffff1673ffffffffffffffffffffffffffffffffffffffff16815260200190815260200160002060000160009054906101000a900463ffffffff1663ffffffff161415610cbd5760009050610ffb565b60007f000000000000000000000000000000000000000000000000000000000000000073ffffffffffffffffffffffffffffffffffffffff166304433bbc6040518163ffffffff1660e01b81526004018080602001828103825260088152602001807f53657474696e677300000000000000000000000000000000000000000000000081525060200191505060206040518083038186803b158015610d6157600080fd5b505afa158015610d75573d6000803e3d6000fd5b505050506040513d6020811015610d8b57600080fd5b810190808051906020019092919050505073ffffffffffffffffffffffffffffffffffffffff166328a2176f6040518163ffffffff1660e01b81526004018080602001828103825260148152602001807f5765656b6c795374616b696e675265776172647300000000000000000000000081525060200191505060206040518083038186803b158015610e1d57600080fd5b505afa158015610e31573d6000803e3d6000fd5b505050506040513d6020811015610e4757600080fd5b810190808051906020019092919050505090506000610ec7600260008673ffffffffffffffffffffffffffffffffffffffff1673ffffffffffffffffffffffffffffffffffffffff16815260200190815260200160002060000160009054906101000a900463ffffffff1663ffffffff164261100090919063ffffffff16565b90506000610f58600054610f4a62093a80610f3c600160008b73ffffffffffffffffffffffffffffffffffffffff1673ffffffffffffffffffffffffffffffffffffffff16815260200190815260200160002054610f2e898961103390919063ffffffff16565b61103390919063ffffffff16565b61106a90919063ffffffff16565b61106a90919063ffffffff16565b9050610ff581600260008873ffffffffffffffffffffffffffffffffffffffff1673ffffffffffffffffffffffffffffffffffffffff16815260200190815260200160002060000160049054906101000a90047bffffffffffffffffffffffffffffffffffffffffffffffffffffffff167bffffffffffffffffffffffffffffffffffffffffffffffffffffffff1661101790919063ffffffff16565b93505050505b919050565b60008282111561100c57fe5b818303905092915050565b60008082840190508381101561102957fe5b8091505092915050565b6000808314156110465760009050611064565b600082840290508284828161105757fe5b041461105f57fe5b809150505b92915050565b60008082848161107657fe5b049050809150509291505056fea2646970667358221220df627784b8a8a80e6416999b75eca380fee4892d21402be805d4da258d631f0864736f6c634300060c0033",
  "immutableReferences": {
    "867": [
      {
        "length": 32,
        "start": 753
      },
      {
        "length": 32,
        "start": 1275
      },
      {
        "length": 32,
        "start": 2064
      },
      {
        "length": 32,
        "start": 2644
      },
      {
        "length": 32,
        "start": 3265
      }
    ]
  },
  "source": "pragma solidity >=0.5.0;\r\n\r\n//Libraries\r\nimport './libraries/SafeMath.sol';\r\n\r\n//Interfaces\r\nimport './interfaces/IERC20.sol';\r\nimport './interfaces/IAddressResolver.sol';\r\nimport './interfaces/ISettings.sol';\r\nimport './interfaces/ITradegenStakingEscrow.sol';\r\n\r\n//Inheritance\r\nimport './interfaces/ITradegenStakingRewards.sol';\r\n\r\ncontract TradegenStakingRewards is ITradegenStakingRewards {\r\n    using SafeMath for uint;\r\n\r\n    IAddressResolver public immutable ADDRESS_RESOLVER;\r\n\r\n    uint private _totalSupply;\r\n    mapping(address => uint) private _balances;\r\n    mapping(address => State) private _userToState;\r\n\r\n    constructor(IAddressResolver addressResolver) public {\r\n        ADDRESS_RESOLVER = addressResolver;\r\n    }\r\n\r\n    /* ========== VIEWS ========== */\r\n\r\n    /**\r\n    * @dev Returns the total amount of TGEN staked\r\n    * @return uint The amount of TGEN staked in the protocol\r\n    */\r\n    function totalSupply() external view override returns (uint) {\r\n        return _totalSupply;\r\n    }\r\n\r\n    /**\r\n    * @dev Returns the amount of TGEN the user has staked\r\n    * @param account Address of the user\r\n    * @return uint The amount of TGEN the user has staked\r\n    */\r\n    function balanceOf(address account) public view override returns (uint) {\r\n        return _balances[account];\r\n    }\r\n\r\n    /**\r\n    * @dev Wrapper for internal calculateAvailableYield() function \r\n    * @return uint The user's available yield\r\n    */\r\n    function getAvailableYield() external view override returns (uint) {\r\n        return _calculateAvailableYield(msg.sender);\r\n    }\r\n\r\n    /* ========== MUTATIVE FUNCTIONS ========== */\r\n\r\n    /**\r\n    * @dev Stakes TGEN in the protocol\r\n    * @param amount Amount of TGEN to stake\r\n    */\r\n    function stake(uint amount) external override {\r\n        require(amount > 0, \"Cannot stake 0\");\r\n\r\n        _userToState[msg.sender].timestamp = uint32(block.timestamp);\r\n        _userToState[msg.sender].leftoverYield = uint224(_calculateAvailableYield(msg.sender));\r\n        \r\n        _totalSupply = _totalSupply.add(amount);\r\n        _balances[msg.sender] = _balances[msg.sender].add(amount);\r\n\r\n        //Transfer TGEN from user to StakingRewards contract; call TradegenERC20.approve() on frontend before sending transaction\r\n        IERC20(ADDRESS_RESOLVER.getContractAddress(\"TradegenERC20\")).transferFrom(msg.sender, address(this), amount);\r\n\r\n        emit Staked(msg.sender, amount, block.timestamp);\r\n    }\r\n\r\n    /**\r\n    * @dev Unstakes TGEN from the protocol\r\n    * @param amount Amount of TGEN to unstake\r\n    */\r\n    function unstake(uint amount) external override {\r\n        require(amount > 0, \"Cannot withdraw 0\");\r\n\r\n        _totalSupply = _totalSupply.sub(amount);\r\n        _balances[msg.sender] = _balances[msg.sender].sub(amount);\r\n\r\n        //Transfer TGEN from StakingRewards contract to user\r\n        IERC20(ADDRESS_RESOLVER.getContractAddress(\"TradegenERC20\")).transferFrom(address(this), msg.sender, amount);\r\n\r\n        //Claim available yield on behalf of the user\r\n        claimStakingRewards();\r\n\r\n        emit Unstaked(msg.sender, amount, block.timestamp);\r\n    }\r\n\r\n    /**\r\n    * @dev Claims available staking rewards for the user\r\n    */\r\n    function claimStakingRewards() public override {\r\n        address stakingEscrowAddress = ADDRESS_RESOLVER.getContractAddress(\"TradegenStakingEscrow\");\r\n        uint availableRewards = _calculateAvailableYield(msg.sender);\r\n\r\n        if (availableRewards > 0)\r\n        {\r\n            _userToState[msg.sender].leftoverYield = 0;\r\n            _userToState[msg.sender].timestamp = uint32(block.timestamp);\r\n\r\n            ITradegenStakingEscrow(stakingEscrowAddress).claimStakingRewards(msg.sender, availableRewards);\r\n\r\n            emit ClaimedStakingRewards(msg.sender, availableRewards, block.timestamp);\r\n        }\r\n    }\r\n\r\n    /* ========== INTERNAL FUNCTIONS ========== */\r\n\r\n    /**\r\n    * @dev Calculates available yield (in TGEN) for the user\r\n    * @param user Address of the user\r\n    * @return uint The user's available yield\r\n    */\r\n    function _calculateAvailableYield(address user) internal view returns (uint) {\r\n        if (_userToState[user].timestamp == 0)\r\n        {\r\n            return 0;\r\n        }\r\n\r\n        uint weeklyStakingRewards = ISettings(ADDRESS_RESOLVER.getContractAddress(\"Settings\")).getParameterValue(\"WeeklyStakingRewards\");\r\n        uint elapsedTime = block.timestamp.sub(_userToState[user].timestamp);\r\n        uint newYield = elapsedTime.mul(weeklyStakingRewards).mul(_balances[user]).div(7 days).div(_totalSupply);\r\n\r\n        return uint256(_userToState[user].leftoverYield).add(newYield);\r\n    }\r\n\r\n    /* ========== EVENTS ========== */\r\n\r\n    event Staked(address indexed user, uint amount, uint timestamp);\r\n    event Unstaked(address indexed user, uint amount, uint timestamp);\r\n    event ClaimedStakingRewards(address indexed user, uint amount, uint timestamp);\r\n}",
  "sourcePath": "C:/Users/xavie/OneDrive/Desktop/TradeGen/Github/tradegen/contracts/TradegenStakingRewards.sol",
  "compiler": {
    "name": "solc",
    "version": "0.6.12+commit.27d51765.Emscripten.clang"
  },
  "schemaVersion": "3.4.1",
  "updatedAt": "2021-08-08T18:14:37.832Z",
  "devdoc": {
    "kind": "dev",
    "methods": {
      "balanceOf(address)": {
        "details": "Returns the amount of TGEN the user has staked",
        "params": {
          "account": "Address of the user"
        },
        "returns": {
          "_0": "uint The amount of TGEN the user has staked"
        }
      },
      "claimStakingRewards()": {
        "details": "Claims available staking rewards for the user"
      },
      "getAvailableYield()": {
        "details": "Wrapper for internal calculateAvailableYield() function ",
        "returns": {
          "_0": "uint The user's available yield"
        }
      },
      "stake(uint256)": {
        "details": "Stakes TGEN in the protocol",
        "params": {
          "amount": "Amount of TGEN to stake"
        }
      },
      "totalSupply()": {
        "details": "Returns the total amount of TGEN staked",
        "returns": {
          "_0": "uint The amount of TGEN staked in the protocol"
        }
      },
      "unstake(uint256)": {
        "details": "Unstakes TGEN from the protocol",
        "params": {
          "amount": "Amount of TGEN to unstake"
        }
      }
    },
    "version": 1
  },
  "userdoc": {
    "kind": "user",
    "methods": {},
    "version": 1
  }
}