{
  "contractName": "TxDataUtils",
  "abi": [
    {
      "inputs": [
        {
          "internalType": "bytes",
          "name": "data",
          "type": "bytes"
        }
      ],
      "name": "getMethod",
      "outputs": [
        {
          "internalType": "bytes4",
          "name": "",
          "type": "bytes4"
        }
      ],
      "stateMutability": "pure",
      "type": "function"
    },
    {
      "inputs": [
        {
          "internalType": "bytes",
          "name": "data",
          "type": "bytes"
        }
      ],
      "name": "getParams",
      "outputs": [
        {
          "internalType": "bytes",
          "name": "",
          "type": "bytes"
        }
      ],
      "stateMutability": "pure",
      "type": "function"
    },
    {
      "inputs": [
        {
          "internalType": "bytes",
          "name": "data",
          "type": "bytes"
        },
        {
          "internalType": "uint8",
          "name": "inputNum",
          "type": "uint8"
        }
      ],
      "name": "getInput",
      "outputs": [
        {
          "internalType": "bytes32",
          "name": "",
          "type": "bytes32"
        }
      ],
      "stateMutability": "pure",
      "type": "function"
    },
    {
      "inputs": [
        {
          "internalType": "bytes",
          "name": "data",
          "type": "bytes"
        },
        {
          "internalType": "uint8",
          "name": "inputNum",
          "type": "uint8"
        },
        {
          "internalType": "uint256",
          "name": "offset",
          "type": "uint256"
        }
      ],
      "name": "getBytes",
      "outputs": [
        {
          "internalType": "bytes",
          "name": "",
          "type": "bytes"
        }
      ],
      "stateMutability": "pure",
      "type": "function"
    },
    {
      "inputs": [
        {
          "internalType": "bytes",
          "name": "data",
          "type": "bytes"
        },
        {
          "internalType": "uint8",
          "name": "inputNum",
          "type": "uint8"
        }
      ],
      "name": "getArrayLast",
      "outputs": [
        {
          "internalType": "bytes32",
          "name": "",
          "type": "bytes32"
        }
      ],
      "stateMutability": "pure",
      "type": "function"
    },
    {
      "inputs": [
        {
          "internalType": "bytes",
          "name": "data",
          "type": "bytes"
        },
        {
          "internalType": "uint8",
          "name": "inputNum",
          "type": "uint8"
        }
      ],
      "name": "getArrayLength",
      "outputs": [
        {
          "internalType": "uint256",
          "name": "",
          "type": "uint256"
        }
      ],
      "stateMutability": "pure",
      "type": "function"
    },
    {
      "inputs": [
        {
          "internalType": "bytes",
          "name": "data",
          "type": "bytes"
        },
        {
          "internalType": "uint8",
          "name": "inputNum",
          "type": "uint8"
        },
        {
          "internalType": "uint8",
          "name": "arrayIndex",
          "type": "uint8"
        }
      ],
      "name": "getArrayIndex",
      "outputs": [
        {
          "internalType": "bytes32",
          "name": "",
          "type": "bytes32"
        }
      ],
      "stateMutability": "pure",
      "type": "function"
    },
    {
      "inputs": [
        {
          "internalType": "bytes",
          "name": "data",
          "type": "bytes"
        },
        {
          "internalType": "uint256",
          "name": "offset",
          "type": "uint256"
        }
      ],
      "name": "read4left",
      "outputs": [
        {
          "internalType": "bytes4",
          "name": "o",
          "type": "bytes4"
        }
      ],
      "stateMutability": "pure",
      "type": "function"
    },
    {
      "inputs": [
        {
          "internalType": "bytes",
          "name": "data",
          "type": "bytes"
        },
        {
          "internalType": "uint256",
          "name": "offset",
          "type": "uint256"
        },
        {
          "internalType": "uint256",
          "name": "length",
          "type": "uint256"
        }
      ],
      "name": "read32",
      "outputs": [
        {
          "internalType": "bytes32",
          "name": "o",
          "type": "bytes32"
        }
      ],
      "stateMutability": "pure",
      "type": "function"
    },
    {
      "inputs": [
        {
          "internalType": "bytes32",
          "name": "data",
          "type": "bytes32"
        }
      ],
      "name": "convert32toAddress",
      "outputs": [
        {
          "internalType": "address",
          "name": "o",
          "type": "address"
        }
      ],
      "stateMutability": "pure",
      "type": "function"
    }
  ],
  "bytecode": "0x608060405234801561001057600080fd5b5061128d806100206000396000f3fe608060405234801561001057600080fd5b506004361061009e5760003560e01c80636890151311610066578063689015131461043d57806382f86acc1461052f578063998546e3146105c9578063c3c6279f14610663578063db896b571461070f5761009e565b806309ff5c7d146100a35780631053f9521461013d5780631eba307714610246578063293d80631461029e57806341dc16c314610396575b600080fd5b610127600480360360408110156100b957600080fd5b81019080803590602001906401000000008111156100d657600080fd5b8201836020820111156100e857600080fd5b8035906020019184600183028401116401000000008311171561010a57600080fd5b9091929391929390803560ff1690602001909291905050506107f2565b6040518082815260200191505060405180910390f35b6101cb6004803603606081101561015357600080fd5b810190808035906020019064010000000081111561017057600080fd5b82018360208201111561018257600080fd5b803590602001918460018302840111640100000000831117156101a457600080fd5b9091929391929390803560ff1690602001909291908035906020019092919050505061098b565b6040518080602001828103825283818151815260200191508051906020019080838360005b8381101561020b5780820151818401526020810190506101f0565b50505050905090810190601f1680156102385780820380516001836020036101000a031916815260200191505b509250505060405180910390f35b6102726004803603602081101561025c57600080fd5b8101908080359060200190929190505050610b34565b604051808273ffffffffffffffffffffffffffffffffffffffff16815260200191505060405180910390f35b610361600480360360408110156102b457600080fd5b81019080803590602001906401000000008111156102d157600080fd5b8201836020820111156102e357600080fd5b8035906020019184600183028401116401000000008311171561030557600080fd5b91908080601f016020809104026020016040519081016040528093929190818152602001838380828437600081840152601f19601f82011690508083019250505050505050919291929080359060200190929190505050610b41565b60405180827bffffffffffffffffffffffffffffffffffffffffffffffffffffffff1916815260200191505060405180910390f35b610427600480360360608110156103ac57600080fd5b81019080803590602001906401000000008111156103c957600080fd5b8201836020820111156103db57600080fd5b803590602001918460018302840111640100000000831117156103fd57600080fd5b9091929391929390803560ff169060200190929190803560ff169060200190929190505050610bcc565b6040518082815260200191505060405180910390f35b6104b46004803603602081101561045357600080fd5b810190808035906020019064010000000081111561047057600080fd5b82018360208201111561048257600080fd5b803590602001918460018302840111640100000000831117156104a457600080fd5b9091929391929390505050610de4565b6040518080602001828103825283818151815260200191508051906020019080838360005b838110156104f45780820151818401526020810190506104d9565b50505050905090810190601f1680156105215780820380516001836020036101000a031916815260200191505b509250505060405180910390f35b6105b36004803603604081101561054557600080fd5b810190808035906020019064010000000081111561056257600080fd5b82018360208201111561057457600080fd5b8035906020019184600183028401116401000000008311171561059657600080fd5b9091929391929390803560ff169060200190929190505050610e4d565b6040518082815260200191505060405180910390f35b61064d600480360360408110156105df57600080fd5b81019080803590602001906401000000008111156105fc57600080fd5b82018360208201111561060e57600080fd5b8035906020019184600183028401116401000000008311171561063057600080fd5b9091929391929390803560ff169060200190929190505050610eb1565b6040518082815260200191505060405180910390f35b6106da6004803603602081101561067957600080fd5b810190808035906020019064010000000081111561069657600080fd5b8201836020820111156106a857600080fd5b803590602001918460018302840111640100000000831117156106ca57600080fd5b9091929391929390505050610f72565b60405180827bffffffffffffffffffffffffffffffffffffffffffffffffffffffff1916815260200191505060405180910390f35b6107dc6004803603606081101561072557600080fd5b810190808035906020019064010000000081111561074257600080fd5b82018360208201111561075457600080fd5b8035906020019184600183028401116401000000008311171561077657600080fd5b91908080601f016020809104026020016040519081016040528093929190818152602001838380828437600081840152601f19601f8201169050808301925050505050505091929192908035906020019092919080359060200190929190505050610fcb565b6040518082815260200191505060405180910390f35b60008061084e85858080601f016020809104026020016040519081016040528093929190818152602001838380828437600081840152601f19601f820116905080830192505050505050506004856020020160ff166020610fcb565b905060006108a886868080601f016020809104026020016040519081016040528093929190818152602001838380828437600081840152601f19601f8201169050808301925050505050505060048460001c016020610fcb565b90506000801b8111610922576040517f08c379a00000000000000000000000000000000000000000000000000000000081526004018080602001828103825260128152602001807f696e707574206973206e6f74206172726179000000000000000000000000000081525060200191505060405180910390fd5b61098086868080601f016020809104026020016040519081016040528093929190818152602001838380828437600081840152601f19601f8201169050808301925050505050505060208360001c0260048560001c01016020610fcb565b925050509392505050565b606060148210610a03576040517f08c379a000000000000000000000000000000000000000000000000000000000815260040180806020018281038252600e8152602001807f696e76616c6964206f666673657400000000000000000000000000000000000081525060200191505060405180910390fd5b6020820291506000610a6686868080601f016020809104026020016040519081016040528093929190818152602001838380828437600081840152601f19601f82011690508083019250505050505050846004876020020160ff16016020610fcb565b60001c90506000610ac287878080601f016020809104026020016040519081016040528093929190818152602001838380828437600081840152601f19601f820116905080830192505050505050508560048501016020610fcb565b60001c9050610b286020856004850101018289898080601f016020809104026020016040519081016040528093929190818152602001838380828437600081840152601f19601f8201169050808301925050505050505061106d9092919063ffffffff16565b92505050949350505050565b60008160001c9050919050565b60006004820183511015610bbd576040517f08c379a000000000000000000000000000000000000000000000000000000000815260040180806020018281038252601b8152602001807f52656164696e67206279746573206f7574206f6620626f756e6473000000000081525060200191505060405180910390fd5b81602001830151905092915050565b600080610c2886868080601f016020809104026020016040519081016040528093929190818152602001838380828437600081840152601f19601f820116905080830192505050505050506004866020020160ff166020610fcb565b90506000610c8287878080601f016020809104026020016040519081016040528093929190818152602001838380828437600081840152601f19601f8201169050808301925050505050505060048460001c016020610fcb565b90506000801b8111610cfc576040517f08c379a00000000000000000000000000000000000000000000000000000000081526004018080602001828103825260128152602001807f696e707574206973206e6f74206172726179000000000000000000000000000081525060200191505060405180910390fd5b8360ff168160001c11610d77576040517f08c379a00000000000000000000000000000000000000000000000000000000081526004018080602001828103825260168152602001807f696e76616c696420617272617920706f736974696f6e0000000000000000000081525060200191505060405180910390fd5b610dd887878080601f016020809104026020016040519081016040528093929190818152602001838380828437600081840152601f19601f8201169050808301925050505050505060208660ff166001010260048560001c01016020610fcb565b92505050949350505050565b6060610e45600480858590500385858080601f016020809104026020016040519081016040528093929190818152602001838380828437600081840152601f19601f8201169050808301925050505050505061106d9092919063ffffffff16565b905092915050565b6000610ea884848080601f016020809104026020016040519081016040528093929190818152602001838380828437600081840152601f19601f820116905080830192505050505050506004846020020160ff166020610fcb565b90509392505050565b600080610f0d85858080601f016020809104026020016040519081016040528093929190818152602001838380828437600081840152601f19601f820116905080830192505050505050506004856020020160ff166020610fcb565b9050610f6585858080601f016020809104026020016040519081016040528093929190818152602001838380828437600081840152601f19601f8201169050808301925050505050505060048360001c016020610fcb565b60001c9150509392505050565b6000610fc383838080601f016020809104026020016040519081016040528093929190818152602001838380828437600081840152601f19601f820116905080830192505050505050506000610b41565b905092915050565b600081830184511015611046576040517f08c379a000000000000000000000000000000000000000000000000000000000815260040180806020018281038252601b8152602001807f52656164696e67206279746573206f7574206f6620626f756e6473000000000081525060200191505060405180910390fd5b826020018401519050816020038015611065576008810260020a820491505b509392505050565b606081601f830110156110e8576040517f08c379a000000000000000000000000000000000000000000000000000000000815260040180806020018281038252600e8152602001807f736c6963655f6f766572666c6f7700000000000000000000000000000000000081525060200191505060405180910390fd5b828284011015611160576040517f08c379a000000000000000000000000000000000000000000000000000000000815260040180806020018281038252600e8152602001807f736c6963655f6f766572666c6f7700000000000000000000000000000000000081525060200191505060405180910390fd5b818301845110156111d9576040517f08c379a00000000000000000000000000000000000000000000000000000000081526004018080602001828103825260118152602001807f736c6963655f6f75744f66426f756e647300000000000000000000000000000081525060200191505060405180910390fd5b60608215600081146111fa576040519150600082526020820160405261124b565b6040519150601f8416801560200281840101858101878315602002848b0101015b81831015611238578051835260208301925060208101905061121b565b50868552601f19601f8301166040525050505b5080915050939250505056fea264697066735822122080d403c37796d7ff6ba730ba35e1296e1ab7f9af5d9da81224d93b1807195c0064736f6c63430007060033",
  "immutableReferences": {},
  "source": "// SPDX-License-Identifier: MIT\r\n\r\npragma solidity >=0.6.12;\r\n\r\nimport \"../libraries/SafeMath.sol\";\r\n\r\nimport \"./BytesLib.sol\";\r\n\r\ncontract TxDataUtils {\r\n  using BytesLib for bytes;\r\n  using SafeMath for uint256;\r\n\r\n  function getMethod(bytes calldata data) public pure returns (bytes4) {\r\n    return read4left(data, 0);\r\n  }\r\n\r\n  function getParams(bytes calldata data) public pure returns (bytes memory) {\r\n    return data.slice(4, data.length - 4);\r\n  }\r\n\r\n  function getInput(bytes calldata data, uint8 inputNum) public pure returns (bytes32) {\r\n    return read32(data, 32 * inputNum + 4, 32);\r\n  }\r\n\r\n  function getBytes(\r\n    bytes calldata data,\r\n    uint8 inputNum,\r\n    uint256 offset\r\n  ) public pure returns (bytes memory) {\r\n    require(offset < 20, \"invalid offset\"); // offset is in byte32 slots, not bytes\r\n    offset = offset * 32; // convert offset to bytes\r\n    uint256 bytesLenPos = uint256(read32(data, 32 * inputNum + 4 + offset, 32));\r\n    uint256 bytesLen = uint256(read32(data, bytesLenPos + 4 + offset, 32));\r\n    return data.slice(bytesLenPos + 4 + offset + 32, bytesLen);\r\n  }\r\n\r\n  function getArrayLast(bytes calldata data, uint8 inputNum) public pure returns (bytes32) {\r\n    bytes32 arrayPos = read32(data, 32 * inputNum + 4, 32);\r\n    bytes32 arrayLen = read32(data, uint256(arrayPos) + 4, 32);\r\n    require(arrayLen > 0, \"input is not array\");\r\n    return read32(data, uint256(arrayPos) + 4 + (uint256(arrayLen) * 32), 32);\r\n  }\r\n\r\n  function getArrayLength(bytes calldata data, uint8 inputNum) public pure returns (uint256) {\r\n    bytes32 arrayPos = read32(data, 32 * inputNum + 4, 32);\r\n    return uint256(read32(data, uint256(arrayPos) + 4, 32));\r\n  }\r\n\r\n  function getArrayIndex(\r\n    bytes calldata data,\r\n    uint8 inputNum,\r\n    uint8 arrayIndex\r\n  ) public pure returns (bytes32) {\r\n    bytes32 arrayPos = read32(data, 32 * inputNum + 4, 32);\r\n    bytes32 arrayLen = read32(data, uint256(arrayPos) + 4, 32);\r\n    require(arrayLen > 0, \"input is not array\");\r\n    require(uint256(arrayLen) > arrayIndex, \"invalid array position\");\r\n    return read32(data, uint256(arrayPos) + 4 + ((1 + uint256(arrayIndex)) * 32), 32);\r\n  }\r\n\r\n  function read4left(bytes memory data, uint256 offset) public pure returns (bytes4 o) {\r\n    require(data.length >= offset + 4, \"Reading bytes out of bounds\");\r\n    assembly {\r\n      o := mload(add(data, add(32, offset)))\r\n    }\r\n  }\r\n\r\n  function read32(\r\n    bytes memory data,\r\n    uint256 offset,\r\n    uint256 length\r\n  ) public pure returns (bytes32 o) {\r\n    require(data.length >= offset + length, \"Reading bytes out of bounds\");\r\n    assembly {\r\n      o := mload(add(data, add(32, offset)))\r\n      let lb := sub(32, length)\r\n      if lb {\r\n        o := div(o, exp(2, mul(lb, 8)))\r\n      }\r\n    }\r\n  }\r\n\r\n  function convert32toAddress(bytes32 data) public pure returns (address o) {\r\n    return address(uint160(uint256(data)));\r\n  }\r\n\r\n  function sliceUint(bytes memory data, uint256 start) internal pure returns (uint256) {\r\n    require(data.length >= start + 32, \"slicing out of range\");\r\n    uint256 x;\r\n    assembly {\r\n      x := mload(add(data, add(0x20, start)))\r\n    }\r\n    return x;\r\n  }\r\n}",
  "sourcePath": "C:\\Users\\xavie\\OneDrive\\Desktop\\TradeGen\\Github\\tradegen-protocol\\contracts\\libraries\\TxDataUtils.sol",
  "compiler": {
    "name": "solc",
    "version": "0.7.6+commit.7338295f.Emscripten.clang"
  },
  "schemaVersion": "3.4.1",
  "updatedAt": "2021-09-26T18:16:47.697Z",
  "devdoc": {
    "kind": "dev",
    "methods": {},
    "version": 1
  },
  "userdoc": {
    "kind": "user",
    "methods": {},
    "version": 1
  }
}