{
  "contractName": "UbeswapLPTokenPriceAggregator",
  "abi": [
    {
      "inputs": [
        {
          "internalType": "contract IAddressResolver",
          "name": "addressResolver",
          "type": "address"
        }
      ],
      "stateMutability": "nonpayable",
      "type": "constructor"
    },
    {
      "inputs": [],
      "name": "ADDRESS_RESOLVER",
      "outputs": [
        {
          "internalType": "contract IAddressResolver",
          "name": "",
          "type": "address"
        }
      ],
      "stateMutability": "view",
      "type": "function"
    },
    {
      "inputs": [
        {
          "internalType": "address",
          "name": "pair",
          "type": "address"
        }
      ],
      "name": "getUSDPrice",
      "outputs": [
        {
          "internalType": "uint256",
          "name": "",
          "type": "uint256"
        }
      ],
      "stateMutability": "view",
      "type": "function"
    }
  ],
  "bytecode": "0x608060405234801561001057600080fd5b50604051610acc380380610acc8339818101604052602081101561003357600080fd5b8101908080519060200190929190505050806000806101000a81548173ffffffffffffffffffffffffffffffffffffffff021916908373ffffffffffffffffffffffffffffffffffffffff16021790555050610a38806100946000396000f3fe608060405234801561001057600080fd5b50600436106100365760003560e01c80638b2f0f4f1461003b578063981f3b8e14610093575b600080fd5b61007d6004803603602081101561005157600080fd5b81019080803573ffffffffffffffffffffffffffffffffffffffff1690602001909291905050506100c7565b6040518082815260200191505060405180910390f35b61009b6107dd565b604051808273ffffffffffffffffffffffffffffffffffffffff16815260200191505060405180910390f35b60008073ffffffffffffffffffffffffffffffffffffffff168273ffffffffffffffffffffffffffffffffffffffff16141561014e576040517f08c379a00000000000000000000000000000000000000000000000000000000081526004018080602001828103825260348152602001806109cf6034913960400191505060405180910390fd5b60008273ffffffffffffffffffffffffffffffffffffffff16630dfe16816040518163ffffffff1660e01b815260040160206040518083038186803b15801561019657600080fd5b505afa1580156101aa573d6000803e3d6000fd5b505050506040513d60208110156101c057600080fd5b8101908080519060200190929190505050905060008373ffffffffffffffffffffffffffffffffffffffff1663d21220a76040518163ffffffff1660e01b815260040160206040518083038186803b15801561021b57600080fd5b505afa15801561022f573d6000803e3d6000fd5b505050506040513d602081101561024557600080fd5b8101908080519060200190929190505050905060008473ffffffffffffffffffffffffffffffffffffffff166318160ddd6040518163ffffffff1660e01b815260040160206040518083038186803b1580156102a057600080fd5b505afa1580156102b4573d6000803e3d6000fd5b505050506040513d60208110156102ca57600080fd5b810190808051906020019092919050505090506000808673ffffffffffffffffffffffffffffffffffffffff16630902f1ac6040518163ffffffff1660e01b815260040160606040518083038186803b15801561032657600080fd5b505afa15801561033a573d6000803e3d6000fd5b505050506040513d606081101561035057600080fd5b81019080805190602001909291908051906020019092919080519060200190929190505050506dffffffffffffffffffffffffffff1691506dffffffffffffffffffffffffffff16915061044d8573ffffffffffffffffffffffffffffffffffffffff1663313ce5676040518163ffffffff1660e01b815260040160206040518083038186803b1580156103e357600080fd5b505afa1580156103f7573d6000803e3d6000fd5b505050506040513d602081101561040d57600080fd5b810190808051906020019092919050505060ff16600a0a61043f670de0b6b3a76400008561080190919063ffffffff16565b61083890919063ffffffff16565b91506105028473ffffffffffffffffffffffffffffffffffffffff1663313ce5676040518163ffffffff1660e01b815260040160206040518083038186803b15801561049857600080fd5b505afa1580156104ac573d6000803e3d6000fd5b505050506040513d60208110156104c257600080fd5b810190808051906020019092919050505060ff16600a0a6104f4670de0b6b3a76400008461080190919063ffffffff16565b61083890919063ffffffff16565b9050600061052161051c838561080190919063ffffffff16565b610851565b6fffffffffffffffffffffffffffffffff16905060008060009054906101000a900473ffffffffffffffffffffffffffffffffffffffff1673ffffffffffffffffffffffffffffffffffffffff166304433bbc6040518163ffffffff1660e01b81526004018080602001828103825260128152602001807f426173655562657377617041646170746572000000000000000000000000000081525060200191505060206040518083038186803b1580156105da57600080fd5b505afa1580156105ee573d6000803e3d6000fd5b505050506040513d602081101561060457600080fd5b8101908080519060200190929190505050905060008173ffffffffffffffffffffffffffffffffffffffff166341976e09896040518263ffffffff1660e01b8152600401808273ffffffffffffffffffffffffffffffffffffffff16815260200191505060206040518083038186803b15801561068057600080fd5b505afa158015610694573d6000803e3d6000fd5b505050506040513d60208110156106aa57600080fd5b8101908080519060200190929190505050905060008273ffffffffffffffffffffffffffffffffffffffff166341976e09896040518263ffffffff1660e01b8152600401808273ffffffffffffffffffffffffffffffffffffffff16815260200191505060206040518083038186803b15801561072657600080fd5b505afa15801561073a573d6000803e3d6000fd5b505050506040513d602081101561075057600080fd5b81019080805190602001909291905050509050600061078061077b838561080190919063ffffffff16565b610851565b6fffffffffffffffffffffffffffffffff1690506107cc886107be60026107b0858a61080190919063ffffffff16565b61080190919063ffffffff16565b61083890919063ffffffff16565b9a5050505050505050505050919050565b60008054906101000a900473ffffffffffffffffffffffffffffffffffffffff1681565b6000808314156108145760009050610832565b600082840290508284828161082557fe5b041461082d57fe5b809150505b92915050565b60008082848161084457fe5b0490508091505092915050565b60008082141561086457600090506109c9565b6000829050600060019050700100000000000000000000000000000000821061089657608082901c9150604081901b90505b6801000000000000000082106108b557604082901c9150602081901b90505b64010000000082106108d057602082901c9150601081901b90505b6201000082106108e957601082901c9150600881901b90505b610100821061090157600882901c9150600481901b90505b6010821061091857600482901c9150600281901b90505b6008821061092857600181901b90505b600181858161093357fe5b048201901c9050600181858161094557fe5b048201901c9050600181858161095757fe5b048201901c9050600181858161096957fe5b048201901c9050600181858161097b57fe5b048201901c9050600181858161098d57fe5b048201901c9050600181858161099f57fe5b048201901c905060008185816109b157fe5b0490508082106109c157806109c3565b815b93505050505b91905056fe556265737761704c50546f6b656e507269636541676772656761746f723a20696e76616c69642061737365742061646472657373a2646970667358221220157c1384ebf4969d4ce46755bf76c6a1607822aa8cef6c1ac7e867a2aaca1d1164736f6c63430007060033",
  "immutableReferences": {},
  "source": "// SPDX-License-Identifier: MIT\r\n\r\npragma solidity >=0.7.6;\r\n\r\n//Inheritance\r\nimport './interfaces/IPriceAggregator.sol';\r\n\r\n//Interfaces\r\nimport './interfaces/IBaseUbeswapAdapter.sol';\r\nimport './interfaces/IAddressResolver.sol';\r\nimport './interfaces/IERC20.sol';\r\n\r\n//Ubeswap interfaces\r\nimport './interfaces/Ubeswap/IUniswapV2Pair.sol';\r\n\r\n//Libraries\r\nimport \"./libraries/TradegenMath.sol\";\r\nimport \"./libraries/SafeMath.sol\";\r\n\r\ncontract UbeswapLPTokenPriceAggregator is IPriceAggregator {\r\n    using SafeMath for uint;\r\n\r\n    IAddressResolver public ADDRESS_RESOLVER;\r\n\r\n    constructor(IAddressResolver addressResolver) {\r\n        ADDRESS_RESOLVER = addressResolver;\r\n    }\r\n\r\n    /* ========== VIEWS ========== */\r\n\r\n    function getUSDPrice(address pair) public view override returns (uint) {\r\n        require(pair != address(0), \"UbeswapLPTokenPriceAggregator: invalid asset address\");\r\n\r\n        address token0 = IUniswapV2Pair(pair).token0();\r\n        address token1 = IUniswapV2Pair(pair).token1();\r\n        uint totalSupply = IUniswapV2Pair(pair).totalSupply();\r\n        (uint reserve0, uint reserve1, ) = IUniswapV2Pair(pair).getReserves();\r\n\r\n        reserve0 = uint(reserve0).mul(10**18).div(10**uint(IERC20(token0).decimals())); // decimal = 18\r\n        reserve1 = uint(reserve1).mul(10**18).div(10**uint(IERC20(token1).decimals())); // decimal = 18\r\n\r\n        uint r = TradegenMath.sqrt(reserve0.mul(reserve1)); // decimal = 18\r\n\r\n        address baseUbeswapAdapterAddress = ADDRESS_RESOLVER.getContractAddress(\"BaseUbeswapAdapter\");\r\n        uint price0 = IBaseUbeswapAdapter(baseUbeswapAdapterAddress).getPrice(token0);\r\n        uint price1 = IBaseUbeswapAdapter(baseUbeswapAdapterAddress).getPrice(token1);\r\n\r\n        uint p = TradegenMath.sqrt(price0.mul(price1)); // decimal = 18\r\n\r\n        return r.mul(p).mul(2).div(totalSupply);\r\n    }\r\n}",
  "sourcePath": "C:/Users/xavie/OneDrive/Desktop/TradeGen/Github/tradegen-protocol/contracts/UbeswapLPTokenPriceAggregator.sol",
  "compiler": {
    "name": "solc",
    "version": "0.7.6+commit.7338295f.Emscripten.clang"
  },
  "schemaVersion": "3.4.1",
  "updatedAt": "2021-08-17T23:05:06.041Z",
  "devdoc": {
    "kind": "dev",
    "methods": {},
    "version": 1
  },
  "userdoc": {
    "kind": "user",
    "methods": {},
    "version": 1
  }
}