{
  "contractName": "UbeswapLPVerifier",
  "abi": [
    {
      "inputs": [
        {
          "internalType": "contract IAddressResolver",
          "name": "addressResolver",
          "type": "address"
        }
      ],
      "stateMutability": "nonpayable",
      "type": "constructor"
    },
    {
      "anonymous": false,
      "inputs": [
        {
          "indexed": false,
          "internalType": "address",
          "name": "pool",
          "type": "address"
        },
        {
          "indexed": false,
          "internalType": "address",
          "name": "spender",
          "type": "address"
        },
        {
          "indexed": false,
          "internalType": "uint256",
          "name": "amount",
          "type": "uint256"
        },
        {
          "indexed": false,
          "internalType": "uint256",
          "name": "timestamp",
          "type": "uint256"
        }
      ],
      "name": "Approve",
      "type": "event"
    },
    {
      "anonymous": false,
      "inputs": [
        {
          "indexed": false,
          "internalType": "address",
          "name": "fundAddress",
          "type": "address"
        },
        {
          "indexed": false,
          "internalType": "address",
          "name": "sourceAsset",
          "type": "address"
        },
        {
          "indexed": false,
          "internalType": "uint256",
          "name": "sourceAmount",
          "type": "uint256"
        },
        {
          "indexed": false,
          "internalType": "address",
          "name": "destinationAsset",
          "type": "address"
        },
        {
          "indexed": false,
          "internalType": "uint256",
          "name": "timestamp",
          "type": "uint256"
        }
      ],
      "name": "ExchangeFrom",
      "type": "event"
    },
    {
      "anonymous": false,
      "inputs": [
        {
          "indexed": false,
          "internalType": "uint256",
          "name": "numberOfFarms",
          "type": "uint256"
        },
        {
          "indexed": false,
          "internalType": "uint256",
          "name": "timestamp",
          "type": "uint256"
        }
      ],
      "name": "InitializedFarms",
      "type": "event"
    },
    {
      "anonymous": false,
      "inputs": [
        {
          "indexed": true,
          "internalType": "address",
          "name": "previousOwner",
          "type": "address"
        },
        {
          "indexed": true,
          "internalType": "address",
          "name": "newOwner",
          "type": "address"
        }
      ],
      "name": "OwnershipTransferred",
      "type": "event"
    },
    {
      "anonymous": false,
      "inputs": [
        {
          "indexed": false,
          "internalType": "address",
          "name": "pair",
          "type": "address"
        },
        {
          "indexed": false,
          "internalType": "address",
          "name": "farmAddress",
          "type": "address"
        },
        {
          "indexed": false,
          "internalType": "uint256",
          "name": "timestamp",
          "type": "uint256"
        }
      ],
      "name": "UpdatedFarmAddress",
      "type": "event"
    },
    {
      "inputs": [],
      "name": "ADDRESS_RESOLVER",
      "outputs": [
        {
          "internalType": "contract IAddressResolver",
          "name": "",
          "type": "address"
        }
      ],
      "stateMutability": "view",
      "type": "function"
    },
    {
      "inputs": [
        {
          "internalType": "bytes32",
          "name": "data",
          "type": "bytes32"
        }
      ],
      "name": "convert32toAddress",
      "outputs": [
        {
          "internalType": "address",
          "name": "o",
          "type": "address"
        }
      ],
      "stateMutability": "pure",
      "type": "function"
    },
    {
      "inputs": [
        {
          "internalType": "bytes",
          "name": "data",
          "type": "bytes"
        },
        {
          "internalType": "uint8",
          "name": "inputNum",
          "type": "uint8"
        },
        {
          "internalType": "uint8",
          "name": "arrayIndex",
          "type": "uint8"
        }
      ],
      "name": "getArrayIndex",
      "outputs": [
        {
          "internalType": "bytes32",
          "name": "",
          "type": "bytes32"
        }
      ],
      "stateMutability": "pure",
      "type": "function"
    },
    {
      "inputs": [
        {
          "internalType": "bytes",
          "name": "data",
          "type": "bytes"
        },
        {
          "internalType": "uint8",
          "name": "inputNum",
          "type": "uint8"
        }
      ],
      "name": "getArrayLast",
      "outputs": [
        {
          "internalType": "bytes32",
          "name": "",
          "type": "bytes32"
        }
      ],
      "stateMutability": "pure",
      "type": "function"
    },
    {
      "inputs": [
        {
          "internalType": "bytes",
          "name": "data",
          "type": "bytes"
        },
        {
          "internalType": "uint8",
          "name": "inputNum",
          "type": "uint8"
        }
      ],
      "name": "getArrayLength",
      "outputs": [
        {
          "internalType": "uint256",
          "name": "",
          "type": "uint256"
        }
      ],
      "stateMutability": "pure",
      "type": "function"
    },
    {
      "inputs": [
        {
          "internalType": "bytes",
          "name": "data",
          "type": "bytes"
        },
        {
          "internalType": "uint8",
          "name": "inputNum",
          "type": "uint8"
        },
        {
          "internalType": "uint256",
          "name": "offset",
          "type": "uint256"
        }
      ],
      "name": "getBytes",
      "outputs": [
        {
          "internalType": "bytes",
          "name": "",
          "type": "bytes"
        }
      ],
      "stateMutability": "pure",
      "type": "function"
    },
    {
      "inputs": [
        {
          "internalType": "address",
          "name": "asset",
          "type": "address"
        }
      ],
      "name": "getDecimals",
      "outputs": [
        {
          "internalType": "uint256",
          "name": "",
          "type": "uint256"
        }
      ],
      "stateMutability": "view",
      "type": "function"
    },
    {
      "inputs": [
        {
          "internalType": "bytes",
          "name": "data",
          "type": "bytes"
        },
        {
          "internalType": "uint8",
          "name": "inputNum",
          "type": "uint8"
        }
      ],
      "name": "getInput",
      "outputs": [
        {
          "internalType": "bytes32",
          "name": "",
          "type": "bytes32"
        }
      ],
      "stateMutability": "pure",
      "type": "function"
    },
    {
      "inputs": [
        {
          "internalType": "bytes",
          "name": "data",
          "type": "bytes"
        }
      ],
      "name": "getMethod",
      "outputs": [
        {
          "internalType": "bytes4",
          "name": "",
          "type": "bytes4"
        }
      ],
      "stateMutability": "pure",
      "type": "function"
    },
    {
      "inputs": [
        {
          "internalType": "bytes",
          "name": "data",
          "type": "bytes"
        }
      ],
      "name": "getParams",
      "outputs": [
        {
          "internalType": "bytes",
          "name": "",
          "type": "bytes"
        }
      ],
      "stateMutability": "pure",
      "type": "function"
    },
    {
      "inputs": [],
      "name": "isOwner",
      "outputs": [
        {
          "internalType": "bool",
          "name": "",
          "type": "bool"
        }
      ],
      "stateMutability": "view",
      "type": "function"
    },
    {
      "inputs": [],
      "name": "owner",
      "outputs": [
        {
          "internalType": "address",
          "name": "",
          "type": "address"
        }
      ],
      "stateMutability": "view",
      "type": "function"
    },
    {
      "inputs": [
        {
          "internalType": "bytes",
          "name": "data",
          "type": "bytes"
        },
        {
          "internalType": "uint256",
          "name": "offset",
          "type": "uint256"
        },
        {
          "internalType": "uint256",
          "name": "length",
          "type": "uint256"
        }
      ],
      "name": "read32",
      "outputs": [
        {
          "internalType": "bytes32",
          "name": "o",
          "type": "bytes32"
        }
      ],
      "stateMutability": "pure",
      "type": "function"
    },
    {
      "inputs": [
        {
          "internalType": "bytes",
          "name": "data",
          "type": "bytes"
        },
        {
          "internalType": "uint256",
          "name": "offset",
          "type": "uint256"
        }
      ],
      "name": "read4left",
      "outputs": [
        {
          "internalType": "bytes4",
          "name": "o",
          "type": "bytes4"
        }
      ],
      "stateMutability": "pure",
      "type": "function"
    },
    {
      "inputs": [],
      "name": "renounceOwnership",
      "outputs": [],
      "stateMutability": "nonpayable",
      "type": "function"
    },
    {
      "inputs": [
        {
          "internalType": "address",
          "name": "newOwner",
          "type": "address"
        }
      ],
      "name": "transferOwnership",
      "outputs": [],
      "stateMutability": "nonpayable",
      "type": "function"
    },
    {
      "inputs": [
        {
          "internalType": "address",
          "name": "",
          "type": "address"
        }
      ],
      "name": "ubeswapFarms",
      "outputs": [
        {
          "internalType": "address",
          "name": "",
          "type": "address"
        }
      ],
      "stateMutability": "view",
      "type": "function"
    },
    {
      "inputs": [
        {
          "internalType": "address",
          "name": "addressResolver",
          "type": "address"
        },
        {
          "internalType": "address",
          "name": "pool",
          "type": "address"
        },
        {
          "internalType": "address",
          "name": "",
          "type": "address"
        },
        {
          "internalType": "bytes",
          "name": "data",
          "type": "bytes"
        }
      ],
      "name": "verify",
      "outputs": [
        {
          "internalType": "bool",
          "name": "",
          "type": "bool"
        },
        {
          "internalType": "address",
          "name": "",
          "type": "address"
        }
      ],
      "stateMutability": "nonpayable",
      "type": "function"
    },
    {
      "inputs": [
        {
          "internalType": "address",
          "name": "pool",
          "type": "address"
        },
        {
          "internalType": "address",
          "name": "asset",
          "type": "address"
        },
        {
          "internalType": "uint256",
          "name": "portion",
          "type": "uint256"
        },
        {
          "internalType": "address",
          "name": "to",
          "type": "address"
        }
      ],
      "name": "prepareWithdrawal",
      "outputs": [
        {
          "internalType": "address",
          "name": "",
          "type": "address"
        },
        {
          "internalType": "uint256",
          "name": "",
          "type": "uint256"
        },
        {
          "components": [
            {
              "internalType": "address",
              "name": "to",
              "type": "address"
            },
            {
              "internalType": "bytes",
              "name": "txData",
              "type": "bytes"
            }
          ],
          "internalType": "struct IAssetVerifier.MultiTransaction[]",
          "name": "transactions",
          "type": "tuple[]"
        }
      ],
      "stateMutability": "view",
      "type": "function"
    },
    {
      "inputs": [
        {
          "internalType": "address",
          "name": "pool",
          "type": "address"
        },
        {
          "internalType": "address",
          "name": "asset",
          "type": "address"
        }
      ],
      "name": "getBalance",
      "outputs": [
        {
          "internalType": "uint256",
          "name": "",
          "type": "uint256"
        }
      ],
      "stateMutability": "view",
      "type": "function"
    },
    {
      "inputs": [],
      "name": "initializeFarms",
      "outputs": [],
      "stateMutability": "nonpayable",
      "type": "function"
    },
    {
      "inputs": [
        {
          "internalType": "address",
          "name": "pair",
          "type": "address"
        },
        {
          "internalType": "address",
          "name": "farmAddress",
          "type": "address"
        }
      ],
      "name": "setFarmAddress",
      "outputs": [],
      "stateMutability": "nonpayable",
      "type": "function"
    }
  ],
  "bytecode": "0x60806040523480156200001157600080fd5b506040516200336838038062003368833981810160405281019062000037919062000151565b336000806101000a81548173ffffffffffffffffffffffffffffffffffffffff021916908373ffffffffffffffffffffffffffffffffffffffff16021790555060008054906101000a900473ffffffffffffffffffffffffffffffffffffffff1673ffffffffffffffffffffffffffffffffffffffff16600073ffffffffffffffffffffffffffffffffffffffff167f8be0079c531659141344cd1fd0a4f28419497f9722a3daafe3b4186f6b6457e060405160405180910390a380600160006101000a81548173ffffffffffffffffffffffffffffffffffffffff021916908373ffffffffffffffffffffffffffffffffffffffff16021790555050620001df565b6000815190506200014b81620001c5565b92915050565b6000602082840312156200016457600080fd5b600062000174848285016200013a565b91505092915050565b60006200018a82620001a5565b9050919050565b60006200019e826200017d565b9050919050565b600073ffffffffffffffffffffffffffffffffffffffff82169050919050565b620001d08162000191565b8114620001dc57600080fd5b50565b61317980620001ef6000396000f3fe608060405234801561001057600080fd5b50600436106101425760003560e01c806382f86acc116100b8578063c3c6279f1161007c578063c3c6279f146103b4578063cf54aaa0146103e4578063d4fac45d14610414578063d700e16414610444578063db896b5714610474578063f2fde38b146104a457610142565b806382f86acc146102fa5780638da5cb5b1461032a5780638f32d59b14610348578063981f3b8e14610366578063998546e31461038457610142565b806339158fdd1161010a57806339158fdd1461022357806341dc16c314610254578063460b62c31461028457806368901513146102b6578063715018a6146102e657806376f2b4d8146102f057610142565b806309ff5c7d146101475780631053f952146101775780631eba3077146101a75780631fb16e58146101d7578063293d8063146101f3575b600080fd5b610161600480360381019061015c9190612527565b6104c0565b60405161016e9190612d28565b60405180910390f35b610191600480360381019061018c919061257f565b610659565b60405161019e9190612d5e565b60405180910390f35b6101c160048036038101906101bc91906124b9565b610802565b6040516101ce9190612c0f565b60405180910390f35b6101f160048036038101906101ec9190612359565b61080f565b005b61020d60048036038101906102089190612657565b6109bd565b60405161021a9190612d43565b60405180910390f35b61023d60048036038101906102389190612395565b610a48565b60405161024b929190612cff565b60405180910390f35b61026e600480360381019061026991906125eb565b610c48565b60405161027b9190612d28565b60405180910390f35b61029e60048036038101906102999190612415565b610e60565b6040516102ad93929190612ca6565b60405180910390f35b6102d060048036038101906102cb91906124e2565b61139c565b6040516102dd9190612d5e565b60405180910390f35b6102ee611405565b005b6102f86114d4565b005b610314600480360381019061030f9190612527565b611798565b6040516103219190612d28565b60405180910390f35b6103326117fc565b60405161033f9190612c0f565b60405180910390f35b610350611825565b60405161035d9190612ce4565b60405180910390f35b61036e61187c565b60405161037b9190612d80565b60405180910390f35b61039e60048036038101906103999190612527565b6118a2565b6040516103ab9190612e9b565b60405180910390f35b6103ce60048036038101906103c991906124e2565b611963565b6040516103db9190612d43565b60405180910390f35b6103fe60048036038101906103f99190612307565b6119bc565b60405161040b9190612e9b565b60405180910390f35b61042e60048036038101906104299190612359565b611a46565b60405161043b9190612e9b565b60405180910390f35b61045e60048036038101906104599190612307565b611cbd565b60405161046b9190612c0f565b60405180910390f35b61048e600480360381019061048991906126ab565b611cf0565b60405161049b9190612d28565b60405180910390f35b6104be60048036038101906104b99190612307565b611d92565b005b60008061051c85858080601f016020809104026020016040519081016040528093929190818152602001838380828437600081840152601f19601f820116905080830192505050505050506004856020020160ff166020611cf0565b9050600061057686868080601f016020809104026020016040519081016040528093929190818152602001838380828437600081840152601f19601f8201169050808301925050505050505060048460001c016020611cf0565b90506000801b81116105f0576040517f08c379a00000000000000000000000000000000000000000000000000000000081526004018080602001828103825260128152602001807f696e707574206973206e6f74206172726179000000000000000000000000000081525060200191505060405180910390fd5b61064e86868080601f016020809104026020016040519081016040528093929190818152602001838380828437600081840152601f19601f8201169050808301925050505050505060208360001c0260048560001c01016020611cf0565b925050509392505050565b6060601482106106d1576040517f08c379a000000000000000000000000000000000000000000000000000000000815260040180806020018281038252600e8152602001807f696e76616c6964206f666673657400000000000000000000000000000000000081525060200191505060405180910390fd5b602082029150600061073486868080601f016020809104026020016040519081016040528093929190818152602001838380828437600081840152601f19601f82011690508083019250505050505050846004876020020160ff16016020611cf0565b60001c9050600061079087878080601f016020809104026020016040519081016040528093929190818152602001838380828437600081840152601f19601f820116905080830192505050505050508560048501016020611cf0565b60001c90506107f66020856004850101018289898080601f016020809104026020016040519081016040528093929190818152602001838380828437600081840152601f19601f82011690508083019250505050505050611daf9092919063ffffffff16565b92505050949350505050565b60008160001c9050919050565b610817611825565b61082057600080fd5b600073ffffffffffffffffffffffffffffffffffffffff168273ffffffffffffffffffffffffffffffffffffffff161415610890576040517f08c379a000000000000000000000000000000000000000000000000000000000815260040161088790612dfb565b60405180910390fd5b600073ffffffffffffffffffffffffffffffffffffffff168173ffffffffffffffffffffffffffffffffffffffff161415610900576040517f08c379a00000000000000000000000000000000000000000000000000000000081526004016108f790612d9b565b60405180910390fd5b80600260008473ffffffffffffffffffffffffffffffffffffffff1673ffffffffffffffffffffffffffffffffffffffff16815260200190815260200160002060006101000a81548173ffffffffffffffffffffffffffffffffffffffff021916908373ffffffffffffffffffffffffffffffffffffffff1602179055507f0b573389cc314585efb6a07f9e19191d0152f7bf4484b05181383bddbd6d8e798282426040516109b193929190612c2a565b60405180910390a15050565b60006004820183511015610a39576040517f08c379a000000000000000000000000000000000000000000000000000000000815260040180806020018281038252601b8152602001807f52656164696e67206279746573206f7574206f6620626f756e6473000000000081525060200191505060405180910390fd5b81602001830151905092915050565b6000806000610a578585611963565b90507f095ea7b334ae44009aa867bfb386f5c3b4b443ac6f0ee573fa91c4608fbadfba7bffffffffffffffffffffffffffffffffffffffffffffffffffffffff1916817bffffffffffffffffffffffffffffffffffffffffffffffffffffffff19161415610c35576000610ad5610ad087876000611798565b610802565b90506000610ae587876001611798565b60001c905060008a73ffffffffffffffffffffffffffffffffffffffff16632febaebd846040518263ffffffff1660e01b8152600401610b259190612c0f565b60206040518083038186803b158015610b3d57600080fd5b505afa158015610b51573d6000803e3d6000fd5b505050506040513d601f19601f82011682018060405250810190610b759190612330565b9050600073ffffffffffffffffffffffffffffffffffffffff168173ffffffffffffffffffffffffffffffffffffffff161415610be7576040517f08c379a0000000000000000000000000000000000000000000000000000000008152600401610bde90612e5b565b60405180910390fd5b7f8c287cb9c6b85cc52f4e58fb0c3f906c19db890e7288d3bfcfb6a9a66a5d33448a848442604051610c1c9493929190612c61565b60405180910390a1600160009550955050505050610c3e565b60008092509250505b9550959350505050565b600080610ca486868080601f016020809104026020016040519081016040528093929190818152602001838380828437600081840152601f19601f820116905080830192505050505050506004866020020160ff166020611cf0565b90506000610cfe87878080601f016020809104026020016040519081016040528093929190818152602001838380828437600081840152601f19601f8201169050808301925050505050505060048460001c016020611cf0565b90506000801b8111610d78576040517f08c379a00000000000000000000000000000000000000000000000000000000081526004018080602001828103825260128152602001807f696e707574206973206e6f74206172726179000000000000000000000000000081525060200191505060405180910390fd5b8360ff168160001c11610df3576040517f08c379a00000000000000000000000000000000000000000000000000000000081526004018080602001828103825260168152602001807f696e76616c696420617272617920706f736974696f6e0000000000000000000081525060200191505060405180910390fd5b610e5487878080601f016020809104026020016040519081016040528093929190818152602001838380828437600081840152601f19601f8201169050808301925050505050505060208660ff166001010260048560001c01016020611cf0565b92505050949350505050565b6000806060600073ffffffffffffffffffffffffffffffffffffffff168773ffffffffffffffffffffffffffffffffffffffff161415610ed5576040517f08c379a0000000000000000000000000000000000000000000000000000000008152600401610ecc90612e1b565b60405180910390fd5b600073ffffffffffffffffffffffffffffffffffffffff168673ffffffffffffffffffffffffffffffffffffffff161415610f45576040517f08c379a0000000000000000000000000000000000000000000000000000000008152600401610f3c90612e7b565b60405180910390fd5b600073ffffffffffffffffffffffffffffffffffffffff168473ffffffffffffffffffffffffffffffffffffffff161415610fb5576040517f08c379a0000000000000000000000000000000000000000000000000000000008152600401610fac90612e3b565b60405180910390fd5b60008511610ff8576040517f08c379a0000000000000000000000000000000000000000000000000000000008152600401610fef90612dbb565b60405180910390fd5b60008673ffffffffffffffffffffffffffffffffffffffff166370a08231896040518263ffffffff1660e01b81526004016110339190612c0f565b60206040518083038186803b15801561104b57600080fd5b505afa15801561105f573d6000803e3d6000fd5b505050506040513d601f19601f820116820180604052508101906110839190612712565b905060006110b4670de0b6b3a76400006110a68985611f9990919063ffffffff16565b611fd090919063ffffffff16565b90506000600260008a73ffffffffffffffffffffffffffffffffffffffff1673ffffffffffffffffffffffffffffffffffffffff16815260200190815260200160002060009054906101000a900473ffffffffffffffffffffffffffffffffffffffff1673ffffffffffffffffffffffffffffffffffffffff166370a082318b6040518263ffffffff1660e01b81526004016111509190612c0f565b60206040518083038186803b15801561116857600080fd5b505afa15801561117c573d6000803e3d6000fd5b505050506040513d601f19601f820116820180604052508101906111a09190612712565b905060008111156113895760006111da670de0b6b3a76400006111cc8b85611f9990919063ffffffff16565b611fd090919063ffffffff16565b9050600167ffffffffffffffff811180156111f457600080fd5b5060405190808252806020026020018201604052801561122e57816020015b61121b6120fc565b8152602001906001900390816112135790505b509450600260008b73ffffffffffffffffffffffffffffffffffffffff1673ffffffffffffffffffffffffffffffffffffffff16815260200190815260200160002060009054906101000a900473ffffffffffffffffffffffffffffffffffffffff168560008151811061129e57fe5b60200260200101516000019073ffffffffffffffffffffffffffffffffffffffff16908173ffffffffffffffffffffffffffffffffffffffff16815250507f2e1a7d4d13322e7b96f9a57413e1525c250fb7a9021cf91d1540d5b69f16a49f8160405160240161130e9190612e9b565b604051602081830303815290604052907bffffffffffffffffffffffffffffffffffffffffffffffffffffffff19166020820180517bffffffffffffffffffffffffffffffffffffffffffffffffffffffff83818316178352505050508560008151811061137857fe5b602002602001015160200181905250505b8882955095505050509450945094915050565b60606113fd600480858590500385858080601f016020809104026020016040519081016040528093929190818152602001838380828437600081840152601f19601f82011690508083019250505050505050611daf9092919063ffffffff16565b905092915050565b61140d611825565b61141657600080fd5b600073ffffffffffffffffffffffffffffffffffffffff1660008054906101000a900473ffffffffffffffffffffffffffffffffffffffff1673ffffffffffffffffffffffffffffffffffffffff167f8be0079c531659141344cd1fd0a4f28419497f9722a3daafe3b4186f6b6457e060405160405180910390a360008060006101000a81548173ffffffffffffffffffffffffffffffffffffffff021916908373ffffffffffffffffffffffffffffffffffffffff160217905550565b6114dc611825565b6114e557600080fd5b6000600160009054906101000a900473ffffffffffffffffffffffffffffffffffffffff1673ffffffffffffffffffffffffffffffffffffffff166304433bbc6040518163ffffffff1660e01b815260040161154090612ddb565b60206040518083038186803b15801561155857600080fd5b505afa15801561156c573d6000803e3d6000fd5b505050506040513d601f19601f820116820180604052508101906115909190612330565b905060008173ffffffffffffffffffffffffffffffffffffffff1663e1f6e5bb6040518163ffffffff1660e01b815260040160006040518083038186803b1580156115da57600080fd5b505afa1580156115ee573d6000803e3d6000fd5b505050506040513d6000823e3d601f19601f820116820180604052508101906116179190612478565b905060005b815181101561175957600082828151811061163357fe5b602002602001015173ffffffffffffffffffffffffffffffffffffffff166372f702f36040518163ffffffff1660e01b815260040160206040518083038186803b15801561168057600080fd5b505afa158015611694573d6000803e3d6000fd5b505050506040513d601f19601f820116820180604052508101906116b89190612330565b90508282815181106116c657fe5b6020026020010151600260008373ffffffffffffffffffffffffffffffffffffffff1673ffffffffffffffffffffffffffffffffffffffff16815260200190815260200160002060006101000a81548173ffffffffffffffffffffffffffffffffffffffff021916908373ffffffffffffffffffffffffffffffffffffffff16021790555050808060010191505061161c565b507ff279872bd44e34dfee1a857b0f2891edbbe42ac6c24285dadf5e27665a49554581514260405161178c929190612eb6565b60405180910390a15050565b60006117f384848080601f016020809104026020016040519081016040528093929190818152602001838380828437600081840152601f19601f820116905080830192505050505050506004846020020160ff166020611cf0565b90509392505050565b60008060009054906101000a900473ffffffffffffffffffffffffffffffffffffffff16905090565b60008060009054906101000a900473ffffffffffffffffffffffffffffffffffffffff1673ffffffffffffffffffffffffffffffffffffffff163373ffffffffffffffffffffffffffffffffffffffff1614905090565b600160009054906101000a900473ffffffffffffffffffffffffffffffffffffffff1681565b6000806118fe85858080601f016020809104026020016040519081016040528093929190818152602001838380828437600081840152601f19601f820116905080830192505050505050506004856020020160ff166020611cf0565b905061195685858080601f016020809104026020016040519081016040528093929190818152602001838380828437600081840152601f19601f8201169050808301925050505050505060048360001c016020611cf0565b60001c9150509392505050565b60006119b483838080601f016020809104026020016040519081016040528093929190818152602001838380828437600081840152601f19601f8201169050808301925050505050505060006109bd565b905092915050565b60008173ffffffffffffffffffffffffffffffffffffffff1663313ce5676040518163ffffffff1660e01b815260040160206040518083038186803b158015611a0457600080fd5b505afa158015611a18573d6000803e3d6000fd5b505050506040513d601f19601f82011682018060405250810190611a3c919061273b565b60ff169050919050565b60008073ffffffffffffffffffffffffffffffffffffffff168373ffffffffffffffffffffffffffffffffffffffff161415611ab7576040517f08c379a0000000000000000000000000000000000000000000000000000000008152600401611aae90612e1b565b60405180910390fd5b600073ffffffffffffffffffffffffffffffffffffffff168273ffffffffffffffffffffffffffffffffffffffff161415611b27576040517f08c379a0000000000000000000000000000000000000000000000000000000008152600401611b1e90612e7b565b60405180910390fd5b60008273ffffffffffffffffffffffffffffffffffffffff166370a08231856040518263ffffffff1660e01b8152600401611b629190612c0f565b60206040518083038186803b158015611b7a57600080fd5b505afa158015611b8e573d6000803e3d6000fd5b505050506040513d601f19601f82011682018060405250810190611bb29190612712565b90506000600260008573ffffffffffffffffffffffffffffffffffffffff1673ffffffffffffffffffffffffffffffffffffffff16815260200190815260200160002060009054906101000a900473ffffffffffffffffffffffffffffffffffffffff1673ffffffffffffffffffffffffffffffffffffffff166370a08231866040518263ffffffff1660e01b8152600401611c4e9190612c0f565b60206040518083038186803b158015611c6657600080fd5b505afa158015611c7a573d6000803e3d6000fd5b505050506040513d601f19601f82011682018060405250810190611c9e9190612712565b9050611cb38183611fe990919063ffffffff16565b9250505092915050565b60026020528060005260406000206000915054906101000a900473ffffffffffffffffffffffffffffffffffffffff1681565b600081830184511015611d6b576040517f08c379a000000000000000000000000000000000000000000000000000000000815260040180806020018281038252601b8152602001807f52656164696e67206279746573206f7574206f6620626f756e6473000000000081525060200191505060405180910390fd5b826020018401519050816020038015611d8a576008810260020a820491505b509392505050565b611d9a611825565b611da357600080fd5b611dac81612005565b50565b606081601f83011015611e2a576040517f08c379a000000000000000000000000000000000000000000000000000000000815260040180806020018281038252600e8152602001807f736c6963655f6f766572666c6f7700000000000000000000000000000000000081525060200191505060405180910390fd5b828284011015611ea2576040517f08c379a000000000000000000000000000000000000000000000000000000000815260040180806020018281038252600e8152602001807f736c6963655f6f766572666c6f7700000000000000000000000000000000000081525060200191505060405180910390fd5b81830184511015611f1b576040517f08c379a00000000000000000000000000000000000000000000000000000000081526004018080602001828103825260118152602001807f736c6963655f6f75744f66426f756e647300000000000000000000000000000081525060200191505060405180910390fd5b6060821560008114611f3c5760405191506000825260208201604052611f8d565b6040519150601f8416801560200281840101858101878315602002848b0101015b81831015611f7a5780518352602083019250602081019050611f5d565b50868552601f19601f8301166040525050505b50809150509392505050565b600080831415611fac5760009050611fca565b6000828402905082848281611fbd57fe5b0414611fc557fe5b809150505b92915050565b600080828481611fdc57fe5b0490508091505092915050565b600080828401905083811015611ffb57fe5b8091505092915050565b600073ffffffffffffffffffffffffffffffffffffffff168173ffffffffffffffffffffffffffffffffffffffff16141561203f57600080fd5b8073ffffffffffffffffffffffffffffffffffffffff1660008054906101000a900473ffffffffffffffffffffffffffffffffffffffff1673ffffffffffffffffffffffffffffffffffffffff167f8be0079c531659141344cd1fd0a4f28419497f9722a3daafe3b4186f6b6457e060405160405180910390a3806000806101000a81548173ffffffffffffffffffffffffffffffffffffffff021916908373ffffffffffffffffffffffffffffffffffffffff16021790555050565b6040518060400160405280600073ffffffffffffffffffffffffffffffffffffffff168152602001606081525090565b600061213f61213a84612f10565b612edf565b9050808382526020820190508285602086028201111561215e57600080fd5b60005b8581101561218e578161217488826121eb565b845260208401935060208301925050600181019050612161565b5050509392505050565b60006121ab6121a684612f3c565b612edf565b9050828152602081018484840111156121c357600080fd5b6121ce848285613092565b509392505050565b6000813590506121e5816130e7565b92915050565b6000815190506121fa816130e7565b92915050565b600082601f83011261221157600080fd5b815161222184826020860161212c565b91505092915050565b600081359050612239816130fe565b92915050565b60008083601f84011261225157600080fd5b8235905067ffffffffffffffff81111561226a57600080fd5b60208301915083600182028301111561228257600080fd5b9250929050565b600082601f83011261229a57600080fd5b81356122aa848260208601612198565b91505092915050565b6000813590506122c281613115565b92915050565b6000815190506122d781613115565b92915050565b6000813590506122ec8161312c565b92915050565b6000815190506123018161312c565b92915050565b60006020828403121561231957600080fd5b6000612327848285016121d6565b91505092915050565b60006020828403121561234257600080fd5b6000612350848285016121eb565b91505092915050565b6000806040838503121561236c57600080fd5b600061237a858286016121d6565b925050602061238b858286016121d6565b9150509250929050565b6000806000806000608086880312156123ad57600080fd5b60006123bb888289016121d6565b95505060206123cc888289016121d6565b94505060406123dd888289016121d6565b935050606086013567ffffffffffffffff8111156123fa57600080fd5b6124068882890161223f565b92509250509295509295909350565b6000806000806080858703121561242b57600080fd5b6000612439878288016121d6565b945050602061244a878288016121d6565b935050604061245b878288016122b3565b925050606061246c878288016121d6565b91505092959194509250565b60006020828403121561248a57600080fd5b600082015167ffffffffffffffff8111156124a457600080fd5b6124b084828501612200565b91505092915050565b6000602082840312156124cb57600080fd5b60006124d98482850161222a565b91505092915050565b600080602083850312156124f557600080fd5b600083013567ffffffffffffffff81111561250f57600080fd5b61251b8582860161223f565b92509250509250929050565b60008060006040848603121561253c57600080fd5b600084013567ffffffffffffffff81111561255657600080fd5b6125628682870161223f565b93509350506020612575868287016122dd565b9150509250925092565b6000806000806060858703121561259557600080fd5b600085013567ffffffffffffffff8111156125af57600080fd5b6125bb8782880161223f565b945094505060206125ce878288016122dd565b92505060406125df878288016122b3565b91505092959194509250565b6000806000806060858703121561260157600080fd5b600085013567ffffffffffffffff81111561261b57600080fd5b6126278782880161223f565b9450945050602061263a878288016122dd565b925050604061264b878288016122dd565b91505092959194509250565b6000806040838503121561266a57600080fd5b600083013567ffffffffffffffff81111561268457600080fd5b61269085828601612289565b92505060206126a1858286016122b3565b9150509250929050565b6000806000606084860312156126c057600080fd5b600084013567ffffffffffffffff8111156126da57600080fd5b6126e686828701612289565b93505060206126f7868287016122b3565b9250506040612708868287016122b3565b9150509250925092565b60006020828403121561272457600080fd5b6000612732848285016122c8565b91505092915050565b60006020828403121561274d57600080fd5b600061275b848285016122f2565b91505092915050565b60006127708383612bc3565b905092915050565b61278181612fe3565b82525050565b61279081612fe3565b82525050565b60006127a182612f7c565b6127ab8185612f9f565b9350836020820285016127bd85612f6c565b8060005b858110156127f957848403895281516127da8582612764565b94506127e583612f92565b925060208a019950506001810190506127c1565b50829750879550505050505092915050565b61281481612ff5565b82525050565b61282381613001565b82525050565b6128328161300b565b82525050565b600061284382612f87565b61284d8185612fb0565b935061285d8185602086016130a1565b612866816130d6565b840191505092915050565b600061287c82612f87565b6128868185612fc1565b93506128968185602086016130a1565b61289f816130d6565b840191505092915050565b6128b38161306e565b82525050565b60006128c6602783612fd2565b91507f556265737761704c5056657269666965723a20696e76616c6964206661726d2060008301527f61646472657373000000000000000000000000000000000000000000000000006020830152604082019050919050565b600061292c603183612fd2565b91507f556265737761704c5056657269666965723a20706f7274696f6e206d7573742060008301527f62652067726561746572207468616e20300000000000000000000000000000006020830152604082019050919050565b6000612992601283612fd2565b91507f42617365556265737761704164617074657200000000000000000000000000006000830152602082019050919050565b60006129d2602783612fd2565b91507f556265737761704c5056657269666965723a20696e76616c696420706169722060008301527f61646472657373000000000000000000000000000000000000000000000000006020830152604082019050919050565b6000612a38602783612fd2565b91507f556265737761704c5056657269666965723a20696e76616c696420706f6f6c2060008301527f61646472657373000000000000000000000000000000000000000000000000006020830152604082019050919050565b6000612a9e602283612fd2565b91507f556265737761704c5056657269666965723a20696e76616c696420616464726560008301527f73730000000000000000000000000000000000000000000000000000000000006020830152604082019050919050565b6000612b04602b83612fd2565b91507f455243323056657269666965723a20756e737570706f72746564207370656e6460008301527f657220617070726f76616c0000000000000000000000000000000000000000006020830152604082019050919050565b6000612b6a602883612fd2565b91507f556265737761704c5056657269666965723a20696e76616c696420617373657460008301527f20616464726573730000000000000000000000000000000000000000000000006020830152604082019050919050565b6000604083016000830151612bdb6000860182612778565b5060208301518482036020860152612bf38282612838565b9150508091505092915050565b612c0981613057565b82525050565b6000602082019050612c246000830184612787565b92915050565b6000606082019050612c3f6000830186612787565b612c4c6020830185612787565b612c596040830184612c00565b949350505050565b6000608082019050612c766000830187612787565b612c836020830186612787565b612c906040830185612c00565b612c9d6060830184612c00565b95945050505050565b6000606082019050612cbb6000830186612787565b612cc86020830185612c00565b8181036040830152612cda8184612796565b9050949350505050565b6000602082019050612cf9600083018461280b565b92915050565b6000604082019050612d14600083018561280b565b612d216020830184612787565b9392505050565b6000602082019050612d3d600083018461281a565b92915050565b6000602082019050612d586000830184612829565b92915050565b60006020820190508181036000830152612d788184612871565b905092915050565b6000602082019050612d9560008301846128aa565b92915050565b60006020820190508181036000830152612db4816128b9565b9050919050565b60006020820190508181036000830152612dd48161291f565b9050919050565b60006020820190508181036000830152612df481612985565b9050919050565b60006020820190508181036000830152612e14816129c5565b9050919050565b60006020820190508181036000830152612e3481612a2b565b9050919050565b60006020820190508181036000830152612e5481612a91565b9050919050565b60006020820190508181036000830152612e7481612af7565b9050919050565b60006020820190508181036000830152612e9481612b5d565b9050919050565b6000602082019050612eb06000830184612c00565b92915050565b6000604082019050612ecb6000830185612c00565b612ed86020830184612c00565b9392505050565b6000604051905081810181811067ffffffffffffffff82111715612f0657612f056130d4565b5b8060405250919050565b600067ffffffffffffffff821115612f2b57612f2a6130d4565b5b602082029050602081019050919050565b600067ffffffffffffffff821115612f5757612f566130d4565b5b601f19601f8301169050602081019050919050565b6000819050602082019050919050565b600081519050919050565b600081519050919050565b6000602082019050919050565b600082825260208201905092915050565b600082825260208201905092915050565b600082825260208201905092915050565b600082825260208201905092915050565b6000612fee82613037565b9050919050565b60008115159050919050565b6000819050919050565b60007fffffffff0000000000000000000000000000000000000000000000000000000082169050919050565b600073ffffffffffffffffffffffffffffffffffffffff82169050919050565b6000819050919050565b600060ff82169050919050565b600061307982613080565b9050919050565b600061308b82613037565b9050919050565b82818337600083830152505050565b60005b838110156130bf5780820151818401526020810190506130a4565b838111156130ce576000848401525b50505050565bfe5b6000601f19601f8301169050919050565b6130f081612fe3565b81146130fb57600080fd5b50565b61310781613001565b811461311257600080fd5b50565b61311e81613057565b811461312957600080fd5b50565b61313581613061565b811461314057600080fd5b5056fea26469706673582212200d358452242743bccbed09a7c605973cb2ade4e21abb25418721737828a07f8064736f6c63430007060033",
  "immutableReferences": {},
  "source": "// SPDX-License-Identifier: MIT\r\n\r\npragma solidity >=0.7.6;\r\npragma experimental ABIEncoderV2;\r\n\r\n//Libraries\r\nimport \"../../libraries/TxDataUtils.sol\";\r\nimport \"../../libraries/SafeMath.sol\";\r\n\r\n//Inheritance\r\nimport \"./ERC20Verifier.sol\";\r\nimport \"../../Ownable.sol\";\r\n\r\n//Internal references\r\nimport \"../../interfaces/IAddressResolver.sol\";\r\nimport \"../../interfaces/IAssetHandler.sol\";\r\nimport \"../../interfaces/IERC20.sol\";\r\nimport \"../../interfaces/IBaseUbeswapAdapter.sol\";\r\nimport \"../../interfaces/Ubeswap/IStakingRewards.sol\";\r\n\r\ncontract UbeswapLPVerifier is ERC20Verifier, Ownable {\r\n    using SafeMath for uint;\r\n\r\n    IAddressResolver public ADDRESS_RESOLVER;\r\n\r\n    mapping (address => address) public ubeswapFarms;\r\n\r\n    constructor(IAddressResolver addressResolver) Ownable() {\r\n        ADDRESS_RESOLVER = addressResolver;\r\n    }\r\n\r\n    /* ========== VIEWS ========== */\r\n\r\n    /**\r\n    * @dev Creates transaction data for withdrawing tokens\r\n    * @param pool Address of the pool\r\n    * @param asset Address of the asset\r\n    * @param portion Portion of the pool's balance in the asset\r\n    * @param to Recipient's address\r\n    * @return (address, uint, MultiTransaction[]) Withdrawn asset, amount of asset withdrawn, and transactions used to execute the withdrawal\r\n    */\r\n    function prepareWithdrawal(address pool, address asset, uint portion, address to) public view override returns (address, uint, MultiTransaction[] memory transactions) {\r\n        require(pool != address(0), \"UbeswapLPVerifier: invalid pool address\");\r\n        require(asset != address(0), \"UbeswapLPVerifier: invalid asset address\");\r\n        require(to != address(0), \"UbeswapLPVerifier: invalid address\");\r\n        require(portion > 0, \"UbeswapLPVerifier: portion must be greater than 0\");\r\n\r\n        uint poolBalance = IERC20(asset).balanceOf(pool);\r\n        uint withdrawBalance = poolBalance.mul(portion).div(10**18);\r\n        uint stakedBalance = IStakingRewards(ubeswapFarms[asset]).balanceOf(pool);\r\n\r\n        //Prepare transaction data\r\n        if (stakedBalance > 0)\r\n        {\r\n            uint stakedWithdrawBalance = stakedBalance.mul(portion).div(10**18);\r\n            transactions = new MultiTransaction[](1);\r\n            transactions[0].to = ubeswapFarms[asset];\r\n            transactions[0].txData = abi.encodeWithSelector(bytes4(keccak256(\"withdraw(uint256)\")), stakedWithdrawBalance);\r\n        }\r\n\r\n        return (asset, withdrawBalance, transactions);\r\n    }\r\n\r\n    /**\r\n    * @dev Returns the pool's balance in the asset\r\n    * @notice May included staked balance in external contracts\r\n    * @param pool Address of the pool\r\n    * @param asset Address of the asset\r\n    * @return uint Pool's balance in the asset\r\n    */\r\n    function getBalance(address pool, address asset) public view override returns (uint) {\r\n        require(pool != address(0), \"UbeswapLPVerifier: invalid pool address\");\r\n        require(asset != address(0), \"UbeswapLPVerifier: invalid asset address\");\r\n\r\n        uint poolBalance = IERC20(asset).balanceOf(pool);\r\n        uint stakedBalance = IStakingRewards(ubeswapFarms[asset]).balanceOf(pool);\r\n\r\n        return poolBalance.add(stakedBalance);\r\n    }\r\n\r\n    /* ========== RESTRICTED FUNCTIONS ========== */\r\n\r\n    /**\r\n    * @dev Initializes the contract's available Ubeswap farms\r\n    * @notice Meant to be called by contract owner\r\n    */\r\n    function initializeFarms() external onlyOwner {\r\n        address baseUbeswapAdapterAddress = ADDRESS_RESOLVER.getContractAddress(\"BaseUbeswapAdapter\");\r\n\r\n        address[] memory availableFarms = IBaseUbeswapAdapter(baseUbeswapAdapterAddress).getAvailableUbeswapFarms();\r\n        for (uint i = 0; i < availableFarms.length; i++)\r\n        {\r\n            address pair = IStakingRewards(availableFarms[i]).stakingToken();\r\n            ubeswapFarms[pair] = availableFarms[i];\r\n        }\r\n\r\n        emit InitializedFarms(availableFarms.length, block.timestamp);\r\n    }\r\n\r\n    /**\r\n    * @dev Updates the farm address for the pair\r\n    * @notice Meant to be called by contract owner\r\n    * @param pair Address of pair on Ubeswap\r\n    * @param farmAddress Address of farm on Ubeswap\r\n    */\r\n    function setFarmAddress(address pair, address farmAddress) external onlyOwner {\r\n        require(pair != address(0), \"UbeswapLPVerifier: invalid pair address\");\r\n        require(farmAddress != address(0), \"UbeswapLPVerifier: invalid farm address\");\r\n\r\n        ubeswapFarms[pair] = farmAddress;\r\n\r\n        emit UpdatedFarmAddress(pair, farmAddress, block.timestamp);\r\n    }\r\n\r\n    /* ========== EVENTS ========== */\r\n\r\n    event InitializedFarms(uint numberOfFarms, uint timestamp);\r\n    event UpdatedFarmAddress(address pair, address farmAddress, uint timestamp);\r\n}",
  "sourcePath": "C:/Users/xavie/OneDrive/Desktop/TradeGen/Github/tradegen-protocol/contracts/verifiers/assetVerifiers/UbeswapLPVerifier.sol",
  "compiler": {
    "name": "solc",
    "version": "0.7.6+commit.7338295f.Emscripten.clang"
  },
  "schemaVersion": "3.4.1",
  "updatedAt": "2021-08-20T19:54:46.630Z",
  "devdoc": {
    "kind": "dev",
    "methods": {
      "getBalance(address,address)": {
        "details": "Returns the pool's balance in the asset",
        "params": {
          "asset": "Address of the asset",
          "pool": "Address of the pool"
        },
        "returns": {
          "_0": "uint Pool's balance in the asset"
        }
      },
      "getDecimals(address)": {
        "details": "Returns the decimals of the asset",
        "params": {
          "asset": "Address of the asset"
        },
        "returns": {
          "_0": "uint Asset's number of decimals"
        }
      },
      "initializeFarms()": {
        "details": "Initializes the contract's available Ubeswap farms"
      },
      "isOwner()": {
        "returns": {
          "_0": "true if `msg.sender` is the owner of the contract."
        }
      },
      "owner()": {
        "returns": {
          "_0": "the address of the owner."
        }
      },
      "prepareWithdrawal(address,address,uint256,address)": {
        "details": "Creates transaction data for withdrawing tokens",
        "params": {
          "asset": "Address of the asset",
          "pool": "Address of the pool",
          "portion": "Portion of the pool's balance in the asset",
          "to": "Recipient's address"
        },
        "returns": {
          "_0": "(address, uint, MultiTransaction[]) Withdrawn asset, amount of asset withdrawn, and transactions used to execute the withdrawal"
        }
      },
      "renounceOwnership()": {
        "details": "Allows the current owner to relinquish control of the contract."
      },
      "setFarmAddress(address,address)": {
        "details": "Updates the farm address for the pair",
        "params": {
          "farmAddress": "Address of farm on Ubeswap",
          "pair": "Address of pair on Ubeswap"
        }
      },
      "transferOwnership(address)": {
        "details": "Allows the current owner to transfer control of the contract to a newOwner.",
        "params": {
          "newOwner": "The address to transfer ownership to."
        }
      },
      "verify(address,address,address,bytes)": {
        "details": "Parses the transaction data to make sure the transaction is valid",
        "params": {
          "addressResolver": "Address of AddressResolver contract",
          "data": "Transaction call data",
          "pool": "Address of the pool"
        },
        "returns": {
          "_0": "(uint, address) Whether the transaction is valid and the received asset"
        }
      }
    },
    "version": 1
  },
  "userdoc": {
    "kind": "user",
    "methods": {
      "getBalance(address,address)": {
        "notice": "May included staked balance in external contracts"
      },
      "initializeFarms()": {
        "notice": "Meant to be called by contract owner"
      },
      "renounceOwnership()": {
        "notice": "Renouncing to ownership will leave the contract without an owner. It will not be possible to call the functions with the `onlyOwner` modifier anymore."
      },
      "setFarmAddress(address,address)": {
        "notice": "Meant to be called by contract owner"
      }
    },
    "version": 1
  }
}