{
  "contractName": "UbeswapLPVerifier",
  "abi": [
    {
      "inputs": [
        {
          "internalType": "contract IAddressResolver",
          "name": "addressResolver",
          "type": "address"
        }
      ],
      "stateMutability": "nonpayable",
      "type": "constructor"
    },
    {
      "anonymous": false,
      "inputs": [
        {
          "indexed": false,
          "internalType": "address",
          "name": "pool",
          "type": "address"
        },
        {
          "indexed": false,
          "internalType": "address",
          "name": "spender",
          "type": "address"
        },
        {
          "indexed": false,
          "internalType": "uint256",
          "name": "amount",
          "type": "uint256"
        },
        {
          "indexed": false,
          "internalType": "uint256",
          "name": "timestamp",
          "type": "uint256"
        }
      ],
      "name": "Approve",
      "type": "event"
    },
    {
      "anonymous": false,
      "inputs": [
        {
          "indexed": false,
          "internalType": "address",
          "name": "fundAddress",
          "type": "address"
        },
        {
          "indexed": false,
          "internalType": "address",
          "name": "sourceAsset",
          "type": "address"
        },
        {
          "indexed": false,
          "internalType": "uint256",
          "name": "sourceAmount",
          "type": "uint256"
        },
        {
          "indexed": false,
          "internalType": "address",
          "name": "destinationAsset",
          "type": "address"
        },
        {
          "indexed": false,
          "internalType": "uint256",
          "name": "timestamp",
          "type": "uint256"
        }
      ],
      "name": "ExchangeFrom",
      "type": "event"
    },
    {
      "anonymous": false,
      "inputs": [
        {
          "indexed": false,
          "internalType": "uint256",
          "name": "numberOfFarms",
          "type": "uint256"
        },
        {
          "indexed": false,
          "internalType": "uint256",
          "name": "timestamp",
          "type": "uint256"
        }
      ],
      "name": "InitializedFarms",
      "type": "event"
    },
    {
      "anonymous": false,
      "inputs": [
        {
          "indexed": true,
          "internalType": "address",
          "name": "previousOwner",
          "type": "address"
        },
        {
          "indexed": true,
          "internalType": "address",
          "name": "newOwner",
          "type": "address"
        }
      ],
      "name": "OwnershipTransferred",
      "type": "event"
    },
    {
      "anonymous": false,
      "inputs": [
        {
          "indexed": false,
          "internalType": "address",
          "name": "pair",
          "type": "address"
        },
        {
          "indexed": false,
          "internalType": "address",
          "name": "farmAddress",
          "type": "address"
        },
        {
          "indexed": false,
          "internalType": "uint256",
          "name": "timestamp",
          "type": "uint256"
        }
      ],
      "name": "UpdatedFarmAddress",
      "type": "event"
    },
    {
      "inputs": [],
      "name": "ADDRESS_RESOLVER",
      "outputs": [
        {
          "internalType": "contract IAddressResolver",
          "name": "",
          "type": "address"
        }
      ],
      "stateMutability": "view",
      "type": "function"
    },
    {
      "inputs": [
        {
          "internalType": "bytes32",
          "name": "data",
          "type": "bytes32"
        }
      ],
      "name": "convert32toAddress",
      "outputs": [
        {
          "internalType": "address",
          "name": "o",
          "type": "address"
        }
      ],
      "stateMutability": "pure",
      "type": "function"
    },
    {
      "inputs": [
        {
          "internalType": "bytes",
          "name": "data",
          "type": "bytes"
        },
        {
          "internalType": "uint8",
          "name": "inputNum",
          "type": "uint8"
        },
        {
          "internalType": "uint8",
          "name": "arrayIndex",
          "type": "uint8"
        }
      ],
      "name": "getArrayIndex",
      "outputs": [
        {
          "internalType": "bytes32",
          "name": "",
          "type": "bytes32"
        }
      ],
      "stateMutability": "pure",
      "type": "function"
    },
    {
      "inputs": [
        {
          "internalType": "bytes",
          "name": "data",
          "type": "bytes"
        },
        {
          "internalType": "uint8",
          "name": "inputNum",
          "type": "uint8"
        }
      ],
      "name": "getArrayLast",
      "outputs": [
        {
          "internalType": "bytes32",
          "name": "",
          "type": "bytes32"
        }
      ],
      "stateMutability": "pure",
      "type": "function"
    },
    {
      "inputs": [
        {
          "internalType": "bytes",
          "name": "data",
          "type": "bytes"
        },
        {
          "internalType": "uint8",
          "name": "inputNum",
          "type": "uint8"
        }
      ],
      "name": "getArrayLength",
      "outputs": [
        {
          "internalType": "uint256",
          "name": "",
          "type": "uint256"
        }
      ],
      "stateMutability": "pure",
      "type": "function"
    },
    {
      "inputs": [
        {
          "internalType": "bytes",
          "name": "data",
          "type": "bytes"
        },
        {
          "internalType": "uint8",
          "name": "inputNum",
          "type": "uint8"
        },
        {
          "internalType": "uint256",
          "name": "offset",
          "type": "uint256"
        }
      ],
      "name": "getBytes",
      "outputs": [
        {
          "internalType": "bytes",
          "name": "",
          "type": "bytes"
        }
      ],
      "stateMutability": "pure",
      "type": "function"
    },
    {
      "inputs": [
        {
          "internalType": "address",
          "name": "asset",
          "type": "address"
        }
      ],
      "name": "getDecimals",
      "outputs": [
        {
          "internalType": "uint256",
          "name": "",
          "type": "uint256"
        }
      ],
      "stateMutability": "view",
      "type": "function"
    },
    {
      "inputs": [
        {
          "internalType": "bytes",
          "name": "data",
          "type": "bytes"
        },
        {
          "internalType": "uint8",
          "name": "inputNum",
          "type": "uint8"
        }
      ],
      "name": "getInput",
      "outputs": [
        {
          "internalType": "bytes32",
          "name": "",
          "type": "bytes32"
        }
      ],
      "stateMutability": "pure",
      "type": "function"
    },
    {
      "inputs": [
        {
          "internalType": "bytes",
          "name": "data",
          "type": "bytes"
        }
      ],
      "name": "getMethod",
      "outputs": [
        {
          "internalType": "bytes4",
          "name": "",
          "type": "bytes4"
        }
      ],
      "stateMutability": "pure",
      "type": "function"
    },
    {
      "inputs": [
        {
          "internalType": "bytes",
          "name": "data",
          "type": "bytes"
        }
      ],
      "name": "getParams",
      "outputs": [
        {
          "internalType": "bytes",
          "name": "",
          "type": "bytes"
        }
      ],
      "stateMutability": "pure",
      "type": "function"
    },
    {
      "inputs": [],
      "name": "isOwner",
      "outputs": [
        {
          "internalType": "bool",
          "name": "",
          "type": "bool"
        }
      ],
      "stateMutability": "view",
      "type": "function"
    },
    {
      "inputs": [],
      "name": "owner",
      "outputs": [
        {
          "internalType": "address",
          "name": "",
          "type": "address"
        }
      ],
      "stateMutability": "view",
      "type": "function"
    },
    {
      "inputs": [
        {
          "internalType": "bytes",
          "name": "data",
          "type": "bytes"
        },
        {
          "internalType": "uint256",
          "name": "offset",
          "type": "uint256"
        },
        {
          "internalType": "uint256",
          "name": "length",
          "type": "uint256"
        }
      ],
      "name": "read32",
      "outputs": [
        {
          "internalType": "bytes32",
          "name": "o",
          "type": "bytes32"
        }
      ],
      "stateMutability": "pure",
      "type": "function"
    },
    {
      "inputs": [
        {
          "internalType": "bytes",
          "name": "data",
          "type": "bytes"
        },
        {
          "internalType": "uint256",
          "name": "offset",
          "type": "uint256"
        }
      ],
      "name": "read4left",
      "outputs": [
        {
          "internalType": "bytes4",
          "name": "o",
          "type": "bytes4"
        }
      ],
      "stateMutability": "pure",
      "type": "function"
    },
    {
      "inputs": [],
      "name": "renounceOwnership",
      "outputs": [],
      "stateMutability": "nonpayable",
      "type": "function"
    },
    {
      "inputs": [
        {
          "internalType": "address",
          "name": "newOwner",
          "type": "address"
        }
      ],
      "name": "transferOwnership",
      "outputs": [],
      "stateMutability": "nonpayable",
      "type": "function"
    },
    {
      "inputs": [
        {
          "internalType": "address",
          "name": "",
          "type": "address"
        }
      ],
      "name": "ubeswapFarms",
      "outputs": [
        {
          "internalType": "address",
          "name": "",
          "type": "address"
        }
      ],
      "stateMutability": "view",
      "type": "function"
    },
    {
      "inputs": [
        {
          "internalType": "address",
          "name": "addressResolver",
          "type": "address"
        },
        {
          "internalType": "address",
          "name": "pool",
          "type": "address"
        },
        {
          "internalType": "address",
          "name": "",
          "type": "address"
        },
        {
          "internalType": "bytes",
          "name": "data",
          "type": "bytes"
        }
      ],
      "name": "verify",
      "outputs": [
        {
          "internalType": "bool",
          "name": "",
          "type": "bool"
        }
      ],
      "stateMutability": "nonpayable",
      "type": "function"
    },
    {
      "inputs": [
        {
          "internalType": "address",
          "name": "pool",
          "type": "address"
        },
        {
          "internalType": "address",
          "name": "asset",
          "type": "address"
        },
        {
          "internalType": "uint256",
          "name": "portion",
          "type": "uint256"
        },
        {
          "internalType": "address",
          "name": "to",
          "type": "address"
        }
      ],
      "name": "prepareWithdrawal",
      "outputs": [
        {
          "internalType": "address",
          "name": "",
          "type": "address"
        },
        {
          "internalType": "uint256",
          "name": "",
          "type": "uint256"
        },
        {
          "components": [
            {
              "internalType": "address",
              "name": "to",
              "type": "address"
            },
            {
              "internalType": "bytes",
              "name": "txData",
              "type": "bytes"
            }
          ],
          "internalType": "struct IAssetVerifier.MultiTransaction[]",
          "name": "transactions",
          "type": "tuple[]"
        }
      ],
      "stateMutability": "view",
      "type": "function"
    },
    {
      "inputs": [
        {
          "internalType": "address",
          "name": "pool",
          "type": "address"
        },
        {
          "internalType": "address",
          "name": "asset",
          "type": "address"
        }
      ],
      "name": "getBalance",
      "outputs": [
        {
          "internalType": "uint256",
          "name": "",
          "type": "uint256"
        }
      ],
      "stateMutability": "view",
      "type": "function"
    },
    {
      "inputs": [],
      "name": "initializeFarms",
      "outputs": [],
      "stateMutability": "nonpayable",
      "type": "function"
    },
    {
      "inputs": [
        {
          "internalType": "address",
          "name": "pair",
          "type": "address"
        },
        {
          "internalType": "address",
          "name": "farmAddress",
          "type": "address"
        }
      ],
      "name": "setFarmAddress",
      "outputs": [],
      "stateMutability": "nonpayable",
      "type": "function"
    }
  ],
  "bytecode": "0x60806040523480156200001157600080fd5b50604051620038b5380380620038b5833981810160405281019062000037919062000151565b336000806101000a81548173ffffffffffffffffffffffffffffffffffffffff021916908373ffffffffffffffffffffffffffffffffffffffff16021790555060008054906101000a900473ffffffffffffffffffffffffffffffffffffffff1673ffffffffffffffffffffffffffffffffffffffff16600073ffffffffffffffffffffffffffffffffffffffff167f8be0079c531659141344cd1fd0a4f28419497f9722a3daafe3b4186f6b6457e060405160405180910390a380600160006101000a81548173ffffffffffffffffffffffffffffffffffffffff021916908373ffffffffffffffffffffffffffffffffffffffff16021790555050620001df565b6000815190506200014b81620001c5565b92915050565b6000602082840312156200016457600080fd5b600062000174848285016200013a565b91505092915050565b60006200018a82620001a5565b9050919050565b60006200019e826200017d565b9050919050565b600073ffffffffffffffffffffffffffffffffffffffff82169050919050565b620001d08162000191565b8114620001dc57600080fd5b50565b6136c680620001ef6000396000f3fe608060405234801561001057600080fd5b50600436106101425760003560e01c806382f86acc116100b8578063c3c6279f1161007c578063c3c6279f146103b3578063cf54aaa0146103e3578063d4fac45d14610413578063d700e16414610443578063db896b5714610473578063f2fde38b146104a357610142565b806382f86acc146102f95780638da5cb5b146103295780638f32d59b14610347578063981f3b8e14610365578063998546e31461038357610142565b806339158fdd1161010a57806339158fdd1461022357806341dc16c314610253578063460b62c31461028357806368901513146102b5578063715018a6146102e557806376f2b4d8146102ef57610142565b806309ff5c7d146101475780631053f952146101775780631eba3077146101a75780631fb16e58146101d7578063293d8063146101f3575b600080fd5b610161600480360381019061015c91906129a0565b6104bf565b60405161016e919061321e565b60405180910390f35b610191600480360381019061018c91906129f8565b610658565b60405161019e9190613254565b60405180910390f35b6101c160048036038101906101bc9190612932565b610801565b6040516101ce919061312e565b60405180910390f35b6101f160048036038101906101ec91906127a9565b61080e565b005b61020d60048036038101906102089190612ad0565b610b60565b60405161021a9190613239565b60405180910390f35b61023d600480360381019061023891906127e5565b610beb565b60405161024a9190613203565b60405180910390f35b61026d60048036038101906102689190612a64565b611083565b60405161027a919061321e565b60405180910390f35b61029d60048036038101906102989190612865565b61129b565b6040516102ac939291906131c5565b60405180910390f35b6102cf60048036038101906102ca919061295b565b6117d7565b6040516102dc9190613254565b60405180910390f35b6102ed611840565b005b6102f761190f565b005b610313600480360381019061030e91906129a0565b611bd3565b604051610320919061321e565b60405180910390f35b610331611c37565b60405161033e919061312e565b60405180910390f35b61034f611c60565b60405161035c9190613203565b60405180910390f35b61036d611cb7565b60405161037a9190613276565b60405180910390f35b61039d600480360381019061039891906129a0565b611cdd565b6040516103aa91906133d1565b60405180910390f35b6103cd60048036038101906103c8919061295b565b611d9e565b6040516103da9190613239565b60405180910390f35b6103fd60048036038101906103f89190612757565b611df7565b60405161040a91906133d1565b60405180910390f35b61042d600480360381019061042891906127a9565b611e81565b60405161043a91906133d1565b60405180910390f35b61045d60048036038101906104589190612757565b6120f8565b60405161046a919061312e565b60405180910390f35b61048d60048036038101906104889190612b24565b61212b565b60405161049a919061321e565b60405180910390f35b6104bd60048036038101906104b89190612757565b6121cd565b005b60008061051b85858080601f016020809104026020016040519081016040528093929190818152602001838380828437600081840152601f19601f820116905080830192505050505050506004856020020160ff16602061212b565b9050600061057586868080601f016020809104026020016040519081016040528093929190818152602001838380828437600081840152601f19601f8201169050808301925050505050505060048460001c01602061212b565b90506000801b81116105ef576040517f08c379a00000000000000000000000000000000000000000000000000000000081526004018080602001828103825260128152602001807f696e707574206973206e6f74206172726179000000000000000000000000000081525060200191505060405180910390fd5b61064d86868080601f016020809104026020016040519081016040528093929190818152602001838380828437600081840152601f19601f8201169050808301925050505050505060208360001c0260048560001c0101602061212b565b925050509392505050565b6060601482106106d0576040517f08c379a000000000000000000000000000000000000000000000000000000000815260040180806020018281038252600e8152602001807f696e76616c6964206f666673657400000000000000000000000000000000000081525060200191505060405180910390fd5b602082029150600061073386868080601f016020809104026020016040519081016040528093929190818152602001838380828437600081840152601f19601f82011690508083019250505050505050846004876020020160ff1601602061212b565b60001c9050600061078f87878080601f016020809104026020016040519081016040528093929190818152602001838380828437600081840152601f19601f82011690508083019250505050505050856004850101602061212b565b60001c90506107f56020856004850101018289898080601f016020809104026020016040519081016040528093929190818152602001838380828437600081840152601f19601f820116905080830192505050505050506121ea9092919063ffffffff16565b92505050949350505050565b60008160001c9050919050565b610816611c60565b61081f57600080fd5b600073ffffffffffffffffffffffffffffffffffffffff168273ffffffffffffffffffffffffffffffffffffffff16141561088f576040517f08c379a000000000000000000000000000000000000000000000000000000000815260040161088690613311565b60405180910390fd5b600073ffffffffffffffffffffffffffffffffffffffff168173ffffffffffffffffffffffffffffffffffffffff1614156108ff576040517f08c379a00000000000000000000000000000000000000000000000000000000081526004016108f690613291565b60405180910390fd5b6000600160009054906101000a900473ffffffffffffffffffffffffffffffffffffffff1673ffffffffffffffffffffffffffffffffffffffff166304433bbc6040518163ffffffff1660e01b815260040161095a906132f1565b60206040518083038186803b15801561097257600080fd5b505afa158015610986573d6000803e3d6000fd5b505050506040513d601f19601f820116820180604052508101906109aa9190612780565b90508073ffffffffffffffffffffffffffffffffffffffff166381ef421f836040518263ffffffff1660e01b81526004016109e5919061312e565b60206040518083038186803b1580156109fd57600080fd5b505afa158015610a11573d6000803e3d6000fd5b505050506040513d601f19601f82011682018060405250810190610a359190612780565b73ffffffffffffffffffffffffffffffffffffffff168373ffffffffffffffffffffffffffffffffffffffff1614610aa2576040517f08c379a0000000000000000000000000000000000000000000000000000000008152600401610a99906132d1565b60405180910390fd5b81600260008573ffffffffffffffffffffffffffffffffffffffff1673ffffffffffffffffffffffffffffffffffffffff16815260200190815260200160002060006101000a81548173ffffffffffffffffffffffffffffffffffffffff021916908373ffffffffffffffffffffffffffffffffffffffff1602179055507f0b573389cc314585efb6a07f9e19191d0152f7bf4484b05181383bddbd6d8e79838342604051610b5393929190613149565b60405180910390a1505050565b60006004820183511015610bdc576040517f08c379a000000000000000000000000000000000000000000000000000000000815260040180806020018281038252601b8152602001807f52656164696e67206279746573206f7574206f6620626f756e6473000000000081525060200191505060405180910390fd5b81602001830151905092915050565b600080610bf88484611d9e565b90507f095ea7b334ae44009aa867bfb386f5c3b4b443ac6f0ee573fa91c4608fbadfba7bffffffffffffffffffffffffffffffffffffffffffffffffffffffff1916817bffffffffffffffffffffffffffffffffffffffffffffffffffffffff19161415611074576000610c76610c7186866000611bd3565b610801565b90506000610c8686866001611bd3565b60001c905060008973ffffffffffffffffffffffffffffffffffffffff16632febaebd846040518263ffffffff1660e01b8152600401610cc6919061312e565b60206040518083038186803b158015610cde57600080fd5b505afa158015610cf2573d6000803e3d6000fd5b505050506040513d601f19601f82011682018060405250810190610d169190612780565b9050600073ffffffffffffffffffffffffffffffffffffffff168173ffffffffffffffffffffffffffffffffffffffff161415610f825760008a73ffffffffffffffffffffffffffffffffffffffff166304433bbc6040518163ffffffff1660e01b8152600401610d8690613391565b60206040518083038186803b158015610d9e57600080fd5b505afa158015610db2573d6000803e3d6000fd5b505050506040513d601f19601f82011682018060405250810190610dd69190612780565b90508073ffffffffffffffffffffffffffffffffffffffff1663cc435bf3856040518263ffffffff1660e01b8152600401610e11919061312e565b60206040518083038186803b158015610e2957600080fd5b505afa158015610e3d573d6000803e3d6000fd5b505050506040513d601f19601f82011682018060405250810190610e619190612909565b15610f805760008173ffffffffffffffffffffffffffffffffffffffff1663032c49ed866040518263ffffffff1660e01b8152600401610ea1919061312e565b60206040518083038186803b158015610eb957600080fd5b505afa158015610ecd573d6000803e3d6000fd5b505050506040513d601f19601f82011682018060405250810190610ef19190612b8b565b90508b73ffffffffffffffffffffffffffffffffffffffff166358c1c787826040518263ffffffff1660e01b8152600401610f2c91906133d1565b60206040518083038186803b158015610f4457600080fd5b505afa158015610f58573d6000803e3d6000fd5b505050506040513d601f19601f82011682018060405250810190610f7c9190612780565b9250505b505b600073ffffffffffffffffffffffffffffffffffffffff168173ffffffffffffffffffffffffffffffffffffffff1614158015610feb57503073ffffffffffffffffffffffffffffffffffffffff168173ffffffffffffffffffffffffffffffffffffffff1614155b61102a576040517f08c379a000000000000000000000000000000000000000000000000000000000815260040161102190613371565b60405180910390fd5b7f8c287cb9c6b85cc52f4e58fb0c3f906c19db890e7288d3bfcfb6a9a66a5d33448984844260405161105f9493929190613180565b60405180910390a1600194505050505061107a565b60009150505b95945050505050565b6000806110df86868080601f016020809104026020016040519081016040528093929190818152602001838380828437600081840152601f19601f820116905080830192505050505050506004866020020160ff16602061212b565b9050600061113987878080601f016020809104026020016040519081016040528093929190818152602001838380828437600081840152601f19601f8201169050808301925050505050505060048460001c01602061212b565b90506000801b81116111b3576040517f08c379a00000000000000000000000000000000000000000000000000000000081526004018080602001828103825260128152602001807f696e707574206973206e6f74206172726179000000000000000000000000000081525060200191505060405180910390fd5b8360ff168160001c1161122e576040517f08c379a00000000000000000000000000000000000000000000000000000000081526004018080602001828103825260168152602001807f696e76616c696420617272617920706f736974696f6e0000000000000000000081525060200191505060405180910390fd5b61128f87878080601f016020809104026020016040519081016040528093929190818152602001838380828437600081840152601f19601f8201169050808301925050505050505060208660ff166001010260048560001c0101602061212b565b92505050949350505050565b6000806060600073ffffffffffffffffffffffffffffffffffffffff168773ffffffffffffffffffffffffffffffffffffffff161415611310576040517f08c379a000000000000000000000000000000000000000000000000000000000815260040161130790613331565b60405180910390fd5b600073ffffffffffffffffffffffffffffffffffffffff168673ffffffffffffffffffffffffffffffffffffffff161415611380576040517f08c379a0000000000000000000000000000000000000000000000000000000008152600401611377906133b1565b60405180910390fd5b600073ffffffffffffffffffffffffffffffffffffffff168473ffffffffffffffffffffffffffffffffffffffff1614156113f0576040517f08c379a00000000000000000000000000000000000000000000000000000000081526004016113e790613351565b60405180910390fd5b60008511611433576040517f08c379a000000000000000000000000000000000000000000000000000000000815260040161142a906132b1565b60405180910390fd5b60008673ffffffffffffffffffffffffffffffffffffffff166370a08231896040518263ffffffff1660e01b815260040161146e919061312e565b60206040518083038186803b15801561148657600080fd5b505afa15801561149a573d6000803e3d6000fd5b505050506040513d601f19601f820116820180604052508101906114be9190612b8b565b905060006114ef670de0b6b3a76400006114e189856123d490919063ffffffff16565b61240b90919063ffffffff16565b90506000600260008a73ffffffffffffffffffffffffffffffffffffffff1673ffffffffffffffffffffffffffffffffffffffff16815260200190815260200160002060009054906101000a900473ffffffffffffffffffffffffffffffffffffffff1673ffffffffffffffffffffffffffffffffffffffff166370a082318b6040518263ffffffff1660e01b815260040161158b919061312e565b60206040518083038186803b1580156115a357600080fd5b505afa1580156115b7573d6000803e3d6000fd5b505050506040513d601f19601f820116820180604052508101906115db9190612b8b565b905060008111156117c4576000611615670de0b6b3a76400006116078b856123d490919063ffffffff16565b61240b90919063ffffffff16565b9050600167ffffffffffffffff8111801561162f57600080fd5b5060405190808252806020026020018201604052801561166957816020015b611656612537565b81526020019060019003908161164e5790505b509450600260008b73ffffffffffffffffffffffffffffffffffffffff1673ffffffffffffffffffffffffffffffffffffffff16815260200190815260200160002060009054906101000a900473ffffffffffffffffffffffffffffffffffffffff16856000815181106116d957fe5b60200260200101516000019073ffffffffffffffffffffffffffffffffffffffff16908173ffffffffffffffffffffffffffffffffffffffff16815250507f2e1a7d4d13322e7b96f9a57413e1525c250fb7a9021cf91d1540d5b69f16a49f8160405160240161174991906133d1565b604051602081830303815290604052907bffffffffffffffffffffffffffffffffffffffffffffffffffffffff19166020820180517bffffffffffffffffffffffffffffffffffffffffffffffffffffffff8381831617835250505050856000815181106117b357fe5b602002602001015160200181905250505b8882955095505050509450945094915050565b6060611838600480858590500385858080601f016020809104026020016040519081016040528093929190818152602001838380828437600081840152601f19601f820116905080830192505050505050506121ea9092919063ffffffff16565b905092915050565b611848611c60565b61185157600080fd5b600073ffffffffffffffffffffffffffffffffffffffff1660008054906101000a900473ffffffffffffffffffffffffffffffffffffffff1673ffffffffffffffffffffffffffffffffffffffff167f8be0079c531659141344cd1fd0a4f28419497f9722a3daafe3b4186f6b6457e060405160405180910390a360008060006101000a81548173ffffffffffffffffffffffffffffffffffffffff021916908373ffffffffffffffffffffffffffffffffffffffff160217905550565b611917611c60565b61192057600080fd5b6000600160009054906101000a900473ffffffffffffffffffffffffffffffffffffffff1673ffffffffffffffffffffffffffffffffffffffff166304433bbc6040518163ffffffff1660e01b815260040161197b906132f1565b60206040518083038186803b15801561199357600080fd5b505afa1580156119a7573d6000803e3d6000fd5b505050506040513d601f19601f820116820180604052508101906119cb9190612780565b905060008173ffffffffffffffffffffffffffffffffffffffff1663e1f6e5bb6040518163ffffffff1660e01b815260040160006040518083038186803b158015611a1557600080fd5b505afa158015611a29573d6000803e3d6000fd5b505050506040513d6000823e3d601f19601f82011682018060405250810190611a5291906128c8565b905060005b8151811015611b94576000828281518110611a6e57fe5b602002602001015173ffffffffffffffffffffffffffffffffffffffff166372f702f36040518163ffffffff1660e01b815260040160206040518083038186803b158015611abb57600080fd5b505afa158015611acf573d6000803e3d6000fd5b505050506040513d601f19601f82011682018060405250810190611af39190612780565b9050828281518110611b0157fe5b6020026020010151600260008373ffffffffffffffffffffffffffffffffffffffff1673ffffffffffffffffffffffffffffffffffffffff16815260200190815260200160002060006101000a81548173ffffffffffffffffffffffffffffffffffffffff021916908373ffffffffffffffffffffffffffffffffffffffff160217905550508080600101915050611a57565b507ff279872bd44e34dfee1a857b0f2891edbbe42ac6c24285dadf5e27665a495545815142604051611bc79291906133ec565b60405180910390a15050565b6000611c2e84848080601f016020809104026020016040519081016040528093929190818152602001838380828437600081840152601f19601f820116905080830192505050505050506004846020020160ff16602061212b565b90509392505050565b60008060009054906101000a900473ffffffffffffffffffffffffffffffffffffffff16905090565b60008060009054906101000a900473ffffffffffffffffffffffffffffffffffffffff1673ffffffffffffffffffffffffffffffffffffffff163373ffffffffffffffffffffffffffffffffffffffff1614905090565b600160009054906101000a900473ffffffffffffffffffffffffffffffffffffffff1681565b600080611d3985858080601f016020809104026020016040519081016040528093929190818152602001838380828437600081840152601f19601f820116905080830192505050505050506004856020020160ff16602061212b565b9050611d9185858080601f016020809104026020016040519081016040528093929190818152602001838380828437600081840152601f19601f8201169050808301925050505050505060048360001c01602061212b565b60001c9150509392505050565b6000611def83838080601f016020809104026020016040519081016040528093929190818152602001838380828437600081840152601f19601f820116905080830192505050505050506000610b60565b905092915050565b60008173ffffffffffffffffffffffffffffffffffffffff1663313ce5676040518163ffffffff1660e01b815260040160206040518083038186803b158015611e3f57600080fd5b505afa158015611e53573d6000803e3d6000fd5b505050506040513d601f19601f82011682018060405250810190611e779190612bb4565b60ff169050919050565b60008073ffffffffffffffffffffffffffffffffffffffff168373ffffffffffffffffffffffffffffffffffffffff161415611ef2576040517f08c379a0000000000000000000000000000000000000000000000000000000008152600401611ee990613331565b60405180910390fd5b600073ffffffffffffffffffffffffffffffffffffffff168273ffffffffffffffffffffffffffffffffffffffff161415611f62576040517f08c379a0000000000000000000000000000000000000000000000000000000008152600401611f59906133b1565b60405180910390fd5b60008273ffffffffffffffffffffffffffffffffffffffff166370a08231856040518263ffffffff1660e01b8152600401611f9d919061312e565b60206040518083038186803b158015611fb557600080fd5b505afa158015611fc9573d6000803e3d6000fd5b505050506040513d601f19601f82011682018060405250810190611fed9190612b8b565b90506000600260008573ffffffffffffffffffffffffffffffffffffffff1673ffffffffffffffffffffffffffffffffffffffff16815260200190815260200160002060009054906101000a900473ffffffffffffffffffffffffffffffffffffffff1673ffffffffffffffffffffffffffffffffffffffff166370a08231866040518263ffffffff1660e01b8152600401612089919061312e565b60206040518083038186803b1580156120a157600080fd5b505afa1580156120b5573d6000803e3d6000fd5b505050506040513d601f19601f820116820180604052508101906120d99190612b8b565b90506120ee818361242490919063ffffffff16565b9250505092915050565b60026020528060005260406000206000915054906101000a900473ffffffffffffffffffffffffffffffffffffffff1681565b6000818301845110156121a6576040517f08c379a000000000000000000000000000000000000000000000000000000000815260040180806020018281038252601b8152602001807f52656164696e67206279746573206f7574206f6620626f756e6473000000000081525060200191505060405180910390fd5b8260200184015190508160200380156121c5576008810260020a820491505b509392505050565b6121d5611c60565b6121de57600080fd5b6121e781612440565b50565b606081601f83011015612265576040517f08c379a000000000000000000000000000000000000000000000000000000000815260040180806020018281038252600e8152602001807f736c6963655f6f766572666c6f7700000000000000000000000000000000000081525060200191505060405180910390fd5b8282840110156122dd576040517f08c379a000000000000000000000000000000000000000000000000000000000815260040180806020018281038252600e8152602001807f736c6963655f6f766572666c6f7700000000000000000000000000000000000081525060200191505060405180910390fd5b81830184511015612356576040517f08c379a00000000000000000000000000000000000000000000000000000000081526004018080602001828103825260118152602001807f736c6963655f6f75744f66426f756e647300000000000000000000000000000081525060200191505060405180910390fd5b606082156000811461237757604051915060008252602082016040526123c8565b6040519150601f8416801560200281840101858101878315602002848b0101015b818310156123b55780518352602083019250602081019050612398565b50868552601f19601f8301166040525050505b50809150509392505050565b6000808314156123e75760009050612405565b60008284029050828482816123f857fe5b041461240057fe5b809150505b92915050565b60008082848161241757fe5b0490508091505092915050565b60008082840190508381101561243657fe5b8091505092915050565b600073ffffffffffffffffffffffffffffffffffffffff168173ffffffffffffffffffffffffffffffffffffffff16141561247a57600080fd5b8073ffffffffffffffffffffffffffffffffffffffff1660008054906101000a900473ffffffffffffffffffffffffffffffffffffffff1673ffffffffffffffffffffffffffffffffffffffff167f8be0079c531659141344cd1fd0a4f28419497f9722a3daafe3b4186f6b6457e060405160405180910390a3806000806101000a81548173ffffffffffffffffffffffffffffffffffffffff021916908373ffffffffffffffffffffffffffffffffffffffff16021790555050565b6040518060400160405280600073ffffffffffffffffffffffffffffffffffffffff168152602001606081525090565b600061257a61257584613446565b613415565b9050808382526020820190508285602086028201111561259957600080fd5b60005b858110156125c957816125af8882612626565b84526020840193506020830192505060018101905061259c565b5050509392505050565b60006125e66125e184613472565b613415565b9050828152602081018484840111156125fe57600080fd5b6126098482856135c8565b509392505050565b6000813590506126208161361d565b92915050565b6000815190506126358161361d565b92915050565b600082601f83011261264c57600080fd5b815161265c848260208601612567565b91505092915050565b60008151905061267481613634565b92915050565b6000813590506126898161364b565b92915050565b60008083601f8401126126a157600080fd5b8235905067ffffffffffffffff8111156126ba57600080fd5b6020830191508360018202830111156126d257600080fd5b9250929050565b600082601f8301126126ea57600080fd5b81356126fa8482602086016125d3565b91505092915050565b60008135905061271281613662565b92915050565b60008151905061272781613662565b92915050565b60008135905061273c81613679565b92915050565b60008151905061275181613679565b92915050565b60006020828403121561276957600080fd5b600061277784828501612611565b91505092915050565b60006020828403121561279257600080fd5b60006127a084828501612626565b91505092915050565b600080604083850312156127bc57600080fd5b60006127ca85828601612611565b92505060206127db85828601612611565b9150509250929050565b6000806000806000608086880312156127fd57600080fd5b600061280b88828901612611565b955050602061281c88828901612611565b945050604061282d88828901612611565b935050606086013567ffffffffffffffff81111561284a57600080fd5b6128568882890161268f565b92509250509295509295909350565b6000806000806080858703121561287b57600080fd5b600061288987828801612611565b945050602061289a87828801612611565b93505060406128ab87828801612703565b92505060606128bc87828801612611565b91505092959194509250565b6000602082840312156128da57600080fd5b600082015167ffffffffffffffff8111156128f457600080fd5b6129008482850161263b565b91505092915050565b60006020828403121561291b57600080fd5b600061292984828501612665565b91505092915050565b60006020828403121561294457600080fd5b60006129528482850161267a565b91505092915050565b6000806020838503121561296e57600080fd5b600083013567ffffffffffffffff81111561298857600080fd5b6129948582860161268f565b92509250509250929050565b6000806000604084860312156129b557600080fd5b600084013567ffffffffffffffff8111156129cf57600080fd5b6129db8682870161268f565b935093505060206129ee8682870161272d565b9150509250925092565b60008060008060608587031215612a0e57600080fd5b600085013567ffffffffffffffff811115612a2857600080fd5b612a348782880161268f565b94509450506020612a478782880161272d565b9250506040612a5887828801612703565b91505092959194509250565b60008060008060608587031215612a7a57600080fd5b600085013567ffffffffffffffff811115612a9457600080fd5b612aa08782880161268f565b94509450506020612ab38782880161272d565b9250506040612ac48782880161272d565b91505092959194509250565b60008060408385031215612ae357600080fd5b600083013567ffffffffffffffff811115612afd57600080fd5b612b09858286016126d9565b9250506020612b1a85828601612703565b9150509250929050565b600080600060608486031215612b3957600080fd5b600084013567ffffffffffffffff811115612b5357600080fd5b612b5f868287016126d9565b9350506020612b7086828701612703565b9250506040612b8186828701612703565b9150509250925092565b600060208284031215612b9d57600080fd5b6000612bab84828501612718565b91505092915050565b600060208284031215612bc657600080fd5b6000612bd484828501612742565b91505092915050565b6000612be983836130e2565b905092915050565b612bfa81613519565b82525050565b612c0981613519565b82525050565b6000612c1a826134b2565b612c2481856134d5565b935083602082028501612c36856134a2565b8060005b85811015612c725784840389528151612c538582612bdd565b9450612c5e836134c8565b925060208a01995050600181019050612c3a565b50829750879550505050505092915050565b612c8d8161352b565b82525050565b612c9c81613537565b82525050565b612cab81613541565b82525050565b6000612cbc826134bd565b612cc681856134e6565b9350612cd68185602086016135d7565b612cdf8161360c565b840191505092915050565b6000612cf5826134bd565b612cff81856134f7565b9350612d0f8185602086016135d7565b612d188161360c565b840191505092915050565b612d2c816135a4565b82525050565b6000612d3f602783613508565b91507f556265737761704c5056657269666965723a20696e76616c6964206661726d2060008301527f61646472657373000000000000000000000000000000000000000000000000006020830152604082019050919050565b6000612da5603183613508565b91507f556265737761704c5056657269666965723a20706f7274696f6e206d7573742060008301527f62652067726561746572207468616e20300000000000000000000000000000006020830152604082019050919050565b6000612e0b602883613508565b91507f556265737761704c5056657269666965723a20696e76616c6964206661726d2060008301527f666f7220706169720000000000000000000000000000000000000000000000006020830152604082019050919050565b6000612e71601283613508565b91507f42617365556265737761704164617074657200000000000000000000000000006000830152602082019050919050565b6000612eb1602783613508565b91507f556265737761704c5056657269666965723a20696e76616c696420706169722060008301527f61646472657373000000000000000000000000000000000000000000000000006020830152604082019050919050565b6000612f17602783613508565b91507f556265737761704c5056657269666965723a20696e76616c696420706f6f6c2060008301527f61646472657373000000000000000000000000000000000000000000000000006020830152604082019050919050565b6000612f7d602283613508565b91507f556265737761704c5056657269666965723a20696e76616c696420616464726560008301527f73730000000000000000000000000000000000000000000000000000000000006020830152604082019050919050565b6000612fe3602b83613508565b91507f455243323056657269666965723a20756e737570706f72746564207370656e6460008301527f657220617070726f76616c0000000000000000000000000000000000000000006020830152604082019050919050565b6000613049600c83613508565b91507f417373657448616e646c657200000000000000000000000000000000000000006000830152602082019050919050565b6000613089602883613508565b91507f556265737761704c5056657269666965723a20696e76616c696420617373657460008301527f20616464726573730000000000000000000000000000000000000000000000006020830152604082019050919050565b60006040830160008301516130fa6000860182612bf1565b50602083015184820360208601526131128282612cb1565b9150508091505092915050565b6131288161358d565b82525050565b60006020820190506131436000830184612c00565b92915050565b600060608201905061315e6000830186612c00565b61316b6020830185612c00565b613178604083018461311f565b949350505050565b60006080820190506131956000830187612c00565b6131a26020830186612c00565b6131af604083018561311f565b6131bc606083018461311f565b95945050505050565b60006060820190506131da6000830186612c00565b6131e7602083018561311f565b81810360408301526131f98184612c0f565b9050949350505050565b60006020820190506132186000830184612c84565b92915050565b60006020820190506132336000830184612c93565b92915050565b600060208201905061324e6000830184612ca2565b92915050565b6000602082019050818103600083015261326e8184612cea565b905092915050565b600060208201905061328b6000830184612d23565b92915050565b600060208201905081810360008301526132aa81612d32565b9050919050565b600060208201905081810360008301526132ca81612d98565b9050919050565b600060208201905081810360008301526132ea81612dfe565b9050919050565b6000602082019050818103600083015261330a81612e64565b9050919050565b6000602082019050818103600083015261332a81612ea4565b9050919050565b6000602082019050818103600083015261334a81612f0a565b9050919050565b6000602082019050818103600083015261336a81612f70565b9050919050565b6000602082019050818103600083015261338a81612fd6565b9050919050565b600060208201905081810360008301526133aa8161303c565b9050919050565b600060208201905081810360008301526133ca8161307c565b9050919050565b60006020820190506133e6600083018461311f565b92915050565b6000604082019050613401600083018561311f565b61340e602083018461311f565b9392505050565b6000604051905081810181811067ffffffffffffffff8211171561343c5761343b61360a565b5b8060405250919050565b600067ffffffffffffffff8211156134615761346061360a565b5b602082029050602081019050919050565b600067ffffffffffffffff82111561348d5761348c61360a565b5b601f19601f8301169050602081019050919050565b6000819050602082019050919050565b600081519050919050565b600081519050919050565b6000602082019050919050565b600082825260208201905092915050565b600082825260208201905092915050565b600082825260208201905092915050565b600082825260208201905092915050565b60006135248261356d565b9050919050565b60008115159050919050565b6000819050919050565b60007fffffffff0000000000000000000000000000000000000000000000000000000082169050919050565b600073ffffffffffffffffffffffffffffffffffffffff82169050919050565b6000819050919050565b600060ff82169050919050565b60006135af826135b6565b9050919050565b60006135c18261356d565b9050919050565b82818337600083830152505050565b60005b838110156135f55780820151818401526020810190506135da565b83811115613604576000848401525b50505050565bfe5b6000601f19601f8301169050919050565b61362681613519565b811461363157600080fd5b50565b61363d8161352b565b811461364857600080fd5b50565b61365481613537565b811461365f57600080fd5b50565b61366b8161358d565b811461367657600080fd5b50565b61368281613597565b811461368d57600080fd5b5056fea26469706673582212204edf731df2586f07e2ece4c3c2e98ce8efed19cb8806b920edb8bf547fe650e164736f6c63430007060033",
  "immutableReferences": {},
  "source": "// SPDX-License-Identifier: MIT\r\n\r\npragma solidity >=0.7.6;\r\npragma experimental ABIEncoderV2;\r\n\r\n//Libraries\r\nimport \"../../libraries/TxDataUtils.sol\";\r\nimport \"../../libraries/SafeMath.sol\";\r\n\r\n//Inheritance\r\nimport \"./ERC20Verifier.sol\";\r\nimport \"../../Ownable.sol\";\r\n\r\n//Internal references\r\nimport \"../../interfaces/IAddressResolver.sol\";\r\nimport \"../../interfaces/IAssetHandler.sol\";\r\nimport \"../../interfaces/IERC20.sol\";\r\nimport \"../../interfaces/IBaseUbeswapAdapter.sol\";\r\nimport \"../../interfaces/Ubeswap/IStakingRewards.sol\";\r\n\r\ncontract UbeswapLPVerifier is ERC20Verifier, Ownable {\r\n    using SafeMath for uint;\r\n\r\n    IAddressResolver public ADDRESS_RESOLVER;\r\n\r\n    mapping (address => address) public ubeswapFarms;\r\n\r\n    constructor(IAddressResolver addressResolver) Ownable() {\r\n        ADDRESS_RESOLVER = addressResolver;\r\n    }\r\n\r\n    /* ========== VIEWS ========== */\r\n\r\n    /**\r\n    * @dev Creates transaction data for withdrawing tokens\r\n    * @param pool Address of the pool\r\n    * @param asset Address of the asset\r\n    * @param portion Portion of the pool's balance in the asset\r\n    * @param to Recipient's address\r\n    * @return (address, uint, MultiTransaction[]) Withdrawn asset, amount of asset withdrawn, and transactions used to execute the withdrawal\r\n    */\r\n    function prepareWithdrawal(address pool, address asset, uint portion, address to) public view override returns (address, uint, MultiTransaction[] memory transactions) {\r\n        require(pool != address(0), \"UbeswapLPVerifier: invalid pool address\");\r\n        require(asset != address(0), \"UbeswapLPVerifier: invalid asset address\");\r\n        require(to != address(0), \"UbeswapLPVerifier: invalid address\");\r\n        require(portion > 0, \"UbeswapLPVerifier: portion must be greater than 0\");\r\n\r\n        uint poolBalance = IERC20(asset).balanceOf(pool);\r\n        uint withdrawBalance = poolBalance.mul(portion).div(10**18);\r\n        uint stakedBalance = IStakingRewards(ubeswapFarms[asset]).balanceOf(pool);\r\n\r\n        //Prepare transaction data\r\n        if (stakedBalance > 0)\r\n        {\r\n            uint stakedWithdrawBalance = stakedBalance.mul(portion).div(10**18);\r\n            transactions = new MultiTransaction[](1);\r\n            transactions[0].to = ubeswapFarms[asset];\r\n            transactions[0].txData = abi.encodeWithSelector(bytes4(keccak256(\"withdraw(uint256)\")), stakedWithdrawBalance);\r\n        }\r\n\r\n        return (asset, withdrawBalance, transactions);\r\n    }\r\n\r\n    /**\r\n    * @dev Returns the pool's balance in the asset\r\n    * @notice May included staked balance in external contracts\r\n    * @param pool Address of the pool\r\n    * @param asset Address of the asset\r\n    * @return uint Pool's balance in the asset\r\n    */\r\n    function getBalance(address pool, address asset) public view override returns (uint) {\r\n        require(pool != address(0), \"UbeswapLPVerifier: invalid pool address\");\r\n        require(asset != address(0), \"UbeswapLPVerifier: invalid asset address\");\r\n\r\n        uint poolBalance = IERC20(asset).balanceOf(pool);\r\n        uint stakedBalance = IStakingRewards(ubeswapFarms[asset]).balanceOf(pool);\r\n\r\n        return poolBalance.add(stakedBalance);\r\n    }\r\n\r\n    /* ========== RESTRICTED FUNCTIONS ========== */\r\n\r\n    /**\r\n    * @dev Initializes the contract's available Ubeswap farms\r\n    * @notice Meant to be called by contract owner\r\n    */\r\n    function initializeFarms() external onlyOwner {\r\n        address baseUbeswapAdapterAddress = ADDRESS_RESOLVER.getContractAddress(\"BaseUbeswapAdapter\");\r\n\r\n        address[] memory availableFarms = IBaseUbeswapAdapter(baseUbeswapAdapterAddress).getAvailableUbeswapFarms();\r\n        for (uint i = 0; i < availableFarms.length; i++)\r\n        {\r\n            address pair = IStakingRewards(availableFarms[i]).stakingToken();\r\n            ubeswapFarms[pair] = availableFarms[i];\r\n        }\r\n\r\n        emit InitializedFarms(availableFarms.length, block.timestamp);\r\n    }\r\n\r\n    /**\r\n    * @dev Updates the farm address for the pair\r\n    * @notice Meant to be called by contract owner\r\n    * @param pair Address of pair on Ubeswap\r\n    * @param farmAddress Address of farm on Ubeswap\r\n    */\r\n    function setFarmAddress(address pair, address farmAddress) external onlyOwner {\r\n        require(pair != address(0), \"UbeswapLPVerifier: invalid pair address\");\r\n        require(farmAddress != address(0), \"UbeswapLPVerifier: invalid farm address\");\r\n        \r\n        address baseUbeswapAdapterAddress = ADDRESS_RESOLVER.getContractAddress(\"BaseUbeswapAdapter\");\r\n        require(pair == IBaseUbeswapAdapter(baseUbeswapAdapterAddress).checkIfFarmExists(farmAddress), \"UbeswapLPVerifier: invalid farm for pair\");\r\n\r\n        ubeswapFarms[pair] = farmAddress;\r\n\r\n        emit UpdatedFarmAddress(pair, farmAddress, block.timestamp);\r\n    }\r\n\r\n    /* ========== EVENTS ========== */\r\n\r\n    event InitializedFarms(uint numberOfFarms, uint timestamp);\r\n    event UpdatedFarmAddress(address pair, address farmAddress, uint timestamp);\r\n}",
  "sourcePath": "C:/Users/xavie/OneDrive/Desktop/TradeGen/Github/tradegen-protocol/contracts/verifiers/assetVerifiers/UbeswapLPVerifier.sol",
  "compiler": {
    "name": "solc",
    "version": "0.7.6+commit.7338295f.Emscripten.clang"
  },
  "schemaVersion": "3.4.1",
  "updatedAt": "2021-08-17T23:05:06.148Z",
  "devdoc": {
    "kind": "dev",
    "methods": {
      "getBalance(address,address)": {
        "details": "Returns the pool's balance in the asset",
        "params": {
          "asset": "Address of the asset",
          "pool": "Address of the pool"
        },
        "returns": {
          "_0": "uint Pool's balance in the asset"
        }
      },
      "getDecimals(address)": {
        "details": "Returns the decimals of the asset",
        "params": {
          "asset": "Address of the asset"
        },
        "returns": {
          "_0": "uint Asset's number of decimals"
        }
      },
      "initializeFarms()": {
        "details": "Initializes the contract's available Ubeswap farms"
      },
      "isOwner()": {
        "returns": {
          "_0": "true if `msg.sender` is the owner of the contract."
        }
      },
      "owner()": {
        "returns": {
          "_0": "the address of the owner."
        }
      },
      "prepareWithdrawal(address,address,uint256,address)": {
        "details": "Creates transaction data for withdrawing tokens",
        "params": {
          "asset": "Address of the asset",
          "pool": "Address of the pool",
          "portion": "Portion of the pool's balance in the asset",
          "to": "Recipient's address"
        },
        "returns": {
          "_0": "(address, uint, MultiTransaction[]) Withdrawn asset, amount of asset withdrawn, and transactions used to execute the withdrawal"
        }
      },
      "renounceOwnership()": {
        "details": "Allows the current owner to relinquish control of the contract."
      },
      "setFarmAddress(address,address)": {
        "details": "Updates the farm address for the pair",
        "params": {
          "farmAddress": "Address of farm on Ubeswap",
          "pair": "Address of pair on Ubeswap"
        }
      },
      "transferOwnership(address)": {
        "details": "Allows the current owner to transfer control of the contract to a newOwner.",
        "params": {
          "newOwner": "The address to transfer ownership to."
        }
      },
      "verify(address,address,address,bytes)": {
        "details": "Parses the transaction data to make sure the transaction is valid",
        "params": {
          "addressResolver": "Address of AddressResolver contract",
          "data": "Transaction call data",
          "pool": "Address of the pool"
        },
        "returns": {
          "_0": "uint Type of the asset"
        }
      }
    },
    "version": 1
  },
  "userdoc": {
    "kind": "user",
    "methods": {
      "getBalance(address,address)": {
        "notice": "May included staked balance in external contracts"
      },
      "initializeFarms()": {
        "notice": "Meant to be called by contract owner"
      },
      "renounceOwnership()": {
        "notice": "Renouncing to ownership will leave the contract without an owner. It will not be possible to call the functions with the `onlyOwner` modifier anymore."
      },
      "setFarmAddress(address,address)": {
        "notice": "Meant to be called by contract owner"
      }
    },
    "version": 1
  }
}