{
  "contractName": "UbeswapLPVerifier",
  "abi": [
    {
      "inputs": [
        {
          "internalType": "contract IAddressResolver",
          "name": "addressResolver",
          "type": "address"
        }
      ],
      "stateMutability": "nonpayable",
      "type": "constructor"
    },
    {
      "anonymous": false,
      "inputs": [
        {
          "indexed": false,
          "internalType": "address",
          "name": "pool",
          "type": "address"
        },
        {
          "indexed": false,
          "internalType": "address",
          "name": "spender",
          "type": "address"
        },
        {
          "indexed": false,
          "internalType": "uint256",
          "name": "amount",
          "type": "uint256"
        },
        {
          "indexed": false,
          "internalType": "uint256",
          "name": "timestamp",
          "type": "uint256"
        }
      ],
      "name": "Approve",
      "type": "event"
    },
    {
      "anonymous": false,
      "inputs": [
        {
          "indexed": false,
          "internalType": "address",
          "name": "fundAddress",
          "type": "address"
        },
        {
          "indexed": false,
          "internalType": "address",
          "name": "sourceAsset",
          "type": "address"
        },
        {
          "indexed": false,
          "internalType": "uint256",
          "name": "sourceAmount",
          "type": "uint256"
        },
        {
          "indexed": false,
          "internalType": "address",
          "name": "destinationAsset",
          "type": "address"
        },
        {
          "indexed": false,
          "internalType": "uint256",
          "name": "timestamp",
          "type": "uint256"
        }
      ],
      "name": "ExchangeFrom",
      "type": "event"
    },
    {
      "anonymous": false,
      "inputs": [
        {
          "indexed": false,
          "internalType": "uint256",
          "name": "numberOfFarms",
          "type": "uint256"
        },
        {
          "indexed": false,
          "internalType": "address[]",
          "name": "pairs",
          "type": "address[]"
        },
        {
          "indexed": false,
          "internalType": "uint256",
          "name": "timestamp",
          "type": "uint256"
        }
      ],
      "name": "InitializedFarms",
      "type": "event"
    },
    {
      "anonymous": false,
      "inputs": [
        {
          "indexed": true,
          "internalType": "address",
          "name": "previousOwner",
          "type": "address"
        },
        {
          "indexed": true,
          "internalType": "address",
          "name": "newOwner",
          "type": "address"
        }
      ],
      "name": "OwnershipTransferred",
      "type": "event"
    },
    {
      "anonymous": false,
      "inputs": [
        {
          "indexed": false,
          "internalType": "address",
          "name": "pair",
          "type": "address"
        },
        {
          "indexed": false,
          "internalType": "address",
          "name": "farmAddress",
          "type": "address"
        },
        {
          "indexed": false,
          "internalType": "address",
          "name": "rewardToken",
          "type": "address"
        },
        {
          "indexed": false,
          "internalType": "uint256",
          "name": "timestamp",
          "type": "uint256"
        }
      ],
      "name": "UpdatedFarmAddress",
      "type": "event"
    },
    {
      "inputs": [],
      "name": "ADDRESS_RESOLVER",
      "outputs": [
        {
          "internalType": "contract IAddressResolver",
          "name": "",
          "type": "address"
        }
      ],
      "stateMutability": "view",
      "type": "function"
    },
    {
      "inputs": [
        {
          "internalType": "bytes32",
          "name": "data",
          "type": "bytes32"
        }
      ],
      "name": "convert32toAddress",
      "outputs": [
        {
          "internalType": "address",
          "name": "o",
          "type": "address"
        }
      ],
      "stateMutability": "pure",
      "type": "function"
    },
    {
      "inputs": [
        {
          "internalType": "bytes",
          "name": "data",
          "type": "bytes"
        },
        {
          "internalType": "uint8",
          "name": "inputNum",
          "type": "uint8"
        },
        {
          "internalType": "uint8",
          "name": "arrayIndex",
          "type": "uint8"
        }
      ],
      "name": "getArrayIndex",
      "outputs": [
        {
          "internalType": "bytes32",
          "name": "",
          "type": "bytes32"
        }
      ],
      "stateMutability": "pure",
      "type": "function"
    },
    {
      "inputs": [
        {
          "internalType": "bytes",
          "name": "data",
          "type": "bytes"
        },
        {
          "internalType": "uint8",
          "name": "inputNum",
          "type": "uint8"
        }
      ],
      "name": "getArrayLast",
      "outputs": [
        {
          "internalType": "bytes32",
          "name": "",
          "type": "bytes32"
        }
      ],
      "stateMutability": "pure",
      "type": "function"
    },
    {
      "inputs": [
        {
          "internalType": "bytes",
          "name": "data",
          "type": "bytes"
        },
        {
          "internalType": "uint8",
          "name": "inputNum",
          "type": "uint8"
        }
      ],
      "name": "getArrayLength",
      "outputs": [
        {
          "internalType": "uint256",
          "name": "",
          "type": "uint256"
        }
      ],
      "stateMutability": "pure",
      "type": "function"
    },
    {
      "inputs": [
        {
          "internalType": "bytes",
          "name": "data",
          "type": "bytes"
        },
        {
          "internalType": "uint8",
          "name": "inputNum",
          "type": "uint8"
        },
        {
          "internalType": "uint256",
          "name": "offset",
          "type": "uint256"
        }
      ],
      "name": "getBytes",
      "outputs": [
        {
          "internalType": "bytes",
          "name": "",
          "type": "bytes"
        }
      ],
      "stateMutability": "pure",
      "type": "function"
    },
    {
      "inputs": [
        {
          "internalType": "address",
          "name": "asset",
          "type": "address"
        }
      ],
      "name": "getDecimals",
      "outputs": [
        {
          "internalType": "uint256",
          "name": "",
          "type": "uint256"
        }
      ],
      "stateMutability": "view",
      "type": "function"
    },
    {
      "inputs": [
        {
          "internalType": "bytes",
          "name": "data",
          "type": "bytes"
        },
        {
          "internalType": "uint8",
          "name": "inputNum",
          "type": "uint8"
        }
      ],
      "name": "getInput",
      "outputs": [
        {
          "internalType": "bytes32",
          "name": "",
          "type": "bytes32"
        }
      ],
      "stateMutability": "pure",
      "type": "function"
    },
    {
      "inputs": [
        {
          "internalType": "bytes",
          "name": "data",
          "type": "bytes"
        }
      ],
      "name": "getMethod",
      "outputs": [
        {
          "internalType": "bytes4",
          "name": "",
          "type": "bytes4"
        }
      ],
      "stateMutability": "pure",
      "type": "function"
    },
    {
      "inputs": [
        {
          "internalType": "bytes",
          "name": "data",
          "type": "bytes"
        }
      ],
      "name": "getParams",
      "outputs": [
        {
          "internalType": "bytes",
          "name": "",
          "type": "bytes"
        }
      ],
      "stateMutability": "pure",
      "type": "function"
    },
    {
      "inputs": [],
      "name": "isOwner",
      "outputs": [
        {
          "internalType": "bool",
          "name": "",
          "type": "bool"
        }
      ],
      "stateMutability": "view",
      "type": "function"
    },
    {
      "inputs": [],
      "name": "owner",
      "outputs": [
        {
          "internalType": "address",
          "name": "",
          "type": "address"
        }
      ],
      "stateMutability": "view",
      "type": "function"
    },
    {
      "inputs": [
        {
          "internalType": "bytes",
          "name": "data",
          "type": "bytes"
        },
        {
          "internalType": "uint256",
          "name": "offset",
          "type": "uint256"
        },
        {
          "internalType": "uint256",
          "name": "length",
          "type": "uint256"
        }
      ],
      "name": "read32",
      "outputs": [
        {
          "internalType": "bytes32",
          "name": "o",
          "type": "bytes32"
        }
      ],
      "stateMutability": "pure",
      "type": "function"
    },
    {
      "inputs": [
        {
          "internalType": "bytes",
          "name": "data",
          "type": "bytes"
        },
        {
          "internalType": "uint256",
          "name": "offset",
          "type": "uint256"
        }
      ],
      "name": "read4left",
      "outputs": [
        {
          "internalType": "bytes4",
          "name": "o",
          "type": "bytes4"
        }
      ],
      "stateMutability": "pure",
      "type": "function"
    },
    {
      "inputs": [],
      "name": "renounceOwnership",
      "outputs": [],
      "stateMutability": "nonpayable",
      "type": "function"
    },
    {
      "inputs": [
        {
          "internalType": "address",
          "name": "",
          "type": "address"
        }
      ],
      "name": "rewardTokens",
      "outputs": [
        {
          "internalType": "address",
          "name": "",
          "type": "address"
        }
      ],
      "stateMutability": "view",
      "type": "function"
    },
    {
      "inputs": [
        {
          "internalType": "address",
          "name": "",
          "type": "address"
        }
      ],
      "name": "stakingTokens",
      "outputs": [
        {
          "internalType": "address",
          "name": "",
          "type": "address"
        }
      ],
      "stateMutability": "view",
      "type": "function"
    },
    {
      "inputs": [
        {
          "internalType": "address",
          "name": "newOwner",
          "type": "address"
        }
      ],
      "name": "transferOwnership",
      "outputs": [],
      "stateMutability": "nonpayable",
      "type": "function"
    },
    {
      "inputs": [
        {
          "internalType": "address",
          "name": "",
          "type": "address"
        }
      ],
      "name": "ubeswapFarms",
      "outputs": [
        {
          "internalType": "address",
          "name": "",
          "type": "address"
        }
      ],
      "stateMutability": "view",
      "type": "function"
    },
    {
      "inputs": [
        {
          "internalType": "address",
          "name": "addressResolver",
          "type": "address"
        },
        {
          "internalType": "address",
          "name": "pool",
          "type": "address"
        },
        {
          "internalType": "address",
          "name": "",
          "type": "address"
        },
        {
          "internalType": "bytes",
          "name": "data",
          "type": "bytes"
        }
      ],
      "name": "verify",
      "outputs": [
        {
          "internalType": "bool",
          "name": "",
          "type": "bool"
        },
        {
          "internalType": "address",
          "name": "",
          "type": "address"
        }
      ],
      "stateMutability": "nonpayable",
      "type": "function"
    },
    {
      "inputs": [
        {
          "internalType": "address",
          "name": "pool",
          "type": "address"
        },
        {
          "internalType": "address",
          "name": "asset",
          "type": "address"
        },
        {
          "internalType": "uint256",
          "name": "portion",
          "type": "uint256"
        }
      ],
      "name": "prepareWithdrawal",
      "outputs": [
        {
          "internalType": "address",
          "name": "",
          "type": "address"
        },
        {
          "internalType": "uint256",
          "name": "",
          "type": "uint256"
        },
        {
          "components": [
            {
              "internalType": "address",
              "name": "to",
              "type": "address"
            },
            {
              "internalType": "bytes",
              "name": "txData",
              "type": "bytes"
            }
          ],
          "internalType": "struct IAssetVerifier.MultiTransaction[]",
          "name": "transactions",
          "type": "tuple[]"
        }
      ],
      "stateMutability": "view",
      "type": "function"
    },
    {
      "inputs": [
        {
          "internalType": "address",
          "name": "pool",
          "type": "address"
        },
        {
          "internalType": "address",
          "name": "asset",
          "type": "address"
        }
      ],
      "name": "getBalance",
      "outputs": [
        {
          "internalType": "uint256",
          "name": "",
          "type": "uint256"
        }
      ],
      "stateMutability": "view",
      "type": "function"
    },
    {
      "inputs": [
        {
          "internalType": "address",
          "name": "farmAddress",
          "type": "address"
        }
      ],
      "name": "getFarmTokens",
      "outputs": [
        {
          "internalType": "address",
          "name": "",
          "type": "address"
        },
        {
          "internalType": "address",
          "name": "",
          "type": "address"
        }
      ],
      "stateMutability": "view",
      "type": "function"
    },
    {
      "inputs": [
        {
          "internalType": "address",
          "name": "pair",
          "type": "address"
        },
        {
          "internalType": "address",
          "name": "farmAddress",
          "type": "address"
        },
        {
          "internalType": "address",
          "name": "rewardToken",
          "type": "address"
        }
      ],
      "name": "setFarmAddress",
      "outputs": [],
      "stateMutability": "nonpayable",
      "type": "function"
    }
  ],
  "bytecode": "0x60806040523480156200001157600080fd5b50604051620032c7380380620032c7833981810160405281019062000037919062000151565b336000806101000a81548173ffffffffffffffffffffffffffffffffffffffff021916908373ffffffffffffffffffffffffffffffffffffffff16021790555060008054906101000a900473ffffffffffffffffffffffffffffffffffffffff1673ffffffffffffffffffffffffffffffffffffffff16600073ffffffffffffffffffffffffffffffffffffffff167f8be0079c531659141344cd1fd0a4f28419497f9722a3daafe3b4186f6b6457e060405160405180910390a380600160006101000a81548173ffffffffffffffffffffffffffffffffffffffff021916908373ffffffffffffffffffffffffffffffffffffffff16021790555050620001df565b6000815190506200014b81620001c5565b92915050565b6000602082840312156200016457600080fd5b600062000174848285016200013a565b91505092915050565b60006200018a82620001a5565b9050919050565b60006200019e826200017d565b9050919050565b600073ffffffffffffffffffffffffffffffffffffffff82169050919050565b620001d08162000191565b8114620001dc57600080fd5b50565b6130d880620001ef6000396000f3fe608060405234801561001057600080fd5b50600436106101585760003560e01c80638da5cb5b116100c3578063cf54aaa01161007c578063cf54aaa014610451578063d4fac45d14610481578063d700e164146104b1578063db896b57146104e1578063f2fde38b14610511578063f5ab16cc1461052d57610158565b80638da5cb5b146103655780638f32d59b14610383578063981f3b8e146103a157806398d04673146103bf578063998546e3146103f1578063c3c6279f1461042157610158565b806341dc16c31161011557806341dc16c31461026a57806342129a501461029a57806368901513146102ca5780636cff49de146102fa578063715018a61461032b57806382f86acc1461033557610158565b806309ff5c7d1461015d5780631053f9521461018d5780631650f6db146101bd5780631eba3077146101d9578063293d80631461020957806339158fdd14610239575b600080fd5b61017760048036038101906101729190612504565b61055d565b6040516101849190612cfc565b60405180910390f35b6101a760048036038101906101a2919061255c565b6106f6565b6040516101b49190612d32565b60405180910390f35b6101d760048036038101906101d29190612378565b61089f565b005b6101f360048036038101906101ee9190612496565b610bbc565b6040516102009190612bac565b60405180910390f35b610223600480360381019061021e9190612634565b610bc9565b6040516102309190612d17565b60405180910390f35b610253600480360381019061024e91906123c7565b610c54565b604051610261929190612cd3565b60405180910390f35b610284600480360381019061027f91906125c8565b610e54565b6040516102919190612cfc565b60405180910390f35b6102b460048036038101906102af91906122ea565b61106c565b6040516102c19190612bac565b60405180910390f35b6102e460048036038101906102df91906124bf565b61109f565b6040516102f19190612d32565b60405180910390f35b610314600480360381019061030f91906122ea565b611108565b604051610322929190612bc7565b60405180910390f35b610333611244565b005b61034f600480360381019061034a9190612504565b611313565b60405161035c9190612cfc565b60405180910390f35b61036d611377565b60405161037a9190612bac565b60405180910390f35b61038b6113a0565b6040516103989190612cb8565b60405180910390f35b6103a96113f7565b6040516103b69190612d54565b60405180910390f35b6103d960048036038101906103d49190612447565b61141d565b6040516103e893929190612c7a565b60405180910390f35b61040b60048036038101906104069190612504565b6118e8565b6040516104189190612e4f565b60405180910390f35b61043b600480360381019061043691906124bf565b6119a9565b6040516104489190612d17565b60405180910390f35b61046b600480360381019061046691906122ea565b611a02565b6040516104789190612e4f565b60405180910390f35b61049b6004803603810190610496919061233c565b611a8c565b6040516104a89190612e4f565b60405180910390f35b6104cb60048036038101906104c691906122ea565b611d03565b6040516104d89190612bac565b60405180910390f35b6104fb60048036038101906104f69190612688565b611d36565b6040516105089190612cfc565b60405180910390f35b61052b600480360381019061052691906122ea565b611dd8565b005b610547600480360381019061054291906122ea565b611df5565b6040516105549190612bac565b60405180910390f35b6000806105b985858080601f016020809104026020016040519081016040528093929190818152602001838380828437600081840152601f19601f820116905080830192505050505050506004856020020160ff166020611d36565b9050600061061386868080601f016020809104026020016040519081016040528093929190818152602001838380828437600081840152601f19601f8201169050808301925050505050505060048460001c016020611d36565b90506000801b811161068d576040517f08c379a00000000000000000000000000000000000000000000000000000000081526004018080602001828103825260128152602001807f696e707574206973206e6f74206172726179000000000000000000000000000081525060200191505060405180910390fd5b6106eb86868080601f016020809104026020016040519081016040528093929190818152602001838380828437600081840152601f19601f8201169050808301925050505050505060208360001c0260048560001c01016020611d36565b925050509392505050565b60606014821061076e576040517f08c379a000000000000000000000000000000000000000000000000000000000815260040180806020018281038252600e8152602001807f696e76616c6964206f666673657400000000000000000000000000000000000081525060200191505060405180910390fd5b60208202915060006107d186868080601f016020809104026020016040519081016040528093929190818152602001838380828437600081840152601f19601f82011690508083019250505050505050846004876020020160ff16016020611d36565b60001c9050600061082d87878080601f016020809104026020016040519081016040528093929190818152602001838380828437600081840152601f19601f820116905080830192505050505050508560048501016020611d36565b60001c90506108936020856004850101018289898080601f016020809104026020016040519081016040528093929190818152602001838380828437600081840152601f19601f82011690508083019250505050505050611e289092919063ffffffff16565b92505050949350505050565b6108a76113a0565b6108b057600080fd5b600073ffffffffffffffffffffffffffffffffffffffff168373ffffffffffffffffffffffffffffffffffffffff161415610920576040517f08c379a000000000000000000000000000000000000000000000000000000000815260040161091790612daf565b60405180910390fd5b600073ffffffffffffffffffffffffffffffffffffffff168273ffffffffffffffffffffffffffffffffffffffff161415610990576040517f08c379a000000000000000000000000000000000000000000000000000000000815260040161098790612d6f565b60405180910390fd5b600073ffffffffffffffffffffffffffffffffffffffff168173ffffffffffffffffffffffffffffffffffffffff161415610a00576040517f08c379a00000000000000000000000000000000000000000000000000000000081526004016109f790612e0f565b60405180910390fd5b81600260008573ffffffffffffffffffffffffffffffffffffffff1673ffffffffffffffffffffffffffffffffffffffff16815260200190815260200160002060006101000a81548173ffffffffffffffffffffffffffffffffffffffff021916908373ffffffffffffffffffffffffffffffffffffffff16021790555082600360008473ffffffffffffffffffffffffffffffffffffffff1673ffffffffffffffffffffffffffffffffffffffff16815260200190815260200160002060006101000a81548173ffffffffffffffffffffffffffffffffffffffff021916908373ffffffffffffffffffffffffffffffffffffffff16021790555080600460008473ffffffffffffffffffffffffffffffffffffffff1673ffffffffffffffffffffffffffffffffffffffff16815260200190815260200160002060006101000a81548173ffffffffffffffffffffffffffffffffffffffff021916908373ffffffffffffffffffffffffffffffffffffffff1602179055507f1f7f7e0e8e7e28dba29ba09dbc74e81033ffb34f33c0499da56eeeb723416fe783838342604051610baf9493929190612bf0565b60405180910390a1505050565b60008160001c9050919050565b60006004820183511015610c45576040517f08c379a000000000000000000000000000000000000000000000000000000000815260040180806020018281038252601b8152602001807f52656164696e67206279746573206f7574206f6620626f756e6473000000000081525060200191505060405180910390fd5b81602001830151905092915050565b6000806000610c6385856119a9565b90507f095ea7b334ae44009aa867bfb386f5c3b4b443ac6f0ee573fa91c4608fbadfba7bffffffffffffffffffffffffffffffffffffffffffffffffffffffff1916817bffffffffffffffffffffffffffffffffffffffffffffffffffffffff19161415610e41576000610ce1610cdc87876000611313565b610bbc565b90506000610cf187876001611313565b60001c905060008a73ffffffffffffffffffffffffffffffffffffffff16632febaebd846040518263ffffffff1660e01b8152600401610d319190612bac565b60206040518083038186803b158015610d4957600080fd5b505afa158015610d5d573d6000803e3d6000fd5b505050506040513d601f19601f82011682018060405250810190610d819190612313565b9050600073ffffffffffffffffffffffffffffffffffffffff168173ffffffffffffffffffffffffffffffffffffffff161415610df3576040517f08c379a0000000000000000000000000000000000000000000000000000000008152600401610dea90612def565b60405180910390fd5b7f8c287cb9c6b85cc52f4e58fb0c3f906c19db890e7288d3bfcfb6a9a66a5d33448a848442604051610e289493929190612c35565b60405180910390a1600160009550955050505050610e4a565b60008092509250505b9550959350505050565b600080610eb086868080601f016020809104026020016040519081016040528093929190818152602001838380828437600081840152601f19601f820116905080830192505050505050506004866020020160ff166020611d36565b90506000610f0a87878080601f016020809104026020016040519081016040528093929190818152602001838380828437600081840152601f19601f8201169050808301925050505050505060048460001c016020611d36565b90506000801b8111610f84576040517f08c379a00000000000000000000000000000000000000000000000000000000081526004018080602001828103825260128152602001807f696e707574206973206e6f74206172726179000000000000000000000000000081525060200191505060405180910390fd5b8360ff168160001c11610fff576040517f08c379a00000000000000000000000000000000000000000000000000000000081526004018080602001828103825260168152602001807f696e76616c696420617272617920706f736974696f6e0000000000000000000081525060200191505060405180910390fd5b61106087878080601f016020809104026020016040519081016040528093929190818152602001838380828437600081840152601f19601f8201169050808301925050505050505060208660ff166001010260048560001c01016020611d36565b92505050949350505050565b60036020528060005260406000206000915054906101000a900473ffffffffffffffffffffffffffffffffffffffff1681565b6060611100600480858590500385858080601f016020809104026020016040519081016040528093929190818152602001838380828437600081840152601f19601f82011690508083019250505050505050611e289092919063ffffffff16565b905092915050565b600080600073ffffffffffffffffffffffffffffffffffffffff168373ffffffffffffffffffffffffffffffffffffffff16141561117b576040517f08c379a000000000000000000000000000000000000000000000000000000000815260040161117290612d6f565b60405180910390fd5b600360008473ffffffffffffffffffffffffffffffffffffffff1673ffffffffffffffffffffffffffffffffffffffff16815260200190815260200160002060009054906101000a900473ffffffffffffffffffffffffffffffffffffffff16600460008573ffffffffffffffffffffffffffffffffffffffff1673ffffffffffffffffffffffffffffffffffffffff16815260200190815260200160002060009054906101000a900473ffffffffffffffffffffffffffffffffffffffff1691509150915091565b61124c6113a0565b61125557600080fd5b600073ffffffffffffffffffffffffffffffffffffffff1660008054906101000a900473ffffffffffffffffffffffffffffffffffffffff1673ffffffffffffffffffffffffffffffffffffffff167f8be0079c531659141344cd1fd0a4f28419497f9722a3daafe3b4186f6b6457e060405160405180910390a360008060006101000a81548173ffffffffffffffffffffffffffffffffffffffff021916908373ffffffffffffffffffffffffffffffffffffffff160217905550565b600061136e84848080601f016020809104026020016040519081016040528093929190818152602001838380828437600081840152601f19601f820116905080830192505050505050506004846020020160ff166020611d36565b90509392505050565b60008060009054906101000a900473ffffffffffffffffffffffffffffffffffffffff16905090565b60008060009054906101000a900473ffffffffffffffffffffffffffffffffffffffff1673ffffffffffffffffffffffffffffffffffffffff163373ffffffffffffffffffffffffffffffffffffffff1614905090565b600160009054906101000a900473ffffffffffffffffffffffffffffffffffffffff1681565b6000806060600073ffffffffffffffffffffffffffffffffffffffff168673ffffffffffffffffffffffffffffffffffffffff161415611492576040517f08c379a000000000000000000000000000000000000000000000000000000000815260040161148990612dcf565b60405180910390fd5b600073ffffffffffffffffffffffffffffffffffffffff168573ffffffffffffffffffffffffffffffffffffffff161415611502576040517f08c379a00000000000000000000000000000000000000000000000000000000081526004016114f990612e2f565b60405180910390fd5b60008411611545576040517f08c379a000000000000000000000000000000000000000000000000000000000815260040161153c90612d8f565b60405180910390fd5b60008573ffffffffffffffffffffffffffffffffffffffff166370a08231886040518263ffffffff1660e01b81526004016115809190612bac565b60206040518083038186803b15801561159857600080fd5b505afa1580156115ac573d6000803e3d6000fd5b505050506040513d601f19601f820116820180604052508101906115d091906126ef565b90506000611601670de0b6b3a76400006115f3888561201290919063ffffffff16565b61204990919063ffffffff16565b90506000600260008973ffffffffffffffffffffffffffffffffffffffff1673ffffffffffffffffffffffffffffffffffffffff16815260200190815260200160002060009054906101000a900473ffffffffffffffffffffffffffffffffffffffff1673ffffffffffffffffffffffffffffffffffffffff166370a082318a6040518263ffffffff1660e01b815260040161169d9190612bac565b60206040518083038186803b1580156116b557600080fd5b505afa1580156116c9573d6000803e3d6000fd5b505050506040513d601f19601f820116820180604052508101906116ed91906126ef565b905060008111156118d6576000611727670de0b6b3a76400006117198a8561201290919063ffffffff16565b61204990919063ffffffff16565b9050600167ffffffffffffffff8111801561174157600080fd5b5060405190808252806020026020018201604052801561177b57816020015b611768612175565b8152602001906001900390816117605790505b509450600260008a73ffffffffffffffffffffffffffffffffffffffff1673ffffffffffffffffffffffffffffffffffffffff16815260200190815260200160002060009054906101000a900473ffffffffffffffffffffffffffffffffffffffff16856000815181106117eb57fe5b60200260200101516000019073ffffffffffffffffffffffffffffffffffffffff16908173ffffffffffffffffffffffffffffffffffffffff16815250507f2e1a7d4d13322e7b96f9a57413e1525c250fb7a9021cf91d1540d5b69f16a49f8160405160240161185b9190612e4f565b604051602081830303815290604052907bffffffffffffffffffffffffffffffffffffffffffffffffffffffff19166020820180517bffffffffffffffffffffffffffffffffffffffffffffffffffffffff8381831617835250505050856000815181106118c557fe5b602002602001015160200181905250505b87829550955050505093509350939050565b60008061194485858080601f016020809104026020016040519081016040528093929190818152602001838380828437600081840152601f19601f820116905080830192505050505050506004856020020160ff166020611d36565b905061199c85858080601f016020809104026020016040519081016040528093929190818152602001838380828437600081840152601f19601f8201169050808301925050505050505060048360001c016020611d36565b60001c9150509392505050565b60006119fa83838080601f016020809104026020016040519081016040528093929190818152602001838380828437600081840152601f19601f820116905080830192505050505050506000610bc9565b905092915050565b60008173ffffffffffffffffffffffffffffffffffffffff1663313ce5676040518163ffffffff1660e01b815260040160206040518083038186803b158015611a4a57600080fd5b505afa158015611a5e573d6000803e3d6000fd5b505050506040513d601f19601f82011682018060405250810190611a829190612718565b60ff169050919050565b60008073ffffffffffffffffffffffffffffffffffffffff168373ffffffffffffffffffffffffffffffffffffffff161415611afd576040517f08c379a0000000000000000000000000000000000000000000000000000000008152600401611af490612dcf565b60405180910390fd5b600073ffffffffffffffffffffffffffffffffffffffff168273ffffffffffffffffffffffffffffffffffffffff161415611b6d576040517f08c379a0000000000000000000000000000000000000000000000000000000008152600401611b6490612e2f565b60405180910390fd5b60008273ffffffffffffffffffffffffffffffffffffffff166370a08231856040518263ffffffff1660e01b8152600401611ba89190612bac565b60206040518083038186803b158015611bc057600080fd5b505afa158015611bd4573d6000803e3d6000fd5b505050506040513d601f19601f82011682018060405250810190611bf891906126ef565b90506000600260008573ffffffffffffffffffffffffffffffffffffffff1673ffffffffffffffffffffffffffffffffffffffff16815260200190815260200160002060009054906101000a900473ffffffffffffffffffffffffffffffffffffffff1673ffffffffffffffffffffffffffffffffffffffff166370a08231866040518263ffffffff1660e01b8152600401611c949190612bac565b60206040518083038186803b158015611cac57600080fd5b505afa158015611cc0573d6000803e3d6000fd5b505050506040513d601f19601f82011682018060405250810190611ce491906126ef565b9050611cf9818361206290919063ffffffff16565b9250505092915050565b60026020528060005260406000206000915054906101000a900473ffffffffffffffffffffffffffffffffffffffff1681565b600081830184511015611db1576040517f08c379a000000000000000000000000000000000000000000000000000000000815260040180806020018281038252601b8152602001807f52656164696e67206279746573206f7574206f6620626f756e6473000000000081525060200191505060405180910390fd5b826020018401519050816020038015611dd0576008810260020a820491505b509392505050565b611de06113a0565b611de957600080fd5b611df28161207e565b50565b60046020528060005260406000206000915054906101000a900473ffffffffffffffffffffffffffffffffffffffff1681565b606081601f83011015611ea3576040517f08c379a000000000000000000000000000000000000000000000000000000000815260040180806020018281038252600e8152602001807f736c6963655f6f766572666c6f7700000000000000000000000000000000000081525060200191505060405180910390fd5b828284011015611f1b576040517f08c379a000000000000000000000000000000000000000000000000000000000815260040180806020018281038252600e8152602001807f736c6963655f6f766572666c6f7700000000000000000000000000000000000081525060200191505060405180910390fd5b81830184511015611f94576040517f08c379a00000000000000000000000000000000000000000000000000000000081526004018080602001828103825260118152602001807f736c6963655f6f75744f66426f756e647300000000000000000000000000000081525060200191505060405180910390fd5b6060821560008114611fb55760405191506000825260208201604052612006565b6040519150601f8416801560200281840101858101878315602002848b0101015b81831015611ff35780518352602083019250602081019050611fd6565b50868552601f19601f8301166040525050505b50809150509392505050565b6000808314156120255760009050612043565b600082840290508284828161203657fe5b041461203e57fe5b809150505b92915050565b60008082848161205557fe5b0490508091505092915050565b60008082840190508381101561207457fe5b8091505092915050565b600073ffffffffffffffffffffffffffffffffffffffff168173ffffffffffffffffffffffffffffffffffffffff1614156120b857600080fd5b8073ffffffffffffffffffffffffffffffffffffffff1660008054906101000a900473ffffffffffffffffffffffffffffffffffffffff1673ffffffffffffffffffffffffffffffffffffffff167f8be0079c531659141344cd1fd0a4f28419497f9722a3daafe3b4186f6b6457e060405160405180910390a3806000806101000a81548173ffffffffffffffffffffffffffffffffffffffff021916908373ffffffffffffffffffffffffffffffffffffffff16021790555050565b6040518060400160405280600073ffffffffffffffffffffffffffffffffffffffff168152602001606081525090565b60006121b86121b384612e9b565b612e6a565b9050828152602081018484840111156121d057600080fd5b6121db848285612ff1565b509392505050565b6000813590506121f281613046565b92915050565b60008151905061220781613046565b92915050565b60008135905061221c8161305d565b92915050565b60008083601f84011261223457600080fd5b8235905067ffffffffffffffff81111561224d57600080fd5b60208301915083600182028301111561226557600080fd5b9250929050565b600082601f83011261227d57600080fd5b813561228d8482602086016121a5565b91505092915050565b6000813590506122a581613074565b92915050565b6000815190506122ba81613074565b92915050565b6000813590506122cf8161308b565b92915050565b6000815190506122e48161308b565b92915050565b6000602082840312156122fc57600080fd5b600061230a848285016121e3565b91505092915050565b60006020828403121561232557600080fd5b6000612333848285016121f8565b91505092915050565b6000806040838503121561234f57600080fd5b600061235d858286016121e3565b925050602061236e858286016121e3565b9150509250929050565b60008060006060848603121561238d57600080fd5b600061239b868287016121e3565b93505060206123ac868287016121e3565b92505060406123bd868287016121e3565b9150509250925092565b6000806000806000608086880312156123df57600080fd5b60006123ed888289016121e3565b95505060206123fe888289016121e3565b945050604061240f888289016121e3565b935050606086013567ffffffffffffffff81111561242c57600080fd5b61243888828901612222565b92509250509295509295909350565b60008060006060848603121561245c57600080fd5b600061246a868287016121e3565b935050602061247b868287016121e3565b925050604061248c86828701612296565b9150509250925092565b6000602082840312156124a857600080fd5b60006124b68482850161220d565b91505092915050565b600080602083850312156124d257600080fd5b600083013567ffffffffffffffff8111156124ec57600080fd5b6124f885828601612222565b92509250509250929050565b60008060006040848603121561251957600080fd5b600084013567ffffffffffffffff81111561253357600080fd5b61253f86828701612222565b93509350506020612552868287016122c0565b9150509250925092565b6000806000806060858703121561257257600080fd5b600085013567ffffffffffffffff81111561258c57600080fd5b61259887828801612222565b945094505060206125ab878288016122c0565b92505060406125bc87828801612296565b91505092959194509250565b600080600080606085870312156125de57600080fd5b600085013567ffffffffffffffff8111156125f857600080fd5b61260487828801612222565b94509450506020612617878288016122c0565b9250506040612628878288016122c0565b91505092959194509250565b6000806040838503121561264757600080fd5b600083013567ffffffffffffffff81111561266157600080fd5b61266d8582860161226c565b925050602061267e85828601612296565b9150509250929050565b60008060006060848603121561269d57600080fd5b600084013567ffffffffffffffff8111156126b757600080fd5b6126c38682870161226c565b93505060206126d486828701612296565b92505060406126e586828701612296565b9150509250925092565b60006020828403121561270157600080fd5b600061270f848285016122ab565b91505092915050565b60006020828403121561272a57600080fd5b6000612738848285016122d5565b91505092915050565b600061274d8383612b60565b905092915050565b61275e81612f42565b82525050565b61276d81612f42565b82525050565b600061277e82612edb565b6127888185612efe565b93508360208202850161279a85612ecb565b8060005b858110156127d657848403895281516127b78582612741565b94506127c283612ef1565b925060208a0199505060018101905061279e565b50829750879550505050505092915050565b6127f181612f54565b82525050565b61280081612f60565b82525050565b61280f81612f6a565b82525050565b600061282082612ee6565b61282a8185612f0f565b935061283a818560208601613000565b61284381613035565b840191505092915050565b600061285982612ee6565b6128638185612f20565b9350612873818560208601613000565b61287c81613035565b840191505092915050565b61289081612fcd565b82525050565b60006128a3602783612f31565b91507f556265737761704c5056657269666965723a20696e76616c6964206661726d2060008301527f61646472657373000000000000000000000000000000000000000000000000006020830152604082019050919050565b6000612909603183612f31565b91507f556265737761704c5056657269666965723a20706f7274696f6e206d7573742060008301527f62652067726561746572207468616e20300000000000000000000000000000006020830152604082019050919050565b600061296f602783612f31565b91507f556265737761704c5056657269666965723a20696e76616c696420706169722060008301527f61646472657373000000000000000000000000000000000000000000000000006020830152604082019050919050565b60006129d5602783612f31565b91507f556265737761704c5056657269666965723a20696e76616c696420706f6f6c2060008301527f61646472657373000000000000000000000000000000000000000000000000006020830152604082019050919050565b6000612a3b602b83612f31565b91507f455243323056657269666965723a20756e737570706f72746564207370656e6460008301527f657220617070726f76616c0000000000000000000000000000000000000000006020830152604082019050919050565b6000612aa1602783612f31565b91507f556265737761704c5056657269666965723a20696e76616c696420726577617260008301527f6420746f6b656e000000000000000000000000000000000000000000000000006020830152604082019050919050565b6000612b07602883612f31565b91507f556265737761704c5056657269666965723a20696e76616c696420617373657460008301527f20616464726573730000000000000000000000000000000000000000000000006020830152604082019050919050565b6000604083016000830151612b786000860182612755565b5060208301518482036020860152612b908282612815565b9150508091505092915050565b612ba681612fb6565b82525050565b6000602082019050612bc16000830184612764565b92915050565b6000604082019050612bdc6000830185612764565b612be96020830184612764565b9392505050565b6000608082019050612c056000830187612764565b612c126020830186612764565b612c1f6040830185612764565b612c2c6060830184612b9d565b95945050505050565b6000608082019050612c4a6000830187612764565b612c576020830186612764565b612c646040830185612b9d565b612c716060830184612b9d565b95945050505050565b6000606082019050612c8f6000830186612764565b612c9c6020830185612b9d565b8181036040830152612cae8184612773565b9050949350505050565b6000602082019050612ccd60008301846127e8565b92915050565b6000604082019050612ce860008301856127e8565b612cf56020830184612764565b9392505050565b6000602082019050612d1160008301846127f7565b92915050565b6000602082019050612d2c6000830184612806565b92915050565b60006020820190508181036000830152612d4c818461284e565b905092915050565b6000602082019050612d696000830184612887565b92915050565b60006020820190508181036000830152612d8881612896565b9050919050565b60006020820190508181036000830152612da8816128fc565b9050919050565b60006020820190508181036000830152612dc881612962565b9050919050565b60006020820190508181036000830152612de8816129c8565b9050919050565b60006020820190508181036000830152612e0881612a2e565b9050919050565b60006020820190508181036000830152612e2881612a94565b9050919050565b60006020820190508181036000830152612e4881612afa565b9050919050565b6000602082019050612e646000830184612b9d565b92915050565b6000604051905081810181811067ffffffffffffffff82111715612e9157612e90613033565b5b8060405250919050565b600067ffffffffffffffff821115612eb657612eb5613033565b5b601f19601f8301169050602081019050919050565b6000819050602082019050919050565b600081519050919050565b600081519050919050565b6000602082019050919050565b600082825260208201905092915050565b600082825260208201905092915050565b600082825260208201905092915050565b600082825260208201905092915050565b6000612f4d82612f96565b9050919050565b60008115159050919050565b6000819050919050565b60007fffffffff0000000000000000000000000000000000000000000000000000000082169050919050565b600073ffffffffffffffffffffffffffffffffffffffff82169050919050565b6000819050919050565b600060ff82169050919050565b6000612fd882612fdf565b9050919050565b6000612fea82612f96565b9050919050565b82818337600083830152505050565b60005b8381101561301e578082015181840152602081019050613003565b8381111561302d576000848401525b50505050565bfe5b6000601f19601f8301169050919050565b61304f81612f42565b811461305a57600080fd5b50565b61306681612f60565b811461307157600080fd5b50565b61307d81612fb6565b811461308857600080fd5b50565b61309481612fc0565b811461309f57600080fd5b5056fea26469706673582212206a44b1358ec5321c53c1deae2acc768e5edd3fcd78192892af324d4d6b1a3a6664736f6c63430007060033",
  "immutableReferences": {},
  "source": "// SPDX-License-Identifier: MIT\r\n\r\npragma solidity >=0.7.6;\r\npragma experimental ABIEncoderV2;\r\n\r\n//Libraries\r\nimport \"../../libraries/TxDataUtils.sol\";\r\nimport \"../../libraries/SafeMath.sol\";\r\n\r\n//Inheritance\r\nimport \"./ERC20Verifier.sol\";\r\nimport \"../../Ownable.sol\";\r\nimport \"../../interfaces/ILPVerifier.sol\";\r\n\r\n//Internal references\r\nimport \"../../interfaces/IAddressResolver.sol\";\r\nimport \"../../interfaces/IAssetHandler.sol\";\r\nimport \"../../interfaces/IERC20.sol\";\r\nimport \"../../interfaces/IBaseUbeswapAdapter.sol\";\r\nimport \"../../interfaces/Ubeswap/IStakingRewards.sol\";\r\n\r\ncontract UbeswapLPVerifier is ERC20Verifier, Ownable, ILPVerifier {\r\n    using SafeMath for uint;\r\n\r\n    IAddressResolver public ADDRESS_RESOLVER;\r\n\r\n    mapping (address => address) public ubeswapFarms;\r\n    mapping (address => address) public stakingTokens; //farm => pair\r\n    mapping (address => address) public rewardTokens; //farm => reward token\r\n\r\n    constructor(IAddressResolver addressResolver) Ownable() {\r\n        ADDRESS_RESOLVER = addressResolver;\r\n    }\r\n\r\n    /* ========== VIEWS ========== */\r\n\r\n    /**\r\n    * @dev Creates transaction data for withdrawing tokens\r\n    * @param pool Address of the pool\r\n    * @param asset Address of the asset\r\n    * @param portion Portion of the pool's balance in the asset\r\n    * @return (address, uint, MultiTransaction[]) Withdrawn asset, amount of asset withdrawn, and transactions used to execute the withdrawal\r\n    */\r\n    function prepareWithdrawal(address pool, address asset, uint portion) public view override returns (address, uint, MultiTransaction[] memory transactions) {\r\n        require(pool != address(0), \"UbeswapLPVerifier: invalid pool address\");\r\n        require(asset != address(0), \"UbeswapLPVerifier: invalid asset address\");\r\n        require(portion > 0, \"UbeswapLPVerifier: portion must be greater than 0\");\r\n\r\n        uint poolBalance = IERC20(asset).balanceOf(pool);\r\n        uint withdrawBalance = poolBalance.mul(portion).div(10**18);\r\n        uint stakedBalance = IStakingRewards(ubeswapFarms[asset]).balanceOf(pool);\r\n\r\n        //Prepare transaction data\r\n        if (stakedBalance > 0)\r\n        {\r\n            uint stakedWithdrawBalance = stakedBalance.mul(portion).div(10**18);\r\n            transactions = new MultiTransaction[](1);\r\n            transactions[0].to = ubeswapFarms[asset];\r\n            transactions[0].txData = abi.encodeWithSelector(bytes4(keccak256(\"withdraw(uint256)\")), stakedWithdrawBalance);\r\n        }\r\n\r\n        return (asset, withdrawBalance, transactions);\r\n    }\r\n\r\n    /**\r\n    * @dev Returns the pool's balance in the asset\r\n    * @notice May included staked balance in external contracts\r\n    * @param pool Address of the pool\r\n    * @param asset Address of the asset\r\n    * @return uint Pool's balance in the asset\r\n    */\r\n    function getBalance(address pool, address asset) public view override returns (uint) {\r\n        require(pool != address(0), \"UbeswapLPVerifier: invalid pool address\");\r\n        require(asset != address(0), \"UbeswapLPVerifier: invalid asset address\");\r\n\r\n        uint poolBalance = IERC20(asset).balanceOf(pool);\r\n        uint stakedBalance = IStakingRewards(ubeswapFarms[asset]).balanceOf(pool);\r\n\r\n        return poolBalance.add(stakedBalance);\r\n    }\r\n\r\n    /**\r\n    * @dev Given the address of a farm, returns the farm's staking token and reward token\r\n    * @param farmAddress Address of the farm\r\n    * @return (address, address) Address of the staking token and reward token\r\n    */\r\n    function getFarmTokens(address farmAddress) public view override returns (address, address) {\r\n        require(farmAddress != address(0), \"UbeswapLPVerifier: invalid farm address\");\r\n\r\n        return (stakingTokens[farmAddress], rewardTokens[farmAddress]);\r\n    }\r\n\r\n    /* ========== RESTRICTED FUNCTIONS ========== */\r\n\r\n    /**\r\n    * @dev Updates the farm address for the pair\r\n    * @notice Meant to be called by contract owner\r\n    * @param pair Address of pair on Ubeswap\r\n    * @param farmAddress Address of farm on Ubeswap\r\n    * @param rewardToken Address of token paid to stakers\r\n    */\r\n    function setFarmAddress(address pair, address farmAddress, address rewardToken) external onlyOwner {\r\n        require(pair != address(0), \"UbeswapLPVerifier: invalid pair address\");\r\n        require(farmAddress != address(0), \"UbeswapLPVerifier: invalid farm address\");\r\n        require(rewardToken != address(0), \"UbeswapLPVerifier: invalid reward token\");\r\n\r\n        ubeswapFarms[pair] = farmAddress;\r\n        stakingTokens[farmAddress] = pair;\r\n        rewardTokens[farmAddress] = rewardToken;\r\n\r\n        emit UpdatedFarmAddress(pair, farmAddress, rewardToken, block.timestamp);\r\n    }\r\n\r\n    /* ========== EVENTS ========== */\r\n\r\n    event InitializedFarms(uint numberOfFarms, address[] pairs, uint timestamp);\r\n    event UpdatedFarmAddress(address pair, address farmAddress, address rewardToken, uint timestamp);\r\n}",
  "sourcePath": "C:/Users/xavie/OneDrive/Desktop/TradeGen/Github/tradegen-protocol/contracts/verifiers/assetVerifiers/UbeswapLPVerifier.sol",
  "compiler": {
    "name": "solc",
    "version": "0.7.6+commit.7338295f.Emscripten.clang"
  },
  "schemaVersion": "3.4.1",
  "updatedAt": "2021-09-26T18:16:47.735Z",
  "devdoc": {
    "kind": "dev",
    "methods": {
      "getBalance(address,address)": {
        "details": "Returns the pool's balance in the asset",
        "params": {
          "asset": "Address of the asset",
          "pool": "Address of the pool"
        },
        "returns": {
          "_0": "uint Pool's balance in the asset"
        }
      },
      "getDecimals(address)": {
        "details": "Returns the decimals of the asset",
        "params": {
          "asset": "Address of the asset"
        },
        "returns": {
          "_0": "uint Asset's number of decimals"
        }
      },
      "getFarmTokens(address)": {
        "details": "Given the address of a farm, returns the farm's staking token and reward token",
        "params": {
          "farmAddress": "Address of the farm"
        },
        "returns": {
          "_0": "(address, address) Address of the staking token and reward token"
        }
      },
      "isOwner()": {
        "returns": {
          "_0": "true if `msg.sender` is the owner of the contract."
        }
      },
      "owner()": {
        "returns": {
          "_0": "the address of the owner."
        }
      },
      "prepareWithdrawal(address,address,uint256)": {
        "details": "Creates transaction data for withdrawing tokens",
        "params": {
          "asset": "Address of the asset",
          "pool": "Address of the pool",
          "portion": "Portion of the pool's balance in the asset"
        },
        "returns": {
          "_0": "(address, uint, MultiTransaction[]) Withdrawn asset, amount of asset withdrawn, and transactions used to execute the withdrawal"
        }
      },
      "renounceOwnership()": {
        "details": "Allows the current owner to relinquish control of the contract."
      },
      "setFarmAddress(address,address,address)": {
        "details": "Updates the farm address for the pair",
        "params": {
          "farmAddress": "Address of farm on Ubeswap",
          "pair": "Address of pair on Ubeswap",
          "rewardToken": "Address of token paid to stakers"
        }
      },
      "transferOwnership(address)": {
        "details": "Allows the current owner to transfer control of the contract to a newOwner.",
        "params": {
          "newOwner": "The address to transfer ownership to."
        }
      },
      "verify(address,address,address,bytes)": {
        "details": "Parses the transaction data to make sure the transaction is valid",
        "params": {
          "addressResolver": "Address of AddressResolver contract",
          "data": "Transaction call data",
          "pool": "Address of the pool"
        },
        "returns": {
          "_0": "(uint, address) Whether the transaction is valid and the received asset"
        }
      }
    },
    "version": 1
  },
  "userdoc": {
    "kind": "user",
    "methods": {
      "getBalance(address,address)": {
        "notice": "May included staked balance in external contracts"
      },
      "renounceOwnership()": {
        "notice": "Renouncing to ownership will leave the contract without an owner. It will not be possible to call the functions with the `onlyOwner` modifier anymore."
      },
      "setFarmAddress(address,address,address)": {
        "notice": "Meant to be called by contract owner"
      }
    },
    "version": 1
  }
}