{
  "contractName": "UbeswapRouterVerifier",
  "abi": [
    {
      "anonymous": false,
      "inputs": [
        {
          "indexed": false,
          "internalType": "address",
          "name": "pool",
          "type": "address"
        },
        {
          "indexed": false,
          "internalType": "address",
          "name": "tokenA",
          "type": "address"
        },
        {
          "indexed": false,
          "internalType": "address",
          "name": "tokenB",
          "type": "address"
        },
        {
          "indexed": false,
          "internalType": "address",
          "name": "pair",
          "type": "address"
        },
        {
          "indexed": false,
          "internalType": "uint256",
          "name": "amountADesired",
          "type": "uint256"
        },
        {
          "indexed": false,
          "internalType": "uint256",
          "name": "amountBDesired",
          "type": "uint256"
        },
        {
          "indexed": false,
          "internalType": "uint256",
          "name": "timestamp",
          "type": "uint256"
        }
      ],
      "name": "AddedLiquidity",
      "type": "event"
    },
    {
      "anonymous": false,
      "inputs": [
        {
          "indexed": false,
          "internalType": "address",
          "name": "fundAddress",
          "type": "address"
        },
        {
          "indexed": false,
          "internalType": "address",
          "name": "sourceAsset",
          "type": "address"
        },
        {
          "indexed": false,
          "internalType": "uint256",
          "name": "sourceAmount",
          "type": "uint256"
        },
        {
          "indexed": false,
          "internalType": "address",
          "name": "destinationAsset",
          "type": "address"
        },
        {
          "indexed": false,
          "internalType": "uint256",
          "name": "timestamp",
          "type": "uint256"
        }
      ],
      "name": "ExchangeFrom",
      "type": "event"
    },
    {
      "anonymous": false,
      "inputs": [
        {
          "indexed": false,
          "internalType": "address",
          "name": "pool",
          "type": "address"
        },
        {
          "indexed": false,
          "internalType": "address",
          "name": "tokenA",
          "type": "address"
        },
        {
          "indexed": false,
          "internalType": "address",
          "name": "tokenB",
          "type": "address"
        },
        {
          "indexed": false,
          "internalType": "address",
          "name": "pair",
          "type": "address"
        },
        {
          "indexed": false,
          "internalType": "uint256",
          "name": "numberOfLPTokens",
          "type": "uint256"
        },
        {
          "indexed": false,
          "internalType": "uint256",
          "name": "timestamp",
          "type": "uint256"
        }
      ],
      "name": "RemovedLiquidity",
      "type": "event"
    },
    {
      "anonymous": false,
      "inputs": [
        {
          "indexed": false,
          "internalType": "address",
          "name": "pool",
          "type": "address"
        },
        {
          "indexed": false,
          "internalType": "address",
          "name": "srcAsset",
          "type": "address"
        },
        {
          "indexed": false,
          "internalType": "address",
          "name": "dstAsset",
          "type": "address"
        },
        {
          "indexed": false,
          "internalType": "uint256",
          "name": "srcAmount",
          "type": "uint256"
        },
        {
          "indexed": false,
          "internalType": "uint256",
          "name": "timestamp",
          "type": "uint256"
        }
      ],
      "name": "Swap",
      "type": "event"
    },
    {
      "inputs": [
        {
          "internalType": "bytes32",
          "name": "data",
          "type": "bytes32"
        }
      ],
      "name": "convert32toAddress",
      "outputs": [
        {
          "internalType": "address",
          "name": "o",
          "type": "address"
        }
      ],
      "stateMutability": "pure",
      "type": "function"
    },
    {
      "inputs": [
        {
          "internalType": "bytes",
          "name": "data",
          "type": "bytes"
        },
        {
          "internalType": "uint8",
          "name": "inputNum",
          "type": "uint8"
        },
        {
          "internalType": "uint8",
          "name": "arrayIndex",
          "type": "uint8"
        }
      ],
      "name": "getArrayIndex",
      "outputs": [
        {
          "internalType": "bytes32",
          "name": "",
          "type": "bytes32"
        }
      ],
      "stateMutability": "pure",
      "type": "function"
    },
    {
      "inputs": [
        {
          "internalType": "bytes",
          "name": "data",
          "type": "bytes"
        },
        {
          "internalType": "uint8",
          "name": "inputNum",
          "type": "uint8"
        }
      ],
      "name": "getArrayLast",
      "outputs": [
        {
          "internalType": "bytes32",
          "name": "",
          "type": "bytes32"
        }
      ],
      "stateMutability": "pure",
      "type": "function"
    },
    {
      "inputs": [
        {
          "internalType": "bytes",
          "name": "data",
          "type": "bytes"
        },
        {
          "internalType": "uint8",
          "name": "inputNum",
          "type": "uint8"
        }
      ],
      "name": "getArrayLength",
      "outputs": [
        {
          "internalType": "uint256",
          "name": "",
          "type": "uint256"
        }
      ],
      "stateMutability": "pure",
      "type": "function"
    },
    {
      "inputs": [
        {
          "internalType": "bytes",
          "name": "data",
          "type": "bytes"
        },
        {
          "internalType": "uint8",
          "name": "inputNum",
          "type": "uint8"
        },
        {
          "internalType": "uint256",
          "name": "offset",
          "type": "uint256"
        }
      ],
      "name": "getBytes",
      "outputs": [
        {
          "internalType": "bytes",
          "name": "",
          "type": "bytes"
        }
      ],
      "stateMutability": "pure",
      "type": "function"
    },
    {
      "inputs": [
        {
          "internalType": "bytes",
          "name": "data",
          "type": "bytes"
        },
        {
          "internalType": "uint8",
          "name": "inputNum",
          "type": "uint8"
        }
      ],
      "name": "getInput",
      "outputs": [
        {
          "internalType": "bytes32",
          "name": "",
          "type": "bytes32"
        }
      ],
      "stateMutability": "pure",
      "type": "function"
    },
    {
      "inputs": [
        {
          "internalType": "bytes",
          "name": "data",
          "type": "bytes"
        }
      ],
      "name": "getMethod",
      "outputs": [
        {
          "internalType": "bytes4",
          "name": "",
          "type": "bytes4"
        }
      ],
      "stateMutability": "pure",
      "type": "function"
    },
    {
      "inputs": [
        {
          "internalType": "bytes",
          "name": "data",
          "type": "bytes"
        }
      ],
      "name": "getParams",
      "outputs": [
        {
          "internalType": "bytes",
          "name": "",
          "type": "bytes"
        }
      ],
      "stateMutability": "pure",
      "type": "function"
    },
    {
      "inputs": [
        {
          "internalType": "bytes",
          "name": "data",
          "type": "bytes"
        },
        {
          "internalType": "uint256",
          "name": "offset",
          "type": "uint256"
        },
        {
          "internalType": "uint256",
          "name": "length",
          "type": "uint256"
        }
      ],
      "name": "read32",
      "outputs": [
        {
          "internalType": "bytes32",
          "name": "o",
          "type": "bytes32"
        }
      ],
      "stateMutability": "pure",
      "type": "function"
    },
    {
      "inputs": [
        {
          "internalType": "bytes",
          "name": "data",
          "type": "bytes"
        },
        {
          "internalType": "uint256",
          "name": "offset",
          "type": "uint256"
        }
      ],
      "name": "read4left",
      "outputs": [
        {
          "internalType": "bytes4",
          "name": "o",
          "type": "bytes4"
        }
      ],
      "stateMutability": "pure",
      "type": "function"
    },
    {
      "inputs": [
        {
          "internalType": "address",
          "name": "addressResolver",
          "type": "address"
        },
        {
          "internalType": "address",
          "name": "pool",
          "type": "address"
        },
        {
          "internalType": "address",
          "name": "",
          "type": "address"
        },
        {
          "internalType": "bytes",
          "name": "data",
          "type": "bytes"
        }
      ],
      "name": "verify",
      "outputs": [
        {
          "internalType": "bool",
          "name": "",
          "type": "bool"
        },
        {
          "internalType": "address",
          "name": "",
          "type": "address"
        }
      ],
      "stateMutability": "nonpayable",
      "type": "function"
    }
  ],
  "bytecode": "0x608060405234801561001057600080fd5b506125c1806100206000396000f3fe608060405234801561001057600080fd5b50600436106100a95760003560e01c806341dc16c31161007157806341dc16c3146104ad578063689015131461055457806382f86acc14610646578063998546e3146106e0578063c3c6279f1461077a578063db896b5714610826576100a9565b806309ff5c7d146100ae5780631053f952146101485780631eba307714610251578063293d8063146102a957806339158fdd146103a1575b600080fd5b610132600480360360408110156100c457600080fd5b81019080803590602001906401000000008111156100e157600080fd5b8201836020820111156100f357600080fd5b8035906020019184600183028401116401000000008311171561011557600080fd5b9091929391929390803560ff169060200190929190505050610909565b6040518082815260200191505060405180910390f35b6101d66004803603606081101561015e57600080fd5b810190808035906020019064010000000081111561017b57600080fd5b82018360208201111561018d57600080fd5b803590602001918460018302840111640100000000831117156101af57600080fd5b9091929391929390803560ff16906020019092919080359060200190929190505050610aa2565b6040518080602001828103825283818151815260200191508051906020019080838360005b838110156102165780820151818401526020810190506101fb565b50505050905090810190601f1680156102435780820380516001836020036101000a031916815260200191505b509250505060405180910390f35b61027d6004803603602081101561026757600080fd5b8101908080359060200190929190505050610c4b565b604051808273ffffffffffffffffffffffffffffffffffffffff16815260200191505060405180910390f35b61036c600480360360408110156102bf57600080fd5b81019080803590602001906401000000008111156102dc57600080fd5b8201836020820111156102ee57600080fd5b8035906020019184600183028401116401000000008311171561031057600080fd5b91908080601f016020809104026020016040519081016040528093929190818152602001838380828437600081840152601f19601f82011690508083019250505050505050919291929080359060200190929190505050610c58565b60405180827bffffffffffffffffffffffffffffffffffffffffffffffffffffffff1916815260200191505060405180910390f35b610478600480360360808110156103b757600080fd5b81019080803573ffffffffffffffffffffffffffffffffffffffff169060200190929190803573ffffffffffffffffffffffffffffffffffffffff169060200190929190803573ffffffffffffffffffffffffffffffffffffffff1690602001909291908035906020019064010000000081111561043457600080fd5b82018360208201111561044657600080fd5b8035906020019184600183028401116401000000008311171561046857600080fd5b9091929391929390505050610ce3565b6040518083151581526020018273ffffffffffffffffffffffffffffffffffffffff1681526020019250505060405180910390f35b61053e600480360360608110156104c357600080fd5b81019080803590602001906401000000008111156104e057600080fd5b8201836020820111156104f257600080fd5b8035906020019184600183028401116401000000008311171561051457600080fd5b9091929391929390803560ff169060200190929190803560ff169060200190929190505050611df4565b6040518082815260200191505060405180910390f35b6105cb6004803603602081101561056a57600080fd5b810190808035906020019064010000000081111561058757600080fd5b82018360208201111561059957600080fd5b803590602001918460018302840111640100000000831117156105bb57600080fd5b909192939192939050505061200c565b6040518080602001828103825283818151815260200191508051906020019080838360005b8381101561060b5780820151818401526020810190506105f0565b50505050905090810190601f1680156106385780820380516001836020036101000a031916815260200191505b509250505060405180910390f35b6106ca6004803603604081101561065c57600080fd5b810190808035906020019064010000000081111561067957600080fd5b82018360208201111561068b57600080fd5b803590602001918460018302840111640100000000831117156106ad57600080fd5b9091929391929390803560ff169060200190929190505050612075565b6040518082815260200191505060405180910390f35b610764600480360360408110156106f657600080fd5b810190808035906020019064010000000081111561071357600080fd5b82018360208201111561072557600080fd5b8035906020019184600183028401116401000000008311171561074757600080fd5b9091929391929390803560ff1690602001909291905050506120d9565b6040518082815260200191505060405180910390f35b6107f16004803603602081101561079057600080fd5b81019080803590602001906401000000008111156107ad57600080fd5b8201836020820111156107bf57600080fd5b803590602001918460018302840111640100000000831117156107e157600080fd5b909192939192939050505061219a565b60405180827bffffffffffffffffffffffffffffffffffffffffffffffffffffffff1916815260200191505060405180910390f35b6108f36004803603606081101561083c57600080fd5b810190808035906020019064010000000081111561085957600080fd5b82018360208201111561086b57600080fd5b8035906020019184600183028401116401000000008311171561088d57600080fd5b91908080601f016020809104026020016040519081016040528093929190818152602001838380828437600081840152601f19601f82011690508083019250505050505050919291929080359060200190929190803590602001909291905050506121f3565b6040518082815260200191505060405180910390f35b60008061096585858080601f016020809104026020016040519081016040528093929190818152602001838380828437600081840152601f19601f820116905080830192505050505050506004856020020160ff1660206121f3565b905060006109bf86868080601f016020809104026020016040519081016040528093929190818152602001838380828437600081840152601f19601f8201169050808301925050505050505060048460001c0160206121f3565b90506000801b8111610a39576040517f08c379a00000000000000000000000000000000000000000000000000000000081526004018080602001828103825260128152602001807f696e707574206973206e6f74206172726179000000000000000000000000000081525060200191505060405180910390fd5b610a9786868080601f016020809104026020016040519081016040528093929190818152602001838380828437600081840152601f19601f8201169050808301925050505050505060208360001c0260048560001c010160206121f3565b925050509392505050565b606060148210610b1a576040517f08c379a000000000000000000000000000000000000000000000000000000000815260040180806020018281038252600e8152602001807f696e76616c6964206f666673657400000000000000000000000000000000000081525060200191505060405180910390fd5b6020820291506000610b7d86868080601f016020809104026020016040519081016040528093929190818152602001838380828437600081840152601f19601f82011690508083019250505050505050846004876020020160ff160160206121f3565b60001c90506000610bd987878080601f016020809104026020016040519081016040528093929190818152602001838380828437600081840152601f19601f8201169050808301925050505050505085600485010160206121f3565b60001c9050610c3f6020856004850101018289898080601f016020809104026020016040519081016040528093929190818152602001838380828437600081840152601f19601f820116905080830192505050505050506122959092919063ffffffff16565b92505050949350505050565b60008160001c9050919050565b60006004820183511015610cd4576040517f08c379a000000000000000000000000000000000000000000000000000000000815260040180806020018281038252601b8152602001807f52656164696e67206279746573206f7574206f6620626f756e6473000000000081525060200191505060405180910390fd5b81602001830151905092915050565b6000806000610cf2858561219a565b905060008873ffffffffffffffffffffffffffffffffffffffff166304433bbc6040518163ffffffff1660e01b815260040180806020018281038252600c8152602001807f417373657448616e646c6572000000000000000000000000000000000000000081525060200191505060206040518083038186803b158015610d7857600080fd5b505afa158015610d8c573d6000803e3d6000fd5b505050506040513d6020811015610da257600080fd5b8101908080519060200190929190505050905060008973ffffffffffffffffffffffffffffffffffffffff166304433bbc6040518163ffffffff1660e01b81526004018080602001828103825260128152602001807f426173655562657377617041646170746572000000000000000000000000000081525060200191505060206040518083038186803b158015610e3957600080fd5b505afa158015610e4d573d6000803e3d6000fd5b505050506040513d6020811015610e6357600080fd5b810190808051906020019092919050505090507f38ed1739ee07daf49933f1800d1a9bc8d39a6876ea11e643f9c4c39c66df0ee87bffffffffffffffffffffffffffffffffffffffffffffffffffffffff1916837bffffffffffffffffffffffffffffffffffffffffffffffffffffffff19161415611257576000610ef4610eef898960026000611df4565b610c4b565b90506000610f0c610f078a8a6002610909565b610c4b565b90506000610f1c8a8a6000612075565b60001c90506000610f37610f328c8c6003612075565b610c4b565b90508573ffffffffffffffffffffffffffffffffffffffff1663cc435bf3856040518263ffffffff1660e01b8152600401808273ffffffffffffffffffffffffffffffffffffffff16815260200191505060206040518083038186803b158015610fa057600080fd5b505afa158015610fb4573d6000803e3d6000fd5b505050506040513d6020811015610fca57600080fd5b8101908080519060200190929190505050611030576040517f08c379a000000000000000000000000000000000000000000000000000000000815260040180806020018281038252602f815260200180612480602f913960400191505060405180910390fd5b8573ffffffffffffffffffffffffffffffffffffffff1663cc435bf3846040518263ffffffff1660e01b8152600401808273ffffffffffffffffffffffffffffffffffffffff16815260200191505060206040518083038186803b15801561109757600080fd5b505afa1580156110ab573d6000803e3d6000fd5b505050506040513d60208110156110c157600080fd5b8101908080519060200190929190505050611127576040517f08c379a00000000000000000000000000000000000000000000000000000000081526004018080602001828103825260348152602001806125586034913960400191505060405180910390fd5b8073ffffffffffffffffffffffffffffffffffffffff168d73ffffffffffffffffffffffffffffffffffffffff16146111ab576040517f08c379a000000000000000000000000000000000000000000000000000000000815260040180806020018281038252602c8152602001806124af602c913960400191505060405180910390fd5b7fcd3829a3813dc3cdd188fd3d01dcf3268c16be2fdd2dd21d0665418816e460628d85858542604051808673ffffffffffffffffffffffffffffffffffffffff1681526020018573ffffffffffffffffffffffffffffffffffffffff1681526020018473ffffffffffffffffffffffffffffffffffffffff1681526020018381526020018281526020019550505050505060405180910390a16001839850985050505050505050611dea565b7fe8e337003368fc77c2595d117bb98b627132bf8afacee71c7334a2a489802c4c7bffffffffffffffffffffffffffffffffffffffffffffffffffffffff1916837bffffffffffffffffffffffffffffffffffffffffffffffffffffffff1916141561182c5760006112d36112ce89896000612075565b610c4b565b905060006112eb6112e68a8a6001612075565b610c4b565b905060006112fb8a8a6002612075565b60001c9050600061130e8b8b6003612075565b60001c905060008573ffffffffffffffffffffffffffffffffffffffff1663e6a4390586866040518363ffffffff1660e01b8152600401808373ffffffffffffffffffffffffffffffffffffffff1681526020018273ffffffffffffffffffffffffffffffffffffffff1681526020019250505060206040518083038186803b15801561139a57600080fd5b505afa1580156113ae573d6000803e3d6000fd5b505050506040513d60208110156113c457600080fd5b810190808051906020019092919050505090508673ffffffffffffffffffffffffffffffffffffffff1663cc435bf3866040518263ffffffff1660e01b8152600401808273ffffffffffffffffffffffffffffffffffffffff16815260200191505060206040518083038186803b15801561143e57600080fd5b505afa158015611452573d6000803e3d6000fd5b505050506040513d602081101561146857600080fd5b81019080805190602001909291905050506114ce576040517f08c379a000000000000000000000000000000000000000000000000000000000815260040180806020018281038252602981526020018061252f6029913960400191505060405180910390fd5b8673ffffffffffffffffffffffffffffffffffffffff1663cc435bf3856040518263ffffffff1660e01b8152600401808273ffffffffffffffffffffffffffffffffffffffff16815260200191505060206040518083038186803b15801561153557600080fd5b505afa158015611549573d6000803e3d6000fd5b505050506040513d602081101561155f57600080fd5b81019080805190602001909291905050506115c5576040517f08c379a00000000000000000000000000000000000000000000000000000000081526004018080602001828103825260298152602001806124db6029913960400191505060405180910390fd5b8673ffffffffffffffffffffffffffffffffffffffff1663cc435bf3826040518263ffffffff1660e01b8152600401808273ffffffffffffffffffffffffffffffffffffffff16815260200191505060206040518083038186803b15801561162c57600080fd5b505afa158015611640573d6000803e3d6000fd5b505050506040513d602081101561165657600080fd5b81019080805190602001909291905050506116bc576040517f08c379a000000000000000000000000000000000000000000000000000000000815260040180806020018281038252602b815260200180612504602b913960400191505060405180910390fd5b60006116d26116cd8e8e6006612075565b610c4b565b90508073ffffffffffffffffffffffffffffffffffffffff168f73ffffffffffffffffffffffffffffffffffffffff1614611758576040517f08c379a000000000000000000000000000000000000000000000000000000000815260040180806020018281038252602c8152602001806124af602c913960400191505060405180910390fd5b7f2a4b10176712f843f13a5a3c22ba63a21ab24da24329c7ee082ffe5111b1527f8f878785888842604051808873ffffffffffffffffffffffffffffffffffffffff1681526020018773ffffffffffffffffffffffffffffffffffffffff1681526020018673ffffffffffffffffffffffffffffffffffffffff1681526020018573ffffffffffffffffffffffffffffffffffffffff16815260200184815260200183815260200182815260200197505050505050505060405180910390a16001829a509a50505050505050505050611dea565b7fbaa2abdea0af8b36706fa0a9a34a6e89e53bd90c580cbf95a99472e3a5ecda887bffffffffffffffffffffffffffffffffffffffffffffffffffffffff1916837bffffffffffffffffffffffffffffffffffffffffffffffffffffffff19161415611ddf5760006118a86118a389896000612075565b610c4b565b905060006118c06118bb8a8a6001612075565b610c4b565b905060006118d08a8a6002612075565b60001c905060008473ffffffffffffffffffffffffffffffffffffffff1663e6a4390585856040518363ffffffff1660e01b8152600401808373ffffffffffffffffffffffffffffffffffffffff1681526020018273ffffffffffffffffffffffffffffffffffffffff1681526020019250505060206040518083038186803b15801561195c57600080fd5b505afa158015611970573d6000803e3d6000fd5b505050506040513d602081101561198657600080fd5b810190808051906020019092919050505090508573ffffffffffffffffffffffffffffffffffffffff1663cc435bf3856040518263ffffffff1660e01b8152600401808273ffffffffffffffffffffffffffffffffffffffff16815260200191505060206040518083038186803b158015611a0057600080fd5b505afa158015611a14573d6000803e3d6000fd5b505050506040513d6020811015611a2a57600080fd5b8101908080519060200190929190505050611a90576040517f08c379a000000000000000000000000000000000000000000000000000000000815260040180806020018281038252602981526020018061252f6029913960400191505060405180910390fd5b8573ffffffffffffffffffffffffffffffffffffffff1663cc435bf3846040518263ffffffff1660e01b8152600401808273ffffffffffffffffffffffffffffffffffffffff16815260200191505060206040518083038186803b158015611af757600080fd5b505afa158015611b0b573d6000803e3d6000fd5b505050506040513d6020811015611b2157600080fd5b8101908080519060200190929190505050611b87576040517f08c379a00000000000000000000000000000000000000000000000000000000081526004018080602001828103825260298152602001806124db6029913960400191505060405180910390fd5b8573ffffffffffffffffffffffffffffffffffffffff1663cc435bf3826040518263ffffffff1660e01b8152600401808273ffffffffffffffffffffffffffffffffffffffff16815260200191505060206040518083038186803b158015611bee57600080fd5b505afa158015611c02573d6000803e3d6000fd5b505050506040513d6020811015611c1857600080fd5b8101908080519060200190929190505050611c7e576040517f08c379a000000000000000000000000000000000000000000000000000000000815260040180806020018281038252602b815260200180612504602b913960400191505060405180910390fd5b611c92611c8d8c8c6005612075565b610c4b565b73ffffffffffffffffffffffffffffffffffffffff168d73ffffffffffffffffffffffffffffffffffffffff1614611d15576040517f08c379a000000000000000000000000000000000000000000000000000000000815260040180806020018281038252602c8152602001806124af602c913960400191505060405180910390fd5b7f15c960e9a0acfa078c808d029b4da445dce36a149caccc4ba590f1f625f3a01a8d8585848642604051808773ffffffffffffffffffffffffffffffffffffffff1681526020018673ffffffffffffffffffffffffffffffffffffffff1681526020018573ffffffffffffffffffffffffffffffffffffffff1681526020018473ffffffffffffffffffffffffffffffffffffffff168152602001838152602001828152602001965050505050505060405180910390a16001819850985050505050505050611dea565b600080945094505050505b9550959350505050565b600080611e5086868080601f016020809104026020016040519081016040528093929190818152602001838380828437600081840152601f19601f820116905080830192505050505050506004866020020160ff1660206121f3565b90506000611eaa87878080601f016020809104026020016040519081016040528093929190818152602001838380828437600081840152601f19601f8201169050808301925050505050505060048460001c0160206121f3565b90506000801b8111611f24576040517f08c379a00000000000000000000000000000000000000000000000000000000081526004018080602001828103825260128152602001807f696e707574206973206e6f74206172726179000000000000000000000000000081525060200191505060405180910390fd5b8360ff168160001c11611f9f576040517f08c379a00000000000000000000000000000000000000000000000000000000081526004018080602001828103825260168152602001807f696e76616c696420617272617920706f736974696f6e0000000000000000000081525060200191505060405180910390fd5b61200087878080601f016020809104026020016040519081016040528093929190818152602001838380828437600081840152601f19601f8201169050808301925050505050505060208660ff166001010260048560001c010160206121f3565b92505050949350505050565b606061206d600480858590500385858080601f016020809104026020016040519081016040528093929190818152602001838380828437600081840152601f19601f820116905080830192505050505050506122959092919063ffffffff16565b905092915050565b60006120d084848080601f016020809104026020016040519081016040528093929190818152602001838380828437600081840152601f19601f820116905080830192505050505050506004846020020160ff1660206121f3565b90509392505050565b60008061213585858080601f016020809104026020016040519081016040528093929190818152602001838380828437600081840152601f19601f820116905080830192505050505050506004856020020160ff1660206121f3565b905061218d85858080601f016020809104026020016040519081016040528093929190818152602001838380828437600081840152601f19601f8201169050808301925050505050505060048360001c0160206121f3565b60001c9150509392505050565b60006121eb83838080601f016020809104026020016040519081016040528093929190818152602001838380828437600081840152601f19601f820116905080830192505050505050506000610c58565b905092915050565b60008183018451101561226e576040517f08c379a000000000000000000000000000000000000000000000000000000000815260040180806020018281038252601b8152602001807f52656164696e67206279746573206f7574206f6620626f756e6473000000000081525060200191505060405180910390fd5b82602001840151905081602003801561228d576008810260020a820491505b509392505050565b606081601f83011015612310576040517f08c379a000000000000000000000000000000000000000000000000000000000815260040180806020018281038252600e8152602001807f736c6963655f6f766572666c6f7700000000000000000000000000000000000081525060200191505060405180910390fd5b828284011015612388576040517f08c379a000000000000000000000000000000000000000000000000000000000815260040180806020018281038252600e8152602001807f736c6963655f6f766572666c6f7700000000000000000000000000000000000081525060200191505060405180910390fd5b81830184511015612401576040517f08c379a00000000000000000000000000000000000000000000000000000000081526004018080602001828103825260118152602001807f736c6963655f6f75744f66426f756e647300000000000000000000000000000081525060200191505060405180910390fd5b60608215600081146124225760405191506000825260208201604052612473565b6040519150601f8416801560200281840101858101878315602002848b0101015b818310156124605780518352602083019250602081019050612443565b50868552601f19601f8301166040525050505b5080915050939250505056fe55626573776170526f7574657256657269666965723a20756e737570706f7274656420736f7572636520617373657455626573776170526f7574657256657269666965723a20726563697069656e74206973206e6f7420706f6f6c55626573776170526f7574657256657269666965723a20756e737570706f7274656420746f6b656e4255626573776170526f7574657256657269666965723a20756e737570706f72746564204c5020746f6b656e55626573776170526f7574657256657269666965723a20756e737570706f7274656420746f6b656e4155626573776170526f7574657256657269666965723a20756e737570706f727465642064657374696e6174696f6e206173736574a2646970667358221220b596383358308a0502236e6711460dfd0c947b3b28325b984ab78c92471d36fc64736f6c63430007060033",
  "immutableReferences": {},
  "source": "// SPDX-License-Identifier: MIT\r\n\r\npragma solidity >=0.7.6;\r\n\r\n//Libraries\r\nimport \"../libraries/TxDataUtils.sol\";\r\nimport \"../libraries/SafeMath.sol\";\r\n\r\n//Inheritance\r\nimport \"../interfaces/IVerifier.sol\";\r\n\r\n//Interfaces\r\nimport \"../interfaces/IAddressResolver.sol\";\r\nimport \"../interfaces/IAssetHandler.sol\";\r\nimport \"../interfaces/IBaseUbeswapAdapter.sol\";\r\n\r\ncontract UbeswapRouterVerifier is TxDataUtils, IVerifier {\r\n    using SafeMath for uint;\r\n\r\n    /**\r\n    * @dev Parses the transaction data to make sure the transaction is valid\r\n    * @param addressResolver Address of AddressResolver contract\r\n    * @param pool Address of the pool\r\n    * @param data Transaction call data\r\n    * @return (uint, address) Whether the transaction is valid and the received asset\r\n    */\r\n    function verify(address addressResolver, address pool, address, bytes calldata data) public override returns (bool, address) {\r\n        bytes4 method = getMethod(data);\r\n\r\n        address assetHandlerAddress = IAddressResolver(addressResolver).getContractAddress(\"AssetHandler\");\r\n        address baseUbeswapAdapterAddress = IAddressResolver(addressResolver).getContractAddress(\"BaseUbeswapAdapter\");\r\n\r\n        if (method == bytes4(keccak256(\"swapExactTokensForTokens(uint256,uint256,address[],address,uint256)\")))\r\n        {\r\n            //Parse transaction data\r\n            address srcAsset = convert32toAddress(getArrayIndex(data, 2, 0)); // gets the second input (path) first item (token to swap from)\r\n            address dstAsset = convert32toAddress(getArrayLast(data, 2)); // gets second input (path) last item (token to swap to)\r\n            uint srcAmount = uint(getInput(data, 0));\r\n            address toAddress = convert32toAddress(getInput(data, 3));\r\n\r\n            //Check if assets are supported\r\n            require(IAssetHandler(assetHandlerAddress).isValidAsset(srcAsset), \"UbeswapRouterVerifier: unsupported source asset\");\r\n            require(IAssetHandler(assetHandlerAddress).isValidAsset(dstAsset), \"UbeswapRouterVerifier: unsupported destination asset\");\r\n\r\n            //Check if recipient is a pool\r\n            require(pool == toAddress, \"UbeswapRouterVerifier: recipient is not pool\");\r\n\r\n            emit Swap(pool, srcAsset, dstAsset, srcAmount, block.timestamp);\r\n\r\n            return (true, dstAsset);\r\n        }\r\n        else if (method == bytes4(keccak256(\"addLiquidity(address,address,uint256,uint256,uint256,uint256,address,uint256)\")))\r\n        {\r\n            address tokenA = convert32toAddress(getInput(data, 0));\r\n            address tokenB = convert32toAddress(getInput(data, 1));\r\n\r\n            uint amountADesired = uint(getInput(data, 2));\r\n            uint amountBDesired = uint(getInput(data, 3));\r\n\r\n            //Check if assets are supported\r\n            address pair = IBaseUbeswapAdapter(baseUbeswapAdapterAddress).getPair(tokenA, tokenB);\r\n            require(IAssetHandler(assetHandlerAddress).isValidAsset(tokenA), \"UbeswapRouterVerifier: unsupported tokenA\");\r\n            require(IAssetHandler(assetHandlerAddress).isValidAsset(tokenB), \"UbeswapRouterVerifier: unsupported tokenB\");\r\n            require(IAssetHandler(assetHandlerAddress).isValidAsset(pair), \"UbeswapRouterVerifier: unsupported LP token\");\r\n\r\n            address recipient = convert32toAddress(getInput(data, 6));\r\n\r\n            //Check if recipient is a pool\r\n            require(pool == recipient, \"UbeswapRouterVerifier: recipient is not pool\");\r\n\r\n            emit AddedLiquidity(pool, tokenA, tokenB, pair, amountADesired, amountBDesired, block.timestamp);\r\n\r\n            return (true, pair);\r\n        }\r\n        else if (method == bytes4(keccak256(\"removeLiquidity(address,address,uint256,uint256,uint256,address,uint256)\")))\r\n        {\r\n            address tokenA = convert32toAddress(getInput(data, 0));\r\n            address tokenB = convert32toAddress(getInput(data, 1));\r\n\r\n            uint numberOfLPTokens = uint(getInput(data, 2));\r\n\r\n            //Check if assets are supported\r\n            address pair = IBaseUbeswapAdapter(baseUbeswapAdapterAddress).getPair(tokenA, tokenB);\r\n            require(IAssetHandler(assetHandlerAddress).isValidAsset(tokenA), \"UbeswapRouterVerifier: unsupported tokenA\");\r\n            require(IAssetHandler(assetHandlerAddress).isValidAsset(tokenB), \"UbeswapRouterVerifier: unsupported tokenB\");\r\n            require(IAssetHandler(assetHandlerAddress).isValidAsset(pair), \"UbeswapRouterVerifier: unsupported LP token\");\r\n\r\n            //Check if recipient is a pool\r\n            require(pool == convert32toAddress(getInput(data, 5)), \"UbeswapRouterVerifier: recipient is not pool\");\r\n\r\n            emit RemovedLiquidity(pool, tokenA, tokenB, pair, numberOfLPTokens, block.timestamp);\r\n\r\n            return (true, pair);\r\n        }\r\n\r\n        return (false, address(0));\r\n    }\r\n\r\n    /* ========== EVENTS ========== */\r\n\r\n    event Swap(address pool, address srcAsset, address dstAsset, uint srcAmount, uint timestamp);\r\n    event AddedLiquidity(address pool, address tokenA, address tokenB, address pair, uint amountADesired, uint amountBDesired, uint timestamp);\r\n    event RemovedLiquidity(address pool, address tokenA, address tokenB, address pair, uint numberOfLPTokens, uint timestamp);\r\n}",
  "sourcePath": "C:/Users/xavie/OneDrive/Desktop/TradeGen/Github/tradegen-protocol/contracts/verifiers/UbeswapRouterVerifier.sol",
  "compiler": {
    "name": "solc",
    "version": "0.7.6+commit.7338295f.Emscripten.clang"
  },
  "schemaVersion": "3.4.1",
  "updatedAt": "2021-08-20T19:54:46.616Z",
  "devdoc": {
    "kind": "dev",
    "methods": {
      "verify(address,address,address,bytes)": {
        "details": "Parses the transaction data to make sure the transaction is valid",
        "params": {
          "addressResolver": "Address of AddressResolver contract",
          "data": "Transaction call data",
          "pool": "Address of the pool"
        },
        "returns": {
          "_0": "(uint, address) Whether the transaction is valid and the received asset"
        }
      }
    },
    "version": 1
  },
  "userdoc": {
    "kind": "user",
    "methods": {},
    "version": 1
  }
}