{
  "contractName": "UbeswapFarmVerifier",
  "abi": [
    {
      "anonymous": false,
      "inputs": [
        {
          "indexed": true,
          "internalType": "address",
          "name": "pool",
          "type": "address"
        },
        {
          "indexed": true,
          "internalType": "address",
          "name": "farm",
          "type": "address"
        },
        {
          "indexed": false,
          "internalType": "uint256",
          "name": "timestamp",
          "type": "uint256"
        }
      ],
      "name": "ClaimedReward",
      "type": "event"
    },
    {
      "anonymous": false,
      "inputs": [
        {
          "indexed": false,
          "internalType": "address",
          "name": "fundAddress",
          "type": "address"
        },
        {
          "indexed": false,
          "internalType": "address",
          "name": "sourceAsset",
          "type": "address"
        },
        {
          "indexed": false,
          "internalType": "uint256",
          "name": "sourceAmount",
          "type": "uint256"
        },
        {
          "indexed": false,
          "internalType": "address",
          "name": "destinationAsset",
          "type": "address"
        },
        {
          "indexed": false,
          "internalType": "uint256",
          "name": "timestamp",
          "type": "uint256"
        }
      ],
      "name": "ExchangeFrom",
      "type": "event"
    },
    {
      "anonymous": false,
      "inputs": [
        {
          "indexed": true,
          "internalType": "address",
          "name": "pool",
          "type": "address"
        },
        {
          "indexed": true,
          "internalType": "address",
          "name": "farm",
          "type": "address"
        },
        {
          "indexed": false,
          "internalType": "uint256",
          "name": "numberOfLPTokens",
          "type": "uint256"
        },
        {
          "indexed": false,
          "internalType": "uint256",
          "name": "timestamp",
          "type": "uint256"
        }
      ],
      "name": "Staked",
      "type": "event"
    },
    {
      "anonymous": false,
      "inputs": [
        {
          "indexed": true,
          "internalType": "address",
          "name": "pool",
          "type": "address"
        },
        {
          "indexed": true,
          "internalType": "address",
          "name": "farm",
          "type": "address"
        },
        {
          "indexed": false,
          "internalType": "uint256",
          "name": "numberOfLPTokens",
          "type": "uint256"
        },
        {
          "indexed": false,
          "internalType": "uint256",
          "name": "timestamp",
          "type": "uint256"
        }
      ],
      "name": "Unstaked",
      "type": "event"
    },
    {
      "inputs": [
        {
          "internalType": "bytes32",
          "name": "data",
          "type": "bytes32"
        }
      ],
      "name": "convert32toAddress",
      "outputs": [
        {
          "internalType": "address",
          "name": "o",
          "type": "address"
        }
      ],
      "stateMutability": "pure",
      "type": "function"
    },
    {
      "inputs": [
        {
          "internalType": "bytes",
          "name": "data",
          "type": "bytes"
        },
        {
          "internalType": "uint8",
          "name": "inputNum",
          "type": "uint8"
        },
        {
          "internalType": "uint8",
          "name": "arrayIndex",
          "type": "uint8"
        }
      ],
      "name": "getArrayIndex",
      "outputs": [
        {
          "internalType": "bytes32",
          "name": "",
          "type": "bytes32"
        }
      ],
      "stateMutability": "pure",
      "type": "function"
    },
    {
      "inputs": [
        {
          "internalType": "bytes",
          "name": "data",
          "type": "bytes"
        },
        {
          "internalType": "uint8",
          "name": "inputNum",
          "type": "uint8"
        }
      ],
      "name": "getArrayLast",
      "outputs": [
        {
          "internalType": "bytes32",
          "name": "",
          "type": "bytes32"
        }
      ],
      "stateMutability": "pure",
      "type": "function"
    },
    {
      "inputs": [
        {
          "internalType": "bytes",
          "name": "data",
          "type": "bytes"
        },
        {
          "internalType": "uint8",
          "name": "inputNum",
          "type": "uint8"
        }
      ],
      "name": "getArrayLength",
      "outputs": [
        {
          "internalType": "uint256",
          "name": "",
          "type": "uint256"
        }
      ],
      "stateMutability": "pure",
      "type": "function"
    },
    {
      "inputs": [
        {
          "internalType": "bytes",
          "name": "data",
          "type": "bytes"
        },
        {
          "internalType": "uint8",
          "name": "inputNum",
          "type": "uint8"
        },
        {
          "internalType": "uint256",
          "name": "offset",
          "type": "uint256"
        }
      ],
      "name": "getBytes",
      "outputs": [
        {
          "internalType": "bytes",
          "name": "",
          "type": "bytes"
        }
      ],
      "stateMutability": "pure",
      "type": "function"
    },
    {
      "inputs": [
        {
          "internalType": "bytes",
          "name": "data",
          "type": "bytes"
        },
        {
          "internalType": "uint8",
          "name": "inputNum",
          "type": "uint8"
        }
      ],
      "name": "getInput",
      "outputs": [
        {
          "internalType": "bytes32",
          "name": "",
          "type": "bytes32"
        }
      ],
      "stateMutability": "pure",
      "type": "function"
    },
    {
      "inputs": [
        {
          "internalType": "bytes",
          "name": "data",
          "type": "bytes"
        }
      ],
      "name": "getMethod",
      "outputs": [
        {
          "internalType": "bytes4",
          "name": "",
          "type": "bytes4"
        }
      ],
      "stateMutability": "pure",
      "type": "function"
    },
    {
      "inputs": [
        {
          "internalType": "bytes",
          "name": "data",
          "type": "bytes"
        }
      ],
      "name": "getParams",
      "outputs": [
        {
          "internalType": "bytes",
          "name": "",
          "type": "bytes"
        }
      ],
      "stateMutability": "pure",
      "type": "function"
    },
    {
      "inputs": [
        {
          "internalType": "bytes",
          "name": "data",
          "type": "bytes"
        },
        {
          "internalType": "uint256",
          "name": "offset",
          "type": "uint256"
        },
        {
          "internalType": "uint256",
          "name": "length",
          "type": "uint256"
        }
      ],
      "name": "read32",
      "outputs": [
        {
          "internalType": "bytes32",
          "name": "o",
          "type": "bytes32"
        }
      ],
      "stateMutability": "pure",
      "type": "function"
    },
    {
      "inputs": [
        {
          "internalType": "bytes",
          "name": "data",
          "type": "bytes"
        },
        {
          "internalType": "uint256",
          "name": "offset",
          "type": "uint256"
        }
      ],
      "name": "read4left",
      "outputs": [
        {
          "internalType": "bytes4",
          "name": "o",
          "type": "bytes4"
        }
      ],
      "stateMutability": "pure",
      "type": "function"
    },
    {
      "inputs": [
        {
          "internalType": "address",
          "name": "addressResolver",
          "type": "address"
        },
        {
          "internalType": "address",
          "name": "pool",
          "type": "address"
        },
        {
          "internalType": "address",
          "name": "to",
          "type": "address"
        },
        {
          "internalType": "bytes",
          "name": "data",
          "type": "bytes"
        }
      ],
      "name": "verify",
      "outputs": [
        {
          "internalType": "bool",
          "name": "",
          "type": "bool"
        },
        {
          "internalType": "address",
          "name": "",
          "type": "address"
        }
      ],
      "stateMutability": "nonpayable",
      "type": "function"
    }
  ],
  "bytecode": "0x608060405234801561001057600080fd5b50612284806100206000396000f3fe608060405234801561001057600080fd5b50600436106100a95760003560e01c806341dc16c31161007157806341dc16c3146104ad578063689015131461055457806382f86acc14610646578063998546e3146106e0578063c3c6279f1461077a578063db896b5714610826576100a9565b806309ff5c7d146100ae5780631053f952146101485780631eba307714610251578063293d8063146102a957806339158fdd146103a1575b600080fd5b610132600480360360408110156100c457600080fd5b81019080803590602001906401000000008111156100e157600080fd5b8201836020820111156100f357600080fd5b8035906020019184600183028401116401000000008311171561011557600080fd5b9091929391929390803560ff169060200190929190505050610909565b6040518082815260200191505060405180910390f35b6101d66004803603606081101561015e57600080fd5b810190808035906020019064010000000081111561017b57600080fd5b82018360208201111561018d57600080fd5b803590602001918460018302840111640100000000831117156101af57600080fd5b9091929391929390803560ff16906020019092919080359060200190929190505050610aa2565b6040518080602001828103825283818151815260200191508051906020019080838360005b838110156102165780820151818401526020810190506101fb565b50505050905090810190601f1680156102435780820380516001836020036101000a031916815260200191505b509250505060405180910390f35b61027d6004803603602081101561026757600080fd5b8101908080359060200190929190505050610c4b565b604051808273ffffffffffffffffffffffffffffffffffffffff16815260200191505060405180910390f35b61036c600480360360408110156102bf57600080fd5b81019080803590602001906401000000008111156102dc57600080fd5b8201836020820111156102ee57600080fd5b8035906020019184600183028401116401000000008311171561031057600080fd5b91908080601f016020809104026020016040519081016040528093929190818152602001838380828437600081840152601f19601f82011690508083019250505050505050919291929080359060200190929190505050610c58565b60405180827bffffffffffffffffffffffffffffffffffffffffffffffffffffffff1916815260200191505060405180910390f35b610478600480360360808110156103b757600080fd5b81019080803573ffffffffffffffffffffffffffffffffffffffff169060200190929190803573ffffffffffffffffffffffffffffffffffffffff169060200190929190803573ffffffffffffffffffffffffffffffffffffffff1690602001909291908035906020019064010000000081111561043457600080fd5b82018360208201111561044657600080fd5b8035906020019184600183028401116401000000008311171561046857600080fd5b9091929391929390505050610ce3565b6040518083151581526020018273ffffffffffffffffffffffffffffffffffffffff1681526020019250505060405180910390f35b61053e600480360360608110156104c357600080fd5b81019080803590602001906401000000008111156104e057600080fd5b8201836020820111156104f257600080fd5b8035906020019184600183028401116401000000008311171561051457600080fd5b9091929391929390803560ff169060200190929190803560ff169060200190929190505050611b67565b6040518082815260200191505060405180910390f35b6105cb6004803603602081101561056a57600080fd5b810190808035906020019064010000000081111561058757600080fd5b82018360208201111561059957600080fd5b803590602001918460018302840111640100000000831117156105bb57600080fd5b9091929391929390505050611d7f565b6040518080602001828103825283818151815260200191508051906020019080838360005b8381101561060b5780820151818401526020810190506105f0565b50505050905090810190601f1680156106385780820380516001836020036101000a031916815260200191505b509250505060405180910390f35b6106ca6004803603604081101561065c57600080fd5b810190808035906020019064010000000081111561067957600080fd5b82018360208201111561068b57600080fd5b803590602001918460018302840111640100000000831117156106ad57600080fd5b9091929391929390803560ff169060200190929190505050611de8565b6040518082815260200191505060405180910390f35b610764600480360360408110156106f657600080fd5b810190808035906020019064010000000081111561071357600080fd5b82018360208201111561072557600080fd5b8035906020019184600183028401116401000000008311171561074757600080fd5b9091929391929390803560ff169060200190929190505050611e4c565b6040518082815260200191505060405180910390f35b6107f16004803603602081101561079057600080fd5b81019080803590602001906401000000008111156107ad57600080fd5b8201836020820111156107bf57600080fd5b803590602001918460018302840111640100000000831117156107e157600080fd5b9091929391929390505050611f0d565b60405180827bffffffffffffffffffffffffffffffffffffffffffffffffffffffff1916815260200191505060405180910390f35b6108f36004803603606081101561083c57600080fd5b810190808035906020019064010000000081111561085957600080fd5b82018360208201111561086b57600080fd5b8035906020019184600183028401116401000000008311171561088d57600080fd5b91908080601f016020809104026020016040519081016040528093929190818152602001838380828437600081840152601f19601f8201169050808301925050505050505091929192908035906020019092919080359060200190929190505050611f66565b6040518082815260200191505060405180910390f35b60008061096585858080601f016020809104026020016040519081016040528093929190818152602001838380828437600081840152601f19601f820116905080830192505050505050506004856020020160ff166020611f66565b905060006109bf86868080601f016020809104026020016040519081016040528093929190818152602001838380828437600081840152601f19601f8201169050808301925050505050505060048460001c016020611f66565b90506000801b8111610a39576040517f08c379a00000000000000000000000000000000000000000000000000000000081526004018080602001828103825260128152602001807f696e707574206973206e6f74206172726179000000000000000000000000000081525060200191505060405180910390fd5b610a9786868080601f016020809104026020016040519081016040528093929190818152602001838380828437600081840152601f19601f8201169050808301925050505050505060208360001c0260048560001c01016020611f66565b925050509392505050565b606060148210610b1a576040517f08c379a000000000000000000000000000000000000000000000000000000000815260040180806020018281038252600e8152602001807f696e76616c6964206f666673657400000000000000000000000000000000000081525060200191505060405180910390fd5b6020820291506000610b7d86868080601f016020809104026020016040519081016040528093929190818152602001838380828437600081840152601f19601f82011690508083019250505050505050846004876020020160ff16016020611f66565b60001c90506000610bd987878080601f016020809104026020016040519081016040528093929190818152602001838380828437600081840152601f19601f820116905080830192505050505050508560048501016020611f66565b60001c9050610c3f6020856004850101018289898080601f016020809104026020016040519081016040528093929190818152602001838380828437600081840152601f19601f820116905080830192505050505050506120089092919063ffffffff16565b92505050949350505050565b60008160001c9050919050565b60006004820183511015610cd4576040517f08c379a000000000000000000000000000000000000000000000000000000000815260040180806020018281038252601b8152602001807f52656164696e67206279746573206f7574206f6620626f756e6473000000000081525060200191505060405180910390fd5b81602001830151905092915050565b6000806000610cf28585611f0d565b905060008873ffffffffffffffffffffffffffffffffffffffff166304433bbc6040518163ffffffff1660e01b815260040180806020018281038252600c8152602001807f417373657448616e646c6572000000000000000000000000000000000000000081525060200191505060206040518083038186803b158015610d7857600080fd5b505afa158015610d8c573d6000803e3d6000fd5b505050506040513d6020811015610da257600080fd5b810190808051906020019092919050505090507f6faf15ca09b602f0493f7839f361d504869b4035a986b31bf25633e493f8f50f7bffffffffffffffffffffffffffffffffffffffffffffffffffffffff1916827bffffffffffffffffffffffffffffffffffffffffffffffffffffffff191614156111a4576000610e2987876000611de8565b60001c905060008873ffffffffffffffffffffffffffffffffffffffff166372f702f36040518163ffffffff1660e01b815260040160206040518083038186803b158015610e7657600080fd5b505afa158015610e8a573d6000803e3d6000fd5b505050506040513d6020811015610ea057600080fd5b8101908080519060200190929190505050905060008973ffffffffffffffffffffffffffffffffffffffff1663d1af0c7d6040518163ffffffff1660e01b815260040160206040518083038186803b158015610efb57600080fd5b505afa158015610f0f573d6000803e3d6000fd5b505050506040513d6020811015610f2557600080fd5b810190808051906020019092919050505090508373ffffffffffffffffffffffffffffffffffffffff1663cc435bf3826040518263ffffffff1660e01b8152600401808273ffffffffffffffffffffffffffffffffffffffff16815260200191505060206040518083038186803b158015610f9f57600080fd5b505afa158015610fb3573d6000803e3d6000fd5b505050506040513d6020811015610fc957600080fd5b810190808051906020019092919050505061102f576040517f08c379a000000000000000000000000000000000000000000000000000000000815260040180806020018281038252602d8152602001806121f3602d913960400191505060405180910390fd5b8373ffffffffffffffffffffffffffffffffffffffff1663cc435bf3836040518263ffffffff1660e01b8152600401808273ffffffffffffffffffffffffffffffffffffffff16815260200191505060206040518083038186803b15801561109657600080fd5b505afa1580156110aa573d6000803e3d6000fd5b505050506040513d60208110156110c057600080fd5b8101908080519060200190929190505050611126576040517f08c379a000000000000000000000000000000000000000000000000000000000815260040180806020018281038252602f815260200180612220602f913960400191505060405180910390fd5b8973ffffffffffffffffffffffffffffffffffffffff168b73ffffffffffffffffffffffffffffffffffffffff167f6c86f3fd5118b3aa8bb4f389a617046de0a3d3d477de1a1673d227f802f616dc8542604051808381526020018281526020019250505060405180910390a3600181965096505050505050611b5d565b7f8ba145622f34537cd34250893bdfcf5d32d8f9b6d688b3406fa3127952ad2f057bffffffffffffffffffffffffffffffffffffffffffffffffffffffff1916827bffffffffffffffffffffffffffffffffffffffffffffffffffffffff1916141561141657600061121887876000611de8565b60001c905060008873ffffffffffffffffffffffffffffffffffffffff166372f702f36040518163ffffffff1660e01b815260040160206040518083038186803b15801561126557600080fd5b505afa158015611279573d6000803e3d6000fd5b505050506040513d602081101561128f57600080fd5b810190808051906020019092919050505090508273ffffffffffffffffffffffffffffffffffffffff1663cc435bf3826040518263ffffffff1660e01b8152600401808273ffffffffffffffffffffffffffffffffffffffff16815260200191505060206040518083038186803b15801561130957600080fd5b505afa15801561131d573d6000803e3d6000fd5b505050506040513d602081101561133357600080fd5b8101908080519060200190929190505050611399576040517f08c379a000000000000000000000000000000000000000000000000000000000815260040180806020018281038252602f815260200180612220602f913960400191505060405180910390fd5b8873ffffffffffffffffffffffffffffffffffffffff168a73ffffffffffffffffffffffffffffffffffffffff167f06cc7e90b4f2b554a9614b0caa84f909f3498c820ae47c731f490c28c07f7d3b8442604051808381526020018281526020019250505060405180910390a36001819550955050505050611b5d565b7f3d18b912414e03e11f8639a2ba6d0a824d0c79a512536b3b2fc173f05201421d7bffffffffffffffffffffffffffffffffffffffffffffffffffffffff1916827bffffffffffffffffffffffffffffffffffffffffffffffffffffffff1916141561166c5760008773ffffffffffffffffffffffffffffffffffffffff1663d1af0c7d6040518163ffffffff1660e01b815260040160206040518083038186803b1580156114c457600080fd5b505afa1580156114d8573d6000803e3d6000fd5b505050506040513d60208110156114ee57600080fd5b810190808051906020019092919050505090508173ffffffffffffffffffffffffffffffffffffffff1663cc435bf3826040518263ffffffff1660e01b8152600401808273ffffffffffffffffffffffffffffffffffffffff16815260200191505060206040518083038186803b15801561156857600080fd5b505afa15801561157c573d6000803e3d6000fd5b505050506040513d602081101561159257600080fd5b81019080805190602001909291905050506115f8576040517f08c379a000000000000000000000000000000000000000000000000000000000815260040180806020018281038252602d8152602001806121f3602d913960400191505060405180910390fd5b8773ffffffffffffffffffffffffffffffffffffffff168973ffffffffffffffffffffffffffffffffffffffff167faee3654837b73cc93e61b5d33f82d45b1df4dbe682913819f5ce40de23518e72426040518082815260200191505060405180910390a360018194509450505050611b5d565b7fe9fad8eea204b4e38143c2c630cc1b64bc3b3ff5b8753e15578eaec7af4ff3827bffffffffffffffffffffffffffffffffffffffffffffffffffffffff1916827bffffffffffffffffffffffffffffffffffffffffffffffffffffffff19161415611b535760008773ffffffffffffffffffffffffffffffffffffffff166372f702f36040518163ffffffff1660e01b815260040160206040518083038186803b15801561171a57600080fd5b505afa15801561172e573d6000803e3d6000fd5b505050506040513d602081101561174457600080fd5b8101908080519060200190929190505050905060008873ffffffffffffffffffffffffffffffffffffffff1663d1af0c7d6040518163ffffffff1660e01b815260040160206040518083038186803b15801561179f57600080fd5b505afa1580156117b3573d6000803e3d6000fd5b505050506040513d60208110156117c957600080fd5b8101908080519060200190929190505050905060008973ffffffffffffffffffffffffffffffffffffffff166370a082318c6040518263ffffffff1660e01b8152600401808273ffffffffffffffffffffffffffffffffffffffff16815260200191505060206040518083038186803b15801561184557600080fd5b505afa158015611859573d6000803e3d6000fd5b505050506040513d602081101561186f57600080fd5b810190808051906020019092919050505090508373ffffffffffffffffffffffffffffffffffffffff1663cc435bf3836040518263ffffffff1660e01b8152600401808273ffffffffffffffffffffffffffffffffffffffff16815260200191505060206040518083038186803b1580156118e957600080fd5b505afa1580156118fd573d6000803e3d6000fd5b505050506040513d602081101561191357600080fd5b8101908080519060200190929190505050611979576040517f08c379a000000000000000000000000000000000000000000000000000000000815260040180806020018281038252602d8152602001806121f3602d913960400191505060405180910390fd5b8373ffffffffffffffffffffffffffffffffffffffff1663cc435bf3846040518263ffffffff1660e01b8152600401808273ffffffffffffffffffffffffffffffffffffffff16815260200191505060206040518083038186803b1580156119e057600080fd5b505afa1580156119f4573d6000803e3d6000fd5b505050506040513d6020811015611a0a57600080fd5b8101908080519060200190929190505050611a70576040517f08c379a000000000000000000000000000000000000000000000000000000000815260040180806020018281038252602f815260200180612220602f913960400191505060405180910390fd5b8973ffffffffffffffffffffffffffffffffffffffff168b73ffffffffffffffffffffffffffffffffffffffff167f06cc7e90b4f2b554a9614b0caa84f909f3498c820ae47c731f490c28c07f7d3b8342604051808381526020018281526020019250505060405180910390a38973ffffffffffffffffffffffffffffffffffffffff168b73ffffffffffffffffffffffffffffffffffffffff167faee3654837b73cc93e61b5d33f82d45b1df4dbe682913819f5ce40de23518e72426040518082815260200191505060405180910390a3600182965096505050505050611b5d565b6000809350935050505b9550959350505050565b600080611bc386868080601f016020809104026020016040519081016040528093929190818152602001838380828437600081840152601f19601f820116905080830192505050505050506004866020020160ff166020611f66565b90506000611c1d87878080601f016020809104026020016040519081016040528093929190818152602001838380828437600081840152601f19601f8201169050808301925050505050505060048460001c016020611f66565b90506000801b8111611c97576040517f08c379a00000000000000000000000000000000000000000000000000000000081526004018080602001828103825260128152602001807f696e707574206973206e6f74206172726179000000000000000000000000000081525060200191505060405180910390fd5b8360ff168160001c11611d12576040517f08c379a00000000000000000000000000000000000000000000000000000000081526004018080602001828103825260168152602001807f696e76616c696420617272617920706f736974696f6e0000000000000000000081525060200191505060405180910390fd5b611d7387878080601f016020809104026020016040519081016040528093929190818152602001838380828437600081840152601f19601f8201169050808301925050505050505060208660ff166001010260048560001c01016020611f66565b92505050949350505050565b6060611de0600480858590500385858080601f016020809104026020016040519081016040528093929190818152602001838380828437600081840152601f19601f820116905080830192505050505050506120089092919063ffffffff16565b905092915050565b6000611e4384848080601f016020809104026020016040519081016040528093929190818152602001838380828437600081840152601f19601f820116905080830192505050505050506004846020020160ff166020611f66565b90509392505050565b600080611ea885858080601f016020809104026020016040519081016040528093929190818152602001838380828437600081840152601f19601f820116905080830192505050505050506004856020020160ff166020611f66565b9050611f0085858080601f016020809104026020016040519081016040528093929190818152602001838380828437600081840152601f19601f8201169050808301925050505050505060048360001c016020611f66565b60001c9150509392505050565b6000611f5e83838080601f016020809104026020016040519081016040528093929190818152602001838380828437600081840152601f19601f820116905080830192505050505050506000610c58565b905092915050565b600081830184511015611fe1576040517f08c379a000000000000000000000000000000000000000000000000000000000815260040180806020018281038252601b8152602001807f52656164696e67206279746573206f7574206f6620626f756e6473000000000081525060200191505060405180910390fd5b826020018401519050816020038015612000576008810260020a820491505b509392505050565b606081601f83011015612083576040517f08c379a000000000000000000000000000000000000000000000000000000000815260040180806020018281038252600e8152602001807f736c6963655f6f766572666c6f7700000000000000000000000000000000000081525060200191505060405180910390fd5b8282840110156120fb576040517f08c379a000000000000000000000000000000000000000000000000000000000815260040180806020018281038252600e8152602001807f736c6963655f6f766572666c6f7700000000000000000000000000000000000081525060200191505060405180910390fd5b81830184511015612174576040517f08c379a00000000000000000000000000000000000000000000000000000000081526004018080602001828103825260118152602001807f736c6963655f6f75744f66426f756e647300000000000000000000000000000081525060200191505060405180910390fd5b606082156000811461219557604051915060008252602082016040526121e6565b6040519150601f8416801560200281840101858101878315602002848b0101015b818310156121d357805183526020830192506020810190506121b6565b50868552601f19601f8301166040525050505b5080915050939250505056fe556265737761704661726d56657269666965723a20756e737570706f727465642072657761726420746f6b656e556265737761704661726d56657269666965723a20756e737570706f72746564206c69717569646974792070616972a26469706673582212205b55750b17d012cfb49852bed9859a16f329a6d6f145be821ba144932be98cd864736f6c63430007060033",
  "immutableReferences": {},
  "source": "// SPDX-License-Identifier: MIT\r\n\r\npragma solidity >=0.7.6;\r\n\r\n//Libraries\r\nimport \"../libraries/TxDataUtils.sol\";\r\nimport \"../libraries/SafeMath.sol\";\r\n\r\n//Inheritance\r\nimport \"../interfaces/IVerifier.sol\";\r\n\r\n//Interfaces\r\nimport \"../interfaces/IAddressResolver.sol\";\r\nimport \"../interfaces/IAssetHandler.sol\";\r\nimport \"../interfaces/Ubeswap/IStakingRewards.sol\";\r\nimport \"../interfaces/Ubeswap/IUniswapV2Pair.sol\";\r\n\r\ncontract UbeswapFarmVerifier is TxDataUtils, IVerifier {\r\n    using SafeMath for uint;\r\n\r\n    /**\r\n    * @dev Parses the transaction data to make sure the transaction is valid\r\n    * @param addressResolver Address of AddressResolver contract\r\n    * @param pool Address of the pool\r\n    * @param to External contract address\r\n    * @param data Transaction call data\r\n    * @return (uint, address) Whether the transaction is valid and the received asset\r\n    */\r\n    function verify(address addressResolver, address pool, address to, bytes calldata data) public override returns (bool, address) {\r\n        bytes4 method = getMethod(data);\r\n\r\n        address assetHandlerAddress = IAddressResolver(addressResolver).getContractAddress(\"AssetHandler\");\r\n\r\n        if (method == bytes4(keccak256(\"stake(uint)\")))\r\n        {\r\n            //Parse transaction data\r\n            uint numberOfLPTokens = uint(getInput(data, 0));\r\n\r\n            //Get assets \r\n            address pair = IStakingRewards(to).stakingToken();\r\n            address rewardToken = IStakingRewards(to).rewardsToken();\r\n\r\n            //Check if assets are supported\r\n            require(IAssetHandler(assetHandlerAddress).isValidAsset(rewardToken), \"UbeswapFarmVerifier: unsupported reward token\");\r\n            require(IAssetHandler(assetHandlerAddress).isValidAsset(pair), \"UbeswapFarmVerifier: unsupported liquidity pair\");\r\n\r\n            emit Staked(pool, to, numberOfLPTokens, block.timestamp);\r\n\r\n            return (true, rewardToken);\r\n        }\r\n        else if (method == bytes4(keccak256(\"withdraw(uint)\")))\r\n        {\r\n            //Parse transaction data\r\n            uint numberOfLPTokens = uint(getInput(data, 0));\r\n\r\n            //Get assets\r\n            address pair = IStakingRewards(to).stakingToken();\r\n\r\n            //Check if assets are supported\r\n            require(IAssetHandler(assetHandlerAddress).isValidAsset(pair), \"UbeswapFarmVerifier: unsupported liquidity pair\");\r\n\r\n            emit Unstaked(pool, to, numberOfLPTokens, block.timestamp);\r\n\r\n            return (true, pair);\r\n        }\r\n        else if (method == bytes4(keccak256(\"getReward()\")))\r\n        {\r\n            //Get assets\r\n            address rewardToken = IStakingRewards(to).rewardsToken();\r\n\r\n            //Check if assets are supported\r\n            require(IAssetHandler(assetHandlerAddress).isValidAsset(rewardToken), \"UbeswapFarmVerifier: unsupported reward token\");\r\n\r\n            emit ClaimedReward(pool, to, block.timestamp);\r\n\r\n            return (true, rewardToken);\r\n        }\r\n        else if (method == bytes4(keccak256(\"exit()\")))\r\n        {\r\n            //Get assets\r\n            address pair = IStakingRewards(to).stakingToken();\r\n            address rewardToken = IStakingRewards(to).rewardsToken();\r\n\r\n            uint numberOfLPTokens = IStakingRewards(to).balanceOf(pool);\r\n\r\n            //Check if assets are supported\r\n            require(IAssetHandler(assetHandlerAddress).isValidAsset(rewardToken), \"UbeswapFarmVerifier: unsupported reward token\");\r\n            require(IAssetHandler(assetHandlerAddress).isValidAsset(pair), \"UbeswapFarmVerifier: unsupported liquidity pair\");\r\n\r\n            emit Unstaked(pool, to, numberOfLPTokens, block.timestamp);\r\n            emit ClaimedReward(pool, to, block.timestamp);\r\n\r\n            return (true, rewardToken);\r\n        }\r\n\r\n        return (false, address(0));\r\n    }\r\n\r\n    /* ========== EVENTS ========== */\r\n\r\n    event Staked(address indexed pool, address indexed farm, uint numberOfLPTokens, uint timestamp);\r\n    event Unstaked(address indexed pool, address indexed farm, uint numberOfLPTokens, uint timestamp);\r\n    event ClaimedReward(address indexed pool, address indexed farm, uint timestamp);\r\n}",
  "sourcePath": "C:/Users/xavie/OneDrive/Desktop/TradeGen/Github/tradegen-protocol/contracts/verifiers/UbeswapFarmVerifier.sol",
  "compiler": {
    "name": "solc",
    "version": "0.7.6+commit.7338295f.Emscripten.clang"
  },
  "schemaVersion": "3.4.1",
  "updatedAt": "2021-08-20T19:54:46.611Z",
  "devdoc": {
    "kind": "dev",
    "methods": {
      "verify(address,address,address,bytes)": {
        "details": "Parses the transaction data to make sure the transaction is valid",
        "params": {
          "addressResolver": "Address of AddressResolver contract",
          "data": "Transaction call data",
          "pool": "Address of the pool",
          "to": "External contract address"
        },
        "returns": {
          "_0": "(uint, address) Whether the transaction is valid and the received asset"
        }
      }
    },
    "version": 1
  },
  "userdoc": {
    "kind": "user",
    "methods": {},
    "version": 1
  }
}