{
  "contractName": "UserManager",
  "abi": [
    {
      "inputs": [],
      "stateMutability": "nonpayable",
      "type": "constructor"
    },
    {
      "anonymous": false,
      "inputs": [
        {
          "indexed": true,
          "internalType": "address",
          "name": "user",
          "type": "address"
        },
        {
          "indexed": false,
          "internalType": "uint256",
          "name": "timestamp",
          "type": "uint256"
        }
      ],
      "name": "RegisteredUser",
      "type": "event"
    },
    {
      "anonymous": false,
      "inputs": [
        {
          "indexed": true,
          "internalType": "address",
          "name": "user",
          "type": "address"
        },
        {
          "indexed": false,
          "internalType": "string",
          "name": "newUsername",
          "type": "string"
        },
        {
          "indexed": false,
          "internalType": "uint256",
          "name": "timestamp",
          "type": "uint256"
        }
      ],
      "name": "UpdatedUsername",
      "type": "event"
    },
    {
      "inputs": [
        {
          "internalType": "string",
          "name": "",
          "type": "string"
        }
      ],
      "name": "usernames",
      "outputs": [
        {
          "internalType": "address",
          "name": "",
          "type": "address"
        }
      ],
      "stateMutability": "view",
      "type": "function"
    },
    {
      "inputs": [
        {
          "internalType": "address",
          "name": "",
          "type": "address"
        }
      ],
      "name": "users",
      "outputs": [
        {
          "internalType": "uint256",
          "name": "memberSinceTimestamp",
          "type": "uint256"
        },
        {
          "internalType": "string",
          "name": "username",
          "type": "string"
        }
      ],
      "stateMutability": "view",
      "type": "function"
    },
    {
      "inputs": [
        {
          "internalType": "address",
          "name": "user",
          "type": "address"
        }
      ],
      "name": "getUser",
      "outputs": [
        {
          "internalType": "uint256",
          "name": "",
          "type": "uint256"
        },
        {
          "internalType": "string",
          "name": "",
          "type": "string"
        }
      ],
      "stateMutability": "view",
      "type": "function"
    },
    {
      "inputs": [
        {
          "internalType": "string",
          "name": "newUsername",
          "type": "string"
        }
      ],
      "name": "editUsername",
      "outputs": [],
      "stateMutability": "nonpayable",
      "type": "function"
    },
    {
      "inputs": [
        {
          "internalType": "string",
          "name": "defaultRandomUsername",
          "type": "string"
        }
      ],
      "name": "registerUser",
      "outputs": [],
      "stateMutability": "nonpayable",
      "type": "function"
    }
  ],
  "bytecode": "0x608060405234801561001057600080fd5b5061142c806100206000396000f3fe608060405234801561001057600080fd5b50600436106100575760003560e01c806351e700cc1461005c5780636f77926b14610117578063704f1b94146101db578063a87430ba14610296578063aaee301f1461035a575b600080fd5b6101156004803603602081101561007257600080fd5b810190808035906020019064010000000081111561008f57600080fd5b8201836020820111156100a157600080fd5b803590602001918460018302840111640100000000831117156100c357600080fd5b91908080601f016020809104026020016040519081016040528093929190818152602001838380828437600081840152601f19601f82011690508083019250505050505050919291929050505061043f565b005b6101596004803603602081101561012d57600080fd5b81019080803573ffffffffffffffffffffffffffffffffffffffff169060200190929190505050610b76565b6040518083815260200180602001828103825283818151815260200191508051906020019080838360005b8381101561019f578082015181840152602081019050610184565b50505050905090810190601f1680156101cc5780820380516001836020036101000a031916815260200191505b50935050505060405180910390f35b610294600480360360208110156101f157600080fd5b810190808035906020019064010000000081111561020e57600080fd5b82018360208201111561022057600080fd5b8035906020019184600183028401116401000000008311171561024257600080fd5b91908080601f016020809104026020016040519081016040528093929190818152602001838380828437600081840152601f19601f820116905080830192505050505050509192919290505050610dfe565b005b6102d8600480360360208110156102ac57600080fd5b81019080803573ffffffffffffffffffffffffffffffffffffffff169060200190929190505050611228565b6040518083815260200180602001828103825283818151815260200191508051906020019080838360005b8381101561031e578082015181840152602081019050610303565b50505050905090810190601f16801561034b5780820380516001836020036101000a031916815260200191505b50935050505060405180910390f35b6104136004803603602081101561037057600080fd5b810190808035906020019064010000000081111561038d57600080fd5b82018360208201111561039f57600080fd5b803590602001918460018302840111640100000000831117156103c157600080fd5b91908080601f016020809104026020016040519081016040528093929190818152602001838380828437600081840152601f19601f8201169050808301925050505050505091929192905050506112e4565b604051808273ffffffffffffffffffffffffffffffffffffffff16815260200191505060405180910390f35b33600073ffffffffffffffffffffffffffffffffffffffff168173ffffffffffffffffffffffffffffffffffffffff1614156104e3576040517f08c379a00000000000000000000000000000000000000000000000000000000081526004018080602001828103825260148152602001807f496e76616c69642075736572206164647265737300000000000000000000000081525060200191505060405180910390fd5b60008060008373ffffffffffffffffffffffffffffffffffffffff1673ffffffffffffffffffffffffffffffffffffffff168152602001908152602001600020600001541161059a576040517f08c379a000000000000000000000000000000000000000000000000000000000815260040180806020018281038252600e8152602001807f55736572206e6f7420666f756e6400000000000000000000000000000000000081525060200191505060405180910390fd5b60008060003373ffffffffffffffffffffffffffffffffffffffff1673ffffffffffffffffffffffffffffffffffffffff1681526020019081526020016000206000015411610651576040517f08c379a00000000000000000000000000000000000000000000000000000000081526004018080602001828103825260138152602001807f55736572206e6f7420726567697374657265640000000000000000000000000081525060200191505060405180910390fd5b600073ffffffffffffffffffffffffffffffffffffffff166001836040518082805190602001908083835b6020831061069f578051825260208201915060208101905060208303925061067c565b6001836020036101000a038019825116818451168082178552505050505050905001915050908152602001604051809103902060009054906101000a900473ffffffffffffffffffffffffffffffffffffffff1673ffffffffffffffffffffffffffffffffffffffff161461077c576040517f08c379a00000000000000000000000000000000000000000000000000000000081526004018080602001828103825260178152602001807f557365726e616d6520616c72656164792065786973747300000000000000000081525060200191505060405180910390fd5b60008251116107f3576040517f08c379a000000000000000000000000000000000000000000000000000000000815260040180806020018281038252601f8152602001807f557365726e616d652063616e6e6f7420626520656d70747920737472696e670081525060200191505060405180910390fd5b601e8251111561084e576040517f08c379a000000000000000000000000000000000000000000000000000000000815260040180806020018281038252602c8152602001806113cb602c913960400191505060405180910390fd5b60606000803373ffffffffffffffffffffffffffffffffffffffff1673ffffffffffffffffffffffffffffffffffffffff1681526020019081526020016000206001018054600181600116156101000203166002900480601f0160208091040260200160405190810160405280929190818152602001828054600181600116156101000203166002900480156109255780601f106108fa57610100808354040283529160200191610925565b820191906000526020600020905b81548152906001019060200180831161090857829003601f168201915b50505050509050826000803373ffffffffffffffffffffffffffffffffffffffff1673ffffffffffffffffffffffffffffffffffffffff168152602001908152602001600020600101908051906020019061098192919061132d565b506001816040518082805190602001908083835b602083106109b85780518252602082019150602081019050602083039250610995565b6001836020036101000a038019825116818451168082178552505050505050905001915050908152602001604051809103902060006101000a81549073ffffffffffffffffffffffffffffffffffffffff0219169055336001846040518082805190602001908083835b60208310610a455780518252602082019150602081019050602083039250610a22565b6001836020036101000a038019825116818451168082178552505050505050905001915050908152602001604051809103902060006101000a81548173ffffffffffffffffffffffffffffffffffffffff021916908373ffffffffffffffffffffffffffffffffffffffff1602179055503373ffffffffffffffffffffffffffffffffffffffff167f4682d87b99beaea0fb0b226ca54128b09d7b9bfe046ba2ebebaa163498a486c284426040518080602001838152602001828103825284818151815260200191508051906020019080838360005b83811015610b36578082015181840152602081019050610b1b565b50505050905090810190601f168015610b635780820380516001836020036101000a031916815260200191505b50935050505060405180910390a2505050565b6000606082600073ffffffffffffffffffffffffffffffffffffffff168173ffffffffffffffffffffffffffffffffffffffff161415610c1e576040517f08c379a00000000000000000000000000000000000000000000000000000000081526004018080602001828103825260148152602001807f496e76616c69642075736572206164647265737300000000000000000000000081525060200191505060405180910390fd5b60008060008373ffffffffffffffffffffffffffffffffffffffff1673ffffffffffffffffffffffffffffffffffffffff1681526020019081526020016000206000015411610cd5576040517f08c379a000000000000000000000000000000000000000000000000000000000815260040180806020018281038252600e8152602001807f55736572206e6f7420666f756e6400000000000000000000000000000000000081525060200191505060405180910390fd5b6000808573ffffffffffffffffffffffffffffffffffffffff1673ffffffffffffffffffffffffffffffffffffffff168152602001908152602001600020600001546000808673ffffffffffffffffffffffffffffffffffffffff1673ffffffffffffffffffffffffffffffffffffffff168152602001908152602001600020600101808054600181600116156101000203166002900480601f016020809104026020016040519081016040528092919081815260200182805460018160011615610100020316600290048015610ded5780601f10610dc257610100808354040283529160200191610ded565b820191906000526020600020905b815481529060010190602001808311610dd057829003601f168201915b505050505090509250925050915091565b60008060003373ffffffffffffffffffffffffffffffffffffffff1673ffffffffffffffffffffffffffffffffffffffff1681526020019081526020016000206000015414610eb5576040517f08c379a00000000000000000000000000000000000000000000000000000000081526004018080602001828103825260138152602001807f5573657220616c7265616479206578697374730000000000000000000000000081525060200191505060405180910390fd5b6000815111610f2c576040517f08c379a000000000000000000000000000000000000000000000000000000000815260040180806020018281038252601f8152602001807f557365726e616d652063616e6e6f7420626520656d70747920737472696e670081525060200191505060405180910390fd5b601e81511115610f87576040517f08c379a000000000000000000000000000000000000000000000000000000000815260040180806020018281038252602c8152602001806113cb602c913960400191505060405180910390fd5b600073ffffffffffffffffffffffffffffffffffffffff166001826040518082805190602001908083835b60208310610fd55780518252602082019150602081019050602083039250610fb2565b6001836020036101000a038019825116818451168082178552505050505050905001915050908152602001604051809103902060009054906101000a900473ffffffffffffffffffffffffffffffffffffffff1673ffffffffffffffffffffffffffffffffffffffff16146110b2576040517f08c379a00000000000000000000000000000000000000000000000000000000081526004018080602001828103825260178152602001807f557365726e616d6520616c72656164792065786973747300000000000000000081525060200191505060405180910390fd5b336001826040518082805190602001908083835b602083106110e957805182526020820191506020810190506020830392506110c6565b6001836020036101000a038019825116818451168082178552505050505050905001915050908152602001604051809103902060006101000a81548173ffffffffffffffffffffffffffffffffffffffff021916908373ffffffffffffffffffffffffffffffffffffffff1602179055506040518060400160405280428152602001828152506000803373ffffffffffffffffffffffffffffffffffffffff1673ffffffffffffffffffffffffffffffffffffffff1681526020019081526020016000206000820151816000015560208201518160010190805190602001906111d392919061132d565b509050503373ffffffffffffffffffffffffffffffffffffffff167fd491ed3a4cd2906afcb5a97958c59b952272499b40206dadde1057633c353dbf426040518082815260200191505060405180910390a250565b6000602052806000526040600020600091509050806000015490806001018054600181600116156101000203166002900480601f0160208091040260200160405190810160405280929190818152602001828054600181600116156101000203166002900480156112da5780601f106112af576101008083540402835291602001916112da565b820191906000526020600020905b8154815290600101906020018083116112bd57829003601f168201915b5050505050905082565b6001818051602081018201805184825260208301602085012081835280955050505050506000915054906101000a900473ffffffffffffffffffffffffffffffffffffffff1681565b828054600181600116156101000203166002900490600052602060002090601f016020900481019282601f1061136e57805160ff191683800117855561139c565b8280016001018555821561139c579182015b8281111561139b578251825591602001919060010190611380565b5b5090506113a991906113ad565b5090565b5b808211156113c65760008160009055506001016113ae565b509056fe557365726e616d652063616e6e6f742068617665206d6f7265207468616e2033302063686172616374657273a2646970667358221220b0470a7f8a452559b1f50679d6464f9bd665b9f54c3b3978ae9fd1a51ba8a1b864736f6c634300060c0033",
  "immutableReferences": {},
  "source": "pragma solidity >=0.5.0;\r\n\r\ncontract UserManager {\r\n\r\n    struct User {\r\n        uint memberSinceTimestamp;\r\n        string username;\r\n    }\r\n\r\n    mapping (address => User) public users;\r\n    mapping (string => address) public usernames;\r\n\r\n    constructor() public {}\r\n\r\n    /* ========== VIEWS ========== */\r\n\r\n    /**\r\n    * @dev Returns the timestamp and username of the given user\r\n    * @param user Address of the user\r\n    * @return User The timestamp and username of the user\r\n    */\r\n    function getUser(address user) external view userExists(user) returns(uint, string memory) {\r\n        return (users[user].memberSinceTimestamp, users[user].username);\r\n    }\r\n\r\n    /* ========== MUTATIVE FUNCTIONS ========== */\r\n\r\n    /**\r\n    * @dev Changes the user's username to the new username\r\n    * @param newUsername New username for the user\r\n    */\r\n    function editUsername(string memory newUsername) external userExists(msg.sender) {\r\n        require(users[msg.sender].memberSinceTimestamp > 0, \"User not registered\");\r\n        require(usernames[newUsername] == address(0), \"Username already exists\");\r\n        require(bytes(newUsername).length > 0, \"Username cannot be empty string\");\r\n        require(bytes(newUsername).length <= 30, \"Username cannot have more than 30 characters\");\r\n\r\n        string memory oldUsername = users[msg.sender].username;\r\n        users[msg.sender].username = newUsername;\r\n        delete usernames[oldUsername];\r\n        usernames[newUsername] = msg.sender;\r\n\r\n        emit UpdatedUsername(msg.sender, newUsername, block.timestamp);\r\n    }\r\n\r\n    /**\r\n    * @dev Registers a new user to the platform\r\n    * @param defaultRandomUsername Default username created for the user; username is generated on frontend\r\n    */\r\n    function registerUser(string memory defaultRandomUsername) external {\r\n        require(users[msg.sender].memberSinceTimestamp == 0, \"User already exists\");\r\n        require(bytes(defaultRandomUsername).length > 0, \"Username cannot be empty string\");\r\n        require(bytes(defaultRandomUsername).length <= 30, \"Username cannot have more than 30 characters\");\r\n        require(usernames[defaultRandomUsername] == address(0), \"Username already exists\");\r\n\r\n        usernames[defaultRandomUsername] = msg.sender;\r\n        users[msg.sender] = User(block.timestamp, defaultRandomUsername);\r\n\r\n        emit RegisteredUser(msg.sender, block.timestamp);\r\n    }\r\n\r\n    /* ========== MODIFIERS ========== */\r\n\r\n    modifier userExists(address user) {\r\n        require(user != address(0), \"Invalid user address\");\r\n        require(users[user].memberSinceTimestamp > 0, \"User not found\");\r\n        _;\r\n    }\r\n\r\n    /* ========== EVENTS ========== */\r\n\r\n    event UpdatedUsername(address indexed user, string newUsername, uint timestamp);\r\n    event RegisteredUser(address indexed user, uint timestamp);\r\n}",
  "sourcePath": "C:/Users/xavie/OneDrive/Desktop/TradeGen/Github/tradegen/contracts/UserManager.sol",
  "compiler": {
    "name": "solc",
    "version": "0.6.12+commit.27d51765.Emscripten.clang"
  },
  "schemaVersion": "3.4.1",
  "updatedAt": "2021-07-10T20:44:05.921Z",
  "devdoc": {
    "kind": "dev",
    "methods": {
      "editUsername(string)": {
        "details": "Changes the user's username to the new username",
        "params": {
          "newUsername": "New username for the user"
        }
      },
      "getUser(address)": {
        "details": "Returns the timestamp and username of the given user",
        "params": {
          "user": "Address of the user"
        },
        "returns": {
          "_0": "User The timestamp and username of the user"
        }
      },
      "registerUser(string)": {
        "details": "Registers a new user to the platform",
        "params": {
          "defaultRandomUsername": "Default username created for the user; username is generated on frontend"
        }
      }
    },
    "version": 1
  },
  "userdoc": {
    "kind": "user",
    "methods": {},
    "version": 1
  }
}